{
	"contracts/Ghosper-NFT-Staking-MasterChef.sol": {
		"NftStaking": {
			"abi": [
				{
					"inputs": [
						{
							"internalType": "contract IERC721",
							"name": "_nftToken",
							"type": "address"
						},
						{
							"internalType": "contract IBEP20",
							"name": "_ghspToken",
							"type": "address"
						},
						{
							"internalType": "uint256",
							"name": "_rewardPerBlock",
							"type": "uint256"
						},
						{
							"internalType": "address",
							"name": "_feeWallet",
							"type": "address"
						}
					],
					"stateMutability": "nonpayable",
					"type": "constructor"
				},
				{
					"anonymous": false,
					"inputs": [
						{
							"indexed": false,
							"internalType": "uint256",
							"name": "_index",
							"type": "uint256"
						},
						{
							"indexed": false,
							"internalType": "uint256",
							"name": "_minDays",
							"type": "uint256"
						},
						{
							"indexed": false,
							"internalType": "uint256",
							"name": "_feePercent",
							"type": "uint256"
						}
					],
					"name": "AddUnStakeFee",
					"type": "event"
				},
				{
					"anonymous": false,
					"inputs": [
						{
							"indexed": true,
							"internalType": "address",
							"name": "user",
							"type": "address"
						},
						{
							"indexed": false,
							"internalType": "uint256",
							"name": "amount",
							"type": "uint256"
						}
					],
					"name": "DepositReward",
					"type": "event"
				},
				{
					"anonymous": false,
					"inputs": [
						{
							"indexed": false,
							"internalType": "address",
							"name": "staker",
							"type": "address"
						},
						{
							"indexed": false,
							"internalType": "uint256",
							"name": "amount",
							"type": "uint256"
						},
						{
							"indexed": false,
							"internalType": "uint256",
							"name": "harvestFee",
							"type": "uint256"
						}
					],
					"name": "Harvest",
					"type": "event"
				},
				{
					"anonymous": false,
					"inputs": [
						{
							"indexed": true,
							"internalType": "address",
							"name": "previousOwner",
							"type": "address"
						},
						{
							"indexed": true,
							"internalType": "address",
							"name": "newOwner",
							"type": "address"
						}
					],
					"name": "OwnershipTransferred",
					"type": "event"
				},
				{
					"anonymous": false,
					"inputs": [
						{
							"indexed": true,
							"internalType": "address",
							"name": "_feeWallet",
							"type": "address"
						}
					],
					"name": "SetFeeWallet",
					"type": "event"
				},
				{
					"anonymous": false,
					"inputs": [
						{
							"indexed": false,
							"internalType": "uint256",
							"name": "_harvestFee",
							"type": "uint256"
						}
					],
					"name": "SetHarvestFee",
					"type": "event"
				},
				{
					"anonymous": false,
					"inputs": [
						{
							"indexed": false,
							"internalType": "address",
							"name": "staker",
							"type": "address"
						},
						{
							"indexed": false,
							"internalType": "uint256[]",
							"name": "tokenId",
							"type": "uint256[]"
						}
					],
					"name": "Staked",
					"type": "event"
				},
				{
					"anonymous": false,
					"inputs": [
						{
							"indexed": false,
							"internalType": "address",
							"name": "staker",
							"type": "address"
						},
						{
							"indexed": false,
							"internalType": "uint256[]",
							"name": "tokenId",
							"type": "uint256[]"
						}
					],
					"name": "UnStaked",
					"type": "event"
				},
				{
					"inputs": [],
					"name": "accGHSPPerShare",
					"outputs": [
						{
							"internalType": "uint256",
							"name": "",
							"type": "uint256"
						}
					],
					"stateMutability": "view",
					"type": "function"
				},
				{
					"inputs": [],
					"name": "balanceOfStakes",
					"outputs": [
						{
							"internalType": "uint256[]",
							"name": "",
							"type": "uint256[]"
						}
					],
					"stateMutability": "view",
					"type": "function"
				},
				{
					"inputs": [
						{
							"internalType": "uint256",
							"name": "_amount",
							"type": "uint256"
						}
					],
					"name": "depositReward",
					"outputs": [],
					"stateMutability": "nonpayable",
					"type": "function"
				},
				{
					"inputs": [],
					"name": "feeWallet",
					"outputs": [
						{
							"internalType": "address",
							"name": "",
							"type": "address"
						}
					],
					"stateMutability": "view",
					"type": "function"
				},
				{
					"inputs": [
						{
							"internalType": "uint256",
							"name": "_from",
							"type": "uint256"
						},
						{
							"internalType": "uint256",
							"name": "_to",
							"type": "uint256"
						}
					],
					"name": "getMultiplier",
					"outputs": [
						{
							"internalType": "uint256",
							"name": "",
							"type": "uint256"
						}
					],
					"stateMutability": "pure",
					"type": "function"
				},
				{
					"inputs": [
						{
							"internalType": "address",
							"name": "_user",
							"type": "address"
						}
					],
					"name": "getPending",
					"outputs": [
						{
							"internalType": "uint256",
							"name": "",
							"type": "uint256"
						}
					],
					"stateMutability": "view",
					"type": "function"
				},
				{
					"inputs": [],
					"name": "getRewardBalance",
					"outputs": [
						{
							"internalType": "uint256",
							"name": "",
							"type": "uint256"
						}
					],
					"stateMutability": "view",
					"type": "function"
				},
				{
					"inputs": [],
					"name": "ghspToken",
					"outputs": [
						{
							"internalType": "contract IBEP20",
							"name": "",
							"type": "address"
						}
					],
					"stateMutability": "view",
					"type": "function"
				},
				{
					"inputs": [],
					"name": "harvest",
					"outputs": [],
					"stateMutability": "nonpayable",
					"type": "function"
				},
				{
					"inputs": [],
					"name": "harvestFee",
					"outputs": [
						{
							"internalType": "uint256",
							"name": "",
							"type": "uint256"
						}
					],
					"stateMutability": "view",
					"type": "function"
				},
				{
					"inputs": [],
					"name": "lastRewardBlock",
					"outputs": [
						{
							"internalType": "uint256",
							"name": "",
							"type": "uint256"
						}
					],
					"stateMutability": "view",
					"type": "function"
				},
				{
					"inputs": [],
					"name": "nftToken",
					"outputs": [
						{
							"internalType": "contract IERC721",
							"name": "",
							"type": "address"
						}
					],
					"stateMutability": "view",
					"type": "function"
				},
				{
					"inputs": [],
					"name": "owner",
					"outputs": [
						{
							"internalType": "address",
							"name": "",
							"type": "address"
						}
					],
					"stateMutability": "view",
					"type": "function"
				},
				{
					"inputs": [],
					"name": "renounceOwnership",
					"outputs": [],
					"stateMutability": "nonpayable",
					"type": "function"
				},
				{
					"inputs": [],
					"name": "rewardPerBlock",
					"outputs": [
						{
							"internalType": "uint256",
							"name": "",
							"type": "uint256"
						}
					],
					"stateMutability": "view",
					"type": "function"
				},
				{
					"inputs": [
						{
							"internalType": "address",
							"name": "_feeWallet",
							"type": "address"
						}
					],
					"name": "setFeeWallet",
					"outputs": [],
					"stateMutability": "nonpayable",
					"type": "function"
				},
				{
					"inputs": [
						{
							"internalType": "uint256",
							"name": "_feePercent",
							"type": "uint256"
						}
					],
					"name": "setHarvestFee",
					"outputs": [],
					"stateMutability": "nonpayable",
					"type": "function"
				},
				{
					"inputs": [
						{
							"internalType": "uint256[]",
							"name": "tokenIds",
							"type": "uint256[]"
						}
					],
					"name": "stake",
					"outputs": [],
					"stateMutability": "nonpayable",
					"type": "function"
				},
				{
					"inputs": [],
					"name": "totalStakedAmount",
					"outputs": [
						{
							"internalType": "uint256",
							"name": "",
							"type": "uint256"
						}
					],
					"stateMutability": "view",
					"type": "function"
				},
				{
					"inputs": [
						{
							"internalType": "address",
							"name": "newOwner",
							"type": "address"
						}
					],
					"name": "transferOwnership",
					"outputs": [],
					"stateMutability": "nonpayable",
					"type": "function"
				},
				{
					"inputs": [
						{
							"internalType": "uint256[]",
							"name": "tokenIds",
							"type": "uint256[]"
						}
					],
					"name": "unstake",
					"outputs": [],
					"stateMutability": "nonpayable",
					"type": "function"
				},
				{
					"inputs": [
						{
							"internalType": "address",
							"name": "",
							"type": "address"
						}
					],
					"name": "userInfo",
					"outputs": [
						{
							"internalType": "uint256",
							"name": "amount",
							"type": "uint256"
						},
						{
							"internalType": "uint256",
							"name": "rewardDebt",
							"type": "uint256"
						},
						{
							"internalType": "uint256",
							"name": "pendingAmount",
							"type": "uint256"
						},
						{
							"internalType": "uint256",
							"name": "lastStakedTime",
							"type": "uint256"
						}
					],
					"stateMutability": "view",
					"type": "function"
				}
			],
			"devdoc": {
				"kind": "dev",
				"methods": {
					"owner()": {
						"details": "Returns the address of the current owner."
					},
					"renounceOwnership()": {
						"details": "Leaves the contract without owner. It will not be possible to call `onlyOwner` functions anymore. Can only be called by the current owner. NOTE: Renouncing ownership will leave the contract without an owner, thereby removing any functionality that is only available to the owner."
					},
					"transferOwnership(address)": {
						"details": "Transfers ownership of the contract to a new account (`newOwner`). Can only be called by the current owner."
					}
				},
				"version": 1
			},
			"evm": {
				"assembly": "    /* \"contracts/Ghosper-NFT-Staking-MasterChef.sol\":27968:36858  contract NftStaking is Ownable {\r... */\n  mstore(0x40, 0xc0)\n    /* \"contracts/Ghosper-NFT-Staking-MasterChef.sol\":29288:29574  constructor(\r... */\n  callvalue\n  dup1\n  iszero\n  tag_1\n  jumpi\n  0x00\n  dup1\n  revert\ntag_1:\n  pop\n  mload(0x40)\n  sub(codesize, bytecodeSize)\n  dup1\n  bytecodeSize\n  dup4\n  codecopy\n  dup2\n  dup2\n  add\n  0x40\n  mstore\n  dup2\n  add\n  swap1\n  tag_2\n  swap2\n  swap1\n  tag_3\n  jump\t// in\ntag_2:\n    /* \"contracts/Ghosper-NFT-Staking-MasterChef.sol\":4790:4822  _transferOwnership(_msgSender()) */\n  tag_7\n    /* \"contracts/Ghosper-NFT-Staking-MasterChef.sol\":4809:4821  _msgSender() */\n  tag_8\n    /* \"contracts/Ghosper-NFT-Staking-MasterChef.sol\":4809:4819  _msgSender */\n  shl(0x20, tag_9)\n    /* \"contracts/Ghosper-NFT-Staking-MasterChef.sol\":4809:4821  _msgSender() */\n  0x20\n  shr\n  jump\t// in\ntag_8:\n    /* \"contracts/Ghosper-NFT-Staking-MasterChef.sol\":4790:4808  _transferOwnership */\n  shl(0x20, tag_10)\n    /* \"contracts/Ghosper-NFT-Staking-MasterChef.sol\":4790:4822  _transferOwnership(_msgSender()) */\n  0x20\n  shr\n  jump\t// in\ntag_7:\n    /* \"contracts/Ghosper-NFT-Staking-MasterChef.sol\":29448:29457  _nftToken */\n  dup4\n    /* \"contracts/Ghosper-NFT-Staking-MasterChef.sol\":29437:29457  nftToken = _nftToken */\n  0xffffffffffffffffffffffffffffffffffffffff\n  and\n  0x80\n  dup2\n  0xffffffffffffffffffffffffffffffffffffffff\n  and\n  0x60\n  shl\n  dup2\n  mstore\n  pop\n  pop\n    /* \"contracts/Ghosper-NFT-Staking-MasterChef.sol\":29480:29490  _ghspToken */\n  dup3\n    /* \"contracts/Ghosper-NFT-Staking-MasterChef.sol\":29468:29490  ghspToken = _ghspToken */\n  0xffffffffffffffffffffffffffffffffffffffff\n  and\n  0xa0\n  dup2\n  0xffffffffffffffffffffffffffffffffffffffff\n  and\n  0x60\n  shl\n  dup2\n  mstore\n  pop\n  pop\n    /* \"contracts/Ghosper-NFT-Staking-MasterChef.sol\":29518:29533  _rewardPerBlock */\n  dup2\n    /* \"contracts/Ghosper-NFT-Staking-MasterChef.sol\":29501:29515  rewardPerBlock */\n  0x03\n    /* \"contracts/Ghosper-NFT-Staking-MasterChef.sol\":29501:29533  rewardPerBlock = _rewardPerBlock */\n  dup2\n  swap1\n  sstore\n  pop\n    /* \"contracts/Ghosper-NFT-Staking-MasterChef.sol\":29556:29566  _feeWallet */\n  dup1\n    /* \"contracts/Ghosper-NFT-Staking-MasterChef.sol\":29544:29553  feeWallet */\n  0x04\n  0x00\n    /* \"contracts/Ghosper-NFT-Staking-MasterChef.sol\":29544:29566  feeWallet = _feeWallet */\n  0x0100\n  exp\n  dup2\n  sload\n  dup2\n  0xffffffffffffffffffffffffffffffffffffffff\n  mul\n  not\n  and\n  swap1\n  dup4\n  0xffffffffffffffffffffffffffffffffffffffff\n  and\n  mul\n  or\n  swap1\n  sstore\n  pop\n    /* \"contracts/Ghosper-NFT-Staking-MasterChef.sol\":29288:29574  constructor(\r... */\n  pop\n  pop\n  pop\n  pop\n    /* \"contracts/Ghosper-NFT-Staking-MasterChef.sol\":27968:36858  contract NftStaking is Ownable {\r... */\n  jump(tag_12)\n    /* \"contracts/Ghosper-NFT-Staking-MasterChef.sol\":3751:3849  function _msgSender() internal view virtual returns (address) {\r... */\ntag_9:\n    /* \"contracts/Ghosper-NFT-Staking-MasterChef.sol\":3804:3811  address */\n  0x00\n    /* \"contracts/Ghosper-NFT-Staking-MasterChef.sol\":3831:3841  msg.sender */\n  caller\n    /* \"contracts/Ghosper-NFT-Staking-MasterChef.sol\":3824:3841  return msg.sender */\n  swap1\n  pop\n    /* \"contracts/Ghosper-NFT-Staking-MasterChef.sol\":3751:3849  function _msgSender() internal view virtual returns (address) {\r... */\n  swap1\n  jump\t// out\n    /* \"contracts/Ghosper-NFT-Staking-MasterChef.sol\":6181:6372  function _transferOwnership(address newOwner) internal virtual {\r... */\ntag_10:\n    /* \"contracts/Ghosper-NFT-Staking-MasterChef.sol\":6255:6271  address oldOwner */\n  0x00\n    /* \"contracts/Ghosper-NFT-Staking-MasterChef.sol\":6274:6280  _owner */\n  dup1\n  0x00\n  swap1\n  sload\n  swap1\n  0x0100\n  exp\n  swap1\n  div\n  0xffffffffffffffffffffffffffffffffffffffff\n  and\n    /* \"contracts/Ghosper-NFT-Staking-MasterChef.sol\":6255:6280  address oldOwner = _owner */\n  swap1\n  pop\n    /* \"contracts/Ghosper-NFT-Staking-MasterChef.sol\":6300:6308  newOwner */\n  dup2\n    /* \"contracts/Ghosper-NFT-Staking-MasterChef.sol\":6291:6297  _owner */\n  0x00\n  dup1\n    /* \"contracts/Ghosper-NFT-Staking-MasterChef.sol\":6291:6308  _owner = newOwner */\n  0x0100\n  exp\n  dup2\n  sload\n  dup2\n  0xffffffffffffffffffffffffffffffffffffffff\n  mul\n  not\n  and\n  swap1\n  dup4\n  0xffffffffffffffffffffffffffffffffffffffff\n  and\n  mul\n  or\n  swap1\n  sstore\n  pop\n    /* \"contracts/Ghosper-NFT-Staking-MasterChef.sol\":6355:6363  newOwner */\n  dup2\n    /* \"contracts/Ghosper-NFT-Staking-MasterChef.sol\":6324:6364  OwnershipTransferred(oldOwner, newOwner) */\n  0xffffffffffffffffffffffffffffffffffffffff\n  and\n    /* \"contracts/Ghosper-NFT-Staking-MasterChef.sol\":6345:6353  oldOwner */\n  dup2\n    /* \"contracts/Ghosper-NFT-Staking-MasterChef.sol\":6324:6364  OwnershipTransferred(oldOwner, newOwner) */\n  0xffffffffffffffffffffffffffffffffffffffff\n  and\n  0x8be0079c531659141344cd1fd0a4f28419497f9722a3daafe3b4186f6b6457e0\n  mload(0x40)\n  mload(0x40)\n  dup1\n  swap2\n  sub\n  swap1\n  log3\n    /* \"contracts/Ghosper-NFT-Staking-MasterChef.sol\":6244:6372  {\r... */\n  pop\n    /* \"contracts/Ghosper-NFT-Staking-MasterChef.sol\":6181:6372  function _transferOwnership(address newOwner) internal virtual {\r... */\n  pop\n  jump\t// out\n    /* \"#utility.yul\":7:150   */\ntag_16:\n    /* \"#utility.yul\":64:69   */\n  0x00\n    /* \"#utility.yul\":95:101   */\n  dup2\n    /* \"#utility.yul\":89:102   */\n  mload\n    /* \"#utility.yul\":80:102   */\n  swap1\n  pop\n    /* \"#utility.yul\":111:144   */\n  tag_18\n    /* \"#utility.yul\":138:143   */\n  dup2\n    /* \"#utility.yul\":111:144   */\n  tag_19\n  jump\t// in\ntag_18:\n    /* \"#utility.yul\":7:150   */\n  swap3\n  swap2\n  pop\n  pop\n  jump\t// out\n    /* \"#utility.yul\":156:327   */\ntag_20:\n    /* \"#utility.yul\":227:232   */\n  0x00\n    /* \"#utility.yul\":258:264   */\n  dup2\n    /* \"#utility.yul\":252:265   */\n  mload\n    /* \"#utility.yul\":243:265   */\n  swap1\n  pop\n    /* \"#utility.yul\":274:321   */\n  tag_22\n    /* \"#utility.yul\":315:320   */\n  dup2\n    /* \"#utility.yul\":274:321   */\n  tag_23\n  jump\t// in\ntag_22:\n    /* \"#utility.yul\":156:327   */\n  swap3\n  swap2\n  pop\n  pop\n  jump\t// out\n    /* \"#utility.yul\":333:508   */\ntag_24:\n    /* \"#utility.yul\":406:411   */\n  0x00\n    /* \"#utility.yul\":437:443   */\n  dup2\n    /* \"#utility.yul\":431:444   */\n  mload\n    /* \"#utility.yul\":422:444   */\n  swap1\n  pop\n    /* \"#utility.yul\":453:502   */\n  tag_26\n    /* \"#utility.yul\":496:501   */\n  dup2\n    /* \"#utility.yul\":453:502   */\n  tag_27\n  jump\t// in\ntag_26:\n    /* \"#utility.yul\":333:508   */\n  swap3\n  swap2\n  pop\n  pop\n  jump\t// out\n    /* \"#utility.yul\":514:657   */\ntag_28:\n    /* \"#utility.yul\":571:576   */\n  0x00\n    /* \"#utility.yul\":602:608   */\n  dup2\n    /* \"#utility.yul\":596:609   */\n  mload\n    /* \"#utility.yul\":587:609   */\n  swap1\n  pop\n    /* \"#utility.yul\":618:651   */\n  tag_30\n    /* \"#utility.yul\":645:650   */\n  dup2\n    /* \"#utility.yul\":618:651   */\n  tag_31\n  jump\t// in\ntag_30:\n    /* \"#utility.yul\":514:657   */\n  swap3\n  swap2\n  pop\n  pop\n  jump\t// out\n    /* \"#utility.yul\":663:1543   */\ntag_3:\n    /* \"#utility.yul\":790:796   */\n  0x00\n    /* \"#utility.yul\":798:804   */\n  dup1\n    /* \"#utility.yul\":806:812   */\n  0x00\n    /* \"#utility.yul\":814:820   */\n  dup1\n    /* \"#utility.yul\":863:866   */\n  0x80\n    /* \"#utility.yul\":851:860   */\n  dup6\n    /* \"#utility.yul\":842:849   */\n  dup8\n    /* \"#utility.yul\":838:861   */\n  sub\n    /* \"#utility.yul\":834:867   */\n  slt\n    /* \"#utility.yul\":831:951   */\n  iszero\n  tag_33\n  jumpi\n    /* \"#utility.yul\":870:949   */\n  tag_34\n  tag_35\n  jump\t// in\ntag_34:\n    /* \"#utility.yul\":831:951   */\ntag_33:\n    /* \"#utility.yul\":990:991   */\n  0x00\n    /* \"#utility.yul\":1015:1095   */\n  tag_36\n    /* \"#utility.yul\":1087:1094   */\n  dup8\n    /* \"#utility.yul\":1078:1084   */\n  dup3\n    /* \"#utility.yul\":1067:1076   */\n  dup9\n    /* \"#utility.yul\":1063:1085   */\n  add\n    /* \"#utility.yul\":1015:1095   */\n  tag_24\n  jump\t// in\ntag_36:\n    /* \"#utility.yul\":1005:1095   */\n  swap5\n  pop\n    /* \"#utility.yul\":961:1105   */\n  pop\n    /* \"#utility.yul\":1144:1146   */\n  0x20\n    /* \"#utility.yul\":1170:1248   */\n  tag_37\n    /* \"#utility.yul\":1240:1247   */\n  dup8\n    /* \"#utility.yul\":1231:1237   */\n  dup3\n    /* \"#utility.yul\":1220:1229   */\n  dup9\n    /* \"#utility.yul\":1216:1238   */\n  add\n    /* \"#utility.yul\":1170:1248   */\n  tag_20\n  jump\t// in\ntag_37:\n    /* \"#utility.yul\":1160:1248   */\n  swap4\n  pop\n    /* \"#utility.yul\":1115:1258   */\n  pop\n    /* \"#utility.yul\":1297:1299   */\n  0x40\n    /* \"#utility.yul\":1323:1387   */\n  tag_38\n    /* \"#utility.yul\":1379:1386   */\n  dup8\n    /* \"#utility.yul\":1370:1376   */\n  dup3\n    /* \"#utility.yul\":1359:1368   */\n  dup9\n    /* \"#utility.yul\":1355:1377   */\n  add\n    /* \"#utility.yul\":1323:1387   */\n  tag_28\n  jump\t// in\ntag_38:\n    /* \"#utility.yul\":1313:1387   */\n  swap3\n  pop\n    /* \"#utility.yul\":1268:1397   */\n  pop\n    /* \"#utility.yul\":1436:1438   */\n  0x60\n    /* \"#utility.yul\":1462:1526   */\n  tag_39\n    /* \"#utility.yul\":1518:1525   */\n  dup8\n    /* \"#utility.yul\":1509:1515   */\n  dup3\n    /* \"#utility.yul\":1498:1507   */\n  dup9\n    /* \"#utility.yul\":1494:1516   */\n  add\n    /* \"#utility.yul\":1462:1526   */\n  tag_16\n  jump\t// in\ntag_39:\n    /* \"#utility.yul\":1452:1526   */\n  swap2\n  pop\n    /* \"#utility.yul\":1407:1536   */\n  pop\n    /* \"#utility.yul\":663:1543   */\n  swap3\n  swap6\n  swap2\n  swap5\n  pop\n  swap3\n  pop\n  jump\t// out\n    /* \"#utility.yul\":1630:1726   */\ntag_42:\n    /* \"#utility.yul\":1667:1674   */\n  0x00\n    /* \"#utility.yul\":1696:1720   */\n  tag_44\n    /* \"#utility.yul\":1714:1719   */\n  dup3\n    /* \"#utility.yul\":1696:1720   */\n  tag_45\n  jump\t// in\ntag_44:\n    /* \"#utility.yul\":1685:1720   */\n  swap1\n  pop\n    /* \"#utility.yul\":1630:1726   */\n  swap2\n  swap1\n  pop\n  jump\t// out\n    /* \"#utility.yul\":1732:1842   */\ntag_46:\n    /* \"#utility.yul\":1783:1790   */\n  0x00\n    /* \"#utility.yul\":1812:1836   */\n  tag_48\n    /* \"#utility.yul\":1830:1835   */\n  dup3\n    /* \"#utility.yul\":1812:1836   */\n  tag_42\n  jump\t// in\ntag_48:\n    /* \"#utility.yul\":1801:1836   */\n  swap1\n  pop\n    /* \"#utility.yul\":1732:1842   */\n  swap2\n  swap1\n  pop\n  jump\t// out\n    /* \"#utility.yul\":1848:1960   */\ntag_49:\n    /* \"#utility.yul\":1901:1908   */\n  0x00\n    /* \"#utility.yul\":1930:1954   */\n  tag_51\n    /* \"#utility.yul\":1948:1953   */\n  dup3\n    /* \"#utility.yul\":1930:1954   */\n  tag_42\n  jump\t// in\ntag_51:\n    /* \"#utility.yul\":1919:1954   */\n  swap1\n  pop\n    /* \"#utility.yul\":1848:1960   */\n  swap2\n  swap1\n  pop\n  jump\t// out\n    /* \"#utility.yul\":1966:2092   */\ntag_45:\n    /* \"#utility.yul\":2003:2010   */\n  0x00\n    /* \"#utility.yul\":2043:2085   */\n  0xffffffffffffffffffffffffffffffffffffffff\n    /* \"#utility.yul\":2036:2041   */\n  dup3\n    /* \"#utility.yul\":2032:2086   */\n  and\n    /* \"#utility.yul\":2021:2086   */\n  swap1\n  pop\n    /* \"#utility.yul\":1966:2092   */\n  swap2\n  swap1\n  pop\n  jump\t// out\n    /* \"#utility.yul\":2098:2175   */\ntag_53:\n    /* \"#utility.yul\":2135:2142   */\n  0x00\n    /* \"#utility.yul\":2164:2169   */\n  dup2\n    /* \"#utility.yul\":2153:2169   */\n  swap1\n  pop\n    /* \"#utility.yul\":2098:2175   */\n  swap2\n  swap1\n  pop\n  jump\t// out\n    /* \"#utility.yul\":2304:2421   */\ntag_35:\n    /* \"#utility.yul\":2413:2414   */\n  0x00\n    /* \"#utility.yul\":2410:2411   */\n  dup1\n    /* \"#utility.yul\":2403:2415   */\n  revert\n    /* \"#utility.yul\":2427:2549   */\ntag_19:\n    /* \"#utility.yul\":2500:2524   */\n  tag_59\n    /* \"#utility.yul\":2518:2523   */\n  dup2\n    /* \"#utility.yul\":2500:2524   */\n  tag_42\n  jump\t// in\ntag_59:\n    /* \"#utility.yul\":2493:2498   */\n  dup2\n    /* \"#utility.yul\":2490:2525   */\n  eq\n    /* \"#utility.yul\":2480:2543   */\n  tag_60\n  jumpi\n    /* \"#utility.yul\":2539:2540   */\n  0x00\n    /* \"#utility.yul\":2536:2537   */\n  dup1\n    /* \"#utility.yul\":2529:2541   */\n  revert\n    /* \"#utility.yul\":2480:2543   */\ntag_60:\n    /* \"#utility.yul\":2427:2549   */\n  pop\n  jump\t// out\n    /* \"#utility.yul\":2555:2705   */\ntag_23:\n    /* \"#utility.yul\":2642:2680   */\n  tag_62\n    /* \"#utility.yul\":2674:2679   */\n  dup2\n    /* \"#utility.yul\":2642:2680   */\n  tag_46\n  jump\t// in\ntag_62:\n    /* \"#utility.yul\":2635:2640   */\n  dup2\n    /* \"#utility.yul\":2632:2681   */\n  eq\n    /* \"#utility.yul\":2622:2699   */\n  tag_63\n  jumpi\n    /* \"#utility.yul\":2695:2696   */\n  0x00\n    /* \"#utility.yul\":2692:2693   */\n  dup1\n    /* \"#utility.yul\":2685:2697   */\n  revert\n    /* \"#utility.yul\":2622:2699   */\ntag_63:\n    /* \"#utility.yul\":2555:2705   */\n  pop\n  jump\t// out\n    /* \"#utility.yul\":2711:2865   */\ntag_27:\n    /* \"#utility.yul\":2800:2840   */\n  tag_65\n    /* \"#utility.yul\":2834:2839   */\n  dup2\n    /* \"#utility.yul\":2800:2840   */\n  tag_49\n  jump\t// in\ntag_65:\n    /* \"#utility.yul\":2793:2798   */\n  dup2\n    /* \"#utility.yul\":2790:2841   */\n  eq\n    /* \"#utility.yul\":2780:2859   */\n  tag_66\n  jumpi\n    /* \"#utility.yul\":2855:2856   */\n  0x00\n    /* \"#utility.yul\":2852:2853   */\n  dup1\n    /* \"#utility.yul\":2845:2857   */\n  revert\n    /* \"#utility.yul\":2780:2859   */\ntag_66:\n    /* \"#utility.yul\":2711:2865   */\n  pop\n  jump\t// out\n    /* \"#utility.yul\":2871:2993   */\ntag_31:\n    /* \"#utility.yul\":2944:2968   */\n  tag_68\n    /* \"#utility.yul\":2962:2967   */\n  dup2\n    /* \"#utility.yul\":2944:2968   */\n  tag_53\n  jump\t// in\ntag_68:\n    /* \"#utility.yul\":2937:2942   */\n  dup2\n    /* \"#utility.yul\":2934:2969   */\n  eq\n    /* \"#utility.yul\":2924:2987   */\n  tag_69\n  jumpi\n    /* \"#utility.yul\":2983:2984   */\n  0x00\n    /* \"#utility.yul\":2980:2981   */\n  dup1\n    /* \"#utility.yul\":2973:2985   */\n  revert\n    /* \"#utility.yul\":2924:2987   */\ntag_69:\n    /* \"#utility.yul\":2871:2993   */\n  pop\n  jump\t// out\n    /* \"contracts/Ghosper-NFT-Staking-MasterChef.sol\":27968:36858  contract NftStaking is Ownable {\r... */\ntag_12:\n  shr(0x60, mload(0x80))\n  shr(0x60, mload(0xa0))\n  codecopy(0x00, dataOffset(sub_0), dataSize(sub_0))\n  0x00\n  assignImmutable(\"0x294a915770f1abdd270970c5c5e0116f353ee0443c415452cffb70311418f069\")\n  0x00\n  assignImmutable(\"0xd3d302950f380d1a27df9dd44167cfb162563e31196f778e9cbde584eeb2b78c\")\n  return(0x00, dataSize(sub_0))\nstop\n\nsub_0: assembly {\n        /* \"contracts/Ghosper-NFT-Staking-MasterChef.sol\":27968:36858  contract NftStaking is Ownable {\r... */\n      mstore(0x40, 0x80)\n      callvalue\n      dup1\n      iszero\n      tag_1\n      jumpi\n      0x00\n      dup1\n      revert\n    tag_1:\n      pop\n      jumpi(tag_2, lt(calldatasize, 0x04))\n      shr(0xe0, calldataload(0x00))\n      dup1\n      0x8ae39cac\n      gt\n      tag_25\n      jumpi\n      dup1\n      0xb5962917\n      gt\n      tag_26\n      jumpi\n      dup1\n      0xb5962917\n      eq\n      tag_19\n      jumpi\n      dup1\n      0xd06fcba8\n      eq\n      tag_20\n      jumpi\n      dup1\n      0xd086c254\n      eq\n      tag_21\n      jumpi\n      dup1\n      0xe449f341\n      eq\n      tag_22\n      jumpi\n      dup1\n      0xf25f4b56\n      eq\n      tag_23\n      jumpi\n      dup1\n      0xf2fde38b\n      eq\n      tag_24\n      jumpi\n      jump(tag_2)\n    tag_26:\n      dup1\n      0x8ae39cac\n      eq\n      tag_14\n      jumpi\n      dup1\n      0x8da5cb5b\n      eq\n      tag_15\n      jumpi\n      dup1\n      0x8dbb1e3a\n      eq\n      tag_16\n      jumpi\n      dup1\n      0x90d49b9d\n      eq\n      tag_17\n      jumpi\n      dup1\n      0xa9f8d181\n      eq\n      tag_18\n      jumpi\n      jump(tag_2)\n    tag_25:\n      dup1\n      0x43db3c5f\n      gt\n      tag_27\n      jumpi\n      dup1\n      0x43db3c5f\n      eq\n      tag_8\n      jumpi\n      dup1\n      0x4641257d\n      eq\n      tag_9\n      jumpi\n      dup1\n      0x567e98f9\n      eq\n      tag_10\n      jumpi\n      dup1\n      0x5e42b455\n      eq\n      tag_11\n      jumpi\n      dup1\n      0x715018a6\n      eq\n      tag_12\n      jumpi\n      dup1\n      0x792b55b6\n      eq\n      tag_13\n      jumpi\n      jump(tag_2)\n    tag_27:\n      dup1\n      0x0fbf0a93\n      eq\n      tag_3\n      jumpi\n      dup1\n      0x1959a002\n      eq\n      tag_4\n      jumpi\n      dup1\n      0x19fca9f6\n      eq\n      tag_5\n      jumpi\n      dup1\n      0x1e2720ff\n      eq\n      tag_6\n      jumpi\n      dup1\n      0x2955c60c\n      eq\n      tag_7\n      jumpi\n    tag_2:\n      0x00\n      dup1\n      revert\n        /* \"contracts/Ghosper-NFT-Staking-MasterChef.sol\":31635:33140  function stake(uint256[] calldata tokenIds) external {\r... */\n    tag_3:\n      tag_28\n      0x04\n      dup1\n      calldatasize\n      sub\n      dup2\n      add\n      swap1\n      tag_29\n      swap2\n      swap1\n      tag_30\n      jump\t// in\n    tag_29:\n      tag_31\n      jump\t// in\n    tag_28:\n      stop\n        /* \"contracts/Ghosper-NFT-Staking-MasterChef.sol\":28805:28850  mapping (address => UserInfo) public userInfo */\n    tag_4:\n      tag_32\n      0x04\n      dup1\n      calldatasize\n      sub\n      dup2\n      add\n      swap1\n      tag_33\n      swap2\n      swap1\n      tag_34\n      jump\t// in\n    tag_33:\n      tag_35\n      jump\t// in\n    tag_32:\n      mload(0x40)\n      tag_36\n      swap5\n      swap4\n      swap3\n      swap2\n      swap1\n      tag_37\n      jump\t// in\n    tag_36:\n      mload(0x40)\n      dup1\n      swap2\n      sub\n      swap1\n      return\n        /* \"contracts/Ghosper-NFT-Staking-MasterChef.sol\":28285:28318  IBEP20 public immutable ghspToken */\n    tag_5:\n      tag_38\n      tag_39\n      jump\t// in\n    tag_38:\n      mload(0x40)\n      tag_40\n      swap2\n      swap1\n      tag_41\n      jump\t// in\n    tag_40:\n      mload(0x40)\n      dup1\n      swap2\n      sub\n      swap1\n      return\n        /* \"contracts/Ghosper-NFT-Staking-MasterChef.sol\":30498:30743  function depositReward(uint256 _amount) external onlyOwner {\r... */\n    tag_6:\n      tag_42\n      0x04\n      dup1\n      calldatasize\n      sub\n      dup2\n      add\n      swap1\n      tag_43\n      swap2\n      swap1\n      tag_44\n      jump\t// in\n    tag_43:\n      tag_45\n      jump\t// in\n    tag_42:\n      stop\n        /* \"contracts/Ghosper-NFT-Staking-MasterChef.sol\":36544:36855  function balanceOfStakes() external view returns (uint256[] memory){\r... */\n    tag_7:\n      tag_46\n      tag_47\n      jump\t// in\n    tag_46:\n      mload(0x40)\n      tag_48\n      swap2\n      swap1\n      tag_49\n      jump\t// in\n    tag_48:\n      mload(0x40)\n      dup1\n      swap2\n      sub\n      swap1\n      return\n        /* \"contracts/Ghosper-NFT-Staking-MasterChef.sol\":28362:28392  uint256 public accGHSPPerShare */\n    tag_8:\n      tag_50\n      tag_51\n      jump\t// in\n    tag_50:\n      mload(0x40)\n      tag_52\n      swap2\n      swap1\n      tag_53\n      jump\t// in\n    tag_52:\n      mload(0x40)\n      dup1\n      swap2\n      sub\n      swap1\n      return\n        /* \"contracts/Ghosper-NFT-Staking-MasterChef.sol\":35701:36538  function harvest() external {\r... */\n    tag_9:\n      tag_54\n      tag_55\n      jump\t// in\n    tag_54:\n      stop\n        /* \"contracts/Ghosper-NFT-Staking-MasterChef.sol\":28498:28530  uint256 public totalStakedAmount */\n    tag_10:\n      tag_56\n      tag_57\n      jump\t// in\n    tag_56:\n      mload(0x40)\n      tag_58\n      swap2\n      swap1\n      tag_53\n      jump\t// in\n    tag_58:\n      mload(0x40)\n      dup1\n      swap2\n      sub\n      swap1\n      return\n        /* \"contracts/Ghosper-NFT-Staking-MasterChef.sol\":30085:30490  function getRewardBalance() external view returns (uint256) {\r... */\n    tag_11:\n      tag_59\n      tag_60\n      jump\t// in\n    tag_59:\n      mload(0x40)\n      tag_61\n      swap2\n      swap1\n      tag_53\n      jump\t// in\n    tag_61:\n      mload(0x40)\n      dup1\n      swap2\n      sub\n      swap1\n      return\n        /* \"contracts/Ghosper-NFT-Staking-MasterChef.sol\":5562:5665  function renounceOwnership() public virtual onlyOwner {\r... */\n    tag_12:\n      tag_62\n      tag_63\n      jump\t// in\n    tag_62:\n      stop\n        /* \"contracts/Ghosper-NFT-Staking-MasterChef.sol\":29729:29948  function setHarvestFee(uint256 _feePercent) external onlyOwner {\r... */\n    tag_13:\n      tag_64\n      0x04\n      dup1\n      calldatasize\n      sub\n      dup2\n      add\n      swap1\n      tag_65\n      swap2\n      swap1\n      tag_44\n      jump\t// in\n    tag_65:\n      tag_66\n      jump\t// in\n    tag_64:\n      stop\n        /* \"contracts/Ghosper-NFT-Staking-MasterChef.sol\":28399:28428  uint256 public rewardPerBlock */\n    tag_14:\n      tag_67\n      tag_68\n      jump\t// in\n    tag_67:\n      mload(0x40)\n      tag_69\n      swap2\n      swap1\n      tag_53\n      jump\t// in\n    tag_69:\n      mload(0x40)\n      dup1\n      swap2\n      sub\n      swap1\n      return\n        /* \"contracts/Ghosper-NFT-Staking-MasterChef.sol\":4911:4998  function owner() public view virtual returns (address) {\r... */\n    tag_15:\n      tag_70\n      tag_71\n      jump\t// in\n    tag_70:\n      mload(0x40)\n      tag_72\n      swap2\n      swap1\n      tag_73\n      jump\t// in\n    tag_72:\n      mload(0x40)\n      dup1\n      swap2\n      sub\n      swap1\n      return\n        /* \"contracts/Ghosper-NFT-Staking-MasterChef.sol\":29956:30077  function getMultiplier(uint256 _from, uint256 _to) public pure returns (uint256) {\r... */\n    tag_16:\n      tag_74\n      0x04\n      dup1\n      calldatasize\n      sub\n      dup2\n      add\n      swap1\n      tag_75\n      swap2\n      swap1\n      tag_76\n      jump\t// in\n    tag_75:\n      tag_77\n      jump\t// in\n    tag_74:\n      mload(0x40)\n      tag_78\n      swap2\n      swap1\n      tag_53\n      jump\t// in\n    tag_78:\n      mload(0x40)\n      dup1\n      swap2\n      sub\n      swap1\n      return\n        /* \"contracts/Ghosper-NFT-Staking-MasterChef.sol\":29580:29721  function setFeeWallet(address _feeWallet) external onlyOwner {\r... */\n    tag_17:\n      tag_79\n      0x04\n      dup1\n      calldatasize\n      sub\n      dup2\n      add\n      swap1\n      tag_80\n      swap2\n      swap1\n      tag_34\n      jump\t// in\n    tag_80:\n      tag_81\n      jump\t// in\n    tag_79:\n      stop\n        /* \"contracts/Ghosper-NFT-Staking-MasterChef.sol\":28325:28355  uint256 public lastRewardBlock */\n    tag_18:\n      tag_82\n      tag_83\n      jump\t// in\n    tag_82:\n      mload(0x40)\n      tag_84\n      swap2\n      swap1\n      tag_53\n      jump\t// in\n    tag_84:\n      mload(0x40)\n      dup1\n      swap2\n      sub\n      swap1\n      return\n        /* \"contracts/Ghosper-NFT-Staking-MasterChef.sol\":28466:28491  uint256 public harvestFee */\n    tag_19:\n      tag_85\n      tag_86\n      jump\t// in\n    tag_85:\n      mload(0x40)\n      tag_87\n      swap2\n      swap1\n      tag_53\n      jump\t// in\n    tag_87:\n      mload(0x40)\n      dup1\n      swap2\n      sub\n      swap1\n      return\n        /* \"contracts/Ghosper-NFT-Staking-MasterChef.sol\":28245:28278  IERC721 public immutable nftToken */\n    tag_20:\n      tag_88\n      tag_89\n      jump\t// in\n    tag_88:\n      mload(0x40)\n      tag_90\n      swap2\n      swap1\n      tag_91\n      jump\t// in\n    tag_90:\n      mload(0x40)\n      dup1\n      swap2\n      sub\n      swap1\n      return\n        /* \"contracts/Ghosper-NFT-Staking-MasterChef.sol\":34904:35128  function getPending(address _user) public view returns (uint256) {\r... */\n    tag_21:\n      tag_92\n      0x04\n      dup1\n      calldatasize\n      sub\n      dup2\n      add\n      swap1\n      tag_93\n      swap2\n      swap1\n      tag_34\n      jump\t// in\n    tag_93:\n      tag_94\n      jump\t// in\n    tag_92:\n      mload(0x40)\n      tag_95\n      swap2\n      swap1\n      tag_53\n      jump\t// in\n    tag_95:\n      mload(0x40)\n      dup1\n      swap2\n      sub\n      swap1\n      return\n        /* \"contracts/Ghosper-NFT-Staking-MasterChef.sol\":33148:34896  function unstake(uint256[] calldata tokenIds) external {\r... */\n    tag_22:\n      tag_96\n      0x04\n      dup1\n      calldatasize\n      sub\n      dup2\n      add\n      swap1\n      tag_97\n      swap2\n      swap1\n      tag_30\n      jump\t// in\n    tag_97:\n      tag_98\n      jump\t// in\n    tag_96:\n      stop\n        /* \"contracts/Ghosper-NFT-Staking-MasterChef.sol\":28435:28459  address public feeWallet */\n    tag_23:\n      tag_99\n      tag_100\n      jump\t// in\n    tag_99:\n      mload(0x40)\n      tag_101\n      swap2\n      swap1\n      tag_73\n      jump\t// in\n    tag_101:\n      mload(0x40)\n      dup1\n      swap2\n      sub\n      swap1\n      return\n        /* \"contracts/Ghosper-NFT-Staking-MasterChef.sol\":5820:6021  function transferOwnership(address newOwner) public virtual onlyOwner {\r... */\n    tag_24:\n      tag_102\n      0x04\n      dup1\n      calldatasize\n      sub\n      dup2\n      add\n      swap1\n      tag_103\n      swap2\n      swap1\n      tag_34\n      jump\t// in\n    tag_103:\n      tag_104\n      jump\t// in\n    tag_102:\n      stop\n        /* \"contracts/Ghosper-NFT-Staking-MasterChef.sol\":31635:33140  function stake(uint256[] calldata tokenIds) external {\r... */\n    tag_31:\n        /* \"contracts/Ghosper-NFT-Staking-MasterChef.sol\":31725:31726  0 */\n      0x00\n        /* \"contracts/Ghosper-NFT-Staking-MasterChef.sol\":31707:31715  tokenIds */\n      dup3\n      dup3\n        /* \"contracts/Ghosper-NFT-Staking-MasterChef.sol\":31707:31722  tokenIds.length */\n      swap1\n      pop\n        /* \"contracts/Ghosper-NFT-Staking-MasterChef.sol\":31707:31726  tokenIds.length > 0 */\n      gt\n        /* \"contracts/Ghosper-NFT-Staking-MasterChef.sol\":31699:31755  require(tokenIds.length > 0, \"NFT Staking: Empty Array\") */\n      tag_106\n      jumpi\n      mload(0x40)\n      0x08c379a000000000000000000000000000000000000000000000000000000000\n      dup2\n      mstore\n      0x04\n      add\n      tag_107\n      swap1\n      tag_108\n      jump\t// in\n    tag_107:\n      mload(0x40)\n      dup1\n      swap2\n      sub\n      swap1\n      revert\n    tag_106:\n        /* \"contracts/Ghosper-NFT-Staking-MasterChef.sol\":31770:31779  uint256 i */\n      0x00\n        /* \"contracts/Ghosper-NFT-Staking-MasterChef.sol\":31766:32232  for(uint256 i = 0; i < tokenIds.length; i ++){\r... */\n    tag_109:\n        /* \"contracts/Ghosper-NFT-Staking-MasterChef.sol\":31789:31797  tokenIds */\n      dup3\n      dup3\n        /* \"contracts/Ghosper-NFT-Staking-MasterChef.sol\":31789:31804  tokenIds.length */\n      swap1\n      pop\n        /* \"contracts/Ghosper-NFT-Staking-MasterChef.sol\":31785:31786  i */\n      dup2\n        /* \"contracts/Ghosper-NFT-Staking-MasterChef.sol\":31785:31804  i < tokenIds.length */\n      lt\n        /* \"contracts/Ghosper-NFT-Staking-MasterChef.sol\":31766:32232  for(uint256 i = 0; i < tokenIds.length; i ++){\r... */\n      iszero\n      tag_110\n      jumpi\n        /* \"contracts/Ghosper-NFT-Staking-MasterChef.sol\":31867:31877  msg.sender */\n      caller\n        /* \"contracts/Ghosper-NFT-Staking-MasterChef.sol\":31834:31877  nftToken.ownerOf(tokenIds[i]) == msg.sender */\n      0xffffffffffffffffffffffffffffffffffffffff\n      and\n        /* \"contracts/Ghosper-NFT-Staking-MasterChef.sol\":31834:31842  nftToken */\n      immutable(\"0xd3d302950f380d1a27df9dd44167cfb162563e31196f778e9cbde584eeb2b78c\")\n        /* \"contracts/Ghosper-NFT-Staking-MasterChef.sol\":31834:31850  nftToken.ownerOf */\n      0xffffffffffffffffffffffffffffffffffffffff\n      and\n      0x6352211e\n        /* \"contracts/Ghosper-NFT-Staking-MasterChef.sol\":31851:31859  tokenIds */\n      dup6\n      dup6\n        /* \"contracts/Ghosper-NFT-Staking-MasterChef.sol\":31860:31861  i */\n      dup6\n        /* \"contracts/Ghosper-NFT-Staking-MasterChef.sol\":31851:31862  tokenIds[i] */\n      dup2\n      dup2\n      lt\n      tag_112\n      jumpi\n      tag_113\n      tag_114\n      jump\t// in\n    tag_113:\n    tag_112:\n      swap1\n      pop\n      0x20\n      mul\n      add\n      calldataload\n        /* \"contracts/Ghosper-NFT-Staking-MasterChef.sol\":31834:31863  nftToken.ownerOf(tokenIds[i]) */\n      mload(0x40)\n      dup3\n      0xffffffff\n      and\n      0xe0\n      shl\n      dup2\n      mstore\n      0x04\n      add\n      tag_115\n      swap2\n      swap1\n      tag_53\n      jump\t// in\n    tag_115:\n      0x20\n      mload(0x40)\n      dup1\n      dup4\n      sub\n      dup2\n      dup7\n      dup1\n      extcodesize\n      iszero\n      dup1\n      iszero\n      tag_116\n      jumpi\n      0x00\n      dup1\n      revert\n    tag_116:\n      pop\n      gas\n      staticcall\n      iszero\n      dup1\n      iszero\n      tag_118\n      jumpi\n      returndatasize\n      0x00\n      dup1\n      returndatacopy\n      revert(0x00, returndatasize)\n    tag_118:\n      pop\n      pop\n      pop\n      pop\n      mload(0x40)\n      returndatasize\n      not(0x1f)\n      0x1f\n      dup3\n      add\n      and\n      dup3\n      add\n      dup1\n      0x40\n      mstore\n      pop\n      dup2\n      add\n      swap1\n      tag_119\n      swap2\n      swap1\n      tag_120\n      jump\t// in\n    tag_119:\n        /* \"contracts/Ghosper-NFT-Staking-MasterChef.sol\":31834:31877  nftToken.ownerOf(tokenIds[i]) == msg.sender */\n      0xffffffffffffffffffffffffffffffffffffffff\n      and\n      eq\n        /* \"contracts/Ghosper-NFT-Staking-MasterChef.sol\":31826:31914  require(nftToken.ownerOf(tokenIds[i]) == msg.sender, \"NFT Staking: not owner of token.\") */\n      tag_121\n      jumpi\n      mload(0x40)\n      0x08c379a000000000000000000000000000000000000000000000000000000000\n      dup2\n      mstore\n      0x04\n      add\n      tag_122\n      swap1\n      tag_123\n      jump\t// in\n    tag_122:\n      mload(0x40)\n      dup1\n      swap2\n      sub\n      swap1\n      revert\n    tag_121:\n        /* \"contracts/Ghosper-NFT-Staking-MasterChef.sol\":31971:31972  0 */\n      0x00\n        /* \"contracts/Ghosper-NFT-Staking-MasterChef.sol\":31937:31954  _ownedTokensIndex */\n      0x0a\n        /* \"contracts/Ghosper-NFT-Staking-MasterChef.sol\":31937:31967  _ownedTokensIndex[tokenIds[i]] */\n      0x00\n        /* \"contracts/Ghosper-NFT-Staking-MasterChef.sol\":31955:31963  tokenIds */\n      dup6\n      dup6\n        /* \"contracts/Ghosper-NFT-Staking-MasterChef.sol\":31964:31965  i */\n      dup6\n        /* \"contracts/Ghosper-NFT-Staking-MasterChef.sol\":31955:31966  tokenIds[i] */\n      dup2\n      dup2\n      lt\n      tag_124\n      jumpi\n      tag_125\n      tag_114\n      jump\t// in\n    tag_125:\n    tag_124:\n      swap1\n      pop\n      0x20\n      mul\n      add\n      calldataload\n        /* \"contracts/Ghosper-NFT-Staking-MasterChef.sol\":31937:31967  _ownedTokensIndex[tokenIds[i]] */\n      dup2\n      mstore\n      0x20\n      add\n      swap1\n      dup2\n      mstore\n      0x20\n      add\n      0x00\n      keccak256\n      sload\n        /* \"contracts/Ghosper-NFT-Staking-MasterChef.sol\":31937:31972  _ownedTokensIndex[tokenIds[i]] == 0 */\n      eq\n        /* \"contracts/Ghosper-NFT-Staking-MasterChef.sol\":31929:32034  require(_ownedTokensIndex[tokenIds[i]] == 0, \"Nft Unstaking: token not staked or incorrect token owner.\") */\n      tag_126\n      jumpi\n      mload(0x40)\n      0x08c379a000000000000000000000000000000000000000000000000000000000\n      dup2\n      mstore\n      0x04\n      add\n      tag_127\n      swap1\n      tag_128\n      jump\t// in\n    tag_127:\n      mload(0x40)\n      dup1\n      swap2\n      sub\n      swap1\n      revert\n    tag_126:\n        /* \"contracts/Ghosper-NFT-Staking-MasterChef.sol\":32053:32062  uint256 j */\n      0x00\n        /* \"contracts/Ghosper-NFT-Staking-MasterChef.sol\":32069:32070  1 */\n      0x01\n        /* \"contracts/Ghosper-NFT-Staking-MasterChef.sol\":32065:32066  i */\n      dup3\n        /* \"contracts/Ghosper-NFT-Staking-MasterChef.sol\":32065:32070  i + 1 */\n      tag_132\n      swap2\n      swap1\n      tag_133\n      jump\t// in\n    tag_132:\n        /* \"contracts/Ghosper-NFT-Staking-MasterChef.sol\":32053:32070  uint256 j = i + 1 */\n      swap1\n      pop\n        /* \"contracts/Ghosper-NFT-Staking-MasterChef.sol\":32049:32221  for(uint256 j = i + 1; j < tokenIds.length; j ++){\r... */\n    tag_129:\n        /* \"contracts/Ghosper-NFT-Staking-MasterChef.sol\":32076:32084  tokenIds */\n      dup4\n      dup4\n        /* \"contracts/Ghosper-NFT-Staking-MasterChef.sol\":32076:32091  tokenIds.length */\n      swap1\n      pop\n        /* \"contracts/Ghosper-NFT-Staking-MasterChef.sol\":32072:32073  j */\n      dup2\n        /* \"contracts/Ghosper-NFT-Staking-MasterChef.sol\":32072:32091  j < tokenIds.length */\n      lt\n        /* \"contracts/Ghosper-NFT-Staking-MasterChef.sol\":32049:32221  for(uint256 j = i + 1; j < tokenIds.length; j ++){\r... */\n      iszero\n      tag_130\n      jumpi\n        /* \"contracts/Ghosper-NFT-Staking-MasterChef.sol\":32140:32148  tokenIds */\n      dup4\n      dup4\n        /* \"contracts/Ghosper-NFT-Staking-MasterChef.sol\":32149:32150  j */\n      dup3\n        /* \"contracts/Ghosper-NFT-Staking-MasterChef.sol\":32140:32151  tokenIds[j] */\n      dup2\n      dup2\n      lt\n      tag_134\n      jumpi\n      tag_135\n      tag_114\n      jump\t// in\n    tag_135:\n    tag_134:\n      swap1\n      pop\n      0x20\n      mul\n      add\n      calldataload\n        /* \"contracts/Ghosper-NFT-Staking-MasterChef.sol\":32125:32133  tokenIds */\n      dup5\n      dup5\n        /* \"contracts/Ghosper-NFT-Staking-MasterChef.sol\":32134:32135  i */\n      dup5\n        /* \"contracts/Ghosper-NFT-Staking-MasterChef.sol\":32125:32136  tokenIds[i] */\n      dup2\n      dup2\n      lt\n      tag_136\n      jumpi\n      tag_137\n      tag_114\n      jump\t// in\n    tag_137:\n    tag_136:\n      swap1\n      pop\n      0x20\n      mul\n      add\n      calldataload\n        /* \"contracts/Ghosper-NFT-Staking-MasterChef.sol\":32125:32151  tokenIds[i] != tokenIds[j] */\n      eq\n      iszero\n        /* \"contracts/Ghosper-NFT-Staking-MasterChef.sol\":32117:32205  require(tokenIds[i] != tokenIds[j], \"NFT Staking: duplicate token ids in input params.\") */\n      tag_138\n      jumpi\n      mload(0x40)\n      0x08c379a000000000000000000000000000000000000000000000000000000000\n      dup2\n      mstore\n      0x04\n      add\n      tag_139\n      swap1\n      tag_140\n      jump\t// in\n    tag_139:\n      mload(0x40)\n      dup1\n      swap2\n      sub\n      swap1\n      revert\n    tag_138:\n        /* \"contracts/Ghosper-NFT-Staking-MasterChef.sol\":32093:32097  j ++ */\n      dup1\n      dup1\n      tag_141\n      swap1\n      tag_142\n      jump\t// in\n    tag_141:\n      swap2\n      pop\n      pop\n        /* \"contracts/Ghosper-NFT-Staking-MasterChef.sol\":32049:32221  for(uint256 j = i + 1; j < tokenIds.length; j ++){\r... */\n      jump(tag_129)\n    tag_130:\n      pop\n        /* \"contracts/Ghosper-NFT-Staking-MasterChef.sol\":31806:31810  i ++ */\n      dup1\n      dup1\n      tag_143\n      swap1\n      tag_142\n      jump\t// in\n    tag_143:\n      swap2\n      pop\n      pop\n        /* \"contracts/Ghosper-NFT-Staking-MasterChef.sol\":31766:32232  for(uint256 i = 0; i < tokenIds.length; i ++){\r... */\n      jump(tag_109)\n    tag_110:\n      pop\n        /* \"contracts/Ghosper-NFT-Staking-MasterChef.sol\":32242:32256  updateStatus() */\n      tag_144\n        /* \"contracts/Ghosper-NFT-Staking-MasterChef.sol\":32242:32254  updateStatus */\n      tag_145\n        /* \"contracts/Ghosper-NFT-Staking-MasterChef.sol\":32242:32256  updateStatus() */\n      jump\t// in\n    tag_144:\n        /* \"contracts/Ghosper-NFT-Staking-MasterChef.sol\":32267:32288  UserInfo storage user */\n      0x00\n        /* \"contracts/Ghosper-NFT-Staking-MasterChef.sol\":32291:32299  userInfo */\n      0x0b\n        /* \"contracts/Ghosper-NFT-Staking-MasterChef.sol\":32291:32311  userInfo[msg.sender] */\n      0x00\n        /* \"contracts/Ghosper-NFT-Staking-MasterChef.sol\":32300:32310  msg.sender */\n      caller\n        /* \"contracts/Ghosper-NFT-Staking-MasterChef.sol\":32291:32311  userInfo[msg.sender] */\n      0xffffffffffffffffffffffffffffffffffffffff\n      and\n      0xffffffffffffffffffffffffffffffffffffffff\n      and\n      dup2\n      mstore\n      0x20\n      add\n      swap1\n      dup2\n      mstore\n      0x20\n      add\n      0x00\n      keccak256\n        /* \"contracts/Ghosper-NFT-Staking-MasterChef.sol\":32267:32311  UserInfo storage user = userInfo[msg.sender] */\n      swap1\n      pop\n        /* \"contracts/Ghosper-NFT-Staking-MasterChef.sol\":32340:32341  0 */\n      0x00\n        /* \"contracts/Ghosper-NFT-Staking-MasterChef.sol\":32326:32330  user */\n      dup2\n        /* \"contracts/Ghosper-NFT-Staking-MasterChef.sol\":32326:32337  user.amount */\n      0x00\n      add\n      sload\n        /* \"contracts/Ghosper-NFT-Staking-MasterChef.sol\":32326:32341  user.amount > 0 */\n      gt\n        /* \"contracts/Ghosper-NFT-Staking-MasterChef.sol\":32322:32518  if (user.amount > 0) {\r... */\n      iszero\n      tag_146\n      jumpi\n        /* \"contracts/Ghosper-NFT-Staking-MasterChef.sol\":32358:32373  uint256 pending */\n      0x00\n        /* \"contracts/Ghosper-NFT-Staking-MasterChef.sol\":32376:32439  user.amount.mul(accGHSPPerShare).div(1e12).sub(user.rewardDebt) */\n      tag_147\n        /* \"contracts/Ghosper-NFT-Staking-MasterChef.sol\":32423:32427  user */\n      dup3\n        /* \"contracts/Ghosper-NFT-Staking-MasterChef.sol\":32423:32438  user.rewardDebt */\n      0x01\n      add\n      sload\n        /* \"contracts/Ghosper-NFT-Staking-MasterChef.sol\":32376:32418  user.amount.mul(accGHSPPerShare).div(1e12) */\n      tag_148\n        /* \"contracts/Ghosper-NFT-Staking-MasterChef.sol\":32413:32417  1e12 */\n      0xe8d4a51000\n        /* \"contracts/Ghosper-NFT-Staking-MasterChef.sol\":32376:32408  user.amount.mul(accGHSPPerShare) */\n      tag_149\n        /* \"contracts/Ghosper-NFT-Staking-MasterChef.sol\":32392:32407  accGHSPPerShare */\n      sload(0x02)\n        /* \"contracts/Ghosper-NFT-Staking-MasterChef.sol\":32376:32380  user */\n      dup8\n        /* \"contracts/Ghosper-NFT-Staking-MasterChef.sol\":32376:32387  user.amount */\n      0x00\n      add\n      sload\n        /* \"contracts/Ghosper-NFT-Staking-MasterChef.sol\":32376:32391  user.amount.mul */\n      tag_150\n      swap1\n        /* \"contracts/Ghosper-NFT-Staking-MasterChef.sol\":32376:32408  user.amount.mul(accGHSPPerShare) */\n      swap2\n      swap1\n      0xffffffff\n      and\n      jump\t// in\n    tag_149:\n        /* \"contracts/Ghosper-NFT-Staking-MasterChef.sol\":32376:32412  user.amount.mul(accGHSPPerShare).div */\n      tag_151\n      swap1\n        /* \"contracts/Ghosper-NFT-Staking-MasterChef.sol\":32376:32418  user.amount.mul(accGHSPPerShare).div(1e12) */\n      swap2\n      swap1\n      0xffffffff\n      and\n      jump\t// in\n    tag_148:\n        /* \"contracts/Ghosper-NFT-Staking-MasterChef.sol\":32376:32422  user.amount.mul(accGHSPPerShare).div(1e12).sub */\n      tag_152\n      swap1\n        /* \"contracts/Ghosper-NFT-Staking-MasterChef.sol\":32376:32439  user.amount.mul(accGHSPPerShare).div(1e12).sub(user.rewardDebt) */\n      swap2\n      swap1\n      0xffffffff\n      and\n      jump\t// in\n    tag_147:\n        /* \"contracts/Ghosper-NFT-Staking-MasterChef.sol\":32358:32439  uint256 pending = user.amount.mul(accGHSPPerShare).div(1e12).sub(user.rewardDebt) */\n      swap1\n      pop\n        /* \"contracts/Ghosper-NFT-Staking-MasterChef.sol\":32475:32506  user.pendingAmount.add(pending) */\n      tag_153\n        /* \"contracts/Ghosper-NFT-Staking-MasterChef.sol\":32498:32505  pending */\n      dup2\n        /* \"contracts/Ghosper-NFT-Staking-MasterChef.sol\":32475:32479  user */\n      dup4\n        /* \"contracts/Ghosper-NFT-Staking-MasterChef.sol\":32475:32493  user.pendingAmount */\n      0x02\n      add\n      sload\n        /* \"contracts/Ghosper-NFT-Staking-MasterChef.sol\":32475:32497  user.pendingAmount.add */\n      tag_154\n      swap1\n        /* \"contracts/Ghosper-NFT-Staking-MasterChef.sol\":32475:32506  user.pendingAmount.add(pending) */\n      swap2\n      swap1\n      0xffffffff\n      and\n      jump\t// in\n    tag_153:\n        /* \"contracts/Ghosper-NFT-Staking-MasterChef.sol\":32454:32458  user */\n      dup3\n        /* \"contracts/Ghosper-NFT-Staking-MasterChef.sol\":32454:32472  user.pendingAmount */\n      0x02\n      add\n        /* \"contracts/Ghosper-NFT-Staking-MasterChef.sol\":32454:32506  user.pendingAmount = user.pendingAmount.add(pending) */\n      dup2\n      swap1\n      sstore\n      pop\n        /* \"contracts/Ghosper-NFT-Staking-MasterChef.sol\":32343:32518  {\r... */\n      pop\n        /* \"contracts/Ghosper-NFT-Staking-MasterChef.sol\":32322:32518  if (user.amount > 0) {\r... */\n    tag_146:\n        /* \"contracts/Ghosper-NFT-Staking-MasterChef.sol\":32528:32547  uint256 tokenAmount */\n      0x00\n        /* \"contracts/Ghosper-NFT-Staking-MasterChef.sol\":32550:32558  tokenIds */\n      dup4\n      dup4\n        /* \"contracts/Ghosper-NFT-Staking-MasterChef.sol\":32550:32565  tokenIds.length */\n      swap1\n      pop\n        /* \"contracts/Ghosper-NFT-Staking-MasterChef.sol\":32528:32565  uint256 tokenAmount = tokenIds.length */\n      swap1\n      pop\n        /* \"contracts/Ghosper-NFT-Staking-MasterChef.sol\":32596:32630  totalStakedAmount.add(tokenAmount) */\n      tag_155\n        /* \"contracts/Ghosper-NFT-Staking-MasterChef.sol\":32618:32629  tokenAmount */\n      dup2\n        /* \"contracts/Ghosper-NFT-Staking-MasterChef.sol\":32596:32613  totalStakedAmount */\n      sload(0x06)\n        /* \"contracts/Ghosper-NFT-Staking-MasterChef.sol\":32596:32617  totalStakedAmount.add */\n      tag_154\n      swap1\n        /* \"contracts/Ghosper-NFT-Staking-MasterChef.sol\":32596:32630  totalStakedAmount.add(tokenAmount) */\n      swap2\n      swap1\n      0xffffffff\n      and\n      jump\t// in\n    tag_155:\n        /* \"contracts/Ghosper-NFT-Staking-MasterChef.sol\":32576:32593  totalStakedAmount */\n      0x06\n        /* \"contracts/Ghosper-NFT-Staking-MasterChef.sol\":32576:32630  totalStakedAmount = totalStakedAmount.add(tokenAmount) */\n      dup2\n      swap1\n      sstore\n      pop\n        /* \"contracts/Ghosper-NFT-Staking-MasterChef.sol\":32655:32664  uint256 i */\n      0x00\n        /* \"contracts/Ghosper-NFT-Staking-MasterChef.sol\":32651:32917  for(uint256 i = 0; i < tokenIds.length; i ++){\r... */\n    tag_156:\n        /* \"contracts/Ghosper-NFT-Staking-MasterChef.sol\":32674:32682  tokenIds */\n      dup5\n      dup5\n        /* \"contracts/Ghosper-NFT-Staking-MasterChef.sol\":32674:32689  tokenIds.length */\n      swap1\n      pop\n        /* \"contracts/Ghosper-NFT-Staking-MasterChef.sol\":32670:32671  i */\n      dup2\n        /* \"contracts/Ghosper-NFT-Staking-MasterChef.sol\":32670:32689  i < tokenIds.length */\n      lt\n        /* \"contracts/Ghosper-NFT-Staking-MasterChef.sol\":32651:32917  for(uint256 i = 0; i < tokenIds.length; i ++){\r... */\n      iszero\n      tag_157\n      jumpi\n        /* \"contracts/Ghosper-NFT-Staking-MasterChef.sol\":32755:32763  tokenIds */\n      dup5\n      dup5\n        /* \"contracts/Ghosper-NFT-Staking-MasterChef.sol\":32764:32765  i */\n      dup3\n        /* \"contracts/Ghosper-NFT-Staking-MasterChef.sol\":32755:32766  tokenIds[i] */\n      dup2\n      dup2\n      lt\n      tag_159\n      jumpi\n      tag_160\n      tag_114\n      jump\t// in\n    tag_160:\n    tag_159:\n      swap1\n      pop\n      0x20\n      mul\n      add\n      calldataload\n        /* \"contracts/Ghosper-NFT-Staking-MasterChef.sol\":32711:32723  _ownedTokens */\n      0x09\n        /* \"contracts/Ghosper-NFT-Staking-MasterChef.sol\":32711:32735  _ownedTokens[msg.sender] */\n      0x00\n        /* \"contracts/Ghosper-NFT-Staking-MasterChef.sol\":32724:32734  msg.sender */\n      caller\n        /* \"contracts/Ghosper-NFT-Staking-MasterChef.sol\":32711:32735  _ownedTokens[msg.sender] */\n      0xffffffffffffffffffffffffffffffffffffffff\n      and\n      0xffffffffffffffffffffffffffffffffffffffff\n      and\n      dup2\n      mstore\n      0x20\n      add\n      swap1\n      dup2\n      mstore\n      0x20\n      add\n      0x00\n      keccak256\n        /* \"contracts/Ghosper-NFT-Staking-MasterChef.sol\":32711:32752  _ownedTokens[msg.sender][user.amount + i] */\n      0x00\n        /* \"contracts/Ghosper-NFT-Staking-MasterChef.sol\":32750:32751  i */\n      dup4\n        /* \"contracts/Ghosper-NFT-Staking-MasterChef.sol\":32736:32740  user */\n      dup7\n        /* \"contracts/Ghosper-NFT-Staking-MasterChef.sol\":32736:32747  user.amount */\n      0x00\n      add\n      sload\n        /* \"contracts/Ghosper-NFT-Staking-MasterChef.sol\":32736:32751  user.amount + i */\n      tag_161\n      swap2\n      swap1\n      tag_133\n      jump\t// in\n    tag_161:\n        /* \"contracts/Ghosper-NFT-Staking-MasterChef.sol\":32711:32752  _ownedTokens[msg.sender][user.amount + i] */\n      dup2\n      mstore\n      0x20\n      add\n      swap1\n      dup2\n      mstore\n      0x20\n      add\n      0x00\n      keccak256\n        /* \"contracts/Ghosper-NFT-Staking-MasterChef.sol\":32711:32766  _ownedTokens[msg.sender][user.amount + i] = tokenIds[i] */\n      dup2\n      swap1\n      sstore\n      pop\n        /* \"contracts/Ghosper-NFT-Staking-MasterChef.sol\":32828:32829  i */\n      dup1\n        /* \"contracts/Ghosper-NFT-Staking-MasterChef.sol\":32814:32818  user */\n      dup4\n        /* \"contracts/Ghosper-NFT-Staking-MasterChef.sol\":32814:32825  user.amount */\n      0x00\n      add\n      sload\n        /* \"contracts/Ghosper-NFT-Staking-MasterChef.sol\":32814:32829  user.amount + i */\n      tag_162\n      swap2\n      swap1\n      tag_133\n      jump\t// in\n    tag_162:\n        /* \"contracts/Ghosper-NFT-Staking-MasterChef.sol\":32781:32798  _ownedTokensIndex */\n      0x0a\n        /* \"contracts/Ghosper-NFT-Staking-MasterChef.sol\":32781:32811  _ownedTokensIndex[tokenIds[i]] */\n      0x00\n        /* \"contracts/Ghosper-NFT-Staking-MasterChef.sol\":32799:32807  tokenIds */\n      dup8\n      dup8\n        /* \"contracts/Ghosper-NFT-Staking-MasterChef.sol\":32808:32809  i */\n      dup6\n        /* \"contracts/Ghosper-NFT-Staking-MasterChef.sol\":32799:32810  tokenIds[i] */\n      dup2\n      dup2\n      lt\n      tag_163\n      jumpi\n      tag_164\n      tag_114\n      jump\t// in\n    tag_164:\n    tag_163:\n      swap1\n      pop\n      0x20\n      mul\n      add\n      calldataload\n        /* \"contracts/Ghosper-NFT-Staking-MasterChef.sol\":32781:32811  _ownedTokensIndex[tokenIds[i]] */\n      dup2\n      mstore\n      0x20\n      add\n      swap1\n      dup2\n      mstore\n      0x20\n      add\n      0x00\n      keccak256\n        /* \"contracts/Ghosper-NFT-Staking-MasterChef.sol\":32781:32829  _ownedTokensIndex[tokenIds[i]] = user.amount + i */\n      dup2\n      swap1\n      sstore\n      pop\n        /* \"contracts/Ghosper-NFT-Staking-MasterChef.sol\":32844:32852  nftToken */\n      immutable(\"0xd3d302950f380d1a27df9dd44167cfb162563e31196f778e9cbde584eeb2b78c\")\n        /* \"contracts/Ghosper-NFT-Staking-MasterChef.sol\":32844:32865  nftToken.transferFrom */\n      0xffffffffffffffffffffffffffffffffffffffff\n      and\n      0x23b872dd\n        /* \"contracts/Ghosper-NFT-Staking-MasterChef.sol\":32866:32876  msg.sender */\n      caller\n        /* \"contracts/Ghosper-NFT-Staking-MasterChef.sol\":32886:32890  this */\n      address\n        /* \"contracts/Ghosper-NFT-Staking-MasterChef.sol\":32893:32901  tokenIds */\n      dup9\n      dup9\n        /* \"contracts/Ghosper-NFT-Staking-MasterChef.sol\":32902:32903  i */\n      dup7\n        /* \"contracts/Ghosper-NFT-Staking-MasterChef.sol\":32893:32904  tokenIds[i] */\n      dup2\n      dup2\n      lt\n      tag_165\n      jumpi\n      tag_166\n      tag_114\n      jump\t// in\n    tag_166:\n    tag_165:\n      swap1\n      pop\n      0x20\n      mul\n      add\n      calldataload\n        /* \"contracts/Ghosper-NFT-Staking-MasterChef.sol\":32844:32905  nftToken.transferFrom(msg.sender, address(this), tokenIds[i]) */\n      mload(0x40)\n      dup5\n      0xffffffff\n      and\n      0xe0\n      shl\n      dup2\n      mstore\n      0x04\n      add\n      tag_167\n      swap4\n      swap3\n      swap2\n      swap1\n      tag_168\n      jump\t// in\n    tag_167:\n      0x00\n      mload(0x40)\n      dup1\n      dup4\n      sub\n      dup2\n      0x00\n      dup8\n      dup1\n      extcodesize\n      iszero\n      dup1\n      iszero\n      tag_169\n      jumpi\n      0x00\n      dup1\n      revert\n    tag_169:\n      pop\n      gas\n      call\n      iszero\n      dup1\n      iszero\n      tag_171\n      jumpi\n      returndatasize\n      0x00\n      dup1\n      returndatacopy\n      revert(0x00, returndatasize)\n    tag_171:\n      pop\n      pop\n      pop\n      pop\n        /* \"contracts/Ghosper-NFT-Staking-MasterChef.sol\":32691:32695  i ++ */\n      dup1\n      dup1\n      tag_172\n      swap1\n      tag_142\n      jump\t// in\n    tag_172:\n      swap2\n      pop\n      pop\n        /* \"contracts/Ghosper-NFT-Staking-MasterChef.sol\":32651:32917  for(uint256 i = 0; i < tokenIds.length; i ++){\r... */\n      jump(tag_156)\n    tag_157:\n      pop\n        /* \"contracts/Ghosper-NFT-Staking-MasterChef.sol\":32941:32969  user.amount.add(tokenAmount) */\n      tag_173\n        /* \"contracts/Ghosper-NFT-Staking-MasterChef.sol\":32957:32968  tokenAmount */\n      dup2\n        /* \"contracts/Ghosper-NFT-Staking-MasterChef.sol\":32941:32945  user */\n      dup4\n        /* \"contracts/Ghosper-NFT-Staking-MasterChef.sol\":32941:32952  user.amount */\n      0x00\n      add\n      sload\n        /* \"contracts/Ghosper-NFT-Staking-MasterChef.sol\":32941:32956  user.amount.add */\n      tag_154\n      swap1\n        /* \"contracts/Ghosper-NFT-Staking-MasterChef.sol\":32941:32969  user.amount.add(tokenAmount) */\n      swap2\n      swap1\n      0xffffffff\n      and\n      jump\t// in\n    tag_173:\n        /* \"contracts/Ghosper-NFT-Staking-MasterChef.sol\":32927:32931  user */\n      dup3\n        /* \"contracts/Ghosper-NFT-Staking-MasterChef.sol\":32927:32938  user.amount */\n      0x00\n      add\n        /* \"contracts/Ghosper-NFT-Staking-MasterChef.sol\":32927:32969  user.amount = user.amount.add(tokenAmount) */\n      dup2\n      swap1\n      sstore\n      pop\n        /* \"contracts/Ghosper-NFT-Staking-MasterChef.sol\":32998:33040  user.amount.mul(accGHSPPerShare).div(1e12) */\n      tag_174\n        /* \"contracts/Ghosper-NFT-Staking-MasterChef.sol\":33035:33039  1e12 */\n      0xe8d4a51000\n        /* \"contracts/Ghosper-NFT-Staking-MasterChef.sol\":32998:33030  user.amount.mul(accGHSPPerShare) */\n      tag_175\n        /* \"contracts/Ghosper-NFT-Staking-MasterChef.sol\":33014:33029  accGHSPPerShare */\n      sload(0x02)\n        /* \"contracts/Ghosper-NFT-Staking-MasterChef.sol\":32998:33002  user */\n      dup6\n        /* \"contracts/Ghosper-NFT-Staking-MasterChef.sol\":32998:33009  user.amount */\n      0x00\n      add\n      sload\n        /* \"contracts/Ghosper-NFT-Staking-MasterChef.sol\":32998:33013  user.amount.mul */\n      tag_150\n      swap1\n        /* \"contracts/Ghosper-NFT-Staking-MasterChef.sol\":32998:33030  user.amount.mul(accGHSPPerShare) */\n      swap2\n      swap1\n      0xffffffff\n      and\n      jump\t// in\n    tag_175:\n        /* \"contracts/Ghosper-NFT-Staking-MasterChef.sol\":32998:33034  user.amount.mul(accGHSPPerShare).div */\n      tag_151\n      swap1\n        /* \"contracts/Ghosper-NFT-Staking-MasterChef.sol\":32998:33040  user.amount.mul(accGHSPPerShare).div(1e12) */\n      swap2\n      swap1\n      0xffffffff\n      and\n      jump\t// in\n    tag_174:\n        /* \"contracts/Ghosper-NFT-Staking-MasterChef.sol\":32980:32984  user */\n      dup3\n        /* \"contracts/Ghosper-NFT-Staking-MasterChef.sol\":32980:32995  user.rewardDebt */\n      0x01\n      add\n        /* \"contracts/Ghosper-NFT-Staking-MasterChef.sol\":32980:33040  user.rewardDebt = user.amount.mul(accGHSPPerShare).div(1e12) */\n      dup2\n      swap1\n      sstore\n      pop\n        /* \"contracts/Ghosper-NFT-Staking-MasterChef.sol\":33073:33088  block.timestamp */\n      timestamp\n        /* \"contracts/Ghosper-NFT-Staking-MasterChef.sol\":33051:33055  user */\n      dup3\n        /* \"contracts/Ghosper-NFT-Staking-MasterChef.sol\":33051:33070  user.lastStakedTime */\n      0x03\n      add\n        /* \"contracts/Ghosper-NFT-Staking-MasterChef.sol\":33051:33088  user.lastStakedTime = block.timestamp */\n      dup2\n      swap1\n      sstore\n      pop\n        /* \"contracts/Ghosper-NFT-Staking-MasterChef.sol\":33104:33132  Staked(msg.sender, tokenIds) */\n      0x134b166c6094cc1ccbf1e3353ce5c3cd9fd29869051bdb999895854d77cc5ef6\n        /* \"contracts/Ghosper-NFT-Staking-MasterChef.sol\":33111:33121  msg.sender */\n      caller\n        /* \"contracts/Ghosper-NFT-Staking-MasterChef.sol\":33123:33131  tokenIds */\n      dup6\n      dup6\n        /* \"contracts/Ghosper-NFT-Staking-MasterChef.sol\":33104:33132  Staked(msg.sender, tokenIds) */\n      mload(0x40)\n      tag_176\n      swap4\n      swap3\n      swap2\n      swap1\n      tag_177\n      jump\t// in\n    tag_176:\n      mload(0x40)\n      dup1\n      swap2\n      sub\n      swap1\n      log1\n        /* \"contracts/Ghosper-NFT-Staking-MasterChef.sol\":31688:33140  {\r... */\n      pop\n      pop\n        /* \"contracts/Ghosper-NFT-Staking-MasterChef.sol\":31635:33140  function stake(uint256[] calldata tokenIds) external {\r... */\n      pop\n      pop\n      jump\t// out\n        /* \"contracts/Ghosper-NFT-Staking-MasterChef.sol\":28805:28850  mapping (address => UserInfo) public userInfo */\n    tag_35:\n      mstore(0x20, 0x0b)\n      dup1\n      0x00\n      mstore\n      keccak256(0x00, 0x40)\n      0x00\n      swap2\n      pop\n      swap1\n      pop\n      dup1\n      0x00\n      add\n      sload\n      swap1\n      dup1\n      0x01\n      add\n      sload\n      swap1\n      dup1\n      0x02\n      add\n      sload\n      swap1\n      dup1\n      0x03\n      add\n      sload\n      swap1\n      pop\n      dup5\n      jump\t// out\n        /* \"contracts/Ghosper-NFT-Staking-MasterChef.sol\":28285:28318  IBEP20 public immutable ghspToken */\n    tag_39:\n      immutable(\"0x294a915770f1abdd270970c5c5e0116f353ee0443c415452cffb70311418f069\")\n      dup2\n      jump\t// out\n        /* \"contracts/Ghosper-NFT-Staking-MasterChef.sol\":30498:30743  function depositReward(uint256 _amount) external onlyOwner {\r... */\n    tag_45:\n        /* \"contracts/Ghosper-NFT-Staking-MasterChef.sol\":5142:5154  _msgSender() */\n      tag_179\n        /* \"contracts/Ghosper-NFT-Staking-MasterChef.sol\":5142:5152  _msgSender */\n      tag_180\n        /* \"contracts/Ghosper-NFT-Staking-MasterChef.sol\":5142:5154  _msgSender() */\n      jump\t// in\n    tag_179:\n        /* \"contracts/Ghosper-NFT-Staking-MasterChef.sol\":5131:5154  owner() == _msgSender() */\n      0xffffffffffffffffffffffffffffffffffffffff\n      and\n        /* \"contracts/Ghosper-NFT-Staking-MasterChef.sol\":5131:5138  owner() */\n      tag_181\n        /* \"contracts/Ghosper-NFT-Staking-MasterChef.sol\":5131:5136  owner */\n      tag_71\n        /* \"contracts/Ghosper-NFT-Staking-MasterChef.sol\":5131:5138  owner() */\n      jump\t// in\n    tag_181:\n        /* \"contracts/Ghosper-NFT-Staking-MasterChef.sol\":5131:5154  owner() == _msgSender() */\n      0xffffffffffffffffffffffffffffffffffffffff\n      and\n      eq\n        /* \"contracts/Ghosper-NFT-Staking-MasterChef.sol\":5123:5191  require(owner() == _msgSender(), \"Ownable: caller is not the owner\") */\n      tag_182\n      jumpi\n      mload(0x40)\n      0x08c379a000000000000000000000000000000000000000000000000000000000\n      dup2\n      mstore\n      0x04\n      add\n      tag_183\n      swap1\n      tag_184\n      jump\t// in\n    tag_183:\n      mload(0x40)\n      dup1\n      swap2\n      sub\n      swap1\n      revert\n    tag_182:\n        /* \"contracts/Ghosper-NFT-Staking-MasterChef.sol\":30568:30630  ghspToken.safeTransferFrom(msg.sender, address(this), _amount) */\n      tag_186\n        /* \"contracts/Ghosper-NFT-Staking-MasterChef.sol\":30595:30605  msg.sender */\n      caller\n        /* \"contracts/Ghosper-NFT-Staking-MasterChef.sol\":30615:30619  this */\n      address\n        /* \"contracts/Ghosper-NFT-Staking-MasterChef.sol\":30622:30629  _amount */\n      dup4\n        /* \"contracts/Ghosper-NFT-Staking-MasterChef.sol\":30568:30577  ghspToken */\n      immutable(\"0x294a915770f1abdd270970c5c5e0116f353ee0443c415452cffb70311418f069\")\n        /* \"contracts/Ghosper-NFT-Staking-MasterChef.sol\":30568:30594  ghspToken.safeTransferFrom */\n      0xffffffffffffffffffffffffffffffffffffffff\n      and\n      tag_187\n      swap1\n        /* \"contracts/Ghosper-NFT-Staking-MasterChef.sol\":30568:30630  ghspToken.safeTransferFrom(msg.sender, address(this), _amount) */\n      swap4\n      swap3\n      swap2\n      swap1\n      0xffffffff\n      and\n      jump\t// in\n    tag_186:\n        /* \"contracts/Ghosper-NFT-Staking-MasterChef.sol\":30660:30670  msg.sender */\n      caller\n        /* \"contracts/Ghosper-NFT-Staking-MasterChef.sol\":30646:30680  DepositReward(msg.sender, _amount) */\n      0xffffffffffffffffffffffffffffffffffffffff\n      and\n      0x4f7fd5c9e17300a4800fd572ea53fc291e2ee7470d73346d16b357faee4e7210\n        /* \"contracts/Ghosper-NFT-Staking-MasterChef.sol\":30672:30679  _amount */\n      dup3\n        /* \"contracts/Ghosper-NFT-Staking-MasterChef.sol\":30646:30680  DepositReward(msg.sender, _amount) */\n      mload(0x40)\n      tag_188\n      swap2\n      swap1\n      tag_53\n      jump\t// in\n    tag_188:\n      mload(0x40)\n      dup1\n      swap2\n      sub\n      swap1\n      log2\n        /* \"contracts/Ghosper-NFT-Staking-MasterChef.sol\":30708:30735  _rewardBalance.add(_amount) */\n      tag_189\n        /* \"contracts/Ghosper-NFT-Staking-MasterChef.sol\":30727:30734  _amount */\n      dup2\n        /* \"contracts/Ghosper-NFT-Staking-MasterChef.sol\":30708:30722  _rewardBalance */\n      sload(0x07)\n        /* \"contracts/Ghosper-NFT-Staking-MasterChef.sol\":30708:30726  _rewardBalance.add */\n      tag_154\n      swap1\n        /* \"contracts/Ghosper-NFT-Staking-MasterChef.sol\":30708:30735  _rewardBalance.add(_amount) */\n      swap2\n      swap1\n      0xffffffff\n      and\n      jump\t// in\n    tag_189:\n        /* \"contracts/Ghosper-NFT-Staking-MasterChef.sol\":30691:30705  _rewardBalance */\n      0x07\n        /* \"contracts/Ghosper-NFT-Staking-MasterChef.sol\":30691:30735  _rewardBalance = _rewardBalance.add(_amount) */\n      dup2\n      swap1\n      sstore\n      pop\n        /* \"contracts/Ghosper-NFT-Staking-MasterChef.sol\":30498:30743  function depositReward(uint256 _amount) external onlyOwner {\r... */\n      pop\n      jump\t// out\n        /* \"contracts/Ghosper-NFT-Staking-MasterChef.sol\":36544:36855  function balanceOfStakes() external view returns (uint256[] memory){\r... */\n    tag_47:\n        /* \"contracts/Ghosper-NFT-Staking-MasterChef.sol\":36594:36610  uint256[] memory */\n      0x60\n        /* \"contracts/Ghosper-NFT-Staking-MasterChef.sol\":36622:36645  uint256[] memory stakes */\n      0x00\n        /* \"contracts/Ghosper-NFT-Staking-MasterChef.sol\":36662:36670  userInfo */\n      0x0b\n        /* \"contracts/Ghosper-NFT-Staking-MasterChef.sol\":36662:36682  userInfo[msg.sender] */\n      0x00\n        /* \"contracts/Ghosper-NFT-Staking-MasterChef.sol\":36671:36681  msg.sender */\n      caller\n        /* \"contracts/Ghosper-NFT-Staking-MasterChef.sol\":36662:36682  userInfo[msg.sender] */\n      0xffffffffffffffffffffffffffffffffffffffff\n      and\n      0xffffffffffffffffffffffffffffffffffffffff\n      and\n      dup2\n      mstore\n      0x20\n      add\n      swap1\n      dup2\n      mstore\n      0x20\n      add\n      0x00\n      keccak256\n        /* \"contracts/Ghosper-NFT-Staking-MasterChef.sol\":36662:36689  userInfo[msg.sender].amount */\n      0x00\n      add\n      sload\n        /* \"contracts/Ghosper-NFT-Staking-MasterChef.sol\":36648:36690  new uint256[](userInfo[msg.sender].amount) */\n      0xffffffffffffffff\n      dup2\n      gt\n      iszero\n      tag_191\n      jumpi\n      tag_192\n      tag_193\n      jump\t// in\n    tag_192:\n    tag_191:\n      mload(0x40)\n      swap1\n      dup1\n      dup3\n      mstore\n      dup1\n      0x20\n      mul\n      0x20\n      add\n      dup3\n      add\n      0x40\n      mstore\n      dup1\n      iszero\n      tag_194\n      jumpi\n      dup2\n      0x20\n      add\n      0x20\n      dup3\n      mul\n      dup1\n      calldatasize\n      dup4\n      calldatacopy\n      dup1\n      dup3\n      add\n      swap2\n      pop\n      pop\n      swap1\n      pop\n    tag_194:\n      pop\n        /* \"contracts/Ghosper-NFT-Staking-MasterChef.sol\":36622:36690  uint256[] memory stakes = new uint256[](userInfo[msg.sender].amount) */\n      swap1\n      pop\n        /* \"contracts/Ghosper-NFT-Staking-MasterChef.sol\":36705:36714  uint256 i */\n      0x00\n        /* \"contracts/Ghosper-NFT-Staking-MasterChef.sol\":36701:36824  for(uint256 i = 0; i < userInfo[msg.sender].amount; i ++){\r... */\n    tag_195:\n        /* \"contracts/Ghosper-NFT-Staking-MasterChef.sol\":36724:36732  userInfo */\n      0x0b\n        /* \"contracts/Ghosper-NFT-Staking-MasterChef.sol\":36724:36744  userInfo[msg.sender] */\n      0x00\n        /* \"contracts/Ghosper-NFT-Staking-MasterChef.sol\":36733:36743  msg.sender */\n      caller\n        /* \"contracts/Ghosper-NFT-Staking-MasterChef.sol\":36724:36744  userInfo[msg.sender] */\n      0xffffffffffffffffffffffffffffffffffffffff\n      and\n      0xffffffffffffffffffffffffffffffffffffffff\n      and\n      dup2\n      mstore\n      0x20\n      add\n      swap1\n      dup2\n      mstore\n      0x20\n      add\n      0x00\n      keccak256\n        /* \"contracts/Ghosper-NFT-Staking-MasterChef.sol\":36724:36751  userInfo[msg.sender].amount */\n      0x00\n      add\n      sload\n        /* \"contracts/Ghosper-NFT-Staking-MasterChef.sol\":36720:36721  i */\n      dup2\n        /* \"contracts/Ghosper-NFT-Staking-MasterChef.sol\":36720:36751  i < userInfo[msg.sender].amount */\n      lt\n        /* \"contracts/Ghosper-NFT-Staking-MasterChef.sol\":36701:36824  for(uint256 i = 0; i < userInfo[msg.sender].amount; i ++){\r... */\n      iszero\n      tag_196\n      jumpi\n        /* \"contracts/Ghosper-NFT-Staking-MasterChef.sol\":36785:36797  _ownedTokens */\n      0x09\n        /* \"contracts/Ghosper-NFT-Staking-MasterChef.sol\":36785:36809  _ownedTokens[msg.sender] */\n      0x00\n        /* \"contracts/Ghosper-NFT-Staking-MasterChef.sol\":36798:36808  msg.sender */\n      caller\n        /* \"contracts/Ghosper-NFT-Staking-MasterChef.sol\":36785:36809  _ownedTokens[msg.sender] */\n      0xffffffffffffffffffffffffffffffffffffffff\n      and\n      0xffffffffffffffffffffffffffffffffffffffff\n      and\n      dup2\n      mstore\n      0x20\n      add\n      swap1\n      dup2\n      mstore\n      0x20\n      add\n      0x00\n      keccak256\n        /* \"contracts/Ghosper-NFT-Staking-MasterChef.sol\":36785:36812  _ownedTokens[msg.sender][i] */\n      0x00\n        /* \"contracts/Ghosper-NFT-Staking-MasterChef.sol\":36810:36811  i */\n      dup3\n        /* \"contracts/Ghosper-NFT-Staking-MasterChef.sol\":36785:36812  _ownedTokens[msg.sender][i] */\n      dup2\n      mstore\n      0x20\n      add\n      swap1\n      dup2\n      mstore\n      0x20\n      add\n      0x00\n      keccak256\n      sload\n        /* \"contracts/Ghosper-NFT-Staking-MasterChef.sol\":36773:36779  stakes */\n      dup3\n        /* \"contracts/Ghosper-NFT-Staking-MasterChef.sol\":36780:36781  i */\n      dup3\n        /* \"contracts/Ghosper-NFT-Staking-MasterChef.sol\":36773:36782  stakes[i] */\n      dup2\n      mload\n      dup2\n      lt\n      tag_198\n      jumpi\n      tag_199\n      tag_114\n      jump\t// in\n    tag_199:\n    tag_198:\n      0x20\n      mul\n      0x20\n      add\n      add\n        /* \"contracts/Ghosper-NFT-Staking-MasterChef.sol\":36773:36812  stakes[i] = _ownedTokens[msg.sender][i] */\n      dup2\n      dup2\n      mstore\n      pop\n      pop\n        /* \"contracts/Ghosper-NFT-Staking-MasterChef.sol\":36753:36757  i ++ */\n      dup1\n      dup1\n      tag_200\n      swap1\n      tag_142\n      jump\t// in\n    tag_200:\n      swap2\n      pop\n      pop\n        /* \"contracts/Ghosper-NFT-Staking-MasterChef.sol\":36701:36824  for(uint256 i = 0; i < userInfo[msg.sender].amount; i ++){\r... */\n      jump(tag_195)\n    tag_196:\n      pop\n        /* \"contracts/Ghosper-NFT-Staking-MasterChef.sol\":36841:36847  stakes */\n      dup1\n        /* \"contracts/Ghosper-NFT-Staking-MasterChef.sol\":36834:36847  return stakes */\n      swap2\n      pop\n      pop\n        /* \"contracts/Ghosper-NFT-Staking-MasterChef.sol\":36544:36855  function balanceOfStakes() external view returns (uint256[] memory){\r... */\n      swap1\n      jump\t// out\n        /* \"contracts/Ghosper-NFT-Staking-MasterChef.sol\":28362:28392  uint256 public accGHSPPerShare */\n    tag_51:\n      sload(0x02)\n      dup2\n      jump\t// out\n        /* \"contracts/Ghosper-NFT-Staking-MasterChef.sol\":35701:36538  function harvest() external {\r... */\n    tag_55:\n        /* \"contracts/Ghosper-NFT-Staking-MasterChef.sol\":35740:35760  uint256 rewardAmount */\n      0x00\n        /* \"contracts/Ghosper-NFT-Staking-MasterChef.sol\":35763:35786  _getPending(msg.sender) */\n      tag_202\n        /* \"contracts/Ghosper-NFT-Staking-MasterChef.sol\":35775:35785  msg.sender */\n      caller\n        /* \"contracts/Ghosper-NFT-Staking-MasterChef.sol\":35763:35774  _getPending */\n      tag_203\n        /* \"contracts/Ghosper-NFT-Staking-MasterChef.sol\":35763:35786  _getPending(msg.sender) */\n      jump\t// in\n    tag_202:\n        /* \"contracts/Ghosper-NFT-Staking-MasterChef.sol\":35740:35786  uint256 rewardAmount = _getPending(msg.sender) */\n      swap1\n      pop\n        /* \"contracts/Ghosper-NFT-Staking-MasterChef.sol\":35797:35818  UserInfo storage user */\n      0x00\n        /* \"contracts/Ghosper-NFT-Staking-MasterChef.sol\":35821:35829  userInfo */\n      0x0b\n        /* \"contracts/Ghosper-NFT-Staking-MasterChef.sol\":35821:35841  userInfo[msg.sender] */\n      0x00\n        /* \"contracts/Ghosper-NFT-Staking-MasterChef.sol\":35830:35840  msg.sender */\n      caller\n        /* \"contracts/Ghosper-NFT-Staking-MasterChef.sol\":35821:35841  userInfo[msg.sender] */\n      0xffffffffffffffffffffffffffffffffffffffff\n      and\n      0xffffffffffffffffffffffffffffffffffffffff\n      and\n      dup2\n      mstore\n      0x20\n      add\n      swap1\n      dup2\n      mstore\n      0x20\n      add\n      0x00\n      keccak256\n        /* \"contracts/Ghosper-NFT-Staking-MasterChef.sol\":35797:35841  UserInfo storage user = userInfo[msg.sender] */\n      swap1\n      pop\n        /* \"contracts/Ghosper-NFT-Staking-MasterChef.sol\":35852:35871  uint256 _harvestFee */\n      0x00\n        /* \"contracts/Ghosper-NFT-Staking-MasterChef.sol\":35874:35911  rewardAmount.mul(harvestFee).div(100) */\n      tag_204\n        /* \"contracts/Ghosper-NFT-Staking-MasterChef.sol\":35907:35910  100 */\n      0x64\n        /* \"contracts/Ghosper-NFT-Staking-MasterChef.sol\":35874:35902  rewardAmount.mul(harvestFee) */\n      tag_205\n        /* \"contracts/Ghosper-NFT-Staking-MasterChef.sol\":35891:35901  harvestFee */\n      sload(0x05)\n        /* \"contracts/Ghosper-NFT-Staking-MasterChef.sol\":35874:35886  rewardAmount */\n      dup7\n        /* \"contracts/Ghosper-NFT-Staking-MasterChef.sol\":35874:35890  rewardAmount.mul */\n      tag_150\n      swap1\n        /* \"contracts/Ghosper-NFT-Staking-MasterChef.sol\":35874:35902  rewardAmount.mul(harvestFee) */\n      swap2\n      swap1\n      0xffffffff\n      and\n      jump\t// in\n    tag_205:\n        /* \"contracts/Ghosper-NFT-Staking-MasterChef.sol\":35874:35906  rewardAmount.mul(harvestFee).div */\n      tag_151\n      swap1\n        /* \"contracts/Ghosper-NFT-Staking-MasterChef.sol\":35874:35911  rewardAmount.mul(harvestFee).div(100) */\n      swap2\n      swap1\n      0xffffffff\n      and\n      jump\t// in\n    tag_204:\n        /* \"contracts/Ghosper-NFT-Staking-MasterChef.sol\":35852:35911  uint256 _harvestFee = rewardAmount.mul(harvestFee).div(100) */\n      swap1\n      pop\n        /* \"contracts/Ghosper-NFT-Staking-MasterChef.sol\":35922:35936  uint256 amount */\n      0x00\n        /* \"contracts/Ghosper-NFT-Staking-MasterChef.sol\":35954:35965  _harvestFee */\n      dup2\n        /* \"contracts/Ghosper-NFT-Staking-MasterChef.sol\":35939:35951  rewardAmount */\n      dup5\n        /* \"contracts/Ghosper-NFT-Staking-MasterChef.sol\":35939:35965  rewardAmount - _harvestFee */\n      tag_206\n      swap2\n      swap1\n      tag_207\n      jump\t// in\n    tag_206:\n        /* \"contracts/Ghosper-NFT-Staking-MasterChef.sol\":35922:35965  uint256 amount = rewardAmount - _harvestFee */\n      swap1\n      pop\n        /* \"contracts/Ghosper-NFT-Staking-MasterChef.sol\":36017:36023  amount */\n      dup1\n        /* \"contracts/Ghosper-NFT-Staking-MasterChef.sol\":35980:35989  ghspToken */\n      immutable(\"0x294a915770f1abdd270970c5c5e0116f353ee0443c415452cffb70311418f069\")\n        /* \"contracts/Ghosper-NFT-Staking-MasterChef.sol\":35980:35999  ghspToken.balanceOf */\n      0xffffffffffffffffffffffffffffffffffffffff\n      and\n      0x70a08231\n        /* \"contracts/Ghosper-NFT-Staking-MasterChef.sol\":36008:36012  this */\n      address\n        /* \"contracts/Ghosper-NFT-Staking-MasterChef.sol\":35980:36014  ghspToken.balanceOf(address(this)) */\n      mload(0x40)\n      dup3\n      0xffffffff\n      and\n      0xe0\n      shl\n      dup2\n      mstore\n      0x04\n      add\n      tag_208\n      swap2\n      swap1\n      tag_73\n      jump\t// in\n    tag_208:\n      0x20\n      mload(0x40)\n      dup1\n      dup4\n      sub\n      dup2\n      dup7\n      dup1\n      extcodesize\n      iszero\n      dup1\n      iszero\n      tag_209\n      jumpi\n      0x00\n      dup1\n      revert\n    tag_209:\n      pop\n      gas\n      staticcall\n      iszero\n      dup1\n      iszero\n      tag_211\n      jumpi\n      returndatasize\n      0x00\n      dup1\n      returndatacopy\n      revert(0x00, returndatasize)\n    tag_211:\n      pop\n      pop\n      pop\n      pop\n      mload(0x40)\n      returndatasize\n      not(0x1f)\n      0x1f\n      dup3\n      add\n      and\n      dup3\n      add\n      dup1\n      0x40\n      mstore\n      pop\n      dup2\n      add\n      swap1\n      tag_212\n      swap2\n      swap1\n      tag_213\n      jump\t// in\n    tag_212:\n        /* \"contracts/Ghosper-NFT-Staking-MasterChef.sol\":35980:36023  ghspToken.balanceOf(address(this)) < amount */\n      lt\n        /* \"contracts/Ghosper-NFT-Staking-MasterChef.sol\":35976:36095  if (ghspToken.balanceOf(address(this)) < amount) {\r... */\n      iszero\n      tag_214\n      jumpi\n        /* \"contracts/Ghosper-NFT-Staking-MasterChef.sol\":36049:36058  ghspToken */\n      immutable(\"0x294a915770f1abdd270970c5c5e0116f353ee0443c415452cffb70311418f069\")\n        /* \"contracts/Ghosper-NFT-Staking-MasterChef.sol\":36049:36068  ghspToken.balanceOf */\n      0xffffffffffffffffffffffffffffffffffffffff\n      and\n      0x70a08231\n        /* \"contracts/Ghosper-NFT-Staking-MasterChef.sol\":36077:36081  this */\n      address\n        /* \"contracts/Ghosper-NFT-Staking-MasterChef.sol\":36049:36083  ghspToken.balanceOf(address(this)) */\n      mload(0x40)\n      dup3\n      0xffffffff\n      and\n      0xe0\n      shl\n      dup2\n      mstore\n      0x04\n      add\n      tag_215\n      swap2\n      swap1\n      tag_73\n      jump\t// in\n    tag_215:\n      0x20\n      mload(0x40)\n      dup1\n      dup4\n      sub\n      dup2\n      dup7\n      dup1\n      extcodesize\n      iszero\n      dup1\n      iszero\n      tag_216\n      jumpi\n      0x00\n      dup1\n      revert\n    tag_216:\n      pop\n      gas\n      staticcall\n      iszero\n      dup1\n      iszero\n      tag_218\n      jumpi\n      returndatasize\n      0x00\n      dup1\n      returndatacopy\n      revert(0x00, returndatasize)\n    tag_218:\n      pop\n      pop\n      pop\n      pop\n      mload(0x40)\n      returndatasize\n      not(0x1f)\n      0x1f\n      dup3\n      add\n      and\n      dup3\n      add\n      dup1\n      0x40\n      mstore\n      pop\n      dup2\n      add\n      swap1\n      tag_219\n      swap2\n      swap1\n      tag_213\n      jump\t// in\n    tag_219:\n        /* \"contracts/Ghosper-NFT-Staking-MasterChef.sol\":36040:36083  amount = ghspToken.balanceOf(address(this)) */\n      swap1\n      pop\n        /* \"contracts/Ghosper-NFT-Staking-MasterChef.sol\":35976:36095  if (ghspToken.balanceOf(address(this)) < amount) {\r... */\n    tag_214:\n        /* \"contracts/Ghosper-NFT-Staking-MasterChef.sol\":36105:36147  ghspToken.safeTransfer(msg.sender, amount) */\n      tag_220\n        /* \"contracts/Ghosper-NFT-Staking-MasterChef.sol\":36128:36138  msg.sender */\n      caller\n        /* \"contracts/Ghosper-NFT-Staking-MasterChef.sol\":36140:36146  amount */\n      dup3\n        /* \"contracts/Ghosper-NFT-Staking-MasterChef.sol\":36105:36114  ghspToken */\n      immutable(\"0x294a915770f1abdd270970c5c5e0116f353ee0443c415452cffb70311418f069\")\n        /* \"contracts/Ghosper-NFT-Staking-MasterChef.sol\":36105:36127  ghspToken.safeTransfer */\n      0xffffffffffffffffffffffffffffffffffffffff\n      and\n      tag_221\n      swap1\n        /* \"contracts/Ghosper-NFT-Staking-MasterChef.sol\":36105:36147  ghspToken.safeTransfer(msg.sender, amount) */\n      swap3\n      swap2\n      swap1\n      0xffffffff\n      and\n      jump\t// in\n    tag_220:\n        /* \"contracts/Ghosper-NFT-Staking-MasterChef.sol\":36201:36212  _harvestFee */\n      dup2\n        /* \"contracts/Ghosper-NFT-Staking-MasterChef.sol\":36164:36173  ghspToken */\n      immutable(\"0x294a915770f1abdd270970c5c5e0116f353ee0443c415452cffb70311418f069\")\n        /* \"contracts/Ghosper-NFT-Staking-MasterChef.sol\":36164:36183  ghspToken.balanceOf */\n      0xffffffffffffffffffffffffffffffffffffffff\n      and\n      0x70a08231\n        /* \"contracts/Ghosper-NFT-Staking-MasterChef.sol\":36192:36196  this */\n      address\n        /* \"contracts/Ghosper-NFT-Staking-MasterChef.sol\":36164:36198  ghspToken.balanceOf(address(this)) */\n      mload(0x40)\n      dup3\n      0xffffffff\n      and\n      0xe0\n      shl\n      dup2\n      mstore\n      0x04\n      add\n      tag_222\n      swap2\n      swap1\n      tag_73\n      jump\t// in\n    tag_222:\n      0x20\n      mload(0x40)\n      dup1\n      dup4\n      sub\n      dup2\n      dup7\n      dup1\n      extcodesize\n      iszero\n      dup1\n      iszero\n      tag_223\n      jumpi\n      0x00\n      dup1\n      revert\n    tag_223:\n      pop\n      gas\n      staticcall\n      iszero\n      dup1\n      iszero\n      tag_225\n      jumpi\n      returndatasize\n      0x00\n      dup1\n      returndatacopy\n      revert(0x00, returndatasize)\n    tag_225:\n      pop\n      pop\n      pop\n      pop\n      mload(0x40)\n      returndatasize\n      not(0x1f)\n      0x1f\n      dup3\n      add\n      and\n      dup3\n      add\n      dup1\n      0x40\n      mstore\n      pop\n      dup2\n      add\n      swap1\n      tag_226\n      swap2\n      swap1\n      tag_213\n      jump\t// in\n    tag_226:\n        /* \"contracts/Ghosper-NFT-Staking-MasterChef.sol\":36164:36212  ghspToken.balanceOf(address(this)) < _harvestFee */\n      lt\n        /* \"contracts/Ghosper-NFT-Staking-MasterChef.sol\":36160:36289  if (ghspToken.balanceOf(address(this)) < _harvestFee) {\r... */\n      iszero\n      tag_227\n      jumpi\n        /* \"contracts/Ghosper-NFT-Staking-MasterChef.sol\":36243:36252  ghspToken */\n      immutable(\"0x294a915770f1abdd270970c5c5e0116f353ee0443c415452cffb70311418f069\")\n        /* \"contracts/Ghosper-NFT-Staking-MasterChef.sol\":36243:36262  ghspToken.balanceOf */\n      0xffffffffffffffffffffffffffffffffffffffff\n      and\n      0x70a08231\n        /* \"contracts/Ghosper-NFT-Staking-MasterChef.sol\":36271:36275  this */\n      address\n        /* \"contracts/Ghosper-NFT-Staking-MasterChef.sol\":36243:36277  ghspToken.balanceOf(address(this)) */\n      mload(0x40)\n      dup3\n      0xffffffff\n      and\n      0xe0\n      shl\n      dup2\n      mstore\n      0x04\n      add\n      tag_228\n      swap2\n      swap1\n      tag_73\n      jump\t// in\n    tag_228:\n      0x20\n      mload(0x40)\n      dup1\n      dup4\n      sub\n      dup2\n      dup7\n      dup1\n      extcodesize\n      iszero\n      dup1\n      iszero\n      tag_229\n      jumpi\n      0x00\n      dup1\n      revert\n    tag_229:\n      pop\n      gas\n      staticcall\n      iszero\n      dup1\n      iszero\n      tag_231\n      jumpi\n      returndatasize\n      0x00\n      dup1\n      returndatacopy\n      revert(0x00, returndatasize)\n    tag_231:\n      pop\n      pop\n      pop\n      pop\n      mload(0x40)\n      returndatasize\n      not(0x1f)\n      0x1f\n      dup3\n      add\n      and\n      dup3\n      add\n      dup1\n      0x40\n      mstore\n      pop\n      dup2\n      add\n      swap1\n      tag_232\n      swap2\n      swap1\n      tag_213\n      jump\t// in\n    tag_232:\n        /* \"contracts/Ghosper-NFT-Staking-MasterChef.sol\":36229:36277  _harvestFee = ghspToken.balanceOf(address(this)) */\n      swap2\n      pop\n        /* \"contracts/Ghosper-NFT-Staking-MasterChef.sol\":36160:36289  if (ghspToken.balanceOf(address(this)) < _harvestFee) {\r... */\n    tag_227:\n        /* \"contracts/Ghosper-NFT-Staking-MasterChef.sol\":36299:36345  ghspToken.safeTransfer(feeWallet, _harvestFee) */\n      tag_233\n        /* \"contracts/Ghosper-NFT-Staking-MasterChef.sol\":36322:36331  feeWallet */\n      0x04\n      0x00\n      swap1\n      sload\n      swap1\n      0x0100\n      exp\n      swap1\n      div\n      0xffffffffffffffffffffffffffffffffffffffff\n      and\n        /* \"contracts/Ghosper-NFT-Staking-MasterChef.sol\":36333:36344  _harvestFee */\n      dup4\n        /* \"contracts/Ghosper-NFT-Staking-MasterChef.sol\":36299:36308  ghspToken */\n      immutable(\"0x294a915770f1abdd270970c5c5e0116f353ee0443c415452cffb70311418f069\")\n        /* \"contracts/Ghosper-NFT-Staking-MasterChef.sol\":36299:36321  ghspToken.safeTransfer */\n      0xffffffffffffffffffffffffffffffffffffffff\n      and\n      tag_221\n      swap1\n        /* \"contracts/Ghosper-NFT-Staking-MasterChef.sol\":36299:36345  ghspToken.safeTransfer(feeWallet, _harvestFee) */\n      swap3\n      swap2\n      swap1\n      0xffffffff\n      and\n      jump\t// in\n    tag_233:\n        /* \"contracts/Ghosper-NFT-Staking-MasterChef.sol\":36356:36370  updateStatus() */\n      tag_234\n        /* \"contracts/Ghosper-NFT-Staking-MasterChef.sol\":36356:36368  updateStatus */\n      tag_145\n        /* \"contracts/Ghosper-NFT-Staking-MasterChef.sol\":36356:36370  updateStatus() */\n      jump\t// in\n    tag_234:\n        /* \"contracts/Ghosper-NFT-Staking-MasterChef.sol\":36402:36403  0 */\n      0x00\n        /* \"contracts/Ghosper-NFT-Staking-MasterChef.sol\":36381:36385  user */\n      dup4\n        /* \"contracts/Ghosper-NFT-Staking-MasterChef.sol\":36381:36399  user.pendingAmount */\n      0x02\n      add\n        /* \"contracts/Ghosper-NFT-Staking-MasterChef.sol\":36381:36403  user.pendingAmount = 0 */\n      dup2\n      swap1\n      sstore\n      pop\n        /* \"contracts/Ghosper-NFT-Staking-MasterChef.sol\":36432:36474  user.amount.mul(accGHSPPerShare).div(1e12) */\n      tag_235\n        /* \"contracts/Ghosper-NFT-Staking-MasterChef.sol\":36469:36473  1e12 */\n      0xe8d4a51000\n        /* \"contracts/Ghosper-NFT-Staking-MasterChef.sol\":36432:36464  user.amount.mul(accGHSPPerShare) */\n      tag_236\n        /* \"contracts/Ghosper-NFT-Staking-MasterChef.sol\":36448:36463  accGHSPPerShare */\n      sload(0x02)\n        /* \"contracts/Ghosper-NFT-Staking-MasterChef.sol\":36432:36436  user */\n      dup7\n        /* \"contracts/Ghosper-NFT-Staking-MasterChef.sol\":36432:36443  user.amount */\n      0x00\n      add\n      sload\n        /* \"contracts/Ghosper-NFT-Staking-MasterChef.sol\":36432:36447  user.amount.mul */\n      tag_150\n      swap1\n        /* \"contracts/Ghosper-NFT-Staking-MasterChef.sol\":36432:36464  user.amount.mul(accGHSPPerShare) */\n      swap2\n      swap1\n      0xffffffff\n      and\n      jump\t// in\n    tag_236:\n        /* \"contracts/Ghosper-NFT-Staking-MasterChef.sol\":36432:36468  user.amount.mul(accGHSPPerShare).div */\n      tag_151\n      swap1\n        /* \"contracts/Ghosper-NFT-Staking-MasterChef.sol\":36432:36474  user.amount.mul(accGHSPPerShare).div(1e12) */\n      swap2\n      swap1\n      0xffffffff\n      and\n      jump\t// in\n    tag_235:\n        /* \"contracts/Ghosper-NFT-Staking-MasterChef.sol\":36414:36418  user */\n      dup4\n        /* \"contracts/Ghosper-NFT-Staking-MasterChef.sol\":36414:36429  user.rewardDebt */\n      0x01\n      add\n        /* \"contracts/Ghosper-NFT-Staking-MasterChef.sol\":36414:36474  user.rewardDebt = user.amount.mul(accGHSPPerShare).div(1e12) */\n      dup2\n      swap1\n      sstore\n      pop\n        /* \"contracts/Ghosper-NFT-Staking-MasterChef.sol\":36490:36530  Harvest(msg.sender, amount, _harvestFee) */\n      0x71bab65ced2e5750775a0613be067df48ef06cf92a496ebf7663ae0660924954\n        /* \"contracts/Ghosper-NFT-Staking-MasterChef.sol\":36498:36508  msg.sender */\n      caller\n        /* \"contracts/Ghosper-NFT-Staking-MasterChef.sol\":36510:36516  amount */\n      dup3\n        /* \"contracts/Ghosper-NFT-Staking-MasterChef.sol\":36518:36529  _harvestFee */\n      dup5\n        /* \"contracts/Ghosper-NFT-Staking-MasterChef.sol\":36490:36530  Harvest(msg.sender, amount, _harvestFee) */\n      mload(0x40)\n      tag_237\n      swap4\n      swap3\n      swap2\n      swap1\n      tag_238\n      jump\t// in\n    tag_237:\n      mload(0x40)\n      dup1\n      swap2\n      sub\n      swap1\n      log1\n        /* \"contracts/Ghosper-NFT-Staking-MasterChef.sol\":35729:36538  {\r... */\n      pop\n      pop\n      pop\n      pop\n        /* \"contracts/Ghosper-NFT-Staking-MasterChef.sol\":35701:36538  function harvest() external {\r... */\n      jump\t// out\n        /* \"contracts/Ghosper-NFT-Staking-MasterChef.sol\":28498:28530  uint256 public totalStakedAmount */\n    tag_57:\n      sload(0x06)\n      dup2\n      jump\t// out\n        /* \"contracts/Ghosper-NFT-Staking-MasterChef.sol\":30085:30490  function getRewardBalance() external view returns (uint256) {\r... */\n    tag_60:\n        /* \"contracts/Ghosper-NFT-Staking-MasterChef.sol\":30136:30143  uint256 */\n      0x00\n        /* \"contracts/Ghosper-NFT-Staking-MasterChef.sol\":30175:30190  lastRewardBlock */\n      sload(0x01)\n        /* \"contracts/Ghosper-NFT-Staking-MasterChef.sol\":30160:30172  block.number */\n      number\n        /* \"contracts/Ghosper-NFT-Staking-MasterChef.sol\":30160:30190  block.number > lastRewardBlock */\n      gt\n        /* \"contracts/Ghosper-NFT-Staking-MasterChef.sol\":30160:30216  block.number > lastRewardBlock && totalStakedAmount != 0 */\n      dup1\n      iszero\n      tag_240\n      jumpi\n      pop\n        /* \"contracts/Ghosper-NFT-Staking-MasterChef.sol\":30215:30216  0 */\n      0x00\n        /* \"contracts/Ghosper-NFT-Staking-MasterChef.sol\":30194:30211  totalStakedAmount */\n      sload(0x06)\n        /* \"contracts/Ghosper-NFT-Staking-MasterChef.sol\":30194:30216  totalStakedAmount != 0 */\n      eq\n      iszero\n        /* \"contracts/Ghosper-NFT-Staking-MasterChef.sol\":30160:30216  block.number > lastRewardBlock && totalStakedAmount != 0 */\n    tag_240:\n        /* \"contracts/Ghosper-NFT-Staking-MasterChef.sol\":30156:30483  if (block.number > lastRewardBlock && totalStakedAmount != 0) {\r... */\n      iszero\n      tag_241\n      jumpi\n        /* \"contracts/Ghosper-NFT-Staking-MasterChef.sol\":30233:30251  uint256 multiplier */\n      0x00\n        /* \"contracts/Ghosper-NFT-Staking-MasterChef.sol\":30254:30298  getMultiplier(lastRewardBlock, block.number) */\n      tag_242\n        /* \"contracts/Ghosper-NFT-Staking-MasterChef.sol\":30268:30283  lastRewardBlock */\n      sload(0x01)\n        /* \"contracts/Ghosper-NFT-Staking-MasterChef.sol\":30285:30297  block.number */\n      number\n        /* \"contracts/Ghosper-NFT-Staking-MasterChef.sol\":30254:30267  getMultiplier */\n      tag_77\n        /* \"contracts/Ghosper-NFT-Staking-MasterChef.sol\":30254:30298  getMultiplier(lastRewardBlock, block.number) */\n      jump\t// in\n    tag_242:\n        /* \"contracts/Ghosper-NFT-Staking-MasterChef.sol\":30233:30298  uint256 multiplier = getMultiplier(lastRewardBlock, block.number) */\n      swap1\n      pop\n        /* \"contracts/Ghosper-NFT-Staking-MasterChef.sol\":30313:30327  uint256 reward */\n      0x00\n        /* \"contracts/Ghosper-NFT-Staking-MasterChef.sol\":30330:30360  multiplier.mul(rewardPerBlock) */\n      tag_243\n        /* \"contracts/Ghosper-NFT-Staking-MasterChef.sol\":30345:30359  rewardPerBlock */\n      sload(0x03)\n        /* \"contracts/Ghosper-NFT-Staking-MasterChef.sol\":30330:30340  multiplier */\n      dup4\n        /* \"contracts/Ghosper-NFT-Staking-MasterChef.sol\":30330:30344  multiplier.mul */\n      tag_150\n      swap1\n        /* \"contracts/Ghosper-NFT-Staking-MasterChef.sol\":30330:30360  multiplier.mul(rewardPerBlock) */\n      swap2\n      swap1\n      0xffffffff\n      and\n      jump\t// in\n    tag_243:\n        /* \"contracts/Ghosper-NFT-Staking-MasterChef.sol\":30313:30360  uint256 reward = multiplier.mul(rewardPerBlock) */\n      swap1\n      pop\n        /* \"contracts/Ghosper-NFT-Staking-MasterChef.sol\":30382:30408  _rewardBalance.sub(reward) */\n      tag_244\n        /* \"contracts/Ghosper-NFT-Staking-MasterChef.sol\":30401:30407  reward */\n      dup2\n        /* \"contracts/Ghosper-NFT-Staking-MasterChef.sol\":30382:30396  _rewardBalance */\n      sload(0x07)\n        /* \"contracts/Ghosper-NFT-Staking-MasterChef.sol\":30382:30400  _rewardBalance.sub */\n      tag_152\n      swap1\n        /* \"contracts/Ghosper-NFT-Staking-MasterChef.sol\":30382:30408  _rewardBalance.sub(reward) */\n      swap2\n      swap1\n      0xffffffff\n      and\n      jump\t// in\n    tag_244:\n        /* \"contracts/Ghosper-NFT-Staking-MasterChef.sol\":30375:30408  return _rewardBalance.sub(reward) */\n      swap3\n      pop\n      pop\n      pop\n      jump(tag_239)\n        /* \"contracts/Ghosper-NFT-Staking-MasterChef.sol\":30156:30483  if (block.number > lastRewardBlock && totalStakedAmount != 0) {\r... */\n    tag_241:\n        /* \"contracts/Ghosper-NFT-Staking-MasterChef.sol\":30457:30471  _rewardBalance */\n      sload(0x07)\n        /* \"contracts/Ghosper-NFT-Staking-MasterChef.sol\":30450:30471  return _rewardBalance */\n      swap1\n      pop\n        /* \"contracts/Ghosper-NFT-Staking-MasterChef.sol\":30085:30490  function getRewardBalance() external view returns (uint256) {\r... */\n    tag_239:\n      swap1\n      jump\t// out\n        /* \"contracts/Ghosper-NFT-Staking-MasterChef.sol\":5562:5665  function renounceOwnership() public virtual onlyOwner {\r... */\n    tag_63:\n        /* \"contracts/Ghosper-NFT-Staking-MasterChef.sol\":5142:5154  _msgSender() */\n      tag_247\n        /* \"contracts/Ghosper-NFT-Staking-MasterChef.sol\":5142:5152  _msgSender */\n      tag_180\n        /* \"contracts/Ghosper-NFT-Staking-MasterChef.sol\":5142:5154  _msgSender() */\n      jump\t// in\n    tag_247:\n        /* \"contracts/Ghosper-NFT-Staking-MasterChef.sol\":5131:5154  owner() == _msgSender() */\n      0xffffffffffffffffffffffffffffffffffffffff\n      and\n        /* \"contracts/Ghosper-NFT-Staking-MasterChef.sol\":5131:5138  owner() */\n      tag_248\n        /* \"contracts/Ghosper-NFT-Staking-MasterChef.sol\":5131:5136  owner */\n      tag_71\n        /* \"contracts/Ghosper-NFT-Staking-MasterChef.sol\":5131:5138  owner() */\n      jump\t// in\n    tag_248:\n        /* \"contracts/Ghosper-NFT-Staking-MasterChef.sol\":5131:5154  owner() == _msgSender() */\n      0xffffffffffffffffffffffffffffffffffffffff\n      and\n      eq\n        /* \"contracts/Ghosper-NFT-Staking-MasterChef.sol\":5123:5191  require(owner() == _msgSender(), \"Ownable: caller is not the owner\") */\n      tag_249\n      jumpi\n      mload(0x40)\n      0x08c379a000000000000000000000000000000000000000000000000000000000\n      dup2\n      mstore\n      0x04\n      add\n      tag_250\n      swap1\n      tag_184\n      jump\t// in\n    tag_250:\n      mload(0x40)\n      dup1\n      swap2\n      sub\n      swap1\n      revert\n    tag_249:\n        /* \"contracts/Ghosper-NFT-Staking-MasterChef.sol\":5627:5657  _transferOwnership(address(0)) */\n      tag_252\n        /* \"contracts/Ghosper-NFT-Staking-MasterChef.sol\":5654:5655  0 */\n      0x00\n        /* \"contracts/Ghosper-NFT-Staking-MasterChef.sol\":5627:5645  _transferOwnership */\n      tag_253\n        /* \"contracts/Ghosper-NFT-Staking-MasterChef.sol\":5627:5657  _transferOwnership(address(0)) */\n      jump\t// in\n    tag_252:\n        /* \"contracts/Ghosper-NFT-Staking-MasterChef.sol\":5562:5665  function renounceOwnership() public virtual onlyOwner {\r... */\n      jump\t// out\n        /* \"contracts/Ghosper-NFT-Staking-MasterChef.sol\":29729:29948  function setHarvestFee(uint256 _feePercent) external onlyOwner {\r... */\n    tag_66:\n        /* \"contracts/Ghosper-NFT-Staking-MasterChef.sol\":5142:5154  _msgSender() */\n      tag_255\n        /* \"contracts/Ghosper-NFT-Staking-MasterChef.sol\":5142:5152  _msgSender */\n      tag_180\n        /* \"contracts/Ghosper-NFT-Staking-MasterChef.sol\":5142:5154  _msgSender() */\n      jump\t// in\n    tag_255:\n        /* \"contracts/Ghosper-NFT-Staking-MasterChef.sol\":5131:5154  owner() == _msgSender() */\n      0xffffffffffffffffffffffffffffffffffffffff\n      and\n        /* \"contracts/Ghosper-NFT-Staking-MasterChef.sol\":5131:5138  owner() */\n      tag_256\n        /* \"contracts/Ghosper-NFT-Staking-MasterChef.sol\":5131:5136  owner */\n      tag_71\n        /* \"contracts/Ghosper-NFT-Staking-MasterChef.sol\":5131:5138  owner() */\n      jump\t// in\n    tag_256:\n        /* \"contracts/Ghosper-NFT-Staking-MasterChef.sol\":5131:5154  owner() == _msgSender() */\n      0xffffffffffffffffffffffffffffffffffffffff\n      and\n      eq\n        /* \"contracts/Ghosper-NFT-Staking-MasterChef.sol\":5123:5191  require(owner() == _msgSender(), \"Ownable: caller is not the owner\") */\n      tag_257\n      jumpi\n      mload(0x40)\n      0x08c379a000000000000000000000000000000000000000000000000000000000\n      dup2\n      mstore\n      0x04\n      add\n      tag_258\n      swap1\n      tag_184\n      jump\t// in\n    tag_258:\n      mload(0x40)\n      dup1\n      swap2\n      sub\n      swap1\n      revert\n    tag_257:\n        /* \"contracts/Ghosper-NFT-Staking-MasterChef.sol\":29826:29828  40 */\n      0x28\n        /* \"contracts/Ghosper-NFT-Staking-MasterChef.sol\":29811:29822  _feePercent */\n      dup2\n        /* \"contracts/Ghosper-NFT-Staking-MasterChef.sol\":29811:29828  _feePercent <= 40 */\n      gt\n      iszero\n        /* \"contracts/Ghosper-NFT-Staking-MasterChef.sol\":29803:29863  require(_feePercent <= 40, \"setHarvestFee: feePercent > 40\") */\n      tag_260\n      jumpi\n      mload(0x40)\n      0x08c379a000000000000000000000000000000000000000000000000000000000\n      dup2\n      mstore\n      0x04\n      add\n      tag_261\n      swap1\n      tag_262\n      jump\t// in\n    tag_261:\n      mload(0x40)\n      dup1\n      swap2\n      sub\n      swap1\n      revert\n    tag_260:\n        /* \"contracts/Ghosper-NFT-Staking-MasterChef.sol\":29887:29898  _feePercent */\n      dup1\n        /* \"contracts/Ghosper-NFT-Staking-MasterChef.sol\":29874:29884  harvestFee */\n      0x05\n        /* \"contracts/Ghosper-NFT-Staking-MasterChef.sol\":29874:29898  harvestFee = _feePercent */\n      dup2\n      swap1\n      sstore\n      pop\n        /* \"contracts/Ghosper-NFT-Staking-MasterChef.sol\":29914:29940  SetHarvestFee(_feePercent) */\n      0xf419800a2d8930c61d5d9cd782aa72c512cf6be2f79da6db0b8855870b7269ed\n        /* \"contracts/Ghosper-NFT-Staking-MasterChef.sol\":29928:29939  _feePercent */\n      dup2\n        /* \"contracts/Ghosper-NFT-Staking-MasterChef.sol\":29914:29940  SetHarvestFee(_feePercent) */\n      mload(0x40)\n      tag_263\n      swap2\n      swap1\n      tag_53\n      jump\t// in\n    tag_263:\n      mload(0x40)\n      dup1\n      swap2\n      sub\n      swap1\n      log1\n        /* \"contracts/Ghosper-NFT-Staking-MasterChef.sol\":29729:29948  function setHarvestFee(uint256 _feePercent) external onlyOwner {\r... */\n      pop\n      jump\t// out\n        /* \"contracts/Ghosper-NFT-Staking-MasterChef.sol\":28399:28428  uint256 public rewardPerBlock */\n    tag_68:\n      sload(0x03)\n      dup2\n      jump\t// out\n        /* \"contracts/Ghosper-NFT-Staking-MasterChef.sol\":4911:4998  function owner() public view virtual returns (address) {\r... */\n    tag_71:\n        /* \"contracts/Ghosper-NFT-Staking-MasterChef.sol\":4957:4964  address */\n      0x00\n        /* \"contracts/Ghosper-NFT-Staking-MasterChef.sol\":4984:4990  _owner */\n      dup1\n      0x00\n      swap1\n      sload\n      swap1\n      0x0100\n      exp\n      swap1\n      div\n      0xffffffffffffffffffffffffffffffffffffffff\n      and\n        /* \"contracts/Ghosper-NFT-Staking-MasterChef.sol\":4977:4990  return _owner */\n      swap1\n      pop\n        /* \"contracts/Ghosper-NFT-Staking-MasterChef.sol\":4911:4998  function owner() public view virtual returns (address) {\r... */\n      swap1\n      jump\t// out\n        /* \"contracts/Ghosper-NFT-Staking-MasterChef.sol\":29956:30077  function getMultiplier(uint256 _from, uint256 _to) public pure returns (uint256) {\r... */\n    tag_77:\n        /* \"contracts/Ghosper-NFT-Staking-MasterChef.sol\":30028:30035  uint256 */\n      0x00\n        /* \"contracts/Ghosper-NFT-Staking-MasterChef.sol\":30055:30069  _to.sub(_from) */\n      tag_266\n        /* \"contracts/Ghosper-NFT-Staking-MasterChef.sol\":30063:30068  _from */\n      dup4\n        /* \"contracts/Ghosper-NFT-Staking-MasterChef.sol\":30055:30058  _to */\n      dup4\n        /* \"contracts/Ghosper-NFT-Staking-MasterChef.sol\":30055:30062  _to.sub */\n      tag_152\n      swap1\n        /* \"contracts/Ghosper-NFT-Staking-MasterChef.sol\":30055:30069  _to.sub(_from) */\n      swap2\n      swap1\n      0xffffffff\n      and\n      jump\t// in\n    tag_266:\n        /* \"contracts/Ghosper-NFT-Staking-MasterChef.sol\":30048:30069  return _to.sub(_from) */\n      swap1\n      pop\n        /* \"contracts/Ghosper-NFT-Staking-MasterChef.sol\":29956:30077  function getMultiplier(uint256 _from, uint256 _to) public pure returns (uint256) {\r... */\n      swap3\n      swap2\n      pop\n      pop\n      jump\t// out\n        /* \"contracts/Ghosper-NFT-Staking-MasterChef.sol\":29580:29721  function setFeeWallet(address _feeWallet) external onlyOwner {\r... */\n    tag_81:\n        /* \"contracts/Ghosper-NFT-Staking-MasterChef.sol\":5142:5154  _msgSender() */\n      tag_268\n        /* \"contracts/Ghosper-NFT-Staking-MasterChef.sol\":5142:5152  _msgSender */\n      tag_180\n        /* \"contracts/Ghosper-NFT-Staking-MasterChef.sol\":5142:5154  _msgSender() */\n      jump\t// in\n    tag_268:\n        /* \"contracts/Ghosper-NFT-Staking-MasterChef.sol\":5131:5154  owner() == _msgSender() */\n      0xffffffffffffffffffffffffffffffffffffffff\n      and\n        /* \"contracts/Ghosper-NFT-Staking-MasterChef.sol\":5131:5138  owner() */\n      tag_269\n        /* \"contracts/Ghosper-NFT-Staking-MasterChef.sol\":5131:5136  owner */\n      tag_71\n        /* \"contracts/Ghosper-NFT-Staking-MasterChef.sol\":5131:5138  owner() */\n      jump\t// in\n    tag_269:\n        /* \"contracts/Ghosper-NFT-Staking-MasterChef.sol\":5131:5154  owner() == _msgSender() */\n      0xffffffffffffffffffffffffffffffffffffffff\n      and\n      eq\n        /* \"contracts/Ghosper-NFT-Staking-MasterChef.sol\":5123:5191  require(owner() == _msgSender(), \"Ownable: caller is not the owner\") */\n      tag_270\n      jumpi\n      mload(0x40)\n      0x08c379a000000000000000000000000000000000000000000000000000000000\n      dup2\n      mstore\n      0x04\n      add\n      tag_271\n      swap1\n      tag_184\n      jump\t// in\n    tag_271:\n      mload(0x40)\n      dup1\n      swap2\n      sub\n      swap1\n      revert\n    tag_270:\n        /* \"contracts/Ghosper-NFT-Staking-MasterChef.sol\":29664:29674  _feeWallet */\n      dup1\n        /* \"contracts/Ghosper-NFT-Staking-MasterChef.sol\":29652:29661  feeWallet */\n      0x04\n      0x00\n        /* \"contracts/Ghosper-NFT-Staking-MasterChef.sol\":29652:29674  feeWallet = _feeWallet */\n      0x0100\n      exp\n      dup2\n      sload\n      dup2\n      0xffffffffffffffffffffffffffffffffffffffff\n      mul\n      not\n      and\n      swap1\n      dup4\n      0xffffffffffffffffffffffffffffffffffffffff\n      and\n      mul\n      or\n      swap1\n      sstore\n      pop\n        /* \"contracts/Ghosper-NFT-Staking-MasterChef.sol\":29703:29712  feeWallet */\n      0x04\n      0x00\n      swap1\n      sload\n      swap1\n      0x0100\n      exp\n      swap1\n      div\n      0xffffffffffffffffffffffffffffffffffffffff\n      and\n        /* \"contracts/Ghosper-NFT-Staking-MasterChef.sol\":29690:29713  SetFeeWallet(feeWallet) */\n      0xffffffffffffffffffffffffffffffffffffffff\n      and\n      0x3d21e5a2b633291bd1ff5f9c654e402d063783c95759d2ea521b31fb30e4da41\n      mload(0x40)\n      mload(0x40)\n      dup1\n      swap2\n      sub\n      swap1\n      log2\n        /* \"contracts/Ghosper-NFT-Staking-MasterChef.sol\":29580:29721  function setFeeWallet(address _feeWallet) external onlyOwner {\r... */\n      pop\n      jump\t// out\n        /* \"contracts/Ghosper-NFT-Staking-MasterChef.sol\":28325:28355  uint256 public lastRewardBlock */\n    tag_83:\n      sload(0x01)\n      dup2\n      jump\t// out\n        /* \"contracts/Ghosper-NFT-Staking-MasterChef.sol\":28466:28491  uint256 public harvestFee */\n    tag_86:\n      sload(0x05)\n      dup2\n      jump\t// out\n        /* \"contracts/Ghosper-NFT-Staking-MasterChef.sol\":28245:28278  IERC721 public immutable nftToken */\n    tag_89:\n      immutable(\"0xd3d302950f380d1a27df9dd44167cfb162563e31196f778e9cbde584eeb2b78c\")\n      dup2\n      jump\t// out\n        /* \"contracts/Ghosper-NFT-Staking-MasterChef.sol\":34904:35128  function getPending(address _user) public view returns (uint256) {\r... */\n    tag_94:\n        /* \"contracts/Ghosper-NFT-Staking-MasterChef.sol\":34960:34967  uint256 */\n      0x00\n        /* \"contracts/Ghosper-NFT-Staking-MasterChef.sol\":34980:34995  uint256 pending */\n      dup1\n        /* \"contracts/Ghosper-NFT-Staking-MasterChef.sol\":34998:35016  _getPending(_user) */\n      tag_274\n        /* \"contracts/Ghosper-NFT-Staking-MasterChef.sol\":35010:35015  _user */\n      dup4\n        /* \"contracts/Ghosper-NFT-Staking-MasterChef.sol\":34998:35009  _getPending */\n      tag_203\n        /* \"contracts/Ghosper-NFT-Staking-MasterChef.sol\":34998:35016  _getPending(_user) */\n      jump\t// in\n    tag_274:\n        /* \"contracts/Ghosper-NFT-Staking-MasterChef.sol\":34980:35016  uint256 pending = _getPending(_user) */\n      swap1\n      pop\n        /* \"contracts/Ghosper-NFT-Staking-MasterChef.sol\":35027:35046  uint256 _harvestFee */\n      0x00\n        /* \"contracts/Ghosper-NFT-Staking-MasterChef.sol\":35049:35081  pending.mul(harvestFee).div(100) */\n      tag_275\n        /* \"contracts/Ghosper-NFT-Staking-MasterChef.sol\":35077:35080  100 */\n      0x64\n        /* \"contracts/Ghosper-NFT-Staking-MasterChef.sol\":35049:35072  pending.mul(harvestFee) */\n      tag_276\n        /* \"contracts/Ghosper-NFT-Staking-MasterChef.sol\":35061:35071  harvestFee */\n      sload(0x05)\n        /* \"contracts/Ghosper-NFT-Staking-MasterChef.sol\":35049:35056  pending */\n      dup6\n        /* \"contracts/Ghosper-NFT-Staking-MasterChef.sol\":35049:35060  pending.mul */\n      tag_150\n      swap1\n        /* \"contracts/Ghosper-NFT-Staking-MasterChef.sol\":35049:35072  pending.mul(harvestFee) */\n      swap2\n      swap1\n      0xffffffff\n      and\n      jump\t// in\n    tag_276:\n        /* \"contracts/Ghosper-NFT-Staking-MasterChef.sol\":35049:35076  pending.mul(harvestFee).div */\n      tag_151\n      swap1\n        /* \"contracts/Ghosper-NFT-Staking-MasterChef.sol\":35049:35081  pending.mul(harvestFee).div(100) */\n      swap2\n      swap1\n      0xffffffff\n      and\n      jump\t// in\n    tag_275:\n        /* \"contracts/Ghosper-NFT-Staking-MasterChef.sol\":35027:35081  uint256 _harvestFee = pending.mul(harvestFee).div(100) */\n      swap1\n      pop\n        /* \"contracts/Ghosper-NFT-Staking-MasterChef.sol\":35109:35120  _harvestFee */\n      dup1\n        /* \"contracts/Ghosper-NFT-Staking-MasterChef.sol\":35099:35106  pending */\n      dup3\n        /* \"contracts/Ghosper-NFT-Staking-MasterChef.sol\":35099:35120  pending - _harvestFee */\n      tag_277\n      swap2\n      swap1\n      tag_207\n      jump\t// in\n    tag_277:\n        /* \"contracts/Ghosper-NFT-Staking-MasterChef.sol\":35092:35120  return pending - _harvestFee */\n      swap3\n      pop\n      pop\n      pop\n        /* \"contracts/Ghosper-NFT-Staking-MasterChef.sol\":34904:35128  function getPending(address _user) public view returns (uint256) {\r... */\n      swap2\n      swap1\n      pop\n      jump\t// out\n        /* \"contracts/Ghosper-NFT-Staking-MasterChef.sol\":33148:34896  function unstake(uint256[] calldata tokenIds) external {\r... */\n    tag_98:\n        /* \"contracts/Ghosper-NFT-Staking-MasterChef.sol\":33240:33241  0 */\n      0x00\n        /* \"contracts/Ghosper-NFT-Staking-MasterChef.sol\":33222:33230  tokenIds */\n      dup3\n      dup3\n        /* \"contracts/Ghosper-NFT-Staking-MasterChef.sol\":33222:33237  tokenIds.length */\n      swap1\n      pop\n        /* \"contracts/Ghosper-NFT-Staking-MasterChef.sol\":33222:33241  tokenIds.length > 0 */\n      gt\n        /* \"contracts/Ghosper-NFT-Staking-MasterChef.sol\":33214:33270  require(tokenIds.length > 0, \"NFT Staking: Empty Array\") */\n      tag_279\n      jumpi\n      mload(0x40)\n      0x08c379a000000000000000000000000000000000000000000000000000000000\n      dup2\n      mstore\n      0x04\n      add\n      tag_280\n      swap1\n      tag_108\n      jump\t// in\n    tag_280:\n      mload(0x40)\n      dup1\n      swap2\n      sub\n      swap1\n      revert\n    tag_279:\n        /* \"contracts/Ghosper-NFT-Staking-MasterChef.sol\":33285:33294  uint256 i */\n      0x00\n        /* \"contracts/Ghosper-NFT-Staking-MasterChef.sol\":33281:33644  for(uint256 i = 0; i < tokenIds.length; i ++){\r... */\n    tag_281:\n        /* \"contracts/Ghosper-NFT-Staking-MasterChef.sol\":33304:33312  tokenIds */\n      dup3\n      dup3\n        /* \"contracts/Ghosper-NFT-Staking-MasterChef.sol\":33304:33319  tokenIds.length */\n      swap1\n      pop\n        /* \"contracts/Ghosper-NFT-Staking-MasterChef.sol\":33300:33301  i */\n      dup2\n        /* \"contracts/Ghosper-NFT-Staking-MasterChef.sol\":33300:33319  i < tokenIds.length */\n      lt\n        /* \"contracts/Ghosper-NFT-Staking-MasterChef.sol\":33281:33644  for(uint256 i = 0; i < tokenIds.length; i ++){\r... */\n      iszero\n      tag_282\n      jumpi\n        /* \"contracts/Ghosper-NFT-Staking-MasterChef.sol\":33383:33384  0 */\n      0x00\n        /* \"contracts/Ghosper-NFT-Staking-MasterChef.sol\":33349:33366  _ownedTokensIndex */\n      0x0a\n        /* \"contracts/Ghosper-NFT-Staking-MasterChef.sol\":33349:33379  _ownedTokensIndex[tokenIds[i]] */\n      0x00\n        /* \"contracts/Ghosper-NFT-Staking-MasterChef.sol\":33367:33375  tokenIds */\n      dup6\n      dup6\n        /* \"contracts/Ghosper-NFT-Staking-MasterChef.sol\":33376:33377  i */\n      dup6\n        /* \"contracts/Ghosper-NFT-Staking-MasterChef.sol\":33367:33378  tokenIds[i] */\n      dup2\n      dup2\n      lt\n      tag_284\n      jumpi\n      tag_285\n      tag_114\n      jump\t// in\n    tag_285:\n    tag_284:\n      swap1\n      pop\n      0x20\n      mul\n      add\n      calldataload\n        /* \"contracts/Ghosper-NFT-Staking-MasterChef.sol\":33349:33379  _ownedTokensIndex[tokenIds[i]] */\n      dup2\n      mstore\n      0x20\n      add\n      swap1\n      dup2\n      mstore\n      0x20\n      add\n      0x00\n      keccak256\n      sload\n        /* \"contracts/Ghosper-NFT-Staking-MasterChef.sol\":33349:33384  _ownedTokensIndex[tokenIds[i]] != 0 */\n      eq\n      iszero\n        /* \"contracts/Ghosper-NFT-Staking-MasterChef.sol\":33341:33446  require(_ownedTokensIndex[tokenIds[i]] != 0, \"Nft Unstaking: token not staked or incorrect token owner.\") */\n      tag_286\n      jumpi\n      mload(0x40)\n      0x08c379a000000000000000000000000000000000000000000000000000000000\n      dup2\n      mstore\n      0x04\n      add\n      tag_287\n      swap1\n      tag_128\n      jump\t// in\n    tag_287:\n      mload(0x40)\n      dup1\n      swap2\n      sub\n      swap1\n      revert\n    tag_286:\n        /* \"contracts/Ghosper-NFT-Staking-MasterChef.sol\":33465:33474  uint256 j */\n      0x00\n        /* \"contracts/Ghosper-NFT-Staking-MasterChef.sol\":33481:33482  1 */\n      0x01\n        /* \"contracts/Ghosper-NFT-Staking-MasterChef.sol\":33477:33478  i */\n      dup3\n        /* \"contracts/Ghosper-NFT-Staking-MasterChef.sol\":33477:33482  i + 1 */\n      tag_291\n      swap2\n      swap1\n      tag_133\n      jump\t// in\n    tag_291:\n        /* \"contracts/Ghosper-NFT-Staking-MasterChef.sol\":33465:33482  uint256 j = i + 1 */\n      swap1\n      pop\n        /* \"contracts/Ghosper-NFT-Staking-MasterChef.sol\":33461:33633  for(uint256 j = i + 1; j < tokenIds.length; j ++){\r... */\n    tag_288:\n        /* \"contracts/Ghosper-NFT-Staking-MasterChef.sol\":33488:33496  tokenIds */\n      dup4\n      dup4\n        /* \"contracts/Ghosper-NFT-Staking-MasterChef.sol\":33488:33503  tokenIds.length */\n      swap1\n      pop\n        /* \"contracts/Ghosper-NFT-Staking-MasterChef.sol\":33484:33485  j */\n      dup2\n        /* \"contracts/Ghosper-NFT-Staking-MasterChef.sol\":33484:33503  j < tokenIds.length */\n      lt\n        /* \"contracts/Ghosper-NFT-Staking-MasterChef.sol\":33461:33633  for(uint256 j = i + 1; j < tokenIds.length; j ++){\r... */\n      iszero\n      tag_289\n      jumpi\n        /* \"contracts/Ghosper-NFT-Staking-MasterChef.sol\":33552:33560  tokenIds */\n      dup4\n      dup4\n        /* \"contracts/Ghosper-NFT-Staking-MasterChef.sol\":33561:33562  j */\n      dup3\n        /* \"contracts/Ghosper-NFT-Staking-MasterChef.sol\":33552:33563  tokenIds[j] */\n      dup2\n      dup2\n      lt\n      tag_292\n      jumpi\n      tag_293\n      tag_114\n      jump\t// in\n    tag_293:\n    tag_292:\n      swap1\n      pop\n      0x20\n      mul\n      add\n      calldataload\n        /* \"contracts/Ghosper-NFT-Staking-MasterChef.sol\":33537:33545  tokenIds */\n      dup5\n      dup5\n        /* \"contracts/Ghosper-NFT-Staking-MasterChef.sol\":33546:33547  i */\n      dup5\n        /* \"contracts/Ghosper-NFT-Staking-MasterChef.sol\":33537:33548  tokenIds[i] */\n      dup2\n      dup2\n      lt\n      tag_294\n      jumpi\n      tag_295\n      tag_114\n      jump\t// in\n    tag_295:\n    tag_294:\n      swap1\n      pop\n      0x20\n      mul\n      add\n      calldataload\n        /* \"contracts/Ghosper-NFT-Staking-MasterChef.sol\":33537:33563  tokenIds[i] != tokenIds[j] */\n      eq\n      iszero\n        /* \"contracts/Ghosper-NFT-Staking-MasterChef.sol\":33529:33617  require(tokenIds[i] != tokenIds[j], \"NFT Staking: duplicate token ids in input params.\") */\n      tag_296\n      jumpi\n      mload(0x40)\n      0x08c379a000000000000000000000000000000000000000000000000000000000\n      dup2\n      mstore\n      0x04\n      add\n      tag_297\n      swap1\n      tag_140\n      jump\t// in\n    tag_297:\n      mload(0x40)\n      dup1\n      swap2\n      sub\n      swap1\n      revert\n    tag_296:\n        /* \"contracts/Ghosper-NFT-Staking-MasterChef.sol\":33505:33509  j ++ */\n      dup1\n      dup1\n      tag_298\n      swap1\n      tag_142\n      jump\t// in\n    tag_298:\n      swap2\n      pop\n      pop\n        /* \"contracts/Ghosper-NFT-Staking-MasterChef.sol\":33461:33633  for(uint256 j = i + 1; j < tokenIds.length; j ++){\r... */\n      jump(tag_288)\n    tag_289:\n      pop\n        /* \"contracts/Ghosper-NFT-Staking-MasterChef.sol\":33321:33325  i ++ */\n      dup1\n      dup1\n      tag_299\n      swap1\n      tag_142\n      jump\t// in\n    tag_299:\n      swap2\n      pop\n      pop\n        /* \"contracts/Ghosper-NFT-Staking-MasterChef.sol\":33281:33644  for(uint256 i = 0; i < tokenIds.length; i ++){\r... */\n      jump(tag_281)\n    tag_282:\n      pop\n        /* \"contracts/Ghosper-NFT-Staking-MasterChef.sol\":33656:33670  updateStatus() */\n      tag_300\n        /* \"contracts/Ghosper-NFT-Staking-MasterChef.sol\":33656:33668  updateStatus */\n      tag_145\n        /* \"contracts/Ghosper-NFT-Staking-MasterChef.sol\":33656:33670  updateStatus() */\n      jump\t// in\n    tag_300:\n        /* \"contracts/Ghosper-NFT-Staking-MasterChef.sol\":33681:33702  UserInfo storage user */\n      0x00\n        /* \"contracts/Ghosper-NFT-Staking-MasterChef.sol\":33705:33713  userInfo */\n      0x0b\n        /* \"contracts/Ghosper-NFT-Staking-MasterChef.sol\":33705:33725  userInfo[msg.sender] */\n      0x00\n        /* \"contracts/Ghosper-NFT-Staking-MasterChef.sol\":33714:33724  msg.sender */\n      caller\n        /* \"contracts/Ghosper-NFT-Staking-MasterChef.sol\":33705:33725  userInfo[msg.sender] */\n      0xffffffffffffffffffffffffffffffffffffffff\n      and\n      0xffffffffffffffffffffffffffffffffffffffff\n      and\n      dup2\n      mstore\n      0x20\n      add\n      swap1\n      dup2\n      mstore\n      0x20\n      add\n      0x00\n      keccak256\n        /* \"contracts/Ghosper-NFT-Staking-MasterChef.sol\":33681:33725  UserInfo storage user = userInfo[msg.sender] */\n      swap1\n      pop\n        /* \"contracts/Ghosper-NFT-Staking-MasterChef.sol\":33736:33751  uint256 pending */\n      0x00\n        /* \"contracts/Ghosper-NFT-Staking-MasterChef.sol\":33754:33817  user.amount.mul(accGHSPPerShare).div(1e12).sub(user.rewardDebt) */\n      tag_301\n        /* \"contracts/Ghosper-NFT-Staking-MasterChef.sol\":33801:33805  user */\n      dup3\n        /* \"contracts/Ghosper-NFT-Staking-MasterChef.sol\":33801:33816  user.rewardDebt */\n      0x01\n      add\n      sload\n        /* \"contracts/Ghosper-NFT-Staking-MasterChef.sol\":33754:33796  user.amount.mul(accGHSPPerShare).div(1e12) */\n      tag_302\n        /* \"contracts/Ghosper-NFT-Staking-MasterChef.sol\":33791:33795  1e12 */\n      0xe8d4a51000\n        /* \"contracts/Ghosper-NFT-Staking-MasterChef.sol\":33754:33786  user.amount.mul(accGHSPPerShare) */\n      tag_303\n        /* \"contracts/Ghosper-NFT-Staking-MasterChef.sol\":33770:33785  accGHSPPerShare */\n      sload(0x02)\n        /* \"contracts/Ghosper-NFT-Staking-MasterChef.sol\":33754:33758  user */\n      dup8\n        /* \"contracts/Ghosper-NFT-Staking-MasterChef.sol\":33754:33765  user.amount */\n      0x00\n      add\n      sload\n        /* \"contracts/Ghosper-NFT-Staking-MasterChef.sol\":33754:33769  user.amount.mul */\n      tag_150\n      swap1\n        /* \"contracts/Ghosper-NFT-Staking-MasterChef.sol\":33754:33786  user.amount.mul(accGHSPPerShare) */\n      swap2\n      swap1\n      0xffffffff\n      and\n      jump\t// in\n    tag_303:\n        /* \"contracts/Ghosper-NFT-Staking-MasterChef.sol\":33754:33790  user.amount.mul(accGHSPPerShare).div */\n      tag_151\n      swap1\n        /* \"contracts/Ghosper-NFT-Staking-MasterChef.sol\":33754:33796  user.amount.mul(accGHSPPerShare).div(1e12) */\n      swap2\n      swap1\n      0xffffffff\n      and\n      jump\t// in\n    tag_302:\n        /* \"contracts/Ghosper-NFT-Staking-MasterChef.sol\":33754:33800  user.amount.mul(accGHSPPerShare).div(1e12).sub */\n      tag_152\n      swap1\n        /* \"contracts/Ghosper-NFT-Staking-MasterChef.sol\":33754:33817  user.amount.mul(accGHSPPerShare).div(1e12).sub(user.rewardDebt) */\n      swap2\n      swap1\n      0xffffffff\n      and\n      jump\t// in\n    tag_301:\n        /* \"contracts/Ghosper-NFT-Staking-MasterChef.sol\":33736:33817  uint256 pending = user.amount.mul(accGHSPPerShare).div(1e12).sub(user.rewardDebt) */\n      swap1\n      pop\n        /* \"contracts/Ghosper-NFT-Staking-MasterChef.sol\":33869:33876  pending */\n      dup1\n        /* \"contracts/Ghosper-NFT-Staking-MasterChef.sol\":33832:33841  ghspToken */\n      immutable(\"0x294a915770f1abdd270970c5c5e0116f353ee0443c415452cffb70311418f069\")\n        /* \"contracts/Ghosper-NFT-Staking-MasterChef.sol\":33832:33851  ghspToken.balanceOf */\n      0xffffffffffffffffffffffffffffffffffffffff\n      and\n      0x70a08231\n        /* \"contracts/Ghosper-NFT-Staking-MasterChef.sol\":33860:33864  this */\n      address\n        /* \"contracts/Ghosper-NFT-Staking-MasterChef.sol\":33832:33866  ghspToken.balanceOf(address(this)) */\n      mload(0x40)\n      dup3\n      0xffffffff\n      and\n      0xe0\n      shl\n      dup2\n      mstore\n      0x04\n      add\n      tag_304\n      swap2\n      swap1\n      tag_73\n      jump\t// in\n    tag_304:\n      0x20\n      mload(0x40)\n      dup1\n      dup4\n      sub\n      dup2\n      dup7\n      dup1\n      extcodesize\n      iszero\n      dup1\n      iszero\n      tag_305\n      jumpi\n      0x00\n      dup1\n      revert\n    tag_305:\n      pop\n      gas\n      staticcall\n      iszero\n      dup1\n      iszero\n      tag_307\n      jumpi\n      returndatasize\n      0x00\n      dup1\n      returndatacopy\n      revert(0x00, returndatasize)\n    tag_307:\n      pop\n      pop\n      pop\n      pop\n      mload(0x40)\n      returndatasize\n      not(0x1f)\n      0x1f\n      dup3\n      add\n      and\n      dup3\n      add\n      dup1\n      0x40\n      mstore\n      pop\n      dup2\n      add\n      swap1\n      tag_308\n      swap2\n      swap1\n      tag_213\n      jump\t// in\n    tag_308:\n        /* \"contracts/Ghosper-NFT-Staking-MasterChef.sol\":33832:33876  ghspToken.balanceOf(address(this)) < pending */\n      lt\n        /* \"contracts/Ghosper-NFT-Staking-MasterChef.sol\":33828:33949  if (ghspToken.balanceOf(address(this)) < pending) {\r... */\n      iszero\n      tag_309\n      jumpi\n        /* \"contracts/Ghosper-NFT-Staking-MasterChef.sol\":33903:33912  ghspToken */\n      immutable(\"0x294a915770f1abdd270970c5c5e0116f353ee0443c415452cffb70311418f069\")\n        /* \"contracts/Ghosper-NFT-Staking-MasterChef.sol\":33903:33922  ghspToken.balanceOf */\n      0xffffffffffffffffffffffffffffffffffffffff\n      and\n      0x70a08231\n        /* \"contracts/Ghosper-NFT-Staking-MasterChef.sol\":33931:33935  this */\n      address\n        /* \"contracts/Ghosper-NFT-Staking-MasterChef.sol\":33903:33937  ghspToken.balanceOf(address(this)) */\n      mload(0x40)\n      dup3\n      0xffffffff\n      and\n      0xe0\n      shl\n      dup2\n      mstore\n      0x04\n      add\n      tag_310\n      swap2\n      swap1\n      tag_73\n      jump\t// in\n    tag_310:\n      0x20\n      mload(0x40)\n      dup1\n      dup4\n      sub\n      dup2\n      dup7\n      dup1\n      extcodesize\n      iszero\n      dup1\n      iszero\n      tag_311\n      jumpi\n      0x00\n      dup1\n      revert\n    tag_311:\n      pop\n      gas\n      staticcall\n      iszero\n      dup1\n      iszero\n      tag_313\n      jumpi\n      returndatasize\n      0x00\n      dup1\n      returndatacopy\n      revert(0x00, returndatasize)\n    tag_313:\n      pop\n      pop\n      pop\n      pop\n      mload(0x40)\n      returndatasize\n      not(0x1f)\n      0x1f\n      dup3\n      add\n      and\n      dup3\n      add\n      dup1\n      0x40\n      mstore\n      pop\n      dup2\n      add\n      swap1\n      tag_314\n      swap2\n      swap1\n      tag_213\n      jump\t// in\n    tag_314:\n        /* \"contracts/Ghosper-NFT-Staking-MasterChef.sol\":33893:33937  pending = ghspToken.balanceOf(address(this)) */\n      swap1\n      pop\n        /* \"contracts/Ghosper-NFT-Staking-MasterChef.sol\":33828:33949  if (ghspToken.balanceOf(address(this)) < pending) {\r... */\n    tag_309:\n        /* \"contracts/Ghosper-NFT-Staking-MasterChef.sol\":33980:34011  user.pendingAmount.add(pending) */\n      tag_315\n        /* \"contracts/Ghosper-NFT-Staking-MasterChef.sol\":34003:34010  pending */\n      dup2\n        /* \"contracts/Ghosper-NFT-Staking-MasterChef.sol\":33980:33984  user */\n      dup4\n        /* \"contracts/Ghosper-NFT-Staking-MasterChef.sol\":33980:33998  user.pendingAmount */\n      0x02\n      add\n      sload\n        /* \"contracts/Ghosper-NFT-Staking-MasterChef.sol\":33980:34002  user.pendingAmount.add */\n      tag_154\n      swap1\n        /* \"contracts/Ghosper-NFT-Staking-MasterChef.sol\":33980:34011  user.pendingAmount.add(pending) */\n      swap2\n      swap1\n      0xffffffff\n      and\n      jump\t// in\n    tag_315:\n        /* \"contracts/Ghosper-NFT-Staking-MasterChef.sol\":33959:33963  user */\n      dup3\n        /* \"contracts/Ghosper-NFT-Staking-MasterChef.sol\":33959:33977  user.pendingAmount */\n      0x02\n      add\n        /* \"contracts/Ghosper-NFT-Staking-MasterChef.sol\":33959:34011  user.pendingAmount = user.pendingAmount.add(pending) */\n      dup2\n      swap1\n      sstore\n      pop\n        /* \"contracts/Ghosper-NFT-Staking-MasterChef.sol\":34022:34041  uint256 tokenAmount */\n      0x00\n        /* \"contracts/Ghosper-NFT-Staking-MasterChef.sol\":34044:34052  tokenIds */\n      dup5\n      dup5\n        /* \"contracts/Ghosper-NFT-Staking-MasterChef.sol\":34044:34059  tokenIds.length */\n      swap1\n      pop\n        /* \"contracts/Ghosper-NFT-Staking-MasterChef.sol\":34022:34059  uint256 tokenAmount = tokenIds.length */\n      swap1\n      pop\n        /* \"contracts/Ghosper-NFT-Staking-MasterChef.sol\":34074:34083  uint256 i */\n      0x00\n        /* \"contracts/Ghosper-NFT-Staking-MasterChef.sol\":34070:34654  for(uint256 i = 0; i < tokenAmount; i ++){\r... */\n    tag_316:\n        /* \"contracts/Ghosper-NFT-Staking-MasterChef.sol\":34093:34104  tokenAmount */\n      dup2\n        /* \"contracts/Ghosper-NFT-Staking-MasterChef.sol\":34089:34090  i */\n      dup2\n        /* \"contracts/Ghosper-NFT-Staking-MasterChef.sol\":34089:34104  i < tokenAmount */\n      lt\n        /* \"contracts/Ghosper-NFT-Staking-MasterChef.sol\":34070:34654  for(uint256 i = 0; i < tokenAmount; i ++){\r... */\n      iszero\n      tag_317\n      jumpi\n        /* \"contracts/Ghosper-NFT-Staking-MasterChef.sol\":34182:34183  1 */\n      0x01\n        /* \"contracts/Ghosper-NFT-Staking-MasterChef.sol\":34178:34179  i */\n      dup2\n        /* \"contracts/Ghosper-NFT-Staking-MasterChef.sol\":34164:34168  user */\n      dup6\n        /* \"contracts/Ghosper-NFT-Staking-MasterChef.sol\":34164:34175  user.amount */\n      0x00\n      add\n      sload\n        /* \"contracts/Ghosper-NFT-Staking-MasterChef.sol\":34164:34179  user.amount - i */\n      tag_319\n      swap2\n      swap1\n      tag_207\n      jump\t// in\n    tag_319:\n        /* \"contracts/Ghosper-NFT-Staking-MasterChef.sol\":34164:34183  user.amount - i - 1 */\n      tag_320\n      swap2\n      swap1\n      tag_207\n      jump\t// in\n    tag_320:\n        /* \"contracts/Ghosper-NFT-Staking-MasterChef.sol\":34129:34146  _ownedTokensIndex */\n      0x0a\n        /* \"contracts/Ghosper-NFT-Staking-MasterChef.sol\":34129:34159  _ownedTokensIndex[tokenIds[i]] */\n      0x00\n        /* \"contracts/Ghosper-NFT-Staking-MasterChef.sol\":34147:34155  tokenIds */\n      dup9\n      dup9\n        /* \"contracts/Ghosper-NFT-Staking-MasterChef.sol\":34156:34157  i */\n      dup6\n        /* \"contracts/Ghosper-NFT-Staking-MasterChef.sol\":34147:34158  tokenIds[i] */\n      dup2\n      dup2\n      lt\n      tag_321\n      jumpi\n      tag_322\n      tag_114\n      jump\t// in\n    tag_322:\n    tag_321:\n      swap1\n      pop\n      0x20\n      mul\n      add\n      calldataload\n        /* \"contracts/Ghosper-NFT-Staking-MasterChef.sol\":34129:34159  _ownedTokensIndex[tokenIds[i]] */\n      dup2\n      mstore\n      0x20\n      add\n      swap1\n      dup2\n      mstore\n      0x20\n      add\n      0x00\n      keccak256\n      sload\n        /* \"contracts/Ghosper-NFT-Staking-MasterChef.sol\":34129:34184  _ownedTokensIndex[tokenIds[i]] != (user.amount - i - 1) */\n      eq\n        /* \"contracts/Ghosper-NFT-Staking-MasterChef.sol\":34126:34446  if(_ownedTokensIndex[tokenIds[i]] != (user.amount - i - 1)){\r... */\n      tag_323\n      jumpi\n        /* \"contracts/Ghosper-NFT-Staking-MasterChef.sol\":34263:34275  _ownedTokens */\n      0x09\n        /* \"contracts/Ghosper-NFT-Staking-MasterChef.sol\":34263:34287  _ownedTokens[msg.sender] */\n      0x00\n        /* \"contracts/Ghosper-NFT-Staking-MasterChef.sol\":34276:34286  msg.sender */\n      caller\n        /* \"contracts/Ghosper-NFT-Staking-MasterChef.sol\":34263:34287  _ownedTokens[msg.sender] */\n      0xffffffffffffffffffffffffffffffffffffffff\n      and\n      0xffffffffffffffffffffffffffffffffffffffff\n      and\n      dup2\n      mstore\n      0x20\n      add\n      swap1\n      dup2\n      mstore\n      0x20\n      add\n      0x00\n      keccak256\n        /* \"contracts/Ghosper-NFT-Staking-MasterChef.sol\":34263:34310  _ownedTokens[msg.sender][(user.amount - i - 1)] */\n      0x00\n        /* \"contracts/Ghosper-NFT-Staking-MasterChef.sol\":34307:34308  1 */\n      0x01\n        /* \"contracts/Ghosper-NFT-Staking-MasterChef.sol\":34303:34304  i */\n      dup4\n        /* \"contracts/Ghosper-NFT-Staking-MasterChef.sol\":34289:34293  user */\n      dup8\n        /* \"contracts/Ghosper-NFT-Staking-MasterChef.sol\":34289:34300  user.amount */\n      0x00\n      add\n      sload\n        /* \"contracts/Ghosper-NFT-Staking-MasterChef.sol\":34289:34304  user.amount - i */\n      tag_324\n      swap2\n      swap1\n      tag_207\n      jump\t// in\n    tag_324:\n        /* \"contracts/Ghosper-NFT-Staking-MasterChef.sol\":34289:34308  user.amount - i - 1 */\n      tag_325\n      swap2\n      swap1\n      tag_207\n      jump\t// in\n    tag_325:\n        /* \"contracts/Ghosper-NFT-Staking-MasterChef.sol\":34263:34310  _ownedTokens[msg.sender][(user.amount - i - 1)] */\n      dup2\n      mstore\n      0x20\n      add\n      swap1\n      dup2\n      mstore\n      0x20\n      add\n      0x00\n      keccak256\n      sload\n        /* \"contracts/Ghosper-NFT-Staking-MasterChef.sol\":34204:34216  _ownedTokens */\n      0x09\n        /* \"contracts/Ghosper-NFT-Staking-MasterChef.sol\":34204:34228  _ownedTokens[msg.sender] */\n      0x00\n        /* \"contracts/Ghosper-NFT-Staking-MasterChef.sol\":34217:34227  msg.sender */\n      caller\n        /* \"contracts/Ghosper-NFT-Staking-MasterChef.sol\":34204:34228  _ownedTokens[msg.sender] */\n      0xffffffffffffffffffffffffffffffffffffffff\n      and\n      0xffffffffffffffffffffffffffffffffffffffff\n      and\n      dup2\n      mstore\n      0x20\n      add\n      swap1\n      dup2\n      mstore\n      0x20\n      add\n      0x00\n      keccak256\n        /* \"contracts/Ghosper-NFT-Staking-MasterChef.sol\":34204:34260  _ownedTokens[msg.sender][_ownedTokensIndex[tokenIds[i]]] */\n      0x00\n        /* \"contracts/Ghosper-NFT-Staking-MasterChef.sol\":34229:34246  _ownedTokensIndex */\n      0x0a\n        /* \"contracts/Ghosper-NFT-Staking-MasterChef.sol\":34229:34259  _ownedTokensIndex[tokenIds[i]] */\n      0x00\n        /* \"contracts/Ghosper-NFT-Staking-MasterChef.sol\":34247:34255  tokenIds */\n      dup11\n      dup11\n        /* \"contracts/Ghosper-NFT-Staking-MasterChef.sol\":34256:34257  i */\n      dup8\n        /* \"contracts/Ghosper-NFT-Staking-MasterChef.sol\":34247:34258  tokenIds[i] */\n      dup2\n      dup2\n      lt\n      tag_326\n      jumpi\n      tag_327\n      tag_114\n      jump\t// in\n    tag_327:\n    tag_326:\n      swap1\n      pop\n      0x20\n      mul\n      add\n      calldataload\n        /* \"contracts/Ghosper-NFT-Staking-MasterChef.sol\":34229:34259  _ownedTokensIndex[tokenIds[i]] */\n      dup2\n      mstore\n      0x20\n      add\n      swap1\n      dup2\n      mstore\n      0x20\n      add\n      0x00\n      keccak256\n      sload\n        /* \"contracts/Ghosper-NFT-Staking-MasterChef.sol\":34204:34260  _ownedTokens[msg.sender][_ownedTokensIndex[tokenIds[i]]] */\n      dup2\n      mstore\n      0x20\n      add\n      swap1\n      dup2\n      mstore\n      0x20\n      add\n      0x00\n      keccak256\n        /* \"contracts/Ghosper-NFT-Staking-MasterChef.sol\":34204:34310  _ownedTokens[msg.sender][_ownedTokensIndex[tokenIds[i]]] = _ownedTokens[msg.sender][(user.amount - i - 1)] */\n      dup2\n      swap1\n      sstore\n      pop\n        /* \"contracts/Ghosper-NFT-Staking-MasterChef.sol\":34399:34416  _ownedTokensIndex */\n      0x0a\n        /* \"contracts/Ghosper-NFT-Staking-MasterChef.sol\":34399:34429  _ownedTokensIndex[tokenIds[i]] */\n      0x00\n        /* \"contracts/Ghosper-NFT-Staking-MasterChef.sol\":34417:34425  tokenIds */\n      dup8\n      dup8\n        /* \"contracts/Ghosper-NFT-Staking-MasterChef.sol\":34426:34427  i */\n      dup5\n        /* \"contracts/Ghosper-NFT-Staking-MasterChef.sol\":34417:34428  tokenIds[i] */\n      dup2\n      dup2\n      lt\n      tag_328\n      jumpi\n      tag_329\n      tag_114\n      jump\t// in\n    tag_329:\n    tag_328:\n      swap1\n      pop\n      0x20\n      mul\n      add\n      calldataload\n        /* \"contracts/Ghosper-NFT-Staking-MasterChef.sol\":34399:34429  _ownedTokensIndex[tokenIds[i]] */\n      dup2\n      mstore\n      0x20\n      add\n      swap1\n      dup2\n      mstore\n      0x20\n      add\n      0x00\n      keccak256\n      sload\n        /* \"contracts/Ghosper-NFT-Staking-MasterChef.sol\":34330:34347  _ownedTokensIndex */\n      0x0a\n        /* \"contracts/Ghosper-NFT-Staking-MasterChef.sol\":34330:34396  _ownedTokensIndex[_ownedTokens[msg.sender][(user.amount - i - 1)]] */\n      0x00\n        /* \"contracts/Ghosper-NFT-Staking-MasterChef.sol\":34348:34360  _ownedTokens */\n      0x09\n        /* \"contracts/Ghosper-NFT-Staking-MasterChef.sol\":34348:34372  _ownedTokens[msg.sender] */\n      0x00\n        /* \"contracts/Ghosper-NFT-Staking-MasterChef.sol\":34361:34371  msg.sender */\n      caller\n        /* \"contracts/Ghosper-NFT-Staking-MasterChef.sol\":34348:34372  _ownedTokens[msg.sender] */\n      0xffffffffffffffffffffffffffffffffffffffff\n      and\n      0xffffffffffffffffffffffffffffffffffffffff\n      and\n      dup2\n      mstore\n      0x20\n      add\n      swap1\n      dup2\n      mstore\n      0x20\n      add\n      0x00\n      keccak256\n        /* \"contracts/Ghosper-NFT-Staking-MasterChef.sol\":34348:34395  _ownedTokens[msg.sender][(user.amount - i - 1)] */\n      0x00\n        /* \"contracts/Ghosper-NFT-Staking-MasterChef.sol\":34392:34393  1 */\n      0x01\n        /* \"contracts/Ghosper-NFT-Staking-MasterChef.sol\":34388:34389  i */\n      dup7\n        /* \"contracts/Ghosper-NFT-Staking-MasterChef.sol\":34374:34378  user */\n      dup11\n        /* \"contracts/Ghosper-NFT-Staking-MasterChef.sol\":34374:34385  user.amount */\n      0x00\n      add\n      sload\n        /* \"contracts/Ghosper-NFT-Staking-MasterChef.sol\":34374:34389  user.amount - i */\n      tag_330\n      swap2\n      swap1\n      tag_207\n      jump\t// in\n    tag_330:\n        /* \"contracts/Ghosper-NFT-Staking-MasterChef.sol\":34374:34393  user.amount - i - 1 */\n      tag_331\n      swap2\n      swap1\n      tag_207\n      jump\t// in\n    tag_331:\n        /* \"contracts/Ghosper-NFT-Staking-MasterChef.sol\":34348:34395  _ownedTokens[msg.sender][(user.amount - i - 1)] */\n      dup2\n      mstore\n      0x20\n      add\n      swap1\n      dup2\n      mstore\n      0x20\n      add\n      0x00\n      keccak256\n      sload\n        /* \"contracts/Ghosper-NFT-Staking-MasterChef.sol\":34330:34396  _ownedTokensIndex[_ownedTokens[msg.sender][(user.amount - i - 1)]] */\n      dup2\n      mstore\n      0x20\n      add\n      swap1\n      dup2\n      mstore\n      0x20\n      add\n      0x00\n      keccak256\n        /* \"contracts/Ghosper-NFT-Staking-MasterChef.sol\":34330:34429  _ownedTokensIndex[_ownedTokens[msg.sender][(user.amount - i - 1)]] = _ownedTokensIndex[tokenIds[i]] */\n      dup2\n      swap1\n      sstore\n      pop\n        /* \"contracts/Ghosper-NFT-Staking-MasterChef.sol\":34126:34446  if(_ownedTokensIndex[tokenIds[i]] != (user.amount - i - 1)){\r... */\n    tag_323:\n        /* \"contracts/Ghosper-NFT-Staking-MasterChef.sol\":34467:34484  _ownedTokensIndex */\n      0x0a\n        /* \"contracts/Ghosper-NFT-Staking-MasterChef.sol\":34467:34497  _ownedTokensIndex[tokenIds[i]] */\n      0x00\n        /* \"contracts/Ghosper-NFT-Staking-MasterChef.sol\":34485:34493  tokenIds */\n      dup8\n      dup8\n        /* \"contracts/Ghosper-NFT-Staking-MasterChef.sol\":34494:34495  i */\n      dup5\n        /* \"contracts/Ghosper-NFT-Staking-MasterChef.sol\":34485:34496  tokenIds[i] */\n      dup2\n      dup2\n      lt\n      tag_332\n      jumpi\n      tag_333\n      tag_114\n      jump\t// in\n    tag_333:\n    tag_332:\n      swap1\n      pop\n      0x20\n      mul\n      add\n      calldataload\n        /* \"contracts/Ghosper-NFT-Staking-MasterChef.sol\":34467:34497  _ownedTokensIndex[tokenIds[i]] */\n      dup2\n      mstore\n      0x20\n      add\n      swap1\n      dup2\n      mstore\n      0x20\n      add\n      0x00\n      keccak256\n        /* \"contracts/Ghosper-NFT-Staking-MasterChef.sol\":34460:34497  delete _ownedTokensIndex[tokenIds[i]] */\n      0x00\n      swap1\n      sstore\n        /* \"contracts/Ghosper-NFT-Staking-MasterChef.sol\":34519:34531  _ownedTokens */\n      0x09\n        /* \"contracts/Ghosper-NFT-Staking-MasterChef.sol\":34519:34543  _ownedTokens[msg.sender] */\n      0x00\n        /* \"contracts/Ghosper-NFT-Staking-MasterChef.sol\":34532:34542  msg.sender */\n      caller\n        /* \"contracts/Ghosper-NFT-Staking-MasterChef.sol\":34519:34543  _ownedTokens[msg.sender] */\n      0xffffffffffffffffffffffffffffffffffffffff\n      and\n      0xffffffffffffffffffffffffffffffffffffffff\n      and\n      dup2\n      mstore\n      0x20\n      add\n      swap1\n      dup2\n      mstore\n      0x20\n      add\n      0x00\n      keccak256\n        /* \"contracts/Ghosper-NFT-Staking-MasterChef.sol\":34519:34566  _ownedTokens[msg.sender][(user.amount - i - 1)] */\n      0x00\n        /* \"contracts/Ghosper-NFT-Staking-MasterChef.sol\":34563:34564  1 */\n      0x01\n        /* \"contracts/Ghosper-NFT-Staking-MasterChef.sol\":34559:34560  i */\n      dup4\n        /* \"contracts/Ghosper-NFT-Staking-MasterChef.sol\":34545:34549  user */\n      dup8\n        /* \"contracts/Ghosper-NFT-Staking-MasterChef.sol\":34545:34556  user.amount */\n      0x00\n      add\n      sload\n        /* \"contracts/Ghosper-NFT-Staking-MasterChef.sol\":34545:34560  user.amount - i */\n      tag_334\n      swap2\n      swap1\n      tag_207\n      jump\t// in\n    tag_334:\n        /* \"contracts/Ghosper-NFT-Staking-MasterChef.sol\":34545:34564  user.amount - i - 1 */\n      tag_335\n      swap2\n      swap1\n      tag_207\n      jump\t// in\n    tag_335:\n        /* \"contracts/Ghosper-NFT-Staking-MasterChef.sol\":34519:34566  _ownedTokens[msg.sender][(user.amount - i - 1)] */\n      dup2\n      mstore\n      0x20\n      add\n      swap1\n      dup2\n      mstore\n      0x20\n      add\n      0x00\n      keccak256\n        /* \"contracts/Ghosper-NFT-Staking-MasterChef.sol\":34512:34566  delete _ownedTokens[msg.sender][(user.amount - i - 1)] */\n      0x00\n      swap1\n      sstore\n        /* \"contracts/Ghosper-NFT-Staking-MasterChef.sol\":34581:34589  nftToken */\n      immutable(\"0xd3d302950f380d1a27df9dd44167cfb162563e31196f778e9cbde584eeb2b78c\")\n        /* \"contracts/Ghosper-NFT-Staking-MasterChef.sol\":34581:34602  nftToken.transferFrom */\n      0xffffffffffffffffffffffffffffffffffffffff\n      and\n      0x23b872dd\n        /* \"contracts/Ghosper-NFT-Staking-MasterChef.sol\":34611:34615  this */\n      address\n        /* \"contracts/Ghosper-NFT-Staking-MasterChef.sol\":34618:34628  msg.sender */\n      caller\n        /* \"contracts/Ghosper-NFT-Staking-MasterChef.sol\":34630:34638  tokenIds */\n      dup10\n      dup10\n        /* \"contracts/Ghosper-NFT-Staking-MasterChef.sol\":34639:34640  i */\n      dup7\n        /* \"contracts/Ghosper-NFT-Staking-MasterChef.sol\":34630:34641  tokenIds[i] */\n      dup2\n      dup2\n      lt\n      tag_336\n      jumpi\n      tag_337\n      tag_114\n      jump\t// in\n    tag_337:\n    tag_336:\n      swap1\n      pop\n      0x20\n      mul\n      add\n      calldataload\n        /* \"contracts/Ghosper-NFT-Staking-MasterChef.sol\":34581:34642  nftToken.transferFrom(address(this), msg.sender, tokenIds[i]) */\n      mload(0x40)\n      dup5\n      0xffffffff\n      and\n      0xe0\n      shl\n      dup2\n      mstore\n      0x04\n      add\n      tag_338\n      swap4\n      swap3\n      swap2\n      swap1\n      tag_168\n      jump\t// in\n    tag_338:\n      0x00\n      mload(0x40)\n      dup1\n      dup4\n      sub\n      dup2\n      0x00\n      dup8\n      dup1\n      extcodesize\n      iszero\n      dup1\n      iszero\n      tag_339\n      jumpi\n      0x00\n      dup1\n      revert\n    tag_339:\n      pop\n      gas\n      call\n      iszero\n      dup1\n      iszero\n      tag_341\n      jumpi\n      returndatasize\n      0x00\n      dup1\n      returndatacopy\n      revert(0x00, returndatasize)\n    tag_341:\n      pop\n      pop\n      pop\n      pop\n        /* \"contracts/Ghosper-NFT-Staking-MasterChef.sol\":34106:34110  i ++ */\n      dup1\n      dup1\n      tag_342\n      swap1\n      tag_142\n      jump\t// in\n    tag_342:\n      swap2\n      pop\n      pop\n        /* \"contracts/Ghosper-NFT-Staking-MasterChef.sol\":34070:34654  for(uint256 i = 0; i < tokenAmount; i ++){\r... */\n      jump(tag_316)\n    tag_317:\n      pop\n        /* \"contracts/Ghosper-NFT-Staking-MasterChef.sol\":34684:34718  totalStakedAmount.sub(tokenAmount) */\n      tag_343\n        /* \"contracts/Ghosper-NFT-Staking-MasterChef.sol\":34706:34717  tokenAmount */\n      dup2\n        /* \"contracts/Ghosper-NFT-Staking-MasterChef.sol\":34684:34701  totalStakedAmount */\n      sload(0x06)\n        /* \"contracts/Ghosper-NFT-Staking-MasterChef.sol\":34684:34705  totalStakedAmount.sub */\n      tag_152\n      swap1\n        /* \"contracts/Ghosper-NFT-Staking-MasterChef.sol\":34684:34718  totalStakedAmount.sub(tokenAmount) */\n      swap2\n      swap1\n      0xffffffff\n      and\n      jump\t// in\n    tag_343:\n        /* \"contracts/Ghosper-NFT-Staking-MasterChef.sol\":34664:34681  totalStakedAmount */\n      0x06\n        /* \"contracts/Ghosper-NFT-Staking-MasterChef.sol\":34664:34718  totalStakedAmount = totalStakedAmount.sub(tokenAmount) */\n      dup2\n      swap1\n      sstore\n      pop\n        /* \"contracts/Ghosper-NFT-Staking-MasterChef.sol\":34743:34771  user.amount.sub(tokenAmount) */\n      tag_344\n        /* \"contracts/Ghosper-NFT-Staking-MasterChef.sol\":34759:34770  tokenAmount */\n      dup2\n        /* \"contracts/Ghosper-NFT-Staking-MasterChef.sol\":34743:34747  user */\n      dup5\n        /* \"contracts/Ghosper-NFT-Staking-MasterChef.sol\":34743:34754  user.amount */\n      0x00\n      add\n      sload\n        /* \"contracts/Ghosper-NFT-Staking-MasterChef.sol\":34743:34758  user.amount.sub */\n      tag_152\n      swap1\n        /* \"contracts/Ghosper-NFT-Staking-MasterChef.sol\":34743:34771  user.amount.sub(tokenAmount) */\n      swap2\n      swap1\n      0xffffffff\n      and\n      jump\t// in\n    tag_344:\n        /* \"contracts/Ghosper-NFT-Staking-MasterChef.sol\":34729:34733  user */\n      dup4\n        /* \"contracts/Ghosper-NFT-Staking-MasterChef.sol\":34729:34740  user.amount */\n      0x00\n      add\n        /* \"contracts/Ghosper-NFT-Staking-MasterChef.sol\":34729:34771  user.amount = user.amount.sub(tokenAmount) */\n      dup2\n      swap1\n      sstore\n      pop\n        /* \"contracts/Ghosper-NFT-Staking-MasterChef.sol\":34800:34842  user.amount.mul(accGHSPPerShare).div(1e12) */\n      tag_345\n        /* \"contracts/Ghosper-NFT-Staking-MasterChef.sol\":34837:34841  1e12 */\n      0xe8d4a51000\n        /* \"contracts/Ghosper-NFT-Staking-MasterChef.sol\":34800:34832  user.amount.mul(accGHSPPerShare) */\n      tag_346\n        /* \"contracts/Ghosper-NFT-Staking-MasterChef.sol\":34816:34831  accGHSPPerShare */\n      sload(0x02)\n        /* \"contracts/Ghosper-NFT-Staking-MasterChef.sol\":34800:34804  user */\n      dup7\n        /* \"contracts/Ghosper-NFT-Staking-MasterChef.sol\":34800:34811  user.amount */\n      0x00\n      add\n      sload\n        /* \"contracts/Ghosper-NFT-Staking-MasterChef.sol\":34800:34815  user.amount.mul */\n      tag_150\n      swap1\n        /* \"contracts/Ghosper-NFT-Staking-MasterChef.sol\":34800:34832  user.amount.mul(accGHSPPerShare) */\n      swap2\n      swap1\n      0xffffffff\n      and\n      jump\t// in\n    tag_346:\n        /* \"contracts/Ghosper-NFT-Staking-MasterChef.sol\":34800:34836  user.amount.mul(accGHSPPerShare).div */\n      tag_151\n      swap1\n        /* \"contracts/Ghosper-NFT-Staking-MasterChef.sol\":34800:34842  user.amount.mul(accGHSPPerShare).div(1e12) */\n      swap2\n      swap1\n      0xffffffff\n      and\n      jump\t// in\n    tag_345:\n        /* \"contracts/Ghosper-NFT-Staking-MasterChef.sol\":34782:34786  user */\n      dup4\n        /* \"contracts/Ghosper-NFT-Staking-MasterChef.sol\":34782:34797  user.rewardDebt */\n      0x01\n      add\n        /* \"contracts/Ghosper-NFT-Staking-MasterChef.sol\":34782:34842  user.rewardDebt = user.amount.mul(accGHSPPerShare).div(1e12) */\n      dup2\n      swap1\n      sstore\n      pop\n        /* \"contracts/Ghosper-NFT-Staking-MasterChef.sol\":34858:34888  UnStaked(msg.sender, tokenIds) */\n      0x80cc10bf7e52583ae0a17d8dd6ab5005573b17a08091a091af1a81205a675c91\n        /* \"contracts/Ghosper-NFT-Staking-MasterChef.sol\":34867:34877  msg.sender */\n      caller\n        /* \"contracts/Ghosper-NFT-Staking-MasterChef.sol\":34879:34887  tokenIds */\n      dup7\n      dup7\n        /* \"contracts/Ghosper-NFT-Staking-MasterChef.sol\":34858:34888  UnStaked(msg.sender, tokenIds) */\n      mload(0x40)\n      tag_347\n      swap4\n      swap3\n      swap2\n      swap1\n      tag_177\n      jump\t// in\n    tag_347:\n      mload(0x40)\n      dup1\n      swap2\n      sub\n      swap1\n      log1\n        /* \"contracts/Ghosper-NFT-Staking-MasterChef.sol\":33203:34896  {\r... */\n      pop\n      pop\n      pop\n        /* \"contracts/Ghosper-NFT-Staking-MasterChef.sol\":33148:34896  function unstake(uint256[] calldata tokenIds) external {\r... */\n      pop\n      pop\n      jump\t// out\n        /* \"contracts/Ghosper-NFT-Staking-MasterChef.sol\":28435:28459  address public feeWallet */\n    tag_100:\n      0x04\n      0x00\n      swap1\n      sload\n      swap1\n      0x0100\n      exp\n      swap1\n      div\n      0xffffffffffffffffffffffffffffffffffffffff\n      and\n      dup2\n      jump\t// out\n        /* \"contracts/Ghosper-NFT-Staking-MasterChef.sol\":5820:6021  function transferOwnership(address newOwner) public virtual onlyOwner {\r... */\n    tag_104:\n        /* \"contracts/Ghosper-NFT-Staking-MasterChef.sol\":5142:5154  _msgSender() */\n      tag_349\n        /* \"contracts/Ghosper-NFT-Staking-MasterChef.sol\":5142:5152  _msgSender */\n      tag_180\n        /* \"contracts/Ghosper-NFT-Staking-MasterChef.sol\":5142:5154  _msgSender() */\n      jump\t// in\n    tag_349:\n        /* \"contracts/Ghosper-NFT-Staking-MasterChef.sol\":5131:5154  owner() == _msgSender() */\n      0xffffffffffffffffffffffffffffffffffffffff\n      and\n        /* \"contracts/Ghosper-NFT-Staking-MasterChef.sol\":5131:5138  owner() */\n      tag_350\n        /* \"contracts/Ghosper-NFT-Staking-MasterChef.sol\":5131:5136  owner */\n      tag_71\n        /* \"contracts/Ghosper-NFT-Staking-MasterChef.sol\":5131:5138  owner() */\n      jump\t// in\n    tag_350:\n        /* \"contracts/Ghosper-NFT-Staking-MasterChef.sol\":5131:5154  owner() == _msgSender() */\n      0xffffffffffffffffffffffffffffffffffffffff\n      and\n      eq\n        /* \"contracts/Ghosper-NFT-Staking-MasterChef.sol\":5123:5191  require(owner() == _msgSender(), \"Ownable: caller is not the owner\") */\n      tag_351\n      jumpi\n      mload(0x40)\n      0x08c379a000000000000000000000000000000000000000000000000000000000\n      dup2\n      mstore\n      0x04\n      add\n      tag_352\n      swap1\n      tag_184\n      jump\t// in\n    tag_352:\n      mload(0x40)\n      dup1\n      swap2\n      sub\n      swap1\n      revert\n    tag_351:\n        /* \"contracts/Ghosper-NFT-Staking-MasterChef.sol\":5929:5930  0 */\n      0x00\n        /* \"contracts/Ghosper-NFT-Staking-MasterChef.sol\":5909:5931  newOwner != address(0) */\n      0xffffffffffffffffffffffffffffffffffffffff\n      and\n        /* \"contracts/Ghosper-NFT-Staking-MasterChef.sol\":5909:5917  newOwner */\n      dup2\n        /* \"contracts/Ghosper-NFT-Staking-MasterChef.sol\":5909:5931  newOwner != address(0) */\n      0xffffffffffffffffffffffffffffffffffffffff\n      and\n      eq\n      iszero\n        /* \"contracts/Ghosper-NFT-Staking-MasterChef.sol\":5901:5974  require(newOwner != address(0), \"Ownable: new owner is the zero address\") */\n      tag_354\n      jumpi\n      mload(0x40)\n      0x08c379a000000000000000000000000000000000000000000000000000000000\n      dup2\n      mstore\n      0x04\n      add\n      tag_355\n      swap1\n      tag_356\n      jump\t// in\n    tag_355:\n      mload(0x40)\n      dup1\n      swap2\n      sub\n      swap1\n      revert\n    tag_354:\n        /* \"contracts/Ghosper-NFT-Staking-MasterChef.sol\":5985:6013  _transferOwnership(newOwner) */\n      tag_357\n        /* \"contracts/Ghosper-NFT-Staking-MasterChef.sol\":6004:6012  newOwner */\n      dup2\n        /* \"contracts/Ghosper-NFT-Staking-MasterChef.sol\":5985:6003  _transferOwnership */\n      tag_253\n        /* \"contracts/Ghosper-NFT-Staking-MasterChef.sol\":5985:6013  _transferOwnership(newOwner) */\n      jump\t// in\n    tag_357:\n        /* \"contracts/Ghosper-NFT-Staking-MasterChef.sol\":5820:6021  function transferOwnership(address newOwner) public virtual onlyOwner {\r... */\n      pop\n      jump\t// out\n        /* \"contracts/Ghosper-NFT-Staking-MasterChef.sol\":30751:31629  function updateStatus() private {\r... */\n    tag_145:\n        /* \"contracts/Ghosper-NFT-Staking-MasterChef.sol\":30814:30829  lastRewardBlock */\n      sload(0x01)\n        /* \"contracts/Ghosper-NFT-Staking-MasterChef.sol\":30798:30810  block.number */\n      number\n        /* \"contracts/Ghosper-NFT-Staking-MasterChef.sol\":30798:30829  block.number <= lastRewardBlock */\n      gt\n        /* \"contracts/Ghosper-NFT-Staking-MasterChef.sol\":30794:30864  if (block.number <= lastRewardBlock) {\r... */\n      tag_359\n      jumpi\n        /* \"contracts/Ghosper-NFT-Staking-MasterChef.sol\":30846:30853  return; */\n      jump(tag_358)\n        /* \"contracts/Ghosper-NFT-Staking-MasterChef.sol\":30794:30864  if (block.number <= lastRewardBlock) {\r... */\n    tag_359:\n        /* \"contracts/Ghosper-NFT-Staking-MasterChef.sol\":30899:30900  0 */\n      0x00\n        /* \"contracts/Ghosper-NFT-Staking-MasterChef.sol\":30878:30895  totalStakedAmount */\n      sload(0x06)\n        /* \"contracts/Ghosper-NFT-Staking-MasterChef.sol\":30878:30900  totalStakedAmount == 0 */\n      eq\n        /* \"contracts/Ghosper-NFT-Staking-MasterChef.sol\":30874:30980  if (totalStakedAmount == 0) {\r... */\n      iszero\n      tag_360\n      jumpi\n        /* \"contracts/Ghosper-NFT-Staking-MasterChef.sol\":30935:30947  block.number */\n      number\n        /* \"contracts/Ghosper-NFT-Staking-MasterChef.sol\":30917:30932  lastRewardBlock */\n      0x01\n        /* \"contracts/Ghosper-NFT-Staking-MasterChef.sol\":30917:30947  lastRewardBlock = block.number */\n      dup2\n      swap1\n      sstore\n      pop\n        /* \"contracts/Ghosper-NFT-Staking-MasterChef.sol\":30962:30969  return; */\n      jump(tag_358)\n        /* \"contracts/Ghosper-NFT-Staking-MasterChef.sol\":30874:30980  if (totalStakedAmount == 0) {\r... */\n    tag_360:\n        /* \"contracts/Ghosper-NFT-Staking-MasterChef.sol\":30990:31008  uint256 multiplier */\n      0x00\n        /* \"contracts/Ghosper-NFT-Staking-MasterChef.sol\":31011:31055  getMultiplier(lastRewardBlock, block.number) */\n      tag_361\n        /* \"contracts/Ghosper-NFT-Staking-MasterChef.sol\":31025:31040  lastRewardBlock */\n      sload(0x01)\n        /* \"contracts/Ghosper-NFT-Staking-MasterChef.sol\":31042:31054  block.number */\n      number\n        /* \"contracts/Ghosper-NFT-Staking-MasterChef.sol\":31011:31024  getMultiplier */\n      tag_77\n        /* \"contracts/Ghosper-NFT-Staking-MasterChef.sol\":31011:31055  getMultiplier(lastRewardBlock, block.number) */\n      jump\t// in\n    tag_361:\n        /* \"contracts/Ghosper-NFT-Staking-MasterChef.sol\":30990:31055  uint256 multiplier = getMultiplier(lastRewardBlock, block.number) */\n      swap1\n      pop\n        /* \"contracts/Ghosper-NFT-Staking-MasterChef.sol\":31066:31080  uint256 reward */\n      0x00\n        /* \"contracts/Ghosper-NFT-Staking-MasterChef.sol\":31083:31113  multiplier.mul(rewardPerBlock) */\n      tag_362\n        /* \"contracts/Ghosper-NFT-Staking-MasterChef.sol\":31098:31112  rewardPerBlock */\n      sload(0x03)\n        /* \"contracts/Ghosper-NFT-Staking-MasterChef.sol\":31083:31093  multiplier */\n      dup4\n        /* \"contracts/Ghosper-NFT-Staking-MasterChef.sol\":31083:31097  multiplier.mul */\n      tag_150\n      swap1\n        /* \"contracts/Ghosper-NFT-Staking-MasterChef.sol\":31083:31113  multiplier.mul(rewardPerBlock) */\n      swap2\n      swap1\n      0xffffffff\n      and\n      jump\t// in\n    tag_362:\n        /* \"contracts/Ghosper-NFT-Staking-MasterChef.sol\":31066:31113  uint256 reward = multiplier.mul(rewardPerBlock) */\n      swap1\n      pop\n        /* \"contracts/Ghosper-NFT-Staking-MasterChef.sol\":31146:31147  0 */\n      0x00\n        /* \"contracts/Ghosper-NFT-Staking-MasterChef.sol\":31128:31142  _rewardBalance */\n      sload(0x07)\n        /* \"contracts/Ghosper-NFT-Staking-MasterChef.sol\":31128:31147  _rewardBalance == 0 */\n      eq\n        /* \"contracts/Ghosper-NFT-Staking-MasterChef.sol\":31124:31227  if (_rewardBalance == 0) {\r... */\n      iszero\n      tag_363\n      jumpi\n        /* \"contracts/Ghosper-NFT-Staking-MasterChef.sol\":31182:31194  block.number */\n      number\n        /* \"contracts/Ghosper-NFT-Staking-MasterChef.sol\":31164:31179  lastRewardBlock */\n      0x01\n        /* \"contracts/Ghosper-NFT-Staking-MasterChef.sol\":31164:31194  lastRewardBlock = block.number */\n      dup2\n      swap1\n      sstore\n      pop\n        /* \"contracts/Ghosper-NFT-Staking-MasterChef.sol\":31209:31216  return; */\n      pop\n      pop\n      jump(tag_358)\n        /* \"contracts/Ghosper-NFT-Staking-MasterChef.sol\":31124:31227  if (_rewardBalance == 0) {\r... */\n    tag_363:\n        /* \"contracts/Ghosper-NFT-Staking-MasterChef.sol\":31258:31264  reward */\n      dup1\n        /* \"contracts/Ghosper-NFT-Staking-MasterChef.sol\":31241:31255  _rewardBalance */\n      sload(0x07)\n        /* \"contracts/Ghosper-NFT-Staking-MasterChef.sol\":31241:31264  _rewardBalance < reward */\n      lt\n        /* \"contracts/Ghosper-NFT-Staking-MasterChef.sol\":31237:31581  if (_rewardBalance < reward) {\r... */\n      iszero\n      tag_364\n      jumpi\n        /* \"contracts/Ghosper-NFT-Staking-MasterChef.sol\":31299:31367  accGHSPPerShare.add(_rewardBalance.mul(1e12).div(totalStakedAmount)) */\n      tag_365\n        /* \"contracts/Ghosper-NFT-Staking-MasterChef.sol\":31319:31366  _rewardBalance.mul(1e12).div(totalStakedAmount) */\n      tag_366\n        /* \"contracts/Ghosper-NFT-Staking-MasterChef.sol\":31348:31365  totalStakedAmount */\n      sload(0x06)\n        /* \"contracts/Ghosper-NFT-Staking-MasterChef.sol\":31319:31343  _rewardBalance.mul(1e12) */\n      tag_367\n        /* \"contracts/Ghosper-NFT-Staking-MasterChef.sol\":31338:31342  1e12 */\n      0xe8d4a51000\n        /* \"contracts/Ghosper-NFT-Staking-MasterChef.sol\":31319:31333  _rewardBalance */\n      sload(0x07)\n        /* \"contracts/Ghosper-NFT-Staking-MasterChef.sol\":31319:31337  _rewardBalance.mul */\n      tag_150\n      swap1\n        /* \"contracts/Ghosper-NFT-Staking-MasterChef.sol\":31319:31343  _rewardBalance.mul(1e12) */\n      swap2\n      swap1\n      0xffffffff\n      and\n      jump\t// in\n    tag_367:\n        /* \"contracts/Ghosper-NFT-Staking-MasterChef.sol\":31319:31347  _rewardBalance.mul(1e12).div */\n      tag_151\n      swap1\n        /* \"contracts/Ghosper-NFT-Staking-MasterChef.sol\":31319:31366  _rewardBalance.mul(1e12).div(totalStakedAmount) */\n      swap2\n      swap1\n      0xffffffff\n      and\n      jump\t// in\n    tag_366:\n        /* \"contracts/Ghosper-NFT-Staking-MasterChef.sol\":31299:31314  accGHSPPerShare */\n      sload(0x02)\n        /* \"contracts/Ghosper-NFT-Staking-MasterChef.sol\":31299:31318  accGHSPPerShare.add */\n      tag_154\n      swap1\n        /* \"contracts/Ghosper-NFT-Staking-MasterChef.sol\":31299:31367  accGHSPPerShare.add(_rewardBalance.mul(1e12).div(totalStakedAmount)) */\n      swap2\n      swap1\n      0xffffffff\n      and\n      jump\t// in\n    tag_365:\n        /* \"contracts/Ghosper-NFT-Staking-MasterChef.sol\":31281:31296  accGHSPPerShare */\n      0x02\n        /* \"contracts/Ghosper-NFT-Staking-MasterChef.sol\":31281:31367  accGHSPPerShare = accGHSPPerShare.add(_rewardBalance.mul(1e12).div(totalStakedAmount)) */\n      dup2\n      swap1\n      sstore\n      pop\n        /* \"contracts/Ghosper-NFT-Staking-MasterChef.sol\":31399:31400  0 */\n      0x00\n        /* \"contracts/Ghosper-NFT-Staking-MasterChef.sol\":31382:31396  _rewardBalance */\n      0x07\n        /* \"contracts/Ghosper-NFT-Staking-MasterChef.sol\":31382:31400  _rewardBalance = 0 */\n      dup2\n      swap1\n      sstore\n      pop\n        /* \"contracts/Ghosper-NFT-Staking-MasterChef.sol\":31237:31581  if (_rewardBalance < reward) {\r... */\n      jump(tag_368)\n    tag_364:\n        /* \"contracts/Ghosper-NFT-Staking-MasterChef.sol\":31450:31476  _rewardBalance.sub(reward) */\n      tag_369\n        /* \"contracts/Ghosper-NFT-Staking-MasterChef.sol\":31469:31475  reward */\n      dup2\n        /* \"contracts/Ghosper-NFT-Staking-MasterChef.sol\":31450:31464  _rewardBalance */\n      sload(0x07)\n        /* \"contracts/Ghosper-NFT-Staking-MasterChef.sol\":31450:31468  _rewardBalance.sub */\n      tag_152\n      swap1\n        /* \"contracts/Ghosper-NFT-Staking-MasterChef.sol\":31450:31476  _rewardBalance.sub(reward) */\n      swap2\n      swap1\n      0xffffffff\n      and\n      jump\t// in\n    tag_369:\n        /* \"contracts/Ghosper-NFT-Staking-MasterChef.sol\":31433:31447  _rewardBalance */\n      0x07\n        /* \"contracts/Ghosper-NFT-Staking-MasterChef.sol\":31433:31476  _rewardBalance = _rewardBalance.sub(reward) */\n      dup2\n      swap1\n      sstore\n      pop\n        /* \"contracts/Ghosper-NFT-Staking-MasterChef.sol\":31509:31569  accGHSPPerShare.add(reward.mul(1e12).div(totalStakedAmount)) */\n      tag_370\n        /* \"contracts/Ghosper-NFT-Staking-MasterChef.sol\":31529:31568  reward.mul(1e12).div(totalStakedAmount) */\n      tag_371\n        /* \"contracts/Ghosper-NFT-Staking-MasterChef.sol\":31550:31567  totalStakedAmount */\n      sload(0x06)\n        /* \"contracts/Ghosper-NFT-Staking-MasterChef.sol\":31529:31545  reward.mul(1e12) */\n      tag_372\n        /* \"contracts/Ghosper-NFT-Staking-MasterChef.sol\":31540:31544  1e12 */\n      0xe8d4a51000\n        /* \"contracts/Ghosper-NFT-Staking-MasterChef.sol\":31529:31535  reward */\n      dup6\n        /* \"contracts/Ghosper-NFT-Staking-MasterChef.sol\":31529:31539  reward.mul */\n      tag_150\n      swap1\n        /* \"contracts/Ghosper-NFT-Staking-MasterChef.sol\":31529:31545  reward.mul(1e12) */\n      swap2\n      swap1\n      0xffffffff\n      and\n      jump\t// in\n    tag_372:\n        /* \"contracts/Ghosper-NFT-Staking-MasterChef.sol\":31529:31549  reward.mul(1e12).div */\n      tag_151\n      swap1\n        /* \"contracts/Ghosper-NFT-Staking-MasterChef.sol\":31529:31568  reward.mul(1e12).div(totalStakedAmount) */\n      swap2\n      swap1\n      0xffffffff\n      and\n      jump\t// in\n    tag_371:\n        /* \"contracts/Ghosper-NFT-Staking-MasterChef.sol\":31509:31524  accGHSPPerShare */\n      sload(0x02)\n        /* \"contracts/Ghosper-NFT-Staking-MasterChef.sol\":31509:31528  accGHSPPerShare.add */\n      tag_154\n      swap1\n        /* \"contracts/Ghosper-NFT-Staking-MasterChef.sol\":31509:31569  accGHSPPerShare.add(reward.mul(1e12).div(totalStakedAmount)) */\n      swap2\n      swap1\n      0xffffffff\n      and\n      jump\t// in\n    tag_370:\n        /* \"contracts/Ghosper-NFT-Staking-MasterChef.sol\":31491:31506  accGHSPPerShare */\n      0x02\n        /* \"contracts/Ghosper-NFT-Staking-MasterChef.sol\":31491:31569  accGHSPPerShare = accGHSPPerShare.add(reward.mul(1e12).div(totalStakedAmount)) */\n      dup2\n      swap1\n      sstore\n      pop\n        /* \"contracts/Ghosper-NFT-Staking-MasterChef.sol\":31237:31581  if (_rewardBalance < reward) {\r... */\n    tag_368:\n        /* \"contracts/Ghosper-NFT-Staking-MasterChef.sol\":31609:31621  block.number */\n      number\n        /* \"contracts/Ghosper-NFT-Staking-MasterChef.sol\":31591:31606  lastRewardBlock */\n      0x01\n        /* \"contracts/Ghosper-NFT-Staking-MasterChef.sol\":31591:31621  lastRewardBlock = block.number */\n      dup2\n      swap1\n      sstore\n      pop\n        /* \"contracts/Ghosper-NFT-Staking-MasterChef.sol\":30783:31629  {\r... */\n      pop\n      pop\n        /* \"contracts/Ghosper-NFT-Staking-MasterChef.sol\":30751:31629  function updateStatus() private {\r... */\n    tag_358:\n      jump\t// out\n        /* \"contracts/Ghosper-NFT-Staking-MasterChef.sol\":9698:9796  function mul(uint256 a, uint256 b) internal pure returns (uint256) {\r... */\n    tag_150:\n        /* \"contracts/Ghosper-NFT-Staking-MasterChef.sol\":9756:9763  uint256 */\n      0x00\n        /* \"contracts/Ghosper-NFT-Staking-MasterChef.sol\":9787:9788  b */\n      dup2\n        /* \"contracts/Ghosper-NFT-Staking-MasterChef.sol\":9783:9784  a */\n      dup4\n        /* \"contracts/Ghosper-NFT-Staking-MasterChef.sol\":9783:9788  a * b */\n      tag_374\n      swap2\n      swap1\n      tag_375\n      jump\t// in\n    tag_374:\n        /* \"contracts/Ghosper-NFT-Staking-MasterChef.sol\":9776:9788  return a * b */\n      swap1\n      pop\n        /* \"contracts/Ghosper-NFT-Staking-MasterChef.sol\":9698:9796  function mul(uint256 a, uint256 b) internal pure returns (uint256) {\r... */\n      swap3\n      swap2\n      pop\n      pop\n      jump\t// out\n        /* \"contracts/Ghosper-NFT-Staking-MasterChef.sol\":10097:10195  function div(uint256 a, uint256 b) internal pure returns (uint256) {\r... */\n    tag_151:\n        /* \"contracts/Ghosper-NFT-Staking-MasterChef.sol\":10155:10162  uint256 */\n      0x00\n        /* \"contracts/Ghosper-NFT-Staking-MasterChef.sol\":10186:10187  b */\n      dup2\n        /* \"contracts/Ghosper-NFT-Staking-MasterChef.sol\":10182:10183  a */\n      dup4\n        /* \"contracts/Ghosper-NFT-Staking-MasterChef.sol\":10182:10187  a / b */\n      tag_377\n      swap2\n      swap1\n      tag_378\n      jump\t// in\n    tag_377:\n        /* \"contracts/Ghosper-NFT-Staking-MasterChef.sol\":10175:10187  return a / b */\n      swap1\n      pop\n        /* \"contracts/Ghosper-NFT-Staking-MasterChef.sol\":10097:10195  function div(uint256 a, uint256 b) internal pure returns (uint256) {\r... */\n      swap3\n      swap2\n      pop\n      pop\n      jump\t// out\n        /* \"contracts/Ghosper-NFT-Staking-MasterChef.sol\":9341:9439  function sub(uint256 a, uint256 b) internal pure returns (uint256) {\r... */\n    tag_152:\n        /* \"contracts/Ghosper-NFT-Staking-MasterChef.sol\":9399:9406  uint256 */\n      0x00\n        /* \"contracts/Ghosper-NFT-Staking-MasterChef.sol\":9430:9431  b */\n      dup2\n        /* \"contracts/Ghosper-NFT-Staking-MasterChef.sol\":9426:9427  a */\n      dup4\n        /* \"contracts/Ghosper-NFT-Staking-MasterChef.sol\":9426:9431  a - b */\n      tag_380\n      swap2\n      swap1\n      tag_207\n      jump\t// in\n    tag_380:\n        /* \"contracts/Ghosper-NFT-Staking-MasterChef.sol\":9419:9431  return a - b */\n      swap1\n      pop\n        /* \"contracts/Ghosper-NFT-Staking-MasterChef.sol\":9341:9439  function sub(uint256 a, uint256 b) internal pure returns (uint256) {\r... */\n      swap3\n      swap2\n      pop\n      pop\n      jump\t// out\n        /* \"contracts/Ghosper-NFT-Staking-MasterChef.sol\":8960:9058  function add(uint256 a, uint256 b) internal pure returns (uint256) {\r... */\n    tag_154:\n        /* \"contracts/Ghosper-NFT-Staking-MasterChef.sol\":9018:9025  uint256 */\n      0x00\n        /* \"contracts/Ghosper-NFT-Staking-MasterChef.sol\":9049:9050  b */\n      dup2\n        /* \"contracts/Ghosper-NFT-Staking-MasterChef.sol\":9045:9046  a */\n      dup4\n        /* \"contracts/Ghosper-NFT-Staking-MasterChef.sol\":9045:9050  a + b */\n      tag_382\n      swap2\n      swap1\n      tag_133\n      jump\t// in\n    tag_382:\n        /* \"contracts/Ghosper-NFT-Staking-MasterChef.sol\":9038:9050  return a + b */\n      swap1\n      pop\n        /* \"contracts/Ghosper-NFT-Staking-MasterChef.sol\":8960:9058  function add(uint256 a, uint256 b) internal pure returns (uint256) {\r... */\n      swap3\n      swap2\n      pop\n      pop\n      jump\t// out\n        /* \"contracts/Ghosper-NFT-Staking-MasterChef.sol\":3751:3849  function _msgSender() internal view virtual returns (address) {\r... */\n    tag_180:\n        /* \"contracts/Ghosper-NFT-Staking-MasterChef.sol\":3804:3811  address */\n      0x00\n        /* \"contracts/Ghosper-NFT-Staking-MasterChef.sol\":3831:3841  msg.sender */\n      caller\n        /* \"contracts/Ghosper-NFT-Staking-MasterChef.sol\":3824:3841  return msg.sender */\n      swap1\n      pop\n        /* \"contracts/Ghosper-NFT-Staking-MasterChef.sol\":3751:3849  function _msgSender() internal view virtual returns (address) {\r... */\n      swap1\n      jump\t// out\n        /* \"contracts/Ghosper-NFT-Staking-MasterChef.sol\":13429:13634  function safeTransferFrom(IBEP20 token, address from, address to, uint256 value) internal {\r... */\n    tag_187:\n        /* \"contracts/Ghosper-NFT-Staking-MasterChef.sol\":13530:13626  _callOptionalReturn(token, abi.encodeWithSelector(token.transferFrom.selector, from, to, value)) */\n      tag_385\n        /* \"contracts/Ghosper-NFT-Staking-MasterChef.sol\":13550:13555  token */\n      dup5\n        /* \"contracts/Ghosper-NFT-Staking-MasterChef.sol\":13580:13607  token.transferFrom.selector */\n      shl(0xe0, 0x23b872dd)\n        /* \"contracts/Ghosper-NFT-Staking-MasterChef.sol\":13609:13613  from */\n      dup6\n        /* \"contracts/Ghosper-NFT-Staking-MasterChef.sol\":13615:13617  to */\n      dup6\n        /* \"contracts/Ghosper-NFT-Staking-MasterChef.sol\":13619:13624  value */\n      dup6\n        /* \"contracts/Ghosper-NFT-Staking-MasterChef.sol\":13557:13625  abi.encodeWithSelector(token.transferFrom.selector, from, to, value) */\n      add(0x24, mload(0x40))\n      tag_386\n      swap4\n      swap3\n      swap2\n      swap1\n      tag_168\n      jump\t// in\n    tag_386:\n      mload(0x40)\n      0x20\n      dup2\n      dup4\n      sub\n      sub\n      dup2\n      mstore\n      swap1\n      0x40\n      mstore\n      swap1\n      not(0xffffffffffffffffffffffffffffffffffffffffffffffffffffffff)\n      and\n      0x20\n      dup3\n      add\n      dup1\n      mload\n      0xffffffffffffffffffffffffffffffffffffffffffffffffffffffff\n      dup4\n      dup2\n      dup4\n      and\n      or\n      dup4\n      mstore\n      pop\n      pop\n      pop\n      pop\n        /* \"contracts/Ghosper-NFT-Staking-MasterChef.sol\":13530:13549  _callOptionalReturn */\n      tag_387\n        /* \"contracts/Ghosper-NFT-Staking-MasterChef.sol\":13530:13626  _callOptionalReturn(token, abi.encodeWithSelector(token.transferFrom.selector, from, to, value)) */\n      jump\t// in\n    tag_385:\n        /* \"contracts/Ghosper-NFT-Staking-MasterChef.sol\":13429:13634  function safeTransferFrom(IBEP20 token, address from, address to, uint256 value) internal {\r... */\n      pop\n      pop\n      pop\n      pop\n      jump\t// out\n        /* \"contracts/Ghosper-NFT-Staking-MasterChef.sol\":35140:35693  function _getPending(address _user) private view returns (uint256) {\r... */\n    tag_203:\n        /* \"contracts/Ghosper-NFT-Staking-MasterChef.sol\":35198:35205  uint256 */\n      0x00\n        /* \"contracts/Ghosper-NFT-Staking-MasterChef.sol\":35218:35239  UserInfo storage user */\n      dup1\n        /* \"contracts/Ghosper-NFT-Staking-MasterChef.sol\":35242:35250  userInfo */\n      0x0b\n        /* \"contracts/Ghosper-NFT-Staking-MasterChef.sol\":35242:35257  userInfo[_user] */\n      0x00\n        /* \"contracts/Ghosper-NFT-Staking-MasterChef.sol\":35251:35256  _user */\n      dup5\n        /* \"contracts/Ghosper-NFT-Staking-MasterChef.sol\":35242:35257  userInfo[_user] */\n      0xffffffffffffffffffffffffffffffffffffffff\n      and\n      0xffffffffffffffffffffffffffffffffffffffff\n      and\n      dup2\n      mstore\n      0x20\n      add\n      swap1\n      dup2\n      mstore\n      0x20\n      add\n      0x00\n      keccak256\n        /* \"contracts/Ghosper-NFT-Staking-MasterChef.sol\":35218:35257  UserInfo storage user = userInfo[_user] */\n      swap1\n      pop\n        /* \"contracts/Ghosper-NFT-Staking-MasterChef.sol\":35268:35279  uint256 acc */\n      0x00\n        /* \"contracts/Ghosper-NFT-Staking-MasterChef.sol\":35282:35297  accGHSPPerShare */\n      sload(0x02)\n        /* \"contracts/Ghosper-NFT-Staking-MasterChef.sol\":35268:35297  uint256 acc = accGHSPPerShare */\n      swap1\n      pop\n        /* \"contracts/Ghosper-NFT-Staking-MasterChef.sol\":35327:35342  lastRewardBlock */\n      sload(0x01)\n        /* \"contracts/Ghosper-NFT-Staking-MasterChef.sol\":35312:35324  block.number */\n      number\n        /* \"contracts/Ghosper-NFT-Staking-MasterChef.sol\":35312:35342  block.number > lastRewardBlock */\n      gt\n        /* \"contracts/Ghosper-NFT-Staking-MasterChef.sol\":35312:35368  block.number > lastRewardBlock && totalStakedAmount != 0 */\n      dup1\n      iszero\n      tag_389\n      jumpi\n      pop\n        /* \"contracts/Ghosper-NFT-Staking-MasterChef.sol\":35367:35368  0 */\n      0x00\n        /* \"contracts/Ghosper-NFT-Staking-MasterChef.sol\":35346:35363  totalStakedAmount */\n      sload(0x06)\n        /* \"contracts/Ghosper-NFT-Staking-MasterChef.sol\":35346:35368  totalStakedAmount != 0 */\n      eq\n      iszero\n        /* \"contracts/Ghosper-NFT-Staking-MasterChef.sol\":35312:35368  block.number > lastRewardBlock && totalStakedAmount != 0 */\n    tag_389:\n        /* \"contracts/Ghosper-NFT-Staking-MasterChef.sol\":35308:35593  if (block.number > lastRewardBlock && totalStakedAmount != 0) {\r... */\n      iszero\n      tag_390\n      jumpi\n        /* \"contracts/Ghosper-NFT-Staking-MasterChef.sol\":35385:35403  uint256 multiplier */\n      0x00\n        /* \"contracts/Ghosper-NFT-Staking-MasterChef.sol\":35406:35450  getMultiplier(lastRewardBlock, block.number) */\n      tag_391\n        /* \"contracts/Ghosper-NFT-Staking-MasterChef.sol\":35420:35435  lastRewardBlock */\n      sload(0x01)\n        /* \"contracts/Ghosper-NFT-Staking-MasterChef.sol\":35437:35449  block.number */\n      number\n        /* \"contracts/Ghosper-NFT-Staking-MasterChef.sol\":35406:35419  getMultiplier */\n      tag_77\n        /* \"contracts/Ghosper-NFT-Staking-MasterChef.sol\":35406:35450  getMultiplier(lastRewardBlock, block.number) */\n      jump\t// in\n    tag_391:\n        /* \"contracts/Ghosper-NFT-Staking-MasterChef.sol\":35385:35450  uint256 multiplier = getMultiplier(lastRewardBlock, block.number) */\n      swap1\n      pop\n        /* \"contracts/Ghosper-NFT-Staking-MasterChef.sol\":35465:35479  uint256 reward */\n      0x00\n        /* \"contracts/Ghosper-NFT-Staking-MasterChef.sol\":35482:35512  multiplier.mul(rewardPerBlock) */\n      tag_392\n        /* \"contracts/Ghosper-NFT-Staking-MasterChef.sol\":35497:35511  rewardPerBlock */\n      sload(0x03)\n        /* \"contracts/Ghosper-NFT-Staking-MasterChef.sol\":35482:35492  multiplier */\n      dup4\n        /* \"contracts/Ghosper-NFT-Staking-MasterChef.sol\":35482:35496  multiplier.mul */\n      tag_150\n      swap1\n        /* \"contracts/Ghosper-NFT-Staking-MasterChef.sol\":35482:35512  multiplier.mul(rewardPerBlock) */\n      swap2\n      swap1\n      0xffffffff\n      and\n      jump\t// in\n    tag_392:\n        /* \"contracts/Ghosper-NFT-Staking-MasterChef.sol\":35465:35512  uint256 reward = multiplier.mul(rewardPerBlock) */\n      swap1\n      pop\n        /* \"contracts/Ghosper-NFT-Staking-MasterChef.sol\":35533:35581  acc.add(reward.mul(1e12).div(totalStakedAmount)) */\n      tag_393\n        /* \"contracts/Ghosper-NFT-Staking-MasterChef.sol\":35541:35580  reward.mul(1e12).div(totalStakedAmount) */\n      tag_394\n        /* \"contracts/Ghosper-NFT-Staking-MasterChef.sol\":35562:35579  totalStakedAmount */\n      sload(0x06)\n        /* \"contracts/Ghosper-NFT-Staking-MasterChef.sol\":35541:35557  reward.mul(1e12) */\n      tag_395\n        /* \"contracts/Ghosper-NFT-Staking-MasterChef.sol\":35552:35556  1e12 */\n      0xe8d4a51000\n        /* \"contracts/Ghosper-NFT-Staking-MasterChef.sol\":35541:35547  reward */\n      dup6\n        /* \"contracts/Ghosper-NFT-Staking-MasterChef.sol\":35541:35551  reward.mul */\n      tag_150\n      swap1\n        /* \"contracts/Ghosper-NFT-Staking-MasterChef.sol\":35541:35557  reward.mul(1e12) */\n      swap2\n      swap1\n      0xffffffff\n      and\n      jump\t// in\n    tag_395:\n        /* \"contracts/Ghosper-NFT-Staking-MasterChef.sol\":35541:35561  reward.mul(1e12).div */\n      tag_151\n      swap1\n        /* \"contracts/Ghosper-NFT-Staking-MasterChef.sol\":35541:35580  reward.mul(1e12).div(totalStakedAmount) */\n      swap2\n      swap1\n      0xffffffff\n      and\n      jump\t// in\n    tag_394:\n        /* \"contracts/Ghosper-NFT-Staking-MasterChef.sol\":35533:35536  acc */\n      dup5\n        /* \"contracts/Ghosper-NFT-Staking-MasterChef.sol\":35533:35540  acc.add */\n      tag_154\n      swap1\n        /* \"contracts/Ghosper-NFT-Staking-MasterChef.sol\":35533:35581  acc.add(reward.mul(1e12).div(totalStakedAmount)) */\n      swap2\n      swap1\n      0xffffffff\n      and\n      jump\t// in\n    tag_393:\n        /* \"contracts/Ghosper-NFT-Staking-MasterChef.sol\":35527:35581  acc = acc.add(reward.mul(1e12).div(totalStakedAmount)) */\n      swap3\n      pop\n        /* \"contracts/Ghosper-NFT-Staking-MasterChef.sol\":35370:35593  {\r... */\n      pop\n      pop\n        /* \"contracts/Ghosper-NFT-Staking-MasterChef.sol\":35308:35593  if (block.number > lastRewardBlock && totalStakedAmount != 0) {\r... */\n    tag_390:\n        /* \"contracts/Ghosper-NFT-Staking-MasterChef.sol\":35610:35685  user.amount.mul(acc).div(1e12).sub(user.rewardDebt).add(user.pendingAmount) */\n      tag_396\n        /* \"contracts/Ghosper-NFT-Staking-MasterChef.sol\":35666:35670  user */\n      dup3\n        /* \"contracts/Ghosper-NFT-Staking-MasterChef.sol\":35666:35684  user.pendingAmount */\n      0x02\n      add\n      sload\n        /* \"contracts/Ghosper-NFT-Staking-MasterChef.sol\":35610:35661  user.amount.mul(acc).div(1e12).sub(user.rewardDebt) */\n      tag_397\n        /* \"contracts/Ghosper-NFT-Staking-MasterChef.sol\":35645:35649  user */\n      dup5\n        /* \"contracts/Ghosper-NFT-Staking-MasterChef.sol\":35645:35660  user.rewardDebt */\n      0x01\n      add\n      sload\n        /* \"contracts/Ghosper-NFT-Staking-MasterChef.sol\":35610:35640  user.amount.mul(acc).div(1e12) */\n      tag_398\n        /* \"contracts/Ghosper-NFT-Staking-MasterChef.sol\":35635:35639  1e12 */\n      0xe8d4a51000\n        /* \"contracts/Ghosper-NFT-Staking-MasterChef.sol\":35610:35630  user.amount.mul(acc) */\n      tag_399\n        /* \"contracts/Ghosper-NFT-Staking-MasterChef.sol\":35626:35629  acc */\n      dup8\n        /* \"contracts/Ghosper-NFT-Staking-MasterChef.sol\":35610:35614  user */\n      dup10\n        /* \"contracts/Ghosper-NFT-Staking-MasterChef.sol\":35610:35621  user.amount */\n      0x00\n      add\n      sload\n        /* \"contracts/Ghosper-NFT-Staking-MasterChef.sol\":35610:35625  user.amount.mul */\n      tag_150\n      swap1\n        /* \"contracts/Ghosper-NFT-Staking-MasterChef.sol\":35610:35630  user.amount.mul(acc) */\n      swap2\n      swap1\n      0xffffffff\n      and\n      jump\t// in\n    tag_399:\n        /* \"contracts/Ghosper-NFT-Staking-MasterChef.sol\":35610:35634  user.amount.mul(acc).div */\n      tag_151\n      swap1\n        /* \"contracts/Ghosper-NFT-Staking-MasterChef.sol\":35610:35640  user.amount.mul(acc).div(1e12) */\n      swap2\n      swap1\n      0xffffffff\n      and\n      jump\t// in\n    tag_398:\n        /* \"contracts/Ghosper-NFT-Staking-MasterChef.sol\":35610:35644  user.amount.mul(acc).div(1e12).sub */\n      tag_152\n      swap1\n        /* \"contracts/Ghosper-NFT-Staking-MasterChef.sol\":35610:35661  user.amount.mul(acc).div(1e12).sub(user.rewardDebt) */\n      swap2\n      swap1\n      0xffffffff\n      and\n      jump\t// in\n    tag_397:\n        /* \"contracts/Ghosper-NFT-Staking-MasterChef.sol\":35610:35665  user.amount.mul(acc).div(1e12).sub(user.rewardDebt).add */\n      tag_154\n      swap1\n        /* \"contracts/Ghosper-NFT-Staking-MasterChef.sol\":35610:35685  user.amount.mul(acc).div(1e12).sub(user.rewardDebt).add(user.pendingAmount) */\n      swap2\n      swap1\n      0xffffffff\n      and\n      jump\t// in\n    tag_396:\n        /* \"contracts/Ghosper-NFT-Staking-MasterChef.sol\":35603:35685  return user.amount.mul(acc).div(1e12).sub(user.rewardDebt).add(user.pendingAmount) */\n      swap3\n      pop\n      pop\n      pop\n        /* \"contracts/Ghosper-NFT-Staking-MasterChef.sol\":35140:35693  function _getPending(address _user) private view returns (uint256) {\r... */\n      swap2\n      swap1\n      pop\n      jump\t// out\n        /* \"contracts/Ghosper-NFT-Staking-MasterChef.sol\":13244:13421  function safeTransfer(IBEP20 token, address to, uint256 value) internal {\r... */\n    tag_221:\n        /* \"contracts/Ghosper-NFT-Staking-MasterChef.sol\":13327:13413  _callOptionalReturn(token, abi.encodeWithSelector(token.transfer.selector, to, value)) */\n      tag_401\n        /* \"contracts/Ghosper-NFT-Staking-MasterChef.sol\":13347:13352  token */\n      dup4\n        /* \"contracts/Ghosper-NFT-Staking-MasterChef.sol\":13377:13400  token.transfer.selector */\n      shl(0xe0, 0xa9059cbb)\n        /* \"contracts/Ghosper-NFT-Staking-MasterChef.sol\":13402:13404  to */\n      dup5\n        /* \"contracts/Ghosper-NFT-Staking-MasterChef.sol\":13406:13411  value */\n      dup5\n        /* \"contracts/Ghosper-NFT-Staking-MasterChef.sol\":13354:13412  abi.encodeWithSelector(token.transfer.selector, to, value) */\n      add(0x24, mload(0x40))\n      tag_402\n      swap3\n      swap2\n      swap1\n      tag_403\n      jump\t// in\n    tag_402:\n      mload(0x40)\n      0x20\n      dup2\n      dup4\n      sub\n      sub\n      dup2\n      mstore\n      swap1\n      0x40\n      mstore\n      swap1\n      not(0xffffffffffffffffffffffffffffffffffffffffffffffffffffffff)\n      and\n      0x20\n      dup3\n      add\n      dup1\n      mload\n      0xffffffffffffffffffffffffffffffffffffffffffffffffffffffff\n      dup4\n      dup2\n      dup4\n      and\n      or\n      dup4\n      mstore\n      pop\n      pop\n      pop\n      pop\n        /* \"contracts/Ghosper-NFT-Staking-MasterChef.sol\":13327:13346  _callOptionalReturn */\n      tag_387\n        /* \"contracts/Ghosper-NFT-Staking-MasterChef.sol\":13327:13413  _callOptionalReturn(token, abi.encodeWithSelector(token.transfer.selector, to, value)) */\n      jump\t// in\n    tag_401:\n        /* \"contracts/Ghosper-NFT-Staking-MasterChef.sol\":13244:13421  function safeTransfer(IBEP20 token, address to, uint256 value) internal {\r... */\n      pop\n      pop\n      pop\n      jump\t// out\n        /* \"contracts/Ghosper-NFT-Staking-MasterChef.sol\":6181:6372  function _transferOwnership(address newOwner) internal virtual {\r... */\n    tag_253:\n        /* \"contracts/Ghosper-NFT-Staking-MasterChef.sol\":6255:6271  address oldOwner */\n      0x00\n        /* \"contracts/Ghosper-NFT-Staking-MasterChef.sol\":6274:6280  _owner */\n      dup1\n      0x00\n      swap1\n      sload\n      swap1\n      0x0100\n      exp\n      swap1\n      div\n      0xffffffffffffffffffffffffffffffffffffffff\n      and\n        /* \"contracts/Ghosper-NFT-Staking-MasterChef.sol\":6255:6280  address oldOwner = _owner */\n      swap1\n      pop\n        /* \"contracts/Ghosper-NFT-Staking-MasterChef.sol\":6300:6308  newOwner */\n      dup2\n        /* \"contracts/Ghosper-NFT-Staking-MasterChef.sol\":6291:6297  _owner */\n      0x00\n      dup1\n        /* \"contracts/Ghosper-NFT-Staking-MasterChef.sol\":6291:6308  _owner = newOwner */\n      0x0100\n      exp\n      dup2\n      sload\n      dup2\n      0xffffffffffffffffffffffffffffffffffffffff\n      mul\n      not\n      and\n      swap1\n      dup4\n      0xffffffffffffffffffffffffffffffffffffffff\n      and\n      mul\n      or\n      swap1\n      sstore\n      pop\n        /* \"contracts/Ghosper-NFT-Staking-MasterChef.sol\":6355:6363  newOwner */\n      dup2\n        /* \"contracts/Ghosper-NFT-Staking-MasterChef.sol\":6324:6364  OwnershipTransferred(oldOwner, newOwner) */\n      0xffffffffffffffffffffffffffffffffffffffff\n      and\n        /* \"contracts/Ghosper-NFT-Staking-MasterChef.sol\":6345:6353  oldOwner */\n      dup2\n        /* \"contracts/Ghosper-NFT-Staking-MasterChef.sol\":6324:6364  OwnershipTransferred(oldOwner, newOwner) */\n      0xffffffffffffffffffffffffffffffffffffffff\n      and\n      0x8be0079c531659141344cd1fd0a4f28419497f9722a3daafe3b4186f6b6457e0\n      mload(0x40)\n      mload(0x40)\n      dup1\n      swap2\n      sub\n      swap1\n      log3\n        /* \"contracts/Ghosper-NFT-Staking-MasterChef.sol\":6244:6372  {\r... */\n      pop\n        /* \"contracts/Ghosper-NFT-Staking-MasterChef.sol\":6181:6372  function _transferOwnership(address newOwner) internal virtual {\r... */\n      pop\n      jump\t// out\n        /* \"contracts/Ghosper-NFT-Staking-MasterChef.sol\":15549:16310  function _callOptionalReturn(IBEP20 token, bytes memory data) private {\r... */\n    tag_387:\n        /* \"contracts/Ghosper-NFT-Staking-MasterChef.sol\":15973:15996  bytes memory returndata */\n      0x00\n        /* \"contracts/Ghosper-NFT-Staking-MasterChef.sol\":15999:16068  address(token).functionCall(data, \"SafeBEP20: low-level call failed\") */\n      tag_406\n        /* \"contracts/Ghosper-NFT-Staking-MasterChef.sol\":16027:16031  data */\n      dup3\n        /* \"contracts/Ghosper-NFT-Staking-MasterChef.sol\":15999:16068  address(token).functionCall(data, \"SafeBEP20: low-level call failed\") */\n      mload(0x40)\n      dup1\n      0x40\n      add\n      0x40\n      mstore\n      dup1\n      0x20\n      dup2\n      mstore\n      0x20\n      add\n      0x5361666542455032303a206c6f772d6c6576656c2063616c6c206661696c6564\n      dup2\n      mstore\n      pop\n        /* \"contracts/Ghosper-NFT-Staking-MasterChef.sol\":16007:16012  token */\n      dup6\n        /* \"contracts/Ghosper-NFT-Staking-MasterChef.sol\":15999:16026  address(token).functionCall */\n      0xffffffffffffffffffffffffffffffffffffffff\n      and\n      tag_407\n      swap1\n        /* \"contracts/Ghosper-NFT-Staking-MasterChef.sol\":15999:16068  address(token).functionCall(data, \"SafeBEP20: low-level call failed\") */\n      swap3\n      swap2\n      swap1\n      0xffffffff\n      and\n      jump\t// in\n    tag_406:\n        /* \"contracts/Ghosper-NFT-Staking-MasterChef.sol\":15973:16068  bytes memory returndata = address(token).functionCall(data, \"SafeBEP20: low-level call failed\") */\n      swap1\n      pop\n        /* \"contracts/Ghosper-NFT-Staking-MasterChef.sol\":16103:16104  0 */\n      0x00\n        /* \"contracts/Ghosper-NFT-Staking-MasterChef.sol\":16083:16093  returndata */\n      dup2\n        /* \"contracts/Ghosper-NFT-Staking-MasterChef.sol\":16083:16100  returndata.length */\n      mload\n        /* \"contracts/Ghosper-NFT-Staking-MasterChef.sol\":16083:16104  returndata.length > 0 */\n      gt\n        /* \"contracts/Ghosper-NFT-Staking-MasterChef.sol\":16079:16303  if (returndata.length > 0) { // Return data is optional\r... */\n      iszero\n      tag_408\n      jumpi\n        /* \"contracts/Ghosper-NFT-Staking-MasterChef.sol\":16225:16235  returndata */\n      dup1\n        /* \"contracts/Ghosper-NFT-Staking-MasterChef.sol\":16214:16244  abi.decode(returndata, (bool)) */\n      dup1\n      0x20\n      add\n      swap1\n      mload\n      dup2\n      add\n      swap1\n      tag_409\n      swap2\n      swap1\n      tag_410\n      jump\t// in\n    tag_409:\n        /* \"contracts/Ghosper-NFT-Staking-MasterChef.sol\":16206:16291  require(abi.decode(returndata, (bool)), \"SafeBEP20: BEP20 operation did not succeed\") */\n      tag_411\n      jumpi\n      mload(0x40)\n      0x08c379a000000000000000000000000000000000000000000000000000000000\n      dup2\n      mstore\n      0x04\n      add\n      tag_412\n      swap1\n      tag_413\n      jump\t// in\n    tag_412:\n      mload(0x40)\n      dup1\n      swap2\n      sub\n      swap1\n      revert\n    tag_411:\n        /* \"contracts/Ghosper-NFT-Staking-MasterChef.sol\":16079:16303  if (returndata.length > 0) { // Return data is optional\r... */\n    tag_408:\n        /* \"contracts/Ghosper-NFT-Staking-MasterChef.sol\":15619:16310  {\r... */\n      pop\n        /* \"contracts/Ghosper-NFT-Staking-MasterChef.sol\":15549:16310  function _callOptionalReturn(IBEP20 token, bytes memory data) private {\r... */\n      pop\n      pop\n      jump\t// out\n        /* \"contracts/Ghosper-NFT-Staking-MasterChef.sol\":20069:20265  function functionCall(address target, bytes memory data, string memory errorMessage) internal returns (bytes memory) {\r... */\n    tag_407:\n        /* \"contracts/Ghosper-NFT-Staking-MasterChef.sol\":20172:20184  bytes memory */\n      0x60\n        /* \"contracts/Ghosper-NFT-Staking-MasterChef.sol\":20204:20257  _functionCallWithValue(target, data, 0, errorMessage) */\n      tag_415\n        /* \"contracts/Ghosper-NFT-Staking-MasterChef.sol\":20227:20233  target */\n      dup5\n        /* \"contracts/Ghosper-NFT-Staking-MasterChef.sol\":20235:20239  data */\n      dup5\n        /* \"contracts/Ghosper-NFT-Staking-MasterChef.sol\":20241:20242  0 */\n      0x00\n        /* \"contracts/Ghosper-NFT-Staking-MasterChef.sol\":20244:20256  errorMessage */\n      dup6\n        /* \"contracts/Ghosper-NFT-Staking-MasterChef.sol\":20204:20226  _functionCallWithValue */\n      tag_416\n        /* \"contracts/Ghosper-NFT-Staking-MasterChef.sol\":20204:20257  _functionCallWithValue(target, data, 0, errorMessage) */\n      jump\t// in\n    tag_415:\n        /* \"contracts/Ghosper-NFT-Staking-MasterChef.sol\":20197:20257  return _functionCallWithValue(target, data, 0, errorMessage) */\n      swap1\n      pop\n        /* \"contracts/Ghosper-NFT-Staking-MasterChef.sol\":20069:20265  function functionCall(address target, bytes memory data, string memory errorMessage) internal returns (bytes memory) {\r... */\n      swap4\n      swap3\n      pop\n      pop\n      pop\n      jump\t// out\n        /* \"contracts/Ghosper-NFT-Staking-MasterChef.sol\":21446:22425  function _functionCallWithValue(address target, bytes memory data, uint256 weiValue, string memory errorMessage) private returns (bytes memory) {\r... */\n    tag_416:\n        /* \"contracts/Ghosper-NFT-Staking-MasterChef.sol\":21576:21588  bytes memory */\n      0x60\n        /* \"contracts/Ghosper-NFT-Staking-MasterChef.sol\":21609:21627  isContract(target) */\n      tag_418\n        /* \"contracts/Ghosper-NFT-Staking-MasterChef.sol\":21620:21626  target */\n      dup6\n        /* \"contracts/Ghosper-NFT-Staking-MasterChef.sol\":21609:21619  isContract */\n      tag_419\n        /* \"contracts/Ghosper-NFT-Staking-MasterChef.sol\":21609:21627  isContract(target) */\n      jump\t// in\n    tag_418:\n        /* \"contracts/Ghosper-NFT-Staking-MasterChef.sol\":21601:21661  require(isContract(target), \"Address: call to non-contract\") */\n      tag_420\n      jumpi\n      mload(0x40)\n      0x08c379a000000000000000000000000000000000000000000000000000000000\n      dup2\n      mstore\n      0x04\n      add\n      tag_421\n      swap1\n      tag_422\n      jump\t// in\n    tag_421:\n      mload(0x40)\n      dup1\n      swap2\n      sub\n      swap1\n      revert\n    tag_420:\n        /* \"contracts/Ghosper-NFT-Staking-MasterChef.sol\":21735:21747  bool success */\n      0x00\n        /* \"contracts/Ghosper-NFT-Staking-MasterChef.sol\":21749:21772  bytes memory returndata */\n      dup1\n        /* \"contracts/Ghosper-NFT-Staking-MasterChef.sol\":21776:21782  target */\n      dup7\n        /* \"contracts/Ghosper-NFT-Staking-MasterChef.sol\":21776:21787  target.call */\n      0xffffffffffffffffffffffffffffffffffffffff\n      and\n        /* \"contracts/Ghosper-NFT-Staking-MasterChef.sol\":21796:21804  weiValue */\n      dup6\n        /* \"contracts/Ghosper-NFT-Staking-MasterChef.sol\":21807:21811  data */\n      dup8\n        /* \"contracts/Ghosper-NFT-Staking-MasterChef.sol\":21776:21812  target.call{ value: weiValue }(data) */\n      mload(0x40)\n      tag_423\n      swap2\n      swap1\n      tag_424\n      jump\t// in\n    tag_423:\n      0x00\n      mload(0x40)\n      dup1\n      dup4\n      sub\n      dup2\n      dup6\n      dup8\n      gas\n      call\n      swap3\n      pop\n      pop\n      pop\n      returndatasize\n      dup1\n      0x00\n      dup2\n      eq\n      tag_427\n      jumpi\n      mload(0x40)\n      swap2\n      pop\n      and(add(returndatasize, 0x3f), not(0x1f))\n      dup3\n      add\n      0x40\n      mstore\n      returndatasize\n      dup3\n      mstore\n      returndatasize\n      0x00\n      0x20\n      dup5\n      add\n      returndatacopy\n      jump(tag_426)\n    tag_427:\n      0x60\n      swap2\n      pop\n    tag_426:\n      pop\n        /* \"contracts/Ghosper-NFT-Staking-MasterChef.sol\":21734:21812  (bool success, bytes memory returndata) = target.call{ value: weiValue }(data) */\n      swap2\n      pop\n      swap2\n      pop\n        /* \"contracts/Ghosper-NFT-Staking-MasterChef.sol\":21827:21834  success */\n      dup2\n        /* \"contracts/Ghosper-NFT-Staking-MasterChef.sol\":21823:22418  if (success) {\r... */\n      iszero\n      tag_428\n      jumpi\n        /* \"contracts/Ghosper-NFT-Staking-MasterChef.sol\":21858:21868  returndata */\n      dup1\n        /* \"contracts/Ghosper-NFT-Staking-MasterChef.sol\":21851:21868  return returndata */\n      swap3\n      pop\n      pop\n      pop\n      jump(tag_417)\n        /* \"contracts/Ghosper-NFT-Staking-MasterChef.sol\":21823:22418  if (success) {\r... */\n    tag_428:\n        /* \"contracts/Ghosper-NFT-Staking-MasterChef.sol\":21992:21993  0 */\n      0x00\n        /* \"contracts/Ghosper-NFT-Staking-MasterChef.sol\":21972:21982  returndata */\n      dup2\n        /* \"contracts/Ghosper-NFT-Staking-MasterChef.sol\":21972:21989  returndata.length */\n      mload\n        /* \"contracts/Ghosper-NFT-Staking-MasterChef.sol\":21972:21993  returndata.length > 0 */\n      gt\n        /* \"contracts/Ghosper-NFT-Staking-MasterChef.sol\":21968:22407  if (returndata.length > 0) {\r... */\n      iszero\n      tag_430\n      jumpi\n        /* \"contracts/Ghosper-NFT-Staking-MasterChef.sol\":22235:22245  returndata */\n      dup1\n        /* \"contracts/Ghosper-NFT-Staking-MasterChef.sol\":22229:22246  mload(returndata) */\n      mload\n        /* \"contracts/Ghosper-NFT-Staking-MasterChef.sol\":22296:22311  returndata_size */\n      dup1\n        /* \"contracts/Ghosper-NFT-Staking-MasterChef.sol\":22283:22293  returndata */\n      dup3\n        /* \"contracts/Ghosper-NFT-Staking-MasterChef.sol\":22279:22281  32 */\n      0x20\n        /* \"contracts/Ghosper-NFT-Staking-MasterChef.sol\":22275:22294  add(32, returndata) */\n      add\n        /* \"contracts/Ghosper-NFT-Staking-MasterChef.sol\":22268:22312  revert(add(32, returndata), returndata_size) */\n      revert\n        /* \"contracts/Ghosper-NFT-Staking-MasterChef.sol\":21968:22407  if (returndata.length > 0) {\r... */\n    tag_430:\n        /* \"contracts/Ghosper-NFT-Staking-MasterChef.sol\":22378:22390  errorMessage */\n      dup4\n        /* \"contracts/Ghosper-NFT-Staking-MasterChef.sol\":22371:22391  revert(errorMessage) */\n      mload(0x40)\n      0x08c379a000000000000000000000000000000000000000000000000000000000\n      dup2\n      mstore\n      0x04\n      add\n      tag_432\n      swap2\n      swap1\n      tag_433\n      jump\t// in\n    tag_432:\n      mload(0x40)\n      dup1\n      swap2\n      sub\n      swap1\n      revert\n        /* \"contracts/Ghosper-NFT-Staking-MasterChef.sol\":21446:22425  function _functionCallWithValue(address target, bytes memory data, uint256 weiValue, string memory errorMessage) private returns (bytes memory) {\r... */\n    tag_417:\n      swap5\n      swap4\n      pop\n      pop\n      pop\n      pop\n      jump\t// out\n        /* \"contracts/Ghosper-NFT-Staking-MasterChef.sol\":16954:17573  function isContract(address account) internal view returns (bool) {\r... */\n    tag_419:\n        /* \"contracts/Ghosper-NFT-Staking-MasterChef.sol\":17014:17018  bool */\n      0x00\n        /* \"contracts/Ghosper-NFT-Staking-MasterChef.sol\":17276:17292  bytes32 codehash */\n      dup1\n        /* \"contracts/Ghosper-NFT-Staking-MasterChef.sol\":17303:17322  bytes32 accountHash */\n      0x00\n        /* \"contracts/Ghosper-NFT-Staking-MasterChef.sol\":17325:17391  0xc5d2460186f7233c927e7db2dcc703c0e500b653ca82273b7bfad8045d85a470 */\n      0xc5d2460186f7233c927e7db2dcc703c0e500b653ca82273b7bfad8045d85a470\n        /* \"contracts/Ghosper-NFT-Staking-MasterChef.sol\":17303:17391  bytes32 accountHash = 0xc5d2460186f7233c927e7db2dcc703c0e500b653ca82273b7bfad8045d85a470 */\n      0x00\n      shl\n      swap1\n      pop\n        /* \"contracts/Ghosper-NFT-Staking-MasterChef.sol\":17494:17501  account */\n      dup4\n        /* \"contracts/Ghosper-NFT-Staking-MasterChef.sol\":17482:17502  extcodehash(account) */\n      extcodehash\n        /* \"contracts/Ghosper-NFT-Staking-MasterChef.sol\":17470:17502  codehash := extcodehash(account) */\n      swap2\n      pop\n        /* \"contracts/Ghosper-NFT-Staking-MasterChef.sol\":17534:17545  accountHash */\n      dup1\n        /* \"contracts/Ghosper-NFT-Staking-MasterChef.sol\":17522:17530  codehash */\n      dup3\n        /* \"contracts/Ghosper-NFT-Staking-MasterChef.sol\":17522:17545  codehash != accountHash */\n      eq\n      iszero\n        /* \"contracts/Ghosper-NFT-Staking-MasterChef.sol\":17522:17564  codehash != accountHash && codehash != 0x0 */\n      dup1\n      iszero\n      tag_435\n      jumpi\n      pop\n        /* \"contracts/Ghosper-NFT-Staking-MasterChef.sol\":17561:17564  0x0 */\n      0x00\n        /* \"contracts/Ghosper-NFT-Staking-MasterChef.sol\":17549:17564  codehash != 0x0 */\n      dup1\n      shl\n        /* \"contracts/Ghosper-NFT-Staking-MasterChef.sol\":17549:17557  codehash */\n      dup3\n        /* \"contracts/Ghosper-NFT-Staking-MasterChef.sol\":17549:17564  codehash != 0x0 */\n      eq\n      iszero\n        /* \"contracts/Ghosper-NFT-Staking-MasterChef.sol\":17522:17564  codehash != accountHash && codehash != 0x0 */\n    tag_435:\n        /* \"contracts/Ghosper-NFT-Staking-MasterChef.sol\":17514:17565  return (codehash != accountHash && codehash != 0x0) */\n      swap3\n      pop\n      pop\n      pop\n        /* \"contracts/Ghosper-NFT-Staking-MasterChef.sol\":16954:17573  function isContract(address account) internal view returns (bool) {\r... */\n      swap2\n      swap1\n      pop\n      jump\t// out\n        /* \"#utility.yul\":7:146   */\n    tag_437:\n        /* \"#utility.yul\":53:58   */\n      0x00\n        /* \"#utility.yul\":91:97   */\n      dup2\n        /* \"#utility.yul\":78:98   */\n      calldataload\n        /* \"#utility.yul\":69:98   */\n      swap1\n      pop\n        /* \"#utility.yul\":107:140   */\n      tag_439\n        /* \"#utility.yul\":134:139   */\n      dup2\n        /* \"#utility.yul\":107:140   */\n      tag_440\n      jump\t// in\n    tag_439:\n        /* \"#utility.yul\":7:146   */\n      swap3\n      swap2\n      pop\n      pop\n      jump\t// out\n        /* \"#utility.yul\":152:295   */\n    tag_441:\n        /* \"#utility.yul\":209:214   */\n      0x00\n        /* \"#utility.yul\":240:246   */\n      dup2\n        /* \"#utility.yul\":234:247   */\n      mload\n        /* \"#utility.yul\":225:247   */\n      swap1\n      pop\n        /* \"#utility.yul\":256:289   */\n      tag_443\n        /* \"#utility.yul\":283:288   */\n      dup2\n        /* \"#utility.yul\":256:289   */\n      tag_440\n      jump\t// in\n    tag_443:\n        /* \"#utility.yul\":152:295   */\n      swap3\n      swap2\n      pop\n      pop\n      jump\t// out\n        /* \"#utility.yul\":318:886   */\n    tag_444:\n        /* \"#utility.yul\":391:399   */\n      0x00\n        /* \"#utility.yul\":401:407   */\n      dup1\n        /* \"#utility.yul\":451:454   */\n      dup4\n        /* \"#utility.yul\":444:448   */\n      0x1f\n        /* \"#utility.yul\":436:442   */\n      dup5\n        /* \"#utility.yul\":432:449   */\n      add\n        /* \"#utility.yul\":428:455   */\n      slt\n        /* \"#utility.yul\":418:540   */\n      tag_446\n      jumpi\n        /* \"#utility.yul\":459:538   */\n      tag_447\n      tag_448\n      jump\t// in\n    tag_447:\n        /* \"#utility.yul\":418:540   */\n    tag_446:\n        /* \"#utility.yul\":572:578   */\n      dup3\n        /* \"#utility.yul\":559:579   */\n      calldataload\n        /* \"#utility.yul\":549:579   */\n      swap1\n      pop\n        /* \"#utility.yul\":602:620   */\n      0xffffffffffffffff\n        /* \"#utility.yul\":594:600   */\n      dup2\n        /* \"#utility.yul\":591:621   */\n      gt\n        /* \"#utility.yul\":588:705   */\n      iszero\n      tag_449\n      jumpi\n        /* \"#utility.yul\":624:703   */\n      tag_450\n      tag_451\n      jump\t// in\n    tag_450:\n        /* \"#utility.yul\":588:705   */\n    tag_449:\n        /* \"#utility.yul\":738:742   */\n      0x20\n        /* \"#utility.yul\":730:736   */\n      dup4\n        /* \"#utility.yul\":726:743   */\n      add\n        /* \"#utility.yul\":714:743   */\n      swap2\n      pop\n        /* \"#utility.yul\":792:795   */\n      dup4\n        /* \"#utility.yul\":784:788   */\n      0x20\n        /* \"#utility.yul\":776:782   */\n      dup3\n        /* \"#utility.yul\":772:789   */\n      mul\n        /* \"#utility.yul\":762:770   */\n      dup4\n        /* \"#utility.yul\":758:790   */\n      add\n        /* \"#utility.yul\":755:796   */\n      gt\n        /* \"#utility.yul\":752:880   */\n      iszero\n      tag_452\n      jumpi\n        /* \"#utility.yul\":799:878   */\n      tag_453\n      tag_454\n      jump\t// in\n    tag_453:\n        /* \"#utility.yul\":752:880   */\n    tag_452:\n        /* \"#utility.yul\":318:886   */\n      swap3\n      pop\n      swap3\n      swap1\n      pop\n      jump\t// out\n        /* \"#utility.yul\":892:1029   */\n    tag_455:\n        /* \"#utility.yul\":946:951   */\n      0x00\n        /* \"#utility.yul\":977:983   */\n      dup2\n        /* \"#utility.yul\":971:984   */\n      mload\n        /* \"#utility.yul\":962:984   */\n      swap1\n      pop\n        /* \"#utility.yul\":993:1023   */\n      tag_457\n        /* \"#utility.yul\":1017:1022   */\n      dup2\n        /* \"#utility.yul\":993:1023   */\n      tag_458\n      jump\t// in\n    tag_457:\n        /* \"#utility.yul\":892:1029   */\n      swap3\n      swap2\n      pop\n      pop\n      jump\t// out\n        /* \"#utility.yul\":1035:1174   */\n    tag_459:\n        /* \"#utility.yul\":1081:1086   */\n      0x00\n        /* \"#utility.yul\":1119:1125   */\n      dup2\n        /* \"#utility.yul\":1106:1126   */\n      calldataload\n        /* \"#utility.yul\":1097:1126   */\n      swap1\n      pop\n        /* \"#utility.yul\":1135:1168   */\n      tag_461\n        /* \"#utility.yul\":1162:1167   */\n      dup2\n        /* \"#utility.yul\":1135:1168   */\n      tag_462\n      jump\t// in\n    tag_461:\n        /* \"#utility.yul\":1035:1174   */\n      swap3\n      swap2\n      pop\n      pop\n      jump\t// out\n        /* \"#utility.yul\":1180:1323   */\n    tag_463:\n        /* \"#utility.yul\":1237:1242   */\n      0x00\n        /* \"#utility.yul\":1268:1274   */\n      dup2\n        /* \"#utility.yul\":1262:1275   */\n      mload\n        /* \"#utility.yul\":1253:1275   */\n      swap1\n      pop\n        /* \"#utility.yul\":1284:1317   */\n      tag_465\n        /* \"#utility.yul\":1311:1316   */\n      dup2\n        /* \"#utility.yul\":1284:1317   */\n      tag_462\n      jump\t// in\n    tag_465:\n        /* \"#utility.yul\":1180:1323   */\n      swap3\n      swap2\n      pop\n      pop\n      jump\t// out\n        /* \"#utility.yul\":1329:1658   */\n    tag_34:\n        /* \"#utility.yul\":1388:1394   */\n      0x00\n        /* \"#utility.yul\":1437:1439   */\n      0x20\n        /* \"#utility.yul\":1425:1434   */\n      dup3\n        /* \"#utility.yul\":1416:1423   */\n      dup5\n        /* \"#utility.yul\":1412:1435   */\n      sub\n        /* \"#utility.yul\":1408:1440   */\n      slt\n        /* \"#utility.yul\":1405:1524   */\n      iszero\n      tag_467\n      jumpi\n        /* \"#utility.yul\":1443:1522   */\n      tag_468\n      tag_469\n      jump\t// in\n    tag_468:\n        /* \"#utility.yul\":1405:1524   */\n    tag_467:\n        /* \"#utility.yul\":1563:1564   */\n      0x00\n        /* \"#utility.yul\":1588:1641   */\n      tag_470\n        /* \"#utility.yul\":1633:1640   */\n      dup5\n        /* \"#utility.yul\":1624:1630   */\n      dup3\n        /* \"#utility.yul\":1613:1622   */\n      dup6\n        /* \"#utility.yul\":1609:1631   */\n      add\n        /* \"#utility.yul\":1588:1641   */\n      tag_437\n      jump\t// in\n    tag_470:\n        /* \"#utility.yul\":1578:1641   */\n      swap2\n      pop\n        /* \"#utility.yul\":1534:1651   */\n      pop\n        /* \"#utility.yul\":1329:1658   */\n      swap3\n      swap2\n      pop\n      pop\n      jump\t// out\n        /* \"#utility.yul\":1664:2015   */\n    tag_120:\n        /* \"#utility.yul\":1734:1740   */\n      0x00\n        /* \"#utility.yul\":1783:1785   */\n      0x20\n        /* \"#utility.yul\":1771:1780   */\n      dup3\n        /* \"#utility.yul\":1762:1769   */\n      dup5\n        /* \"#utility.yul\":1758:1781   */\n      sub\n        /* \"#utility.yul\":1754:1786   */\n      slt\n        /* \"#utility.yul\":1751:1870   */\n      iszero\n      tag_472\n      jumpi\n        /* \"#utility.yul\":1789:1868   */\n      tag_473\n      tag_469\n      jump\t// in\n    tag_473:\n        /* \"#utility.yul\":1751:1870   */\n    tag_472:\n        /* \"#utility.yul\":1909:1910   */\n      0x00\n        /* \"#utility.yul\":1934:1998   */\n      tag_474\n        /* \"#utility.yul\":1990:1997   */\n      dup5\n        /* \"#utility.yul\":1981:1987   */\n      dup3\n        /* \"#utility.yul\":1970:1979   */\n      dup6\n        /* \"#utility.yul\":1966:1988   */\n      add\n        /* \"#utility.yul\":1934:1998   */\n      tag_441\n      jump\t// in\n    tag_474:\n        /* \"#utility.yul\":1924:1998   */\n      swap2\n      pop\n        /* \"#utility.yul\":1880:2008   */\n      pop\n        /* \"#utility.yul\":1664:2015   */\n      swap3\n      swap2\n      pop\n      pop\n      jump\t// out\n        /* \"#utility.yul\":2021:2580   */\n    tag_30:\n        /* \"#utility.yul\":2107:2113   */\n      0x00\n        /* \"#utility.yul\":2115:2121   */\n      dup1\n        /* \"#utility.yul\":2164:2166   */\n      0x20\n        /* \"#utility.yul\":2152:2161   */\n      dup4\n        /* \"#utility.yul\":2143:2150   */\n      dup6\n        /* \"#utility.yul\":2139:2162   */\n      sub\n        /* \"#utility.yul\":2135:2167   */\n      slt\n        /* \"#utility.yul\":2132:2251   */\n      iszero\n      tag_476\n      jumpi\n        /* \"#utility.yul\":2170:2249   */\n      tag_477\n      tag_469\n      jump\t// in\n    tag_477:\n        /* \"#utility.yul\":2132:2251   */\n    tag_476:\n        /* \"#utility.yul\":2318:2319   */\n      0x00\n        /* \"#utility.yul\":2307:2316   */\n      dup4\n        /* \"#utility.yul\":2303:2320   */\n      add\n        /* \"#utility.yul\":2290:2321   */\n      calldataload\n        /* \"#utility.yul\":2348:2366   */\n      0xffffffffffffffff\n        /* \"#utility.yul\":2340:2346   */\n      dup2\n        /* \"#utility.yul\":2337:2367   */\n      gt\n        /* \"#utility.yul\":2334:2451   */\n      iszero\n      tag_478\n      jumpi\n        /* \"#utility.yul\":2370:2449   */\n      tag_479\n      tag_480\n      jump\t// in\n    tag_479:\n        /* \"#utility.yul\":2334:2451   */\n    tag_478:\n        /* \"#utility.yul\":2483:2563   */\n      tag_481\n        /* \"#utility.yul\":2555:2562   */\n      dup6\n        /* \"#utility.yul\":2546:2552   */\n      dup3\n        /* \"#utility.yul\":2535:2544   */\n      dup7\n        /* \"#utility.yul\":2531:2553   */\n      add\n        /* \"#utility.yul\":2483:2563   */\n      tag_444\n      jump\t// in\n    tag_481:\n        /* \"#utility.yul\":2465:2563   */\n      swap3\n      pop\n      swap3\n      pop\n        /* \"#utility.yul\":2261:2573   */\n      pop\n        /* \"#utility.yul\":2021:2580   */\n      swap3\n      pop\n      swap3\n      swap1\n      pop\n      jump\t// out\n        /* \"#utility.yul\":2586:2931   */\n    tag_410:\n        /* \"#utility.yul\":2653:2659   */\n      0x00\n        /* \"#utility.yul\":2702:2704   */\n      0x20\n        /* \"#utility.yul\":2690:2699   */\n      dup3\n        /* \"#utility.yul\":2681:2688   */\n      dup5\n        /* \"#utility.yul\":2677:2700   */\n      sub\n        /* \"#utility.yul\":2673:2705   */\n      slt\n        /* \"#utility.yul\":2670:2789   */\n      iszero\n      tag_483\n      jumpi\n        /* \"#utility.yul\":2708:2787   */\n      tag_484\n      tag_469\n      jump\t// in\n    tag_484:\n        /* \"#utility.yul\":2670:2789   */\n    tag_483:\n        /* \"#utility.yul\":2828:2829   */\n      0x00\n        /* \"#utility.yul\":2853:2914   */\n      tag_485\n        /* \"#utility.yul\":2906:2913   */\n      dup5\n        /* \"#utility.yul\":2897:2903   */\n      dup3\n        /* \"#utility.yul\":2886:2895   */\n      dup6\n        /* \"#utility.yul\":2882:2904   */\n      add\n        /* \"#utility.yul\":2853:2914   */\n      tag_455\n      jump\t// in\n    tag_485:\n        /* \"#utility.yul\":2843:2914   */\n      swap2\n      pop\n        /* \"#utility.yul\":2799:2924   */\n      pop\n        /* \"#utility.yul\":2586:2931   */\n      swap3\n      swap2\n      pop\n      pop\n      jump\t// out\n        /* \"#utility.yul\":2937:3266   */\n    tag_44:\n        /* \"#utility.yul\":2996:3002   */\n      0x00\n        /* \"#utility.yul\":3045:3047   */\n      0x20\n        /* \"#utility.yul\":3033:3042   */\n      dup3\n        /* \"#utility.yul\":3024:3031   */\n      dup5\n        /* \"#utility.yul\":3020:3043   */\n      sub\n        /* \"#utility.yul\":3016:3048   */\n      slt\n        /* \"#utility.yul\":3013:3132   */\n      iszero\n      tag_487\n      jumpi\n        /* \"#utility.yul\":3051:3130   */\n      tag_488\n      tag_469\n      jump\t// in\n    tag_488:\n        /* \"#utility.yul\":3013:3132   */\n    tag_487:\n        /* \"#utility.yul\":3171:3172   */\n      0x00\n        /* \"#utility.yul\":3196:3249   */\n      tag_489\n        /* \"#utility.yul\":3241:3248   */\n      dup5\n        /* \"#utility.yul\":3232:3238   */\n      dup3\n        /* \"#utility.yul\":3221:3230   */\n      dup6\n        /* \"#utility.yul\":3217:3239   */\n      add\n        /* \"#utility.yul\":3196:3249   */\n      tag_459\n      jump\t// in\n    tag_489:\n        /* \"#utility.yul\":3186:3249   */\n      swap2\n      pop\n        /* \"#utility.yul\":3142:3259   */\n      pop\n        /* \"#utility.yul\":2937:3266   */\n      swap3\n      swap2\n      pop\n      pop\n      jump\t// out\n        /* \"#utility.yul\":3272:3623   */\n    tag_213:\n        /* \"#utility.yul\":3342:3348   */\n      0x00\n        /* \"#utility.yul\":3391:3393   */\n      0x20\n        /* \"#utility.yul\":3379:3388   */\n      dup3\n        /* \"#utility.yul\":3370:3377   */\n      dup5\n        /* \"#utility.yul\":3366:3389   */\n      sub\n        /* \"#utility.yul\":3362:3394   */\n      slt\n        /* \"#utility.yul\":3359:3478   */\n      iszero\n      tag_491\n      jumpi\n        /* \"#utility.yul\":3397:3476   */\n      tag_492\n      tag_469\n      jump\t// in\n    tag_492:\n        /* \"#utility.yul\":3359:3478   */\n    tag_491:\n        /* \"#utility.yul\":3517:3518   */\n      0x00\n        /* \"#utility.yul\":3542:3606   */\n      tag_493\n        /* \"#utility.yul\":3598:3605   */\n      dup5\n        /* \"#utility.yul\":3589:3595   */\n      dup3\n        /* \"#utility.yul\":3578:3587   */\n      dup6\n        /* \"#utility.yul\":3574:3596   */\n      add\n        /* \"#utility.yul\":3542:3606   */\n      tag_463\n      jump\t// in\n    tag_493:\n        /* \"#utility.yul\":3532:3606   */\n      swap2\n      pop\n        /* \"#utility.yul\":3488:3616   */\n      pop\n        /* \"#utility.yul\":3272:3623   */\n      swap3\n      swap2\n      pop\n      pop\n      jump\t// out\n        /* \"#utility.yul\":3629:4103   */\n    tag_76:\n        /* \"#utility.yul\":3697:3703   */\n      0x00\n        /* \"#utility.yul\":3705:3711   */\n      dup1\n        /* \"#utility.yul\":3754:3756   */\n      0x40\n        /* \"#utility.yul\":3742:3751   */\n      dup4\n        /* \"#utility.yul\":3733:3740   */\n      dup6\n        /* \"#utility.yul\":3729:3752   */\n      sub\n        /* \"#utility.yul\":3725:3757   */\n      slt\n        /* \"#utility.yul\":3722:3841   */\n      iszero\n      tag_495\n      jumpi\n        /* \"#utility.yul\":3760:3839   */\n      tag_496\n      tag_469\n      jump\t// in\n    tag_496:\n        /* \"#utility.yul\":3722:3841   */\n    tag_495:\n        /* \"#utility.yul\":3880:3881   */\n      0x00\n        /* \"#utility.yul\":3905:3958   */\n      tag_497\n        /* \"#utility.yul\":3950:3957   */\n      dup6\n        /* \"#utility.yul\":3941:3947   */\n      dup3\n        /* \"#utility.yul\":3930:3939   */\n      dup7\n        /* \"#utility.yul\":3926:3948   */\n      add\n        /* \"#utility.yul\":3905:3958   */\n      tag_459\n      jump\t// in\n    tag_497:\n        /* \"#utility.yul\":3895:3958   */\n      swap3\n      pop\n        /* \"#utility.yul\":3851:3968   */\n      pop\n        /* \"#utility.yul\":4007:4009   */\n      0x20\n        /* \"#utility.yul\":4033:4086   */\n      tag_498\n        /* \"#utility.yul\":4078:4085   */\n      dup6\n        /* \"#utility.yul\":4069:4075   */\n      dup3\n        /* \"#utility.yul\":4058:4067   */\n      dup7\n        /* \"#utility.yul\":4054:4076   */\n      add\n        /* \"#utility.yul\":4033:4086   */\n      tag_459\n      jump\t// in\n    tag_498:\n        /* \"#utility.yul\":4023:4086   */\n      swap2\n      pop\n        /* \"#utility.yul\":3978:4096   */\n      pop\n        /* \"#utility.yul\":3629:4103   */\n      swap3\n      pop\n      swap3\n      swap1\n      pop\n      jump\t// out\n        /* \"#utility.yul\":4109:4288   */\n    tag_499:\n        /* \"#utility.yul\":4178:4188   */\n      0x00\n        /* \"#utility.yul\":4199:4245   */\n      tag_501\n        /* \"#utility.yul\":4241:4244   */\n      dup4\n        /* \"#utility.yul\":4233:4239   */\n      dup4\n        /* \"#utility.yul\":4199:4245   */\n      tag_502\n      jump\t// in\n    tag_501:\n        /* \"#utility.yul\":4277:4281   */\n      0x20\n        /* \"#utility.yul\":4272:4275   */\n      dup4\n        /* \"#utility.yul\":4268:4282   */\n      add\n        /* \"#utility.yul\":4254:4282   */\n      swap1\n      pop\n        /* \"#utility.yul\":4109:4288   */\n      swap3\n      swap2\n      pop\n      pop\n      jump\t// out\n        /* \"#utility.yul\":4294:4412   */\n    tag_503:\n        /* \"#utility.yul\":4381:4405   */\n      tag_505\n        /* \"#utility.yul\":4399:4404   */\n      dup2\n        /* \"#utility.yul\":4381:4405   */\n      tag_506\n      jump\t// in\n    tag_505:\n        /* \"#utility.yul\":4376:4379   */\n      dup3\n        /* \"#utility.yul\":4369:4406   */\n      mstore\n        /* \"#utility.yul\":4294:4412   */\n      pop\n      pop\n      jump\t// out\n        /* \"#utility.yul\":4448:4985   */\n    tag_507:\n        /* \"#utility.yul\":4576:4579   */\n      0x00\n        /* \"#utility.yul\":4597:4683   */\n      tag_509\n        /* \"#utility.yul\":4676:4682   */\n      dup4\n        /* \"#utility.yul\":4671:4674   */\n      dup6\n        /* \"#utility.yul\":4597:4683   */\n      tag_510\n      jump\t// in\n    tag_509:\n        /* \"#utility.yul\":4590:4683   */\n      swap4\n      pop\n        /* \"#utility.yul\":4707:4773   */\n      0x07ffffffffffffffffffffffffffffffffffffffffffffffffffffffffffffff\n        /* \"#utility.yul\":4699:4705   */\n      dup4\n        /* \"#utility.yul\":4696:4774   */\n      gt\n        /* \"#utility.yul\":4693:4858   */\n      iszero\n      tag_511\n      jumpi\n        /* \"#utility.yul\":4777:4856   */\n      tag_512\n      tag_513\n      jump\t// in\n    tag_512:\n        /* \"#utility.yul\":4693:4858   */\n    tag_511:\n        /* \"#utility.yul\":4889:4893   */\n      0x20\n        /* \"#utility.yul\":4881:4887   */\n      dup4\n        /* \"#utility.yul\":4877:4894   */\n      mul\n        /* \"#utility.yul\":4867:4894   */\n      swap3\n      pop\n        /* \"#utility.yul\":4904:4947   */\n      tag_514\n        /* \"#utility.yul\":4940:4946   */\n      dup4\n        /* \"#utility.yul\":4935:4938   */\n      dup6\n        /* \"#utility.yul\":4928:4933   */\n      dup5\n        /* \"#utility.yul\":4904:4947   */\n      tag_515\n      jump\t// in\n    tag_514:\n        /* \"#utility.yul\":4972:4978   */\n      dup3\n        /* \"#utility.yul\":4967:4970   */\n      dup5\n        /* \"#utility.yul\":4963:4979   */\n      add\n        /* \"#utility.yul\":4956:4979   */\n      swap1\n      pop\n        /* \"#utility.yul\":4448:4985   */\n      swap4\n      swap3\n      pop\n      pop\n      pop\n      jump\t// out\n        /* \"#utility.yul\":5021:5753   */\n    tag_516:\n        /* \"#utility.yul\":5140:5143   */\n      0x00\n        /* \"#utility.yul\":5169:5223   */\n      tag_518\n        /* \"#utility.yul\":5217:5222   */\n      dup3\n        /* \"#utility.yul\":5169:5223   */\n      tag_519\n      jump\t// in\n    tag_518:\n        /* \"#utility.yul\":5239:5325   */\n      tag_520\n        /* \"#utility.yul\":5318:5324   */\n      dup2\n        /* \"#utility.yul\":5313:5316   */\n      dup6\n        /* \"#utility.yul\":5239:5325   */\n      tag_510\n      jump\t// in\n    tag_520:\n        /* \"#utility.yul\":5232:5325   */\n      swap4\n      pop\n        /* \"#utility.yul\":5349:5405   */\n      tag_521\n        /* \"#utility.yul\":5399:5404   */\n      dup4\n        /* \"#utility.yul\":5349:5405   */\n      tag_522\n      jump\t// in\n    tag_521:\n        /* \"#utility.yul\":5428:5435   */\n      dup1\n        /* \"#utility.yul\":5459:5460   */\n      0x00\n        /* \"#utility.yul\":5444:5728   */\n    tag_523:\n        /* \"#utility.yul\":5469:5475   */\n      dup4\n        /* \"#utility.yul\":5466:5467   */\n      dup2\n        /* \"#utility.yul\":5463:5476   */\n      lt\n        /* \"#utility.yul\":5444:5728   */\n      iszero\n      tag_525\n      jumpi\n        /* \"#utility.yul\":5545:5551   */\n      dup2\n        /* \"#utility.yul\":5539:5552   */\n      mload\n        /* \"#utility.yul\":5572:5635   */\n      tag_526\n        /* \"#utility.yul\":5631:5634   */\n      dup9\n        /* \"#utility.yul\":5616:5629   */\n      dup3\n        /* \"#utility.yul\":5572:5635   */\n      tag_499\n      jump\t// in\n    tag_526:\n        /* \"#utility.yul\":5565:5635   */\n      swap8\n      pop\n        /* \"#utility.yul\":5658:5718   */\n      tag_527\n        /* \"#utility.yul\":5711:5717   */\n      dup4\n        /* \"#utility.yul\":5658:5718   */\n      tag_528\n      jump\t// in\n    tag_527:\n        /* \"#utility.yul\":5648:5718   */\n      swap3\n      pop\n        /* \"#utility.yul\":5504:5728   */\n      pop\n        /* \"#utility.yul\":5491:5492   */\n      0x01\n        /* \"#utility.yul\":5488:5489   */\n      dup2\n        /* \"#utility.yul\":5484:5493   */\n      add\n        /* \"#utility.yul\":5479:5493   */\n      swap1\n      pop\n        /* \"#utility.yul\":5444:5728   */\n      jump(tag_523)\n    tag_525:\n        /* \"#utility.yul\":5448:5462   */\n      pop\n        /* \"#utility.yul\":5744:5747   */\n      dup6\n        /* \"#utility.yul\":5737:5747   */\n      swap4\n      pop\n        /* \"#utility.yul\":5145:5753   */\n      pop\n      pop\n      pop\n        /* \"#utility.yul\":5021:5753   */\n      swap3\n      swap2\n      pop\n      pop\n      jump\t// out\n        /* \"#utility.yul\":5759:6132   */\n    tag_529:\n        /* \"#utility.yul\":5863:5866   */\n      0x00\n        /* \"#utility.yul\":5891:5929   */\n      tag_531\n        /* \"#utility.yul\":5923:5928   */\n      dup3\n        /* \"#utility.yul\":5891:5929   */\n      tag_532\n      jump\t// in\n    tag_531:\n        /* \"#utility.yul\":5945:6033   */\n      tag_533\n        /* \"#utility.yul\":6026:6032   */\n      dup2\n        /* \"#utility.yul\":6021:6024   */\n      dup6\n        /* \"#utility.yul\":5945:6033   */\n      tag_534\n      jump\t// in\n    tag_533:\n        /* \"#utility.yul\":5938:6033   */\n      swap4\n      pop\n        /* \"#utility.yul\":6042:6094   */\n      tag_535\n        /* \"#utility.yul\":6087:6093   */\n      dup2\n        /* \"#utility.yul\":6082:6085   */\n      dup6\n        /* \"#utility.yul\":6075:6079   */\n      0x20\n        /* \"#utility.yul\":6068:6073   */\n      dup7\n        /* \"#utility.yul\":6064:6080   */\n      add\n        /* \"#utility.yul\":6042:6094   */\n      tag_536\n      jump\t// in\n    tag_535:\n        /* \"#utility.yul\":6119:6125   */\n      dup1\n        /* \"#utility.yul\":6114:6117   */\n      dup5\n        /* \"#utility.yul\":6110:6126   */\n      add\n        /* \"#utility.yul\":6103:6126   */\n      swap2\n      pop\n        /* \"#utility.yul\":5867:6132   */\n      pop\n        /* \"#utility.yul\":5759:6132   */\n      swap3\n      swap2\n      pop\n      pop\n      jump\t// out\n        /* \"#utility.yul\":6138:6297   */\n    tag_537:\n        /* \"#utility.yul\":6239:6290   */\n      tag_539\n        /* \"#utility.yul\":6284:6289   */\n      dup2\n        /* \"#utility.yul\":6239:6290   */\n      tag_540\n      jump\t// in\n    tag_539:\n        /* \"#utility.yul\":6234:6237   */\n      dup3\n        /* \"#utility.yul\":6227:6291   */\n      mstore\n        /* \"#utility.yul\":6138:6297   */\n      pop\n      pop\n      jump\t// out\n        /* \"#utility.yul\":6303:6466   */\n    tag_541:\n        /* \"#utility.yul\":6406:6459   */\n      tag_543\n        /* \"#utility.yul\":6453:6458   */\n      dup2\n        /* \"#utility.yul\":6406:6459   */\n      tag_544\n      jump\t// in\n    tag_543:\n        /* \"#utility.yul\":6401:6404   */\n      dup3\n        /* \"#utility.yul\":6394:6460   */\n      mstore\n        /* \"#utility.yul\":6303:6466   */\n      pop\n      pop\n      jump\t// out\n        /* \"#utility.yul\":6472:6836   */\n    tag_545:\n        /* \"#utility.yul\":6560:6563   */\n      0x00\n        /* \"#utility.yul\":6588:6627   */\n      tag_547\n        /* \"#utility.yul\":6621:6626   */\n      dup3\n        /* \"#utility.yul\":6588:6627   */\n      tag_548\n      jump\t// in\n    tag_547:\n        /* \"#utility.yul\":6643:6714   */\n      tag_549\n        /* \"#utility.yul\":6707:6713   */\n      dup2\n        /* \"#utility.yul\":6702:6705   */\n      dup6\n        /* \"#utility.yul\":6643:6714   */\n      tag_550\n      jump\t// in\n    tag_549:\n        /* \"#utility.yul\":6636:6714   */\n      swap4\n      pop\n        /* \"#utility.yul\":6723:6775   */\n      tag_551\n        /* \"#utility.yul\":6768:6774   */\n      dup2\n        /* \"#utility.yul\":6763:6766   */\n      dup6\n        /* \"#utility.yul\":6756:6760   */\n      0x20\n        /* \"#utility.yul\":6749:6754   */\n      dup7\n        /* \"#utility.yul\":6745:6761   */\n      add\n        /* \"#utility.yul\":6723:6775   */\n      tag_536\n      jump\t// in\n    tag_551:\n        /* \"#utility.yul\":6800:6829   */\n      tag_552\n        /* \"#utility.yul\":6822:6828   */\n      dup2\n        /* \"#utility.yul\":6800:6829   */\n      tag_553\n      jump\t// in\n    tag_552:\n        /* \"#utility.yul\":6795:6798   */\n      dup5\n        /* \"#utility.yul\":6791:6830   */\n      add\n        /* \"#utility.yul\":6784:6830   */\n      swap2\n      pop\n        /* \"#utility.yul\":6564:6836   */\n      pop\n        /* \"#utility.yul\":6472:6836   */\n      swap3\n      swap2\n      pop\n      pop\n      jump\t// out\n        /* \"#utility.yul\":6842:7208   */\n    tag_554:\n        /* \"#utility.yul\":6984:6987   */\n      0x00\n        /* \"#utility.yul\":7005:7072   */\n      tag_556\n        /* \"#utility.yul\":7069:7071   */\n      0x18\n        /* \"#utility.yul\":7064:7067   */\n      dup4\n        /* \"#utility.yul\":7005:7072   */\n      tag_550\n      jump\t// in\n    tag_556:\n        /* \"#utility.yul\":6998:7072   */\n      swap2\n      pop\n        /* \"#utility.yul\":7081:7174   */\n      tag_557\n        /* \"#utility.yul\":7170:7173   */\n      dup3\n        /* \"#utility.yul\":7081:7174   */\n      tag_558\n      jump\t// in\n    tag_557:\n        /* \"#utility.yul\":7199:7201   */\n      0x20\n        /* \"#utility.yul\":7194:7197   */\n      dup3\n        /* \"#utility.yul\":7190:7202   */\n      add\n        /* \"#utility.yul\":7183:7202   */\n      swap1\n      pop\n        /* \"#utility.yul\":6842:7208   */\n      swap2\n      swap1\n      pop\n      jump\t// out\n        /* \"#utility.yul\":7214:7580   */\n    tag_559:\n        /* \"#utility.yul\":7356:7359   */\n      0x00\n        /* \"#utility.yul\":7377:7444   */\n      tag_561\n        /* \"#utility.yul\":7441:7443   */\n      0x2a\n        /* \"#utility.yul\":7436:7439   */\n      dup4\n        /* \"#utility.yul\":7377:7444   */\n      tag_550\n      jump\t// in\n    tag_561:\n        /* \"#utility.yul\":7370:7444   */\n      swap2\n      pop\n        /* \"#utility.yul\":7453:7546   */\n      tag_562\n        /* \"#utility.yul\":7542:7545   */\n      dup3\n        /* \"#utility.yul\":7453:7546   */\n      tag_563\n      jump\t// in\n    tag_562:\n        /* \"#utility.yul\":7571:7573   */\n      0x40\n        /* \"#utility.yul\":7566:7569   */\n      dup3\n        /* \"#utility.yul\":7562:7574   */\n      add\n        /* \"#utility.yul\":7555:7574   */\n      swap1\n      pop\n        /* \"#utility.yul\":7214:7580   */\n      swap2\n      swap1\n      pop\n      jump\t// out\n        /* \"#utility.yul\":7586:7952   */\n    tag_564:\n        /* \"#utility.yul\":7728:7731   */\n      0x00\n        /* \"#utility.yul\":7749:7816   */\n      tag_566\n        /* \"#utility.yul\":7813:7815   */\n      0x26\n        /* \"#utility.yul\":7808:7811   */\n      dup4\n        /* \"#utility.yul\":7749:7816   */\n      tag_550\n      jump\t// in\n    tag_566:\n        /* \"#utility.yul\":7742:7816   */\n      swap2\n      pop\n        /* \"#utility.yul\":7825:7918   */\n      tag_567\n        /* \"#utility.yul\":7914:7917   */\n      dup3\n        /* \"#utility.yul\":7825:7918   */\n      tag_568\n      jump\t// in\n    tag_567:\n        /* \"#utility.yul\":7943:7945   */\n      0x40\n        /* \"#utility.yul\":7938:7941   */\n      dup3\n        /* \"#utility.yul\":7934:7946   */\n      add\n        /* \"#utility.yul\":7927:7946   */\n      swap1\n      pop\n        /* \"#utility.yul\":7586:7952   */\n      swap2\n      swap1\n      pop\n      jump\t// out\n        /* \"#utility.yul\":7958:8324   */\n    tag_569:\n        /* \"#utility.yul\":8100:8103   */\n      0x00\n        /* \"#utility.yul\":8121:8188   */\n      tag_571\n        /* \"#utility.yul\":8185:8187   */\n      0x31\n        /* \"#utility.yul\":8180:8183   */\n      dup4\n        /* \"#utility.yul\":8121:8188   */\n      tag_550\n      jump\t// in\n    tag_571:\n        /* \"#utility.yul\":8114:8188   */\n      swap2\n      pop\n        /* \"#utility.yul\":8197:8290   */\n      tag_572\n        /* \"#utility.yul\":8286:8289   */\n      dup3\n        /* \"#utility.yul\":8197:8290   */\n      tag_573\n      jump\t// in\n    tag_572:\n        /* \"#utility.yul\":8315:8317   */\n      0x40\n        /* \"#utility.yul\":8310:8313   */\n      dup3\n        /* \"#utility.yul\":8306:8318   */\n      add\n        /* \"#utility.yul\":8299:8318   */\n      swap1\n      pop\n        /* \"#utility.yul\":7958:8324   */\n      swap2\n      swap1\n      pop\n      jump\t// out\n        /* \"#utility.yul\":8330:8696   */\n    tag_574:\n        /* \"#utility.yul\":8472:8475   */\n      0x00\n        /* \"#utility.yul\":8493:8560   */\n      tag_576\n        /* \"#utility.yul\":8557:8559   */\n      0x20\n        /* \"#utility.yul\":8552:8555   */\n      dup4\n        /* \"#utility.yul\":8493:8560   */\n      tag_550\n      jump\t// in\n    tag_576:\n        /* \"#utility.yul\":8486:8560   */\n      swap2\n      pop\n        /* \"#utility.yul\":8569:8662   */\n      tag_577\n        /* \"#utility.yul\":8658:8661   */\n      dup3\n        /* \"#utility.yul\":8569:8662   */\n      tag_578\n      jump\t// in\n    tag_577:\n        /* \"#utility.yul\":8687:8689   */\n      0x20\n        /* \"#utility.yul\":8682:8685   */\n      dup3\n        /* \"#utility.yul\":8678:8690   */\n      add\n        /* \"#utility.yul\":8671:8690   */\n      swap1\n      pop\n        /* \"#utility.yul\":8330:8696   */\n      swap2\n      swap1\n      pop\n      jump\t// out\n        /* \"#utility.yul\":8702:9068   */\n    tag_579:\n        /* \"#utility.yul\":8844:8847   */\n      0x00\n        /* \"#utility.yul\":8865:8932   */\n      tag_581\n        /* \"#utility.yul\":8929:8931   */\n      0x20\n        /* \"#utility.yul\":8924:8927   */\n      dup4\n        /* \"#utility.yul\":8865:8932   */\n      tag_550\n      jump\t// in\n    tag_581:\n        /* \"#utility.yul\":8858:8932   */\n      swap2\n      pop\n        /* \"#utility.yul\":8941:9034   */\n      tag_582\n        /* \"#utility.yul\":9030:9033   */\n      dup3\n        /* \"#utility.yul\":8941:9034   */\n      tag_583\n      jump\t// in\n    tag_582:\n        /* \"#utility.yul\":9059:9061   */\n      0x20\n        /* \"#utility.yul\":9054:9057   */\n      dup3\n        /* \"#utility.yul\":9050:9062   */\n      add\n        /* \"#utility.yul\":9043:9062   */\n      swap1\n      pop\n        /* \"#utility.yul\":8702:9068   */\n      swap2\n      swap1\n      pop\n      jump\t// out\n        /* \"#utility.yul\":9074:9440   */\n    tag_584:\n        /* \"#utility.yul\":9216:9219   */\n      0x00\n        /* \"#utility.yul\":9237:9304   */\n      tag_586\n        /* \"#utility.yul\":9301:9303   */\n      0x1e\n        /* \"#utility.yul\":9296:9299   */\n      dup4\n        /* \"#utility.yul\":9237:9304   */\n      tag_550\n      jump\t// in\n    tag_586:\n        /* \"#utility.yul\":9230:9304   */\n      swap2\n      pop\n        /* \"#utility.yul\":9313:9406   */\n      tag_587\n        /* \"#utility.yul\":9402:9405   */\n      dup3\n        /* \"#utility.yul\":9313:9406   */\n      tag_588\n      jump\t// in\n    tag_587:\n        /* \"#utility.yul\":9431:9433   */\n      0x20\n        /* \"#utility.yul\":9426:9429   */\n      dup3\n        /* \"#utility.yul\":9422:9434   */\n      add\n        /* \"#utility.yul\":9415:9434   */\n      swap1\n      pop\n        /* \"#utility.yul\":9074:9440   */\n      swap2\n      swap1\n      pop\n      jump\t// out\n        /* \"#utility.yul\":9446:9812   */\n    tag_589:\n        /* \"#utility.yul\":9588:9591   */\n      0x00\n        /* \"#utility.yul\":9609:9676   */\n      tag_591\n        /* \"#utility.yul\":9673:9675   */\n      0x1d\n        /* \"#utility.yul\":9668:9671   */\n      dup4\n        /* \"#utility.yul\":9609:9676   */\n      tag_550\n      jump\t// in\n    tag_591:\n        /* \"#utility.yul\":9602:9676   */\n      swap2\n      pop\n        /* \"#utility.yul\":9685:9778   */\n      tag_592\n        /* \"#utility.yul\":9774:9777   */\n      dup3\n        /* \"#utility.yul\":9685:9778   */\n      tag_593\n      jump\t// in\n    tag_592:\n        /* \"#utility.yul\":9803:9805   */\n      0x20\n        /* \"#utility.yul\":9798:9801   */\n      dup3\n        /* \"#utility.yul\":9794:9806   */\n      add\n        /* \"#utility.yul\":9787:9806   */\n      swap1\n      pop\n        /* \"#utility.yul\":9446:9812   */\n      swap2\n      swap1\n      pop\n      jump\t// out\n        /* \"#utility.yul\":9818:10184   */\n    tag_594:\n        /* \"#utility.yul\":9960:9963   */\n      0x00\n        /* \"#utility.yul\":9981:10048   */\n      tag_596\n        /* \"#utility.yul\":10045:10047   */\n      0x39\n        /* \"#utility.yul\":10040:10043   */\n      dup4\n        /* \"#utility.yul\":9981:10048   */\n      tag_550\n      jump\t// in\n    tag_596:\n        /* \"#utility.yul\":9974:10048   */\n      swap2\n      pop\n        /* \"#utility.yul\":10057:10150   */\n      tag_597\n        /* \"#utility.yul\":10146:10149   */\n      dup3\n        /* \"#utility.yul\":10057:10150   */\n      tag_598\n      jump\t// in\n    tag_597:\n        /* \"#utility.yul\":10175:10177   */\n      0x40\n        /* \"#utility.yul\":10170:10173   */\n      dup3\n        /* \"#utility.yul\":10166:10178   */\n      add\n        /* \"#utility.yul\":10159:10178   */\n      swap1\n      pop\n        /* \"#utility.yul\":9818:10184   */\n      swap2\n      swap1\n      pop\n      jump\t// out\n        /* \"#utility.yul\":10190:10298   */\n    tag_502:\n        /* \"#utility.yul\":10267:10291   */\n      tag_600\n        /* \"#utility.yul\":10285:10290   */\n      dup2\n        /* \"#utility.yul\":10267:10291   */\n      tag_601\n      jump\t// in\n    tag_600:\n        /* \"#utility.yul\":10262:10265   */\n      dup3\n        /* \"#utility.yul\":10255:10292   */\n      mstore\n        /* \"#utility.yul\":10190:10298   */\n      pop\n      pop\n      jump\t// out\n        /* \"#utility.yul\":10304:10422   */\n    tag_602:\n        /* \"#utility.yul\":10391:10415   */\n      tag_604\n        /* \"#utility.yul\":10409:10414   */\n      dup2\n        /* \"#utility.yul\":10391:10415   */\n      tag_601\n      jump\t// in\n    tag_604:\n        /* \"#utility.yul\":10386:10389   */\n      dup3\n        /* \"#utility.yul\":10379:10416   */\n      mstore\n        /* \"#utility.yul\":10304:10422   */\n      pop\n      pop\n      jump\t// out\n        /* \"#utility.yul\":10428:10699   */\n    tag_424:\n        /* \"#utility.yul\":10558:10561   */\n      0x00\n        /* \"#utility.yul\":10580:10673   */\n      tag_606\n        /* \"#utility.yul\":10669:10672   */\n      dup3\n        /* \"#utility.yul\":10660:10666   */\n      dup5\n        /* \"#utility.yul\":10580:10673   */\n      tag_529\n      jump\t// in\n    tag_606:\n        /* \"#utility.yul\":10573:10673   */\n      swap2\n      pop\n        /* \"#utility.yul\":10690:10693   */\n      dup2\n        /* \"#utility.yul\":10683:10693   */\n      swap1\n      pop\n        /* \"#utility.yul\":10428:10699   */\n      swap3\n      swap2\n      pop\n      pop\n      jump\t// out\n        /* \"#utility.yul\":10705:10927   */\n    tag_73:\n        /* \"#utility.yul\":10798:10802   */\n      0x00\n        /* \"#utility.yul\":10836:10838   */\n      0x20\n        /* \"#utility.yul\":10825:10834   */\n      dup3\n        /* \"#utility.yul\":10821:10839   */\n      add\n        /* \"#utility.yul\":10813:10839   */\n      swap1\n      pop\n        /* \"#utility.yul\":10849:10920   */\n      tag_608\n        /* \"#utility.yul\":10917:10918   */\n      0x00\n        /* \"#utility.yul\":10906:10915   */\n      dup4\n        /* \"#utility.yul\":10902:10919   */\n      add\n        /* \"#utility.yul\":10893:10899   */\n      dup5\n        /* \"#utility.yul\":10849:10920   */\n      tag_503\n      jump\t// in\n    tag_608:\n        /* \"#utility.yul\":10705:10927   */\n      swap3\n      swap2\n      pop\n      pop\n      jump\t// out\n        /* \"#utility.yul\":10933:11375   */\n    tag_168:\n        /* \"#utility.yul\":11082:11086   */\n      0x00\n        /* \"#utility.yul\":11120:11122   */\n      0x60\n        /* \"#utility.yul\":11109:11118   */\n      dup3\n        /* \"#utility.yul\":11105:11123   */\n      add\n        /* \"#utility.yul\":11097:11123   */\n      swap1\n      pop\n        /* \"#utility.yul\":11133:11204   */\n      tag_610\n        /* \"#utility.yul\":11201:11202   */\n      0x00\n        /* \"#utility.yul\":11190:11199   */\n      dup4\n        /* \"#utility.yul\":11186:11203   */\n      add\n        /* \"#utility.yul\":11177:11183   */\n      dup7\n        /* \"#utility.yul\":11133:11204   */\n      tag_503\n      jump\t// in\n    tag_610:\n        /* \"#utility.yul\":11214:11286   */\n      tag_611\n        /* \"#utility.yul\":11282:11284   */\n      0x20\n        /* \"#utility.yul\":11271:11280   */\n      dup4\n        /* \"#utility.yul\":11267:11285   */\n      add\n        /* \"#utility.yul\":11258:11264   */\n      dup6\n        /* \"#utility.yul\":11214:11286   */\n      tag_503\n      jump\t// in\n    tag_611:\n        /* \"#utility.yul\":11296:11368   */\n      tag_612\n        /* \"#utility.yul\":11364:11366   */\n      0x40\n        /* \"#utility.yul\":11353:11362   */\n      dup4\n        /* \"#utility.yul\":11349:11367   */\n      add\n        /* \"#utility.yul\":11340:11346   */\n      dup5\n        /* \"#utility.yul\":11296:11368   */\n      tag_602\n      jump\t// in\n    tag_612:\n        /* \"#utility.yul\":10933:11375   */\n      swap5\n      swap4\n      pop\n      pop\n      pop\n      pop\n      jump\t// out\n        /* \"#utility.yul\":11381:11884   */\n    tag_177:\n        /* \"#utility.yul\":11562:11566   */\n      0x00\n        /* \"#utility.yul\":11600:11602   */\n      0x40\n        /* \"#utility.yul\":11589:11598   */\n      dup3\n        /* \"#utility.yul\":11585:11603   */\n      add\n        /* \"#utility.yul\":11577:11603   */\n      swap1\n      pop\n        /* \"#utility.yul\":11613:11684   */\n      tag_614\n        /* \"#utility.yul\":11681:11682   */\n      0x00\n        /* \"#utility.yul\":11670:11679   */\n      dup4\n        /* \"#utility.yul\":11666:11683   */\n      add\n        /* \"#utility.yul\":11657:11663   */\n      dup7\n        /* \"#utility.yul\":11613:11684   */\n      tag_503\n      jump\t// in\n    tag_614:\n        /* \"#utility.yul\":11731:11740   */\n      dup2\n        /* \"#utility.yul\":11725:11729   */\n      dup2\n        /* \"#utility.yul\":11721:11741   */\n      sub\n        /* \"#utility.yul\":11716:11718   */\n      0x20\n        /* \"#utility.yul\":11705:11714   */\n      dup4\n        /* \"#utility.yul\":11701:11719   */\n      add\n        /* \"#utility.yul\":11694:11742   */\n      mstore\n        /* \"#utility.yul\":11759:11877   */\n      tag_615\n        /* \"#utility.yul\":11872:11876   */\n      dup2\n        /* \"#utility.yul\":11863:11869   */\n      dup5\n        /* \"#utility.yul\":11855:11861   */\n      dup7\n        /* \"#utility.yul\":11759:11877   */\n      tag_507\n      jump\t// in\n    tag_615:\n        /* \"#utility.yul\":11751:11877   */\n      swap1\n      pop\n        /* \"#utility.yul\":11381:11884   */\n      swap5\n      swap4\n      pop\n      pop\n      pop\n      pop\n      jump\t// out\n        /* \"#utility.yul\":11890:12222   */\n    tag_403:\n        /* \"#utility.yul\":12011:12015   */\n      0x00\n        /* \"#utility.yul\":12049:12051   */\n      0x40\n        /* \"#utility.yul\":12038:12047   */\n      dup3\n        /* \"#utility.yul\":12034:12052   */\n      add\n        /* \"#utility.yul\":12026:12052   */\n      swap1\n      pop\n        /* \"#utility.yul\":12062:12133   */\n      tag_617\n        /* \"#utility.yul\":12130:12131   */\n      0x00\n        /* \"#utility.yul\":12119:12128   */\n      dup4\n        /* \"#utility.yul\":12115:12132   */\n      add\n        /* \"#utility.yul\":12106:12112   */\n      dup6\n        /* \"#utility.yul\":12062:12133   */\n      tag_503\n      jump\t// in\n    tag_617:\n        /* \"#utility.yul\":12143:12215   */\n      tag_618\n        /* \"#utility.yul\":12211:12213   */\n      0x20\n        /* \"#utility.yul\":12200:12209   */\n      dup4\n        /* \"#utility.yul\":12196:12214   */\n      add\n        /* \"#utility.yul\":12187:12193   */\n      dup5\n        /* \"#utility.yul\":12143:12215   */\n      tag_602\n      jump\t// in\n    tag_618:\n        /* \"#utility.yul\":11890:12222   */\n      swap4\n      swap3\n      pop\n      pop\n      pop\n      jump\t// out\n        /* \"#utility.yul\":12228:12670   */\n    tag_238:\n        /* \"#utility.yul\":12377:12381   */\n      0x00\n        /* \"#utility.yul\":12415:12417   */\n      0x60\n        /* \"#utility.yul\":12404:12413   */\n      dup3\n        /* \"#utility.yul\":12400:12418   */\n      add\n        /* \"#utility.yul\":12392:12418   */\n      swap1\n      pop\n        /* \"#utility.yul\":12428:12499   */\n      tag_620\n        /* \"#utility.yul\":12496:12497   */\n      0x00\n        /* \"#utility.yul\":12485:12494   */\n      dup4\n        /* \"#utility.yul\":12481:12498   */\n      add\n        /* \"#utility.yul\":12472:12478   */\n      dup7\n        /* \"#utility.yul\":12428:12499   */\n      tag_503\n      jump\t// in\n    tag_620:\n        /* \"#utility.yul\":12509:12581   */\n      tag_621\n        /* \"#utility.yul\":12577:12579   */\n      0x20\n        /* \"#utility.yul\":12566:12575   */\n      dup4\n        /* \"#utility.yul\":12562:12580   */\n      add\n        /* \"#utility.yul\":12553:12559   */\n      dup6\n        /* \"#utility.yul\":12509:12581   */\n      tag_602\n      jump\t// in\n    tag_621:\n        /* \"#utility.yul\":12591:12663   */\n      tag_622\n        /* \"#utility.yul\":12659:12661   */\n      0x40\n        /* \"#utility.yul\":12648:12657   */\n      dup4\n        /* \"#utility.yul\":12644:12662   */\n      add\n        /* \"#utility.yul\":12635:12641   */\n      dup5\n        /* \"#utility.yul\":12591:12663   */\n      tag_602\n      jump\t// in\n    tag_622:\n        /* \"#utility.yul\":12228:12670   */\n      swap5\n      swap4\n      pop\n      pop\n      pop\n      pop\n      jump\t// out\n        /* \"#utility.yul\":12676:13049   */\n    tag_49:\n        /* \"#utility.yul\":12819:12823   */\n      0x00\n        /* \"#utility.yul\":12857:12859   */\n      0x20\n        /* \"#utility.yul\":12846:12855   */\n      dup3\n        /* \"#utility.yul\":12842:12860   */\n      add\n        /* \"#utility.yul\":12834:12860   */\n      swap1\n      pop\n        /* \"#utility.yul\":12906:12915   */\n      dup2\n        /* \"#utility.yul\":12900:12904   */\n      dup2\n        /* \"#utility.yul\":12896:12916   */\n      sub\n        /* \"#utility.yul\":12892:12893   */\n      0x00\n        /* \"#utility.yul\":12881:12890   */\n      dup4\n        /* \"#utility.yul\":12877:12894   */\n      add\n        /* \"#utility.yul\":12870:12917   */\n      mstore\n        /* \"#utility.yul\":12934:13042   */\n      tag_624\n        /* \"#utility.yul\":13037:13041   */\n      dup2\n        /* \"#utility.yul\":13028:13034   */\n      dup5\n        /* \"#utility.yul\":12934:13042   */\n      tag_516\n      jump\t// in\n    tag_624:\n        /* \"#utility.yul\":12926:13042   */\n      swap1\n      pop\n        /* \"#utility.yul\":12676:13049   */\n      swap3\n      swap2\n      pop\n      pop\n      jump\t// out\n        /* \"#utility.yul\":13055:13305   */\n    tag_41:\n        /* \"#utility.yul\":13162:13166   */\n      0x00\n        /* \"#utility.yul\":13200:13202   */\n      0x20\n        /* \"#utility.yul\":13189:13198   */\n      dup3\n        /* \"#utility.yul\":13185:13203   */\n      add\n        /* \"#utility.yul\":13177:13203   */\n      swap1\n      pop\n        /* \"#utility.yul\":13213:13298   */\n      tag_626\n        /* \"#utility.yul\":13295:13296   */\n      0x00\n        /* \"#utility.yul\":13284:13293   */\n      dup4\n        /* \"#utility.yul\":13280:13297   */\n      add\n        /* \"#utility.yul\":13271:13277   */\n      dup5\n        /* \"#utility.yul\":13213:13298   */\n      tag_537\n      jump\t// in\n    tag_626:\n        /* \"#utility.yul\":13055:13305   */\n      swap3\n      swap2\n      pop\n      pop\n      jump\t// out\n        /* \"#utility.yul\":13311:13565   */\n    tag_91:\n        /* \"#utility.yul\":13420:13424   */\n      0x00\n        /* \"#utility.yul\":13458:13460   */\n      0x20\n        /* \"#utility.yul\":13447:13456   */\n      dup3\n        /* \"#utility.yul\":13443:13461   */\n      add\n        /* \"#utility.yul\":13435:13461   */\n      swap1\n      pop\n        /* \"#utility.yul\":13471:13558   */\n      tag_628\n        /* \"#utility.yul\":13555:13556   */\n      0x00\n        /* \"#utility.yul\":13544:13553   */\n      dup4\n        /* \"#utility.yul\":13540:13557   */\n      add\n        /* \"#utility.yul\":13531:13537   */\n      dup5\n        /* \"#utility.yul\":13471:13558   */\n      tag_541\n      jump\t// in\n    tag_628:\n        /* \"#utility.yul\":13311:13565   */\n      swap3\n      swap2\n      pop\n      pop\n      jump\t// out\n        /* \"#utility.yul\":13571:13884   */\n    tag_433:\n        /* \"#utility.yul\":13684:13688   */\n      0x00\n        /* \"#utility.yul\":13722:13724   */\n      0x20\n        /* \"#utility.yul\":13711:13720   */\n      dup3\n        /* \"#utility.yul\":13707:13725   */\n      add\n        /* \"#utility.yul\":13699:13725   */\n      swap1\n      pop\n        /* \"#utility.yul\":13771:13780   */\n      dup2\n        /* \"#utility.yul\":13765:13769   */\n      dup2\n        /* \"#utility.yul\":13761:13781   */\n      sub\n        /* \"#utility.yul\":13757:13758   */\n      0x00\n        /* \"#utility.yul\":13746:13755   */\n      dup4\n        /* \"#utility.yul\":13742:13759   */\n      add\n        /* \"#utility.yul\":13735:13782   */\n      mstore\n        /* \"#utility.yul\":13799:13877   */\n      tag_630\n        /* \"#utility.yul\":13872:13876   */\n      dup2\n        /* \"#utility.yul\":13863:13869   */\n      dup5\n        /* \"#utility.yul\":13799:13877   */\n      tag_545\n      jump\t// in\n    tag_630:\n        /* \"#utility.yul\":13791:13877   */\n      swap1\n      pop\n        /* \"#utility.yul\":13571:13884   */\n      swap3\n      swap2\n      pop\n      pop\n      jump\t// out\n        /* \"#utility.yul\":13890:14309   */\n    tag_108:\n        /* \"#utility.yul\":14056:14060   */\n      0x00\n        /* \"#utility.yul\":14094:14096   */\n      0x20\n        /* \"#utility.yul\":14083:14092   */\n      dup3\n        /* \"#utility.yul\":14079:14097   */\n      add\n        /* \"#utility.yul\":14071:14097   */\n      swap1\n      pop\n        /* \"#utility.yul\":14143:14152   */\n      dup2\n        /* \"#utility.yul\":14137:14141   */\n      dup2\n        /* \"#utility.yul\":14133:14153   */\n      sub\n        /* \"#utility.yul\":14129:14130   */\n      0x00\n        /* \"#utility.yul\":14118:14127   */\n      dup4\n        /* \"#utility.yul\":14114:14131   */\n      add\n        /* \"#utility.yul\":14107:14154   */\n      mstore\n        /* \"#utility.yul\":14171:14302   */\n      tag_632\n        /* \"#utility.yul\":14297:14301   */\n      dup2\n        /* \"#utility.yul\":14171:14302   */\n      tag_554\n      jump\t// in\n    tag_632:\n        /* \"#utility.yul\":14163:14302   */\n      swap1\n      pop\n        /* \"#utility.yul\":13890:14309   */\n      swap2\n      swap1\n      pop\n      jump\t// out\n        /* \"#utility.yul\":14315:14734   */\n    tag_413:\n        /* \"#utility.yul\":14481:14485   */\n      0x00\n        /* \"#utility.yul\":14519:14521   */\n      0x20\n        /* \"#utility.yul\":14508:14517   */\n      dup3\n        /* \"#utility.yul\":14504:14522   */\n      add\n        /* \"#utility.yul\":14496:14522   */\n      swap1\n      pop\n        /* \"#utility.yul\":14568:14577   */\n      dup2\n        /* \"#utility.yul\":14562:14566   */\n      dup2\n        /* \"#utility.yul\":14558:14578   */\n      sub\n        /* \"#utility.yul\":14554:14555   */\n      0x00\n        /* \"#utility.yul\":14543:14552   */\n      dup4\n        /* \"#utility.yul\":14539:14556   */\n      add\n        /* \"#utility.yul\":14532:14579   */\n      mstore\n        /* \"#utility.yul\":14596:14727   */\n      tag_634\n        /* \"#utility.yul\":14722:14726   */\n      dup2\n        /* \"#utility.yul\":14596:14727   */\n      tag_559\n      jump\t// in\n    tag_634:\n        /* \"#utility.yul\":14588:14727   */\n      swap1\n      pop\n        /* \"#utility.yul\":14315:14734   */\n      swap2\n      swap1\n      pop\n      jump\t// out\n        /* \"#utility.yul\":14740:15159   */\n    tag_356:\n        /* \"#utility.yul\":14906:14910   */\n      0x00\n        /* \"#utility.yul\":14944:14946   */\n      0x20\n        /* \"#utility.yul\":14933:14942   */\n      dup3\n        /* \"#utility.yul\":14929:14947   */\n      add\n        /* \"#utility.yul\":14921:14947   */\n      swap1\n      pop\n        /* \"#utility.yul\":14993:15002   */\n      dup2\n        /* \"#utility.yul\":14987:14991   */\n      dup2\n        /* \"#utility.yul\":14983:15003   */\n      sub\n        /* \"#utility.yul\":14979:14980   */\n      0x00\n        /* \"#utility.yul\":14968:14977   */\n      dup4\n        /* \"#utility.yul\":14964:14981   */\n      add\n        /* \"#utility.yul\":14957:15004   */\n      mstore\n        /* \"#utility.yul\":15021:15152   */\n      tag_636\n        /* \"#utility.yul\":15147:15151   */\n      dup2\n        /* \"#utility.yul\":15021:15152   */\n      tag_564\n      jump\t// in\n    tag_636:\n        /* \"#utility.yul\":15013:15152   */\n      swap1\n      pop\n        /* \"#utility.yul\":14740:15159   */\n      swap2\n      swap1\n      pop\n      jump\t// out\n        /* \"#utility.yul\":15165:15584   */\n    tag_140:\n        /* \"#utility.yul\":15331:15335   */\n      0x00\n        /* \"#utility.yul\":15369:15371   */\n      0x20\n        /* \"#utility.yul\":15358:15367   */\n      dup3\n        /* \"#utility.yul\":15354:15372   */\n      add\n        /* \"#utility.yul\":15346:15372   */\n      swap1\n      pop\n        /* \"#utility.yul\":15418:15427   */\n      dup2\n        /* \"#utility.yul\":15412:15416   */\n      dup2\n        /* \"#utility.yul\":15408:15428   */\n      sub\n        /* \"#utility.yul\":15404:15405   */\n      0x00\n        /* \"#utility.yul\":15393:15402   */\n      dup4\n        /* \"#utility.yul\":15389:15406   */\n      add\n        /* \"#utility.yul\":15382:15429   */\n      mstore\n        /* \"#utility.yul\":15446:15577   */\n      tag_638\n        /* \"#utility.yul\":15572:15576   */\n      dup2\n        /* \"#utility.yul\":15446:15577   */\n      tag_569\n      jump\t// in\n    tag_638:\n        /* \"#utility.yul\":15438:15577   */\n      swap1\n      pop\n        /* \"#utility.yul\":15165:15584   */\n      swap2\n      swap1\n      pop\n      jump\t// out\n        /* \"#utility.yul\":15590:16009   */\n    tag_123:\n        /* \"#utility.yul\":15756:15760   */\n      0x00\n        /* \"#utility.yul\":15794:15796   */\n      0x20\n        /* \"#utility.yul\":15783:15792   */\n      dup3\n        /* \"#utility.yul\":15779:15797   */\n      add\n        /* \"#utility.yul\":15771:15797   */\n      swap1\n      pop\n        /* \"#utility.yul\":15843:15852   */\n      dup2\n        /* \"#utility.yul\":15837:15841   */\n      dup2\n        /* \"#utility.yul\":15833:15853   */\n      sub\n        /* \"#utility.yul\":15829:15830   */\n      0x00\n        /* \"#utility.yul\":15818:15827   */\n      dup4\n        /* \"#utility.yul\":15814:15831   */\n      add\n        /* \"#utility.yul\":15807:15854   */\n      mstore\n        /* \"#utility.yul\":15871:16002   */\n      tag_640\n        /* \"#utility.yul\":15997:16001   */\n      dup2\n        /* \"#utility.yul\":15871:16002   */\n      tag_574\n      jump\t// in\n    tag_640:\n        /* \"#utility.yul\":15863:16002   */\n      swap1\n      pop\n        /* \"#utility.yul\":15590:16009   */\n      swap2\n      swap1\n      pop\n      jump\t// out\n        /* \"#utility.yul\":16015:16434   */\n    tag_184:\n        /* \"#utility.yul\":16181:16185   */\n      0x00\n        /* \"#utility.yul\":16219:16221   */\n      0x20\n        /* \"#utility.yul\":16208:16217   */\n      dup3\n        /* \"#utility.yul\":16204:16222   */\n      add\n        /* \"#utility.yul\":16196:16222   */\n      swap1\n      pop\n        /* \"#utility.yul\":16268:16277   */\n      dup2\n        /* \"#utility.yul\":16262:16266   */\n      dup2\n        /* \"#utility.yul\":16258:16278   */\n      sub\n        /* \"#utility.yul\":16254:16255   */\n      0x00\n        /* \"#utility.yul\":16243:16252   */\n      dup4\n        /* \"#utility.yul\":16239:16256   */\n      add\n        /* \"#utility.yul\":16232:16279   */\n      mstore\n        /* \"#utility.yul\":16296:16427   */\n      tag_642\n        /* \"#utility.yul\":16422:16426   */\n      dup2\n        /* \"#utility.yul\":16296:16427   */\n      tag_579\n      jump\t// in\n    tag_642:\n        /* \"#utility.yul\":16288:16427   */\n      swap1\n      pop\n        /* \"#utility.yul\":16015:16434   */\n      swap2\n      swap1\n      pop\n      jump\t// out\n        /* \"#utility.yul\":16440:16859   */\n    tag_262:\n        /* \"#utility.yul\":16606:16610   */\n      0x00\n        /* \"#utility.yul\":16644:16646   */\n      0x20\n        /* \"#utility.yul\":16633:16642   */\n      dup3\n        /* \"#utility.yul\":16629:16647   */\n      add\n        /* \"#utility.yul\":16621:16647   */\n      swap1\n      pop\n        /* \"#utility.yul\":16693:16702   */\n      dup2\n        /* \"#utility.yul\":16687:16691   */\n      dup2\n        /* \"#utility.yul\":16683:16703   */\n      sub\n        /* \"#utility.yul\":16679:16680   */\n      0x00\n        /* \"#utility.yul\":16668:16677   */\n      dup4\n        /* \"#utility.yul\":16664:16681   */\n      add\n        /* \"#utility.yul\":16657:16704   */\n      mstore\n        /* \"#utility.yul\":16721:16852   */\n      tag_644\n        /* \"#utility.yul\":16847:16851   */\n      dup2\n        /* \"#utility.yul\":16721:16852   */\n      tag_584\n      jump\t// in\n    tag_644:\n        /* \"#utility.yul\":16713:16852   */\n      swap1\n      pop\n        /* \"#utility.yul\":16440:16859   */\n      swap2\n      swap1\n      pop\n      jump\t// out\n        /* \"#utility.yul\":16865:17284   */\n    tag_422:\n        /* \"#utility.yul\":17031:17035   */\n      0x00\n        /* \"#utility.yul\":17069:17071   */\n      0x20\n        /* \"#utility.yul\":17058:17067   */\n      dup3\n        /* \"#utility.yul\":17054:17072   */\n      add\n        /* \"#utility.yul\":17046:17072   */\n      swap1\n      pop\n        /* \"#utility.yul\":17118:17127   */\n      dup2\n        /* \"#utility.yul\":17112:17116   */\n      dup2\n        /* \"#utility.yul\":17108:17128   */\n      sub\n        /* \"#utility.yul\":17104:17105   */\n      0x00\n        /* \"#utility.yul\":17093:17102   */\n      dup4\n        /* \"#utility.yul\":17089:17106   */\n      add\n        /* \"#utility.yul\":17082:17129   */\n      mstore\n        /* \"#utility.yul\":17146:17277   */\n      tag_646\n        /* \"#utility.yul\":17272:17276   */\n      dup2\n        /* \"#utility.yul\":17146:17277   */\n      tag_589\n      jump\t// in\n    tag_646:\n        /* \"#utility.yul\":17138:17277   */\n      swap1\n      pop\n        /* \"#utility.yul\":16865:17284   */\n      swap2\n      swap1\n      pop\n      jump\t// out\n        /* \"#utility.yul\":17290:17709   */\n    tag_128:\n        /* \"#utility.yul\":17456:17460   */\n      0x00\n        /* \"#utility.yul\":17494:17496   */\n      0x20\n        /* \"#utility.yul\":17483:17492   */\n      dup3\n        /* \"#utility.yul\":17479:17497   */\n      add\n        /* \"#utility.yul\":17471:17497   */\n      swap1\n      pop\n        /* \"#utility.yul\":17543:17552   */\n      dup2\n        /* \"#utility.yul\":17537:17541   */\n      dup2\n        /* \"#utility.yul\":17533:17553   */\n      sub\n        /* \"#utility.yul\":17529:17530   */\n      0x00\n        /* \"#utility.yul\":17518:17527   */\n      dup4\n        /* \"#utility.yul\":17514:17531   */\n      add\n        /* \"#utility.yul\":17507:17554   */\n      mstore\n        /* \"#utility.yul\":17571:17702   */\n      tag_648\n        /* \"#utility.yul\":17697:17701   */\n      dup2\n        /* \"#utility.yul\":17571:17702   */\n      tag_594\n      jump\t// in\n    tag_648:\n        /* \"#utility.yul\":17563:17702   */\n      swap1\n      pop\n        /* \"#utility.yul\":17290:17709   */\n      swap2\n      swap1\n      pop\n      jump\t// out\n        /* \"#utility.yul\":17715:17937   */\n    tag_53:\n        /* \"#utility.yul\":17808:17812   */\n      0x00\n        /* \"#utility.yul\":17846:17848   */\n      0x20\n        /* \"#utility.yul\":17835:17844   */\n      dup3\n        /* \"#utility.yul\":17831:17849   */\n      add\n        /* \"#utility.yul\":17823:17849   */\n      swap1\n      pop\n        /* \"#utility.yul\":17859:17930   */\n      tag_650\n        /* \"#utility.yul\":17927:17928   */\n      0x00\n        /* \"#utility.yul\":17916:17925   */\n      dup4\n        /* \"#utility.yul\":17912:17929   */\n      add\n        /* \"#utility.yul\":17903:17909   */\n      dup5\n        /* \"#utility.yul\":17859:17930   */\n      tag_602\n      jump\t// in\n    tag_650:\n        /* \"#utility.yul\":17715:17937   */\n      swap3\n      swap2\n      pop\n      pop\n      jump\t// out\n        /* \"#utility.yul\":17943:18496   */\n    tag_37:\n        /* \"#utility.yul\":18120:18124   */\n      0x00\n        /* \"#utility.yul\":18158:18161   */\n      0x80\n        /* \"#utility.yul\":18147:18156   */\n      dup3\n        /* \"#utility.yul\":18143:18162   */\n      add\n        /* \"#utility.yul\":18135:18162   */\n      swap1\n      pop\n        /* \"#utility.yul\":18172:18243   */\n      tag_652\n        /* \"#utility.yul\":18240:18241   */\n      0x00\n        /* \"#utility.yul\":18229:18238   */\n      dup4\n        /* \"#utility.yul\":18225:18242   */\n      add\n        /* \"#utility.yul\":18216:18222   */\n      dup8\n        /* \"#utility.yul\":18172:18243   */\n      tag_602\n      jump\t// in\n    tag_652:\n        /* \"#utility.yul\":18253:18325   */\n      tag_653\n        /* \"#utility.yul\":18321:18323   */\n      0x20\n        /* \"#utility.yul\":18310:18319   */\n      dup4\n        /* \"#utility.yul\":18306:18324   */\n      add\n        /* \"#utility.yul\":18297:18303   */\n      dup7\n        /* \"#utility.yul\":18253:18325   */\n      tag_602\n      jump\t// in\n    tag_653:\n        /* \"#utility.yul\":18335:18407   */\n      tag_654\n        /* \"#utility.yul\":18403:18405   */\n      0x40\n        /* \"#utility.yul\":18392:18401   */\n      dup4\n        /* \"#utility.yul\":18388:18406   */\n      add\n        /* \"#utility.yul\":18379:18385   */\n      dup6\n        /* \"#utility.yul\":18335:18407   */\n      tag_602\n      jump\t// in\n    tag_654:\n        /* \"#utility.yul\":18417:18489   */\n      tag_655\n        /* \"#utility.yul\":18485:18487   */\n      0x60\n        /* \"#utility.yul\":18474:18483   */\n      dup4\n        /* \"#utility.yul\":18470:18488   */\n      add\n        /* \"#utility.yul\":18461:18467   */\n      dup5\n        /* \"#utility.yul\":18417:18489   */\n      tag_602\n      jump\t// in\n    tag_655:\n        /* \"#utility.yul\":17943:18496   */\n      swap6\n      swap5\n      pop\n      pop\n      pop\n      pop\n      pop\n      jump\t// out\n        /* \"#utility.yul\":18583:18715   */\n    tag_522:\n        /* \"#utility.yul\":18650:18654   */\n      0x00\n        /* \"#utility.yul\":18673:18676   */\n      dup2\n        /* \"#utility.yul\":18665:18676   */\n      swap1\n      pop\n        /* \"#utility.yul\":18703:18707   */\n      0x20\n        /* \"#utility.yul\":18698:18701   */\n      dup3\n        /* \"#utility.yul\":18694:18708   */\n      add\n        /* \"#utility.yul\":18686:18708   */\n      swap1\n      pop\n        /* \"#utility.yul\":18583:18715   */\n      swap2\n      swap1\n      pop\n      jump\t// out\n        /* \"#utility.yul\":18721:18835   */\n    tag_519:\n        /* \"#utility.yul\":18788:18794   */\n      0x00\n        /* \"#utility.yul\":18822:18827   */\n      dup2\n        /* \"#utility.yul\":18816:18828   */\n      mload\n        /* \"#utility.yul\":18806:18828   */\n      swap1\n      pop\n        /* \"#utility.yul\":18721:18835   */\n      swap2\n      swap1\n      pop\n      jump\t// out\n        /* \"#utility.yul\":18841:18939   */\n    tag_532:\n        /* \"#utility.yul\":18892:18898   */\n      0x00\n        /* \"#utility.yul\":18926:18931   */\n      dup2\n        /* \"#utility.yul\":18920:18932   */\n      mload\n        /* \"#utility.yul\":18910:18932   */\n      swap1\n      pop\n        /* \"#utility.yul\":18841:18939   */\n      swap2\n      swap1\n      pop\n      jump\t// out\n        /* \"#utility.yul\":18945:19044   */\n    tag_548:\n        /* \"#utility.yul\":18997:19003   */\n      0x00\n        /* \"#utility.yul\":19031:19036   */\n      dup2\n        /* \"#utility.yul\":19025:19037   */\n      mload\n        /* \"#utility.yul\":19015:19037   */\n      swap1\n      pop\n        /* \"#utility.yul\":18945:19044   */\n      swap2\n      swap1\n      pop\n      jump\t// out\n        /* \"#utility.yul\":19050:19163   */\n    tag_528:\n        /* \"#utility.yul\":19120:19124   */\n      0x00\n        /* \"#utility.yul\":19152:19156   */\n      0x20\n        /* \"#utility.yul\":19147:19150   */\n      dup3\n        /* \"#utility.yul\":19143:19157   */\n      add\n        /* \"#utility.yul\":19135:19157   */\n      swap1\n      pop\n        /* \"#utility.yul\":19050:19163   */\n      swap2\n      swap1\n      pop\n      jump\t// out\n        /* \"#utility.yul\":19169:19353   */\n    tag_510:\n        /* \"#utility.yul\":19268:19279   */\n      0x00\n        /* \"#utility.yul\":19302:19308   */\n      dup3\n        /* \"#utility.yul\":19297:19300   */\n      dup3\n        /* \"#utility.yul\":19290:19309   */\n      mstore\n        /* \"#utility.yul\":19342:19346   */\n      0x20\n        /* \"#utility.yul\":19337:19340   */\n      dup3\n        /* \"#utility.yul\":19333:19347   */\n      add\n        /* \"#utility.yul\":19318:19347   */\n      swap1\n      pop\n        /* \"#utility.yul\":19169:19353   */\n      swap3\n      swap2\n      pop\n      pop\n      jump\t// out\n        /* \"#utility.yul\":19359:19506   */\n    tag_534:\n        /* \"#utility.yul\":19460:19471   */\n      0x00\n        /* \"#utility.yul\":19497:19500   */\n      dup2\n        /* \"#utility.yul\":19482:19500   */\n      swap1\n      pop\n        /* \"#utility.yul\":19359:19506   */\n      swap3\n      swap2\n      pop\n      pop\n      jump\t// out\n        /* \"#utility.yul\":19512:19681   */\n    tag_550:\n        /* \"#utility.yul\":19596:19607   */\n      0x00\n        /* \"#utility.yul\":19630:19636   */\n      dup3\n        /* \"#utility.yul\":19625:19628   */\n      dup3\n        /* \"#utility.yul\":19618:19637   */\n      mstore\n        /* \"#utility.yul\":19670:19674   */\n      0x20\n        /* \"#utility.yul\":19665:19668   */\n      dup3\n        /* \"#utility.yul\":19661:19675   */\n      add\n        /* \"#utility.yul\":19646:19675   */\n      swap1\n      pop\n        /* \"#utility.yul\":19512:19681   */\n      swap3\n      swap2\n      pop\n      pop\n      jump\t// out\n        /* \"#utility.yul\":19687:19992   */\n    tag_133:\n        /* \"#utility.yul\":19727:19730   */\n      0x00\n        /* \"#utility.yul\":19746:19766   */\n      tag_667\n        /* \"#utility.yul\":19764:19765   */\n      dup3\n        /* \"#utility.yul\":19746:19766   */\n      tag_601\n      jump\t// in\n    tag_667:\n        /* \"#utility.yul\":19741:19766   */\n      swap2\n      pop\n        /* \"#utility.yul\":19780:19800   */\n      tag_668\n        /* \"#utility.yul\":19798:19799   */\n      dup4\n        /* \"#utility.yul\":19780:19800   */\n      tag_601\n      jump\t// in\n    tag_668:\n        /* \"#utility.yul\":19775:19800   */\n      swap3\n      pop\n        /* \"#utility.yul\":19934:19935   */\n      dup3\n        /* \"#utility.yul\":19866:19932   */\n      0xffffffffffffffffffffffffffffffffffffffffffffffffffffffffffffffff\n        /* \"#utility.yul\":19862:19936   */\n      sub\n        /* \"#utility.yul\":19859:19860   */\n      dup3\n        /* \"#utility.yul\":19856:19937   */\n      gt\n        /* \"#utility.yul\":19853:19960   */\n      iszero\n      tag_669\n      jumpi\n        /* \"#utility.yul\":19940:19958   */\n      tag_670\n      tag_671\n      jump\t// in\n    tag_670:\n        /* \"#utility.yul\":19853:19960   */\n    tag_669:\n        /* \"#utility.yul\":19984:19985   */\n      dup3\n        /* \"#utility.yul\":19981:19982   */\n      dup3\n        /* \"#utility.yul\":19977:19986   */\n      add\n        /* \"#utility.yul\":19970:19986   */\n      swap1\n      pop\n        /* \"#utility.yul\":19687:19992   */\n      swap3\n      swap2\n      pop\n      pop\n      jump\t// out\n        /* \"#utility.yul\":19998:20183   */\n    tag_378:\n        /* \"#utility.yul\":20038:20039   */\n      0x00\n        /* \"#utility.yul\":20055:20075   */\n      tag_673\n        /* \"#utility.yul\":20073:20074   */\n      dup3\n        /* \"#utility.yul\":20055:20075   */\n      tag_601\n      jump\t// in\n    tag_673:\n        /* \"#utility.yul\":20050:20075   */\n      swap2\n      pop\n        /* \"#utility.yul\":20089:20109   */\n      tag_674\n        /* \"#utility.yul\":20107:20108   */\n      dup4\n        /* \"#utility.yul\":20089:20109   */\n      tag_601\n      jump\t// in\n    tag_674:\n        /* \"#utility.yul\":20084:20109   */\n      swap3\n      pop\n        /* \"#utility.yul\":20128:20129   */\n      dup3\n        /* \"#utility.yul\":20118:20153   */\n      tag_675\n      jumpi\n        /* \"#utility.yul\":20133:20151   */\n      tag_676\n      tag_677\n      jump\t// in\n    tag_676:\n        /* \"#utility.yul\":20118:20153   */\n    tag_675:\n        /* \"#utility.yul\":20175:20176   */\n      dup3\n        /* \"#utility.yul\":20172:20173   */\n      dup3\n        /* \"#utility.yul\":20168:20177   */\n      div\n        /* \"#utility.yul\":20163:20177   */\n      swap1\n      pop\n        /* \"#utility.yul\":19998:20183   */\n      swap3\n      swap2\n      pop\n      pop\n      jump\t// out\n        /* \"#utility.yul\":20189:20537   */\n    tag_375:\n        /* \"#utility.yul\":20229:20236   */\n      0x00\n        /* \"#utility.yul\":20252:20272   */\n      tag_679\n        /* \"#utility.yul\":20270:20271   */\n      dup3\n        /* \"#utility.yul\":20252:20272   */\n      tag_601\n      jump\t// in\n    tag_679:\n        /* \"#utility.yul\":20247:20272   */\n      swap2\n      pop\n        /* \"#utility.yul\":20286:20306   */\n      tag_680\n        /* \"#utility.yul\":20304:20305   */\n      dup4\n        /* \"#utility.yul\":20286:20306   */\n      tag_601\n      jump\t// in\n    tag_680:\n        /* \"#utility.yul\":20281:20306   */\n      swap3\n      pop\n        /* \"#utility.yul\":20474:20475   */\n      dup2\n        /* \"#utility.yul\":20406:20472   */\n      0xffffffffffffffffffffffffffffffffffffffffffffffffffffffffffffffff\n        /* \"#utility.yul\":20402:20476   */\n      div\n        /* \"#utility.yul\":20399:20400   */\n      dup4\n        /* \"#utility.yul\":20396:20477   */\n      gt\n        /* \"#utility.yul\":20391:20392   */\n      dup3\n        /* \"#utility.yul\":20384:20393   */\n      iszero\n        /* \"#utility.yul\":20377:20394   */\n      iszero\n        /* \"#utility.yul\":20373:20478   */\n      and\n        /* \"#utility.yul\":20370:20501   */\n      iszero\n      tag_681\n      jumpi\n        /* \"#utility.yul\":20481:20499   */\n      tag_682\n      tag_671\n      jump\t// in\n    tag_682:\n        /* \"#utility.yul\":20370:20501   */\n    tag_681:\n        /* \"#utility.yul\":20529:20530   */\n      dup3\n        /* \"#utility.yul\":20526:20527   */\n      dup3\n        /* \"#utility.yul\":20522:20531   */\n      mul\n        /* \"#utility.yul\":20511:20531   */\n      swap1\n      pop\n        /* \"#utility.yul\":20189:20537   */\n      swap3\n      swap2\n      pop\n      pop\n      jump\t// out\n        /* \"#utility.yul\":20543:20734   */\n    tag_207:\n        /* \"#utility.yul\":20583:20587   */\n      0x00\n        /* \"#utility.yul\":20603:20623   */\n      tag_684\n        /* \"#utility.yul\":20621:20622   */\n      dup3\n        /* \"#utility.yul\":20603:20623   */\n      tag_601\n      jump\t// in\n    tag_684:\n        /* \"#utility.yul\":20598:20623   */\n      swap2\n      pop\n        /* \"#utility.yul\":20637:20657   */\n      tag_685\n        /* \"#utility.yul\":20655:20656   */\n      dup4\n        /* \"#utility.yul\":20637:20657   */\n      tag_601\n      jump\t// in\n    tag_685:\n        /* \"#utility.yul\":20632:20657   */\n      swap3\n      pop\n        /* \"#utility.yul\":20676:20677   */\n      dup3\n        /* \"#utility.yul\":20673:20674   */\n      dup3\n        /* \"#utility.yul\":20670:20678   */\n      lt\n        /* \"#utility.yul\":20667:20701   */\n      iszero\n      tag_686\n      jumpi\n        /* \"#utility.yul\":20681:20699   */\n      tag_687\n      tag_671\n      jump\t// in\n    tag_687:\n        /* \"#utility.yul\":20667:20701   */\n    tag_686:\n        /* \"#utility.yul\":20726:20727   */\n      dup3\n        /* \"#utility.yul\":20723:20724   */\n      dup3\n        /* \"#utility.yul\":20719:20728   */\n      sub\n        /* \"#utility.yul\":20711:20728   */\n      swap1\n      pop\n        /* \"#utility.yul\":20543:20734   */\n      swap3\n      swap2\n      pop\n      pop\n      jump\t// out\n        /* \"#utility.yul\":20740:20836   */\n    tag_506:\n        /* \"#utility.yul\":20777:20784   */\n      0x00\n        /* \"#utility.yul\":20806:20830   */\n      tag_689\n        /* \"#utility.yul\":20824:20829   */\n      dup3\n        /* \"#utility.yul\":20806:20830   */\n      tag_690\n      jump\t// in\n    tag_689:\n        /* \"#utility.yul\":20795:20830   */\n      swap1\n      pop\n        /* \"#utility.yul\":20740:20836   */\n      swap2\n      swap1\n      pop\n      jump\t// out\n        /* \"#utility.yul\":20842:20932   */\n    tag_691:\n        /* \"#utility.yul\":20876:20883   */\n      0x00\n        /* \"#utility.yul\":20919:20924   */\n      dup2\n        /* \"#utility.yul\":20912:20925   */\n      iszero\n        /* \"#utility.yul\":20905:20926   */\n      iszero\n        /* \"#utility.yul\":20894:20926   */\n      swap1\n      pop\n        /* \"#utility.yul\":20842:20932   */\n      swap2\n      swap1\n      pop\n      jump\t// out\n        /* \"#utility.yul\":20938:21064   */\n    tag_690:\n        /* \"#utility.yul\":20975:20982   */\n      0x00\n        /* \"#utility.yul\":21015:21057   */\n      0xffffffffffffffffffffffffffffffffffffffff\n        /* \"#utility.yul\":21008:21013   */\n      dup3\n        /* \"#utility.yul\":21004:21058   */\n      and\n        /* \"#utility.yul\":20993:21058   */\n      swap1\n      pop\n        /* \"#utility.yul\":20938:21064   */\n      swap2\n      swap1\n      pop\n      jump\t// out\n        /* \"#utility.yul\":21070:21147   */\n    tag_601:\n        /* \"#utility.yul\":21107:21114   */\n      0x00\n        /* \"#utility.yul\":21136:21141   */\n      dup2\n        /* \"#utility.yul\":21125:21141   */\n      swap1\n      pop\n        /* \"#utility.yul\":21070:21147   */\n      swap2\n      swap1\n      pop\n      jump\t// out\n        /* \"#utility.yul\":21153:21293   */\n    tag_540:\n        /* \"#utility.yul\":21217:21226   */\n      0x00\n        /* \"#utility.yul\":21250:21287   */\n      tag_696\n        /* \"#utility.yul\":21281:21286   */\n      dup3\n        /* \"#utility.yul\":21250:21287   */\n      tag_697\n      jump\t// in\n    tag_696:\n        /* \"#utility.yul\":21237:21287   */\n      swap1\n      pop\n        /* \"#utility.yul\":21153:21293   */\n      swap2\n      swap1\n      pop\n      jump\t// out\n        /* \"#utility.yul\":21299:21441   */\n    tag_544:\n        /* \"#utility.yul\":21365:21374   */\n      0x00\n        /* \"#utility.yul\":21398:21435   */\n      tag_699\n        /* \"#utility.yul\":21429:21434   */\n      dup3\n        /* \"#utility.yul\":21398:21435   */\n      tag_697\n      jump\t// in\n    tag_699:\n        /* \"#utility.yul\":21385:21435   */\n      swap1\n      pop\n        /* \"#utility.yul\":21299:21441   */\n      swap2\n      swap1\n      pop\n      jump\t// out\n        /* \"#utility.yul\":21447:21573   */\n    tag_697:\n        /* \"#utility.yul\":21497:21506   */\n      0x00\n        /* \"#utility.yul\":21530:21567   */\n      tag_701\n        /* \"#utility.yul\":21561:21566   */\n      dup3\n        /* \"#utility.yul\":21530:21567   */\n      tag_702\n      jump\t// in\n    tag_701:\n        /* \"#utility.yul\":21517:21567   */\n      swap1\n      pop\n        /* \"#utility.yul\":21447:21573   */\n      swap2\n      swap1\n      pop\n      jump\t// out\n        /* \"#utility.yul\":21579:21692   */\n    tag_702:\n        /* \"#utility.yul\":21629:21638   */\n      0x00\n        /* \"#utility.yul\":21662:21686   */\n      tag_704\n        /* \"#utility.yul\":21680:21685   */\n      dup3\n        /* \"#utility.yul\":21662:21686   */\n      tag_690\n      jump\t// in\n    tag_704:\n        /* \"#utility.yul\":21649:21686   */\n      swap1\n      pop\n        /* \"#utility.yul\":21579:21692   */\n      swap2\n      swap1\n      pop\n      jump\t// out\n        /* \"#utility.yul\":21698:21852   */\n    tag_515:\n        /* \"#utility.yul\":21782:21788   */\n      dup3\n        /* \"#utility.yul\":21777:21780   */\n      dup2\n        /* \"#utility.yul\":21772:21775   */\n      dup4\n        /* \"#utility.yul\":21759:21789   */\n      calldatacopy\n        /* \"#utility.yul\":21844:21845   */\n      0x00\n        /* \"#utility.yul\":21835:21841   */\n      dup4\n        /* \"#utility.yul\":21830:21833   */\n      dup4\n        /* \"#utility.yul\":21826:21842   */\n      add\n        /* \"#utility.yul\":21819:21846   */\n      mstore\n        /* \"#utility.yul\":21698:21852   */\n      pop\n      pop\n      pop\n      jump\t// out\n        /* \"#utility.yul\":21858:22165   */\n    tag_536:\n        /* \"#utility.yul\":21926:21927   */\n      0x00\n        /* \"#utility.yul\":21936:22049   */\n    tag_707:\n        /* \"#utility.yul\":21950:21956   */\n      dup4\n        /* \"#utility.yul\":21947:21948   */\n      dup2\n        /* \"#utility.yul\":21944:21957   */\n      lt\n        /* \"#utility.yul\":21936:22049   */\n      iszero\n      tag_709\n      jumpi\n        /* \"#utility.yul\":22035:22036   */\n      dup1\n        /* \"#utility.yul\":22030:22033   */\n      dup3\n        /* \"#utility.yul\":22026:22037   */\n      add\n        /* \"#utility.yul\":22020:22038   */\n      mload\n        /* \"#utility.yul\":22016:22017   */\n      dup2\n        /* \"#utility.yul\":22011:22014   */\n      dup5\n        /* \"#utility.yul\":22007:22018   */\n      add\n        /* \"#utility.yul\":22000:22039   */\n      mstore\n        /* \"#utility.yul\":21972:21974   */\n      0x20\n        /* \"#utility.yul\":21969:21970   */\n      dup2\n        /* \"#utility.yul\":21965:21975   */\n      add\n        /* \"#utility.yul\":21960:21975   */\n      swap1\n      pop\n        /* \"#utility.yul\":21936:22049   */\n      jump(tag_707)\n    tag_709:\n        /* \"#utility.yul\":22067:22073   */\n      dup4\n        /* \"#utility.yul\":22064:22065   */\n      dup2\n        /* \"#utility.yul\":22061:22074   */\n      gt\n        /* \"#utility.yul\":22058:22159   */\n      iszero\n      tag_710\n      jumpi\n        /* \"#utility.yul\":22147:22148   */\n      0x00\n        /* \"#utility.yul\":22138:22144   */\n      dup5\n        /* \"#utility.yul\":22133:22136   */\n      dup5\n        /* \"#utility.yul\":22129:22145   */\n      add\n        /* \"#utility.yul\":22122:22149   */\n      mstore\n        /* \"#utility.yul\":22058:22159   */\n    tag_710:\n        /* \"#utility.yul\":21907:22165   */\n      pop\n        /* \"#utility.yul\":21858:22165   */\n      pop\n      pop\n      pop\n      jump\t// out\n        /* \"#utility.yul\":22171:22404   */\n    tag_142:\n        /* \"#utility.yul\":22210:22213   */\n      0x00\n        /* \"#utility.yul\":22233:22257   */\n      tag_712\n        /* \"#utility.yul\":22251:22256   */\n      dup3\n        /* \"#utility.yul\":22233:22257   */\n      tag_601\n      jump\t// in\n    tag_712:\n        /* \"#utility.yul\":22224:22257   */\n      swap2\n      pop\n        /* \"#utility.yul\":22279:22345   */\n      0xffffffffffffffffffffffffffffffffffffffffffffffffffffffffffffffff\n        /* \"#utility.yul\":22272:22277   */\n      dup3\n        /* \"#utility.yul\":22269:22346   */\n      eq\n        /* \"#utility.yul\":22266:22369   */\n      iszero\n      tag_713\n      jumpi\n        /* \"#utility.yul\":22349:22367   */\n      tag_714\n      tag_671\n      jump\t// in\n    tag_714:\n        /* \"#utility.yul\":22266:22369   */\n    tag_713:\n        /* \"#utility.yul\":22396:22397   */\n      0x01\n        /* \"#utility.yul\":22389:22394   */\n      dup3\n        /* \"#utility.yul\":22385:22398   */\n      add\n        /* \"#utility.yul\":22378:22398   */\n      swap1\n      pop\n        /* \"#utility.yul\":22171:22404   */\n      swap2\n      swap1\n      pop\n      jump\t// out\n        /* \"#utility.yul\":22410:22590   */\n    tag_671:\n        /* \"#utility.yul\":22458:22535   */\n      0x4e487b7100000000000000000000000000000000000000000000000000000000\n        /* \"#utility.yul\":22455:22456   */\n      0x00\n        /* \"#utility.yul\":22448:22536   */\n      mstore\n        /* \"#utility.yul\":22555:22559   */\n      0x11\n        /* \"#utility.yul\":22552:22553   */\n      0x04\n        /* \"#utility.yul\":22545:22560   */\n      mstore\n        /* \"#utility.yul\":22579:22583   */\n      0x24\n        /* \"#utility.yul\":22576:22577   */\n      0x00\n        /* \"#utility.yul\":22569:22584   */\n      revert\n        /* \"#utility.yul\":22596:22776   */\n    tag_677:\n        /* \"#utility.yul\":22644:22721   */\n      0x4e487b7100000000000000000000000000000000000000000000000000000000\n        /* \"#utility.yul\":22641:22642   */\n      0x00\n        /* \"#utility.yul\":22634:22722   */\n      mstore\n        /* \"#utility.yul\":22741:22745   */\n      0x12\n        /* \"#utility.yul\":22738:22739   */\n      0x04\n        /* \"#utility.yul\":22731:22746   */\n      mstore\n        /* \"#utility.yul\":22765:22769   */\n      0x24\n        /* \"#utility.yul\":22762:22763   */\n      0x00\n        /* \"#utility.yul\":22755:22770   */\n      revert\n        /* \"#utility.yul\":22782:22962   */\n    tag_114:\n        /* \"#utility.yul\":22830:22907   */\n      0x4e487b7100000000000000000000000000000000000000000000000000000000\n        /* \"#utility.yul\":22827:22828   */\n      0x00\n        /* \"#utility.yul\":22820:22908   */\n      mstore\n        /* \"#utility.yul\":22927:22931   */\n      0x32\n        /* \"#utility.yul\":22924:22925   */\n      0x04\n        /* \"#utility.yul\":22917:22932   */\n      mstore\n        /* \"#utility.yul\":22951:22955   */\n      0x24\n        /* \"#utility.yul\":22948:22949   */\n      0x00\n        /* \"#utility.yul\":22941:22956   */\n      revert\n        /* \"#utility.yul\":22968:23148   */\n    tag_193:\n        /* \"#utility.yul\":23016:23093   */\n      0x4e487b7100000000000000000000000000000000000000000000000000000000\n        /* \"#utility.yul\":23013:23014   */\n      0x00\n        /* \"#utility.yul\":23006:23094   */\n      mstore\n        /* \"#utility.yul\":23113:23117   */\n      0x41\n        /* \"#utility.yul\":23110:23111   */\n      0x04\n        /* \"#utility.yul\":23103:23118   */\n      mstore\n        /* \"#utility.yul\":23137:23141   */\n      0x24\n        /* \"#utility.yul\":23134:23135   */\n      0x00\n        /* \"#utility.yul\":23127:23142   */\n      revert\n        /* \"#utility.yul\":23154:23271   */\n    tag_451:\n        /* \"#utility.yul\":23263:23264   */\n      0x00\n        /* \"#utility.yul\":23260:23261   */\n      dup1\n        /* \"#utility.yul\":23253:23265   */\n      revert\n        /* \"#utility.yul\":23277:23394   */\n    tag_448:\n        /* \"#utility.yul\":23386:23387   */\n      0x00\n        /* \"#utility.yul\":23383:23384   */\n      dup1\n        /* \"#utility.yul\":23376:23388   */\n      revert\n        /* \"#utility.yul\":23400:23517   */\n    tag_454:\n        /* \"#utility.yul\":23509:23510   */\n      0x00\n        /* \"#utility.yul\":23506:23507   */\n      dup1\n        /* \"#utility.yul\":23499:23511   */\n      revert\n        /* \"#utility.yul\":23523:23640   */\n    tag_480:\n        /* \"#utility.yul\":23632:23633   */\n      0x00\n        /* \"#utility.yul\":23629:23630   */\n      dup1\n        /* \"#utility.yul\":23622:23634   */\n      revert\n        /* \"#utility.yul\":23646:23763   */\n    tag_513:\n        /* \"#utility.yul\":23755:23756   */\n      0x00\n        /* \"#utility.yul\":23752:23753   */\n      dup1\n        /* \"#utility.yul\":23745:23757   */\n      revert\n        /* \"#utility.yul\":23769:23886   */\n    tag_469:\n        /* \"#utility.yul\":23878:23879   */\n      0x00\n        /* \"#utility.yul\":23875:23876   */\n      dup1\n        /* \"#utility.yul\":23868:23880   */\n      revert\n        /* \"#utility.yul\":23892:23994   */\n    tag_553:\n        /* \"#utility.yul\":23933:23939   */\n      0x00\n        /* \"#utility.yul\":23984:23986   */\n      0x1f\n        /* \"#utility.yul\":23980:23987   */\n      not\n        /* \"#utility.yul\":23975:23977   */\n      0x1f\n        /* \"#utility.yul\":23968:23973   */\n      dup4\n        /* \"#utility.yul\":23964:23978   */\n      add\n        /* \"#utility.yul\":23960:23988   */\n      and\n        /* \"#utility.yul\":23950:23988   */\n      swap1\n      pop\n        /* \"#utility.yul\":23892:23994   */\n      swap2\n      swap1\n      pop\n      jump\t// out\n        /* \"#utility.yul\":24000:24174   */\n    tag_558:\n        /* \"#utility.yul\":24140:24166   */\n      0x4e4654205374616b696e673a20456d7074792041727261790000000000000000\n        /* \"#utility.yul\":24136:24137   */\n      0x00\n        /* \"#utility.yul\":24128:24134   */\n      dup3\n        /* \"#utility.yul\":24124:24138   */\n      add\n        /* \"#utility.yul\":24117:24167   */\n      mstore\n        /* \"#utility.yul\":24000:24174   */\n      pop\n      jump\t// out\n        /* \"#utility.yul\":24180:24409   */\n    tag_563:\n        /* \"#utility.yul\":24320:24354   */\n      0x5361666542455032303a204245503230206f7065726174696f6e20646964206e\n        /* \"#utility.yul\":24316:24317   */\n      0x00\n        /* \"#utility.yul\":24308:24314   */\n      dup3\n        /* \"#utility.yul\":24304:24318   */\n      add\n        /* \"#utility.yul\":24297:24355   */\n      mstore\n        /* \"#utility.yul\":24389:24401   */\n      0x6f74207375636365656400000000000000000000000000000000000000000000\n        /* \"#utility.yul\":24384:24386   */\n      0x20\n        /* \"#utility.yul\":24376:24382   */\n      dup3\n        /* \"#utility.yul\":24372:24387   */\n      add\n        /* \"#utility.yul\":24365:24402   */\n      mstore\n        /* \"#utility.yul\":24180:24409   */\n      pop\n      jump\t// out\n        /* \"#utility.yul\":24415:24640   */\n    tag_568:\n        /* \"#utility.yul\":24555:24589   */\n      0x4f776e61626c653a206e6577206f776e657220697320746865207a65726f2061\n        /* \"#utility.yul\":24551:24552   */\n      0x00\n        /* \"#utility.yul\":24543:24549   */\n      dup3\n        /* \"#utility.yul\":24539:24553   */\n      add\n        /* \"#utility.yul\":24532:24590   */\n      mstore\n        /* \"#utility.yul\":24624:24632   */\n      0x6464726573730000000000000000000000000000000000000000000000000000\n        /* \"#utility.yul\":24619:24621   */\n      0x20\n        /* \"#utility.yul\":24611:24617   */\n      dup3\n        /* \"#utility.yul\":24607:24622   */\n      add\n        /* \"#utility.yul\":24600:24633   */\n      mstore\n        /* \"#utility.yul\":24415:24640   */\n      pop\n      jump\t// out\n        /* \"#utility.yul\":24646:24882   */\n    tag_573:\n        /* \"#utility.yul\":24786:24820   */\n      0x4e4654205374616b696e673a206475706c696361746520746f6b656e20696473\n        /* \"#utility.yul\":24782:24783   */\n      0x00\n        /* \"#utility.yul\":24774:24780   */\n      dup3\n        /* \"#utility.yul\":24770:24784   */\n      add\n        /* \"#utility.yul\":24763:24821   */\n      mstore\n        /* \"#utility.yul\":24855:24874   */\n      0x20696e20696e70757420706172616d732e000000000000000000000000000000\n        /* \"#utility.yul\":24850:24852   */\n      0x20\n        /* \"#utility.yul\":24842:24848   */\n      dup3\n        /* \"#utility.yul\":24838:24853   */\n      add\n        /* \"#utility.yul\":24831:24875   */\n      mstore\n        /* \"#utility.yul\":24646:24882   */\n      pop\n      jump\t// out\n        /* \"#utility.yul\":24888:25070   */\n    tag_578:\n        /* \"#utility.yul\":25028:25062   */\n      0x4e4654205374616b696e673a206e6f74206f776e6572206f6620746f6b656e2e\n        /* \"#utility.yul\":25024:25025   */\n      0x00\n        /* \"#utility.yul\":25016:25022   */\n      dup3\n        /* \"#utility.yul\":25012:25026   */\n      add\n        /* \"#utility.yul\":25005:25063   */\n      mstore\n        /* \"#utility.yul\":24888:25070   */\n      pop\n      jump\t// out\n        /* \"#utility.yul\":25076:25258   */\n    tag_583:\n        /* \"#utility.yul\":25216:25250   */\n      0x4f776e61626c653a2063616c6c6572206973206e6f7420746865206f776e6572\n        /* \"#utility.yul\":25212:25213   */\n      0x00\n        /* \"#utility.yul\":25204:25210   */\n      dup3\n        /* \"#utility.yul\":25200:25214   */\n      add\n        /* \"#utility.yul\":25193:25251   */\n      mstore\n        /* \"#utility.yul\":25076:25258   */\n      pop\n      jump\t// out\n        /* \"#utility.yul\":25264:25444   */\n    tag_588:\n        /* \"#utility.yul\":25404:25436   */\n      0x736574486172766573744665653a2066656550657263656e74203e2034300000\n        /* \"#utility.yul\":25400:25401   */\n      0x00\n        /* \"#utility.yul\":25392:25398   */\n      dup3\n        /* \"#utility.yul\":25388:25402   */\n      add\n        /* \"#utility.yul\":25381:25437   */\n      mstore\n        /* \"#utility.yul\":25264:25444   */\n      pop\n      jump\t// out\n        /* \"#utility.yul\":25450:25629   */\n    tag_593:\n        /* \"#utility.yul\":25590:25621   */\n      0x416464726573733a2063616c6c20746f206e6f6e2d636f6e7472616374000000\n        /* \"#utility.yul\":25586:25587   */\n      0x00\n        /* \"#utility.yul\":25578:25584   */\n      dup3\n        /* \"#utility.yul\":25574:25588   */\n      add\n        /* \"#utility.yul\":25567:25622   */\n      mstore\n        /* \"#utility.yul\":25450:25629   */\n      pop\n      jump\t// out\n        /* \"#utility.yul\":25635:25879   */\n    tag_598:\n        /* \"#utility.yul\":25775:25809   */\n      0x4e667420556e7374616b696e673a20746f6b656e206e6f74207374616b656420\n        /* \"#utility.yul\":25771:25772   */\n      0x00\n        /* \"#utility.yul\":25763:25769   */\n      dup3\n        /* \"#utility.yul\":25759:25773   */\n      add\n        /* \"#utility.yul\":25752:25810   */\n      mstore\n        /* \"#utility.yul\":25844:25871   */\n      0x6f7220696e636f727265637420746f6b656e206f776e65722e00000000000000\n        /* \"#utility.yul\":25839:25841   */\n      0x20\n        /* \"#utility.yul\":25831:25837   */\n      dup3\n        /* \"#utility.yul\":25827:25842   */\n      add\n        /* \"#utility.yul\":25820:25872   */\n      mstore\n        /* \"#utility.yul\":25635:25879   */\n      pop\n      jump\t// out\n        /* \"#utility.yul\":25885:26007   */\n    tag_440:\n        /* \"#utility.yul\":25958:25982   */\n      tag_736\n        /* \"#utility.yul\":25976:25981   */\n      dup2\n        /* \"#utility.yul\":25958:25982   */\n      tag_506\n      jump\t// in\n    tag_736:\n        /* \"#utility.yul\":25951:25956   */\n      dup2\n        /* \"#utility.yul\":25948:25983   */\n      eq\n        /* \"#utility.yul\":25938:26001   */\n      tag_737\n      jumpi\n        /* \"#utility.yul\":25997:25998   */\n      0x00\n        /* \"#utility.yul\":25994:25995   */\n      dup1\n        /* \"#utility.yul\":25987:25999   */\n      revert\n        /* \"#utility.yul\":25938:26001   */\n    tag_737:\n        /* \"#utility.yul\":25885:26007   */\n      pop\n      jump\t// out\n        /* \"#utility.yul\":26013:26129   */\n    tag_458:\n        /* \"#utility.yul\":26083:26104   */\n      tag_739\n        /* \"#utility.yul\":26098:26103   */\n      dup2\n        /* \"#utility.yul\":26083:26104   */\n      tag_691\n      jump\t// in\n    tag_739:\n        /* \"#utility.yul\":26076:26081   */\n      dup2\n        /* \"#utility.yul\":26073:26105   */\n      eq\n        /* \"#utility.yul\":26063:26123   */\n      tag_740\n      jumpi\n        /* \"#utility.yul\":26119:26120   */\n      0x00\n        /* \"#utility.yul\":26116:26117   */\n      dup1\n        /* \"#utility.yul\":26109:26121   */\n      revert\n        /* \"#utility.yul\":26063:26123   */\n    tag_740:\n        /* \"#utility.yul\":26013:26129   */\n      pop\n      jump\t// out\n        /* \"#utility.yul\":26135:26257   */\n    tag_462:\n        /* \"#utility.yul\":26208:26232   */\n      tag_742\n        /* \"#utility.yul\":26226:26231   */\n      dup2\n        /* \"#utility.yul\":26208:26232   */\n      tag_601\n      jump\t// in\n    tag_742:\n        /* \"#utility.yul\":26201:26206   */\n      dup2\n        /* \"#utility.yul\":26198:26233   */\n      eq\n        /* \"#utility.yul\":26188:26251   */\n      tag_743\n      jumpi\n        /* \"#utility.yul\":26247:26248   */\n      0x00\n        /* \"#utility.yul\":26244:26245   */\n      dup1\n        /* \"#utility.yul\":26237:26249   */\n      revert\n        /* \"#utility.yul\":26188:26251   */\n    tag_743:\n        /* \"#utility.yul\":26135:26257   */\n      pop\n      jump\t// out\n\n    auxdata: 0xa26469706673582212209f0f0306562c7050fb4362a04b54d39be153609b603d55ccfc8ff86b01f4291b64736f6c63430008070033\n}\n",
				"bytecode": {
					"linkReferences": {},
					"object": "60c06040523480156200001157600080fd5b50604051620036933803806200369383398181016040528101906200003791906200023f565b620000576200004b6200011760201b60201c565b6200011f60201b60201c565b8373ffffffffffffffffffffffffffffffffffffffff1660808173ffffffffffffffffffffffffffffffffffffffff1660601b815250508273ffffffffffffffffffffffffffffffffffffffff1660a08173ffffffffffffffffffffffffffffffffffffffff1660601b815250508160038190555080600460006101000a81548173ffffffffffffffffffffffffffffffffffffffff021916908373ffffffffffffffffffffffffffffffffffffffff1602179055505050505062000384565b600033905090565b60008060009054906101000a900473ffffffffffffffffffffffffffffffffffffffff169050816000806101000a81548173ffffffffffffffffffffffffffffffffffffffff021916908373ffffffffffffffffffffffffffffffffffffffff1602179055508173ffffffffffffffffffffffffffffffffffffffff168173ffffffffffffffffffffffffffffffffffffffff167f8be0079c531659141344cd1fd0a4f28419497f9722a3daafe3b4186f6b6457e060405160405180910390a35050565b600081519050620001f4816200031c565b92915050565b6000815190506200020b8162000336565b92915050565b600081519050620002228162000350565b92915050565b60008151905062000239816200036a565b92915050565b600080600080608085870312156200025c576200025b62000317565b5b60006200026c8782880162000211565b94505060206200027f87828801620001fa565b9350506040620002928782880162000228565b9250506060620002a587828801620001e3565b91505092959194509250565b6000620002be82620002ed565b9050919050565b6000620002d282620002b1565b9050919050565b6000620002e682620002b1565b9050919050565b600073ffffffffffffffffffffffffffffffffffffffff82169050919050565b6000819050919050565b600080fd5b6200032781620002b1565b81146200033357600080fd5b50565b6200034181620002c5565b81146200034d57600080fd5b50565b6200035b81620002d9565b81146200036757600080fd5b50565b62000375816200030d565b81146200038157600080fd5b50565b60805160601c60a05160601c61328f62000404600039600081816109cc01528181610a7201528181610d2101528181610dd001528181610e8101528181610ec801528181610f770152818161104a0152818161171901526117c801526000818161044d0152818161083f015281816114920152611b2f015261328f6000f3fe608060405234801561001057600080fd5b50600436106101425760003560e01c80638ae39cac116100b8578063b59629171161007c578063b59629171461031e578063d06fcba81461033c578063d086c2541461035a578063e449f3411461038a578063f25f4b56146103a6578063f2fde38b146103c457610142565b80638ae39cac146102785780638da5cb5b146102965780638dbb1e3a146102b457806390d49b9d146102e4578063a9f8d1811461030057610142565b806343db3c5f1161010a57806343db3c5f146101ee5780634641257d1461020c578063567e98f9146102165780635e42b45514610234578063715018a614610252578063792b55b61461025c57610142565b80630fbf0a93146101475780631959a0021461016357806319fca9f6146101965780631e2720ff146101b45780632955c60c146101d0575b600080fd5b610161600480360381019061015c91906125ba565b6103e0565b005b61017d60048036038101906101789190612560565b61099a565b60405161018d9493929190612c40565b60405180910390f35b61019e6109ca565b6040516101ab9190612aad565b60405180910390f35b6101ce60048036038101906101c99190612634565b6109ee565b005b6101d8610b23565b6040516101e59190612a8b565b60405180910390f35b6101f6610c8c565b6040516102039190612c25565b60405180910390f35b610214610c92565b005b61021e611119565b60405161022b9190612c25565b60405180910390f35b61023c61111f565b6040516102499190612c25565b60405180910390f35b61025a61118a565b005b61027660048036038101906102719190612634565b611212565b005b610280611313565b60405161028d9190612c25565b60405180910390f35b61029e611319565b6040516102ab91906129a7565b60405180910390f35b6102ce60048036038101906102c9919061268e565b611342565b6040516102db9190612c25565b60405180910390f35b6102fe60048036038101906102f99190612560565b61135f565b005b610308611484565b6040516103159190612c25565b60405180910390f35b61032661148a565b6040516103339190612c25565b60405180910390f35b610344611490565b6040516103519190612ac8565b60405180910390f35b610374600480360381019061036f9190612560565b6114b4565b6040516103819190612c25565b60405180910390f35b6103a4600480360381019061039f91906125ba565b611503565b005b6103ae611c9d565b6040516103bb91906129a7565b60405180910390f35b6103de60048036038101906103d99190612560565b611cc3565b005b60008282905011610426576040517f08c379a000000000000000000000000000000000000000000000000000000000815260040161041d90612b05565b60405180910390fd5b60005b8282905081101561068b573373ffffffffffffffffffffffffffffffffffffffff167f000000000000000000000000000000000000000000000000000000000000000073ffffffffffffffffffffffffffffffffffffffff16636352211e85858581811061049a57610499612f7e565b5b905060200201356040518263ffffffff1660e01b81526004016104bd9190612c25565b60206040518083038186803b1580156104d557600080fd5b505afa1580156104e9573d6000803e3d6000fd5b505050506040513d601f19601f8201168201806040525081019061050d919061258d565b73ffffffffffffffffffffffffffffffffffffffff1614610563576040517f08c379a000000000000000000000000000000000000000000000000000000000815260040161055a90612b85565b60405180910390fd5b6000600a600085858581811061057c5761057b612f7e565b5b90506020020135815260200190815260200160002054146105d2576040517f08c379a00000000000000000000000000000000000000000000000000000000081526004016105c990612c05565b60405180910390fd5b60006001826105e19190612cf0565b90505b838390508110156106775783838281811061060257610601612f7e565b5b9050602002013584848481811061061c5761061b612f7e565b5b905060200201351415610664576040517f08c379a000000000000000000000000000000000000000000000000000000000815260040161065b90612b65565b60405180910390fd5b808061066f90612ed7565b9150506105e4565b50808061068390612ed7565b915050610429565b50610694611dbb565b6000600b60003373ffffffffffffffffffffffffffffffffffffffff1673ffffffffffffffffffffffffffffffffffffffff168152602001908152602001600020905060008160000154111561074f57600061072c826001015461071e64e8d4a510006107106002548760000154611eef90919063ffffffff16565b611f0590919063ffffffff16565b611f1b90919063ffffffff16565b9050610745818360020154611f3190919063ffffffff16565b8260020181905550505b600083839050905061076c81600654611f3190919063ffffffff16565b60068190555060005b848490508110156108f85784848281811061079357610792612f7e565b5b90506020020135600960003373ffffffffffffffffffffffffffffffffffffffff1673ffffffffffffffffffffffffffffffffffffffff16815260200190815260200160002060008386600001546107eb9190612cf0565b81526020019081526020016000208190555080836000015461080d9190612cf0565b600a600087878581811061082457610823612f7e565b5b905060200201358152602001908152602001600020819055507f000000000000000000000000000000000000000000000000000000000000000073ffffffffffffffffffffffffffffffffffffffff166323b872dd333088888681811061088e5761088d612f7e565b5b905060200201356040518463ffffffff1660e01b81526004016108b3939291906129c2565b600060405180830381600087803b1580156108cd57600080fd5b505af11580156108e1573d6000803e3d6000fd5b5050505080806108f090612ed7565b915050610775565b50610910818360000154611f3190919063ffffffff16565b826000018190555061094864e8d4a5100061093a6002548560000154611eef90919063ffffffff16565b611f0590919063ffffffff16565b82600101819055504282600301819055507f134b166c6094cc1ccbf1e3353ce5c3cd9fd29869051bdb999895854d77cc5ef633858560405161098c939291906129f9565b60405180910390a150505050565b600b6020528060005260406000206000915090508060000154908060010154908060020154908060030154905084565b7f000000000000000000000000000000000000000000000000000000000000000081565b6109f6611f47565b73ffffffffffffffffffffffffffffffffffffffff16610a14611319565b73ffffffffffffffffffffffffffffffffffffffff1614610a6a576040517f08c379a0000000000000000000000000000000000000000000000000000000008152600401610a6190612ba5565b60405180910390fd5b610ab73330837f000000000000000000000000000000000000000000000000000000000000000073ffffffffffffffffffffffffffffffffffffffff16611f4f909392919063ffffffff16565b3373ffffffffffffffffffffffffffffffffffffffff167f4f7fd5c9e17300a4800fd572ea53fc291e2ee7470d73346d16b357faee4e721082604051610afd9190612c25565b60405180910390a2610b1a81600754611f3190919063ffffffff16565b60078190555050565b60606000600b60003373ffffffffffffffffffffffffffffffffffffffff1673ffffffffffffffffffffffffffffffffffffffff1681526020019081526020016000206000015467ffffffffffffffff811115610b8357610b82612fad565b5b604051908082528060200260200182016040528015610bb15781602001602082028036833780820191505090505b50905060005b600b60003373ffffffffffffffffffffffffffffffffffffffff1673ffffffffffffffffffffffffffffffffffffffff16815260200190815260200160002060000154811015610c8457600960003373ffffffffffffffffffffffffffffffffffffffff1673ffffffffffffffffffffffffffffffffffffffff168152602001908152602001600020600082815260200190815260200160002054828281518110610c6557610c64612f7e565b5b6020026020010181815250508080610c7c90612ed7565b915050610bb7565b508091505090565b60025481565b6000610c9d33611fd8565b90506000600b60003373ffffffffffffffffffffffffffffffffffffffff1673ffffffffffffffffffffffffffffffffffffffff16815260200190815260200160002090506000610d0c6064610cfe60055486611eef90919063ffffffff16565b611f0590919063ffffffff16565b905060008184610d1c9190612dd1565b9050807f000000000000000000000000000000000000000000000000000000000000000073ffffffffffffffffffffffffffffffffffffffff166370a08231306040518263ffffffff1660e01b8152600401610d7891906129a7565b60206040518083038186803b158015610d9057600080fd5b505afa158015610da4573d6000803e3d6000fd5b505050506040513d601f19601f82011682018060405250810190610dc89190612661565b1015610e7a577f000000000000000000000000000000000000000000000000000000000000000073ffffffffffffffffffffffffffffffffffffffff166370a08231306040518263ffffffff1660e01b8152600401610e2791906129a7565b60206040518083038186803b158015610e3f57600080fd5b505afa158015610e53573d6000803e3d6000fd5b505050506040513d601f19601f82011682018060405250810190610e779190612661565b90505b610ec533827f000000000000000000000000000000000000000000000000000000000000000073ffffffffffffffffffffffffffffffffffffffff1661210b9092919063ffffffff16565b817f000000000000000000000000000000000000000000000000000000000000000073ffffffffffffffffffffffffffffffffffffffff166370a08231306040518263ffffffff1660e01b8152600401610f1f91906129a7565b60206040518083038186803b158015610f3757600080fd5b505afa158015610f4b573d6000803e3d6000fd5b505050506040513d601f19601f82011682018060405250810190610f6f9190612661565b1015611021577f000000000000000000000000000000000000000000000000000000000000000073ffffffffffffffffffffffffffffffffffffffff166370a08231306040518263ffffffff1660e01b8152600401610fce91906129a7565b60206040518083038186803b158015610fe657600080fd5b505afa158015610ffa573d6000803e3d6000fd5b505050506040513d601f19601f8201168201806040525081019061101e9190612661565b91505b61108e600460009054906101000a900473ffffffffffffffffffffffffffffffffffffffff16837f000000000000000000000000000000000000000000000000000000000000000073ffffffffffffffffffffffffffffffffffffffff1661210b9092919063ffffffff16565b611096611dbb565b600083600201819055506110d064e8d4a510006110c26002548660000154611eef90919063ffffffff16565b611f0590919063ffffffff16565b83600101819055507f71bab65ced2e5750775a0613be067df48ef06cf92a496ebf7663ae066092495433828460405161110b93929190612a54565b60405180910390a150505050565b60065481565b6000600154431180156111355750600060065414155b1561118157600061114860015443611342565b9050600061116160035483611eef90919063ffffffff16565b905061117881600754611f1b90919063ffffffff16565b92505050611187565b60075490505b90565b611192611f47565b73ffffffffffffffffffffffffffffffffffffffff166111b0611319565b73ffffffffffffffffffffffffffffffffffffffff1614611206576040517f08c379a00000000000000000000000000000000000000000000000000000000081526004016111fd90612ba5565b60405180910390fd5b6112106000612191565b565b61121a611f47565b73ffffffffffffffffffffffffffffffffffffffff16611238611319565b73ffffffffffffffffffffffffffffffffffffffff161461128e576040517f08c379a000000000000000000000000000000000000000000000000000000000815260040161128590612ba5565b60405180910390fd5b60288111156112d2576040517f08c379a00000000000000000000000000000000000000000000000000000000081526004016112c990612bc5565b60405180910390fd5b806005819055507ff419800a2d8930c61d5d9cd782aa72c512cf6be2f79da6db0b8855870b7269ed816040516113089190612c25565b60405180910390a150565b60035481565b60008060009054906101000a900473ffffffffffffffffffffffffffffffffffffffff16905090565b60006113578383611f1b90919063ffffffff16565b905092915050565b611367611f47565b73ffffffffffffffffffffffffffffffffffffffff16611385611319565b73ffffffffffffffffffffffffffffffffffffffff16146113db576040517f08c379a00000000000000000000000000000000000000000000000000000000081526004016113d290612ba5565b60405180910390fd5b80600460006101000a81548173ffffffffffffffffffffffffffffffffffffffff021916908373ffffffffffffffffffffffffffffffffffffffff160217905550600460009054906101000a900473ffffffffffffffffffffffffffffffffffffffff1673ffffffffffffffffffffffffffffffffffffffff167f3d21e5a2b633291bd1ff5f9c654e402d063783c95759d2ea521b31fb30e4da4160405160405180910390a250565b60015481565b60055481565b7f000000000000000000000000000000000000000000000000000000000000000081565b6000806114c083611fd8565b905060006114ec60646114de60055485611eef90919063ffffffff16565b611f0590919063ffffffff16565b905080826114fa9190612dd1565b92505050919050565b60008282905011611549576040517f08c379a000000000000000000000000000000000000000000000000000000000815260040161154090612b05565b60405180910390fd5b60005b82829050811015611680576000600a60008585858181106115705761156f612f7e565b5b9050602002013581526020019081526020016000205414156115c7576040517f08c379a00000000000000000000000000000000000000000000000000000000081526004016115be90612c05565b60405180910390fd5b60006001826115d69190612cf0565b90505b8383905081101561166c578383828181106115f7576115f6612f7e565b5b9050602002013584848481811061161157611610612f7e565b5b905060200201351415611659576040517f08c379a000000000000000000000000000000000000000000000000000000000815260040161165090612b65565b60405180910390fd5b808061166490612ed7565b9150506115d9565b50808061167890612ed7565b91505061154c565b50611689611dbb565b6000600b60003373ffffffffffffffffffffffffffffffffffffffff1673ffffffffffffffffffffffffffffffffffffffff16815260200190815260200160002090506000611714826001015461170664e8d4a510006116f86002548760000154611eef90919063ffffffff16565b611f0590919063ffffffff16565b611f1b90919063ffffffff16565b9050807f000000000000000000000000000000000000000000000000000000000000000073ffffffffffffffffffffffffffffffffffffffff166370a08231306040518263ffffffff1660e01b815260040161177091906129a7565b60206040518083038186803b15801561178857600080fd5b505afa15801561179c573d6000803e3d6000fd5b505050506040513d601f19601f820116820180604052508101906117c09190612661565b1015611872577f000000000000000000000000000000000000000000000000000000000000000073ffffffffffffffffffffffffffffffffffffffff166370a08231306040518263ffffffff1660e01b815260040161181f91906129a7565b60206040518083038186803b15801561183757600080fd5b505afa15801561184b573d6000803e3d6000fd5b505050506040513d601f19601f8201168201806040525081019061186f9190612661565b90505b611889818360020154611f3190919063ffffffff16565b8260020181905550600084849050905060005b81811015611be85760018185600001546118b69190612dd1565b6118c09190612dd1565b600a60008888858181106118d7576118d6612f7e565b5b9050602002013581526020019081526020016000205414611a8e57600960003373ffffffffffffffffffffffffffffffffffffffff1673ffffffffffffffffffffffffffffffffffffffff168152602001908152602001600020600060018387600001546119459190612dd1565b61194f9190612dd1565b815260200190815260200160002054600960003373ffffffffffffffffffffffffffffffffffffffff1673ffffffffffffffffffffffffffffffffffffffff1681526020019081526020016000206000600a60008a8a878181106119b6576119b5612f7e565b5b90506020020135815260200190815260200160002054815260200190815260200160002081905550600a60008787848181106119f5576119f4612f7e565b5b90506020020135815260200190815260200160002054600a6000600960003373ffffffffffffffffffffffffffffffffffffffff1673ffffffffffffffffffffffffffffffffffffffff16815260200190815260200160002060006001868a60000154611a629190612dd1565b611a6c9190612dd1565b8152602001908152602001600020548152602001908152602001600020819055505b600a6000878784818110611aa557611aa4612f7e565b5b90506020020135815260200190815260200160002060009055600960003373ffffffffffffffffffffffffffffffffffffffff1673ffffffffffffffffffffffffffffffffffffffff16815260200190815260200160002060006001838760000154611b119190612dd1565b611b1b9190612dd1565b8152602001908152602001600020600090557f000000000000000000000000000000000000000000000000000000000000000073ffffffffffffffffffffffffffffffffffffffff166323b872dd3033898986818110611b7e57611b7d612f7e565b5b905060200201356040518463ffffffff1660e01b8152600401611ba3939291906129c2565b600060405180830381600087803b158015611bbd57600080fd5b505af1158015611bd1573d6000803e3d6000fd5b505050508080611be090612ed7565b91505061189c565b50611bfe81600654611f1b90919063ffffffff16565b600681905550611c1b818460000154611f1b90919063ffffffff16565b8360000181905550611c5364e8d4a51000611c456002548660000154611eef90919063ffffffff16565b611f0590919063ffffffff16565b83600101819055507f80cc10bf7e52583ae0a17d8dd6ab5005573b17a08091a091af1a81205a675c91338686604051611c8e939291906129f9565b60405180910390a15050505050565b600460009054906101000a900473ffffffffffffffffffffffffffffffffffffffff1681565b611ccb611f47565b73ffffffffffffffffffffffffffffffffffffffff16611ce9611319565b73ffffffffffffffffffffffffffffffffffffffff1614611d3f576040517f08c379a0000000000000000000000000000000000000000000000000000000008152600401611d3690612ba5565b60405180910390fd5b600073ffffffffffffffffffffffffffffffffffffffff168173ffffffffffffffffffffffffffffffffffffffff161415611daf576040517f08c379a0000000000000000000000000000000000000000000000000000000008152600401611da690612b45565b60405180910390fd5b611db881612191565b50565b6001544311611dc957611eed565b60006006541415611de05743600181905550611eed565b6000611dee60015443611342565b90506000611e0760035483611eef90919063ffffffff16565b905060006007541415611e2257436001819055505050611eed565b806007541015611e8157611e6e611e5d600654611e4f64e8d4a51000600754611eef90919063ffffffff16565b611f0590919063ffffffff16565b600254611f3190919063ffffffff16565b6002819055506000600781905550611ee3565b611e9681600754611f1b90919063ffffffff16565b600781905550611edc611ecb600654611ebd64e8d4a5100085611eef90919063ffffffff16565b611f0590919063ffffffff16565b600254611f3190919063ffffffff16565b6002819055505b4360018190555050505b565b60008183611efd9190612d77565b905092915050565b60008183611f139190612d46565b905092915050565b60008183611f299190612dd1565b905092915050565b60008183611f3f9190612cf0565b905092915050565b600033905090565b611fd2846323b872dd60e01b858585604051602401611f70939291906129c2565b604051602081830303815290604052907bffffffffffffffffffffffffffffffffffffffffffffffffffffffff19166020820180517bffffffffffffffffffffffffffffffffffffffffffffffffffffffff8381831617835250505050612255565b50505050565b600080600b60008473ffffffffffffffffffffffffffffffffffffffff1673ffffffffffffffffffffffffffffffffffffffff168152602001908152602001600020905060006002549050600154431180156120375750600060065414155b156120a857600061204a60015443611342565b9050600061206360035483611eef90919063ffffffff16565b90506120a361209460065461208664e8d4a5100085611eef90919063ffffffff16565b611f0590919063ffffffff16565b84611f3190919063ffffffff16565b925050505b61210282600201546120f484600101546120e664e8d4a510006120d8878960000154611eef90919063ffffffff16565b611f0590919063ffffffff16565b611f1b90919063ffffffff16565b611f3190919063ffffffff16565b92505050919050565b61218c8363a9059cbb60e01b848460405160240161212a929190612a2b565b604051602081830303815290604052907bffffffffffffffffffffffffffffffffffffffffffffffffffffffff19166020820180517bffffffffffffffffffffffffffffffffffffffffffffffffffffffff8381831617835250505050612255565b505050565b60008060009054906101000a900473ffffffffffffffffffffffffffffffffffffffff169050816000806101000a81548173ffffffffffffffffffffffffffffffffffffffff021916908373ffffffffffffffffffffffffffffffffffffffff1602179055508173ffffffffffffffffffffffffffffffffffffffff168173ffffffffffffffffffffffffffffffffffffffff167f8be0079c531659141344cd1fd0a4f28419497f9722a3daafe3b4186f6b6457e060405160405180910390a35050565b60006122b7826040518060400160405280602081526020017f5361666542455032303a206c6f772d6c6576656c2063616c6c206661696c65648152508573ffffffffffffffffffffffffffffffffffffffff1661231c9092919063ffffffff16565b905060008151111561231757808060200190518101906122d79190612607565b612316576040517f08c379a000000000000000000000000000000000000000000000000000000000815260040161230d90612b25565b60405180910390fd5b5b505050565b606061232b8484600085612334565b90509392505050565b606061233f85612456565b61237e576040517f08c379a000000000000000000000000000000000000000000000000000000000815260040161237590612be5565b60405180910390fd5b6000808673ffffffffffffffffffffffffffffffffffffffff1685876040516123a79190612990565b60006040518083038185875af1925050503d80600081146123e4576040519150601f19603f3d011682016040523d82523d6000602084013e6123e9565b606091505b509150915081156123fe57809250505061244e565b6000815111156124115780518082602001fd5b836040517f08c379a00000000000000000000000000000000000000000000000000000000081526004016124459190612ae3565b60405180910390fd5b949350505050565b60008060007fc5d2460186f7233c927e7db2dcc703c0e500b653ca82273b7bfad8045d85a47060001b9050833f915080821415801561249857506000801b8214155b92505050919050565b6000813590506124b081613214565b92915050565b6000815190506124c581613214565b92915050565b60008083601f8401126124e1576124e0612fe1565b5b8235905067ffffffffffffffff8111156124fe576124fd612fdc565b5b60208301915083602082028301111561251a57612519612fe6565b5b9250929050565b6000815190506125308161322b565b92915050565b60008135905061254581613242565b92915050565b60008151905061255a81613242565b92915050565b60006020828403121561257657612575612ff5565b5b6000612584848285016124a1565b91505092915050565b6000602082840312156125a3576125a2612ff5565b5b60006125b1848285016124b6565b91505092915050565b600080602083850312156125d1576125d0612ff5565b5b600083013567ffffffffffffffff8111156125ef576125ee612feb565b5b6125fb858286016124cb565b92509250509250929050565b60006020828403121561261d5761261c612ff5565b5b600061262b84828501612521565b91505092915050565b60006020828403121561264a57612649612ff5565b5b600061265884828501612536565b91505092915050565b60006020828403121561267757612676612ff5565b5b60006126858482850161254b565b91505092915050565b600080604083850312156126a5576126a4612ff5565b5b60006126b385828601612536565b92505060206126c485828601612536565b9150509250929050565b60006126da8383612972565b60208301905092915050565b6126ef81612e05565b82525050565b60006127018385612cc3565b93507f07ffffffffffffffffffffffffffffffffffffffffffffffffffffffffffffff83111561273457612733612ff0565b5b602083029250612745838584612e95565b82840190509392505050565b600061275c82612c95565b6127668185612cc3565b935061277183612c85565b8060005b838110156127a257815161278988826126ce565b975061279483612cb6565b925050600181019050612775565b5085935050505092915050565b60006127ba82612ca0565b6127c48185612cd4565b93506127d4818560208601612ea4565b80840191505092915050565b6127e981612e4d565b82525050565b6127f881612e5f565b82525050565b600061280982612cab565b6128138185612cdf565b9350612823818560208601612ea4565b61282c81612ffa565b840191505092915050565b6000612844601883612cdf565b915061284f8261300b565b602082019050919050565b6000612867602a83612cdf565b915061287282613034565b604082019050919050565b600061288a602683612cdf565b915061289582613083565b604082019050919050565b60006128ad603183612cdf565b91506128b8826130d2565b604082019050919050565b60006128d0602083612cdf565b91506128db82613121565b602082019050919050565b60006128f3602083612cdf565b91506128fe8261314a565b602082019050919050565b6000612916601e83612cdf565b915061292182613173565b602082019050919050565b6000612939601d83612cdf565b91506129448261319c565b602082019050919050565b600061295c603983612cdf565b9150612967826131c5565b604082019050919050565b61297b81612e43565b82525050565b61298a81612e43565b82525050565b600061299c82846127af565b915081905092915050565b60006020820190506129bc60008301846126e6565b92915050565b60006060820190506129d760008301866126e6565b6129e460208301856126e6565b6129f16040830184612981565b949350505050565b6000604082019050612a0e60008301866126e6565b8181036020830152612a218184866126f5565b9050949350505050565b6000604082019050612a4060008301856126e6565b612a4d6020830184612981565b9392505050565b6000606082019050612a6960008301866126e6565b612a766020830185612981565b612a836040830184612981565b949350505050565b60006020820190508181036000830152612aa58184612751565b905092915050565b6000602082019050612ac260008301846127e0565b92915050565b6000602082019050612add60008301846127ef565b92915050565b60006020820190508181036000830152612afd81846127fe565b905092915050565b60006020820190508181036000830152612b1e81612837565b9050919050565b60006020820190508181036000830152612b3e8161285a565b9050919050565b60006020820190508181036000830152612b5e8161287d565b9050919050565b60006020820190508181036000830152612b7e816128a0565b9050919050565b60006020820190508181036000830152612b9e816128c3565b9050919050565b60006020820190508181036000830152612bbe816128e6565b9050919050565b60006020820190508181036000830152612bde81612909565b9050919050565b60006020820190508181036000830152612bfe8161292c565b9050919050565b60006020820190508181036000830152612c1e8161294f565b9050919050565b6000602082019050612c3a6000830184612981565b92915050565b6000608082019050612c556000830187612981565b612c626020830186612981565b612c6f6040830185612981565b612c7c6060830184612981565b95945050505050565b6000819050602082019050919050565b600081519050919050565b600081519050919050565b600081519050919050565b6000602082019050919050565b600082825260208201905092915050565b600081905092915050565b600082825260208201905092915050565b6000612cfb82612e43565b9150612d0683612e43565b9250827fffffffffffffffffffffffffffffffffffffffffffffffffffffffffffffffff03821115612d3b57612d3a612f20565b5b828201905092915050565b6000612d5182612e43565b9150612d5c83612e43565b925082612d6c57612d6b612f4f565b5b828204905092915050565b6000612d8282612e43565b9150612d8d83612e43565b9250817fffffffffffffffffffffffffffffffffffffffffffffffffffffffffffffffff0483118215151615612dc657612dc5612f20565b5b828202905092915050565b6000612ddc82612e43565b9150612de783612e43565b925082821015612dfa57612df9612f20565b5b828203905092915050565b6000612e1082612e23565b9050919050565b60008115159050919050565b600073ffffffffffffffffffffffffffffffffffffffff82169050919050565b6000819050919050565b6000612e5882612e71565b9050919050565b6000612e6a82612e71565b9050919050565b6000612e7c82612e83565b9050919050565b6000612e8e82612e23565b9050919050565b82818337600083830152505050565b60005b83811015612ec2578082015181840152602081019050612ea7565b83811115612ed1576000848401525b50505050565b6000612ee282612e43565b91507fffffffffffffffffffffffffffffffffffffffffffffffffffffffffffffffff821415612f1557612f14612f20565b5b600182019050919050565b7f4e487b7100000000000000000000000000000000000000000000000000000000600052601160045260246000fd5b7f4e487b7100000000000000000000000000000000000000000000000000000000600052601260045260246000fd5b7f4e487b7100000000000000000000000000000000000000000000000000000000600052603260045260246000fd5b7f4e487b7100000000000000000000000000000000000000000000000000000000600052604160045260246000fd5b600080fd5b600080fd5b600080fd5b600080fd5b600080fd5b600080fd5b6000601f19601f8301169050919050565b7f4e4654205374616b696e673a20456d7074792041727261790000000000000000600082015250565b7f5361666542455032303a204245503230206f7065726174696f6e20646964206e60008201527f6f74207375636365656400000000000000000000000000000000000000000000602082015250565b7f4f776e61626c653a206e6577206f776e657220697320746865207a65726f206160008201527f6464726573730000000000000000000000000000000000000000000000000000602082015250565b7f4e4654205374616b696e673a206475706c696361746520746f6b656e2069647360008201527f20696e20696e70757420706172616d732e000000000000000000000000000000602082015250565b7f4e4654205374616b696e673a206e6f74206f776e6572206f6620746f6b656e2e600082015250565b7f4f776e61626c653a2063616c6c6572206973206e6f7420746865206f776e6572600082015250565b7f736574486172766573744665653a2066656550657263656e74203e2034300000600082015250565b7f416464726573733a2063616c6c20746f206e6f6e2d636f6e7472616374000000600082015250565b7f4e667420556e7374616b696e673a20746f6b656e206e6f74207374616b65642060008201527f6f7220696e636f727265637420746f6b656e206f776e65722e00000000000000602082015250565b61321d81612e05565b811461322857600080fd5b50565b61323481612e17565b811461323f57600080fd5b50565b61324b81612e43565b811461325657600080fd5b5056fea26469706673582212209f0f0306562c7050fb4362a04b54d39be153609b603d55ccfc8ff86b01f4291b64736f6c63430008070033",
					"opcodes": "PUSH1 0xC0 PUSH1 0x40 MSTORE CALLVALUE DUP1 ISZERO PUSH3 0x11 JUMPI PUSH1 0x0 DUP1 REVERT JUMPDEST POP PUSH1 0x40 MLOAD PUSH3 0x3693 CODESIZE SUB DUP1 PUSH3 0x3693 DUP4 CODECOPY DUP2 DUP2 ADD PUSH1 0x40 MSTORE DUP2 ADD SWAP1 PUSH3 0x37 SWAP2 SWAP1 PUSH3 0x23F JUMP JUMPDEST PUSH3 0x57 PUSH3 0x4B PUSH3 0x117 PUSH1 0x20 SHL PUSH1 0x20 SHR JUMP JUMPDEST PUSH3 0x11F PUSH1 0x20 SHL PUSH1 0x20 SHR JUMP JUMPDEST DUP4 PUSH20 0xFFFFFFFFFFFFFFFFFFFFFFFFFFFFFFFFFFFFFFFF AND PUSH1 0x80 DUP2 PUSH20 0xFFFFFFFFFFFFFFFFFFFFFFFFFFFFFFFFFFFFFFFF AND PUSH1 0x60 SHL DUP2 MSTORE POP POP DUP3 PUSH20 0xFFFFFFFFFFFFFFFFFFFFFFFFFFFFFFFFFFFFFFFF AND PUSH1 0xA0 DUP2 PUSH20 0xFFFFFFFFFFFFFFFFFFFFFFFFFFFFFFFFFFFFFFFF AND PUSH1 0x60 SHL DUP2 MSTORE POP POP DUP2 PUSH1 0x3 DUP2 SWAP1 SSTORE POP DUP1 PUSH1 0x4 PUSH1 0x0 PUSH2 0x100 EXP DUP2 SLOAD DUP2 PUSH20 0xFFFFFFFFFFFFFFFFFFFFFFFFFFFFFFFFFFFFFFFF MUL NOT AND SWAP1 DUP4 PUSH20 0xFFFFFFFFFFFFFFFFFFFFFFFFFFFFFFFFFFFFFFFF AND MUL OR SWAP1 SSTORE POP POP POP POP POP PUSH3 0x384 JUMP JUMPDEST PUSH1 0x0 CALLER SWAP1 POP SWAP1 JUMP JUMPDEST PUSH1 0x0 DUP1 PUSH1 0x0 SWAP1 SLOAD SWAP1 PUSH2 0x100 EXP SWAP1 DIV PUSH20 0xFFFFFFFFFFFFFFFFFFFFFFFFFFFFFFFFFFFFFFFF AND SWAP1 POP DUP2 PUSH1 0x0 DUP1 PUSH2 0x100 EXP DUP2 SLOAD DUP2 PUSH20 0xFFFFFFFFFFFFFFFFFFFFFFFFFFFFFFFFFFFFFFFF MUL NOT AND SWAP1 DUP4 PUSH20 0xFFFFFFFFFFFFFFFFFFFFFFFFFFFFFFFFFFFFFFFF AND MUL OR SWAP1 SSTORE POP DUP2 PUSH20 0xFFFFFFFFFFFFFFFFFFFFFFFFFFFFFFFFFFFFFFFF AND DUP2 PUSH20 0xFFFFFFFFFFFFFFFFFFFFFFFFFFFFFFFFFFFFFFFF AND PUSH32 0x8BE0079C531659141344CD1FD0A4F28419497F9722A3DAAFE3B4186F6B6457E0 PUSH1 0x40 MLOAD PUSH1 0x40 MLOAD DUP1 SWAP2 SUB SWAP1 LOG3 POP POP JUMP JUMPDEST PUSH1 0x0 DUP2 MLOAD SWAP1 POP PUSH3 0x1F4 DUP2 PUSH3 0x31C JUMP JUMPDEST SWAP3 SWAP2 POP POP JUMP JUMPDEST PUSH1 0x0 DUP2 MLOAD SWAP1 POP PUSH3 0x20B DUP2 PUSH3 0x336 JUMP JUMPDEST SWAP3 SWAP2 POP POP JUMP JUMPDEST PUSH1 0x0 DUP2 MLOAD SWAP1 POP PUSH3 0x222 DUP2 PUSH3 0x350 JUMP JUMPDEST SWAP3 SWAP2 POP POP JUMP JUMPDEST PUSH1 0x0 DUP2 MLOAD SWAP1 POP PUSH3 0x239 DUP2 PUSH3 0x36A JUMP JUMPDEST SWAP3 SWAP2 POP POP JUMP JUMPDEST PUSH1 0x0 DUP1 PUSH1 0x0 DUP1 PUSH1 0x80 DUP6 DUP8 SUB SLT ISZERO PUSH3 0x25C JUMPI PUSH3 0x25B PUSH3 0x317 JUMP JUMPDEST JUMPDEST PUSH1 0x0 PUSH3 0x26C DUP8 DUP3 DUP9 ADD PUSH3 0x211 JUMP JUMPDEST SWAP5 POP POP PUSH1 0x20 PUSH3 0x27F DUP8 DUP3 DUP9 ADD PUSH3 0x1FA JUMP JUMPDEST SWAP4 POP POP PUSH1 0x40 PUSH3 0x292 DUP8 DUP3 DUP9 ADD PUSH3 0x228 JUMP JUMPDEST SWAP3 POP POP PUSH1 0x60 PUSH3 0x2A5 DUP8 DUP3 DUP9 ADD PUSH3 0x1E3 JUMP JUMPDEST SWAP2 POP POP SWAP3 SWAP6 SWAP2 SWAP5 POP SWAP3 POP JUMP JUMPDEST PUSH1 0x0 PUSH3 0x2BE DUP3 PUSH3 0x2ED JUMP JUMPDEST SWAP1 POP SWAP2 SWAP1 POP JUMP JUMPDEST PUSH1 0x0 PUSH3 0x2D2 DUP3 PUSH3 0x2B1 JUMP JUMPDEST SWAP1 POP SWAP2 SWAP1 POP JUMP JUMPDEST PUSH1 0x0 PUSH3 0x2E6 DUP3 PUSH3 0x2B1 JUMP JUMPDEST SWAP1 POP SWAP2 SWAP1 POP JUMP JUMPDEST PUSH1 0x0 PUSH20 0xFFFFFFFFFFFFFFFFFFFFFFFFFFFFFFFFFFFFFFFF DUP3 AND SWAP1 POP SWAP2 SWAP1 POP JUMP JUMPDEST PUSH1 0x0 DUP2 SWAP1 POP SWAP2 SWAP1 POP JUMP JUMPDEST PUSH1 0x0 DUP1 REVERT JUMPDEST PUSH3 0x327 DUP2 PUSH3 0x2B1 JUMP JUMPDEST DUP2 EQ PUSH3 0x333 JUMPI PUSH1 0x0 DUP1 REVERT JUMPDEST POP JUMP JUMPDEST PUSH3 0x341 DUP2 PUSH3 0x2C5 JUMP JUMPDEST DUP2 EQ PUSH3 0x34D JUMPI PUSH1 0x0 DUP1 REVERT JUMPDEST POP JUMP JUMPDEST PUSH3 0x35B DUP2 PUSH3 0x2D9 JUMP JUMPDEST DUP2 EQ PUSH3 0x367 JUMPI PUSH1 0x0 DUP1 REVERT JUMPDEST POP JUMP JUMPDEST PUSH3 0x375 DUP2 PUSH3 0x30D JUMP JUMPDEST DUP2 EQ PUSH3 0x381 JUMPI PUSH1 0x0 DUP1 REVERT JUMPDEST POP JUMP JUMPDEST PUSH1 0x80 MLOAD PUSH1 0x60 SHR PUSH1 0xA0 MLOAD PUSH1 0x60 SHR PUSH2 0x328F PUSH3 0x404 PUSH1 0x0 CODECOPY PUSH1 0x0 DUP2 DUP2 PUSH2 0x9CC ADD MSTORE DUP2 DUP2 PUSH2 0xA72 ADD MSTORE DUP2 DUP2 PUSH2 0xD21 ADD MSTORE DUP2 DUP2 PUSH2 0xDD0 ADD MSTORE DUP2 DUP2 PUSH2 0xE81 ADD MSTORE DUP2 DUP2 PUSH2 0xEC8 ADD MSTORE DUP2 DUP2 PUSH2 0xF77 ADD MSTORE DUP2 DUP2 PUSH2 0x104A ADD MSTORE DUP2 DUP2 PUSH2 0x1719 ADD MSTORE PUSH2 0x17C8 ADD MSTORE PUSH1 0x0 DUP2 DUP2 PUSH2 0x44D ADD MSTORE DUP2 DUP2 PUSH2 0x83F ADD MSTORE DUP2 DUP2 PUSH2 0x1492 ADD MSTORE PUSH2 0x1B2F ADD MSTORE PUSH2 0x328F PUSH1 0x0 RETURN INVALID PUSH1 0x80 PUSH1 0x40 MSTORE CALLVALUE DUP1 ISZERO PUSH2 0x10 JUMPI PUSH1 0x0 DUP1 REVERT JUMPDEST POP PUSH1 0x4 CALLDATASIZE LT PUSH2 0x142 JUMPI PUSH1 0x0 CALLDATALOAD PUSH1 0xE0 SHR DUP1 PUSH4 0x8AE39CAC GT PUSH2 0xB8 JUMPI DUP1 PUSH4 0xB5962917 GT PUSH2 0x7C JUMPI DUP1 PUSH4 0xB5962917 EQ PUSH2 0x31E JUMPI DUP1 PUSH4 0xD06FCBA8 EQ PUSH2 0x33C JUMPI DUP1 PUSH4 0xD086C254 EQ PUSH2 0x35A JUMPI DUP1 PUSH4 0xE449F341 EQ PUSH2 0x38A JUMPI DUP1 PUSH4 0xF25F4B56 EQ PUSH2 0x3A6 JUMPI DUP1 PUSH4 0xF2FDE38B EQ PUSH2 0x3C4 JUMPI PUSH2 0x142 JUMP JUMPDEST DUP1 PUSH4 0x8AE39CAC EQ PUSH2 0x278 JUMPI DUP1 PUSH4 0x8DA5CB5B EQ PUSH2 0x296 JUMPI DUP1 PUSH4 0x8DBB1E3A EQ PUSH2 0x2B4 JUMPI DUP1 PUSH4 0x90D49B9D EQ PUSH2 0x2E4 JUMPI DUP1 PUSH4 0xA9F8D181 EQ PUSH2 0x300 JUMPI PUSH2 0x142 JUMP JUMPDEST DUP1 PUSH4 0x43DB3C5F GT PUSH2 0x10A JUMPI DUP1 PUSH4 0x43DB3C5F EQ PUSH2 0x1EE JUMPI DUP1 PUSH4 0x4641257D EQ PUSH2 0x20C JUMPI DUP1 PUSH4 0x567E98F9 EQ PUSH2 0x216 JUMPI DUP1 PUSH4 0x5E42B455 EQ PUSH2 0x234 JUMPI DUP1 PUSH4 0x715018A6 EQ PUSH2 0x252 JUMPI DUP1 PUSH4 0x792B55B6 EQ PUSH2 0x25C JUMPI PUSH2 0x142 JUMP JUMPDEST DUP1 PUSH4 0xFBF0A93 EQ PUSH2 0x147 JUMPI DUP1 PUSH4 0x1959A002 EQ PUSH2 0x163 JUMPI DUP1 PUSH4 0x19FCA9F6 EQ PUSH2 0x196 JUMPI DUP1 PUSH4 0x1E2720FF EQ PUSH2 0x1B4 JUMPI DUP1 PUSH4 0x2955C60C EQ PUSH2 0x1D0 JUMPI JUMPDEST PUSH1 0x0 DUP1 REVERT JUMPDEST PUSH2 0x161 PUSH1 0x4 DUP1 CALLDATASIZE SUB DUP2 ADD SWAP1 PUSH2 0x15C SWAP2 SWAP1 PUSH2 0x25BA JUMP JUMPDEST PUSH2 0x3E0 JUMP JUMPDEST STOP JUMPDEST PUSH2 0x17D PUSH1 0x4 DUP1 CALLDATASIZE SUB DUP2 ADD SWAP1 PUSH2 0x178 SWAP2 SWAP1 PUSH2 0x2560 JUMP JUMPDEST PUSH2 0x99A JUMP JUMPDEST PUSH1 0x40 MLOAD PUSH2 0x18D SWAP5 SWAP4 SWAP3 SWAP2 SWAP1 PUSH2 0x2C40 JUMP JUMPDEST PUSH1 0x40 MLOAD DUP1 SWAP2 SUB SWAP1 RETURN JUMPDEST PUSH2 0x19E PUSH2 0x9CA JUMP JUMPDEST PUSH1 0x40 MLOAD PUSH2 0x1AB SWAP2 SWAP1 PUSH2 0x2AAD JUMP JUMPDEST PUSH1 0x40 MLOAD DUP1 SWAP2 SUB SWAP1 RETURN JUMPDEST PUSH2 0x1CE PUSH1 0x4 DUP1 CALLDATASIZE SUB DUP2 ADD SWAP1 PUSH2 0x1C9 SWAP2 SWAP1 PUSH2 0x2634 JUMP JUMPDEST PUSH2 0x9EE JUMP JUMPDEST STOP JUMPDEST PUSH2 0x1D8 PUSH2 0xB23 JUMP JUMPDEST PUSH1 0x40 MLOAD PUSH2 0x1E5 SWAP2 SWAP1 PUSH2 0x2A8B JUMP JUMPDEST PUSH1 0x40 MLOAD DUP1 SWAP2 SUB SWAP1 RETURN JUMPDEST PUSH2 0x1F6 PUSH2 0xC8C JUMP JUMPDEST PUSH1 0x40 MLOAD PUSH2 0x203 SWAP2 SWAP1 PUSH2 0x2C25 JUMP JUMPDEST PUSH1 0x40 MLOAD DUP1 SWAP2 SUB SWAP1 RETURN JUMPDEST PUSH2 0x214 PUSH2 0xC92 JUMP JUMPDEST STOP JUMPDEST PUSH2 0x21E PUSH2 0x1119 JUMP JUMPDEST PUSH1 0x40 MLOAD PUSH2 0x22B SWAP2 SWAP1 PUSH2 0x2C25 JUMP JUMPDEST PUSH1 0x40 MLOAD DUP1 SWAP2 SUB SWAP1 RETURN JUMPDEST PUSH2 0x23C PUSH2 0x111F JUMP JUMPDEST PUSH1 0x40 MLOAD PUSH2 0x249 SWAP2 SWAP1 PUSH2 0x2C25 JUMP JUMPDEST PUSH1 0x40 MLOAD DUP1 SWAP2 SUB SWAP1 RETURN JUMPDEST PUSH2 0x25A PUSH2 0x118A JUMP JUMPDEST STOP JUMPDEST PUSH2 0x276 PUSH1 0x4 DUP1 CALLDATASIZE SUB DUP2 ADD SWAP1 PUSH2 0x271 SWAP2 SWAP1 PUSH2 0x2634 JUMP JUMPDEST PUSH2 0x1212 JUMP JUMPDEST STOP JUMPDEST PUSH2 0x280 PUSH2 0x1313 JUMP JUMPDEST PUSH1 0x40 MLOAD PUSH2 0x28D SWAP2 SWAP1 PUSH2 0x2C25 JUMP JUMPDEST PUSH1 0x40 MLOAD DUP1 SWAP2 SUB SWAP1 RETURN JUMPDEST PUSH2 0x29E PUSH2 0x1319 JUMP JUMPDEST PUSH1 0x40 MLOAD PUSH2 0x2AB SWAP2 SWAP1 PUSH2 0x29A7 JUMP JUMPDEST PUSH1 0x40 MLOAD DUP1 SWAP2 SUB SWAP1 RETURN JUMPDEST PUSH2 0x2CE PUSH1 0x4 DUP1 CALLDATASIZE SUB DUP2 ADD SWAP1 PUSH2 0x2C9 SWAP2 SWAP1 PUSH2 0x268E JUMP JUMPDEST PUSH2 0x1342 JUMP JUMPDEST PUSH1 0x40 MLOAD PUSH2 0x2DB SWAP2 SWAP1 PUSH2 0x2C25 JUMP JUMPDEST PUSH1 0x40 MLOAD DUP1 SWAP2 SUB SWAP1 RETURN JUMPDEST PUSH2 0x2FE PUSH1 0x4 DUP1 CALLDATASIZE SUB DUP2 ADD SWAP1 PUSH2 0x2F9 SWAP2 SWAP1 PUSH2 0x2560 JUMP JUMPDEST PUSH2 0x135F JUMP JUMPDEST STOP JUMPDEST PUSH2 0x308 PUSH2 0x1484 JUMP JUMPDEST PUSH1 0x40 MLOAD PUSH2 0x315 SWAP2 SWAP1 PUSH2 0x2C25 JUMP JUMPDEST PUSH1 0x40 MLOAD DUP1 SWAP2 SUB SWAP1 RETURN JUMPDEST PUSH2 0x326 PUSH2 0x148A JUMP JUMPDEST PUSH1 0x40 MLOAD PUSH2 0x333 SWAP2 SWAP1 PUSH2 0x2C25 JUMP JUMPDEST PUSH1 0x40 MLOAD DUP1 SWAP2 SUB SWAP1 RETURN JUMPDEST PUSH2 0x344 PUSH2 0x1490 JUMP JUMPDEST PUSH1 0x40 MLOAD PUSH2 0x351 SWAP2 SWAP1 PUSH2 0x2AC8 JUMP JUMPDEST PUSH1 0x40 MLOAD DUP1 SWAP2 SUB SWAP1 RETURN JUMPDEST PUSH2 0x374 PUSH1 0x4 DUP1 CALLDATASIZE SUB DUP2 ADD SWAP1 PUSH2 0x36F SWAP2 SWAP1 PUSH2 0x2560 JUMP JUMPDEST PUSH2 0x14B4 JUMP JUMPDEST PUSH1 0x40 MLOAD PUSH2 0x381 SWAP2 SWAP1 PUSH2 0x2C25 JUMP JUMPDEST PUSH1 0x40 MLOAD DUP1 SWAP2 SUB SWAP1 RETURN JUMPDEST PUSH2 0x3A4 PUSH1 0x4 DUP1 CALLDATASIZE SUB DUP2 ADD SWAP1 PUSH2 0x39F SWAP2 SWAP1 PUSH2 0x25BA JUMP JUMPDEST PUSH2 0x1503 JUMP JUMPDEST STOP JUMPDEST PUSH2 0x3AE PUSH2 0x1C9D JUMP JUMPDEST PUSH1 0x40 MLOAD PUSH2 0x3BB SWAP2 SWAP1 PUSH2 0x29A7 JUMP JUMPDEST PUSH1 0x40 MLOAD DUP1 SWAP2 SUB SWAP1 RETURN JUMPDEST PUSH2 0x3DE PUSH1 0x4 DUP1 CALLDATASIZE SUB DUP2 ADD SWAP1 PUSH2 0x3D9 SWAP2 SWAP1 PUSH2 0x2560 JUMP JUMPDEST PUSH2 0x1CC3 JUMP JUMPDEST STOP JUMPDEST PUSH1 0x0 DUP3 DUP3 SWAP1 POP GT PUSH2 0x426 JUMPI PUSH1 0x40 MLOAD PUSH32 0x8C379A000000000000000000000000000000000000000000000000000000000 DUP2 MSTORE PUSH1 0x4 ADD PUSH2 0x41D SWAP1 PUSH2 0x2B05 JUMP JUMPDEST PUSH1 0x40 MLOAD DUP1 SWAP2 SUB SWAP1 REVERT JUMPDEST PUSH1 0x0 JUMPDEST DUP3 DUP3 SWAP1 POP DUP2 LT ISZERO PUSH2 0x68B JUMPI CALLER PUSH20 0xFFFFFFFFFFFFFFFFFFFFFFFFFFFFFFFFFFFFFFFF AND PUSH32 0x0 PUSH20 0xFFFFFFFFFFFFFFFFFFFFFFFFFFFFFFFFFFFFFFFF AND PUSH4 0x6352211E DUP6 DUP6 DUP6 DUP2 DUP2 LT PUSH2 0x49A JUMPI PUSH2 0x499 PUSH2 0x2F7E JUMP JUMPDEST JUMPDEST SWAP1 POP PUSH1 0x20 MUL ADD CALLDATALOAD PUSH1 0x40 MLOAD DUP3 PUSH4 0xFFFFFFFF AND PUSH1 0xE0 SHL DUP2 MSTORE PUSH1 0x4 ADD PUSH2 0x4BD SWAP2 SWAP1 PUSH2 0x2C25 JUMP JUMPDEST PUSH1 0x20 PUSH1 0x40 MLOAD DUP1 DUP4 SUB DUP2 DUP7 DUP1 EXTCODESIZE ISZERO DUP1 ISZERO PUSH2 0x4D5 JUMPI PUSH1 0x0 DUP1 REVERT JUMPDEST POP GAS STATICCALL ISZERO DUP1 ISZERO PUSH2 0x4E9 JUMPI RETURNDATASIZE PUSH1 0x0 DUP1 RETURNDATACOPY RETURNDATASIZE PUSH1 0x0 REVERT JUMPDEST POP POP POP POP PUSH1 0x40 MLOAD RETURNDATASIZE PUSH1 0x1F NOT PUSH1 0x1F DUP3 ADD AND DUP3 ADD DUP1 PUSH1 0x40 MSTORE POP DUP2 ADD SWAP1 PUSH2 0x50D SWAP2 SWAP1 PUSH2 0x258D JUMP JUMPDEST PUSH20 0xFFFFFFFFFFFFFFFFFFFFFFFFFFFFFFFFFFFFFFFF AND EQ PUSH2 0x563 JUMPI PUSH1 0x40 MLOAD PUSH32 0x8C379A000000000000000000000000000000000000000000000000000000000 DUP2 MSTORE PUSH1 0x4 ADD PUSH2 0x55A SWAP1 PUSH2 0x2B85 JUMP JUMPDEST PUSH1 0x40 MLOAD DUP1 SWAP2 SUB SWAP1 REVERT JUMPDEST PUSH1 0x0 PUSH1 0xA PUSH1 0x0 DUP6 DUP6 DUP6 DUP2 DUP2 LT PUSH2 0x57C JUMPI PUSH2 0x57B PUSH2 0x2F7E JUMP JUMPDEST JUMPDEST SWAP1 POP PUSH1 0x20 MUL ADD CALLDATALOAD DUP2 MSTORE PUSH1 0x20 ADD SWAP1 DUP2 MSTORE PUSH1 0x20 ADD PUSH1 0x0 KECCAK256 SLOAD EQ PUSH2 0x5D2 JUMPI PUSH1 0x40 MLOAD PUSH32 0x8C379A000000000000000000000000000000000000000000000000000000000 DUP2 MSTORE PUSH1 0x4 ADD PUSH2 0x5C9 SWAP1 PUSH2 0x2C05 JUMP JUMPDEST PUSH1 0x40 MLOAD DUP1 SWAP2 SUB SWAP1 REVERT JUMPDEST PUSH1 0x0 PUSH1 0x1 DUP3 PUSH2 0x5E1 SWAP2 SWAP1 PUSH2 0x2CF0 JUMP JUMPDEST SWAP1 POP JUMPDEST DUP4 DUP4 SWAP1 POP DUP2 LT ISZERO PUSH2 0x677 JUMPI DUP4 DUP4 DUP3 DUP2 DUP2 LT PUSH2 0x602 JUMPI PUSH2 0x601 PUSH2 0x2F7E JUMP JUMPDEST JUMPDEST SWAP1 POP PUSH1 0x20 MUL ADD CALLDATALOAD DUP5 DUP5 DUP5 DUP2 DUP2 LT PUSH2 0x61C JUMPI PUSH2 0x61B PUSH2 0x2F7E JUMP JUMPDEST JUMPDEST SWAP1 POP PUSH1 0x20 MUL ADD CALLDATALOAD EQ ISZERO PUSH2 0x664 JUMPI PUSH1 0x40 MLOAD PUSH32 0x8C379A000000000000000000000000000000000000000000000000000000000 DUP2 MSTORE PUSH1 0x4 ADD PUSH2 0x65B SWAP1 PUSH2 0x2B65 JUMP JUMPDEST PUSH1 0x40 MLOAD DUP1 SWAP2 SUB SWAP1 REVERT JUMPDEST DUP1 DUP1 PUSH2 0x66F SWAP1 PUSH2 0x2ED7 JUMP JUMPDEST SWAP2 POP POP PUSH2 0x5E4 JUMP JUMPDEST POP DUP1 DUP1 PUSH2 0x683 SWAP1 PUSH2 0x2ED7 JUMP JUMPDEST SWAP2 POP POP PUSH2 0x429 JUMP JUMPDEST POP PUSH2 0x694 PUSH2 0x1DBB JUMP JUMPDEST PUSH1 0x0 PUSH1 0xB PUSH1 0x0 CALLER PUSH20 0xFFFFFFFFFFFFFFFFFFFFFFFFFFFFFFFFFFFFFFFF AND PUSH20 0xFFFFFFFFFFFFFFFFFFFFFFFFFFFFFFFFFFFFFFFF AND DUP2 MSTORE PUSH1 0x20 ADD SWAP1 DUP2 MSTORE PUSH1 0x20 ADD PUSH1 0x0 KECCAK256 SWAP1 POP PUSH1 0x0 DUP2 PUSH1 0x0 ADD SLOAD GT ISZERO PUSH2 0x74F JUMPI PUSH1 0x0 PUSH2 0x72C DUP3 PUSH1 0x1 ADD SLOAD PUSH2 0x71E PUSH5 0xE8D4A51000 PUSH2 0x710 PUSH1 0x2 SLOAD DUP8 PUSH1 0x0 ADD SLOAD PUSH2 0x1EEF SWAP1 SWAP2 SWAP1 PUSH4 0xFFFFFFFF AND JUMP JUMPDEST PUSH2 0x1F05 SWAP1 SWAP2 SWAP1 PUSH4 0xFFFFFFFF AND JUMP JUMPDEST PUSH2 0x1F1B SWAP1 SWAP2 SWAP1 PUSH4 0xFFFFFFFF AND JUMP JUMPDEST SWAP1 POP PUSH2 0x745 DUP2 DUP4 PUSH1 0x2 ADD SLOAD PUSH2 0x1F31 SWAP1 SWAP2 SWAP1 PUSH4 0xFFFFFFFF AND JUMP JUMPDEST DUP3 PUSH1 0x2 ADD DUP2 SWAP1 SSTORE POP POP JUMPDEST PUSH1 0x0 DUP4 DUP4 SWAP1 POP SWAP1 POP PUSH2 0x76C DUP2 PUSH1 0x6 SLOAD PUSH2 0x1F31 SWAP1 SWAP2 SWAP1 PUSH4 0xFFFFFFFF AND JUMP JUMPDEST PUSH1 0x6 DUP2 SWAP1 SSTORE POP PUSH1 0x0 JUMPDEST DUP5 DUP5 SWAP1 POP DUP2 LT ISZERO PUSH2 0x8F8 JUMPI DUP5 DUP5 DUP3 DUP2 DUP2 LT PUSH2 0x793 JUMPI PUSH2 0x792 PUSH2 0x2F7E JUMP JUMPDEST JUMPDEST SWAP1 POP PUSH1 0x20 MUL ADD CALLDATALOAD PUSH1 0x9 PUSH1 0x0 CALLER PUSH20 0xFFFFFFFFFFFFFFFFFFFFFFFFFFFFFFFFFFFFFFFF AND PUSH20 0xFFFFFFFFFFFFFFFFFFFFFFFFFFFFFFFFFFFFFFFF AND DUP2 MSTORE PUSH1 0x20 ADD SWAP1 DUP2 MSTORE PUSH1 0x20 ADD PUSH1 0x0 KECCAK256 PUSH1 0x0 DUP4 DUP7 PUSH1 0x0 ADD SLOAD PUSH2 0x7EB SWAP2 SWAP1 PUSH2 0x2CF0 JUMP JUMPDEST DUP2 MSTORE PUSH1 0x20 ADD SWAP1 DUP2 MSTORE PUSH1 0x20 ADD PUSH1 0x0 KECCAK256 DUP2 SWAP1 SSTORE POP DUP1 DUP4 PUSH1 0x0 ADD SLOAD PUSH2 0x80D SWAP2 SWAP1 PUSH2 0x2CF0 JUMP JUMPDEST PUSH1 0xA PUSH1 0x0 DUP8 DUP8 DUP6 DUP2 DUP2 LT PUSH2 0x824 JUMPI PUSH2 0x823 PUSH2 0x2F7E JUMP JUMPDEST JUMPDEST SWAP1 POP PUSH1 0x20 MUL ADD CALLDATALOAD DUP2 MSTORE PUSH1 0x20 ADD SWAP1 DUP2 MSTORE PUSH1 0x20 ADD PUSH1 0x0 KECCAK256 DUP2 SWAP1 SSTORE POP PUSH32 0x0 PUSH20 0xFFFFFFFFFFFFFFFFFFFFFFFFFFFFFFFFFFFFFFFF AND PUSH4 0x23B872DD CALLER ADDRESS DUP9 DUP9 DUP7 DUP2 DUP2 LT PUSH2 0x88E JUMPI PUSH2 0x88D PUSH2 0x2F7E JUMP JUMPDEST JUMPDEST SWAP1 POP PUSH1 0x20 MUL ADD CALLDATALOAD PUSH1 0x40 MLOAD DUP5 PUSH4 0xFFFFFFFF AND PUSH1 0xE0 SHL DUP2 MSTORE PUSH1 0x4 ADD PUSH2 0x8B3 SWAP4 SWAP3 SWAP2 SWAP1 PUSH2 0x29C2 JUMP JUMPDEST PUSH1 0x0 PUSH1 0x40 MLOAD DUP1 DUP4 SUB DUP2 PUSH1 0x0 DUP8 DUP1 EXTCODESIZE ISZERO DUP1 ISZERO PUSH2 0x8CD JUMPI PUSH1 0x0 DUP1 REVERT JUMPDEST POP GAS CALL ISZERO DUP1 ISZERO PUSH2 0x8E1 JUMPI RETURNDATASIZE PUSH1 0x0 DUP1 RETURNDATACOPY RETURNDATASIZE PUSH1 0x0 REVERT JUMPDEST POP POP POP POP DUP1 DUP1 PUSH2 0x8F0 SWAP1 PUSH2 0x2ED7 JUMP JUMPDEST SWAP2 POP POP PUSH2 0x775 JUMP JUMPDEST POP PUSH2 0x910 DUP2 DUP4 PUSH1 0x0 ADD SLOAD PUSH2 0x1F31 SWAP1 SWAP2 SWAP1 PUSH4 0xFFFFFFFF AND JUMP JUMPDEST DUP3 PUSH1 0x0 ADD DUP2 SWAP1 SSTORE POP PUSH2 0x948 PUSH5 0xE8D4A51000 PUSH2 0x93A PUSH1 0x2 SLOAD DUP6 PUSH1 0x0 ADD SLOAD PUSH2 0x1EEF SWAP1 SWAP2 SWAP1 PUSH4 0xFFFFFFFF AND JUMP JUMPDEST PUSH2 0x1F05 SWAP1 SWAP2 SWAP1 PUSH4 0xFFFFFFFF AND JUMP JUMPDEST DUP3 PUSH1 0x1 ADD DUP2 SWAP1 SSTORE POP TIMESTAMP DUP3 PUSH1 0x3 ADD DUP2 SWAP1 SSTORE POP PUSH32 0x134B166C6094CC1CCBF1E3353CE5C3CD9FD29869051BDB999895854D77CC5EF6 CALLER DUP6 DUP6 PUSH1 0x40 MLOAD PUSH2 0x98C SWAP4 SWAP3 SWAP2 SWAP1 PUSH2 0x29F9 JUMP JUMPDEST PUSH1 0x40 MLOAD DUP1 SWAP2 SUB SWAP1 LOG1 POP POP POP POP JUMP JUMPDEST PUSH1 0xB PUSH1 0x20 MSTORE DUP1 PUSH1 0x0 MSTORE PUSH1 0x40 PUSH1 0x0 KECCAK256 PUSH1 0x0 SWAP2 POP SWAP1 POP DUP1 PUSH1 0x0 ADD SLOAD SWAP1 DUP1 PUSH1 0x1 ADD SLOAD SWAP1 DUP1 PUSH1 0x2 ADD SLOAD SWAP1 DUP1 PUSH1 0x3 ADD SLOAD SWAP1 POP DUP5 JUMP JUMPDEST PUSH32 0x0 DUP2 JUMP JUMPDEST PUSH2 0x9F6 PUSH2 0x1F47 JUMP JUMPDEST PUSH20 0xFFFFFFFFFFFFFFFFFFFFFFFFFFFFFFFFFFFFFFFF AND PUSH2 0xA14 PUSH2 0x1319 JUMP JUMPDEST PUSH20 0xFFFFFFFFFFFFFFFFFFFFFFFFFFFFFFFFFFFFFFFF AND EQ PUSH2 0xA6A JUMPI PUSH1 0x40 MLOAD PUSH32 0x8C379A000000000000000000000000000000000000000000000000000000000 DUP2 MSTORE PUSH1 0x4 ADD PUSH2 0xA61 SWAP1 PUSH2 0x2BA5 JUMP JUMPDEST PUSH1 0x40 MLOAD DUP1 SWAP2 SUB SWAP1 REVERT JUMPDEST PUSH2 0xAB7 CALLER ADDRESS DUP4 PUSH32 0x0 PUSH20 0xFFFFFFFFFFFFFFFFFFFFFFFFFFFFFFFFFFFFFFFF AND PUSH2 0x1F4F SWAP1 SWAP4 SWAP3 SWAP2 SWAP1 PUSH4 0xFFFFFFFF AND JUMP JUMPDEST CALLER PUSH20 0xFFFFFFFFFFFFFFFFFFFFFFFFFFFFFFFFFFFFFFFF AND PUSH32 0x4F7FD5C9E17300A4800FD572EA53FC291E2EE7470D73346D16B357FAEE4E7210 DUP3 PUSH1 0x40 MLOAD PUSH2 0xAFD SWAP2 SWAP1 PUSH2 0x2C25 JUMP JUMPDEST PUSH1 0x40 MLOAD DUP1 SWAP2 SUB SWAP1 LOG2 PUSH2 0xB1A DUP2 PUSH1 0x7 SLOAD PUSH2 0x1F31 SWAP1 SWAP2 SWAP1 PUSH4 0xFFFFFFFF AND JUMP JUMPDEST PUSH1 0x7 DUP2 SWAP1 SSTORE POP POP JUMP JUMPDEST PUSH1 0x60 PUSH1 0x0 PUSH1 0xB PUSH1 0x0 CALLER PUSH20 0xFFFFFFFFFFFFFFFFFFFFFFFFFFFFFFFFFFFFFFFF AND PUSH20 0xFFFFFFFFFFFFFFFFFFFFFFFFFFFFFFFFFFFFFFFF AND DUP2 MSTORE PUSH1 0x20 ADD SWAP1 DUP2 MSTORE PUSH1 0x20 ADD PUSH1 0x0 KECCAK256 PUSH1 0x0 ADD SLOAD PUSH8 0xFFFFFFFFFFFFFFFF DUP2 GT ISZERO PUSH2 0xB83 JUMPI PUSH2 0xB82 PUSH2 0x2FAD JUMP JUMPDEST JUMPDEST PUSH1 0x40 MLOAD SWAP1 DUP1 DUP3 MSTORE DUP1 PUSH1 0x20 MUL PUSH1 0x20 ADD DUP3 ADD PUSH1 0x40 MSTORE DUP1 ISZERO PUSH2 0xBB1 JUMPI DUP2 PUSH1 0x20 ADD PUSH1 0x20 DUP3 MUL DUP1 CALLDATASIZE DUP4 CALLDATACOPY DUP1 DUP3 ADD SWAP2 POP POP SWAP1 POP JUMPDEST POP SWAP1 POP PUSH1 0x0 JUMPDEST PUSH1 0xB PUSH1 0x0 CALLER PUSH20 0xFFFFFFFFFFFFFFFFFFFFFFFFFFFFFFFFFFFFFFFF AND PUSH20 0xFFFFFFFFFFFFFFFFFFFFFFFFFFFFFFFFFFFFFFFF AND DUP2 MSTORE PUSH1 0x20 ADD SWAP1 DUP2 MSTORE PUSH1 0x20 ADD PUSH1 0x0 KECCAK256 PUSH1 0x0 ADD SLOAD DUP2 LT ISZERO PUSH2 0xC84 JUMPI PUSH1 0x9 PUSH1 0x0 CALLER PUSH20 0xFFFFFFFFFFFFFFFFFFFFFFFFFFFFFFFFFFFFFFFF AND PUSH20 0xFFFFFFFFFFFFFFFFFFFFFFFFFFFFFFFFFFFFFFFF AND DUP2 MSTORE PUSH1 0x20 ADD SWAP1 DUP2 MSTORE PUSH1 0x20 ADD PUSH1 0x0 KECCAK256 PUSH1 0x0 DUP3 DUP2 MSTORE PUSH1 0x20 ADD SWAP1 DUP2 MSTORE PUSH1 0x20 ADD PUSH1 0x0 KECCAK256 SLOAD DUP3 DUP3 DUP2 MLOAD DUP2 LT PUSH2 0xC65 JUMPI PUSH2 0xC64 PUSH2 0x2F7E JUMP JUMPDEST JUMPDEST PUSH1 0x20 MUL PUSH1 0x20 ADD ADD DUP2 DUP2 MSTORE POP POP DUP1 DUP1 PUSH2 0xC7C SWAP1 PUSH2 0x2ED7 JUMP JUMPDEST SWAP2 POP POP PUSH2 0xBB7 JUMP JUMPDEST POP DUP1 SWAP2 POP POP SWAP1 JUMP JUMPDEST PUSH1 0x2 SLOAD DUP2 JUMP JUMPDEST PUSH1 0x0 PUSH2 0xC9D CALLER PUSH2 0x1FD8 JUMP JUMPDEST SWAP1 POP PUSH1 0x0 PUSH1 0xB PUSH1 0x0 CALLER PUSH20 0xFFFFFFFFFFFFFFFFFFFFFFFFFFFFFFFFFFFFFFFF AND PUSH20 0xFFFFFFFFFFFFFFFFFFFFFFFFFFFFFFFFFFFFFFFF AND DUP2 MSTORE PUSH1 0x20 ADD SWAP1 DUP2 MSTORE PUSH1 0x20 ADD PUSH1 0x0 KECCAK256 SWAP1 POP PUSH1 0x0 PUSH2 0xD0C PUSH1 0x64 PUSH2 0xCFE PUSH1 0x5 SLOAD DUP7 PUSH2 0x1EEF SWAP1 SWAP2 SWAP1 PUSH4 0xFFFFFFFF AND JUMP JUMPDEST PUSH2 0x1F05 SWAP1 SWAP2 SWAP1 PUSH4 0xFFFFFFFF AND JUMP JUMPDEST SWAP1 POP PUSH1 0x0 DUP2 DUP5 PUSH2 0xD1C SWAP2 SWAP1 PUSH2 0x2DD1 JUMP JUMPDEST SWAP1 POP DUP1 PUSH32 0x0 PUSH20 0xFFFFFFFFFFFFFFFFFFFFFFFFFFFFFFFFFFFFFFFF AND PUSH4 0x70A08231 ADDRESS PUSH1 0x40 MLOAD DUP3 PUSH4 0xFFFFFFFF AND PUSH1 0xE0 SHL DUP2 MSTORE PUSH1 0x4 ADD PUSH2 0xD78 SWAP2 SWAP1 PUSH2 0x29A7 JUMP JUMPDEST PUSH1 0x20 PUSH1 0x40 MLOAD DUP1 DUP4 SUB DUP2 DUP7 DUP1 EXTCODESIZE ISZERO DUP1 ISZERO PUSH2 0xD90 JUMPI PUSH1 0x0 DUP1 REVERT JUMPDEST POP GAS STATICCALL ISZERO DUP1 ISZERO PUSH2 0xDA4 JUMPI RETURNDATASIZE PUSH1 0x0 DUP1 RETURNDATACOPY RETURNDATASIZE PUSH1 0x0 REVERT JUMPDEST POP POP POP POP PUSH1 0x40 MLOAD RETURNDATASIZE PUSH1 0x1F NOT PUSH1 0x1F DUP3 ADD AND DUP3 ADD DUP1 PUSH1 0x40 MSTORE POP DUP2 ADD SWAP1 PUSH2 0xDC8 SWAP2 SWAP1 PUSH2 0x2661 JUMP JUMPDEST LT ISZERO PUSH2 0xE7A JUMPI PUSH32 0x0 PUSH20 0xFFFFFFFFFFFFFFFFFFFFFFFFFFFFFFFFFFFFFFFF AND PUSH4 0x70A08231 ADDRESS PUSH1 0x40 MLOAD DUP3 PUSH4 0xFFFFFFFF AND PUSH1 0xE0 SHL DUP2 MSTORE PUSH1 0x4 ADD PUSH2 0xE27 SWAP2 SWAP1 PUSH2 0x29A7 JUMP JUMPDEST PUSH1 0x20 PUSH1 0x40 MLOAD DUP1 DUP4 SUB DUP2 DUP7 DUP1 EXTCODESIZE ISZERO DUP1 ISZERO PUSH2 0xE3F JUMPI PUSH1 0x0 DUP1 REVERT JUMPDEST POP GAS STATICCALL ISZERO DUP1 ISZERO PUSH2 0xE53 JUMPI RETURNDATASIZE PUSH1 0x0 DUP1 RETURNDATACOPY RETURNDATASIZE PUSH1 0x0 REVERT JUMPDEST POP POP POP POP PUSH1 0x40 MLOAD RETURNDATASIZE PUSH1 0x1F NOT PUSH1 0x1F DUP3 ADD AND DUP3 ADD DUP1 PUSH1 0x40 MSTORE POP DUP2 ADD SWAP1 PUSH2 0xE77 SWAP2 SWAP1 PUSH2 0x2661 JUMP JUMPDEST SWAP1 POP JUMPDEST PUSH2 0xEC5 CALLER DUP3 PUSH32 0x0 PUSH20 0xFFFFFFFFFFFFFFFFFFFFFFFFFFFFFFFFFFFFFFFF AND PUSH2 0x210B SWAP1 SWAP3 SWAP2 SWAP1 PUSH4 0xFFFFFFFF AND JUMP JUMPDEST DUP2 PUSH32 0x0 PUSH20 0xFFFFFFFFFFFFFFFFFFFFFFFFFFFFFFFFFFFFFFFF AND PUSH4 0x70A08231 ADDRESS PUSH1 0x40 MLOAD DUP3 PUSH4 0xFFFFFFFF AND PUSH1 0xE0 SHL DUP2 MSTORE PUSH1 0x4 ADD PUSH2 0xF1F SWAP2 SWAP1 PUSH2 0x29A7 JUMP JUMPDEST PUSH1 0x20 PUSH1 0x40 MLOAD DUP1 DUP4 SUB DUP2 DUP7 DUP1 EXTCODESIZE ISZERO DUP1 ISZERO PUSH2 0xF37 JUMPI PUSH1 0x0 DUP1 REVERT JUMPDEST POP GAS STATICCALL ISZERO DUP1 ISZERO PUSH2 0xF4B JUMPI RETURNDATASIZE PUSH1 0x0 DUP1 RETURNDATACOPY RETURNDATASIZE PUSH1 0x0 REVERT JUMPDEST POP POP POP POP PUSH1 0x40 MLOAD RETURNDATASIZE PUSH1 0x1F NOT PUSH1 0x1F DUP3 ADD AND DUP3 ADD DUP1 PUSH1 0x40 MSTORE POP DUP2 ADD SWAP1 PUSH2 0xF6F SWAP2 SWAP1 PUSH2 0x2661 JUMP JUMPDEST LT ISZERO PUSH2 0x1021 JUMPI PUSH32 0x0 PUSH20 0xFFFFFFFFFFFFFFFFFFFFFFFFFFFFFFFFFFFFFFFF AND PUSH4 0x70A08231 ADDRESS PUSH1 0x40 MLOAD DUP3 PUSH4 0xFFFFFFFF AND PUSH1 0xE0 SHL DUP2 MSTORE PUSH1 0x4 ADD PUSH2 0xFCE SWAP2 SWAP1 PUSH2 0x29A7 JUMP JUMPDEST PUSH1 0x20 PUSH1 0x40 MLOAD DUP1 DUP4 SUB DUP2 DUP7 DUP1 EXTCODESIZE ISZERO DUP1 ISZERO PUSH2 0xFE6 JUMPI PUSH1 0x0 DUP1 REVERT JUMPDEST POP GAS STATICCALL ISZERO DUP1 ISZERO PUSH2 0xFFA JUMPI RETURNDATASIZE PUSH1 0x0 DUP1 RETURNDATACOPY RETURNDATASIZE PUSH1 0x0 REVERT JUMPDEST POP POP POP POP PUSH1 0x40 MLOAD RETURNDATASIZE PUSH1 0x1F NOT PUSH1 0x1F DUP3 ADD AND DUP3 ADD DUP1 PUSH1 0x40 MSTORE POP DUP2 ADD SWAP1 PUSH2 0x101E SWAP2 SWAP1 PUSH2 0x2661 JUMP JUMPDEST SWAP2 POP JUMPDEST PUSH2 0x108E PUSH1 0x4 PUSH1 0x0 SWAP1 SLOAD SWAP1 PUSH2 0x100 EXP SWAP1 DIV PUSH20 0xFFFFFFFFFFFFFFFFFFFFFFFFFFFFFFFFFFFFFFFF AND DUP4 PUSH32 0x0 PUSH20 0xFFFFFFFFFFFFFFFFFFFFFFFFFFFFFFFFFFFFFFFF AND PUSH2 0x210B SWAP1 SWAP3 SWAP2 SWAP1 PUSH4 0xFFFFFFFF AND JUMP JUMPDEST PUSH2 0x1096 PUSH2 0x1DBB JUMP JUMPDEST PUSH1 0x0 DUP4 PUSH1 0x2 ADD DUP2 SWAP1 SSTORE POP PUSH2 0x10D0 PUSH5 0xE8D4A51000 PUSH2 0x10C2 PUSH1 0x2 SLOAD DUP7 PUSH1 0x0 ADD SLOAD PUSH2 0x1EEF SWAP1 SWAP2 SWAP1 PUSH4 0xFFFFFFFF AND JUMP JUMPDEST PUSH2 0x1F05 SWAP1 SWAP2 SWAP1 PUSH4 0xFFFFFFFF AND JUMP JUMPDEST DUP4 PUSH1 0x1 ADD DUP2 SWAP1 SSTORE POP PUSH32 0x71BAB65CED2E5750775A0613BE067DF48EF06CF92A496EBF7663AE0660924954 CALLER DUP3 DUP5 PUSH1 0x40 MLOAD PUSH2 0x110B SWAP4 SWAP3 SWAP2 SWAP1 PUSH2 0x2A54 JUMP JUMPDEST PUSH1 0x40 MLOAD DUP1 SWAP2 SUB SWAP1 LOG1 POP POP POP POP JUMP JUMPDEST PUSH1 0x6 SLOAD DUP2 JUMP JUMPDEST PUSH1 0x0 PUSH1 0x1 SLOAD NUMBER GT DUP1 ISZERO PUSH2 0x1135 JUMPI POP PUSH1 0x0 PUSH1 0x6 SLOAD EQ ISZERO JUMPDEST ISZERO PUSH2 0x1181 JUMPI PUSH1 0x0 PUSH2 0x1148 PUSH1 0x1 SLOAD NUMBER PUSH2 0x1342 JUMP JUMPDEST SWAP1 POP PUSH1 0x0 PUSH2 0x1161 PUSH1 0x3 SLOAD DUP4 PUSH2 0x1EEF SWAP1 SWAP2 SWAP1 PUSH4 0xFFFFFFFF AND JUMP JUMPDEST SWAP1 POP PUSH2 0x1178 DUP2 PUSH1 0x7 SLOAD PUSH2 0x1F1B SWAP1 SWAP2 SWAP1 PUSH4 0xFFFFFFFF AND JUMP JUMPDEST SWAP3 POP POP POP PUSH2 0x1187 JUMP JUMPDEST PUSH1 0x7 SLOAD SWAP1 POP JUMPDEST SWAP1 JUMP JUMPDEST PUSH2 0x1192 PUSH2 0x1F47 JUMP JUMPDEST PUSH20 0xFFFFFFFFFFFFFFFFFFFFFFFFFFFFFFFFFFFFFFFF AND PUSH2 0x11B0 PUSH2 0x1319 JUMP JUMPDEST PUSH20 0xFFFFFFFFFFFFFFFFFFFFFFFFFFFFFFFFFFFFFFFF AND EQ PUSH2 0x1206 JUMPI PUSH1 0x40 MLOAD PUSH32 0x8C379A000000000000000000000000000000000000000000000000000000000 DUP2 MSTORE PUSH1 0x4 ADD PUSH2 0x11FD SWAP1 PUSH2 0x2BA5 JUMP JUMPDEST PUSH1 0x40 MLOAD DUP1 SWAP2 SUB SWAP1 REVERT JUMPDEST PUSH2 0x1210 PUSH1 0x0 PUSH2 0x2191 JUMP JUMPDEST JUMP JUMPDEST PUSH2 0x121A PUSH2 0x1F47 JUMP JUMPDEST PUSH20 0xFFFFFFFFFFFFFFFFFFFFFFFFFFFFFFFFFFFFFFFF AND PUSH2 0x1238 PUSH2 0x1319 JUMP JUMPDEST PUSH20 0xFFFFFFFFFFFFFFFFFFFFFFFFFFFFFFFFFFFFFFFF AND EQ PUSH2 0x128E JUMPI PUSH1 0x40 MLOAD PUSH32 0x8C379A000000000000000000000000000000000000000000000000000000000 DUP2 MSTORE PUSH1 0x4 ADD PUSH2 0x1285 SWAP1 PUSH2 0x2BA5 JUMP JUMPDEST PUSH1 0x40 MLOAD DUP1 SWAP2 SUB SWAP1 REVERT JUMPDEST PUSH1 0x28 DUP2 GT ISZERO PUSH2 0x12D2 JUMPI PUSH1 0x40 MLOAD PUSH32 0x8C379A000000000000000000000000000000000000000000000000000000000 DUP2 MSTORE PUSH1 0x4 ADD PUSH2 0x12C9 SWAP1 PUSH2 0x2BC5 JUMP JUMPDEST PUSH1 0x40 MLOAD DUP1 SWAP2 SUB SWAP1 REVERT JUMPDEST DUP1 PUSH1 0x5 DUP2 SWAP1 SSTORE POP PUSH32 0xF419800A2D8930C61D5D9CD782AA72C512CF6BE2F79DA6DB0B8855870B7269ED DUP2 PUSH1 0x40 MLOAD PUSH2 0x1308 SWAP2 SWAP1 PUSH2 0x2C25 JUMP JUMPDEST PUSH1 0x40 MLOAD DUP1 SWAP2 SUB SWAP1 LOG1 POP JUMP JUMPDEST PUSH1 0x3 SLOAD DUP2 JUMP JUMPDEST PUSH1 0x0 DUP1 PUSH1 0x0 SWAP1 SLOAD SWAP1 PUSH2 0x100 EXP SWAP1 DIV PUSH20 0xFFFFFFFFFFFFFFFFFFFFFFFFFFFFFFFFFFFFFFFF AND SWAP1 POP SWAP1 JUMP JUMPDEST PUSH1 0x0 PUSH2 0x1357 DUP4 DUP4 PUSH2 0x1F1B SWAP1 SWAP2 SWAP1 PUSH4 0xFFFFFFFF AND JUMP JUMPDEST SWAP1 POP SWAP3 SWAP2 POP POP JUMP JUMPDEST PUSH2 0x1367 PUSH2 0x1F47 JUMP JUMPDEST PUSH20 0xFFFFFFFFFFFFFFFFFFFFFFFFFFFFFFFFFFFFFFFF AND PUSH2 0x1385 PUSH2 0x1319 JUMP JUMPDEST PUSH20 0xFFFFFFFFFFFFFFFFFFFFFFFFFFFFFFFFFFFFFFFF AND EQ PUSH2 0x13DB JUMPI PUSH1 0x40 MLOAD PUSH32 0x8C379A000000000000000000000000000000000000000000000000000000000 DUP2 MSTORE PUSH1 0x4 ADD PUSH2 0x13D2 SWAP1 PUSH2 0x2BA5 JUMP JUMPDEST PUSH1 0x40 MLOAD DUP1 SWAP2 SUB SWAP1 REVERT JUMPDEST DUP1 PUSH1 0x4 PUSH1 0x0 PUSH2 0x100 EXP DUP2 SLOAD DUP2 PUSH20 0xFFFFFFFFFFFFFFFFFFFFFFFFFFFFFFFFFFFFFFFF MUL NOT AND SWAP1 DUP4 PUSH20 0xFFFFFFFFFFFFFFFFFFFFFFFFFFFFFFFFFFFFFFFF AND MUL OR SWAP1 SSTORE POP PUSH1 0x4 PUSH1 0x0 SWAP1 SLOAD SWAP1 PUSH2 0x100 EXP SWAP1 DIV PUSH20 0xFFFFFFFFFFFFFFFFFFFFFFFFFFFFFFFFFFFFFFFF AND PUSH20 0xFFFFFFFFFFFFFFFFFFFFFFFFFFFFFFFFFFFFFFFF AND PUSH32 0x3D21E5A2B633291BD1FF5F9C654E402D063783C95759D2EA521B31FB30E4DA41 PUSH1 0x40 MLOAD PUSH1 0x40 MLOAD DUP1 SWAP2 SUB SWAP1 LOG2 POP JUMP JUMPDEST PUSH1 0x1 SLOAD DUP2 JUMP JUMPDEST PUSH1 0x5 SLOAD DUP2 JUMP JUMPDEST PUSH32 0x0 DUP2 JUMP JUMPDEST PUSH1 0x0 DUP1 PUSH2 0x14C0 DUP4 PUSH2 0x1FD8 JUMP JUMPDEST SWAP1 POP PUSH1 0x0 PUSH2 0x14EC PUSH1 0x64 PUSH2 0x14DE PUSH1 0x5 SLOAD DUP6 PUSH2 0x1EEF SWAP1 SWAP2 SWAP1 PUSH4 0xFFFFFFFF AND JUMP JUMPDEST PUSH2 0x1F05 SWAP1 SWAP2 SWAP1 PUSH4 0xFFFFFFFF AND JUMP JUMPDEST SWAP1 POP DUP1 DUP3 PUSH2 0x14FA SWAP2 SWAP1 PUSH2 0x2DD1 JUMP JUMPDEST SWAP3 POP POP POP SWAP2 SWAP1 POP JUMP JUMPDEST PUSH1 0x0 DUP3 DUP3 SWAP1 POP GT PUSH2 0x1549 JUMPI PUSH1 0x40 MLOAD PUSH32 0x8C379A000000000000000000000000000000000000000000000000000000000 DUP2 MSTORE PUSH1 0x4 ADD PUSH2 0x1540 SWAP1 PUSH2 0x2B05 JUMP JUMPDEST PUSH1 0x40 MLOAD DUP1 SWAP2 SUB SWAP1 REVERT JUMPDEST PUSH1 0x0 JUMPDEST DUP3 DUP3 SWAP1 POP DUP2 LT ISZERO PUSH2 0x1680 JUMPI PUSH1 0x0 PUSH1 0xA PUSH1 0x0 DUP6 DUP6 DUP6 DUP2 DUP2 LT PUSH2 0x1570 JUMPI PUSH2 0x156F PUSH2 0x2F7E JUMP JUMPDEST JUMPDEST SWAP1 POP PUSH1 0x20 MUL ADD CALLDATALOAD DUP2 MSTORE PUSH1 0x20 ADD SWAP1 DUP2 MSTORE PUSH1 0x20 ADD PUSH1 0x0 KECCAK256 SLOAD EQ ISZERO PUSH2 0x15C7 JUMPI PUSH1 0x40 MLOAD PUSH32 0x8C379A000000000000000000000000000000000000000000000000000000000 DUP2 MSTORE PUSH1 0x4 ADD PUSH2 0x15BE SWAP1 PUSH2 0x2C05 JUMP JUMPDEST PUSH1 0x40 MLOAD DUP1 SWAP2 SUB SWAP1 REVERT JUMPDEST PUSH1 0x0 PUSH1 0x1 DUP3 PUSH2 0x15D6 SWAP2 SWAP1 PUSH2 0x2CF0 JUMP JUMPDEST SWAP1 POP JUMPDEST DUP4 DUP4 SWAP1 POP DUP2 LT ISZERO PUSH2 0x166C JUMPI DUP4 DUP4 DUP3 DUP2 DUP2 LT PUSH2 0x15F7 JUMPI PUSH2 0x15F6 PUSH2 0x2F7E JUMP JUMPDEST JUMPDEST SWAP1 POP PUSH1 0x20 MUL ADD CALLDATALOAD DUP5 DUP5 DUP5 DUP2 DUP2 LT PUSH2 0x1611 JUMPI PUSH2 0x1610 PUSH2 0x2F7E JUMP JUMPDEST JUMPDEST SWAP1 POP PUSH1 0x20 MUL ADD CALLDATALOAD EQ ISZERO PUSH2 0x1659 JUMPI PUSH1 0x40 MLOAD PUSH32 0x8C379A000000000000000000000000000000000000000000000000000000000 DUP2 MSTORE PUSH1 0x4 ADD PUSH2 0x1650 SWAP1 PUSH2 0x2B65 JUMP JUMPDEST PUSH1 0x40 MLOAD DUP1 SWAP2 SUB SWAP1 REVERT JUMPDEST DUP1 DUP1 PUSH2 0x1664 SWAP1 PUSH2 0x2ED7 JUMP JUMPDEST SWAP2 POP POP PUSH2 0x15D9 JUMP JUMPDEST POP DUP1 DUP1 PUSH2 0x1678 SWAP1 PUSH2 0x2ED7 JUMP JUMPDEST SWAP2 POP POP PUSH2 0x154C JUMP JUMPDEST POP PUSH2 0x1689 PUSH2 0x1DBB JUMP JUMPDEST PUSH1 0x0 PUSH1 0xB PUSH1 0x0 CALLER PUSH20 0xFFFFFFFFFFFFFFFFFFFFFFFFFFFFFFFFFFFFFFFF AND PUSH20 0xFFFFFFFFFFFFFFFFFFFFFFFFFFFFFFFFFFFFFFFF AND DUP2 MSTORE PUSH1 0x20 ADD SWAP1 DUP2 MSTORE PUSH1 0x20 ADD PUSH1 0x0 KECCAK256 SWAP1 POP PUSH1 0x0 PUSH2 0x1714 DUP3 PUSH1 0x1 ADD SLOAD PUSH2 0x1706 PUSH5 0xE8D4A51000 PUSH2 0x16F8 PUSH1 0x2 SLOAD DUP8 PUSH1 0x0 ADD SLOAD PUSH2 0x1EEF SWAP1 SWAP2 SWAP1 PUSH4 0xFFFFFFFF AND JUMP JUMPDEST PUSH2 0x1F05 SWAP1 SWAP2 SWAP1 PUSH4 0xFFFFFFFF AND JUMP JUMPDEST PUSH2 0x1F1B SWAP1 SWAP2 SWAP1 PUSH4 0xFFFFFFFF AND JUMP JUMPDEST SWAP1 POP DUP1 PUSH32 0x0 PUSH20 0xFFFFFFFFFFFFFFFFFFFFFFFFFFFFFFFFFFFFFFFF AND PUSH4 0x70A08231 ADDRESS PUSH1 0x40 MLOAD DUP3 PUSH4 0xFFFFFFFF AND PUSH1 0xE0 SHL DUP2 MSTORE PUSH1 0x4 ADD PUSH2 0x1770 SWAP2 SWAP1 PUSH2 0x29A7 JUMP JUMPDEST PUSH1 0x20 PUSH1 0x40 MLOAD DUP1 DUP4 SUB DUP2 DUP7 DUP1 EXTCODESIZE ISZERO DUP1 ISZERO PUSH2 0x1788 JUMPI PUSH1 0x0 DUP1 REVERT JUMPDEST POP GAS STATICCALL ISZERO DUP1 ISZERO PUSH2 0x179C JUMPI RETURNDATASIZE PUSH1 0x0 DUP1 RETURNDATACOPY RETURNDATASIZE PUSH1 0x0 REVERT JUMPDEST POP POP POP POP PUSH1 0x40 MLOAD RETURNDATASIZE PUSH1 0x1F NOT PUSH1 0x1F DUP3 ADD AND DUP3 ADD DUP1 PUSH1 0x40 MSTORE POP DUP2 ADD SWAP1 PUSH2 0x17C0 SWAP2 SWAP1 PUSH2 0x2661 JUMP JUMPDEST LT ISZERO PUSH2 0x1872 JUMPI PUSH32 0x0 PUSH20 0xFFFFFFFFFFFFFFFFFFFFFFFFFFFFFFFFFFFFFFFF AND PUSH4 0x70A08231 ADDRESS PUSH1 0x40 MLOAD DUP3 PUSH4 0xFFFFFFFF AND PUSH1 0xE0 SHL DUP2 MSTORE PUSH1 0x4 ADD PUSH2 0x181F SWAP2 SWAP1 PUSH2 0x29A7 JUMP JUMPDEST PUSH1 0x20 PUSH1 0x40 MLOAD DUP1 DUP4 SUB DUP2 DUP7 DUP1 EXTCODESIZE ISZERO DUP1 ISZERO PUSH2 0x1837 JUMPI PUSH1 0x0 DUP1 REVERT JUMPDEST POP GAS STATICCALL ISZERO DUP1 ISZERO PUSH2 0x184B JUMPI RETURNDATASIZE PUSH1 0x0 DUP1 RETURNDATACOPY RETURNDATASIZE PUSH1 0x0 REVERT JUMPDEST POP POP POP POP PUSH1 0x40 MLOAD RETURNDATASIZE PUSH1 0x1F NOT PUSH1 0x1F DUP3 ADD AND DUP3 ADD DUP1 PUSH1 0x40 MSTORE POP DUP2 ADD SWAP1 PUSH2 0x186F SWAP2 SWAP1 PUSH2 0x2661 JUMP JUMPDEST SWAP1 POP JUMPDEST PUSH2 0x1889 DUP2 DUP4 PUSH1 0x2 ADD SLOAD PUSH2 0x1F31 SWAP1 SWAP2 SWAP1 PUSH4 0xFFFFFFFF AND JUMP JUMPDEST DUP3 PUSH1 0x2 ADD DUP2 SWAP1 SSTORE POP PUSH1 0x0 DUP5 DUP5 SWAP1 POP SWAP1 POP PUSH1 0x0 JUMPDEST DUP2 DUP2 LT ISZERO PUSH2 0x1BE8 JUMPI PUSH1 0x1 DUP2 DUP6 PUSH1 0x0 ADD SLOAD PUSH2 0x18B6 SWAP2 SWAP1 PUSH2 0x2DD1 JUMP JUMPDEST PUSH2 0x18C0 SWAP2 SWAP1 PUSH2 0x2DD1 JUMP JUMPDEST PUSH1 0xA PUSH1 0x0 DUP9 DUP9 DUP6 DUP2 DUP2 LT PUSH2 0x18D7 JUMPI PUSH2 0x18D6 PUSH2 0x2F7E JUMP JUMPDEST JUMPDEST SWAP1 POP PUSH1 0x20 MUL ADD CALLDATALOAD DUP2 MSTORE PUSH1 0x20 ADD SWAP1 DUP2 MSTORE PUSH1 0x20 ADD PUSH1 0x0 KECCAK256 SLOAD EQ PUSH2 0x1A8E JUMPI PUSH1 0x9 PUSH1 0x0 CALLER PUSH20 0xFFFFFFFFFFFFFFFFFFFFFFFFFFFFFFFFFFFFFFFF AND PUSH20 0xFFFFFFFFFFFFFFFFFFFFFFFFFFFFFFFFFFFFFFFF AND DUP2 MSTORE PUSH1 0x20 ADD SWAP1 DUP2 MSTORE PUSH1 0x20 ADD PUSH1 0x0 KECCAK256 PUSH1 0x0 PUSH1 0x1 DUP4 DUP8 PUSH1 0x0 ADD SLOAD PUSH2 0x1945 SWAP2 SWAP1 PUSH2 0x2DD1 JUMP JUMPDEST PUSH2 0x194F SWAP2 SWAP1 PUSH2 0x2DD1 JUMP JUMPDEST DUP2 MSTORE PUSH1 0x20 ADD SWAP1 DUP2 MSTORE PUSH1 0x20 ADD PUSH1 0x0 KECCAK256 SLOAD PUSH1 0x9 PUSH1 0x0 CALLER PUSH20 0xFFFFFFFFFFFFFFFFFFFFFFFFFFFFFFFFFFFFFFFF AND PUSH20 0xFFFFFFFFFFFFFFFFFFFFFFFFFFFFFFFFFFFFFFFF AND DUP2 MSTORE PUSH1 0x20 ADD SWAP1 DUP2 MSTORE PUSH1 0x20 ADD PUSH1 0x0 KECCAK256 PUSH1 0x0 PUSH1 0xA PUSH1 0x0 DUP11 DUP11 DUP8 DUP2 DUP2 LT PUSH2 0x19B6 JUMPI PUSH2 0x19B5 PUSH2 0x2F7E JUMP JUMPDEST JUMPDEST SWAP1 POP PUSH1 0x20 MUL ADD CALLDATALOAD DUP2 MSTORE PUSH1 0x20 ADD SWAP1 DUP2 MSTORE PUSH1 0x20 ADD PUSH1 0x0 KECCAK256 SLOAD DUP2 MSTORE PUSH1 0x20 ADD SWAP1 DUP2 MSTORE PUSH1 0x20 ADD PUSH1 0x0 KECCAK256 DUP2 SWAP1 SSTORE POP PUSH1 0xA PUSH1 0x0 DUP8 DUP8 DUP5 DUP2 DUP2 LT PUSH2 0x19F5 JUMPI PUSH2 0x19F4 PUSH2 0x2F7E JUMP JUMPDEST JUMPDEST SWAP1 POP PUSH1 0x20 MUL ADD CALLDATALOAD DUP2 MSTORE PUSH1 0x20 ADD SWAP1 DUP2 MSTORE PUSH1 0x20 ADD PUSH1 0x0 KECCAK256 SLOAD PUSH1 0xA PUSH1 0x0 PUSH1 0x9 PUSH1 0x0 CALLER PUSH20 0xFFFFFFFFFFFFFFFFFFFFFFFFFFFFFFFFFFFFFFFF AND PUSH20 0xFFFFFFFFFFFFFFFFFFFFFFFFFFFFFFFFFFFFFFFF AND DUP2 MSTORE PUSH1 0x20 ADD SWAP1 DUP2 MSTORE PUSH1 0x20 ADD PUSH1 0x0 KECCAK256 PUSH1 0x0 PUSH1 0x1 DUP7 DUP11 PUSH1 0x0 ADD SLOAD PUSH2 0x1A62 SWAP2 SWAP1 PUSH2 0x2DD1 JUMP JUMPDEST PUSH2 0x1A6C SWAP2 SWAP1 PUSH2 0x2DD1 JUMP JUMPDEST DUP2 MSTORE PUSH1 0x20 ADD SWAP1 DUP2 MSTORE PUSH1 0x20 ADD PUSH1 0x0 KECCAK256 SLOAD DUP2 MSTORE PUSH1 0x20 ADD SWAP1 DUP2 MSTORE PUSH1 0x20 ADD PUSH1 0x0 KECCAK256 DUP2 SWAP1 SSTORE POP JUMPDEST PUSH1 0xA PUSH1 0x0 DUP8 DUP8 DUP5 DUP2 DUP2 LT PUSH2 0x1AA5 JUMPI PUSH2 0x1AA4 PUSH2 0x2F7E JUMP JUMPDEST JUMPDEST SWAP1 POP PUSH1 0x20 MUL ADD CALLDATALOAD DUP2 MSTORE PUSH1 0x20 ADD SWAP1 DUP2 MSTORE PUSH1 0x20 ADD PUSH1 0x0 KECCAK256 PUSH1 0x0 SWAP1 SSTORE PUSH1 0x9 PUSH1 0x0 CALLER PUSH20 0xFFFFFFFFFFFFFFFFFFFFFFFFFFFFFFFFFFFFFFFF AND PUSH20 0xFFFFFFFFFFFFFFFFFFFFFFFFFFFFFFFFFFFFFFFF AND DUP2 MSTORE PUSH1 0x20 ADD SWAP1 DUP2 MSTORE PUSH1 0x20 ADD PUSH1 0x0 KECCAK256 PUSH1 0x0 PUSH1 0x1 DUP4 DUP8 PUSH1 0x0 ADD SLOAD PUSH2 0x1B11 SWAP2 SWAP1 PUSH2 0x2DD1 JUMP JUMPDEST PUSH2 0x1B1B SWAP2 SWAP1 PUSH2 0x2DD1 JUMP JUMPDEST DUP2 MSTORE PUSH1 0x20 ADD SWAP1 DUP2 MSTORE PUSH1 0x20 ADD PUSH1 0x0 KECCAK256 PUSH1 0x0 SWAP1 SSTORE PUSH32 0x0 PUSH20 0xFFFFFFFFFFFFFFFFFFFFFFFFFFFFFFFFFFFFFFFF AND PUSH4 0x23B872DD ADDRESS CALLER DUP10 DUP10 DUP7 DUP2 DUP2 LT PUSH2 0x1B7E JUMPI PUSH2 0x1B7D PUSH2 0x2F7E JUMP JUMPDEST JUMPDEST SWAP1 POP PUSH1 0x20 MUL ADD CALLDATALOAD PUSH1 0x40 MLOAD DUP5 PUSH4 0xFFFFFFFF AND PUSH1 0xE0 SHL DUP2 MSTORE PUSH1 0x4 ADD PUSH2 0x1BA3 SWAP4 SWAP3 SWAP2 SWAP1 PUSH2 0x29C2 JUMP JUMPDEST PUSH1 0x0 PUSH1 0x40 MLOAD DUP1 DUP4 SUB DUP2 PUSH1 0x0 DUP8 DUP1 EXTCODESIZE ISZERO DUP1 ISZERO PUSH2 0x1BBD JUMPI PUSH1 0x0 DUP1 REVERT JUMPDEST POP GAS CALL ISZERO DUP1 ISZERO PUSH2 0x1BD1 JUMPI RETURNDATASIZE PUSH1 0x0 DUP1 RETURNDATACOPY RETURNDATASIZE PUSH1 0x0 REVERT JUMPDEST POP POP POP POP DUP1 DUP1 PUSH2 0x1BE0 SWAP1 PUSH2 0x2ED7 JUMP JUMPDEST SWAP2 POP POP PUSH2 0x189C JUMP JUMPDEST POP PUSH2 0x1BFE DUP2 PUSH1 0x6 SLOAD PUSH2 0x1F1B SWAP1 SWAP2 SWAP1 PUSH4 0xFFFFFFFF AND JUMP JUMPDEST PUSH1 0x6 DUP2 SWAP1 SSTORE POP PUSH2 0x1C1B DUP2 DUP5 PUSH1 0x0 ADD SLOAD PUSH2 0x1F1B SWAP1 SWAP2 SWAP1 PUSH4 0xFFFFFFFF AND JUMP JUMPDEST DUP4 PUSH1 0x0 ADD DUP2 SWAP1 SSTORE POP PUSH2 0x1C53 PUSH5 0xE8D4A51000 PUSH2 0x1C45 PUSH1 0x2 SLOAD DUP7 PUSH1 0x0 ADD SLOAD PUSH2 0x1EEF SWAP1 SWAP2 SWAP1 PUSH4 0xFFFFFFFF AND JUMP JUMPDEST PUSH2 0x1F05 SWAP1 SWAP2 SWAP1 PUSH4 0xFFFFFFFF AND JUMP JUMPDEST DUP4 PUSH1 0x1 ADD DUP2 SWAP1 SSTORE POP PUSH32 0x80CC10BF7E52583AE0A17D8DD6AB5005573B17A08091A091AF1A81205A675C91 CALLER DUP7 DUP7 PUSH1 0x40 MLOAD PUSH2 0x1C8E SWAP4 SWAP3 SWAP2 SWAP1 PUSH2 0x29F9 JUMP JUMPDEST PUSH1 0x40 MLOAD DUP1 SWAP2 SUB SWAP1 LOG1 POP POP POP POP POP JUMP JUMPDEST PUSH1 0x4 PUSH1 0x0 SWAP1 SLOAD SWAP1 PUSH2 0x100 EXP SWAP1 DIV PUSH20 0xFFFFFFFFFFFFFFFFFFFFFFFFFFFFFFFFFFFFFFFF AND DUP2 JUMP JUMPDEST PUSH2 0x1CCB PUSH2 0x1F47 JUMP JUMPDEST PUSH20 0xFFFFFFFFFFFFFFFFFFFFFFFFFFFFFFFFFFFFFFFF AND PUSH2 0x1CE9 PUSH2 0x1319 JUMP JUMPDEST PUSH20 0xFFFFFFFFFFFFFFFFFFFFFFFFFFFFFFFFFFFFFFFF AND EQ PUSH2 0x1D3F JUMPI PUSH1 0x40 MLOAD PUSH32 0x8C379A000000000000000000000000000000000000000000000000000000000 DUP2 MSTORE PUSH1 0x4 ADD PUSH2 0x1D36 SWAP1 PUSH2 0x2BA5 JUMP JUMPDEST PUSH1 0x40 MLOAD DUP1 SWAP2 SUB SWAP1 REVERT JUMPDEST PUSH1 0x0 PUSH20 0xFFFFFFFFFFFFFFFFFFFFFFFFFFFFFFFFFFFFFFFF AND DUP2 PUSH20 0xFFFFFFFFFFFFFFFFFFFFFFFFFFFFFFFFFFFFFFFF AND EQ ISZERO PUSH2 0x1DAF JUMPI PUSH1 0x40 MLOAD PUSH32 0x8C379A000000000000000000000000000000000000000000000000000000000 DUP2 MSTORE PUSH1 0x4 ADD PUSH2 0x1DA6 SWAP1 PUSH2 0x2B45 JUMP JUMPDEST PUSH1 0x40 MLOAD DUP1 SWAP2 SUB SWAP1 REVERT JUMPDEST PUSH2 0x1DB8 DUP2 PUSH2 0x2191 JUMP JUMPDEST POP JUMP JUMPDEST PUSH1 0x1 SLOAD NUMBER GT PUSH2 0x1DC9 JUMPI PUSH2 0x1EED JUMP JUMPDEST PUSH1 0x0 PUSH1 0x6 SLOAD EQ ISZERO PUSH2 0x1DE0 JUMPI NUMBER PUSH1 0x1 DUP2 SWAP1 SSTORE POP PUSH2 0x1EED JUMP JUMPDEST PUSH1 0x0 PUSH2 0x1DEE PUSH1 0x1 SLOAD NUMBER PUSH2 0x1342 JUMP JUMPDEST SWAP1 POP PUSH1 0x0 PUSH2 0x1E07 PUSH1 0x3 SLOAD DUP4 PUSH2 0x1EEF SWAP1 SWAP2 SWAP1 PUSH4 0xFFFFFFFF AND JUMP JUMPDEST SWAP1 POP PUSH1 0x0 PUSH1 0x7 SLOAD EQ ISZERO PUSH2 0x1E22 JUMPI NUMBER PUSH1 0x1 DUP2 SWAP1 SSTORE POP POP POP PUSH2 0x1EED JUMP JUMPDEST DUP1 PUSH1 0x7 SLOAD LT ISZERO PUSH2 0x1E81 JUMPI PUSH2 0x1E6E PUSH2 0x1E5D PUSH1 0x6 SLOAD PUSH2 0x1E4F PUSH5 0xE8D4A51000 PUSH1 0x7 SLOAD PUSH2 0x1EEF SWAP1 SWAP2 SWAP1 PUSH4 0xFFFFFFFF AND JUMP JUMPDEST PUSH2 0x1F05 SWAP1 SWAP2 SWAP1 PUSH4 0xFFFFFFFF AND JUMP JUMPDEST PUSH1 0x2 SLOAD PUSH2 0x1F31 SWAP1 SWAP2 SWAP1 PUSH4 0xFFFFFFFF AND JUMP JUMPDEST PUSH1 0x2 DUP2 SWAP1 SSTORE POP PUSH1 0x0 PUSH1 0x7 DUP2 SWAP1 SSTORE POP PUSH2 0x1EE3 JUMP JUMPDEST PUSH2 0x1E96 DUP2 PUSH1 0x7 SLOAD PUSH2 0x1F1B SWAP1 SWAP2 SWAP1 PUSH4 0xFFFFFFFF AND JUMP JUMPDEST PUSH1 0x7 DUP2 SWAP1 SSTORE POP PUSH2 0x1EDC PUSH2 0x1ECB PUSH1 0x6 SLOAD PUSH2 0x1EBD PUSH5 0xE8D4A51000 DUP6 PUSH2 0x1EEF SWAP1 SWAP2 SWAP1 PUSH4 0xFFFFFFFF AND JUMP JUMPDEST PUSH2 0x1F05 SWAP1 SWAP2 SWAP1 PUSH4 0xFFFFFFFF AND JUMP JUMPDEST PUSH1 0x2 SLOAD PUSH2 0x1F31 SWAP1 SWAP2 SWAP1 PUSH4 0xFFFFFFFF AND JUMP JUMPDEST PUSH1 0x2 DUP2 SWAP1 SSTORE POP JUMPDEST NUMBER PUSH1 0x1 DUP2 SWAP1 SSTORE POP POP POP JUMPDEST JUMP JUMPDEST PUSH1 0x0 DUP2 DUP4 PUSH2 0x1EFD SWAP2 SWAP1 PUSH2 0x2D77 JUMP JUMPDEST SWAP1 POP SWAP3 SWAP2 POP POP JUMP JUMPDEST PUSH1 0x0 DUP2 DUP4 PUSH2 0x1F13 SWAP2 SWAP1 PUSH2 0x2D46 JUMP JUMPDEST SWAP1 POP SWAP3 SWAP2 POP POP JUMP JUMPDEST PUSH1 0x0 DUP2 DUP4 PUSH2 0x1F29 SWAP2 SWAP1 PUSH2 0x2DD1 JUMP JUMPDEST SWAP1 POP SWAP3 SWAP2 POP POP JUMP JUMPDEST PUSH1 0x0 DUP2 DUP4 PUSH2 0x1F3F SWAP2 SWAP1 PUSH2 0x2CF0 JUMP JUMPDEST SWAP1 POP SWAP3 SWAP2 POP POP JUMP JUMPDEST PUSH1 0x0 CALLER SWAP1 POP SWAP1 JUMP JUMPDEST PUSH2 0x1FD2 DUP5 PUSH4 0x23B872DD PUSH1 0xE0 SHL DUP6 DUP6 DUP6 PUSH1 0x40 MLOAD PUSH1 0x24 ADD PUSH2 0x1F70 SWAP4 SWAP3 SWAP2 SWAP1 PUSH2 0x29C2 JUMP JUMPDEST PUSH1 0x40 MLOAD PUSH1 0x20 DUP2 DUP4 SUB SUB DUP2 MSTORE SWAP1 PUSH1 0x40 MSTORE SWAP1 PUSH28 0xFFFFFFFFFFFFFFFFFFFFFFFFFFFFFFFFFFFFFFFFFFFFFFFFFFFFFFFF NOT AND PUSH1 0x20 DUP3 ADD DUP1 MLOAD PUSH28 0xFFFFFFFFFFFFFFFFFFFFFFFFFFFFFFFFFFFFFFFFFFFFFFFFFFFFFFFF DUP4 DUP2 DUP4 AND OR DUP4 MSTORE POP POP POP POP PUSH2 0x2255 JUMP JUMPDEST POP POP POP POP JUMP JUMPDEST PUSH1 0x0 DUP1 PUSH1 0xB PUSH1 0x0 DUP5 PUSH20 0xFFFFFFFFFFFFFFFFFFFFFFFFFFFFFFFFFFFFFFFF AND PUSH20 0xFFFFFFFFFFFFFFFFFFFFFFFFFFFFFFFFFFFFFFFF AND DUP2 MSTORE PUSH1 0x20 ADD SWAP1 DUP2 MSTORE PUSH1 0x20 ADD PUSH1 0x0 KECCAK256 SWAP1 POP PUSH1 0x0 PUSH1 0x2 SLOAD SWAP1 POP PUSH1 0x1 SLOAD NUMBER GT DUP1 ISZERO PUSH2 0x2037 JUMPI POP PUSH1 0x0 PUSH1 0x6 SLOAD EQ ISZERO JUMPDEST ISZERO PUSH2 0x20A8 JUMPI PUSH1 0x0 PUSH2 0x204A PUSH1 0x1 SLOAD NUMBER PUSH2 0x1342 JUMP JUMPDEST SWAP1 POP PUSH1 0x0 PUSH2 0x2063 PUSH1 0x3 SLOAD DUP4 PUSH2 0x1EEF SWAP1 SWAP2 SWAP1 PUSH4 0xFFFFFFFF AND JUMP JUMPDEST SWAP1 POP PUSH2 0x20A3 PUSH2 0x2094 PUSH1 0x6 SLOAD PUSH2 0x2086 PUSH5 0xE8D4A51000 DUP6 PUSH2 0x1EEF SWAP1 SWAP2 SWAP1 PUSH4 0xFFFFFFFF AND JUMP JUMPDEST PUSH2 0x1F05 SWAP1 SWAP2 SWAP1 PUSH4 0xFFFFFFFF AND JUMP JUMPDEST DUP5 PUSH2 0x1F31 SWAP1 SWAP2 SWAP1 PUSH4 0xFFFFFFFF AND JUMP JUMPDEST SWAP3 POP POP POP JUMPDEST PUSH2 0x2102 DUP3 PUSH1 0x2 ADD SLOAD PUSH2 0x20F4 DUP5 PUSH1 0x1 ADD SLOAD PUSH2 0x20E6 PUSH5 0xE8D4A51000 PUSH2 0x20D8 DUP8 DUP10 PUSH1 0x0 ADD SLOAD PUSH2 0x1EEF SWAP1 SWAP2 SWAP1 PUSH4 0xFFFFFFFF AND JUMP JUMPDEST PUSH2 0x1F05 SWAP1 SWAP2 SWAP1 PUSH4 0xFFFFFFFF AND JUMP JUMPDEST PUSH2 0x1F1B SWAP1 SWAP2 SWAP1 PUSH4 0xFFFFFFFF AND JUMP JUMPDEST PUSH2 0x1F31 SWAP1 SWAP2 SWAP1 PUSH4 0xFFFFFFFF AND JUMP JUMPDEST SWAP3 POP POP POP SWAP2 SWAP1 POP JUMP JUMPDEST PUSH2 0x218C DUP4 PUSH4 0xA9059CBB PUSH1 0xE0 SHL DUP5 DUP5 PUSH1 0x40 MLOAD PUSH1 0x24 ADD PUSH2 0x212A SWAP3 SWAP2 SWAP1 PUSH2 0x2A2B JUMP JUMPDEST PUSH1 0x40 MLOAD PUSH1 0x20 DUP2 DUP4 SUB SUB DUP2 MSTORE SWAP1 PUSH1 0x40 MSTORE SWAP1 PUSH28 0xFFFFFFFFFFFFFFFFFFFFFFFFFFFFFFFFFFFFFFFFFFFFFFFFFFFFFFFF NOT AND PUSH1 0x20 DUP3 ADD DUP1 MLOAD PUSH28 0xFFFFFFFFFFFFFFFFFFFFFFFFFFFFFFFFFFFFFFFFFFFFFFFFFFFFFFFF DUP4 DUP2 DUP4 AND OR DUP4 MSTORE POP POP POP POP PUSH2 0x2255 JUMP JUMPDEST POP POP POP JUMP JUMPDEST PUSH1 0x0 DUP1 PUSH1 0x0 SWAP1 SLOAD SWAP1 PUSH2 0x100 EXP SWAP1 DIV PUSH20 0xFFFFFFFFFFFFFFFFFFFFFFFFFFFFFFFFFFFFFFFF AND SWAP1 POP DUP2 PUSH1 0x0 DUP1 PUSH2 0x100 EXP DUP2 SLOAD DUP2 PUSH20 0xFFFFFFFFFFFFFFFFFFFFFFFFFFFFFFFFFFFFFFFF MUL NOT AND SWAP1 DUP4 PUSH20 0xFFFFFFFFFFFFFFFFFFFFFFFFFFFFFFFFFFFFFFFF AND MUL OR SWAP1 SSTORE POP DUP2 PUSH20 0xFFFFFFFFFFFFFFFFFFFFFFFFFFFFFFFFFFFFFFFF AND DUP2 PUSH20 0xFFFFFFFFFFFFFFFFFFFFFFFFFFFFFFFFFFFFFFFF AND PUSH32 0x8BE0079C531659141344CD1FD0A4F28419497F9722A3DAAFE3B4186F6B6457E0 PUSH1 0x40 MLOAD PUSH1 0x40 MLOAD DUP1 SWAP2 SUB SWAP1 LOG3 POP POP JUMP JUMPDEST PUSH1 0x0 PUSH2 0x22B7 DUP3 PUSH1 0x40 MLOAD DUP1 PUSH1 0x40 ADD PUSH1 0x40 MSTORE DUP1 PUSH1 0x20 DUP2 MSTORE PUSH1 0x20 ADD PUSH32 0x5361666542455032303A206C6F772D6C6576656C2063616C6C206661696C6564 DUP2 MSTORE POP DUP6 PUSH20 0xFFFFFFFFFFFFFFFFFFFFFFFFFFFFFFFFFFFFFFFF AND PUSH2 0x231C SWAP1 SWAP3 SWAP2 SWAP1 PUSH4 0xFFFFFFFF AND JUMP JUMPDEST SWAP1 POP PUSH1 0x0 DUP2 MLOAD GT ISZERO PUSH2 0x2317 JUMPI DUP1 DUP1 PUSH1 0x20 ADD SWAP1 MLOAD DUP2 ADD SWAP1 PUSH2 0x22D7 SWAP2 SWAP1 PUSH2 0x2607 JUMP JUMPDEST PUSH2 0x2316 JUMPI PUSH1 0x40 MLOAD PUSH32 0x8C379A000000000000000000000000000000000000000000000000000000000 DUP2 MSTORE PUSH1 0x4 ADD PUSH2 0x230D SWAP1 PUSH2 0x2B25 JUMP JUMPDEST PUSH1 0x40 MLOAD DUP1 SWAP2 SUB SWAP1 REVERT JUMPDEST JUMPDEST POP POP POP JUMP JUMPDEST PUSH1 0x60 PUSH2 0x232B DUP5 DUP5 PUSH1 0x0 DUP6 PUSH2 0x2334 JUMP JUMPDEST SWAP1 POP SWAP4 SWAP3 POP POP POP JUMP JUMPDEST PUSH1 0x60 PUSH2 0x233F DUP6 PUSH2 0x2456 JUMP JUMPDEST PUSH2 0x237E JUMPI PUSH1 0x40 MLOAD PUSH32 0x8C379A000000000000000000000000000000000000000000000000000000000 DUP2 MSTORE PUSH1 0x4 ADD PUSH2 0x2375 SWAP1 PUSH2 0x2BE5 JUMP JUMPDEST PUSH1 0x40 MLOAD DUP1 SWAP2 SUB SWAP1 REVERT JUMPDEST PUSH1 0x0 DUP1 DUP7 PUSH20 0xFFFFFFFFFFFFFFFFFFFFFFFFFFFFFFFFFFFFFFFF AND DUP6 DUP8 PUSH1 0x40 MLOAD PUSH2 0x23A7 SWAP2 SWAP1 PUSH2 0x2990 JUMP JUMPDEST PUSH1 0x0 PUSH1 0x40 MLOAD DUP1 DUP4 SUB DUP2 DUP6 DUP8 GAS CALL SWAP3 POP POP POP RETURNDATASIZE DUP1 PUSH1 0x0 DUP2 EQ PUSH2 0x23E4 JUMPI PUSH1 0x40 MLOAD SWAP2 POP PUSH1 0x1F NOT PUSH1 0x3F RETURNDATASIZE ADD AND DUP3 ADD PUSH1 0x40 MSTORE RETURNDATASIZE DUP3 MSTORE RETURNDATASIZE PUSH1 0x0 PUSH1 0x20 DUP5 ADD RETURNDATACOPY PUSH2 0x23E9 JUMP JUMPDEST PUSH1 0x60 SWAP2 POP JUMPDEST POP SWAP2 POP SWAP2 POP DUP2 ISZERO PUSH2 0x23FE JUMPI DUP1 SWAP3 POP POP POP PUSH2 0x244E JUMP JUMPDEST PUSH1 0x0 DUP2 MLOAD GT ISZERO PUSH2 0x2411 JUMPI DUP1 MLOAD DUP1 DUP3 PUSH1 0x20 ADD REVERT JUMPDEST DUP4 PUSH1 0x40 MLOAD PUSH32 0x8C379A000000000000000000000000000000000000000000000000000000000 DUP2 MSTORE PUSH1 0x4 ADD PUSH2 0x2445 SWAP2 SWAP1 PUSH2 0x2AE3 JUMP JUMPDEST PUSH1 0x40 MLOAD DUP1 SWAP2 SUB SWAP1 REVERT JUMPDEST SWAP5 SWAP4 POP POP POP POP JUMP JUMPDEST PUSH1 0x0 DUP1 PUSH1 0x0 PUSH32 0xC5D2460186F7233C927E7DB2DCC703C0E500B653CA82273B7BFAD8045D85A470 PUSH1 0x0 SHL SWAP1 POP DUP4 EXTCODEHASH SWAP2 POP DUP1 DUP3 EQ ISZERO DUP1 ISZERO PUSH2 0x2498 JUMPI POP PUSH1 0x0 DUP1 SHL DUP3 EQ ISZERO JUMPDEST SWAP3 POP POP POP SWAP2 SWAP1 POP JUMP JUMPDEST PUSH1 0x0 DUP2 CALLDATALOAD SWAP1 POP PUSH2 0x24B0 DUP2 PUSH2 0x3214 JUMP JUMPDEST SWAP3 SWAP2 POP POP JUMP JUMPDEST PUSH1 0x0 DUP2 MLOAD SWAP1 POP PUSH2 0x24C5 DUP2 PUSH2 0x3214 JUMP JUMPDEST SWAP3 SWAP2 POP POP JUMP JUMPDEST PUSH1 0x0 DUP1 DUP4 PUSH1 0x1F DUP5 ADD SLT PUSH2 0x24E1 JUMPI PUSH2 0x24E0 PUSH2 0x2FE1 JUMP JUMPDEST JUMPDEST DUP3 CALLDATALOAD SWAP1 POP PUSH8 0xFFFFFFFFFFFFFFFF DUP2 GT ISZERO PUSH2 0x24FE JUMPI PUSH2 0x24FD PUSH2 0x2FDC JUMP JUMPDEST JUMPDEST PUSH1 0x20 DUP4 ADD SWAP2 POP DUP4 PUSH1 0x20 DUP3 MUL DUP4 ADD GT ISZERO PUSH2 0x251A JUMPI PUSH2 0x2519 PUSH2 0x2FE6 JUMP JUMPDEST JUMPDEST SWAP3 POP SWAP3 SWAP1 POP JUMP JUMPDEST PUSH1 0x0 DUP2 MLOAD SWAP1 POP PUSH2 0x2530 DUP2 PUSH2 0x322B JUMP JUMPDEST SWAP3 SWAP2 POP POP JUMP JUMPDEST PUSH1 0x0 DUP2 CALLDATALOAD SWAP1 POP PUSH2 0x2545 DUP2 PUSH2 0x3242 JUMP JUMPDEST SWAP3 SWAP2 POP POP JUMP JUMPDEST PUSH1 0x0 DUP2 MLOAD SWAP1 POP PUSH2 0x255A DUP2 PUSH2 0x3242 JUMP JUMPDEST SWAP3 SWAP2 POP POP JUMP JUMPDEST PUSH1 0x0 PUSH1 0x20 DUP3 DUP5 SUB SLT ISZERO PUSH2 0x2576 JUMPI PUSH2 0x2575 PUSH2 0x2FF5 JUMP JUMPDEST JUMPDEST PUSH1 0x0 PUSH2 0x2584 DUP5 DUP3 DUP6 ADD PUSH2 0x24A1 JUMP JUMPDEST SWAP2 POP POP SWAP3 SWAP2 POP POP JUMP JUMPDEST PUSH1 0x0 PUSH1 0x20 DUP3 DUP5 SUB SLT ISZERO PUSH2 0x25A3 JUMPI PUSH2 0x25A2 PUSH2 0x2FF5 JUMP JUMPDEST JUMPDEST PUSH1 0x0 PUSH2 0x25B1 DUP5 DUP3 DUP6 ADD PUSH2 0x24B6 JUMP JUMPDEST SWAP2 POP POP SWAP3 SWAP2 POP POP JUMP JUMPDEST PUSH1 0x0 DUP1 PUSH1 0x20 DUP4 DUP6 SUB SLT ISZERO PUSH2 0x25D1 JUMPI PUSH2 0x25D0 PUSH2 0x2FF5 JUMP JUMPDEST JUMPDEST PUSH1 0x0 DUP4 ADD CALLDATALOAD PUSH8 0xFFFFFFFFFFFFFFFF DUP2 GT ISZERO PUSH2 0x25EF JUMPI PUSH2 0x25EE PUSH2 0x2FEB JUMP JUMPDEST JUMPDEST PUSH2 0x25FB DUP6 DUP3 DUP7 ADD PUSH2 0x24CB JUMP JUMPDEST SWAP3 POP SWAP3 POP POP SWAP3 POP SWAP3 SWAP1 POP JUMP JUMPDEST PUSH1 0x0 PUSH1 0x20 DUP3 DUP5 SUB SLT ISZERO PUSH2 0x261D JUMPI PUSH2 0x261C PUSH2 0x2FF5 JUMP JUMPDEST JUMPDEST PUSH1 0x0 PUSH2 0x262B DUP5 DUP3 DUP6 ADD PUSH2 0x2521 JUMP JUMPDEST SWAP2 POP POP SWAP3 SWAP2 POP POP JUMP JUMPDEST PUSH1 0x0 PUSH1 0x20 DUP3 DUP5 SUB SLT ISZERO PUSH2 0x264A JUMPI PUSH2 0x2649 PUSH2 0x2FF5 JUMP JUMPDEST JUMPDEST PUSH1 0x0 PUSH2 0x2658 DUP5 DUP3 DUP6 ADD PUSH2 0x2536 JUMP JUMPDEST SWAP2 POP POP SWAP3 SWAP2 POP POP JUMP JUMPDEST PUSH1 0x0 PUSH1 0x20 DUP3 DUP5 SUB SLT ISZERO PUSH2 0x2677 JUMPI PUSH2 0x2676 PUSH2 0x2FF5 JUMP JUMPDEST JUMPDEST PUSH1 0x0 PUSH2 0x2685 DUP5 DUP3 DUP6 ADD PUSH2 0x254B JUMP JUMPDEST SWAP2 POP POP SWAP3 SWAP2 POP POP JUMP JUMPDEST PUSH1 0x0 DUP1 PUSH1 0x40 DUP4 DUP6 SUB SLT ISZERO PUSH2 0x26A5 JUMPI PUSH2 0x26A4 PUSH2 0x2FF5 JUMP JUMPDEST JUMPDEST PUSH1 0x0 PUSH2 0x26B3 DUP6 DUP3 DUP7 ADD PUSH2 0x2536 JUMP JUMPDEST SWAP3 POP POP PUSH1 0x20 PUSH2 0x26C4 DUP6 DUP3 DUP7 ADD PUSH2 0x2536 JUMP JUMPDEST SWAP2 POP POP SWAP3 POP SWAP3 SWAP1 POP JUMP JUMPDEST PUSH1 0x0 PUSH2 0x26DA DUP4 DUP4 PUSH2 0x2972 JUMP JUMPDEST PUSH1 0x20 DUP4 ADD SWAP1 POP SWAP3 SWAP2 POP POP JUMP JUMPDEST PUSH2 0x26EF DUP2 PUSH2 0x2E05 JUMP JUMPDEST DUP3 MSTORE POP POP JUMP JUMPDEST PUSH1 0x0 PUSH2 0x2701 DUP4 DUP6 PUSH2 0x2CC3 JUMP JUMPDEST SWAP4 POP PUSH32 0x7FFFFFFFFFFFFFFFFFFFFFFFFFFFFFFFFFFFFFFFFFFFFFFFFFFFFFFFFFFFFFF DUP4 GT ISZERO PUSH2 0x2734 JUMPI PUSH2 0x2733 PUSH2 0x2FF0 JUMP JUMPDEST JUMPDEST PUSH1 0x20 DUP4 MUL SWAP3 POP PUSH2 0x2745 DUP4 DUP6 DUP5 PUSH2 0x2E95 JUMP JUMPDEST DUP3 DUP5 ADD SWAP1 POP SWAP4 SWAP3 POP POP POP JUMP JUMPDEST PUSH1 0x0 PUSH2 0x275C DUP3 PUSH2 0x2C95 JUMP JUMPDEST PUSH2 0x2766 DUP2 DUP6 PUSH2 0x2CC3 JUMP JUMPDEST SWAP4 POP PUSH2 0x2771 DUP4 PUSH2 0x2C85 JUMP JUMPDEST DUP1 PUSH1 0x0 JUMPDEST DUP4 DUP2 LT ISZERO PUSH2 0x27A2 JUMPI DUP2 MLOAD PUSH2 0x2789 DUP9 DUP3 PUSH2 0x26CE JUMP JUMPDEST SWAP8 POP PUSH2 0x2794 DUP4 PUSH2 0x2CB6 JUMP JUMPDEST SWAP3 POP POP PUSH1 0x1 DUP2 ADD SWAP1 POP PUSH2 0x2775 JUMP JUMPDEST POP DUP6 SWAP4 POP POP POP POP SWAP3 SWAP2 POP POP JUMP JUMPDEST PUSH1 0x0 PUSH2 0x27BA DUP3 PUSH2 0x2CA0 JUMP JUMPDEST PUSH2 0x27C4 DUP2 DUP6 PUSH2 0x2CD4 JUMP JUMPDEST SWAP4 POP PUSH2 0x27D4 DUP2 DUP6 PUSH1 0x20 DUP7 ADD PUSH2 0x2EA4 JUMP JUMPDEST DUP1 DUP5 ADD SWAP2 POP POP SWAP3 SWAP2 POP POP JUMP JUMPDEST PUSH2 0x27E9 DUP2 PUSH2 0x2E4D JUMP JUMPDEST DUP3 MSTORE POP POP JUMP JUMPDEST PUSH2 0x27F8 DUP2 PUSH2 0x2E5F JUMP JUMPDEST DUP3 MSTORE POP POP JUMP JUMPDEST PUSH1 0x0 PUSH2 0x2809 DUP3 PUSH2 0x2CAB JUMP JUMPDEST PUSH2 0x2813 DUP2 DUP6 PUSH2 0x2CDF JUMP JUMPDEST SWAP4 POP PUSH2 0x2823 DUP2 DUP6 PUSH1 0x20 DUP7 ADD PUSH2 0x2EA4 JUMP JUMPDEST PUSH2 0x282C DUP2 PUSH2 0x2FFA JUMP JUMPDEST DUP5 ADD SWAP2 POP POP SWAP3 SWAP2 POP POP JUMP JUMPDEST PUSH1 0x0 PUSH2 0x2844 PUSH1 0x18 DUP4 PUSH2 0x2CDF JUMP JUMPDEST SWAP2 POP PUSH2 0x284F DUP3 PUSH2 0x300B JUMP JUMPDEST PUSH1 0x20 DUP3 ADD SWAP1 POP SWAP2 SWAP1 POP JUMP JUMPDEST PUSH1 0x0 PUSH2 0x2867 PUSH1 0x2A DUP4 PUSH2 0x2CDF JUMP JUMPDEST SWAP2 POP PUSH2 0x2872 DUP3 PUSH2 0x3034 JUMP JUMPDEST PUSH1 0x40 DUP3 ADD SWAP1 POP SWAP2 SWAP1 POP JUMP JUMPDEST PUSH1 0x0 PUSH2 0x288A PUSH1 0x26 DUP4 PUSH2 0x2CDF JUMP JUMPDEST SWAP2 POP PUSH2 0x2895 DUP3 PUSH2 0x3083 JUMP JUMPDEST PUSH1 0x40 DUP3 ADD SWAP1 POP SWAP2 SWAP1 POP JUMP JUMPDEST PUSH1 0x0 PUSH2 0x28AD PUSH1 0x31 DUP4 PUSH2 0x2CDF JUMP JUMPDEST SWAP2 POP PUSH2 0x28B8 DUP3 PUSH2 0x30D2 JUMP JUMPDEST PUSH1 0x40 DUP3 ADD SWAP1 POP SWAP2 SWAP1 POP JUMP JUMPDEST PUSH1 0x0 PUSH2 0x28D0 PUSH1 0x20 DUP4 PUSH2 0x2CDF JUMP JUMPDEST SWAP2 POP PUSH2 0x28DB DUP3 PUSH2 0x3121 JUMP JUMPDEST PUSH1 0x20 DUP3 ADD SWAP1 POP SWAP2 SWAP1 POP JUMP JUMPDEST PUSH1 0x0 PUSH2 0x28F3 PUSH1 0x20 DUP4 PUSH2 0x2CDF JUMP JUMPDEST SWAP2 POP PUSH2 0x28FE DUP3 PUSH2 0x314A JUMP JUMPDEST PUSH1 0x20 DUP3 ADD SWAP1 POP SWAP2 SWAP1 POP JUMP JUMPDEST PUSH1 0x0 PUSH2 0x2916 PUSH1 0x1E DUP4 PUSH2 0x2CDF JUMP JUMPDEST SWAP2 POP PUSH2 0x2921 DUP3 PUSH2 0x3173 JUMP JUMPDEST PUSH1 0x20 DUP3 ADD SWAP1 POP SWAP2 SWAP1 POP JUMP JUMPDEST PUSH1 0x0 PUSH2 0x2939 PUSH1 0x1D DUP4 PUSH2 0x2CDF JUMP JUMPDEST SWAP2 POP PUSH2 0x2944 DUP3 PUSH2 0x319C JUMP JUMPDEST PUSH1 0x20 DUP3 ADD SWAP1 POP SWAP2 SWAP1 POP JUMP JUMPDEST PUSH1 0x0 PUSH2 0x295C PUSH1 0x39 DUP4 PUSH2 0x2CDF JUMP JUMPDEST SWAP2 POP PUSH2 0x2967 DUP3 PUSH2 0x31C5 JUMP JUMPDEST PUSH1 0x40 DUP3 ADD SWAP1 POP SWAP2 SWAP1 POP JUMP JUMPDEST PUSH2 0x297B DUP2 PUSH2 0x2E43 JUMP JUMPDEST DUP3 MSTORE POP POP JUMP JUMPDEST PUSH2 0x298A DUP2 PUSH2 0x2E43 JUMP JUMPDEST DUP3 MSTORE POP POP JUMP JUMPDEST PUSH1 0x0 PUSH2 0x299C DUP3 DUP5 PUSH2 0x27AF JUMP JUMPDEST SWAP2 POP DUP2 SWAP1 POP SWAP3 SWAP2 POP POP JUMP JUMPDEST PUSH1 0x0 PUSH1 0x20 DUP3 ADD SWAP1 POP PUSH2 0x29BC PUSH1 0x0 DUP4 ADD DUP5 PUSH2 0x26E6 JUMP JUMPDEST SWAP3 SWAP2 POP POP JUMP JUMPDEST PUSH1 0x0 PUSH1 0x60 DUP3 ADD SWAP1 POP PUSH2 0x29D7 PUSH1 0x0 DUP4 ADD DUP7 PUSH2 0x26E6 JUMP JUMPDEST PUSH2 0x29E4 PUSH1 0x20 DUP4 ADD DUP6 PUSH2 0x26E6 JUMP JUMPDEST PUSH2 0x29F1 PUSH1 0x40 DUP4 ADD DUP5 PUSH2 0x2981 JUMP JUMPDEST SWAP5 SWAP4 POP POP POP POP JUMP JUMPDEST PUSH1 0x0 PUSH1 0x40 DUP3 ADD SWAP1 POP PUSH2 0x2A0E PUSH1 0x0 DUP4 ADD DUP7 PUSH2 0x26E6 JUMP JUMPDEST DUP2 DUP2 SUB PUSH1 0x20 DUP4 ADD MSTORE PUSH2 0x2A21 DUP2 DUP5 DUP7 PUSH2 0x26F5 JUMP JUMPDEST SWAP1 POP SWAP5 SWAP4 POP POP POP POP JUMP JUMPDEST PUSH1 0x0 PUSH1 0x40 DUP3 ADD SWAP1 POP PUSH2 0x2A40 PUSH1 0x0 DUP4 ADD DUP6 PUSH2 0x26E6 JUMP JUMPDEST PUSH2 0x2A4D PUSH1 0x20 DUP4 ADD DUP5 PUSH2 0x2981 JUMP JUMPDEST SWAP4 SWAP3 POP POP POP JUMP JUMPDEST PUSH1 0x0 PUSH1 0x60 DUP3 ADD SWAP1 POP PUSH2 0x2A69 PUSH1 0x0 DUP4 ADD DUP7 PUSH2 0x26E6 JUMP JUMPDEST PUSH2 0x2A76 PUSH1 0x20 DUP4 ADD DUP6 PUSH2 0x2981 JUMP JUMPDEST PUSH2 0x2A83 PUSH1 0x40 DUP4 ADD DUP5 PUSH2 0x2981 JUMP JUMPDEST SWAP5 SWAP4 POP POP POP POP JUMP JUMPDEST PUSH1 0x0 PUSH1 0x20 DUP3 ADD SWAP1 POP DUP2 DUP2 SUB PUSH1 0x0 DUP4 ADD MSTORE PUSH2 0x2AA5 DUP2 DUP5 PUSH2 0x2751 JUMP JUMPDEST SWAP1 POP SWAP3 SWAP2 POP POP JUMP JUMPDEST PUSH1 0x0 PUSH1 0x20 DUP3 ADD SWAP1 POP PUSH2 0x2AC2 PUSH1 0x0 DUP4 ADD DUP5 PUSH2 0x27E0 JUMP JUMPDEST SWAP3 SWAP2 POP POP JUMP JUMPDEST PUSH1 0x0 PUSH1 0x20 DUP3 ADD SWAP1 POP PUSH2 0x2ADD PUSH1 0x0 DUP4 ADD DUP5 PUSH2 0x27EF JUMP JUMPDEST SWAP3 SWAP2 POP POP JUMP JUMPDEST PUSH1 0x0 PUSH1 0x20 DUP3 ADD SWAP1 POP DUP2 DUP2 SUB PUSH1 0x0 DUP4 ADD MSTORE PUSH2 0x2AFD DUP2 DUP5 PUSH2 0x27FE JUMP JUMPDEST SWAP1 POP SWAP3 SWAP2 POP POP JUMP JUMPDEST PUSH1 0x0 PUSH1 0x20 DUP3 ADD SWAP1 POP DUP2 DUP2 SUB PUSH1 0x0 DUP4 ADD MSTORE PUSH2 0x2B1E DUP2 PUSH2 0x2837 JUMP JUMPDEST SWAP1 POP SWAP2 SWAP1 POP JUMP JUMPDEST PUSH1 0x0 PUSH1 0x20 DUP3 ADD SWAP1 POP DUP2 DUP2 SUB PUSH1 0x0 DUP4 ADD MSTORE PUSH2 0x2B3E DUP2 PUSH2 0x285A JUMP JUMPDEST SWAP1 POP SWAP2 SWAP1 POP JUMP JUMPDEST PUSH1 0x0 PUSH1 0x20 DUP3 ADD SWAP1 POP DUP2 DUP2 SUB PUSH1 0x0 DUP4 ADD MSTORE PUSH2 0x2B5E DUP2 PUSH2 0x287D JUMP JUMPDEST SWAP1 POP SWAP2 SWAP1 POP JUMP JUMPDEST PUSH1 0x0 PUSH1 0x20 DUP3 ADD SWAP1 POP DUP2 DUP2 SUB PUSH1 0x0 DUP4 ADD MSTORE PUSH2 0x2B7E DUP2 PUSH2 0x28A0 JUMP JUMPDEST SWAP1 POP SWAP2 SWAP1 POP JUMP JUMPDEST PUSH1 0x0 PUSH1 0x20 DUP3 ADD SWAP1 POP DUP2 DUP2 SUB PUSH1 0x0 DUP4 ADD MSTORE PUSH2 0x2B9E DUP2 PUSH2 0x28C3 JUMP JUMPDEST SWAP1 POP SWAP2 SWAP1 POP JUMP JUMPDEST PUSH1 0x0 PUSH1 0x20 DUP3 ADD SWAP1 POP DUP2 DUP2 SUB PUSH1 0x0 DUP4 ADD MSTORE PUSH2 0x2BBE DUP2 PUSH2 0x28E6 JUMP JUMPDEST SWAP1 POP SWAP2 SWAP1 POP JUMP JUMPDEST PUSH1 0x0 PUSH1 0x20 DUP3 ADD SWAP1 POP DUP2 DUP2 SUB PUSH1 0x0 DUP4 ADD MSTORE PUSH2 0x2BDE DUP2 PUSH2 0x2909 JUMP JUMPDEST SWAP1 POP SWAP2 SWAP1 POP JUMP JUMPDEST PUSH1 0x0 PUSH1 0x20 DUP3 ADD SWAP1 POP DUP2 DUP2 SUB PUSH1 0x0 DUP4 ADD MSTORE PUSH2 0x2BFE DUP2 PUSH2 0x292C JUMP JUMPDEST SWAP1 POP SWAP2 SWAP1 POP JUMP JUMPDEST PUSH1 0x0 PUSH1 0x20 DUP3 ADD SWAP1 POP DUP2 DUP2 SUB PUSH1 0x0 DUP4 ADD MSTORE PUSH2 0x2C1E DUP2 PUSH2 0x294F JUMP JUMPDEST SWAP1 POP SWAP2 SWAP1 POP JUMP JUMPDEST PUSH1 0x0 PUSH1 0x20 DUP3 ADD SWAP1 POP PUSH2 0x2C3A PUSH1 0x0 DUP4 ADD DUP5 PUSH2 0x2981 JUMP JUMPDEST SWAP3 SWAP2 POP POP JUMP JUMPDEST PUSH1 0x0 PUSH1 0x80 DUP3 ADD SWAP1 POP PUSH2 0x2C55 PUSH1 0x0 DUP4 ADD DUP8 PUSH2 0x2981 JUMP JUMPDEST PUSH2 0x2C62 PUSH1 0x20 DUP4 ADD DUP7 PUSH2 0x2981 JUMP JUMPDEST PUSH2 0x2C6F PUSH1 0x40 DUP4 ADD DUP6 PUSH2 0x2981 JUMP JUMPDEST PUSH2 0x2C7C PUSH1 0x60 DUP4 ADD DUP5 PUSH2 0x2981 JUMP JUMPDEST SWAP6 SWAP5 POP POP POP POP POP JUMP JUMPDEST PUSH1 0x0 DUP2 SWAP1 POP PUSH1 0x20 DUP3 ADD SWAP1 POP SWAP2 SWAP1 POP JUMP JUMPDEST PUSH1 0x0 DUP2 MLOAD SWAP1 POP SWAP2 SWAP1 POP JUMP JUMPDEST PUSH1 0x0 DUP2 MLOAD SWAP1 POP SWAP2 SWAP1 POP JUMP JUMPDEST PUSH1 0x0 DUP2 MLOAD SWAP1 POP SWAP2 SWAP1 POP JUMP JUMPDEST PUSH1 0x0 PUSH1 0x20 DUP3 ADD SWAP1 POP SWAP2 SWAP1 POP JUMP JUMPDEST PUSH1 0x0 DUP3 DUP3 MSTORE PUSH1 0x20 DUP3 ADD SWAP1 POP SWAP3 SWAP2 POP POP JUMP JUMPDEST PUSH1 0x0 DUP2 SWAP1 POP SWAP3 SWAP2 POP POP JUMP JUMPDEST PUSH1 0x0 DUP3 DUP3 MSTORE PUSH1 0x20 DUP3 ADD SWAP1 POP SWAP3 SWAP2 POP POP JUMP JUMPDEST PUSH1 0x0 PUSH2 0x2CFB DUP3 PUSH2 0x2E43 JUMP JUMPDEST SWAP2 POP PUSH2 0x2D06 DUP4 PUSH2 0x2E43 JUMP JUMPDEST SWAP3 POP DUP3 PUSH32 0xFFFFFFFFFFFFFFFFFFFFFFFFFFFFFFFFFFFFFFFFFFFFFFFFFFFFFFFFFFFFFFFF SUB DUP3 GT ISZERO PUSH2 0x2D3B JUMPI PUSH2 0x2D3A PUSH2 0x2F20 JUMP JUMPDEST JUMPDEST DUP3 DUP3 ADD SWAP1 POP SWAP3 SWAP2 POP POP JUMP JUMPDEST PUSH1 0x0 PUSH2 0x2D51 DUP3 PUSH2 0x2E43 JUMP JUMPDEST SWAP2 POP PUSH2 0x2D5C DUP4 PUSH2 0x2E43 JUMP JUMPDEST SWAP3 POP DUP3 PUSH2 0x2D6C JUMPI PUSH2 0x2D6B PUSH2 0x2F4F JUMP JUMPDEST JUMPDEST DUP3 DUP3 DIV SWAP1 POP SWAP3 SWAP2 POP POP JUMP JUMPDEST PUSH1 0x0 PUSH2 0x2D82 DUP3 PUSH2 0x2E43 JUMP JUMPDEST SWAP2 POP PUSH2 0x2D8D DUP4 PUSH2 0x2E43 JUMP JUMPDEST SWAP3 POP DUP2 PUSH32 0xFFFFFFFFFFFFFFFFFFFFFFFFFFFFFFFFFFFFFFFFFFFFFFFFFFFFFFFFFFFFFFFF DIV DUP4 GT DUP3 ISZERO ISZERO AND ISZERO PUSH2 0x2DC6 JUMPI PUSH2 0x2DC5 PUSH2 0x2F20 JUMP JUMPDEST JUMPDEST DUP3 DUP3 MUL SWAP1 POP SWAP3 SWAP2 POP POP JUMP JUMPDEST PUSH1 0x0 PUSH2 0x2DDC DUP3 PUSH2 0x2E43 JUMP JUMPDEST SWAP2 POP PUSH2 0x2DE7 DUP4 PUSH2 0x2E43 JUMP JUMPDEST SWAP3 POP DUP3 DUP3 LT ISZERO PUSH2 0x2DFA JUMPI PUSH2 0x2DF9 PUSH2 0x2F20 JUMP JUMPDEST JUMPDEST DUP3 DUP3 SUB SWAP1 POP SWAP3 SWAP2 POP POP JUMP JUMPDEST PUSH1 0x0 PUSH2 0x2E10 DUP3 PUSH2 0x2E23 JUMP JUMPDEST SWAP1 POP SWAP2 SWAP1 POP JUMP JUMPDEST PUSH1 0x0 DUP2 ISZERO ISZERO SWAP1 POP SWAP2 SWAP1 POP JUMP JUMPDEST PUSH1 0x0 PUSH20 0xFFFFFFFFFFFFFFFFFFFFFFFFFFFFFFFFFFFFFFFF DUP3 AND SWAP1 POP SWAP2 SWAP1 POP JUMP JUMPDEST PUSH1 0x0 DUP2 SWAP1 POP SWAP2 SWAP1 POP JUMP JUMPDEST PUSH1 0x0 PUSH2 0x2E58 DUP3 PUSH2 0x2E71 JUMP JUMPDEST SWAP1 POP SWAP2 SWAP1 POP JUMP JUMPDEST PUSH1 0x0 PUSH2 0x2E6A DUP3 PUSH2 0x2E71 JUMP JUMPDEST SWAP1 POP SWAP2 SWAP1 POP JUMP JUMPDEST PUSH1 0x0 PUSH2 0x2E7C DUP3 PUSH2 0x2E83 JUMP JUMPDEST SWAP1 POP SWAP2 SWAP1 POP JUMP JUMPDEST PUSH1 0x0 PUSH2 0x2E8E DUP3 PUSH2 0x2E23 JUMP JUMPDEST SWAP1 POP SWAP2 SWAP1 POP JUMP JUMPDEST DUP3 DUP2 DUP4 CALLDATACOPY PUSH1 0x0 DUP4 DUP4 ADD MSTORE POP POP POP JUMP JUMPDEST PUSH1 0x0 JUMPDEST DUP4 DUP2 LT ISZERO PUSH2 0x2EC2 JUMPI DUP1 DUP3 ADD MLOAD DUP2 DUP5 ADD MSTORE PUSH1 0x20 DUP2 ADD SWAP1 POP PUSH2 0x2EA7 JUMP JUMPDEST DUP4 DUP2 GT ISZERO PUSH2 0x2ED1 JUMPI PUSH1 0x0 DUP5 DUP5 ADD MSTORE JUMPDEST POP POP POP POP JUMP JUMPDEST PUSH1 0x0 PUSH2 0x2EE2 DUP3 PUSH2 0x2E43 JUMP JUMPDEST SWAP2 POP PUSH32 0xFFFFFFFFFFFFFFFFFFFFFFFFFFFFFFFFFFFFFFFFFFFFFFFFFFFFFFFFFFFFFFFF DUP3 EQ ISZERO PUSH2 0x2F15 JUMPI PUSH2 0x2F14 PUSH2 0x2F20 JUMP JUMPDEST JUMPDEST PUSH1 0x1 DUP3 ADD SWAP1 POP SWAP2 SWAP1 POP JUMP JUMPDEST PUSH32 0x4E487B7100000000000000000000000000000000000000000000000000000000 PUSH1 0x0 MSTORE PUSH1 0x11 PUSH1 0x4 MSTORE PUSH1 0x24 PUSH1 0x0 REVERT JUMPDEST PUSH32 0x4E487B7100000000000000000000000000000000000000000000000000000000 PUSH1 0x0 MSTORE PUSH1 0x12 PUSH1 0x4 MSTORE PUSH1 0x24 PUSH1 0x0 REVERT JUMPDEST PUSH32 0x4E487B7100000000000000000000000000000000000000000000000000000000 PUSH1 0x0 MSTORE PUSH1 0x32 PUSH1 0x4 MSTORE PUSH1 0x24 PUSH1 0x0 REVERT JUMPDEST PUSH32 0x4E487B7100000000000000000000000000000000000000000000000000000000 PUSH1 0x0 MSTORE PUSH1 0x41 PUSH1 0x4 MSTORE PUSH1 0x24 PUSH1 0x0 REVERT JUMPDEST PUSH1 0x0 DUP1 REVERT JUMPDEST PUSH1 0x0 DUP1 REVERT JUMPDEST PUSH1 0x0 DUP1 REVERT JUMPDEST PUSH1 0x0 DUP1 REVERT JUMPDEST PUSH1 0x0 DUP1 REVERT JUMPDEST PUSH1 0x0 DUP1 REVERT JUMPDEST PUSH1 0x0 PUSH1 0x1F NOT PUSH1 0x1F DUP4 ADD AND SWAP1 POP SWAP2 SWAP1 POP JUMP JUMPDEST PUSH32 0x4E4654205374616B696E673A20456D7074792041727261790000000000000000 PUSH1 0x0 DUP3 ADD MSTORE POP JUMP JUMPDEST PUSH32 0x5361666542455032303A204245503230206F7065726174696F6E20646964206E PUSH1 0x0 DUP3 ADD MSTORE PUSH32 0x6F74207375636365656400000000000000000000000000000000000000000000 PUSH1 0x20 DUP3 ADD MSTORE POP JUMP JUMPDEST PUSH32 0x4F776E61626C653A206E6577206F776E657220697320746865207A65726F2061 PUSH1 0x0 DUP3 ADD MSTORE PUSH32 0x6464726573730000000000000000000000000000000000000000000000000000 PUSH1 0x20 DUP3 ADD MSTORE POP JUMP JUMPDEST PUSH32 0x4E4654205374616B696E673A206475706C696361746520746F6B656E20696473 PUSH1 0x0 DUP3 ADD MSTORE PUSH32 0x20696E20696E70757420706172616D732E000000000000000000000000000000 PUSH1 0x20 DUP3 ADD MSTORE POP JUMP JUMPDEST PUSH32 0x4E4654205374616B696E673A206E6F74206F776E6572206F6620746F6B656E2E PUSH1 0x0 DUP3 ADD MSTORE POP JUMP JUMPDEST PUSH32 0x4F776E61626C653A2063616C6C6572206973206E6F7420746865206F776E6572 PUSH1 0x0 DUP3 ADD MSTORE POP JUMP JUMPDEST PUSH32 0x736574486172766573744665653A2066656550657263656E74203E2034300000 PUSH1 0x0 DUP3 ADD MSTORE POP JUMP JUMPDEST PUSH32 0x416464726573733A2063616C6C20746F206E6F6E2D636F6E7472616374000000 PUSH1 0x0 DUP3 ADD MSTORE POP JUMP JUMPDEST PUSH32 0x4E667420556E7374616B696E673A20746F6B656E206E6F74207374616B656420 PUSH1 0x0 DUP3 ADD MSTORE PUSH32 0x6F7220696E636F727265637420746F6B656E206F776E65722E00000000000000 PUSH1 0x20 DUP3 ADD MSTORE POP JUMP JUMPDEST PUSH2 0x321D DUP2 PUSH2 0x2E05 JUMP JUMPDEST DUP2 EQ PUSH2 0x3228 JUMPI PUSH1 0x0 DUP1 REVERT JUMPDEST POP JUMP JUMPDEST PUSH2 0x3234 DUP2 PUSH2 0x2E17 JUMP JUMPDEST DUP2 EQ PUSH2 0x323F JUMPI PUSH1 0x0 DUP1 REVERT JUMPDEST POP JUMP JUMPDEST PUSH2 0x324B DUP2 PUSH2 0x2E43 JUMP JUMPDEST DUP2 EQ PUSH2 0x3256 JUMPI PUSH1 0x0 DUP1 REVERT JUMPDEST POP JUMP INVALID LOG2 PUSH5 0x6970667358 0x22 SLT KECCAK256 SWAP16 0xF SUB MOD JUMP 0x2C PUSH17 0x50FB4362A04B54D39BE153609B603D55CC 0xFC DUP16 0xF8 PUSH12 0x1F4291B64736F6C63430008 SMOD STOP CALLER "
				},
				"gasEstimates": {
					"creation": {
						"codeDepositCost": "2588600",
						"executionCost": "infinite",
						"totalCost": "infinite"
					},
					"external": {
						"accGHSPPerShare()": "2452",
						"balanceOfStakes()": "infinite",
						"depositReward(uint256)": "infinite",
						"feeWallet()": "2624",
						"getMultiplier(uint256,uint256)": "infinite",
						"getPending(address)": "infinite",
						"getRewardBalance()": "infinite",
						"ghspToken()": "infinite",
						"harvest()": "infinite",
						"harvestFee()": "2451",
						"lastRewardBlock()": "2540",
						"nftToken()": "infinite",
						"owner()": "2567",
						"renounceOwnership()": "30485",
						"rewardPerBlock()": "2452",
						"setFeeWallet(address)": "30348",
						"setHarvestFee(uint256)": "infinite",
						"stake(uint256[])": "infinite",
						"totalStakedAmount()": "2496",
						"transferOwnership(address)": "30855",
						"unstake(uint256[])": "infinite",
						"userInfo(address)": "infinite"
					},
					"internal": {
						"_getPending(address)": "infinite",
						"updateStatus()": "infinite"
					}
				},
				"methodIdentifiers": {
					"accGHSPPerShare()": "43db3c5f",
					"balanceOfStakes()": "2955c60c",
					"depositReward(uint256)": "1e2720ff",
					"feeWallet()": "f25f4b56",
					"getMultiplier(uint256,uint256)": "8dbb1e3a",
					"getPending(address)": "d086c254",
					"getRewardBalance()": "5e42b455",
					"ghspToken()": "19fca9f6",
					"harvest()": "4641257d",
					"harvestFee()": "b5962917",
					"lastRewardBlock()": "a9f8d181",
					"nftToken()": "d06fcba8",
					"owner()": "8da5cb5b",
					"renounceOwnership()": "715018a6",
					"rewardPerBlock()": "8ae39cac",
					"setFeeWallet(address)": "90d49b9d",
					"setHarvestFee(uint256)": "792b55b6",
					"stake(uint256[])": "0fbf0a93",
					"totalStakedAmount()": "567e98f9",
					"transferOwnership(address)": "f2fde38b",
					"unstake(uint256[])": "e449f341",
					"userInfo(address)": "1959a002"
				}
			},
			"userdoc": {
				"kind": "user",
				"methods": {},
				"version": 1
			}
		}
	}
}