{
	"Ghosper-NFT-Staking-MasterChef.sol": {
		"NftStaking": {
			"abi": [
				{
					"inputs": [
						{
							"internalType": "contract IERC721",
							"name": "_nftToken",
							"type": "address"
						},
						{
							"internalType": "contract IBEP20",
							"name": "_ghspToken",
							"type": "address"
						},
						{
							"internalType": "uint256",
							"name": "_rewardPerBlock",
							"type": "uint256"
						},
						{
							"internalType": "address",
							"name": "_feeWallet",
							"type": "address"
						}
					],
					"stateMutability": "nonpayable",
					"type": "constructor"
				},
				{
					"anonymous": false,
					"inputs": [
						{
							"indexed": false,
							"internalType": "uint256",
							"name": "_index",
							"type": "uint256"
						},
						{
							"indexed": false,
							"internalType": "uint256",
							"name": "_minDays",
							"type": "uint256"
						},
						{
							"indexed": false,
							"internalType": "uint256",
							"name": "_feePercent",
							"type": "uint256"
						}
					],
					"name": "AddUnStakeFee",
					"type": "event"
				},
				{
					"anonymous": false,
					"inputs": [
						{
							"indexed": true,
							"internalType": "address",
							"name": "user",
							"type": "address"
						},
						{
							"indexed": false,
							"internalType": "uint256",
							"name": "amount",
							"type": "uint256"
						}
					],
					"name": "DepositReward",
					"type": "event"
				},
				{
					"anonymous": false,
					"inputs": [
						{
							"indexed": false,
							"internalType": "address",
							"name": "staker",
							"type": "address"
						},
						{
							"indexed": false,
							"internalType": "uint256",
							"name": "amount",
							"type": "uint256"
						},
						{
							"indexed": false,
							"internalType": "uint256",
							"name": "harvestFee",
							"type": "uint256"
						}
					],
					"name": "Harvest",
					"type": "event"
				},
				{
					"anonymous": false,
					"inputs": [
						{
							"indexed": true,
							"internalType": "address",
							"name": "previousOwner",
							"type": "address"
						},
						{
							"indexed": true,
							"internalType": "address",
							"name": "newOwner",
							"type": "address"
						}
					],
					"name": "OwnershipTransferred",
					"type": "event"
				},
				{
					"anonymous": false,
					"inputs": [
						{
							"indexed": true,
							"internalType": "address",
							"name": "_feeWallet",
							"type": "address"
						}
					],
					"name": "SetFeeWallet",
					"type": "event"
				},
				{
					"anonymous": false,
					"inputs": [
						{
							"indexed": false,
							"internalType": "uint256",
							"name": "_harvestFee",
							"type": "uint256"
						}
					],
					"name": "SetHarvestFee",
					"type": "event"
				},
				{
					"anonymous": false,
					"inputs": [
						{
							"indexed": false,
							"internalType": "address",
							"name": "staker",
							"type": "address"
						},
						{
							"indexed": false,
							"internalType": "uint256[]",
							"name": "tokenId",
							"type": "uint256[]"
						}
					],
					"name": "Staked",
					"type": "event"
				},
				{
					"anonymous": false,
					"inputs": [
						{
							"indexed": false,
							"internalType": "address",
							"name": "staker",
							"type": "address"
						},
						{
							"indexed": false,
							"internalType": "uint256[]",
							"name": "tokenId",
							"type": "uint256[]"
						}
					],
					"name": "UnStaked",
					"type": "event"
				},
				{
					"inputs": [],
					"name": "accGHSPPerShare",
					"outputs": [
						{
							"internalType": "uint256",
							"name": "",
							"type": "uint256"
						}
					],
					"stateMutability": "view",
					"type": "function"
				},
				{
					"inputs": [
						{
							"internalType": "uint256",
							"name": "_amount",
							"type": "uint256"
						}
					],
					"name": "depositReward",
					"outputs": [],
					"stateMutability": "nonpayable",
					"type": "function"
				},
				{
					"inputs": [],
					"name": "feeWallet",
					"outputs": [
						{
							"internalType": "address",
							"name": "",
							"type": "address"
						}
					],
					"stateMutability": "view",
					"type": "function"
				},
				{
					"inputs": [
						{
							"internalType": "uint256",
							"name": "_from",
							"type": "uint256"
						},
						{
							"internalType": "uint256",
							"name": "_to",
							"type": "uint256"
						}
					],
					"name": "getMultiplier",
					"outputs": [
						{
							"internalType": "uint256",
							"name": "",
							"type": "uint256"
						}
					],
					"stateMutability": "pure",
					"type": "function"
				},
				{
					"inputs": [],
					"name": "getRewardBalance",
					"outputs": [
						{
							"internalType": "uint256",
							"name": "",
							"type": "uint256"
						}
					],
					"stateMutability": "view",
					"type": "function"
				},
				{
					"inputs": [],
					"name": "ghspToken",
					"outputs": [
						{
							"internalType": "contract IBEP20",
							"name": "",
							"type": "address"
						}
					],
					"stateMutability": "view",
					"type": "function"
				},
				{
					"inputs": [],
					"name": "harvest",
					"outputs": [],
					"stateMutability": "nonpayable",
					"type": "function"
				},
				{
					"inputs": [],
					"name": "harvestFee",
					"outputs": [
						{
							"internalType": "uint256",
							"name": "",
							"type": "uint256"
						}
					],
					"stateMutability": "view",
					"type": "function"
				},
				{
					"inputs": [],
					"name": "lastRewardBlock",
					"outputs": [
						{
							"internalType": "uint256",
							"name": "",
							"type": "uint256"
						}
					],
					"stateMutability": "view",
					"type": "function"
				},
				{
					"inputs": [],
					"name": "nftToken",
					"outputs": [
						{
							"internalType": "contract IERC721",
							"name": "",
							"type": "address"
						}
					],
					"stateMutability": "view",
					"type": "function"
				},
				{
					"inputs": [],
					"name": "owner",
					"outputs": [
						{
							"internalType": "address",
							"name": "",
							"type": "address"
						}
					],
					"stateMutability": "view",
					"type": "function"
				},
				{
					"inputs": [],
					"name": "renounceOwnership",
					"outputs": [],
					"stateMutability": "nonpayable",
					"type": "function"
				},
				{
					"inputs": [],
					"name": "rewardPerBlock",
					"outputs": [
						{
							"internalType": "uint256",
							"name": "",
							"type": "uint256"
						}
					],
					"stateMutability": "view",
					"type": "function"
				},
				{
					"inputs": [
						{
							"internalType": "address",
							"name": "_feeWallet",
							"type": "address"
						}
					],
					"name": "setFeeWallet",
					"outputs": [],
					"stateMutability": "nonpayable",
					"type": "function"
				},
				{
					"inputs": [
						{
							"internalType": "uint256",
							"name": "_feePercent",
							"type": "uint256"
						}
					],
					"name": "setHarvestFee",
					"outputs": [],
					"stateMutability": "nonpayable",
					"type": "function"
				},
				{
					"inputs": [
						{
							"internalType": "uint256[]",
							"name": "tokenIds",
							"type": "uint256[]"
						}
					],
					"name": "stake",
					"outputs": [],
					"stateMutability": "nonpayable",
					"type": "function"
				},
				{
					"inputs": [],
					"name": "totalStakedAmount",
					"outputs": [
						{
							"internalType": "uint256",
							"name": "",
							"type": "uint256"
						}
					],
					"stateMutability": "view",
					"type": "function"
				},
				{
					"inputs": [
						{
							"internalType": "address",
							"name": "newOwner",
							"type": "address"
						}
					],
					"name": "transferOwnership",
					"outputs": [],
					"stateMutability": "nonpayable",
					"type": "function"
				},
				{
					"inputs": [
						{
							"internalType": "uint256[]",
							"name": "tokenIds",
							"type": "uint256[]"
						}
					],
					"name": "unstake",
					"outputs": [],
					"stateMutability": "nonpayable",
					"type": "function"
				},
				{
					"inputs": [
						{
							"internalType": "address",
							"name": "",
							"type": "address"
						}
					],
					"name": "userInfo",
					"outputs": [
						{
							"internalType": "uint256",
							"name": "amount",
							"type": "uint256"
						},
						{
							"internalType": "uint256",
							"name": "rewardDebt",
							"type": "uint256"
						},
						{
							"internalType": "uint256",
							"name": "pendingAmount",
							"type": "uint256"
						},
						{
							"internalType": "uint256",
							"name": "lastStakedTime",
							"type": "uint256"
						}
					],
					"stateMutability": "view",
					"type": "function"
				}
			],
			"devdoc": {
				"kind": "dev",
				"methods": {
					"owner()": {
						"details": "Returns the address of the current owner."
					},
					"renounceOwnership()": {
						"details": "Leaves the contract without owner. It will not be possible to call `onlyOwner` functions anymore. Can only be called by the current owner. NOTE: Renouncing ownership will leave the contract without an owner, thereby removing any functionality that is only available to the owner."
					},
					"transferOwnership(address)": {
						"details": "Transfers ownership of the contract to a new account (`newOwner`). Can only be called by the current owner."
					}
				},
				"version": 1
			},
			"evm": {
				"assembly": "    /* \"Ghosper-NFT-Staking-MasterChef.sol\":27968:35691  contract NftStaking is Ownable {\r... */\n  mstore(0x40, 0xc0)\n    /* \"Ghosper-NFT-Staking-MasterChef.sol\":29153:29439  constructor(\r... */\n  callvalue\n  dup1\n  iszero\n  tag_1\n  jumpi\n  0x00\n  dup1\n  revert\ntag_1:\n  pop\n  mload(0x40)\n  sub(codesize, bytecodeSize)\n  dup1\n  bytecodeSize\n  dup4\n  codecopy\n  dup2\n  dup2\n  add\n  0x40\n  mstore\n  dup2\n  add\n  swap1\n  tag_2\n  swap2\n  swap1\n  tag_3\n  jump\t// in\ntag_2:\n    /* \"Ghosper-NFT-Staking-MasterChef.sol\":4790:4822  _transferOwnership(_msgSender()) */\n  tag_7\n    /* \"Ghosper-NFT-Staking-MasterChef.sol\":4809:4821  _msgSender() */\n  tag_8\n    /* \"Ghosper-NFT-Staking-MasterChef.sol\":4809:4819  _msgSender */\n  shl(0x20, tag_9)\n    /* \"Ghosper-NFT-Staking-MasterChef.sol\":4809:4821  _msgSender() */\n  0x20\n  shr\n  jump\t// in\ntag_8:\n    /* \"Ghosper-NFT-Staking-MasterChef.sol\":4790:4808  _transferOwnership */\n  shl(0x20, tag_10)\n    /* \"Ghosper-NFT-Staking-MasterChef.sol\":4790:4822  _transferOwnership(_msgSender()) */\n  0x20\n  shr\n  jump\t// in\ntag_7:\n    /* \"Ghosper-NFT-Staking-MasterChef.sol\":29313:29322  _nftToken */\n  dup4\n    /* \"Ghosper-NFT-Staking-MasterChef.sol\":29302:29322  nftToken = _nftToken */\n  0xffffffffffffffffffffffffffffffffffffffff\n  and\n  0x80\n  dup2\n  0xffffffffffffffffffffffffffffffffffffffff\n  and\n  0x60\n  shl\n  dup2\n  mstore\n  pop\n  pop\n    /* \"Ghosper-NFT-Staking-MasterChef.sol\":29345:29355  _ghspToken */\n  dup3\n    /* \"Ghosper-NFT-Staking-MasterChef.sol\":29333:29355  ghspToken = _ghspToken */\n  0xffffffffffffffffffffffffffffffffffffffff\n  and\n  0xa0\n  dup2\n  0xffffffffffffffffffffffffffffffffffffffff\n  and\n  0x60\n  shl\n  dup2\n  mstore\n  pop\n  pop\n    /* \"Ghosper-NFT-Staking-MasterChef.sol\":29383:29398  _rewardPerBlock */\n  dup2\n    /* \"Ghosper-NFT-Staking-MasterChef.sol\":29366:29380  rewardPerBlock */\n  0x03\n    /* \"Ghosper-NFT-Staking-MasterChef.sol\":29366:29398  rewardPerBlock = _rewardPerBlock */\n  dup2\n  swap1\n  sstore\n  pop\n    /* \"Ghosper-NFT-Staking-MasterChef.sol\":29421:29431  _feeWallet */\n  dup1\n    /* \"Ghosper-NFT-Staking-MasterChef.sol\":29409:29418  feeWallet */\n  0x04\n  0x00\n    /* \"Ghosper-NFT-Staking-MasterChef.sol\":29409:29431  feeWallet = _feeWallet */\n  0x0100\n  exp\n  dup2\n  sload\n  dup2\n  0xffffffffffffffffffffffffffffffffffffffff\n  mul\n  not\n  and\n  swap1\n  dup4\n  0xffffffffffffffffffffffffffffffffffffffff\n  and\n  mul\n  or\n  swap1\n  sstore\n  pop\n    /* \"Ghosper-NFT-Staking-MasterChef.sol\":29153:29439  constructor(\r... */\n  pop\n  pop\n  pop\n  pop\n    /* \"Ghosper-NFT-Staking-MasterChef.sol\":27968:35691  contract NftStaking is Ownable {\r... */\n  jump(tag_12)\n    /* \"Ghosper-NFT-Staking-MasterChef.sol\":3751:3849  function _msgSender() internal view virtual returns (address) {\r... */\ntag_9:\n    /* \"Ghosper-NFT-Staking-MasterChef.sol\":3804:3811  address */\n  0x00\n    /* \"Ghosper-NFT-Staking-MasterChef.sol\":3831:3841  msg.sender */\n  caller\n    /* \"Ghosper-NFT-Staking-MasterChef.sol\":3824:3841  return msg.sender */\n  swap1\n  pop\n    /* \"Ghosper-NFT-Staking-MasterChef.sol\":3751:3849  function _msgSender() internal view virtual returns (address) {\r... */\n  swap1\n  jump\t// out\n    /* \"Ghosper-NFT-Staking-MasterChef.sol\":6181:6372  function _transferOwnership(address newOwner) internal virtual {\r... */\ntag_10:\n    /* \"Ghosper-NFT-Staking-MasterChef.sol\":6255:6271  address oldOwner */\n  0x00\n    /* \"Ghosper-NFT-Staking-MasterChef.sol\":6274:6280  _owner */\n  dup1\n  0x00\n  swap1\n  sload\n  swap1\n  0x0100\n  exp\n  swap1\n  div\n  0xffffffffffffffffffffffffffffffffffffffff\n  and\n    /* \"Ghosper-NFT-Staking-MasterChef.sol\":6255:6280  address oldOwner = _owner */\n  swap1\n  pop\n    /* \"Ghosper-NFT-Staking-MasterChef.sol\":6300:6308  newOwner */\n  dup2\n    /* \"Ghosper-NFT-Staking-MasterChef.sol\":6291:6297  _owner */\n  0x00\n  dup1\n    /* \"Ghosper-NFT-Staking-MasterChef.sol\":6291:6308  _owner = newOwner */\n  0x0100\n  exp\n  dup2\n  sload\n  dup2\n  0xffffffffffffffffffffffffffffffffffffffff\n  mul\n  not\n  and\n  swap1\n  dup4\n  0xffffffffffffffffffffffffffffffffffffffff\n  and\n  mul\n  or\n  swap1\n  sstore\n  pop\n    /* \"Ghosper-NFT-Staking-MasterChef.sol\":6355:6363  newOwner */\n  dup2\n    /* \"Ghosper-NFT-Staking-MasterChef.sol\":6324:6364  OwnershipTransferred(oldOwner, newOwner) */\n  0xffffffffffffffffffffffffffffffffffffffff\n  and\n    /* \"Ghosper-NFT-Staking-MasterChef.sol\":6345:6353  oldOwner */\n  dup2\n    /* \"Ghosper-NFT-Staking-MasterChef.sol\":6324:6364  OwnershipTransferred(oldOwner, newOwner) */\n  0xffffffffffffffffffffffffffffffffffffffff\n  and\n  0x8be0079c531659141344cd1fd0a4f28419497f9722a3daafe3b4186f6b6457e0\n  mload(0x40)\n  mload(0x40)\n  dup1\n  swap2\n  sub\n  swap1\n  log3\n    /* \"Ghosper-NFT-Staking-MasterChef.sol\":6244:6372  {\r... */\n  pop\n    /* \"Ghosper-NFT-Staking-MasterChef.sol\":6181:6372  function _transferOwnership(address newOwner) internal virtual {\r... */\n  pop\n  jump\t// out\n    /* \"#utility.yul\":7:150   */\ntag_16:\n    /* \"#utility.yul\":64:69   */\n  0x00\n    /* \"#utility.yul\":95:101   */\n  dup2\n    /* \"#utility.yul\":89:102   */\n  mload\n    /* \"#utility.yul\":80:102   */\n  swap1\n  pop\n    /* \"#utility.yul\":111:144   */\n  tag_18\n    /* \"#utility.yul\":138:143   */\n  dup2\n    /* \"#utility.yul\":111:144   */\n  tag_19\n  jump\t// in\ntag_18:\n    /* \"#utility.yul\":7:150   */\n  swap3\n  swap2\n  pop\n  pop\n  jump\t// out\n    /* \"#utility.yul\":156:327   */\ntag_20:\n    /* \"#utility.yul\":227:232   */\n  0x00\n    /* \"#utility.yul\":258:264   */\n  dup2\n    /* \"#utility.yul\":252:265   */\n  mload\n    /* \"#utility.yul\":243:265   */\n  swap1\n  pop\n    /* \"#utility.yul\":274:321   */\n  tag_22\n    /* \"#utility.yul\":315:320   */\n  dup2\n    /* \"#utility.yul\":274:321   */\n  tag_23\n  jump\t// in\ntag_22:\n    /* \"#utility.yul\":156:327   */\n  swap3\n  swap2\n  pop\n  pop\n  jump\t// out\n    /* \"#utility.yul\":333:508   */\ntag_24:\n    /* \"#utility.yul\":406:411   */\n  0x00\n    /* \"#utility.yul\":437:443   */\n  dup2\n    /* \"#utility.yul\":431:444   */\n  mload\n    /* \"#utility.yul\":422:444   */\n  swap1\n  pop\n    /* \"#utility.yul\":453:502   */\n  tag_26\n    /* \"#utility.yul\":496:501   */\n  dup2\n    /* \"#utility.yul\":453:502   */\n  tag_27\n  jump\t// in\ntag_26:\n    /* \"#utility.yul\":333:508   */\n  swap3\n  swap2\n  pop\n  pop\n  jump\t// out\n    /* \"#utility.yul\":514:657   */\ntag_28:\n    /* \"#utility.yul\":571:576   */\n  0x00\n    /* \"#utility.yul\":602:608   */\n  dup2\n    /* \"#utility.yul\":596:609   */\n  mload\n    /* \"#utility.yul\":587:609   */\n  swap1\n  pop\n    /* \"#utility.yul\":618:651   */\n  tag_30\n    /* \"#utility.yul\":645:650   */\n  dup2\n    /* \"#utility.yul\":618:651   */\n  tag_31\n  jump\t// in\ntag_30:\n    /* \"#utility.yul\":514:657   */\n  swap3\n  swap2\n  pop\n  pop\n  jump\t// out\n    /* \"#utility.yul\":663:1543   */\ntag_3:\n    /* \"#utility.yul\":790:796   */\n  0x00\n    /* \"#utility.yul\":798:804   */\n  dup1\n    /* \"#utility.yul\":806:812   */\n  0x00\n    /* \"#utility.yul\":814:820   */\n  dup1\n    /* \"#utility.yul\":863:866   */\n  0x80\n    /* \"#utility.yul\":851:860   */\n  dup6\n    /* \"#utility.yul\":842:849   */\n  dup8\n    /* \"#utility.yul\":838:861   */\n  sub\n    /* \"#utility.yul\":834:867   */\n  slt\n    /* \"#utility.yul\":831:951   */\n  iszero\n  tag_33\n  jumpi\n    /* \"#utility.yul\":870:949   */\n  tag_34\n  tag_35\n  jump\t// in\ntag_34:\n    /* \"#utility.yul\":831:951   */\ntag_33:\n    /* \"#utility.yul\":990:991   */\n  0x00\n    /* \"#utility.yul\":1015:1095   */\n  tag_36\n    /* \"#utility.yul\":1087:1094   */\n  dup8\n    /* \"#utility.yul\":1078:1084   */\n  dup3\n    /* \"#utility.yul\":1067:1076   */\n  dup9\n    /* \"#utility.yul\":1063:1085   */\n  add\n    /* \"#utility.yul\":1015:1095   */\n  tag_24\n  jump\t// in\ntag_36:\n    /* \"#utility.yul\":1005:1095   */\n  swap5\n  pop\n    /* \"#utility.yul\":961:1105   */\n  pop\n    /* \"#utility.yul\":1144:1146   */\n  0x20\n    /* \"#utility.yul\":1170:1248   */\n  tag_37\n    /* \"#utility.yul\":1240:1247   */\n  dup8\n    /* \"#utility.yul\":1231:1237   */\n  dup3\n    /* \"#utility.yul\":1220:1229   */\n  dup9\n    /* \"#utility.yul\":1216:1238   */\n  add\n    /* \"#utility.yul\":1170:1248   */\n  tag_20\n  jump\t// in\ntag_37:\n    /* \"#utility.yul\":1160:1248   */\n  swap4\n  pop\n    /* \"#utility.yul\":1115:1258   */\n  pop\n    /* \"#utility.yul\":1297:1299   */\n  0x40\n    /* \"#utility.yul\":1323:1387   */\n  tag_38\n    /* \"#utility.yul\":1379:1386   */\n  dup8\n    /* \"#utility.yul\":1370:1376   */\n  dup3\n    /* \"#utility.yul\":1359:1368   */\n  dup9\n    /* \"#utility.yul\":1355:1377   */\n  add\n    /* \"#utility.yul\":1323:1387   */\n  tag_28\n  jump\t// in\ntag_38:\n    /* \"#utility.yul\":1313:1387   */\n  swap3\n  pop\n    /* \"#utility.yul\":1268:1397   */\n  pop\n    /* \"#utility.yul\":1436:1438   */\n  0x60\n    /* \"#utility.yul\":1462:1526   */\n  tag_39\n    /* \"#utility.yul\":1518:1525   */\n  dup8\n    /* \"#utility.yul\":1509:1515   */\n  dup3\n    /* \"#utility.yul\":1498:1507   */\n  dup9\n    /* \"#utility.yul\":1494:1516   */\n  add\n    /* \"#utility.yul\":1462:1526   */\n  tag_16\n  jump\t// in\ntag_39:\n    /* \"#utility.yul\":1452:1526   */\n  swap2\n  pop\n    /* \"#utility.yul\":1407:1536   */\n  pop\n    /* \"#utility.yul\":663:1543   */\n  swap3\n  swap6\n  swap2\n  swap5\n  pop\n  swap3\n  pop\n  jump\t// out\n    /* \"#utility.yul\":1630:1726   */\ntag_42:\n    /* \"#utility.yul\":1667:1674   */\n  0x00\n    /* \"#utility.yul\":1696:1720   */\n  tag_44\n    /* \"#utility.yul\":1714:1719   */\n  dup3\n    /* \"#utility.yul\":1696:1720   */\n  tag_45\n  jump\t// in\ntag_44:\n    /* \"#utility.yul\":1685:1720   */\n  swap1\n  pop\n    /* \"#utility.yul\":1630:1726   */\n  swap2\n  swap1\n  pop\n  jump\t// out\n    /* \"#utility.yul\":1732:1842   */\ntag_46:\n    /* \"#utility.yul\":1783:1790   */\n  0x00\n    /* \"#utility.yul\":1812:1836   */\n  tag_48\n    /* \"#utility.yul\":1830:1835   */\n  dup3\n    /* \"#utility.yul\":1812:1836   */\n  tag_42\n  jump\t// in\ntag_48:\n    /* \"#utility.yul\":1801:1836   */\n  swap1\n  pop\n    /* \"#utility.yul\":1732:1842   */\n  swap2\n  swap1\n  pop\n  jump\t// out\n    /* \"#utility.yul\":1848:1960   */\ntag_49:\n    /* \"#utility.yul\":1901:1908   */\n  0x00\n    /* \"#utility.yul\":1930:1954   */\n  tag_51\n    /* \"#utility.yul\":1948:1953   */\n  dup3\n    /* \"#utility.yul\":1930:1954   */\n  tag_42\n  jump\t// in\ntag_51:\n    /* \"#utility.yul\":1919:1954   */\n  swap1\n  pop\n    /* \"#utility.yul\":1848:1960   */\n  swap2\n  swap1\n  pop\n  jump\t// out\n    /* \"#utility.yul\":1966:2092   */\ntag_45:\n    /* \"#utility.yul\":2003:2010   */\n  0x00\n    /* \"#utility.yul\":2043:2085   */\n  0xffffffffffffffffffffffffffffffffffffffff\n    /* \"#utility.yul\":2036:2041   */\n  dup3\n    /* \"#utility.yul\":2032:2086   */\n  and\n    /* \"#utility.yul\":2021:2086   */\n  swap1\n  pop\n    /* \"#utility.yul\":1966:2092   */\n  swap2\n  swap1\n  pop\n  jump\t// out\n    /* \"#utility.yul\":2098:2175   */\ntag_53:\n    /* \"#utility.yul\":2135:2142   */\n  0x00\n    /* \"#utility.yul\":2164:2169   */\n  dup2\n    /* \"#utility.yul\":2153:2169   */\n  swap1\n  pop\n    /* \"#utility.yul\":2098:2175   */\n  swap2\n  swap1\n  pop\n  jump\t// out\n    /* \"#utility.yul\":2304:2421   */\ntag_35:\n    /* \"#utility.yul\":2413:2414   */\n  0x00\n    /* \"#utility.yul\":2410:2411   */\n  dup1\n    /* \"#utility.yul\":2403:2415   */\n  revert\n    /* \"#utility.yul\":2427:2549   */\ntag_19:\n    /* \"#utility.yul\":2500:2524   */\n  tag_59\n    /* \"#utility.yul\":2518:2523   */\n  dup2\n    /* \"#utility.yul\":2500:2524   */\n  tag_42\n  jump\t// in\ntag_59:\n    /* \"#utility.yul\":2493:2498   */\n  dup2\n    /* \"#utility.yul\":2490:2525   */\n  eq\n    /* \"#utility.yul\":2480:2543   */\n  tag_60\n  jumpi\n    /* \"#utility.yul\":2539:2540   */\n  0x00\n    /* \"#utility.yul\":2536:2537   */\n  dup1\n    /* \"#utility.yul\":2529:2541   */\n  revert\n    /* \"#utility.yul\":2480:2543   */\ntag_60:\n    /* \"#utility.yul\":2427:2549   */\n  pop\n  jump\t// out\n    /* \"#utility.yul\":2555:2705   */\ntag_23:\n    /* \"#utility.yul\":2642:2680   */\n  tag_62\n    /* \"#utility.yul\":2674:2679   */\n  dup2\n    /* \"#utility.yul\":2642:2680   */\n  tag_46\n  jump\t// in\ntag_62:\n    /* \"#utility.yul\":2635:2640   */\n  dup2\n    /* \"#utility.yul\":2632:2681   */\n  eq\n    /* \"#utility.yul\":2622:2699   */\n  tag_63\n  jumpi\n    /* \"#utility.yul\":2695:2696   */\n  0x00\n    /* \"#utility.yul\":2692:2693   */\n  dup1\n    /* \"#utility.yul\":2685:2697   */\n  revert\n    /* \"#utility.yul\":2622:2699   */\ntag_63:\n    /* \"#utility.yul\":2555:2705   */\n  pop\n  jump\t// out\n    /* \"#utility.yul\":2711:2865   */\ntag_27:\n    /* \"#utility.yul\":2800:2840   */\n  tag_65\n    /* \"#utility.yul\":2834:2839   */\n  dup2\n    /* \"#utility.yul\":2800:2840   */\n  tag_49\n  jump\t// in\ntag_65:\n    /* \"#utility.yul\":2793:2798   */\n  dup2\n    /* \"#utility.yul\":2790:2841   */\n  eq\n    /* \"#utility.yul\":2780:2859   */\n  tag_66\n  jumpi\n    /* \"#utility.yul\":2855:2856   */\n  0x00\n    /* \"#utility.yul\":2852:2853   */\n  dup1\n    /* \"#utility.yul\":2845:2857   */\n  revert\n    /* \"#utility.yul\":2780:2859   */\ntag_66:\n    /* \"#utility.yul\":2711:2865   */\n  pop\n  jump\t// out\n    /* \"#utility.yul\":2871:2993   */\ntag_31:\n    /* \"#utility.yul\":2944:2968   */\n  tag_68\n    /* \"#utility.yul\":2962:2967   */\n  dup2\n    /* \"#utility.yul\":2944:2968   */\n  tag_53\n  jump\t// in\ntag_68:\n    /* \"#utility.yul\":2937:2942   */\n  dup2\n    /* \"#utility.yul\":2934:2969   */\n  eq\n    /* \"#utility.yul\":2924:2987   */\n  tag_69\n  jumpi\n    /* \"#utility.yul\":2983:2984   */\n  0x00\n    /* \"#utility.yul\":2980:2981   */\n  dup1\n    /* \"#utility.yul\":2973:2985   */\n  revert\n    /* \"#utility.yul\":2924:2987   */\ntag_69:\n    /* \"#utility.yul\":2871:2993   */\n  pop\n  jump\t// out\n    /* \"Ghosper-NFT-Staking-MasterChef.sol\":27968:35691  contract NftStaking is Ownable {\r... */\ntag_12:\n  shr(0x60, mload(0x80))\n  shr(0x60, mload(0xa0))\n  codecopy(0x00, dataOffset(sub_0), dataSize(sub_0))\n  0x00\n  assignImmutable(\"0x294a915770f1abdd270970c5c5e0116f353ee0443c415452cffb70311418f069\")\n  0x00\n  assignImmutable(\"0xd3d302950f380d1a27df9dd44167cfb162563e31196f778e9cbde584eeb2b78c\")\n  return(0x00, dataSize(sub_0))\nstop\n\nsub_0: assembly {\n        /* \"Ghosper-NFT-Staking-MasterChef.sol\":27968:35691  contract NftStaking is Ownable {\r... */\n      mstore(0x40, 0x80)\n      callvalue\n      dup1\n      iszero\n      tag_1\n      jumpi\n      0x00\n      dup1\n      revert\n    tag_1:\n      pop\n      jumpi(tag_2, lt(calldatasize, 0x04))\n      shr(0xe0, calldataload(0x00))\n      dup1\n      0x8ae39cac\n      gt\n      tag_23\n      jumpi\n      dup1\n      0xb5962917\n      gt\n      tag_24\n      jumpi\n      dup1\n      0xb5962917\n      eq\n      tag_18\n      jumpi\n      dup1\n      0xd06fcba8\n      eq\n      tag_19\n      jumpi\n      dup1\n      0xe449f341\n      eq\n      tag_20\n      jumpi\n      dup1\n      0xf25f4b56\n      eq\n      tag_21\n      jumpi\n      dup1\n      0xf2fde38b\n      eq\n      tag_22\n      jumpi\n      jump(tag_2)\n    tag_24:\n      dup1\n      0x8ae39cac\n      eq\n      tag_13\n      jumpi\n      dup1\n      0x8da5cb5b\n      eq\n      tag_14\n      jumpi\n      dup1\n      0x8dbb1e3a\n      eq\n      tag_15\n      jumpi\n      dup1\n      0x90d49b9d\n      eq\n      tag_16\n      jumpi\n      dup1\n      0xa9f8d181\n      eq\n      tag_17\n      jumpi\n      jump(tag_2)\n    tag_23:\n      dup1\n      0x4641257d\n      gt\n      tag_25\n      jumpi\n      dup1\n      0x4641257d\n      eq\n      tag_8\n      jumpi\n      dup1\n      0x567e98f9\n      eq\n      tag_9\n      jumpi\n      dup1\n      0x5e42b455\n      eq\n      tag_10\n      jumpi\n      dup1\n      0x715018a6\n      eq\n      tag_11\n      jumpi\n      dup1\n      0x792b55b6\n      eq\n      tag_12\n      jumpi\n      jump(tag_2)\n    tag_25:\n      dup1\n      0x0fbf0a93\n      eq\n      tag_3\n      jumpi\n      dup1\n      0x1959a002\n      eq\n      tag_4\n      jumpi\n      dup1\n      0x19fca9f6\n      eq\n      tag_5\n      jumpi\n      dup1\n      0x1e2720ff\n      eq\n      tag_6\n      jumpi\n      dup1\n      0x43db3c5f\n      eq\n      tag_7\n      jumpi\n    tag_2:\n      0x00\n      dup1\n      revert\n        /* \"Ghosper-NFT-Staking-MasterChef.sol\":31500:32890  function stake(uint256[] calldata tokenIds) external {\r... */\n    tag_3:\n      tag_26\n      0x04\n      dup1\n      calldatasize\n      sub\n      dup2\n      add\n      swap1\n      tag_27\n      swap2\n      swap1\n      tag_28\n      jump\t// in\n    tag_27:\n      tag_29\n      jump\t// in\n    tag_26:\n      stop\n        /* \"Ghosper-NFT-Staking-MasterChef.sol\":28670:28715  mapping (address => UserInfo) public userInfo */\n    tag_4:\n      tag_30\n      0x04\n      dup1\n      calldatasize\n      sub\n      dup2\n      add\n      swap1\n      tag_31\n      swap2\n      swap1\n      tag_32\n      jump\t// in\n    tag_31:\n      tag_33\n      jump\t// in\n    tag_30:\n      mload(0x40)\n      tag_34\n      swap5\n      swap4\n      swap3\n      swap2\n      swap1\n      tag_35\n      jump\t// in\n    tag_34:\n      mload(0x40)\n      dup1\n      swap2\n      sub\n      swap1\n      return\n        /* \"Ghosper-NFT-Staking-MasterChef.sol\":28285:28318  IBEP20 public immutable ghspToken */\n    tag_5:\n      tag_36\n      tag_37\n      jump\t// in\n    tag_36:\n      mload(0x40)\n      tag_38\n      swap2\n      swap1\n      tag_39\n      jump\t// in\n    tag_38:\n      mload(0x40)\n      dup1\n      swap2\n      sub\n      swap1\n      return\n        /* \"Ghosper-NFT-Staking-MasterChef.sol\":30363:30608  function depositReward(uint256 _amount) external onlyOwner {\r... */\n    tag_6:\n      tag_40\n      0x04\n      dup1\n      calldatasize\n      sub\n      dup2\n      add\n      swap1\n      tag_41\n      swap2\n      swap1\n      tag_42\n      jump\t// in\n    tag_41:\n      tag_43\n      jump\t// in\n    tag_40:\n      stop\n        /* \"Ghosper-NFT-Staking-MasterChef.sol\":28362:28392  uint256 public accGHSPPerShare */\n    tag_7:\n      tag_44\n      tag_45\n      jump\t// in\n    tag_44:\n      mload(0x40)\n      tag_46\n      swap2\n      swap1\n      tag_47\n      jump\t// in\n    tag_46:\n      mload(0x40)\n      dup1\n      swap2\n      sub\n      swap1\n      return\n        /* \"Ghosper-NFT-Staking-MasterChef.sol\":34851:35688  function harvest() external {\r... */\n    tag_8:\n      tag_48\n      tag_49\n      jump\t// in\n    tag_48:\n      stop\n        /* \"Ghosper-NFT-Staking-MasterChef.sol\":28498:28530  uint256 public totalStakedAmount */\n    tag_9:\n      tag_50\n      tag_51\n      jump\t// in\n    tag_50:\n      mload(0x40)\n      tag_52\n      swap2\n      swap1\n      tag_47\n      jump\t// in\n    tag_52:\n      mload(0x40)\n      dup1\n      swap2\n      sub\n      swap1\n      return\n        /* \"Ghosper-NFT-Staking-MasterChef.sol\":29950:30355  function getRewardBalance() external view returns (uint256) {\r... */\n    tag_10:\n      tag_53\n      tag_54\n      jump\t// in\n    tag_53:\n      mload(0x40)\n      tag_55\n      swap2\n      swap1\n      tag_47\n      jump\t// in\n    tag_55:\n      mload(0x40)\n      dup1\n      swap2\n      sub\n      swap1\n      return\n        /* \"Ghosper-NFT-Staking-MasterChef.sol\":5562:5665  function renounceOwnership() public virtual onlyOwner {\r... */\n    tag_11:\n      tag_56\n      tag_57\n      jump\t// in\n    tag_56:\n      stop\n        /* \"Ghosper-NFT-Staking-MasterChef.sol\":29594:29813  function setHarvestFee(uint256 _feePercent) external onlyOwner {\r... */\n    tag_12:\n      tag_58\n      0x04\n      dup1\n      calldatasize\n      sub\n      dup2\n      add\n      swap1\n      tag_59\n      swap2\n      swap1\n      tag_42\n      jump\t// in\n    tag_59:\n      tag_60\n      jump\t// in\n    tag_58:\n      stop\n        /* \"Ghosper-NFT-Staking-MasterChef.sol\":28399:28428  uint256 public rewardPerBlock */\n    tag_13:\n      tag_61\n      tag_62\n      jump\t// in\n    tag_61:\n      mload(0x40)\n      tag_63\n      swap2\n      swap1\n      tag_47\n      jump\t// in\n    tag_63:\n      mload(0x40)\n      dup1\n      swap2\n      sub\n      swap1\n      return\n        /* \"Ghosper-NFT-Staking-MasterChef.sol\":4911:4998  function owner() public view virtual returns (address) {\r... */\n    tag_14:\n      tag_64\n      tag_65\n      jump\t// in\n    tag_64:\n      mload(0x40)\n      tag_66\n      swap2\n      swap1\n      tag_67\n      jump\t// in\n    tag_66:\n      mload(0x40)\n      dup1\n      swap2\n      sub\n      swap1\n      return\n        /* \"Ghosper-NFT-Staking-MasterChef.sol\":29821:29942  function getMultiplier(uint256 _from, uint256 _to) public pure returns (uint256) {\r... */\n    tag_15:\n      tag_68\n      0x04\n      dup1\n      calldatasize\n      sub\n      dup2\n      add\n      swap1\n      tag_69\n      swap2\n      swap1\n      tag_70\n      jump\t// in\n    tag_69:\n      tag_71\n      jump\t// in\n    tag_68:\n      mload(0x40)\n      tag_72\n      swap2\n      swap1\n      tag_47\n      jump\t// in\n    tag_72:\n      mload(0x40)\n      dup1\n      swap2\n      sub\n      swap1\n      return\n        /* \"Ghosper-NFT-Staking-MasterChef.sol\":29445:29586  function setFeeWallet(address _feeWallet) external onlyOwner {\r... */\n    tag_16:\n      tag_73\n      0x04\n      dup1\n      calldatasize\n      sub\n      dup2\n      add\n      swap1\n      tag_74\n      swap2\n      swap1\n      tag_32\n      jump\t// in\n    tag_74:\n      tag_75\n      jump\t// in\n    tag_73:\n      stop\n        /* \"Ghosper-NFT-Staking-MasterChef.sol\":28325:28355  uint256 public lastRewardBlock */\n    tag_17:\n      tag_76\n      tag_77\n      jump\t// in\n    tag_76:\n      mload(0x40)\n      tag_78\n      swap2\n      swap1\n      tag_47\n      jump\t// in\n    tag_78:\n      mload(0x40)\n      dup1\n      swap2\n      sub\n      swap1\n      return\n        /* \"Ghosper-NFT-Staking-MasterChef.sol\":28466:28491  uint256 public harvestFee */\n    tag_18:\n      tag_79\n      tag_80\n      jump\t// in\n    tag_79:\n      mload(0x40)\n      tag_81\n      swap2\n      swap1\n      tag_47\n      jump\t// in\n    tag_81:\n      mload(0x40)\n      dup1\n      swap2\n      sub\n      swap1\n      return\n        /* \"Ghosper-NFT-Staking-MasterChef.sol\":28245:28278  IERC721 public immutable nftToken */\n    tag_19:\n      tag_82\n      tag_83\n      jump\t// in\n    tag_82:\n      mload(0x40)\n      tag_84\n      swap2\n      swap1\n      tag_85\n      jump\t// in\n    tag_84:\n      mload(0x40)\n      dup1\n      swap2\n      sub\n      swap1\n      return\n        /* \"Ghosper-NFT-Staking-MasterChef.sol\":32898:34282  function unstake(uint256[] calldata tokenIds) external {\r... */\n    tag_20:\n      tag_86\n      0x04\n      dup1\n      calldatasize\n      sub\n      dup2\n      add\n      swap1\n      tag_87\n      swap2\n      swap1\n      tag_28\n      jump\t// in\n    tag_87:\n      tag_88\n      jump\t// in\n    tag_86:\n      stop\n        /* \"Ghosper-NFT-Staking-MasterChef.sol\":28435:28459  address public feeWallet */\n    tag_21:\n      tag_89\n      tag_90\n      jump\t// in\n    tag_89:\n      mload(0x40)\n      tag_91\n      swap2\n      swap1\n      tag_67\n      jump\t// in\n    tag_91:\n      mload(0x40)\n      dup1\n      swap2\n      sub\n      swap1\n      return\n        /* \"Ghosper-NFT-Staking-MasterChef.sol\":5820:6021  function transferOwnership(address newOwner) public virtual onlyOwner {\r... */\n    tag_22:\n      tag_92\n      0x04\n      dup1\n      calldatasize\n      sub\n      dup2\n      add\n      swap1\n      tag_93\n      swap2\n      swap1\n      tag_32\n      jump\t// in\n    tag_93:\n      tag_94\n      jump\t// in\n    tag_92:\n      stop\n        /* \"Ghosper-NFT-Staking-MasterChef.sol\":31500:32890  function stake(uint256[] calldata tokenIds) external {\r... */\n    tag_29:\n        /* \"Ghosper-NFT-Staking-MasterChef.sol\":31590:31591  0 */\n      0x00\n        /* \"Ghosper-NFT-Staking-MasterChef.sol\":31572:31580  tokenIds */\n      dup3\n      dup3\n        /* \"Ghosper-NFT-Staking-MasterChef.sol\":31572:31587  tokenIds.length */\n      swap1\n      pop\n        /* \"Ghosper-NFT-Staking-MasterChef.sol\":31572:31591  tokenIds.length > 0 */\n      gt\n        /* \"Ghosper-NFT-Staking-MasterChef.sol\":31564:31620  require(tokenIds.length > 0, \"NFT Staking: Empty Array\") */\n      tag_96\n      jumpi\n      mload(0x40)\n      0x08c379a000000000000000000000000000000000000000000000000000000000\n      dup2\n      mstore\n      0x04\n      add\n      tag_97\n      swap1\n      tag_98\n      jump\t// in\n    tag_97:\n      mload(0x40)\n      dup1\n      swap2\n      sub\n      swap1\n      revert\n    tag_96:\n        /* \"Ghosper-NFT-Staking-MasterChef.sol\":31635:31644  uint256 i */\n      0x00\n        /* \"Ghosper-NFT-Staking-MasterChef.sol\":31631:32075  for(uint256 i = 0; i < tokenIds.length; i ++){\r... */\n    tag_99:\n        /* \"Ghosper-NFT-Staking-MasterChef.sol\":31654:31662  tokenIds */\n      dup3\n      dup3\n        /* \"Ghosper-NFT-Staking-MasterChef.sol\":31654:31669  tokenIds.length */\n      swap1\n      pop\n        /* \"Ghosper-NFT-Staking-MasterChef.sol\":31650:31651  i */\n      dup2\n        /* \"Ghosper-NFT-Staking-MasterChef.sol\":31650:31669  i < tokenIds.length */\n      lt\n        /* \"Ghosper-NFT-Staking-MasterChef.sol\":31631:32075  for(uint256 i = 0; i < tokenIds.length; i ++){\r... */\n      iszero\n      tag_100\n      jumpi\n        /* \"Ghosper-NFT-Staking-MasterChef.sol\":31732:31742  msg.sender */\n      caller\n        /* \"Ghosper-NFT-Staking-MasterChef.sol\":31699:31742  nftToken.ownerOf(tokenIds[i]) == msg.sender */\n      0xffffffffffffffffffffffffffffffffffffffff\n      and\n        /* \"Ghosper-NFT-Staking-MasterChef.sol\":31699:31707  nftToken */\n      immutable(\"0xd3d302950f380d1a27df9dd44167cfb162563e31196f778e9cbde584eeb2b78c\")\n        /* \"Ghosper-NFT-Staking-MasterChef.sol\":31699:31715  nftToken.ownerOf */\n      0xffffffffffffffffffffffffffffffffffffffff\n      and\n      0x6352211e\n        /* \"Ghosper-NFT-Staking-MasterChef.sol\":31716:31724  tokenIds */\n      dup6\n      dup6\n        /* \"Ghosper-NFT-Staking-MasterChef.sol\":31725:31726  i */\n      dup6\n        /* \"Ghosper-NFT-Staking-MasterChef.sol\":31716:31727  tokenIds[i] */\n      dup2\n      dup2\n      lt\n      tag_102\n      jumpi\n      tag_103\n      tag_104\n      jump\t// in\n    tag_103:\n    tag_102:\n      swap1\n      pop\n      0x20\n      mul\n      add\n      calldataload\n        /* \"Ghosper-NFT-Staking-MasterChef.sol\":31699:31728  nftToken.ownerOf(tokenIds[i]) */\n      mload(0x40)\n      dup3\n      0xffffffff\n      and\n      0xe0\n      shl\n      dup2\n      mstore\n      0x04\n      add\n      tag_105\n      swap2\n      swap1\n      tag_47\n      jump\t// in\n    tag_105:\n      0x20\n      mload(0x40)\n      dup1\n      dup4\n      sub\n      dup2\n      dup7\n      dup1\n      extcodesize\n      iszero\n      dup1\n      iszero\n      tag_106\n      jumpi\n      0x00\n      dup1\n      revert\n    tag_106:\n      pop\n      gas\n      staticcall\n      iszero\n      dup1\n      iszero\n      tag_108\n      jumpi\n      returndatasize\n      0x00\n      dup1\n      returndatacopy\n      revert(0x00, returndatasize)\n    tag_108:\n      pop\n      pop\n      pop\n      pop\n      mload(0x40)\n      returndatasize\n      not(0x1f)\n      0x1f\n      dup3\n      add\n      and\n      dup3\n      add\n      dup1\n      0x40\n      mstore\n      pop\n      dup2\n      add\n      swap1\n      tag_109\n      swap2\n      swap1\n      tag_110\n      jump\t// in\n    tag_109:\n        /* \"Ghosper-NFT-Staking-MasterChef.sol\":31699:31742  nftToken.ownerOf(tokenIds[i]) == msg.sender */\n      0xffffffffffffffffffffffffffffffffffffffff\n      and\n      eq\n        /* \"Ghosper-NFT-Staking-MasterChef.sol\":31691:31779  require(nftToken.ownerOf(tokenIds[i]) == msg.sender, \"NFT Staking: not owner of token.\") */\n      tag_111\n      jumpi\n      mload(0x40)\n      0x08c379a000000000000000000000000000000000000000000000000000000000\n      dup2\n      mstore\n      0x04\n      add\n      tag_112\n      swap1\n      tag_113\n      jump\t// in\n    tag_112:\n      mload(0x40)\n      dup1\n      swap2\n      sub\n      swap1\n      revert\n    tag_111:\n        /* \"Ghosper-NFT-Staking-MasterChef.sol\":31836:31837  0 */\n      0x00\n        /* \"Ghosper-NFT-Staking-MasterChef.sol\":31802:31838  allStakes[tokenIds[i]] == address(0) */\n      0xffffffffffffffffffffffffffffffffffffffff\n      and\n        /* \"Ghosper-NFT-Staking-MasterChef.sol\":31802:31811  allStakes */\n      0x08\n        /* \"Ghosper-NFT-Staking-MasterChef.sol\":31802:31824  allStakes[tokenIds[i]] */\n      0x00\n        /* \"Ghosper-NFT-Staking-MasterChef.sol\":31812:31820  tokenIds */\n      dup6\n      dup6\n        /* \"Ghosper-NFT-Staking-MasterChef.sol\":31821:31822  i */\n      dup6\n        /* \"Ghosper-NFT-Staking-MasterChef.sol\":31812:31823  tokenIds[i] */\n      dup2\n      dup2\n      lt\n      tag_114\n      jumpi\n      tag_115\n      tag_104\n      jump\t// in\n    tag_115:\n    tag_114:\n      swap1\n      pop\n      0x20\n      mul\n      add\n      calldataload\n        /* \"Ghosper-NFT-Staking-MasterChef.sol\":31802:31824  allStakes[tokenIds[i]] */\n      dup2\n      mstore\n      0x20\n      add\n      swap1\n      dup2\n      mstore\n      0x20\n      add\n      0x00\n      keccak256\n      0x00\n      swap1\n      sload\n      swap1\n      0x0100\n      exp\n      swap1\n      div\n      0xffffffffffffffffffffffffffffffffffffffff\n      and\n        /* \"Ghosper-NFT-Staking-MasterChef.sol\":31802:31838  allStakes[tokenIds[i]] == address(0) */\n      0xffffffffffffffffffffffffffffffffffffffff\n      and\n      eq\n        /* \"Ghosper-NFT-Staking-MasterChef.sol\":31794:31877  require(allStakes[tokenIds[i]] == address(0), \"NFT Staking: token already staked.\") */\n      tag_116\n      jumpi\n      mload(0x40)\n      0x08c379a000000000000000000000000000000000000000000000000000000000\n      dup2\n      mstore\n      0x04\n      add\n      tag_117\n      swap1\n      tag_118\n      jump\t// in\n    tag_117:\n      mload(0x40)\n      dup1\n      swap2\n      sub\n      swap1\n      revert\n    tag_116:\n        /* \"Ghosper-NFT-Staking-MasterChef.sol\":31896:31905  uint256 j */\n      0x00\n        /* \"Ghosper-NFT-Staking-MasterChef.sol\":31912:31913  1 */\n      0x01\n        /* \"Ghosper-NFT-Staking-MasterChef.sol\":31908:31909  i */\n      dup3\n        /* \"Ghosper-NFT-Staking-MasterChef.sol\":31908:31913  i + 1 */\n      tag_122\n      swap2\n      swap1\n      tag_123\n      jump\t// in\n    tag_122:\n        /* \"Ghosper-NFT-Staking-MasterChef.sol\":31896:31913  uint256 j = i + 1 */\n      swap1\n      pop\n        /* \"Ghosper-NFT-Staking-MasterChef.sol\":31892:32064  for(uint256 j = i + 1; j < tokenIds.length; j ++){\r... */\n    tag_119:\n        /* \"Ghosper-NFT-Staking-MasterChef.sol\":31919:31927  tokenIds */\n      dup4\n      dup4\n        /* \"Ghosper-NFT-Staking-MasterChef.sol\":31919:31934  tokenIds.length */\n      swap1\n      pop\n        /* \"Ghosper-NFT-Staking-MasterChef.sol\":31915:31916  j */\n      dup2\n        /* \"Ghosper-NFT-Staking-MasterChef.sol\":31915:31934  j < tokenIds.length */\n      lt\n        /* \"Ghosper-NFT-Staking-MasterChef.sol\":31892:32064  for(uint256 j = i + 1; j < tokenIds.length; j ++){\r... */\n      iszero\n      tag_120\n      jumpi\n        /* \"Ghosper-NFT-Staking-MasterChef.sol\":31983:31991  tokenIds */\n      dup4\n      dup4\n        /* \"Ghosper-NFT-Staking-MasterChef.sol\":31992:31993  j */\n      dup3\n        /* \"Ghosper-NFT-Staking-MasterChef.sol\":31983:31994  tokenIds[j] */\n      dup2\n      dup2\n      lt\n      tag_124\n      jumpi\n      tag_125\n      tag_104\n      jump\t// in\n    tag_125:\n    tag_124:\n      swap1\n      pop\n      0x20\n      mul\n      add\n      calldataload\n        /* \"Ghosper-NFT-Staking-MasterChef.sol\":31968:31976  tokenIds */\n      dup5\n      dup5\n        /* \"Ghosper-NFT-Staking-MasterChef.sol\":31977:31978  i */\n      dup5\n        /* \"Ghosper-NFT-Staking-MasterChef.sol\":31968:31979  tokenIds[i] */\n      dup2\n      dup2\n      lt\n      tag_126\n      jumpi\n      tag_127\n      tag_104\n      jump\t// in\n    tag_127:\n    tag_126:\n      swap1\n      pop\n      0x20\n      mul\n      add\n      calldataload\n        /* \"Ghosper-NFT-Staking-MasterChef.sol\":31968:31994  tokenIds[i] != tokenIds[j] */\n      eq\n      iszero\n        /* \"Ghosper-NFT-Staking-MasterChef.sol\":31960:32048  require(tokenIds[i] != tokenIds[j], \"NFT Staking: duplicate token ids in input params.\") */\n      tag_128\n      jumpi\n      mload(0x40)\n      0x08c379a000000000000000000000000000000000000000000000000000000000\n      dup2\n      mstore\n      0x04\n      add\n      tag_129\n      swap1\n      tag_130\n      jump\t// in\n    tag_129:\n      mload(0x40)\n      dup1\n      swap2\n      sub\n      swap1\n      revert\n    tag_128:\n        /* \"Ghosper-NFT-Staking-MasterChef.sol\":31936:31940  j ++ */\n      dup1\n      dup1\n      tag_131\n      swap1\n      tag_132\n      jump\t// in\n    tag_131:\n      swap2\n      pop\n      pop\n        /* \"Ghosper-NFT-Staking-MasterChef.sol\":31892:32064  for(uint256 j = i + 1; j < tokenIds.length; j ++){\r... */\n      jump(tag_119)\n    tag_120:\n      pop\n        /* \"Ghosper-NFT-Staking-MasterChef.sol\":31671:31675  i ++ */\n      dup1\n      dup1\n      tag_133\n      swap1\n      tag_132\n      jump\t// in\n    tag_133:\n      swap2\n      pop\n      pop\n        /* \"Ghosper-NFT-Staking-MasterChef.sol\":31631:32075  for(uint256 i = 0; i < tokenIds.length; i ++){\r... */\n      jump(tag_99)\n    tag_100:\n      pop\n        /* \"Ghosper-NFT-Staking-MasterChef.sol\":32085:32099  updateStatus() */\n      tag_134\n        /* \"Ghosper-NFT-Staking-MasterChef.sol\":32085:32097  updateStatus */\n      tag_135\n        /* \"Ghosper-NFT-Staking-MasterChef.sol\":32085:32099  updateStatus() */\n      jump\t// in\n    tag_134:\n        /* \"Ghosper-NFT-Staking-MasterChef.sol\":32110:32131  UserInfo storage user */\n      0x00\n        /* \"Ghosper-NFT-Staking-MasterChef.sol\":32134:32142  userInfo */\n      0x09\n        /* \"Ghosper-NFT-Staking-MasterChef.sol\":32134:32154  userInfo[msg.sender] */\n      0x00\n        /* \"Ghosper-NFT-Staking-MasterChef.sol\":32143:32153  msg.sender */\n      caller\n        /* \"Ghosper-NFT-Staking-MasterChef.sol\":32134:32154  userInfo[msg.sender] */\n      0xffffffffffffffffffffffffffffffffffffffff\n      and\n      0xffffffffffffffffffffffffffffffffffffffff\n      and\n      dup2\n      mstore\n      0x20\n      add\n      swap1\n      dup2\n      mstore\n      0x20\n      add\n      0x00\n      keccak256\n        /* \"Ghosper-NFT-Staking-MasterChef.sol\":32110:32154  UserInfo storage user = userInfo[msg.sender] */\n      swap1\n      pop\n        /* \"Ghosper-NFT-Staking-MasterChef.sol\":32183:32184  0 */\n      0x00\n        /* \"Ghosper-NFT-Staking-MasterChef.sol\":32169:32173  user */\n      dup2\n        /* \"Ghosper-NFT-Staking-MasterChef.sol\":32169:32180  user.amount */\n      0x00\n      add\n      sload\n        /* \"Ghosper-NFT-Staking-MasterChef.sol\":32169:32184  user.amount > 0 */\n      gt\n        /* \"Ghosper-NFT-Staking-MasterChef.sol\":32165:32361  if (user.amount > 0) {\r... */\n      iszero\n      tag_136\n      jumpi\n        /* \"Ghosper-NFT-Staking-MasterChef.sol\":32201:32216  uint256 pending */\n      0x00\n        /* \"Ghosper-NFT-Staking-MasterChef.sol\":32219:32282  user.amount.mul(accGHSPPerShare).div(1e12).sub(user.rewardDebt) */\n      tag_137\n        /* \"Ghosper-NFT-Staking-MasterChef.sol\":32266:32270  user */\n      dup3\n        /* \"Ghosper-NFT-Staking-MasterChef.sol\":32266:32281  user.rewardDebt */\n      0x01\n      add\n      sload\n        /* \"Ghosper-NFT-Staking-MasterChef.sol\":32219:32261  user.amount.mul(accGHSPPerShare).div(1e12) */\n      tag_138\n        /* \"Ghosper-NFT-Staking-MasterChef.sol\":32256:32260  1e12 */\n      0xe8d4a51000\n        /* \"Ghosper-NFT-Staking-MasterChef.sol\":32219:32251  user.amount.mul(accGHSPPerShare) */\n      tag_139\n        /* \"Ghosper-NFT-Staking-MasterChef.sol\":32235:32250  accGHSPPerShare */\n      sload(0x02)\n        /* \"Ghosper-NFT-Staking-MasterChef.sol\":32219:32223  user */\n      dup8\n        /* \"Ghosper-NFT-Staking-MasterChef.sol\":32219:32230  user.amount */\n      0x00\n      add\n      sload\n        /* \"Ghosper-NFT-Staking-MasterChef.sol\":32219:32234  user.amount.mul */\n      tag_140\n      swap1\n        /* \"Ghosper-NFT-Staking-MasterChef.sol\":32219:32251  user.amount.mul(accGHSPPerShare) */\n      swap2\n      swap1\n      0xffffffff\n      and\n      jump\t// in\n    tag_139:\n        /* \"Ghosper-NFT-Staking-MasterChef.sol\":32219:32255  user.amount.mul(accGHSPPerShare).div */\n      tag_141\n      swap1\n        /* \"Ghosper-NFT-Staking-MasterChef.sol\":32219:32261  user.amount.mul(accGHSPPerShare).div(1e12) */\n      swap2\n      swap1\n      0xffffffff\n      and\n      jump\t// in\n    tag_138:\n        /* \"Ghosper-NFT-Staking-MasterChef.sol\":32219:32265  user.amount.mul(accGHSPPerShare).div(1e12).sub */\n      tag_142\n      swap1\n        /* \"Ghosper-NFT-Staking-MasterChef.sol\":32219:32282  user.amount.mul(accGHSPPerShare).div(1e12).sub(user.rewardDebt) */\n      swap2\n      swap1\n      0xffffffff\n      and\n      jump\t// in\n    tag_137:\n        /* \"Ghosper-NFT-Staking-MasterChef.sol\":32201:32282  uint256 pending = user.amount.mul(accGHSPPerShare).div(1e12).sub(user.rewardDebt) */\n      swap1\n      pop\n        /* \"Ghosper-NFT-Staking-MasterChef.sol\":32318:32349  user.pendingAmount.add(pending) */\n      tag_143\n        /* \"Ghosper-NFT-Staking-MasterChef.sol\":32341:32348  pending */\n      dup2\n        /* \"Ghosper-NFT-Staking-MasterChef.sol\":32318:32322  user */\n      dup4\n        /* \"Ghosper-NFT-Staking-MasterChef.sol\":32318:32336  user.pendingAmount */\n      0x02\n      add\n      sload\n        /* \"Ghosper-NFT-Staking-MasterChef.sol\":32318:32340  user.pendingAmount.add */\n      tag_144\n      swap1\n        /* \"Ghosper-NFT-Staking-MasterChef.sol\":32318:32349  user.pendingAmount.add(pending) */\n      swap2\n      swap1\n      0xffffffff\n      and\n      jump\t// in\n    tag_143:\n        /* \"Ghosper-NFT-Staking-MasterChef.sol\":32297:32301  user */\n      dup3\n        /* \"Ghosper-NFT-Staking-MasterChef.sol\":32297:32315  user.pendingAmount */\n      0x02\n      add\n        /* \"Ghosper-NFT-Staking-MasterChef.sol\":32297:32349  user.pendingAmount = user.pendingAmount.add(pending) */\n      dup2\n      swap1\n      sstore\n      pop\n        /* \"Ghosper-NFT-Staking-MasterChef.sol\":32186:32361  {\r... */\n      pop\n        /* \"Ghosper-NFT-Staking-MasterChef.sol\":32165:32361  if (user.amount > 0) {\r... */\n    tag_136:\n        /* \"Ghosper-NFT-Staking-MasterChef.sol\":32371:32390  uint256 tokenAmount */\n      0x00\n        /* \"Ghosper-NFT-Staking-MasterChef.sol\":32393:32401  tokenIds */\n      dup4\n      dup4\n        /* \"Ghosper-NFT-Staking-MasterChef.sol\":32393:32408  tokenIds.length */\n      swap1\n      pop\n        /* \"Ghosper-NFT-Staking-MasterChef.sol\":32371:32408  uint256 tokenAmount = tokenIds.length */\n      swap1\n      pop\n        /* \"Ghosper-NFT-Staking-MasterChef.sol\":32439:32473  totalStakedAmount.add(tokenAmount) */\n      tag_145\n        /* \"Ghosper-NFT-Staking-MasterChef.sol\":32461:32472  tokenAmount */\n      dup2\n        /* \"Ghosper-NFT-Staking-MasterChef.sol\":32439:32456  totalStakedAmount */\n      sload(0x06)\n        /* \"Ghosper-NFT-Staking-MasterChef.sol\":32439:32460  totalStakedAmount.add */\n      tag_144\n      swap1\n        /* \"Ghosper-NFT-Staking-MasterChef.sol\":32439:32473  totalStakedAmount.add(tokenAmount) */\n      swap2\n      swap1\n      0xffffffff\n      and\n      jump\t// in\n    tag_145:\n        /* \"Ghosper-NFT-Staking-MasterChef.sol\":32419:32436  totalStakedAmount */\n      0x06\n        /* \"Ghosper-NFT-Staking-MasterChef.sol\":32419:32473  totalStakedAmount = totalStakedAmount.add(tokenAmount) */\n      dup2\n      swap1\n      sstore\n      pop\n        /* \"Ghosper-NFT-Staking-MasterChef.sol\":32498:32526  user.amount.add(tokenAmount) */\n      tag_146\n        /* \"Ghosper-NFT-Staking-MasterChef.sol\":32514:32525  tokenAmount */\n      dup2\n        /* \"Ghosper-NFT-Staking-MasterChef.sol\":32498:32502  user */\n      dup4\n        /* \"Ghosper-NFT-Staking-MasterChef.sol\":32498:32509  user.amount */\n      0x00\n      add\n      sload\n        /* \"Ghosper-NFT-Staking-MasterChef.sol\":32498:32513  user.amount.add */\n      tag_144\n      swap1\n        /* \"Ghosper-NFT-Staking-MasterChef.sol\":32498:32526  user.amount.add(tokenAmount) */\n      swap2\n      swap1\n      0xffffffff\n      and\n      jump\t// in\n    tag_146:\n        /* \"Ghosper-NFT-Staking-MasterChef.sol\":32484:32488  user */\n      dup3\n        /* \"Ghosper-NFT-Staking-MasterChef.sol\":32484:32495  user.amount */\n      0x00\n      add\n        /* \"Ghosper-NFT-Staking-MasterChef.sol\":32484:32526  user.amount = user.amount.add(tokenAmount) */\n      dup2\n      swap1\n      sstore\n      pop\n        /* \"Ghosper-NFT-Staking-MasterChef.sol\":32555:32597  user.amount.mul(accGHSPPerShare).div(1e12) */\n      tag_147\n        /* \"Ghosper-NFT-Staking-MasterChef.sol\":32592:32596  1e12 */\n      0xe8d4a51000\n        /* \"Ghosper-NFT-Staking-MasterChef.sol\":32555:32587  user.amount.mul(accGHSPPerShare) */\n      tag_148\n        /* \"Ghosper-NFT-Staking-MasterChef.sol\":32571:32586  accGHSPPerShare */\n      sload(0x02)\n        /* \"Ghosper-NFT-Staking-MasterChef.sol\":32555:32559  user */\n      dup6\n        /* \"Ghosper-NFT-Staking-MasterChef.sol\":32555:32566  user.amount */\n      0x00\n      add\n      sload\n        /* \"Ghosper-NFT-Staking-MasterChef.sol\":32555:32570  user.amount.mul */\n      tag_140\n      swap1\n        /* \"Ghosper-NFT-Staking-MasterChef.sol\":32555:32587  user.amount.mul(accGHSPPerShare) */\n      swap2\n      swap1\n      0xffffffff\n      and\n      jump\t// in\n    tag_148:\n        /* \"Ghosper-NFT-Staking-MasterChef.sol\":32555:32591  user.amount.mul(accGHSPPerShare).div */\n      tag_141\n      swap1\n        /* \"Ghosper-NFT-Staking-MasterChef.sol\":32555:32597  user.amount.mul(accGHSPPerShare).div(1e12) */\n      swap2\n      swap1\n      0xffffffff\n      and\n      jump\t// in\n    tag_147:\n        /* \"Ghosper-NFT-Staking-MasterChef.sol\":32537:32541  user */\n      dup3\n        /* \"Ghosper-NFT-Staking-MasterChef.sol\":32537:32552  user.rewardDebt */\n      0x01\n      add\n        /* \"Ghosper-NFT-Staking-MasterChef.sol\":32537:32597  user.rewardDebt = user.amount.mul(accGHSPPerShare).div(1e12) */\n      dup2\n      swap1\n      sstore\n      pop\n        /* \"Ghosper-NFT-Staking-MasterChef.sol\":32630:32645  block.timestamp */\n      timestamp\n        /* \"Ghosper-NFT-Staking-MasterChef.sol\":32608:32612  user */\n      dup3\n        /* \"Ghosper-NFT-Staking-MasterChef.sol\":32608:32627  user.lastStakedTime */\n      0x03\n      add\n        /* \"Ghosper-NFT-Staking-MasterChef.sol\":32608:32645  user.lastStakedTime = block.timestamp */\n      dup2\n      swap1\n      sstore\n      pop\n        /* \"Ghosper-NFT-Staking-MasterChef.sol\":32660:32669  uint256 i */\n      0x00\n        /* \"Ghosper-NFT-Staking-MasterChef.sol\":32656:32839  for(uint256 i = 0; i < tokenIds.length; i ++){\r... */\n    tag_149:\n        /* \"Ghosper-NFT-Staking-MasterChef.sol\":32679:32687  tokenIds */\n      dup5\n      dup5\n        /* \"Ghosper-NFT-Staking-MasterChef.sol\":32679:32694  tokenIds.length */\n      swap1\n      pop\n        /* \"Ghosper-NFT-Staking-MasterChef.sol\":32675:32676  i */\n      dup2\n        /* \"Ghosper-NFT-Staking-MasterChef.sol\":32675:32694  i < tokenIds.length */\n      lt\n        /* \"Ghosper-NFT-Staking-MasterChef.sol\":32656:32839  for(uint256 i = 0; i < tokenIds.length; i ++){\r... */\n      iszero\n      tag_150\n      jumpi\n        /* \"Ghosper-NFT-Staking-MasterChef.sol\":32741:32751  msg.sender */\n      caller\n        /* \"Ghosper-NFT-Staking-MasterChef.sol\":32716:32725  allStakes */\n      0x08\n        /* \"Ghosper-NFT-Staking-MasterChef.sol\":32716:32738  allStakes[tokenIds[i]] */\n      0x00\n        /* \"Ghosper-NFT-Staking-MasterChef.sol\":32726:32734  tokenIds */\n      dup8\n      dup8\n        /* \"Ghosper-NFT-Staking-MasterChef.sol\":32735:32736  i */\n      dup6\n        /* \"Ghosper-NFT-Staking-MasterChef.sol\":32726:32737  tokenIds[i] */\n      dup2\n      dup2\n      lt\n      tag_152\n      jumpi\n      tag_153\n      tag_104\n      jump\t// in\n    tag_153:\n    tag_152:\n      swap1\n      pop\n      0x20\n      mul\n      add\n      calldataload\n        /* \"Ghosper-NFT-Staking-MasterChef.sol\":32716:32738  allStakes[tokenIds[i]] */\n      dup2\n      mstore\n      0x20\n      add\n      swap1\n      dup2\n      mstore\n      0x20\n      add\n      0x00\n      keccak256\n      0x00\n        /* \"Ghosper-NFT-Staking-MasterChef.sol\":32716:32751  allStakes[tokenIds[i]] = msg.sender */\n      0x0100\n      exp\n      dup2\n      sload\n      dup2\n      0xffffffffffffffffffffffffffffffffffffffff\n      mul\n      not\n      and\n      swap1\n      dup4\n      0xffffffffffffffffffffffffffffffffffffffff\n      and\n      mul\n      or\n      swap1\n      sstore\n      pop\n        /* \"Ghosper-NFT-Staking-MasterChef.sol\":32766:32774  nftToken */\n      immutable(\"0xd3d302950f380d1a27df9dd44167cfb162563e31196f778e9cbde584eeb2b78c\")\n        /* \"Ghosper-NFT-Staking-MasterChef.sol\":32766:32787  nftToken.transferFrom */\n      0xffffffffffffffffffffffffffffffffffffffff\n      and\n      0x23b872dd\n        /* \"Ghosper-NFT-Staking-MasterChef.sol\":32788:32798  msg.sender */\n      caller\n        /* \"Ghosper-NFT-Staking-MasterChef.sol\":32808:32812  this */\n      address\n        /* \"Ghosper-NFT-Staking-MasterChef.sol\":32815:32823  tokenIds */\n      dup9\n      dup9\n        /* \"Ghosper-NFT-Staking-MasterChef.sol\":32824:32825  i */\n      dup7\n        /* \"Ghosper-NFT-Staking-MasterChef.sol\":32815:32826  tokenIds[i] */\n      dup2\n      dup2\n      lt\n      tag_154\n      jumpi\n      tag_155\n      tag_104\n      jump\t// in\n    tag_155:\n    tag_154:\n      swap1\n      pop\n      0x20\n      mul\n      add\n      calldataload\n        /* \"Ghosper-NFT-Staking-MasterChef.sol\":32766:32827  nftToken.transferFrom(msg.sender, address(this), tokenIds[i]) */\n      mload(0x40)\n      dup5\n      0xffffffff\n      and\n      0xe0\n      shl\n      dup2\n      mstore\n      0x04\n      add\n      tag_156\n      swap4\n      swap3\n      swap2\n      swap1\n      tag_157\n      jump\t// in\n    tag_156:\n      0x00\n      mload(0x40)\n      dup1\n      dup4\n      sub\n      dup2\n      0x00\n      dup8\n      dup1\n      extcodesize\n      iszero\n      dup1\n      iszero\n      tag_158\n      jumpi\n      0x00\n      dup1\n      revert\n    tag_158:\n      pop\n      gas\n      call\n      iszero\n      dup1\n      iszero\n      tag_160\n      jumpi\n      returndatasize\n      0x00\n      dup1\n      returndatacopy\n      revert(0x00, returndatasize)\n    tag_160:\n      pop\n      pop\n      pop\n      pop\n        /* \"Ghosper-NFT-Staking-MasterChef.sol\":32696:32700  i ++ */\n      dup1\n      dup1\n      tag_161\n      swap1\n      tag_132\n      jump\t// in\n    tag_161:\n      swap2\n      pop\n      pop\n        /* \"Ghosper-NFT-Staking-MasterChef.sol\":32656:32839  for(uint256 i = 0; i < tokenIds.length; i ++){\r... */\n      jump(tag_149)\n    tag_150:\n      pop\n        /* \"Ghosper-NFT-Staking-MasterChef.sol\":32854:32882  Staked(msg.sender, tokenIds) */\n      0x134b166c6094cc1ccbf1e3353ce5c3cd9fd29869051bdb999895854d77cc5ef6\n        /* \"Ghosper-NFT-Staking-MasterChef.sol\":32861:32871  msg.sender */\n      caller\n        /* \"Ghosper-NFT-Staking-MasterChef.sol\":32873:32881  tokenIds */\n      dup6\n      dup6\n        /* \"Ghosper-NFT-Staking-MasterChef.sol\":32854:32882  Staked(msg.sender, tokenIds) */\n      mload(0x40)\n      tag_162\n      swap4\n      swap3\n      swap2\n      swap1\n      tag_163\n      jump\t// in\n    tag_162:\n      mload(0x40)\n      dup1\n      swap2\n      sub\n      swap1\n      log1\n        /* \"Ghosper-NFT-Staking-MasterChef.sol\":31553:32890  {\r... */\n      pop\n      pop\n        /* \"Ghosper-NFT-Staking-MasterChef.sol\":31500:32890  function stake(uint256[] calldata tokenIds) external {\r... */\n      pop\n      pop\n      jump\t// out\n        /* \"Ghosper-NFT-Staking-MasterChef.sol\":28670:28715  mapping (address => UserInfo) public userInfo */\n    tag_33:\n      mstore(0x20, 0x09)\n      dup1\n      0x00\n      mstore\n      keccak256(0x00, 0x40)\n      0x00\n      swap2\n      pop\n      swap1\n      pop\n      dup1\n      0x00\n      add\n      sload\n      swap1\n      dup1\n      0x01\n      add\n      sload\n      swap1\n      dup1\n      0x02\n      add\n      sload\n      swap1\n      dup1\n      0x03\n      add\n      sload\n      swap1\n      pop\n      dup5\n      jump\t// out\n        /* \"Ghosper-NFT-Staking-MasterChef.sol\":28285:28318  IBEP20 public immutable ghspToken */\n    tag_37:\n      immutable(\"0x294a915770f1abdd270970c5c5e0116f353ee0443c415452cffb70311418f069\")\n      dup2\n      jump\t// out\n        /* \"Ghosper-NFT-Staking-MasterChef.sol\":30363:30608  function depositReward(uint256 _amount) external onlyOwner {\r... */\n    tag_43:\n        /* \"Ghosper-NFT-Staking-MasterChef.sol\":5142:5154  _msgSender() */\n      tag_165\n        /* \"Ghosper-NFT-Staking-MasterChef.sol\":5142:5152  _msgSender */\n      tag_166\n        /* \"Ghosper-NFT-Staking-MasterChef.sol\":5142:5154  _msgSender() */\n      jump\t// in\n    tag_165:\n        /* \"Ghosper-NFT-Staking-MasterChef.sol\":5131:5154  owner() == _msgSender() */\n      0xffffffffffffffffffffffffffffffffffffffff\n      and\n        /* \"Ghosper-NFT-Staking-MasterChef.sol\":5131:5138  owner() */\n      tag_167\n        /* \"Ghosper-NFT-Staking-MasterChef.sol\":5131:5136  owner */\n      tag_65\n        /* \"Ghosper-NFT-Staking-MasterChef.sol\":5131:5138  owner() */\n      jump\t// in\n    tag_167:\n        /* \"Ghosper-NFT-Staking-MasterChef.sol\":5131:5154  owner() == _msgSender() */\n      0xffffffffffffffffffffffffffffffffffffffff\n      and\n      eq\n        /* \"Ghosper-NFT-Staking-MasterChef.sol\":5123:5191  require(owner() == _msgSender(), \"Ownable: caller is not the owner\") */\n      tag_168\n      jumpi\n      mload(0x40)\n      0x08c379a000000000000000000000000000000000000000000000000000000000\n      dup2\n      mstore\n      0x04\n      add\n      tag_169\n      swap1\n      tag_170\n      jump\t// in\n    tag_169:\n      mload(0x40)\n      dup1\n      swap2\n      sub\n      swap1\n      revert\n    tag_168:\n        /* \"Ghosper-NFT-Staking-MasterChef.sol\":30433:30495  ghspToken.safeTransferFrom(msg.sender, address(this), _amount) */\n      tag_172\n        /* \"Ghosper-NFT-Staking-MasterChef.sol\":30460:30470  msg.sender */\n      caller\n        /* \"Ghosper-NFT-Staking-MasterChef.sol\":30480:30484  this */\n      address\n        /* \"Ghosper-NFT-Staking-MasterChef.sol\":30487:30494  _amount */\n      dup4\n        /* \"Ghosper-NFT-Staking-MasterChef.sol\":30433:30442  ghspToken */\n      immutable(\"0x294a915770f1abdd270970c5c5e0116f353ee0443c415452cffb70311418f069\")\n        /* \"Ghosper-NFT-Staking-MasterChef.sol\":30433:30459  ghspToken.safeTransferFrom */\n      0xffffffffffffffffffffffffffffffffffffffff\n      and\n      tag_173\n      swap1\n        /* \"Ghosper-NFT-Staking-MasterChef.sol\":30433:30495  ghspToken.safeTransferFrom(msg.sender, address(this), _amount) */\n      swap4\n      swap3\n      swap2\n      swap1\n      0xffffffff\n      and\n      jump\t// in\n    tag_172:\n        /* \"Ghosper-NFT-Staking-MasterChef.sol\":30525:30535  msg.sender */\n      caller\n        /* \"Ghosper-NFT-Staking-MasterChef.sol\":30511:30545  DepositReward(msg.sender, _amount) */\n      0xffffffffffffffffffffffffffffffffffffffff\n      and\n      0x4f7fd5c9e17300a4800fd572ea53fc291e2ee7470d73346d16b357faee4e7210\n        /* \"Ghosper-NFT-Staking-MasterChef.sol\":30537:30544  _amount */\n      dup3\n        /* \"Ghosper-NFT-Staking-MasterChef.sol\":30511:30545  DepositReward(msg.sender, _amount) */\n      mload(0x40)\n      tag_174\n      swap2\n      swap1\n      tag_47\n      jump\t// in\n    tag_174:\n      mload(0x40)\n      dup1\n      swap2\n      sub\n      swap1\n      log2\n        /* \"Ghosper-NFT-Staking-MasterChef.sol\":30573:30600  _rewardBalance.add(_amount) */\n      tag_175\n        /* \"Ghosper-NFT-Staking-MasterChef.sol\":30592:30599  _amount */\n      dup2\n        /* \"Ghosper-NFT-Staking-MasterChef.sol\":30573:30587  _rewardBalance */\n      sload(0x07)\n        /* \"Ghosper-NFT-Staking-MasterChef.sol\":30573:30591  _rewardBalance.add */\n      tag_144\n      swap1\n        /* \"Ghosper-NFT-Staking-MasterChef.sol\":30573:30600  _rewardBalance.add(_amount) */\n      swap2\n      swap1\n      0xffffffff\n      and\n      jump\t// in\n    tag_175:\n        /* \"Ghosper-NFT-Staking-MasterChef.sol\":30556:30570  _rewardBalance */\n      0x07\n        /* \"Ghosper-NFT-Staking-MasterChef.sol\":30556:30600  _rewardBalance = _rewardBalance.add(_amount) */\n      dup2\n      swap1\n      sstore\n      pop\n        /* \"Ghosper-NFT-Staking-MasterChef.sol\":30363:30608  function depositReward(uint256 _amount) external onlyOwner {\r... */\n      pop\n      jump\t// out\n        /* \"Ghosper-NFT-Staking-MasterChef.sol\":28362:28392  uint256 public accGHSPPerShare */\n    tag_45:\n      sload(0x02)\n      dup2\n      jump\t// out\n        /* \"Ghosper-NFT-Staking-MasterChef.sol\":34851:35688  function harvest() external {\r... */\n    tag_49:\n        /* \"Ghosper-NFT-Staking-MasterChef.sol\":34890:34910  uint256 rewardAmount */\n      0x00\n        /* \"Ghosper-NFT-Staking-MasterChef.sol\":34913:34936  _getPending(msg.sender) */\n      tag_177\n        /* \"Ghosper-NFT-Staking-MasterChef.sol\":34925:34935  msg.sender */\n      caller\n        /* \"Ghosper-NFT-Staking-MasterChef.sol\":34913:34924  _getPending */\n      tag_178\n        /* \"Ghosper-NFT-Staking-MasterChef.sol\":34913:34936  _getPending(msg.sender) */\n      jump\t// in\n    tag_177:\n        /* \"Ghosper-NFT-Staking-MasterChef.sol\":34890:34936  uint256 rewardAmount = _getPending(msg.sender) */\n      swap1\n      pop\n        /* \"Ghosper-NFT-Staking-MasterChef.sol\":34947:34968  UserInfo storage user */\n      0x00\n        /* \"Ghosper-NFT-Staking-MasterChef.sol\":34971:34979  userInfo */\n      0x09\n        /* \"Ghosper-NFT-Staking-MasterChef.sol\":34971:34991  userInfo[msg.sender] */\n      0x00\n        /* \"Ghosper-NFT-Staking-MasterChef.sol\":34980:34990  msg.sender */\n      caller\n        /* \"Ghosper-NFT-Staking-MasterChef.sol\":34971:34991  userInfo[msg.sender] */\n      0xffffffffffffffffffffffffffffffffffffffff\n      and\n      0xffffffffffffffffffffffffffffffffffffffff\n      and\n      dup2\n      mstore\n      0x20\n      add\n      swap1\n      dup2\n      mstore\n      0x20\n      add\n      0x00\n      keccak256\n        /* \"Ghosper-NFT-Staking-MasterChef.sol\":34947:34991  UserInfo storage user = userInfo[msg.sender] */\n      swap1\n      pop\n        /* \"Ghosper-NFT-Staking-MasterChef.sol\":35002:35021  uint256 _harvestFee */\n      0x00\n        /* \"Ghosper-NFT-Staking-MasterChef.sol\":35024:35061  rewardAmount.mul(harvestFee).div(100) */\n      tag_179\n        /* \"Ghosper-NFT-Staking-MasterChef.sol\":35057:35060  100 */\n      0x64\n        /* \"Ghosper-NFT-Staking-MasterChef.sol\":35024:35052  rewardAmount.mul(harvestFee) */\n      tag_180\n        /* \"Ghosper-NFT-Staking-MasterChef.sol\":35041:35051  harvestFee */\n      sload(0x05)\n        /* \"Ghosper-NFT-Staking-MasterChef.sol\":35024:35036  rewardAmount */\n      dup7\n        /* \"Ghosper-NFT-Staking-MasterChef.sol\":35024:35040  rewardAmount.mul */\n      tag_140\n      swap1\n        /* \"Ghosper-NFT-Staking-MasterChef.sol\":35024:35052  rewardAmount.mul(harvestFee) */\n      swap2\n      swap1\n      0xffffffff\n      and\n      jump\t// in\n    tag_180:\n        /* \"Ghosper-NFT-Staking-MasterChef.sol\":35024:35056  rewardAmount.mul(harvestFee).div */\n      tag_141\n      swap1\n        /* \"Ghosper-NFT-Staking-MasterChef.sol\":35024:35061  rewardAmount.mul(harvestFee).div(100) */\n      swap2\n      swap1\n      0xffffffff\n      and\n      jump\t// in\n    tag_179:\n        /* \"Ghosper-NFT-Staking-MasterChef.sol\":35002:35061  uint256 _harvestFee = rewardAmount.mul(harvestFee).div(100) */\n      swap1\n      pop\n        /* \"Ghosper-NFT-Staking-MasterChef.sol\":35072:35086  uint256 amount */\n      0x00\n        /* \"Ghosper-NFT-Staking-MasterChef.sol\":35104:35115  _harvestFee */\n      dup2\n        /* \"Ghosper-NFT-Staking-MasterChef.sol\":35089:35101  rewardAmount */\n      dup5\n        /* \"Ghosper-NFT-Staking-MasterChef.sol\":35089:35115  rewardAmount - _harvestFee */\n      tag_181\n      swap2\n      swap1\n      tag_182\n      jump\t// in\n    tag_181:\n        /* \"Ghosper-NFT-Staking-MasterChef.sol\":35072:35115  uint256 amount = rewardAmount - _harvestFee */\n      swap1\n      pop\n        /* \"Ghosper-NFT-Staking-MasterChef.sol\":35167:35173  amount */\n      dup1\n        /* \"Ghosper-NFT-Staking-MasterChef.sol\":35130:35139  ghspToken */\n      immutable(\"0x294a915770f1abdd270970c5c5e0116f353ee0443c415452cffb70311418f069\")\n        /* \"Ghosper-NFT-Staking-MasterChef.sol\":35130:35149  ghspToken.balanceOf */\n      0xffffffffffffffffffffffffffffffffffffffff\n      and\n      0x70a08231\n        /* \"Ghosper-NFT-Staking-MasterChef.sol\":35158:35162  this */\n      address\n        /* \"Ghosper-NFT-Staking-MasterChef.sol\":35130:35164  ghspToken.balanceOf(address(this)) */\n      mload(0x40)\n      dup3\n      0xffffffff\n      and\n      0xe0\n      shl\n      dup2\n      mstore\n      0x04\n      add\n      tag_183\n      swap2\n      swap1\n      tag_67\n      jump\t// in\n    tag_183:\n      0x20\n      mload(0x40)\n      dup1\n      dup4\n      sub\n      dup2\n      dup7\n      dup1\n      extcodesize\n      iszero\n      dup1\n      iszero\n      tag_184\n      jumpi\n      0x00\n      dup1\n      revert\n    tag_184:\n      pop\n      gas\n      staticcall\n      iszero\n      dup1\n      iszero\n      tag_186\n      jumpi\n      returndatasize\n      0x00\n      dup1\n      returndatacopy\n      revert(0x00, returndatasize)\n    tag_186:\n      pop\n      pop\n      pop\n      pop\n      mload(0x40)\n      returndatasize\n      not(0x1f)\n      0x1f\n      dup3\n      add\n      and\n      dup3\n      add\n      dup1\n      0x40\n      mstore\n      pop\n      dup2\n      add\n      swap1\n      tag_187\n      swap2\n      swap1\n      tag_188\n      jump\t// in\n    tag_187:\n        /* \"Ghosper-NFT-Staking-MasterChef.sol\":35130:35173  ghspToken.balanceOf(address(this)) < amount */\n      lt\n        /* \"Ghosper-NFT-Staking-MasterChef.sol\":35126:35245  if (ghspToken.balanceOf(address(this)) < amount) {\r... */\n      iszero\n      tag_189\n      jumpi\n        /* \"Ghosper-NFT-Staking-MasterChef.sol\":35199:35208  ghspToken */\n      immutable(\"0x294a915770f1abdd270970c5c5e0116f353ee0443c415452cffb70311418f069\")\n        /* \"Ghosper-NFT-Staking-MasterChef.sol\":35199:35218  ghspToken.balanceOf */\n      0xffffffffffffffffffffffffffffffffffffffff\n      and\n      0x70a08231\n        /* \"Ghosper-NFT-Staking-MasterChef.sol\":35227:35231  this */\n      address\n        /* \"Ghosper-NFT-Staking-MasterChef.sol\":35199:35233  ghspToken.balanceOf(address(this)) */\n      mload(0x40)\n      dup3\n      0xffffffff\n      and\n      0xe0\n      shl\n      dup2\n      mstore\n      0x04\n      add\n      tag_190\n      swap2\n      swap1\n      tag_67\n      jump\t// in\n    tag_190:\n      0x20\n      mload(0x40)\n      dup1\n      dup4\n      sub\n      dup2\n      dup7\n      dup1\n      extcodesize\n      iszero\n      dup1\n      iszero\n      tag_191\n      jumpi\n      0x00\n      dup1\n      revert\n    tag_191:\n      pop\n      gas\n      staticcall\n      iszero\n      dup1\n      iszero\n      tag_193\n      jumpi\n      returndatasize\n      0x00\n      dup1\n      returndatacopy\n      revert(0x00, returndatasize)\n    tag_193:\n      pop\n      pop\n      pop\n      pop\n      mload(0x40)\n      returndatasize\n      not(0x1f)\n      0x1f\n      dup3\n      add\n      and\n      dup3\n      add\n      dup1\n      0x40\n      mstore\n      pop\n      dup2\n      add\n      swap1\n      tag_194\n      swap2\n      swap1\n      tag_188\n      jump\t// in\n    tag_194:\n        /* \"Ghosper-NFT-Staking-MasterChef.sol\":35190:35233  amount = ghspToken.balanceOf(address(this)) */\n      swap1\n      pop\n        /* \"Ghosper-NFT-Staking-MasterChef.sol\":35126:35245  if (ghspToken.balanceOf(address(this)) < amount) {\r... */\n    tag_189:\n        /* \"Ghosper-NFT-Staking-MasterChef.sol\":35255:35297  ghspToken.safeTransfer(msg.sender, amount) */\n      tag_195\n        /* \"Ghosper-NFT-Staking-MasterChef.sol\":35278:35288  msg.sender */\n      caller\n        /* \"Ghosper-NFT-Staking-MasterChef.sol\":35290:35296  amount */\n      dup3\n        /* \"Ghosper-NFT-Staking-MasterChef.sol\":35255:35264  ghspToken */\n      immutable(\"0x294a915770f1abdd270970c5c5e0116f353ee0443c415452cffb70311418f069\")\n        /* \"Ghosper-NFT-Staking-MasterChef.sol\":35255:35277  ghspToken.safeTransfer */\n      0xffffffffffffffffffffffffffffffffffffffff\n      and\n      tag_196\n      swap1\n        /* \"Ghosper-NFT-Staking-MasterChef.sol\":35255:35297  ghspToken.safeTransfer(msg.sender, amount) */\n      swap3\n      swap2\n      swap1\n      0xffffffff\n      and\n      jump\t// in\n    tag_195:\n        /* \"Ghosper-NFT-Staking-MasterChef.sol\":35351:35362  _harvestFee */\n      dup2\n        /* \"Ghosper-NFT-Staking-MasterChef.sol\":35314:35323  ghspToken */\n      immutable(\"0x294a915770f1abdd270970c5c5e0116f353ee0443c415452cffb70311418f069\")\n        /* \"Ghosper-NFT-Staking-MasterChef.sol\":35314:35333  ghspToken.balanceOf */\n      0xffffffffffffffffffffffffffffffffffffffff\n      and\n      0x70a08231\n        /* \"Ghosper-NFT-Staking-MasterChef.sol\":35342:35346  this */\n      address\n        /* \"Ghosper-NFT-Staking-MasterChef.sol\":35314:35348  ghspToken.balanceOf(address(this)) */\n      mload(0x40)\n      dup3\n      0xffffffff\n      and\n      0xe0\n      shl\n      dup2\n      mstore\n      0x04\n      add\n      tag_197\n      swap2\n      swap1\n      tag_67\n      jump\t// in\n    tag_197:\n      0x20\n      mload(0x40)\n      dup1\n      dup4\n      sub\n      dup2\n      dup7\n      dup1\n      extcodesize\n      iszero\n      dup1\n      iszero\n      tag_198\n      jumpi\n      0x00\n      dup1\n      revert\n    tag_198:\n      pop\n      gas\n      staticcall\n      iszero\n      dup1\n      iszero\n      tag_200\n      jumpi\n      returndatasize\n      0x00\n      dup1\n      returndatacopy\n      revert(0x00, returndatasize)\n    tag_200:\n      pop\n      pop\n      pop\n      pop\n      mload(0x40)\n      returndatasize\n      not(0x1f)\n      0x1f\n      dup3\n      add\n      and\n      dup3\n      add\n      dup1\n      0x40\n      mstore\n      pop\n      dup2\n      add\n      swap1\n      tag_201\n      swap2\n      swap1\n      tag_188\n      jump\t// in\n    tag_201:\n        /* \"Ghosper-NFT-Staking-MasterChef.sol\":35314:35362  ghspToken.balanceOf(address(this)) < _harvestFee */\n      lt\n        /* \"Ghosper-NFT-Staking-MasterChef.sol\":35310:35439  if (ghspToken.balanceOf(address(this)) < _harvestFee) {\r... */\n      iszero\n      tag_202\n      jumpi\n        /* \"Ghosper-NFT-Staking-MasterChef.sol\":35393:35402  ghspToken */\n      immutable(\"0x294a915770f1abdd270970c5c5e0116f353ee0443c415452cffb70311418f069\")\n        /* \"Ghosper-NFT-Staking-MasterChef.sol\":35393:35412  ghspToken.balanceOf */\n      0xffffffffffffffffffffffffffffffffffffffff\n      and\n      0x70a08231\n        /* \"Ghosper-NFT-Staking-MasterChef.sol\":35421:35425  this */\n      address\n        /* \"Ghosper-NFT-Staking-MasterChef.sol\":35393:35427  ghspToken.balanceOf(address(this)) */\n      mload(0x40)\n      dup3\n      0xffffffff\n      and\n      0xe0\n      shl\n      dup2\n      mstore\n      0x04\n      add\n      tag_203\n      swap2\n      swap1\n      tag_67\n      jump\t// in\n    tag_203:\n      0x20\n      mload(0x40)\n      dup1\n      dup4\n      sub\n      dup2\n      dup7\n      dup1\n      extcodesize\n      iszero\n      dup1\n      iszero\n      tag_204\n      jumpi\n      0x00\n      dup1\n      revert\n    tag_204:\n      pop\n      gas\n      staticcall\n      iszero\n      dup1\n      iszero\n      tag_206\n      jumpi\n      returndatasize\n      0x00\n      dup1\n      returndatacopy\n      revert(0x00, returndatasize)\n    tag_206:\n      pop\n      pop\n      pop\n      pop\n      mload(0x40)\n      returndatasize\n      not(0x1f)\n      0x1f\n      dup3\n      add\n      and\n      dup3\n      add\n      dup1\n      0x40\n      mstore\n      pop\n      dup2\n      add\n      swap1\n      tag_207\n      swap2\n      swap1\n      tag_188\n      jump\t// in\n    tag_207:\n        /* \"Ghosper-NFT-Staking-MasterChef.sol\":35379:35427  _harvestFee = ghspToken.balanceOf(address(this)) */\n      swap2\n      pop\n        /* \"Ghosper-NFT-Staking-MasterChef.sol\":35310:35439  if (ghspToken.balanceOf(address(this)) < _harvestFee) {\r... */\n    tag_202:\n        /* \"Ghosper-NFT-Staking-MasterChef.sol\":35449:35495  ghspToken.safeTransfer(feeWallet, _harvestFee) */\n      tag_208\n        /* \"Ghosper-NFT-Staking-MasterChef.sol\":35472:35481  feeWallet */\n      0x04\n      0x00\n      swap1\n      sload\n      swap1\n      0x0100\n      exp\n      swap1\n      div\n      0xffffffffffffffffffffffffffffffffffffffff\n      and\n        /* \"Ghosper-NFT-Staking-MasterChef.sol\":35483:35494  _harvestFee */\n      dup4\n        /* \"Ghosper-NFT-Staking-MasterChef.sol\":35449:35458  ghspToken */\n      immutable(\"0x294a915770f1abdd270970c5c5e0116f353ee0443c415452cffb70311418f069\")\n        /* \"Ghosper-NFT-Staking-MasterChef.sol\":35449:35471  ghspToken.safeTransfer */\n      0xffffffffffffffffffffffffffffffffffffffff\n      and\n      tag_196\n      swap1\n        /* \"Ghosper-NFT-Staking-MasterChef.sol\":35449:35495  ghspToken.safeTransfer(feeWallet, _harvestFee) */\n      swap3\n      swap2\n      swap1\n      0xffffffff\n      and\n      jump\t// in\n    tag_208:\n        /* \"Ghosper-NFT-Staking-MasterChef.sol\":35506:35520  updateStatus() */\n      tag_209\n        /* \"Ghosper-NFT-Staking-MasterChef.sol\":35506:35518  updateStatus */\n      tag_135\n        /* \"Ghosper-NFT-Staking-MasterChef.sol\":35506:35520  updateStatus() */\n      jump\t// in\n    tag_209:\n        /* \"Ghosper-NFT-Staking-MasterChef.sol\":35552:35553  0 */\n      0x00\n        /* \"Ghosper-NFT-Staking-MasterChef.sol\":35531:35535  user */\n      dup4\n        /* \"Ghosper-NFT-Staking-MasterChef.sol\":35531:35549  user.pendingAmount */\n      0x02\n      add\n        /* \"Ghosper-NFT-Staking-MasterChef.sol\":35531:35553  user.pendingAmount = 0 */\n      dup2\n      swap1\n      sstore\n      pop\n        /* \"Ghosper-NFT-Staking-MasterChef.sol\":35582:35624  user.amount.mul(accGHSPPerShare).div(1e12) */\n      tag_210\n        /* \"Ghosper-NFT-Staking-MasterChef.sol\":35619:35623  1e12 */\n      0xe8d4a51000\n        /* \"Ghosper-NFT-Staking-MasterChef.sol\":35582:35614  user.amount.mul(accGHSPPerShare) */\n      tag_211\n        /* \"Ghosper-NFT-Staking-MasterChef.sol\":35598:35613  accGHSPPerShare */\n      sload(0x02)\n        /* \"Ghosper-NFT-Staking-MasterChef.sol\":35582:35586  user */\n      dup7\n        /* \"Ghosper-NFT-Staking-MasterChef.sol\":35582:35593  user.amount */\n      0x00\n      add\n      sload\n        /* \"Ghosper-NFT-Staking-MasterChef.sol\":35582:35597  user.amount.mul */\n      tag_140\n      swap1\n        /* \"Ghosper-NFT-Staking-MasterChef.sol\":35582:35614  user.amount.mul(accGHSPPerShare) */\n      swap2\n      swap1\n      0xffffffff\n      and\n      jump\t// in\n    tag_211:\n        /* \"Ghosper-NFT-Staking-MasterChef.sol\":35582:35618  user.amount.mul(accGHSPPerShare).div */\n      tag_141\n      swap1\n        /* \"Ghosper-NFT-Staking-MasterChef.sol\":35582:35624  user.amount.mul(accGHSPPerShare).div(1e12) */\n      swap2\n      swap1\n      0xffffffff\n      and\n      jump\t// in\n    tag_210:\n        /* \"Ghosper-NFT-Staking-MasterChef.sol\":35564:35568  user */\n      dup4\n        /* \"Ghosper-NFT-Staking-MasterChef.sol\":35564:35579  user.rewardDebt */\n      0x01\n      add\n        /* \"Ghosper-NFT-Staking-MasterChef.sol\":35564:35624  user.rewardDebt = user.amount.mul(accGHSPPerShare).div(1e12) */\n      dup2\n      swap1\n      sstore\n      pop\n        /* \"Ghosper-NFT-Staking-MasterChef.sol\":35640:35680  Harvest(msg.sender, amount, _harvestFee) */\n      0x71bab65ced2e5750775a0613be067df48ef06cf92a496ebf7663ae0660924954\n        /* \"Ghosper-NFT-Staking-MasterChef.sol\":35648:35658  msg.sender */\n      caller\n        /* \"Ghosper-NFT-Staking-MasterChef.sol\":35660:35666  amount */\n      dup3\n        /* \"Ghosper-NFT-Staking-MasterChef.sol\":35668:35679  _harvestFee */\n      dup5\n        /* \"Ghosper-NFT-Staking-MasterChef.sol\":35640:35680  Harvest(msg.sender, amount, _harvestFee) */\n      mload(0x40)\n      tag_212\n      swap4\n      swap3\n      swap2\n      swap1\n      tag_213\n      jump\t// in\n    tag_212:\n      mload(0x40)\n      dup1\n      swap2\n      sub\n      swap1\n      log1\n        /* \"Ghosper-NFT-Staking-MasterChef.sol\":34879:35688  {\r... */\n      pop\n      pop\n      pop\n      pop\n        /* \"Ghosper-NFT-Staking-MasterChef.sol\":34851:35688  function harvest() external {\r... */\n      jump\t// out\n        /* \"Ghosper-NFT-Staking-MasterChef.sol\":28498:28530  uint256 public totalStakedAmount */\n    tag_51:\n      sload(0x06)\n      dup2\n      jump\t// out\n        /* \"Ghosper-NFT-Staking-MasterChef.sol\":29950:30355  function getRewardBalance() external view returns (uint256) {\r... */\n    tag_54:\n        /* \"Ghosper-NFT-Staking-MasterChef.sol\":30001:30008  uint256 */\n      0x00\n        /* \"Ghosper-NFT-Staking-MasterChef.sol\":30040:30055  lastRewardBlock */\n      sload(0x01)\n        /* \"Ghosper-NFT-Staking-MasterChef.sol\":30025:30037  block.number */\n      number\n        /* \"Ghosper-NFT-Staking-MasterChef.sol\":30025:30055  block.number > lastRewardBlock */\n      gt\n        /* \"Ghosper-NFT-Staking-MasterChef.sol\":30025:30081  block.number > lastRewardBlock && totalStakedAmount != 0 */\n      dup1\n      iszero\n      tag_215\n      jumpi\n      pop\n        /* \"Ghosper-NFT-Staking-MasterChef.sol\":30080:30081  0 */\n      0x00\n        /* \"Ghosper-NFT-Staking-MasterChef.sol\":30059:30076  totalStakedAmount */\n      sload(0x06)\n        /* \"Ghosper-NFT-Staking-MasterChef.sol\":30059:30081  totalStakedAmount != 0 */\n      eq\n      iszero\n        /* \"Ghosper-NFT-Staking-MasterChef.sol\":30025:30081  block.number > lastRewardBlock && totalStakedAmount != 0 */\n    tag_215:\n        /* \"Ghosper-NFT-Staking-MasterChef.sol\":30021:30348  if (block.number > lastRewardBlock && totalStakedAmount != 0) {\r... */\n      iszero\n      tag_216\n      jumpi\n        /* \"Ghosper-NFT-Staking-MasterChef.sol\":30098:30116  uint256 multiplier */\n      0x00\n        /* \"Ghosper-NFT-Staking-MasterChef.sol\":30119:30163  getMultiplier(lastRewardBlock, block.number) */\n      tag_217\n        /* \"Ghosper-NFT-Staking-MasterChef.sol\":30133:30148  lastRewardBlock */\n      sload(0x01)\n        /* \"Ghosper-NFT-Staking-MasterChef.sol\":30150:30162  block.number */\n      number\n        /* \"Ghosper-NFT-Staking-MasterChef.sol\":30119:30132  getMultiplier */\n      tag_71\n        /* \"Ghosper-NFT-Staking-MasterChef.sol\":30119:30163  getMultiplier(lastRewardBlock, block.number) */\n      jump\t// in\n    tag_217:\n        /* \"Ghosper-NFT-Staking-MasterChef.sol\":30098:30163  uint256 multiplier = getMultiplier(lastRewardBlock, block.number) */\n      swap1\n      pop\n        /* \"Ghosper-NFT-Staking-MasterChef.sol\":30178:30192  uint256 reward */\n      0x00\n        /* \"Ghosper-NFT-Staking-MasterChef.sol\":30195:30225  multiplier.mul(rewardPerBlock) */\n      tag_218\n        /* \"Ghosper-NFT-Staking-MasterChef.sol\":30210:30224  rewardPerBlock */\n      sload(0x03)\n        /* \"Ghosper-NFT-Staking-MasterChef.sol\":30195:30205  multiplier */\n      dup4\n        /* \"Ghosper-NFT-Staking-MasterChef.sol\":30195:30209  multiplier.mul */\n      tag_140\n      swap1\n        /* \"Ghosper-NFT-Staking-MasterChef.sol\":30195:30225  multiplier.mul(rewardPerBlock) */\n      swap2\n      swap1\n      0xffffffff\n      and\n      jump\t// in\n    tag_218:\n        /* \"Ghosper-NFT-Staking-MasterChef.sol\":30178:30225  uint256 reward = multiplier.mul(rewardPerBlock) */\n      swap1\n      pop\n        /* \"Ghosper-NFT-Staking-MasterChef.sol\":30247:30273  _rewardBalance.sub(reward) */\n      tag_219\n        /* \"Ghosper-NFT-Staking-MasterChef.sol\":30266:30272  reward */\n      dup2\n        /* \"Ghosper-NFT-Staking-MasterChef.sol\":30247:30261  _rewardBalance */\n      sload(0x07)\n        /* \"Ghosper-NFT-Staking-MasterChef.sol\":30247:30265  _rewardBalance.sub */\n      tag_142\n      swap1\n        /* \"Ghosper-NFT-Staking-MasterChef.sol\":30247:30273  _rewardBalance.sub(reward) */\n      swap2\n      swap1\n      0xffffffff\n      and\n      jump\t// in\n    tag_219:\n        /* \"Ghosper-NFT-Staking-MasterChef.sol\":30240:30273  return _rewardBalance.sub(reward) */\n      swap3\n      pop\n      pop\n      pop\n      jump(tag_214)\n        /* \"Ghosper-NFT-Staking-MasterChef.sol\":30021:30348  if (block.number > lastRewardBlock && totalStakedAmount != 0) {\r... */\n    tag_216:\n        /* \"Ghosper-NFT-Staking-MasterChef.sol\":30322:30336  _rewardBalance */\n      sload(0x07)\n        /* \"Ghosper-NFT-Staking-MasterChef.sol\":30315:30336  return _rewardBalance */\n      swap1\n      pop\n        /* \"Ghosper-NFT-Staking-MasterChef.sol\":29950:30355  function getRewardBalance() external view returns (uint256) {\r... */\n    tag_214:\n      swap1\n      jump\t// out\n        /* \"Ghosper-NFT-Staking-MasterChef.sol\":5562:5665  function renounceOwnership() public virtual onlyOwner {\r... */\n    tag_57:\n        /* \"Ghosper-NFT-Staking-MasterChef.sol\":5142:5154  _msgSender() */\n      tag_222\n        /* \"Ghosper-NFT-Staking-MasterChef.sol\":5142:5152  _msgSender */\n      tag_166\n        /* \"Ghosper-NFT-Staking-MasterChef.sol\":5142:5154  _msgSender() */\n      jump\t// in\n    tag_222:\n        /* \"Ghosper-NFT-Staking-MasterChef.sol\":5131:5154  owner() == _msgSender() */\n      0xffffffffffffffffffffffffffffffffffffffff\n      and\n        /* \"Ghosper-NFT-Staking-MasterChef.sol\":5131:5138  owner() */\n      tag_223\n        /* \"Ghosper-NFT-Staking-MasterChef.sol\":5131:5136  owner */\n      tag_65\n        /* \"Ghosper-NFT-Staking-MasterChef.sol\":5131:5138  owner() */\n      jump\t// in\n    tag_223:\n        /* \"Ghosper-NFT-Staking-MasterChef.sol\":5131:5154  owner() == _msgSender() */\n      0xffffffffffffffffffffffffffffffffffffffff\n      and\n      eq\n        /* \"Ghosper-NFT-Staking-MasterChef.sol\":5123:5191  require(owner() == _msgSender(), \"Ownable: caller is not the owner\") */\n      tag_224\n      jumpi\n      mload(0x40)\n      0x08c379a000000000000000000000000000000000000000000000000000000000\n      dup2\n      mstore\n      0x04\n      add\n      tag_225\n      swap1\n      tag_170\n      jump\t// in\n    tag_225:\n      mload(0x40)\n      dup1\n      swap2\n      sub\n      swap1\n      revert\n    tag_224:\n        /* \"Ghosper-NFT-Staking-MasterChef.sol\":5627:5657  _transferOwnership(address(0)) */\n      tag_227\n        /* \"Ghosper-NFT-Staking-MasterChef.sol\":5654:5655  0 */\n      0x00\n        /* \"Ghosper-NFT-Staking-MasterChef.sol\":5627:5645  _transferOwnership */\n      tag_228\n        /* \"Ghosper-NFT-Staking-MasterChef.sol\":5627:5657  _transferOwnership(address(0)) */\n      jump\t// in\n    tag_227:\n        /* \"Ghosper-NFT-Staking-MasterChef.sol\":5562:5665  function renounceOwnership() public virtual onlyOwner {\r... */\n      jump\t// out\n        /* \"Ghosper-NFT-Staking-MasterChef.sol\":29594:29813  function setHarvestFee(uint256 _feePercent) external onlyOwner {\r... */\n    tag_60:\n        /* \"Ghosper-NFT-Staking-MasterChef.sol\":5142:5154  _msgSender() */\n      tag_230\n        /* \"Ghosper-NFT-Staking-MasterChef.sol\":5142:5152  _msgSender */\n      tag_166\n        /* \"Ghosper-NFT-Staking-MasterChef.sol\":5142:5154  _msgSender() */\n      jump\t// in\n    tag_230:\n        /* \"Ghosper-NFT-Staking-MasterChef.sol\":5131:5154  owner() == _msgSender() */\n      0xffffffffffffffffffffffffffffffffffffffff\n      and\n        /* \"Ghosper-NFT-Staking-MasterChef.sol\":5131:5138  owner() */\n      tag_231\n        /* \"Ghosper-NFT-Staking-MasterChef.sol\":5131:5136  owner */\n      tag_65\n        /* \"Ghosper-NFT-Staking-MasterChef.sol\":5131:5138  owner() */\n      jump\t// in\n    tag_231:\n        /* \"Ghosper-NFT-Staking-MasterChef.sol\":5131:5154  owner() == _msgSender() */\n      0xffffffffffffffffffffffffffffffffffffffff\n      and\n      eq\n        /* \"Ghosper-NFT-Staking-MasterChef.sol\":5123:5191  require(owner() == _msgSender(), \"Ownable: caller is not the owner\") */\n      tag_232\n      jumpi\n      mload(0x40)\n      0x08c379a000000000000000000000000000000000000000000000000000000000\n      dup2\n      mstore\n      0x04\n      add\n      tag_233\n      swap1\n      tag_170\n      jump\t// in\n    tag_233:\n      mload(0x40)\n      dup1\n      swap2\n      sub\n      swap1\n      revert\n    tag_232:\n        /* \"Ghosper-NFT-Staking-MasterChef.sol\":29691:29693  40 */\n      0x28\n        /* \"Ghosper-NFT-Staking-MasterChef.sol\":29676:29687  _feePercent */\n      dup2\n        /* \"Ghosper-NFT-Staking-MasterChef.sol\":29676:29693  _feePercent <= 40 */\n      gt\n      iszero\n        /* \"Ghosper-NFT-Staking-MasterChef.sol\":29668:29728  require(_feePercent <= 40, \"setHarvestFee: feePercent > 40\") */\n      tag_235\n      jumpi\n      mload(0x40)\n      0x08c379a000000000000000000000000000000000000000000000000000000000\n      dup2\n      mstore\n      0x04\n      add\n      tag_236\n      swap1\n      tag_237\n      jump\t// in\n    tag_236:\n      mload(0x40)\n      dup1\n      swap2\n      sub\n      swap1\n      revert\n    tag_235:\n        /* \"Ghosper-NFT-Staking-MasterChef.sol\":29752:29763  _feePercent */\n      dup1\n        /* \"Ghosper-NFT-Staking-MasterChef.sol\":29739:29749  harvestFee */\n      0x05\n        /* \"Ghosper-NFT-Staking-MasterChef.sol\":29739:29763  harvestFee = _feePercent */\n      dup2\n      swap1\n      sstore\n      pop\n        /* \"Ghosper-NFT-Staking-MasterChef.sol\":29779:29805  SetHarvestFee(_feePercent) */\n      0xf419800a2d8930c61d5d9cd782aa72c512cf6be2f79da6db0b8855870b7269ed\n        /* \"Ghosper-NFT-Staking-MasterChef.sol\":29793:29804  _feePercent */\n      dup2\n        /* \"Ghosper-NFT-Staking-MasterChef.sol\":29779:29805  SetHarvestFee(_feePercent) */\n      mload(0x40)\n      tag_238\n      swap2\n      swap1\n      tag_47\n      jump\t// in\n    tag_238:\n      mload(0x40)\n      dup1\n      swap2\n      sub\n      swap1\n      log1\n        /* \"Ghosper-NFT-Staking-MasterChef.sol\":29594:29813  function setHarvestFee(uint256 _feePercent) external onlyOwner {\r... */\n      pop\n      jump\t// out\n        /* \"Ghosper-NFT-Staking-MasterChef.sol\":28399:28428  uint256 public rewardPerBlock */\n    tag_62:\n      sload(0x03)\n      dup2\n      jump\t// out\n        /* \"Ghosper-NFT-Staking-MasterChef.sol\":4911:4998  function owner() public view virtual returns (address) {\r... */\n    tag_65:\n        /* \"Ghosper-NFT-Staking-MasterChef.sol\":4957:4964  address */\n      0x00\n        /* \"Ghosper-NFT-Staking-MasterChef.sol\":4984:4990  _owner */\n      dup1\n      0x00\n      swap1\n      sload\n      swap1\n      0x0100\n      exp\n      swap1\n      div\n      0xffffffffffffffffffffffffffffffffffffffff\n      and\n        /* \"Ghosper-NFT-Staking-MasterChef.sol\":4977:4990  return _owner */\n      swap1\n      pop\n        /* \"Ghosper-NFT-Staking-MasterChef.sol\":4911:4998  function owner() public view virtual returns (address) {\r... */\n      swap1\n      jump\t// out\n        /* \"Ghosper-NFT-Staking-MasterChef.sol\":29821:29942  function getMultiplier(uint256 _from, uint256 _to) public pure returns (uint256) {\r... */\n    tag_71:\n        /* \"Ghosper-NFT-Staking-MasterChef.sol\":29893:29900  uint256 */\n      0x00\n        /* \"Ghosper-NFT-Staking-MasterChef.sol\":29920:29934  _to.sub(_from) */\n      tag_241\n        /* \"Ghosper-NFT-Staking-MasterChef.sol\":29928:29933  _from */\n      dup4\n        /* \"Ghosper-NFT-Staking-MasterChef.sol\":29920:29923  _to */\n      dup4\n        /* \"Ghosper-NFT-Staking-MasterChef.sol\":29920:29927  _to.sub */\n      tag_142\n      swap1\n        /* \"Ghosper-NFT-Staking-MasterChef.sol\":29920:29934  _to.sub(_from) */\n      swap2\n      swap1\n      0xffffffff\n      and\n      jump\t// in\n    tag_241:\n        /* \"Ghosper-NFT-Staking-MasterChef.sol\":29913:29934  return _to.sub(_from) */\n      swap1\n      pop\n        /* \"Ghosper-NFT-Staking-MasterChef.sol\":29821:29942  function getMultiplier(uint256 _from, uint256 _to) public pure returns (uint256) {\r... */\n      swap3\n      swap2\n      pop\n      pop\n      jump\t// out\n        /* \"Ghosper-NFT-Staking-MasterChef.sol\":29445:29586  function setFeeWallet(address _feeWallet) external onlyOwner {\r... */\n    tag_75:\n        /* \"Ghosper-NFT-Staking-MasterChef.sol\":5142:5154  _msgSender() */\n      tag_243\n        /* \"Ghosper-NFT-Staking-MasterChef.sol\":5142:5152  _msgSender */\n      tag_166\n        /* \"Ghosper-NFT-Staking-MasterChef.sol\":5142:5154  _msgSender() */\n      jump\t// in\n    tag_243:\n        /* \"Ghosper-NFT-Staking-MasterChef.sol\":5131:5154  owner() == _msgSender() */\n      0xffffffffffffffffffffffffffffffffffffffff\n      and\n        /* \"Ghosper-NFT-Staking-MasterChef.sol\":5131:5138  owner() */\n      tag_244\n        /* \"Ghosper-NFT-Staking-MasterChef.sol\":5131:5136  owner */\n      tag_65\n        /* \"Ghosper-NFT-Staking-MasterChef.sol\":5131:5138  owner() */\n      jump\t// in\n    tag_244:\n        /* \"Ghosper-NFT-Staking-MasterChef.sol\":5131:5154  owner() == _msgSender() */\n      0xffffffffffffffffffffffffffffffffffffffff\n      and\n      eq\n        /* \"Ghosper-NFT-Staking-MasterChef.sol\":5123:5191  require(owner() == _msgSender(), \"Ownable: caller is not the owner\") */\n      tag_245\n      jumpi\n      mload(0x40)\n      0x08c379a000000000000000000000000000000000000000000000000000000000\n      dup2\n      mstore\n      0x04\n      add\n      tag_246\n      swap1\n      tag_170\n      jump\t// in\n    tag_246:\n      mload(0x40)\n      dup1\n      swap2\n      sub\n      swap1\n      revert\n    tag_245:\n        /* \"Ghosper-NFT-Staking-MasterChef.sol\":29529:29539  _feeWallet */\n      dup1\n        /* \"Ghosper-NFT-Staking-MasterChef.sol\":29517:29526  feeWallet */\n      0x04\n      0x00\n        /* \"Ghosper-NFT-Staking-MasterChef.sol\":29517:29539  feeWallet = _feeWallet */\n      0x0100\n      exp\n      dup2\n      sload\n      dup2\n      0xffffffffffffffffffffffffffffffffffffffff\n      mul\n      not\n      and\n      swap1\n      dup4\n      0xffffffffffffffffffffffffffffffffffffffff\n      and\n      mul\n      or\n      swap1\n      sstore\n      pop\n        /* \"Ghosper-NFT-Staking-MasterChef.sol\":29568:29577  feeWallet */\n      0x04\n      0x00\n      swap1\n      sload\n      swap1\n      0x0100\n      exp\n      swap1\n      div\n      0xffffffffffffffffffffffffffffffffffffffff\n      and\n        /* \"Ghosper-NFT-Staking-MasterChef.sol\":29555:29578  SetFeeWallet(feeWallet) */\n      0xffffffffffffffffffffffffffffffffffffffff\n      and\n      0x3d21e5a2b633291bd1ff5f9c654e402d063783c95759d2ea521b31fb30e4da41\n      mload(0x40)\n      mload(0x40)\n      dup1\n      swap2\n      sub\n      swap1\n      log2\n        /* \"Ghosper-NFT-Staking-MasterChef.sol\":29445:29586  function setFeeWallet(address _feeWallet) external onlyOwner {\r... */\n      pop\n      jump\t// out\n        /* \"Ghosper-NFT-Staking-MasterChef.sol\":28325:28355  uint256 public lastRewardBlock */\n    tag_77:\n      sload(0x01)\n      dup2\n      jump\t// out\n        /* \"Ghosper-NFT-Staking-MasterChef.sol\":28466:28491  uint256 public harvestFee */\n    tag_80:\n      sload(0x05)\n      dup2\n      jump\t// out\n        /* \"Ghosper-NFT-Staking-MasterChef.sol\":28245:28278  IERC721 public immutable nftToken */\n    tag_83:\n      immutable(\"0xd3d302950f380d1a27df9dd44167cfb162563e31196f778e9cbde584eeb2b78c\")\n      dup2\n      jump\t// out\n        /* \"Ghosper-NFT-Staking-MasterChef.sol\":32898:34282  function unstake(uint256[] calldata tokenIds) external {\r... */\n    tag_88:\n        /* \"Ghosper-NFT-Staking-MasterChef.sol\":32990:32991  0 */\n      0x00\n        /* \"Ghosper-NFT-Staking-MasterChef.sol\":32972:32980  tokenIds */\n      dup3\n      dup3\n        /* \"Ghosper-NFT-Staking-MasterChef.sol\":32972:32987  tokenIds.length */\n      swap1\n      pop\n        /* \"Ghosper-NFT-Staking-MasterChef.sol\":32972:32991  tokenIds.length > 0 */\n      gt\n        /* \"Ghosper-NFT-Staking-MasterChef.sol\":32964:33020  require(tokenIds.length > 0, \"NFT Staking: Empty Array\") */\n      tag_249\n      jumpi\n      mload(0x40)\n      0x08c379a000000000000000000000000000000000000000000000000000000000\n      dup2\n      mstore\n      0x04\n      add\n      tag_250\n      swap1\n      tag_98\n      jump\t// in\n    tag_250:\n      mload(0x40)\n      dup1\n      swap2\n      sub\n      swap1\n      revert\n    tag_249:\n        /* \"Ghosper-NFT-Staking-MasterChef.sol\":33035:33044  uint256 i */\n      0x00\n        /* \"Ghosper-NFT-Staking-MasterChef.sol\":33031:33435  for(uint256 i = 0; i < tokenIds.length; i ++){\r... */\n    tag_251:\n        /* \"Ghosper-NFT-Staking-MasterChef.sol\":33054:33062  tokenIds */\n      dup3\n      dup3\n        /* \"Ghosper-NFT-Staking-MasterChef.sol\":33054:33069  tokenIds.length */\n      swap1\n      pop\n        /* \"Ghosper-NFT-Staking-MasterChef.sol\":33050:33051  i */\n      dup2\n        /* \"Ghosper-NFT-Staking-MasterChef.sol\":33050:33069  i < tokenIds.length */\n      lt\n        /* \"Ghosper-NFT-Staking-MasterChef.sol\":33031:33435  for(uint256 i = 0; i < tokenIds.length; i ++){\r... */\n      iszero\n      tag_252\n      jumpi\n        /* \"Ghosper-NFT-Staking-MasterChef.sol\":33091:33106  uint256 tokenId */\n      0x00\n        /* \"Ghosper-NFT-Staking-MasterChef.sol\":33109:33117  tokenIds */\n      dup4\n      dup4\n        /* \"Ghosper-NFT-Staking-MasterChef.sol\":33118:33119  i */\n      dup4\n        /* \"Ghosper-NFT-Staking-MasterChef.sol\":33109:33120  tokenIds[i] */\n      dup2\n      dup2\n      lt\n      tag_254\n      jumpi\n      tag_255\n      tag_104\n      jump\t// in\n    tag_255:\n    tag_254:\n      swap1\n      pop\n      0x20\n      mul\n      add\n      calldataload\n        /* \"Ghosper-NFT-Staking-MasterChef.sol\":33091:33120  uint256 tokenId = tokenIds[i] */\n      swap1\n      pop\n        /* \"Ghosper-NFT-Staking-MasterChef.sol\":33165:33175  msg.sender */\n      caller\n        /* \"Ghosper-NFT-Staking-MasterChef.sol\":33143:33175  allStakes[tokenId] == msg.sender */\n      0xffffffffffffffffffffffffffffffffffffffff\n      and\n        /* \"Ghosper-NFT-Staking-MasterChef.sol\":33143:33152  allStakes */\n      0x08\n        /* \"Ghosper-NFT-Staking-MasterChef.sol\":33143:33161  allStakes[tokenId] */\n      0x00\n        /* \"Ghosper-NFT-Staking-MasterChef.sol\":33153:33160  tokenId */\n      dup4\n        /* \"Ghosper-NFT-Staking-MasterChef.sol\":33143:33161  allStakes[tokenId] */\n      dup2\n      mstore\n      0x20\n      add\n      swap1\n      dup2\n      mstore\n      0x20\n      add\n      0x00\n      keccak256\n      0x00\n      swap1\n      sload\n      swap1\n      0x0100\n      exp\n      swap1\n      div\n      0xffffffffffffffffffffffffffffffffffffffff\n      and\n        /* \"Ghosper-NFT-Staking-MasterChef.sol\":33143:33175  allStakes[tokenId] == msg.sender */\n      0xffffffffffffffffffffffffffffffffffffffff\n      and\n      eq\n        /* \"Ghosper-NFT-Staking-MasterChef.sol\":33135:33237  require(allStakes[tokenId] == msg.sender, \"Nft Unstaking: token not staked or incorrect token owner.\") */\n      tag_256\n      jumpi\n      mload(0x40)\n      0x08c379a000000000000000000000000000000000000000000000000000000000\n      dup2\n      mstore\n      0x04\n      add\n      tag_257\n      swap1\n      tag_258\n      jump\t// in\n    tag_257:\n      mload(0x40)\n      dup1\n      swap2\n      sub\n      swap1\n      revert\n    tag_256:\n        /* \"Ghosper-NFT-Staking-MasterChef.sol\":33256:33265  uint256 j */\n      0x00\n        /* \"Ghosper-NFT-Staking-MasterChef.sol\":33272:33273  1 */\n      0x01\n        /* \"Ghosper-NFT-Staking-MasterChef.sol\":33268:33269  i */\n      dup4\n        /* \"Ghosper-NFT-Staking-MasterChef.sol\":33268:33273  i + 1 */\n      tag_262\n      swap2\n      swap1\n      tag_123\n      jump\t// in\n    tag_262:\n        /* \"Ghosper-NFT-Staking-MasterChef.sol\":33256:33273  uint256 j = i + 1 */\n      swap1\n      pop\n        /* \"Ghosper-NFT-Staking-MasterChef.sol\":33252:33424  for(uint256 j = i + 1; j < tokenIds.length; j ++){\r... */\n    tag_259:\n        /* \"Ghosper-NFT-Staking-MasterChef.sol\":33279:33287  tokenIds */\n      dup5\n      dup5\n        /* \"Ghosper-NFT-Staking-MasterChef.sol\":33279:33294  tokenIds.length */\n      swap1\n      pop\n        /* \"Ghosper-NFT-Staking-MasterChef.sol\":33275:33276  j */\n      dup2\n        /* \"Ghosper-NFT-Staking-MasterChef.sol\":33275:33294  j < tokenIds.length */\n      lt\n        /* \"Ghosper-NFT-Staking-MasterChef.sol\":33252:33424  for(uint256 j = i + 1; j < tokenIds.length; j ++){\r... */\n      iszero\n      tag_260\n      jumpi\n        /* \"Ghosper-NFT-Staking-MasterChef.sol\":33343:33351  tokenIds */\n      dup5\n      dup5\n        /* \"Ghosper-NFT-Staking-MasterChef.sol\":33352:33353  j */\n      dup3\n        /* \"Ghosper-NFT-Staking-MasterChef.sol\":33343:33354  tokenIds[j] */\n      dup2\n      dup2\n      lt\n      tag_263\n      jumpi\n      tag_264\n      tag_104\n      jump\t// in\n    tag_264:\n    tag_263:\n      swap1\n      pop\n      0x20\n      mul\n      add\n      calldataload\n        /* \"Ghosper-NFT-Staking-MasterChef.sol\":33328:33336  tokenIds */\n      dup6\n      dup6\n        /* \"Ghosper-NFT-Staking-MasterChef.sol\":33337:33338  i */\n      dup6\n        /* \"Ghosper-NFT-Staking-MasterChef.sol\":33328:33339  tokenIds[i] */\n      dup2\n      dup2\n      lt\n      tag_265\n      jumpi\n      tag_266\n      tag_104\n      jump\t// in\n    tag_266:\n    tag_265:\n      swap1\n      pop\n      0x20\n      mul\n      add\n      calldataload\n        /* \"Ghosper-NFT-Staking-MasterChef.sol\":33328:33354  tokenIds[i] != tokenIds[j] */\n      eq\n      iszero\n        /* \"Ghosper-NFT-Staking-MasterChef.sol\":33320:33408  require(tokenIds[i] != tokenIds[j], \"NFT Staking: duplicate token ids in input params.\") */\n      tag_267\n      jumpi\n      mload(0x40)\n      0x08c379a000000000000000000000000000000000000000000000000000000000\n      dup2\n      mstore\n      0x04\n      add\n      tag_268\n      swap1\n      tag_130\n      jump\t// in\n    tag_268:\n      mload(0x40)\n      dup1\n      swap2\n      sub\n      swap1\n      revert\n    tag_267:\n        /* \"Ghosper-NFT-Staking-MasterChef.sol\":33296:33300  j ++ */\n      dup1\n      dup1\n      tag_269\n      swap1\n      tag_132\n      jump\t// in\n    tag_269:\n      swap2\n      pop\n      pop\n        /* \"Ghosper-NFT-Staking-MasterChef.sol\":33252:33424  for(uint256 j = i + 1; j < tokenIds.length; j ++){\r... */\n      jump(tag_259)\n    tag_260:\n      pop\n        /* \"Ghosper-NFT-Staking-MasterChef.sol\":33076:33435  {\r... */\n      pop\n        /* \"Ghosper-NFT-Staking-MasterChef.sol\":33071:33075  i ++ */\n      dup1\n      dup1\n      tag_270\n      swap1\n      tag_132\n      jump\t// in\n    tag_270:\n      swap2\n      pop\n      pop\n        /* \"Ghosper-NFT-Staking-MasterChef.sol\":33031:33435  for(uint256 i = 0; i < tokenIds.length; i ++){\r... */\n      jump(tag_251)\n    tag_252:\n      pop\n        /* \"Ghosper-NFT-Staking-MasterChef.sol\":33447:33461  updateStatus() */\n      tag_271\n        /* \"Ghosper-NFT-Staking-MasterChef.sol\":33447:33459  updateStatus */\n      tag_135\n        /* \"Ghosper-NFT-Staking-MasterChef.sol\":33447:33461  updateStatus() */\n      jump\t// in\n    tag_271:\n        /* \"Ghosper-NFT-Staking-MasterChef.sol\":33472:33493  UserInfo storage user */\n      0x00\n        /* \"Ghosper-NFT-Staking-MasterChef.sol\":33496:33504  userInfo */\n      0x09\n        /* \"Ghosper-NFT-Staking-MasterChef.sol\":33496:33516  userInfo[msg.sender] */\n      0x00\n        /* \"Ghosper-NFT-Staking-MasterChef.sol\":33505:33515  msg.sender */\n      caller\n        /* \"Ghosper-NFT-Staking-MasterChef.sol\":33496:33516  userInfo[msg.sender] */\n      0xffffffffffffffffffffffffffffffffffffffff\n      and\n      0xffffffffffffffffffffffffffffffffffffffff\n      and\n      dup2\n      mstore\n      0x20\n      add\n      swap1\n      dup2\n      mstore\n      0x20\n      add\n      0x00\n      keccak256\n        /* \"Ghosper-NFT-Staking-MasterChef.sol\":33472:33516  UserInfo storage user = userInfo[msg.sender] */\n      swap1\n      pop\n        /* \"Ghosper-NFT-Staking-MasterChef.sol\":33527:33542  uint256 pending */\n      0x00\n        /* \"Ghosper-NFT-Staking-MasterChef.sol\":33545:33608  user.amount.mul(accGHSPPerShare).div(1e12).sub(user.rewardDebt) */\n      tag_272\n        /* \"Ghosper-NFT-Staking-MasterChef.sol\":33592:33596  user */\n      dup3\n        /* \"Ghosper-NFT-Staking-MasterChef.sol\":33592:33607  user.rewardDebt */\n      0x01\n      add\n      sload\n        /* \"Ghosper-NFT-Staking-MasterChef.sol\":33545:33587  user.amount.mul(accGHSPPerShare).div(1e12) */\n      tag_273\n        /* \"Ghosper-NFT-Staking-MasterChef.sol\":33582:33586  1e12 */\n      0xe8d4a51000\n        /* \"Ghosper-NFT-Staking-MasterChef.sol\":33545:33577  user.amount.mul(accGHSPPerShare) */\n      tag_274\n        /* \"Ghosper-NFT-Staking-MasterChef.sol\":33561:33576  accGHSPPerShare */\n      sload(0x02)\n        /* \"Ghosper-NFT-Staking-MasterChef.sol\":33545:33549  user */\n      dup8\n        /* \"Ghosper-NFT-Staking-MasterChef.sol\":33545:33556  user.amount */\n      0x00\n      add\n      sload\n        /* \"Ghosper-NFT-Staking-MasterChef.sol\":33545:33560  user.amount.mul */\n      tag_140\n      swap1\n        /* \"Ghosper-NFT-Staking-MasterChef.sol\":33545:33577  user.amount.mul(accGHSPPerShare) */\n      swap2\n      swap1\n      0xffffffff\n      and\n      jump\t// in\n    tag_274:\n        /* \"Ghosper-NFT-Staking-MasterChef.sol\":33545:33581  user.amount.mul(accGHSPPerShare).div */\n      tag_141\n      swap1\n        /* \"Ghosper-NFT-Staking-MasterChef.sol\":33545:33587  user.amount.mul(accGHSPPerShare).div(1e12) */\n      swap2\n      swap1\n      0xffffffff\n      and\n      jump\t// in\n    tag_273:\n        /* \"Ghosper-NFT-Staking-MasterChef.sol\":33545:33591  user.amount.mul(accGHSPPerShare).div(1e12).sub */\n      tag_142\n      swap1\n        /* \"Ghosper-NFT-Staking-MasterChef.sol\":33545:33608  user.amount.mul(accGHSPPerShare).div(1e12).sub(user.rewardDebt) */\n      swap2\n      swap1\n      0xffffffff\n      and\n      jump\t// in\n    tag_272:\n        /* \"Ghosper-NFT-Staking-MasterChef.sol\":33527:33608  uint256 pending = user.amount.mul(accGHSPPerShare).div(1e12).sub(user.rewardDebt) */\n      swap1\n      pop\n        /* \"Ghosper-NFT-Staking-MasterChef.sol\":33660:33667  pending */\n      dup1\n        /* \"Ghosper-NFT-Staking-MasterChef.sol\":33623:33632  ghspToken */\n      immutable(\"0x294a915770f1abdd270970c5c5e0116f353ee0443c415452cffb70311418f069\")\n        /* \"Ghosper-NFT-Staking-MasterChef.sol\":33623:33642  ghspToken.balanceOf */\n      0xffffffffffffffffffffffffffffffffffffffff\n      and\n      0x70a08231\n        /* \"Ghosper-NFT-Staking-MasterChef.sol\":33651:33655  this */\n      address\n        /* \"Ghosper-NFT-Staking-MasterChef.sol\":33623:33657  ghspToken.balanceOf(address(this)) */\n      mload(0x40)\n      dup3\n      0xffffffff\n      and\n      0xe0\n      shl\n      dup2\n      mstore\n      0x04\n      add\n      tag_275\n      swap2\n      swap1\n      tag_67\n      jump\t// in\n    tag_275:\n      0x20\n      mload(0x40)\n      dup1\n      dup4\n      sub\n      dup2\n      dup7\n      dup1\n      extcodesize\n      iszero\n      dup1\n      iszero\n      tag_276\n      jumpi\n      0x00\n      dup1\n      revert\n    tag_276:\n      pop\n      gas\n      staticcall\n      iszero\n      dup1\n      iszero\n      tag_278\n      jumpi\n      returndatasize\n      0x00\n      dup1\n      returndatacopy\n      revert(0x00, returndatasize)\n    tag_278:\n      pop\n      pop\n      pop\n      pop\n      mload(0x40)\n      returndatasize\n      not(0x1f)\n      0x1f\n      dup3\n      add\n      and\n      dup3\n      add\n      dup1\n      0x40\n      mstore\n      pop\n      dup2\n      add\n      swap1\n      tag_279\n      swap2\n      swap1\n      tag_188\n      jump\t// in\n    tag_279:\n        /* \"Ghosper-NFT-Staking-MasterChef.sol\":33623:33667  ghspToken.balanceOf(address(this)) < pending */\n      lt\n        /* \"Ghosper-NFT-Staking-MasterChef.sol\":33619:33740  if (ghspToken.balanceOf(address(this)) < pending) {\r... */\n      iszero\n      tag_280\n      jumpi\n        /* \"Ghosper-NFT-Staking-MasterChef.sol\":33694:33703  ghspToken */\n      immutable(\"0x294a915770f1abdd270970c5c5e0116f353ee0443c415452cffb70311418f069\")\n        /* \"Ghosper-NFT-Staking-MasterChef.sol\":33694:33713  ghspToken.balanceOf */\n      0xffffffffffffffffffffffffffffffffffffffff\n      and\n      0x70a08231\n        /* \"Ghosper-NFT-Staking-MasterChef.sol\":33722:33726  this */\n      address\n        /* \"Ghosper-NFT-Staking-MasterChef.sol\":33694:33728  ghspToken.balanceOf(address(this)) */\n      mload(0x40)\n      dup3\n      0xffffffff\n      and\n      0xe0\n      shl\n      dup2\n      mstore\n      0x04\n      add\n      tag_281\n      swap2\n      swap1\n      tag_67\n      jump\t// in\n    tag_281:\n      0x20\n      mload(0x40)\n      dup1\n      dup4\n      sub\n      dup2\n      dup7\n      dup1\n      extcodesize\n      iszero\n      dup1\n      iszero\n      tag_282\n      jumpi\n      0x00\n      dup1\n      revert\n    tag_282:\n      pop\n      gas\n      staticcall\n      iszero\n      dup1\n      iszero\n      tag_284\n      jumpi\n      returndatasize\n      0x00\n      dup1\n      returndatacopy\n      revert(0x00, returndatasize)\n    tag_284:\n      pop\n      pop\n      pop\n      pop\n      mload(0x40)\n      returndatasize\n      not(0x1f)\n      0x1f\n      dup3\n      add\n      and\n      dup3\n      add\n      dup1\n      0x40\n      mstore\n      pop\n      dup2\n      add\n      swap1\n      tag_285\n      swap2\n      swap1\n      tag_188\n      jump\t// in\n    tag_285:\n        /* \"Ghosper-NFT-Staking-MasterChef.sol\":33684:33728  pending = ghspToken.balanceOf(address(this)) */\n      swap1\n      pop\n        /* \"Ghosper-NFT-Staking-MasterChef.sol\":33619:33740  if (ghspToken.balanceOf(address(this)) < pending) {\r... */\n    tag_280:\n        /* \"Ghosper-NFT-Staking-MasterChef.sol\":33771:33802  user.pendingAmount.add(pending) */\n      tag_286\n        /* \"Ghosper-NFT-Staking-MasterChef.sol\":33794:33801  pending */\n      dup2\n        /* \"Ghosper-NFT-Staking-MasterChef.sol\":33771:33775  user */\n      dup4\n        /* \"Ghosper-NFT-Staking-MasterChef.sol\":33771:33789  user.pendingAmount */\n      0x02\n      add\n      sload\n        /* \"Ghosper-NFT-Staking-MasterChef.sol\":33771:33793  user.pendingAmount.add */\n      tag_144\n      swap1\n        /* \"Ghosper-NFT-Staking-MasterChef.sol\":33771:33802  user.pendingAmount.add(pending) */\n      swap2\n      swap1\n      0xffffffff\n      and\n      jump\t// in\n    tag_286:\n        /* \"Ghosper-NFT-Staking-MasterChef.sol\":33750:33754  user */\n      dup3\n        /* \"Ghosper-NFT-Staking-MasterChef.sol\":33750:33768  user.pendingAmount */\n      0x02\n      add\n        /* \"Ghosper-NFT-Staking-MasterChef.sol\":33750:33802  user.pendingAmount = user.pendingAmount.add(pending) */\n      dup2\n      swap1\n      sstore\n      pop\n        /* \"Ghosper-NFT-Staking-MasterChef.sol\":33813:33832  uint256 tokenAmount */\n      0x00\n        /* \"Ghosper-NFT-Staking-MasterChef.sol\":33835:33843  tokenIds */\n      dup5\n      dup5\n        /* \"Ghosper-NFT-Staking-MasterChef.sol\":33835:33850  tokenIds.length */\n      swap1\n      pop\n        /* \"Ghosper-NFT-Staking-MasterChef.sol\":33813:33850  uint256 tokenAmount = tokenIds.length */\n      swap1\n      pop\n        /* \"Ghosper-NFT-Staking-MasterChef.sol\":33881:33915  totalStakedAmount.sub(tokenAmount) */\n      tag_287\n        /* \"Ghosper-NFT-Staking-MasterChef.sol\":33903:33914  tokenAmount */\n      dup2\n        /* \"Ghosper-NFT-Staking-MasterChef.sol\":33881:33898  totalStakedAmount */\n      sload(0x06)\n        /* \"Ghosper-NFT-Staking-MasterChef.sol\":33881:33902  totalStakedAmount.sub */\n      tag_142\n      swap1\n        /* \"Ghosper-NFT-Staking-MasterChef.sol\":33881:33915  totalStakedAmount.sub(tokenAmount) */\n      swap2\n      swap1\n      0xffffffff\n      and\n      jump\t// in\n    tag_287:\n        /* \"Ghosper-NFT-Staking-MasterChef.sol\":33861:33878  totalStakedAmount */\n      0x06\n        /* \"Ghosper-NFT-Staking-MasterChef.sol\":33861:33915  totalStakedAmount = totalStakedAmount.sub(tokenAmount) */\n      dup2\n      swap1\n      sstore\n      pop\n        /* \"Ghosper-NFT-Staking-MasterChef.sol\":33940:33968  user.amount.sub(tokenAmount) */\n      tag_288\n        /* \"Ghosper-NFT-Staking-MasterChef.sol\":33956:33967  tokenAmount */\n      dup2\n        /* \"Ghosper-NFT-Staking-MasterChef.sol\":33940:33944  user */\n      dup5\n        /* \"Ghosper-NFT-Staking-MasterChef.sol\":33940:33951  user.amount */\n      0x00\n      add\n      sload\n        /* \"Ghosper-NFT-Staking-MasterChef.sol\":33940:33955  user.amount.sub */\n      tag_142\n      swap1\n        /* \"Ghosper-NFT-Staking-MasterChef.sol\":33940:33968  user.amount.sub(tokenAmount) */\n      swap2\n      swap1\n      0xffffffff\n      and\n      jump\t// in\n    tag_288:\n        /* \"Ghosper-NFT-Staking-MasterChef.sol\":33926:33930  user */\n      dup4\n        /* \"Ghosper-NFT-Staking-MasterChef.sol\":33926:33937  user.amount */\n      0x00\n      add\n        /* \"Ghosper-NFT-Staking-MasterChef.sol\":33926:33968  user.amount = user.amount.sub(tokenAmount) */\n      dup2\n      swap1\n      sstore\n      pop\n        /* \"Ghosper-NFT-Staking-MasterChef.sol\":33997:34039  user.amount.mul(accGHSPPerShare).div(1e12) */\n      tag_289\n        /* \"Ghosper-NFT-Staking-MasterChef.sol\":34034:34038  1e12 */\n      0xe8d4a51000\n        /* \"Ghosper-NFT-Staking-MasterChef.sol\":33997:34029  user.amount.mul(accGHSPPerShare) */\n      tag_290\n        /* \"Ghosper-NFT-Staking-MasterChef.sol\":34013:34028  accGHSPPerShare */\n      sload(0x02)\n        /* \"Ghosper-NFT-Staking-MasterChef.sol\":33997:34001  user */\n      dup7\n        /* \"Ghosper-NFT-Staking-MasterChef.sol\":33997:34008  user.amount */\n      0x00\n      add\n      sload\n        /* \"Ghosper-NFT-Staking-MasterChef.sol\":33997:34012  user.amount.mul */\n      tag_140\n      swap1\n        /* \"Ghosper-NFT-Staking-MasterChef.sol\":33997:34029  user.amount.mul(accGHSPPerShare) */\n      swap2\n      swap1\n      0xffffffff\n      and\n      jump\t// in\n    tag_290:\n        /* \"Ghosper-NFT-Staking-MasterChef.sol\":33997:34033  user.amount.mul(accGHSPPerShare).div */\n      tag_141\n      swap1\n        /* \"Ghosper-NFT-Staking-MasterChef.sol\":33997:34039  user.amount.mul(accGHSPPerShare).div(1e12) */\n      swap2\n      swap1\n      0xffffffff\n      and\n      jump\t// in\n    tag_289:\n        /* \"Ghosper-NFT-Staking-MasterChef.sol\":33979:33983  user */\n      dup4\n        /* \"Ghosper-NFT-Staking-MasterChef.sol\":33979:33994  user.rewardDebt */\n      0x01\n      add\n        /* \"Ghosper-NFT-Staking-MasterChef.sol\":33979:34039  user.rewardDebt = user.amount.mul(accGHSPPerShare).div(1e12) */\n      dup2\n      swap1\n      sstore\n      pop\n        /* \"Ghosper-NFT-Staking-MasterChef.sol\":34054:34063  uint256 i */\n      0x00\n        /* \"Ghosper-NFT-Staking-MasterChef.sol\":34050:34229  for(uint256 i = 0; i < tokenAmount; i ++){\r... */\n    tag_291:\n        /* \"Ghosper-NFT-Staking-MasterChef.sol\":34073:34084  tokenAmount */\n      dup2\n        /* \"Ghosper-NFT-Staking-MasterChef.sol\":34069:34070  i */\n      dup2\n        /* \"Ghosper-NFT-Staking-MasterChef.sol\":34069:34084  i < tokenAmount */\n      lt\n        /* \"Ghosper-NFT-Staking-MasterChef.sol\":34050:34229  for(uint256 i = 0; i < tokenAmount; i ++){\r... */\n      iszero\n      tag_292\n      jumpi\n        /* \"Ghosper-NFT-Staking-MasterChef.sol\":34139:34140  0 */\n      0x00\n        /* \"Ghosper-NFT-Staking-MasterChef.sol\":34106:34115  allStakes */\n      0x08\n        /* \"Ghosper-NFT-Staking-MasterChef.sol\":34106:34128  allStakes[tokenIds[i]] */\n      0x00\n        /* \"Ghosper-NFT-Staking-MasterChef.sol\":34116:34124  tokenIds */\n      dup9\n      dup9\n        /* \"Ghosper-NFT-Staking-MasterChef.sol\":34125:34126  i */\n      dup6\n        /* \"Ghosper-NFT-Staking-MasterChef.sol\":34116:34127  tokenIds[i] */\n      dup2\n      dup2\n      lt\n      tag_294\n      jumpi\n      tag_295\n      tag_104\n      jump\t// in\n    tag_295:\n    tag_294:\n      swap1\n      pop\n      0x20\n      mul\n      add\n      calldataload\n        /* \"Ghosper-NFT-Staking-MasterChef.sol\":34106:34128  allStakes[tokenIds[i]] */\n      dup2\n      mstore\n      0x20\n      add\n      swap1\n      dup2\n      mstore\n      0x20\n      add\n      0x00\n      keccak256\n      0x00\n        /* \"Ghosper-NFT-Staking-MasterChef.sol\":34106:34141  allStakes[tokenIds[i]] = address(0) */\n      0x0100\n      exp\n      dup2\n      sload\n      dup2\n      0xffffffffffffffffffffffffffffffffffffffff\n      mul\n      not\n      and\n      swap1\n      dup4\n      0xffffffffffffffffffffffffffffffffffffffff\n      and\n      mul\n      or\n      swap1\n      sstore\n      pop\n        /* \"Ghosper-NFT-Staking-MasterChef.sol\":34156:34164  nftToken */\n      immutable(\"0xd3d302950f380d1a27df9dd44167cfb162563e31196f778e9cbde584eeb2b78c\")\n        /* \"Ghosper-NFT-Staking-MasterChef.sol\":34156:34177  nftToken.transferFrom */\n      0xffffffffffffffffffffffffffffffffffffffff\n      and\n      0x23b872dd\n        /* \"Ghosper-NFT-Staking-MasterChef.sol\":34186:34190  this */\n      address\n        /* \"Ghosper-NFT-Staking-MasterChef.sol\":34193:34203  msg.sender */\n      caller\n        /* \"Ghosper-NFT-Staking-MasterChef.sol\":34205:34213  tokenIds */\n      dup10\n      dup10\n        /* \"Ghosper-NFT-Staking-MasterChef.sol\":34214:34215  i */\n      dup7\n        /* \"Ghosper-NFT-Staking-MasterChef.sol\":34205:34216  tokenIds[i] */\n      dup2\n      dup2\n      lt\n      tag_296\n      jumpi\n      tag_297\n      tag_104\n      jump\t// in\n    tag_297:\n    tag_296:\n      swap1\n      pop\n      0x20\n      mul\n      add\n      calldataload\n        /* \"Ghosper-NFT-Staking-MasterChef.sol\":34156:34217  nftToken.transferFrom(address(this), msg.sender, tokenIds[i]) */\n      mload(0x40)\n      dup5\n      0xffffffff\n      and\n      0xe0\n      shl\n      dup2\n      mstore\n      0x04\n      add\n      tag_298\n      swap4\n      swap3\n      swap2\n      swap1\n      tag_157\n      jump\t// in\n    tag_298:\n      0x00\n      mload(0x40)\n      dup1\n      dup4\n      sub\n      dup2\n      0x00\n      dup8\n      dup1\n      extcodesize\n      iszero\n      dup1\n      iszero\n      tag_299\n      jumpi\n      0x00\n      dup1\n      revert\n    tag_299:\n      pop\n      gas\n      call\n      iszero\n      dup1\n      iszero\n      tag_301\n      jumpi\n      returndatasize\n      0x00\n      dup1\n      returndatacopy\n      revert(0x00, returndatasize)\n    tag_301:\n      pop\n      pop\n      pop\n      pop\n        /* \"Ghosper-NFT-Staking-MasterChef.sol\":34086:34090  i ++ */\n      dup1\n      dup1\n      tag_302\n      swap1\n      tag_132\n      jump\t// in\n    tag_302:\n      swap2\n      pop\n      pop\n        /* \"Ghosper-NFT-Staking-MasterChef.sol\":34050:34229  for(uint256 i = 0; i < tokenAmount; i ++){\r... */\n      jump(tag_291)\n    tag_292:\n      pop\n        /* \"Ghosper-NFT-Staking-MasterChef.sol\":34244:34274  UnStaked(msg.sender, tokenIds) */\n      0x80cc10bf7e52583ae0a17d8dd6ab5005573b17a08091a091af1a81205a675c91\n        /* \"Ghosper-NFT-Staking-MasterChef.sol\":34253:34263  msg.sender */\n      caller\n        /* \"Ghosper-NFT-Staking-MasterChef.sol\":34265:34273  tokenIds */\n      dup7\n      dup7\n        /* \"Ghosper-NFT-Staking-MasterChef.sol\":34244:34274  UnStaked(msg.sender, tokenIds) */\n      mload(0x40)\n      tag_303\n      swap4\n      swap3\n      swap2\n      swap1\n      tag_163\n      jump\t// in\n    tag_303:\n      mload(0x40)\n      dup1\n      swap2\n      sub\n      swap1\n      log1\n        /* \"Ghosper-NFT-Staking-MasterChef.sol\":32953:34282  {\r... */\n      pop\n      pop\n      pop\n        /* \"Ghosper-NFT-Staking-MasterChef.sol\":32898:34282  function unstake(uint256[] calldata tokenIds) external {\r... */\n      pop\n      pop\n      jump\t// out\n        /* \"Ghosper-NFT-Staking-MasterChef.sol\":28435:28459  address public feeWallet */\n    tag_90:\n      0x04\n      0x00\n      swap1\n      sload\n      swap1\n      0x0100\n      exp\n      swap1\n      div\n      0xffffffffffffffffffffffffffffffffffffffff\n      and\n      dup2\n      jump\t// out\n        /* \"Ghosper-NFT-Staking-MasterChef.sol\":5820:6021  function transferOwnership(address newOwner) public virtual onlyOwner {\r... */\n    tag_94:\n        /* \"Ghosper-NFT-Staking-MasterChef.sol\":5142:5154  _msgSender() */\n      tag_305\n        /* \"Ghosper-NFT-Staking-MasterChef.sol\":5142:5152  _msgSender */\n      tag_166\n        /* \"Ghosper-NFT-Staking-MasterChef.sol\":5142:5154  _msgSender() */\n      jump\t// in\n    tag_305:\n        /* \"Ghosper-NFT-Staking-MasterChef.sol\":5131:5154  owner() == _msgSender() */\n      0xffffffffffffffffffffffffffffffffffffffff\n      and\n        /* \"Ghosper-NFT-Staking-MasterChef.sol\":5131:5138  owner() */\n      tag_306\n        /* \"Ghosper-NFT-Staking-MasterChef.sol\":5131:5136  owner */\n      tag_65\n        /* \"Ghosper-NFT-Staking-MasterChef.sol\":5131:5138  owner() */\n      jump\t// in\n    tag_306:\n        /* \"Ghosper-NFT-Staking-MasterChef.sol\":5131:5154  owner() == _msgSender() */\n      0xffffffffffffffffffffffffffffffffffffffff\n      and\n      eq\n        /* \"Ghosper-NFT-Staking-MasterChef.sol\":5123:5191  require(owner() == _msgSender(), \"Ownable: caller is not the owner\") */\n      tag_307\n      jumpi\n      mload(0x40)\n      0x08c379a000000000000000000000000000000000000000000000000000000000\n      dup2\n      mstore\n      0x04\n      add\n      tag_308\n      swap1\n      tag_170\n      jump\t// in\n    tag_308:\n      mload(0x40)\n      dup1\n      swap2\n      sub\n      swap1\n      revert\n    tag_307:\n        /* \"Ghosper-NFT-Staking-MasterChef.sol\":5929:5930  0 */\n      0x00\n        /* \"Ghosper-NFT-Staking-MasterChef.sol\":5909:5931  newOwner != address(0) */\n      0xffffffffffffffffffffffffffffffffffffffff\n      and\n        /* \"Ghosper-NFT-Staking-MasterChef.sol\":5909:5917  newOwner */\n      dup2\n        /* \"Ghosper-NFT-Staking-MasterChef.sol\":5909:5931  newOwner != address(0) */\n      0xffffffffffffffffffffffffffffffffffffffff\n      and\n      eq\n      iszero\n        /* \"Ghosper-NFT-Staking-MasterChef.sol\":5901:5974  require(newOwner != address(0), \"Ownable: new owner is the zero address\") */\n      tag_310\n      jumpi\n      mload(0x40)\n      0x08c379a000000000000000000000000000000000000000000000000000000000\n      dup2\n      mstore\n      0x04\n      add\n      tag_311\n      swap1\n      tag_312\n      jump\t// in\n    tag_311:\n      mload(0x40)\n      dup1\n      swap2\n      sub\n      swap1\n      revert\n    tag_310:\n        /* \"Ghosper-NFT-Staking-MasterChef.sol\":5985:6013  _transferOwnership(newOwner) */\n      tag_313\n        /* \"Ghosper-NFT-Staking-MasterChef.sol\":6004:6012  newOwner */\n      dup2\n        /* \"Ghosper-NFT-Staking-MasterChef.sol\":5985:6003  _transferOwnership */\n      tag_228\n        /* \"Ghosper-NFT-Staking-MasterChef.sol\":5985:6013  _transferOwnership(newOwner) */\n      jump\t// in\n    tag_313:\n        /* \"Ghosper-NFT-Staking-MasterChef.sol\":5820:6021  function transferOwnership(address newOwner) public virtual onlyOwner {\r... */\n      pop\n      jump\t// out\n        /* \"Ghosper-NFT-Staking-MasterChef.sol\":30616:31494  function updateStatus() private {\r... */\n    tag_135:\n        /* \"Ghosper-NFT-Staking-MasterChef.sol\":30679:30694  lastRewardBlock */\n      sload(0x01)\n        /* \"Ghosper-NFT-Staking-MasterChef.sol\":30663:30675  block.number */\n      number\n        /* \"Ghosper-NFT-Staking-MasterChef.sol\":30663:30694  block.number <= lastRewardBlock */\n      gt\n        /* \"Ghosper-NFT-Staking-MasterChef.sol\":30659:30729  if (block.number <= lastRewardBlock) {\r... */\n      tag_315\n      jumpi\n        /* \"Ghosper-NFT-Staking-MasterChef.sol\":30711:30718  return; */\n      jump(tag_314)\n        /* \"Ghosper-NFT-Staking-MasterChef.sol\":30659:30729  if (block.number <= lastRewardBlock) {\r... */\n    tag_315:\n        /* \"Ghosper-NFT-Staking-MasterChef.sol\":30764:30765  0 */\n      0x00\n        /* \"Ghosper-NFT-Staking-MasterChef.sol\":30743:30760  totalStakedAmount */\n      sload(0x06)\n        /* \"Ghosper-NFT-Staking-MasterChef.sol\":30743:30765  totalStakedAmount == 0 */\n      eq\n        /* \"Ghosper-NFT-Staking-MasterChef.sol\":30739:30845  if (totalStakedAmount == 0) {\r... */\n      iszero\n      tag_316\n      jumpi\n        /* \"Ghosper-NFT-Staking-MasterChef.sol\":30800:30812  block.number */\n      number\n        /* \"Ghosper-NFT-Staking-MasterChef.sol\":30782:30797  lastRewardBlock */\n      0x01\n        /* \"Ghosper-NFT-Staking-MasterChef.sol\":30782:30812  lastRewardBlock = block.number */\n      dup2\n      swap1\n      sstore\n      pop\n        /* \"Ghosper-NFT-Staking-MasterChef.sol\":30827:30834  return; */\n      jump(tag_314)\n        /* \"Ghosper-NFT-Staking-MasterChef.sol\":30739:30845  if (totalStakedAmount == 0) {\r... */\n    tag_316:\n        /* \"Ghosper-NFT-Staking-MasterChef.sol\":30855:30873  uint256 multiplier */\n      0x00\n        /* \"Ghosper-NFT-Staking-MasterChef.sol\":30876:30920  getMultiplier(lastRewardBlock, block.number) */\n      tag_317\n        /* \"Ghosper-NFT-Staking-MasterChef.sol\":30890:30905  lastRewardBlock */\n      sload(0x01)\n        /* \"Ghosper-NFT-Staking-MasterChef.sol\":30907:30919  block.number */\n      number\n        /* \"Ghosper-NFT-Staking-MasterChef.sol\":30876:30889  getMultiplier */\n      tag_71\n        /* \"Ghosper-NFT-Staking-MasterChef.sol\":30876:30920  getMultiplier(lastRewardBlock, block.number) */\n      jump\t// in\n    tag_317:\n        /* \"Ghosper-NFT-Staking-MasterChef.sol\":30855:30920  uint256 multiplier = getMultiplier(lastRewardBlock, block.number) */\n      swap1\n      pop\n        /* \"Ghosper-NFT-Staking-MasterChef.sol\":30931:30945  uint256 reward */\n      0x00\n        /* \"Ghosper-NFT-Staking-MasterChef.sol\":30948:30978  multiplier.mul(rewardPerBlock) */\n      tag_318\n        /* \"Ghosper-NFT-Staking-MasterChef.sol\":30963:30977  rewardPerBlock */\n      sload(0x03)\n        /* \"Ghosper-NFT-Staking-MasterChef.sol\":30948:30958  multiplier */\n      dup4\n        /* \"Ghosper-NFT-Staking-MasterChef.sol\":30948:30962  multiplier.mul */\n      tag_140\n      swap1\n        /* \"Ghosper-NFT-Staking-MasterChef.sol\":30948:30978  multiplier.mul(rewardPerBlock) */\n      swap2\n      swap1\n      0xffffffff\n      and\n      jump\t// in\n    tag_318:\n        /* \"Ghosper-NFT-Staking-MasterChef.sol\":30931:30978  uint256 reward = multiplier.mul(rewardPerBlock) */\n      swap1\n      pop\n        /* \"Ghosper-NFT-Staking-MasterChef.sol\":31011:31012  0 */\n      0x00\n        /* \"Ghosper-NFT-Staking-MasterChef.sol\":30993:31007  _rewardBalance */\n      sload(0x07)\n        /* \"Ghosper-NFT-Staking-MasterChef.sol\":30993:31012  _rewardBalance == 0 */\n      eq\n        /* \"Ghosper-NFT-Staking-MasterChef.sol\":30989:31092  if (_rewardBalance == 0) {\r... */\n      iszero\n      tag_319\n      jumpi\n        /* \"Ghosper-NFT-Staking-MasterChef.sol\":31047:31059  block.number */\n      number\n        /* \"Ghosper-NFT-Staking-MasterChef.sol\":31029:31044  lastRewardBlock */\n      0x01\n        /* \"Ghosper-NFT-Staking-MasterChef.sol\":31029:31059  lastRewardBlock = block.number */\n      dup2\n      swap1\n      sstore\n      pop\n        /* \"Ghosper-NFT-Staking-MasterChef.sol\":31074:31081  return; */\n      pop\n      pop\n      jump(tag_314)\n        /* \"Ghosper-NFT-Staking-MasterChef.sol\":30989:31092  if (_rewardBalance == 0) {\r... */\n    tag_319:\n        /* \"Ghosper-NFT-Staking-MasterChef.sol\":31123:31129  reward */\n      dup1\n        /* \"Ghosper-NFT-Staking-MasterChef.sol\":31106:31120  _rewardBalance */\n      sload(0x07)\n        /* \"Ghosper-NFT-Staking-MasterChef.sol\":31106:31129  _rewardBalance < reward */\n      lt\n        /* \"Ghosper-NFT-Staking-MasterChef.sol\":31102:31446  if (_rewardBalance < reward) {\r... */\n      iszero\n      tag_320\n      jumpi\n        /* \"Ghosper-NFT-Staking-MasterChef.sol\":31164:31232  accGHSPPerShare.add(_rewardBalance.mul(1e12).div(totalStakedAmount)) */\n      tag_321\n        /* \"Ghosper-NFT-Staking-MasterChef.sol\":31184:31231  _rewardBalance.mul(1e12).div(totalStakedAmount) */\n      tag_322\n        /* \"Ghosper-NFT-Staking-MasterChef.sol\":31213:31230  totalStakedAmount */\n      sload(0x06)\n        /* \"Ghosper-NFT-Staking-MasterChef.sol\":31184:31208  _rewardBalance.mul(1e12) */\n      tag_323\n        /* \"Ghosper-NFT-Staking-MasterChef.sol\":31203:31207  1e12 */\n      0xe8d4a51000\n        /* \"Ghosper-NFT-Staking-MasterChef.sol\":31184:31198  _rewardBalance */\n      sload(0x07)\n        /* \"Ghosper-NFT-Staking-MasterChef.sol\":31184:31202  _rewardBalance.mul */\n      tag_140\n      swap1\n        /* \"Ghosper-NFT-Staking-MasterChef.sol\":31184:31208  _rewardBalance.mul(1e12) */\n      swap2\n      swap1\n      0xffffffff\n      and\n      jump\t// in\n    tag_323:\n        /* \"Ghosper-NFT-Staking-MasterChef.sol\":31184:31212  _rewardBalance.mul(1e12).div */\n      tag_141\n      swap1\n        /* \"Ghosper-NFT-Staking-MasterChef.sol\":31184:31231  _rewardBalance.mul(1e12).div(totalStakedAmount) */\n      swap2\n      swap1\n      0xffffffff\n      and\n      jump\t// in\n    tag_322:\n        /* \"Ghosper-NFT-Staking-MasterChef.sol\":31164:31179  accGHSPPerShare */\n      sload(0x02)\n        /* \"Ghosper-NFT-Staking-MasterChef.sol\":31164:31183  accGHSPPerShare.add */\n      tag_144\n      swap1\n        /* \"Ghosper-NFT-Staking-MasterChef.sol\":31164:31232  accGHSPPerShare.add(_rewardBalance.mul(1e12).div(totalStakedAmount)) */\n      swap2\n      swap1\n      0xffffffff\n      and\n      jump\t// in\n    tag_321:\n        /* \"Ghosper-NFT-Staking-MasterChef.sol\":31146:31161  accGHSPPerShare */\n      0x02\n        /* \"Ghosper-NFT-Staking-MasterChef.sol\":31146:31232  accGHSPPerShare = accGHSPPerShare.add(_rewardBalance.mul(1e12).div(totalStakedAmount)) */\n      dup2\n      swap1\n      sstore\n      pop\n        /* \"Ghosper-NFT-Staking-MasterChef.sol\":31264:31265  0 */\n      0x00\n        /* \"Ghosper-NFT-Staking-MasterChef.sol\":31247:31261  _rewardBalance */\n      0x07\n        /* \"Ghosper-NFT-Staking-MasterChef.sol\":31247:31265  _rewardBalance = 0 */\n      dup2\n      swap1\n      sstore\n      pop\n        /* \"Ghosper-NFT-Staking-MasterChef.sol\":31102:31446  if (_rewardBalance < reward) {\r... */\n      jump(tag_324)\n    tag_320:\n        /* \"Ghosper-NFT-Staking-MasterChef.sol\":31315:31341  _rewardBalance.sub(reward) */\n      tag_325\n        /* \"Ghosper-NFT-Staking-MasterChef.sol\":31334:31340  reward */\n      dup2\n        /* \"Ghosper-NFT-Staking-MasterChef.sol\":31315:31329  _rewardBalance */\n      sload(0x07)\n        /* \"Ghosper-NFT-Staking-MasterChef.sol\":31315:31333  _rewardBalance.sub */\n      tag_142\n      swap1\n        /* \"Ghosper-NFT-Staking-MasterChef.sol\":31315:31341  _rewardBalance.sub(reward) */\n      swap2\n      swap1\n      0xffffffff\n      and\n      jump\t// in\n    tag_325:\n        /* \"Ghosper-NFT-Staking-MasterChef.sol\":31298:31312  _rewardBalance */\n      0x07\n        /* \"Ghosper-NFT-Staking-MasterChef.sol\":31298:31341  _rewardBalance = _rewardBalance.sub(reward) */\n      dup2\n      swap1\n      sstore\n      pop\n        /* \"Ghosper-NFT-Staking-MasterChef.sol\":31374:31434  accGHSPPerShare.add(reward.mul(1e12).div(totalStakedAmount)) */\n      tag_326\n        /* \"Ghosper-NFT-Staking-MasterChef.sol\":31394:31433  reward.mul(1e12).div(totalStakedAmount) */\n      tag_327\n        /* \"Ghosper-NFT-Staking-MasterChef.sol\":31415:31432  totalStakedAmount */\n      sload(0x06)\n        /* \"Ghosper-NFT-Staking-MasterChef.sol\":31394:31410  reward.mul(1e12) */\n      tag_328\n        /* \"Ghosper-NFT-Staking-MasterChef.sol\":31405:31409  1e12 */\n      0xe8d4a51000\n        /* \"Ghosper-NFT-Staking-MasterChef.sol\":31394:31400  reward */\n      dup6\n        /* \"Ghosper-NFT-Staking-MasterChef.sol\":31394:31404  reward.mul */\n      tag_140\n      swap1\n        /* \"Ghosper-NFT-Staking-MasterChef.sol\":31394:31410  reward.mul(1e12) */\n      swap2\n      swap1\n      0xffffffff\n      and\n      jump\t// in\n    tag_328:\n        /* \"Ghosper-NFT-Staking-MasterChef.sol\":31394:31414  reward.mul(1e12).div */\n      tag_141\n      swap1\n        /* \"Ghosper-NFT-Staking-MasterChef.sol\":31394:31433  reward.mul(1e12).div(totalStakedAmount) */\n      swap2\n      swap1\n      0xffffffff\n      and\n      jump\t// in\n    tag_327:\n        /* \"Ghosper-NFT-Staking-MasterChef.sol\":31374:31389  accGHSPPerShare */\n      sload(0x02)\n        /* \"Ghosper-NFT-Staking-MasterChef.sol\":31374:31393  accGHSPPerShare.add */\n      tag_144\n      swap1\n        /* \"Ghosper-NFT-Staking-MasterChef.sol\":31374:31434  accGHSPPerShare.add(reward.mul(1e12).div(totalStakedAmount)) */\n      swap2\n      swap1\n      0xffffffff\n      and\n      jump\t// in\n    tag_326:\n        /* \"Ghosper-NFT-Staking-MasterChef.sol\":31356:31371  accGHSPPerShare */\n      0x02\n        /* \"Ghosper-NFT-Staking-MasterChef.sol\":31356:31434  accGHSPPerShare = accGHSPPerShare.add(reward.mul(1e12).div(totalStakedAmount)) */\n      dup2\n      swap1\n      sstore\n      pop\n        /* \"Ghosper-NFT-Staking-MasterChef.sol\":31102:31446  if (_rewardBalance < reward) {\r... */\n    tag_324:\n        /* \"Ghosper-NFT-Staking-MasterChef.sol\":31474:31486  block.number */\n      number\n        /* \"Ghosper-NFT-Staking-MasterChef.sol\":31456:31471  lastRewardBlock */\n      0x01\n        /* \"Ghosper-NFT-Staking-MasterChef.sol\":31456:31486  lastRewardBlock = block.number */\n      dup2\n      swap1\n      sstore\n      pop\n        /* \"Ghosper-NFT-Staking-MasterChef.sol\":30648:31494  {\r... */\n      pop\n      pop\n        /* \"Ghosper-NFT-Staking-MasterChef.sol\":30616:31494  function updateStatus() private {\r... */\n    tag_314:\n      jump\t// out\n        /* \"Ghosper-NFT-Staking-MasterChef.sol\":9698:9796  function mul(uint256 a, uint256 b) internal pure returns (uint256) {\r... */\n    tag_140:\n        /* \"Ghosper-NFT-Staking-MasterChef.sol\":9756:9763  uint256 */\n      0x00\n        /* \"Ghosper-NFT-Staking-MasterChef.sol\":9787:9788  b */\n      dup2\n        /* \"Ghosper-NFT-Staking-MasterChef.sol\":9783:9784  a */\n      dup4\n        /* \"Ghosper-NFT-Staking-MasterChef.sol\":9783:9788  a * b */\n      tag_330\n      swap2\n      swap1\n      tag_331\n      jump\t// in\n    tag_330:\n        /* \"Ghosper-NFT-Staking-MasterChef.sol\":9776:9788  return a * b */\n      swap1\n      pop\n        /* \"Ghosper-NFT-Staking-MasterChef.sol\":9698:9796  function mul(uint256 a, uint256 b) internal pure returns (uint256) {\r... */\n      swap3\n      swap2\n      pop\n      pop\n      jump\t// out\n        /* \"Ghosper-NFT-Staking-MasterChef.sol\":10097:10195  function div(uint256 a, uint256 b) internal pure returns (uint256) {\r... */\n    tag_141:\n        /* \"Ghosper-NFT-Staking-MasterChef.sol\":10155:10162  uint256 */\n      0x00\n        /* \"Ghosper-NFT-Staking-MasterChef.sol\":10186:10187  b */\n      dup2\n        /* \"Ghosper-NFT-Staking-MasterChef.sol\":10182:10183  a */\n      dup4\n        /* \"Ghosper-NFT-Staking-MasterChef.sol\":10182:10187  a / b */\n      tag_333\n      swap2\n      swap1\n      tag_334\n      jump\t// in\n    tag_333:\n        /* \"Ghosper-NFT-Staking-MasterChef.sol\":10175:10187  return a / b */\n      swap1\n      pop\n        /* \"Ghosper-NFT-Staking-MasterChef.sol\":10097:10195  function div(uint256 a, uint256 b) internal pure returns (uint256) {\r... */\n      swap3\n      swap2\n      pop\n      pop\n      jump\t// out\n        /* \"Ghosper-NFT-Staking-MasterChef.sol\":9341:9439  function sub(uint256 a, uint256 b) internal pure returns (uint256) {\r... */\n    tag_142:\n        /* \"Ghosper-NFT-Staking-MasterChef.sol\":9399:9406  uint256 */\n      0x00\n        /* \"Ghosper-NFT-Staking-MasterChef.sol\":9430:9431  b */\n      dup2\n        /* \"Ghosper-NFT-Staking-MasterChef.sol\":9426:9427  a */\n      dup4\n        /* \"Ghosper-NFT-Staking-MasterChef.sol\":9426:9431  a - b */\n      tag_336\n      swap2\n      swap1\n      tag_182\n      jump\t// in\n    tag_336:\n        /* \"Ghosper-NFT-Staking-MasterChef.sol\":9419:9431  return a - b */\n      swap1\n      pop\n        /* \"Ghosper-NFT-Staking-MasterChef.sol\":9341:9439  function sub(uint256 a, uint256 b) internal pure returns (uint256) {\r... */\n      swap3\n      swap2\n      pop\n      pop\n      jump\t// out\n        /* \"Ghosper-NFT-Staking-MasterChef.sol\":8960:9058  function add(uint256 a, uint256 b) internal pure returns (uint256) {\r... */\n    tag_144:\n        /* \"Ghosper-NFT-Staking-MasterChef.sol\":9018:9025  uint256 */\n      0x00\n        /* \"Ghosper-NFT-Staking-MasterChef.sol\":9049:9050  b */\n      dup2\n        /* \"Ghosper-NFT-Staking-MasterChef.sol\":9045:9046  a */\n      dup4\n        /* \"Ghosper-NFT-Staking-MasterChef.sol\":9045:9050  a + b */\n      tag_338\n      swap2\n      swap1\n      tag_123\n      jump\t// in\n    tag_338:\n        /* \"Ghosper-NFT-Staking-MasterChef.sol\":9038:9050  return a + b */\n      swap1\n      pop\n        /* \"Ghosper-NFT-Staking-MasterChef.sol\":8960:9058  function add(uint256 a, uint256 b) internal pure returns (uint256) {\r... */\n      swap3\n      swap2\n      pop\n      pop\n      jump\t// out\n        /* \"Ghosper-NFT-Staking-MasterChef.sol\":3751:3849  function _msgSender() internal view virtual returns (address) {\r... */\n    tag_166:\n        /* \"Ghosper-NFT-Staking-MasterChef.sol\":3804:3811  address */\n      0x00\n        /* \"Ghosper-NFT-Staking-MasterChef.sol\":3831:3841  msg.sender */\n      caller\n        /* \"Ghosper-NFT-Staking-MasterChef.sol\":3824:3841  return msg.sender */\n      swap1\n      pop\n        /* \"Ghosper-NFT-Staking-MasterChef.sol\":3751:3849  function _msgSender() internal view virtual returns (address) {\r... */\n      swap1\n      jump\t// out\n        /* \"Ghosper-NFT-Staking-MasterChef.sol\":13429:13634  function safeTransferFrom(IBEP20 token, address from, address to, uint256 value) internal {\r... */\n    tag_173:\n        /* \"Ghosper-NFT-Staking-MasterChef.sol\":13530:13626  _callOptionalReturn(token, abi.encodeWithSelector(token.transferFrom.selector, from, to, value)) */\n      tag_341\n        /* \"Ghosper-NFT-Staking-MasterChef.sol\":13550:13555  token */\n      dup5\n        /* \"Ghosper-NFT-Staking-MasterChef.sol\":13580:13607  token.transferFrom.selector */\n      shl(0xe0, 0x23b872dd)\n        /* \"Ghosper-NFT-Staking-MasterChef.sol\":13609:13613  from */\n      dup6\n        /* \"Ghosper-NFT-Staking-MasterChef.sol\":13615:13617  to */\n      dup6\n        /* \"Ghosper-NFT-Staking-MasterChef.sol\":13619:13624  value */\n      dup6\n        /* \"Ghosper-NFT-Staking-MasterChef.sol\":13557:13625  abi.encodeWithSelector(token.transferFrom.selector, from, to, value) */\n      add(0x24, mload(0x40))\n      tag_342\n      swap4\n      swap3\n      swap2\n      swap1\n      tag_157\n      jump\t// in\n    tag_342:\n      mload(0x40)\n      0x20\n      dup2\n      dup4\n      sub\n      sub\n      dup2\n      mstore\n      swap1\n      0x40\n      mstore\n      swap1\n      not(0xffffffffffffffffffffffffffffffffffffffffffffffffffffffff)\n      and\n      0x20\n      dup3\n      add\n      dup1\n      mload\n      0xffffffffffffffffffffffffffffffffffffffffffffffffffffffff\n      dup4\n      dup2\n      dup4\n      and\n      or\n      dup4\n      mstore\n      pop\n      pop\n      pop\n      pop\n        /* \"Ghosper-NFT-Staking-MasterChef.sol\":13530:13549  _callOptionalReturn */\n      tag_343\n        /* \"Ghosper-NFT-Staking-MasterChef.sol\":13530:13626  _callOptionalReturn(token, abi.encodeWithSelector(token.transferFrom.selector, from, to, value)) */\n      jump\t// in\n    tag_341:\n        /* \"Ghosper-NFT-Staking-MasterChef.sol\":13429:13634  function safeTransferFrom(IBEP20 token, address from, address to, uint256 value) internal {\r... */\n      pop\n      pop\n      pop\n      pop\n      jump\t// out\n        /* \"Ghosper-NFT-Staking-MasterChef.sol\":34290:34843  function _getPending(address _user) private view returns (uint256) {\r... */\n    tag_178:\n        /* \"Ghosper-NFT-Staking-MasterChef.sol\":34348:34355  uint256 */\n      0x00\n        /* \"Ghosper-NFT-Staking-MasterChef.sol\":34368:34389  UserInfo storage user */\n      dup1\n        /* \"Ghosper-NFT-Staking-MasterChef.sol\":34392:34400  userInfo */\n      0x09\n        /* \"Ghosper-NFT-Staking-MasterChef.sol\":34392:34407  userInfo[_user] */\n      0x00\n        /* \"Ghosper-NFT-Staking-MasterChef.sol\":34401:34406  _user */\n      dup5\n        /* \"Ghosper-NFT-Staking-MasterChef.sol\":34392:34407  userInfo[_user] */\n      0xffffffffffffffffffffffffffffffffffffffff\n      and\n      0xffffffffffffffffffffffffffffffffffffffff\n      and\n      dup2\n      mstore\n      0x20\n      add\n      swap1\n      dup2\n      mstore\n      0x20\n      add\n      0x00\n      keccak256\n        /* \"Ghosper-NFT-Staking-MasterChef.sol\":34368:34407  UserInfo storage user = userInfo[_user] */\n      swap1\n      pop\n        /* \"Ghosper-NFT-Staking-MasterChef.sol\":34418:34429  uint256 acc */\n      0x00\n        /* \"Ghosper-NFT-Staking-MasterChef.sol\":34432:34447  accGHSPPerShare */\n      sload(0x02)\n        /* \"Ghosper-NFT-Staking-MasterChef.sol\":34418:34447  uint256 acc = accGHSPPerShare */\n      swap1\n      pop\n        /* \"Ghosper-NFT-Staking-MasterChef.sol\":34477:34492  lastRewardBlock */\n      sload(0x01)\n        /* \"Ghosper-NFT-Staking-MasterChef.sol\":34462:34474  block.number */\n      number\n        /* \"Ghosper-NFT-Staking-MasterChef.sol\":34462:34492  block.number > lastRewardBlock */\n      gt\n        /* \"Ghosper-NFT-Staking-MasterChef.sol\":34462:34518  block.number > lastRewardBlock && totalStakedAmount != 0 */\n      dup1\n      iszero\n      tag_345\n      jumpi\n      pop\n        /* \"Ghosper-NFT-Staking-MasterChef.sol\":34517:34518  0 */\n      0x00\n        /* \"Ghosper-NFT-Staking-MasterChef.sol\":34496:34513  totalStakedAmount */\n      sload(0x06)\n        /* \"Ghosper-NFT-Staking-MasterChef.sol\":34496:34518  totalStakedAmount != 0 */\n      eq\n      iszero\n        /* \"Ghosper-NFT-Staking-MasterChef.sol\":34462:34518  block.number > lastRewardBlock && totalStakedAmount != 0 */\n    tag_345:\n        /* \"Ghosper-NFT-Staking-MasterChef.sol\":34458:34743  if (block.number > lastRewardBlock && totalStakedAmount != 0) {\r... */\n      iszero\n      tag_346\n      jumpi\n        /* \"Ghosper-NFT-Staking-MasterChef.sol\":34535:34553  uint256 multiplier */\n      0x00\n        /* \"Ghosper-NFT-Staking-MasterChef.sol\":34556:34600  getMultiplier(lastRewardBlock, block.number) */\n      tag_347\n        /* \"Ghosper-NFT-Staking-MasterChef.sol\":34570:34585  lastRewardBlock */\n      sload(0x01)\n        /* \"Ghosper-NFT-Staking-MasterChef.sol\":34587:34599  block.number */\n      number\n        /* \"Ghosper-NFT-Staking-MasterChef.sol\":34556:34569  getMultiplier */\n      tag_71\n        /* \"Ghosper-NFT-Staking-MasterChef.sol\":34556:34600  getMultiplier(lastRewardBlock, block.number) */\n      jump\t// in\n    tag_347:\n        /* \"Ghosper-NFT-Staking-MasterChef.sol\":34535:34600  uint256 multiplier = getMultiplier(lastRewardBlock, block.number) */\n      swap1\n      pop\n        /* \"Ghosper-NFT-Staking-MasterChef.sol\":34615:34629  uint256 reward */\n      0x00\n        /* \"Ghosper-NFT-Staking-MasterChef.sol\":34632:34662  multiplier.mul(rewardPerBlock) */\n      tag_348\n        /* \"Ghosper-NFT-Staking-MasterChef.sol\":34647:34661  rewardPerBlock */\n      sload(0x03)\n        /* \"Ghosper-NFT-Staking-MasterChef.sol\":34632:34642  multiplier */\n      dup4\n        /* \"Ghosper-NFT-Staking-MasterChef.sol\":34632:34646  multiplier.mul */\n      tag_140\n      swap1\n        /* \"Ghosper-NFT-Staking-MasterChef.sol\":34632:34662  multiplier.mul(rewardPerBlock) */\n      swap2\n      swap1\n      0xffffffff\n      and\n      jump\t// in\n    tag_348:\n        /* \"Ghosper-NFT-Staking-MasterChef.sol\":34615:34662  uint256 reward = multiplier.mul(rewardPerBlock) */\n      swap1\n      pop\n        /* \"Ghosper-NFT-Staking-MasterChef.sol\":34683:34731  acc.add(reward.mul(1e12).div(totalStakedAmount)) */\n      tag_349\n        /* \"Ghosper-NFT-Staking-MasterChef.sol\":34691:34730  reward.mul(1e12).div(totalStakedAmount) */\n      tag_350\n        /* \"Ghosper-NFT-Staking-MasterChef.sol\":34712:34729  totalStakedAmount */\n      sload(0x06)\n        /* \"Ghosper-NFT-Staking-MasterChef.sol\":34691:34707  reward.mul(1e12) */\n      tag_351\n        /* \"Ghosper-NFT-Staking-MasterChef.sol\":34702:34706  1e12 */\n      0xe8d4a51000\n        /* \"Ghosper-NFT-Staking-MasterChef.sol\":34691:34697  reward */\n      dup6\n        /* \"Ghosper-NFT-Staking-MasterChef.sol\":34691:34701  reward.mul */\n      tag_140\n      swap1\n        /* \"Ghosper-NFT-Staking-MasterChef.sol\":34691:34707  reward.mul(1e12) */\n      swap2\n      swap1\n      0xffffffff\n      and\n      jump\t// in\n    tag_351:\n        /* \"Ghosper-NFT-Staking-MasterChef.sol\":34691:34711  reward.mul(1e12).div */\n      tag_141\n      swap1\n        /* \"Ghosper-NFT-Staking-MasterChef.sol\":34691:34730  reward.mul(1e12).div(totalStakedAmount) */\n      swap2\n      swap1\n      0xffffffff\n      and\n      jump\t// in\n    tag_350:\n        /* \"Ghosper-NFT-Staking-MasterChef.sol\":34683:34686  acc */\n      dup5\n        /* \"Ghosper-NFT-Staking-MasterChef.sol\":34683:34690  acc.add */\n      tag_144\n      swap1\n        /* \"Ghosper-NFT-Staking-MasterChef.sol\":34683:34731  acc.add(reward.mul(1e12).div(totalStakedAmount)) */\n      swap2\n      swap1\n      0xffffffff\n      and\n      jump\t// in\n    tag_349:\n        /* \"Ghosper-NFT-Staking-MasterChef.sol\":34677:34731  acc = acc.add(reward.mul(1e12).div(totalStakedAmount)) */\n      swap3\n      pop\n        /* \"Ghosper-NFT-Staking-MasterChef.sol\":34520:34743  {\r... */\n      pop\n      pop\n        /* \"Ghosper-NFT-Staking-MasterChef.sol\":34458:34743  if (block.number > lastRewardBlock && totalStakedAmount != 0) {\r... */\n    tag_346:\n        /* \"Ghosper-NFT-Staking-MasterChef.sol\":34760:34835  user.amount.mul(acc).div(1e12).sub(user.rewardDebt).add(user.pendingAmount) */\n      tag_352\n        /* \"Ghosper-NFT-Staking-MasterChef.sol\":34816:34820  user */\n      dup3\n        /* \"Ghosper-NFT-Staking-MasterChef.sol\":34816:34834  user.pendingAmount */\n      0x02\n      add\n      sload\n        /* \"Ghosper-NFT-Staking-MasterChef.sol\":34760:34811  user.amount.mul(acc).div(1e12).sub(user.rewardDebt) */\n      tag_353\n        /* \"Ghosper-NFT-Staking-MasterChef.sol\":34795:34799  user */\n      dup5\n        /* \"Ghosper-NFT-Staking-MasterChef.sol\":34795:34810  user.rewardDebt */\n      0x01\n      add\n      sload\n        /* \"Ghosper-NFT-Staking-MasterChef.sol\":34760:34790  user.amount.mul(acc).div(1e12) */\n      tag_354\n        /* \"Ghosper-NFT-Staking-MasterChef.sol\":34785:34789  1e12 */\n      0xe8d4a51000\n        /* \"Ghosper-NFT-Staking-MasterChef.sol\":34760:34780  user.amount.mul(acc) */\n      tag_355\n        /* \"Ghosper-NFT-Staking-MasterChef.sol\":34776:34779  acc */\n      dup8\n        /* \"Ghosper-NFT-Staking-MasterChef.sol\":34760:34764  user */\n      dup10\n        /* \"Ghosper-NFT-Staking-MasterChef.sol\":34760:34771  user.amount */\n      0x00\n      add\n      sload\n        /* \"Ghosper-NFT-Staking-MasterChef.sol\":34760:34775  user.amount.mul */\n      tag_140\n      swap1\n        /* \"Ghosper-NFT-Staking-MasterChef.sol\":34760:34780  user.amount.mul(acc) */\n      swap2\n      swap1\n      0xffffffff\n      and\n      jump\t// in\n    tag_355:\n        /* \"Ghosper-NFT-Staking-MasterChef.sol\":34760:34784  user.amount.mul(acc).div */\n      tag_141\n      swap1\n        /* \"Ghosper-NFT-Staking-MasterChef.sol\":34760:34790  user.amount.mul(acc).div(1e12) */\n      swap2\n      swap1\n      0xffffffff\n      and\n      jump\t// in\n    tag_354:\n        /* \"Ghosper-NFT-Staking-MasterChef.sol\":34760:34794  user.amount.mul(acc).div(1e12).sub */\n      tag_142\n      swap1\n        /* \"Ghosper-NFT-Staking-MasterChef.sol\":34760:34811  user.amount.mul(acc).div(1e12).sub(user.rewardDebt) */\n      swap2\n      swap1\n      0xffffffff\n      and\n      jump\t// in\n    tag_353:\n        /* \"Ghosper-NFT-Staking-MasterChef.sol\":34760:34815  user.amount.mul(acc).div(1e12).sub(user.rewardDebt).add */\n      tag_144\n      swap1\n        /* \"Ghosper-NFT-Staking-MasterChef.sol\":34760:34835  user.amount.mul(acc).div(1e12).sub(user.rewardDebt).add(user.pendingAmount) */\n      swap2\n      swap1\n      0xffffffff\n      and\n      jump\t// in\n    tag_352:\n        /* \"Ghosper-NFT-Staking-MasterChef.sol\":34753:34835  return user.amount.mul(acc).div(1e12).sub(user.rewardDebt).add(user.pendingAmount) */\n      swap3\n      pop\n      pop\n      pop\n        /* \"Ghosper-NFT-Staking-MasterChef.sol\":34290:34843  function _getPending(address _user) private view returns (uint256) {\r... */\n      swap2\n      swap1\n      pop\n      jump\t// out\n        /* \"Ghosper-NFT-Staking-MasterChef.sol\":13244:13421  function safeTransfer(IBEP20 token, address to, uint256 value) internal {\r... */\n    tag_196:\n        /* \"Ghosper-NFT-Staking-MasterChef.sol\":13327:13413  _callOptionalReturn(token, abi.encodeWithSelector(token.transfer.selector, to, value)) */\n      tag_357\n        /* \"Ghosper-NFT-Staking-MasterChef.sol\":13347:13352  token */\n      dup4\n        /* \"Ghosper-NFT-Staking-MasterChef.sol\":13377:13400  token.transfer.selector */\n      shl(0xe0, 0xa9059cbb)\n        /* \"Ghosper-NFT-Staking-MasterChef.sol\":13402:13404  to */\n      dup5\n        /* \"Ghosper-NFT-Staking-MasterChef.sol\":13406:13411  value */\n      dup5\n        /* \"Ghosper-NFT-Staking-MasterChef.sol\":13354:13412  abi.encodeWithSelector(token.transfer.selector, to, value) */\n      add(0x24, mload(0x40))\n      tag_358\n      swap3\n      swap2\n      swap1\n      tag_359\n      jump\t// in\n    tag_358:\n      mload(0x40)\n      0x20\n      dup2\n      dup4\n      sub\n      sub\n      dup2\n      mstore\n      swap1\n      0x40\n      mstore\n      swap1\n      not(0xffffffffffffffffffffffffffffffffffffffffffffffffffffffff)\n      and\n      0x20\n      dup3\n      add\n      dup1\n      mload\n      0xffffffffffffffffffffffffffffffffffffffffffffffffffffffff\n      dup4\n      dup2\n      dup4\n      and\n      or\n      dup4\n      mstore\n      pop\n      pop\n      pop\n      pop\n        /* \"Ghosper-NFT-Staking-MasterChef.sol\":13327:13346  _callOptionalReturn */\n      tag_343\n        /* \"Ghosper-NFT-Staking-MasterChef.sol\":13327:13413  _callOptionalReturn(token, abi.encodeWithSelector(token.transfer.selector, to, value)) */\n      jump\t// in\n    tag_357:\n        /* \"Ghosper-NFT-Staking-MasterChef.sol\":13244:13421  function safeTransfer(IBEP20 token, address to, uint256 value) internal {\r... */\n      pop\n      pop\n      pop\n      jump\t// out\n        /* \"Ghosper-NFT-Staking-MasterChef.sol\":6181:6372  function _transferOwnership(address newOwner) internal virtual {\r... */\n    tag_228:\n        /* \"Ghosper-NFT-Staking-MasterChef.sol\":6255:6271  address oldOwner */\n      0x00\n        /* \"Ghosper-NFT-Staking-MasterChef.sol\":6274:6280  _owner */\n      dup1\n      0x00\n      swap1\n      sload\n      swap1\n      0x0100\n      exp\n      swap1\n      div\n      0xffffffffffffffffffffffffffffffffffffffff\n      and\n        /* \"Ghosper-NFT-Staking-MasterChef.sol\":6255:6280  address oldOwner = _owner */\n      swap1\n      pop\n        /* \"Ghosper-NFT-Staking-MasterChef.sol\":6300:6308  newOwner */\n      dup2\n        /* \"Ghosper-NFT-Staking-MasterChef.sol\":6291:6297  _owner */\n      0x00\n      dup1\n        /* \"Ghosper-NFT-Staking-MasterChef.sol\":6291:6308  _owner = newOwner */\n      0x0100\n      exp\n      dup2\n      sload\n      dup2\n      0xffffffffffffffffffffffffffffffffffffffff\n      mul\n      not\n      and\n      swap1\n      dup4\n      0xffffffffffffffffffffffffffffffffffffffff\n      and\n      mul\n      or\n      swap1\n      sstore\n      pop\n        /* \"Ghosper-NFT-Staking-MasterChef.sol\":6355:6363  newOwner */\n      dup2\n        /* \"Ghosper-NFT-Staking-MasterChef.sol\":6324:6364  OwnershipTransferred(oldOwner, newOwner) */\n      0xffffffffffffffffffffffffffffffffffffffff\n      and\n        /* \"Ghosper-NFT-Staking-MasterChef.sol\":6345:6353  oldOwner */\n      dup2\n        /* \"Ghosper-NFT-Staking-MasterChef.sol\":6324:6364  OwnershipTransferred(oldOwner, newOwner) */\n      0xffffffffffffffffffffffffffffffffffffffff\n      and\n      0x8be0079c531659141344cd1fd0a4f28419497f9722a3daafe3b4186f6b6457e0\n      mload(0x40)\n      mload(0x40)\n      dup1\n      swap2\n      sub\n      swap1\n      log3\n        /* \"Ghosper-NFT-Staking-MasterChef.sol\":6244:6372  {\r... */\n      pop\n        /* \"Ghosper-NFT-Staking-MasterChef.sol\":6181:6372  function _transferOwnership(address newOwner) internal virtual {\r... */\n      pop\n      jump\t// out\n        /* \"Ghosper-NFT-Staking-MasterChef.sol\":15549:16310  function _callOptionalReturn(IBEP20 token, bytes memory data) private {\r... */\n    tag_343:\n        /* \"Ghosper-NFT-Staking-MasterChef.sol\":15973:15996  bytes memory returndata */\n      0x00\n        /* \"Ghosper-NFT-Staking-MasterChef.sol\":15999:16068  address(token).functionCall(data, \"SafeBEP20: low-level call failed\") */\n      tag_362\n        /* \"Ghosper-NFT-Staking-MasterChef.sol\":16027:16031  data */\n      dup3\n        /* \"Ghosper-NFT-Staking-MasterChef.sol\":15999:16068  address(token).functionCall(data, \"SafeBEP20: low-level call failed\") */\n      mload(0x40)\n      dup1\n      0x40\n      add\n      0x40\n      mstore\n      dup1\n      0x20\n      dup2\n      mstore\n      0x20\n      add\n      0x5361666542455032303a206c6f772d6c6576656c2063616c6c206661696c6564\n      dup2\n      mstore\n      pop\n        /* \"Ghosper-NFT-Staking-MasterChef.sol\":16007:16012  token */\n      dup6\n        /* \"Ghosper-NFT-Staking-MasterChef.sol\":15999:16026  address(token).functionCall */\n      0xffffffffffffffffffffffffffffffffffffffff\n      and\n      tag_363\n      swap1\n        /* \"Ghosper-NFT-Staking-MasterChef.sol\":15999:16068  address(token).functionCall(data, \"SafeBEP20: low-level call failed\") */\n      swap3\n      swap2\n      swap1\n      0xffffffff\n      and\n      jump\t// in\n    tag_362:\n        /* \"Ghosper-NFT-Staking-MasterChef.sol\":15973:16068  bytes memory returndata = address(token).functionCall(data, \"SafeBEP20: low-level call failed\") */\n      swap1\n      pop\n        /* \"Ghosper-NFT-Staking-MasterChef.sol\":16103:16104  0 */\n      0x00\n        /* \"Ghosper-NFT-Staking-MasterChef.sol\":16083:16093  returndata */\n      dup2\n        /* \"Ghosper-NFT-Staking-MasterChef.sol\":16083:16100  returndata.length */\n      mload\n        /* \"Ghosper-NFT-Staking-MasterChef.sol\":16083:16104  returndata.length > 0 */\n      gt\n        /* \"Ghosper-NFT-Staking-MasterChef.sol\":16079:16303  if (returndata.length > 0) { // Return data is optional\r... */\n      iszero\n      tag_364\n      jumpi\n        /* \"Ghosper-NFT-Staking-MasterChef.sol\":16225:16235  returndata */\n      dup1\n        /* \"Ghosper-NFT-Staking-MasterChef.sol\":16214:16244  abi.decode(returndata, (bool)) */\n      dup1\n      0x20\n      add\n      swap1\n      mload\n      dup2\n      add\n      swap1\n      tag_365\n      swap2\n      swap1\n      tag_366\n      jump\t// in\n    tag_365:\n        /* \"Ghosper-NFT-Staking-MasterChef.sol\":16206:16291  require(abi.decode(returndata, (bool)), \"SafeBEP20: BEP20 operation did not succeed\") */\n      tag_367\n      jumpi\n      mload(0x40)\n      0x08c379a000000000000000000000000000000000000000000000000000000000\n      dup2\n      mstore\n      0x04\n      add\n      tag_368\n      swap1\n      tag_369\n      jump\t// in\n    tag_368:\n      mload(0x40)\n      dup1\n      swap2\n      sub\n      swap1\n      revert\n    tag_367:\n        /* \"Ghosper-NFT-Staking-MasterChef.sol\":16079:16303  if (returndata.length > 0) { // Return data is optional\r... */\n    tag_364:\n        /* \"Ghosper-NFT-Staking-MasterChef.sol\":15619:16310  {\r... */\n      pop\n        /* \"Ghosper-NFT-Staking-MasterChef.sol\":15549:16310  function _callOptionalReturn(IBEP20 token, bytes memory data) private {\r... */\n      pop\n      pop\n      jump\t// out\n        /* \"Ghosper-NFT-Staking-MasterChef.sol\":20069:20265  function functionCall(address target, bytes memory data, string memory errorMessage) internal returns (bytes memory) {\r... */\n    tag_363:\n        /* \"Ghosper-NFT-Staking-MasterChef.sol\":20172:20184  bytes memory */\n      0x60\n        /* \"Ghosper-NFT-Staking-MasterChef.sol\":20204:20257  _functionCallWithValue(target, data, 0, errorMessage) */\n      tag_371\n        /* \"Ghosper-NFT-Staking-MasterChef.sol\":20227:20233  target */\n      dup5\n        /* \"Ghosper-NFT-Staking-MasterChef.sol\":20235:20239  data */\n      dup5\n        /* \"Ghosper-NFT-Staking-MasterChef.sol\":20241:20242  0 */\n      0x00\n        /* \"Ghosper-NFT-Staking-MasterChef.sol\":20244:20256  errorMessage */\n      dup6\n        /* \"Ghosper-NFT-Staking-MasterChef.sol\":20204:20226  _functionCallWithValue */\n      tag_372\n        /* \"Ghosper-NFT-Staking-MasterChef.sol\":20204:20257  _functionCallWithValue(target, data, 0, errorMessage) */\n      jump\t// in\n    tag_371:\n        /* \"Ghosper-NFT-Staking-MasterChef.sol\":20197:20257  return _functionCallWithValue(target, data, 0, errorMessage) */\n      swap1\n      pop\n        /* \"Ghosper-NFT-Staking-MasterChef.sol\":20069:20265  function functionCall(address target, bytes memory data, string memory errorMessage) internal returns (bytes memory) {\r... */\n      swap4\n      swap3\n      pop\n      pop\n      pop\n      jump\t// out\n        /* \"Ghosper-NFT-Staking-MasterChef.sol\":21446:22425  function _functionCallWithValue(address target, bytes memory data, uint256 weiValue, string memory errorMessage) private returns (bytes memory) {\r... */\n    tag_372:\n        /* \"Ghosper-NFT-Staking-MasterChef.sol\":21576:21588  bytes memory */\n      0x60\n        /* \"Ghosper-NFT-Staking-MasterChef.sol\":21609:21627  isContract(target) */\n      tag_374\n        /* \"Ghosper-NFT-Staking-MasterChef.sol\":21620:21626  target */\n      dup6\n        /* \"Ghosper-NFT-Staking-MasterChef.sol\":21609:21619  isContract */\n      tag_375\n        /* \"Ghosper-NFT-Staking-MasterChef.sol\":21609:21627  isContract(target) */\n      jump\t// in\n    tag_374:\n        /* \"Ghosper-NFT-Staking-MasterChef.sol\":21601:21661  require(isContract(target), \"Address: call to non-contract\") */\n      tag_376\n      jumpi\n      mload(0x40)\n      0x08c379a000000000000000000000000000000000000000000000000000000000\n      dup2\n      mstore\n      0x04\n      add\n      tag_377\n      swap1\n      tag_378\n      jump\t// in\n    tag_377:\n      mload(0x40)\n      dup1\n      swap2\n      sub\n      swap1\n      revert\n    tag_376:\n        /* \"Ghosper-NFT-Staking-MasterChef.sol\":21735:21747  bool success */\n      0x00\n        /* \"Ghosper-NFT-Staking-MasterChef.sol\":21749:21772  bytes memory returndata */\n      dup1\n        /* \"Ghosper-NFT-Staking-MasterChef.sol\":21776:21782  target */\n      dup7\n        /* \"Ghosper-NFT-Staking-MasterChef.sol\":21776:21787  target.call */\n      0xffffffffffffffffffffffffffffffffffffffff\n      and\n        /* \"Ghosper-NFT-Staking-MasterChef.sol\":21796:21804  weiValue */\n      dup6\n        /* \"Ghosper-NFT-Staking-MasterChef.sol\":21807:21811  data */\n      dup8\n        /* \"Ghosper-NFT-Staking-MasterChef.sol\":21776:21812  target.call{ value: weiValue }(data) */\n      mload(0x40)\n      tag_379\n      swap2\n      swap1\n      tag_380\n      jump\t// in\n    tag_379:\n      0x00\n      mload(0x40)\n      dup1\n      dup4\n      sub\n      dup2\n      dup6\n      dup8\n      gas\n      call\n      swap3\n      pop\n      pop\n      pop\n      returndatasize\n      dup1\n      0x00\n      dup2\n      eq\n      tag_383\n      jumpi\n      mload(0x40)\n      swap2\n      pop\n      and(add(returndatasize, 0x3f), not(0x1f))\n      dup3\n      add\n      0x40\n      mstore\n      returndatasize\n      dup3\n      mstore\n      returndatasize\n      0x00\n      0x20\n      dup5\n      add\n      returndatacopy\n      jump(tag_382)\n    tag_383:\n      0x60\n      swap2\n      pop\n    tag_382:\n      pop\n        /* \"Ghosper-NFT-Staking-MasterChef.sol\":21734:21812  (bool success, bytes memory returndata) = target.call{ value: weiValue }(data) */\n      swap2\n      pop\n      swap2\n      pop\n        /* \"Ghosper-NFT-Staking-MasterChef.sol\":21827:21834  success */\n      dup2\n        /* \"Ghosper-NFT-Staking-MasterChef.sol\":21823:22418  if (success) {\r... */\n      iszero\n      tag_384\n      jumpi\n        /* \"Ghosper-NFT-Staking-MasterChef.sol\":21858:21868  returndata */\n      dup1\n        /* \"Ghosper-NFT-Staking-MasterChef.sol\":21851:21868  return returndata */\n      swap3\n      pop\n      pop\n      pop\n      jump(tag_373)\n        /* \"Ghosper-NFT-Staking-MasterChef.sol\":21823:22418  if (success) {\r... */\n    tag_384:\n        /* \"Ghosper-NFT-Staking-MasterChef.sol\":21992:21993  0 */\n      0x00\n        /* \"Ghosper-NFT-Staking-MasterChef.sol\":21972:21982  returndata */\n      dup2\n        /* \"Ghosper-NFT-Staking-MasterChef.sol\":21972:21989  returndata.length */\n      mload\n        /* \"Ghosper-NFT-Staking-MasterChef.sol\":21972:21993  returndata.length > 0 */\n      gt\n        /* \"Ghosper-NFT-Staking-MasterChef.sol\":21968:22407  if (returndata.length > 0) {\r... */\n      iszero\n      tag_386\n      jumpi\n        /* \"Ghosper-NFT-Staking-MasterChef.sol\":22235:22245  returndata */\n      dup1\n        /* \"Ghosper-NFT-Staking-MasterChef.sol\":22229:22246  mload(returndata) */\n      mload\n        /* \"Ghosper-NFT-Staking-MasterChef.sol\":22296:22311  returndata_size */\n      dup1\n        /* \"Ghosper-NFT-Staking-MasterChef.sol\":22283:22293  returndata */\n      dup3\n        /* \"Ghosper-NFT-Staking-MasterChef.sol\":22279:22281  32 */\n      0x20\n        /* \"Ghosper-NFT-Staking-MasterChef.sol\":22275:22294  add(32, returndata) */\n      add\n        /* \"Ghosper-NFT-Staking-MasterChef.sol\":22268:22312  revert(add(32, returndata), returndata_size) */\n      revert\n        /* \"Ghosper-NFT-Staking-MasterChef.sol\":21968:22407  if (returndata.length > 0) {\r... */\n    tag_386:\n        /* \"Ghosper-NFT-Staking-MasterChef.sol\":22378:22390  errorMessage */\n      dup4\n        /* \"Ghosper-NFT-Staking-MasterChef.sol\":22371:22391  revert(errorMessage) */\n      mload(0x40)\n      0x08c379a000000000000000000000000000000000000000000000000000000000\n      dup2\n      mstore\n      0x04\n      add\n      tag_388\n      swap2\n      swap1\n      tag_389\n      jump\t// in\n    tag_388:\n      mload(0x40)\n      dup1\n      swap2\n      sub\n      swap1\n      revert\n        /* \"Ghosper-NFT-Staking-MasterChef.sol\":21446:22425  function _functionCallWithValue(address target, bytes memory data, uint256 weiValue, string memory errorMessage) private returns (bytes memory) {\r... */\n    tag_373:\n      swap5\n      swap4\n      pop\n      pop\n      pop\n      pop\n      jump\t// out\n        /* \"Ghosper-NFT-Staking-MasterChef.sol\":16954:17573  function isContract(address account) internal view returns (bool) {\r... */\n    tag_375:\n        /* \"Ghosper-NFT-Staking-MasterChef.sol\":17014:17018  bool */\n      0x00\n        /* \"Ghosper-NFT-Staking-MasterChef.sol\":17276:17292  bytes32 codehash */\n      dup1\n        /* \"Ghosper-NFT-Staking-MasterChef.sol\":17303:17322  bytes32 accountHash */\n      0x00\n        /* \"Ghosper-NFT-Staking-MasterChef.sol\":17325:17391  0xc5d2460186f7233c927e7db2dcc703c0e500b653ca82273b7bfad8045d85a470 */\n      0xc5d2460186f7233c927e7db2dcc703c0e500b653ca82273b7bfad8045d85a470\n        /* \"Ghosper-NFT-Staking-MasterChef.sol\":17303:17391  bytes32 accountHash = 0xc5d2460186f7233c927e7db2dcc703c0e500b653ca82273b7bfad8045d85a470 */\n      0x00\n      shl\n      swap1\n      pop\n        /* \"Ghosper-NFT-Staking-MasterChef.sol\":17494:17501  account */\n      dup4\n        /* \"Ghosper-NFT-Staking-MasterChef.sol\":17482:17502  extcodehash(account) */\n      extcodehash\n        /* \"Ghosper-NFT-Staking-MasterChef.sol\":17470:17502  codehash := extcodehash(account) */\n      swap2\n      pop\n        /* \"Ghosper-NFT-Staking-MasterChef.sol\":17534:17545  accountHash */\n      dup1\n        /* \"Ghosper-NFT-Staking-MasterChef.sol\":17522:17530  codehash */\n      dup3\n        /* \"Ghosper-NFT-Staking-MasterChef.sol\":17522:17545  codehash != accountHash */\n      eq\n      iszero\n        /* \"Ghosper-NFT-Staking-MasterChef.sol\":17522:17564  codehash != accountHash && codehash != 0x0 */\n      dup1\n      iszero\n      tag_391\n      jumpi\n      pop\n        /* \"Ghosper-NFT-Staking-MasterChef.sol\":17561:17564  0x0 */\n      0x00\n        /* \"Ghosper-NFT-Staking-MasterChef.sol\":17549:17564  codehash != 0x0 */\n      dup1\n      shl\n        /* \"Ghosper-NFT-Staking-MasterChef.sol\":17549:17557  codehash */\n      dup3\n        /* \"Ghosper-NFT-Staking-MasterChef.sol\":17549:17564  codehash != 0x0 */\n      eq\n      iszero\n        /* \"Ghosper-NFT-Staking-MasterChef.sol\":17522:17564  codehash != accountHash && codehash != 0x0 */\n    tag_391:\n        /* \"Ghosper-NFT-Staking-MasterChef.sol\":17514:17565  return (codehash != accountHash && codehash != 0x0) */\n      swap3\n      pop\n      pop\n      pop\n        /* \"Ghosper-NFT-Staking-MasterChef.sol\":16954:17573  function isContract(address account) internal view returns (bool) {\r... */\n      swap2\n      swap1\n      pop\n      jump\t// out\n        /* \"#utility.yul\":7:146   */\n    tag_393:\n        /* \"#utility.yul\":53:58   */\n      0x00\n        /* \"#utility.yul\":91:97   */\n      dup2\n        /* \"#utility.yul\":78:98   */\n      calldataload\n        /* \"#utility.yul\":69:98   */\n      swap1\n      pop\n        /* \"#utility.yul\":107:140   */\n      tag_395\n        /* \"#utility.yul\":134:139   */\n      dup2\n        /* \"#utility.yul\":107:140   */\n      tag_396\n      jump\t// in\n    tag_395:\n        /* \"#utility.yul\":7:146   */\n      swap3\n      swap2\n      pop\n      pop\n      jump\t// out\n        /* \"#utility.yul\":152:295   */\n    tag_397:\n        /* \"#utility.yul\":209:214   */\n      0x00\n        /* \"#utility.yul\":240:246   */\n      dup2\n        /* \"#utility.yul\":234:247   */\n      mload\n        /* \"#utility.yul\":225:247   */\n      swap1\n      pop\n        /* \"#utility.yul\":256:289   */\n      tag_399\n        /* \"#utility.yul\":283:288   */\n      dup2\n        /* \"#utility.yul\":256:289   */\n      tag_396\n      jump\t// in\n    tag_399:\n        /* \"#utility.yul\":152:295   */\n      swap3\n      swap2\n      pop\n      pop\n      jump\t// out\n        /* \"#utility.yul\":318:886   */\n    tag_400:\n        /* \"#utility.yul\":391:399   */\n      0x00\n        /* \"#utility.yul\":401:407   */\n      dup1\n        /* \"#utility.yul\":451:454   */\n      dup4\n        /* \"#utility.yul\":444:448   */\n      0x1f\n        /* \"#utility.yul\":436:442   */\n      dup5\n        /* \"#utility.yul\":432:449   */\n      add\n        /* \"#utility.yul\":428:455   */\n      slt\n        /* \"#utility.yul\":418:540   */\n      tag_402\n      jumpi\n        /* \"#utility.yul\":459:538   */\n      tag_403\n      tag_404\n      jump\t// in\n    tag_403:\n        /* \"#utility.yul\":418:540   */\n    tag_402:\n        /* \"#utility.yul\":572:578   */\n      dup3\n        /* \"#utility.yul\":559:579   */\n      calldataload\n        /* \"#utility.yul\":549:579   */\n      swap1\n      pop\n        /* \"#utility.yul\":602:620   */\n      0xffffffffffffffff\n        /* \"#utility.yul\":594:600   */\n      dup2\n        /* \"#utility.yul\":591:621   */\n      gt\n        /* \"#utility.yul\":588:705   */\n      iszero\n      tag_405\n      jumpi\n        /* \"#utility.yul\":624:703   */\n      tag_406\n      tag_407\n      jump\t// in\n    tag_406:\n        /* \"#utility.yul\":588:705   */\n    tag_405:\n        /* \"#utility.yul\":738:742   */\n      0x20\n        /* \"#utility.yul\":730:736   */\n      dup4\n        /* \"#utility.yul\":726:743   */\n      add\n        /* \"#utility.yul\":714:743   */\n      swap2\n      pop\n        /* \"#utility.yul\":792:795   */\n      dup4\n        /* \"#utility.yul\":784:788   */\n      0x20\n        /* \"#utility.yul\":776:782   */\n      dup3\n        /* \"#utility.yul\":772:789   */\n      mul\n        /* \"#utility.yul\":762:770   */\n      dup4\n        /* \"#utility.yul\":758:790   */\n      add\n        /* \"#utility.yul\":755:796   */\n      gt\n        /* \"#utility.yul\":752:880   */\n      iszero\n      tag_408\n      jumpi\n        /* \"#utility.yul\":799:878   */\n      tag_409\n      tag_410\n      jump\t// in\n    tag_409:\n        /* \"#utility.yul\":752:880   */\n    tag_408:\n        /* \"#utility.yul\":318:886   */\n      swap3\n      pop\n      swap3\n      swap1\n      pop\n      jump\t// out\n        /* \"#utility.yul\":892:1029   */\n    tag_411:\n        /* \"#utility.yul\":946:951   */\n      0x00\n        /* \"#utility.yul\":977:983   */\n      dup2\n        /* \"#utility.yul\":971:984   */\n      mload\n        /* \"#utility.yul\":962:984   */\n      swap1\n      pop\n        /* \"#utility.yul\":993:1023   */\n      tag_413\n        /* \"#utility.yul\":1017:1022   */\n      dup2\n        /* \"#utility.yul\":993:1023   */\n      tag_414\n      jump\t// in\n    tag_413:\n        /* \"#utility.yul\":892:1029   */\n      swap3\n      swap2\n      pop\n      pop\n      jump\t// out\n        /* \"#utility.yul\":1035:1174   */\n    tag_415:\n        /* \"#utility.yul\":1081:1086   */\n      0x00\n        /* \"#utility.yul\":1119:1125   */\n      dup2\n        /* \"#utility.yul\":1106:1126   */\n      calldataload\n        /* \"#utility.yul\":1097:1126   */\n      swap1\n      pop\n        /* \"#utility.yul\":1135:1168   */\n      tag_417\n        /* \"#utility.yul\":1162:1167   */\n      dup2\n        /* \"#utility.yul\":1135:1168   */\n      tag_418\n      jump\t// in\n    tag_417:\n        /* \"#utility.yul\":1035:1174   */\n      swap3\n      swap2\n      pop\n      pop\n      jump\t// out\n        /* \"#utility.yul\":1180:1323   */\n    tag_419:\n        /* \"#utility.yul\":1237:1242   */\n      0x00\n        /* \"#utility.yul\":1268:1274   */\n      dup2\n        /* \"#utility.yul\":1262:1275   */\n      mload\n        /* \"#utility.yul\":1253:1275   */\n      swap1\n      pop\n        /* \"#utility.yul\":1284:1317   */\n      tag_421\n        /* \"#utility.yul\":1311:1316   */\n      dup2\n        /* \"#utility.yul\":1284:1317   */\n      tag_418\n      jump\t// in\n    tag_421:\n        /* \"#utility.yul\":1180:1323   */\n      swap3\n      swap2\n      pop\n      pop\n      jump\t// out\n        /* \"#utility.yul\":1329:1658   */\n    tag_32:\n        /* \"#utility.yul\":1388:1394   */\n      0x00\n        /* \"#utility.yul\":1437:1439   */\n      0x20\n        /* \"#utility.yul\":1425:1434   */\n      dup3\n        /* \"#utility.yul\":1416:1423   */\n      dup5\n        /* \"#utility.yul\":1412:1435   */\n      sub\n        /* \"#utility.yul\":1408:1440   */\n      slt\n        /* \"#utility.yul\":1405:1524   */\n      iszero\n      tag_423\n      jumpi\n        /* \"#utility.yul\":1443:1522   */\n      tag_424\n      tag_425\n      jump\t// in\n    tag_424:\n        /* \"#utility.yul\":1405:1524   */\n    tag_423:\n        /* \"#utility.yul\":1563:1564   */\n      0x00\n        /* \"#utility.yul\":1588:1641   */\n      tag_426\n        /* \"#utility.yul\":1633:1640   */\n      dup5\n        /* \"#utility.yul\":1624:1630   */\n      dup3\n        /* \"#utility.yul\":1613:1622   */\n      dup6\n        /* \"#utility.yul\":1609:1631   */\n      add\n        /* \"#utility.yul\":1588:1641   */\n      tag_393\n      jump\t// in\n    tag_426:\n        /* \"#utility.yul\":1578:1641   */\n      swap2\n      pop\n        /* \"#utility.yul\":1534:1651   */\n      pop\n        /* \"#utility.yul\":1329:1658   */\n      swap3\n      swap2\n      pop\n      pop\n      jump\t// out\n        /* \"#utility.yul\":1664:2015   */\n    tag_110:\n        /* \"#utility.yul\":1734:1740   */\n      0x00\n        /* \"#utility.yul\":1783:1785   */\n      0x20\n        /* \"#utility.yul\":1771:1780   */\n      dup3\n        /* \"#utility.yul\":1762:1769   */\n      dup5\n        /* \"#utility.yul\":1758:1781   */\n      sub\n        /* \"#utility.yul\":1754:1786   */\n      slt\n        /* \"#utility.yul\":1751:1870   */\n      iszero\n      tag_428\n      jumpi\n        /* \"#utility.yul\":1789:1868   */\n      tag_429\n      tag_425\n      jump\t// in\n    tag_429:\n        /* \"#utility.yul\":1751:1870   */\n    tag_428:\n        /* \"#utility.yul\":1909:1910   */\n      0x00\n        /* \"#utility.yul\":1934:1998   */\n      tag_430\n        /* \"#utility.yul\":1990:1997   */\n      dup5\n        /* \"#utility.yul\":1981:1987   */\n      dup3\n        /* \"#utility.yul\":1970:1979   */\n      dup6\n        /* \"#utility.yul\":1966:1988   */\n      add\n        /* \"#utility.yul\":1934:1998   */\n      tag_397\n      jump\t// in\n    tag_430:\n        /* \"#utility.yul\":1924:1998   */\n      swap2\n      pop\n        /* \"#utility.yul\":1880:2008   */\n      pop\n        /* \"#utility.yul\":1664:2015   */\n      swap3\n      swap2\n      pop\n      pop\n      jump\t// out\n        /* \"#utility.yul\":2021:2580   */\n    tag_28:\n        /* \"#utility.yul\":2107:2113   */\n      0x00\n        /* \"#utility.yul\":2115:2121   */\n      dup1\n        /* \"#utility.yul\":2164:2166   */\n      0x20\n        /* \"#utility.yul\":2152:2161   */\n      dup4\n        /* \"#utility.yul\":2143:2150   */\n      dup6\n        /* \"#utility.yul\":2139:2162   */\n      sub\n        /* \"#utility.yul\":2135:2167   */\n      slt\n        /* \"#utility.yul\":2132:2251   */\n      iszero\n      tag_432\n      jumpi\n        /* \"#utility.yul\":2170:2249   */\n      tag_433\n      tag_425\n      jump\t// in\n    tag_433:\n        /* \"#utility.yul\":2132:2251   */\n    tag_432:\n        /* \"#utility.yul\":2318:2319   */\n      0x00\n        /* \"#utility.yul\":2307:2316   */\n      dup4\n        /* \"#utility.yul\":2303:2320   */\n      add\n        /* \"#utility.yul\":2290:2321   */\n      calldataload\n        /* \"#utility.yul\":2348:2366   */\n      0xffffffffffffffff\n        /* \"#utility.yul\":2340:2346   */\n      dup2\n        /* \"#utility.yul\":2337:2367   */\n      gt\n        /* \"#utility.yul\":2334:2451   */\n      iszero\n      tag_434\n      jumpi\n        /* \"#utility.yul\":2370:2449   */\n      tag_435\n      tag_436\n      jump\t// in\n    tag_435:\n        /* \"#utility.yul\":2334:2451   */\n    tag_434:\n        /* \"#utility.yul\":2483:2563   */\n      tag_437\n        /* \"#utility.yul\":2555:2562   */\n      dup6\n        /* \"#utility.yul\":2546:2552   */\n      dup3\n        /* \"#utility.yul\":2535:2544   */\n      dup7\n        /* \"#utility.yul\":2531:2553   */\n      add\n        /* \"#utility.yul\":2483:2563   */\n      tag_400\n      jump\t// in\n    tag_437:\n        /* \"#utility.yul\":2465:2563   */\n      swap3\n      pop\n      swap3\n      pop\n        /* \"#utility.yul\":2261:2573   */\n      pop\n        /* \"#utility.yul\":2021:2580   */\n      swap3\n      pop\n      swap3\n      swap1\n      pop\n      jump\t// out\n        /* \"#utility.yul\":2586:2931   */\n    tag_366:\n        /* \"#utility.yul\":2653:2659   */\n      0x00\n        /* \"#utility.yul\":2702:2704   */\n      0x20\n        /* \"#utility.yul\":2690:2699   */\n      dup3\n        /* \"#utility.yul\":2681:2688   */\n      dup5\n        /* \"#utility.yul\":2677:2700   */\n      sub\n        /* \"#utility.yul\":2673:2705   */\n      slt\n        /* \"#utility.yul\":2670:2789   */\n      iszero\n      tag_439\n      jumpi\n        /* \"#utility.yul\":2708:2787   */\n      tag_440\n      tag_425\n      jump\t// in\n    tag_440:\n        /* \"#utility.yul\":2670:2789   */\n    tag_439:\n        /* \"#utility.yul\":2828:2829   */\n      0x00\n        /* \"#utility.yul\":2853:2914   */\n      tag_441\n        /* \"#utility.yul\":2906:2913   */\n      dup5\n        /* \"#utility.yul\":2897:2903   */\n      dup3\n        /* \"#utility.yul\":2886:2895   */\n      dup6\n        /* \"#utility.yul\":2882:2904   */\n      add\n        /* \"#utility.yul\":2853:2914   */\n      tag_411\n      jump\t// in\n    tag_441:\n        /* \"#utility.yul\":2843:2914   */\n      swap2\n      pop\n        /* \"#utility.yul\":2799:2924   */\n      pop\n        /* \"#utility.yul\":2586:2931   */\n      swap3\n      swap2\n      pop\n      pop\n      jump\t// out\n        /* \"#utility.yul\":2937:3266   */\n    tag_42:\n        /* \"#utility.yul\":2996:3002   */\n      0x00\n        /* \"#utility.yul\":3045:3047   */\n      0x20\n        /* \"#utility.yul\":3033:3042   */\n      dup3\n        /* \"#utility.yul\":3024:3031   */\n      dup5\n        /* \"#utility.yul\":3020:3043   */\n      sub\n        /* \"#utility.yul\":3016:3048   */\n      slt\n        /* \"#utility.yul\":3013:3132   */\n      iszero\n      tag_443\n      jumpi\n        /* \"#utility.yul\":3051:3130   */\n      tag_444\n      tag_425\n      jump\t// in\n    tag_444:\n        /* \"#utility.yul\":3013:3132   */\n    tag_443:\n        /* \"#utility.yul\":3171:3172   */\n      0x00\n        /* \"#utility.yul\":3196:3249   */\n      tag_445\n        /* \"#utility.yul\":3241:3248   */\n      dup5\n        /* \"#utility.yul\":3232:3238   */\n      dup3\n        /* \"#utility.yul\":3221:3230   */\n      dup6\n        /* \"#utility.yul\":3217:3239   */\n      add\n        /* \"#utility.yul\":3196:3249   */\n      tag_415\n      jump\t// in\n    tag_445:\n        /* \"#utility.yul\":3186:3249   */\n      swap2\n      pop\n        /* \"#utility.yul\":3142:3259   */\n      pop\n        /* \"#utility.yul\":2937:3266   */\n      swap3\n      swap2\n      pop\n      pop\n      jump\t// out\n        /* \"#utility.yul\":3272:3623   */\n    tag_188:\n        /* \"#utility.yul\":3342:3348   */\n      0x00\n        /* \"#utility.yul\":3391:3393   */\n      0x20\n        /* \"#utility.yul\":3379:3388   */\n      dup3\n        /* \"#utility.yul\":3370:3377   */\n      dup5\n        /* \"#utility.yul\":3366:3389   */\n      sub\n        /* \"#utility.yul\":3362:3394   */\n      slt\n        /* \"#utility.yul\":3359:3478   */\n      iszero\n      tag_447\n      jumpi\n        /* \"#utility.yul\":3397:3476   */\n      tag_448\n      tag_425\n      jump\t// in\n    tag_448:\n        /* \"#utility.yul\":3359:3478   */\n    tag_447:\n        /* \"#utility.yul\":3517:3518   */\n      0x00\n        /* \"#utility.yul\":3542:3606   */\n      tag_449\n        /* \"#utility.yul\":3598:3605   */\n      dup5\n        /* \"#utility.yul\":3589:3595   */\n      dup3\n        /* \"#utility.yul\":3578:3587   */\n      dup6\n        /* \"#utility.yul\":3574:3596   */\n      add\n        /* \"#utility.yul\":3542:3606   */\n      tag_419\n      jump\t// in\n    tag_449:\n        /* \"#utility.yul\":3532:3606   */\n      swap2\n      pop\n        /* \"#utility.yul\":3488:3616   */\n      pop\n        /* \"#utility.yul\":3272:3623   */\n      swap3\n      swap2\n      pop\n      pop\n      jump\t// out\n        /* \"#utility.yul\":3629:4103   */\n    tag_70:\n        /* \"#utility.yul\":3697:3703   */\n      0x00\n        /* \"#utility.yul\":3705:3711   */\n      dup1\n        /* \"#utility.yul\":3754:3756   */\n      0x40\n        /* \"#utility.yul\":3742:3751   */\n      dup4\n        /* \"#utility.yul\":3733:3740   */\n      dup6\n        /* \"#utility.yul\":3729:3752   */\n      sub\n        /* \"#utility.yul\":3725:3757   */\n      slt\n        /* \"#utility.yul\":3722:3841   */\n      iszero\n      tag_451\n      jumpi\n        /* \"#utility.yul\":3760:3839   */\n      tag_452\n      tag_425\n      jump\t// in\n    tag_452:\n        /* \"#utility.yul\":3722:3841   */\n    tag_451:\n        /* \"#utility.yul\":3880:3881   */\n      0x00\n        /* \"#utility.yul\":3905:3958   */\n      tag_453\n        /* \"#utility.yul\":3950:3957   */\n      dup6\n        /* \"#utility.yul\":3941:3947   */\n      dup3\n        /* \"#utility.yul\":3930:3939   */\n      dup7\n        /* \"#utility.yul\":3926:3948   */\n      add\n        /* \"#utility.yul\":3905:3958   */\n      tag_415\n      jump\t// in\n    tag_453:\n        /* \"#utility.yul\":3895:3958   */\n      swap3\n      pop\n        /* \"#utility.yul\":3851:3968   */\n      pop\n        /* \"#utility.yul\":4007:4009   */\n      0x20\n        /* \"#utility.yul\":4033:4086   */\n      tag_454\n        /* \"#utility.yul\":4078:4085   */\n      dup6\n        /* \"#utility.yul\":4069:4075   */\n      dup3\n        /* \"#utility.yul\":4058:4067   */\n      dup7\n        /* \"#utility.yul\":4054:4076   */\n      add\n        /* \"#utility.yul\":4033:4086   */\n      tag_415\n      jump\t// in\n    tag_454:\n        /* \"#utility.yul\":4023:4086   */\n      swap2\n      pop\n        /* \"#utility.yul\":3978:4096   */\n      pop\n        /* \"#utility.yul\":3629:4103   */\n      swap3\n      pop\n      swap3\n      swap1\n      pop\n      jump\t// out\n        /* \"#utility.yul\":4109:4227   */\n    tag_455:\n        /* \"#utility.yul\":4196:4220   */\n      tag_457\n        /* \"#utility.yul\":4214:4219   */\n      dup2\n        /* \"#utility.yul\":4196:4220   */\n      tag_458\n      jump\t// in\n    tag_457:\n        /* \"#utility.yul\":4191:4194   */\n      dup3\n        /* \"#utility.yul\":4184:4221   */\n      mstore\n        /* \"#utility.yul\":4109:4227   */\n      pop\n      pop\n      jump\t// out\n        /* \"#utility.yul\":4263:4800   */\n    tag_459:\n        /* \"#utility.yul\":4391:4394   */\n      0x00\n        /* \"#utility.yul\":4412:4498   */\n      tag_461\n        /* \"#utility.yul\":4491:4497   */\n      dup4\n        /* \"#utility.yul\":4486:4489   */\n      dup6\n        /* \"#utility.yul\":4412:4498   */\n      tag_462\n      jump\t// in\n    tag_461:\n        /* \"#utility.yul\":4405:4498   */\n      swap4\n      pop\n        /* \"#utility.yul\":4522:4588   */\n      0x07ffffffffffffffffffffffffffffffffffffffffffffffffffffffffffffff\n        /* \"#utility.yul\":4514:4520   */\n      dup4\n        /* \"#utility.yul\":4511:4589   */\n      gt\n        /* \"#utility.yul\":4508:4673   */\n      iszero\n      tag_463\n      jumpi\n        /* \"#utility.yul\":4592:4671   */\n      tag_464\n      tag_465\n      jump\t// in\n    tag_464:\n        /* \"#utility.yul\":4508:4673   */\n    tag_463:\n        /* \"#utility.yul\":4704:4708   */\n      0x20\n        /* \"#utility.yul\":4696:4702   */\n      dup4\n        /* \"#utility.yul\":4692:4709   */\n      mul\n        /* \"#utility.yul\":4682:4709   */\n      swap3\n      pop\n        /* \"#utility.yul\":4719:4762   */\n      tag_466\n        /* \"#utility.yul\":4755:4761   */\n      dup4\n        /* \"#utility.yul\":4750:4753   */\n      dup6\n        /* \"#utility.yul\":4743:4748   */\n      dup5\n        /* \"#utility.yul\":4719:4762   */\n      tag_467\n      jump\t// in\n    tag_466:\n        /* \"#utility.yul\":4787:4793   */\n      dup3\n        /* \"#utility.yul\":4782:4785   */\n      dup5\n        /* \"#utility.yul\":4778:4794   */\n      add\n        /* \"#utility.yul\":4771:4794   */\n      swap1\n      pop\n        /* \"#utility.yul\":4263:4800   */\n      swap4\n      swap3\n      pop\n      pop\n      pop\n      jump\t// out\n        /* \"#utility.yul\":4806:5179   */\n    tag_468:\n        /* \"#utility.yul\":4910:4913   */\n      0x00\n        /* \"#utility.yul\":4938:4976   */\n      tag_470\n        /* \"#utility.yul\":4970:4975   */\n      dup3\n        /* \"#utility.yul\":4938:4976   */\n      tag_471\n      jump\t// in\n    tag_470:\n        /* \"#utility.yul\":4992:5080   */\n      tag_472\n        /* \"#utility.yul\":5073:5079   */\n      dup2\n        /* \"#utility.yul\":5068:5071   */\n      dup6\n        /* \"#utility.yul\":4992:5080   */\n      tag_473\n      jump\t// in\n    tag_472:\n        /* \"#utility.yul\":4985:5080   */\n      swap4\n      pop\n        /* \"#utility.yul\":5089:5141   */\n      tag_474\n        /* \"#utility.yul\":5134:5140   */\n      dup2\n        /* \"#utility.yul\":5129:5132   */\n      dup6\n        /* \"#utility.yul\":5122:5126   */\n      0x20\n        /* \"#utility.yul\":5115:5120   */\n      dup7\n        /* \"#utility.yul\":5111:5127   */\n      add\n        /* \"#utility.yul\":5089:5141   */\n      tag_475\n      jump\t// in\n    tag_474:\n        /* \"#utility.yul\":5166:5172   */\n      dup1\n        /* \"#utility.yul\":5161:5164   */\n      dup5\n        /* \"#utility.yul\":5157:5173   */\n      add\n        /* \"#utility.yul\":5150:5173   */\n      swap2\n      pop\n        /* \"#utility.yul\":4914:5179   */\n      pop\n        /* \"#utility.yul\":4806:5179   */\n      swap3\n      swap2\n      pop\n      pop\n      jump\t// out\n        /* \"#utility.yul\":5185:5344   */\n    tag_476:\n        /* \"#utility.yul\":5286:5337   */\n      tag_478\n        /* \"#utility.yul\":5331:5336   */\n      dup2\n        /* \"#utility.yul\":5286:5337   */\n      tag_479\n      jump\t// in\n    tag_478:\n        /* \"#utility.yul\":5281:5284   */\n      dup3\n        /* \"#utility.yul\":5274:5338   */\n      mstore\n        /* \"#utility.yul\":5185:5344   */\n      pop\n      pop\n      jump\t// out\n        /* \"#utility.yul\":5350:5513   */\n    tag_480:\n        /* \"#utility.yul\":5453:5506   */\n      tag_482\n        /* \"#utility.yul\":5500:5505   */\n      dup2\n        /* \"#utility.yul\":5453:5506   */\n      tag_483\n      jump\t// in\n    tag_482:\n        /* \"#utility.yul\":5448:5451   */\n      dup3\n        /* \"#utility.yul\":5441:5507   */\n      mstore\n        /* \"#utility.yul\":5350:5513   */\n      pop\n      pop\n      jump\t// out\n        /* \"#utility.yul\":5519:5883   */\n    tag_484:\n        /* \"#utility.yul\":5607:5610   */\n      0x00\n        /* \"#utility.yul\":5635:5674   */\n      tag_486\n        /* \"#utility.yul\":5668:5673   */\n      dup3\n        /* \"#utility.yul\":5635:5674   */\n      tag_487\n      jump\t// in\n    tag_486:\n        /* \"#utility.yul\":5690:5761   */\n      tag_488\n        /* \"#utility.yul\":5754:5760   */\n      dup2\n        /* \"#utility.yul\":5749:5752   */\n      dup6\n        /* \"#utility.yul\":5690:5761   */\n      tag_489\n      jump\t// in\n    tag_488:\n        /* \"#utility.yul\":5683:5761   */\n      swap4\n      pop\n        /* \"#utility.yul\":5770:5822   */\n      tag_490\n        /* \"#utility.yul\":5815:5821   */\n      dup2\n        /* \"#utility.yul\":5810:5813   */\n      dup6\n        /* \"#utility.yul\":5803:5807   */\n      0x20\n        /* \"#utility.yul\":5796:5801   */\n      dup7\n        /* \"#utility.yul\":5792:5808   */\n      add\n        /* \"#utility.yul\":5770:5822   */\n      tag_475\n      jump\t// in\n    tag_490:\n        /* \"#utility.yul\":5847:5876   */\n      tag_491\n        /* \"#utility.yul\":5869:5875   */\n      dup2\n        /* \"#utility.yul\":5847:5876   */\n      tag_492\n      jump\t// in\n    tag_491:\n        /* \"#utility.yul\":5842:5845   */\n      dup5\n        /* \"#utility.yul\":5838:5877   */\n      add\n        /* \"#utility.yul\":5831:5877   */\n      swap2\n      pop\n        /* \"#utility.yul\":5611:5883   */\n      pop\n        /* \"#utility.yul\":5519:5883   */\n      swap3\n      swap2\n      pop\n      pop\n      jump\t// out\n        /* \"#utility.yul\":5889:6255   */\n    tag_493:\n        /* \"#utility.yul\":6031:6034   */\n      0x00\n        /* \"#utility.yul\":6052:6119   */\n      tag_495\n        /* \"#utility.yul\":6116:6118   */\n      0x18\n        /* \"#utility.yul\":6111:6114   */\n      dup4\n        /* \"#utility.yul\":6052:6119   */\n      tag_489\n      jump\t// in\n    tag_495:\n        /* \"#utility.yul\":6045:6119   */\n      swap2\n      pop\n        /* \"#utility.yul\":6128:6221   */\n      tag_496\n        /* \"#utility.yul\":6217:6220   */\n      dup3\n        /* \"#utility.yul\":6128:6221   */\n      tag_497\n      jump\t// in\n    tag_496:\n        /* \"#utility.yul\":6246:6248   */\n      0x20\n        /* \"#utility.yul\":6241:6244   */\n      dup3\n        /* \"#utility.yul\":6237:6249   */\n      add\n        /* \"#utility.yul\":6230:6249   */\n      swap1\n      pop\n        /* \"#utility.yul\":5889:6255   */\n      swap2\n      swap1\n      pop\n      jump\t// out\n        /* \"#utility.yul\":6261:6627   */\n    tag_498:\n        /* \"#utility.yul\":6403:6406   */\n      0x00\n        /* \"#utility.yul\":6424:6491   */\n      tag_500\n        /* \"#utility.yul\":6488:6490   */\n      0x2a\n        /* \"#utility.yul\":6483:6486   */\n      dup4\n        /* \"#utility.yul\":6424:6491   */\n      tag_489\n      jump\t// in\n    tag_500:\n        /* \"#utility.yul\":6417:6491   */\n      swap2\n      pop\n        /* \"#utility.yul\":6500:6593   */\n      tag_501\n        /* \"#utility.yul\":6589:6592   */\n      dup3\n        /* \"#utility.yul\":6500:6593   */\n      tag_502\n      jump\t// in\n    tag_501:\n        /* \"#utility.yul\":6618:6620   */\n      0x40\n        /* \"#utility.yul\":6613:6616   */\n      dup3\n        /* \"#utility.yul\":6609:6621   */\n      add\n        /* \"#utility.yul\":6602:6621   */\n      swap1\n      pop\n        /* \"#utility.yul\":6261:6627   */\n      swap2\n      swap1\n      pop\n      jump\t// out\n        /* \"#utility.yul\":6633:6999   */\n    tag_503:\n        /* \"#utility.yul\":6775:6778   */\n      0x00\n        /* \"#utility.yul\":6796:6863   */\n      tag_505\n        /* \"#utility.yul\":6860:6862   */\n      0x26\n        /* \"#utility.yul\":6855:6858   */\n      dup4\n        /* \"#utility.yul\":6796:6863   */\n      tag_489\n      jump\t// in\n    tag_505:\n        /* \"#utility.yul\":6789:6863   */\n      swap2\n      pop\n        /* \"#utility.yul\":6872:6965   */\n      tag_506\n        /* \"#utility.yul\":6961:6964   */\n      dup3\n        /* \"#utility.yul\":6872:6965   */\n      tag_507\n      jump\t// in\n    tag_506:\n        /* \"#utility.yul\":6990:6992   */\n      0x40\n        /* \"#utility.yul\":6985:6988   */\n      dup3\n        /* \"#utility.yul\":6981:6993   */\n      add\n        /* \"#utility.yul\":6974:6993   */\n      swap1\n      pop\n        /* \"#utility.yul\":6633:6999   */\n      swap2\n      swap1\n      pop\n      jump\t// out\n        /* \"#utility.yul\":7005:7371   */\n    tag_508:\n        /* \"#utility.yul\":7147:7150   */\n      0x00\n        /* \"#utility.yul\":7168:7235   */\n      tag_510\n        /* \"#utility.yul\":7232:7234   */\n      0x31\n        /* \"#utility.yul\":7227:7230   */\n      dup4\n        /* \"#utility.yul\":7168:7235   */\n      tag_489\n      jump\t// in\n    tag_510:\n        /* \"#utility.yul\":7161:7235   */\n      swap2\n      pop\n        /* \"#utility.yul\":7244:7337   */\n      tag_511\n        /* \"#utility.yul\":7333:7336   */\n      dup3\n        /* \"#utility.yul\":7244:7337   */\n      tag_512\n      jump\t// in\n    tag_511:\n        /* \"#utility.yul\":7362:7364   */\n      0x40\n        /* \"#utility.yul\":7357:7360   */\n      dup3\n        /* \"#utility.yul\":7353:7365   */\n      add\n        /* \"#utility.yul\":7346:7365   */\n      swap1\n      pop\n        /* \"#utility.yul\":7005:7371   */\n      swap2\n      swap1\n      pop\n      jump\t// out\n        /* \"#utility.yul\":7377:7743   */\n    tag_513:\n        /* \"#utility.yul\":7519:7522   */\n      0x00\n        /* \"#utility.yul\":7540:7607   */\n      tag_515\n        /* \"#utility.yul\":7604:7606   */\n      0x20\n        /* \"#utility.yul\":7599:7602   */\n      dup4\n        /* \"#utility.yul\":7540:7607   */\n      tag_489\n      jump\t// in\n    tag_515:\n        /* \"#utility.yul\":7533:7607   */\n      swap2\n      pop\n        /* \"#utility.yul\":7616:7709   */\n      tag_516\n        /* \"#utility.yul\":7705:7708   */\n      dup3\n        /* \"#utility.yul\":7616:7709   */\n      tag_517\n      jump\t// in\n    tag_516:\n        /* \"#utility.yul\":7734:7736   */\n      0x20\n        /* \"#utility.yul\":7729:7732   */\n      dup3\n        /* \"#utility.yul\":7725:7737   */\n      add\n        /* \"#utility.yul\":7718:7737   */\n      swap1\n      pop\n        /* \"#utility.yul\":7377:7743   */\n      swap2\n      swap1\n      pop\n      jump\t// out\n        /* \"#utility.yul\":7749:8115   */\n    tag_518:\n        /* \"#utility.yul\":7891:7894   */\n      0x00\n        /* \"#utility.yul\":7912:7979   */\n      tag_520\n        /* \"#utility.yul\":7976:7978   */\n      0x22\n        /* \"#utility.yul\":7971:7974   */\n      dup4\n        /* \"#utility.yul\":7912:7979   */\n      tag_489\n      jump\t// in\n    tag_520:\n        /* \"#utility.yul\":7905:7979   */\n      swap2\n      pop\n        /* \"#utility.yul\":7988:8081   */\n      tag_521\n        /* \"#utility.yul\":8077:8080   */\n      dup3\n        /* \"#utility.yul\":7988:8081   */\n      tag_522\n      jump\t// in\n    tag_521:\n        /* \"#utility.yul\":8106:8108   */\n      0x40\n        /* \"#utility.yul\":8101:8104   */\n      dup3\n        /* \"#utility.yul\":8097:8109   */\n      add\n        /* \"#utility.yul\":8090:8109   */\n      swap1\n      pop\n        /* \"#utility.yul\":7749:8115   */\n      swap2\n      swap1\n      pop\n      jump\t// out\n        /* \"#utility.yul\":8121:8487   */\n    tag_523:\n        /* \"#utility.yul\":8263:8266   */\n      0x00\n        /* \"#utility.yul\":8284:8351   */\n      tag_525\n        /* \"#utility.yul\":8348:8350   */\n      0x20\n        /* \"#utility.yul\":8343:8346   */\n      dup4\n        /* \"#utility.yul\":8284:8351   */\n      tag_489\n      jump\t// in\n    tag_525:\n        /* \"#utility.yul\":8277:8351   */\n      swap2\n      pop\n        /* \"#utility.yul\":8360:8453   */\n      tag_526\n        /* \"#utility.yul\":8449:8452   */\n      dup3\n        /* \"#utility.yul\":8360:8453   */\n      tag_527\n      jump\t// in\n    tag_526:\n        /* \"#utility.yul\":8478:8480   */\n      0x20\n        /* \"#utility.yul\":8473:8476   */\n      dup3\n        /* \"#utility.yul\":8469:8481   */\n      add\n        /* \"#utility.yul\":8462:8481   */\n      swap1\n      pop\n        /* \"#utility.yul\":8121:8487   */\n      swap2\n      swap1\n      pop\n      jump\t// out\n        /* \"#utility.yul\":8493:8859   */\n    tag_528:\n        /* \"#utility.yul\":8635:8638   */\n      0x00\n        /* \"#utility.yul\":8656:8723   */\n      tag_530\n        /* \"#utility.yul\":8720:8722   */\n      0x1e\n        /* \"#utility.yul\":8715:8718   */\n      dup4\n        /* \"#utility.yul\":8656:8723   */\n      tag_489\n      jump\t// in\n    tag_530:\n        /* \"#utility.yul\":8649:8723   */\n      swap2\n      pop\n        /* \"#utility.yul\":8732:8825   */\n      tag_531\n        /* \"#utility.yul\":8821:8824   */\n      dup3\n        /* \"#utility.yul\":8732:8825   */\n      tag_532\n      jump\t// in\n    tag_531:\n        /* \"#utility.yul\":8850:8852   */\n      0x20\n        /* \"#utility.yul\":8845:8848   */\n      dup3\n        /* \"#utility.yul\":8841:8853   */\n      add\n        /* \"#utility.yul\":8834:8853   */\n      swap1\n      pop\n        /* \"#utility.yul\":8493:8859   */\n      swap2\n      swap1\n      pop\n      jump\t// out\n        /* \"#utility.yul\":8865:9231   */\n    tag_533:\n        /* \"#utility.yul\":9007:9010   */\n      0x00\n        /* \"#utility.yul\":9028:9095   */\n      tag_535\n        /* \"#utility.yul\":9092:9094   */\n      0x1d\n        /* \"#utility.yul\":9087:9090   */\n      dup4\n        /* \"#utility.yul\":9028:9095   */\n      tag_489\n      jump\t// in\n    tag_535:\n        /* \"#utility.yul\":9021:9095   */\n      swap2\n      pop\n        /* \"#utility.yul\":9104:9197   */\n      tag_536\n        /* \"#utility.yul\":9193:9196   */\n      dup3\n        /* \"#utility.yul\":9104:9197   */\n      tag_537\n      jump\t// in\n    tag_536:\n        /* \"#utility.yul\":9222:9224   */\n      0x20\n        /* \"#utility.yul\":9217:9220   */\n      dup3\n        /* \"#utility.yul\":9213:9225   */\n      add\n        /* \"#utility.yul\":9206:9225   */\n      swap1\n      pop\n        /* \"#utility.yul\":8865:9231   */\n      swap2\n      swap1\n      pop\n      jump\t// out\n        /* \"#utility.yul\":9237:9603   */\n    tag_538:\n        /* \"#utility.yul\":9379:9382   */\n      0x00\n        /* \"#utility.yul\":9400:9467   */\n      tag_540\n        /* \"#utility.yul\":9464:9466   */\n      0x39\n        /* \"#utility.yul\":9459:9462   */\n      dup4\n        /* \"#utility.yul\":9400:9467   */\n      tag_489\n      jump\t// in\n    tag_540:\n        /* \"#utility.yul\":9393:9467   */\n      swap2\n      pop\n        /* \"#utility.yul\":9476:9569   */\n      tag_541\n        /* \"#utility.yul\":9565:9568   */\n      dup3\n        /* \"#utility.yul\":9476:9569   */\n      tag_542\n      jump\t// in\n    tag_541:\n        /* \"#utility.yul\":9594:9596   */\n      0x40\n        /* \"#utility.yul\":9589:9592   */\n      dup3\n        /* \"#utility.yul\":9585:9597   */\n      add\n        /* \"#utility.yul\":9578:9597   */\n      swap1\n      pop\n        /* \"#utility.yul\":9237:9603   */\n      swap2\n      swap1\n      pop\n      jump\t// out\n        /* \"#utility.yul\":9609:9727   */\n    tag_543:\n        /* \"#utility.yul\":9696:9720   */\n      tag_545\n        /* \"#utility.yul\":9714:9719   */\n      dup2\n        /* \"#utility.yul\":9696:9720   */\n      tag_546\n      jump\t// in\n    tag_545:\n        /* \"#utility.yul\":9691:9694   */\n      dup3\n        /* \"#utility.yul\":9684:9721   */\n      mstore\n        /* \"#utility.yul\":9609:9727   */\n      pop\n      pop\n      jump\t// out\n        /* \"#utility.yul\":9733:10004   */\n    tag_380:\n        /* \"#utility.yul\":9863:9866   */\n      0x00\n        /* \"#utility.yul\":9885:9978   */\n      tag_548\n        /* \"#utility.yul\":9974:9977   */\n      dup3\n        /* \"#utility.yul\":9965:9971   */\n      dup5\n        /* \"#utility.yul\":9885:9978   */\n      tag_468\n      jump\t// in\n    tag_548:\n        /* \"#utility.yul\":9878:9978   */\n      swap2\n      pop\n        /* \"#utility.yul\":9995:9998   */\n      dup2\n        /* \"#utility.yul\":9988:9998   */\n      swap1\n      pop\n        /* \"#utility.yul\":9733:10004   */\n      swap3\n      swap2\n      pop\n      pop\n      jump\t// out\n        /* \"#utility.yul\":10010:10232   */\n    tag_67:\n        /* \"#utility.yul\":10103:10107   */\n      0x00\n        /* \"#utility.yul\":10141:10143   */\n      0x20\n        /* \"#utility.yul\":10130:10139   */\n      dup3\n        /* \"#utility.yul\":10126:10144   */\n      add\n        /* \"#utility.yul\":10118:10144   */\n      swap1\n      pop\n        /* \"#utility.yul\":10154:10225   */\n      tag_550\n        /* \"#utility.yul\":10222:10223   */\n      0x00\n        /* \"#utility.yul\":10211:10220   */\n      dup4\n        /* \"#utility.yul\":10207:10224   */\n      add\n        /* \"#utility.yul\":10198:10204   */\n      dup5\n        /* \"#utility.yul\":10154:10225   */\n      tag_455\n      jump\t// in\n    tag_550:\n        /* \"#utility.yul\":10010:10232   */\n      swap3\n      swap2\n      pop\n      pop\n      jump\t// out\n        /* \"#utility.yul\":10238:10680   */\n    tag_157:\n        /* \"#utility.yul\":10387:10391   */\n      0x00\n        /* \"#utility.yul\":10425:10427   */\n      0x60\n        /* \"#utility.yul\":10414:10423   */\n      dup3\n        /* \"#utility.yul\":10410:10428   */\n      add\n        /* \"#utility.yul\":10402:10428   */\n      swap1\n      pop\n        /* \"#utility.yul\":10438:10509   */\n      tag_552\n        /* \"#utility.yul\":10506:10507   */\n      0x00\n        /* \"#utility.yul\":10495:10504   */\n      dup4\n        /* \"#utility.yul\":10491:10508   */\n      add\n        /* \"#utility.yul\":10482:10488   */\n      dup7\n        /* \"#utility.yul\":10438:10509   */\n      tag_455\n      jump\t// in\n    tag_552:\n        /* \"#utility.yul\":10519:10591   */\n      tag_553\n        /* \"#utility.yul\":10587:10589   */\n      0x20\n        /* \"#utility.yul\":10576:10585   */\n      dup4\n        /* \"#utility.yul\":10572:10590   */\n      add\n        /* \"#utility.yul\":10563:10569   */\n      dup6\n        /* \"#utility.yul\":10519:10591   */\n      tag_455\n      jump\t// in\n    tag_553:\n        /* \"#utility.yul\":10601:10673   */\n      tag_554\n        /* \"#utility.yul\":10669:10671   */\n      0x40\n        /* \"#utility.yul\":10658:10667   */\n      dup4\n        /* \"#utility.yul\":10654:10672   */\n      add\n        /* \"#utility.yul\":10645:10651   */\n      dup5\n        /* \"#utility.yul\":10601:10673   */\n      tag_543\n      jump\t// in\n    tag_554:\n        /* \"#utility.yul\":10238:10680   */\n      swap5\n      swap4\n      pop\n      pop\n      pop\n      pop\n      jump\t// out\n        /* \"#utility.yul\":10686:11189   */\n    tag_163:\n        /* \"#utility.yul\":10867:10871   */\n      0x00\n        /* \"#utility.yul\":10905:10907   */\n      0x40\n        /* \"#utility.yul\":10894:10903   */\n      dup3\n        /* \"#utility.yul\":10890:10908   */\n      add\n        /* \"#utility.yul\":10882:10908   */\n      swap1\n      pop\n        /* \"#utility.yul\":10918:10989   */\n      tag_556\n        /* \"#utility.yul\":10986:10987   */\n      0x00\n        /* \"#utility.yul\":10975:10984   */\n      dup4\n        /* \"#utility.yul\":10971:10988   */\n      add\n        /* \"#utility.yul\":10962:10968   */\n      dup7\n        /* \"#utility.yul\":10918:10989   */\n      tag_455\n      jump\t// in\n    tag_556:\n        /* \"#utility.yul\":11036:11045   */\n      dup2\n        /* \"#utility.yul\":11030:11034   */\n      dup2\n        /* \"#utility.yul\":11026:11046   */\n      sub\n        /* \"#utility.yul\":11021:11023   */\n      0x20\n        /* \"#utility.yul\":11010:11019   */\n      dup4\n        /* \"#utility.yul\":11006:11024   */\n      add\n        /* \"#utility.yul\":10999:11047   */\n      mstore\n        /* \"#utility.yul\":11064:11182   */\n      tag_557\n        /* \"#utility.yul\":11177:11181   */\n      dup2\n        /* \"#utility.yul\":11168:11174   */\n      dup5\n        /* \"#utility.yul\":11160:11166   */\n      dup7\n        /* \"#utility.yul\":11064:11182   */\n      tag_459\n      jump\t// in\n    tag_557:\n        /* \"#utility.yul\":11056:11182   */\n      swap1\n      pop\n        /* \"#utility.yul\":10686:11189   */\n      swap5\n      swap4\n      pop\n      pop\n      pop\n      pop\n      jump\t// out\n        /* \"#utility.yul\":11195:11527   */\n    tag_359:\n        /* \"#utility.yul\":11316:11320   */\n      0x00\n        /* \"#utility.yul\":11354:11356   */\n      0x40\n        /* \"#utility.yul\":11343:11352   */\n      dup3\n        /* \"#utility.yul\":11339:11357   */\n      add\n        /* \"#utility.yul\":11331:11357   */\n      swap1\n      pop\n        /* \"#utility.yul\":11367:11438   */\n      tag_559\n        /* \"#utility.yul\":11435:11436   */\n      0x00\n        /* \"#utility.yul\":11424:11433   */\n      dup4\n        /* \"#utility.yul\":11420:11437   */\n      add\n        /* \"#utility.yul\":11411:11417   */\n      dup6\n        /* \"#utility.yul\":11367:11438   */\n      tag_455\n      jump\t// in\n    tag_559:\n        /* \"#utility.yul\":11448:11520   */\n      tag_560\n        /* \"#utility.yul\":11516:11518   */\n      0x20\n        /* \"#utility.yul\":11505:11514   */\n      dup4\n        /* \"#utility.yul\":11501:11519   */\n      add\n        /* \"#utility.yul\":11492:11498   */\n      dup5\n        /* \"#utility.yul\":11448:11520   */\n      tag_543\n      jump\t// in\n    tag_560:\n        /* \"#utility.yul\":11195:11527   */\n      swap4\n      swap3\n      pop\n      pop\n      pop\n      jump\t// out\n        /* \"#utility.yul\":11533:11975   */\n    tag_213:\n        /* \"#utility.yul\":11682:11686   */\n      0x00\n        /* \"#utility.yul\":11720:11722   */\n      0x60\n        /* \"#utility.yul\":11709:11718   */\n      dup3\n        /* \"#utility.yul\":11705:11723   */\n      add\n        /* \"#utility.yul\":11697:11723   */\n      swap1\n      pop\n        /* \"#utility.yul\":11733:11804   */\n      tag_562\n        /* \"#utility.yul\":11801:11802   */\n      0x00\n        /* \"#utility.yul\":11790:11799   */\n      dup4\n        /* \"#utility.yul\":11786:11803   */\n      add\n        /* \"#utility.yul\":11777:11783   */\n      dup7\n        /* \"#utility.yul\":11733:11804   */\n      tag_455\n      jump\t// in\n    tag_562:\n        /* \"#utility.yul\":11814:11886   */\n      tag_563\n        /* \"#utility.yul\":11882:11884   */\n      0x20\n        /* \"#utility.yul\":11871:11880   */\n      dup4\n        /* \"#utility.yul\":11867:11885   */\n      add\n        /* \"#utility.yul\":11858:11864   */\n      dup6\n        /* \"#utility.yul\":11814:11886   */\n      tag_543\n      jump\t// in\n    tag_563:\n        /* \"#utility.yul\":11896:11968   */\n      tag_564\n        /* \"#utility.yul\":11964:11966   */\n      0x40\n        /* \"#utility.yul\":11953:11962   */\n      dup4\n        /* \"#utility.yul\":11949:11967   */\n      add\n        /* \"#utility.yul\":11940:11946   */\n      dup5\n        /* \"#utility.yul\":11896:11968   */\n      tag_543\n      jump\t// in\n    tag_564:\n        /* \"#utility.yul\":11533:11975   */\n      swap5\n      swap4\n      pop\n      pop\n      pop\n      pop\n      jump\t// out\n        /* \"#utility.yul\":11981:12231   */\n    tag_39:\n        /* \"#utility.yul\":12088:12092   */\n      0x00\n        /* \"#utility.yul\":12126:12128   */\n      0x20\n        /* \"#utility.yul\":12115:12124   */\n      dup3\n        /* \"#utility.yul\":12111:12129   */\n      add\n        /* \"#utility.yul\":12103:12129   */\n      swap1\n      pop\n        /* \"#utility.yul\":12139:12224   */\n      tag_566\n        /* \"#utility.yul\":12221:12222   */\n      0x00\n        /* \"#utility.yul\":12210:12219   */\n      dup4\n        /* \"#utility.yul\":12206:12223   */\n      add\n        /* \"#utility.yul\":12197:12203   */\n      dup5\n        /* \"#utility.yul\":12139:12224   */\n      tag_476\n      jump\t// in\n    tag_566:\n        /* \"#utility.yul\":11981:12231   */\n      swap3\n      swap2\n      pop\n      pop\n      jump\t// out\n        /* \"#utility.yul\":12237:12491   */\n    tag_85:\n        /* \"#utility.yul\":12346:12350   */\n      0x00\n        /* \"#utility.yul\":12384:12386   */\n      0x20\n        /* \"#utility.yul\":12373:12382   */\n      dup3\n        /* \"#utility.yul\":12369:12387   */\n      add\n        /* \"#utility.yul\":12361:12387   */\n      swap1\n      pop\n        /* \"#utility.yul\":12397:12484   */\n      tag_568\n        /* \"#utility.yul\":12481:12482   */\n      0x00\n        /* \"#utility.yul\":12470:12479   */\n      dup4\n        /* \"#utility.yul\":12466:12483   */\n      add\n        /* \"#utility.yul\":12457:12463   */\n      dup5\n        /* \"#utility.yul\":12397:12484   */\n      tag_480\n      jump\t// in\n    tag_568:\n        /* \"#utility.yul\":12237:12491   */\n      swap3\n      swap2\n      pop\n      pop\n      jump\t// out\n        /* \"#utility.yul\":12497:12810   */\n    tag_389:\n        /* \"#utility.yul\":12610:12614   */\n      0x00\n        /* \"#utility.yul\":12648:12650   */\n      0x20\n        /* \"#utility.yul\":12637:12646   */\n      dup3\n        /* \"#utility.yul\":12633:12651   */\n      add\n        /* \"#utility.yul\":12625:12651   */\n      swap1\n      pop\n        /* \"#utility.yul\":12697:12706   */\n      dup2\n        /* \"#utility.yul\":12691:12695   */\n      dup2\n        /* \"#utility.yul\":12687:12707   */\n      sub\n        /* \"#utility.yul\":12683:12684   */\n      0x00\n        /* \"#utility.yul\":12672:12681   */\n      dup4\n        /* \"#utility.yul\":12668:12685   */\n      add\n        /* \"#utility.yul\":12661:12708   */\n      mstore\n        /* \"#utility.yul\":12725:12803   */\n      tag_570\n        /* \"#utility.yul\":12798:12802   */\n      dup2\n        /* \"#utility.yul\":12789:12795   */\n      dup5\n        /* \"#utility.yul\":12725:12803   */\n      tag_484\n      jump\t// in\n    tag_570:\n        /* \"#utility.yul\":12717:12803   */\n      swap1\n      pop\n        /* \"#utility.yul\":12497:12810   */\n      swap3\n      swap2\n      pop\n      pop\n      jump\t// out\n        /* \"#utility.yul\":12816:13235   */\n    tag_98:\n        /* \"#utility.yul\":12982:12986   */\n      0x00\n        /* \"#utility.yul\":13020:13022   */\n      0x20\n        /* \"#utility.yul\":13009:13018   */\n      dup3\n        /* \"#utility.yul\":13005:13023   */\n      add\n        /* \"#utility.yul\":12997:13023   */\n      swap1\n      pop\n        /* \"#utility.yul\":13069:13078   */\n      dup2\n        /* \"#utility.yul\":13063:13067   */\n      dup2\n        /* \"#utility.yul\":13059:13079   */\n      sub\n        /* \"#utility.yul\":13055:13056   */\n      0x00\n        /* \"#utility.yul\":13044:13053   */\n      dup4\n        /* \"#utility.yul\":13040:13057   */\n      add\n        /* \"#utility.yul\":13033:13080   */\n      mstore\n        /* \"#utility.yul\":13097:13228   */\n      tag_572\n        /* \"#utility.yul\":13223:13227   */\n      dup2\n        /* \"#utility.yul\":13097:13228   */\n      tag_493\n      jump\t// in\n    tag_572:\n        /* \"#utility.yul\":13089:13228   */\n      swap1\n      pop\n        /* \"#utility.yul\":12816:13235   */\n      swap2\n      swap1\n      pop\n      jump\t// out\n        /* \"#utility.yul\":13241:13660   */\n    tag_369:\n        /* \"#utility.yul\":13407:13411   */\n      0x00\n        /* \"#utility.yul\":13445:13447   */\n      0x20\n        /* \"#utility.yul\":13434:13443   */\n      dup3\n        /* \"#utility.yul\":13430:13448   */\n      add\n        /* \"#utility.yul\":13422:13448   */\n      swap1\n      pop\n        /* \"#utility.yul\":13494:13503   */\n      dup2\n        /* \"#utility.yul\":13488:13492   */\n      dup2\n        /* \"#utility.yul\":13484:13504   */\n      sub\n        /* \"#utility.yul\":13480:13481   */\n      0x00\n        /* \"#utility.yul\":13469:13478   */\n      dup4\n        /* \"#utility.yul\":13465:13482   */\n      add\n        /* \"#utility.yul\":13458:13505   */\n      mstore\n        /* \"#utility.yul\":13522:13653   */\n      tag_574\n        /* \"#utility.yul\":13648:13652   */\n      dup2\n        /* \"#utility.yul\":13522:13653   */\n      tag_498\n      jump\t// in\n    tag_574:\n        /* \"#utility.yul\":13514:13653   */\n      swap1\n      pop\n        /* \"#utility.yul\":13241:13660   */\n      swap2\n      swap1\n      pop\n      jump\t// out\n        /* \"#utility.yul\":13666:14085   */\n    tag_312:\n        /* \"#utility.yul\":13832:13836   */\n      0x00\n        /* \"#utility.yul\":13870:13872   */\n      0x20\n        /* \"#utility.yul\":13859:13868   */\n      dup3\n        /* \"#utility.yul\":13855:13873   */\n      add\n        /* \"#utility.yul\":13847:13873   */\n      swap1\n      pop\n        /* \"#utility.yul\":13919:13928   */\n      dup2\n        /* \"#utility.yul\":13913:13917   */\n      dup2\n        /* \"#utility.yul\":13909:13929   */\n      sub\n        /* \"#utility.yul\":13905:13906   */\n      0x00\n        /* \"#utility.yul\":13894:13903   */\n      dup4\n        /* \"#utility.yul\":13890:13907   */\n      add\n        /* \"#utility.yul\":13883:13930   */\n      mstore\n        /* \"#utility.yul\":13947:14078   */\n      tag_576\n        /* \"#utility.yul\":14073:14077   */\n      dup2\n        /* \"#utility.yul\":13947:14078   */\n      tag_503\n      jump\t// in\n    tag_576:\n        /* \"#utility.yul\":13939:14078   */\n      swap1\n      pop\n        /* \"#utility.yul\":13666:14085   */\n      swap2\n      swap1\n      pop\n      jump\t// out\n        /* \"#utility.yul\":14091:14510   */\n    tag_130:\n        /* \"#utility.yul\":14257:14261   */\n      0x00\n        /* \"#utility.yul\":14295:14297   */\n      0x20\n        /* \"#utility.yul\":14284:14293   */\n      dup3\n        /* \"#utility.yul\":14280:14298   */\n      add\n        /* \"#utility.yul\":14272:14298   */\n      swap1\n      pop\n        /* \"#utility.yul\":14344:14353   */\n      dup2\n        /* \"#utility.yul\":14338:14342   */\n      dup2\n        /* \"#utility.yul\":14334:14354   */\n      sub\n        /* \"#utility.yul\":14330:14331   */\n      0x00\n        /* \"#utility.yul\":14319:14328   */\n      dup4\n        /* \"#utility.yul\":14315:14332   */\n      add\n        /* \"#utility.yul\":14308:14355   */\n      mstore\n        /* \"#utility.yul\":14372:14503   */\n      tag_578\n        /* \"#utility.yul\":14498:14502   */\n      dup2\n        /* \"#utility.yul\":14372:14503   */\n      tag_508\n      jump\t// in\n    tag_578:\n        /* \"#utility.yul\":14364:14503   */\n      swap1\n      pop\n        /* \"#utility.yul\":14091:14510   */\n      swap2\n      swap1\n      pop\n      jump\t// out\n        /* \"#utility.yul\":14516:14935   */\n    tag_113:\n        /* \"#utility.yul\":14682:14686   */\n      0x00\n        /* \"#utility.yul\":14720:14722   */\n      0x20\n        /* \"#utility.yul\":14709:14718   */\n      dup3\n        /* \"#utility.yul\":14705:14723   */\n      add\n        /* \"#utility.yul\":14697:14723   */\n      swap1\n      pop\n        /* \"#utility.yul\":14769:14778   */\n      dup2\n        /* \"#utility.yul\":14763:14767   */\n      dup2\n        /* \"#utility.yul\":14759:14779   */\n      sub\n        /* \"#utility.yul\":14755:14756   */\n      0x00\n        /* \"#utility.yul\":14744:14753   */\n      dup4\n        /* \"#utility.yul\":14740:14757   */\n      add\n        /* \"#utility.yul\":14733:14780   */\n      mstore\n        /* \"#utility.yul\":14797:14928   */\n      tag_580\n        /* \"#utility.yul\":14923:14927   */\n      dup2\n        /* \"#utility.yul\":14797:14928   */\n      tag_513\n      jump\t// in\n    tag_580:\n        /* \"#utility.yul\":14789:14928   */\n      swap1\n      pop\n        /* \"#utility.yul\":14516:14935   */\n      swap2\n      swap1\n      pop\n      jump\t// out\n        /* \"#utility.yul\":14941:15360   */\n    tag_118:\n        /* \"#utility.yul\":15107:15111   */\n      0x00\n        /* \"#utility.yul\":15145:15147   */\n      0x20\n        /* \"#utility.yul\":15134:15143   */\n      dup3\n        /* \"#utility.yul\":15130:15148   */\n      add\n        /* \"#utility.yul\":15122:15148   */\n      swap1\n      pop\n        /* \"#utility.yul\":15194:15203   */\n      dup2\n        /* \"#utility.yul\":15188:15192   */\n      dup2\n        /* \"#utility.yul\":15184:15204   */\n      sub\n        /* \"#utility.yul\":15180:15181   */\n      0x00\n        /* \"#utility.yul\":15169:15178   */\n      dup4\n        /* \"#utility.yul\":15165:15182   */\n      add\n        /* \"#utility.yul\":15158:15205   */\n      mstore\n        /* \"#utility.yul\":15222:15353   */\n      tag_582\n        /* \"#utility.yul\":15348:15352   */\n      dup2\n        /* \"#utility.yul\":15222:15353   */\n      tag_518\n      jump\t// in\n    tag_582:\n        /* \"#utility.yul\":15214:15353   */\n      swap1\n      pop\n        /* \"#utility.yul\":14941:15360   */\n      swap2\n      swap1\n      pop\n      jump\t// out\n        /* \"#utility.yul\":15366:15785   */\n    tag_170:\n        /* \"#utility.yul\":15532:15536   */\n      0x00\n        /* \"#utility.yul\":15570:15572   */\n      0x20\n        /* \"#utility.yul\":15559:15568   */\n      dup3\n        /* \"#utility.yul\":15555:15573   */\n      add\n        /* \"#utility.yul\":15547:15573   */\n      swap1\n      pop\n        /* \"#utility.yul\":15619:15628   */\n      dup2\n        /* \"#utility.yul\":15613:15617   */\n      dup2\n        /* \"#utility.yul\":15609:15629   */\n      sub\n        /* \"#utility.yul\":15605:15606   */\n      0x00\n        /* \"#utility.yul\":15594:15603   */\n      dup4\n        /* \"#utility.yul\":15590:15607   */\n      add\n        /* \"#utility.yul\":15583:15630   */\n      mstore\n        /* \"#utility.yul\":15647:15778   */\n      tag_584\n        /* \"#utility.yul\":15773:15777   */\n      dup2\n        /* \"#utility.yul\":15647:15778   */\n      tag_523\n      jump\t// in\n    tag_584:\n        /* \"#utility.yul\":15639:15778   */\n      swap1\n      pop\n        /* \"#utility.yul\":15366:15785   */\n      swap2\n      swap1\n      pop\n      jump\t// out\n        /* \"#utility.yul\":15791:16210   */\n    tag_237:\n        /* \"#utility.yul\":15957:15961   */\n      0x00\n        /* \"#utility.yul\":15995:15997   */\n      0x20\n        /* \"#utility.yul\":15984:15993   */\n      dup3\n        /* \"#utility.yul\":15980:15998   */\n      add\n        /* \"#utility.yul\":15972:15998   */\n      swap1\n      pop\n        /* \"#utility.yul\":16044:16053   */\n      dup2\n        /* \"#utility.yul\":16038:16042   */\n      dup2\n        /* \"#utility.yul\":16034:16054   */\n      sub\n        /* \"#utility.yul\":16030:16031   */\n      0x00\n        /* \"#utility.yul\":16019:16028   */\n      dup4\n        /* \"#utility.yul\":16015:16032   */\n      add\n        /* \"#utility.yul\":16008:16055   */\n      mstore\n        /* \"#utility.yul\":16072:16203   */\n      tag_586\n        /* \"#utility.yul\":16198:16202   */\n      dup2\n        /* \"#utility.yul\":16072:16203   */\n      tag_528\n      jump\t// in\n    tag_586:\n        /* \"#utility.yul\":16064:16203   */\n      swap1\n      pop\n        /* \"#utility.yul\":15791:16210   */\n      swap2\n      swap1\n      pop\n      jump\t// out\n        /* \"#utility.yul\":16216:16635   */\n    tag_378:\n        /* \"#utility.yul\":16382:16386   */\n      0x00\n        /* \"#utility.yul\":16420:16422   */\n      0x20\n        /* \"#utility.yul\":16409:16418   */\n      dup3\n        /* \"#utility.yul\":16405:16423   */\n      add\n        /* \"#utility.yul\":16397:16423   */\n      swap1\n      pop\n        /* \"#utility.yul\":16469:16478   */\n      dup2\n        /* \"#utility.yul\":16463:16467   */\n      dup2\n        /* \"#utility.yul\":16459:16479   */\n      sub\n        /* \"#utility.yul\":16455:16456   */\n      0x00\n        /* \"#utility.yul\":16444:16453   */\n      dup4\n        /* \"#utility.yul\":16440:16457   */\n      add\n        /* \"#utility.yul\":16433:16480   */\n      mstore\n        /* \"#utility.yul\":16497:16628   */\n      tag_588\n        /* \"#utility.yul\":16623:16627   */\n      dup2\n        /* \"#utility.yul\":16497:16628   */\n      tag_533\n      jump\t// in\n    tag_588:\n        /* \"#utility.yul\":16489:16628   */\n      swap1\n      pop\n        /* \"#utility.yul\":16216:16635   */\n      swap2\n      swap1\n      pop\n      jump\t// out\n        /* \"#utility.yul\":16641:17060   */\n    tag_258:\n        /* \"#utility.yul\":16807:16811   */\n      0x00\n        /* \"#utility.yul\":16845:16847   */\n      0x20\n        /* \"#utility.yul\":16834:16843   */\n      dup3\n        /* \"#utility.yul\":16830:16848   */\n      add\n        /* \"#utility.yul\":16822:16848   */\n      swap1\n      pop\n        /* \"#utility.yul\":16894:16903   */\n      dup2\n        /* \"#utility.yul\":16888:16892   */\n      dup2\n        /* \"#utility.yul\":16884:16904   */\n      sub\n        /* \"#utility.yul\":16880:16881   */\n      0x00\n        /* \"#utility.yul\":16869:16878   */\n      dup4\n        /* \"#utility.yul\":16865:16882   */\n      add\n        /* \"#utility.yul\":16858:16905   */\n      mstore\n        /* \"#utility.yul\":16922:17053   */\n      tag_590\n        /* \"#utility.yul\":17048:17052   */\n      dup2\n        /* \"#utility.yul\":16922:17053   */\n      tag_538\n      jump\t// in\n    tag_590:\n        /* \"#utility.yul\":16914:17053   */\n      swap1\n      pop\n        /* \"#utility.yul\":16641:17060   */\n      swap2\n      swap1\n      pop\n      jump\t// out\n        /* \"#utility.yul\":17066:17288   */\n    tag_47:\n        /* \"#utility.yul\":17159:17163   */\n      0x00\n        /* \"#utility.yul\":17197:17199   */\n      0x20\n        /* \"#utility.yul\":17186:17195   */\n      dup3\n        /* \"#utility.yul\":17182:17200   */\n      add\n        /* \"#utility.yul\":17174:17200   */\n      swap1\n      pop\n        /* \"#utility.yul\":17210:17281   */\n      tag_592\n        /* \"#utility.yul\":17278:17279   */\n      0x00\n        /* \"#utility.yul\":17267:17276   */\n      dup4\n        /* \"#utility.yul\":17263:17280   */\n      add\n        /* \"#utility.yul\":17254:17260   */\n      dup5\n        /* \"#utility.yul\":17210:17281   */\n      tag_543\n      jump\t// in\n    tag_592:\n        /* \"#utility.yul\":17066:17288   */\n      swap3\n      swap2\n      pop\n      pop\n      jump\t// out\n        /* \"#utility.yul\":17294:17847   */\n    tag_35:\n        /* \"#utility.yul\":17471:17475   */\n      0x00\n        /* \"#utility.yul\":17509:17512   */\n      0x80\n        /* \"#utility.yul\":17498:17507   */\n      dup3\n        /* \"#utility.yul\":17494:17513   */\n      add\n        /* \"#utility.yul\":17486:17513   */\n      swap1\n      pop\n        /* \"#utility.yul\":17523:17594   */\n      tag_594\n        /* \"#utility.yul\":17591:17592   */\n      0x00\n        /* \"#utility.yul\":17580:17589   */\n      dup4\n        /* \"#utility.yul\":17576:17593   */\n      add\n        /* \"#utility.yul\":17567:17573   */\n      dup8\n        /* \"#utility.yul\":17523:17594   */\n      tag_543\n      jump\t// in\n    tag_594:\n        /* \"#utility.yul\":17604:17676   */\n      tag_595\n        /* \"#utility.yul\":17672:17674   */\n      0x20\n        /* \"#utility.yul\":17661:17670   */\n      dup4\n        /* \"#utility.yul\":17657:17675   */\n      add\n        /* \"#utility.yul\":17648:17654   */\n      dup7\n        /* \"#utility.yul\":17604:17676   */\n      tag_543\n      jump\t// in\n    tag_595:\n        /* \"#utility.yul\":17686:17758   */\n      tag_596\n        /* \"#utility.yul\":17754:17756   */\n      0x40\n        /* \"#utility.yul\":17743:17752   */\n      dup4\n        /* \"#utility.yul\":17739:17757   */\n      add\n        /* \"#utility.yul\":17730:17736   */\n      dup6\n        /* \"#utility.yul\":17686:17758   */\n      tag_543\n      jump\t// in\n    tag_596:\n        /* \"#utility.yul\":17768:17840   */\n      tag_597\n        /* \"#utility.yul\":17836:17838   */\n      0x60\n        /* \"#utility.yul\":17825:17834   */\n      dup4\n        /* \"#utility.yul\":17821:17839   */\n      add\n        /* \"#utility.yul\":17812:17818   */\n      dup5\n        /* \"#utility.yul\":17768:17840   */\n      tag_543\n      jump\t// in\n    tag_597:\n        /* \"#utility.yul\":17294:17847   */\n      swap6\n      swap5\n      pop\n      pop\n      pop\n      pop\n      pop\n      jump\t// out\n        /* \"#utility.yul\":17934:18032   */\n    tag_471:\n        /* \"#utility.yul\":17985:17991   */\n      0x00\n        /* \"#utility.yul\":18019:18024   */\n      dup2\n        /* \"#utility.yul\":18013:18025   */\n      mload\n        /* \"#utility.yul\":18003:18025   */\n      swap1\n      pop\n        /* \"#utility.yul\":17934:18032   */\n      swap2\n      swap1\n      pop\n      jump\t// out\n        /* \"#utility.yul\":18038:18137   */\n    tag_487:\n        /* \"#utility.yul\":18090:18096   */\n      0x00\n        /* \"#utility.yul\":18124:18129   */\n      dup2\n        /* \"#utility.yul\":18118:18130   */\n      mload\n        /* \"#utility.yul\":18108:18130   */\n      swap1\n      pop\n        /* \"#utility.yul\":18038:18137   */\n      swap2\n      swap1\n      pop\n      jump\t// out\n        /* \"#utility.yul\":18143:18327   */\n    tag_462:\n        /* \"#utility.yul\":18242:18253   */\n      0x00\n        /* \"#utility.yul\":18276:18282   */\n      dup3\n        /* \"#utility.yul\":18271:18274   */\n      dup3\n        /* \"#utility.yul\":18264:18283   */\n      mstore\n        /* \"#utility.yul\":18316:18320   */\n      0x20\n        /* \"#utility.yul\":18311:18314   */\n      dup3\n        /* \"#utility.yul\":18307:18321   */\n      add\n        /* \"#utility.yul\":18292:18321   */\n      swap1\n      pop\n        /* \"#utility.yul\":18143:18327   */\n      swap3\n      swap2\n      pop\n      pop\n      jump\t// out\n        /* \"#utility.yul\":18333:18480   */\n    tag_473:\n        /* \"#utility.yul\":18434:18445   */\n      0x00\n        /* \"#utility.yul\":18471:18474   */\n      dup2\n        /* \"#utility.yul\":18456:18474   */\n      swap1\n      pop\n        /* \"#utility.yul\":18333:18480   */\n      swap3\n      swap2\n      pop\n      pop\n      jump\t// out\n        /* \"#utility.yul\":18486:18655   */\n    tag_489:\n        /* \"#utility.yul\":18570:18581   */\n      0x00\n        /* \"#utility.yul\":18604:18610   */\n      dup3\n        /* \"#utility.yul\":18599:18602   */\n      dup3\n        /* \"#utility.yul\":18592:18611   */\n      mstore\n        /* \"#utility.yul\":18644:18648   */\n      0x20\n        /* \"#utility.yul\":18639:18642   */\n      dup3\n        /* \"#utility.yul\":18635:18649   */\n      add\n        /* \"#utility.yul\":18620:18649   */\n      swap1\n      pop\n        /* \"#utility.yul\":18486:18655   */\n      swap3\n      swap2\n      pop\n      pop\n      jump\t// out\n        /* \"#utility.yul\":18661:18966   */\n    tag_123:\n        /* \"#utility.yul\":18701:18704   */\n      0x00\n        /* \"#utility.yul\":18720:18740   */\n      tag_606\n        /* \"#utility.yul\":18738:18739   */\n      dup3\n        /* \"#utility.yul\":18720:18740   */\n      tag_546\n      jump\t// in\n    tag_606:\n        /* \"#utility.yul\":18715:18740   */\n      swap2\n      pop\n        /* \"#utility.yul\":18754:18774   */\n      tag_607\n        /* \"#utility.yul\":18772:18773   */\n      dup4\n        /* \"#utility.yul\":18754:18774   */\n      tag_546\n      jump\t// in\n    tag_607:\n        /* \"#utility.yul\":18749:18774   */\n      swap3\n      pop\n        /* \"#utility.yul\":18908:18909   */\n      dup3\n        /* \"#utility.yul\":18840:18906   */\n      0xffffffffffffffffffffffffffffffffffffffffffffffffffffffffffffffff\n        /* \"#utility.yul\":18836:18910   */\n      sub\n        /* \"#utility.yul\":18833:18834   */\n      dup3\n        /* \"#utility.yul\":18830:18911   */\n      gt\n        /* \"#utility.yul\":18827:18934   */\n      iszero\n      tag_608\n      jumpi\n        /* \"#utility.yul\":18914:18932   */\n      tag_609\n      tag_610\n      jump\t// in\n    tag_609:\n        /* \"#utility.yul\":18827:18934   */\n    tag_608:\n        /* \"#utility.yul\":18958:18959   */\n      dup3\n        /* \"#utility.yul\":18955:18956   */\n      dup3\n        /* \"#utility.yul\":18951:18960   */\n      add\n        /* \"#utility.yul\":18944:18960   */\n      swap1\n      pop\n        /* \"#utility.yul\":18661:18966   */\n      swap3\n      swap2\n      pop\n      pop\n      jump\t// out\n        /* \"#utility.yul\":18972:19157   */\n    tag_334:\n        /* \"#utility.yul\":19012:19013   */\n      0x00\n        /* \"#utility.yul\":19029:19049   */\n      tag_612\n        /* \"#utility.yul\":19047:19048   */\n      dup3\n        /* \"#utility.yul\":19029:19049   */\n      tag_546\n      jump\t// in\n    tag_612:\n        /* \"#utility.yul\":19024:19049   */\n      swap2\n      pop\n        /* \"#utility.yul\":19063:19083   */\n      tag_613\n        /* \"#utility.yul\":19081:19082   */\n      dup4\n        /* \"#utility.yul\":19063:19083   */\n      tag_546\n      jump\t// in\n    tag_613:\n        /* \"#utility.yul\":19058:19083   */\n      swap3\n      pop\n        /* \"#utility.yul\":19102:19103   */\n      dup3\n        /* \"#utility.yul\":19092:19127   */\n      tag_614\n      jumpi\n        /* \"#utility.yul\":19107:19125   */\n      tag_615\n      tag_616\n      jump\t// in\n    tag_615:\n        /* \"#utility.yul\":19092:19127   */\n    tag_614:\n        /* \"#utility.yul\":19149:19150   */\n      dup3\n        /* \"#utility.yul\":19146:19147   */\n      dup3\n        /* \"#utility.yul\":19142:19151   */\n      div\n        /* \"#utility.yul\":19137:19151   */\n      swap1\n      pop\n        /* \"#utility.yul\":18972:19157   */\n      swap3\n      swap2\n      pop\n      pop\n      jump\t// out\n        /* \"#utility.yul\":19163:19511   */\n    tag_331:\n        /* \"#utility.yul\":19203:19210   */\n      0x00\n        /* \"#utility.yul\":19226:19246   */\n      tag_618\n        /* \"#utility.yul\":19244:19245   */\n      dup3\n        /* \"#utility.yul\":19226:19246   */\n      tag_546\n      jump\t// in\n    tag_618:\n        /* \"#utility.yul\":19221:19246   */\n      swap2\n      pop\n        /* \"#utility.yul\":19260:19280   */\n      tag_619\n        /* \"#utility.yul\":19278:19279   */\n      dup4\n        /* \"#utility.yul\":19260:19280   */\n      tag_546\n      jump\t// in\n    tag_619:\n        /* \"#utility.yul\":19255:19280   */\n      swap3\n      pop\n        /* \"#utility.yul\":19448:19449   */\n      dup2\n        /* \"#utility.yul\":19380:19446   */\n      0xffffffffffffffffffffffffffffffffffffffffffffffffffffffffffffffff\n        /* \"#utility.yul\":19376:19450   */\n      div\n        /* \"#utility.yul\":19373:19374   */\n      dup4\n        /* \"#utility.yul\":19370:19451   */\n      gt\n        /* \"#utility.yul\":19365:19366   */\n      dup3\n        /* \"#utility.yul\":19358:19367   */\n      iszero\n        /* \"#utility.yul\":19351:19368   */\n      iszero\n        /* \"#utility.yul\":19347:19452   */\n      and\n        /* \"#utility.yul\":19344:19475   */\n      iszero\n      tag_620\n      jumpi\n        /* \"#utility.yul\":19455:19473   */\n      tag_621\n      tag_610\n      jump\t// in\n    tag_621:\n        /* \"#utility.yul\":19344:19475   */\n    tag_620:\n        /* \"#utility.yul\":19503:19504   */\n      dup3\n        /* \"#utility.yul\":19500:19501   */\n      dup3\n        /* \"#utility.yul\":19496:19505   */\n      mul\n        /* \"#utility.yul\":19485:19505   */\n      swap1\n      pop\n        /* \"#utility.yul\":19163:19511   */\n      swap3\n      swap2\n      pop\n      pop\n      jump\t// out\n        /* \"#utility.yul\":19517:19708   */\n    tag_182:\n        /* \"#utility.yul\":19557:19561   */\n      0x00\n        /* \"#utility.yul\":19577:19597   */\n      tag_623\n        /* \"#utility.yul\":19595:19596   */\n      dup3\n        /* \"#utility.yul\":19577:19597   */\n      tag_546\n      jump\t// in\n    tag_623:\n        /* \"#utility.yul\":19572:19597   */\n      swap2\n      pop\n        /* \"#utility.yul\":19611:19631   */\n      tag_624\n        /* \"#utility.yul\":19629:19630   */\n      dup4\n        /* \"#utility.yul\":19611:19631   */\n      tag_546\n      jump\t// in\n    tag_624:\n        /* \"#utility.yul\":19606:19631   */\n      swap3\n      pop\n        /* \"#utility.yul\":19650:19651   */\n      dup3\n        /* \"#utility.yul\":19647:19648   */\n      dup3\n        /* \"#utility.yul\":19644:19652   */\n      lt\n        /* \"#utility.yul\":19641:19675   */\n      iszero\n      tag_625\n      jumpi\n        /* \"#utility.yul\":19655:19673   */\n      tag_626\n      tag_610\n      jump\t// in\n    tag_626:\n        /* \"#utility.yul\":19641:19675   */\n    tag_625:\n        /* \"#utility.yul\":19700:19701   */\n      dup3\n        /* \"#utility.yul\":19697:19698   */\n      dup3\n        /* \"#utility.yul\":19693:19702   */\n      sub\n        /* \"#utility.yul\":19685:19702   */\n      swap1\n      pop\n        /* \"#utility.yul\":19517:19708   */\n      swap3\n      swap2\n      pop\n      pop\n      jump\t// out\n        /* \"#utility.yul\":19714:19810   */\n    tag_458:\n        /* \"#utility.yul\":19751:19758   */\n      0x00\n        /* \"#utility.yul\":19780:19804   */\n      tag_628\n        /* \"#utility.yul\":19798:19803   */\n      dup3\n        /* \"#utility.yul\":19780:19804   */\n      tag_629\n      jump\t// in\n    tag_628:\n        /* \"#utility.yul\":19769:19804   */\n      swap1\n      pop\n        /* \"#utility.yul\":19714:19810   */\n      swap2\n      swap1\n      pop\n      jump\t// out\n        /* \"#utility.yul\":19816:19906   */\n    tag_630:\n        /* \"#utility.yul\":19850:19857   */\n      0x00\n        /* \"#utility.yul\":19893:19898   */\n      dup2\n        /* \"#utility.yul\":19886:19899   */\n      iszero\n        /* \"#utility.yul\":19879:19900   */\n      iszero\n        /* \"#utility.yul\":19868:19900   */\n      swap1\n      pop\n        /* \"#utility.yul\":19816:19906   */\n      swap2\n      swap1\n      pop\n      jump\t// out\n        /* \"#utility.yul\":19912:20038   */\n    tag_629:\n        /* \"#utility.yul\":19949:19956   */\n      0x00\n        /* \"#utility.yul\":19989:20031   */\n      0xffffffffffffffffffffffffffffffffffffffff\n        /* \"#utility.yul\":19982:19987   */\n      dup3\n        /* \"#utility.yul\":19978:20032   */\n      and\n        /* \"#utility.yul\":19967:20032   */\n      swap1\n      pop\n        /* \"#utility.yul\":19912:20038   */\n      swap2\n      swap1\n      pop\n      jump\t// out\n        /* \"#utility.yul\":20044:20121   */\n    tag_546:\n        /* \"#utility.yul\":20081:20088   */\n      0x00\n        /* \"#utility.yul\":20110:20115   */\n      dup2\n        /* \"#utility.yul\":20099:20115   */\n      swap1\n      pop\n        /* \"#utility.yul\":20044:20121   */\n      swap2\n      swap1\n      pop\n      jump\t// out\n        /* \"#utility.yul\":20127:20267   */\n    tag_479:\n        /* \"#utility.yul\":20191:20200   */\n      0x00\n        /* \"#utility.yul\":20224:20261   */\n      tag_635\n        /* \"#utility.yul\":20255:20260   */\n      dup3\n        /* \"#utility.yul\":20224:20261   */\n      tag_636\n      jump\t// in\n    tag_635:\n        /* \"#utility.yul\":20211:20261   */\n      swap1\n      pop\n        /* \"#utility.yul\":20127:20267   */\n      swap2\n      swap1\n      pop\n      jump\t// out\n        /* \"#utility.yul\":20273:20415   */\n    tag_483:\n        /* \"#utility.yul\":20339:20348   */\n      0x00\n        /* \"#utility.yul\":20372:20409   */\n      tag_638\n        /* \"#utility.yul\":20403:20408   */\n      dup3\n        /* \"#utility.yul\":20372:20409   */\n      tag_636\n      jump\t// in\n    tag_638:\n        /* \"#utility.yul\":20359:20409   */\n      swap1\n      pop\n        /* \"#utility.yul\":20273:20415   */\n      swap2\n      swap1\n      pop\n      jump\t// out\n        /* \"#utility.yul\":20421:20547   */\n    tag_636:\n        /* \"#utility.yul\":20471:20480   */\n      0x00\n        /* \"#utility.yul\":20504:20541   */\n      tag_640\n        /* \"#utility.yul\":20535:20540   */\n      dup3\n        /* \"#utility.yul\":20504:20541   */\n      tag_641\n      jump\t// in\n    tag_640:\n        /* \"#utility.yul\":20491:20541   */\n      swap1\n      pop\n        /* \"#utility.yul\":20421:20547   */\n      swap2\n      swap1\n      pop\n      jump\t// out\n        /* \"#utility.yul\":20553:20666   */\n    tag_641:\n        /* \"#utility.yul\":20603:20612   */\n      0x00\n        /* \"#utility.yul\":20636:20660   */\n      tag_643\n        /* \"#utility.yul\":20654:20659   */\n      dup3\n        /* \"#utility.yul\":20636:20660   */\n      tag_629\n      jump\t// in\n    tag_643:\n        /* \"#utility.yul\":20623:20660   */\n      swap1\n      pop\n        /* \"#utility.yul\":20553:20666   */\n      swap2\n      swap1\n      pop\n      jump\t// out\n        /* \"#utility.yul\":20672:20826   */\n    tag_467:\n        /* \"#utility.yul\":20756:20762   */\n      dup3\n        /* \"#utility.yul\":20751:20754   */\n      dup2\n        /* \"#utility.yul\":20746:20749   */\n      dup4\n        /* \"#utility.yul\":20733:20763   */\n      calldatacopy\n        /* \"#utility.yul\":20818:20819   */\n      0x00\n        /* \"#utility.yul\":20809:20815   */\n      dup4\n        /* \"#utility.yul\":20804:20807   */\n      dup4\n        /* \"#utility.yul\":20800:20816   */\n      add\n        /* \"#utility.yul\":20793:20820   */\n      mstore\n        /* \"#utility.yul\":20672:20826   */\n      pop\n      pop\n      pop\n      jump\t// out\n        /* \"#utility.yul\":20832:21139   */\n    tag_475:\n        /* \"#utility.yul\":20900:20901   */\n      0x00\n        /* \"#utility.yul\":20910:21023   */\n    tag_646:\n        /* \"#utility.yul\":20924:20930   */\n      dup4\n        /* \"#utility.yul\":20921:20922   */\n      dup2\n        /* \"#utility.yul\":20918:20931   */\n      lt\n        /* \"#utility.yul\":20910:21023   */\n      iszero\n      tag_648\n      jumpi\n        /* \"#utility.yul\":21009:21010   */\n      dup1\n        /* \"#utility.yul\":21004:21007   */\n      dup3\n        /* \"#utility.yul\":21000:21011   */\n      add\n        /* \"#utility.yul\":20994:21012   */\n      mload\n        /* \"#utility.yul\":20990:20991   */\n      dup2\n        /* \"#utility.yul\":20985:20988   */\n      dup5\n        /* \"#utility.yul\":20981:20992   */\n      add\n        /* \"#utility.yul\":20974:21013   */\n      mstore\n        /* \"#utility.yul\":20946:20948   */\n      0x20\n        /* \"#utility.yul\":20943:20944   */\n      dup2\n        /* \"#utility.yul\":20939:20949   */\n      add\n        /* \"#utility.yul\":20934:20949   */\n      swap1\n      pop\n        /* \"#utility.yul\":20910:21023   */\n      jump(tag_646)\n    tag_648:\n        /* \"#utility.yul\":21041:21047   */\n      dup4\n        /* \"#utility.yul\":21038:21039   */\n      dup2\n        /* \"#utility.yul\":21035:21048   */\n      gt\n        /* \"#utility.yul\":21032:21133   */\n      iszero\n      tag_649\n      jumpi\n        /* \"#utility.yul\":21121:21122   */\n      0x00\n        /* \"#utility.yul\":21112:21118   */\n      dup5\n        /* \"#utility.yul\":21107:21110   */\n      dup5\n        /* \"#utility.yul\":21103:21119   */\n      add\n        /* \"#utility.yul\":21096:21123   */\n      mstore\n        /* \"#utility.yul\":21032:21133   */\n    tag_649:\n        /* \"#utility.yul\":20881:21139   */\n      pop\n        /* \"#utility.yul\":20832:21139   */\n      pop\n      pop\n      pop\n      jump\t// out\n        /* \"#utility.yul\":21145:21378   */\n    tag_132:\n        /* \"#utility.yul\":21184:21187   */\n      0x00\n        /* \"#utility.yul\":21207:21231   */\n      tag_651\n        /* \"#utility.yul\":21225:21230   */\n      dup3\n        /* \"#utility.yul\":21207:21231   */\n      tag_546\n      jump\t// in\n    tag_651:\n        /* \"#utility.yul\":21198:21231   */\n      swap2\n      pop\n        /* \"#utility.yul\":21253:21319   */\n      0xffffffffffffffffffffffffffffffffffffffffffffffffffffffffffffffff\n        /* \"#utility.yul\":21246:21251   */\n      dup3\n        /* \"#utility.yul\":21243:21320   */\n      eq\n        /* \"#utility.yul\":21240:21343   */\n      iszero\n      tag_652\n      jumpi\n        /* \"#utility.yul\":21323:21341   */\n      tag_653\n      tag_610\n      jump\t// in\n    tag_653:\n        /* \"#utility.yul\":21240:21343   */\n    tag_652:\n        /* \"#utility.yul\":21370:21371   */\n      0x01\n        /* \"#utility.yul\":21363:21368   */\n      dup3\n        /* \"#utility.yul\":21359:21372   */\n      add\n        /* \"#utility.yul\":21352:21372   */\n      swap1\n      pop\n        /* \"#utility.yul\":21145:21378   */\n      swap2\n      swap1\n      pop\n      jump\t// out\n        /* \"#utility.yul\":21384:21564   */\n    tag_610:\n        /* \"#utility.yul\":21432:21509   */\n      0x4e487b7100000000000000000000000000000000000000000000000000000000\n        /* \"#utility.yul\":21429:21430   */\n      0x00\n        /* \"#utility.yul\":21422:21510   */\n      mstore\n        /* \"#utility.yul\":21529:21533   */\n      0x11\n        /* \"#utility.yul\":21526:21527   */\n      0x04\n        /* \"#utility.yul\":21519:21534   */\n      mstore\n        /* \"#utility.yul\":21553:21557   */\n      0x24\n        /* \"#utility.yul\":21550:21551   */\n      0x00\n        /* \"#utility.yul\":21543:21558   */\n      revert\n        /* \"#utility.yul\":21570:21750   */\n    tag_616:\n        /* \"#utility.yul\":21618:21695   */\n      0x4e487b7100000000000000000000000000000000000000000000000000000000\n        /* \"#utility.yul\":21615:21616   */\n      0x00\n        /* \"#utility.yul\":21608:21696   */\n      mstore\n        /* \"#utility.yul\":21715:21719   */\n      0x12\n        /* \"#utility.yul\":21712:21713   */\n      0x04\n        /* \"#utility.yul\":21705:21720   */\n      mstore\n        /* \"#utility.yul\":21739:21743   */\n      0x24\n        /* \"#utility.yul\":21736:21737   */\n      0x00\n        /* \"#utility.yul\":21729:21744   */\n      revert\n        /* \"#utility.yul\":21756:21936   */\n    tag_104:\n        /* \"#utility.yul\":21804:21881   */\n      0x4e487b7100000000000000000000000000000000000000000000000000000000\n        /* \"#utility.yul\":21801:21802   */\n      0x00\n        /* \"#utility.yul\":21794:21882   */\n      mstore\n        /* \"#utility.yul\":21901:21905   */\n      0x32\n        /* \"#utility.yul\":21898:21899   */\n      0x04\n        /* \"#utility.yul\":21891:21906   */\n      mstore\n        /* \"#utility.yul\":21925:21929   */\n      0x24\n        /* \"#utility.yul\":21922:21923   */\n      0x00\n        /* \"#utility.yul\":21915:21930   */\n      revert\n        /* \"#utility.yul\":21942:22059   */\n    tag_407:\n        /* \"#utility.yul\":22051:22052   */\n      0x00\n        /* \"#utility.yul\":22048:22049   */\n      dup1\n        /* \"#utility.yul\":22041:22053   */\n      revert\n        /* \"#utility.yul\":22065:22182   */\n    tag_404:\n        /* \"#utility.yul\":22174:22175   */\n      0x00\n        /* \"#utility.yul\":22171:22172   */\n      dup1\n        /* \"#utility.yul\":22164:22176   */\n      revert\n        /* \"#utility.yul\":22188:22305   */\n    tag_410:\n        /* \"#utility.yul\":22297:22298   */\n      0x00\n        /* \"#utility.yul\":22294:22295   */\n      dup1\n        /* \"#utility.yul\":22287:22299   */\n      revert\n        /* \"#utility.yul\":22311:22428   */\n    tag_436:\n        /* \"#utility.yul\":22420:22421   */\n      0x00\n        /* \"#utility.yul\":22417:22418   */\n      dup1\n        /* \"#utility.yul\":22410:22422   */\n      revert\n        /* \"#utility.yul\":22434:22551   */\n    tag_465:\n        /* \"#utility.yul\":22543:22544   */\n      0x00\n        /* \"#utility.yul\":22540:22541   */\n      dup1\n        /* \"#utility.yul\":22533:22545   */\n      revert\n        /* \"#utility.yul\":22557:22674   */\n    tag_425:\n        /* \"#utility.yul\":22666:22667   */\n      0x00\n        /* \"#utility.yul\":22663:22664   */\n      dup1\n        /* \"#utility.yul\":22656:22668   */\n      revert\n        /* \"#utility.yul\":22680:22782   */\n    tag_492:\n        /* \"#utility.yul\":22721:22727   */\n      0x00\n        /* \"#utility.yul\":22772:22774   */\n      0x1f\n        /* \"#utility.yul\":22768:22775   */\n      not\n        /* \"#utility.yul\":22763:22765   */\n      0x1f\n        /* \"#utility.yul\":22756:22761   */\n      dup4\n        /* \"#utility.yul\":22752:22766   */\n      add\n        /* \"#utility.yul\":22748:22776   */\n      and\n        /* \"#utility.yul\":22738:22776   */\n      swap1\n      pop\n        /* \"#utility.yul\":22680:22782   */\n      swap2\n      swap1\n      pop\n      jump\t// out\n        /* \"#utility.yul\":22788:22962   */\n    tag_497:\n        /* \"#utility.yul\":22928:22954   */\n      0x4e4654205374616b696e673a20456d7074792041727261790000000000000000\n        /* \"#utility.yul\":22924:22925   */\n      0x00\n        /* \"#utility.yul\":22916:22922   */\n      dup3\n        /* \"#utility.yul\":22912:22926   */\n      add\n        /* \"#utility.yul\":22905:22955   */\n      mstore\n        /* \"#utility.yul\":22788:22962   */\n      pop\n      jump\t// out\n        /* \"#utility.yul\":22968:23197   */\n    tag_502:\n        /* \"#utility.yul\":23108:23142   */\n      0x5361666542455032303a204245503230206f7065726174696f6e20646964206e\n        /* \"#utility.yul\":23104:23105   */\n      0x00\n        /* \"#utility.yul\":23096:23102   */\n      dup3\n        /* \"#utility.yul\":23092:23106   */\n      add\n        /* \"#utility.yul\":23085:23143   */\n      mstore\n        /* \"#utility.yul\":23177:23189   */\n      0x6f74207375636365656400000000000000000000000000000000000000000000\n        /* \"#utility.yul\":23172:23174   */\n      0x20\n        /* \"#utility.yul\":23164:23170   */\n      dup3\n        /* \"#utility.yul\":23160:23175   */\n      add\n        /* \"#utility.yul\":23153:23190   */\n      mstore\n        /* \"#utility.yul\":22968:23197   */\n      pop\n      jump\t// out\n        /* \"#utility.yul\":23203:23428   */\n    tag_507:\n        /* \"#utility.yul\":23343:23377   */\n      0x4f776e61626c653a206e6577206f776e657220697320746865207a65726f2061\n        /* \"#utility.yul\":23339:23340   */\n      0x00\n        /* \"#utility.yul\":23331:23337   */\n      dup3\n        /* \"#utility.yul\":23327:23341   */\n      add\n        /* \"#utility.yul\":23320:23378   */\n      mstore\n        /* \"#utility.yul\":23412:23420   */\n      0x6464726573730000000000000000000000000000000000000000000000000000\n        /* \"#utility.yul\":23407:23409   */\n      0x20\n        /* \"#utility.yul\":23399:23405   */\n      dup3\n        /* \"#utility.yul\":23395:23410   */\n      add\n        /* \"#utility.yul\":23388:23421   */\n      mstore\n        /* \"#utility.yul\":23203:23428   */\n      pop\n      jump\t// out\n        /* \"#utility.yul\":23434:23670   */\n    tag_512:\n        /* \"#utility.yul\":23574:23608   */\n      0x4e4654205374616b696e673a206475706c696361746520746f6b656e20696473\n        /* \"#utility.yul\":23570:23571   */\n      0x00\n        /* \"#utility.yul\":23562:23568   */\n      dup3\n        /* \"#utility.yul\":23558:23572   */\n      add\n        /* \"#utility.yul\":23551:23609   */\n      mstore\n        /* \"#utility.yul\":23643:23662   */\n      0x20696e20696e70757420706172616d732e000000000000000000000000000000\n        /* \"#utility.yul\":23638:23640   */\n      0x20\n        /* \"#utility.yul\":23630:23636   */\n      dup3\n        /* \"#utility.yul\":23626:23641   */\n      add\n        /* \"#utility.yul\":23619:23663   */\n      mstore\n        /* \"#utility.yul\":23434:23670   */\n      pop\n      jump\t// out\n        /* \"#utility.yul\":23676:23858   */\n    tag_517:\n        /* \"#utility.yul\":23816:23850   */\n      0x4e4654205374616b696e673a206e6f74206f776e6572206f6620746f6b656e2e\n        /* \"#utility.yul\":23812:23813   */\n      0x00\n        /* \"#utility.yul\":23804:23810   */\n      dup3\n        /* \"#utility.yul\":23800:23814   */\n      add\n        /* \"#utility.yul\":23793:23851   */\n      mstore\n        /* \"#utility.yul\":23676:23858   */\n      pop\n      jump\t// out\n        /* \"#utility.yul\":23864:24085   */\n    tag_522:\n        /* \"#utility.yul\":24004:24038   */\n      0x4e4654205374616b696e673a20746f6b656e20616c7265616479207374616b65\n        /* \"#utility.yul\":24000:24001   */\n      0x00\n        /* \"#utility.yul\":23992:23998   */\n      dup3\n        /* \"#utility.yul\":23988:24002   */\n      add\n        /* \"#utility.yul\":23981:24039   */\n      mstore\n        /* \"#utility.yul\":24073:24077   */\n      0x642e000000000000000000000000000000000000000000000000000000000000\n        /* \"#utility.yul\":24068:24070   */\n      0x20\n        /* \"#utility.yul\":24060:24066   */\n      dup3\n        /* \"#utility.yul\":24056:24071   */\n      add\n        /* \"#utility.yul\":24049:24078   */\n      mstore\n        /* \"#utility.yul\":23864:24085   */\n      pop\n      jump\t// out\n        /* \"#utility.yul\":24091:24273   */\n    tag_527:\n        /* \"#utility.yul\":24231:24265   */\n      0x4f776e61626c653a2063616c6c6572206973206e6f7420746865206f776e6572\n        /* \"#utility.yul\":24227:24228   */\n      0x00\n        /* \"#utility.yul\":24219:24225   */\n      dup3\n        /* \"#utility.yul\":24215:24229   */\n      add\n        /* \"#utility.yul\":24208:24266   */\n      mstore\n        /* \"#utility.yul\":24091:24273   */\n      pop\n      jump\t// out\n        /* \"#utility.yul\":24279:24459   */\n    tag_532:\n        /* \"#utility.yul\":24419:24451   */\n      0x736574486172766573744665653a2066656550657263656e74203e2034300000\n        /* \"#utility.yul\":24415:24416   */\n      0x00\n        /* \"#utility.yul\":24407:24413   */\n      dup3\n        /* \"#utility.yul\":24403:24417   */\n      add\n        /* \"#utility.yul\":24396:24452   */\n      mstore\n        /* \"#utility.yul\":24279:24459   */\n      pop\n      jump\t// out\n        /* \"#utility.yul\":24465:24644   */\n    tag_537:\n        /* \"#utility.yul\":24605:24636   */\n      0x416464726573733a2063616c6c20746f206e6f6e2d636f6e7472616374000000\n        /* \"#utility.yul\":24601:24602   */\n      0x00\n        /* \"#utility.yul\":24593:24599   */\n      dup3\n        /* \"#utility.yul\":24589:24603   */\n      add\n        /* \"#utility.yul\":24582:24637   */\n      mstore\n        /* \"#utility.yul\":24465:24644   */\n      pop\n      jump\t// out\n        /* \"#utility.yul\":24650:24894   */\n    tag_542:\n        /* \"#utility.yul\":24790:24824   */\n      0x4e667420556e7374616b696e673a20746f6b656e206e6f74207374616b656420\n        /* \"#utility.yul\":24786:24787   */\n      0x00\n        /* \"#utility.yul\":24778:24784   */\n      dup3\n        /* \"#utility.yul\":24774:24788   */\n      add\n        /* \"#utility.yul\":24767:24825   */\n      mstore\n        /* \"#utility.yul\":24859:24886   */\n      0x6f7220696e636f727265637420746f6b656e206f776e65722e00000000000000\n        /* \"#utility.yul\":24854:24856   */\n      0x20\n        /* \"#utility.yul\":24846:24852   */\n      dup3\n        /* \"#utility.yul\":24842:24857   */\n      add\n        /* \"#utility.yul\":24835:24887   */\n      mstore\n        /* \"#utility.yul\":24650:24894   */\n      pop\n      jump\t// out\n        /* \"#utility.yul\":24900:25022   */\n    tag_396:\n        /* \"#utility.yul\":24973:24997   */\n      tag_675\n        /* \"#utility.yul\":24991:24996   */\n      dup2\n        /* \"#utility.yul\":24973:24997   */\n      tag_458\n      jump\t// in\n    tag_675:\n        /* \"#utility.yul\":24966:24971   */\n      dup2\n        /* \"#utility.yul\":24963:24998   */\n      eq\n        /* \"#utility.yul\":24953:25016   */\n      tag_676\n      jumpi\n        /* \"#utility.yul\":25012:25013   */\n      0x00\n        /* \"#utility.yul\":25009:25010   */\n      dup1\n        /* \"#utility.yul\":25002:25014   */\n      revert\n        /* \"#utility.yul\":24953:25016   */\n    tag_676:\n        /* \"#utility.yul\":24900:25022   */\n      pop\n      jump\t// out\n        /* \"#utility.yul\":25028:25144   */\n    tag_414:\n        /* \"#utility.yul\":25098:25119   */\n      tag_678\n        /* \"#utility.yul\":25113:25118   */\n      dup2\n        /* \"#utility.yul\":25098:25119   */\n      tag_630\n      jump\t// in\n    tag_678:\n        /* \"#utility.yul\":25091:25096   */\n      dup2\n        /* \"#utility.yul\":25088:25120   */\n      eq\n        /* \"#utility.yul\":25078:25138   */\n      tag_679\n      jumpi\n        /* \"#utility.yul\":25134:25135   */\n      0x00\n        /* \"#utility.yul\":25131:25132   */\n      dup1\n        /* \"#utility.yul\":25124:25136   */\n      revert\n        /* \"#utility.yul\":25078:25138   */\n    tag_679:\n        /* \"#utility.yul\":25028:25144   */\n      pop\n      jump\t// out\n        /* \"#utility.yul\":25150:25272   */\n    tag_418:\n        /* \"#utility.yul\":25223:25247   */\n      tag_681\n        /* \"#utility.yul\":25241:25246   */\n      dup2\n        /* \"#utility.yul\":25223:25247   */\n      tag_546\n      jump\t// in\n    tag_681:\n        /* \"#utility.yul\":25216:25221   */\n      dup2\n        /* \"#utility.yul\":25213:25248   */\n      eq\n        /* \"#utility.yul\":25203:25266   */\n      tag_682\n      jumpi\n        /* \"#utility.yul\":25262:25263   */\n      0x00\n        /* \"#utility.yul\":25259:25260   */\n      dup1\n        /* \"#utility.yul\":25252:25264   */\n      revert\n        /* \"#utility.yul\":25203:25266   */\n    tag_682:\n        /* \"#utility.yul\":25150:25272   */\n      pop\n      jump\t// out\n\n    auxdata: 0xa2646970667358221220627f5b4cdb70ca3df2dd27241157ee92bb365caf011bf6890f9f42f31dd1df9364736f6c63430008070033\n}\n",
				"bytecode": {
					"linkReferences": {},
					"object": "60c06040523480156200001157600080fd5b50604051620032383803806200323883398181016040528101906200003791906200023f565b620000576200004b6200011760201b60201c565b6200011f60201b60201c565b8373ffffffffffffffffffffffffffffffffffffffff1660808173ffffffffffffffffffffffffffffffffffffffff1660601b815250508273ffffffffffffffffffffffffffffffffffffffff1660a08173ffffffffffffffffffffffffffffffffffffffff1660601b815250508160038190555080600460006101000a81548173ffffffffffffffffffffffffffffffffffffffff021916908373ffffffffffffffffffffffffffffffffffffffff1602179055505050505062000384565b600033905090565b60008060009054906101000a900473ffffffffffffffffffffffffffffffffffffffff169050816000806101000a81548173ffffffffffffffffffffffffffffffffffffffff021916908373ffffffffffffffffffffffffffffffffffffffff1602179055508173ffffffffffffffffffffffffffffffffffffffff168173ffffffffffffffffffffffffffffffffffffffff167f8be0079c531659141344cd1fd0a4f28419497f9722a3daafe3b4186f6b6457e060405160405180910390a35050565b600081519050620001f4816200031c565b92915050565b6000815190506200020b8162000336565b92915050565b600081519050620002228162000350565b92915050565b60008151905062000239816200036a565b92915050565b600080600080608085870312156200025c576200025b62000317565b5b60006200026c8782880162000211565b94505060206200027f87828801620001fa565b9350506040620002928782880162000228565b9250506060620002a587828801620001e3565b91505092959194509250565b6000620002be82620002ed565b9050919050565b6000620002d282620002b1565b9050919050565b6000620002e682620002b1565b9050919050565b600073ffffffffffffffffffffffffffffffffffffffff82169050919050565b6000819050919050565b600080fd5b6200032781620002b1565b81146200033357600080fd5b50565b6200034181620002c5565b81146200034d57600080fd5b50565b6200035b81620002d9565b81146200036757600080fd5b50565b62000375816200030d565b81146200038157600080fd5b50565b60805160601c60a05160601c612e34620004046000396000818161096201528181610a0801528181610b4e01528181610bfd01528181610cae01528181610cf501528181610da401528181610e770152818161154701526115f60152600081816103e901528181610835015281816112bf01526117b20152612e346000f3fe608060405234801561001057600080fd5b506004361061012c5760003560e01c80638ae39cac116100ad578063b596291711610071578063b5962917146102ea578063d06fcba814610308578063e449f34114610326578063f25f4b5614610342578063f2fde38b146103605761012c565b80638ae39cac146102445780638da5cb5b146102625780638dbb1e3a1461028057806390d49b9d146102b0578063a9f8d181146102cc5761012c565b80634641257d116100f45780634641257d146101d8578063567e98f9146101e25780635e42b45514610200578063715018a61461021e578063792b55b6146102285761012c565b80630fbf0a93146101315780631959a0021461014d57806319fca9f6146101805780631e2720ff1461019e57806343db3c5f146101ba575b600080fd5b61014b600480360381019061014691906121cb565b61037c565b005b61016760048036038101906101629190612171565b610930565b60405161017794939291906127ed565b60405180910390f35b610188610960565b604051610195919061263a565b60405180910390f35b6101b860048036038101906101b39190612245565b610984565b005b6101c2610ab9565b6040516101cf91906127d2565b60405180910390f35b6101e0610abf565b005b6101ea610f46565b6040516101f791906127d2565b60405180910390f35b610208610f4c565b60405161021591906127d2565b60405180910390f35b610226610fb7565b005b610242600480360381019061023d9190612245565b61103f565b005b61024c611140565b60405161025991906127d2565b60405180910390f35b61026a611146565b6040516102779190612556565b60405180910390f35b61029a6004803603810190610295919061229f565b61116f565b6040516102a791906127d2565b60405180910390f35b6102ca60048036038101906102c59190612171565b61118c565b005b6102d46112b1565b6040516102e191906127d2565b60405180910390f35b6102f26112b7565b6040516102ff91906127d2565b60405180910390f35b6103106112bd565b60405161031d9190612655565b60405180910390f35b610340600480360381019061033b91906121cb565b6112e1565b005b61034a6118ae565b6040516103579190612556565b60405180910390f35b61037a60048036038101906103759190612171565b6118d4565b005b600082829050116103c2576040517f08c379a00000000000000000000000000000000000000000000000000000000081526004016103b990612692565b60405180910390fd5b60005b82829050811015610673573373ffffffffffffffffffffffffffffffffffffffff167f000000000000000000000000000000000000000000000000000000000000000073ffffffffffffffffffffffffffffffffffffffff16636352211e85858581811061043657610435612b03565b5b905060200201356040518263ffffffff1660e01b815260040161045991906127d2565b60206040518083038186803b15801561047157600080fd5b505afa158015610485573d6000803e3d6000fd5b505050506040513d601f19601f820116820180604052508101906104a9919061219e565b73ffffffffffffffffffffffffffffffffffffffff16146104ff576040517f08c379a00000000000000000000000000000000000000000000000000000000081526004016104f690612712565b60405180910390fd5b600073ffffffffffffffffffffffffffffffffffffffff166008600085858581811061052e5761052d612b03565b5b90506020020135815260200190815260200160002060009054906101000a900473ffffffffffffffffffffffffffffffffffffffff1673ffffffffffffffffffffffffffffffffffffffff16146105ba576040517f08c379a00000000000000000000000000000000000000000000000000000000081526004016105b190612732565b60405180910390fd5b60006001826105c99190612875565b90505b8383905081101561065f578383828181106105ea576105e9612b03565b5b9050602002013584848481811061060457610603612b03565b5b90506020020135141561064c576040517f08c379a0000000000000000000000000000000000000000000000000000000008152600401610643906126f2565b60405180910390fd5b808061065790612a5c565b9150506105cc565b50808061066b90612a5c565b9150506103c5565b5061067c6119cc565b6000600960003373ffffffffffffffffffffffffffffffffffffffff1673ffffffffffffffffffffffffffffffffffffffff1681526020019081526020016000209050600081600001541115610737576000610714826001015461070664e8d4a510006106f86002548760000154611b0090919063ffffffff16565b611b1690919063ffffffff16565b611b2c90919063ffffffff16565b905061072d818360020154611b4290919063ffffffff16565b8260020181905550505b600083839050905061075481600654611b4290919063ffffffff16565b600681905550610771818360000154611b4290919063ffffffff16565b82600001819055506107a964e8d4a5100061079b6002548560000154611b0090919063ffffffff16565b611b1690919063ffffffff16565b826001018190555042826003018190555060005b848490508110156108ee5733600860008787858181106107e0576107df612b03565b5b90506020020135815260200190815260200160002060006101000a81548173ffffffffffffffffffffffffffffffffffffffff021916908373ffffffffffffffffffffffffffffffffffffffff1602179055507f000000000000000000000000000000000000000000000000000000000000000073ffffffffffffffffffffffffffffffffffffffff166323b872dd333088888681811061088457610883612b03565b5b905060200201356040518463ffffffff1660e01b81526004016108a993929190612571565b600060405180830381600087803b1580156108c357600080fd5b505af11580156108d7573d6000803e3d6000fd5b5050505080806108e690612a5c565b9150506107bd565b507f134b166c6094cc1ccbf1e3353ce5c3cd9fd29869051bdb999895854d77cc5ef6338585604051610922939291906125a8565b60405180910390a150505050565b60096020528060005260406000206000915090508060000154908060010154908060020154908060030154905084565b7f000000000000000000000000000000000000000000000000000000000000000081565b61098c611b58565b73ffffffffffffffffffffffffffffffffffffffff166109aa611146565b73ffffffffffffffffffffffffffffffffffffffff1614610a00576040517f08c379a00000000000000000000000000000000000000000000000000000000081526004016109f790612752565b60405180910390fd5b610a4d3330837f000000000000000000000000000000000000000000000000000000000000000073ffffffffffffffffffffffffffffffffffffffff16611b60909392919063ffffffff16565b3373ffffffffffffffffffffffffffffffffffffffff167f4f7fd5c9e17300a4800fd572ea53fc291e2ee7470d73346d16b357faee4e721082604051610a9391906127d2565b60405180910390a2610ab081600754611b4290919063ffffffff16565b60078190555050565b60025481565b6000610aca33611be9565b90506000600960003373ffffffffffffffffffffffffffffffffffffffff1673ffffffffffffffffffffffffffffffffffffffff16815260200190815260200160002090506000610b396064610b2b60055486611b0090919063ffffffff16565b611b1690919063ffffffff16565b905060008184610b499190612956565b9050807f000000000000000000000000000000000000000000000000000000000000000073ffffffffffffffffffffffffffffffffffffffff166370a08231306040518263ffffffff1660e01b8152600401610ba59190612556565b60206040518083038186803b158015610bbd57600080fd5b505afa158015610bd1573d6000803e3d6000fd5b505050506040513d601f19601f82011682018060405250810190610bf59190612272565b1015610ca7577f000000000000000000000000000000000000000000000000000000000000000073ffffffffffffffffffffffffffffffffffffffff166370a08231306040518263ffffffff1660e01b8152600401610c549190612556565b60206040518083038186803b158015610c6c57600080fd5b505afa158015610c80573d6000803e3d6000fd5b505050506040513d601f19601f82011682018060405250810190610ca49190612272565b90505b610cf233827f000000000000000000000000000000000000000000000000000000000000000073ffffffffffffffffffffffffffffffffffffffff16611d1c9092919063ffffffff16565b817f000000000000000000000000000000000000000000000000000000000000000073ffffffffffffffffffffffffffffffffffffffff166370a08231306040518263ffffffff1660e01b8152600401610d4c9190612556565b60206040518083038186803b158015610d6457600080fd5b505afa158015610d78573d6000803e3d6000fd5b505050506040513d601f19601f82011682018060405250810190610d9c9190612272565b1015610e4e577f000000000000000000000000000000000000000000000000000000000000000073ffffffffffffffffffffffffffffffffffffffff166370a08231306040518263ffffffff1660e01b8152600401610dfb9190612556565b60206040518083038186803b158015610e1357600080fd5b505afa158015610e27573d6000803e3d6000fd5b505050506040513d601f19601f82011682018060405250810190610e4b9190612272565b91505b610ebb600460009054906101000a900473ffffffffffffffffffffffffffffffffffffffff16837f000000000000000000000000000000000000000000000000000000000000000073ffffffffffffffffffffffffffffffffffffffff16611d1c9092919063ffffffff16565b610ec36119cc565b60008360020181905550610efd64e8d4a51000610eef6002548660000154611b0090919063ffffffff16565b611b1690919063ffffffff16565b83600101819055507f71bab65ced2e5750775a0613be067df48ef06cf92a496ebf7663ae0660924954338284604051610f3893929190612603565b60405180910390a150505050565b60065481565b600060015443118015610f625750600060065414155b15610fae576000610f756001544361116f565b90506000610f8e60035483611b0090919063ffffffff16565b9050610fa581600754611b2c90919063ffffffff16565b92505050610fb4565b60075490505b90565b610fbf611b58565b73ffffffffffffffffffffffffffffffffffffffff16610fdd611146565b73ffffffffffffffffffffffffffffffffffffffff1614611033576040517f08c379a000000000000000000000000000000000000000000000000000000000815260040161102a90612752565b60405180910390fd5b61103d6000611da2565b565b611047611b58565b73ffffffffffffffffffffffffffffffffffffffff16611065611146565b73ffffffffffffffffffffffffffffffffffffffff16146110bb576040517f08c379a00000000000000000000000000000000000000000000000000000000081526004016110b290612752565b60405180910390fd5b60288111156110ff576040517f08c379a00000000000000000000000000000000000000000000000000000000081526004016110f690612772565b60405180910390fd5b806005819055507ff419800a2d8930c61d5d9cd782aa72c512cf6be2f79da6db0b8855870b7269ed8160405161113591906127d2565b60405180910390a150565b60035481565b60008060009054906101000a900473ffffffffffffffffffffffffffffffffffffffff16905090565b60006111848383611b2c90919063ffffffff16565b905092915050565b611194611b58565b73ffffffffffffffffffffffffffffffffffffffff166111b2611146565b73ffffffffffffffffffffffffffffffffffffffff1614611208576040517f08c379a00000000000000000000000000000000000000000000000000000000081526004016111ff90612752565b60405180910390fd5b80600460006101000a81548173ffffffffffffffffffffffffffffffffffffffff021916908373ffffffffffffffffffffffffffffffffffffffff160217905550600460009054906101000a900473ffffffffffffffffffffffffffffffffffffffff1673ffffffffffffffffffffffffffffffffffffffff167f3d21e5a2b633291bd1ff5f9c654e402d063783c95759d2ea521b31fb30e4da4160405160405180910390a250565b60015481565b60055481565b7f000000000000000000000000000000000000000000000000000000000000000081565b60008282905011611327576040517f08c379a000000000000000000000000000000000000000000000000000000000815260040161131e90612692565b60405180910390fd5b60005b828290508110156114ae57600083838381811061134a57611349612b03565b5b9050602002013590503373ffffffffffffffffffffffffffffffffffffffff166008600083815260200190815260200160002060009054906101000a900473ffffffffffffffffffffffffffffffffffffffff1673ffffffffffffffffffffffffffffffffffffffff16146113f4576040517f08c379a00000000000000000000000000000000000000000000000000000000081526004016113eb906127b2565b60405180910390fd5b60006001836114039190612875565b90505b848490508110156114995784848281811061142457611423612b03565b5b9050602002013585858581811061143e5761143d612b03565b5b905060200201351415611486576040517f08c379a000000000000000000000000000000000000000000000000000000000815260040161147d906126f2565b60405180910390fd5b808061149190612a5c565b915050611406565b505080806114a690612a5c565b91505061132a565b506114b76119cc565b6000600960003373ffffffffffffffffffffffffffffffffffffffff1673ffffffffffffffffffffffffffffffffffffffff16815260200190815260200160002090506000611542826001015461153464e8d4a510006115266002548760000154611b0090919063ffffffff16565b611b1690919063ffffffff16565b611b2c90919063ffffffff16565b9050807f000000000000000000000000000000000000000000000000000000000000000073ffffffffffffffffffffffffffffffffffffffff166370a08231306040518263ffffffff1660e01b815260040161159e9190612556565b60206040518083038186803b1580156115b657600080fd5b505afa1580156115ca573d6000803e3d6000fd5b505050506040513d601f19601f820116820180604052508101906115ee9190612272565b10156116a0577f000000000000000000000000000000000000000000000000000000000000000073ffffffffffffffffffffffffffffffffffffffff166370a08231306040518263ffffffff1660e01b815260040161164d9190612556565b60206040518083038186803b15801561166557600080fd5b505afa158015611679573d6000803e3d6000fd5b505050506040513d601f19601f8201168201806040525081019061169d9190612272565b90505b6116b7818360020154611b4290919063ffffffff16565b826002018190555060008484905090506116dc81600654611b2c90919063ffffffff16565b6006819055506116f9818460000154611b2c90919063ffffffff16565b836000018190555061173164e8d4a510006117236002548660000154611b0090919063ffffffff16565b611b1690919063ffffffff16565b836001018190555060005b8181101561186b5760006008600088888581811061175d5761175c612b03565b5b90506020020135815260200190815260200160002060006101000a81548173ffffffffffffffffffffffffffffffffffffffff021916908373ffffffffffffffffffffffffffffffffffffffff1602179055507f000000000000000000000000000000000000000000000000000000000000000073ffffffffffffffffffffffffffffffffffffffff166323b872dd303389898681811061180157611800612b03565b5b905060200201356040518463ffffffff1660e01b815260040161182693929190612571565b600060405180830381600087803b15801561184057600080fd5b505af1158015611854573d6000803e3d6000fd5b50505050808061186390612a5c565b91505061173c565b507f80cc10bf7e52583ae0a17d8dd6ab5005573b17a08091a091af1a81205a675c9133868660405161189f939291906125a8565b60405180910390a15050505050565b600460009054906101000a900473ffffffffffffffffffffffffffffffffffffffff1681565b6118dc611b58565b73ffffffffffffffffffffffffffffffffffffffff166118fa611146565b73ffffffffffffffffffffffffffffffffffffffff1614611950576040517f08c379a000000000000000000000000000000000000000000000000000000000815260040161194790612752565b60405180910390fd5b600073ffffffffffffffffffffffffffffffffffffffff168173ffffffffffffffffffffffffffffffffffffffff1614156119c0576040517f08c379a00000000000000000000000000000000000000000000000000000000081526004016119b7906126d2565b60405180910390fd5b6119c981611da2565b50565b60015443116119da57611afe565b600060065414156119f15743600181905550611afe565b60006119ff6001544361116f565b90506000611a1860035483611b0090919063ffffffff16565b905060006007541415611a3357436001819055505050611afe565b806007541015611a9257611a7f611a6e600654611a6064e8d4a51000600754611b0090919063ffffffff16565b611b1690919063ffffffff16565b600254611b4290919063ffffffff16565b6002819055506000600781905550611af4565b611aa781600754611b2c90919063ffffffff16565b600781905550611aed611adc600654611ace64e8d4a5100085611b0090919063ffffffff16565b611b1690919063ffffffff16565b600254611b4290919063ffffffff16565b6002819055505b4360018190555050505b565b60008183611b0e91906128fc565b905092915050565b60008183611b2491906128cb565b905092915050565b60008183611b3a9190612956565b905092915050565b60008183611b509190612875565b905092915050565b600033905090565b611be3846323b872dd60e01b858585604051602401611b8193929190612571565b604051602081830303815290604052907bffffffffffffffffffffffffffffffffffffffffffffffffffffffff19166020820180517bffffffffffffffffffffffffffffffffffffffffffffffffffffffff8381831617835250505050611e66565b50505050565b600080600960008473ffffffffffffffffffffffffffffffffffffffff1673ffffffffffffffffffffffffffffffffffffffff16815260200190815260200160002090506000600254905060015443118015611c485750600060065414155b15611cb9576000611c5b6001544361116f565b90506000611c7460035483611b0090919063ffffffff16565b9050611cb4611ca5600654611c9764e8d4a5100085611b0090919063ffffffff16565b611b1690919063ffffffff16565b84611b4290919063ffffffff16565b925050505b611d138260020154611d058460010154611cf764e8d4a51000611ce9878960000154611b0090919063ffffffff16565b611b1690919063ffffffff16565b611b2c90919063ffffffff16565b611b4290919063ffffffff16565b92505050919050565b611d9d8363a9059cbb60e01b8484604051602401611d3b9291906125da565b604051602081830303815290604052907bffffffffffffffffffffffffffffffffffffffffffffffffffffffff19166020820180517bffffffffffffffffffffffffffffffffffffffffffffffffffffffff8381831617835250505050611e66565b505050565b60008060009054906101000a900473ffffffffffffffffffffffffffffffffffffffff169050816000806101000a81548173ffffffffffffffffffffffffffffffffffffffff021916908373ffffffffffffffffffffffffffffffffffffffff1602179055508173ffffffffffffffffffffffffffffffffffffffff168173ffffffffffffffffffffffffffffffffffffffff167f8be0079c531659141344cd1fd0a4f28419497f9722a3daafe3b4186f6b6457e060405160405180910390a35050565b6000611ec8826040518060400160405280602081526020017f5361666542455032303a206c6f772d6c6576656c2063616c6c206661696c65648152508573ffffffffffffffffffffffffffffffffffffffff16611f2d9092919063ffffffff16565b9050600081511115611f285780806020019051810190611ee89190612218565b611f27576040517f08c379a0000000000000000000000000000000000000000000000000000000008152600401611f1e906126b2565b60405180910390fd5b5b505050565b6060611f3c8484600085611f45565b90509392505050565b6060611f5085612067565b611f8f576040517f08c379a0000000000000000000000000000000000000000000000000000000008152600401611f8690612792565b60405180910390fd5b6000808673ffffffffffffffffffffffffffffffffffffffff168587604051611fb8919061253f565b60006040518083038185875af1925050503d8060008114611ff5576040519150601f19603f3d011682016040523d82523d6000602084013e611ffa565b606091505b5091509150811561200f57809250505061205f565b6000815111156120225780518082602001fd5b836040517f08c379a00000000000000000000000000000000000000000000000000000000081526004016120569190612670565b60405180910390fd5b949350505050565b60008060007fc5d2460186f7233c927e7db2dcc703c0e500b653ca82273b7bfad8045d85a47060001b9050833f91508082141580156120a957506000801b8214155b92505050919050565b6000813590506120c181612db9565b92915050565b6000815190506120d681612db9565b92915050565b60008083601f8401126120f2576120f1612b37565b5b8235905067ffffffffffffffff81111561210f5761210e612b32565b5b60208301915083602082028301111561212b5761212a612b3c565b5b9250929050565b60008151905061214181612dd0565b92915050565b60008135905061215681612de7565b92915050565b60008151905061216b81612de7565b92915050565b60006020828403121561218757612186612b4b565b5b6000612195848285016120b2565b91505092915050565b6000602082840312156121b4576121b3612b4b565b5b60006121c2848285016120c7565b91505092915050565b600080602083850312156121e2576121e1612b4b565b5b600083013567ffffffffffffffff811115612200576121ff612b41565b5b61220c858286016120dc565b92509250509250929050565b60006020828403121561222e5761222d612b4b565b5b600061223c84828501612132565b91505092915050565b60006020828403121561225b5761225a612b4b565b5b600061226984828501612147565b91505092915050565b60006020828403121561228857612287612b4b565b5b60006122968482850161215c565b91505092915050565b600080604083850312156122b6576122b5612b4b565b5b60006122c485828601612147565b92505060206122d585828601612147565b9150509250929050565b6122e88161298a565b82525050565b60006122fa8385612848565b93507f07ffffffffffffffffffffffffffffffffffffffffffffffffffffffffffffff83111561232d5761232c612b46565b5b60208302925061233e838584612a1a565b82840190509392505050565b600061235582612832565b61235f8185612859565b935061236f818560208601612a29565b80840191505092915050565b612384816129d2565b82525050565b612393816129e4565b82525050565b60006123a48261283d565b6123ae8185612864565b93506123be818560208601612a29565b6123c781612b50565b840191505092915050565b60006123df601883612864565b91506123ea82612b61565b602082019050919050565b6000612402602a83612864565b915061240d82612b8a565b604082019050919050565b6000612425602683612864565b915061243082612bd9565b604082019050919050565b6000612448603183612864565b915061245382612c28565b604082019050919050565b600061246b602083612864565b915061247682612c77565b602082019050919050565b600061248e602283612864565b915061249982612ca0565b604082019050919050565b60006124b1602083612864565b91506124bc82612cef565b602082019050919050565b60006124d4601e83612864565b91506124df82612d18565b602082019050919050565b60006124f7601d83612864565b915061250282612d41565b602082019050919050565b600061251a603983612864565b915061252582612d6a565b604082019050919050565b612539816129c8565b82525050565b600061254b828461234a565b915081905092915050565b600060208201905061256b60008301846122df565b92915050565b600060608201905061258660008301866122df565b61259360208301856122df565b6125a06040830184612530565b949350505050565b60006040820190506125bd60008301866122df565b81810360208301526125d08184866122ee565b9050949350505050565b60006040820190506125ef60008301856122df565b6125fc6020830184612530565b9392505050565b600060608201905061261860008301866122df565b6126256020830185612530565b6126326040830184612530565b949350505050565b600060208201905061264f600083018461237b565b92915050565b600060208201905061266a600083018461238a565b92915050565b6000602082019050818103600083015261268a8184612399565b905092915050565b600060208201905081810360008301526126ab816123d2565b9050919050565b600060208201905081810360008301526126cb816123f5565b9050919050565b600060208201905081810360008301526126eb81612418565b9050919050565b6000602082019050818103600083015261270b8161243b565b9050919050565b6000602082019050818103600083015261272b8161245e565b9050919050565b6000602082019050818103600083015261274b81612481565b9050919050565b6000602082019050818103600083015261276b816124a4565b9050919050565b6000602082019050818103600083015261278b816124c7565b9050919050565b600060208201905081810360008301526127ab816124ea565b9050919050565b600060208201905081810360008301526127cb8161250d565b9050919050565b60006020820190506127e76000830184612530565b92915050565b60006080820190506128026000830187612530565b61280f6020830186612530565b61281c6040830185612530565b6128296060830184612530565b95945050505050565b600081519050919050565b600081519050919050565b600082825260208201905092915050565b600081905092915050565b600082825260208201905092915050565b6000612880826129c8565b915061288b836129c8565b9250827fffffffffffffffffffffffffffffffffffffffffffffffffffffffffffffffff038211156128c0576128bf612aa5565b5b828201905092915050565b60006128d6826129c8565b91506128e1836129c8565b9250826128f1576128f0612ad4565b5b828204905092915050565b6000612907826129c8565b9150612912836129c8565b9250817fffffffffffffffffffffffffffffffffffffffffffffffffffffffffffffffff048311821515161561294b5761294a612aa5565b5b828202905092915050565b6000612961826129c8565b915061296c836129c8565b92508282101561297f5761297e612aa5565b5b828203905092915050565b6000612995826129a8565b9050919050565b60008115159050919050565b600073ffffffffffffffffffffffffffffffffffffffff82169050919050565b6000819050919050565b60006129dd826129f6565b9050919050565b60006129ef826129f6565b9050919050565b6000612a0182612a08565b9050919050565b6000612a13826129a8565b9050919050565b82818337600083830152505050565b60005b83811015612a47578082015181840152602081019050612a2c565b83811115612a56576000848401525b50505050565b6000612a67826129c8565b91507fffffffffffffffffffffffffffffffffffffffffffffffffffffffffffffffff821415612a9a57612a99612aa5565b5b600182019050919050565b7f4e487b7100000000000000000000000000000000000000000000000000000000600052601160045260246000fd5b7f4e487b7100000000000000000000000000000000000000000000000000000000600052601260045260246000fd5b7f4e487b7100000000000000000000000000000000000000000000000000000000600052603260045260246000fd5b600080fd5b600080fd5b600080fd5b600080fd5b600080fd5b600080fd5b6000601f19601f8301169050919050565b7f4e4654205374616b696e673a20456d7074792041727261790000000000000000600082015250565b7f5361666542455032303a204245503230206f7065726174696f6e20646964206e60008201527f6f74207375636365656400000000000000000000000000000000000000000000602082015250565b7f4f776e61626c653a206e6577206f776e657220697320746865207a65726f206160008201527f6464726573730000000000000000000000000000000000000000000000000000602082015250565b7f4e4654205374616b696e673a206475706c696361746520746f6b656e2069647360008201527f20696e20696e70757420706172616d732e000000000000000000000000000000602082015250565b7f4e4654205374616b696e673a206e6f74206f776e6572206f6620746f6b656e2e600082015250565b7f4e4654205374616b696e673a20746f6b656e20616c7265616479207374616b6560008201527f642e000000000000000000000000000000000000000000000000000000000000602082015250565b7f4f776e61626c653a2063616c6c6572206973206e6f7420746865206f776e6572600082015250565b7f736574486172766573744665653a2066656550657263656e74203e2034300000600082015250565b7f416464726573733a2063616c6c20746f206e6f6e2d636f6e7472616374000000600082015250565b7f4e667420556e7374616b696e673a20746f6b656e206e6f74207374616b65642060008201527f6f7220696e636f727265637420746f6b656e206f776e65722e00000000000000602082015250565b612dc28161298a565b8114612dcd57600080fd5b50565b612dd98161299c565b8114612de457600080fd5b50565b612df0816129c8565b8114612dfb57600080fd5b5056fea2646970667358221220627f5b4cdb70ca3df2dd27241157ee92bb365caf011bf6890f9f42f31dd1df9364736f6c63430008070033",
					"opcodes": "PUSH1 0xC0 PUSH1 0x40 MSTORE CALLVALUE DUP1 ISZERO PUSH3 0x11 JUMPI PUSH1 0x0 DUP1 REVERT JUMPDEST POP PUSH1 0x40 MLOAD PUSH3 0x3238 CODESIZE SUB DUP1 PUSH3 0x3238 DUP4 CODECOPY DUP2 DUP2 ADD PUSH1 0x40 MSTORE DUP2 ADD SWAP1 PUSH3 0x37 SWAP2 SWAP1 PUSH3 0x23F JUMP JUMPDEST PUSH3 0x57 PUSH3 0x4B PUSH3 0x117 PUSH1 0x20 SHL PUSH1 0x20 SHR JUMP JUMPDEST PUSH3 0x11F PUSH1 0x20 SHL PUSH1 0x20 SHR JUMP JUMPDEST DUP4 PUSH20 0xFFFFFFFFFFFFFFFFFFFFFFFFFFFFFFFFFFFFFFFF AND PUSH1 0x80 DUP2 PUSH20 0xFFFFFFFFFFFFFFFFFFFFFFFFFFFFFFFFFFFFFFFF AND PUSH1 0x60 SHL DUP2 MSTORE POP POP DUP3 PUSH20 0xFFFFFFFFFFFFFFFFFFFFFFFFFFFFFFFFFFFFFFFF AND PUSH1 0xA0 DUP2 PUSH20 0xFFFFFFFFFFFFFFFFFFFFFFFFFFFFFFFFFFFFFFFF AND PUSH1 0x60 SHL DUP2 MSTORE POP POP DUP2 PUSH1 0x3 DUP2 SWAP1 SSTORE POP DUP1 PUSH1 0x4 PUSH1 0x0 PUSH2 0x100 EXP DUP2 SLOAD DUP2 PUSH20 0xFFFFFFFFFFFFFFFFFFFFFFFFFFFFFFFFFFFFFFFF MUL NOT AND SWAP1 DUP4 PUSH20 0xFFFFFFFFFFFFFFFFFFFFFFFFFFFFFFFFFFFFFFFF AND MUL OR SWAP1 SSTORE POP POP POP POP POP PUSH3 0x384 JUMP JUMPDEST PUSH1 0x0 CALLER SWAP1 POP SWAP1 JUMP JUMPDEST PUSH1 0x0 DUP1 PUSH1 0x0 SWAP1 SLOAD SWAP1 PUSH2 0x100 EXP SWAP1 DIV PUSH20 0xFFFFFFFFFFFFFFFFFFFFFFFFFFFFFFFFFFFFFFFF AND SWAP1 POP DUP2 PUSH1 0x0 DUP1 PUSH2 0x100 EXP DUP2 SLOAD DUP2 PUSH20 0xFFFFFFFFFFFFFFFFFFFFFFFFFFFFFFFFFFFFFFFF MUL NOT AND SWAP1 DUP4 PUSH20 0xFFFFFFFFFFFFFFFFFFFFFFFFFFFFFFFFFFFFFFFF AND MUL OR SWAP1 SSTORE POP DUP2 PUSH20 0xFFFFFFFFFFFFFFFFFFFFFFFFFFFFFFFFFFFFFFFF AND DUP2 PUSH20 0xFFFFFFFFFFFFFFFFFFFFFFFFFFFFFFFFFFFFFFFF AND PUSH32 0x8BE0079C531659141344CD1FD0A4F28419497F9722A3DAAFE3B4186F6B6457E0 PUSH1 0x40 MLOAD PUSH1 0x40 MLOAD DUP1 SWAP2 SUB SWAP1 LOG3 POP POP JUMP JUMPDEST PUSH1 0x0 DUP2 MLOAD SWAP1 POP PUSH3 0x1F4 DUP2 PUSH3 0x31C JUMP JUMPDEST SWAP3 SWAP2 POP POP JUMP JUMPDEST PUSH1 0x0 DUP2 MLOAD SWAP1 POP PUSH3 0x20B DUP2 PUSH3 0x336 JUMP JUMPDEST SWAP3 SWAP2 POP POP JUMP JUMPDEST PUSH1 0x0 DUP2 MLOAD SWAP1 POP PUSH3 0x222 DUP2 PUSH3 0x350 JUMP JUMPDEST SWAP3 SWAP2 POP POP JUMP JUMPDEST PUSH1 0x0 DUP2 MLOAD SWAP1 POP PUSH3 0x239 DUP2 PUSH3 0x36A JUMP JUMPDEST SWAP3 SWAP2 POP POP JUMP JUMPDEST PUSH1 0x0 DUP1 PUSH1 0x0 DUP1 PUSH1 0x80 DUP6 DUP8 SUB SLT ISZERO PUSH3 0x25C JUMPI PUSH3 0x25B PUSH3 0x317 JUMP JUMPDEST JUMPDEST PUSH1 0x0 PUSH3 0x26C DUP8 DUP3 DUP9 ADD PUSH3 0x211 JUMP JUMPDEST SWAP5 POP POP PUSH1 0x20 PUSH3 0x27F DUP8 DUP3 DUP9 ADD PUSH3 0x1FA JUMP JUMPDEST SWAP4 POP POP PUSH1 0x40 PUSH3 0x292 DUP8 DUP3 DUP9 ADD PUSH3 0x228 JUMP JUMPDEST SWAP3 POP POP PUSH1 0x60 PUSH3 0x2A5 DUP8 DUP3 DUP9 ADD PUSH3 0x1E3 JUMP JUMPDEST SWAP2 POP POP SWAP3 SWAP6 SWAP2 SWAP5 POP SWAP3 POP JUMP JUMPDEST PUSH1 0x0 PUSH3 0x2BE DUP3 PUSH3 0x2ED JUMP JUMPDEST SWAP1 POP SWAP2 SWAP1 POP JUMP JUMPDEST PUSH1 0x0 PUSH3 0x2D2 DUP3 PUSH3 0x2B1 JUMP JUMPDEST SWAP1 POP SWAP2 SWAP1 POP JUMP JUMPDEST PUSH1 0x0 PUSH3 0x2E6 DUP3 PUSH3 0x2B1 JUMP JUMPDEST SWAP1 POP SWAP2 SWAP1 POP JUMP JUMPDEST PUSH1 0x0 PUSH20 0xFFFFFFFFFFFFFFFFFFFFFFFFFFFFFFFFFFFFFFFF DUP3 AND SWAP1 POP SWAP2 SWAP1 POP JUMP JUMPDEST PUSH1 0x0 DUP2 SWAP1 POP SWAP2 SWAP1 POP JUMP JUMPDEST PUSH1 0x0 DUP1 REVERT JUMPDEST PUSH3 0x327 DUP2 PUSH3 0x2B1 JUMP JUMPDEST DUP2 EQ PUSH3 0x333 JUMPI PUSH1 0x0 DUP1 REVERT JUMPDEST POP JUMP JUMPDEST PUSH3 0x341 DUP2 PUSH3 0x2C5 JUMP JUMPDEST DUP2 EQ PUSH3 0x34D JUMPI PUSH1 0x0 DUP1 REVERT JUMPDEST POP JUMP JUMPDEST PUSH3 0x35B DUP2 PUSH3 0x2D9 JUMP JUMPDEST DUP2 EQ PUSH3 0x367 JUMPI PUSH1 0x0 DUP1 REVERT JUMPDEST POP JUMP JUMPDEST PUSH3 0x375 DUP2 PUSH3 0x30D JUMP JUMPDEST DUP2 EQ PUSH3 0x381 JUMPI PUSH1 0x0 DUP1 REVERT JUMPDEST POP JUMP JUMPDEST PUSH1 0x80 MLOAD PUSH1 0x60 SHR PUSH1 0xA0 MLOAD PUSH1 0x60 SHR PUSH2 0x2E34 PUSH3 0x404 PUSH1 0x0 CODECOPY PUSH1 0x0 DUP2 DUP2 PUSH2 0x962 ADD MSTORE DUP2 DUP2 PUSH2 0xA08 ADD MSTORE DUP2 DUP2 PUSH2 0xB4E ADD MSTORE DUP2 DUP2 PUSH2 0xBFD ADD MSTORE DUP2 DUP2 PUSH2 0xCAE ADD MSTORE DUP2 DUP2 PUSH2 0xCF5 ADD MSTORE DUP2 DUP2 PUSH2 0xDA4 ADD MSTORE DUP2 DUP2 PUSH2 0xE77 ADD MSTORE DUP2 DUP2 PUSH2 0x1547 ADD MSTORE PUSH2 0x15F6 ADD MSTORE PUSH1 0x0 DUP2 DUP2 PUSH2 0x3E9 ADD MSTORE DUP2 DUP2 PUSH2 0x835 ADD MSTORE DUP2 DUP2 PUSH2 0x12BF ADD MSTORE PUSH2 0x17B2 ADD MSTORE PUSH2 0x2E34 PUSH1 0x0 RETURN INVALID PUSH1 0x80 PUSH1 0x40 MSTORE CALLVALUE DUP1 ISZERO PUSH2 0x10 JUMPI PUSH1 0x0 DUP1 REVERT JUMPDEST POP PUSH1 0x4 CALLDATASIZE LT PUSH2 0x12C JUMPI PUSH1 0x0 CALLDATALOAD PUSH1 0xE0 SHR DUP1 PUSH4 0x8AE39CAC GT PUSH2 0xAD JUMPI DUP1 PUSH4 0xB5962917 GT PUSH2 0x71 JUMPI DUP1 PUSH4 0xB5962917 EQ PUSH2 0x2EA JUMPI DUP1 PUSH4 0xD06FCBA8 EQ PUSH2 0x308 JUMPI DUP1 PUSH4 0xE449F341 EQ PUSH2 0x326 JUMPI DUP1 PUSH4 0xF25F4B56 EQ PUSH2 0x342 JUMPI DUP1 PUSH4 0xF2FDE38B EQ PUSH2 0x360 JUMPI PUSH2 0x12C JUMP JUMPDEST DUP1 PUSH4 0x8AE39CAC EQ PUSH2 0x244 JUMPI DUP1 PUSH4 0x8DA5CB5B EQ PUSH2 0x262 JUMPI DUP1 PUSH4 0x8DBB1E3A EQ PUSH2 0x280 JUMPI DUP1 PUSH4 0x90D49B9D EQ PUSH2 0x2B0 JUMPI DUP1 PUSH4 0xA9F8D181 EQ PUSH2 0x2CC JUMPI PUSH2 0x12C JUMP JUMPDEST DUP1 PUSH4 0x4641257D GT PUSH2 0xF4 JUMPI DUP1 PUSH4 0x4641257D EQ PUSH2 0x1D8 JUMPI DUP1 PUSH4 0x567E98F9 EQ PUSH2 0x1E2 JUMPI DUP1 PUSH4 0x5E42B455 EQ PUSH2 0x200 JUMPI DUP1 PUSH4 0x715018A6 EQ PUSH2 0x21E JUMPI DUP1 PUSH4 0x792B55B6 EQ PUSH2 0x228 JUMPI PUSH2 0x12C JUMP JUMPDEST DUP1 PUSH4 0xFBF0A93 EQ PUSH2 0x131 JUMPI DUP1 PUSH4 0x1959A002 EQ PUSH2 0x14D JUMPI DUP1 PUSH4 0x19FCA9F6 EQ PUSH2 0x180 JUMPI DUP1 PUSH4 0x1E2720FF EQ PUSH2 0x19E JUMPI DUP1 PUSH4 0x43DB3C5F EQ PUSH2 0x1BA JUMPI JUMPDEST PUSH1 0x0 DUP1 REVERT JUMPDEST PUSH2 0x14B PUSH1 0x4 DUP1 CALLDATASIZE SUB DUP2 ADD SWAP1 PUSH2 0x146 SWAP2 SWAP1 PUSH2 0x21CB JUMP JUMPDEST PUSH2 0x37C JUMP JUMPDEST STOP JUMPDEST PUSH2 0x167 PUSH1 0x4 DUP1 CALLDATASIZE SUB DUP2 ADD SWAP1 PUSH2 0x162 SWAP2 SWAP1 PUSH2 0x2171 JUMP JUMPDEST PUSH2 0x930 JUMP JUMPDEST PUSH1 0x40 MLOAD PUSH2 0x177 SWAP5 SWAP4 SWAP3 SWAP2 SWAP1 PUSH2 0x27ED JUMP JUMPDEST PUSH1 0x40 MLOAD DUP1 SWAP2 SUB SWAP1 RETURN JUMPDEST PUSH2 0x188 PUSH2 0x960 JUMP JUMPDEST PUSH1 0x40 MLOAD PUSH2 0x195 SWAP2 SWAP1 PUSH2 0x263A JUMP JUMPDEST PUSH1 0x40 MLOAD DUP1 SWAP2 SUB SWAP1 RETURN JUMPDEST PUSH2 0x1B8 PUSH1 0x4 DUP1 CALLDATASIZE SUB DUP2 ADD SWAP1 PUSH2 0x1B3 SWAP2 SWAP1 PUSH2 0x2245 JUMP JUMPDEST PUSH2 0x984 JUMP JUMPDEST STOP JUMPDEST PUSH2 0x1C2 PUSH2 0xAB9 JUMP JUMPDEST PUSH1 0x40 MLOAD PUSH2 0x1CF SWAP2 SWAP1 PUSH2 0x27D2 JUMP JUMPDEST PUSH1 0x40 MLOAD DUP1 SWAP2 SUB SWAP1 RETURN JUMPDEST PUSH2 0x1E0 PUSH2 0xABF JUMP JUMPDEST STOP JUMPDEST PUSH2 0x1EA PUSH2 0xF46 JUMP JUMPDEST PUSH1 0x40 MLOAD PUSH2 0x1F7 SWAP2 SWAP1 PUSH2 0x27D2 JUMP JUMPDEST PUSH1 0x40 MLOAD DUP1 SWAP2 SUB SWAP1 RETURN JUMPDEST PUSH2 0x208 PUSH2 0xF4C JUMP JUMPDEST PUSH1 0x40 MLOAD PUSH2 0x215 SWAP2 SWAP1 PUSH2 0x27D2 JUMP JUMPDEST PUSH1 0x40 MLOAD DUP1 SWAP2 SUB SWAP1 RETURN JUMPDEST PUSH2 0x226 PUSH2 0xFB7 JUMP JUMPDEST STOP JUMPDEST PUSH2 0x242 PUSH1 0x4 DUP1 CALLDATASIZE SUB DUP2 ADD SWAP1 PUSH2 0x23D SWAP2 SWAP1 PUSH2 0x2245 JUMP JUMPDEST PUSH2 0x103F JUMP JUMPDEST STOP JUMPDEST PUSH2 0x24C PUSH2 0x1140 JUMP JUMPDEST PUSH1 0x40 MLOAD PUSH2 0x259 SWAP2 SWAP1 PUSH2 0x27D2 JUMP JUMPDEST PUSH1 0x40 MLOAD DUP1 SWAP2 SUB SWAP1 RETURN JUMPDEST PUSH2 0x26A PUSH2 0x1146 JUMP JUMPDEST PUSH1 0x40 MLOAD PUSH2 0x277 SWAP2 SWAP1 PUSH2 0x2556 JUMP JUMPDEST PUSH1 0x40 MLOAD DUP1 SWAP2 SUB SWAP1 RETURN JUMPDEST PUSH2 0x29A PUSH1 0x4 DUP1 CALLDATASIZE SUB DUP2 ADD SWAP1 PUSH2 0x295 SWAP2 SWAP1 PUSH2 0x229F JUMP JUMPDEST PUSH2 0x116F JUMP JUMPDEST PUSH1 0x40 MLOAD PUSH2 0x2A7 SWAP2 SWAP1 PUSH2 0x27D2 JUMP JUMPDEST PUSH1 0x40 MLOAD DUP1 SWAP2 SUB SWAP1 RETURN JUMPDEST PUSH2 0x2CA PUSH1 0x4 DUP1 CALLDATASIZE SUB DUP2 ADD SWAP1 PUSH2 0x2C5 SWAP2 SWAP1 PUSH2 0x2171 JUMP JUMPDEST PUSH2 0x118C JUMP JUMPDEST STOP JUMPDEST PUSH2 0x2D4 PUSH2 0x12B1 JUMP JUMPDEST PUSH1 0x40 MLOAD PUSH2 0x2E1 SWAP2 SWAP1 PUSH2 0x27D2 JUMP JUMPDEST PUSH1 0x40 MLOAD DUP1 SWAP2 SUB SWAP1 RETURN JUMPDEST PUSH2 0x2F2 PUSH2 0x12B7 JUMP JUMPDEST PUSH1 0x40 MLOAD PUSH2 0x2FF SWAP2 SWAP1 PUSH2 0x27D2 JUMP JUMPDEST PUSH1 0x40 MLOAD DUP1 SWAP2 SUB SWAP1 RETURN JUMPDEST PUSH2 0x310 PUSH2 0x12BD JUMP JUMPDEST PUSH1 0x40 MLOAD PUSH2 0x31D SWAP2 SWAP1 PUSH2 0x2655 JUMP JUMPDEST PUSH1 0x40 MLOAD DUP1 SWAP2 SUB SWAP1 RETURN JUMPDEST PUSH2 0x340 PUSH1 0x4 DUP1 CALLDATASIZE SUB DUP2 ADD SWAP1 PUSH2 0x33B SWAP2 SWAP1 PUSH2 0x21CB JUMP JUMPDEST PUSH2 0x12E1 JUMP JUMPDEST STOP JUMPDEST PUSH2 0x34A PUSH2 0x18AE JUMP JUMPDEST PUSH1 0x40 MLOAD PUSH2 0x357 SWAP2 SWAP1 PUSH2 0x2556 JUMP JUMPDEST PUSH1 0x40 MLOAD DUP1 SWAP2 SUB SWAP1 RETURN JUMPDEST PUSH2 0x37A PUSH1 0x4 DUP1 CALLDATASIZE SUB DUP2 ADD SWAP1 PUSH2 0x375 SWAP2 SWAP1 PUSH2 0x2171 JUMP JUMPDEST PUSH2 0x18D4 JUMP JUMPDEST STOP JUMPDEST PUSH1 0x0 DUP3 DUP3 SWAP1 POP GT PUSH2 0x3C2 JUMPI PUSH1 0x40 MLOAD PUSH32 0x8C379A000000000000000000000000000000000000000000000000000000000 DUP2 MSTORE PUSH1 0x4 ADD PUSH2 0x3B9 SWAP1 PUSH2 0x2692 JUMP JUMPDEST PUSH1 0x40 MLOAD DUP1 SWAP2 SUB SWAP1 REVERT JUMPDEST PUSH1 0x0 JUMPDEST DUP3 DUP3 SWAP1 POP DUP2 LT ISZERO PUSH2 0x673 JUMPI CALLER PUSH20 0xFFFFFFFFFFFFFFFFFFFFFFFFFFFFFFFFFFFFFFFF AND PUSH32 0x0 PUSH20 0xFFFFFFFFFFFFFFFFFFFFFFFFFFFFFFFFFFFFFFFF AND PUSH4 0x6352211E DUP6 DUP6 DUP6 DUP2 DUP2 LT PUSH2 0x436 JUMPI PUSH2 0x435 PUSH2 0x2B03 JUMP JUMPDEST JUMPDEST SWAP1 POP PUSH1 0x20 MUL ADD CALLDATALOAD PUSH1 0x40 MLOAD DUP3 PUSH4 0xFFFFFFFF AND PUSH1 0xE0 SHL DUP2 MSTORE PUSH1 0x4 ADD PUSH2 0x459 SWAP2 SWAP1 PUSH2 0x27D2 JUMP JUMPDEST PUSH1 0x20 PUSH1 0x40 MLOAD DUP1 DUP4 SUB DUP2 DUP7 DUP1 EXTCODESIZE ISZERO DUP1 ISZERO PUSH2 0x471 JUMPI PUSH1 0x0 DUP1 REVERT JUMPDEST POP GAS STATICCALL ISZERO DUP1 ISZERO PUSH2 0x485 JUMPI RETURNDATASIZE PUSH1 0x0 DUP1 RETURNDATACOPY RETURNDATASIZE PUSH1 0x0 REVERT JUMPDEST POP POP POP POP PUSH1 0x40 MLOAD RETURNDATASIZE PUSH1 0x1F NOT PUSH1 0x1F DUP3 ADD AND DUP3 ADD DUP1 PUSH1 0x40 MSTORE POP DUP2 ADD SWAP1 PUSH2 0x4A9 SWAP2 SWAP1 PUSH2 0x219E JUMP JUMPDEST PUSH20 0xFFFFFFFFFFFFFFFFFFFFFFFFFFFFFFFFFFFFFFFF AND EQ PUSH2 0x4FF JUMPI PUSH1 0x40 MLOAD PUSH32 0x8C379A000000000000000000000000000000000000000000000000000000000 DUP2 MSTORE PUSH1 0x4 ADD PUSH2 0x4F6 SWAP1 PUSH2 0x2712 JUMP JUMPDEST PUSH1 0x40 MLOAD DUP1 SWAP2 SUB SWAP1 REVERT JUMPDEST PUSH1 0x0 PUSH20 0xFFFFFFFFFFFFFFFFFFFFFFFFFFFFFFFFFFFFFFFF AND PUSH1 0x8 PUSH1 0x0 DUP6 DUP6 DUP6 DUP2 DUP2 LT PUSH2 0x52E JUMPI PUSH2 0x52D PUSH2 0x2B03 JUMP JUMPDEST JUMPDEST SWAP1 POP PUSH1 0x20 MUL ADD CALLDATALOAD DUP2 MSTORE PUSH1 0x20 ADD SWAP1 DUP2 MSTORE PUSH1 0x20 ADD PUSH1 0x0 KECCAK256 PUSH1 0x0 SWAP1 SLOAD SWAP1 PUSH2 0x100 EXP SWAP1 DIV PUSH20 0xFFFFFFFFFFFFFFFFFFFFFFFFFFFFFFFFFFFFFFFF AND PUSH20 0xFFFFFFFFFFFFFFFFFFFFFFFFFFFFFFFFFFFFFFFF AND EQ PUSH2 0x5BA JUMPI PUSH1 0x40 MLOAD PUSH32 0x8C379A000000000000000000000000000000000000000000000000000000000 DUP2 MSTORE PUSH1 0x4 ADD PUSH2 0x5B1 SWAP1 PUSH2 0x2732 JUMP JUMPDEST PUSH1 0x40 MLOAD DUP1 SWAP2 SUB SWAP1 REVERT JUMPDEST PUSH1 0x0 PUSH1 0x1 DUP3 PUSH2 0x5C9 SWAP2 SWAP1 PUSH2 0x2875 JUMP JUMPDEST SWAP1 POP JUMPDEST DUP4 DUP4 SWAP1 POP DUP2 LT ISZERO PUSH2 0x65F JUMPI DUP4 DUP4 DUP3 DUP2 DUP2 LT PUSH2 0x5EA JUMPI PUSH2 0x5E9 PUSH2 0x2B03 JUMP JUMPDEST JUMPDEST SWAP1 POP PUSH1 0x20 MUL ADD CALLDATALOAD DUP5 DUP5 DUP5 DUP2 DUP2 LT PUSH2 0x604 JUMPI PUSH2 0x603 PUSH2 0x2B03 JUMP JUMPDEST JUMPDEST SWAP1 POP PUSH1 0x20 MUL ADD CALLDATALOAD EQ ISZERO PUSH2 0x64C JUMPI PUSH1 0x40 MLOAD PUSH32 0x8C379A000000000000000000000000000000000000000000000000000000000 DUP2 MSTORE PUSH1 0x4 ADD PUSH2 0x643 SWAP1 PUSH2 0x26F2 JUMP JUMPDEST PUSH1 0x40 MLOAD DUP1 SWAP2 SUB SWAP1 REVERT JUMPDEST DUP1 DUP1 PUSH2 0x657 SWAP1 PUSH2 0x2A5C JUMP JUMPDEST SWAP2 POP POP PUSH2 0x5CC JUMP JUMPDEST POP DUP1 DUP1 PUSH2 0x66B SWAP1 PUSH2 0x2A5C JUMP JUMPDEST SWAP2 POP POP PUSH2 0x3C5 JUMP JUMPDEST POP PUSH2 0x67C PUSH2 0x19CC JUMP JUMPDEST PUSH1 0x0 PUSH1 0x9 PUSH1 0x0 CALLER PUSH20 0xFFFFFFFFFFFFFFFFFFFFFFFFFFFFFFFFFFFFFFFF AND PUSH20 0xFFFFFFFFFFFFFFFFFFFFFFFFFFFFFFFFFFFFFFFF AND DUP2 MSTORE PUSH1 0x20 ADD SWAP1 DUP2 MSTORE PUSH1 0x20 ADD PUSH1 0x0 KECCAK256 SWAP1 POP PUSH1 0x0 DUP2 PUSH1 0x0 ADD SLOAD GT ISZERO PUSH2 0x737 JUMPI PUSH1 0x0 PUSH2 0x714 DUP3 PUSH1 0x1 ADD SLOAD PUSH2 0x706 PUSH5 0xE8D4A51000 PUSH2 0x6F8 PUSH1 0x2 SLOAD DUP8 PUSH1 0x0 ADD SLOAD PUSH2 0x1B00 SWAP1 SWAP2 SWAP1 PUSH4 0xFFFFFFFF AND JUMP JUMPDEST PUSH2 0x1B16 SWAP1 SWAP2 SWAP1 PUSH4 0xFFFFFFFF AND JUMP JUMPDEST PUSH2 0x1B2C SWAP1 SWAP2 SWAP1 PUSH4 0xFFFFFFFF AND JUMP JUMPDEST SWAP1 POP PUSH2 0x72D DUP2 DUP4 PUSH1 0x2 ADD SLOAD PUSH2 0x1B42 SWAP1 SWAP2 SWAP1 PUSH4 0xFFFFFFFF AND JUMP JUMPDEST DUP3 PUSH1 0x2 ADD DUP2 SWAP1 SSTORE POP POP JUMPDEST PUSH1 0x0 DUP4 DUP4 SWAP1 POP SWAP1 POP PUSH2 0x754 DUP2 PUSH1 0x6 SLOAD PUSH2 0x1B42 SWAP1 SWAP2 SWAP1 PUSH4 0xFFFFFFFF AND JUMP JUMPDEST PUSH1 0x6 DUP2 SWAP1 SSTORE POP PUSH2 0x771 DUP2 DUP4 PUSH1 0x0 ADD SLOAD PUSH2 0x1B42 SWAP1 SWAP2 SWAP1 PUSH4 0xFFFFFFFF AND JUMP JUMPDEST DUP3 PUSH1 0x0 ADD DUP2 SWAP1 SSTORE POP PUSH2 0x7A9 PUSH5 0xE8D4A51000 PUSH2 0x79B PUSH1 0x2 SLOAD DUP6 PUSH1 0x0 ADD SLOAD PUSH2 0x1B00 SWAP1 SWAP2 SWAP1 PUSH4 0xFFFFFFFF AND JUMP JUMPDEST PUSH2 0x1B16 SWAP1 SWAP2 SWAP1 PUSH4 0xFFFFFFFF AND JUMP JUMPDEST DUP3 PUSH1 0x1 ADD DUP2 SWAP1 SSTORE POP TIMESTAMP DUP3 PUSH1 0x3 ADD DUP2 SWAP1 SSTORE POP PUSH1 0x0 JUMPDEST DUP5 DUP5 SWAP1 POP DUP2 LT ISZERO PUSH2 0x8EE JUMPI CALLER PUSH1 0x8 PUSH1 0x0 DUP8 DUP8 DUP6 DUP2 DUP2 LT PUSH2 0x7E0 JUMPI PUSH2 0x7DF PUSH2 0x2B03 JUMP JUMPDEST JUMPDEST SWAP1 POP PUSH1 0x20 MUL ADD CALLDATALOAD DUP2 MSTORE PUSH1 0x20 ADD SWAP1 DUP2 MSTORE PUSH1 0x20 ADD PUSH1 0x0 KECCAK256 PUSH1 0x0 PUSH2 0x100 EXP DUP2 SLOAD DUP2 PUSH20 0xFFFFFFFFFFFFFFFFFFFFFFFFFFFFFFFFFFFFFFFF MUL NOT AND SWAP1 DUP4 PUSH20 0xFFFFFFFFFFFFFFFFFFFFFFFFFFFFFFFFFFFFFFFF AND MUL OR SWAP1 SSTORE POP PUSH32 0x0 PUSH20 0xFFFFFFFFFFFFFFFFFFFFFFFFFFFFFFFFFFFFFFFF AND PUSH4 0x23B872DD CALLER ADDRESS DUP9 DUP9 DUP7 DUP2 DUP2 LT PUSH2 0x884 JUMPI PUSH2 0x883 PUSH2 0x2B03 JUMP JUMPDEST JUMPDEST SWAP1 POP PUSH1 0x20 MUL ADD CALLDATALOAD PUSH1 0x40 MLOAD DUP5 PUSH4 0xFFFFFFFF AND PUSH1 0xE0 SHL DUP2 MSTORE PUSH1 0x4 ADD PUSH2 0x8A9 SWAP4 SWAP3 SWAP2 SWAP1 PUSH2 0x2571 JUMP JUMPDEST PUSH1 0x0 PUSH1 0x40 MLOAD DUP1 DUP4 SUB DUP2 PUSH1 0x0 DUP8 DUP1 EXTCODESIZE ISZERO DUP1 ISZERO PUSH2 0x8C3 JUMPI PUSH1 0x0 DUP1 REVERT JUMPDEST POP GAS CALL ISZERO DUP1 ISZERO PUSH2 0x8D7 JUMPI RETURNDATASIZE PUSH1 0x0 DUP1 RETURNDATACOPY RETURNDATASIZE PUSH1 0x0 REVERT JUMPDEST POP POP POP POP DUP1 DUP1 PUSH2 0x8E6 SWAP1 PUSH2 0x2A5C JUMP JUMPDEST SWAP2 POP POP PUSH2 0x7BD JUMP JUMPDEST POP PUSH32 0x134B166C6094CC1CCBF1E3353CE5C3CD9FD29869051BDB999895854D77CC5EF6 CALLER DUP6 DUP6 PUSH1 0x40 MLOAD PUSH2 0x922 SWAP4 SWAP3 SWAP2 SWAP1 PUSH2 0x25A8 JUMP JUMPDEST PUSH1 0x40 MLOAD DUP1 SWAP2 SUB SWAP1 LOG1 POP POP POP POP JUMP JUMPDEST PUSH1 0x9 PUSH1 0x20 MSTORE DUP1 PUSH1 0x0 MSTORE PUSH1 0x40 PUSH1 0x0 KECCAK256 PUSH1 0x0 SWAP2 POP SWAP1 POP DUP1 PUSH1 0x0 ADD SLOAD SWAP1 DUP1 PUSH1 0x1 ADD SLOAD SWAP1 DUP1 PUSH1 0x2 ADD SLOAD SWAP1 DUP1 PUSH1 0x3 ADD SLOAD SWAP1 POP DUP5 JUMP JUMPDEST PUSH32 0x0 DUP2 JUMP JUMPDEST PUSH2 0x98C PUSH2 0x1B58 JUMP JUMPDEST PUSH20 0xFFFFFFFFFFFFFFFFFFFFFFFFFFFFFFFFFFFFFFFF AND PUSH2 0x9AA PUSH2 0x1146 JUMP JUMPDEST PUSH20 0xFFFFFFFFFFFFFFFFFFFFFFFFFFFFFFFFFFFFFFFF AND EQ PUSH2 0xA00 JUMPI PUSH1 0x40 MLOAD PUSH32 0x8C379A000000000000000000000000000000000000000000000000000000000 DUP2 MSTORE PUSH1 0x4 ADD PUSH2 0x9F7 SWAP1 PUSH2 0x2752 JUMP JUMPDEST PUSH1 0x40 MLOAD DUP1 SWAP2 SUB SWAP1 REVERT JUMPDEST PUSH2 0xA4D CALLER ADDRESS DUP4 PUSH32 0x0 PUSH20 0xFFFFFFFFFFFFFFFFFFFFFFFFFFFFFFFFFFFFFFFF AND PUSH2 0x1B60 SWAP1 SWAP4 SWAP3 SWAP2 SWAP1 PUSH4 0xFFFFFFFF AND JUMP JUMPDEST CALLER PUSH20 0xFFFFFFFFFFFFFFFFFFFFFFFFFFFFFFFFFFFFFFFF AND PUSH32 0x4F7FD5C9E17300A4800FD572EA53FC291E2EE7470D73346D16B357FAEE4E7210 DUP3 PUSH1 0x40 MLOAD PUSH2 0xA93 SWAP2 SWAP1 PUSH2 0x27D2 JUMP JUMPDEST PUSH1 0x40 MLOAD DUP1 SWAP2 SUB SWAP1 LOG2 PUSH2 0xAB0 DUP2 PUSH1 0x7 SLOAD PUSH2 0x1B42 SWAP1 SWAP2 SWAP1 PUSH4 0xFFFFFFFF AND JUMP JUMPDEST PUSH1 0x7 DUP2 SWAP1 SSTORE POP POP JUMP JUMPDEST PUSH1 0x2 SLOAD DUP2 JUMP JUMPDEST PUSH1 0x0 PUSH2 0xACA CALLER PUSH2 0x1BE9 JUMP JUMPDEST SWAP1 POP PUSH1 0x0 PUSH1 0x9 PUSH1 0x0 CALLER PUSH20 0xFFFFFFFFFFFFFFFFFFFFFFFFFFFFFFFFFFFFFFFF AND PUSH20 0xFFFFFFFFFFFFFFFFFFFFFFFFFFFFFFFFFFFFFFFF AND DUP2 MSTORE PUSH1 0x20 ADD SWAP1 DUP2 MSTORE PUSH1 0x20 ADD PUSH1 0x0 KECCAK256 SWAP1 POP PUSH1 0x0 PUSH2 0xB39 PUSH1 0x64 PUSH2 0xB2B PUSH1 0x5 SLOAD DUP7 PUSH2 0x1B00 SWAP1 SWAP2 SWAP1 PUSH4 0xFFFFFFFF AND JUMP JUMPDEST PUSH2 0x1B16 SWAP1 SWAP2 SWAP1 PUSH4 0xFFFFFFFF AND JUMP JUMPDEST SWAP1 POP PUSH1 0x0 DUP2 DUP5 PUSH2 0xB49 SWAP2 SWAP1 PUSH2 0x2956 JUMP JUMPDEST SWAP1 POP DUP1 PUSH32 0x0 PUSH20 0xFFFFFFFFFFFFFFFFFFFFFFFFFFFFFFFFFFFFFFFF AND PUSH4 0x70A08231 ADDRESS PUSH1 0x40 MLOAD DUP3 PUSH4 0xFFFFFFFF AND PUSH1 0xE0 SHL DUP2 MSTORE PUSH1 0x4 ADD PUSH2 0xBA5 SWAP2 SWAP1 PUSH2 0x2556 JUMP JUMPDEST PUSH1 0x20 PUSH1 0x40 MLOAD DUP1 DUP4 SUB DUP2 DUP7 DUP1 EXTCODESIZE ISZERO DUP1 ISZERO PUSH2 0xBBD JUMPI PUSH1 0x0 DUP1 REVERT JUMPDEST POP GAS STATICCALL ISZERO DUP1 ISZERO PUSH2 0xBD1 JUMPI RETURNDATASIZE PUSH1 0x0 DUP1 RETURNDATACOPY RETURNDATASIZE PUSH1 0x0 REVERT JUMPDEST POP POP POP POP PUSH1 0x40 MLOAD RETURNDATASIZE PUSH1 0x1F NOT PUSH1 0x1F DUP3 ADD AND DUP3 ADD DUP1 PUSH1 0x40 MSTORE POP DUP2 ADD SWAP1 PUSH2 0xBF5 SWAP2 SWAP1 PUSH2 0x2272 JUMP JUMPDEST LT ISZERO PUSH2 0xCA7 JUMPI PUSH32 0x0 PUSH20 0xFFFFFFFFFFFFFFFFFFFFFFFFFFFFFFFFFFFFFFFF AND PUSH4 0x70A08231 ADDRESS PUSH1 0x40 MLOAD DUP3 PUSH4 0xFFFFFFFF AND PUSH1 0xE0 SHL DUP2 MSTORE PUSH1 0x4 ADD PUSH2 0xC54 SWAP2 SWAP1 PUSH2 0x2556 JUMP JUMPDEST PUSH1 0x20 PUSH1 0x40 MLOAD DUP1 DUP4 SUB DUP2 DUP7 DUP1 EXTCODESIZE ISZERO DUP1 ISZERO PUSH2 0xC6C JUMPI PUSH1 0x0 DUP1 REVERT JUMPDEST POP GAS STATICCALL ISZERO DUP1 ISZERO PUSH2 0xC80 JUMPI RETURNDATASIZE PUSH1 0x0 DUP1 RETURNDATACOPY RETURNDATASIZE PUSH1 0x0 REVERT JUMPDEST POP POP POP POP PUSH1 0x40 MLOAD RETURNDATASIZE PUSH1 0x1F NOT PUSH1 0x1F DUP3 ADD AND DUP3 ADD DUP1 PUSH1 0x40 MSTORE POP DUP2 ADD SWAP1 PUSH2 0xCA4 SWAP2 SWAP1 PUSH2 0x2272 JUMP JUMPDEST SWAP1 POP JUMPDEST PUSH2 0xCF2 CALLER DUP3 PUSH32 0x0 PUSH20 0xFFFFFFFFFFFFFFFFFFFFFFFFFFFFFFFFFFFFFFFF AND PUSH2 0x1D1C SWAP1 SWAP3 SWAP2 SWAP1 PUSH4 0xFFFFFFFF AND JUMP JUMPDEST DUP2 PUSH32 0x0 PUSH20 0xFFFFFFFFFFFFFFFFFFFFFFFFFFFFFFFFFFFFFFFF AND PUSH4 0x70A08231 ADDRESS PUSH1 0x40 MLOAD DUP3 PUSH4 0xFFFFFFFF AND PUSH1 0xE0 SHL DUP2 MSTORE PUSH1 0x4 ADD PUSH2 0xD4C SWAP2 SWAP1 PUSH2 0x2556 JUMP JUMPDEST PUSH1 0x20 PUSH1 0x40 MLOAD DUP1 DUP4 SUB DUP2 DUP7 DUP1 EXTCODESIZE ISZERO DUP1 ISZERO PUSH2 0xD64 JUMPI PUSH1 0x0 DUP1 REVERT JUMPDEST POP GAS STATICCALL ISZERO DUP1 ISZERO PUSH2 0xD78 JUMPI RETURNDATASIZE PUSH1 0x0 DUP1 RETURNDATACOPY RETURNDATASIZE PUSH1 0x0 REVERT JUMPDEST POP POP POP POP PUSH1 0x40 MLOAD RETURNDATASIZE PUSH1 0x1F NOT PUSH1 0x1F DUP3 ADD AND DUP3 ADD DUP1 PUSH1 0x40 MSTORE POP DUP2 ADD SWAP1 PUSH2 0xD9C SWAP2 SWAP1 PUSH2 0x2272 JUMP JUMPDEST LT ISZERO PUSH2 0xE4E JUMPI PUSH32 0x0 PUSH20 0xFFFFFFFFFFFFFFFFFFFFFFFFFFFFFFFFFFFFFFFF AND PUSH4 0x70A08231 ADDRESS PUSH1 0x40 MLOAD DUP3 PUSH4 0xFFFFFFFF AND PUSH1 0xE0 SHL DUP2 MSTORE PUSH1 0x4 ADD PUSH2 0xDFB SWAP2 SWAP1 PUSH2 0x2556 JUMP JUMPDEST PUSH1 0x20 PUSH1 0x40 MLOAD DUP1 DUP4 SUB DUP2 DUP7 DUP1 EXTCODESIZE ISZERO DUP1 ISZERO PUSH2 0xE13 JUMPI PUSH1 0x0 DUP1 REVERT JUMPDEST POP GAS STATICCALL ISZERO DUP1 ISZERO PUSH2 0xE27 JUMPI RETURNDATASIZE PUSH1 0x0 DUP1 RETURNDATACOPY RETURNDATASIZE PUSH1 0x0 REVERT JUMPDEST POP POP POP POP PUSH1 0x40 MLOAD RETURNDATASIZE PUSH1 0x1F NOT PUSH1 0x1F DUP3 ADD AND DUP3 ADD DUP1 PUSH1 0x40 MSTORE POP DUP2 ADD SWAP1 PUSH2 0xE4B SWAP2 SWAP1 PUSH2 0x2272 JUMP JUMPDEST SWAP2 POP JUMPDEST PUSH2 0xEBB PUSH1 0x4 PUSH1 0x0 SWAP1 SLOAD SWAP1 PUSH2 0x100 EXP SWAP1 DIV PUSH20 0xFFFFFFFFFFFFFFFFFFFFFFFFFFFFFFFFFFFFFFFF AND DUP4 PUSH32 0x0 PUSH20 0xFFFFFFFFFFFFFFFFFFFFFFFFFFFFFFFFFFFFFFFF AND PUSH2 0x1D1C SWAP1 SWAP3 SWAP2 SWAP1 PUSH4 0xFFFFFFFF AND JUMP JUMPDEST PUSH2 0xEC3 PUSH2 0x19CC JUMP JUMPDEST PUSH1 0x0 DUP4 PUSH1 0x2 ADD DUP2 SWAP1 SSTORE POP PUSH2 0xEFD PUSH5 0xE8D4A51000 PUSH2 0xEEF PUSH1 0x2 SLOAD DUP7 PUSH1 0x0 ADD SLOAD PUSH2 0x1B00 SWAP1 SWAP2 SWAP1 PUSH4 0xFFFFFFFF AND JUMP JUMPDEST PUSH2 0x1B16 SWAP1 SWAP2 SWAP1 PUSH4 0xFFFFFFFF AND JUMP JUMPDEST DUP4 PUSH1 0x1 ADD DUP2 SWAP1 SSTORE POP PUSH32 0x71BAB65CED2E5750775A0613BE067DF48EF06CF92A496EBF7663AE0660924954 CALLER DUP3 DUP5 PUSH1 0x40 MLOAD PUSH2 0xF38 SWAP4 SWAP3 SWAP2 SWAP1 PUSH2 0x2603 JUMP JUMPDEST PUSH1 0x40 MLOAD DUP1 SWAP2 SUB SWAP1 LOG1 POP POP POP POP JUMP JUMPDEST PUSH1 0x6 SLOAD DUP2 JUMP JUMPDEST PUSH1 0x0 PUSH1 0x1 SLOAD NUMBER GT DUP1 ISZERO PUSH2 0xF62 JUMPI POP PUSH1 0x0 PUSH1 0x6 SLOAD EQ ISZERO JUMPDEST ISZERO PUSH2 0xFAE JUMPI PUSH1 0x0 PUSH2 0xF75 PUSH1 0x1 SLOAD NUMBER PUSH2 0x116F JUMP JUMPDEST SWAP1 POP PUSH1 0x0 PUSH2 0xF8E PUSH1 0x3 SLOAD DUP4 PUSH2 0x1B00 SWAP1 SWAP2 SWAP1 PUSH4 0xFFFFFFFF AND JUMP JUMPDEST SWAP1 POP PUSH2 0xFA5 DUP2 PUSH1 0x7 SLOAD PUSH2 0x1B2C SWAP1 SWAP2 SWAP1 PUSH4 0xFFFFFFFF AND JUMP JUMPDEST SWAP3 POP POP POP PUSH2 0xFB4 JUMP JUMPDEST PUSH1 0x7 SLOAD SWAP1 POP JUMPDEST SWAP1 JUMP JUMPDEST PUSH2 0xFBF PUSH2 0x1B58 JUMP JUMPDEST PUSH20 0xFFFFFFFFFFFFFFFFFFFFFFFFFFFFFFFFFFFFFFFF AND PUSH2 0xFDD PUSH2 0x1146 JUMP JUMPDEST PUSH20 0xFFFFFFFFFFFFFFFFFFFFFFFFFFFFFFFFFFFFFFFF AND EQ PUSH2 0x1033 JUMPI PUSH1 0x40 MLOAD PUSH32 0x8C379A000000000000000000000000000000000000000000000000000000000 DUP2 MSTORE PUSH1 0x4 ADD PUSH2 0x102A SWAP1 PUSH2 0x2752 JUMP JUMPDEST PUSH1 0x40 MLOAD DUP1 SWAP2 SUB SWAP1 REVERT JUMPDEST PUSH2 0x103D PUSH1 0x0 PUSH2 0x1DA2 JUMP JUMPDEST JUMP JUMPDEST PUSH2 0x1047 PUSH2 0x1B58 JUMP JUMPDEST PUSH20 0xFFFFFFFFFFFFFFFFFFFFFFFFFFFFFFFFFFFFFFFF AND PUSH2 0x1065 PUSH2 0x1146 JUMP JUMPDEST PUSH20 0xFFFFFFFFFFFFFFFFFFFFFFFFFFFFFFFFFFFFFFFF AND EQ PUSH2 0x10BB JUMPI PUSH1 0x40 MLOAD PUSH32 0x8C379A000000000000000000000000000000000000000000000000000000000 DUP2 MSTORE PUSH1 0x4 ADD PUSH2 0x10B2 SWAP1 PUSH2 0x2752 JUMP JUMPDEST PUSH1 0x40 MLOAD DUP1 SWAP2 SUB SWAP1 REVERT JUMPDEST PUSH1 0x28 DUP2 GT ISZERO PUSH2 0x10FF JUMPI PUSH1 0x40 MLOAD PUSH32 0x8C379A000000000000000000000000000000000000000000000000000000000 DUP2 MSTORE PUSH1 0x4 ADD PUSH2 0x10F6 SWAP1 PUSH2 0x2772 JUMP JUMPDEST PUSH1 0x40 MLOAD DUP1 SWAP2 SUB SWAP1 REVERT JUMPDEST DUP1 PUSH1 0x5 DUP2 SWAP1 SSTORE POP PUSH32 0xF419800A2D8930C61D5D9CD782AA72C512CF6BE2F79DA6DB0B8855870B7269ED DUP2 PUSH1 0x40 MLOAD PUSH2 0x1135 SWAP2 SWAP1 PUSH2 0x27D2 JUMP JUMPDEST PUSH1 0x40 MLOAD DUP1 SWAP2 SUB SWAP1 LOG1 POP JUMP JUMPDEST PUSH1 0x3 SLOAD DUP2 JUMP JUMPDEST PUSH1 0x0 DUP1 PUSH1 0x0 SWAP1 SLOAD SWAP1 PUSH2 0x100 EXP SWAP1 DIV PUSH20 0xFFFFFFFFFFFFFFFFFFFFFFFFFFFFFFFFFFFFFFFF AND SWAP1 POP SWAP1 JUMP JUMPDEST PUSH1 0x0 PUSH2 0x1184 DUP4 DUP4 PUSH2 0x1B2C SWAP1 SWAP2 SWAP1 PUSH4 0xFFFFFFFF AND JUMP JUMPDEST SWAP1 POP SWAP3 SWAP2 POP POP JUMP JUMPDEST PUSH2 0x1194 PUSH2 0x1B58 JUMP JUMPDEST PUSH20 0xFFFFFFFFFFFFFFFFFFFFFFFFFFFFFFFFFFFFFFFF AND PUSH2 0x11B2 PUSH2 0x1146 JUMP JUMPDEST PUSH20 0xFFFFFFFFFFFFFFFFFFFFFFFFFFFFFFFFFFFFFFFF AND EQ PUSH2 0x1208 JUMPI PUSH1 0x40 MLOAD PUSH32 0x8C379A000000000000000000000000000000000000000000000000000000000 DUP2 MSTORE PUSH1 0x4 ADD PUSH2 0x11FF SWAP1 PUSH2 0x2752 JUMP JUMPDEST PUSH1 0x40 MLOAD DUP1 SWAP2 SUB SWAP1 REVERT JUMPDEST DUP1 PUSH1 0x4 PUSH1 0x0 PUSH2 0x100 EXP DUP2 SLOAD DUP2 PUSH20 0xFFFFFFFFFFFFFFFFFFFFFFFFFFFFFFFFFFFFFFFF MUL NOT AND SWAP1 DUP4 PUSH20 0xFFFFFFFFFFFFFFFFFFFFFFFFFFFFFFFFFFFFFFFF AND MUL OR SWAP1 SSTORE POP PUSH1 0x4 PUSH1 0x0 SWAP1 SLOAD SWAP1 PUSH2 0x100 EXP SWAP1 DIV PUSH20 0xFFFFFFFFFFFFFFFFFFFFFFFFFFFFFFFFFFFFFFFF AND PUSH20 0xFFFFFFFFFFFFFFFFFFFFFFFFFFFFFFFFFFFFFFFF AND PUSH32 0x3D21E5A2B633291BD1FF5F9C654E402D063783C95759D2EA521B31FB30E4DA41 PUSH1 0x40 MLOAD PUSH1 0x40 MLOAD DUP1 SWAP2 SUB SWAP1 LOG2 POP JUMP JUMPDEST PUSH1 0x1 SLOAD DUP2 JUMP JUMPDEST PUSH1 0x5 SLOAD DUP2 JUMP JUMPDEST PUSH32 0x0 DUP2 JUMP JUMPDEST PUSH1 0x0 DUP3 DUP3 SWAP1 POP GT PUSH2 0x1327 JUMPI PUSH1 0x40 MLOAD PUSH32 0x8C379A000000000000000000000000000000000000000000000000000000000 DUP2 MSTORE PUSH1 0x4 ADD PUSH2 0x131E SWAP1 PUSH2 0x2692 JUMP JUMPDEST PUSH1 0x40 MLOAD DUP1 SWAP2 SUB SWAP1 REVERT JUMPDEST PUSH1 0x0 JUMPDEST DUP3 DUP3 SWAP1 POP DUP2 LT ISZERO PUSH2 0x14AE JUMPI PUSH1 0x0 DUP4 DUP4 DUP4 DUP2 DUP2 LT PUSH2 0x134A JUMPI PUSH2 0x1349 PUSH2 0x2B03 JUMP JUMPDEST JUMPDEST SWAP1 POP PUSH1 0x20 MUL ADD CALLDATALOAD SWAP1 POP CALLER PUSH20 0xFFFFFFFFFFFFFFFFFFFFFFFFFFFFFFFFFFFFFFFF AND PUSH1 0x8 PUSH1 0x0 DUP4 DUP2 MSTORE PUSH1 0x20 ADD SWAP1 DUP2 MSTORE PUSH1 0x20 ADD PUSH1 0x0 KECCAK256 PUSH1 0x0 SWAP1 SLOAD SWAP1 PUSH2 0x100 EXP SWAP1 DIV PUSH20 0xFFFFFFFFFFFFFFFFFFFFFFFFFFFFFFFFFFFFFFFF AND PUSH20 0xFFFFFFFFFFFFFFFFFFFFFFFFFFFFFFFFFFFFFFFF AND EQ PUSH2 0x13F4 JUMPI PUSH1 0x40 MLOAD PUSH32 0x8C379A000000000000000000000000000000000000000000000000000000000 DUP2 MSTORE PUSH1 0x4 ADD PUSH2 0x13EB SWAP1 PUSH2 0x27B2 JUMP JUMPDEST PUSH1 0x40 MLOAD DUP1 SWAP2 SUB SWAP1 REVERT JUMPDEST PUSH1 0x0 PUSH1 0x1 DUP4 PUSH2 0x1403 SWAP2 SWAP1 PUSH2 0x2875 JUMP JUMPDEST SWAP1 POP JUMPDEST DUP5 DUP5 SWAP1 POP DUP2 LT ISZERO PUSH2 0x1499 JUMPI DUP5 DUP5 DUP3 DUP2 DUP2 LT PUSH2 0x1424 JUMPI PUSH2 0x1423 PUSH2 0x2B03 JUMP JUMPDEST JUMPDEST SWAP1 POP PUSH1 0x20 MUL ADD CALLDATALOAD DUP6 DUP6 DUP6 DUP2 DUP2 LT PUSH2 0x143E JUMPI PUSH2 0x143D PUSH2 0x2B03 JUMP JUMPDEST JUMPDEST SWAP1 POP PUSH1 0x20 MUL ADD CALLDATALOAD EQ ISZERO PUSH2 0x1486 JUMPI PUSH1 0x40 MLOAD PUSH32 0x8C379A000000000000000000000000000000000000000000000000000000000 DUP2 MSTORE PUSH1 0x4 ADD PUSH2 0x147D SWAP1 PUSH2 0x26F2 JUMP JUMPDEST PUSH1 0x40 MLOAD DUP1 SWAP2 SUB SWAP1 REVERT JUMPDEST DUP1 DUP1 PUSH2 0x1491 SWAP1 PUSH2 0x2A5C JUMP JUMPDEST SWAP2 POP POP PUSH2 0x1406 JUMP JUMPDEST POP POP DUP1 DUP1 PUSH2 0x14A6 SWAP1 PUSH2 0x2A5C JUMP JUMPDEST SWAP2 POP POP PUSH2 0x132A JUMP JUMPDEST POP PUSH2 0x14B7 PUSH2 0x19CC JUMP JUMPDEST PUSH1 0x0 PUSH1 0x9 PUSH1 0x0 CALLER PUSH20 0xFFFFFFFFFFFFFFFFFFFFFFFFFFFFFFFFFFFFFFFF AND PUSH20 0xFFFFFFFFFFFFFFFFFFFFFFFFFFFFFFFFFFFFFFFF AND DUP2 MSTORE PUSH1 0x20 ADD SWAP1 DUP2 MSTORE PUSH1 0x20 ADD PUSH1 0x0 KECCAK256 SWAP1 POP PUSH1 0x0 PUSH2 0x1542 DUP3 PUSH1 0x1 ADD SLOAD PUSH2 0x1534 PUSH5 0xE8D4A51000 PUSH2 0x1526 PUSH1 0x2 SLOAD DUP8 PUSH1 0x0 ADD SLOAD PUSH2 0x1B00 SWAP1 SWAP2 SWAP1 PUSH4 0xFFFFFFFF AND JUMP JUMPDEST PUSH2 0x1B16 SWAP1 SWAP2 SWAP1 PUSH4 0xFFFFFFFF AND JUMP JUMPDEST PUSH2 0x1B2C SWAP1 SWAP2 SWAP1 PUSH4 0xFFFFFFFF AND JUMP JUMPDEST SWAP1 POP DUP1 PUSH32 0x0 PUSH20 0xFFFFFFFFFFFFFFFFFFFFFFFFFFFFFFFFFFFFFFFF AND PUSH4 0x70A08231 ADDRESS PUSH1 0x40 MLOAD DUP3 PUSH4 0xFFFFFFFF AND PUSH1 0xE0 SHL DUP2 MSTORE PUSH1 0x4 ADD PUSH2 0x159E SWAP2 SWAP1 PUSH2 0x2556 JUMP JUMPDEST PUSH1 0x20 PUSH1 0x40 MLOAD DUP1 DUP4 SUB DUP2 DUP7 DUP1 EXTCODESIZE ISZERO DUP1 ISZERO PUSH2 0x15B6 JUMPI PUSH1 0x0 DUP1 REVERT JUMPDEST POP GAS STATICCALL ISZERO DUP1 ISZERO PUSH2 0x15CA JUMPI RETURNDATASIZE PUSH1 0x0 DUP1 RETURNDATACOPY RETURNDATASIZE PUSH1 0x0 REVERT JUMPDEST POP POP POP POP PUSH1 0x40 MLOAD RETURNDATASIZE PUSH1 0x1F NOT PUSH1 0x1F DUP3 ADD AND DUP3 ADD DUP1 PUSH1 0x40 MSTORE POP DUP2 ADD SWAP1 PUSH2 0x15EE SWAP2 SWAP1 PUSH2 0x2272 JUMP JUMPDEST LT ISZERO PUSH2 0x16A0 JUMPI PUSH32 0x0 PUSH20 0xFFFFFFFFFFFFFFFFFFFFFFFFFFFFFFFFFFFFFFFF AND PUSH4 0x70A08231 ADDRESS PUSH1 0x40 MLOAD DUP3 PUSH4 0xFFFFFFFF AND PUSH1 0xE0 SHL DUP2 MSTORE PUSH1 0x4 ADD PUSH2 0x164D SWAP2 SWAP1 PUSH2 0x2556 JUMP JUMPDEST PUSH1 0x20 PUSH1 0x40 MLOAD DUP1 DUP4 SUB DUP2 DUP7 DUP1 EXTCODESIZE ISZERO DUP1 ISZERO PUSH2 0x1665 JUMPI PUSH1 0x0 DUP1 REVERT JUMPDEST POP GAS STATICCALL ISZERO DUP1 ISZERO PUSH2 0x1679 JUMPI RETURNDATASIZE PUSH1 0x0 DUP1 RETURNDATACOPY RETURNDATASIZE PUSH1 0x0 REVERT JUMPDEST POP POP POP POP PUSH1 0x40 MLOAD RETURNDATASIZE PUSH1 0x1F NOT PUSH1 0x1F DUP3 ADD AND DUP3 ADD DUP1 PUSH1 0x40 MSTORE POP DUP2 ADD SWAP1 PUSH2 0x169D SWAP2 SWAP1 PUSH2 0x2272 JUMP JUMPDEST SWAP1 POP JUMPDEST PUSH2 0x16B7 DUP2 DUP4 PUSH1 0x2 ADD SLOAD PUSH2 0x1B42 SWAP1 SWAP2 SWAP1 PUSH4 0xFFFFFFFF AND JUMP JUMPDEST DUP3 PUSH1 0x2 ADD DUP2 SWAP1 SSTORE POP PUSH1 0x0 DUP5 DUP5 SWAP1 POP SWAP1 POP PUSH2 0x16DC DUP2 PUSH1 0x6 SLOAD PUSH2 0x1B2C SWAP1 SWAP2 SWAP1 PUSH4 0xFFFFFFFF AND JUMP JUMPDEST PUSH1 0x6 DUP2 SWAP1 SSTORE POP PUSH2 0x16F9 DUP2 DUP5 PUSH1 0x0 ADD SLOAD PUSH2 0x1B2C SWAP1 SWAP2 SWAP1 PUSH4 0xFFFFFFFF AND JUMP JUMPDEST DUP4 PUSH1 0x0 ADD DUP2 SWAP1 SSTORE POP PUSH2 0x1731 PUSH5 0xE8D4A51000 PUSH2 0x1723 PUSH1 0x2 SLOAD DUP7 PUSH1 0x0 ADD SLOAD PUSH2 0x1B00 SWAP1 SWAP2 SWAP1 PUSH4 0xFFFFFFFF AND JUMP JUMPDEST PUSH2 0x1B16 SWAP1 SWAP2 SWAP1 PUSH4 0xFFFFFFFF AND JUMP JUMPDEST DUP4 PUSH1 0x1 ADD DUP2 SWAP1 SSTORE POP PUSH1 0x0 JUMPDEST DUP2 DUP2 LT ISZERO PUSH2 0x186B JUMPI PUSH1 0x0 PUSH1 0x8 PUSH1 0x0 DUP9 DUP9 DUP6 DUP2 DUP2 LT PUSH2 0x175D JUMPI PUSH2 0x175C PUSH2 0x2B03 JUMP JUMPDEST JUMPDEST SWAP1 POP PUSH1 0x20 MUL ADD CALLDATALOAD DUP2 MSTORE PUSH1 0x20 ADD SWAP1 DUP2 MSTORE PUSH1 0x20 ADD PUSH1 0x0 KECCAK256 PUSH1 0x0 PUSH2 0x100 EXP DUP2 SLOAD DUP2 PUSH20 0xFFFFFFFFFFFFFFFFFFFFFFFFFFFFFFFFFFFFFFFF MUL NOT AND SWAP1 DUP4 PUSH20 0xFFFFFFFFFFFFFFFFFFFFFFFFFFFFFFFFFFFFFFFF AND MUL OR SWAP1 SSTORE POP PUSH32 0x0 PUSH20 0xFFFFFFFFFFFFFFFFFFFFFFFFFFFFFFFFFFFFFFFF AND PUSH4 0x23B872DD ADDRESS CALLER DUP10 DUP10 DUP7 DUP2 DUP2 LT PUSH2 0x1801 JUMPI PUSH2 0x1800 PUSH2 0x2B03 JUMP JUMPDEST JUMPDEST SWAP1 POP PUSH1 0x20 MUL ADD CALLDATALOAD PUSH1 0x40 MLOAD DUP5 PUSH4 0xFFFFFFFF AND PUSH1 0xE0 SHL DUP2 MSTORE PUSH1 0x4 ADD PUSH2 0x1826 SWAP4 SWAP3 SWAP2 SWAP1 PUSH2 0x2571 JUMP JUMPDEST PUSH1 0x0 PUSH1 0x40 MLOAD DUP1 DUP4 SUB DUP2 PUSH1 0x0 DUP8 DUP1 EXTCODESIZE ISZERO DUP1 ISZERO PUSH2 0x1840 JUMPI PUSH1 0x0 DUP1 REVERT JUMPDEST POP GAS CALL ISZERO DUP1 ISZERO PUSH2 0x1854 JUMPI RETURNDATASIZE PUSH1 0x0 DUP1 RETURNDATACOPY RETURNDATASIZE PUSH1 0x0 REVERT JUMPDEST POP POP POP POP DUP1 DUP1 PUSH2 0x1863 SWAP1 PUSH2 0x2A5C JUMP JUMPDEST SWAP2 POP POP PUSH2 0x173C JUMP JUMPDEST POP PUSH32 0x80CC10BF7E52583AE0A17D8DD6AB5005573B17A08091A091AF1A81205A675C91 CALLER DUP7 DUP7 PUSH1 0x40 MLOAD PUSH2 0x189F SWAP4 SWAP3 SWAP2 SWAP1 PUSH2 0x25A8 JUMP JUMPDEST PUSH1 0x40 MLOAD DUP1 SWAP2 SUB SWAP1 LOG1 POP POP POP POP POP JUMP JUMPDEST PUSH1 0x4 PUSH1 0x0 SWAP1 SLOAD SWAP1 PUSH2 0x100 EXP SWAP1 DIV PUSH20 0xFFFFFFFFFFFFFFFFFFFFFFFFFFFFFFFFFFFFFFFF AND DUP2 JUMP JUMPDEST PUSH2 0x18DC PUSH2 0x1B58 JUMP JUMPDEST PUSH20 0xFFFFFFFFFFFFFFFFFFFFFFFFFFFFFFFFFFFFFFFF AND PUSH2 0x18FA PUSH2 0x1146 JUMP JUMPDEST PUSH20 0xFFFFFFFFFFFFFFFFFFFFFFFFFFFFFFFFFFFFFFFF AND EQ PUSH2 0x1950 JUMPI PUSH1 0x40 MLOAD PUSH32 0x8C379A000000000000000000000000000000000000000000000000000000000 DUP2 MSTORE PUSH1 0x4 ADD PUSH2 0x1947 SWAP1 PUSH2 0x2752 JUMP JUMPDEST PUSH1 0x40 MLOAD DUP1 SWAP2 SUB SWAP1 REVERT JUMPDEST PUSH1 0x0 PUSH20 0xFFFFFFFFFFFFFFFFFFFFFFFFFFFFFFFFFFFFFFFF AND DUP2 PUSH20 0xFFFFFFFFFFFFFFFFFFFFFFFFFFFFFFFFFFFFFFFF AND EQ ISZERO PUSH2 0x19C0 JUMPI PUSH1 0x40 MLOAD PUSH32 0x8C379A000000000000000000000000000000000000000000000000000000000 DUP2 MSTORE PUSH1 0x4 ADD PUSH2 0x19B7 SWAP1 PUSH2 0x26D2 JUMP JUMPDEST PUSH1 0x40 MLOAD DUP1 SWAP2 SUB SWAP1 REVERT JUMPDEST PUSH2 0x19C9 DUP2 PUSH2 0x1DA2 JUMP JUMPDEST POP JUMP JUMPDEST PUSH1 0x1 SLOAD NUMBER GT PUSH2 0x19DA JUMPI PUSH2 0x1AFE JUMP JUMPDEST PUSH1 0x0 PUSH1 0x6 SLOAD EQ ISZERO PUSH2 0x19F1 JUMPI NUMBER PUSH1 0x1 DUP2 SWAP1 SSTORE POP PUSH2 0x1AFE JUMP JUMPDEST PUSH1 0x0 PUSH2 0x19FF PUSH1 0x1 SLOAD NUMBER PUSH2 0x116F JUMP JUMPDEST SWAP1 POP PUSH1 0x0 PUSH2 0x1A18 PUSH1 0x3 SLOAD DUP4 PUSH2 0x1B00 SWAP1 SWAP2 SWAP1 PUSH4 0xFFFFFFFF AND JUMP JUMPDEST SWAP1 POP PUSH1 0x0 PUSH1 0x7 SLOAD EQ ISZERO PUSH2 0x1A33 JUMPI NUMBER PUSH1 0x1 DUP2 SWAP1 SSTORE POP POP POP PUSH2 0x1AFE JUMP JUMPDEST DUP1 PUSH1 0x7 SLOAD LT ISZERO PUSH2 0x1A92 JUMPI PUSH2 0x1A7F PUSH2 0x1A6E PUSH1 0x6 SLOAD PUSH2 0x1A60 PUSH5 0xE8D4A51000 PUSH1 0x7 SLOAD PUSH2 0x1B00 SWAP1 SWAP2 SWAP1 PUSH4 0xFFFFFFFF AND JUMP JUMPDEST PUSH2 0x1B16 SWAP1 SWAP2 SWAP1 PUSH4 0xFFFFFFFF AND JUMP JUMPDEST PUSH1 0x2 SLOAD PUSH2 0x1B42 SWAP1 SWAP2 SWAP1 PUSH4 0xFFFFFFFF AND JUMP JUMPDEST PUSH1 0x2 DUP2 SWAP1 SSTORE POP PUSH1 0x0 PUSH1 0x7 DUP2 SWAP1 SSTORE POP PUSH2 0x1AF4 JUMP JUMPDEST PUSH2 0x1AA7 DUP2 PUSH1 0x7 SLOAD PUSH2 0x1B2C SWAP1 SWAP2 SWAP1 PUSH4 0xFFFFFFFF AND JUMP JUMPDEST PUSH1 0x7 DUP2 SWAP1 SSTORE POP PUSH2 0x1AED PUSH2 0x1ADC PUSH1 0x6 SLOAD PUSH2 0x1ACE PUSH5 0xE8D4A51000 DUP6 PUSH2 0x1B00 SWAP1 SWAP2 SWAP1 PUSH4 0xFFFFFFFF AND JUMP JUMPDEST PUSH2 0x1B16 SWAP1 SWAP2 SWAP1 PUSH4 0xFFFFFFFF AND JUMP JUMPDEST PUSH1 0x2 SLOAD PUSH2 0x1B42 SWAP1 SWAP2 SWAP1 PUSH4 0xFFFFFFFF AND JUMP JUMPDEST PUSH1 0x2 DUP2 SWAP1 SSTORE POP JUMPDEST NUMBER PUSH1 0x1 DUP2 SWAP1 SSTORE POP POP POP JUMPDEST JUMP JUMPDEST PUSH1 0x0 DUP2 DUP4 PUSH2 0x1B0E SWAP2 SWAP1 PUSH2 0x28FC JUMP JUMPDEST SWAP1 POP SWAP3 SWAP2 POP POP JUMP JUMPDEST PUSH1 0x0 DUP2 DUP4 PUSH2 0x1B24 SWAP2 SWAP1 PUSH2 0x28CB JUMP JUMPDEST SWAP1 POP SWAP3 SWAP2 POP POP JUMP JUMPDEST PUSH1 0x0 DUP2 DUP4 PUSH2 0x1B3A SWAP2 SWAP1 PUSH2 0x2956 JUMP JUMPDEST SWAP1 POP SWAP3 SWAP2 POP POP JUMP JUMPDEST PUSH1 0x0 DUP2 DUP4 PUSH2 0x1B50 SWAP2 SWAP1 PUSH2 0x2875 JUMP JUMPDEST SWAP1 POP SWAP3 SWAP2 POP POP JUMP JUMPDEST PUSH1 0x0 CALLER SWAP1 POP SWAP1 JUMP JUMPDEST PUSH2 0x1BE3 DUP5 PUSH4 0x23B872DD PUSH1 0xE0 SHL DUP6 DUP6 DUP6 PUSH1 0x40 MLOAD PUSH1 0x24 ADD PUSH2 0x1B81 SWAP4 SWAP3 SWAP2 SWAP1 PUSH2 0x2571 JUMP JUMPDEST PUSH1 0x40 MLOAD PUSH1 0x20 DUP2 DUP4 SUB SUB DUP2 MSTORE SWAP1 PUSH1 0x40 MSTORE SWAP1 PUSH28 0xFFFFFFFFFFFFFFFFFFFFFFFFFFFFFFFFFFFFFFFFFFFFFFFFFFFFFFFF NOT AND PUSH1 0x20 DUP3 ADD DUP1 MLOAD PUSH28 0xFFFFFFFFFFFFFFFFFFFFFFFFFFFFFFFFFFFFFFFFFFFFFFFFFFFFFFFF DUP4 DUP2 DUP4 AND OR DUP4 MSTORE POP POP POP POP PUSH2 0x1E66 JUMP JUMPDEST POP POP POP POP JUMP JUMPDEST PUSH1 0x0 DUP1 PUSH1 0x9 PUSH1 0x0 DUP5 PUSH20 0xFFFFFFFFFFFFFFFFFFFFFFFFFFFFFFFFFFFFFFFF AND PUSH20 0xFFFFFFFFFFFFFFFFFFFFFFFFFFFFFFFFFFFFFFFF AND DUP2 MSTORE PUSH1 0x20 ADD SWAP1 DUP2 MSTORE PUSH1 0x20 ADD PUSH1 0x0 KECCAK256 SWAP1 POP PUSH1 0x0 PUSH1 0x2 SLOAD SWAP1 POP PUSH1 0x1 SLOAD NUMBER GT DUP1 ISZERO PUSH2 0x1C48 JUMPI POP PUSH1 0x0 PUSH1 0x6 SLOAD EQ ISZERO JUMPDEST ISZERO PUSH2 0x1CB9 JUMPI PUSH1 0x0 PUSH2 0x1C5B PUSH1 0x1 SLOAD NUMBER PUSH2 0x116F JUMP JUMPDEST SWAP1 POP PUSH1 0x0 PUSH2 0x1C74 PUSH1 0x3 SLOAD DUP4 PUSH2 0x1B00 SWAP1 SWAP2 SWAP1 PUSH4 0xFFFFFFFF AND JUMP JUMPDEST SWAP1 POP PUSH2 0x1CB4 PUSH2 0x1CA5 PUSH1 0x6 SLOAD PUSH2 0x1C97 PUSH5 0xE8D4A51000 DUP6 PUSH2 0x1B00 SWAP1 SWAP2 SWAP1 PUSH4 0xFFFFFFFF AND JUMP JUMPDEST PUSH2 0x1B16 SWAP1 SWAP2 SWAP1 PUSH4 0xFFFFFFFF AND JUMP JUMPDEST DUP5 PUSH2 0x1B42 SWAP1 SWAP2 SWAP1 PUSH4 0xFFFFFFFF AND JUMP JUMPDEST SWAP3 POP POP POP JUMPDEST PUSH2 0x1D13 DUP3 PUSH1 0x2 ADD SLOAD PUSH2 0x1D05 DUP5 PUSH1 0x1 ADD SLOAD PUSH2 0x1CF7 PUSH5 0xE8D4A51000 PUSH2 0x1CE9 DUP8 DUP10 PUSH1 0x0 ADD SLOAD PUSH2 0x1B00 SWAP1 SWAP2 SWAP1 PUSH4 0xFFFFFFFF AND JUMP JUMPDEST PUSH2 0x1B16 SWAP1 SWAP2 SWAP1 PUSH4 0xFFFFFFFF AND JUMP JUMPDEST PUSH2 0x1B2C SWAP1 SWAP2 SWAP1 PUSH4 0xFFFFFFFF AND JUMP JUMPDEST PUSH2 0x1B42 SWAP1 SWAP2 SWAP1 PUSH4 0xFFFFFFFF AND JUMP JUMPDEST SWAP3 POP POP POP SWAP2 SWAP1 POP JUMP JUMPDEST PUSH2 0x1D9D DUP4 PUSH4 0xA9059CBB PUSH1 0xE0 SHL DUP5 DUP5 PUSH1 0x40 MLOAD PUSH1 0x24 ADD PUSH2 0x1D3B SWAP3 SWAP2 SWAP1 PUSH2 0x25DA JUMP JUMPDEST PUSH1 0x40 MLOAD PUSH1 0x20 DUP2 DUP4 SUB SUB DUP2 MSTORE SWAP1 PUSH1 0x40 MSTORE SWAP1 PUSH28 0xFFFFFFFFFFFFFFFFFFFFFFFFFFFFFFFFFFFFFFFFFFFFFFFFFFFFFFFF NOT AND PUSH1 0x20 DUP3 ADD DUP1 MLOAD PUSH28 0xFFFFFFFFFFFFFFFFFFFFFFFFFFFFFFFFFFFFFFFFFFFFFFFFFFFFFFFF DUP4 DUP2 DUP4 AND OR DUP4 MSTORE POP POP POP POP PUSH2 0x1E66 JUMP JUMPDEST POP POP POP JUMP JUMPDEST PUSH1 0x0 DUP1 PUSH1 0x0 SWAP1 SLOAD SWAP1 PUSH2 0x100 EXP SWAP1 DIV PUSH20 0xFFFFFFFFFFFFFFFFFFFFFFFFFFFFFFFFFFFFFFFF AND SWAP1 POP DUP2 PUSH1 0x0 DUP1 PUSH2 0x100 EXP DUP2 SLOAD DUP2 PUSH20 0xFFFFFFFFFFFFFFFFFFFFFFFFFFFFFFFFFFFFFFFF MUL NOT AND SWAP1 DUP4 PUSH20 0xFFFFFFFFFFFFFFFFFFFFFFFFFFFFFFFFFFFFFFFF AND MUL OR SWAP1 SSTORE POP DUP2 PUSH20 0xFFFFFFFFFFFFFFFFFFFFFFFFFFFFFFFFFFFFFFFF AND DUP2 PUSH20 0xFFFFFFFFFFFFFFFFFFFFFFFFFFFFFFFFFFFFFFFF AND PUSH32 0x8BE0079C531659141344CD1FD0A4F28419497F9722A3DAAFE3B4186F6B6457E0 PUSH1 0x40 MLOAD PUSH1 0x40 MLOAD DUP1 SWAP2 SUB SWAP1 LOG3 POP POP JUMP JUMPDEST PUSH1 0x0 PUSH2 0x1EC8 DUP3 PUSH1 0x40 MLOAD DUP1 PUSH1 0x40 ADD PUSH1 0x40 MSTORE DUP1 PUSH1 0x20 DUP2 MSTORE PUSH1 0x20 ADD PUSH32 0x5361666542455032303A206C6F772D6C6576656C2063616C6C206661696C6564 DUP2 MSTORE POP DUP6 PUSH20 0xFFFFFFFFFFFFFFFFFFFFFFFFFFFFFFFFFFFFFFFF AND PUSH2 0x1F2D SWAP1 SWAP3 SWAP2 SWAP1 PUSH4 0xFFFFFFFF AND JUMP JUMPDEST SWAP1 POP PUSH1 0x0 DUP2 MLOAD GT ISZERO PUSH2 0x1F28 JUMPI DUP1 DUP1 PUSH1 0x20 ADD SWAP1 MLOAD DUP2 ADD SWAP1 PUSH2 0x1EE8 SWAP2 SWAP1 PUSH2 0x2218 JUMP JUMPDEST PUSH2 0x1F27 JUMPI PUSH1 0x40 MLOAD PUSH32 0x8C379A000000000000000000000000000000000000000000000000000000000 DUP2 MSTORE PUSH1 0x4 ADD PUSH2 0x1F1E SWAP1 PUSH2 0x26B2 JUMP JUMPDEST PUSH1 0x40 MLOAD DUP1 SWAP2 SUB SWAP1 REVERT JUMPDEST JUMPDEST POP POP POP JUMP JUMPDEST PUSH1 0x60 PUSH2 0x1F3C DUP5 DUP5 PUSH1 0x0 DUP6 PUSH2 0x1F45 JUMP JUMPDEST SWAP1 POP SWAP4 SWAP3 POP POP POP JUMP JUMPDEST PUSH1 0x60 PUSH2 0x1F50 DUP6 PUSH2 0x2067 JUMP JUMPDEST PUSH2 0x1F8F JUMPI PUSH1 0x40 MLOAD PUSH32 0x8C379A000000000000000000000000000000000000000000000000000000000 DUP2 MSTORE PUSH1 0x4 ADD PUSH2 0x1F86 SWAP1 PUSH2 0x2792 JUMP JUMPDEST PUSH1 0x40 MLOAD DUP1 SWAP2 SUB SWAP1 REVERT JUMPDEST PUSH1 0x0 DUP1 DUP7 PUSH20 0xFFFFFFFFFFFFFFFFFFFFFFFFFFFFFFFFFFFFFFFF AND DUP6 DUP8 PUSH1 0x40 MLOAD PUSH2 0x1FB8 SWAP2 SWAP1 PUSH2 0x253F JUMP JUMPDEST PUSH1 0x0 PUSH1 0x40 MLOAD DUP1 DUP4 SUB DUP2 DUP6 DUP8 GAS CALL SWAP3 POP POP POP RETURNDATASIZE DUP1 PUSH1 0x0 DUP2 EQ PUSH2 0x1FF5 JUMPI PUSH1 0x40 MLOAD SWAP2 POP PUSH1 0x1F NOT PUSH1 0x3F RETURNDATASIZE ADD AND DUP3 ADD PUSH1 0x40 MSTORE RETURNDATASIZE DUP3 MSTORE RETURNDATASIZE PUSH1 0x0 PUSH1 0x20 DUP5 ADD RETURNDATACOPY PUSH2 0x1FFA JUMP JUMPDEST PUSH1 0x60 SWAP2 POP JUMPDEST POP SWAP2 POP SWAP2 POP DUP2 ISZERO PUSH2 0x200F JUMPI DUP1 SWAP3 POP POP POP PUSH2 0x205F JUMP JUMPDEST PUSH1 0x0 DUP2 MLOAD GT ISZERO PUSH2 0x2022 JUMPI DUP1 MLOAD DUP1 DUP3 PUSH1 0x20 ADD REVERT JUMPDEST DUP4 PUSH1 0x40 MLOAD PUSH32 0x8C379A000000000000000000000000000000000000000000000000000000000 DUP2 MSTORE PUSH1 0x4 ADD PUSH2 0x2056 SWAP2 SWAP1 PUSH2 0x2670 JUMP JUMPDEST PUSH1 0x40 MLOAD DUP1 SWAP2 SUB SWAP1 REVERT JUMPDEST SWAP5 SWAP4 POP POP POP POP JUMP JUMPDEST PUSH1 0x0 DUP1 PUSH1 0x0 PUSH32 0xC5D2460186F7233C927E7DB2DCC703C0E500B653CA82273B7BFAD8045D85A470 PUSH1 0x0 SHL SWAP1 POP DUP4 EXTCODEHASH SWAP2 POP DUP1 DUP3 EQ ISZERO DUP1 ISZERO PUSH2 0x20A9 JUMPI POP PUSH1 0x0 DUP1 SHL DUP3 EQ ISZERO JUMPDEST SWAP3 POP POP POP SWAP2 SWAP1 POP JUMP JUMPDEST PUSH1 0x0 DUP2 CALLDATALOAD SWAP1 POP PUSH2 0x20C1 DUP2 PUSH2 0x2DB9 JUMP JUMPDEST SWAP3 SWAP2 POP POP JUMP JUMPDEST PUSH1 0x0 DUP2 MLOAD SWAP1 POP PUSH2 0x20D6 DUP2 PUSH2 0x2DB9 JUMP JUMPDEST SWAP3 SWAP2 POP POP JUMP JUMPDEST PUSH1 0x0 DUP1 DUP4 PUSH1 0x1F DUP5 ADD SLT PUSH2 0x20F2 JUMPI PUSH2 0x20F1 PUSH2 0x2B37 JUMP JUMPDEST JUMPDEST DUP3 CALLDATALOAD SWAP1 POP PUSH8 0xFFFFFFFFFFFFFFFF DUP2 GT ISZERO PUSH2 0x210F JUMPI PUSH2 0x210E PUSH2 0x2B32 JUMP JUMPDEST JUMPDEST PUSH1 0x20 DUP4 ADD SWAP2 POP DUP4 PUSH1 0x20 DUP3 MUL DUP4 ADD GT ISZERO PUSH2 0x212B JUMPI PUSH2 0x212A PUSH2 0x2B3C JUMP JUMPDEST JUMPDEST SWAP3 POP SWAP3 SWAP1 POP JUMP JUMPDEST PUSH1 0x0 DUP2 MLOAD SWAP1 POP PUSH2 0x2141 DUP2 PUSH2 0x2DD0 JUMP JUMPDEST SWAP3 SWAP2 POP POP JUMP JUMPDEST PUSH1 0x0 DUP2 CALLDATALOAD SWAP1 POP PUSH2 0x2156 DUP2 PUSH2 0x2DE7 JUMP JUMPDEST SWAP3 SWAP2 POP POP JUMP JUMPDEST PUSH1 0x0 DUP2 MLOAD SWAP1 POP PUSH2 0x216B DUP2 PUSH2 0x2DE7 JUMP JUMPDEST SWAP3 SWAP2 POP POP JUMP JUMPDEST PUSH1 0x0 PUSH1 0x20 DUP3 DUP5 SUB SLT ISZERO PUSH2 0x2187 JUMPI PUSH2 0x2186 PUSH2 0x2B4B JUMP JUMPDEST JUMPDEST PUSH1 0x0 PUSH2 0x2195 DUP5 DUP3 DUP6 ADD PUSH2 0x20B2 JUMP JUMPDEST SWAP2 POP POP SWAP3 SWAP2 POP POP JUMP JUMPDEST PUSH1 0x0 PUSH1 0x20 DUP3 DUP5 SUB SLT ISZERO PUSH2 0x21B4 JUMPI PUSH2 0x21B3 PUSH2 0x2B4B JUMP JUMPDEST JUMPDEST PUSH1 0x0 PUSH2 0x21C2 DUP5 DUP3 DUP6 ADD PUSH2 0x20C7 JUMP JUMPDEST SWAP2 POP POP SWAP3 SWAP2 POP POP JUMP JUMPDEST PUSH1 0x0 DUP1 PUSH1 0x20 DUP4 DUP6 SUB SLT ISZERO PUSH2 0x21E2 JUMPI PUSH2 0x21E1 PUSH2 0x2B4B JUMP JUMPDEST JUMPDEST PUSH1 0x0 DUP4 ADD CALLDATALOAD PUSH8 0xFFFFFFFFFFFFFFFF DUP2 GT ISZERO PUSH2 0x2200 JUMPI PUSH2 0x21FF PUSH2 0x2B41 JUMP JUMPDEST JUMPDEST PUSH2 0x220C DUP6 DUP3 DUP7 ADD PUSH2 0x20DC JUMP JUMPDEST SWAP3 POP SWAP3 POP POP SWAP3 POP SWAP3 SWAP1 POP JUMP JUMPDEST PUSH1 0x0 PUSH1 0x20 DUP3 DUP5 SUB SLT ISZERO PUSH2 0x222E JUMPI PUSH2 0x222D PUSH2 0x2B4B JUMP JUMPDEST JUMPDEST PUSH1 0x0 PUSH2 0x223C DUP5 DUP3 DUP6 ADD PUSH2 0x2132 JUMP JUMPDEST SWAP2 POP POP SWAP3 SWAP2 POP POP JUMP JUMPDEST PUSH1 0x0 PUSH1 0x20 DUP3 DUP5 SUB SLT ISZERO PUSH2 0x225B JUMPI PUSH2 0x225A PUSH2 0x2B4B JUMP JUMPDEST JUMPDEST PUSH1 0x0 PUSH2 0x2269 DUP5 DUP3 DUP6 ADD PUSH2 0x2147 JUMP JUMPDEST SWAP2 POP POP SWAP3 SWAP2 POP POP JUMP JUMPDEST PUSH1 0x0 PUSH1 0x20 DUP3 DUP5 SUB SLT ISZERO PUSH2 0x2288 JUMPI PUSH2 0x2287 PUSH2 0x2B4B JUMP JUMPDEST JUMPDEST PUSH1 0x0 PUSH2 0x2296 DUP5 DUP3 DUP6 ADD PUSH2 0x215C JUMP JUMPDEST SWAP2 POP POP SWAP3 SWAP2 POP POP JUMP JUMPDEST PUSH1 0x0 DUP1 PUSH1 0x40 DUP4 DUP6 SUB SLT ISZERO PUSH2 0x22B6 JUMPI PUSH2 0x22B5 PUSH2 0x2B4B JUMP JUMPDEST JUMPDEST PUSH1 0x0 PUSH2 0x22C4 DUP6 DUP3 DUP7 ADD PUSH2 0x2147 JUMP JUMPDEST SWAP3 POP POP PUSH1 0x20 PUSH2 0x22D5 DUP6 DUP3 DUP7 ADD PUSH2 0x2147 JUMP JUMPDEST SWAP2 POP POP SWAP3 POP SWAP3 SWAP1 POP JUMP JUMPDEST PUSH2 0x22E8 DUP2 PUSH2 0x298A JUMP JUMPDEST DUP3 MSTORE POP POP JUMP JUMPDEST PUSH1 0x0 PUSH2 0x22FA DUP4 DUP6 PUSH2 0x2848 JUMP JUMPDEST SWAP4 POP PUSH32 0x7FFFFFFFFFFFFFFFFFFFFFFFFFFFFFFFFFFFFFFFFFFFFFFFFFFFFFFFFFFFFFF DUP4 GT ISZERO PUSH2 0x232D JUMPI PUSH2 0x232C PUSH2 0x2B46 JUMP JUMPDEST JUMPDEST PUSH1 0x20 DUP4 MUL SWAP3 POP PUSH2 0x233E DUP4 DUP6 DUP5 PUSH2 0x2A1A JUMP JUMPDEST DUP3 DUP5 ADD SWAP1 POP SWAP4 SWAP3 POP POP POP JUMP JUMPDEST PUSH1 0x0 PUSH2 0x2355 DUP3 PUSH2 0x2832 JUMP JUMPDEST PUSH2 0x235F DUP2 DUP6 PUSH2 0x2859 JUMP JUMPDEST SWAP4 POP PUSH2 0x236F DUP2 DUP6 PUSH1 0x20 DUP7 ADD PUSH2 0x2A29 JUMP JUMPDEST DUP1 DUP5 ADD SWAP2 POP POP SWAP3 SWAP2 POP POP JUMP JUMPDEST PUSH2 0x2384 DUP2 PUSH2 0x29D2 JUMP JUMPDEST DUP3 MSTORE POP POP JUMP JUMPDEST PUSH2 0x2393 DUP2 PUSH2 0x29E4 JUMP JUMPDEST DUP3 MSTORE POP POP JUMP JUMPDEST PUSH1 0x0 PUSH2 0x23A4 DUP3 PUSH2 0x283D JUMP JUMPDEST PUSH2 0x23AE DUP2 DUP6 PUSH2 0x2864 JUMP JUMPDEST SWAP4 POP PUSH2 0x23BE DUP2 DUP6 PUSH1 0x20 DUP7 ADD PUSH2 0x2A29 JUMP JUMPDEST PUSH2 0x23C7 DUP2 PUSH2 0x2B50 JUMP JUMPDEST DUP5 ADD SWAP2 POP POP SWAP3 SWAP2 POP POP JUMP JUMPDEST PUSH1 0x0 PUSH2 0x23DF PUSH1 0x18 DUP4 PUSH2 0x2864 JUMP JUMPDEST SWAP2 POP PUSH2 0x23EA DUP3 PUSH2 0x2B61 JUMP JUMPDEST PUSH1 0x20 DUP3 ADD SWAP1 POP SWAP2 SWAP1 POP JUMP JUMPDEST PUSH1 0x0 PUSH2 0x2402 PUSH1 0x2A DUP4 PUSH2 0x2864 JUMP JUMPDEST SWAP2 POP PUSH2 0x240D DUP3 PUSH2 0x2B8A JUMP JUMPDEST PUSH1 0x40 DUP3 ADD SWAP1 POP SWAP2 SWAP1 POP JUMP JUMPDEST PUSH1 0x0 PUSH2 0x2425 PUSH1 0x26 DUP4 PUSH2 0x2864 JUMP JUMPDEST SWAP2 POP PUSH2 0x2430 DUP3 PUSH2 0x2BD9 JUMP JUMPDEST PUSH1 0x40 DUP3 ADD SWAP1 POP SWAP2 SWAP1 POP JUMP JUMPDEST PUSH1 0x0 PUSH2 0x2448 PUSH1 0x31 DUP4 PUSH2 0x2864 JUMP JUMPDEST SWAP2 POP PUSH2 0x2453 DUP3 PUSH2 0x2C28 JUMP JUMPDEST PUSH1 0x40 DUP3 ADD SWAP1 POP SWAP2 SWAP1 POP JUMP JUMPDEST PUSH1 0x0 PUSH2 0x246B PUSH1 0x20 DUP4 PUSH2 0x2864 JUMP JUMPDEST SWAP2 POP PUSH2 0x2476 DUP3 PUSH2 0x2C77 JUMP JUMPDEST PUSH1 0x20 DUP3 ADD SWAP1 POP SWAP2 SWAP1 POP JUMP JUMPDEST PUSH1 0x0 PUSH2 0x248E PUSH1 0x22 DUP4 PUSH2 0x2864 JUMP JUMPDEST SWAP2 POP PUSH2 0x2499 DUP3 PUSH2 0x2CA0 JUMP JUMPDEST PUSH1 0x40 DUP3 ADD SWAP1 POP SWAP2 SWAP1 POP JUMP JUMPDEST PUSH1 0x0 PUSH2 0x24B1 PUSH1 0x20 DUP4 PUSH2 0x2864 JUMP JUMPDEST SWAP2 POP PUSH2 0x24BC DUP3 PUSH2 0x2CEF JUMP JUMPDEST PUSH1 0x20 DUP3 ADD SWAP1 POP SWAP2 SWAP1 POP JUMP JUMPDEST PUSH1 0x0 PUSH2 0x24D4 PUSH1 0x1E DUP4 PUSH2 0x2864 JUMP JUMPDEST SWAP2 POP PUSH2 0x24DF DUP3 PUSH2 0x2D18 JUMP JUMPDEST PUSH1 0x20 DUP3 ADD SWAP1 POP SWAP2 SWAP1 POP JUMP JUMPDEST PUSH1 0x0 PUSH2 0x24F7 PUSH1 0x1D DUP4 PUSH2 0x2864 JUMP JUMPDEST SWAP2 POP PUSH2 0x2502 DUP3 PUSH2 0x2D41 JUMP JUMPDEST PUSH1 0x20 DUP3 ADD SWAP1 POP SWAP2 SWAP1 POP JUMP JUMPDEST PUSH1 0x0 PUSH2 0x251A PUSH1 0x39 DUP4 PUSH2 0x2864 JUMP JUMPDEST SWAP2 POP PUSH2 0x2525 DUP3 PUSH2 0x2D6A JUMP JUMPDEST PUSH1 0x40 DUP3 ADD SWAP1 POP SWAP2 SWAP1 POP JUMP JUMPDEST PUSH2 0x2539 DUP2 PUSH2 0x29C8 JUMP JUMPDEST DUP3 MSTORE POP POP JUMP JUMPDEST PUSH1 0x0 PUSH2 0x254B DUP3 DUP5 PUSH2 0x234A JUMP JUMPDEST SWAP2 POP DUP2 SWAP1 POP SWAP3 SWAP2 POP POP JUMP JUMPDEST PUSH1 0x0 PUSH1 0x20 DUP3 ADD SWAP1 POP PUSH2 0x256B PUSH1 0x0 DUP4 ADD DUP5 PUSH2 0x22DF JUMP JUMPDEST SWAP3 SWAP2 POP POP JUMP JUMPDEST PUSH1 0x0 PUSH1 0x60 DUP3 ADD SWAP1 POP PUSH2 0x2586 PUSH1 0x0 DUP4 ADD DUP7 PUSH2 0x22DF JUMP JUMPDEST PUSH2 0x2593 PUSH1 0x20 DUP4 ADD DUP6 PUSH2 0x22DF JUMP JUMPDEST PUSH2 0x25A0 PUSH1 0x40 DUP4 ADD DUP5 PUSH2 0x2530 JUMP JUMPDEST SWAP5 SWAP4 POP POP POP POP JUMP JUMPDEST PUSH1 0x0 PUSH1 0x40 DUP3 ADD SWAP1 POP PUSH2 0x25BD PUSH1 0x0 DUP4 ADD DUP7 PUSH2 0x22DF JUMP JUMPDEST DUP2 DUP2 SUB PUSH1 0x20 DUP4 ADD MSTORE PUSH2 0x25D0 DUP2 DUP5 DUP7 PUSH2 0x22EE JUMP JUMPDEST SWAP1 POP SWAP5 SWAP4 POP POP POP POP JUMP JUMPDEST PUSH1 0x0 PUSH1 0x40 DUP3 ADD SWAP1 POP PUSH2 0x25EF PUSH1 0x0 DUP4 ADD DUP6 PUSH2 0x22DF JUMP JUMPDEST PUSH2 0x25FC PUSH1 0x20 DUP4 ADD DUP5 PUSH2 0x2530 JUMP JUMPDEST SWAP4 SWAP3 POP POP POP JUMP JUMPDEST PUSH1 0x0 PUSH1 0x60 DUP3 ADD SWAP1 POP PUSH2 0x2618 PUSH1 0x0 DUP4 ADD DUP7 PUSH2 0x22DF JUMP JUMPDEST PUSH2 0x2625 PUSH1 0x20 DUP4 ADD DUP6 PUSH2 0x2530 JUMP JUMPDEST PUSH2 0x2632 PUSH1 0x40 DUP4 ADD DUP5 PUSH2 0x2530 JUMP JUMPDEST SWAP5 SWAP4 POP POP POP POP JUMP JUMPDEST PUSH1 0x0 PUSH1 0x20 DUP3 ADD SWAP1 POP PUSH2 0x264F PUSH1 0x0 DUP4 ADD DUP5 PUSH2 0x237B JUMP JUMPDEST SWAP3 SWAP2 POP POP JUMP JUMPDEST PUSH1 0x0 PUSH1 0x20 DUP3 ADD SWAP1 POP PUSH2 0x266A PUSH1 0x0 DUP4 ADD DUP5 PUSH2 0x238A JUMP JUMPDEST SWAP3 SWAP2 POP POP JUMP JUMPDEST PUSH1 0x0 PUSH1 0x20 DUP3 ADD SWAP1 POP DUP2 DUP2 SUB PUSH1 0x0 DUP4 ADD MSTORE PUSH2 0x268A DUP2 DUP5 PUSH2 0x2399 JUMP JUMPDEST SWAP1 POP SWAP3 SWAP2 POP POP JUMP JUMPDEST PUSH1 0x0 PUSH1 0x20 DUP3 ADD SWAP1 POP DUP2 DUP2 SUB PUSH1 0x0 DUP4 ADD MSTORE PUSH2 0x26AB DUP2 PUSH2 0x23D2 JUMP JUMPDEST SWAP1 POP SWAP2 SWAP1 POP JUMP JUMPDEST PUSH1 0x0 PUSH1 0x20 DUP3 ADD SWAP1 POP DUP2 DUP2 SUB PUSH1 0x0 DUP4 ADD MSTORE PUSH2 0x26CB DUP2 PUSH2 0x23F5 JUMP JUMPDEST SWAP1 POP SWAP2 SWAP1 POP JUMP JUMPDEST PUSH1 0x0 PUSH1 0x20 DUP3 ADD SWAP1 POP DUP2 DUP2 SUB PUSH1 0x0 DUP4 ADD MSTORE PUSH2 0x26EB DUP2 PUSH2 0x2418 JUMP JUMPDEST SWAP1 POP SWAP2 SWAP1 POP JUMP JUMPDEST PUSH1 0x0 PUSH1 0x20 DUP3 ADD SWAP1 POP DUP2 DUP2 SUB PUSH1 0x0 DUP4 ADD MSTORE PUSH2 0x270B DUP2 PUSH2 0x243B JUMP JUMPDEST SWAP1 POP SWAP2 SWAP1 POP JUMP JUMPDEST PUSH1 0x0 PUSH1 0x20 DUP3 ADD SWAP1 POP DUP2 DUP2 SUB PUSH1 0x0 DUP4 ADD MSTORE PUSH2 0x272B DUP2 PUSH2 0x245E JUMP JUMPDEST SWAP1 POP SWAP2 SWAP1 POP JUMP JUMPDEST PUSH1 0x0 PUSH1 0x20 DUP3 ADD SWAP1 POP DUP2 DUP2 SUB PUSH1 0x0 DUP4 ADD MSTORE PUSH2 0x274B DUP2 PUSH2 0x2481 JUMP JUMPDEST SWAP1 POP SWAP2 SWAP1 POP JUMP JUMPDEST PUSH1 0x0 PUSH1 0x20 DUP3 ADD SWAP1 POP DUP2 DUP2 SUB PUSH1 0x0 DUP4 ADD MSTORE PUSH2 0x276B DUP2 PUSH2 0x24A4 JUMP JUMPDEST SWAP1 POP SWAP2 SWAP1 POP JUMP JUMPDEST PUSH1 0x0 PUSH1 0x20 DUP3 ADD SWAP1 POP DUP2 DUP2 SUB PUSH1 0x0 DUP4 ADD MSTORE PUSH2 0x278B DUP2 PUSH2 0x24C7 JUMP JUMPDEST SWAP1 POP SWAP2 SWAP1 POP JUMP JUMPDEST PUSH1 0x0 PUSH1 0x20 DUP3 ADD SWAP1 POP DUP2 DUP2 SUB PUSH1 0x0 DUP4 ADD MSTORE PUSH2 0x27AB DUP2 PUSH2 0x24EA JUMP JUMPDEST SWAP1 POP SWAP2 SWAP1 POP JUMP JUMPDEST PUSH1 0x0 PUSH1 0x20 DUP3 ADD SWAP1 POP DUP2 DUP2 SUB PUSH1 0x0 DUP4 ADD MSTORE PUSH2 0x27CB DUP2 PUSH2 0x250D JUMP JUMPDEST SWAP1 POP SWAP2 SWAP1 POP JUMP JUMPDEST PUSH1 0x0 PUSH1 0x20 DUP3 ADD SWAP1 POP PUSH2 0x27E7 PUSH1 0x0 DUP4 ADD DUP5 PUSH2 0x2530 JUMP JUMPDEST SWAP3 SWAP2 POP POP JUMP JUMPDEST PUSH1 0x0 PUSH1 0x80 DUP3 ADD SWAP1 POP PUSH2 0x2802 PUSH1 0x0 DUP4 ADD DUP8 PUSH2 0x2530 JUMP JUMPDEST PUSH2 0x280F PUSH1 0x20 DUP4 ADD DUP7 PUSH2 0x2530 JUMP JUMPDEST PUSH2 0x281C PUSH1 0x40 DUP4 ADD DUP6 PUSH2 0x2530 JUMP JUMPDEST PUSH2 0x2829 PUSH1 0x60 DUP4 ADD DUP5 PUSH2 0x2530 JUMP JUMPDEST SWAP6 SWAP5 POP POP POP POP POP JUMP JUMPDEST PUSH1 0x0 DUP2 MLOAD SWAP1 POP SWAP2 SWAP1 POP JUMP JUMPDEST PUSH1 0x0 DUP2 MLOAD SWAP1 POP SWAP2 SWAP1 POP JUMP JUMPDEST PUSH1 0x0 DUP3 DUP3 MSTORE PUSH1 0x20 DUP3 ADD SWAP1 POP SWAP3 SWAP2 POP POP JUMP JUMPDEST PUSH1 0x0 DUP2 SWAP1 POP SWAP3 SWAP2 POP POP JUMP JUMPDEST PUSH1 0x0 DUP3 DUP3 MSTORE PUSH1 0x20 DUP3 ADD SWAP1 POP SWAP3 SWAP2 POP POP JUMP JUMPDEST PUSH1 0x0 PUSH2 0x2880 DUP3 PUSH2 0x29C8 JUMP JUMPDEST SWAP2 POP PUSH2 0x288B DUP4 PUSH2 0x29C8 JUMP JUMPDEST SWAP3 POP DUP3 PUSH32 0xFFFFFFFFFFFFFFFFFFFFFFFFFFFFFFFFFFFFFFFFFFFFFFFFFFFFFFFFFFFFFFFF SUB DUP3 GT ISZERO PUSH2 0x28C0 JUMPI PUSH2 0x28BF PUSH2 0x2AA5 JUMP JUMPDEST JUMPDEST DUP3 DUP3 ADD SWAP1 POP SWAP3 SWAP2 POP POP JUMP JUMPDEST PUSH1 0x0 PUSH2 0x28D6 DUP3 PUSH2 0x29C8 JUMP JUMPDEST SWAP2 POP PUSH2 0x28E1 DUP4 PUSH2 0x29C8 JUMP JUMPDEST SWAP3 POP DUP3 PUSH2 0x28F1 JUMPI PUSH2 0x28F0 PUSH2 0x2AD4 JUMP JUMPDEST JUMPDEST DUP3 DUP3 DIV SWAP1 POP SWAP3 SWAP2 POP POP JUMP JUMPDEST PUSH1 0x0 PUSH2 0x2907 DUP3 PUSH2 0x29C8 JUMP JUMPDEST SWAP2 POP PUSH2 0x2912 DUP4 PUSH2 0x29C8 JUMP JUMPDEST SWAP3 POP DUP2 PUSH32 0xFFFFFFFFFFFFFFFFFFFFFFFFFFFFFFFFFFFFFFFFFFFFFFFFFFFFFFFFFFFFFFFF DIV DUP4 GT DUP3 ISZERO ISZERO AND ISZERO PUSH2 0x294B JUMPI PUSH2 0x294A PUSH2 0x2AA5 JUMP JUMPDEST JUMPDEST DUP3 DUP3 MUL SWAP1 POP SWAP3 SWAP2 POP POP JUMP JUMPDEST PUSH1 0x0 PUSH2 0x2961 DUP3 PUSH2 0x29C8 JUMP JUMPDEST SWAP2 POP PUSH2 0x296C DUP4 PUSH2 0x29C8 JUMP JUMPDEST SWAP3 POP DUP3 DUP3 LT ISZERO PUSH2 0x297F JUMPI PUSH2 0x297E PUSH2 0x2AA5 JUMP JUMPDEST JUMPDEST DUP3 DUP3 SUB SWAP1 POP SWAP3 SWAP2 POP POP JUMP JUMPDEST PUSH1 0x0 PUSH2 0x2995 DUP3 PUSH2 0x29A8 JUMP JUMPDEST SWAP1 POP SWAP2 SWAP1 POP JUMP JUMPDEST PUSH1 0x0 DUP2 ISZERO ISZERO SWAP1 POP SWAP2 SWAP1 POP JUMP JUMPDEST PUSH1 0x0 PUSH20 0xFFFFFFFFFFFFFFFFFFFFFFFFFFFFFFFFFFFFFFFF DUP3 AND SWAP1 POP SWAP2 SWAP1 POP JUMP JUMPDEST PUSH1 0x0 DUP2 SWAP1 POP SWAP2 SWAP1 POP JUMP JUMPDEST PUSH1 0x0 PUSH2 0x29DD DUP3 PUSH2 0x29F6 JUMP JUMPDEST SWAP1 POP SWAP2 SWAP1 POP JUMP JUMPDEST PUSH1 0x0 PUSH2 0x29EF DUP3 PUSH2 0x29F6 JUMP JUMPDEST SWAP1 POP SWAP2 SWAP1 POP JUMP JUMPDEST PUSH1 0x0 PUSH2 0x2A01 DUP3 PUSH2 0x2A08 JUMP JUMPDEST SWAP1 POP SWAP2 SWAP1 POP JUMP JUMPDEST PUSH1 0x0 PUSH2 0x2A13 DUP3 PUSH2 0x29A8 JUMP JUMPDEST SWAP1 POP SWAP2 SWAP1 POP JUMP JUMPDEST DUP3 DUP2 DUP4 CALLDATACOPY PUSH1 0x0 DUP4 DUP4 ADD MSTORE POP POP POP JUMP JUMPDEST PUSH1 0x0 JUMPDEST DUP4 DUP2 LT ISZERO PUSH2 0x2A47 JUMPI DUP1 DUP3 ADD MLOAD DUP2 DUP5 ADD MSTORE PUSH1 0x20 DUP2 ADD SWAP1 POP PUSH2 0x2A2C JUMP JUMPDEST DUP4 DUP2 GT ISZERO PUSH2 0x2A56 JUMPI PUSH1 0x0 DUP5 DUP5 ADD MSTORE JUMPDEST POP POP POP POP JUMP JUMPDEST PUSH1 0x0 PUSH2 0x2A67 DUP3 PUSH2 0x29C8 JUMP JUMPDEST SWAP2 POP PUSH32 0xFFFFFFFFFFFFFFFFFFFFFFFFFFFFFFFFFFFFFFFFFFFFFFFFFFFFFFFFFFFFFFFF DUP3 EQ ISZERO PUSH2 0x2A9A JUMPI PUSH2 0x2A99 PUSH2 0x2AA5 JUMP JUMPDEST JUMPDEST PUSH1 0x1 DUP3 ADD SWAP1 POP SWAP2 SWAP1 POP JUMP JUMPDEST PUSH32 0x4E487B7100000000000000000000000000000000000000000000000000000000 PUSH1 0x0 MSTORE PUSH1 0x11 PUSH1 0x4 MSTORE PUSH1 0x24 PUSH1 0x0 REVERT JUMPDEST PUSH32 0x4E487B7100000000000000000000000000000000000000000000000000000000 PUSH1 0x0 MSTORE PUSH1 0x12 PUSH1 0x4 MSTORE PUSH1 0x24 PUSH1 0x0 REVERT JUMPDEST PUSH32 0x4E487B7100000000000000000000000000000000000000000000000000000000 PUSH1 0x0 MSTORE PUSH1 0x32 PUSH1 0x4 MSTORE PUSH1 0x24 PUSH1 0x0 REVERT JUMPDEST PUSH1 0x0 DUP1 REVERT JUMPDEST PUSH1 0x0 DUP1 REVERT JUMPDEST PUSH1 0x0 DUP1 REVERT JUMPDEST PUSH1 0x0 DUP1 REVERT JUMPDEST PUSH1 0x0 DUP1 REVERT JUMPDEST PUSH1 0x0 DUP1 REVERT JUMPDEST PUSH1 0x0 PUSH1 0x1F NOT PUSH1 0x1F DUP4 ADD AND SWAP1 POP SWAP2 SWAP1 POP JUMP JUMPDEST PUSH32 0x4E4654205374616B696E673A20456D7074792041727261790000000000000000 PUSH1 0x0 DUP3 ADD MSTORE POP JUMP JUMPDEST PUSH32 0x5361666542455032303A204245503230206F7065726174696F6E20646964206E PUSH1 0x0 DUP3 ADD MSTORE PUSH32 0x6F74207375636365656400000000000000000000000000000000000000000000 PUSH1 0x20 DUP3 ADD MSTORE POP JUMP JUMPDEST PUSH32 0x4F776E61626C653A206E6577206F776E657220697320746865207A65726F2061 PUSH1 0x0 DUP3 ADD MSTORE PUSH32 0x6464726573730000000000000000000000000000000000000000000000000000 PUSH1 0x20 DUP3 ADD MSTORE POP JUMP JUMPDEST PUSH32 0x4E4654205374616B696E673A206475706C696361746520746F6B656E20696473 PUSH1 0x0 DUP3 ADD MSTORE PUSH32 0x20696E20696E70757420706172616D732E000000000000000000000000000000 PUSH1 0x20 DUP3 ADD MSTORE POP JUMP JUMPDEST PUSH32 0x4E4654205374616B696E673A206E6F74206F776E6572206F6620746F6B656E2E PUSH1 0x0 DUP3 ADD MSTORE POP JUMP JUMPDEST PUSH32 0x4E4654205374616B696E673A20746F6B656E20616C7265616479207374616B65 PUSH1 0x0 DUP3 ADD MSTORE PUSH32 0x642E000000000000000000000000000000000000000000000000000000000000 PUSH1 0x20 DUP3 ADD MSTORE POP JUMP JUMPDEST PUSH32 0x4F776E61626C653A2063616C6C6572206973206E6F7420746865206F776E6572 PUSH1 0x0 DUP3 ADD MSTORE POP JUMP JUMPDEST PUSH32 0x736574486172766573744665653A2066656550657263656E74203E2034300000 PUSH1 0x0 DUP3 ADD MSTORE POP JUMP JUMPDEST PUSH32 0x416464726573733A2063616C6C20746F206E6F6E2D636F6E7472616374000000 PUSH1 0x0 DUP3 ADD MSTORE POP JUMP JUMPDEST PUSH32 0x4E667420556E7374616B696E673A20746F6B656E206E6F74207374616B656420 PUSH1 0x0 DUP3 ADD MSTORE PUSH32 0x6F7220696E636F727265637420746F6B656E206F776E65722E00000000000000 PUSH1 0x20 DUP3 ADD MSTORE POP JUMP JUMPDEST PUSH2 0x2DC2 DUP2 PUSH2 0x298A JUMP JUMPDEST DUP2 EQ PUSH2 0x2DCD JUMPI PUSH1 0x0 DUP1 REVERT JUMPDEST POP JUMP JUMPDEST PUSH2 0x2DD9 DUP2 PUSH2 0x299C JUMP JUMPDEST DUP2 EQ PUSH2 0x2DE4 JUMPI PUSH1 0x0 DUP1 REVERT JUMPDEST POP JUMP JUMPDEST PUSH2 0x2DF0 DUP2 PUSH2 0x29C8 JUMP JUMPDEST DUP2 EQ PUSH2 0x2DFB JUMPI PUSH1 0x0 DUP1 REVERT JUMPDEST POP JUMP INVALID LOG2 PUSH5 0x6970667358 0x22 SLT KECCAK256 PUSH3 0x7F5B4C 0xDB PUSH17 0xCA3DF2DD27241157EE92BB365CAF011BF6 DUP10 0xF SWAP16 TIMESTAMP RETURN SAR 0xD1 0xDF SWAP4 PUSH5 0x736F6C6343 STOP ADDMOD SMOD STOP CALLER "
				},
				"gasEstimates": {
					"creation": {
						"codeDepositCost": "2365600",
						"executionCost": "infinite",
						"totalCost": "infinite"
					},
					"external": {
						"accGHSPPerShare()": "2541",
						"depositReward(uint256)": "infinite",
						"feeWallet()": "2602",
						"getMultiplier(uint256,uint256)": "infinite",
						"getRewardBalance()": "infinite",
						"ghspToken()": "infinite",
						"harvest()": "infinite",
						"harvestFee()": "2451",
						"lastRewardBlock()": "2540",
						"nftToken()": "infinite",
						"owner()": "2567",
						"renounceOwnership()": "30463",
						"rewardPerBlock()": "2452",
						"setFeeWallet(address)": "30348",
						"setHarvestFee(uint256)": "infinite",
						"stake(uint256[])": "infinite",
						"totalStakedAmount()": "2474",
						"transferOwnership(address)": "30833",
						"unstake(uint256[])": "infinite",
						"userInfo(address)": "infinite"
					},
					"internal": {
						"_getPending(address)": "infinite",
						"updateStatus()": "infinite"
					}
				},
				"methodIdentifiers": {
					"accGHSPPerShare()": "43db3c5f",
					"depositReward(uint256)": "1e2720ff",
					"feeWallet()": "f25f4b56",
					"getMultiplier(uint256,uint256)": "8dbb1e3a",
					"getRewardBalance()": "5e42b455",
					"ghspToken()": "19fca9f6",
					"harvest()": "4641257d",
					"harvestFee()": "b5962917",
					"lastRewardBlock()": "a9f8d181",
					"nftToken()": "d06fcba8",
					"owner()": "8da5cb5b",
					"renounceOwnership()": "715018a6",
					"rewardPerBlock()": "8ae39cac",
					"setFeeWallet(address)": "90d49b9d",
					"setHarvestFee(uint256)": "792b55b6",
					"stake(uint256[])": "0fbf0a93",
					"totalStakedAmount()": "567e98f9",
					"transferOwnership(address)": "f2fde38b",
					"unstake(uint256[])": "e449f341",
					"userInfo(address)": "1959a002"
				}
			},
			"userdoc": {
				"kind": "user",
				"methods": {},
				"version": 1
			}
		}
	}
}