{
	"Ghosper-NFT-Staking-MasterChef.sol": {
		"NftStaking": {
			"abi": [
				{
					"inputs": [
						{
							"internalType": "contract IERC721",
							"name": "_nftToken",
							"type": "address"
						},
						{
							"internalType": "contract IBEP20",
							"name": "_ghspToken",
							"type": "address"
						},
						{
							"internalType": "uint256",
							"name": "_rewardPerBlock",
							"type": "uint256"
						},
						{
							"internalType": "address",
							"name": "_feeWallet",
							"type": "address"
						}
					],
					"stateMutability": "nonpayable",
					"type": "constructor"
				},
				{
					"anonymous": false,
					"inputs": [
						{
							"indexed": false,
							"internalType": "uint256",
							"name": "_index",
							"type": "uint256"
						},
						{
							"indexed": false,
							"internalType": "uint256",
							"name": "_minDays",
							"type": "uint256"
						},
						{
							"indexed": false,
							"internalType": "uint256",
							"name": "_feePercent",
							"type": "uint256"
						}
					],
					"name": "AddUnStakeFee",
					"type": "event"
				},
				{
					"anonymous": false,
					"inputs": [
						{
							"indexed": true,
							"internalType": "address",
							"name": "user",
							"type": "address"
						},
						{
							"indexed": false,
							"internalType": "uint256",
							"name": "amount",
							"type": "uint256"
						}
					],
					"name": "DepositReward",
					"type": "event"
				},
				{
					"anonymous": false,
					"inputs": [
						{
							"indexed": false,
							"internalType": "address",
							"name": "staker",
							"type": "address"
						},
						{
							"indexed": false,
							"internalType": "uint256",
							"name": "amount",
							"type": "uint256"
						},
						{
							"indexed": false,
							"internalType": "uint256",
							"name": "harvestFee",
							"type": "uint256"
						}
					],
					"name": "Harvest",
					"type": "event"
				},
				{
					"anonymous": false,
					"inputs": [
						{
							"indexed": true,
							"internalType": "address",
							"name": "previousOwner",
							"type": "address"
						},
						{
							"indexed": true,
							"internalType": "address",
							"name": "newOwner",
							"type": "address"
						}
					],
					"name": "OwnershipTransferred",
					"type": "event"
				},
				{
					"anonymous": false,
					"inputs": [
						{
							"indexed": false,
							"internalType": "uint256",
							"name": "_index",
							"type": "uint256"
						},
						{
							"indexed": false,
							"internalType": "uint256",
							"name": "_minDays",
							"type": "uint256"
						},
						{
							"indexed": false,
							"internalType": "uint256",
							"name": "_feePercent",
							"type": "uint256"
						}
					],
					"name": "RemoveUnStakeFee",
					"type": "event"
				},
				{
					"anonymous": false,
					"inputs": [
						{
							"indexed": true,
							"internalType": "address",
							"name": "_feeWallet",
							"type": "address"
						}
					],
					"name": "SetFeeWallet",
					"type": "event"
				},
				{
					"anonymous": false,
					"inputs": [
						{
							"indexed": false,
							"internalType": "uint256",
							"name": "_harvestFee",
							"type": "uint256"
						}
					],
					"name": "SetHarvestFee",
					"type": "event"
				},
				{
					"anonymous": false,
					"inputs": [
						{
							"indexed": false,
							"internalType": "uint256",
							"name": "_index",
							"type": "uint256"
						},
						{
							"indexed": false,
							"internalType": "uint256",
							"name": "_minDays",
							"type": "uint256"
						},
						{
							"indexed": false,
							"internalType": "uint256",
							"name": "_feePercent",
							"type": "uint256"
						}
					],
					"name": "SetUnStakeFee",
					"type": "event"
				},
				{
					"anonymous": false,
					"inputs": [
						{
							"indexed": false,
							"internalType": "address",
							"name": "staker",
							"type": "address"
						},
						{
							"indexed": false,
							"internalType": "uint256[]",
							"name": "tokenId",
							"type": "uint256[]"
						}
					],
					"name": "Staked",
					"type": "event"
				},
				{
					"anonymous": false,
					"inputs": [
						{
							"indexed": false,
							"internalType": "address",
							"name": "staker",
							"type": "address"
						},
						{
							"indexed": false,
							"internalType": "uint256[]",
							"name": "tokenId",
							"type": "uint256[]"
						}
					],
					"name": "UnStaked",
					"type": "event"
				},
				{
					"inputs": [],
					"name": "accGHSPPerShare",
					"outputs": [
						{
							"internalType": "uint256",
							"name": "",
							"type": "uint256"
						}
					],
					"stateMutability": "view",
					"type": "function"
				},
				{
					"inputs": [
						{
							"internalType": "uint256",
							"name": "_minDays",
							"type": "uint256"
						},
						{
							"internalType": "uint256",
							"name": "_feePercent",
							"type": "uint256"
						}
					],
					"name": "addUnStakeFee",
					"outputs": [],
					"stateMutability": "nonpayable",
					"type": "function"
				},
				{
					"inputs": [
						{
							"internalType": "uint256",
							"name": "_amount",
							"type": "uint256"
						}
					],
					"name": "depositReward",
					"outputs": [],
					"stateMutability": "nonpayable",
					"type": "function"
				},
				{
					"inputs": [],
					"name": "feeWallet",
					"outputs": [
						{
							"internalType": "address",
							"name": "",
							"type": "address"
						}
					],
					"stateMutability": "view",
					"type": "function"
				},
				{
					"inputs": [
						{
							"internalType": "uint256",
							"name": "_from",
							"type": "uint256"
						},
						{
							"internalType": "uint256",
							"name": "_to",
							"type": "uint256"
						}
					],
					"name": "getMultiplier",
					"outputs": [
						{
							"internalType": "uint256",
							"name": "",
							"type": "uint256"
						}
					],
					"stateMutability": "pure",
					"type": "function"
				},
				{
					"inputs": [],
					"name": "getRewardBalance",
					"outputs": [
						{
							"internalType": "uint256",
							"name": "",
							"type": "uint256"
						}
					],
					"stateMutability": "view",
					"type": "function"
				},
				{
					"inputs": [],
					"name": "ghspToken",
					"outputs": [
						{
							"internalType": "contract IBEP20",
							"name": "",
							"type": "address"
						}
					],
					"stateMutability": "view",
					"type": "function"
				},
				{
					"inputs": [],
					"name": "harvest",
					"outputs": [],
					"stateMutability": "nonpayable",
					"type": "function"
				},
				{
					"inputs": [],
					"name": "harvestFee",
					"outputs": [
						{
							"internalType": "uint256",
							"name": "",
							"type": "uint256"
						}
					],
					"stateMutability": "view",
					"type": "function"
				},
				{
					"inputs": [],
					"name": "lastRewardBlock",
					"outputs": [
						{
							"internalType": "uint256",
							"name": "",
							"type": "uint256"
						}
					],
					"stateMutability": "view",
					"type": "function"
				},
				{
					"inputs": [],
					"name": "nftToken",
					"outputs": [
						{
							"internalType": "contract IERC721",
							"name": "",
							"type": "address"
						}
					],
					"stateMutability": "view",
					"type": "function"
				},
				{
					"inputs": [],
					"name": "owner",
					"outputs": [
						{
							"internalType": "address",
							"name": "",
							"type": "address"
						}
					],
					"stateMutability": "view",
					"type": "function"
				},
				{
					"inputs": [
						{
							"internalType": "uint256",
							"name": "_index",
							"type": "uint256"
						}
					],
					"name": "removeUnStakeFee",
					"outputs": [],
					"stateMutability": "nonpayable",
					"type": "function"
				},
				{
					"inputs": [],
					"name": "renounceOwnership",
					"outputs": [],
					"stateMutability": "nonpayable",
					"type": "function"
				},
				{
					"inputs": [],
					"name": "rewardPerBlock",
					"outputs": [
						{
							"internalType": "uint256",
							"name": "",
							"type": "uint256"
						}
					],
					"stateMutability": "view",
					"type": "function"
				},
				{
					"inputs": [
						{
							"internalType": "address",
							"name": "_feeWallet",
							"type": "address"
						}
					],
					"name": "setFeeWallet",
					"outputs": [],
					"stateMutability": "nonpayable",
					"type": "function"
				},
				{
					"inputs": [
						{
							"internalType": "uint256",
							"name": "_feePercent",
							"type": "uint256"
						}
					],
					"name": "setHarvestFee",
					"outputs": [],
					"stateMutability": "nonpayable",
					"type": "function"
				},
				{
					"inputs": [
						{
							"internalType": "uint256",
							"name": "_index",
							"type": "uint256"
						},
						{
							"internalType": "uint256",
							"name": "_minDays",
							"type": "uint256"
						},
						{
							"internalType": "uint256",
							"name": "_feePercent",
							"type": "uint256"
						}
					],
					"name": "setUnStakeFee",
					"outputs": [],
					"stateMutability": "nonpayable",
					"type": "function"
				},
				{
					"inputs": [
						{
							"internalType": "uint256[]",
							"name": "tokenIds",
							"type": "uint256[]"
						}
					],
					"name": "stake",
					"outputs": [],
					"stateMutability": "nonpayable",
					"type": "function"
				},
				{
					"inputs": [],
					"name": "totalStakedAmount",
					"outputs": [
						{
							"internalType": "uint256",
							"name": "",
							"type": "uint256"
						}
					],
					"stateMutability": "view",
					"type": "function"
				},
				{
					"inputs": [
						{
							"internalType": "address",
							"name": "newOwner",
							"type": "address"
						}
					],
					"name": "transferOwnership",
					"outputs": [],
					"stateMutability": "nonpayable",
					"type": "function"
				},
				{
					"inputs": [
						{
							"internalType": "uint256",
							"name": "",
							"type": "uint256"
						}
					],
					"name": "unStakeFees",
					"outputs": [
						{
							"internalType": "uint256",
							"name": "minDays",
							"type": "uint256"
						},
						{
							"internalType": "uint256",
							"name": "feePercent",
							"type": "uint256"
						}
					],
					"stateMutability": "view",
					"type": "function"
				},
				{
					"inputs": [
						{
							"internalType": "uint256[]",
							"name": "tokenIds",
							"type": "uint256[]"
						}
					],
					"name": "unstake",
					"outputs": [],
					"stateMutability": "nonpayable",
					"type": "function"
				},
				{
					"inputs": [
						{
							"internalType": "address",
							"name": "",
							"type": "address"
						}
					],
					"name": "userInfo",
					"outputs": [
						{
							"internalType": "uint256",
							"name": "amount",
							"type": "uint256"
						},
						{
							"internalType": "uint256",
							"name": "rewardDebt",
							"type": "uint256"
						},
						{
							"internalType": "uint256",
							"name": "pendingAmount",
							"type": "uint256"
						},
						{
							"internalType": "uint256",
							"name": "lastStakedTime",
							"type": "uint256"
						}
					],
					"stateMutability": "view",
					"type": "function"
				}
			],
			"devdoc": {
				"kind": "dev",
				"methods": {
					"owner()": {
						"details": "Returns the address of the current owner."
					},
					"renounceOwnership()": {
						"details": "Leaves the contract without owner. It will not be possible to call `onlyOwner` functions anymore. Can only be called by the current owner. NOTE: Renouncing ownership will leave the contract without an owner, thereby removing any functionality that is only available to the owner."
					},
					"transferOwnership(address)": {
						"details": "Transfers ownership of the contract to a new account (`newOwner`). Can only be called by the current owner."
					}
				},
				"version": 1
			},
			"evm": {
				"assembly": "    /* \"Ghosper-NFT-Staking-MasterChef.sol\":27968:39135  contract NftStaking is Ownable {\r... */\n  mstore(0x40, 0xc0)\n    /* \"Ghosper-NFT-Staking-MasterChef.sol\":29488:29791  constructor(\r... */\n  callvalue\n  dup1\n  iszero\n  tag_1\n  jumpi\n  0x00\n  dup1\n  revert\ntag_1:\n  pop\n  mload(0x40)\n  sub(codesize, bytecodeSize)\n  dup1\n  bytecodeSize\n  dup4\n  codecopy\n  dup2\n  dup2\n  add\n  0x40\n  mstore\n  dup2\n  add\n  swap1\n  tag_2\n  swap2\n  swap1\n  tag_3\n  jump\t// in\ntag_2:\n    /* \"Ghosper-NFT-Staking-MasterChef.sol\":4790:4822  _transferOwnership(_msgSender()) */\n  tag_7\n    /* \"Ghosper-NFT-Staking-MasterChef.sol\":4809:4821  _msgSender() */\n  tag_8\n    /* \"Ghosper-NFT-Staking-MasterChef.sol\":4809:4819  _msgSender */\n  shl(0x20, tag_9)\n    /* \"Ghosper-NFT-Staking-MasterChef.sol\":4809:4821  _msgSender() */\n  0x20\n  shr\n  jump\t// in\ntag_8:\n    /* \"Ghosper-NFT-Staking-MasterChef.sol\":4790:4808  _transferOwnership */\n  shl(0x20, tag_10)\n    /* \"Ghosper-NFT-Staking-MasterChef.sol\":4790:4822  _transferOwnership(_msgSender()) */\n  0x20\n  shr\n  jump\t// in\ntag_7:\n    /* \"Ghosper-NFT-Staking-MasterChef.sol\":29648:29657  _nftToken */\n  dup4\n    /* \"Ghosper-NFT-Staking-MasterChef.sol\":29637:29657  nftToken = _nftToken */\n  0xffffffffffffffffffffffffffffffffffffffff\n  and\n  0x80\n  dup2\n  0xffffffffffffffffffffffffffffffffffffffff\n  and\n  0x60\n  shl\n  dup2\n  mstore\n  pop\n  pop\n    /* \"Ghosper-NFT-Staking-MasterChef.sol\":29680:29690  _ghspToken */\n  dup3\n    /* \"Ghosper-NFT-Staking-MasterChef.sol\":29668:29690  ghspToken = _ghspToken */\n  0xffffffffffffffffffffffffffffffffffffffff\n  and\n  0xa0\n  dup2\n  0xffffffffffffffffffffffffffffffffffffffff\n  and\n  0x60\n  shl\n  dup2\n  mstore\n  pop\n  pop\n    /* \"Ghosper-NFT-Staking-MasterChef.sol\":29718:29733  _rewardPerBlock */\n  dup2\n    /* \"Ghosper-NFT-Staking-MasterChef.sol\":29701:29715  rewardPerBlock */\n  0x04\n    /* \"Ghosper-NFT-Staking-MasterChef.sol\":29701:29733  rewardPerBlock = _rewardPerBlock */\n  dup2\n  swap1\n  sstore\n  pop\n    /* \"Ghosper-NFT-Staking-MasterChef.sol\":29756:29766  _feeWallet */\n  dup1\n    /* \"Ghosper-NFT-Staking-MasterChef.sol\":29744:29753  feeWallet */\n  0x05\n  0x00\n    /* \"Ghosper-NFT-Staking-MasterChef.sol\":29744:29766  feeWallet = _feeWallet */\n  0x0100\n  exp\n  dup2\n  sload\n  dup2\n  0xffffffffffffffffffffffffffffffffffffffff\n  mul\n  not\n  and\n  swap1\n  dup4\n  0xffffffffffffffffffffffffffffffffffffffff\n  and\n  mul\n  or\n  swap1\n  sstore\n  pop\n    /* \"Ghosper-NFT-Staking-MasterChef.sol\":29777:29783  init() */\n  tag_12\n    /* \"Ghosper-NFT-Staking-MasterChef.sol\":29777:29781  init */\n  shl(0x20, tag_13)\n    /* \"Ghosper-NFT-Staking-MasterChef.sol\":29777:29783  init() */\n  0x20\n  shr\n  jump\t// in\ntag_12:\n    /* \"Ghosper-NFT-Staking-MasterChef.sol\":29488:29791  constructor(\r... */\n  pop\n  pop\n  pop\n  pop\n    /* \"Ghosper-NFT-Staking-MasterChef.sol\":27968:39135  contract NftStaking is Ownable {\r... */\n  jump(tag_14)\n    /* \"Ghosper-NFT-Staking-MasterChef.sol\":3751:3849  function _msgSender() internal view virtual returns (address) {\r... */\ntag_9:\n    /* \"Ghosper-NFT-Staking-MasterChef.sol\":3804:3811  address */\n  0x00\n    /* \"Ghosper-NFT-Staking-MasterChef.sol\":3831:3841  msg.sender */\n  caller\n    /* \"Ghosper-NFT-Staking-MasterChef.sol\":3824:3841  return msg.sender */\n  swap1\n  pop\n    /* \"Ghosper-NFT-Staking-MasterChef.sol\":3751:3849  function _msgSender() internal view virtual returns (address) {\r... */\n  swap1\n  jump\t// out\n    /* \"Ghosper-NFT-Staking-MasterChef.sol\":6181:6372  function _transferOwnership(address newOwner) internal virtual {\r... */\ntag_10:\n    /* \"Ghosper-NFT-Staking-MasterChef.sol\":6255:6271  address oldOwner */\n  0x00\n    /* \"Ghosper-NFT-Staking-MasterChef.sol\":6274:6280  _owner */\n  dup1\n  0x00\n  swap1\n  sload\n  swap1\n  0x0100\n  exp\n  swap1\n  div\n  0xffffffffffffffffffffffffffffffffffffffff\n  and\n    /* \"Ghosper-NFT-Staking-MasterChef.sol\":6255:6280  address oldOwner = _owner */\n  swap1\n  pop\n    /* \"Ghosper-NFT-Staking-MasterChef.sol\":6300:6308  newOwner */\n  dup2\n    /* \"Ghosper-NFT-Staking-MasterChef.sol\":6291:6297  _owner */\n  0x00\n  dup1\n    /* \"Ghosper-NFT-Staking-MasterChef.sol\":6291:6308  _owner = newOwner */\n  0x0100\n  exp\n  dup2\n  sload\n  dup2\n  0xffffffffffffffffffffffffffffffffffffffff\n  mul\n  not\n  and\n  swap1\n  dup4\n  0xffffffffffffffffffffffffffffffffffffffff\n  and\n  mul\n  or\n  swap1\n  sstore\n  pop\n    /* \"Ghosper-NFT-Staking-MasterChef.sol\":6355:6363  newOwner */\n  dup2\n    /* \"Ghosper-NFT-Staking-MasterChef.sol\":6324:6364  OwnershipTransferred(oldOwner, newOwner) */\n  0xffffffffffffffffffffffffffffffffffffffff\n  and\n    /* \"Ghosper-NFT-Staking-MasterChef.sol\":6345:6353  oldOwner */\n  dup2\n    /* \"Ghosper-NFT-Staking-MasterChef.sol\":6324:6364  OwnershipTransferred(oldOwner, newOwner) */\n  0xffffffffffffffffffffffffffffffffffffffff\n  and\n  0x8be0079c531659141344cd1fd0a4f28419497f9722a3daafe3b4186f6b6457e0\n  mload(0x40)\n  mload(0x40)\n  dup1\n  swap2\n  sub\n  swap1\n  log3\n    /* \"Ghosper-NFT-Staking-MasterChef.sol\":6244:6372  {\r... */\n  pop\n    /* \"Ghosper-NFT-Staking-MasterChef.sol\":6181:6372  function _transferOwnership(address newOwner) internal virtual {\r... */\n  pop\n  jump\t// out\n    /* \"Ghosper-NFT-Staking-MasterChef.sol\":29799:30480  function init() private {\r... */\ntag_13:\n    /* \"Ghosper-NFT-Staking-MasterChef.sol\":29834:29863  UnStakeFee memory unStakeFee1 */\n  0x00\n    /* \"Ghosper-NFT-Staking-MasterChef.sol\":29866:29943  UnStakeFee({\r... */\n  mload(0x40)\n  dup1\n  0x40\n  add\n  0x40\n  mstore\n  dup1\n    /* \"Ghosper-NFT-Staking-MasterChef.sol\":29901:29902  7 */\n  0x07\n    /* \"Ghosper-NFT-Staking-MasterChef.sol\":29866:29943  UnStakeFee({\r... */\n  dup2\n  mstore\n  0x20\n  add\n    /* \"Ghosper-NFT-Staking-MasterChef.sol\":29929:29931  40 */\n  0x28\n    /* \"Ghosper-NFT-Staking-MasterChef.sol\":29866:29943  UnStakeFee({\r... */\n  dup2\n  mstore\n  pop\n    /* \"Ghosper-NFT-Staking-MasterChef.sol\":29834:29943  UnStakeFee memory unStakeFee1 = UnStakeFee({\r... */\n  swap1\n  pop\n    /* \"Ghosper-NFT-Staking-MasterChef.sol\":29954:29965  unStakeFees */\n  0x01\n    /* \"Ghosper-NFT-Staking-MasterChef.sol\":29971:29982  unStakeFee1 */\n  dup2\n    /* \"Ghosper-NFT-Staking-MasterChef.sol\":29954:29983  unStakeFees.push(unStakeFee1) */\n  swap1\n  dup1\n  0x01\n  dup2\n  sload\n  add\n  dup1\n  dup3\n  sstore\n  dup1\n  swap2\n  pop\n  pop\n  0x01\n  swap1\n  sub\n  swap1\n  0x00\n  mstore\n  keccak256(0x00, 0x20)\n  swap1\n  0x02\n  mul\n  add\n  0x00\n  swap1\n  swap2\n  swap1\n  swap2\n  swap1\n  swap2\n  pop\n  0x00\n  dup3\n  add\n  mload\n  dup2\n  0x00\n  add\n  sstore\n  0x20\n  dup3\n  add\n  mload\n  dup2\n  0x01\n  add\n  sstore\n  pop\n  pop\n    /* \"Ghosper-NFT-Staking-MasterChef.sol\":29996:30025  UnStakeFee memory unStakeFee2 */\n  0x00\n    /* \"Ghosper-NFT-Staking-MasterChef.sol\":30028:30106  UnStakeFee({\r... */\n  mload(0x40)\n  dup1\n  0x40\n  add\n  0x40\n  mstore\n  dup1\n    /* \"Ghosper-NFT-Staking-MasterChef.sol\":30063:30065  14 */\n  0x0e\n    /* \"Ghosper-NFT-Staking-MasterChef.sol\":30028:30106  UnStakeFee({\r... */\n  dup2\n  mstore\n  0x20\n  add\n    /* \"Ghosper-NFT-Staking-MasterChef.sol\":30092:30094  30 */\n  0x1e\n    /* \"Ghosper-NFT-Staking-MasterChef.sol\":30028:30106  UnStakeFee({\r... */\n  dup2\n  mstore\n  pop\n    /* \"Ghosper-NFT-Staking-MasterChef.sol\":29996:30106  UnStakeFee memory unStakeFee2 = UnStakeFee({\r... */\n  swap1\n  pop\n    /* \"Ghosper-NFT-Staking-MasterChef.sol\":30117:30128  unStakeFees */\n  0x01\n    /* \"Ghosper-NFT-Staking-MasterChef.sol\":30134:30145  unStakeFee2 */\n  dup2\n    /* \"Ghosper-NFT-Staking-MasterChef.sol\":30117:30146  unStakeFees.push(unStakeFee2) */\n  swap1\n  dup1\n  0x01\n  dup2\n  sload\n  add\n  dup1\n  dup3\n  sstore\n  dup1\n  swap2\n  pop\n  pop\n  0x01\n  swap1\n  sub\n  swap1\n  0x00\n  mstore\n  keccak256(0x00, 0x20)\n  swap1\n  0x02\n  mul\n  add\n  0x00\n  swap1\n  swap2\n  swap1\n  swap2\n  swap1\n  swap2\n  pop\n  0x00\n  dup3\n  add\n  mload\n  dup2\n  0x00\n  add\n  sstore\n  0x20\n  dup3\n  add\n  mload\n  dup2\n  0x01\n  add\n  sstore\n  pop\n  pop\n    /* \"Ghosper-NFT-Staking-MasterChef.sol\":30159:30188  UnStakeFee memory unStakeFee3 */\n  0x00\n    /* \"Ghosper-NFT-Staking-MasterChef.sol\":30191:30269  UnStakeFee({\r... */\n  mload(0x40)\n  dup1\n  0x40\n  add\n  0x40\n  mstore\n  dup1\n    /* \"Ghosper-NFT-Staking-MasterChef.sol\":30226:30228  21 */\n  0x15\n    /* \"Ghosper-NFT-Staking-MasterChef.sol\":30191:30269  UnStakeFee({\r... */\n  dup2\n  mstore\n  0x20\n  add\n    /* \"Ghosper-NFT-Staking-MasterChef.sol\":30255:30257  20 */\n  0x14\n    /* \"Ghosper-NFT-Staking-MasterChef.sol\":30191:30269  UnStakeFee({\r... */\n  dup2\n  mstore\n  pop\n    /* \"Ghosper-NFT-Staking-MasterChef.sol\":30159:30269  UnStakeFee memory unStakeFee3 = UnStakeFee({\r... */\n  swap1\n  pop\n    /* \"Ghosper-NFT-Staking-MasterChef.sol\":30280:30291  unStakeFees */\n  0x01\n    /* \"Ghosper-NFT-Staking-MasterChef.sol\":30297:30308  unStakeFee3 */\n  dup2\n    /* \"Ghosper-NFT-Staking-MasterChef.sol\":30280:30309  unStakeFees.push(unStakeFee3) */\n  swap1\n  dup1\n  0x01\n  dup2\n  sload\n  add\n  dup1\n  dup3\n  sstore\n  dup1\n  swap2\n  pop\n  pop\n  0x01\n  swap1\n  sub\n  swap1\n  0x00\n  mstore\n  keccak256(0x00, 0x20)\n  swap1\n  0x02\n  mul\n  add\n  0x00\n  swap1\n  swap2\n  swap1\n  swap2\n  swap1\n  swap2\n  pop\n  0x00\n  dup3\n  add\n  mload\n  dup2\n  0x00\n  add\n  sstore\n  0x20\n  dup3\n  add\n  mload\n  dup2\n  0x01\n  add\n  sstore\n  pop\n  pop\n    /* \"Ghosper-NFT-Staking-MasterChef.sol\":30322:30351  UnStakeFee memory unStakeFee4 */\n  0x00\n    /* \"Ghosper-NFT-Staking-MasterChef.sol\":30354:30432  UnStakeFee({\r... */\n  mload(0x40)\n  dup1\n  0x40\n  add\n  0x40\n  mstore\n  dup1\n    /* \"Ghosper-NFT-Staking-MasterChef.sol\":30389:30391  30 */\n  0x1e\n    /* \"Ghosper-NFT-Staking-MasterChef.sol\":30354:30432  UnStakeFee({\r... */\n  dup2\n  mstore\n  0x20\n  add\n    /* \"Ghosper-NFT-Staking-MasterChef.sol\":30418:30420  10 */\n  0x0a\n    /* \"Ghosper-NFT-Staking-MasterChef.sol\":30354:30432  UnStakeFee({\r... */\n  dup2\n  mstore\n  pop\n    /* \"Ghosper-NFT-Staking-MasterChef.sol\":30322:30432  UnStakeFee memory unStakeFee4 = UnStakeFee({\r... */\n  swap1\n  pop\n    /* \"Ghosper-NFT-Staking-MasterChef.sol\":30443:30454  unStakeFees */\n  0x01\n    /* \"Ghosper-NFT-Staking-MasterChef.sol\":30460:30471  unStakeFee4 */\n  dup2\n    /* \"Ghosper-NFT-Staking-MasterChef.sol\":30443:30472  unStakeFees.push(unStakeFee4) */\n  swap1\n  dup1\n  0x01\n  dup2\n  sload\n  add\n  dup1\n  dup3\n  sstore\n  dup1\n  swap2\n  pop\n  pop\n  0x01\n  swap1\n  sub\n  swap1\n  0x00\n  mstore\n  keccak256(0x00, 0x20)\n  swap1\n  0x02\n  mul\n  add\n  0x00\n  swap1\n  swap2\n  swap1\n  swap2\n  swap1\n  swap2\n  pop\n  0x00\n  dup3\n  add\n  mload\n  dup2\n  0x00\n  add\n  sstore\n  0x20\n  dup3\n  add\n  mload\n  dup2\n  0x01\n  add\n  sstore\n  pop\n  pop\n    /* \"Ghosper-NFT-Staking-MasterChef.sol\":29823:30480  {\r... */\n  pop\n  pop\n  pop\n  pop\n    /* \"Ghosper-NFT-Staking-MasterChef.sol\":29799:30480  function init() private {\r... */\n  jump\t// out\n    /* \"#utility.yul\":7:150   */\ntag_23:\n    /* \"#utility.yul\":64:69   */\n  0x00\n    /* \"#utility.yul\":95:101   */\n  dup2\n    /* \"#utility.yul\":89:102   */\n  mload\n    /* \"#utility.yul\":80:102   */\n  swap1\n  pop\n    /* \"#utility.yul\":111:144   */\n  tag_25\n    /* \"#utility.yul\":138:143   */\n  dup2\n    /* \"#utility.yul\":111:144   */\n  tag_26\n  jump\t// in\ntag_25:\n    /* \"#utility.yul\":7:150   */\n  swap3\n  swap2\n  pop\n  pop\n  jump\t// out\n    /* \"#utility.yul\":156:327   */\ntag_27:\n    /* \"#utility.yul\":227:232   */\n  0x00\n    /* \"#utility.yul\":258:264   */\n  dup2\n    /* \"#utility.yul\":252:265   */\n  mload\n    /* \"#utility.yul\":243:265   */\n  swap1\n  pop\n    /* \"#utility.yul\":274:321   */\n  tag_29\n    /* \"#utility.yul\":315:320   */\n  dup2\n    /* \"#utility.yul\":274:321   */\n  tag_30\n  jump\t// in\ntag_29:\n    /* \"#utility.yul\":156:327   */\n  swap3\n  swap2\n  pop\n  pop\n  jump\t// out\n    /* \"#utility.yul\":333:508   */\ntag_31:\n    /* \"#utility.yul\":406:411   */\n  0x00\n    /* \"#utility.yul\":437:443   */\n  dup2\n    /* \"#utility.yul\":431:444   */\n  mload\n    /* \"#utility.yul\":422:444   */\n  swap1\n  pop\n    /* \"#utility.yul\":453:502   */\n  tag_33\n    /* \"#utility.yul\":496:501   */\n  dup2\n    /* \"#utility.yul\":453:502   */\n  tag_34\n  jump\t// in\ntag_33:\n    /* \"#utility.yul\":333:508   */\n  swap3\n  swap2\n  pop\n  pop\n  jump\t// out\n    /* \"#utility.yul\":514:657   */\ntag_35:\n    /* \"#utility.yul\":571:576   */\n  0x00\n    /* \"#utility.yul\":602:608   */\n  dup2\n    /* \"#utility.yul\":596:609   */\n  mload\n    /* \"#utility.yul\":587:609   */\n  swap1\n  pop\n    /* \"#utility.yul\":618:651   */\n  tag_37\n    /* \"#utility.yul\":645:650   */\n  dup2\n    /* \"#utility.yul\":618:651   */\n  tag_38\n  jump\t// in\ntag_37:\n    /* \"#utility.yul\":514:657   */\n  swap3\n  swap2\n  pop\n  pop\n  jump\t// out\n    /* \"#utility.yul\":663:1543   */\ntag_3:\n    /* \"#utility.yul\":790:796   */\n  0x00\n    /* \"#utility.yul\":798:804   */\n  dup1\n    /* \"#utility.yul\":806:812   */\n  0x00\n    /* \"#utility.yul\":814:820   */\n  dup1\n    /* \"#utility.yul\":863:866   */\n  0x80\n    /* \"#utility.yul\":851:860   */\n  dup6\n    /* \"#utility.yul\":842:849   */\n  dup8\n    /* \"#utility.yul\":838:861   */\n  sub\n    /* \"#utility.yul\":834:867   */\n  slt\n    /* \"#utility.yul\":831:951   */\n  iszero\n  tag_40\n  jumpi\n    /* \"#utility.yul\":870:949   */\n  tag_41\n  tag_42\n  jump\t// in\ntag_41:\n    /* \"#utility.yul\":831:951   */\ntag_40:\n    /* \"#utility.yul\":990:991   */\n  0x00\n    /* \"#utility.yul\":1015:1095   */\n  tag_43\n    /* \"#utility.yul\":1087:1094   */\n  dup8\n    /* \"#utility.yul\":1078:1084   */\n  dup3\n    /* \"#utility.yul\":1067:1076   */\n  dup9\n    /* \"#utility.yul\":1063:1085   */\n  add\n    /* \"#utility.yul\":1015:1095   */\n  tag_31\n  jump\t// in\ntag_43:\n    /* \"#utility.yul\":1005:1095   */\n  swap5\n  pop\n    /* \"#utility.yul\":961:1105   */\n  pop\n    /* \"#utility.yul\":1144:1146   */\n  0x20\n    /* \"#utility.yul\":1170:1248   */\n  tag_44\n    /* \"#utility.yul\":1240:1247   */\n  dup8\n    /* \"#utility.yul\":1231:1237   */\n  dup3\n    /* \"#utility.yul\":1220:1229   */\n  dup9\n    /* \"#utility.yul\":1216:1238   */\n  add\n    /* \"#utility.yul\":1170:1248   */\n  tag_27\n  jump\t// in\ntag_44:\n    /* \"#utility.yul\":1160:1248   */\n  swap4\n  pop\n    /* \"#utility.yul\":1115:1258   */\n  pop\n    /* \"#utility.yul\":1297:1299   */\n  0x40\n    /* \"#utility.yul\":1323:1387   */\n  tag_45\n    /* \"#utility.yul\":1379:1386   */\n  dup8\n    /* \"#utility.yul\":1370:1376   */\n  dup3\n    /* \"#utility.yul\":1359:1368   */\n  dup9\n    /* \"#utility.yul\":1355:1377   */\n  add\n    /* \"#utility.yul\":1323:1387   */\n  tag_35\n  jump\t// in\ntag_45:\n    /* \"#utility.yul\":1313:1387   */\n  swap3\n  pop\n    /* \"#utility.yul\":1268:1397   */\n  pop\n    /* \"#utility.yul\":1436:1438   */\n  0x60\n    /* \"#utility.yul\":1462:1526   */\n  tag_46\n    /* \"#utility.yul\":1518:1525   */\n  dup8\n    /* \"#utility.yul\":1509:1515   */\n  dup3\n    /* \"#utility.yul\":1498:1507   */\n  dup9\n    /* \"#utility.yul\":1494:1516   */\n  add\n    /* \"#utility.yul\":1462:1526   */\n  tag_23\n  jump\t// in\ntag_46:\n    /* \"#utility.yul\":1452:1526   */\n  swap2\n  pop\n    /* \"#utility.yul\":1407:1536   */\n  pop\n    /* \"#utility.yul\":663:1543   */\n  swap3\n  swap6\n  swap2\n  swap5\n  pop\n  swap3\n  pop\n  jump\t// out\n    /* \"#utility.yul\":1630:1726   */\ntag_49:\n    /* \"#utility.yul\":1667:1674   */\n  0x00\n    /* \"#utility.yul\":1696:1720   */\n  tag_51\n    /* \"#utility.yul\":1714:1719   */\n  dup3\n    /* \"#utility.yul\":1696:1720   */\n  tag_52\n  jump\t// in\ntag_51:\n    /* \"#utility.yul\":1685:1720   */\n  swap1\n  pop\n    /* \"#utility.yul\":1630:1726   */\n  swap2\n  swap1\n  pop\n  jump\t// out\n    /* \"#utility.yul\":1732:1842   */\ntag_53:\n    /* \"#utility.yul\":1783:1790   */\n  0x00\n    /* \"#utility.yul\":1812:1836   */\n  tag_55\n    /* \"#utility.yul\":1830:1835   */\n  dup3\n    /* \"#utility.yul\":1812:1836   */\n  tag_49\n  jump\t// in\ntag_55:\n    /* \"#utility.yul\":1801:1836   */\n  swap1\n  pop\n    /* \"#utility.yul\":1732:1842   */\n  swap2\n  swap1\n  pop\n  jump\t// out\n    /* \"#utility.yul\":1848:1960   */\ntag_56:\n    /* \"#utility.yul\":1901:1908   */\n  0x00\n    /* \"#utility.yul\":1930:1954   */\n  tag_58\n    /* \"#utility.yul\":1948:1953   */\n  dup3\n    /* \"#utility.yul\":1930:1954   */\n  tag_49\n  jump\t// in\ntag_58:\n    /* \"#utility.yul\":1919:1954   */\n  swap1\n  pop\n    /* \"#utility.yul\":1848:1960   */\n  swap2\n  swap1\n  pop\n  jump\t// out\n    /* \"#utility.yul\":1966:2092   */\ntag_52:\n    /* \"#utility.yul\":2003:2010   */\n  0x00\n    /* \"#utility.yul\":2043:2085   */\n  0xffffffffffffffffffffffffffffffffffffffff\n    /* \"#utility.yul\":2036:2041   */\n  dup3\n    /* \"#utility.yul\":2032:2086   */\n  and\n    /* \"#utility.yul\":2021:2086   */\n  swap1\n  pop\n    /* \"#utility.yul\":1966:2092   */\n  swap2\n  swap1\n  pop\n  jump\t// out\n    /* \"#utility.yul\":2098:2175   */\ntag_60:\n    /* \"#utility.yul\":2135:2142   */\n  0x00\n    /* \"#utility.yul\":2164:2169   */\n  dup2\n    /* \"#utility.yul\":2153:2169   */\n  swap1\n  pop\n    /* \"#utility.yul\":2098:2175   */\n  swap2\n  swap1\n  pop\n  jump\t// out\n    /* \"#utility.yul\":2304:2421   */\ntag_42:\n    /* \"#utility.yul\":2413:2414   */\n  0x00\n    /* \"#utility.yul\":2410:2411   */\n  dup1\n    /* \"#utility.yul\":2403:2415   */\n  revert\n    /* \"#utility.yul\":2427:2549   */\ntag_26:\n    /* \"#utility.yul\":2500:2524   */\n  tag_66\n    /* \"#utility.yul\":2518:2523   */\n  dup2\n    /* \"#utility.yul\":2500:2524   */\n  tag_49\n  jump\t// in\ntag_66:\n    /* \"#utility.yul\":2493:2498   */\n  dup2\n    /* \"#utility.yul\":2490:2525   */\n  eq\n    /* \"#utility.yul\":2480:2543   */\n  tag_67\n  jumpi\n    /* \"#utility.yul\":2539:2540   */\n  0x00\n    /* \"#utility.yul\":2536:2537   */\n  dup1\n    /* \"#utility.yul\":2529:2541   */\n  revert\n    /* \"#utility.yul\":2480:2543   */\ntag_67:\n    /* \"#utility.yul\":2427:2549   */\n  pop\n  jump\t// out\n    /* \"#utility.yul\":2555:2705   */\ntag_30:\n    /* \"#utility.yul\":2642:2680   */\n  tag_69\n    /* \"#utility.yul\":2674:2679   */\n  dup2\n    /* \"#utility.yul\":2642:2680   */\n  tag_53\n  jump\t// in\ntag_69:\n    /* \"#utility.yul\":2635:2640   */\n  dup2\n    /* \"#utility.yul\":2632:2681   */\n  eq\n    /* \"#utility.yul\":2622:2699   */\n  tag_70\n  jumpi\n    /* \"#utility.yul\":2695:2696   */\n  0x00\n    /* \"#utility.yul\":2692:2693   */\n  dup1\n    /* \"#utility.yul\":2685:2697   */\n  revert\n    /* \"#utility.yul\":2622:2699   */\ntag_70:\n    /* \"#utility.yul\":2555:2705   */\n  pop\n  jump\t// out\n    /* \"#utility.yul\":2711:2865   */\ntag_34:\n    /* \"#utility.yul\":2800:2840   */\n  tag_72\n    /* \"#utility.yul\":2834:2839   */\n  dup2\n    /* \"#utility.yul\":2800:2840   */\n  tag_56\n  jump\t// in\ntag_72:\n    /* \"#utility.yul\":2793:2798   */\n  dup2\n    /* \"#utility.yul\":2790:2841   */\n  eq\n    /* \"#utility.yul\":2780:2859   */\n  tag_73\n  jumpi\n    /* \"#utility.yul\":2855:2856   */\n  0x00\n    /* \"#utility.yul\":2852:2853   */\n  dup1\n    /* \"#utility.yul\":2845:2857   */\n  revert\n    /* \"#utility.yul\":2780:2859   */\ntag_73:\n    /* \"#utility.yul\":2711:2865   */\n  pop\n  jump\t// out\n    /* \"#utility.yul\":2871:2993   */\ntag_38:\n    /* \"#utility.yul\":2944:2968   */\n  tag_75\n    /* \"#utility.yul\":2962:2967   */\n  dup2\n    /* \"#utility.yul\":2944:2968   */\n  tag_60\n  jump\t// in\ntag_75:\n    /* \"#utility.yul\":2937:2942   */\n  dup2\n    /* \"#utility.yul\":2934:2969   */\n  eq\n    /* \"#utility.yul\":2924:2987   */\n  tag_76\n  jumpi\n    /* \"#utility.yul\":2983:2984   */\n  0x00\n    /* \"#utility.yul\":2980:2981   */\n  dup1\n    /* \"#utility.yul\":2973:2985   */\n  revert\n    /* \"#utility.yul\":2924:2987   */\ntag_76:\n    /* \"#utility.yul\":2871:2993   */\n  pop\n  jump\t// out\n    /* \"Ghosper-NFT-Staking-MasterChef.sol\":27968:39135  contract NftStaking is Ownable {\r... */\ntag_14:\n  shr(0x60, mload(0x80))\n  shr(0x60, mload(0xa0))\n  codecopy(0x00, dataOffset(sub_0), dataSize(sub_0))\n  0x00\n  assignImmutable(\"0x2b788c69c84726cb61a0641c648d01bc1bc6568bcab92e0e8975f165cd12fe81\")\n  0x00\n  assignImmutable(\"0x29f8d1998cd4186678d0085cd54072aeefd05bc476ef1844361510d857ac074b\")\n  return(0x00, dataSize(sub_0))\nstop\n\nsub_0: assembly {\n        /* \"Ghosper-NFT-Staking-MasterChef.sol\":27968:39135  contract NftStaking is Ownable {\r... */\n      mstore(0x40, 0x80)\n      callvalue\n      dup1\n      iszero\n      tag_1\n      jumpi\n      0x00\n      dup1\n      revert\n    tag_1:\n      pop\n      jumpi(tag_2, lt(calldatasize, 0x04))\n      shr(0xe0, calldataload(0x00))\n      dup1\n      0x792b55b6\n      gt\n      tag_27\n      jumpi\n      dup1\n      0xa9f8d181\n      gt\n      tag_28\n      jumpi\n      dup1\n      0xa9f8d181\n      eq\n      tag_21\n      jumpi\n      dup1\n      0xb5962917\n      eq\n      tag_22\n      jumpi\n      dup1\n      0xd06fcba8\n      eq\n      tag_23\n      jumpi\n      dup1\n      0xe449f341\n      eq\n      tag_24\n      jumpi\n      dup1\n      0xf25f4b56\n      eq\n      tag_25\n      jumpi\n      dup1\n      0xf2fde38b\n      eq\n      tag_26\n      jumpi\n      jump(tag_2)\n    tag_28:\n      dup1\n      0x792b55b6\n      eq\n      tag_15\n      jumpi\n      dup1\n      0x8ae39cac\n      eq\n      tag_16\n      jumpi\n      dup1\n      0x8da5cb5b\n      eq\n      tag_17\n      jumpi\n      dup1\n      0x8dbb1e3a\n      eq\n      tag_18\n      jumpi\n      dup1\n      0x90d49b9d\n      eq\n      tag_19\n      jumpi\n      dup1\n      0x9ca62a69\n      eq\n      tag_20\n      jumpi\n      jump(tag_2)\n    tag_27:\n      dup1\n      0x294d4e4a\n      gt\n      tag_29\n      jumpi\n      dup1\n      0x294d4e4a\n      eq\n      tag_9\n      jumpi\n      dup1\n      0x43db3c5f\n      eq\n      tag_10\n      jumpi\n      dup1\n      0x4641257d\n      eq\n      tag_11\n      jumpi\n      dup1\n      0x567e98f9\n      eq\n      tag_12\n      jumpi\n      dup1\n      0x5e42b455\n      eq\n      tag_13\n      jumpi\n      dup1\n      0x715018a6\n      eq\n      tag_14\n      jumpi\n      jump(tag_2)\n    tag_29:\n      dup1\n      0x0fbf0a93\n      eq\n      tag_3\n      jumpi\n      dup1\n      0x10c77237\n      eq\n      tag_4\n      jumpi\n      dup1\n      0x1959a002\n      eq\n      tag_5\n      jumpi\n      dup1\n      0x19fca9f6\n      eq\n      tag_6\n      jumpi\n      dup1\n      0x1c3e2e7a\n      eq\n      tag_7\n      jumpi\n      dup1\n      0x1e2720ff\n      eq\n      tag_8\n      jumpi\n    tag_2:\n      0x00\n      dup1\n      revert\n        /* \"Ghosper-NFT-Staking-MasterChef.sol\":35049:36403  function stake(uint256[] calldata tokenIds) external {\r... */\n    tag_3:\n      tag_30\n      0x04\n      dup1\n      calldatasize\n      sub\n      dup2\n      add\n      swap1\n      tag_31\n      swap2\n      swap1\n      tag_32\n      jump\t// in\n    tag_31:\n      tag_33\n      jump\t// in\n    tag_30:\n      stop\n        /* \"Ghosper-NFT-Staking-MasterChef.sol\":30633:31937  function setUnStakeFee(uint256 _index, uint256 _minDays, uint256 _feePercent) external onlyOwner {\r... */\n    tag_4:\n      tag_34\n      0x04\n      dup1\n      calldatasize\n      sub\n      dup2\n      add\n      swap1\n      tag_35\n      swap2\n      swap1\n      tag_36\n      jump\t// in\n    tag_35:\n      tag_37\n      jump\t// in\n    tag_34:\n      stop\n        /* \"Ghosper-NFT-Staking-MasterChef.sol\":28828:28873  mapping (address => UserInfo) public userInfo */\n    tag_5:\n      tag_38\n      0x04\n      dup1\n      calldatasize\n      sub\n      dup2\n      add\n      swap1\n      tag_39\n      swap2\n      swap1\n      tag_40\n      jump\t// in\n    tag_39:\n      tag_41\n      jump\t// in\n    tag_38:\n      mload(0x40)\n      tag_42\n      swap5\n      swap4\n      swap3\n      swap2\n      swap1\n      tag_43\n      jump\t// in\n    tag_42:\n      mload(0x40)\n      dup1\n      swap2\n      sub\n      swap1\n      return\n        /* \"Ghosper-NFT-Staking-MasterChef.sol\":28414:28447  IBEP20 public immutable ghspToken */\n    tag_6:\n      tag_44\n      tag_45\n      jump\t// in\n    tag_44:\n      mload(0x40)\n      tag_46\n      swap2\n      swap1\n      tag_47\n      jump\t// in\n    tag_46:\n      mload(0x40)\n      dup1\n      swap2\n      sub\n      swap1\n      return\n        /* \"Ghosper-NFT-Staking-MasterChef.sol\":28336:28367  UnStakeFee[] public unStakeFees */\n    tag_7:\n      tag_48\n      0x04\n      dup1\n      calldatasize\n      sub\n      dup2\n      add\n      swap1\n      tag_49\n      swap2\n      swap1\n      tag_50\n      jump\t// in\n    tag_49:\n      tag_51\n      jump\t// in\n    tag_48:\n      mload(0x40)\n      tag_52\n      swap3\n      swap2\n      swap1\n      tag_53\n      jump\t// in\n    tag_52:\n      mload(0x40)\n      dup1\n      swap2\n      sub\n      swap1\n      return\n        /* \"Ghosper-NFT-Staking-MasterChef.sol\":33912:34157  function depositReward(uint256 _amount) external onlyOwner {\r... */\n    tag_8:\n      tag_54\n      0x04\n      dup1\n      calldatasize\n      sub\n      dup2\n      add\n      swap1\n      tag_55\n      swap2\n      swap1\n      tag_50\n      jump\t// in\n    tag_55:\n      tag_56\n      jump\t// in\n    tag_54:\n      stop\n        /* \"Ghosper-NFT-Staking-MasterChef.sol\":31945:32641  function addUnStakeFee(uint256 _minDays, uint256 _feePercent) external onlyOwner {\r... */\n    tag_9:\n      tag_57\n      0x04\n      dup1\n      calldatasize\n      sub\n      dup2\n      add\n      swap1\n      tag_58\n      swap2\n      swap1\n      tag_59\n      jump\t// in\n    tag_58:\n      tag_60\n      jump\t// in\n    tag_57:\n      stop\n        /* \"Ghosper-NFT-Staking-MasterChef.sol\":28491:28521  uint256 public accGHSPPerShare */\n    tag_10:\n      tag_61\n      tag_62\n      jump\t// in\n    tag_61:\n      mload(0x40)\n      tag_63\n      swap2\n      swap1\n      tag_64\n      jump\t// in\n    tag_63:\n      mload(0x40)\n      dup1\n      swap2\n      sub\n      swap1\n      return\n        /* \"Ghosper-NFT-Staking-MasterChef.sol\":38295:39132  function harvest() external {\r... */\n    tag_11:\n      tag_65\n      tag_66\n      jump\t// in\n    tag_65:\n      stop\n        /* \"Ghosper-NFT-Staking-MasterChef.sol\":28627:28659  uint256 public totalStakedAmount */\n    tag_12:\n      tag_67\n      tag_68\n      jump\t// in\n    tag_67:\n      mload(0x40)\n      tag_69\n      swap2\n      swap1\n      tag_64\n      jump\t// in\n    tag_69:\n      mload(0x40)\n      dup1\n      swap2\n      sub\n      swap1\n      return\n        /* \"Ghosper-NFT-Staking-MasterChef.sol\":33499:33904  function getRewardBalance() external view returns (uint256) {\r... */\n    tag_13:\n      tag_70\n      tag_71\n      jump\t// in\n    tag_70:\n      mload(0x40)\n      tag_72\n      swap2\n      swap1\n      tag_64\n      jump\t// in\n    tag_72:\n      mload(0x40)\n      dup1\n      swap2\n      sub\n      swap1\n      return\n        /* \"Ghosper-NFT-Staking-MasterChef.sol\":5562:5665  function renounceOwnership() public virtual onlyOwner {\r... */\n    tag_14:\n      tag_73\n      tag_74\n      jump\t// in\n    tag_73:\n      stop\n        /* \"Ghosper-NFT-Staking-MasterChef.sol\":33143:33362  function setHarvestFee(uint256 _feePercent) external onlyOwner {\r... */\n    tag_15:\n      tag_75\n      0x04\n      dup1\n      calldatasize\n      sub\n      dup2\n      add\n      swap1\n      tag_76\n      swap2\n      swap1\n      tag_50\n      jump\t// in\n    tag_76:\n      tag_77\n      jump\t// in\n    tag_75:\n      stop\n        /* \"Ghosper-NFT-Staking-MasterChef.sol\":28528:28557  uint256 public rewardPerBlock */\n    tag_16:\n      tag_78\n      tag_79\n      jump\t// in\n    tag_78:\n      mload(0x40)\n      tag_80\n      swap2\n      swap1\n      tag_64\n      jump\t// in\n    tag_80:\n      mload(0x40)\n      dup1\n      swap2\n      sub\n      swap1\n      return\n        /* \"Ghosper-NFT-Staking-MasterChef.sol\":4911:4998  function owner() public view virtual returns (address) {\r... */\n    tag_17:\n      tag_81\n      tag_82\n      jump\t// in\n    tag_81:\n      mload(0x40)\n      tag_83\n      swap2\n      swap1\n      tag_84\n      jump\t// in\n    tag_83:\n      mload(0x40)\n      dup1\n      swap2\n      sub\n      swap1\n      return\n        /* \"Ghosper-NFT-Staking-MasterChef.sol\":33370:33491  function getMultiplier(uint256 _from, uint256 _to) public pure returns (uint256) {\r... */\n    tag_18:\n      tag_85\n      0x04\n      dup1\n      calldatasize\n      sub\n      dup2\n      add\n      swap1\n      tag_86\n      swap2\n      swap1\n      tag_59\n      jump\t// in\n    tag_86:\n      tag_87\n      jump\t// in\n    tag_85:\n      mload(0x40)\n      tag_88\n      swap2\n      swap1\n      tag_64\n      jump\t// in\n    tag_88:\n      mload(0x40)\n      dup1\n      swap2\n      sub\n      swap1\n      return\n        /* \"Ghosper-NFT-Staking-MasterChef.sol\":30486:30627  function setFeeWallet(address _feeWallet) external onlyOwner {\r... */\n    tag_19:\n      tag_89\n      0x04\n      dup1\n      calldatasize\n      sub\n      dup2\n      add\n      swap1\n      tag_90\n      swap2\n      swap1\n      tag_40\n      jump\t// in\n    tag_90:\n      tag_91\n      jump\t// in\n    tag_89:\n      stop\n        /* \"Ghosper-NFT-Staking-MasterChef.sol\":32649:33135  function removeUnStakeFee(uint256 _index) external onlyOwner {\r... */\n    tag_20:\n      tag_92\n      0x04\n      dup1\n      calldatasize\n      sub\n      dup2\n      add\n      swap1\n      tag_93\n      swap2\n      swap1\n      tag_50\n      jump\t// in\n    tag_93:\n      tag_94\n      jump\t// in\n    tag_92:\n      stop\n        /* \"Ghosper-NFT-Staking-MasterChef.sol\":28454:28484  uint256 public lastRewardBlock */\n    tag_21:\n      tag_95\n      tag_96\n      jump\t// in\n    tag_95:\n      mload(0x40)\n      tag_97\n      swap2\n      swap1\n      tag_64\n      jump\t// in\n    tag_97:\n      mload(0x40)\n      dup1\n      swap2\n      sub\n      swap1\n      return\n        /* \"Ghosper-NFT-Staking-MasterChef.sol\":28595:28620  uint256 public harvestFee */\n    tag_22:\n      tag_98\n      tag_99\n      jump\t// in\n    tag_98:\n      mload(0x40)\n      tag_100\n      swap2\n      swap1\n      tag_64\n      jump\t// in\n    tag_100:\n      mload(0x40)\n      dup1\n      swap2\n      sub\n      swap1\n      return\n        /* \"Ghosper-NFT-Staking-MasterChef.sol\":28374:28407  IERC721 public immutable nftToken */\n    tag_23:\n      tag_101\n      tag_102\n      jump\t// in\n    tag_101:\n      mload(0x40)\n      tag_103\n      swap2\n      swap1\n      tag_104\n      jump\t// in\n    tag_103:\n      mload(0x40)\n      dup1\n      swap2\n      sub\n      swap1\n      return\n        /* \"Ghosper-NFT-Staking-MasterChef.sol\":36411:37726  function unstake(uint256[] calldata tokenIds) external {\r... */\n    tag_24:\n      tag_105\n      0x04\n      dup1\n      calldatasize\n      sub\n      dup2\n      add\n      swap1\n      tag_106\n      swap2\n      swap1\n      tag_32\n      jump\t// in\n    tag_106:\n      tag_107\n      jump\t// in\n    tag_105:\n      stop\n        /* \"Ghosper-NFT-Staking-MasterChef.sol\":28564:28588  address public feeWallet */\n    tag_25:\n      tag_108\n      tag_109\n      jump\t// in\n    tag_108:\n      mload(0x40)\n      tag_110\n      swap2\n      swap1\n      tag_84\n      jump\t// in\n    tag_110:\n      mload(0x40)\n      dup1\n      swap2\n      sub\n      swap1\n      return\n        /* \"Ghosper-NFT-Staking-MasterChef.sol\":5820:6021  function transferOwnership(address newOwner) public virtual onlyOwner {\r... */\n    tag_26:\n      tag_111\n      0x04\n      dup1\n      calldatasize\n      sub\n      dup2\n      add\n      swap1\n      tag_112\n      swap2\n      swap1\n      tag_40\n      jump\t// in\n    tag_112:\n      tag_113\n      jump\t// in\n    tag_111:\n      stop\n        /* \"Ghosper-NFT-Staking-MasterChef.sol\":35049:36403  function stake(uint256[] calldata tokenIds) external {\r... */\n    tag_33:\n        /* \"Ghosper-NFT-Staking-MasterChef.sol\":35139:35140  0 */\n      0x00\n        /* \"Ghosper-NFT-Staking-MasterChef.sol\":35121:35129  tokenIds */\n      dup3\n      dup3\n        /* \"Ghosper-NFT-Staking-MasterChef.sol\":35121:35136  tokenIds.length */\n      swap1\n      pop\n        /* \"Ghosper-NFT-Staking-MasterChef.sol\":35121:35140  tokenIds.length > 0 */\n      gt\n        /* \"Ghosper-NFT-Staking-MasterChef.sol\":35113:35169  require(tokenIds.length > 0, \"NFT Staking: Empty Array\") */\n      tag_115\n      jumpi\n      mload(0x40)\n      0x08c379a000000000000000000000000000000000000000000000000000000000\n      dup2\n      mstore\n      0x04\n      add\n      tag_116\n      swap1\n      tag_117\n      jump\t// in\n    tag_116:\n      mload(0x40)\n      dup1\n      swap2\n      sub\n      swap1\n      revert\n    tag_115:\n        /* \"Ghosper-NFT-Staking-MasterChef.sol\":35184:35193  uint256 i */\n      0x00\n        /* \"Ghosper-NFT-Staking-MasterChef.sol\":35180:35561  for(uint256 i = 0; i < tokenIds.length; i ++){\r... */\n    tag_118:\n        /* \"Ghosper-NFT-Staking-MasterChef.sol\":35203:35211  tokenIds */\n      dup3\n      dup3\n        /* \"Ghosper-NFT-Staking-MasterChef.sol\":35203:35218  tokenIds.length */\n      swap1\n      pop\n        /* \"Ghosper-NFT-Staking-MasterChef.sol\":35199:35200  i */\n      dup2\n        /* \"Ghosper-NFT-Staking-MasterChef.sol\":35199:35218  i < tokenIds.length */\n      lt\n        /* \"Ghosper-NFT-Staking-MasterChef.sol\":35180:35561  for(uint256 i = 0; i < tokenIds.length; i ++){\r... */\n      iszero\n      tag_119\n      jumpi\n        /* \"Ghosper-NFT-Staking-MasterChef.sol\":35240:35255  uint256 tokenId */\n      0x00\n        /* \"Ghosper-NFT-Staking-MasterChef.sol\":35258:35266  tokenIds */\n      dup4\n      dup4\n        /* \"Ghosper-NFT-Staking-MasterChef.sol\":35267:35268  i */\n      dup4\n        /* \"Ghosper-NFT-Staking-MasterChef.sol\":35258:35269  tokenIds[i] */\n      dup2\n      dup2\n      lt\n      tag_121\n      jumpi\n      tag_122\n      tag_123\n      jump\t// in\n    tag_122:\n    tag_121:\n      swap1\n      pop\n      0x20\n      mul\n      add\n      calldataload\n        /* \"Ghosper-NFT-Staking-MasterChef.sol\":35240:35269  uint256 tokenId = tokenIds[i] */\n      swap1\n      pop\n        /* \"Ghosper-NFT-Staking-MasterChef.sol\":35322:35323  0 */\n      0x00\n        /* \"Ghosper-NFT-Staking-MasterChef.sol\":35292:35324  allStakes[tokenId] == address(0) */\n      0xffffffffffffffffffffffffffffffffffffffff\n      and\n        /* \"Ghosper-NFT-Staking-MasterChef.sol\":35292:35301  allStakes */\n      0x09\n        /* \"Ghosper-NFT-Staking-MasterChef.sol\":35292:35310  allStakes[tokenId] */\n      0x00\n        /* \"Ghosper-NFT-Staking-MasterChef.sol\":35302:35309  tokenId */\n      dup4\n        /* \"Ghosper-NFT-Staking-MasterChef.sol\":35292:35310  allStakes[tokenId] */\n      dup2\n      mstore\n      0x20\n      add\n      swap1\n      dup2\n      mstore\n      0x20\n      add\n      0x00\n      keccak256\n      0x00\n      swap1\n      sload\n      swap1\n      0x0100\n      exp\n      swap1\n      div\n      0xffffffffffffffffffffffffffffffffffffffff\n      and\n        /* \"Ghosper-NFT-Staking-MasterChef.sol\":35292:35324  allStakes[tokenId] == address(0) */\n      0xffffffffffffffffffffffffffffffffffffffff\n      and\n      eq\n        /* \"Ghosper-NFT-Staking-MasterChef.sol\":35284:35363  require(allStakes[tokenId] == address(0), \"NFT Staking: token already staked.\") */\n      tag_124\n      jumpi\n      mload(0x40)\n      0x08c379a000000000000000000000000000000000000000000000000000000000\n      dup2\n      mstore\n      0x04\n      add\n      tag_125\n      swap1\n      tag_126\n      jump\t// in\n    tag_125:\n      mload(0x40)\n      dup1\n      swap2\n      sub\n      swap1\n      revert\n    tag_124:\n        /* \"Ghosper-NFT-Staking-MasterChef.sol\":35382:35391  uint256 j */\n      0x00\n        /* \"Ghosper-NFT-Staking-MasterChef.sol\":35398:35399  1 */\n      0x01\n        /* \"Ghosper-NFT-Staking-MasterChef.sol\":35394:35395  i */\n      dup4\n        /* \"Ghosper-NFT-Staking-MasterChef.sol\":35394:35399  i + 1 */\n      tag_130\n      swap2\n      swap1\n      tag_131\n      jump\t// in\n    tag_130:\n        /* \"Ghosper-NFT-Staking-MasterChef.sol\":35382:35399  uint256 j = i + 1 */\n      swap1\n      pop\n        /* \"Ghosper-NFT-Staking-MasterChef.sol\":35378:35550  for(uint256 j = i + 1; j < tokenIds.length; j ++){\r... */\n    tag_127:\n        /* \"Ghosper-NFT-Staking-MasterChef.sol\":35405:35413  tokenIds */\n      dup5\n      dup5\n        /* \"Ghosper-NFT-Staking-MasterChef.sol\":35405:35420  tokenIds.length */\n      swap1\n      pop\n        /* \"Ghosper-NFT-Staking-MasterChef.sol\":35401:35402  j */\n      dup2\n        /* \"Ghosper-NFT-Staking-MasterChef.sol\":35401:35420  j < tokenIds.length */\n      lt\n        /* \"Ghosper-NFT-Staking-MasterChef.sol\":35378:35550  for(uint256 j = i + 1; j < tokenIds.length; j ++){\r... */\n      iszero\n      tag_128\n      jumpi\n        /* \"Ghosper-NFT-Staking-MasterChef.sol\":35469:35477  tokenIds */\n      dup5\n      dup5\n        /* \"Ghosper-NFT-Staking-MasterChef.sol\":35478:35479  j */\n      dup3\n        /* \"Ghosper-NFT-Staking-MasterChef.sol\":35469:35480  tokenIds[j] */\n      dup2\n      dup2\n      lt\n      tag_132\n      jumpi\n      tag_133\n      tag_123\n      jump\t// in\n    tag_133:\n    tag_132:\n      swap1\n      pop\n      0x20\n      mul\n      add\n      calldataload\n        /* \"Ghosper-NFT-Staking-MasterChef.sol\":35454:35462  tokenIds */\n      dup6\n      dup6\n        /* \"Ghosper-NFT-Staking-MasterChef.sol\":35463:35464  i */\n      dup6\n        /* \"Ghosper-NFT-Staking-MasterChef.sol\":35454:35465  tokenIds[i] */\n      dup2\n      dup2\n      lt\n      tag_134\n      jumpi\n      tag_135\n      tag_123\n      jump\t// in\n    tag_135:\n    tag_134:\n      swap1\n      pop\n      0x20\n      mul\n      add\n      calldataload\n        /* \"Ghosper-NFT-Staking-MasterChef.sol\":35454:35480  tokenIds[i] != tokenIds[j] */\n      eq\n      iszero\n        /* \"Ghosper-NFT-Staking-MasterChef.sol\":35446:35534  require(tokenIds[i] != tokenIds[j], \"NFT Staking: duplicate token ids in input params.\") */\n      tag_136\n      jumpi\n      mload(0x40)\n      0x08c379a000000000000000000000000000000000000000000000000000000000\n      dup2\n      mstore\n      0x04\n      add\n      tag_137\n      swap1\n      tag_138\n      jump\t// in\n    tag_137:\n      mload(0x40)\n      dup1\n      swap2\n      sub\n      swap1\n      revert\n    tag_136:\n        /* \"Ghosper-NFT-Staking-MasterChef.sol\":35422:35426  j ++ */\n      dup1\n      dup1\n      tag_139\n      swap1\n      tag_140\n      jump\t// in\n    tag_139:\n      swap2\n      pop\n      pop\n        /* \"Ghosper-NFT-Staking-MasterChef.sol\":35378:35550  for(uint256 j = i + 1; j < tokenIds.length; j ++){\r... */\n      jump(tag_127)\n    tag_128:\n      pop\n        /* \"Ghosper-NFT-Staking-MasterChef.sol\":35225:35561  {\r... */\n      pop\n        /* \"Ghosper-NFT-Staking-MasterChef.sol\":35220:35224  i ++ */\n      dup1\n      dup1\n      tag_141\n      swap1\n      tag_140\n      jump\t// in\n    tag_141:\n      swap2\n      pop\n      pop\n        /* \"Ghosper-NFT-Staking-MasterChef.sol\":35180:35561  for(uint256 i = 0; i < tokenIds.length; i ++){\r... */\n      jump(tag_118)\n    tag_119:\n      pop\n        /* \"Ghosper-NFT-Staking-MasterChef.sol\":35571:35585  updateStatus() */\n      tag_142\n        /* \"Ghosper-NFT-Staking-MasterChef.sol\":35571:35583  updateStatus */\n      tag_143\n        /* \"Ghosper-NFT-Staking-MasterChef.sol\":35571:35585  updateStatus() */\n      jump\t// in\n    tag_142:\n        /* \"Ghosper-NFT-Staking-MasterChef.sol\":35596:35617  UserInfo storage user */\n      0x00\n        /* \"Ghosper-NFT-Staking-MasterChef.sol\":35620:35628  userInfo */\n      0x0b\n        /* \"Ghosper-NFT-Staking-MasterChef.sol\":35620:35640  userInfo[msg.sender] */\n      0x00\n        /* \"Ghosper-NFT-Staking-MasterChef.sol\":35629:35639  msg.sender */\n      caller\n        /* \"Ghosper-NFT-Staking-MasterChef.sol\":35620:35640  userInfo[msg.sender] */\n      0xffffffffffffffffffffffffffffffffffffffff\n      and\n      0xffffffffffffffffffffffffffffffffffffffff\n      and\n      dup2\n      mstore\n      0x20\n      add\n      swap1\n      dup2\n      mstore\n      0x20\n      add\n      0x00\n      keccak256\n        /* \"Ghosper-NFT-Staking-MasterChef.sol\":35596:35640  UserInfo storage user = userInfo[msg.sender] */\n      swap1\n      pop\n        /* \"Ghosper-NFT-Staking-MasterChef.sol\":35669:35670  0 */\n      0x00\n        /* \"Ghosper-NFT-Staking-MasterChef.sol\":35655:35659  user */\n      dup2\n        /* \"Ghosper-NFT-Staking-MasterChef.sol\":35655:35666  user.amount */\n      0x00\n      add\n      sload\n        /* \"Ghosper-NFT-Staking-MasterChef.sol\":35655:35670  user.amount > 0 */\n      gt\n        /* \"Ghosper-NFT-Staking-MasterChef.sol\":35651:35847  if (user.amount > 0) {\r... */\n      iszero\n      tag_144\n      jumpi\n        /* \"Ghosper-NFT-Staking-MasterChef.sol\":35687:35702  uint256 pending */\n      0x00\n        /* \"Ghosper-NFT-Staking-MasterChef.sol\":35705:35768  user.amount.mul(accGHSPPerShare).div(1e12).sub(user.rewardDebt) */\n      tag_145\n        /* \"Ghosper-NFT-Staking-MasterChef.sol\":35752:35756  user */\n      dup3\n        /* \"Ghosper-NFT-Staking-MasterChef.sol\":35752:35767  user.rewardDebt */\n      0x01\n      add\n      sload\n        /* \"Ghosper-NFT-Staking-MasterChef.sol\":35705:35747  user.amount.mul(accGHSPPerShare).div(1e12) */\n      tag_146\n        /* \"Ghosper-NFT-Staking-MasterChef.sol\":35742:35746  1e12 */\n      0xe8d4a51000\n        /* \"Ghosper-NFT-Staking-MasterChef.sol\":35705:35737  user.amount.mul(accGHSPPerShare) */\n      tag_147\n        /* \"Ghosper-NFT-Staking-MasterChef.sol\":35721:35736  accGHSPPerShare */\n      sload(0x03)\n        /* \"Ghosper-NFT-Staking-MasterChef.sol\":35705:35709  user */\n      dup8\n        /* \"Ghosper-NFT-Staking-MasterChef.sol\":35705:35716  user.amount */\n      0x00\n      add\n      sload\n        /* \"Ghosper-NFT-Staking-MasterChef.sol\":35705:35720  user.amount.mul */\n      tag_148\n      swap1\n        /* \"Ghosper-NFT-Staking-MasterChef.sol\":35705:35737  user.amount.mul(accGHSPPerShare) */\n      swap2\n      swap1\n      0xffffffff\n      and\n      jump\t// in\n    tag_147:\n        /* \"Ghosper-NFT-Staking-MasterChef.sol\":35705:35741  user.amount.mul(accGHSPPerShare).div */\n      tag_149\n      swap1\n        /* \"Ghosper-NFT-Staking-MasterChef.sol\":35705:35747  user.amount.mul(accGHSPPerShare).div(1e12) */\n      swap2\n      swap1\n      0xffffffff\n      and\n      jump\t// in\n    tag_146:\n        /* \"Ghosper-NFT-Staking-MasterChef.sol\":35705:35751  user.amount.mul(accGHSPPerShare).div(1e12).sub */\n      tag_150\n      swap1\n        /* \"Ghosper-NFT-Staking-MasterChef.sol\":35705:35768  user.amount.mul(accGHSPPerShare).div(1e12).sub(user.rewardDebt) */\n      swap2\n      swap1\n      0xffffffff\n      and\n      jump\t// in\n    tag_145:\n        /* \"Ghosper-NFT-Staking-MasterChef.sol\":35687:35768  uint256 pending = user.amount.mul(accGHSPPerShare).div(1e12).sub(user.rewardDebt) */\n      swap1\n      pop\n        /* \"Ghosper-NFT-Staking-MasterChef.sol\":35804:35835  user.pendingAmount.add(pending) */\n      tag_151\n        /* \"Ghosper-NFT-Staking-MasterChef.sol\":35827:35834  pending */\n      dup2\n        /* \"Ghosper-NFT-Staking-MasterChef.sol\":35804:35808  user */\n      dup4\n        /* \"Ghosper-NFT-Staking-MasterChef.sol\":35804:35822  user.pendingAmount */\n      0x02\n      add\n      sload\n        /* \"Ghosper-NFT-Staking-MasterChef.sol\":35804:35826  user.pendingAmount.add */\n      tag_152\n      swap1\n        /* \"Ghosper-NFT-Staking-MasterChef.sol\":35804:35835  user.pendingAmount.add(pending) */\n      swap2\n      swap1\n      0xffffffff\n      and\n      jump\t// in\n    tag_151:\n        /* \"Ghosper-NFT-Staking-MasterChef.sol\":35783:35787  user */\n      dup3\n        /* \"Ghosper-NFT-Staking-MasterChef.sol\":35783:35801  user.pendingAmount */\n      0x02\n      add\n        /* \"Ghosper-NFT-Staking-MasterChef.sol\":35783:35835  user.pendingAmount = user.pendingAmount.add(pending) */\n      dup2\n      swap1\n      sstore\n      pop\n        /* \"Ghosper-NFT-Staking-MasterChef.sol\":35672:35847  {\r... */\n      pop\n        /* \"Ghosper-NFT-Staking-MasterChef.sol\":35651:35847  if (user.amount > 0) {\r... */\n    tag_144:\n        /* \"Ghosper-NFT-Staking-MasterChef.sol\":35861:35870  uint256 i */\n      0x00\n        /* \"Ghosper-NFT-Staking-MasterChef.sol\":35857:36352  for(uint256 i = 0; i < tokenIds.length; i ++){\r... */\n    tag_153:\n        /* \"Ghosper-NFT-Staking-MasterChef.sol\":35880:35888  tokenIds */\n      dup4\n      dup4\n        /* \"Ghosper-NFT-Staking-MasterChef.sol\":35880:35895  tokenIds.length */\n      swap1\n      pop\n        /* \"Ghosper-NFT-Staking-MasterChef.sol\":35876:35877  i */\n      dup2\n        /* \"Ghosper-NFT-Staking-MasterChef.sol\":35876:35895  i < tokenIds.length */\n      lt\n        /* \"Ghosper-NFT-Staking-MasterChef.sol\":35857:36352  for(uint256 i = 0; i < tokenIds.length; i ++){\r... */\n      iszero\n      tag_154\n      jumpi\n        /* \"Ghosper-NFT-Staking-MasterChef.sol\":35917:35932  uint256 tokenId */\n      0x00\n        /* \"Ghosper-NFT-Staking-MasterChef.sol\":35935:35943  tokenIds */\n      dup5\n      dup5\n        /* \"Ghosper-NFT-Staking-MasterChef.sol\":35944:35945  i */\n      dup4\n        /* \"Ghosper-NFT-Staking-MasterChef.sol\":35935:35946  tokenIds[i] */\n      dup2\n      dup2\n      lt\n      tag_156\n      jumpi\n      tag_157\n      tag_123\n      jump\t// in\n    tag_157:\n    tag_156:\n      swap1\n      pop\n      0x20\n      mul\n      add\n      calldataload\n        /* \"Ghosper-NFT-Staking-MasterChef.sol\":35917:35946  uint256 tokenId = tokenIds[i] */\n      swap1\n      pop\n        /* \"Ghosper-NFT-Staking-MasterChef.sol\":35982:35992  msg.sender */\n      caller\n        /* \"Ghosper-NFT-Staking-MasterChef.sol\":35961:35970  allStakes */\n      0x09\n        /* \"Ghosper-NFT-Staking-MasterChef.sol\":35961:35979  allStakes[tokenId] */\n      0x00\n        /* \"Ghosper-NFT-Staking-MasterChef.sol\":35971:35978  tokenId */\n      dup4\n        /* \"Ghosper-NFT-Staking-MasterChef.sol\":35961:35979  allStakes[tokenId] */\n      dup2\n      mstore\n      0x20\n      add\n      swap1\n      dup2\n      mstore\n      0x20\n      add\n      0x00\n      keccak256\n      0x00\n        /* \"Ghosper-NFT-Staking-MasterChef.sol\":35961:35992  allStakes[tokenId] = msg.sender */\n      0x0100\n      exp\n      dup2\n      sload\n      dup2\n      0xffffffffffffffffffffffffffffffffffffffff\n      mul\n      not\n      and\n      swap1\n      dup4\n      0xffffffffffffffffffffffffffffffffffffffff\n      and\n      mul\n      or\n      swap1\n      sstore\n      pop\n        /* \"Ghosper-NFT-Staking-MasterChef.sol\":36070:36094  totalStakedAmount.add(1) */\n      tag_158\n        /* \"Ghosper-NFT-Staking-MasterChef.sol\":36092:36093  1 */\n      0x01\n        /* \"Ghosper-NFT-Staking-MasterChef.sol\":36070:36087  totalStakedAmount */\n      sload(0x07)\n        /* \"Ghosper-NFT-Staking-MasterChef.sol\":36070:36091  totalStakedAmount.add */\n      tag_152\n      swap1\n        /* \"Ghosper-NFT-Staking-MasterChef.sol\":36070:36094  totalStakedAmount.add(1) */\n      swap2\n      swap1\n      0xffffffff\n      and\n      jump\t// in\n    tag_158:\n        /* \"Ghosper-NFT-Staking-MasterChef.sol\":36050:36067  totalStakedAmount */\n      0x07\n        /* \"Ghosper-NFT-Staking-MasterChef.sol\":36050:36094  totalStakedAmount = totalStakedAmount.add(1) */\n      dup2\n      swap1\n      sstore\n      pop\n        /* \"Ghosper-NFT-Staking-MasterChef.sol\":36123:36141  user.amount.add(1) */\n      tag_159\n        /* \"Ghosper-NFT-Staking-MasterChef.sol\":36139:36140  1 */\n      0x01\n        /* \"Ghosper-NFT-Staking-MasterChef.sol\":36123:36127  user */\n      dup5\n        /* \"Ghosper-NFT-Staking-MasterChef.sol\":36123:36134  user.amount */\n      0x00\n      add\n      sload\n        /* \"Ghosper-NFT-Staking-MasterChef.sol\":36123:36138  user.amount.add */\n      tag_152\n      swap1\n        /* \"Ghosper-NFT-Staking-MasterChef.sol\":36123:36141  user.amount.add(1) */\n      swap2\n      swap1\n      0xffffffff\n      and\n      jump\t// in\n    tag_159:\n        /* \"Ghosper-NFT-Staking-MasterChef.sol\":36109:36113  user */\n      dup4\n        /* \"Ghosper-NFT-Staking-MasterChef.sol\":36109:36120  user.amount */\n      0x00\n      add\n        /* \"Ghosper-NFT-Staking-MasterChef.sol\":36109:36141  user.amount = user.amount.add(1) */\n      dup2\n      swap1\n      sstore\n      pop\n        /* \"Ghosper-NFT-Staking-MasterChef.sol\":36174:36216  user.amount.mul(accGHSPPerShare).div(1e12) */\n      tag_160\n        /* \"Ghosper-NFT-Staking-MasterChef.sol\":36211:36215  1e12 */\n      0xe8d4a51000\n        /* \"Ghosper-NFT-Staking-MasterChef.sol\":36174:36206  user.amount.mul(accGHSPPerShare) */\n      tag_161\n        /* \"Ghosper-NFT-Staking-MasterChef.sol\":36190:36205  accGHSPPerShare */\n      sload(0x03)\n        /* \"Ghosper-NFT-Staking-MasterChef.sol\":36174:36178  user */\n      dup7\n        /* \"Ghosper-NFT-Staking-MasterChef.sol\":36174:36185  user.amount */\n      0x00\n      add\n      sload\n        /* \"Ghosper-NFT-Staking-MasterChef.sol\":36174:36189  user.amount.mul */\n      tag_148\n      swap1\n        /* \"Ghosper-NFT-Staking-MasterChef.sol\":36174:36206  user.amount.mul(accGHSPPerShare) */\n      swap2\n      swap1\n      0xffffffff\n      and\n      jump\t// in\n    tag_161:\n        /* \"Ghosper-NFT-Staking-MasterChef.sol\":36174:36210  user.amount.mul(accGHSPPerShare).div */\n      tag_149\n      swap1\n        /* \"Ghosper-NFT-Staking-MasterChef.sol\":36174:36216  user.amount.mul(accGHSPPerShare).div(1e12) */\n      swap2\n      swap1\n      0xffffffff\n      and\n      jump\t// in\n    tag_160:\n        /* \"Ghosper-NFT-Staking-MasterChef.sol\":36156:36160  user */\n      dup4\n        /* \"Ghosper-NFT-Staking-MasterChef.sol\":36156:36171  user.rewardDebt */\n      0x01\n      add\n        /* \"Ghosper-NFT-Staking-MasterChef.sol\":36156:36216  user.rewardDebt = user.amount.mul(accGHSPPerShare).div(1e12) */\n      dup2\n      swap1\n      sstore\n      pop\n        /* \"Ghosper-NFT-Staking-MasterChef.sol\":36253:36268  block.timestamp */\n      timestamp\n        /* \"Ghosper-NFT-Staking-MasterChef.sol\":36231:36235  user */\n      dup4\n        /* \"Ghosper-NFT-Staking-MasterChef.sol\":36231:36250  user.lastStakedTime */\n      0x03\n      add\n        /* \"Ghosper-NFT-Staking-MasterChef.sol\":36231:36268  user.lastStakedTime = block.timestamp */\n      dup2\n      swap1\n      sstore\n      pop\n        /* \"Ghosper-NFT-Staking-MasterChef.sol\":36283:36291  nftToken */\n      immutable(\"0x29f8d1998cd4186678d0085cd54072aeefd05bc476ef1844361510d857ac074b\")\n        /* \"Ghosper-NFT-Staking-MasterChef.sol\":36283:36304  nftToken.transferFrom */\n      0xffffffffffffffffffffffffffffffffffffffff\n      and\n      0x23b872dd\n        /* \"Ghosper-NFT-Staking-MasterChef.sol\":36305:36315  msg.sender */\n      caller\n        /* \"Ghosper-NFT-Staking-MasterChef.sol\":36325:36329  this */\n      address\n        /* \"Ghosper-NFT-Staking-MasterChef.sol\":36332:36339  tokenId */\n      dup5\n        /* \"Ghosper-NFT-Staking-MasterChef.sol\":36283:36340  nftToken.transferFrom(msg.sender, address(this), tokenId) */\n      mload(0x40)\n      dup5\n      0xffffffff\n      and\n      0xe0\n      shl\n      dup2\n      mstore\n      0x04\n      add\n      tag_162\n      swap4\n      swap3\n      swap2\n      swap1\n      tag_163\n      jump\t// in\n    tag_162:\n      0x00\n      mload(0x40)\n      dup1\n      dup4\n      sub\n      dup2\n      0x00\n      dup8\n      dup1\n      extcodesize\n      iszero\n      dup1\n      iszero\n      tag_164\n      jumpi\n      0x00\n      dup1\n      revert\n    tag_164:\n      pop\n      gas\n      call\n      iszero\n      dup1\n      iszero\n      tag_166\n      jumpi\n      returndatasize\n      0x00\n      dup1\n      returndatacopy\n      revert(0x00, returndatasize)\n    tag_166:\n      pop\n      pop\n      pop\n      pop\n        /* \"Ghosper-NFT-Staking-MasterChef.sol\":35902:36352  {\r... */\n      pop\n        /* \"Ghosper-NFT-Staking-MasterChef.sol\":35897:35901  i ++ */\n      dup1\n      dup1\n      tag_167\n      swap1\n      tag_140\n      jump\t// in\n    tag_167:\n      swap2\n      pop\n      pop\n        /* \"Ghosper-NFT-Staking-MasterChef.sol\":35857:36352  for(uint256 i = 0; i < tokenIds.length; i ++){\r... */\n      jump(tag_153)\n    tag_154:\n      pop\n        /* \"Ghosper-NFT-Staking-MasterChef.sol\":36367:36395  Staked(msg.sender, tokenIds) */\n      0x134b166c6094cc1ccbf1e3353ce5c3cd9fd29869051bdb999895854d77cc5ef6\n        /* \"Ghosper-NFT-Staking-MasterChef.sol\":36374:36384  msg.sender */\n      caller\n        /* \"Ghosper-NFT-Staking-MasterChef.sol\":36386:36394  tokenIds */\n      dup5\n      dup5\n        /* \"Ghosper-NFT-Staking-MasterChef.sol\":36367:36395  Staked(msg.sender, tokenIds) */\n      mload(0x40)\n      tag_168\n      swap4\n      swap3\n      swap2\n      swap1\n      tag_169\n      jump\t// in\n    tag_168:\n      mload(0x40)\n      dup1\n      swap2\n      sub\n      swap1\n      log1\n        /* \"Ghosper-NFT-Staking-MasterChef.sol\":35102:36403  {\r... */\n      pop\n        /* \"Ghosper-NFT-Staking-MasterChef.sol\":35049:36403  function stake(uint256[] calldata tokenIds) external {\r... */\n      pop\n      pop\n      jump\t// out\n        /* \"Ghosper-NFT-Staking-MasterChef.sol\":30633:31937  function setUnStakeFee(uint256 _index, uint256 _minDays, uint256 _feePercent) external onlyOwner {\r... */\n    tag_37:\n        /* \"Ghosper-NFT-Staking-MasterChef.sol\":5142:5154  _msgSender() */\n      tag_171\n        /* \"Ghosper-NFT-Staking-MasterChef.sol\":5142:5152  _msgSender */\n      tag_172\n        /* \"Ghosper-NFT-Staking-MasterChef.sol\":5142:5154  _msgSender() */\n      jump\t// in\n    tag_171:\n        /* \"Ghosper-NFT-Staking-MasterChef.sol\":5131:5154  owner() == _msgSender() */\n      0xffffffffffffffffffffffffffffffffffffffff\n      and\n        /* \"Ghosper-NFT-Staking-MasterChef.sol\":5131:5138  owner() */\n      tag_173\n        /* \"Ghosper-NFT-Staking-MasterChef.sol\":5131:5136  owner */\n      tag_82\n        /* \"Ghosper-NFT-Staking-MasterChef.sol\":5131:5138  owner() */\n      jump\t// in\n    tag_173:\n        /* \"Ghosper-NFT-Staking-MasterChef.sol\":5131:5154  owner() == _msgSender() */\n      0xffffffffffffffffffffffffffffffffffffffff\n      and\n      eq\n        /* \"Ghosper-NFT-Staking-MasterChef.sol\":5123:5191  require(owner() == _msgSender(), \"Ownable: caller is not the owner\") */\n      tag_174\n      jumpi\n      mload(0x40)\n      0x08c379a000000000000000000000000000000000000000000000000000000000\n      dup2\n      mstore\n      0x04\n      add\n      tag_175\n      swap1\n      tag_176\n      jump\t// in\n    tag_175:\n      mload(0x40)\n      dup1\n      swap2\n      sub\n      swap1\n      revert\n    tag_174:\n        /* \"Ghosper-NFT-Staking-MasterChef.sol\":30758:30769  unStakeFees */\n      0x01\n        /* \"Ghosper-NFT-Staking-MasterChef.sol\":30758:30776  unStakeFees.length */\n      dup1\n      sload\n      swap1\n      pop\n        /* \"Ghosper-NFT-Staking-MasterChef.sol\":30749:30755  _index */\n      dup4\n        /* \"Ghosper-NFT-Staking-MasterChef.sol\":30749:30776  _index < unStakeFees.length */\n      lt\n        /* \"Ghosper-NFT-Staking-MasterChef.sol\":30741:30805  require(_index < unStakeFees.length, \"setUnStakeFee: range out\") */\n      tag_178\n      jumpi\n      mload(0x40)\n      0x08c379a000000000000000000000000000000000000000000000000000000000\n      dup2\n      mstore\n      0x04\n      add\n      tag_179\n      swap1\n      tag_180\n      jump\t// in\n    tag_179:\n      mload(0x40)\n      dup1\n      swap2\n      sub\n      swap1\n      revert\n    tag_178:\n        /* \"Ghosper-NFT-Staking-MasterChef.sol\":30835:30836  0 */\n      0x00\n        /* \"Ghosper-NFT-Staking-MasterChef.sol\":30824:30832  _minDays */\n      dup3\n        /* \"Ghosper-NFT-Staking-MasterChef.sol\":30824:30836  _minDays > 0 */\n      gt\n        /* \"Ghosper-NFT-Staking-MasterChef.sol\":30816:30868  require(_minDays > 0, \"setUnStakeFee: minDays is 0\") */\n      tag_181\n      jumpi\n      mload(0x40)\n      0x08c379a000000000000000000000000000000000000000000000000000000000\n      dup2\n      mstore\n      0x04\n      add\n      tag_182\n      swap1\n      tag_183\n      jump\t// in\n    tag_182:\n      mload(0x40)\n      dup1\n      swap2\n      sub\n      swap1\n      revert\n    tag_181:\n        /* \"Ghosper-NFT-Staking-MasterChef.sol\":30902:30904  40 */\n      0x28\n        /* \"Ghosper-NFT-Staking-MasterChef.sol\":30887:30898  _feePercent */\n      dup2\n        /* \"Ghosper-NFT-Staking-MasterChef.sol\":30887:30904  _feePercent <= 40 */\n      gt\n      iszero\n        /* \"Ghosper-NFT-Staking-MasterChef.sol\":30879:30939  require(_feePercent <= 40, \"setUnStakeFee: feePercent > 40\") */\n      tag_184\n      jumpi\n      mload(0x40)\n      0x08c379a000000000000000000000000000000000000000000000000000000000\n      dup2\n      mstore\n      0x04\n      add\n      tag_185\n      swap1\n      tag_186\n      jump\t// in\n    tag_185:\n      mload(0x40)\n      dup1\n      swap2\n      sub\n      swap1\n      revert\n    tag_184:\n        /* \"Ghosper-NFT-Staking-MasterChef.sol\":30964:30965  0 */\n      0x00\n        /* \"Ghosper-NFT-Staking-MasterChef.sol\":30954:30960  _index */\n      dup4\n        /* \"Ghosper-NFT-Staking-MasterChef.sol\":30954:30965  _index == 0 */\n      eq\n        /* \"Ghosper-NFT-Staking-MasterChef.sol\":30950:31766  if (_index == 0) {\r... */\n      iszero\n      tag_187\n      jumpi\n        /* \"Ghosper-NFT-Staking-MasterChef.sol\":31001:31012  unStakeFees */\n      0x01\n        /* \"Ghosper-NFT-Staking-MasterChef.sol\":31013:31014  1 */\n      dup1\n        /* \"Ghosper-NFT-Staking-MasterChef.sol\":31001:31015  unStakeFees[1] */\n      dup2\n      sload\n      dup2\n      lt\n      tag_188\n      jumpi\n      tag_189\n      tag_123\n      jump\t// in\n    tag_189:\n    tag_188:\n      swap1\n      0x00\n      mstore\n      keccak256(0x00, 0x20)\n      swap1\n      0x02\n      mul\n      add\n        /* \"Ghosper-NFT-Staking-MasterChef.sol\":31001:31023  unStakeFees[1].minDays */\n      0x00\n      add\n      sload\n        /* \"Ghosper-NFT-Staking-MasterChef.sol\":30990:30998  _minDays */\n      dup3\n        /* \"Ghosper-NFT-Staking-MasterChef.sol\":30990:31023  _minDays < unStakeFees[1].minDays */\n      lt\n        /* \"Ghosper-NFT-Staking-MasterChef.sol\":30982:31059  require(_minDays < unStakeFees[1].minDays, \"setUnStakeFee: minDays is error\") */\n      tag_191\n      jumpi\n      mload(0x40)\n      0x08c379a000000000000000000000000000000000000000000000000000000000\n      dup2\n      mstore\n      0x04\n      add\n      tag_192\n      swap1\n      tag_193\n      jump\t// in\n    tag_192:\n      mload(0x40)\n      dup1\n      swap2\n      sub\n      swap1\n      revert\n    tag_191:\n        /* \"Ghosper-NFT-Staking-MasterChef.sol\":31096:31107  unStakeFees */\n      0x01\n        /* \"Ghosper-NFT-Staking-MasterChef.sol\":31108:31109  1 */\n      dup1\n        /* \"Ghosper-NFT-Staking-MasterChef.sol\":31096:31110  unStakeFees[1] */\n      dup2\n      sload\n      dup2\n      lt\n      tag_194\n      jumpi\n      tag_195\n      tag_123\n      jump\t// in\n    tag_195:\n    tag_194:\n      swap1\n      0x00\n      mstore\n      keccak256(0x00, 0x20)\n      swap1\n      0x02\n      mul\n      add\n        /* \"Ghosper-NFT-Staking-MasterChef.sol\":31096:31121  unStakeFees[1].feePercent */\n      0x01\n      add\n      sload\n        /* \"Ghosper-NFT-Staking-MasterChef.sol\":31082:31093  _feePercent */\n      dup2\n        /* \"Ghosper-NFT-Staking-MasterChef.sol\":31082:31121  _feePercent > unStakeFees[1].feePercent */\n      gt\n        /* \"Ghosper-NFT-Staking-MasterChef.sol\":31074:31160  require(_feePercent > unStakeFees[1].feePercent, \"setUnStakeFee: feePercent is error\") */\n      tag_197\n      jumpi\n      mload(0x40)\n      0x08c379a000000000000000000000000000000000000000000000000000000000\n      dup2\n      mstore\n      0x04\n      add\n      tag_198\n      swap1\n      tag_199\n      jump\t// in\n    tag_198:\n      mload(0x40)\n      dup1\n      swap2\n      sub\n      swap1\n      revert\n    tag_197:\n        /* \"Ghosper-NFT-Staking-MasterChef.sol\":30950:31766  if (_index == 0) {\r... */\n      jump(tag_200)\n    tag_187:\n        /* \"Ghosper-NFT-Staking-MasterChef.sol\":31213:31214  1 */\n      0x01\n        /* \"Ghosper-NFT-Staking-MasterChef.sol\":31192:31203  unStakeFees */\n      dup1\n        /* \"Ghosper-NFT-Staking-MasterChef.sol\":31192:31210  unStakeFees.length */\n      dup1\n      sload\n      swap1\n      pop\n        /* \"Ghosper-NFT-Staking-MasterChef.sol\":31192:31214  unStakeFees.length - 1 */\n      tag_201\n      swap2\n      swap1\n      tag_202\n      jump\t// in\n    tag_201:\n        /* \"Ghosper-NFT-Staking-MasterChef.sol\":31182:31188  _index */\n      dup4\n        /* \"Ghosper-NFT-Staking-MasterChef.sol\":31182:31214  _index == unStakeFees.length - 1 */\n      eq\n        /* \"Ghosper-NFT-Staking-MasterChef.sol\":31178:31766  if (_index == unStakeFees.length - 1) {\r... */\n      iszero\n      tag_203\n      jumpi\n        /* \"Ghosper-NFT-Staking-MasterChef.sol\":31250:31261  unStakeFees */\n      0x01\n        /* \"Ghosper-NFT-Staking-MasterChef.sol\":31271:31272  1 */\n      dup1\n        /* \"Ghosper-NFT-Staking-MasterChef.sol\":31262:31268  _index */\n      dup5\n        /* \"Ghosper-NFT-Staking-MasterChef.sol\":31262:31272  _index - 1 */\n      tag_204\n      swap2\n      swap1\n      tag_202\n      jump\t// in\n    tag_204:\n        /* \"Ghosper-NFT-Staking-MasterChef.sol\":31250:31273  unStakeFees[_index - 1] */\n      dup2\n      sload\n      dup2\n      lt\n      tag_205\n      jumpi\n      tag_206\n      tag_123\n      jump\t// in\n    tag_206:\n    tag_205:\n      swap1\n      0x00\n      mstore\n      keccak256(0x00, 0x20)\n      swap1\n      0x02\n      mul\n      add\n        /* \"Ghosper-NFT-Staking-MasterChef.sol\":31250:31281  unStakeFees[_index - 1].minDays */\n      0x00\n      add\n      sload\n        /* \"Ghosper-NFT-Staking-MasterChef.sol\":31239:31247  _minDays */\n      dup3\n        /* \"Ghosper-NFT-Staking-MasterChef.sol\":31239:31281  _minDays > unStakeFees[_index - 1].minDays */\n      gt\n        /* \"Ghosper-NFT-Staking-MasterChef.sol\":31231:31317  require(_minDays > unStakeFees[_index - 1].minDays, \"setUnStakeFee: minDays is error\") */\n      tag_208\n      jumpi\n      mload(0x40)\n      0x08c379a000000000000000000000000000000000000000000000000000000000\n      dup2\n      mstore\n      0x04\n      add\n      tag_209\n      swap1\n      tag_193\n      jump\t// in\n    tag_209:\n      mload(0x40)\n      dup1\n      swap2\n      sub\n      swap1\n      revert\n    tag_208:\n        /* \"Ghosper-NFT-Staking-MasterChef.sol\":31354:31365  unStakeFees */\n      0x01\n        /* \"Ghosper-NFT-Staking-MasterChef.sol\":31375:31376  1 */\n      dup1\n        /* \"Ghosper-NFT-Staking-MasterChef.sol\":31366:31372  _index */\n      dup5\n        /* \"Ghosper-NFT-Staking-MasterChef.sol\":31366:31376  _index - 1 */\n      tag_210\n      swap2\n      swap1\n      tag_202\n      jump\t// in\n    tag_210:\n        /* \"Ghosper-NFT-Staking-MasterChef.sol\":31354:31377  unStakeFees[_index - 1] */\n      dup2\n      sload\n      dup2\n      lt\n      tag_211\n      jumpi\n      tag_212\n      tag_123\n      jump\t// in\n    tag_212:\n    tag_211:\n      swap1\n      0x00\n      mstore\n      keccak256(0x00, 0x20)\n      swap1\n      0x02\n      mul\n      add\n        /* \"Ghosper-NFT-Staking-MasterChef.sol\":31354:31388  unStakeFees[_index - 1].feePercent */\n      0x01\n      add\n      sload\n        /* \"Ghosper-NFT-Staking-MasterChef.sol\":31340:31351  _feePercent */\n      dup2\n        /* \"Ghosper-NFT-Staking-MasterChef.sol\":31340:31388  _feePercent < unStakeFees[_index - 1].feePercent */\n      lt\n        /* \"Ghosper-NFT-Staking-MasterChef.sol\":31332:31427  require(_feePercent < unStakeFees[_index - 1].feePercent, \"setUnStakeFee: feePercent is error\") */\n      tag_214\n      jumpi\n      mload(0x40)\n      0x08c379a000000000000000000000000000000000000000000000000000000000\n      dup2\n      mstore\n      0x04\n      add\n      tag_215\n      swap1\n      tag_199\n      jump\t// in\n    tag_215:\n      mload(0x40)\n      dup1\n      swap2\n      sub\n      swap1\n      revert\n    tag_214:\n        /* \"Ghosper-NFT-Staking-MasterChef.sol\":31178:31766  if (_index == unStakeFees.length - 1) {\r... */\n      jump(tag_216)\n    tag_203:\n        /* \"Ghosper-NFT-Staking-MasterChef.sol\":31479:31490  unStakeFees */\n      0x01\n        /* \"Ghosper-NFT-Staking-MasterChef.sol\":31500:31501  1 */\n      dup1\n        /* \"Ghosper-NFT-Staking-MasterChef.sol\":31491:31497  _index */\n      dup5\n        /* \"Ghosper-NFT-Staking-MasterChef.sol\":31491:31501  _index - 1 */\n      tag_217\n      swap2\n      swap1\n      tag_202\n      jump\t// in\n    tag_217:\n        /* \"Ghosper-NFT-Staking-MasterChef.sol\":31479:31502  unStakeFees[_index - 1] */\n      dup2\n      sload\n      dup2\n      lt\n      tag_218\n      jumpi\n      tag_219\n      tag_123\n      jump\t// in\n    tag_219:\n    tag_218:\n      swap1\n      0x00\n      mstore\n      keccak256(0x00, 0x20)\n      swap1\n      0x02\n      mul\n      add\n        /* \"Ghosper-NFT-Staking-MasterChef.sol\":31479:31510  unStakeFees[_index - 1].minDays */\n      0x00\n      add\n      sload\n        /* \"Ghosper-NFT-Staking-MasterChef.sol\":31468:31476  _minDays */\n      dup3\n        /* \"Ghosper-NFT-Staking-MasterChef.sol\":31468:31510  _minDays > unStakeFees[_index - 1].minDays */\n      gt\n        /* \"Ghosper-NFT-Staking-MasterChef.sol\":31468:31556  _minDays > unStakeFees[_index - 1].minDays && _minDays < unStakeFees[_index + 1].minDays */\n      dup1\n      iszero\n      tag_221\n      jumpi\n      pop\n        /* \"Ghosper-NFT-Staking-MasterChef.sol\":31525:31536  unStakeFees */\n      0x01\n        /* \"Ghosper-NFT-Staking-MasterChef.sol\":31546:31547  1 */\n      dup1\n        /* \"Ghosper-NFT-Staking-MasterChef.sol\":31537:31543  _index */\n      dup5\n        /* \"Ghosper-NFT-Staking-MasterChef.sol\":31537:31547  _index + 1 */\n      tag_222\n      swap2\n      swap1\n      tag_131\n      jump\t// in\n    tag_222:\n        /* \"Ghosper-NFT-Staking-MasterChef.sol\":31525:31548  unStakeFees[_index + 1] */\n      dup2\n      sload\n      dup2\n      lt\n      tag_223\n      jumpi\n      tag_224\n      tag_123\n      jump\t// in\n    tag_224:\n    tag_223:\n      swap1\n      0x00\n      mstore\n      keccak256(0x00, 0x20)\n      swap1\n      0x02\n      mul\n      add\n        /* \"Ghosper-NFT-Staking-MasterChef.sol\":31525:31556  unStakeFees[_index + 1].minDays */\n      0x00\n      add\n      sload\n        /* \"Ghosper-NFT-Staking-MasterChef.sol\":31514:31522  _minDays */\n      dup3\n        /* \"Ghosper-NFT-Staking-MasterChef.sol\":31514:31556  _minDays < unStakeFees[_index + 1].minDays */\n      lt\n        /* \"Ghosper-NFT-Staking-MasterChef.sol\":31468:31556  _minDays > unStakeFees[_index - 1].minDays && _minDays < unStakeFees[_index + 1].minDays */\n    tag_221:\n        /* \"Ghosper-NFT-Staking-MasterChef.sol\":31460:31592  require(_minDays > unStakeFees[_index - 1].minDays && _minDays < unStakeFees[_index + 1].minDays, \"setUnStakeFee: minDays is error\") */\n      tag_226\n      jumpi\n      mload(0x40)\n      0x08c379a000000000000000000000000000000000000000000000000000000000\n      dup2\n      mstore\n      0x04\n      add\n      tag_227\n      swap1\n      tag_193\n      jump\t// in\n    tag_227:\n      mload(0x40)\n      dup1\n      swap2\n      sub\n      swap1\n      revert\n    tag_226:\n        /* \"Ghosper-NFT-Staking-MasterChef.sol\":31629:31640  unStakeFees */\n      0x01\n        /* \"Ghosper-NFT-Staking-MasterChef.sol\":31650:31651  1 */\n      dup1\n        /* \"Ghosper-NFT-Staking-MasterChef.sol\":31641:31647  _index */\n      dup5\n        /* \"Ghosper-NFT-Staking-MasterChef.sol\":31641:31651  _index - 1 */\n      tag_228\n      swap2\n      swap1\n      tag_202\n      jump\t// in\n    tag_228:\n        /* \"Ghosper-NFT-Staking-MasterChef.sol\":31629:31652  unStakeFees[_index - 1] */\n      dup2\n      sload\n      dup2\n      lt\n      tag_229\n      jumpi\n      tag_230\n      tag_123\n      jump\t// in\n    tag_230:\n    tag_229:\n      swap1\n      0x00\n      mstore\n      keccak256(0x00, 0x20)\n      swap1\n      0x02\n      mul\n      add\n        /* \"Ghosper-NFT-Staking-MasterChef.sol\":31629:31663  unStakeFees[_index - 1].feePercent */\n      0x01\n      add\n      sload\n        /* \"Ghosper-NFT-Staking-MasterChef.sol\":31615:31626  _feePercent */\n      dup2\n        /* \"Ghosper-NFT-Staking-MasterChef.sol\":31615:31663  _feePercent < unStakeFees[_index - 1].feePercent */\n      lt\n        /* \"Ghosper-NFT-Staking-MasterChef.sol\":31615:31715  _feePercent < unStakeFees[_index - 1].feePercent && _feePercent > unStakeFees[_index + 1].feePercent */\n      dup1\n      iszero\n      tag_232\n      jumpi\n      pop\n        /* \"Ghosper-NFT-Staking-MasterChef.sol\":31681:31692  unStakeFees */\n      0x01\n        /* \"Ghosper-NFT-Staking-MasterChef.sol\":31702:31703  1 */\n      dup1\n        /* \"Ghosper-NFT-Staking-MasterChef.sol\":31693:31699  _index */\n      dup5\n        /* \"Ghosper-NFT-Staking-MasterChef.sol\":31693:31703  _index + 1 */\n      tag_233\n      swap2\n      swap1\n      tag_131\n      jump\t// in\n    tag_233:\n        /* \"Ghosper-NFT-Staking-MasterChef.sol\":31681:31704  unStakeFees[_index + 1] */\n      dup2\n      sload\n      dup2\n      lt\n      tag_234\n      jumpi\n      tag_235\n      tag_123\n      jump\t// in\n    tag_235:\n    tag_234:\n      swap1\n      0x00\n      mstore\n      keccak256(0x00, 0x20)\n      swap1\n      0x02\n      mul\n      add\n        /* \"Ghosper-NFT-Staking-MasterChef.sol\":31681:31715  unStakeFees[_index + 1].feePercent */\n      0x01\n      add\n      sload\n        /* \"Ghosper-NFT-Staking-MasterChef.sol\":31667:31678  _feePercent */\n      dup2\n        /* \"Ghosper-NFT-Staking-MasterChef.sol\":31667:31715  _feePercent > unStakeFees[_index + 1].feePercent */\n      gt\n        /* \"Ghosper-NFT-Staking-MasterChef.sol\":31615:31715  _feePercent < unStakeFees[_index - 1].feePercent && _feePercent > unStakeFees[_index + 1].feePercent */\n    tag_232:\n        /* \"Ghosper-NFT-Staking-MasterChef.sol\":31607:31754  require(_feePercent < unStakeFees[_index - 1].feePercent && _feePercent > unStakeFees[_index + 1].feePercent, \"setUnStakeFee: feePercent is error\") */\n      tag_237\n      jumpi\n      mload(0x40)\n      0x08c379a000000000000000000000000000000000000000000000000000000000\n      dup2\n      mstore\n      0x04\n      add\n      tag_238\n      swap1\n      tag_199\n      jump\t// in\n    tag_238:\n      mload(0x40)\n      dup1\n      swap2\n      sub\n      swap1\n      revert\n    tag_237:\n        /* \"Ghosper-NFT-Staking-MasterChef.sol\":31178:31766  if (_index == unStakeFees.length - 1) {\r... */\n    tag_216:\n        /* \"Ghosper-NFT-Staking-MasterChef.sol\":30950:31766  if (_index == 0) {\r... */\n    tag_200:\n        /* \"Ghosper-NFT-Staking-MasterChef.sol\":31809:31820  _feePercent */\n      dup1\n        /* \"Ghosper-NFT-Staking-MasterChef.sol\":31776:31787  unStakeFees */\n      0x01\n        /* \"Ghosper-NFT-Staking-MasterChef.sol\":31788:31794  _index */\n      dup5\n        /* \"Ghosper-NFT-Staking-MasterChef.sol\":31776:31795  unStakeFees[_index] */\n      dup2\n      sload\n      dup2\n      lt\n      tag_239\n      jumpi\n      tag_240\n      tag_123\n      jump\t// in\n    tag_240:\n    tag_239:\n      swap1\n      0x00\n      mstore\n      keccak256(0x00, 0x20)\n      swap1\n      0x02\n      mul\n      add\n        /* \"Ghosper-NFT-Staking-MasterChef.sol\":31776:31806  unStakeFees[_index].feePercent */\n      0x01\n      add\n        /* \"Ghosper-NFT-Staking-MasterChef.sol\":31776:31820  unStakeFees[_index].feePercent = _feePercent */\n      dup2\n      swap1\n      sstore\n      pop\n        /* \"Ghosper-NFT-Staking-MasterChef.sol\":31861:31869  _minDays */\n      dup2\n        /* \"Ghosper-NFT-Staking-MasterChef.sol\":31831:31842  unStakeFees */\n      0x01\n        /* \"Ghosper-NFT-Staking-MasterChef.sol\":31843:31849  _index */\n      dup5\n        /* \"Ghosper-NFT-Staking-MasterChef.sol\":31831:31850  unStakeFees[_index] */\n      dup2\n      sload\n      dup2\n      lt\n      tag_242\n      jumpi\n      tag_243\n      tag_123\n      jump\t// in\n    tag_243:\n    tag_242:\n      swap1\n      0x00\n      mstore\n      keccak256(0x00, 0x20)\n      swap1\n      0x02\n      mul\n      add\n        /* \"Ghosper-NFT-Staking-MasterChef.sol\":31831:31858  unStakeFees[_index].minDays */\n      0x00\n      add\n        /* \"Ghosper-NFT-Staking-MasterChef.sol\":31831:31869  unStakeFees[_index].minDays = _minDays */\n      dup2\n      swap1\n      sstore\n      pop\n        /* \"Ghosper-NFT-Staking-MasterChef.sol\":31885:31929  SetUnStakeFee(_index, _minDays, _feePercent) */\n      0xc5b7ef59c45162d0f957af811d4ad5f8980e588a729fa3b80ebef5020e4c2725\n        /* \"Ghosper-NFT-Staking-MasterChef.sol\":31899:31905  _index */\n      dup4\n        /* \"Ghosper-NFT-Staking-MasterChef.sol\":31907:31915  _minDays */\n      dup4\n        /* \"Ghosper-NFT-Staking-MasterChef.sol\":31917:31928  _feePercent */\n      dup4\n        /* \"Ghosper-NFT-Staking-MasterChef.sol\":31885:31929  SetUnStakeFee(_index, _minDays, _feePercent) */\n      mload(0x40)\n      tag_245\n      swap4\n      swap3\n      swap2\n      swap1\n      tag_246\n      jump\t// in\n    tag_245:\n      mload(0x40)\n      dup1\n      swap2\n      sub\n      swap1\n      log1\n        /* \"Ghosper-NFT-Staking-MasterChef.sol\":30633:31937  function setUnStakeFee(uint256 _index, uint256 _minDays, uint256 _feePercent) external onlyOwner {\r... */\n      pop\n      pop\n      pop\n      jump\t// out\n        /* \"Ghosper-NFT-Staking-MasterChef.sol\":28828:28873  mapping (address => UserInfo) public userInfo */\n    tag_41:\n      mstore(0x20, 0x0b)\n      dup1\n      0x00\n      mstore\n      keccak256(0x00, 0x40)\n      0x00\n      swap2\n      pop\n      swap1\n      pop\n      dup1\n      0x00\n      add\n      sload\n      swap1\n      dup1\n      0x01\n      add\n      sload\n      swap1\n      dup1\n      0x02\n      add\n      sload\n      swap1\n      dup1\n      0x03\n      add\n      sload\n      swap1\n      pop\n      dup5\n      jump\t// out\n        /* \"Ghosper-NFT-Staking-MasterChef.sol\":28414:28447  IBEP20 public immutable ghspToken */\n    tag_45:\n      immutable(\"0x2b788c69c84726cb61a0641c648d01bc1bc6568bcab92e0e8975f165cd12fe81\")\n      dup2\n      jump\t// out\n        /* \"Ghosper-NFT-Staking-MasterChef.sol\":28336:28367  UnStakeFee[] public unStakeFees */\n    tag_51:\n      0x01\n      dup2\n      dup2\n      sload\n      dup2\n      lt\n      tag_247\n      jumpi\n      0x00\n      dup1\n      revert\n    tag_247:\n      swap1\n      0x00\n      mstore\n      keccak256(0x00, 0x20)\n      swap1\n      0x02\n      mul\n      add\n      0x00\n      swap2\n      pop\n      swap1\n      pop\n      dup1\n      0x00\n      add\n      sload\n      swap1\n      dup1\n      0x01\n      add\n      sload\n      swap1\n      pop\n      dup3\n      jump\t// out\n        /* \"Ghosper-NFT-Staking-MasterChef.sol\":33912:34157  function depositReward(uint256 _amount) external onlyOwner {\r... */\n    tag_56:\n        /* \"Ghosper-NFT-Staking-MasterChef.sol\":5142:5154  _msgSender() */\n      tag_250\n        /* \"Ghosper-NFT-Staking-MasterChef.sol\":5142:5152  _msgSender */\n      tag_172\n        /* \"Ghosper-NFT-Staking-MasterChef.sol\":5142:5154  _msgSender() */\n      jump\t// in\n    tag_250:\n        /* \"Ghosper-NFT-Staking-MasterChef.sol\":5131:5154  owner() == _msgSender() */\n      0xffffffffffffffffffffffffffffffffffffffff\n      and\n        /* \"Ghosper-NFT-Staking-MasterChef.sol\":5131:5138  owner() */\n      tag_251\n        /* \"Ghosper-NFT-Staking-MasterChef.sol\":5131:5136  owner */\n      tag_82\n        /* \"Ghosper-NFT-Staking-MasterChef.sol\":5131:5138  owner() */\n      jump\t// in\n    tag_251:\n        /* \"Ghosper-NFT-Staking-MasterChef.sol\":5131:5154  owner() == _msgSender() */\n      0xffffffffffffffffffffffffffffffffffffffff\n      and\n      eq\n        /* \"Ghosper-NFT-Staking-MasterChef.sol\":5123:5191  require(owner() == _msgSender(), \"Ownable: caller is not the owner\") */\n      tag_252\n      jumpi\n      mload(0x40)\n      0x08c379a000000000000000000000000000000000000000000000000000000000\n      dup2\n      mstore\n      0x04\n      add\n      tag_253\n      swap1\n      tag_176\n      jump\t// in\n    tag_253:\n      mload(0x40)\n      dup1\n      swap2\n      sub\n      swap1\n      revert\n    tag_252:\n        /* \"Ghosper-NFT-Staking-MasterChef.sol\":33982:34044  ghspToken.safeTransferFrom(msg.sender, address(this), _amount) */\n      tag_255\n        /* \"Ghosper-NFT-Staking-MasterChef.sol\":34009:34019  msg.sender */\n      caller\n        /* \"Ghosper-NFT-Staking-MasterChef.sol\":34029:34033  this */\n      address\n        /* \"Ghosper-NFT-Staking-MasterChef.sol\":34036:34043  _amount */\n      dup4\n        /* \"Ghosper-NFT-Staking-MasterChef.sol\":33982:33991  ghspToken */\n      immutable(\"0x2b788c69c84726cb61a0641c648d01bc1bc6568bcab92e0e8975f165cd12fe81\")\n        /* \"Ghosper-NFT-Staking-MasterChef.sol\":33982:34008  ghspToken.safeTransferFrom */\n      0xffffffffffffffffffffffffffffffffffffffff\n      and\n      tag_256\n      swap1\n        /* \"Ghosper-NFT-Staking-MasterChef.sol\":33982:34044  ghspToken.safeTransferFrom(msg.sender, address(this), _amount) */\n      swap4\n      swap3\n      swap2\n      swap1\n      0xffffffff\n      and\n      jump\t// in\n    tag_255:\n        /* \"Ghosper-NFT-Staking-MasterChef.sol\":34074:34084  msg.sender */\n      caller\n        /* \"Ghosper-NFT-Staking-MasterChef.sol\":34060:34094  DepositReward(msg.sender, _amount) */\n      0xffffffffffffffffffffffffffffffffffffffff\n      and\n      0x4f7fd5c9e17300a4800fd572ea53fc291e2ee7470d73346d16b357faee4e7210\n        /* \"Ghosper-NFT-Staking-MasterChef.sol\":34086:34093  _amount */\n      dup3\n        /* \"Ghosper-NFT-Staking-MasterChef.sol\":34060:34094  DepositReward(msg.sender, _amount) */\n      mload(0x40)\n      tag_257\n      swap2\n      swap1\n      tag_64\n      jump\t// in\n    tag_257:\n      mload(0x40)\n      dup1\n      swap2\n      sub\n      swap1\n      log2\n        /* \"Ghosper-NFT-Staking-MasterChef.sol\":34122:34149  _rewardBalance.add(_amount) */\n      tag_258\n        /* \"Ghosper-NFT-Staking-MasterChef.sol\":34141:34148  _amount */\n      dup2\n        /* \"Ghosper-NFT-Staking-MasterChef.sol\":34122:34136  _rewardBalance */\n      sload(0x08)\n        /* \"Ghosper-NFT-Staking-MasterChef.sol\":34122:34140  _rewardBalance.add */\n      tag_152\n      swap1\n        /* \"Ghosper-NFT-Staking-MasterChef.sol\":34122:34149  _rewardBalance.add(_amount) */\n      swap2\n      swap1\n      0xffffffff\n      and\n      jump\t// in\n    tag_258:\n        /* \"Ghosper-NFT-Staking-MasterChef.sol\":34105:34119  _rewardBalance */\n      0x08\n        /* \"Ghosper-NFT-Staking-MasterChef.sol\":34105:34149  _rewardBalance = _rewardBalance.add(_amount) */\n      dup2\n      swap1\n      sstore\n      pop\n        /* \"Ghosper-NFT-Staking-MasterChef.sol\":33912:34157  function depositReward(uint256 _amount) external onlyOwner {\r... */\n      pop\n      jump\t// out\n        /* \"Ghosper-NFT-Staking-MasterChef.sol\":31945:32641  function addUnStakeFee(uint256 _minDays, uint256 _feePercent) external onlyOwner {\r... */\n    tag_60:\n        /* \"Ghosper-NFT-Staking-MasterChef.sol\":5142:5154  _msgSender() */\n      tag_260\n        /* \"Ghosper-NFT-Staking-MasterChef.sol\":5142:5152  _msgSender */\n      tag_172\n        /* \"Ghosper-NFT-Staking-MasterChef.sol\":5142:5154  _msgSender() */\n      jump\t// in\n    tag_260:\n        /* \"Ghosper-NFT-Staking-MasterChef.sol\":5131:5154  owner() == _msgSender() */\n      0xffffffffffffffffffffffffffffffffffffffff\n      and\n        /* \"Ghosper-NFT-Staking-MasterChef.sol\":5131:5138  owner() */\n      tag_261\n        /* \"Ghosper-NFT-Staking-MasterChef.sol\":5131:5136  owner */\n      tag_82\n        /* \"Ghosper-NFT-Staking-MasterChef.sol\":5131:5138  owner() */\n      jump\t// in\n    tag_261:\n        /* \"Ghosper-NFT-Staking-MasterChef.sol\":5131:5154  owner() == _msgSender() */\n      0xffffffffffffffffffffffffffffffffffffffff\n      and\n      eq\n        /* \"Ghosper-NFT-Staking-MasterChef.sol\":5123:5191  require(owner() == _msgSender(), \"Ownable: caller is not the owner\") */\n      tag_262\n      jumpi\n      mload(0x40)\n      0x08c379a000000000000000000000000000000000000000000000000000000000\n      dup2\n      mstore\n      0x04\n      add\n      tag_263\n      swap1\n      tag_176\n      jump\t// in\n    tag_263:\n      mload(0x40)\n      dup1\n      swap2\n      sub\n      swap1\n      revert\n    tag_262:\n        /* \"Ghosper-NFT-Staking-MasterChef.sol\":32056:32057  0 */\n      0x00\n        /* \"Ghosper-NFT-Staking-MasterChef.sol\":32045:32053  _minDays */\n      dup3\n        /* \"Ghosper-NFT-Staking-MasterChef.sol\":32045:32057  _minDays > 0 */\n      gt\n        /* \"Ghosper-NFT-Staking-MasterChef.sol\":32037:32089  require(_minDays > 0, \"addUnStakeFee: minDays is 0\") */\n      tag_265\n      jumpi\n      mload(0x40)\n      0x08c379a000000000000000000000000000000000000000000000000000000000\n      dup2\n      mstore\n      0x04\n      add\n      tag_266\n      swap1\n      tag_267\n      jump\t// in\n    tag_266:\n      mload(0x40)\n      dup1\n      swap2\n      sub\n      swap1\n      revert\n    tag_265:\n        /* \"Ghosper-NFT-Staking-MasterChef.sol\":32123:32125  40 */\n      0x28\n        /* \"Ghosper-NFT-Staking-MasterChef.sol\":32108:32119  _feePercent */\n      dup2\n        /* \"Ghosper-NFT-Staking-MasterChef.sol\":32108:32125  _feePercent <= 40 */\n      gt\n      iszero\n        /* \"Ghosper-NFT-Staking-MasterChef.sol\":32100:32160  require(_feePercent <= 40, \"addUnStakeFee: feePercent > 40\") */\n      tag_268\n      jumpi\n      mload(0x40)\n      0x08c379a000000000000000000000000000000000000000000000000000000000\n      dup2\n      mstore\n      0x04\n      add\n      tag_269\n      swap1\n      tag_270\n      jump\t// in\n    tag_269:\n      mload(0x40)\n      dup1\n      swap2\n      sub\n      swap1\n      revert\n    tag_268:\n        /* \"Ghosper-NFT-Staking-MasterChef.sol\":32190:32201  unStakeFees */\n      0x01\n        /* \"Ghosper-NFT-Staking-MasterChef.sol\":32223:32224  1 */\n      dup1\n        /* \"Ghosper-NFT-Staking-MasterChef.sol\":32202:32213  unStakeFees */\n      dup1\n        /* \"Ghosper-NFT-Staking-MasterChef.sol\":32202:32220  unStakeFees.length */\n      dup1\n      sload\n      swap1\n      pop\n        /* \"Ghosper-NFT-Staking-MasterChef.sol\":32202:32224  unStakeFees.length - 1 */\n      tag_271\n      swap2\n      swap1\n      tag_202\n      jump\t// in\n    tag_271:\n        /* \"Ghosper-NFT-Staking-MasterChef.sol\":32190:32225  unStakeFees[unStakeFees.length - 1] */\n      dup2\n      sload\n      dup2\n      lt\n      tag_272\n      jumpi\n      tag_273\n      tag_123\n      jump\t// in\n    tag_273:\n    tag_272:\n      swap1\n      0x00\n      mstore\n      keccak256(0x00, 0x20)\n      swap1\n      0x02\n      mul\n      add\n        /* \"Ghosper-NFT-Staking-MasterChef.sol\":32190:32233  unStakeFees[unStakeFees.length - 1].minDays */\n      0x00\n      add\n      sload\n        /* \"Ghosper-NFT-Staking-MasterChef.sol\":32179:32187  _minDays */\n      dup3\n        /* \"Ghosper-NFT-Staking-MasterChef.sol\":32179:32233  _minDays > unStakeFees[unStakeFees.length - 1].minDays */\n      gt\n        /* \"Ghosper-NFT-Staking-MasterChef.sol\":32171:32269  require(_minDays > unStakeFees[unStakeFees.length - 1].minDays, \"addUnStakeFee: minDays is error\") */\n      tag_275\n      jumpi\n      mload(0x40)\n      0x08c379a000000000000000000000000000000000000000000000000000000000\n      dup2\n      mstore\n      0x04\n      add\n      tag_276\n      swap1\n      tag_277\n      jump\t// in\n    tag_276:\n      mload(0x40)\n      dup1\n      swap2\n      sub\n      swap1\n      revert\n    tag_275:\n        /* \"Ghosper-NFT-Staking-MasterChef.sol\":32302:32313  unStakeFees */\n      0x01\n        /* \"Ghosper-NFT-Staking-MasterChef.sol\":32335:32336  1 */\n      dup1\n        /* \"Ghosper-NFT-Staking-MasterChef.sol\":32314:32325  unStakeFees */\n      dup1\n        /* \"Ghosper-NFT-Staking-MasterChef.sol\":32314:32332  unStakeFees.length */\n      dup1\n      sload\n      swap1\n      pop\n        /* \"Ghosper-NFT-Staking-MasterChef.sol\":32314:32336  unStakeFees.length - 1 */\n      tag_278\n      swap2\n      swap1\n      tag_202\n      jump\t// in\n    tag_278:\n        /* \"Ghosper-NFT-Staking-MasterChef.sol\":32302:32337  unStakeFees[unStakeFees.length - 1] */\n      dup2\n      sload\n      dup2\n      lt\n      tag_279\n      jumpi\n      tag_280\n      tag_123\n      jump\t// in\n    tag_280:\n    tag_279:\n      swap1\n      0x00\n      mstore\n      keccak256(0x00, 0x20)\n      swap1\n      0x02\n      mul\n      add\n        /* \"Ghosper-NFT-Staking-MasterChef.sol\":32302:32348  unStakeFees[unStakeFees.length - 1].feePercent */\n      0x01\n      add\n      sload\n        /* \"Ghosper-NFT-Staking-MasterChef.sol\":32288:32299  _feePercent */\n      dup2\n        /* \"Ghosper-NFT-Staking-MasterChef.sol\":32288:32348  _feePercent < unStakeFees[unStakeFees.length - 1].feePercent */\n      lt\n        /* \"Ghosper-NFT-Staking-MasterChef.sol\":32280:32387  require(_feePercent < unStakeFees[unStakeFees.length - 1].feePercent, \"addUnStakeFee: feePercent is error\") */\n      tag_282\n      jumpi\n      mload(0x40)\n      0x08c379a000000000000000000000000000000000000000000000000000000000\n      dup2\n      mstore\n      0x04\n      add\n      tag_283\n      swap1\n      tag_284\n      jump\t// in\n    tag_283:\n      mload(0x40)\n      dup1\n      swap2\n      sub\n      swap1\n      revert\n    tag_282:\n        /* \"Ghosper-NFT-Staking-MasterChef.sol\":32398:32426  UnStakeFee memory unStakeFee */\n      0x00\n        /* \"Ghosper-NFT-Staking-MasterChef.sol\":32429:32522  UnStakeFee({\r... */\n      mload(0x40)\n      dup1\n      0x40\n      add\n      0x40\n      mstore\n      dup1\n        /* \"Ghosper-NFT-Staking-MasterChef.sol\":32464:32472  _minDays */\n      dup5\n        /* \"Ghosper-NFT-Staking-MasterChef.sol\":32429:32522  UnStakeFee({\r... */\n      dup2\n      mstore\n      0x20\n      add\n        /* \"Ghosper-NFT-Staking-MasterChef.sol\":32499:32510  _feePercent */\n      dup4\n        /* \"Ghosper-NFT-Staking-MasterChef.sol\":32429:32522  UnStakeFee({\r... */\n      dup2\n      mstore\n      pop\n        /* \"Ghosper-NFT-Staking-MasterChef.sol\":32398:32522  UnStakeFee memory unStakeFee = UnStakeFee({\r... */\n      swap1\n      pop\n        /* \"Ghosper-NFT-Staking-MasterChef.sol\":32533:32544  unStakeFees */\n      0x01\n        /* \"Ghosper-NFT-Staking-MasterChef.sol\":32550:32560  unStakeFee */\n      dup2\n        /* \"Ghosper-NFT-Staking-MasterChef.sol\":32533:32561  unStakeFees.push(unStakeFee) */\n      swap1\n      dup1\n      0x01\n      dup2\n      sload\n      add\n      dup1\n      dup3\n      sstore\n      dup1\n      swap2\n      pop\n      pop\n      0x01\n      swap1\n      sub\n      swap1\n      0x00\n      mstore\n      keccak256(0x00, 0x20)\n      swap1\n      0x02\n      mul\n      add\n      0x00\n      swap1\n      swap2\n      swap1\n      swap2\n      swap1\n      swap2\n      pop\n      0x00\n      dup3\n      add\n      mload\n      dup2\n      0x00\n      add\n      sstore\n      0x20\n      dup3\n      add\n      mload\n      dup2\n      0x01\n      add\n      sstore\n      pop\n      pop\n        /* \"Ghosper-NFT-Staking-MasterChef.sol\":32577:32633  AddUnStakeFee(unStakeFees.length, _minDays, _feePercent) */\n      0x657ca150be22533e612098a9cdc78b9252aa1c21d424fb5011c5ceccc0447b50\n        /* \"Ghosper-NFT-Staking-MasterChef.sol\":32591:32602  unStakeFees */\n      0x01\n        /* \"Ghosper-NFT-Staking-MasterChef.sol\":32591:32609  unStakeFees.length */\n      dup1\n      sload\n      swap1\n      pop\n        /* \"Ghosper-NFT-Staking-MasterChef.sol\":32611:32619  _minDays */\n      dup5\n        /* \"Ghosper-NFT-Staking-MasterChef.sol\":32621:32632  _feePercent */\n      dup5\n        /* \"Ghosper-NFT-Staking-MasterChef.sol\":32577:32633  AddUnStakeFee(unStakeFees.length, _minDays, _feePercent) */\n      mload(0x40)\n      tag_286\n      swap4\n      swap3\n      swap2\n      swap1\n      tag_246\n      jump\t// in\n    tag_286:\n      mload(0x40)\n      dup1\n      swap2\n      sub\n      swap1\n      log1\n        /* \"Ghosper-NFT-Staking-MasterChef.sol\":32026:32641  {\r... */\n      pop\n        /* \"Ghosper-NFT-Staking-MasterChef.sol\":31945:32641  function addUnStakeFee(uint256 _minDays, uint256 _feePercent) external onlyOwner {\r... */\n      pop\n      pop\n      jump\t// out\n        /* \"Ghosper-NFT-Staking-MasterChef.sol\":28491:28521  uint256 public accGHSPPerShare */\n    tag_62:\n      sload(0x03)\n      dup2\n      jump\t// out\n        /* \"Ghosper-NFT-Staking-MasterChef.sol\":38295:39132  function harvest() external {\r... */\n    tag_66:\n        /* \"Ghosper-NFT-Staking-MasterChef.sol\":38334:38354  uint256 rewardAmount */\n      0x00\n        /* \"Ghosper-NFT-Staking-MasterChef.sol\":38357:38380  _getPending(msg.sender) */\n      tag_288\n        /* \"Ghosper-NFT-Staking-MasterChef.sol\":38369:38379  msg.sender */\n      caller\n        /* \"Ghosper-NFT-Staking-MasterChef.sol\":38357:38368  _getPending */\n      tag_289\n        /* \"Ghosper-NFT-Staking-MasterChef.sol\":38357:38380  _getPending(msg.sender) */\n      jump\t// in\n    tag_288:\n        /* \"Ghosper-NFT-Staking-MasterChef.sol\":38334:38380  uint256 rewardAmount = _getPending(msg.sender) */\n      swap1\n      pop\n        /* \"Ghosper-NFT-Staking-MasterChef.sol\":38391:38412  UserInfo storage user */\n      0x00\n        /* \"Ghosper-NFT-Staking-MasterChef.sol\":38415:38423  userInfo */\n      0x0b\n        /* \"Ghosper-NFT-Staking-MasterChef.sol\":38415:38435  userInfo[msg.sender] */\n      0x00\n        /* \"Ghosper-NFT-Staking-MasterChef.sol\":38424:38434  msg.sender */\n      caller\n        /* \"Ghosper-NFT-Staking-MasterChef.sol\":38415:38435  userInfo[msg.sender] */\n      0xffffffffffffffffffffffffffffffffffffffff\n      and\n      0xffffffffffffffffffffffffffffffffffffffff\n      and\n      dup2\n      mstore\n      0x20\n      add\n      swap1\n      dup2\n      mstore\n      0x20\n      add\n      0x00\n      keccak256\n        /* \"Ghosper-NFT-Staking-MasterChef.sol\":38391:38435  UserInfo storage user = userInfo[msg.sender] */\n      swap1\n      pop\n        /* \"Ghosper-NFT-Staking-MasterChef.sol\":38446:38465  uint256 _harvestFee */\n      0x00\n        /* \"Ghosper-NFT-Staking-MasterChef.sol\":38468:38505  rewardAmount.mul(harvestFee).div(100) */\n      tag_290\n        /* \"Ghosper-NFT-Staking-MasterChef.sol\":38501:38504  100 */\n      0x64\n        /* \"Ghosper-NFT-Staking-MasterChef.sol\":38468:38496  rewardAmount.mul(harvestFee) */\n      tag_291\n        /* \"Ghosper-NFT-Staking-MasterChef.sol\":38485:38495  harvestFee */\n      sload(0x06)\n        /* \"Ghosper-NFT-Staking-MasterChef.sol\":38468:38480  rewardAmount */\n      dup7\n        /* \"Ghosper-NFT-Staking-MasterChef.sol\":38468:38484  rewardAmount.mul */\n      tag_148\n      swap1\n        /* \"Ghosper-NFT-Staking-MasterChef.sol\":38468:38496  rewardAmount.mul(harvestFee) */\n      swap2\n      swap1\n      0xffffffff\n      and\n      jump\t// in\n    tag_291:\n        /* \"Ghosper-NFT-Staking-MasterChef.sol\":38468:38500  rewardAmount.mul(harvestFee).div */\n      tag_149\n      swap1\n        /* \"Ghosper-NFT-Staking-MasterChef.sol\":38468:38505  rewardAmount.mul(harvestFee).div(100) */\n      swap2\n      swap1\n      0xffffffff\n      and\n      jump\t// in\n    tag_290:\n        /* \"Ghosper-NFT-Staking-MasterChef.sol\":38446:38505  uint256 _harvestFee = rewardAmount.mul(harvestFee).div(100) */\n      swap1\n      pop\n        /* \"Ghosper-NFT-Staking-MasterChef.sol\":38516:38530  uint256 amount */\n      0x00\n        /* \"Ghosper-NFT-Staking-MasterChef.sol\":38548:38559  _harvestFee */\n      dup2\n        /* \"Ghosper-NFT-Staking-MasterChef.sol\":38533:38545  rewardAmount */\n      dup5\n        /* \"Ghosper-NFT-Staking-MasterChef.sol\":38533:38559  rewardAmount - _harvestFee */\n      tag_292\n      swap2\n      swap1\n      tag_202\n      jump\t// in\n    tag_292:\n        /* \"Ghosper-NFT-Staking-MasterChef.sol\":38516:38559  uint256 amount = rewardAmount - _harvestFee */\n      swap1\n      pop\n        /* \"Ghosper-NFT-Staking-MasterChef.sol\":38611:38617  amount */\n      dup1\n        /* \"Ghosper-NFT-Staking-MasterChef.sol\":38574:38583  ghspToken */\n      immutable(\"0x2b788c69c84726cb61a0641c648d01bc1bc6568bcab92e0e8975f165cd12fe81\")\n        /* \"Ghosper-NFT-Staking-MasterChef.sol\":38574:38593  ghspToken.balanceOf */\n      0xffffffffffffffffffffffffffffffffffffffff\n      and\n      0x70a08231\n        /* \"Ghosper-NFT-Staking-MasterChef.sol\":38602:38606  this */\n      address\n        /* \"Ghosper-NFT-Staking-MasterChef.sol\":38574:38608  ghspToken.balanceOf(address(this)) */\n      mload(0x40)\n      dup3\n      0xffffffff\n      and\n      0xe0\n      shl\n      dup2\n      mstore\n      0x04\n      add\n      tag_293\n      swap2\n      swap1\n      tag_84\n      jump\t// in\n    tag_293:\n      0x20\n      mload(0x40)\n      dup1\n      dup4\n      sub\n      dup2\n      dup7\n      dup1\n      extcodesize\n      iszero\n      dup1\n      iszero\n      tag_294\n      jumpi\n      0x00\n      dup1\n      revert\n    tag_294:\n      pop\n      gas\n      staticcall\n      iszero\n      dup1\n      iszero\n      tag_296\n      jumpi\n      returndatasize\n      0x00\n      dup1\n      returndatacopy\n      revert(0x00, returndatasize)\n    tag_296:\n      pop\n      pop\n      pop\n      pop\n      mload(0x40)\n      returndatasize\n      not(0x1f)\n      0x1f\n      dup3\n      add\n      and\n      dup3\n      add\n      dup1\n      0x40\n      mstore\n      pop\n      dup2\n      add\n      swap1\n      tag_297\n      swap2\n      swap1\n      tag_298\n      jump\t// in\n    tag_297:\n        /* \"Ghosper-NFT-Staking-MasterChef.sol\":38574:38617  ghspToken.balanceOf(address(this)) < amount */\n      lt\n        /* \"Ghosper-NFT-Staking-MasterChef.sol\":38570:38689  if (ghspToken.balanceOf(address(this)) < amount) {\r... */\n      iszero\n      tag_299\n      jumpi\n        /* \"Ghosper-NFT-Staking-MasterChef.sol\":38643:38652  ghspToken */\n      immutable(\"0x2b788c69c84726cb61a0641c648d01bc1bc6568bcab92e0e8975f165cd12fe81\")\n        /* \"Ghosper-NFT-Staking-MasterChef.sol\":38643:38662  ghspToken.balanceOf */\n      0xffffffffffffffffffffffffffffffffffffffff\n      and\n      0x70a08231\n        /* \"Ghosper-NFT-Staking-MasterChef.sol\":38671:38675  this */\n      address\n        /* \"Ghosper-NFT-Staking-MasterChef.sol\":38643:38677  ghspToken.balanceOf(address(this)) */\n      mload(0x40)\n      dup3\n      0xffffffff\n      and\n      0xe0\n      shl\n      dup2\n      mstore\n      0x04\n      add\n      tag_300\n      swap2\n      swap1\n      tag_84\n      jump\t// in\n    tag_300:\n      0x20\n      mload(0x40)\n      dup1\n      dup4\n      sub\n      dup2\n      dup7\n      dup1\n      extcodesize\n      iszero\n      dup1\n      iszero\n      tag_301\n      jumpi\n      0x00\n      dup1\n      revert\n    tag_301:\n      pop\n      gas\n      staticcall\n      iszero\n      dup1\n      iszero\n      tag_303\n      jumpi\n      returndatasize\n      0x00\n      dup1\n      returndatacopy\n      revert(0x00, returndatasize)\n    tag_303:\n      pop\n      pop\n      pop\n      pop\n      mload(0x40)\n      returndatasize\n      not(0x1f)\n      0x1f\n      dup3\n      add\n      and\n      dup3\n      add\n      dup1\n      0x40\n      mstore\n      pop\n      dup2\n      add\n      swap1\n      tag_304\n      swap2\n      swap1\n      tag_298\n      jump\t// in\n    tag_304:\n        /* \"Ghosper-NFT-Staking-MasterChef.sol\":38634:38677  amount = ghspToken.balanceOf(address(this)) */\n      swap1\n      pop\n        /* \"Ghosper-NFT-Staking-MasterChef.sol\":38570:38689  if (ghspToken.balanceOf(address(this)) < amount) {\r... */\n    tag_299:\n        /* \"Ghosper-NFT-Staking-MasterChef.sol\":38699:38741  ghspToken.safeTransfer(msg.sender, amount) */\n      tag_305\n        /* \"Ghosper-NFT-Staking-MasterChef.sol\":38722:38732  msg.sender */\n      caller\n        /* \"Ghosper-NFT-Staking-MasterChef.sol\":38734:38740  amount */\n      dup3\n        /* \"Ghosper-NFT-Staking-MasterChef.sol\":38699:38708  ghspToken */\n      immutable(\"0x2b788c69c84726cb61a0641c648d01bc1bc6568bcab92e0e8975f165cd12fe81\")\n        /* \"Ghosper-NFT-Staking-MasterChef.sol\":38699:38721  ghspToken.safeTransfer */\n      0xffffffffffffffffffffffffffffffffffffffff\n      and\n      tag_306\n      swap1\n        /* \"Ghosper-NFT-Staking-MasterChef.sol\":38699:38741  ghspToken.safeTransfer(msg.sender, amount) */\n      swap3\n      swap2\n      swap1\n      0xffffffff\n      and\n      jump\t// in\n    tag_305:\n        /* \"Ghosper-NFT-Staking-MasterChef.sol\":38795:38806  _harvestFee */\n      dup2\n        /* \"Ghosper-NFT-Staking-MasterChef.sol\":38758:38767  ghspToken */\n      immutable(\"0x2b788c69c84726cb61a0641c648d01bc1bc6568bcab92e0e8975f165cd12fe81\")\n        /* \"Ghosper-NFT-Staking-MasterChef.sol\":38758:38777  ghspToken.balanceOf */\n      0xffffffffffffffffffffffffffffffffffffffff\n      and\n      0x70a08231\n        /* \"Ghosper-NFT-Staking-MasterChef.sol\":38786:38790  this */\n      address\n        /* \"Ghosper-NFT-Staking-MasterChef.sol\":38758:38792  ghspToken.balanceOf(address(this)) */\n      mload(0x40)\n      dup3\n      0xffffffff\n      and\n      0xe0\n      shl\n      dup2\n      mstore\n      0x04\n      add\n      tag_307\n      swap2\n      swap1\n      tag_84\n      jump\t// in\n    tag_307:\n      0x20\n      mload(0x40)\n      dup1\n      dup4\n      sub\n      dup2\n      dup7\n      dup1\n      extcodesize\n      iszero\n      dup1\n      iszero\n      tag_308\n      jumpi\n      0x00\n      dup1\n      revert\n    tag_308:\n      pop\n      gas\n      staticcall\n      iszero\n      dup1\n      iszero\n      tag_310\n      jumpi\n      returndatasize\n      0x00\n      dup1\n      returndatacopy\n      revert(0x00, returndatasize)\n    tag_310:\n      pop\n      pop\n      pop\n      pop\n      mload(0x40)\n      returndatasize\n      not(0x1f)\n      0x1f\n      dup3\n      add\n      and\n      dup3\n      add\n      dup1\n      0x40\n      mstore\n      pop\n      dup2\n      add\n      swap1\n      tag_311\n      swap2\n      swap1\n      tag_298\n      jump\t// in\n    tag_311:\n        /* \"Ghosper-NFT-Staking-MasterChef.sol\":38758:38806  ghspToken.balanceOf(address(this)) < _harvestFee */\n      lt\n        /* \"Ghosper-NFT-Staking-MasterChef.sol\":38754:38883  if (ghspToken.balanceOf(address(this)) < _harvestFee) {\r... */\n      iszero\n      tag_312\n      jumpi\n        /* \"Ghosper-NFT-Staking-MasterChef.sol\":38837:38846  ghspToken */\n      immutable(\"0x2b788c69c84726cb61a0641c648d01bc1bc6568bcab92e0e8975f165cd12fe81\")\n        /* \"Ghosper-NFT-Staking-MasterChef.sol\":38837:38856  ghspToken.balanceOf */\n      0xffffffffffffffffffffffffffffffffffffffff\n      and\n      0x70a08231\n        /* \"Ghosper-NFT-Staking-MasterChef.sol\":38865:38869  this */\n      address\n        /* \"Ghosper-NFT-Staking-MasterChef.sol\":38837:38871  ghspToken.balanceOf(address(this)) */\n      mload(0x40)\n      dup3\n      0xffffffff\n      and\n      0xe0\n      shl\n      dup2\n      mstore\n      0x04\n      add\n      tag_313\n      swap2\n      swap1\n      tag_84\n      jump\t// in\n    tag_313:\n      0x20\n      mload(0x40)\n      dup1\n      dup4\n      sub\n      dup2\n      dup7\n      dup1\n      extcodesize\n      iszero\n      dup1\n      iszero\n      tag_314\n      jumpi\n      0x00\n      dup1\n      revert\n    tag_314:\n      pop\n      gas\n      staticcall\n      iszero\n      dup1\n      iszero\n      tag_316\n      jumpi\n      returndatasize\n      0x00\n      dup1\n      returndatacopy\n      revert(0x00, returndatasize)\n    tag_316:\n      pop\n      pop\n      pop\n      pop\n      mload(0x40)\n      returndatasize\n      not(0x1f)\n      0x1f\n      dup3\n      add\n      and\n      dup3\n      add\n      dup1\n      0x40\n      mstore\n      pop\n      dup2\n      add\n      swap1\n      tag_317\n      swap2\n      swap1\n      tag_298\n      jump\t// in\n    tag_317:\n        /* \"Ghosper-NFT-Staking-MasterChef.sol\":38823:38871  _harvestFee = ghspToken.balanceOf(address(this)) */\n      swap2\n      pop\n        /* \"Ghosper-NFT-Staking-MasterChef.sol\":38754:38883  if (ghspToken.balanceOf(address(this)) < _harvestFee) {\r... */\n    tag_312:\n        /* \"Ghosper-NFT-Staking-MasterChef.sol\":38893:38939  ghspToken.safeTransfer(feeWallet, _harvestFee) */\n      tag_318\n        /* \"Ghosper-NFT-Staking-MasterChef.sol\":38916:38925  feeWallet */\n      0x05\n      0x00\n      swap1\n      sload\n      swap1\n      0x0100\n      exp\n      swap1\n      div\n      0xffffffffffffffffffffffffffffffffffffffff\n      and\n        /* \"Ghosper-NFT-Staking-MasterChef.sol\":38927:38938  _harvestFee */\n      dup4\n        /* \"Ghosper-NFT-Staking-MasterChef.sol\":38893:38902  ghspToken */\n      immutable(\"0x2b788c69c84726cb61a0641c648d01bc1bc6568bcab92e0e8975f165cd12fe81\")\n        /* \"Ghosper-NFT-Staking-MasterChef.sol\":38893:38915  ghspToken.safeTransfer */\n      0xffffffffffffffffffffffffffffffffffffffff\n      and\n      tag_306\n      swap1\n        /* \"Ghosper-NFT-Staking-MasterChef.sol\":38893:38939  ghspToken.safeTransfer(feeWallet, _harvestFee) */\n      swap3\n      swap2\n      swap1\n      0xffffffff\n      and\n      jump\t// in\n    tag_318:\n        /* \"Ghosper-NFT-Staking-MasterChef.sol\":38955:38995  Harvest(msg.sender, amount, _harvestFee) */\n      0x71bab65ced2e5750775a0613be067df48ef06cf92a496ebf7663ae0660924954\n        /* \"Ghosper-NFT-Staking-MasterChef.sol\":38963:38973  msg.sender */\n      caller\n        /* \"Ghosper-NFT-Staking-MasterChef.sol\":38975:38981  amount */\n      dup3\n        /* \"Ghosper-NFT-Staking-MasterChef.sol\":38983:38994  _harvestFee */\n      dup5\n        /* \"Ghosper-NFT-Staking-MasterChef.sol\":38955:38995  Harvest(msg.sender, amount, _harvestFee) */\n      mload(0x40)\n      tag_319\n      swap4\n      swap3\n      swap2\n      swap1\n      tag_320\n      jump\t// in\n    tag_319:\n      mload(0x40)\n      dup1\n      swap2\n      sub\n      swap1\n      log1\n        /* \"Ghosper-NFT-Staking-MasterChef.sol\":39006:39020  updateStatus() */\n      tag_321\n        /* \"Ghosper-NFT-Staking-MasterChef.sol\":39006:39018  updateStatus */\n      tag_143\n        /* \"Ghosper-NFT-Staking-MasterChef.sol\":39006:39020  updateStatus() */\n      jump\t// in\n    tag_321:\n        /* \"Ghosper-NFT-Staking-MasterChef.sol\":39052:39053  0 */\n      0x00\n        /* \"Ghosper-NFT-Staking-MasterChef.sol\":39031:39035  user */\n      dup4\n        /* \"Ghosper-NFT-Staking-MasterChef.sol\":39031:39049  user.pendingAmount */\n      0x02\n      add\n        /* \"Ghosper-NFT-Staking-MasterChef.sol\":39031:39053  user.pendingAmount = 0 */\n      dup2\n      swap1\n      sstore\n      pop\n        /* \"Ghosper-NFT-Staking-MasterChef.sol\":39082:39124  user.amount.mul(accGHSPPerShare).div(1e12) */\n      tag_322\n        /* \"Ghosper-NFT-Staking-MasterChef.sol\":39119:39123  1e12 */\n      0xe8d4a51000\n        /* \"Ghosper-NFT-Staking-MasterChef.sol\":39082:39114  user.amount.mul(accGHSPPerShare) */\n      tag_323\n        /* \"Ghosper-NFT-Staking-MasterChef.sol\":39098:39113  accGHSPPerShare */\n      sload(0x03)\n        /* \"Ghosper-NFT-Staking-MasterChef.sol\":39082:39086  user */\n      dup7\n        /* \"Ghosper-NFT-Staking-MasterChef.sol\":39082:39093  user.amount */\n      0x00\n      add\n      sload\n        /* \"Ghosper-NFT-Staking-MasterChef.sol\":39082:39097  user.amount.mul */\n      tag_148\n      swap1\n        /* \"Ghosper-NFT-Staking-MasterChef.sol\":39082:39114  user.amount.mul(accGHSPPerShare) */\n      swap2\n      swap1\n      0xffffffff\n      and\n      jump\t// in\n    tag_323:\n        /* \"Ghosper-NFT-Staking-MasterChef.sol\":39082:39118  user.amount.mul(accGHSPPerShare).div */\n      tag_149\n      swap1\n        /* \"Ghosper-NFT-Staking-MasterChef.sol\":39082:39124  user.amount.mul(accGHSPPerShare).div(1e12) */\n      swap2\n      swap1\n      0xffffffff\n      and\n      jump\t// in\n    tag_322:\n        /* \"Ghosper-NFT-Staking-MasterChef.sol\":39064:39068  user */\n      dup4\n        /* \"Ghosper-NFT-Staking-MasterChef.sol\":39064:39079  user.rewardDebt */\n      0x01\n      add\n        /* \"Ghosper-NFT-Staking-MasterChef.sol\":39064:39124  user.rewardDebt = user.amount.mul(accGHSPPerShare).div(1e12) */\n      dup2\n      swap1\n      sstore\n      pop\n        /* \"Ghosper-NFT-Staking-MasterChef.sol\":38323:39132  {\r... */\n      pop\n      pop\n      pop\n      pop\n        /* \"Ghosper-NFT-Staking-MasterChef.sol\":38295:39132  function harvest() external {\r... */\n      jump\t// out\n        /* \"Ghosper-NFT-Staking-MasterChef.sol\":28627:28659  uint256 public totalStakedAmount */\n    tag_68:\n      sload(0x07)\n      dup2\n      jump\t// out\n        /* \"Ghosper-NFT-Staking-MasterChef.sol\":33499:33904  function getRewardBalance() external view returns (uint256) {\r... */\n    tag_71:\n        /* \"Ghosper-NFT-Staking-MasterChef.sol\":33550:33557  uint256 */\n      0x00\n        /* \"Ghosper-NFT-Staking-MasterChef.sol\":33589:33604  lastRewardBlock */\n      sload(0x02)\n        /* \"Ghosper-NFT-Staking-MasterChef.sol\":33574:33586  block.number */\n      number\n        /* \"Ghosper-NFT-Staking-MasterChef.sol\":33574:33604  block.number > lastRewardBlock */\n      gt\n        /* \"Ghosper-NFT-Staking-MasterChef.sol\":33574:33630  block.number > lastRewardBlock && totalStakedAmount != 0 */\n      dup1\n      iszero\n      tag_325\n      jumpi\n      pop\n        /* \"Ghosper-NFT-Staking-MasterChef.sol\":33629:33630  0 */\n      0x00\n        /* \"Ghosper-NFT-Staking-MasterChef.sol\":33608:33625  totalStakedAmount */\n      sload(0x07)\n        /* \"Ghosper-NFT-Staking-MasterChef.sol\":33608:33630  totalStakedAmount != 0 */\n      eq\n      iszero\n        /* \"Ghosper-NFT-Staking-MasterChef.sol\":33574:33630  block.number > lastRewardBlock && totalStakedAmount != 0 */\n    tag_325:\n        /* \"Ghosper-NFT-Staking-MasterChef.sol\":33570:33897  if (block.number > lastRewardBlock && totalStakedAmount != 0) {\r... */\n      iszero\n      tag_326\n      jumpi\n        /* \"Ghosper-NFT-Staking-MasterChef.sol\":33647:33665  uint256 multiplier */\n      0x00\n        /* \"Ghosper-NFT-Staking-MasterChef.sol\":33668:33712  getMultiplier(lastRewardBlock, block.number) */\n      tag_327\n        /* \"Ghosper-NFT-Staking-MasterChef.sol\":33682:33697  lastRewardBlock */\n      sload(0x02)\n        /* \"Ghosper-NFT-Staking-MasterChef.sol\":33699:33711  block.number */\n      number\n        /* \"Ghosper-NFT-Staking-MasterChef.sol\":33668:33681  getMultiplier */\n      tag_87\n        /* \"Ghosper-NFT-Staking-MasterChef.sol\":33668:33712  getMultiplier(lastRewardBlock, block.number) */\n      jump\t// in\n    tag_327:\n        /* \"Ghosper-NFT-Staking-MasterChef.sol\":33647:33712  uint256 multiplier = getMultiplier(lastRewardBlock, block.number) */\n      swap1\n      pop\n        /* \"Ghosper-NFT-Staking-MasterChef.sol\":33727:33741  uint256 reward */\n      0x00\n        /* \"Ghosper-NFT-Staking-MasterChef.sol\":33744:33774  multiplier.mul(rewardPerBlock) */\n      tag_328\n        /* \"Ghosper-NFT-Staking-MasterChef.sol\":33759:33773  rewardPerBlock */\n      sload(0x04)\n        /* \"Ghosper-NFT-Staking-MasterChef.sol\":33744:33754  multiplier */\n      dup4\n        /* \"Ghosper-NFT-Staking-MasterChef.sol\":33744:33758  multiplier.mul */\n      tag_148\n      swap1\n        /* \"Ghosper-NFT-Staking-MasterChef.sol\":33744:33774  multiplier.mul(rewardPerBlock) */\n      swap2\n      swap1\n      0xffffffff\n      and\n      jump\t// in\n    tag_328:\n        /* \"Ghosper-NFT-Staking-MasterChef.sol\":33727:33774  uint256 reward = multiplier.mul(rewardPerBlock) */\n      swap1\n      pop\n        /* \"Ghosper-NFT-Staking-MasterChef.sol\":33796:33822  _rewardBalance.sub(reward) */\n      tag_329\n        /* \"Ghosper-NFT-Staking-MasterChef.sol\":33815:33821  reward */\n      dup2\n        /* \"Ghosper-NFT-Staking-MasterChef.sol\":33796:33810  _rewardBalance */\n      sload(0x08)\n        /* \"Ghosper-NFT-Staking-MasterChef.sol\":33796:33814  _rewardBalance.sub */\n      tag_150\n      swap1\n        /* \"Ghosper-NFT-Staking-MasterChef.sol\":33796:33822  _rewardBalance.sub(reward) */\n      swap2\n      swap1\n      0xffffffff\n      and\n      jump\t// in\n    tag_329:\n        /* \"Ghosper-NFT-Staking-MasterChef.sol\":33789:33822  return _rewardBalance.sub(reward) */\n      swap3\n      pop\n      pop\n      pop\n      jump(tag_324)\n        /* \"Ghosper-NFT-Staking-MasterChef.sol\":33570:33897  if (block.number > lastRewardBlock && totalStakedAmount != 0) {\r... */\n    tag_326:\n        /* \"Ghosper-NFT-Staking-MasterChef.sol\":33871:33885  _rewardBalance */\n      sload(0x08)\n        /* \"Ghosper-NFT-Staking-MasterChef.sol\":33864:33885  return _rewardBalance */\n      swap1\n      pop\n        /* \"Ghosper-NFT-Staking-MasterChef.sol\":33499:33904  function getRewardBalance() external view returns (uint256) {\r... */\n    tag_324:\n      swap1\n      jump\t// out\n        /* \"Ghosper-NFT-Staking-MasterChef.sol\":5562:5665  function renounceOwnership() public virtual onlyOwner {\r... */\n    tag_74:\n        /* \"Ghosper-NFT-Staking-MasterChef.sol\":5142:5154  _msgSender() */\n      tag_332\n        /* \"Ghosper-NFT-Staking-MasterChef.sol\":5142:5152  _msgSender */\n      tag_172\n        /* \"Ghosper-NFT-Staking-MasterChef.sol\":5142:5154  _msgSender() */\n      jump\t// in\n    tag_332:\n        /* \"Ghosper-NFT-Staking-MasterChef.sol\":5131:5154  owner() == _msgSender() */\n      0xffffffffffffffffffffffffffffffffffffffff\n      and\n        /* \"Ghosper-NFT-Staking-MasterChef.sol\":5131:5138  owner() */\n      tag_333\n        /* \"Ghosper-NFT-Staking-MasterChef.sol\":5131:5136  owner */\n      tag_82\n        /* \"Ghosper-NFT-Staking-MasterChef.sol\":5131:5138  owner() */\n      jump\t// in\n    tag_333:\n        /* \"Ghosper-NFT-Staking-MasterChef.sol\":5131:5154  owner() == _msgSender() */\n      0xffffffffffffffffffffffffffffffffffffffff\n      and\n      eq\n        /* \"Ghosper-NFT-Staking-MasterChef.sol\":5123:5191  require(owner() == _msgSender(), \"Ownable: caller is not the owner\") */\n      tag_334\n      jumpi\n      mload(0x40)\n      0x08c379a000000000000000000000000000000000000000000000000000000000\n      dup2\n      mstore\n      0x04\n      add\n      tag_335\n      swap1\n      tag_176\n      jump\t// in\n    tag_335:\n      mload(0x40)\n      dup1\n      swap2\n      sub\n      swap1\n      revert\n    tag_334:\n        /* \"Ghosper-NFT-Staking-MasterChef.sol\":5627:5657  _transferOwnership(address(0)) */\n      tag_337\n        /* \"Ghosper-NFT-Staking-MasterChef.sol\":5654:5655  0 */\n      0x00\n        /* \"Ghosper-NFT-Staking-MasterChef.sol\":5627:5645  _transferOwnership */\n      tag_338\n        /* \"Ghosper-NFT-Staking-MasterChef.sol\":5627:5657  _transferOwnership(address(0)) */\n      jump\t// in\n    tag_337:\n        /* \"Ghosper-NFT-Staking-MasterChef.sol\":5562:5665  function renounceOwnership() public virtual onlyOwner {\r... */\n      jump\t// out\n        /* \"Ghosper-NFT-Staking-MasterChef.sol\":33143:33362  function setHarvestFee(uint256 _feePercent) external onlyOwner {\r... */\n    tag_77:\n        /* \"Ghosper-NFT-Staking-MasterChef.sol\":5142:5154  _msgSender() */\n      tag_340\n        /* \"Ghosper-NFT-Staking-MasterChef.sol\":5142:5152  _msgSender */\n      tag_172\n        /* \"Ghosper-NFT-Staking-MasterChef.sol\":5142:5154  _msgSender() */\n      jump\t// in\n    tag_340:\n        /* \"Ghosper-NFT-Staking-MasterChef.sol\":5131:5154  owner() == _msgSender() */\n      0xffffffffffffffffffffffffffffffffffffffff\n      and\n        /* \"Ghosper-NFT-Staking-MasterChef.sol\":5131:5138  owner() */\n      tag_341\n        /* \"Ghosper-NFT-Staking-MasterChef.sol\":5131:5136  owner */\n      tag_82\n        /* \"Ghosper-NFT-Staking-MasterChef.sol\":5131:5138  owner() */\n      jump\t// in\n    tag_341:\n        /* \"Ghosper-NFT-Staking-MasterChef.sol\":5131:5154  owner() == _msgSender() */\n      0xffffffffffffffffffffffffffffffffffffffff\n      and\n      eq\n        /* \"Ghosper-NFT-Staking-MasterChef.sol\":5123:5191  require(owner() == _msgSender(), \"Ownable: caller is not the owner\") */\n      tag_342\n      jumpi\n      mload(0x40)\n      0x08c379a000000000000000000000000000000000000000000000000000000000\n      dup2\n      mstore\n      0x04\n      add\n      tag_343\n      swap1\n      tag_176\n      jump\t// in\n    tag_343:\n      mload(0x40)\n      dup1\n      swap2\n      sub\n      swap1\n      revert\n    tag_342:\n        /* \"Ghosper-NFT-Staking-MasterChef.sol\":33240:33242  40 */\n      0x28\n        /* \"Ghosper-NFT-Staking-MasterChef.sol\":33225:33236  _feePercent */\n      dup2\n        /* \"Ghosper-NFT-Staking-MasterChef.sol\":33225:33242  _feePercent <= 40 */\n      gt\n      iszero\n        /* \"Ghosper-NFT-Staking-MasterChef.sol\":33217:33277  require(_feePercent <= 40, \"setHarvestFee: feePercent > 40\") */\n      tag_345\n      jumpi\n      mload(0x40)\n      0x08c379a000000000000000000000000000000000000000000000000000000000\n      dup2\n      mstore\n      0x04\n      add\n      tag_346\n      swap1\n      tag_347\n      jump\t// in\n    tag_346:\n      mload(0x40)\n      dup1\n      swap2\n      sub\n      swap1\n      revert\n    tag_345:\n        /* \"Ghosper-NFT-Staking-MasterChef.sol\":33301:33312  _feePercent */\n      dup1\n        /* \"Ghosper-NFT-Staking-MasterChef.sol\":33288:33298  harvestFee */\n      0x06\n        /* \"Ghosper-NFT-Staking-MasterChef.sol\":33288:33312  harvestFee = _feePercent */\n      dup2\n      swap1\n      sstore\n      pop\n        /* \"Ghosper-NFT-Staking-MasterChef.sol\":33328:33354  SetHarvestFee(_feePercent) */\n      0xf419800a2d8930c61d5d9cd782aa72c512cf6be2f79da6db0b8855870b7269ed\n        /* \"Ghosper-NFT-Staking-MasterChef.sol\":33342:33353  _feePercent */\n      dup2\n        /* \"Ghosper-NFT-Staking-MasterChef.sol\":33328:33354  SetHarvestFee(_feePercent) */\n      mload(0x40)\n      tag_348\n      swap2\n      swap1\n      tag_64\n      jump\t// in\n    tag_348:\n      mload(0x40)\n      dup1\n      swap2\n      sub\n      swap1\n      log1\n        /* \"Ghosper-NFT-Staking-MasterChef.sol\":33143:33362  function setHarvestFee(uint256 _feePercent) external onlyOwner {\r... */\n      pop\n      jump\t// out\n        /* \"Ghosper-NFT-Staking-MasterChef.sol\":28528:28557  uint256 public rewardPerBlock */\n    tag_79:\n      sload(0x04)\n      dup2\n      jump\t// out\n        /* \"Ghosper-NFT-Staking-MasterChef.sol\":4911:4998  function owner() public view virtual returns (address) {\r... */\n    tag_82:\n        /* \"Ghosper-NFT-Staking-MasterChef.sol\":4957:4964  address */\n      0x00\n        /* \"Ghosper-NFT-Staking-MasterChef.sol\":4984:4990  _owner */\n      dup1\n      0x00\n      swap1\n      sload\n      swap1\n      0x0100\n      exp\n      swap1\n      div\n      0xffffffffffffffffffffffffffffffffffffffff\n      and\n        /* \"Ghosper-NFT-Staking-MasterChef.sol\":4977:4990  return _owner */\n      swap1\n      pop\n        /* \"Ghosper-NFT-Staking-MasterChef.sol\":4911:4998  function owner() public view virtual returns (address) {\r... */\n      swap1\n      jump\t// out\n        /* \"Ghosper-NFT-Staking-MasterChef.sol\":33370:33491  function getMultiplier(uint256 _from, uint256 _to) public pure returns (uint256) {\r... */\n    tag_87:\n        /* \"Ghosper-NFT-Staking-MasterChef.sol\":33442:33449  uint256 */\n      0x00\n        /* \"Ghosper-NFT-Staking-MasterChef.sol\":33469:33483  _to.sub(_from) */\n      tag_351\n        /* \"Ghosper-NFT-Staking-MasterChef.sol\":33477:33482  _from */\n      dup4\n        /* \"Ghosper-NFT-Staking-MasterChef.sol\":33469:33472  _to */\n      dup4\n        /* \"Ghosper-NFT-Staking-MasterChef.sol\":33469:33476  _to.sub */\n      tag_150\n      swap1\n        /* \"Ghosper-NFT-Staking-MasterChef.sol\":33469:33483  _to.sub(_from) */\n      swap2\n      swap1\n      0xffffffff\n      and\n      jump\t// in\n    tag_351:\n        /* \"Ghosper-NFT-Staking-MasterChef.sol\":33462:33483  return _to.sub(_from) */\n      swap1\n      pop\n        /* \"Ghosper-NFT-Staking-MasterChef.sol\":33370:33491  function getMultiplier(uint256 _from, uint256 _to) public pure returns (uint256) {\r... */\n      swap3\n      swap2\n      pop\n      pop\n      jump\t// out\n        /* \"Ghosper-NFT-Staking-MasterChef.sol\":30486:30627  function setFeeWallet(address _feeWallet) external onlyOwner {\r... */\n    tag_91:\n        /* \"Ghosper-NFT-Staking-MasterChef.sol\":5142:5154  _msgSender() */\n      tag_353\n        /* \"Ghosper-NFT-Staking-MasterChef.sol\":5142:5152  _msgSender */\n      tag_172\n        /* \"Ghosper-NFT-Staking-MasterChef.sol\":5142:5154  _msgSender() */\n      jump\t// in\n    tag_353:\n        /* \"Ghosper-NFT-Staking-MasterChef.sol\":5131:5154  owner() == _msgSender() */\n      0xffffffffffffffffffffffffffffffffffffffff\n      and\n        /* \"Ghosper-NFT-Staking-MasterChef.sol\":5131:5138  owner() */\n      tag_354\n        /* \"Ghosper-NFT-Staking-MasterChef.sol\":5131:5136  owner */\n      tag_82\n        /* \"Ghosper-NFT-Staking-MasterChef.sol\":5131:5138  owner() */\n      jump\t// in\n    tag_354:\n        /* \"Ghosper-NFT-Staking-MasterChef.sol\":5131:5154  owner() == _msgSender() */\n      0xffffffffffffffffffffffffffffffffffffffff\n      and\n      eq\n        /* \"Ghosper-NFT-Staking-MasterChef.sol\":5123:5191  require(owner() == _msgSender(), \"Ownable: caller is not the owner\") */\n      tag_355\n      jumpi\n      mload(0x40)\n      0x08c379a000000000000000000000000000000000000000000000000000000000\n      dup2\n      mstore\n      0x04\n      add\n      tag_356\n      swap1\n      tag_176\n      jump\t// in\n    tag_356:\n      mload(0x40)\n      dup1\n      swap2\n      sub\n      swap1\n      revert\n    tag_355:\n        /* \"Ghosper-NFT-Staking-MasterChef.sol\":30570:30580  _feeWallet */\n      dup1\n        /* \"Ghosper-NFT-Staking-MasterChef.sol\":30558:30567  feeWallet */\n      0x05\n      0x00\n        /* \"Ghosper-NFT-Staking-MasterChef.sol\":30558:30580  feeWallet = _feeWallet */\n      0x0100\n      exp\n      dup2\n      sload\n      dup2\n      0xffffffffffffffffffffffffffffffffffffffff\n      mul\n      not\n      and\n      swap1\n      dup4\n      0xffffffffffffffffffffffffffffffffffffffff\n      and\n      mul\n      or\n      swap1\n      sstore\n      pop\n        /* \"Ghosper-NFT-Staking-MasterChef.sol\":30609:30618  feeWallet */\n      0x05\n      0x00\n      swap1\n      sload\n      swap1\n      0x0100\n      exp\n      swap1\n      div\n      0xffffffffffffffffffffffffffffffffffffffff\n      and\n        /* \"Ghosper-NFT-Staking-MasterChef.sol\":30596:30619  SetFeeWallet(feeWallet) */\n      0xffffffffffffffffffffffffffffffffffffffff\n      and\n      0x3d21e5a2b633291bd1ff5f9c654e402d063783c95759d2ea521b31fb30e4da41\n      mload(0x40)\n      mload(0x40)\n      dup1\n      swap2\n      sub\n      swap1\n      log2\n        /* \"Ghosper-NFT-Staking-MasterChef.sol\":30486:30627  function setFeeWallet(address _feeWallet) external onlyOwner {\r... */\n      pop\n      jump\t// out\n        /* \"Ghosper-NFT-Staking-MasterChef.sol\":32649:33135  function removeUnStakeFee(uint256 _index) external onlyOwner {\r... */\n    tag_94:\n        /* \"Ghosper-NFT-Staking-MasterChef.sol\":5142:5154  _msgSender() */\n      tag_359\n        /* \"Ghosper-NFT-Staking-MasterChef.sol\":5142:5152  _msgSender */\n      tag_172\n        /* \"Ghosper-NFT-Staking-MasterChef.sol\":5142:5154  _msgSender() */\n      jump\t// in\n    tag_359:\n        /* \"Ghosper-NFT-Staking-MasterChef.sol\":5131:5154  owner() == _msgSender() */\n      0xffffffffffffffffffffffffffffffffffffffff\n      and\n        /* \"Ghosper-NFT-Staking-MasterChef.sol\":5131:5138  owner() */\n      tag_360\n        /* \"Ghosper-NFT-Staking-MasterChef.sol\":5131:5136  owner */\n      tag_82\n        /* \"Ghosper-NFT-Staking-MasterChef.sol\":5131:5138  owner() */\n      jump\t// in\n    tag_360:\n        /* \"Ghosper-NFT-Staking-MasterChef.sol\":5131:5154  owner() == _msgSender() */\n      0xffffffffffffffffffffffffffffffffffffffff\n      and\n      eq\n        /* \"Ghosper-NFT-Staking-MasterChef.sol\":5123:5191  require(owner() == _msgSender(), \"Ownable: caller is not the owner\") */\n      tag_361\n      jumpi\n      mload(0x40)\n      0x08c379a000000000000000000000000000000000000000000000000000000000\n      dup2\n      mstore\n      0x04\n      add\n      tag_362\n      swap1\n      tag_176\n      jump\t// in\n    tag_362:\n      mload(0x40)\n      dup1\n      swap2\n      sub\n      swap1\n      revert\n    tag_361:\n        /* \"Ghosper-NFT-Staking-MasterChef.sol\":32738:32749  unStakeFees */\n      0x01\n        /* \"Ghosper-NFT-Staking-MasterChef.sol\":32738:32756  unStakeFees.length */\n      dup1\n      sload\n      swap1\n      pop\n        /* \"Ghosper-NFT-Staking-MasterChef.sol\":32729:32735  _index */\n      dup2\n        /* \"Ghosper-NFT-Staking-MasterChef.sol\":32729:32756  _index < unStakeFees.length */\n      lt\n        /* \"Ghosper-NFT-Staking-MasterChef.sol\":32721:32788  require(_index < unStakeFees.length, \"removeUnStakeFee: range out\") */\n      tag_364\n      jumpi\n      mload(0x40)\n      0x08c379a000000000000000000000000000000000000000000000000000000000\n      dup2\n      mstore\n      0x04\n      add\n      tag_365\n      swap1\n      tag_366\n      jump\t// in\n    tag_365:\n      mload(0x40)\n      dup1\n      swap2\n      sub\n      swap1\n      revert\n    tag_364:\n        /* \"Ghosper-NFT-Staking-MasterChef.sol\":32799:32815  uint256 _minDays */\n      0x00\n        /* \"Ghosper-NFT-Staking-MasterChef.sol\":32818:32829  unStakeFees */\n      0x01\n        /* \"Ghosper-NFT-Staking-MasterChef.sol\":32830:32836  _index */\n      dup3\n        /* \"Ghosper-NFT-Staking-MasterChef.sol\":32818:32837  unStakeFees[_index] */\n      dup2\n      sload\n      dup2\n      lt\n      tag_367\n      jumpi\n      tag_368\n      tag_123\n      jump\t// in\n    tag_368:\n    tag_367:\n      swap1\n      0x00\n      mstore\n      keccak256(0x00, 0x20)\n      swap1\n      0x02\n      mul\n      add\n        /* \"Ghosper-NFT-Staking-MasterChef.sol\":32818:32845  unStakeFees[_index].minDays */\n      0x00\n      add\n      sload\n        /* \"Ghosper-NFT-Staking-MasterChef.sol\":32799:32845  uint256 _minDays = unStakeFees[_index].minDays */\n      swap1\n      pop\n        /* \"Ghosper-NFT-Staking-MasterChef.sol\":32856:32875  uint256 _feePercent */\n      0x00\n        /* \"Ghosper-NFT-Staking-MasterChef.sol\":32878:32889  unStakeFees */\n      0x01\n        /* \"Ghosper-NFT-Staking-MasterChef.sol\":32890:32896  _index */\n      dup4\n        /* \"Ghosper-NFT-Staking-MasterChef.sol\":32878:32897  unStakeFees[_index] */\n      dup2\n      sload\n      dup2\n      lt\n      tag_370\n      jumpi\n      tag_371\n      tag_123\n      jump\t// in\n    tag_371:\n    tag_370:\n      swap1\n      0x00\n      mstore\n      keccak256(0x00, 0x20)\n      swap1\n      0x02\n      mul\n      add\n        /* \"Ghosper-NFT-Staking-MasterChef.sol\":32878:32908  unStakeFees[_index].feePercent */\n      0x01\n      add\n      sload\n        /* \"Ghosper-NFT-Staking-MasterChef.sol\":32856:32908  uint256 _feePercent = unStakeFees[_index].feePercent */\n      swap1\n      pop\n        /* \"Ghosper-NFT-Staking-MasterChef.sol\":32924:32933  uint256 i */\n      0x00\n        /* \"Ghosper-NFT-Staking-MasterChef.sol\":32936:32942  _index */\n      dup4\n        /* \"Ghosper-NFT-Staking-MasterChef.sol\":32924:32942  uint256 i = _index */\n      swap1\n      pop\n        /* \"Ghosper-NFT-Staking-MasterChef.sol\":32919:33037  for (uint256 i = _index; i < unStakeFees.length - 1; i++) {\r... */\n    tag_373:\n        /* \"Ghosper-NFT-Staking-MasterChef.sol\":32969:32970  1 */\n      0x01\n        /* \"Ghosper-NFT-Staking-MasterChef.sol\":32948:32959  unStakeFees */\n      dup1\n        /* \"Ghosper-NFT-Staking-MasterChef.sol\":32948:32966  unStakeFees.length */\n      dup1\n      sload\n      swap1\n      pop\n        /* \"Ghosper-NFT-Staking-MasterChef.sol\":32948:32970  unStakeFees.length - 1 */\n      tag_376\n      swap2\n      swap1\n      tag_202\n      jump\t// in\n    tag_376:\n        /* \"Ghosper-NFT-Staking-MasterChef.sol\":32944:32945  i */\n      dup2\n        /* \"Ghosper-NFT-Staking-MasterChef.sol\":32944:32970  i < unStakeFees.length - 1 */\n      lt\n        /* \"Ghosper-NFT-Staking-MasterChef.sol\":32919:33037  for (uint256 i = _index; i < unStakeFees.length - 1; i++) {\r... */\n      iszero\n      tag_374\n      jumpi\n        /* \"Ghosper-NFT-Staking-MasterChef.sol\":33009:33020  unStakeFees */\n      0x01\n        /* \"Ghosper-NFT-Staking-MasterChef.sol\":33023:33024  1 */\n      dup1\n        /* \"Ghosper-NFT-Staking-MasterChef.sol\":33021:33022  i */\n      dup3\n        /* \"Ghosper-NFT-Staking-MasterChef.sol\":33021:33024  i+1 */\n      tag_377\n      swap2\n      swap1\n      tag_131\n      jump\t// in\n    tag_377:\n        /* \"Ghosper-NFT-Staking-MasterChef.sol\":33009:33025  unStakeFees[i+1] */\n      dup2\n      sload\n      dup2\n      lt\n      tag_378\n      jumpi\n      tag_379\n      tag_123\n      jump\t// in\n    tag_379:\n    tag_378:\n      swap1\n      0x00\n      mstore\n      keccak256(0x00, 0x20)\n      swap1\n      0x02\n      mul\n      add\n        /* \"Ghosper-NFT-Staking-MasterChef.sol\":32992:33003  unStakeFees */\n      0x01\n        /* \"Ghosper-NFT-Staking-MasterChef.sol\":33004:33005  i */\n      dup3\n        /* \"Ghosper-NFT-Staking-MasterChef.sol\":32992:33006  unStakeFees[i] */\n      dup2\n      sload\n      dup2\n      lt\n      tag_381\n      jumpi\n      tag_382\n      tag_123\n      jump\t// in\n    tag_382:\n    tag_381:\n      swap1\n      0x00\n      mstore\n      keccak256(0x00, 0x20)\n      swap1\n      0x02\n      mul\n      add\n        /* \"Ghosper-NFT-Staking-MasterChef.sol\":32992:33025  unStakeFees[i] = unStakeFees[i+1] */\n      0x00\n      dup3\n      add\n      sload\n      dup2\n      0x00\n      add\n      sstore\n      0x01\n      dup3\n      add\n      sload\n      dup2\n      0x01\n      add\n      sstore\n      swap1\n      pop\n      pop\n        /* \"Ghosper-NFT-Staking-MasterChef.sol\":32972:32975  i++ */\n      dup1\n      dup1\n      tag_384\n      swap1\n      tag_140\n      jump\t// in\n    tag_384:\n      swap2\n      pop\n      pop\n        /* \"Ghosper-NFT-Staking-MasterChef.sol\":32919:33037  for (uint256 i = _index; i < unStakeFees.length - 1; i++) {\r... */\n      jump(tag_373)\n    tag_374:\n      pop\n        /* \"Ghosper-NFT-Staking-MasterChef.sol\":33047:33058  unStakeFees */\n      0x01\n        /* \"Ghosper-NFT-Staking-MasterChef.sol\":33047:33064  unStakeFees.pop() */\n      dup1\n      sload\n      dup1\n      tag_385\n      jumpi\n      tag_386\n      tag_387\n      jump\t// in\n    tag_386:\n    tag_385:\n      0x01\n      swap1\n      sub\n      dup2\n      dup2\n      swap1\n      0x00\n      mstore\n      keccak256(0x00, 0x20)\n      swap1\n      0x02\n      mul\n      add\n      0x00\n      dup1\n      dup3\n      add\n      0x00\n      swap1\n      sstore\n      0x01\n      dup3\n      add\n      0x00\n      swap1\n      sstore\n      pop\n      pop\n      swap1\n      sstore\n        /* \"Ghosper-NFT-Staking-MasterChef.sol\":33080:33127  RemoveUnStakeFee(_index, _minDays, _feePercent) */\n      0x61fd4e7e2422942f3df6e8c8c7744f23212ce0f0a23a80f0ace593ffdf6d96d0\n        /* \"Ghosper-NFT-Staking-MasterChef.sol\":33097:33103  _index */\n      dup4\n        /* \"Ghosper-NFT-Staking-MasterChef.sol\":33105:33113  _minDays */\n      dup4\n        /* \"Ghosper-NFT-Staking-MasterChef.sol\":33115:33126  _feePercent */\n      dup4\n        /* \"Ghosper-NFT-Staking-MasterChef.sol\":33080:33127  RemoveUnStakeFee(_index, _minDays, _feePercent) */\n      mload(0x40)\n      tag_389\n      swap4\n      swap3\n      swap2\n      swap1\n      tag_246\n      jump\t// in\n    tag_389:\n      mload(0x40)\n      dup1\n      swap2\n      sub\n      swap1\n      log1\n        /* \"Ghosper-NFT-Staking-MasterChef.sol\":32710:33135  {\r... */\n      pop\n      pop\n        /* \"Ghosper-NFT-Staking-MasterChef.sol\":32649:33135  function removeUnStakeFee(uint256 _index) external onlyOwner {\r... */\n      pop\n      jump\t// out\n        /* \"Ghosper-NFT-Staking-MasterChef.sol\":28454:28484  uint256 public lastRewardBlock */\n    tag_96:\n      sload(0x02)\n      dup2\n      jump\t// out\n        /* \"Ghosper-NFT-Staking-MasterChef.sol\":28595:28620  uint256 public harvestFee */\n    tag_99:\n      sload(0x06)\n      dup2\n      jump\t// out\n        /* \"Ghosper-NFT-Staking-MasterChef.sol\":28374:28407  IERC721 public immutable nftToken */\n    tag_102:\n      immutable(\"0x29f8d1998cd4186678d0085cd54072aeefd05bc476ef1844361510d857ac074b\")\n      dup2\n      jump\t// out\n        /* \"Ghosper-NFT-Staking-MasterChef.sol\":36411:37726  function unstake(uint256[] calldata tokenIds) external {\r... */\n    tag_107:\n        /* \"Ghosper-NFT-Staking-MasterChef.sol\":36503:36504  0 */\n      0x00\n        /* \"Ghosper-NFT-Staking-MasterChef.sol\":36485:36493  tokenIds */\n      dup3\n      dup3\n        /* \"Ghosper-NFT-Staking-MasterChef.sol\":36485:36500  tokenIds.length */\n      swap1\n      pop\n        /* \"Ghosper-NFT-Staking-MasterChef.sol\":36485:36504  tokenIds.length > 0 */\n      gt\n        /* \"Ghosper-NFT-Staking-MasterChef.sol\":36477:36533  require(tokenIds.length > 0, \"NFT Staking: Empty Array\") */\n      tag_391\n      jumpi\n      mload(0x40)\n      0x08c379a000000000000000000000000000000000000000000000000000000000\n      dup2\n      mstore\n      0x04\n      add\n      tag_392\n      swap1\n      tag_117\n      jump\t// in\n    tag_392:\n      mload(0x40)\n      dup1\n      swap2\n      sub\n      swap1\n      revert\n    tag_391:\n        /* \"Ghosper-NFT-Staking-MasterChef.sol\":36548:36557  uint256 i */\n      0x00\n        /* \"Ghosper-NFT-Staking-MasterChef.sol\":36544:36948  for(uint256 i = 0; i < tokenIds.length; i ++){\r... */\n    tag_393:\n        /* \"Ghosper-NFT-Staking-MasterChef.sol\":36567:36575  tokenIds */\n      dup3\n      dup3\n        /* \"Ghosper-NFT-Staking-MasterChef.sol\":36567:36582  tokenIds.length */\n      swap1\n      pop\n        /* \"Ghosper-NFT-Staking-MasterChef.sol\":36563:36564  i */\n      dup2\n        /* \"Ghosper-NFT-Staking-MasterChef.sol\":36563:36582  i < tokenIds.length */\n      lt\n        /* \"Ghosper-NFT-Staking-MasterChef.sol\":36544:36948  for(uint256 i = 0; i < tokenIds.length; i ++){\r... */\n      iszero\n      tag_394\n      jumpi\n        /* \"Ghosper-NFT-Staking-MasterChef.sol\":36604:36619  uint256 tokenId */\n      0x00\n        /* \"Ghosper-NFT-Staking-MasterChef.sol\":36622:36630  tokenIds */\n      dup4\n      dup4\n        /* \"Ghosper-NFT-Staking-MasterChef.sol\":36631:36632  i */\n      dup4\n        /* \"Ghosper-NFT-Staking-MasterChef.sol\":36622:36633  tokenIds[i] */\n      dup2\n      dup2\n      lt\n      tag_396\n      jumpi\n      tag_397\n      tag_123\n      jump\t// in\n    tag_397:\n    tag_396:\n      swap1\n      pop\n      0x20\n      mul\n      add\n      calldataload\n        /* \"Ghosper-NFT-Staking-MasterChef.sol\":36604:36633  uint256 tokenId = tokenIds[i] */\n      swap1\n      pop\n        /* \"Ghosper-NFT-Staking-MasterChef.sol\":36678:36688  msg.sender */\n      caller\n        /* \"Ghosper-NFT-Staking-MasterChef.sol\":36656:36688  allStakes[tokenId] == msg.sender */\n      0xffffffffffffffffffffffffffffffffffffffff\n      and\n        /* \"Ghosper-NFT-Staking-MasterChef.sol\":36656:36665  allStakes */\n      0x09\n        /* \"Ghosper-NFT-Staking-MasterChef.sol\":36656:36674  allStakes[tokenId] */\n      0x00\n        /* \"Ghosper-NFT-Staking-MasterChef.sol\":36666:36673  tokenId */\n      dup4\n        /* \"Ghosper-NFT-Staking-MasterChef.sol\":36656:36674  allStakes[tokenId] */\n      dup2\n      mstore\n      0x20\n      add\n      swap1\n      dup2\n      mstore\n      0x20\n      add\n      0x00\n      keccak256\n      0x00\n      swap1\n      sload\n      swap1\n      0x0100\n      exp\n      swap1\n      div\n      0xffffffffffffffffffffffffffffffffffffffff\n      and\n        /* \"Ghosper-NFT-Staking-MasterChef.sol\":36656:36688  allStakes[tokenId] == msg.sender */\n      0xffffffffffffffffffffffffffffffffffffffff\n      and\n      eq\n        /* \"Ghosper-NFT-Staking-MasterChef.sol\":36648:36750  require(allStakes[tokenId] == msg.sender, \"Nft Unstaking: token not staked or incorrect token owner.\") */\n      tag_398\n      jumpi\n      mload(0x40)\n      0x08c379a000000000000000000000000000000000000000000000000000000000\n      dup2\n      mstore\n      0x04\n      add\n      tag_399\n      swap1\n      tag_400\n      jump\t// in\n    tag_399:\n      mload(0x40)\n      dup1\n      swap2\n      sub\n      swap1\n      revert\n    tag_398:\n        /* \"Ghosper-NFT-Staking-MasterChef.sol\":36769:36778  uint256 j */\n      0x00\n        /* \"Ghosper-NFT-Staking-MasterChef.sol\":36785:36786  1 */\n      0x01\n        /* \"Ghosper-NFT-Staking-MasterChef.sol\":36781:36782  i */\n      dup4\n        /* \"Ghosper-NFT-Staking-MasterChef.sol\":36781:36786  i + 1 */\n      tag_404\n      swap2\n      swap1\n      tag_131\n      jump\t// in\n    tag_404:\n        /* \"Ghosper-NFT-Staking-MasterChef.sol\":36769:36786  uint256 j = i + 1 */\n      swap1\n      pop\n        /* \"Ghosper-NFT-Staking-MasterChef.sol\":36765:36937  for(uint256 j = i + 1; j < tokenIds.length; j ++){\r... */\n    tag_401:\n        /* \"Ghosper-NFT-Staking-MasterChef.sol\":36792:36800  tokenIds */\n      dup5\n      dup5\n        /* \"Ghosper-NFT-Staking-MasterChef.sol\":36792:36807  tokenIds.length */\n      swap1\n      pop\n        /* \"Ghosper-NFT-Staking-MasterChef.sol\":36788:36789  j */\n      dup2\n        /* \"Ghosper-NFT-Staking-MasterChef.sol\":36788:36807  j < tokenIds.length */\n      lt\n        /* \"Ghosper-NFT-Staking-MasterChef.sol\":36765:36937  for(uint256 j = i + 1; j < tokenIds.length; j ++){\r... */\n      iszero\n      tag_402\n      jumpi\n        /* \"Ghosper-NFT-Staking-MasterChef.sol\":36856:36864  tokenIds */\n      dup5\n      dup5\n        /* \"Ghosper-NFT-Staking-MasterChef.sol\":36865:36866  j */\n      dup3\n        /* \"Ghosper-NFT-Staking-MasterChef.sol\":36856:36867  tokenIds[j] */\n      dup2\n      dup2\n      lt\n      tag_405\n      jumpi\n      tag_406\n      tag_123\n      jump\t// in\n    tag_406:\n    tag_405:\n      swap1\n      pop\n      0x20\n      mul\n      add\n      calldataload\n        /* \"Ghosper-NFT-Staking-MasterChef.sol\":36841:36849  tokenIds */\n      dup6\n      dup6\n        /* \"Ghosper-NFT-Staking-MasterChef.sol\":36850:36851  i */\n      dup6\n        /* \"Ghosper-NFT-Staking-MasterChef.sol\":36841:36852  tokenIds[i] */\n      dup2\n      dup2\n      lt\n      tag_407\n      jumpi\n      tag_408\n      tag_123\n      jump\t// in\n    tag_408:\n    tag_407:\n      swap1\n      pop\n      0x20\n      mul\n      add\n      calldataload\n        /* \"Ghosper-NFT-Staking-MasterChef.sol\":36841:36867  tokenIds[i] != tokenIds[j] */\n      eq\n      iszero\n        /* \"Ghosper-NFT-Staking-MasterChef.sol\":36833:36921  require(tokenIds[i] != tokenIds[j], \"NFT Staking: duplicate token ids in input params.\") */\n      tag_409\n      jumpi\n      mload(0x40)\n      0x08c379a000000000000000000000000000000000000000000000000000000000\n      dup2\n      mstore\n      0x04\n      add\n      tag_410\n      swap1\n      tag_138\n      jump\t// in\n    tag_410:\n      mload(0x40)\n      dup1\n      swap2\n      sub\n      swap1\n      revert\n    tag_409:\n        /* \"Ghosper-NFT-Staking-MasterChef.sol\":36809:36813  j ++ */\n      dup1\n      dup1\n      tag_411\n      swap1\n      tag_140\n      jump\t// in\n    tag_411:\n      swap2\n      pop\n      pop\n        /* \"Ghosper-NFT-Staking-MasterChef.sol\":36765:36937  for(uint256 j = i + 1; j < tokenIds.length; j ++){\r... */\n      jump(tag_401)\n    tag_402:\n      pop\n        /* \"Ghosper-NFT-Staking-MasterChef.sol\":36589:36948  {\r... */\n      pop\n        /* \"Ghosper-NFT-Staking-MasterChef.sol\":36584:36588  i ++ */\n      dup1\n      dup1\n      tag_412\n      swap1\n      tag_140\n      jump\t// in\n    tag_412:\n      swap2\n      pop\n      pop\n        /* \"Ghosper-NFT-Staking-MasterChef.sol\":36544:36948  for(uint256 i = 0; i < tokenIds.length; i ++){\r... */\n      jump(tag_393)\n    tag_394:\n      pop\n        /* \"Ghosper-NFT-Staking-MasterChef.sol\":36960:36974  updateStatus() */\n      tag_413\n        /* \"Ghosper-NFT-Staking-MasterChef.sol\":36960:36972  updateStatus */\n      tag_143\n        /* \"Ghosper-NFT-Staking-MasterChef.sol\":36960:36974  updateStatus() */\n      jump\t// in\n    tag_413:\n        /* \"Ghosper-NFT-Staking-MasterChef.sol\":36985:37006  UserInfo storage user */\n      0x00\n        /* \"Ghosper-NFT-Staking-MasterChef.sol\":37009:37017  userInfo */\n      0x0b\n        /* \"Ghosper-NFT-Staking-MasterChef.sol\":37009:37029  userInfo[msg.sender] */\n      0x00\n        /* \"Ghosper-NFT-Staking-MasterChef.sol\":37018:37028  msg.sender */\n      caller\n        /* \"Ghosper-NFT-Staking-MasterChef.sol\":37009:37029  userInfo[msg.sender] */\n      0xffffffffffffffffffffffffffffffffffffffff\n      and\n      0xffffffffffffffffffffffffffffffffffffffff\n      and\n      dup2\n      mstore\n      0x20\n      add\n      swap1\n      dup2\n      mstore\n      0x20\n      add\n      0x00\n      keccak256\n        /* \"Ghosper-NFT-Staking-MasterChef.sol\":36985:37029  UserInfo storage user = userInfo[msg.sender] */\n      swap1\n      pop\n        /* \"Ghosper-NFT-Staking-MasterChef.sol\":37044:37053  uint256 i */\n      0x00\n        /* \"Ghosper-NFT-Staking-MasterChef.sol\":37040:37673  for(uint256 i = 0; i < tokenIds.length; i ++){\r... */\n    tag_414:\n        /* \"Ghosper-NFT-Staking-MasterChef.sol\":37063:37071  tokenIds */\n      dup4\n      dup4\n        /* \"Ghosper-NFT-Staking-MasterChef.sol\":37063:37078  tokenIds.length */\n      swap1\n      pop\n        /* \"Ghosper-NFT-Staking-MasterChef.sol\":37059:37060  i */\n      dup2\n        /* \"Ghosper-NFT-Staking-MasterChef.sol\":37059:37078  i < tokenIds.length */\n      lt\n        /* \"Ghosper-NFT-Staking-MasterChef.sol\":37040:37673  for(uint256 i = 0; i < tokenIds.length; i ++){\r... */\n      iszero\n      tag_415\n      jumpi\n        /* \"Ghosper-NFT-Staking-MasterChef.sol\":37100:37115  uint256 tokenId */\n      0x00\n        /* \"Ghosper-NFT-Staking-MasterChef.sol\":37118:37126  tokenIds */\n      dup5\n      dup5\n        /* \"Ghosper-NFT-Staking-MasterChef.sol\":37127:37128  i */\n      dup4\n        /* \"Ghosper-NFT-Staking-MasterChef.sol\":37118:37129  tokenIds[i] */\n      dup2\n      dup2\n      lt\n      tag_417\n      jumpi\n      tag_418\n      tag_123\n      jump\t// in\n    tag_418:\n    tag_417:\n      swap1\n      pop\n      0x20\n      mul\n      add\n      calldataload\n        /* \"Ghosper-NFT-Staking-MasterChef.sol\":37100:37129  uint256 tokenId = tokenIds[i] */\n      swap1\n      pop\n        /* \"Ghosper-NFT-Staking-MasterChef.sol\":37173:37174  0 */\n      0x00\n        /* \"Ghosper-NFT-Staking-MasterChef.sol\":37144:37153  allStakes */\n      0x09\n        /* \"Ghosper-NFT-Staking-MasterChef.sol\":37144:37162  allStakes[tokenId] */\n      0x00\n        /* \"Ghosper-NFT-Staking-MasterChef.sol\":37154:37161  tokenId */\n      dup4\n        /* \"Ghosper-NFT-Staking-MasterChef.sol\":37144:37162  allStakes[tokenId] */\n      dup2\n      mstore\n      0x20\n      add\n      swap1\n      dup2\n      mstore\n      0x20\n      add\n      0x00\n      keccak256\n      0x00\n        /* \"Ghosper-NFT-Staking-MasterChef.sol\":37144:37175  allStakes[tokenId] = address(0) */\n      0x0100\n      exp\n      dup2\n      sload\n      dup2\n      0xffffffffffffffffffffffffffffffffffffffff\n      mul\n      not\n      and\n      swap1\n      dup4\n      0xffffffffffffffffffffffffffffffffffffffff\n      and\n      mul\n      or\n      swap1\n      sstore\n      pop\n        /* \"Ghosper-NFT-Staking-MasterChef.sol\":37190:37205  uint256 pending */\n      0x00\n        /* \"Ghosper-NFT-Staking-MasterChef.sol\":37208:37271  user.amount.mul(accGHSPPerShare).div(1e12).sub(user.rewardDebt) */\n      tag_419\n        /* \"Ghosper-NFT-Staking-MasterChef.sol\":37255:37259  user */\n      dup5\n        /* \"Ghosper-NFT-Staking-MasterChef.sol\":37255:37270  user.rewardDebt */\n      0x01\n      add\n      sload\n        /* \"Ghosper-NFT-Staking-MasterChef.sol\":37208:37250  user.amount.mul(accGHSPPerShare).div(1e12) */\n      tag_420\n        /* \"Ghosper-NFT-Staking-MasterChef.sol\":37245:37249  1e12 */\n      0xe8d4a51000\n        /* \"Ghosper-NFT-Staking-MasterChef.sol\":37208:37240  user.amount.mul(accGHSPPerShare) */\n      tag_421\n        /* \"Ghosper-NFT-Staking-MasterChef.sol\":37224:37239  accGHSPPerShare */\n      sload(0x03)\n        /* \"Ghosper-NFT-Staking-MasterChef.sol\":37208:37212  user */\n      dup10\n        /* \"Ghosper-NFT-Staking-MasterChef.sol\":37208:37219  user.amount */\n      0x00\n      add\n      sload\n        /* \"Ghosper-NFT-Staking-MasterChef.sol\":37208:37223  user.amount.mul */\n      tag_148\n      swap1\n        /* \"Ghosper-NFT-Staking-MasterChef.sol\":37208:37240  user.amount.mul(accGHSPPerShare) */\n      swap2\n      swap1\n      0xffffffff\n      and\n      jump\t// in\n    tag_421:\n        /* \"Ghosper-NFT-Staking-MasterChef.sol\":37208:37244  user.amount.mul(accGHSPPerShare).div */\n      tag_149\n      swap1\n        /* \"Ghosper-NFT-Staking-MasterChef.sol\":37208:37250  user.amount.mul(accGHSPPerShare).div(1e12) */\n      swap2\n      swap1\n      0xffffffff\n      and\n      jump\t// in\n    tag_420:\n        /* \"Ghosper-NFT-Staking-MasterChef.sol\":37208:37254  user.amount.mul(accGHSPPerShare).div(1e12).sub */\n      tag_150\n      swap1\n        /* \"Ghosper-NFT-Staking-MasterChef.sol\":37208:37271  user.amount.mul(accGHSPPerShare).div(1e12).sub(user.rewardDebt) */\n      swap2\n      swap1\n      0xffffffff\n      and\n      jump\t// in\n    tag_419:\n        /* \"Ghosper-NFT-Staking-MasterChef.sol\":37190:37271  uint256 pending = user.amount.mul(accGHSPPerShare).div(1e12).sub(user.rewardDebt) */\n      swap1\n      pop\n        /* \"Ghosper-NFT-Staking-MasterChef.sol\":37327:37334  pending */\n      dup1\n        /* \"Ghosper-NFT-Staking-MasterChef.sol\":37290:37299  ghspToken */\n      immutable(\"0x2b788c69c84726cb61a0641c648d01bc1bc6568bcab92e0e8975f165cd12fe81\")\n        /* \"Ghosper-NFT-Staking-MasterChef.sol\":37290:37309  ghspToken.balanceOf */\n      0xffffffffffffffffffffffffffffffffffffffff\n      and\n      0x70a08231\n        /* \"Ghosper-NFT-Staking-MasterChef.sol\":37318:37322  this */\n      address\n        /* \"Ghosper-NFT-Staking-MasterChef.sol\":37290:37324  ghspToken.balanceOf(address(this)) */\n      mload(0x40)\n      dup3\n      0xffffffff\n      and\n      0xe0\n      shl\n      dup2\n      mstore\n      0x04\n      add\n      tag_422\n      swap2\n      swap1\n      tag_84\n      jump\t// in\n    tag_422:\n      0x20\n      mload(0x40)\n      dup1\n      dup4\n      sub\n      dup2\n      dup7\n      dup1\n      extcodesize\n      iszero\n      dup1\n      iszero\n      tag_423\n      jumpi\n      0x00\n      dup1\n      revert\n    tag_423:\n      pop\n      gas\n      staticcall\n      iszero\n      dup1\n      iszero\n      tag_425\n      jumpi\n      returndatasize\n      0x00\n      dup1\n      returndatacopy\n      revert(0x00, returndatasize)\n    tag_425:\n      pop\n      pop\n      pop\n      pop\n      mload(0x40)\n      returndatasize\n      not(0x1f)\n      0x1f\n      dup3\n      add\n      and\n      dup3\n      add\n      dup1\n      0x40\n      mstore\n      pop\n      dup2\n      add\n      swap1\n      tag_426\n      swap2\n      swap1\n      tag_298\n      jump\t// in\n    tag_426:\n        /* \"Ghosper-NFT-Staking-MasterChef.sol\":37290:37334  ghspToken.balanceOf(address(this)) < pending */\n      lt\n        /* \"Ghosper-NFT-Staking-MasterChef.sol\":37286:37415  if (ghspToken.balanceOf(address(this)) < pending) {\r... */\n      iszero\n      tag_427\n      jumpi\n        /* \"Ghosper-NFT-Staking-MasterChef.sol\":37365:37374  ghspToken */\n      immutable(\"0x2b788c69c84726cb61a0641c648d01bc1bc6568bcab92e0e8975f165cd12fe81\")\n        /* \"Ghosper-NFT-Staking-MasterChef.sol\":37365:37384  ghspToken.balanceOf */\n      0xffffffffffffffffffffffffffffffffffffffff\n      and\n      0x70a08231\n        /* \"Ghosper-NFT-Staking-MasterChef.sol\":37393:37397  this */\n      address\n        /* \"Ghosper-NFT-Staking-MasterChef.sol\":37365:37399  ghspToken.balanceOf(address(this)) */\n      mload(0x40)\n      dup3\n      0xffffffff\n      and\n      0xe0\n      shl\n      dup2\n      mstore\n      0x04\n      add\n      tag_428\n      swap2\n      swap1\n      tag_84\n      jump\t// in\n    tag_428:\n      0x20\n      mload(0x40)\n      dup1\n      dup4\n      sub\n      dup2\n      dup7\n      dup1\n      extcodesize\n      iszero\n      dup1\n      iszero\n      tag_429\n      jumpi\n      0x00\n      dup1\n      revert\n    tag_429:\n      pop\n      gas\n      staticcall\n      iszero\n      dup1\n      iszero\n      tag_431\n      jumpi\n      returndatasize\n      0x00\n      dup1\n      returndatacopy\n      revert(0x00, returndatasize)\n    tag_431:\n      pop\n      pop\n      pop\n      pop\n      mload(0x40)\n      returndatasize\n      not(0x1f)\n      0x1f\n      dup3\n      add\n      and\n      dup3\n      add\n      dup1\n      0x40\n      mstore\n      pop\n      dup2\n      add\n      swap1\n      tag_432\n      swap2\n      swap1\n      tag_298\n      jump\t// in\n    tag_432:\n        /* \"Ghosper-NFT-Staking-MasterChef.sol\":37355:37399  pending = ghspToken.balanceOf(address(this)) */\n      swap1\n      pop\n        /* \"Ghosper-NFT-Staking-MasterChef.sol\":37286:37415  if (ghspToken.balanceOf(address(this)) < pending) {\r... */\n    tag_427:\n        /* \"Ghosper-NFT-Staking-MasterChef.sol\":37450:37481  user.pendingAmount.add(pending) */\n      tag_433\n        /* \"Ghosper-NFT-Staking-MasterChef.sol\":37473:37480  pending */\n      dup2\n        /* \"Ghosper-NFT-Staking-MasterChef.sol\":37450:37454  user */\n      dup6\n        /* \"Ghosper-NFT-Staking-MasterChef.sol\":37450:37468  user.pendingAmount */\n      0x02\n      add\n      sload\n        /* \"Ghosper-NFT-Staking-MasterChef.sol\":37450:37472  user.pendingAmount.add */\n      tag_152\n      swap1\n        /* \"Ghosper-NFT-Staking-MasterChef.sol\":37450:37481  user.pendingAmount.add(pending) */\n      swap2\n      swap1\n      0xffffffff\n      and\n      jump\t// in\n    tag_433:\n        /* \"Ghosper-NFT-Staking-MasterChef.sol\":37429:37433  user */\n      dup5\n        /* \"Ghosper-NFT-Staking-MasterChef.sol\":37429:37447  user.pendingAmount */\n      0x02\n      add\n        /* \"Ghosper-NFT-Staking-MasterChef.sol\":37429:37481  user.pendingAmount = user.pendingAmount.add(pending) */\n      dup2\n      swap1\n      sstore\n      pop\n        /* \"Ghosper-NFT-Staking-MasterChef.sol\":37496:37514  user.amount.sub(1) */\n      tag_434\n        /* \"Ghosper-NFT-Staking-MasterChef.sol\":37512:37513  1 */\n      0x01\n        /* \"Ghosper-NFT-Staking-MasterChef.sol\":37496:37500  user */\n      dup6\n        /* \"Ghosper-NFT-Staking-MasterChef.sol\":37496:37507  user.amount */\n      0x00\n      add\n      sload\n        /* \"Ghosper-NFT-Staking-MasterChef.sol\":37496:37511  user.amount.sub */\n      tag_150\n      swap1\n        /* \"Ghosper-NFT-Staking-MasterChef.sol\":37496:37514  user.amount.sub(1) */\n      swap2\n      swap1\n      0xffffffff\n      and\n      jump\t// in\n    tag_434:\n      pop\n        /* \"Ghosper-NFT-Staking-MasterChef.sol\":37547:37589  user.amount.mul(accGHSPPerShare).div(1e12) */\n      tag_435\n        /* \"Ghosper-NFT-Staking-MasterChef.sol\":37584:37588  1e12 */\n      0xe8d4a51000\n        /* \"Ghosper-NFT-Staking-MasterChef.sol\":37547:37579  user.amount.mul(accGHSPPerShare) */\n      tag_436\n        /* \"Ghosper-NFT-Staking-MasterChef.sol\":37563:37578  accGHSPPerShare */\n      sload(0x03)\n        /* \"Ghosper-NFT-Staking-MasterChef.sol\":37547:37551  user */\n      dup8\n        /* \"Ghosper-NFT-Staking-MasterChef.sol\":37547:37558  user.amount */\n      0x00\n      add\n      sload\n        /* \"Ghosper-NFT-Staking-MasterChef.sol\":37547:37562  user.amount.mul */\n      tag_148\n      swap1\n        /* \"Ghosper-NFT-Staking-MasterChef.sol\":37547:37579  user.amount.mul(accGHSPPerShare) */\n      swap2\n      swap1\n      0xffffffff\n      and\n      jump\t// in\n    tag_436:\n        /* \"Ghosper-NFT-Staking-MasterChef.sol\":37547:37583  user.amount.mul(accGHSPPerShare).div */\n      tag_149\n      swap1\n        /* \"Ghosper-NFT-Staking-MasterChef.sol\":37547:37589  user.amount.mul(accGHSPPerShare).div(1e12) */\n      swap2\n      swap1\n      0xffffffff\n      and\n      jump\t// in\n    tag_435:\n        /* \"Ghosper-NFT-Staking-MasterChef.sol\":37529:37533  user */\n      dup5\n        /* \"Ghosper-NFT-Staking-MasterChef.sol\":37529:37544  user.rewardDebt */\n      0x01\n      add\n        /* \"Ghosper-NFT-Staking-MasterChef.sol\":37529:37589  user.rewardDebt = user.amount.mul(accGHSPPerShare).div(1e12) */\n      dup2\n      swap1\n      sstore\n      pop\n        /* \"Ghosper-NFT-Staking-MasterChef.sol\":37604:37612  nftToken */\n      immutable(\"0x29f8d1998cd4186678d0085cd54072aeefd05bc476ef1844361510d857ac074b\")\n        /* \"Ghosper-NFT-Staking-MasterChef.sol\":37604:37625  nftToken.transferFrom */\n      0xffffffffffffffffffffffffffffffffffffffff\n      and\n      0x23b872dd\n        /* \"Ghosper-NFT-Staking-MasterChef.sol\":37634:37638  this */\n      address\n        /* \"Ghosper-NFT-Staking-MasterChef.sol\":37641:37651  msg.sender */\n      caller\n        /* \"Ghosper-NFT-Staking-MasterChef.sol\":37653:37660  tokenId */\n      dup6\n        /* \"Ghosper-NFT-Staking-MasterChef.sol\":37604:37661  nftToken.transferFrom(address(this), msg.sender, tokenId) */\n      mload(0x40)\n      dup5\n      0xffffffff\n      and\n      0xe0\n      shl\n      dup2\n      mstore\n      0x04\n      add\n      tag_437\n      swap4\n      swap3\n      swap2\n      swap1\n      tag_163\n      jump\t// in\n    tag_437:\n      0x00\n      mload(0x40)\n      dup1\n      dup4\n      sub\n      dup2\n      0x00\n      dup8\n      dup1\n      extcodesize\n      iszero\n      dup1\n      iszero\n      tag_438\n      jumpi\n      0x00\n      dup1\n      revert\n    tag_438:\n      pop\n      gas\n      call\n      iszero\n      dup1\n      iszero\n      tag_440\n      jumpi\n      returndatasize\n      0x00\n      dup1\n      returndatacopy\n      revert(0x00, returndatasize)\n    tag_440:\n      pop\n      pop\n      pop\n      pop\n        /* \"Ghosper-NFT-Staking-MasterChef.sol\":37085:37673  {\r... */\n      pop\n      pop\n        /* \"Ghosper-NFT-Staking-MasterChef.sol\":37080:37084  i ++ */\n      dup1\n      dup1\n      tag_441\n      swap1\n      tag_140\n      jump\t// in\n    tag_441:\n      swap2\n      pop\n      pop\n        /* \"Ghosper-NFT-Staking-MasterChef.sol\":37040:37673  for(uint256 i = 0; i < tokenIds.length; i ++){\r... */\n      jump(tag_414)\n    tag_415:\n      pop\n        /* \"Ghosper-NFT-Staking-MasterChef.sol\":37688:37718  UnStaked(msg.sender, tokenIds) */\n      0x80cc10bf7e52583ae0a17d8dd6ab5005573b17a08091a091af1a81205a675c91\n        /* \"Ghosper-NFT-Staking-MasterChef.sol\":37697:37707  msg.sender */\n      caller\n        /* \"Ghosper-NFT-Staking-MasterChef.sol\":37709:37717  tokenIds */\n      dup5\n      dup5\n        /* \"Ghosper-NFT-Staking-MasterChef.sol\":37688:37718  UnStaked(msg.sender, tokenIds) */\n      mload(0x40)\n      tag_442\n      swap4\n      swap3\n      swap2\n      swap1\n      tag_169\n      jump\t// in\n    tag_442:\n      mload(0x40)\n      dup1\n      swap2\n      sub\n      swap1\n      log1\n        /* \"Ghosper-NFT-Staking-MasterChef.sol\":36466:37726  {\r... */\n      pop\n        /* \"Ghosper-NFT-Staking-MasterChef.sol\":36411:37726  function unstake(uint256[] calldata tokenIds) external {\r... */\n      pop\n      pop\n      jump\t// out\n        /* \"Ghosper-NFT-Staking-MasterChef.sol\":28564:28588  address public feeWallet */\n    tag_109:\n      0x05\n      0x00\n      swap1\n      sload\n      swap1\n      0x0100\n      exp\n      swap1\n      div\n      0xffffffffffffffffffffffffffffffffffffffff\n      and\n      dup2\n      jump\t// out\n        /* \"Ghosper-NFT-Staking-MasterChef.sol\":5820:6021  function transferOwnership(address newOwner) public virtual onlyOwner {\r... */\n    tag_113:\n        /* \"Ghosper-NFT-Staking-MasterChef.sol\":5142:5154  _msgSender() */\n      tag_444\n        /* \"Ghosper-NFT-Staking-MasterChef.sol\":5142:5152  _msgSender */\n      tag_172\n        /* \"Ghosper-NFT-Staking-MasterChef.sol\":5142:5154  _msgSender() */\n      jump\t// in\n    tag_444:\n        /* \"Ghosper-NFT-Staking-MasterChef.sol\":5131:5154  owner() == _msgSender() */\n      0xffffffffffffffffffffffffffffffffffffffff\n      and\n        /* \"Ghosper-NFT-Staking-MasterChef.sol\":5131:5138  owner() */\n      tag_445\n        /* \"Ghosper-NFT-Staking-MasterChef.sol\":5131:5136  owner */\n      tag_82\n        /* \"Ghosper-NFT-Staking-MasterChef.sol\":5131:5138  owner() */\n      jump\t// in\n    tag_445:\n        /* \"Ghosper-NFT-Staking-MasterChef.sol\":5131:5154  owner() == _msgSender() */\n      0xffffffffffffffffffffffffffffffffffffffff\n      and\n      eq\n        /* \"Ghosper-NFT-Staking-MasterChef.sol\":5123:5191  require(owner() == _msgSender(), \"Ownable: caller is not the owner\") */\n      tag_446\n      jumpi\n      mload(0x40)\n      0x08c379a000000000000000000000000000000000000000000000000000000000\n      dup2\n      mstore\n      0x04\n      add\n      tag_447\n      swap1\n      tag_176\n      jump\t// in\n    tag_447:\n      mload(0x40)\n      dup1\n      swap2\n      sub\n      swap1\n      revert\n    tag_446:\n        /* \"Ghosper-NFT-Staking-MasterChef.sol\":5929:5930  0 */\n      0x00\n        /* \"Ghosper-NFT-Staking-MasterChef.sol\":5909:5931  newOwner != address(0) */\n      0xffffffffffffffffffffffffffffffffffffffff\n      and\n        /* \"Ghosper-NFT-Staking-MasterChef.sol\":5909:5917  newOwner */\n      dup2\n        /* \"Ghosper-NFT-Staking-MasterChef.sol\":5909:5931  newOwner != address(0) */\n      0xffffffffffffffffffffffffffffffffffffffff\n      and\n      eq\n      iszero\n        /* \"Ghosper-NFT-Staking-MasterChef.sol\":5901:5974  require(newOwner != address(0), \"Ownable: new owner is the zero address\") */\n      tag_449\n      jumpi\n      mload(0x40)\n      0x08c379a000000000000000000000000000000000000000000000000000000000\n      dup2\n      mstore\n      0x04\n      add\n      tag_450\n      swap1\n      tag_451\n      jump\t// in\n    tag_450:\n      mload(0x40)\n      dup1\n      swap2\n      sub\n      swap1\n      revert\n    tag_449:\n        /* \"Ghosper-NFT-Staking-MasterChef.sol\":5985:6013  _transferOwnership(newOwner) */\n      tag_452\n        /* \"Ghosper-NFT-Staking-MasterChef.sol\":6004:6012  newOwner */\n      dup2\n        /* \"Ghosper-NFT-Staking-MasterChef.sol\":5985:6003  _transferOwnership */\n      tag_338\n        /* \"Ghosper-NFT-Staking-MasterChef.sol\":5985:6013  _transferOwnership(newOwner) */\n      jump\t// in\n    tag_452:\n        /* \"Ghosper-NFT-Staking-MasterChef.sol\":5820:6021  function transferOwnership(address newOwner) public virtual onlyOwner {\r... */\n      pop\n      jump\t// out\n        /* \"Ghosper-NFT-Staking-MasterChef.sol\":34165:35043  function updateStatus() private {\r... */\n    tag_143:\n        /* \"Ghosper-NFT-Staking-MasterChef.sol\":34228:34243  lastRewardBlock */\n      sload(0x02)\n        /* \"Ghosper-NFT-Staking-MasterChef.sol\":34212:34224  block.number */\n      number\n        /* \"Ghosper-NFT-Staking-MasterChef.sol\":34212:34243  block.number <= lastRewardBlock */\n      gt\n        /* \"Ghosper-NFT-Staking-MasterChef.sol\":34208:34278  if (block.number <= lastRewardBlock) {\r... */\n      tag_454\n      jumpi\n        /* \"Ghosper-NFT-Staking-MasterChef.sol\":34260:34267  return; */\n      jump(tag_453)\n        /* \"Ghosper-NFT-Staking-MasterChef.sol\":34208:34278  if (block.number <= lastRewardBlock) {\r... */\n    tag_454:\n        /* \"Ghosper-NFT-Staking-MasterChef.sol\":34313:34314  0 */\n      0x00\n        /* \"Ghosper-NFT-Staking-MasterChef.sol\":34292:34309  totalStakedAmount */\n      sload(0x07)\n        /* \"Ghosper-NFT-Staking-MasterChef.sol\":34292:34314  totalStakedAmount == 0 */\n      eq\n        /* \"Ghosper-NFT-Staking-MasterChef.sol\":34288:34394  if (totalStakedAmount == 0) {\r... */\n      iszero\n      tag_455\n      jumpi\n        /* \"Ghosper-NFT-Staking-MasterChef.sol\":34349:34361  block.number */\n      number\n        /* \"Ghosper-NFT-Staking-MasterChef.sol\":34331:34346  lastRewardBlock */\n      0x02\n        /* \"Ghosper-NFT-Staking-MasterChef.sol\":34331:34361  lastRewardBlock = block.number */\n      dup2\n      swap1\n      sstore\n      pop\n        /* \"Ghosper-NFT-Staking-MasterChef.sol\":34376:34383  return; */\n      jump(tag_453)\n        /* \"Ghosper-NFT-Staking-MasterChef.sol\":34288:34394  if (totalStakedAmount == 0) {\r... */\n    tag_455:\n        /* \"Ghosper-NFT-Staking-MasterChef.sol\":34404:34422  uint256 multiplier */\n      0x00\n        /* \"Ghosper-NFT-Staking-MasterChef.sol\":34425:34469  getMultiplier(lastRewardBlock, block.number) */\n      tag_456\n        /* \"Ghosper-NFT-Staking-MasterChef.sol\":34439:34454  lastRewardBlock */\n      sload(0x02)\n        /* \"Ghosper-NFT-Staking-MasterChef.sol\":34456:34468  block.number */\n      number\n        /* \"Ghosper-NFT-Staking-MasterChef.sol\":34425:34438  getMultiplier */\n      tag_87\n        /* \"Ghosper-NFT-Staking-MasterChef.sol\":34425:34469  getMultiplier(lastRewardBlock, block.number) */\n      jump\t// in\n    tag_456:\n        /* \"Ghosper-NFT-Staking-MasterChef.sol\":34404:34469  uint256 multiplier = getMultiplier(lastRewardBlock, block.number) */\n      swap1\n      pop\n        /* \"Ghosper-NFT-Staking-MasterChef.sol\":34480:34494  uint256 reward */\n      0x00\n        /* \"Ghosper-NFT-Staking-MasterChef.sol\":34497:34527  multiplier.mul(rewardPerBlock) */\n      tag_457\n        /* \"Ghosper-NFT-Staking-MasterChef.sol\":34512:34526  rewardPerBlock */\n      sload(0x04)\n        /* \"Ghosper-NFT-Staking-MasterChef.sol\":34497:34507  multiplier */\n      dup4\n        /* \"Ghosper-NFT-Staking-MasterChef.sol\":34497:34511  multiplier.mul */\n      tag_148\n      swap1\n        /* \"Ghosper-NFT-Staking-MasterChef.sol\":34497:34527  multiplier.mul(rewardPerBlock) */\n      swap2\n      swap1\n      0xffffffff\n      and\n      jump\t// in\n    tag_457:\n        /* \"Ghosper-NFT-Staking-MasterChef.sol\":34480:34527  uint256 reward = multiplier.mul(rewardPerBlock) */\n      swap1\n      pop\n        /* \"Ghosper-NFT-Staking-MasterChef.sol\":34560:34561  0 */\n      0x00\n        /* \"Ghosper-NFT-Staking-MasterChef.sol\":34542:34556  _rewardBalance */\n      sload(0x08)\n        /* \"Ghosper-NFT-Staking-MasterChef.sol\":34542:34561  _rewardBalance == 0 */\n      eq\n        /* \"Ghosper-NFT-Staking-MasterChef.sol\":34538:34641  if (_rewardBalance == 0) {\r... */\n      iszero\n      tag_458\n      jumpi\n        /* \"Ghosper-NFT-Staking-MasterChef.sol\":34596:34608  block.number */\n      number\n        /* \"Ghosper-NFT-Staking-MasterChef.sol\":34578:34593  lastRewardBlock */\n      0x02\n        /* \"Ghosper-NFT-Staking-MasterChef.sol\":34578:34608  lastRewardBlock = block.number */\n      dup2\n      swap1\n      sstore\n      pop\n        /* \"Ghosper-NFT-Staking-MasterChef.sol\":34623:34630  return; */\n      pop\n      pop\n      jump(tag_453)\n        /* \"Ghosper-NFT-Staking-MasterChef.sol\":34538:34641  if (_rewardBalance == 0) {\r... */\n    tag_458:\n        /* \"Ghosper-NFT-Staking-MasterChef.sol\":34672:34678  reward */\n      dup1\n        /* \"Ghosper-NFT-Staking-MasterChef.sol\":34655:34669  _rewardBalance */\n      sload(0x08)\n        /* \"Ghosper-NFT-Staking-MasterChef.sol\":34655:34678  _rewardBalance < reward */\n      lt\n        /* \"Ghosper-NFT-Staking-MasterChef.sol\":34651:34995  if (_rewardBalance < reward) {\r... */\n      iszero\n      tag_459\n      jumpi\n        /* \"Ghosper-NFT-Staking-MasterChef.sol\":34713:34781  accGHSPPerShare.add(_rewardBalance.mul(1e12).div(totalStakedAmount)) */\n      tag_460\n        /* \"Ghosper-NFT-Staking-MasterChef.sol\":34733:34780  _rewardBalance.mul(1e12).div(totalStakedAmount) */\n      tag_461\n        /* \"Ghosper-NFT-Staking-MasterChef.sol\":34762:34779  totalStakedAmount */\n      sload(0x07)\n        /* \"Ghosper-NFT-Staking-MasterChef.sol\":34733:34757  _rewardBalance.mul(1e12) */\n      tag_462\n        /* \"Ghosper-NFT-Staking-MasterChef.sol\":34752:34756  1e12 */\n      0xe8d4a51000\n        /* \"Ghosper-NFT-Staking-MasterChef.sol\":34733:34747  _rewardBalance */\n      sload(0x08)\n        /* \"Ghosper-NFT-Staking-MasterChef.sol\":34733:34751  _rewardBalance.mul */\n      tag_148\n      swap1\n        /* \"Ghosper-NFT-Staking-MasterChef.sol\":34733:34757  _rewardBalance.mul(1e12) */\n      swap2\n      swap1\n      0xffffffff\n      and\n      jump\t// in\n    tag_462:\n        /* \"Ghosper-NFT-Staking-MasterChef.sol\":34733:34761  _rewardBalance.mul(1e12).div */\n      tag_149\n      swap1\n        /* \"Ghosper-NFT-Staking-MasterChef.sol\":34733:34780  _rewardBalance.mul(1e12).div(totalStakedAmount) */\n      swap2\n      swap1\n      0xffffffff\n      and\n      jump\t// in\n    tag_461:\n        /* \"Ghosper-NFT-Staking-MasterChef.sol\":34713:34728  accGHSPPerShare */\n      sload(0x03)\n        /* \"Ghosper-NFT-Staking-MasterChef.sol\":34713:34732  accGHSPPerShare.add */\n      tag_152\n      swap1\n        /* \"Ghosper-NFT-Staking-MasterChef.sol\":34713:34781  accGHSPPerShare.add(_rewardBalance.mul(1e12).div(totalStakedAmount)) */\n      swap2\n      swap1\n      0xffffffff\n      and\n      jump\t// in\n    tag_460:\n        /* \"Ghosper-NFT-Staking-MasterChef.sol\":34695:34710  accGHSPPerShare */\n      0x03\n        /* \"Ghosper-NFT-Staking-MasterChef.sol\":34695:34781  accGHSPPerShare = accGHSPPerShare.add(_rewardBalance.mul(1e12).div(totalStakedAmount)) */\n      dup2\n      swap1\n      sstore\n      pop\n        /* \"Ghosper-NFT-Staking-MasterChef.sol\":34813:34814  0 */\n      0x00\n        /* \"Ghosper-NFT-Staking-MasterChef.sol\":34796:34810  _rewardBalance */\n      0x08\n        /* \"Ghosper-NFT-Staking-MasterChef.sol\":34796:34814  _rewardBalance = 0 */\n      dup2\n      swap1\n      sstore\n      pop\n        /* \"Ghosper-NFT-Staking-MasterChef.sol\":34651:34995  if (_rewardBalance < reward) {\r... */\n      jump(tag_463)\n    tag_459:\n        /* \"Ghosper-NFT-Staking-MasterChef.sol\":34864:34890  _rewardBalance.sub(reward) */\n      tag_464\n        /* \"Ghosper-NFT-Staking-MasterChef.sol\":34883:34889  reward */\n      dup2\n        /* \"Ghosper-NFT-Staking-MasterChef.sol\":34864:34878  _rewardBalance */\n      sload(0x08)\n        /* \"Ghosper-NFT-Staking-MasterChef.sol\":34864:34882  _rewardBalance.sub */\n      tag_150\n      swap1\n        /* \"Ghosper-NFT-Staking-MasterChef.sol\":34864:34890  _rewardBalance.sub(reward) */\n      swap2\n      swap1\n      0xffffffff\n      and\n      jump\t// in\n    tag_464:\n        /* \"Ghosper-NFT-Staking-MasterChef.sol\":34847:34861  _rewardBalance */\n      0x08\n        /* \"Ghosper-NFT-Staking-MasterChef.sol\":34847:34890  _rewardBalance = _rewardBalance.sub(reward) */\n      dup2\n      swap1\n      sstore\n      pop\n        /* \"Ghosper-NFT-Staking-MasterChef.sol\":34923:34983  accGHSPPerShare.add(reward.mul(1e12).div(totalStakedAmount)) */\n      tag_465\n        /* \"Ghosper-NFT-Staking-MasterChef.sol\":34943:34982  reward.mul(1e12).div(totalStakedAmount) */\n      tag_466\n        /* \"Ghosper-NFT-Staking-MasterChef.sol\":34964:34981  totalStakedAmount */\n      sload(0x07)\n        /* \"Ghosper-NFT-Staking-MasterChef.sol\":34943:34959  reward.mul(1e12) */\n      tag_467\n        /* \"Ghosper-NFT-Staking-MasterChef.sol\":34954:34958  1e12 */\n      0xe8d4a51000\n        /* \"Ghosper-NFT-Staking-MasterChef.sol\":34943:34949  reward */\n      dup6\n        /* \"Ghosper-NFT-Staking-MasterChef.sol\":34943:34953  reward.mul */\n      tag_148\n      swap1\n        /* \"Ghosper-NFT-Staking-MasterChef.sol\":34943:34959  reward.mul(1e12) */\n      swap2\n      swap1\n      0xffffffff\n      and\n      jump\t// in\n    tag_467:\n        /* \"Ghosper-NFT-Staking-MasterChef.sol\":34943:34963  reward.mul(1e12).div */\n      tag_149\n      swap1\n        /* \"Ghosper-NFT-Staking-MasterChef.sol\":34943:34982  reward.mul(1e12).div(totalStakedAmount) */\n      swap2\n      swap1\n      0xffffffff\n      and\n      jump\t// in\n    tag_466:\n        /* \"Ghosper-NFT-Staking-MasterChef.sol\":34923:34938  accGHSPPerShare */\n      sload(0x03)\n        /* \"Ghosper-NFT-Staking-MasterChef.sol\":34923:34942  accGHSPPerShare.add */\n      tag_152\n      swap1\n        /* \"Ghosper-NFT-Staking-MasterChef.sol\":34923:34983  accGHSPPerShare.add(reward.mul(1e12).div(totalStakedAmount)) */\n      swap2\n      swap1\n      0xffffffff\n      and\n      jump\t// in\n    tag_465:\n        /* \"Ghosper-NFT-Staking-MasterChef.sol\":34905:34920  accGHSPPerShare */\n      0x03\n        /* \"Ghosper-NFT-Staking-MasterChef.sol\":34905:34983  accGHSPPerShare = accGHSPPerShare.add(reward.mul(1e12).div(totalStakedAmount)) */\n      dup2\n      swap1\n      sstore\n      pop\n        /* \"Ghosper-NFT-Staking-MasterChef.sol\":34651:34995  if (_rewardBalance < reward) {\r... */\n    tag_463:\n        /* \"Ghosper-NFT-Staking-MasterChef.sol\":35023:35035  block.number */\n      number\n        /* \"Ghosper-NFT-Staking-MasterChef.sol\":35005:35020  lastRewardBlock */\n      0x02\n        /* \"Ghosper-NFT-Staking-MasterChef.sol\":35005:35035  lastRewardBlock = block.number */\n      dup2\n      swap1\n      sstore\n      pop\n        /* \"Ghosper-NFT-Staking-MasterChef.sol\":34197:35043  {\r... */\n      pop\n      pop\n        /* \"Ghosper-NFT-Staking-MasterChef.sol\":34165:35043  function updateStatus() private {\r... */\n    tag_453:\n      jump\t// out\n        /* \"Ghosper-NFT-Staking-MasterChef.sol\":9698:9796  function mul(uint256 a, uint256 b) internal pure returns (uint256) {\r... */\n    tag_148:\n        /* \"Ghosper-NFT-Staking-MasterChef.sol\":9756:9763  uint256 */\n      0x00\n        /* \"Ghosper-NFT-Staking-MasterChef.sol\":9787:9788  b */\n      dup2\n        /* \"Ghosper-NFT-Staking-MasterChef.sol\":9783:9784  a */\n      dup4\n        /* \"Ghosper-NFT-Staking-MasterChef.sol\":9783:9788  a * b */\n      tag_469\n      swap2\n      swap1\n      tag_470\n      jump\t// in\n    tag_469:\n        /* \"Ghosper-NFT-Staking-MasterChef.sol\":9776:9788  return a * b */\n      swap1\n      pop\n        /* \"Ghosper-NFT-Staking-MasterChef.sol\":9698:9796  function mul(uint256 a, uint256 b) internal pure returns (uint256) {\r... */\n      swap3\n      swap2\n      pop\n      pop\n      jump\t// out\n        /* \"Ghosper-NFT-Staking-MasterChef.sol\":10097:10195  function div(uint256 a, uint256 b) internal pure returns (uint256) {\r... */\n    tag_149:\n        /* \"Ghosper-NFT-Staking-MasterChef.sol\":10155:10162  uint256 */\n      0x00\n        /* \"Ghosper-NFT-Staking-MasterChef.sol\":10186:10187  b */\n      dup2\n        /* \"Ghosper-NFT-Staking-MasterChef.sol\":10182:10183  a */\n      dup4\n        /* \"Ghosper-NFT-Staking-MasterChef.sol\":10182:10187  a / b */\n      tag_472\n      swap2\n      swap1\n      tag_473\n      jump\t// in\n    tag_472:\n        /* \"Ghosper-NFT-Staking-MasterChef.sol\":10175:10187  return a / b */\n      swap1\n      pop\n        /* \"Ghosper-NFT-Staking-MasterChef.sol\":10097:10195  function div(uint256 a, uint256 b) internal pure returns (uint256) {\r... */\n      swap3\n      swap2\n      pop\n      pop\n      jump\t// out\n        /* \"Ghosper-NFT-Staking-MasterChef.sol\":9341:9439  function sub(uint256 a, uint256 b) internal pure returns (uint256) {\r... */\n    tag_150:\n        /* \"Ghosper-NFT-Staking-MasterChef.sol\":9399:9406  uint256 */\n      0x00\n        /* \"Ghosper-NFT-Staking-MasterChef.sol\":9430:9431  b */\n      dup2\n        /* \"Ghosper-NFT-Staking-MasterChef.sol\":9426:9427  a */\n      dup4\n        /* \"Ghosper-NFT-Staking-MasterChef.sol\":9426:9431  a - b */\n      tag_475\n      swap2\n      swap1\n      tag_202\n      jump\t// in\n    tag_475:\n        /* \"Ghosper-NFT-Staking-MasterChef.sol\":9419:9431  return a - b */\n      swap1\n      pop\n        /* \"Ghosper-NFT-Staking-MasterChef.sol\":9341:9439  function sub(uint256 a, uint256 b) internal pure returns (uint256) {\r... */\n      swap3\n      swap2\n      pop\n      pop\n      jump\t// out\n        /* \"Ghosper-NFT-Staking-MasterChef.sol\":8960:9058  function add(uint256 a, uint256 b) internal pure returns (uint256) {\r... */\n    tag_152:\n        /* \"Ghosper-NFT-Staking-MasterChef.sol\":9018:9025  uint256 */\n      0x00\n        /* \"Ghosper-NFT-Staking-MasterChef.sol\":9049:9050  b */\n      dup2\n        /* \"Ghosper-NFT-Staking-MasterChef.sol\":9045:9046  a */\n      dup4\n        /* \"Ghosper-NFT-Staking-MasterChef.sol\":9045:9050  a + b */\n      tag_477\n      swap2\n      swap1\n      tag_131\n      jump\t// in\n    tag_477:\n        /* \"Ghosper-NFT-Staking-MasterChef.sol\":9038:9050  return a + b */\n      swap1\n      pop\n        /* \"Ghosper-NFT-Staking-MasterChef.sol\":8960:9058  function add(uint256 a, uint256 b) internal pure returns (uint256) {\r... */\n      swap3\n      swap2\n      pop\n      pop\n      jump\t// out\n        /* \"Ghosper-NFT-Staking-MasterChef.sol\":3751:3849  function _msgSender() internal view virtual returns (address) {\r... */\n    tag_172:\n        /* \"Ghosper-NFT-Staking-MasterChef.sol\":3804:3811  address */\n      0x00\n        /* \"Ghosper-NFT-Staking-MasterChef.sol\":3831:3841  msg.sender */\n      caller\n        /* \"Ghosper-NFT-Staking-MasterChef.sol\":3824:3841  return msg.sender */\n      swap1\n      pop\n        /* \"Ghosper-NFT-Staking-MasterChef.sol\":3751:3849  function _msgSender() internal view virtual returns (address) {\r... */\n      swap1\n      jump\t// out\n        /* \"Ghosper-NFT-Staking-MasterChef.sol\":13429:13634  function safeTransferFrom(IBEP20 token, address from, address to, uint256 value) internal {\r... */\n    tag_256:\n        /* \"Ghosper-NFT-Staking-MasterChef.sol\":13530:13626  _callOptionalReturn(token, abi.encodeWithSelector(token.transferFrom.selector, from, to, value)) */\n      tag_480\n        /* \"Ghosper-NFT-Staking-MasterChef.sol\":13550:13555  token */\n      dup5\n        /* \"Ghosper-NFT-Staking-MasterChef.sol\":13580:13607  token.transferFrom.selector */\n      shl(0xe0, 0x23b872dd)\n        /* \"Ghosper-NFT-Staking-MasterChef.sol\":13609:13613  from */\n      dup6\n        /* \"Ghosper-NFT-Staking-MasterChef.sol\":13615:13617  to */\n      dup6\n        /* \"Ghosper-NFT-Staking-MasterChef.sol\":13619:13624  value */\n      dup6\n        /* \"Ghosper-NFT-Staking-MasterChef.sol\":13557:13625  abi.encodeWithSelector(token.transferFrom.selector, from, to, value) */\n      add(0x24, mload(0x40))\n      tag_481\n      swap4\n      swap3\n      swap2\n      swap1\n      tag_163\n      jump\t// in\n    tag_481:\n      mload(0x40)\n      0x20\n      dup2\n      dup4\n      sub\n      sub\n      dup2\n      mstore\n      swap1\n      0x40\n      mstore\n      swap1\n      not(0xffffffffffffffffffffffffffffffffffffffffffffffffffffffff)\n      and\n      0x20\n      dup3\n      add\n      dup1\n      mload\n      0xffffffffffffffffffffffffffffffffffffffffffffffffffffffff\n      dup4\n      dup2\n      dup4\n      and\n      or\n      dup4\n      mstore\n      pop\n      pop\n      pop\n      pop\n        /* \"Ghosper-NFT-Staking-MasterChef.sol\":13530:13549  _callOptionalReturn */\n      tag_482\n        /* \"Ghosper-NFT-Staking-MasterChef.sol\":13530:13626  _callOptionalReturn(token, abi.encodeWithSelector(token.transferFrom.selector, from, to, value)) */\n      jump\t// in\n    tag_480:\n        /* \"Ghosper-NFT-Staking-MasterChef.sol\":13429:13634  function safeTransferFrom(IBEP20 token, address from, address to, uint256 value) internal {\r... */\n      pop\n      pop\n      pop\n      pop\n      jump\t// out\n        /* \"Ghosper-NFT-Staking-MasterChef.sol\":37734:38287  function _getPending(address _user) private view returns (uint256) {\r... */\n    tag_289:\n        /* \"Ghosper-NFT-Staking-MasterChef.sol\":37792:37799  uint256 */\n      0x00\n        /* \"Ghosper-NFT-Staking-MasterChef.sol\":37812:37833  UserInfo storage user */\n      dup1\n        /* \"Ghosper-NFT-Staking-MasterChef.sol\":37836:37844  userInfo */\n      0x0b\n        /* \"Ghosper-NFT-Staking-MasterChef.sol\":37836:37851  userInfo[_user] */\n      0x00\n        /* \"Ghosper-NFT-Staking-MasterChef.sol\":37845:37850  _user */\n      dup5\n        /* \"Ghosper-NFT-Staking-MasterChef.sol\":37836:37851  userInfo[_user] */\n      0xffffffffffffffffffffffffffffffffffffffff\n      and\n      0xffffffffffffffffffffffffffffffffffffffff\n      and\n      dup2\n      mstore\n      0x20\n      add\n      swap1\n      dup2\n      mstore\n      0x20\n      add\n      0x00\n      keccak256\n        /* \"Ghosper-NFT-Staking-MasterChef.sol\":37812:37851  UserInfo storage user = userInfo[_user] */\n      swap1\n      pop\n        /* \"Ghosper-NFT-Staking-MasterChef.sol\":37862:37873  uint256 acc */\n      0x00\n        /* \"Ghosper-NFT-Staking-MasterChef.sol\":37876:37891  accGHSPPerShare */\n      sload(0x03)\n        /* \"Ghosper-NFT-Staking-MasterChef.sol\":37862:37891  uint256 acc = accGHSPPerShare */\n      swap1\n      pop\n        /* \"Ghosper-NFT-Staking-MasterChef.sol\":37921:37936  lastRewardBlock */\n      sload(0x02)\n        /* \"Ghosper-NFT-Staking-MasterChef.sol\":37906:37918  block.number */\n      number\n        /* \"Ghosper-NFT-Staking-MasterChef.sol\":37906:37936  block.number > lastRewardBlock */\n      gt\n        /* \"Ghosper-NFT-Staking-MasterChef.sol\":37906:37962  block.number > lastRewardBlock && totalStakedAmount != 0 */\n      dup1\n      iszero\n      tag_484\n      jumpi\n      pop\n        /* \"Ghosper-NFT-Staking-MasterChef.sol\":37961:37962  0 */\n      0x00\n        /* \"Ghosper-NFT-Staking-MasterChef.sol\":37940:37957  totalStakedAmount */\n      sload(0x07)\n        /* \"Ghosper-NFT-Staking-MasterChef.sol\":37940:37962  totalStakedAmount != 0 */\n      eq\n      iszero\n        /* \"Ghosper-NFT-Staking-MasterChef.sol\":37906:37962  block.number > lastRewardBlock && totalStakedAmount != 0 */\n    tag_484:\n        /* \"Ghosper-NFT-Staking-MasterChef.sol\":37902:38187  if (block.number > lastRewardBlock && totalStakedAmount != 0) {\r... */\n      iszero\n      tag_485\n      jumpi\n        /* \"Ghosper-NFT-Staking-MasterChef.sol\":37979:37997  uint256 multiplier */\n      0x00\n        /* \"Ghosper-NFT-Staking-MasterChef.sol\":38000:38044  getMultiplier(lastRewardBlock, block.number) */\n      tag_486\n        /* \"Ghosper-NFT-Staking-MasterChef.sol\":38014:38029  lastRewardBlock */\n      sload(0x02)\n        /* \"Ghosper-NFT-Staking-MasterChef.sol\":38031:38043  block.number */\n      number\n        /* \"Ghosper-NFT-Staking-MasterChef.sol\":38000:38013  getMultiplier */\n      tag_87\n        /* \"Ghosper-NFT-Staking-MasterChef.sol\":38000:38044  getMultiplier(lastRewardBlock, block.number) */\n      jump\t// in\n    tag_486:\n        /* \"Ghosper-NFT-Staking-MasterChef.sol\":37979:38044  uint256 multiplier = getMultiplier(lastRewardBlock, block.number) */\n      swap1\n      pop\n        /* \"Ghosper-NFT-Staking-MasterChef.sol\":38059:38073  uint256 reward */\n      0x00\n        /* \"Ghosper-NFT-Staking-MasterChef.sol\":38076:38106  multiplier.mul(rewardPerBlock) */\n      tag_487\n        /* \"Ghosper-NFT-Staking-MasterChef.sol\":38091:38105  rewardPerBlock */\n      sload(0x04)\n        /* \"Ghosper-NFT-Staking-MasterChef.sol\":38076:38086  multiplier */\n      dup4\n        /* \"Ghosper-NFT-Staking-MasterChef.sol\":38076:38090  multiplier.mul */\n      tag_148\n      swap1\n        /* \"Ghosper-NFT-Staking-MasterChef.sol\":38076:38106  multiplier.mul(rewardPerBlock) */\n      swap2\n      swap1\n      0xffffffff\n      and\n      jump\t// in\n    tag_487:\n        /* \"Ghosper-NFT-Staking-MasterChef.sol\":38059:38106  uint256 reward = multiplier.mul(rewardPerBlock) */\n      swap1\n      pop\n        /* \"Ghosper-NFT-Staking-MasterChef.sol\":38127:38175  acc.add(reward.mul(1e12).div(totalStakedAmount)) */\n      tag_488\n        /* \"Ghosper-NFT-Staking-MasterChef.sol\":38135:38174  reward.mul(1e12).div(totalStakedAmount) */\n      tag_489\n        /* \"Ghosper-NFT-Staking-MasterChef.sol\":38156:38173  totalStakedAmount */\n      sload(0x07)\n        /* \"Ghosper-NFT-Staking-MasterChef.sol\":38135:38151  reward.mul(1e12) */\n      tag_490\n        /* \"Ghosper-NFT-Staking-MasterChef.sol\":38146:38150  1e12 */\n      0xe8d4a51000\n        /* \"Ghosper-NFT-Staking-MasterChef.sol\":38135:38141  reward */\n      dup6\n        /* \"Ghosper-NFT-Staking-MasterChef.sol\":38135:38145  reward.mul */\n      tag_148\n      swap1\n        /* \"Ghosper-NFT-Staking-MasterChef.sol\":38135:38151  reward.mul(1e12) */\n      swap2\n      swap1\n      0xffffffff\n      and\n      jump\t// in\n    tag_490:\n        /* \"Ghosper-NFT-Staking-MasterChef.sol\":38135:38155  reward.mul(1e12).div */\n      tag_149\n      swap1\n        /* \"Ghosper-NFT-Staking-MasterChef.sol\":38135:38174  reward.mul(1e12).div(totalStakedAmount) */\n      swap2\n      swap1\n      0xffffffff\n      and\n      jump\t// in\n    tag_489:\n        /* \"Ghosper-NFT-Staking-MasterChef.sol\":38127:38130  acc */\n      dup5\n        /* \"Ghosper-NFT-Staking-MasterChef.sol\":38127:38134  acc.add */\n      tag_152\n      swap1\n        /* \"Ghosper-NFT-Staking-MasterChef.sol\":38127:38175  acc.add(reward.mul(1e12).div(totalStakedAmount)) */\n      swap2\n      swap1\n      0xffffffff\n      and\n      jump\t// in\n    tag_488:\n        /* \"Ghosper-NFT-Staking-MasterChef.sol\":38121:38175  acc = acc.add(reward.mul(1e12).div(totalStakedAmount)) */\n      swap3\n      pop\n        /* \"Ghosper-NFT-Staking-MasterChef.sol\":37964:38187  {\r... */\n      pop\n      pop\n        /* \"Ghosper-NFT-Staking-MasterChef.sol\":37902:38187  if (block.number > lastRewardBlock && totalStakedAmount != 0) {\r... */\n    tag_485:\n        /* \"Ghosper-NFT-Staking-MasterChef.sol\":38204:38279  user.amount.mul(acc).div(1e12).sub(user.rewardDebt).add(user.pendingAmount) */\n      tag_491\n        /* \"Ghosper-NFT-Staking-MasterChef.sol\":38260:38264  user */\n      dup3\n        /* \"Ghosper-NFT-Staking-MasterChef.sol\":38260:38278  user.pendingAmount */\n      0x02\n      add\n      sload\n        /* \"Ghosper-NFT-Staking-MasterChef.sol\":38204:38255  user.amount.mul(acc).div(1e12).sub(user.rewardDebt) */\n      tag_492\n        /* \"Ghosper-NFT-Staking-MasterChef.sol\":38239:38243  user */\n      dup5\n        /* \"Ghosper-NFT-Staking-MasterChef.sol\":38239:38254  user.rewardDebt */\n      0x01\n      add\n      sload\n        /* \"Ghosper-NFT-Staking-MasterChef.sol\":38204:38234  user.amount.mul(acc).div(1e12) */\n      tag_493\n        /* \"Ghosper-NFT-Staking-MasterChef.sol\":38229:38233  1e12 */\n      0xe8d4a51000\n        /* \"Ghosper-NFT-Staking-MasterChef.sol\":38204:38224  user.amount.mul(acc) */\n      tag_494\n        /* \"Ghosper-NFT-Staking-MasterChef.sol\":38220:38223  acc */\n      dup8\n        /* \"Ghosper-NFT-Staking-MasterChef.sol\":38204:38208  user */\n      dup10\n        /* \"Ghosper-NFT-Staking-MasterChef.sol\":38204:38215  user.amount */\n      0x00\n      add\n      sload\n        /* \"Ghosper-NFT-Staking-MasterChef.sol\":38204:38219  user.amount.mul */\n      tag_148\n      swap1\n        /* \"Ghosper-NFT-Staking-MasterChef.sol\":38204:38224  user.amount.mul(acc) */\n      swap2\n      swap1\n      0xffffffff\n      and\n      jump\t// in\n    tag_494:\n        /* \"Ghosper-NFT-Staking-MasterChef.sol\":38204:38228  user.amount.mul(acc).div */\n      tag_149\n      swap1\n        /* \"Ghosper-NFT-Staking-MasterChef.sol\":38204:38234  user.amount.mul(acc).div(1e12) */\n      swap2\n      swap1\n      0xffffffff\n      and\n      jump\t// in\n    tag_493:\n        /* \"Ghosper-NFT-Staking-MasterChef.sol\":38204:38238  user.amount.mul(acc).div(1e12).sub */\n      tag_150\n      swap1\n        /* \"Ghosper-NFT-Staking-MasterChef.sol\":38204:38255  user.amount.mul(acc).div(1e12).sub(user.rewardDebt) */\n      swap2\n      swap1\n      0xffffffff\n      and\n      jump\t// in\n    tag_492:\n        /* \"Ghosper-NFT-Staking-MasterChef.sol\":38204:38259  user.amount.mul(acc).div(1e12).sub(user.rewardDebt).add */\n      tag_152\n      swap1\n        /* \"Ghosper-NFT-Staking-MasterChef.sol\":38204:38279  user.amount.mul(acc).div(1e12).sub(user.rewardDebt).add(user.pendingAmount) */\n      swap2\n      swap1\n      0xffffffff\n      and\n      jump\t// in\n    tag_491:\n        /* \"Ghosper-NFT-Staking-MasterChef.sol\":38197:38279  return user.amount.mul(acc).div(1e12).sub(user.rewardDebt).add(user.pendingAmount) */\n      swap3\n      pop\n      pop\n      pop\n        /* \"Ghosper-NFT-Staking-MasterChef.sol\":37734:38287  function _getPending(address _user) private view returns (uint256) {\r... */\n      swap2\n      swap1\n      pop\n      jump\t// out\n        /* \"Ghosper-NFT-Staking-MasterChef.sol\":13244:13421  function safeTransfer(IBEP20 token, address to, uint256 value) internal {\r... */\n    tag_306:\n        /* \"Ghosper-NFT-Staking-MasterChef.sol\":13327:13413  _callOptionalReturn(token, abi.encodeWithSelector(token.transfer.selector, to, value)) */\n      tag_496\n        /* \"Ghosper-NFT-Staking-MasterChef.sol\":13347:13352  token */\n      dup4\n        /* \"Ghosper-NFT-Staking-MasterChef.sol\":13377:13400  token.transfer.selector */\n      shl(0xe0, 0xa9059cbb)\n        /* \"Ghosper-NFT-Staking-MasterChef.sol\":13402:13404  to */\n      dup5\n        /* \"Ghosper-NFT-Staking-MasterChef.sol\":13406:13411  value */\n      dup5\n        /* \"Ghosper-NFT-Staking-MasterChef.sol\":13354:13412  abi.encodeWithSelector(token.transfer.selector, to, value) */\n      add(0x24, mload(0x40))\n      tag_497\n      swap3\n      swap2\n      swap1\n      tag_498\n      jump\t// in\n    tag_497:\n      mload(0x40)\n      0x20\n      dup2\n      dup4\n      sub\n      sub\n      dup2\n      mstore\n      swap1\n      0x40\n      mstore\n      swap1\n      not(0xffffffffffffffffffffffffffffffffffffffffffffffffffffffff)\n      and\n      0x20\n      dup3\n      add\n      dup1\n      mload\n      0xffffffffffffffffffffffffffffffffffffffffffffffffffffffff\n      dup4\n      dup2\n      dup4\n      and\n      or\n      dup4\n      mstore\n      pop\n      pop\n      pop\n      pop\n        /* \"Ghosper-NFT-Staking-MasterChef.sol\":13327:13346  _callOptionalReturn */\n      tag_482\n        /* \"Ghosper-NFT-Staking-MasterChef.sol\":13327:13413  _callOptionalReturn(token, abi.encodeWithSelector(token.transfer.selector, to, value)) */\n      jump\t// in\n    tag_496:\n        /* \"Ghosper-NFT-Staking-MasterChef.sol\":13244:13421  function safeTransfer(IBEP20 token, address to, uint256 value) internal {\r... */\n      pop\n      pop\n      pop\n      jump\t// out\n        /* \"Ghosper-NFT-Staking-MasterChef.sol\":6181:6372  function _transferOwnership(address newOwner) internal virtual {\r... */\n    tag_338:\n        /* \"Ghosper-NFT-Staking-MasterChef.sol\":6255:6271  address oldOwner */\n      0x00\n        /* \"Ghosper-NFT-Staking-MasterChef.sol\":6274:6280  _owner */\n      dup1\n      0x00\n      swap1\n      sload\n      swap1\n      0x0100\n      exp\n      swap1\n      div\n      0xffffffffffffffffffffffffffffffffffffffff\n      and\n        /* \"Ghosper-NFT-Staking-MasterChef.sol\":6255:6280  address oldOwner = _owner */\n      swap1\n      pop\n        /* \"Ghosper-NFT-Staking-MasterChef.sol\":6300:6308  newOwner */\n      dup2\n        /* \"Ghosper-NFT-Staking-MasterChef.sol\":6291:6297  _owner */\n      0x00\n      dup1\n        /* \"Ghosper-NFT-Staking-MasterChef.sol\":6291:6308  _owner = newOwner */\n      0x0100\n      exp\n      dup2\n      sload\n      dup2\n      0xffffffffffffffffffffffffffffffffffffffff\n      mul\n      not\n      and\n      swap1\n      dup4\n      0xffffffffffffffffffffffffffffffffffffffff\n      and\n      mul\n      or\n      swap1\n      sstore\n      pop\n        /* \"Ghosper-NFT-Staking-MasterChef.sol\":6355:6363  newOwner */\n      dup2\n        /* \"Ghosper-NFT-Staking-MasterChef.sol\":6324:6364  OwnershipTransferred(oldOwner, newOwner) */\n      0xffffffffffffffffffffffffffffffffffffffff\n      and\n        /* \"Ghosper-NFT-Staking-MasterChef.sol\":6345:6353  oldOwner */\n      dup2\n        /* \"Ghosper-NFT-Staking-MasterChef.sol\":6324:6364  OwnershipTransferred(oldOwner, newOwner) */\n      0xffffffffffffffffffffffffffffffffffffffff\n      and\n      0x8be0079c531659141344cd1fd0a4f28419497f9722a3daafe3b4186f6b6457e0\n      mload(0x40)\n      mload(0x40)\n      dup1\n      swap2\n      sub\n      swap1\n      log3\n        /* \"Ghosper-NFT-Staking-MasterChef.sol\":6244:6372  {\r... */\n      pop\n        /* \"Ghosper-NFT-Staking-MasterChef.sol\":6181:6372  function _transferOwnership(address newOwner) internal virtual {\r... */\n      pop\n      jump\t// out\n        /* \"Ghosper-NFT-Staking-MasterChef.sol\":15549:16310  function _callOptionalReturn(IBEP20 token, bytes memory data) private {\r... */\n    tag_482:\n        /* \"Ghosper-NFT-Staking-MasterChef.sol\":15973:15996  bytes memory returndata */\n      0x00\n        /* \"Ghosper-NFT-Staking-MasterChef.sol\":15999:16068  address(token).functionCall(data, \"SafeBEP20: low-level call failed\") */\n      tag_501\n        /* \"Ghosper-NFT-Staking-MasterChef.sol\":16027:16031  data */\n      dup3\n        /* \"Ghosper-NFT-Staking-MasterChef.sol\":15999:16068  address(token).functionCall(data, \"SafeBEP20: low-level call failed\") */\n      mload(0x40)\n      dup1\n      0x40\n      add\n      0x40\n      mstore\n      dup1\n      0x20\n      dup2\n      mstore\n      0x20\n      add\n      0x5361666542455032303a206c6f772d6c6576656c2063616c6c206661696c6564\n      dup2\n      mstore\n      pop\n        /* \"Ghosper-NFT-Staking-MasterChef.sol\":16007:16012  token */\n      dup6\n        /* \"Ghosper-NFT-Staking-MasterChef.sol\":15999:16026  address(token).functionCall */\n      0xffffffffffffffffffffffffffffffffffffffff\n      and\n      tag_502\n      swap1\n        /* \"Ghosper-NFT-Staking-MasterChef.sol\":15999:16068  address(token).functionCall(data, \"SafeBEP20: low-level call failed\") */\n      swap3\n      swap2\n      swap1\n      0xffffffff\n      and\n      jump\t// in\n    tag_501:\n        /* \"Ghosper-NFT-Staking-MasterChef.sol\":15973:16068  bytes memory returndata = address(token).functionCall(data, \"SafeBEP20: low-level call failed\") */\n      swap1\n      pop\n        /* \"Ghosper-NFT-Staking-MasterChef.sol\":16103:16104  0 */\n      0x00\n        /* \"Ghosper-NFT-Staking-MasterChef.sol\":16083:16093  returndata */\n      dup2\n        /* \"Ghosper-NFT-Staking-MasterChef.sol\":16083:16100  returndata.length */\n      mload\n        /* \"Ghosper-NFT-Staking-MasterChef.sol\":16083:16104  returndata.length > 0 */\n      gt\n        /* \"Ghosper-NFT-Staking-MasterChef.sol\":16079:16303  if (returndata.length > 0) { // Return data is optional\r... */\n      iszero\n      tag_503\n      jumpi\n        /* \"Ghosper-NFT-Staking-MasterChef.sol\":16225:16235  returndata */\n      dup1\n        /* \"Ghosper-NFT-Staking-MasterChef.sol\":16214:16244  abi.decode(returndata, (bool)) */\n      dup1\n      0x20\n      add\n      swap1\n      mload\n      dup2\n      add\n      swap1\n      tag_504\n      swap2\n      swap1\n      tag_505\n      jump\t// in\n    tag_504:\n        /* \"Ghosper-NFT-Staking-MasterChef.sol\":16206:16291  require(abi.decode(returndata, (bool)), \"SafeBEP20: BEP20 operation did not succeed\") */\n      tag_506\n      jumpi\n      mload(0x40)\n      0x08c379a000000000000000000000000000000000000000000000000000000000\n      dup2\n      mstore\n      0x04\n      add\n      tag_507\n      swap1\n      tag_508\n      jump\t// in\n    tag_507:\n      mload(0x40)\n      dup1\n      swap2\n      sub\n      swap1\n      revert\n    tag_506:\n        /* \"Ghosper-NFT-Staking-MasterChef.sol\":16079:16303  if (returndata.length > 0) { // Return data is optional\r... */\n    tag_503:\n        /* \"Ghosper-NFT-Staking-MasterChef.sol\":15619:16310  {\r... */\n      pop\n        /* \"Ghosper-NFT-Staking-MasterChef.sol\":15549:16310  function _callOptionalReturn(IBEP20 token, bytes memory data) private {\r... */\n      pop\n      pop\n      jump\t// out\n        /* \"Ghosper-NFT-Staking-MasterChef.sol\":20069:20265  function functionCall(address target, bytes memory data, string memory errorMessage) internal returns (bytes memory) {\r... */\n    tag_502:\n        /* \"Ghosper-NFT-Staking-MasterChef.sol\":20172:20184  bytes memory */\n      0x60\n        /* \"Ghosper-NFT-Staking-MasterChef.sol\":20204:20257  _functionCallWithValue(target, data, 0, errorMessage) */\n      tag_510\n        /* \"Ghosper-NFT-Staking-MasterChef.sol\":20227:20233  target */\n      dup5\n        /* \"Ghosper-NFT-Staking-MasterChef.sol\":20235:20239  data */\n      dup5\n        /* \"Ghosper-NFT-Staking-MasterChef.sol\":20241:20242  0 */\n      0x00\n        /* \"Ghosper-NFT-Staking-MasterChef.sol\":20244:20256  errorMessage */\n      dup6\n        /* \"Ghosper-NFT-Staking-MasterChef.sol\":20204:20226  _functionCallWithValue */\n      tag_511\n        /* \"Ghosper-NFT-Staking-MasterChef.sol\":20204:20257  _functionCallWithValue(target, data, 0, errorMessage) */\n      jump\t// in\n    tag_510:\n        /* \"Ghosper-NFT-Staking-MasterChef.sol\":20197:20257  return _functionCallWithValue(target, data, 0, errorMessage) */\n      swap1\n      pop\n        /* \"Ghosper-NFT-Staking-MasterChef.sol\":20069:20265  function functionCall(address target, bytes memory data, string memory errorMessage) internal returns (bytes memory) {\r... */\n      swap4\n      swap3\n      pop\n      pop\n      pop\n      jump\t// out\n        /* \"Ghosper-NFT-Staking-MasterChef.sol\":21446:22425  function _functionCallWithValue(address target, bytes memory data, uint256 weiValue, string memory errorMessage) private returns (bytes memory) {\r... */\n    tag_511:\n        /* \"Ghosper-NFT-Staking-MasterChef.sol\":21576:21588  bytes memory */\n      0x60\n        /* \"Ghosper-NFT-Staking-MasterChef.sol\":21609:21627  isContract(target) */\n      tag_513\n        /* \"Ghosper-NFT-Staking-MasterChef.sol\":21620:21626  target */\n      dup6\n        /* \"Ghosper-NFT-Staking-MasterChef.sol\":21609:21619  isContract */\n      tag_514\n        /* \"Ghosper-NFT-Staking-MasterChef.sol\":21609:21627  isContract(target) */\n      jump\t// in\n    tag_513:\n        /* \"Ghosper-NFT-Staking-MasterChef.sol\":21601:21661  require(isContract(target), \"Address: call to non-contract\") */\n      tag_515\n      jumpi\n      mload(0x40)\n      0x08c379a000000000000000000000000000000000000000000000000000000000\n      dup2\n      mstore\n      0x04\n      add\n      tag_516\n      swap1\n      tag_517\n      jump\t// in\n    tag_516:\n      mload(0x40)\n      dup1\n      swap2\n      sub\n      swap1\n      revert\n    tag_515:\n        /* \"Ghosper-NFT-Staking-MasterChef.sol\":21735:21747  bool success */\n      0x00\n        /* \"Ghosper-NFT-Staking-MasterChef.sol\":21749:21772  bytes memory returndata */\n      dup1\n        /* \"Ghosper-NFT-Staking-MasterChef.sol\":21776:21782  target */\n      dup7\n        /* \"Ghosper-NFT-Staking-MasterChef.sol\":21776:21787  target.call */\n      0xffffffffffffffffffffffffffffffffffffffff\n      and\n        /* \"Ghosper-NFT-Staking-MasterChef.sol\":21796:21804  weiValue */\n      dup6\n        /* \"Ghosper-NFT-Staking-MasterChef.sol\":21807:21811  data */\n      dup8\n        /* \"Ghosper-NFT-Staking-MasterChef.sol\":21776:21812  target.call{ value: weiValue }(data) */\n      mload(0x40)\n      tag_518\n      swap2\n      swap1\n      tag_519\n      jump\t// in\n    tag_518:\n      0x00\n      mload(0x40)\n      dup1\n      dup4\n      sub\n      dup2\n      dup6\n      dup8\n      gas\n      call\n      swap3\n      pop\n      pop\n      pop\n      returndatasize\n      dup1\n      0x00\n      dup2\n      eq\n      tag_522\n      jumpi\n      mload(0x40)\n      swap2\n      pop\n      and(add(returndatasize, 0x3f), not(0x1f))\n      dup3\n      add\n      0x40\n      mstore\n      returndatasize\n      dup3\n      mstore\n      returndatasize\n      0x00\n      0x20\n      dup5\n      add\n      returndatacopy\n      jump(tag_521)\n    tag_522:\n      0x60\n      swap2\n      pop\n    tag_521:\n      pop\n        /* \"Ghosper-NFT-Staking-MasterChef.sol\":21734:21812  (bool success, bytes memory returndata) = target.call{ value: weiValue }(data) */\n      swap2\n      pop\n      swap2\n      pop\n        /* \"Ghosper-NFT-Staking-MasterChef.sol\":21827:21834  success */\n      dup2\n        /* \"Ghosper-NFT-Staking-MasterChef.sol\":21823:22418  if (success) {\r... */\n      iszero\n      tag_523\n      jumpi\n        /* \"Ghosper-NFT-Staking-MasterChef.sol\":21858:21868  returndata */\n      dup1\n        /* \"Ghosper-NFT-Staking-MasterChef.sol\":21851:21868  return returndata */\n      swap3\n      pop\n      pop\n      pop\n      jump(tag_512)\n        /* \"Ghosper-NFT-Staking-MasterChef.sol\":21823:22418  if (success) {\r... */\n    tag_523:\n        /* \"Ghosper-NFT-Staking-MasterChef.sol\":21992:21993  0 */\n      0x00\n        /* \"Ghosper-NFT-Staking-MasterChef.sol\":21972:21982  returndata */\n      dup2\n        /* \"Ghosper-NFT-Staking-MasterChef.sol\":21972:21989  returndata.length */\n      mload\n        /* \"Ghosper-NFT-Staking-MasterChef.sol\":21972:21993  returndata.length > 0 */\n      gt\n        /* \"Ghosper-NFT-Staking-MasterChef.sol\":21968:22407  if (returndata.length > 0) {\r... */\n      iszero\n      tag_525\n      jumpi\n        /* \"Ghosper-NFT-Staking-MasterChef.sol\":22235:22245  returndata */\n      dup1\n        /* \"Ghosper-NFT-Staking-MasterChef.sol\":22229:22246  mload(returndata) */\n      mload\n        /* \"Ghosper-NFT-Staking-MasterChef.sol\":22296:22311  returndata_size */\n      dup1\n        /* \"Ghosper-NFT-Staking-MasterChef.sol\":22283:22293  returndata */\n      dup3\n        /* \"Ghosper-NFT-Staking-MasterChef.sol\":22279:22281  32 */\n      0x20\n        /* \"Ghosper-NFT-Staking-MasterChef.sol\":22275:22294  add(32, returndata) */\n      add\n        /* \"Ghosper-NFT-Staking-MasterChef.sol\":22268:22312  revert(add(32, returndata), returndata_size) */\n      revert\n        /* \"Ghosper-NFT-Staking-MasterChef.sol\":21968:22407  if (returndata.length > 0) {\r... */\n    tag_525:\n        /* \"Ghosper-NFT-Staking-MasterChef.sol\":22378:22390  errorMessage */\n      dup4\n        /* \"Ghosper-NFT-Staking-MasterChef.sol\":22371:22391  revert(errorMessage) */\n      mload(0x40)\n      0x08c379a000000000000000000000000000000000000000000000000000000000\n      dup2\n      mstore\n      0x04\n      add\n      tag_527\n      swap2\n      swap1\n      tag_528\n      jump\t// in\n    tag_527:\n      mload(0x40)\n      dup1\n      swap2\n      sub\n      swap1\n      revert\n        /* \"Ghosper-NFT-Staking-MasterChef.sol\":21446:22425  function _functionCallWithValue(address target, bytes memory data, uint256 weiValue, string memory errorMessage) private returns (bytes memory) {\r... */\n    tag_512:\n      swap5\n      swap4\n      pop\n      pop\n      pop\n      pop\n      jump\t// out\n        /* \"Ghosper-NFT-Staking-MasterChef.sol\":16954:17573  function isContract(address account) internal view returns (bool) {\r... */\n    tag_514:\n        /* \"Ghosper-NFT-Staking-MasterChef.sol\":17014:17018  bool */\n      0x00\n        /* \"Ghosper-NFT-Staking-MasterChef.sol\":17276:17292  bytes32 codehash */\n      dup1\n        /* \"Ghosper-NFT-Staking-MasterChef.sol\":17303:17322  bytes32 accountHash */\n      0x00\n        /* \"Ghosper-NFT-Staking-MasterChef.sol\":17325:17391  0xc5d2460186f7233c927e7db2dcc703c0e500b653ca82273b7bfad8045d85a470 */\n      0xc5d2460186f7233c927e7db2dcc703c0e500b653ca82273b7bfad8045d85a470\n        /* \"Ghosper-NFT-Staking-MasterChef.sol\":17303:17391  bytes32 accountHash = 0xc5d2460186f7233c927e7db2dcc703c0e500b653ca82273b7bfad8045d85a470 */\n      0x00\n      shl\n      swap1\n      pop\n        /* \"Ghosper-NFT-Staking-MasterChef.sol\":17494:17501  account */\n      dup4\n        /* \"Ghosper-NFT-Staking-MasterChef.sol\":17482:17502  extcodehash(account) */\n      extcodehash\n        /* \"Ghosper-NFT-Staking-MasterChef.sol\":17470:17502  codehash := extcodehash(account) */\n      swap2\n      pop\n        /* \"Ghosper-NFT-Staking-MasterChef.sol\":17534:17545  accountHash */\n      dup1\n        /* \"Ghosper-NFT-Staking-MasterChef.sol\":17522:17530  codehash */\n      dup3\n        /* \"Ghosper-NFT-Staking-MasterChef.sol\":17522:17545  codehash != accountHash */\n      eq\n      iszero\n        /* \"Ghosper-NFT-Staking-MasterChef.sol\":17522:17564  codehash != accountHash && codehash != 0x0 */\n      dup1\n      iszero\n      tag_530\n      jumpi\n      pop\n        /* \"Ghosper-NFT-Staking-MasterChef.sol\":17561:17564  0x0 */\n      0x00\n        /* \"Ghosper-NFT-Staking-MasterChef.sol\":17549:17564  codehash != 0x0 */\n      dup1\n      shl\n        /* \"Ghosper-NFT-Staking-MasterChef.sol\":17549:17557  codehash */\n      dup3\n        /* \"Ghosper-NFT-Staking-MasterChef.sol\":17549:17564  codehash != 0x0 */\n      eq\n      iszero\n        /* \"Ghosper-NFT-Staking-MasterChef.sol\":17522:17564  codehash != accountHash && codehash != 0x0 */\n    tag_530:\n        /* \"Ghosper-NFT-Staking-MasterChef.sol\":17514:17565  return (codehash != accountHash && codehash != 0x0) */\n      swap3\n      pop\n      pop\n      pop\n        /* \"Ghosper-NFT-Staking-MasterChef.sol\":16954:17573  function isContract(address account) internal view returns (bool) {\r... */\n      swap2\n      swap1\n      pop\n      jump\t// out\n        /* \"#utility.yul\":7:146   */\n    tag_532:\n        /* \"#utility.yul\":53:58   */\n      0x00\n        /* \"#utility.yul\":91:97   */\n      dup2\n        /* \"#utility.yul\":78:98   */\n      calldataload\n        /* \"#utility.yul\":69:98   */\n      swap1\n      pop\n        /* \"#utility.yul\":107:140   */\n      tag_534\n        /* \"#utility.yul\":134:139   */\n      dup2\n        /* \"#utility.yul\":107:140   */\n      tag_535\n      jump\t// in\n    tag_534:\n        /* \"#utility.yul\":7:146   */\n      swap3\n      swap2\n      pop\n      pop\n      jump\t// out\n        /* \"#utility.yul\":169:737   */\n    tag_536:\n        /* \"#utility.yul\":242:250   */\n      0x00\n        /* \"#utility.yul\":252:258   */\n      dup1\n        /* \"#utility.yul\":302:305   */\n      dup4\n        /* \"#utility.yul\":295:299   */\n      0x1f\n        /* \"#utility.yul\":287:293   */\n      dup5\n        /* \"#utility.yul\":283:300   */\n      add\n        /* \"#utility.yul\":279:306   */\n      slt\n        /* \"#utility.yul\":269:391   */\n      tag_538\n      jumpi\n        /* \"#utility.yul\":310:389   */\n      tag_539\n      tag_540\n      jump\t// in\n    tag_539:\n        /* \"#utility.yul\":269:391   */\n    tag_538:\n        /* \"#utility.yul\":423:429   */\n      dup3\n        /* \"#utility.yul\":410:430   */\n      calldataload\n        /* \"#utility.yul\":400:430   */\n      swap1\n      pop\n        /* \"#utility.yul\":453:471   */\n      0xffffffffffffffff\n        /* \"#utility.yul\":445:451   */\n      dup2\n        /* \"#utility.yul\":442:472   */\n      gt\n        /* \"#utility.yul\":439:556   */\n      iszero\n      tag_541\n      jumpi\n        /* \"#utility.yul\":475:554   */\n      tag_542\n      tag_543\n      jump\t// in\n    tag_542:\n        /* \"#utility.yul\":439:556   */\n    tag_541:\n        /* \"#utility.yul\":589:593   */\n      0x20\n        /* \"#utility.yul\":581:587   */\n      dup4\n        /* \"#utility.yul\":577:594   */\n      add\n        /* \"#utility.yul\":565:594   */\n      swap2\n      pop\n        /* \"#utility.yul\":643:646   */\n      dup4\n        /* \"#utility.yul\":635:639   */\n      0x20\n        /* \"#utility.yul\":627:633   */\n      dup3\n        /* \"#utility.yul\":623:640   */\n      mul\n        /* \"#utility.yul\":613:621   */\n      dup4\n        /* \"#utility.yul\":609:641   */\n      add\n        /* \"#utility.yul\":606:647   */\n      gt\n        /* \"#utility.yul\":603:731   */\n      iszero\n      tag_544\n      jumpi\n        /* \"#utility.yul\":650:729   */\n      tag_545\n      tag_546\n      jump\t// in\n    tag_545:\n        /* \"#utility.yul\":603:731   */\n    tag_544:\n        /* \"#utility.yul\":169:737   */\n      swap3\n      pop\n      swap3\n      swap1\n      pop\n      jump\t// out\n        /* \"#utility.yul\":743:880   */\n    tag_547:\n        /* \"#utility.yul\":797:802   */\n      0x00\n        /* \"#utility.yul\":828:834   */\n      dup2\n        /* \"#utility.yul\":822:835   */\n      mload\n        /* \"#utility.yul\":813:835   */\n      swap1\n      pop\n        /* \"#utility.yul\":844:874   */\n      tag_549\n        /* \"#utility.yul\":868:873   */\n      dup2\n        /* \"#utility.yul\":844:874   */\n      tag_550\n      jump\t// in\n    tag_549:\n        /* \"#utility.yul\":743:880   */\n      swap3\n      swap2\n      pop\n      pop\n      jump\t// out\n        /* \"#utility.yul\":886:1025   */\n    tag_551:\n        /* \"#utility.yul\":932:937   */\n      0x00\n        /* \"#utility.yul\":970:976   */\n      dup2\n        /* \"#utility.yul\":957:977   */\n      calldataload\n        /* \"#utility.yul\":948:977   */\n      swap1\n      pop\n        /* \"#utility.yul\":986:1019   */\n      tag_553\n        /* \"#utility.yul\":1013:1018   */\n      dup2\n        /* \"#utility.yul\":986:1019   */\n      tag_554\n      jump\t// in\n    tag_553:\n        /* \"#utility.yul\":886:1025   */\n      swap3\n      swap2\n      pop\n      pop\n      jump\t// out\n        /* \"#utility.yul\":1031:1174   */\n    tag_555:\n        /* \"#utility.yul\":1088:1093   */\n      0x00\n        /* \"#utility.yul\":1119:1125   */\n      dup2\n        /* \"#utility.yul\":1113:1126   */\n      mload\n        /* \"#utility.yul\":1104:1126   */\n      swap1\n      pop\n        /* \"#utility.yul\":1135:1168   */\n      tag_557\n        /* \"#utility.yul\":1162:1167   */\n      dup2\n        /* \"#utility.yul\":1135:1168   */\n      tag_554\n      jump\t// in\n    tag_557:\n        /* \"#utility.yul\":1031:1174   */\n      swap3\n      swap2\n      pop\n      pop\n      jump\t// out\n        /* \"#utility.yul\":1180:1509   */\n    tag_40:\n        /* \"#utility.yul\":1239:1245   */\n      0x00\n        /* \"#utility.yul\":1288:1290   */\n      0x20\n        /* \"#utility.yul\":1276:1285   */\n      dup3\n        /* \"#utility.yul\":1267:1274   */\n      dup5\n        /* \"#utility.yul\":1263:1286   */\n      sub\n        /* \"#utility.yul\":1259:1291   */\n      slt\n        /* \"#utility.yul\":1256:1375   */\n      iszero\n      tag_559\n      jumpi\n        /* \"#utility.yul\":1294:1373   */\n      tag_560\n      tag_561\n      jump\t// in\n    tag_560:\n        /* \"#utility.yul\":1256:1375   */\n    tag_559:\n        /* \"#utility.yul\":1414:1415   */\n      0x00\n        /* \"#utility.yul\":1439:1492   */\n      tag_562\n        /* \"#utility.yul\":1484:1491   */\n      dup5\n        /* \"#utility.yul\":1475:1481   */\n      dup3\n        /* \"#utility.yul\":1464:1473   */\n      dup6\n        /* \"#utility.yul\":1460:1482   */\n      add\n        /* \"#utility.yul\":1439:1492   */\n      tag_532\n      jump\t// in\n    tag_562:\n        /* \"#utility.yul\":1429:1492   */\n      swap2\n      pop\n        /* \"#utility.yul\":1385:1502   */\n      pop\n        /* \"#utility.yul\":1180:1509   */\n      swap3\n      swap2\n      pop\n      pop\n      jump\t// out\n        /* \"#utility.yul\":1515:2074   */\n    tag_32:\n        /* \"#utility.yul\":1601:1607   */\n      0x00\n        /* \"#utility.yul\":1609:1615   */\n      dup1\n        /* \"#utility.yul\":1658:1660   */\n      0x20\n        /* \"#utility.yul\":1646:1655   */\n      dup4\n        /* \"#utility.yul\":1637:1644   */\n      dup6\n        /* \"#utility.yul\":1633:1656   */\n      sub\n        /* \"#utility.yul\":1629:1661   */\n      slt\n        /* \"#utility.yul\":1626:1745   */\n      iszero\n      tag_564\n      jumpi\n        /* \"#utility.yul\":1664:1743   */\n      tag_565\n      tag_561\n      jump\t// in\n    tag_565:\n        /* \"#utility.yul\":1626:1745   */\n    tag_564:\n        /* \"#utility.yul\":1812:1813   */\n      0x00\n        /* \"#utility.yul\":1801:1810   */\n      dup4\n        /* \"#utility.yul\":1797:1814   */\n      add\n        /* \"#utility.yul\":1784:1815   */\n      calldataload\n        /* \"#utility.yul\":1842:1860   */\n      0xffffffffffffffff\n        /* \"#utility.yul\":1834:1840   */\n      dup2\n        /* \"#utility.yul\":1831:1861   */\n      gt\n        /* \"#utility.yul\":1828:1945   */\n      iszero\n      tag_566\n      jumpi\n        /* \"#utility.yul\":1864:1943   */\n      tag_567\n      tag_568\n      jump\t// in\n    tag_567:\n        /* \"#utility.yul\":1828:1945   */\n    tag_566:\n        /* \"#utility.yul\":1977:2057   */\n      tag_569\n        /* \"#utility.yul\":2049:2056   */\n      dup6\n        /* \"#utility.yul\":2040:2046   */\n      dup3\n        /* \"#utility.yul\":2029:2038   */\n      dup7\n        /* \"#utility.yul\":2025:2047   */\n      add\n        /* \"#utility.yul\":1977:2057   */\n      tag_536\n      jump\t// in\n    tag_569:\n        /* \"#utility.yul\":1959:2057   */\n      swap3\n      pop\n      swap3\n      pop\n        /* \"#utility.yul\":1755:2067   */\n      pop\n        /* \"#utility.yul\":1515:2074   */\n      swap3\n      pop\n      swap3\n      swap1\n      pop\n      jump\t// out\n        /* \"#utility.yul\":2080:2425   */\n    tag_505:\n        /* \"#utility.yul\":2147:2153   */\n      0x00\n        /* \"#utility.yul\":2196:2198   */\n      0x20\n        /* \"#utility.yul\":2184:2193   */\n      dup3\n        /* \"#utility.yul\":2175:2182   */\n      dup5\n        /* \"#utility.yul\":2171:2194   */\n      sub\n        /* \"#utility.yul\":2167:2199   */\n      slt\n        /* \"#utility.yul\":2164:2283   */\n      iszero\n      tag_571\n      jumpi\n        /* \"#utility.yul\":2202:2281   */\n      tag_572\n      tag_561\n      jump\t// in\n    tag_572:\n        /* \"#utility.yul\":2164:2283   */\n    tag_571:\n        /* \"#utility.yul\":2322:2323   */\n      0x00\n        /* \"#utility.yul\":2347:2408   */\n      tag_573\n        /* \"#utility.yul\":2400:2407   */\n      dup5\n        /* \"#utility.yul\":2391:2397   */\n      dup3\n        /* \"#utility.yul\":2380:2389   */\n      dup6\n        /* \"#utility.yul\":2376:2398   */\n      add\n        /* \"#utility.yul\":2347:2408   */\n      tag_547\n      jump\t// in\n    tag_573:\n        /* \"#utility.yul\":2337:2408   */\n      swap2\n      pop\n        /* \"#utility.yul\":2293:2418   */\n      pop\n        /* \"#utility.yul\":2080:2425   */\n      swap3\n      swap2\n      pop\n      pop\n      jump\t// out\n        /* \"#utility.yul\":2431:2760   */\n    tag_50:\n        /* \"#utility.yul\":2490:2496   */\n      0x00\n        /* \"#utility.yul\":2539:2541   */\n      0x20\n        /* \"#utility.yul\":2527:2536   */\n      dup3\n        /* \"#utility.yul\":2518:2525   */\n      dup5\n        /* \"#utility.yul\":2514:2537   */\n      sub\n        /* \"#utility.yul\":2510:2542   */\n      slt\n        /* \"#utility.yul\":2507:2626   */\n      iszero\n      tag_575\n      jumpi\n        /* \"#utility.yul\":2545:2624   */\n      tag_576\n      tag_561\n      jump\t// in\n    tag_576:\n        /* \"#utility.yul\":2507:2626   */\n    tag_575:\n        /* \"#utility.yul\":2665:2666   */\n      0x00\n        /* \"#utility.yul\":2690:2743   */\n      tag_577\n        /* \"#utility.yul\":2735:2742   */\n      dup5\n        /* \"#utility.yul\":2726:2732   */\n      dup3\n        /* \"#utility.yul\":2715:2724   */\n      dup6\n        /* \"#utility.yul\":2711:2733   */\n      add\n        /* \"#utility.yul\":2690:2743   */\n      tag_551\n      jump\t// in\n    tag_577:\n        /* \"#utility.yul\":2680:2743   */\n      swap2\n      pop\n        /* \"#utility.yul\":2636:2753   */\n      pop\n        /* \"#utility.yul\":2431:2760   */\n      swap3\n      swap2\n      pop\n      pop\n      jump\t// out\n        /* \"#utility.yul\":2766:3117   */\n    tag_298:\n        /* \"#utility.yul\":2836:2842   */\n      0x00\n        /* \"#utility.yul\":2885:2887   */\n      0x20\n        /* \"#utility.yul\":2873:2882   */\n      dup3\n        /* \"#utility.yul\":2864:2871   */\n      dup5\n        /* \"#utility.yul\":2860:2883   */\n      sub\n        /* \"#utility.yul\":2856:2888   */\n      slt\n        /* \"#utility.yul\":2853:2972   */\n      iszero\n      tag_579\n      jumpi\n        /* \"#utility.yul\":2891:2970   */\n      tag_580\n      tag_561\n      jump\t// in\n    tag_580:\n        /* \"#utility.yul\":2853:2972   */\n    tag_579:\n        /* \"#utility.yul\":3011:3012   */\n      0x00\n        /* \"#utility.yul\":3036:3100   */\n      tag_581\n        /* \"#utility.yul\":3092:3099   */\n      dup5\n        /* \"#utility.yul\":3083:3089   */\n      dup3\n        /* \"#utility.yul\":3072:3081   */\n      dup6\n        /* \"#utility.yul\":3068:3090   */\n      add\n        /* \"#utility.yul\":3036:3100   */\n      tag_555\n      jump\t// in\n    tag_581:\n        /* \"#utility.yul\":3026:3100   */\n      swap2\n      pop\n        /* \"#utility.yul\":2982:3110   */\n      pop\n        /* \"#utility.yul\":2766:3117   */\n      swap3\n      swap2\n      pop\n      pop\n      jump\t// out\n        /* \"#utility.yul\":3123:3597   */\n    tag_59:\n        /* \"#utility.yul\":3191:3197   */\n      0x00\n        /* \"#utility.yul\":3199:3205   */\n      dup1\n        /* \"#utility.yul\":3248:3250   */\n      0x40\n        /* \"#utility.yul\":3236:3245   */\n      dup4\n        /* \"#utility.yul\":3227:3234   */\n      dup6\n        /* \"#utility.yul\":3223:3246   */\n      sub\n        /* \"#utility.yul\":3219:3251   */\n      slt\n        /* \"#utility.yul\":3216:3335   */\n      iszero\n      tag_583\n      jumpi\n        /* \"#utility.yul\":3254:3333   */\n      tag_584\n      tag_561\n      jump\t// in\n    tag_584:\n        /* \"#utility.yul\":3216:3335   */\n    tag_583:\n        /* \"#utility.yul\":3374:3375   */\n      0x00\n        /* \"#utility.yul\":3399:3452   */\n      tag_585\n        /* \"#utility.yul\":3444:3451   */\n      dup6\n        /* \"#utility.yul\":3435:3441   */\n      dup3\n        /* \"#utility.yul\":3424:3433   */\n      dup7\n        /* \"#utility.yul\":3420:3442   */\n      add\n        /* \"#utility.yul\":3399:3452   */\n      tag_551\n      jump\t// in\n    tag_585:\n        /* \"#utility.yul\":3389:3452   */\n      swap3\n      pop\n        /* \"#utility.yul\":3345:3462   */\n      pop\n        /* \"#utility.yul\":3501:3503   */\n      0x20\n        /* \"#utility.yul\":3527:3580   */\n      tag_586\n        /* \"#utility.yul\":3572:3579   */\n      dup6\n        /* \"#utility.yul\":3563:3569   */\n      dup3\n        /* \"#utility.yul\":3552:3561   */\n      dup7\n        /* \"#utility.yul\":3548:3570   */\n      add\n        /* \"#utility.yul\":3527:3580   */\n      tag_551\n      jump\t// in\n    tag_586:\n        /* \"#utility.yul\":3517:3580   */\n      swap2\n      pop\n        /* \"#utility.yul\":3472:3590   */\n      pop\n        /* \"#utility.yul\":3123:3597   */\n      swap3\n      pop\n      swap3\n      swap1\n      pop\n      jump\t// out\n        /* \"#utility.yul\":3603:4222   */\n    tag_36:\n        /* \"#utility.yul\":3680:3686   */\n      0x00\n        /* \"#utility.yul\":3688:3694   */\n      dup1\n        /* \"#utility.yul\":3696:3702   */\n      0x00\n        /* \"#utility.yul\":3745:3747   */\n      0x60\n        /* \"#utility.yul\":3733:3742   */\n      dup5\n        /* \"#utility.yul\":3724:3731   */\n      dup7\n        /* \"#utility.yul\":3720:3743   */\n      sub\n        /* \"#utility.yul\":3716:3748   */\n      slt\n        /* \"#utility.yul\":3713:3832   */\n      iszero\n      tag_588\n      jumpi\n        /* \"#utility.yul\":3751:3830   */\n      tag_589\n      tag_561\n      jump\t// in\n    tag_589:\n        /* \"#utility.yul\":3713:3832   */\n    tag_588:\n        /* \"#utility.yul\":3871:3872   */\n      0x00\n        /* \"#utility.yul\":3896:3949   */\n      tag_590\n        /* \"#utility.yul\":3941:3948   */\n      dup7\n        /* \"#utility.yul\":3932:3938   */\n      dup3\n        /* \"#utility.yul\":3921:3930   */\n      dup8\n        /* \"#utility.yul\":3917:3939   */\n      add\n        /* \"#utility.yul\":3896:3949   */\n      tag_551\n      jump\t// in\n    tag_590:\n        /* \"#utility.yul\":3886:3949   */\n      swap4\n      pop\n        /* \"#utility.yul\":3842:3959   */\n      pop\n        /* \"#utility.yul\":3998:4000   */\n      0x20\n        /* \"#utility.yul\":4024:4077   */\n      tag_591\n        /* \"#utility.yul\":4069:4076   */\n      dup7\n        /* \"#utility.yul\":4060:4066   */\n      dup3\n        /* \"#utility.yul\":4049:4058   */\n      dup8\n        /* \"#utility.yul\":4045:4067   */\n      add\n        /* \"#utility.yul\":4024:4077   */\n      tag_551\n      jump\t// in\n    tag_591:\n        /* \"#utility.yul\":4014:4077   */\n      swap3\n      pop\n        /* \"#utility.yul\":3969:4087   */\n      pop\n        /* \"#utility.yul\":4126:4128   */\n      0x40\n        /* \"#utility.yul\":4152:4205   */\n      tag_592\n        /* \"#utility.yul\":4197:4204   */\n      dup7\n        /* \"#utility.yul\":4188:4194   */\n      dup3\n        /* \"#utility.yul\":4177:4186   */\n      dup8\n        /* \"#utility.yul\":4173:4195   */\n      add\n        /* \"#utility.yul\":4152:4205   */\n      tag_551\n      jump\t// in\n    tag_592:\n        /* \"#utility.yul\":4142:4205   */\n      swap2\n      pop\n        /* \"#utility.yul\":4097:4215   */\n      pop\n        /* \"#utility.yul\":3603:4222   */\n      swap3\n      pop\n      swap3\n      pop\n      swap3\n      jump\t// out\n        /* \"#utility.yul\":4228:4346   */\n    tag_593:\n        /* \"#utility.yul\":4315:4339   */\n      tag_595\n        /* \"#utility.yul\":4333:4338   */\n      dup2\n        /* \"#utility.yul\":4315:4339   */\n      tag_596\n      jump\t// in\n    tag_595:\n        /* \"#utility.yul\":4310:4313   */\n      dup3\n        /* \"#utility.yul\":4303:4340   */\n      mstore\n        /* \"#utility.yul\":4228:4346   */\n      pop\n      pop\n      jump\t// out\n        /* \"#utility.yul\":4382:4919   */\n    tag_597:\n        /* \"#utility.yul\":4510:4513   */\n      0x00\n        /* \"#utility.yul\":4531:4617   */\n      tag_599\n        /* \"#utility.yul\":4610:4616   */\n      dup4\n        /* \"#utility.yul\":4605:4608   */\n      dup6\n        /* \"#utility.yul\":4531:4617   */\n      tag_600\n      jump\t// in\n    tag_599:\n        /* \"#utility.yul\":4524:4617   */\n      swap4\n      pop\n        /* \"#utility.yul\":4641:4707   */\n      0x07ffffffffffffffffffffffffffffffffffffffffffffffffffffffffffffff\n        /* \"#utility.yul\":4633:4639   */\n      dup4\n        /* \"#utility.yul\":4630:4708   */\n      gt\n        /* \"#utility.yul\":4627:4792   */\n      iszero\n      tag_601\n      jumpi\n        /* \"#utility.yul\":4711:4790   */\n      tag_602\n      tag_603\n      jump\t// in\n    tag_602:\n        /* \"#utility.yul\":4627:4792   */\n    tag_601:\n        /* \"#utility.yul\":4823:4827   */\n      0x20\n        /* \"#utility.yul\":4815:4821   */\n      dup4\n        /* \"#utility.yul\":4811:4828   */\n      mul\n        /* \"#utility.yul\":4801:4828   */\n      swap3\n      pop\n        /* \"#utility.yul\":4838:4881   */\n      tag_604\n        /* \"#utility.yul\":4874:4880   */\n      dup4\n        /* \"#utility.yul\":4869:4872   */\n      dup6\n        /* \"#utility.yul\":4862:4867   */\n      dup5\n        /* \"#utility.yul\":4838:4881   */\n      tag_605\n      jump\t// in\n    tag_604:\n        /* \"#utility.yul\":4906:4912   */\n      dup3\n        /* \"#utility.yul\":4901:4904   */\n      dup5\n        /* \"#utility.yul\":4897:4913   */\n      add\n        /* \"#utility.yul\":4890:4913   */\n      swap1\n      pop\n        /* \"#utility.yul\":4382:4919   */\n      swap4\n      swap3\n      pop\n      pop\n      pop\n      jump\t// out\n        /* \"#utility.yul\":4925:5298   */\n    tag_606:\n        /* \"#utility.yul\":5029:5032   */\n      0x00\n        /* \"#utility.yul\":5057:5095   */\n      tag_608\n        /* \"#utility.yul\":5089:5094   */\n      dup3\n        /* \"#utility.yul\":5057:5095   */\n      tag_609\n      jump\t// in\n    tag_608:\n        /* \"#utility.yul\":5111:5199   */\n      tag_610\n        /* \"#utility.yul\":5192:5198   */\n      dup2\n        /* \"#utility.yul\":5187:5190   */\n      dup6\n        /* \"#utility.yul\":5111:5199   */\n      tag_611\n      jump\t// in\n    tag_610:\n        /* \"#utility.yul\":5104:5199   */\n      swap4\n      pop\n        /* \"#utility.yul\":5208:5260   */\n      tag_612\n        /* \"#utility.yul\":5253:5259   */\n      dup2\n        /* \"#utility.yul\":5248:5251   */\n      dup6\n        /* \"#utility.yul\":5241:5245   */\n      0x20\n        /* \"#utility.yul\":5234:5239   */\n      dup7\n        /* \"#utility.yul\":5230:5246   */\n      add\n        /* \"#utility.yul\":5208:5260   */\n      tag_613\n      jump\t// in\n    tag_612:\n        /* \"#utility.yul\":5285:5291   */\n      dup1\n        /* \"#utility.yul\":5280:5283   */\n      dup5\n        /* \"#utility.yul\":5276:5292   */\n      add\n        /* \"#utility.yul\":5269:5292   */\n      swap2\n      pop\n        /* \"#utility.yul\":5033:5298   */\n      pop\n        /* \"#utility.yul\":4925:5298   */\n      swap3\n      swap2\n      pop\n      pop\n      jump\t// out\n        /* \"#utility.yul\":5304:5463   */\n    tag_614:\n        /* \"#utility.yul\":5405:5456   */\n      tag_616\n        /* \"#utility.yul\":5450:5455   */\n      dup2\n        /* \"#utility.yul\":5405:5456   */\n      tag_617\n      jump\t// in\n    tag_616:\n        /* \"#utility.yul\":5400:5403   */\n      dup3\n        /* \"#utility.yul\":5393:5457   */\n      mstore\n        /* \"#utility.yul\":5304:5463   */\n      pop\n      pop\n      jump\t// out\n        /* \"#utility.yul\":5469:5632   */\n    tag_618:\n        /* \"#utility.yul\":5572:5625   */\n      tag_620\n        /* \"#utility.yul\":5619:5624   */\n      dup2\n        /* \"#utility.yul\":5572:5625   */\n      tag_621\n      jump\t// in\n    tag_620:\n        /* \"#utility.yul\":5567:5570   */\n      dup3\n        /* \"#utility.yul\":5560:5626   */\n      mstore\n        /* \"#utility.yul\":5469:5632   */\n      pop\n      pop\n      jump\t// out\n        /* \"#utility.yul\":5638:6002   */\n    tag_622:\n        /* \"#utility.yul\":5726:5729   */\n      0x00\n        /* \"#utility.yul\":5754:5793   */\n      tag_624\n        /* \"#utility.yul\":5787:5792   */\n      dup3\n        /* \"#utility.yul\":5754:5793   */\n      tag_625\n      jump\t// in\n    tag_624:\n        /* \"#utility.yul\":5809:5880   */\n      tag_626\n        /* \"#utility.yul\":5873:5879   */\n      dup2\n        /* \"#utility.yul\":5868:5871   */\n      dup6\n        /* \"#utility.yul\":5809:5880   */\n      tag_627\n      jump\t// in\n    tag_626:\n        /* \"#utility.yul\":5802:5880   */\n      swap4\n      pop\n        /* \"#utility.yul\":5889:5941   */\n      tag_628\n        /* \"#utility.yul\":5934:5940   */\n      dup2\n        /* \"#utility.yul\":5929:5932   */\n      dup6\n        /* \"#utility.yul\":5922:5926   */\n      0x20\n        /* \"#utility.yul\":5915:5920   */\n      dup7\n        /* \"#utility.yul\":5911:5927   */\n      add\n        /* \"#utility.yul\":5889:5941   */\n      tag_613\n      jump\t// in\n    tag_628:\n        /* \"#utility.yul\":5966:5995   */\n      tag_629\n        /* \"#utility.yul\":5988:5994   */\n      dup2\n        /* \"#utility.yul\":5966:5995   */\n      tag_630\n      jump\t// in\n    tag_629:\n        /* \"#utility.yul\":5961:5964   */\n      dup5\n        /* \"#utility.yul\":5957:5996   */\n      add\n        /* \"#utility.yul\":5950:5996   */\n      swap2\n      pop\n        /* \"#utility.yul\":5730:6002   */\n      pop\n        /* \"#utility.yul\":5638:6002   */\n      swap3\n      swap2\n      pop\n      pop\n      jump\t// out\n        /* \"#utility.yul\":6008:6374   */\n    tag_631:\n        /* \"#utility.yul\":6150:6153   */\n      0x00\n        /* \"#utility.yul\":6171:6238   */\n      tag_633\n        /* \"#utility.yul\":6235:6237   */\n      0x1b\n        /* \"#utility.yul\":6230:6233   */\n      dup4\n        /* \"#utility.yul\":6171:6238   */\n      tag_627\n      jump\t// in\n    tag_633:\n        /* \"#utility.yul\":6164:6238   */\n      swap2\n      pop\n        /* \"#utility.yul\":6247:6340   */\n      tag_634\n        /* \"#utility.yul\":6336:6339   */\n      dup3\n        /* \"#utility.yul\":6247:6340   */\n      tag_635\n      jump\t// in\n    tag_634:\n        /* \"#utility.yul\":6365:6367   */\n      0x20\n        /* \"#utility.yul\":6360:6363   */\n      dup3\n        /* \"#utility.yul\":6356:6368   */\n      add\n        /* \"#utility.yul\":6349:6368   */\n      swap1\n      pop\n        /* \"#utility.yul\":6008:6374   */\n      swap2\n      swap1\n      pop\n      jump\t// out\n        /* \"#utility.yul\":6380:6746   */\n    tag_636:\n        /* \"#utility.yul\":6522:6525   */\n      0x00\n        /* \"#utility.yul\":6543:6610   */\n      tag_638\n        /* \"#utility.yul\":6607:6609   */\n      0x18\n        /* \"#utility.yul\":6602:6605   */\n      dup4\n        /* \"#utility.yul\":6543:6610   */\n      tag_627\n      jump\t// in\n    tag_638:\n        /* \"#utility.yul\":6536:6610   */\n      swap2\n      pop\n        /* \"#utility.yul\":6619:6712   */\n      tag_639\n        /* \"#utility.yul\":6708:6711   */\n      dup3\n        /* \"#utility.yul\":6619:6712   */\n      tag_640\n      jump\t// in\n    tag_639:\n        /* \"#utility.yul\":6737:6739   */\n      0x20\n        /* \"#utility.yul\":6732:6735   */\n      dup3\n        /* \"#utility.yul\":6728:6740   */\n      add\n        /* \"#utility.yul\":6721:6740   */\n      swap1\n      pop\n        /* \"#utility.yul\":6380:6746   */\n      swap2\n      swap1\n      pop\n      jump\t// out\n        /* \"#utility.yul\":6752:7118   */\n    tag_641:\n        /* \"#utility.yul\":6894:6897   */\n      0x00\n        /* \"#utility.yul\":6915:6982   */\n      tag_643\n        /* \"#utility.yul\":6979:6981   */\n      0x1b\n        /* \"#utility.yul\":6974:6977   */\n      dup4\n        /* \"#utility.yul\":6915:6982   */\n      tag_627\n      jump\t// in\n    tag_643:\n        /* \"#utility.yul\":6908:6982   */\n      swap2\n      pop\n        /* \"#utility.yul\":6991:7084   */\n      tag_644\n        /* \"#utility.yul\":7080:7083   */\n      dup3\n        /* \"#utility.yul\":6991:7084   */\n      tag_645\n      jump\t// in\n    tag_644:\n        /* \"#utility.yul\":7109:7111   */\n      0x20\n        /* \"#utility.yul\":7104:7107   */\n      dup3\n        /* \"#utility.yul\":7100:7112   */\n      add\n        /* \"#utility.yul\":7093:7112   */\n      swap1\n      pop\n        /* \"#utility.yul\":6752:7118   */\n      swap2\n      swap1\n      pop\n      jump\t// out\n        /* \"#utility.yul\":7124:7490   */\n    tag_646:\n        /* \"#utility.yul\":7266:7269   */\n      0x00\n        /* \"#utility.yul\":7287:7354   */\n      tag_648\n        /* \"#utility.yul\":7351:7353   */\n      0x1e\n        /* \"#utility.yul\":7346:7349   */\n      dup4\n        /* \"#utility.yul\":7287:7354   */\n      tag_627\n      jump\t// in\n    tag_648:\n        /* \"#utility.yul\":7280:7354   */\n      swap2\n      pop\n        /* \"#utility.yul\":7363:7456   */\n      tag_649\n        /* \"#utility.yul\":7452:7455   */\n      dup3\n        /* \"#utility.yul\":7363:7456   */\n      tag_650\n      jump\t// in\n    tag_649:\n        /* \"#utility.yul\":7481:7483   */\n      0x20\n        /* \"#utility.yul\":7476:7479   */\n      dup3\n        /* \"#utility.yul\":7472:7484   */\n      add\n        /* \"#utility.yul\":7465:7484   */\n      swap1\n      pop\n        /* \"#utility.yul\":7124:7490   */\n      swap2\n      swap1\n      pop\n      jump\t// out\n        /* \"#utility.yul\":7496:7862   */\n    tag_651:\n        /* \"#utility.yul\":7638:7641   */\n      0x00\n        /* \"#utility.yul\":7659:7726   */\n      tag_653\n        /* \"#utility.yul\":7723:7725   */\n      0x2a\n        /* \"#utility.yul\":7718:7721   */\n      dup4\n        /* \"#utility.yul\":7659:7726   */\n      tag_627\n      jump\t// in\n    tag_653:\n        /* \"#utility.yul\":7652:7726   */\n      swap2\n      pop\n        /* \"#utility.yul\":7735:7828   */\n      tag_654\n        /* \"#utility.yul\":7824:7827   */\n      dup3\n        /* \"#utility.yul\":7735:7828   */\n      tag_655\n      jump\t// in\n    tag_654:\n        /* \"#utility.yul\":7853:7855   */\n      0x40\n        /* \"#utility.yul\":7848:7851   */\n      dup3\n        /* \"#utility.yul\":7844:7856   */\n      add\n        /* \"#utility.yul\":7837:7856   */\n      swap1\n      pop\n        /* \"#utility.yul\":7496:7862   */\n      swap2\n      swap1\n      pop\n      jump\t// out\n        /* \"#utility.yul\":7868:8234   */\n    tag_656:\n        /* \"#utility.yul\":8010:8013   */\n      0x00\n        /* \"#utility.yul\":8031:8098   */\n      tag_658\n        /* \"#utility.yul\":8095:8097   */\n      0x26\n        /* \"#utility.yul\":8090:8093   */\n      dup4\n        /* \"#utility.yul\":8031:8098   */\n      tag_627\n      jump\t// in\n    tag_658:\n        /* \"#utility.yul\":8024:8098   */\n      swap2\n      pop\n        /* \"#utility.yul\":8107:8200   */\n      tag_659\n        /* \"#utility.yul\":8196:8199   */\n      dup3\n        /* \"#utility.yul\":8107:8200   */\n      tag_660\n      jump\t// in\n    tag_659:\n        /* \"#utility.yul\":8225:8227   */\n      0x40\n        /* \"#utility.yul\":8220:8223   */\n      dup3\n        /* \"#utility.yul\":8216:8228   */\n      add\n        /* \"#utility.yul\":8209:8228   */\n      swap1\n      pop\n        /* \"#utility.yul\":7868:8234   */\n      swap2\n      swap1\n      pop\n      jump\t// out\n        /* \"#utility.yul\":8240:8606   */\n    tag_661:\n        /* \"#utility.yul\":8382:8385   */\n      0x00\n        /* \"#utility.yul\":8403:8470   */\n      tag_663\n        /* \"#utility.yul\":8467:8469   */\n      0x1e\n        /* \"#utility.yul\":8462:8465   */\n      dup4\n        /* \"#utility.yul\":8403:8470   */\n      tag_627\n      jump\t// in\n    tag_663:\n        /* \"#utility.yul\":8396:8470   */\n      swap2\n      pop\n        /* \"#utility.yul\":8479:8572   */\n      tag_664\n        /* \"#utility.yul\":8568:8571   */\n      dup3\n        /* \"#utility.yul\":8479:8572   */\n      tag_665\n      jump\t// in\n    tag_664:\n        /* \"#utility.yul\":8597:8599   */\n      0x20\n        /* \"#utility.yul\":8592:8595   */\n      dup3\n        /* \"#utility.yul\":8588:8600   */\n      add\n        /* \"#utility.yul\":8581:8600   */\n      swap1\n      pop\n        /* \"#utility.yul\":8240:8606   */\n      swap2\n      swap1\n      pop\n      jump\t// out\n        /* \"#utility.yul\":8612:8978   */\n    tag_666:\n        /* \"#utility.yul\":8754:8757   */\n      0x00\n        /* \"#utility.yul\":8775:8842   */\n      tag_668\n        /* \"#utility.yul\":8839:8841   */\n      0x1b\n        /* \"#utility.yul\":8834:8837   */\n      dup4\n        /* \"#utility.yul\":8775:8842   */\n      tag_627\n      jump\t// in\n    tag_668:\n        /* \"#utility.yul\":8768:8842   */\n      swap2\n      pop\n        /* \"#utility.yul\":8851:8944   */\n      tag_669\n        /* \"#utility.yul\":8940:8943   */\n      dup3\n        /* \"#utility.yul\":8851:8944   */\n      tag_670\n      jump\t// in\n    tag_669:\n        /* \"#utility.yul\":8969:8971   */\n      0x20\n        /* \"#utility.yul\":8964:8967   */\n      dup3\n        /* \"#utility.yul\":8960:8972   */\n      add\n        /* \"#utility.yul\":8953:8972   */\n      swap1\n      pop\n        /* \"#utility.yul\":8612:8978   */\n      swap2\n      swap1\n      pop\n      jump\t// out\n        /* \"#utility.yul\":8984:9350   */\n    tag_671:\n        /* \"#utility.yul\":9126:9129   */\n      0x00\n        /* \"#utility.yul\":9147:9214   */\n      tag_673\n        /* \"#utility.yul\":9211:9213   */\n      0x31\n        /* \"#utility.yul\":9206:9209   */\n      dup4\n        /* \"#utility.yul\":9147:9214   */\n      tag_627\n      jump\t// in\n    tag_673:\n        /* \"#utility.yul\":9140:9214   */\n      swap2\n      pop\n        /* \"#utility.yul\":9223:9316   */\n      tag_674\n        /* \"#utility.yul\":9312:9315   */\n      dup3\n        /* \"#utility.yul\":9223:9316   */\n      tag_675\n      jump\t// in\n    tag_674:\n        /* \"#utility.yul\":9341:9343   */\n      0x40\n        /* \"#utility.yul\":9336:9339   */\n      dup3\n        /* \"#utility.yul\":9332:9344   */\n      add\n        /* \"#utility.yul\":9325:9344   */\n      swap1\n      pop\n        /* \"#utility.yul\":8984:9350   */\n      swap2\n      swap1\n      pop\n      jump\t// out\n        /* \"#utility.yul\":9356:9722   */\n    tag_676:\n        /* \"#utility.yul\":9498:9501   */\n      0x00\n        /* \"#utility.yul\":9519:9586   */\n      tag_678\n        /* \"#utility.yul\":9583:9585   */\n      0x22\n        /* \"#utility.yul\":9578:9581   */\n      dup4\n        /* \"#utility.yul\":9519:9586   */\n      tag_627\n      jump\t// in\n    tag_678:\n        /* \"#utility.yul\":9512:9586   */\n      swap2\n      pop\n        /* \"#utility.yul\":9595:9688   */\n      tag_679\n        /* \"#utility.yul\":9684:9687   */\n      dup3\n        /* \"#utility.yul\":9595:9688   */\n      tag_680\n      jump\t// in\n    tag_679:\n        /* \"#utility.yul\":9713:9715   */\n      0x40\n        /* \"#utility.yul\":9708:9711   */\n      dup3\n        /* \"#utility.yul\":9704:9716   */\n      add\n        /* \"#utility.yul\":9697:9716   */\n      swap1\n      pop\n        /* \"#utility.yul\":9356:9722   */\n      swap2\n      swap1\n      pop\n      jump\t// out\n        /* \"#utility.yul\":9728:10094   */\n    tag_681:\n        /* \"#utility.yul\":9870:9873   */\n      0x00\n        /* \"#utility.yul\":9891:9958   */\n      tag_683\n        /* \"#utility.yul\":9955:9957   */\n      0x1f\n        /* \"#utility.yul\":9950:9953   */\n      dup4\n        /* \"#utility.yul\":9891:9958   */\n      tag_627\n      jump\t// in\n    tag_683:\n        /* \"#utility.yul\":9884:9958   */\n      swap2\n      pop\n        /* \"#utility.yul\":9967:10060   */\n      tag_684\n        /* \"#utility.yul\":10056:10059   */\n      dup3\n        /* \"#utility.yul\":9967:10060   */\n      tag_685\n      jump\t// in\n    tag_684:\n        /* \"#utility.yul\":10085:10087   */\n      0x20\n        /* \"#utility.yul\":10080:10083   */\n      dup3\n        /* \"#utility.yul\":10076:10088   */\n      add\n        /* \"#utility.yul\":10069:10088   */\n      swap1\n      pop\n        /* \"#utility.yul\":9728:10094   */\n      swap2\n      swap1\n      pop\n      jump\t// out\n        /* \"#utility.yul\":10100:10466   */\n    tag_686:\n        /* \"#utility.yul\":10242:10245   */\n      0x00\n        /* \"#utility.yul\":10263:10330   */\n      tag_688\n        /* \"#utility.yul\":10327:10329   */\n      0x18\n        /* \"#utility.yul\":10322:10325   */\n      dup4\n        /* \"#utility.yul\":10263:10330   */\n      tag_627\n      jump\t// in\n    tag_688:\n        /* \"#utility.yul\":10256:10330   */\n      swap2\n      pop\n        /* \"#utility.yul\":10339:10432   */\n      tag_689\n        /* \"#utility.yul\":10428:10431   */\n      dup3\n        /* \"#utility.yul\":10339:10432   */\n      tag_690\n      jump\t// in\n    tag_689:\n        /* \"#utility.yul\":10457:10459   */\n      0x20\n        /* \"#utility.yul\":10452:10455   */\n      dup3\n        /* \"#utility.yul\":10448:10460   */\n      add\n        /* \"#utility.yul\":10441:10460   */\n      swap1\n      pop\n        /* \"#utility.yul\":10100:10466   */\n      swap2\n      swap1\n      pop\n      jump\t// out\n        /* \"#utility.yul\":10472:10838   */\n    tag_691:\n        /* \"#utility.yul\":10614:10617   */\n      0x00\n        /* \"#utility.yul\":10635:10702   */\n      tag_693\n        /* \"#utility.yul\":10699:10701   */\n      0x22\n        /* \"#utility.yul\":10694:10697   */\n      dup4\n        /* \"#utility.yul\":10635:10702   */\n      tag_627\n      jump\t// in\n    tag_693:\n        /* \"#utility.yul\":10628:10702   */\n      swap2\n      pop\n        /* \"#utility.yul\":10711:10804   */\n      tag_694\n        /* \"#utility.yul\":10800:10803   */\n      dup3\n        /* \"#utility.yul\":10711:10804   */\n      tag_695\n      jump\t// in\n    tag_694:\n        /* \"#utility.yul\":10829:10831   */\n      0x40\n        /* \"#utility.yul\":10824:10827   */\n      dup3\n        /* \"#utility.yul\":10820:10832   */\n      add\n        /* \"#utility.yul\":10813:10832   */\n      swap1\n      pop\n        /* \"#utility.yul\":10472:10838   */\n      swap2\n      swap1\n      pop\n      jump\t// out\n        /* \"#utility.yul\":10844:11210   */\n    tag_696:\n        /* \"#utility.yul\":10986:10989   */\n      0x00\n        /* \"#utility.yul\":11007:11074   */\n      tag_698\n        /* \"#utility.yul\":11071:11073   */\n      0x20\n        /* \"#utility.yul\":11066:11069   */\n      dup4\n        /* \"#utility.yul\":11007:11074   */\n      tag_627\n      jump\t// in\n    tag_698:\n        /* \"#utility.yul\":11000:11074   */\n      swap2\n      pop\n        /* \"#utility.yul\":11083:11176   */\n      tag_699\n        /* \"#utility.yul\":11172:11175   */\n      dup3\n        /* \"#utility.yul\":11083:11176   */\n      tag_700\n      jump\t// in\n    tag_699:\n        /* \"#utility.yul\":11201:11203   */\n      0x20\n        /* \"#utility.yul\":11196:11199   */\n      dup3\n        /* \"#utility.yul\":11192:11204   */\n      add\n        /* \"#utility.yul\":11185:11204   */\n      swap1\n      pop\n        /* \"#utility.yul\":10844:11210   */\n      swap2\n      swap1\n      pop\n      jump\t// out\n        /* \"#utility.yul\":11216:11582   */\n    tag_701:\n        /* \"#utility.yul\":11358:11361   */\n      0x00\n        /* \"#utility.yul\":11379:11446   */\n      tag_703\n        /* \"#utility.yul\":11443:11445   */\n      0x1e\n        /* \"#utility.yul\":11438:11441   */\n      dup4\n        /* \"#utility.yul\":11379:11446   */\n      tag_627\n      jump\t// in\n    tag_703:\n        /* \"#utility.yul\":11372:11446   */\n      swap2\n      pop\n        /* \"#utility.yul\":11455:11548   */\n      tag_704\n        /* \"#utility.yul\":11544:11547   */\n      dup3\n        /* \"#utility.yul\":11455:11548   */\n      tag_705\n      jump\t// in\n    tag_704:\n        /* \"#utility.yul\":11573:11575   */\n      0x20\n        /* \"#utility.yul\":11568:11571   */\n      dup3\n        /* \"#utility.yul\":11564:11576   */\n      add\n        /* \"#utility.yul\":11557:11576   */\n      swap1\n      pop\n        /* \"#utility.yul\":11216:11582   */\n      swap2\n      swap1\n      pop\n      jump\t// out\n        /* \"#utility.yul\":11588:11954   */\n    tag_706:\n        /* \"#utility.yul\":11730:11733   */\n      0x00\n        /* \"#utility.yul\":11751:11818   */\n      tag_708\n        /* \"#utility.yul\":11815:11817   */\n      0x1f\n        /* \"#utility.yul\":11810:11813   */\n      dup4\n        /* \"#utility.yul\":11751:11818   */\n      tag_627\n      jump\t// in\n    tag_708:\n        /* \"#utility.yul\":11744:11818   */\n      swap2\n      pop\n        /* \"#utility.yul\":11827:11920   */\n      tag_709\n        /* \"#utility.yul\":11916:11919   */\n      dup3\n        /* \"#utility.yul\":11827:11920   */\n      tag_710\n      jump\t// in\n    tag_709:\n        /* \"#utility.yul\":11945:11947   */\n      0x20\n        /* \"#utility.yul\":11940:11943   */\n      dup3\n        /* \"#utility.yul\":11936:11948   */\n      add\n        /* \"#utility.yul\":11929:11948   */\n      swap1\n      pop\n        /* \"#utility.yul\":11588:11954   */\n      swap2\n      swap1\n      pop\n      jump\t// out\n        /* \"#utility.yul\":11960:12326   */\n    tag_711:\n        /* \"#utility.yul\":12102:12105   */\n      0x00\n        /* \"#utility.yul\":12123:12190   */\n      tag_713\n        /* \"#utility.yul\":12187:12189   */\n      0x22\n        /* \"#utility.yul\":12182:12185   */\n      dup4\n        /* \"#utility.yul\":12123:12190   */\n      tag_627\n      jump\t// in\n    tag_713:\n        /* \"#utility.yul\":12116:12190   */\n      swap2\n      pop\n        /* \"#utility.yul\":12199:12292   */\n      tag_714\n        /* \"#utility.yul\":12288:12291   */\n      dup3\n        /* \"#utility.yul\":12199:12292   */\n      tag_715\n      jump\t// in\n    tag_714:\n        /* \"#utility.yul\":12317:12319   */\n      0x40\n        /* \"#utility.yul\":12312:12315   */\n      dup3\n        /* \"#utility.yul\":12308:12320   */\n      add\n        /* \"#utility.yul\":12301:12320   */\n      swap1\n      pop\n        /* \"#utility.yul\":11960:12326   */\n      swap2\n      swap1\n      pop\n      jump\t// out\n        /* \"#utility.yul\":12332:12698   */\n    tag_716:\n        /* \"#utility.yul\":12474:12477   */\n      0x00\n        /* \"#utility.yul\":12495:12562   */\n      tag_718\n        /* \"#utility.yul\":12559:12561   */\n      0x1d\n        /* \"#utility.yul\":12554:12557   */\n      dup4\n        /* \"#utility.yul\":12495:12562   */\n      tag_627\n      jump\t// in\n    tag_718:\n        /* \"#utility.yul\":12488:12562   */\n      swap2\n      pop\n        /* \"#utility.yul\":12571:12664   */\n      tag_719\n        /* \"#utility.yul\":12660:12663   */\n      dup3\n        /* \"#utility.yul\":12571:12664   */\n      tag_720\n      jump\t// in\n    tag_719:\n        /* \"#utility.yul\":12689:12691   */\n      0x20\n        /* \"#utility.yul\":12684:12687   */\n      dup3\n        /* \"#utility.yul\":12680:12692   */\n      add\n        /* \"#utility.yul\":12673:12692   */\n      swap1\n      pop\n        /* \"#utility.yul\":12332:12698   */\n      swap2\n      swap1\n      pop\n      jump\t// out\n        /* \"#utility.yul\":12704:13070   */\n    tag_721:\n        /* \"#utility.yul\":12846:12849   */\n      0x00\n        /* \"#utility.yul\":12867:12934   */\n      tag_723\n        /* \"#utility.yul\":12931:12933   */\n      0x39\n        /* \"#utility.yul\":12926:12929   */\n      dup4\n        /* \"#utility.yul\":12867:12934   */\n      tag_627\n      jump\t// in\n    tag_723:\n        /* \"#utility.yul\":12860:12934   */\n      swap2\n      pop\n        /* \"#utility.yul\":12943:13036   */\n      tag_724\n        /* \"#utility.yul\":13032:13035   */\n      dup3\n        /* \"#utility.yul\":12943:13036   */\n      tag_725\n      jump\t// in\n    tag_724:\n        /* \"#utility.yul\":13061:13063   */\n      0x40\n        /* \"#utility.yul\":13056:13059   */\n      dup3\n        /* \"#utility.yul\":13052:13064   */\n      add\n        /* \"#utility.yul\":13045:13064   */\n      swap1\n      pop\n        /* \"#utility.yul\":12704:13070   */\n      swap2\n      swap1\n      pop\n      jump\t// out\n        /* \"#utility.yul\":13076:13194   */\n    tag_726:\n        /* \"#utility.yul\":13163:13187   */\n      tag_728\n        /* \"#utility.yul\":13181:13186   */\n      dup2\n        /* \"#utility.yul\":13163:13187   */\n      tag_729\n      jump\t// in\n    tag_728:\n        /* \"#utility.yul\":13158:13161   */\n      dup3\n        /* \"#utility.yul\":13151:13188   */\n      mstore\n        /* \"#utility.yul\":13076:13194   */\n      pop\n      pop\n      jump\t// out\n        /* \"#utility.yul\":13200:13471   */\n    tag_519:\n        /* \"#utility.yul\":13330:13333   */\n      0x00\n        /* \"#utility.yul\":13352:13445   */\n      tag_731\n        /* \"#utility.yul\":13441:13444   */\n      dup3\n        /* \"#utility.yul\":13432:13438   */\n      dup5\n        /* \"#utility.yul\":13352:13445   */\n      tag_606\n      jump\t// in\n    tag_731:\n        /* \"#utility.yul\":13345:13445   */\n      swap2\n      pop\n        /* \"#utility.yul\":13462:13465   */\n      dup2\n        /* \"#utility.yul\":13455:13465   */\n      swap1\n      pop\n        /* \"#utility.yul\":13200:13471   */\n      swap3\n      swap2\n      pop\n      pop\n      jump\t// out\n        /* \"#utility.yul\":13477:13699   */\n    tag_84:\n        /* \"#utility.yul\":13570:13574   */\n      0x00\n        /* \"#utility.yul\":13608:13610   */\n      0x20\n        /* \"#utility.yul\":13597:13606   */\n      dup3\n        /* \"#utility.yul\":13593:13611   */\n      add\n        /* \"#utility.yul\":13585:13611   */\n      swap1\n      pop\n        /* \"#utility.yul\":13621:13692   */\n      tag_733\n        /* \"#utility.yul\":13689:13690   */\n      0x00\n        /* \"#utility.yul\":13678:13687   */\n      dup4\n        /* \"#utility.yul\":13674:13691   */\n      add\n        /* \"#utility.yul\":13665:13671   */\n      dup5\n        /* \"#utility.yul\":13621:13692   */\n      tag_593\n      jump\t// in\n    tag_733:\n        /* \"#utility.yul\":13477:13699   */\n      swap3\n      swap2\n      pop\n      pop\n      jump\t// out\n        /* \"#utility.yul\":13705:14147   */\n    tag_163:\n        /* \"#utility.yul\":13854:13858   */\n      0x00\n        /* \"#utility.yul\":13892:13894   */\n      0x60\n        /* \"#utility.yul\":13881:13890   */\n      dup3\n        /* \"#utility.yul\":13877:13895   */\n      add\n        /* \"#utility.yul\":13869:13895   */\n      swap1\n      pop\n        /* \"#utility.yul\":13905:13976   */\n      tag_735\n        /* \"#utility.yul\":13973:13974   */\n      0x00\n        /* \"#utility.yul\":13962:13971   */\n      dup4\n        /* \"#utility.yul\":13958:13975   */\n      add\n        /* \"#utility.yul\":13949:13955   */\n      dup7\n        /* \"#utility.yul\":13905:13976   */\n      tag_593\n      jump\t// in\n    tag_735:\n        /* \"#utility.yul\":13986:14058   */\n      tag_736\n        /* \"#utility.yul\":14054:14056   */\n      0x20\n        /* \"#utility.yul\":14043:14052   */\n      dup4\n        /* \"#utility.yul\":14039:14057   */\n      add\n        /* \"#utility.yul\":14030:14036   */\n      dup6\n        /* \"#utility.yul\":13986:14058   */\n      tag_593\n      jump\t// in\n    tag_736:\n        /* \"#utility.yul\":14068:14140   */\n      tag_737\n        /* \"#utility.yul\":14136:14138   */\n      0x40\n        /* \"#utility.yul\":14125:14134   */\n      dup4\n        /* \"#utility.yul\":14121:14139   */\n      add\n        /* \"#utility.yul\":14112:14118   */\n      dup5\n        /* \"#utility.yul\":14068:14140   */\n      tag_726\n      jump\t// in\n    tag_737:\n        /* \"#utility.yul\":13705:14147   */\n      swap5\n      swap4\n      pop\n      pop\n      pop\n      pop\n      jump\t// out\n        /* \"#utility.yul\":14153:14656   */\n    tag_169:\n        /* \"#utility.yul\":14334:14338   */\n      0x00\n        /* \"#utility.yul\":14372:14374   */\n      0x40\n        /* \"#utility.yul\":14361:14370   */\n      dup3\n        /* \"#utility.yul\":14357:14375   */\n      add\n        /* \"#utility.yul\":14349:14375   */\n      swap1\n      pop\n        /* \"#utility.yul\":14385:14456   */\n      tag_739\n        /* \"#utility.yul\":14453:14454   */\n      0x00\n        /* \"#utility.yul\":14442:14451   */\n      dup4\n        /* \"#utility.yul\":14438:14455   */\n      add\n        /* \"#utility.yul\":14429:14435   */\n      dup7\n        /* \"#utility.yul\":14385:14456   */\n      tag_593\n      jump\t// in\n    tag_739:\n        /* \"#utility.yul\":14503:14512   */\n      dup2\n        /* \"#utility.yul\":14497:14501   */\n      dup2\n        /* \"#utility.yul\":14493:14513   */\n      sub\n        /* \"#utility.yul\":14488:14490   */\n      0x20\n        /* \"#utility.yul\":14477:14486   */\n      dup4\n        /* \"#utility.yul\":14473:14491   */\n      add\n        /* \"#utility.yul\":14466:14514   */\n      mstore\n        /* \"#utility.yul\":14531:14649   */\n      tag_740\n        /* \"#utility.yul\":14644:14648   */\n      dup2\n        /* \"#utility.yul\":14635:14641   */\n      dup5\n        /* \"#utility.yul\":14627:14633   */\n      dup7\n        /* \"#utility.yul\":14531:14649   */\n      tag_597\n      jump\t// in\n    tag_740:\n        /* \"#utility.yul\":14523:14649   */\n      swap1\n      pop\n        /* \"#utility.yul\":14153:14656   */\n      swap5\n      swap4\n      pop\n      pop\n      pop\n      pop\n      jump\t// out\n        /* \"#utility.yul\":14662:14994   */\n    tag_498:\n        /* \"#utility.yul\":14783:14787   */\n      0x00\n        /* \"#utility.yul\":14821:14823   */\n      0x40\n        /* \"#utility.yul\":14810:14819   */\n      dup3\n        /* \"#utility.yul\":14806:14824   */\n      add\n        /* \"#utility.yul\":14798:14824   */\n      swap1\n      pop\n        /* \"#utility.yul\":14834:14905   */\n      tag_742\n        /* \"#utility.yul\":14902:14903   */\n      0x00\n        /* \"#utility.yul\":14891:14900   */\n      dup4\n        /* \"#utility.yul\":14887:14904   */\n      add\n        /* \"#utility.yul\":14878:14884   */\n      dup6\n        /* \"#utility.yul\":14834:14905   */\n      tag_593\n      jump\t// in\n    tag_742:\n        /* \"#utility.yul\":14915:14987   */\n      tag_743\n        /* \"#utility.yul\":14983:14985   */\n      0x20\n        /* \"#utility.yul\":14972:14981   */\n      dup4\n        /* \"#utility.yul\":14968:14986   */\n      add\n        /* \"#utility.yul\":14959:14965   */\n      dup5\n        /* \"#utility.yul\":14915:14987   */\n      tag_726\n      jump\t// in\n    tag_743:\n        /* \"#utility.yul\":14662:14994   */\n      swap4\n      swap3\n      pop\n      pop\n      pop\n      jump\t// out\n        /* \"#utility.yul\":15000:15442   */\n    tag_320:\n        /* \"#utility.yul\":15149:15153   */\n      0x00\n        /* \"#utility.yul\":15187:15189   */\n      0x60\n        /* \"#utility.yul\":15176:15185   */\n      dup3\n        /* \"#utility.yul\":15172:15190   */\n      add\n        /* \"#utility.yul\":15164:15190   */\n      swap1\n      pop\n        /* \"#utility.yul\":15200:15271   */\n      tag_745\n        /* \"#utility.yul\":15268:15269   */\n      0x00\n        /* \"#utility.yul\":15257:15266   */\n      dup4\n        /* \"#utility.yul\":15253:15270   */\n      add\n        /* \"#utility.yul\":15244:15250   */\n      dup7\n        /* \"#utility.yul\":15200:15271   */\n      tag_593\n      jump\t// in\n    tag_745:\n        /* \"#utility.yul\":15281:15353   */\n      tag_746\n        /* \"#utility.yul\":15349:15351   */\n      0x20\n        /* \"#utility.yul\":15338:15347   */\n      dup4\n        /* \"#utility.yul\":15334:15352   */\n      add\n        /* \"#utility.yul\":15325:15331   */\n      dup6\n        /* \"#utility.yul\":15281:15353   */\n      tag_726\n      jump\t// in\n    tag_746:\n        /* \"#utility.yul\":15363:15435   */\n      tag_747\n        /* \"#utility.yul\":15431:15433   */\n      0x40\n        /* \"#utility.yul\":15420:15429   */\n      dup4\n        /* \"#utility.yul\":15416:15434   */\n      add\n        /* \"#utility.yul\":15407:15413   */\n      dup5\n        /* \"#utility.yul\":15363:15435   */\n      tag_726\n      jump\t// in\n    tag_747:\n        /* \"#utility.yul\":15000:15442   */\n      swap5\n      swap4\n      pop\n      pop\n      pop\n      pop\n      jump\t// out\n        /* \"#utility.yul\":15448:15698   */\n    tag_47:\n        /* \"#utility.yul\":15555:15559   */\n      0x00\n        /* \"#utility.yul\":15593:15595   */\n      0x20\n        /* \"#utility.yul\":15582:15591   */\n      dup3\n        /* \"#utility.yul\":15578:15596   */\n      add\n        /* \"#utility.yul\":15570:15596   */\n      swap1\n      pop\n        /* \"#utility.yul\":15606:15691   */\n      tag_749\n        /* \"#utility.yul\":15688:15689   */\n      0x00\n        /* \"#utility.yul\":15677:15686   */\n      dup4\n        /* \"#utility.yul\":15673:15690   */\n      add\n        /* \"#utility.yul\":15664:15670   */\n      dup5\n        /* \"#utility.yul\":15606:15691   */\n      tag_614\n      jump\t// in\n    tag_749:\n        /* \"#utility.yul\":15448:15698   */\n      swap3\n      swap2\n      pop\n      pop\n      jump\t// out\n        /* \"#utility.yul\":15704:15958   */\n    tag_104:\n        /* \"#utility.yul\":15813:15817   */\n      0x00\n        /* \"#utility.yul\":15851:15853   */\n      0x20\n        /* \"#utility.yul\":15840:15849   */\n      dup3\n        /* \"#utility.yul\":15836:15854   */\n      add\n        /* \"#utility.yul\":15828:15854   */\n      swap1\n      pop\n        /* \"#utility.yul\":15864:15951   */\n      tag_751\n        /* \"#utility.yul\":15948:15949   */\n      0x00\n        /* \"#utility.yul\":15937:15946   */\n      dup4\n        /* \"#utility.yul\":15933:15950   */\n      add\n        /* \"#utility.yul\":15924:15930   */\n      dup5\n        /* \"#utility.yul\":15864:15951   */\n      tag_618\n      jump\t// in\n    tag_751:\n        /* \"#utility.yul\":15704:15958   */\n      swap3\n      swap2\n      pop\n      pop\n      jump\t// out\n        /* \"#utility.yul\":15964:16277   */\n    tag_528:\n        /* \"#utility.yul\":16077:16081   */\n      0x00\n        /* \"#utility.yul\":16115:16117   */\n      0x20\n        /* \"#utility.yul\":16104:16113   */\n      dup3\n        /* \"#utility.yul\":16100:16118   */\n      add\n        /* \"#utility.yul\":16092:16118   */\n      swap1\n      pop\n        /* \"#utility.yul\":16164:16173   */\n      dup2\n        /* \"#utility.yul\":16158:16162   */\n      dup2\n        /* \"#utility.yul\":16154:16174   */\n      sub\n        /* \"#utility.yul\":16150:16151   */\n      0x00\n        /* \"#utility.yul\":16139:16148   */\n      dup4\n        /* \"#utility.yul\":16135:16152   */\n      add\n        /* \"#utility.yul\":16128:16175   */\n      mstore\n        /* \"#utility.yul\":16192:16270   */\n      tag_753\n        /* \"#utility.yul\":16265:16269   */\n      dup2\n        /* \"#utility.yul\":16256:16262   */\n      dup5\n        /* \"#utility.yul\":16192:16270   */\n      tag_622\n      jump\t// in\n    tag_753:\n        /* \"#utility.yul\":16184:16270   */\n      swap1\n      pop\n        /* \"#utility.yul\":15964:16277   */\n      swap3\n      swap2\n      pop\n      pop\n      jump\t// out\n        /* \"#utility.yul\":16283:16702   */\n    tag_267:\n        /* \"#utility.yul\":16449:16453   */\n      0x00\n        /* \"#utility.yul\":16487:16489   */\n      0x20\n        /* \"#utility.yul\":16476:16485   */\n      dup3\n        /* \"#utility.yul\":16472:16490   */\n      add\n        /* \"#utility.yul\":16464:16490   */\n      swap1\n      pop\n        /* \"#utility.yul\":16536:16545   */\n      dup2\n        /* \"#utility.yul\":16530:16534   */\n      dup2\n        /* \"#utility.yul\":16526:16546   */\n      sub\n        /* \"#utility.yul\":16522:16523   */\n      0x00\n        /* \"#utility.yul\":16511:16520   */\n      dup4\n        /* \"#utility.yul\":16507:16524   */\n      add\n        /* \"#utility.yul\":16500:16547   */\n      mstore\n        /* \"#utility.yul\":16564:16695   */\n      tag_755\n        /* \"#utility.yul\":16690:16694   */\n      dup2\n        /* \"#utility.yul\":16564:16695   */\n      tag_631\n      jump\t// in\n    tag_755:\n        /* \"#utility.yul\":16556:16695   */\n      swap1\n      pop\n        /* \"#utility.yul\":16283:16702   */\n      swap2\n      swap1\n      pop\n      jump\t// out\n        /* \"#utility.yul\":16708:17127   */\n    tag_117:\n        /* \"#utility.yul\":16874:16878   */\n      0x00\n        /* \"#utility.yul\":16912:16914   */\n      0x20\n        /* \"#utility.yul\":16901:16910   */\n      dup3\n        /* \"#utility.yul\":16897:16915   */\n      add\n        /* \"#utility.yul\":16889:16915   */\n      swap1\n      pop\n        /* \"#utility.yul\":16961:16970   */\n      dup2\n        /* \"#utility.yul\":16955:16959   */\n      dup2\n        /* \"#utility.yul\":16951:16971   */\n      sub\n        /* \"#utility.yul\":16947:16948   */\n      0x00\n        /* \"#utility.yul\":16936:16945   */\n      dup4\n        /* \"#utility.yul\":16932:16949   */\n      add\n        /* \"#utility.yul\":16925:16972   */\n      mstore\n        /* \"#utility.yul\":16989:17120   */\n      tag_757\n        /* \"#utility.yul\":17115:17119   */\n      dup2\n        /* \"#utility.yul\":16989:17120   */\n      tag_636\n      jump\t// in\n    tag_757:\n        /* \"#utility.yul\":16981:17120   */\n      swap1\n      pop\n        /* \"#utility.yul\":16708:17127   */\n      swap2\n      swap1\n      pop\n      jump\t// out\n        /* \"#utility.yul\":17133:17552   */\n    tag_183:\n        /* \"#utility.yul\":17299:17303   */\n      0x00\n        /* \"#utility.yul\":17337:17339   */\n      0x20\n        /* \"#utility.yul\":17326:17335   */\n      dup3\n        /* \"#utility.yul\":17322:17340   */\n      add\n        /* \"#utility.yul\":17314:17340   */\n      swap1\n      pop\n        /* \"#utility.yul\":17386:17395   */\n      dup2\n        /* \"#utility.yul\":17380:17384   */\n      dup2\n        /* \"#utility.yul\":17376:17396   */\n      sub\n        /* \"#utility.yul\":17372:17373   */\n      0x00\n        /* \"#utility.yul\":17361:17370   */\n      dup4\n        /* \"#utility.yul\":17357:17374   */\n      add\n        /* \"#utility.yul\":17350:17397   */\n      mstore\n        /* \"#utility.yul\":17414:17545   */\n      tag_759\n        /* \"#utility.yul\":17540:17544   */\n      dup2\n        /* \"#utility.yul\":17414:17545   */\n      tag_641\n      jump\t// in\n    tag_759:\n        /* \"#utility.yul\":17406:17545   */\n      swap1\n      pop\n        /* \"#utility.yul\":17133:17552   */\n      swap2\n      swap1\n      pop\n      jump\t// out\n        /* \"#utility.yul\":17558:17977   */\n    tag_270:\n        /* \"#utility.yul\":17724:17728   */\n      0x00\n        /* \"#utility.yul\":17762:17764   */\n      0x20\n        /* \"#utility.yul\":17751:17760   */\n      dup3\n        /* \"#utility.yul\":17747:17765   */\n      add\n        /* \"#utility.yul\":17739:17765   */\n      swap1\n      pop\n        /* \"#utility.yul\":17811:17820   */\n      dup2\n        /* \"#utility.yul\":17805:17809   */\n      dup2\n        /* \"#utility.yul\":17801:17821   */\n      sub\n        /* \"#utility.yul\":17797:17798   */\n      0x00\n        /* \"#utility.yul\":17786:17795   */\n      dup4\n        /* \"#utility.yul\":17782:17799   */\n      add\n        /* \"#utility.yul\":17775:17822   */\n      mstore\n        /* \"#utility.yul\":17839:17970   */\n      tag_761\n        /* \"#utility.yul\":17965:17969   */\n      dup2\n        /* \"#utility.yul\":17839:17970   */\n      tag_646\n      jump\t// in\n    tag_761:\n        /* \"#utility.yul\":17831:17970   */\n      swap1\n      pop\n        /* \"#utility.yul\":17558:17977   */\n      swap2\n      swap1\n      pop\n      jump\t// out\n        /* \"#utility.yul\":17983:18402   */\n    tag_508:\n        /* \"#utility.yul\":18149:18153   */\n      0x00\n        /* \"#utility.yul\":18187:18189   */\n      0x20\n        /* \"#utility.yul\":18176:18185   */\n      dup3\n        /* \"#utility.yul\":18172:18190   */\n      add\n        /* \"#utility.yul\":18164:18190   */\n      swap1\n      pop\n        /* \"#utility.yul\":18236:18245   */\n      dup2\n        /* \"#utility.yul\":18230:18234   */\n      dup2\n        /* \"#utility.yul\":18226:18246   */\n      sub\n        /* \"#utility.yul\":18222:18223   */\n      0x00\n        /* \"#utility.yul\":18211:18220   */\n      dup4\n        /* \"#utility.yul\":18207:18224   */\n      add\n        /* \"#utility.yul\":18200:18247   */\n      mstore\n        /* \"#utility.yul\":18264:18395   */\n      tag_763\n        /* \"#utility.yul\":18390:18394   */\n      dup2\n        /* \"#utility.yul\":18264:18395   */\n      tag_651\n      jump\t// in\n    tag_763:\n        /* \"#utility.yul\":18256:18395   */\n      swap1\n      pop\n        /* \"#utility.yul\":17983:18402   */\n      swap2\n      swap1\n      pop\n      jump\t// out\n        /* \"#utility.yul\":18408:18827   */\n    tag_451:\n        /* \"#utility.yul\":18574:18578   */\n      0x00\n        /* \"#utility.yul\":18612:18614   */\n      0x20\n        /* \"#utility.yul\":18601:18610   */\n      dup3\n        /* \"#utility.yul\":18597:18615   */\n      add\n        /* \"#utility.yul\":18589:18615   */\n      swap1\n      pop\n        /* \"#utility.yul\":18661:18670   */\n      dup2\n        /* \"#utility.yul\":18655:18659   */\n      dup2\n        /* \"#utility.yul\":18651:18671   */\n      sub\n        /* \"#utility.yul\":18647:18648   */\n      0x00\n        /* \"#utility.yul\":18636:18645   */\n      dup4\n        /* \"#utility.yul\":18632:18649   */\n      add\n        /* \"#utility.yul\":18625:18672   */\n      mstore\n        /* \"#utility.yul\":18689:18820   */\n      tag_765\n        /* \"#utility.yul\":18815:18819   */\n      dup2\n        /* \"#utility.yul\":18689:18820   */\n      tag_656\n      jump\t// in\n    tag_765:\n        /* \"#utility.yul\":18681:18820   */\n      swap1\n      pop\n        /* \"#utility.yul\":18408:18827   */\n      swap2\n      swap1\n      pop\n      jump\t// out\n        /* \"#utility.yul\":18833:19252   */\n    tag_186:\n        /* \"#utility.yul\":18999:19003   */\n      0x00\n        /* \"#utility.yul\":19037:19039   */\n      0x20\n        /* \"#utility.yul\":19026:19035   */\n      dup3\n        /* \"#utility.yul\":19022:19040   */\n      add\n        /* \"#utility.yul\":19014:19040   */\n      swap1\n      pop\n        /* \"#utility.yul\":19086:19095   */\n      dup2\n        /* \"#utility.yul\":19080:19084   */\n      dup2\n        /* \"#utility.yul\":19076:19096   */\n      sub\n        /* \"#utility.yul\":19072:19073   */\n      0x00\n        /* \"#utility.yul\":19061:19070   */\n      dup4\n        /* \"#utility.yul\":19057:19074   */\n      add\n        /* \"#utility.yul\":19050:19097   */\n      mstore\n        /* \"#utility.yul\":19114:19245   */\n      tag_767\n        /* \"#utility.yul\":19240:19244   */\n      dup2\n        /* \"#utility.yul\":19114:19245   */\n      tag_661\n      jump\t// in\n    tag_767:\n        /* \"#utility.yul\":19106:19245   */\n      swap1\n      pop\n        /* \"#utility.yul\":18833:19252   */\n      swap2\n      swap1\n      pop\n      jump\t// out\n        /* \"#utility.yul\":19258:19677   */\n    tag_366:\n        /* \"#utility.yul\":19424:19428   */\n      0x00\n        /* \"#utility.yul\":19462:19464   */\n      0x20\n        /* \"#utility.yul\":19451:19460   */\n      dup3\n        /* \"#utility.yul\":19447:19465   */\n      add\n        /* \"#utility.yul\":19439:19465   */\n      swap1\n      pop\n        /* \"#utility.yul\":19511:19520   */\n      dup2\n        /* \"#utility.yul\":19505:19509   */\n      dup2\n        /* \"#utility.yul\":19501:19521   */\n      sub\n        /* \"#utility.yul\":19497:19498   */\n      0x00\n        /* \"#utility.yul\":19486:19495   */\n      dup4\n        /* \"#utility.yul\":19482:19499   */\n      add\n        /* \"#utility.yul\":19475:19522   */\n      mstore\n        /* \"#utility.yul\":19539:19670   */\n      tag_769\n        /* \"#utility.yul\":19665:19669   */\n      dup2\n        /* \"#utility.yul\":19539:19670   */\n      tag_666\n      jump\t// in\n    tag_769:\n        /* \"#utility.yul\":19531:19670   */\n      swap1\n      pop\n        /* \"#utility.yul\":19258:19677   */\n      swap2\n      swap1\n      pop\n      jump\t// out\n        /* \"#utility.yul\":19683:20102   */\n    tag_138:\n        /* \"#utility.yul\":19849:19853   */\n      0x00\n        /* \"#utility.yul\":19887:19889   */\n      0x20\n        /* \"#utility.yul\":19876:19885   */\n      dup3\n        /* \"#utility.yul\":19872:19890   */\n      add\n        /* \"#utility.yul\":19864:19890   */\n      swap1\n      pop\n        /* \"#utility.yul\":19936:19945   */\n      dup2\n        /* \"#utility.yul\":19930:19934   */\n      dup2\n        /* \"#utility.yul\":19926:19946   */\n      sub\n        /* \"#utility.yul\":19922:19923   */\n      0x00\n        /* \"#utility.yul\":19911:19920   */\n      dup4\n        /* \"#utility.yul\":19907:19924   */\n      add\n        /* \"#utility.yul\":19900:19947   */\n      mstore\n        /* \"#utility.yul\":19964:20095   */\n      tag_771\n        /* \"#utility.yul\":20090:20094   */\n      dup2\n        /* \"#utility.yul\":19964:20095   */\n      tag_671\n      jump\t// in\n    tag_771:\n        /* \"#utility.yul\":19956:20095   */\n      swap1\n      pop\n        /* \"#utility.yul\":19683:20102   */\n      swap2\n      swap1\n      pop\n      jump\t// out\n        /* \"#utility.yul\":20108:20527   */\n    tag_126:\n        /* \"#utility.yul\":20274:20278   */\n      0x00\n        /* \"#utility.yul\":20312:20314   */\n      0x20\n        /* \"#utility.yul\":20301:20310   */\n      dup3\n        /* \"#utility.yul\":20297:20315   */\n      add\n        /* \"#utility.yul\":20289:20315   */\n      swap1\n      pop\n        /* \"#utility.yul\":20361:20370   */\n      dup2\n        /* \"#utility.yul\":20355:20359   */\n      dup2\n        /* \"#utility.yul\":20351:20371   */\n      sub\n        /* \"#utility.yul\":20347:20348   */\n      0x00\n        /* \"#utility.yul\":20336:20345   */\n      dup4\n        /* \"#utility.yul\":20332:20349   */\n      add\n        /* \"#utility.yul\":20325:20372   */\n      mstore\n        /* \"#utility.yul\":20389:20520   */\n      tag_773\n        /* \"#utility.yul\":20515:20519   */\n      dup2\n        /* \"#utility.yul\":20389:20520   */\n      tag_676\n      jump\t// in\n    tag_773:\n        /* \"#utility.yul\":20381:20520   */\n      swap1\n      pop\n        /* \"#utility.yul\":20108:20527   */\n      swap2\n      swap1\n      pop\n      jump\t// out\n        /* \"#utility.yul\":20533:20952   */\n    tag_193:\n        /* \"#utility.yul\":20699:20703   */\n      0x00\n        /* \"#utility.yul\":20737:20739   */\n      0x20\n        /* \"#utility.yul\":20726:20735   */\n      dup3\n        /* \"#utility.yul\":20722:20740   */\n      add\n        /* \"#utility.yul\":20714:20740   */\n      swap1\n      pop\n        /* \"#utility.yul\":20786:20795   */\n      dup2\n        /* \"#utility.yul\":20780:20784   */\n      dup2\n        /* \"#utility.yul\":20776:20796   */\n      sub\n        /* \"#utility.yul\":20772:20773   */\n      0x00\n        /* \"#utility.yul\":20761:20770   */\n      dup4\n        /* \"#utility.yul\":20757:20774   */\n      add\n        /* \"#utility.yul\":20750:20797   */\n      mstore\n        /* \"#utility.yul\":20814:20945   */\n      tag_775\n        /* \"#utility.yul\":20940:20944   */\n      dup2\n        /* \"#utility.yul\":20814:20945   */\n      tag_681\n      jump\t// in\n    tag_775:\n        /* \"#utility.yul\":20806:20945   */\n      swap1\n      pop\n        /* \"#utility.yul\":20533:20952   */\n      swap2\n      swap1\n      pop\n      jump\t// out\n        /* \"#utility.yul\":20958:21377   */\n    tag_180:\n        /* \"#utility.yul\":21124:21128   */\n      0x00\n        /* \"#utility.yul\":21162:21164   */\n      0x20\n        /* \"#utility.yul\":21151:21160   */\n      dup3\n        /* \"#utility.yul\":21147:21165   */\n      add\n        /* \"#utility.yul\":21139:21165   */\n      swap1\n      pop\n        /* \"#utility.yul\":21211:21220   */\n      dup2\n        /* \"#utility.yul\":21205:21209   */\n      dup2\n        /* \"#utility.yul\":21201:21221   */\n      sub\n        /* \"#utility.yul\":21197:21198   */\n      0x00\n        /* \"#utility.yul\":21186:21195   */\n      dup4\n        /* \"#utility.yul\":21182:21199   */\n      add\n        /* \"#utility.yul\":21175:21222   */\n      mstore\n        /* \"#utility.yul\":21239:21370   */\n      tag_777\n        /* \"#utility.yul\":21365:21369   */\n      dup2\n        /* \"#utility.yul\":21239:21370   */\n      tag_686\n      jump\t// in\n    tag_777:\n        /* \"#utility.yul\":21231:21370   */\n      swap1\n      pop\n        /* \"#utility.yul\":20958:21377   */\n      swap2\n      swap1\n      pop\n      jump\t// out\n        /* \"#utility.yul\":21383:21802   */\n    tag_284:\n        /* \"#utility.yul\":21549:21553   */\n      0x00\n        /* \"#utility.yul\":21587:21589   */\n      0x20\n        /* \"#utility.yul\":21576:21585   */\n      dup3\n        /* \"#utility.yul\":21572:21590   */\n      add\n        /* \"#utility.yul\":21564:21590   */\n      swap1\n      pop\n        /* \"#utility.yul\":21636:21645   */\n      dup2\n        /* \"#utility.yul\":21630:21634   */\n      dup2\n        /* \"#utility.yul\":21626:21646   */\n      sub\n        /* \"#utility.yul\":21622:21623   */\n      0x00\n        /* \"#utility.yul\":21611:21620   */\n      dup4\n        /* \"#utility.yul\":21607:21624   */\n      add\n        /* \"#utility.yul\":21600:21647   */\n      mstore\n        /* \"#utility.yul\":21664:21795   */\n      tag_779\n        /* \"#utility.yul\":21790:21794   */\n      dup2\n        /* \"#utility.yul\":21664:21795   */\n      tag_691\n      jump\t// in\n    tag_779:\n        /* \"#utility.yul\":21656:21795   */\n      swap1\n      pop\n        /* \"#utility.yul\":21383:21802   */\n      swap2\n      swap1\n      pop\n      jump\t// out\n        /* \"#utility.yul\":21808:22227   */\n    tag_176:\n        /* \"#utility.yul\":21974:21978   */\n      0x00\n        /* \"#utility.yul\":22012:22014   */\n      0x20\n        /* \"#utility.yul\":22001:22010   */\n      dup3\n        /* \"#utility.yul\":21997:22015   */\n      add\n        /* \"#utility.yul\":21989:22015   */\n      swap1\n      pop\n        /* \"#utility.yul\":22061:22070   */\n      dup2\n        /* \"#utility.yul\":22055:22059   */\n      dup2\n        /* \"#utility.yul\":22051:22071   */\n      sub\n        /* \"#utility.yul\":22047:22048   */\n      0x00\n        /* \"#utility.yul\":22036:22045   */\n      dup4\n        /* \"#utility.yul\":22032:22049   */\n      add\n        /* \"#utility.yul\":22025:22072   */\n      mstore\n        /* \"#utility.yul\":22089:22220   */\n      tag_781\n        /* \"#utility.yul\":22215:22219   */\n      dup2\n        /* \"#utility.yul\":22089:22220   */\n      tag_696\n      jump\t// in\n    tag_781:\n        /* \"#utility.yul\":22081:22220   */\n      swap1\n      pop\n        /* \"#utility.yul\":21808:22227   */\n      swap2\n      swap1\n      pop\n      jump\t// out\n        /* \"#utility.yul\":22233:22652   */\n    tag_347:\n        /* \"#utility.yul\":22399:22403   */\n      0x00\n        /* \"#utility.yul\":22437:22439   */\n      0x20\n        /* \"#utility.yul\":22426:22435   */\n      dup3\n        /* \"#utility.yul\":22422:22440   */\n      add\n        /* \"#utility.yul\":22414:22440   */\n      swap1\n      pop\n        /* \"#utility.yul\":22486:22495   */\n      dup2\n        /* \"#utility.yul\":22480:22484   */\n      dup2\n        /* \"#utility.yul\":22476:22496   */\n      sub\n        /* \"#utility.yul\":22472:22473   */\n      0x00\n        /* \"#utility.yul\":22461:22470   */\n      dup4\n        /* \"#utility.yul\":22457:22474   */\n      add\n        /* \"#utility.yul\":22450:22497   */\n      mstore\n        /* \"#utility.yul\":22514:22645   */\n      tag_783\n        /* \"#utility.yul\":22640:22644   */\n      dup2\n        /* \"#utility.yul\":22514:22645   */\n      tag_701\n      jump\t// in\n    tag_783:\n        /* \"#utility.yul\":22506:22645   */\n      swap1\n      pop\n        /* \"#utility.yul\":22233:22652   */\n      swap2\n      swap1\n      pop\n      jump\t// out\n        /* \"#utility.yul\":22658:23077   */\n    tag_277:\n        /* \"#utility.yul\":22824:22828   */\n      0x00\n        /* \"#utility.yul\":22862:22864   */\n      0x20\n        /* \"#utility.yul\":22851:22860   */\n      dup3\n        /* \"#utility.yul\":22847:22865   */\n      add\n        /* \"#utility.yul\":22839:22865   */\n      swap1\n      pop\n        /* \"#utility.yul\":22911:22920   */\n      dup2\n        /* \"#utility.yul\":22905:22909   */\n      dup2\n        /* \"#utility.yul\":22901:22921   */\n      sub\n        /* \"#utility.yul\":22897:22898   */\n      0x00\n        /* \"#utility.yul\":22886:22895   */\n      dup4\n        /* \"#utility.yul\":22882:22899   */\n      add\n        /* \"#utility.yul\":22875:22922   */\n      mstore\n        /* \"#utility.yul\":22939:23070   */\n      tag_785\n        /* \"#utility.yul\":23065:23069   */\n      dup2\n        /* \"#utility.yul\":22939:23070   */\n      tag_706\n      jump\t// in\n    tag_785:\n        /* \"#utility.yul\":22931:23070   */\n      swap1\n      pop\n        /* \"#utility.yul\":22658:23077   */\n      swap2\n      swap1\n      pop\n      jump\t// out\n        /* \"#utility.yul\":23083:23502   */\n    tag_199:\n        /* \"#utility.yul\":23249:23253   */\n      0x00\n        /* \"#utility.yul\":23287:23289   */\n      0x20\n        /* \"#utility.yul\":23276:23285   */\n      dup3\n        /* \"#utility.yul\":23272:23290   */\n      add\n        /* \"#utility.yul\":23264:23290   */\n      swap1\n      pop\n        /* \"#utility.yul\":23336:23345   */\n      dup2\n        /* \"#utility.yul\":23330:23334   */\n      dup2\n        /* \"#utility.yul\":23326:23346   */\n      sub\n        /* \"#utility.yul\":23322:23323   */\n      0x00\n        /* \"#utility.yul\":23311:23320   */\n      dup4\n        /* \"#utility.yul\":23307:23324   */\n      add\n        /* \"#utility.yul\":23300:23347   */\n      mstore\n        /* \"#utility.yul\":23364:23495   */\n      tag_787\n        /* \"#utility.yul\":23490:23494   */\n      dup2\n        /* \"#utility.yul\":23364:23495   */\n      tag_711\n      jump\t// in\n    tag_787:\n        /* \"#utility.yul\":23356:23495   */\n      swap1\n      pop\n        /* \"#utility.yul\":23083:23502   */\n      swap2\n      swap1\n      pop\n      jump\t// out\n        /* \"#utility.yul\":23508:23927   */\n    tag_517:\n        /* \"#utility.yul\":23674:23678   */\n      0x00\n        /* \"#utility.yul\":23712:23714   */\n      0x20\n        /* \"#utility.yul\":23701:23710   */\n      dup3\n        /* \"#utility.yul\":23697:23715   */\n      add\n        /* \"#utility.yul\":23689:23715   */\n      swap1\n      pop\n        /* \"#utility.yul\":23761:23770   */\n      dup2\n        /* \"#utility.yul\":23755:23759   */\n      dup2\n        /* \"#utility.yul\":23751:23771   */\n      sub\n        /* \"#utility.yul\":23747:23748   */\n      0x00\n        /* \"#utility.yul\":23736:23745   */\n      dup4\n        /* \"#utility.yul\":23732:23749   */\n      add\n        /* \"#utility.yul\":23725:23772   */\n      mstore\n        /* \"#utility.yul\":23789:23920   */\n      tag_789\n        /* \"#utility.yul\":23915:23919   */\n      dup2\n        /* \"#utility.yul\":23789:23920   */\n      tag_716\n      jump\t// in\n    tag_789:\n        /* \"#utility.yul\":23781:23920   */\n      swap1\n      pop\n        /* \"#utility.yul\":23508:23927   */\n      swap2\n      swap1\n      pop\n      jump\t// out\n        /* \"#utility.yul\":23933:24352   */\n    tag_400:\n        /* \"#utility.yul\":24099:24103   */\n      0x00\n        /* \"#utility.yul\":24137:24139   */\n      0x20\n        /* \"#utility.yul\":24126:24135   */\n      dup3\n        /* \"#utility.yul\":24122:24140   */\n      add\n        /* \"#utility.yul\":24114:24140   */\n      swap1\n      pop\n        /* \"#utility.yul\":24186:24195   */\n      dup2\n        /* \"#utility.yul\":24180:24184   */\n      dup2\n        /* \"#utility.yul\":24176:24196   */\n      sub\n        /* \"#utility.yul\":24172:24173   */\n      0x00\n        /* \"#utility.yul\":24161:24170   */\n      dup4\n        /* \"#utility.yul\":24157:24174   */\n      add\n        /* \"#utility.yul\":24150:24197   */\n      mstore\n        /* \"#utility.yul\":24214:24345   */\n      tag_791\n        /* \"#utility.yul\":24340:24344   */\n      dup2\n        /* \"#utility.yul\":24214:24345   */\n      tag_721\n      jump\t// in\n    tag_791:\n        /* \"#utility.yul\":24206:24345   */\n      swap1\n      pop\n        /* \"#utility.yul\":23933:24352   */\n      swap2\n      swap1\n      pop\n      jump\t// out\n        /* \"#utility.yul\":24358:24580   */\n    tag_64:\n        /* \"#utility.yul\":24451:24455   */\n      0x00\n        /* \"#utility.yul\":24489:24491   */\n      0x20\n        /* \"#utility.yul\":24478:24487   */\n      dup3\n        /* \"#utility.yul\":24474:24492   */\n      add\n        /* \"#utility.yul\":24466:24492   */\n      swap1\n      pop\n        /* \"#utility.yul\":24502:24573   */\n      tag_793\n        /* \"#utility.yul\":24570:24571   */\n      0x00\n        /* \"#utility.yul\":24559:24568   */\n      dup4\n        /* \"#utility.yul\":24555:24572   */\n      add\n        /* \"#utility.yul\":24546:24552   */\n      dup5\n        /* \"#utility.yul\":24502:24573   */\n      tag_726\n      jump\t// in\n    tag_793:\n        /* \"#utility.yul\":24358:24580   */\n      swap3\n      swap2\n      pop\n      pop\n      jump\t// out\n        /* \"#utility.yul\":24586:24918   */\n    tag_53:\n        /* \"#utility.yul\":24707:24711   */\n      0x00\n        /* \"#utility.yul\":24745:24747   */\n      0x40\n        /* \"#utility.yul\":24734:24743   */\n      dup3\n        /* \"#utility.yul\":24730:24748   */\n      add\n        /* \"#utility.yul\":24722:24748   */\n      swap1\n      pop\n        /* \"#utility.yul\":24758:24829   */\n      tag_795\n        /* \"#utility.yul\":24826:24827   */\n      0x00\n        /* \"#utility.yul\":24815:24824   */\n      dup4\n        /* \"#utility.yul\":24811:24828   */\n      add\n        /* \"#utility.yul\":24802:24808   */\n      dup6\n        /* \"#utility.yul\":24758:24829   */\n      tag_726\n      jump\t// in\n    tag_795:\n        /* \"#utility.yul\":24839:24911   */\n      tag_796\n        /* \"#utility.yul\":24907:24909   */\n      0x20\n        /* \"#utility.yul\":24896:24905   */\n      dup4\n        /* \"#utility.yul\":24892:24910   */\n      add\n        /* \"#utility.yul\":24883:24889   */\n      dup5\n        /* \"#utility.yul\":24839:24911   */\n      tag_726\n      jump\t// in\n    tag_796:\n        /* \"#utility.yul\":24586:24918   */\n      swap4\n      swap3\n      pop\n      pop\n      pop\n      jump\t// out\n        /* \"#utility.yul\":24924:25366   */\n    tag_246:\n        /* \"#utility.yul\":25073:25077   */\n      0x00\n        /* \"#utility.yul\":25111:25113   */\n      0x60\n        /* \"#utility.yul\":25100:25109   */\n      dup3\n        /* \"#utility.yul\":25096:25114   */\n      add\n        /* \"#utility.yul\":25088:25114   */\n      swap1\n      pop\n        /* \"#utility.yul\":25124:25195   */\n      tag_798\n        /* \"#utility.yul\":25192:25193   */\n      0x00\n        /* \"#utility.yul\":25181:25190   */\n      dup4\n        /* \"#utility.yul\":25177:25194   */\n      add\n        /* \"#utility.yul\":25168:25174   */\n      dup7\n        /* \"#utility.yul\":25124:25195   */\n      tag_726\n      jump\t// in\n    tag_798:\n        /* \"#utility.yul\":25205:25277   */\n      tag_799\n        /* \"#utility.yul\":25273:25275   */\n      0x20\n        /* \"#utility.yul\":25262:25271   */\n      dup4\n        /* \"#utility.yul\":25258:25276   */\n      add\n        /* \"#utility.yul\":25249:25255   */\n      dup6\n        /* \"#utility.yul\":25205:25277   */\n      tag_726\n      jump\t// in\n    tag_799:\n        /* \"#utility.yul\":25287:25359   */\n      tag_800\n        /* \"#utility.yul\":25355:25357   */\n      0x40\n        /* \"#utility.yul\":25344:25353   */\n      dup4\n        /* \"#utility.yul\":25340:25358   */\n      add\n        /* \"#utility.yul\":25331:25337   */\n      dup5\n        /* \"#utility.yul\":25287:25359   */\n      tag_726\n      jump\t// in\n    tag_800:\n        /* \"#utility.yul\":24924:25366   */\n      swap5\n      swap4\n      pop\n      pop\n      pop\n      pop\n      jump\t// out\n        /* \"#utility.yul\":25372:25925   */\n    tag_43:\n        /* \"#utility.yul\":25549:25553   */\n      0x00\n        /* \"#utility.yul\":25587:25590   */\n      0x80\n        /* \"#utility.yul\":25576:25585   */\n      dup3\n        /* \"#utility.yul\":25572:25591   */\n      add\n        /* \"#utility.yul\":25564:25591   */\n      swap1\n      pop\n        /* \"#utility.yul\":25601:25672   */\n      tag_802\n        /* \"#utility.yul\":25669:25670   */\n      0x00\n        /* \"#utility.yul\":25658:25667   */\n      dup4\n        /* \"#utility.yul\":25654:25671   */\n      add\n        /* \"#utility.yul\":25645:25651   */\n      dup8\n        /* \"#utility.yul\":25601:25672   */\n      tag_726\n      jump\t// in\n    tag_802:\n        /* \"#utility.yul\":25682:25754   */\n      tag_803\n        /* \"#utility.yul\":25750:25752   */\n      0x20\n        /* \"#utility.yul\":25739:25748   */\n      dup4\n        /* \"#utility.yul\":25735:25753   */\n      add\n        /* \"#utility.yul\":25726:25732   */\n      dup7\n        /* \"#utility.yul\":25682:25754   */\n      tag_726\n      jump\t// in\n    tag_803:\n        /* \"#utility.yul\":25764:25836   */\n      tag_804\n        /* \"#utility.yul\":25832:25834   */\n      0x40\n        /* \"#utility.yul\":25821:25830   */\n      dup4\n        /* \"#utility.yul\":25817:25835   */\n      add\n        /* \"#utility.yul\":25808:25814   */\n      dup6\n        /* \"#utility.yul\":25764:25836   */\n      tag_726\n      jump\t// in\n    tag_804:\n        /* \"#utility.yul\":25846:25918   */\n      tag_805\n        /* \"#utility.yul\":25914:25916   */\n      0x60\n        /* \"#utility.yul\":25903:25912   */\n      dup4\n        /* \"#utility.yul\":25899:25917   */\n      add\n        /* \"#utility.yul\":25890:25896   */\n      dup5\n        /* \"#utility.yul\":25846:25918   */\n      tag_726\n      jump\t// in\n    tag_805:\n        /* \"#utility.yul\":25372:25925   */\n      swap6\n      swap5\n      pop\n      pop\n      pop\n      pop\n      pop\n      jump\t// out\n        /* \"#utility.yul\":26012:26110   */\n    tag_609:\n        /* \"#utility.yul\":26063:26069   */\n      0x00\n        /* \"#utility.yul\":26097:26102   */\n      dup2\n        /* \"#utility.yul\":26091:26103   */\n      mload\n        /* \"#utility.yul\":26081:26103   */\n      swap1\n      pop\n        /* \"#utility.yul\":26012:26110   */\n      swap2\n      swap1\n      pop\n      jump\t// out\n        /* \"#utility.yul\":26116:26215   */\n    tag_625:\n        /* \"#utility.yul\":26168:26174   */\n      0x00\n        /* \"#utility.yul\":26202:26207   */\n      dup2\n        /* \"#utility.yul\":26196:26208   */\n      mload\n        /* \"#utility.yul\":26186:26208   */\n      swap1\n      pop\n        /* \"#utility.yul\":26116:26215   */\n      swap2\n      swap1\n      pop\n      jump\t// out\n        /* \"#utility.yul\":26221:26405   */\n    tag_600:\n        /* \"#utility.yul\":26320:26331   */\n      0x00\n        /* \"#utility.yul\":26354:26360   */\n      dup3\n        /* \"#utility.yul\":26349:26352   */\n      dup3\n        /* \"#utility.yul\":26342:26361   */\n      mstore\n        /* \"#utility.yul\":26394:26398   */\n      0x20\n        /* \"#utility.yul\":26389:26392   */\n      dup3\n        /* \"#utility.yul\":26385:26399   */\n      add\n        /* \"#utility.yul\":26370:26399   */\n      swap1\n      pop\n        /* \"#utility.yul\":26221:26405   */\n      swap3\n      swap2\n      pop\n      pop\n      jump\t// out\n        /* \"#utility.yul\":26411:26558   */\n    tag_611:\n        /* \"#utility.yul\":26512:26523   */\n      0x00\n        /* \"#utility.yul\":26549:26552   */\n      dup2\n        /* \"#utility.yul\":26534:26552   */\n      swap1\n      pop\n        /* \"#utility.yul\":26411:26558   */\n      swap3\n      swap2\n      pop\n      pop\n      jump\t// out\n        /* \"#utility.yul\":26564:26733   */\n    tag_627:\n        /* \"#utility.yul\":26648:26659   */\n      0x00\n        /* \"#utility.yul\":26682:26688   */\n      dup3\n        /* \"#utility.yul\":26677:26680   */\n      dup3\n        /* \"#utility.yul\":26670:26689   */\n      mstore\n        /* \"#utility.yul\":26722:26726   */\n      0x20\n        /* \"#utility.yul\":26717:26720   */\n      dup3\n        /* \"#utility.yul\":26713:26727   */\n      add\n        /* \"#utility.yul\":26698:26727   */\n      swap1\n      pop\n        /* \"#utility.yul\":26564:26733   */\n      swap3\n      swap2\n      pop\n      pop\n      jump\t// out\n        /* \"#utility.yul\":26739:27044   */\n    tag_131:\n        /* \"#utility.yul\":26779:26782   */\n      0x00\n        /* \"#utility.yul\":26798:26818   */\n      tag_814\n        /* \"#utility.yul\":26816:26817   */\n      dup3\n        /* \"#utility.yul\":26798:26818   */\n      tag_729\n      jump\t// in\n    tag_814:\n        /* \"#utility.yul\":26793:26818   */\n      swap2\n      pop\n        /* \"#utility.yul\":26832:26852   */\n      tag_815\n        /* \"#utility.yul\":26850:26851   */\n      dup4\n        /* \"#utility.yul\":26832:26852   */\n      tag_729\n      jump\t// in\n    tag_815:\n        /* \"#utility.yul\":26827:26852   */\n      swap3\n      pop\n        /* \"#utility.yul\":26986:26987   */\n      dup3\n        /* \"#utility.yul\":26918:26984   */\n      0xffffffffffffffffffffffffffffffffffffffffffffffffffffffffffffffff\n        /* \"#utility.yul\":26914:26988   */\n      sub\n        /* \"#utility.yul\":26911:26912   */\n      dup3\n        /* \"#utility.yul\":26908:26989   */\n      gt\n        /* \"#utility.yul\":26905:27012   */\n      iszero\n      tag_816\n      jumpi\n        /* \"#utility.yul\":26992:27010   */\n      tag_817\n      tag_818\n      jump\t// in\n    tag_817:\n        /* \"#utility.yul\":26905:27012   */\n    tag_816:\n        /* \"#utility.yul\":27036:27037   */\n      dup3\n        /* \"#utility.yul\":27033:27034   */\n      dup3\n        /* \"#utility.yul\":27029:27038   */\n      add\n        /* \"#utility.yul\":27022:27038   */\n      swap1\n      pop\n        /* \"#utility.yul\":26739:27044   */\n      swap3\n      swap2\n      pop\n      pop\n      jump\t// out\n        /* \"#utility.yul\":27050:27235   */\n    tag_473:\n        /* \"#utility.yul\":27090:27091   */\n      0x00\n        /* \"#utility.yul\":27107:27127   */\n      tag_820\n        /* \"#utility.yul\":27125:27126   */\n      dup3\n        /* \"#utility.yul\":27107:27127   */\n      tag_729\n      jump\t// in\n    tag_820:\n        /* \"#utility.yul\":27102:27127   */\n      swap2\n      pop\n        /* \"#utility.yul\":27141:27161   */\n      tag_821\n        /* \"#utility.yul\":27159:27160   */\n      dup4\n        /* \"#utility.yul\":27141:27161   */\n      tag_729\n      jump\t// in\n    tag_821:\n        /* \"#utility.yul\":27136:27161   */\n      swap3\n      pop\n        /* \"#utility.yul\":27180:27181   */\n      dup3\n        /* \"#utility.yul\":27170:27205   */\n      tag_822\n      jumpi\n        /* \"#utility.yul\":27185:27203   */\n      tag_823\n      tag_824\n      jump\t// in\n    tag_823:\n        /* \"#utility.yul\":27170:27205   */\n    tag_822:\n        /* \"#utility.yul\":27227:27228   */\n      dup3\n        /* \"#utility.yul\":27224:27225   */\n      dup3\n        /* \"#utility.yul\":27220:27229   */\n      div\n        /* \"#utility.yul\":27215:27229   */\n      swap1\n      pop\n        /* \"#utility.yul\":27050:27235   */\n      swap3\n      swap2\n      pop\n      pop\n      jump\t// out\n        /* \"#utility.yul\":27241:27589   */\n    tag_470:\n        /* \"#utility.yul\":27281:27288   */\n      0x00\n        /* \"#utility.yul\":27304:27324   */\n      tag_826\n        /* \"#utility.yul\":27322:27323   */\n      dup3\n        /* \"#utility.yul\":27304:27324   */\n      tag_729\n      jump\t// in\n    tag_826:\n        /* \"#utility.yul\":27299:27324   */\n      swap2\n      pop\n        /* \"#utility.yul\":27338:27358   */\n      tag_827\n        /* \"#utility.yul\":27356:27357   */\n      dup4\n        /* \"#utility.yul\":27338:27358   */\n      tag_729\n      jump\t// in\n    tag_827:\n        /* \"#utility.yul\":27333:27358   */\n      swap3\n      pop\n        /* \"#utility.yul\":27526:27527   */\n      dup2\n        /* \"#utility.yul\":27458:27524   */\n      0xffffffffffffffffffffffffffffffffffffffffffffffffffffffffffffffff\n        /* \"#utility.yul\":27454:27528   */\n      div\n        /* \"#utility.yul\":27451:27452   */\n      dup4\n        /* \"#utility.yul\":27448:27529   */\n      gt\n        /* \"#utility.yul\":27443:27444   */\n      dup3\n        /* \"#utility.yul\":27436:27445   */\n      iszero\n        /* \"#utility.yul\":27429:27446   */\n      iszero\n        /* \"#utility.yul\":27425:27530   */\n      and\n        /* \"#utility.yul\":27422:27553   */\n      iszero\n      tag_828\n      jumpi\n        /* \"#utility.yul\":27533:27551   */\n      tag_829\n      tag_818\n      jump\t// in\n    tag_829:\n        /* \"#utility.yul\":27422:27553   */\n    tag_828:\n        /* \"#utility.yul\":27581:27582   */\n      dup3\n        /* \"#utility.yul\":27578:27579   */\n      dup3\n        /* \"#utility.yul\":27574:27583   */\n      mul\n        /* \"#utility.yul\":27563:27583   */\n      swap1\n      pop\n        /* \"#utility.yul\":27241:27589   */\n      swap3\n      swap2\n      pop\n      pop\n      jump\t// out\n        /* \"#utility.yul\":27595:27786   */\n    tag_202:\n        /* \"#utility.yul\":27635:27639   */\n      0x00\n        /* \"#utility.yul\":27655:27675   */\n      tag_831\n        /* \"#utility.yul\":27673:27674   */\n      dup3\n        /* \"#utility.yul\":27655:27675   */\n      tag_729\n      jump\t// in\n    tag_831:\n        /* \"#utility.yul\":27650:27675   */\n      swap2\n      pop\n        /* \"#utility.yul\":27689:27709   */\n      tag_832\n        /* \"#utility.yul\":27707:27708   */\n      dup4\n        /* \"#utility.yul\":27689:27709   */\n      tag_729\n      jump\t// in\n    tag_832:\n        /* \"#utility.yul\":27684:27709   */\n      swap3\n      pop\n        /* \"#utility.yul\":27728:27729   */\n      dup3\n        /* \"#utility.yul\":27725:27726   */\n      dup3\n        /* \"#utility.yul\":27722:27730   */\n      lt\n        /* \"#utility.yul\":27719:27753   */\n      iszero\n      tag_833\n      jumpi\n        /* \"#utility.yul\":27733:27751   */\n      tag_834\n      tag_818\n      jump\t// in\n    tag_834:\n        /* \"#utility.yul\":27719:27753   */\n    tag_833:\n        /* \"#utility.yul\":27778:27779   */\n      dup3\n        /* \"#utility.yul\":27775:27776   */\n      dup3\n        /* \"#utility.yul\":27771:27780   */\n      sub\n        /* \"#utility.yul\":27763:27780   */\n      swap1\n      pop\n        /* \"#utility.yul\":27595:27786   */\n      swap3\n      swap2\n      pop\n      pop\n      jump\t// out\n        /* \"#utility.yul\":27792:27888   */\n    tag_596:\n        /* \"#utility.yul\":27829:27836   */\n      0x00\n        /* \"#utility.yul\":27858:27882   */\n      tag_836\n        /* \"#utility.yul\":27876:27881   */\n      dup3\n        /* \"#utility.yul\":27858:27882   */\n      tag_837\n      jump\t// in\n    tag_836:\n        /* \"#utility.yul\":27847:27882   */\n      swap1\n      pop\n        /* \"#utility.yul\":27792:27888   */\n      swap2\n      swap1\n      pop\n      jump\t// out\n        /* \"#utility.yul\":27894:27984   */\n    tag_838:\n        /* \"#utility.yul\":27928:27935   */\n      0x00\n        /* \"#utility.yul\":27971:27976   */\n      dup2\n        /* \"#utility.yul\":27964:27977   */\n      iszero\n        /* \"#utility.yul\":27957:27978   */\n      iszero\n        /* \"#utility.yul\":27946:27978   */\n      swap1\n      pop\n        /* \"#utility.yul\":27894:27984   */\n      swap2\n      swap1\n      pop\n      jump\t// out\n        /* \"#utility.yul\":27990:28116   */\n    tag_837:\n        /* \"#utility.yul\":28027:28034   */\n      0x00\n        /* \"#utility.yul\":28067:28109   */\n      0xffffffffffffffffffffffffffffffffffffffff\n        /* \"#utility.yul\":28060:28065   */\n      dup3\n        /* \"#utility.yul\":28056:28110   */\n      and\n        /* \"#utility.yul\":28045:28110   */\n      swap1\n      pop\n        /* \"#utility.yul\":27990:28116   */\n      swap2\n      swap1\n      pop\n      jump\t// out\n        /* \"#utility.yul\":28122:28199   */\n    tag_729:\n        /* \"#utility.yul\":28159:28166   */\n      0x00\n        /* \"#utility.yul\":28188:28193   */\n      dup2\n        /* \"#utility.yul\":28177:28193   */\n      swap1\n      pop\n        /* \"#utility.yul\":28122:28199   */\n      swap2\n      swap1\n      pop\n      jump\t// out\n        /* \"#utility.yul\":28205:28345   */\n    tag_617:\n        /* \"#utility.yul\":28269:28278   */\n      0x00\n        /* \"#utility.yul\":28302:28339   */\n      tag_843\n        /* \"#utility.yul\":28333:28338   */\n      dup3\n        /* \"#utility.yul\":28302:28339   */\n      tag_844\n      jump\t// in\n    tag_843:\n        /* \"#utility.yul\":28289:28339   */\n      swap1\n      pop\n        /* \"#utility.yul\":28205:28345   */\n      swap2\n      swap1\n      pop\n      jump\t// out\n        /* \"#utility.yul\":28351:28493   */\n    tag_621:\n        /* \"#utility.yul\":28417:28426   */\n      0x00\n        /* \"#utility.yul\":28450:28487   */\n      tag_846\n        /* \"#utility.yul\":28481:28486   */\n      dup3\n        /* \"#utility.yul\":28450:28487   */\n      tag_844\n      jump\t// in\n    tag_846:\n        /* \"#utility.yul\":28437:28487   */\n      swap1\n      pop\n        /* \"#utility.yul\":28351:28493   */\n      swap2\n      swap1\n      pop\n      jump\t// out\n        /* \"#utility.yul\":28499:28625   */\n    tag_844:\n        /* \"#utility.yul\":28549:28558   */\n      0x00\n        /* \"#utility.yul\":28582:28619   */\n      tag_848\n        /* \"#utility.yul\":28613:28618   */\n      dup3\n        /* \"#utility.yul\":28582:28619   */\n      tag_849\n      jump\t// in\n    tag_848:\n        /* \"#utility.yul\":28569:28619   */\n      swap1\n      pop\n        /* \"#utility.yul\":28499:28625   */\n      swap2\n      swap1\n      pop\n      jump\t// out\n        /* \"#utility.yul\":28631:28744   */\n    tag_849:\n        /* \"#utility.yul\":28681:28690   */\n      0x00\n        /* \"#utility.yul\":28714:28738   */\n      tag_851\n        /* \"#utility.yul\":28732:28737   */\n      dup3\n        /* \"#utility.yul\":28714:28738   */\n      tag_837\n      jump\t// in\n    tag_851:\n        /* \"#utility.yul\":28701:28738   */\n      swap1\n      pop\n        /* \"#utility.yul\":28631:28744   */\n      swap2\n      swap1\n      pop\n      jump\t// out\n        /* \"#utility.yul\":28750:28904   */\n    tag_605:\n        /* \"#utility.yul\":28834:28840   */\n      dup3\n        /* \"#utility.yul\":28829:28832   */\n      dup2\n        /* \"#utility.yul\":28824:28827   */\n      dup4\n        /* \"#utility.yul\":28811:28841   */\n      calldatacopy\n        /* \"#utility.yul\":28896:28897   */\n      0x00\n        /* \"#utility.yul\":28887:28893   */\n      dup4\n        /* \"#utility.yul\":28882:28885   */\n      dup4\n        /* \"#utility.yul\":28878:28894   */\n      add\n        /* \"#utility.yul\":28871:28898   */\n      mstore\n        /* \"#utility.yul\":28750:28904   */\n      pop\n      pop\n      pop\n      jump\t// out\n        /* \"#utility.yul\":28910:29217   */\n    tag_613:\n        /* \"#utility.yul\":28978:28979   */\n      0x00\n        /* \"#utility.yul\":28988:29101   */\n    tag_854:\n        /* \"#utility.yul\":29002:29008   */\n      dup4\n        /* \"#utility.yul\":28999:29000   */\n      dup2\n        /* \"#utility.yul\":28996:29009   */\n      lt\n        /* \"#utility.yul\":28988:29101   */\n      iszero\n      tag_856\n      jumpi\n        /* \"#utility.yul\":29087:29088   */\n      dup1\n        /* \"#utility.yul\":29082:29085   */\n      dup3\n        /* \"#utility.yul\":29078:29089   */\n      add\n        /* \"#utility.yul\":29072:29090   */\n      mload\n        /* \"#utility.yul\":29068:29069   */\n      dup2\n        /* \"#utility.yul\":29063:29066   */\n      dup5\n        /* \"#utility.yul\":29059:29070   */\n      add\n        /* \"#utility.yul\":29052:29091   */\n      mstore\n        /* \"#utility.yul\":29024:29026   */\n      0x20\n        /* \"#utility.yul\":29021:29022   */\n      dup2\n        /* \"#utility.yul\":29017:29027   */\n      add\n        /* \"#utility.yul\":29012:29027   */\n      swap1\n      pop\n        /* \"#utility.yul\":28988:29101   */\n      jump(tag_854)\n    tag_856:\n        /* \"#utility.yul\":29119:29125   */\n      dup4\n        /* \"#utility.yul\":29116:29117   */\n      dup2\n        /* \"#utility.yul\":29113:29126   */\n      gt\n        /* \"#utility.yul\":29110:29211   */\n      iszero\n      tag_857\n      jumpi\n        /* \"#utility.yul\":29199:29200   */\n      0x00\n        /* \"#utility.yul\":29190:29196   */\n      dup5\n        /* \"#utility.yul\":29185:29188   */\n      dup5\n        /* \"#utility.yul\":29181:29197   */\n      add\n        /* \"#utility.yul\":29174:29201   */\n      mstore\n        /* \"#utility.yul\":29110:29211   */\n    tag_857:\n        /* \"#utility.yul\":28959:29217   */\n      pop\n        /* \"#utility.yul\":28910:29217   */\n      pop\n      pop\n      pop\n      jump\t// out\n        /* \"#utility.yul\":29223:29456   */\n    tag_140:\n        /* \"#utility.yul\":29262:29265   */\n      0x00\n        /* \"#utility.yul\":29285:29309   */\n      tag_859\n        /* \"#utility.yul\":29303:29308   */\n      dup3\n        /* \"#utility.yul\":29285:29309   */\n      tag_729\n      jump\t// in\n    tag_859:\n        /* \"#utility.yul\":29276:29309   */\n      swap2\n      pop\n        /* \"#utility.yul\":29331:29397   */\n      0xffffffffffffffffffffffffffffffffffffffffffffffffffffffffffffffff\n        /* \"#utility.yul\":29324:29329   */\n      dup3\n        /* \"#utility.yul\":29321:29398   */\n      eq\n        /* \"#utility.yul\":29318:29421   */\n      iszero\n      tag_860\n      jumpi\n        /* \"#utility.yul\":29401:29419   */\n      tag_861\n      tag_818\n      jump\t// in\n    tag_861:\n        /* \"#utility.yul\":29318:29421   */\n    tag_860:\n        /* \"#utility.yul\":29448:29449   */\n      0x01\n        /* \"#utility.yul\":29441:29446   */\n      dup3\n        /* \"#utility.yul\":29437:29450   */\n      add\n        /* \"#utility.yul\":29430:29450   */\n      swap1\n      pop\n        /* \"#utility.yul\":29223:29456   */\n      swap2\n      swap1\n      pop\n      jump\t// out\n        /* \"#utility.yul\":29462:29642   */\n    tag_818:\n        /* \"#utility.yul\":29510:29587   */\n      0x4e487b7100000000000000000000000000000000000000000000000000000000\n        /* \"#utility.yul\":29507:29508   */\n      0x00\n        /* \"#utility.yul\":29500:29588   */\n      mstore\n        /* \"#utility.yul\":29607:29611   */\n      0x11\n        /* \"#utility.yul\":29604:29605   */\n      0x04\n        /* \"#utility.yul\":29597:29612   */\n      mstore\n        /* \"#utility.yul\":29631:29635   */\n      0x24\n        /* \"#utility.yul\":29628:29629   */\n      0x00\n        /* \"#utility.yul\":29621:29636   */\n      revert\n        /* \"#utility.yul\":29648:29828   */\n    tag_824:\n        /* \"#utility.yul\":29696:29773   */\n      0x4e487b7100000000000000000000000000000000000000000000000000000000\n        /* \"#utility.yul\":29693:29694   */\n      0x00\n        /* \"#utility.yul\":29686:29774   */\n      mstore\n        /* \"#utility.yul\":29793:29797   */\n      0x12\n        /* \"#utility.yul\":29790:29791   */\n      0x04\n        /* \"#utility.yul\":29783:29798   */\n      mstore\n        /* \"#utility.yul\":29817:29821   */\n      0x24\n        /* \"#utility.yul\":29814:29815   */\n      0x00\n        /* \"#utility.yul\":29807:29822   */\n      revert\n        /* \"#utility.yul\":29834:30014   */\n    tag_387:\n        /* \"#utility.yul\":29882:29959   */\n      0x4e487b7100000000000000000000000000000000000000000000000000000000\n        /* \"#utility.yul\":29879:29880   */\n      0x00\n        /* \"#utility.yul\":29872:29960   */\n      mstore\n        /* \"#utility.yul\":29979:29983   */\n      0x31\n        /* \"#utility.yul\":29976:29977   */\n      0x04\n        /* \"#utility.yul\":29969:29984   */\n      mstore\n        /* \"#utility.yul\":30003:30007   */\n      0x24\n        /* \"#utility.yul\":30000:30001   */\n      0x00\n        /* \"#utility.yul\":29993:30008   */\n      revert\n        /* \"#utility.yul\":30020:30200   */\n    tag_123:\n        /* \"#utility.yul\":30068:30145   */\n      0x4e487b7100000000000000000000000000000000000000000000000000000000\n        /* \"#utility.yul\":30065:30066   */\n      0x00\n        /* \"#utility.yul\":30058:30146   */\n      mstore\n        /* \"#utility.yul\":30165:30169   */\n      0x32\n        /* \"#utility.yul\":30162:30163   */\n      0x04\n        /* \"#utility.yul\":30155:30170   */\n      mstore\n        /* \"#utility.yul\":30189:30193   */\n      0x24\n        /* \"#utility.yul\":30186:30187   */\n      0x00\n        /* \"#utility.yul\":30179:30194   */\n      revert\n        /* \"#utility.yul\":30206:30323   */\n    tag_543:\n        /* \"#utility.yul\":30315:30316   */\n      0x00\n        /* \"#utility.yul\":30312:30313   */\n      dup1\n        /* \"#utility.yul\":30305:30317   */\n      revert\n        /* \"#utility.yul\":30329:30446   */\n    tag_540:\n        /* \"#utility.yul\":30438:30439   */\n      0x00\n        /* \"#utility.yul\":30435:30436   */\n      dup1\n        /* \"#utility.yul\":30428:30440   */\n      revert\n        /* \"#utility.yul\":30452:30569   */\n    tag_546:\n        /* \"#utility.yul\":30561:30562   */\n      0x00\n        /* \"#utility.yul\":30558:30559   */\n      dup1\n        /* \"#utility.yul\":30551:30563   */\n      revert\n        /* \"#utility.yul\":30575:30692   */\n    tag_568:\n        /* \"#utility.yul\":30684:30685   */\n      0x00\n        /* \"#utility.yul\":30681:30682   */\n      dup1\n        /* \"#utility.yul\":30674:30686   */\n      revert\n        /* \"#utility.yul\":30698:30815   */\n    tag_603:\n        /* \"#utility.yul\":30807:30808   */\n      0x00\n        /* \"#utility.yul\":30804:30805   */\n      dup1\n        /* \"#utility.yul\":30797:30809   */\n      revert\n        /* \"#utility.yul\":30821:30938   */\n    tag_561:\n        /* \"#utility.yul\":30930:30931   */\n      0x00\n        /* \"#utility.yul\":30927:30928   */\n      dup1\n        /* \"#utility.yul\":30920:30932   */\n      revert\n        /* \"#utility.yul\":30944:31046   */\n    tag_630:\n        /* \"#utility.yul\":30985:30991   */\n      0x00\n        /* \"#utility.yul\":31036:31038   */\n      0x1f\n        /* \"#utility.yul\":31032:31039   */\n      not\n        /* \"#utility.yul\":31027:31029   */\n      0x1f\n        /* \"#utility.yul\":31020:31025   */\n      dup4\n        /* \"#utility.yul\":31016:31030   */\n      add\n        /* \"#utility.yul\":31012:31040   */\n      and\n        /* \"#utility.yul\":31002:31040   */\n      swap1\n      pop\n        /* \"#utility.yul\":30944:31046   */\n      swap2\n      swap1\n      pop\n      jump\t// out\n        /* \"#utility.yul\":31052:31229   */\n    tag_635:\n        /* \"#utility.yul\":31192:31221   */\n      0x616464556e5374616b654665653a206d696e4461797320697320300000000000\n        /* \"#utility.yul\":31188:31189   */\n      0x00\n        /* \"#utility.yul\":31180:31186   */\n      dup3\n        /* \"#utility.yul\":31176:31190   */\n      add\n        /* \"#utility.yul\":31169:31222   */\n      mstore\n        /* \"#utility.yul\":31052:31229   */\n      pop\n      jump\t// out\n        /* \"#utility.yul\":31235:31409   */\n    tag_640:\n        /* \"#utility.yul\":31375:31401   */\n      0x4e4654205374616b696e673a20456d7074792041727261790000000000000000\n        /* \"#utility.yul\":31371:31372   */\n      0x00\n        /* \"#utility.yul\":31363:31369   */\n      dup3\n        /* \"#utility.yul\":31359:31373   */\n      add\n        /* \"#utility.yul\":31352:31402   */\n      mstore\n        /* \"#utility.yul\":31235:31409   */\n      pop\n      jump\t// out\n        /* \"#utility.yul\":31415:31592   */\n    tag_645:\n        /* \"#utility.yul\":31555:31584   */\n      0x736574556e5374616b654665653a206d696e4461797320697320300000000000\n        /* \"#utility.yul\":31551:31552   */\n      0x00\n        /* \"#utility.yul\":31543:31549   */\n      dup3\n        /* \"#utility.yul\":31539:31553   */\n      add\n        /* \"#utility.yul\":31532:31585   */\n      mstore\n        /* \"#utility.yul\":31415:31592   */\n      pop\n      jump\t// out\n        /* \"#utility.yul\":31598:31778   */\n    tag_650:\n        /* \"#utility.yul\":31738:31770   */\n      0x616464556e5374616b654665653a2066656550657263656e74203e2034300000\n        /* \"#utility.yul\":31734:31735   */\n      0x00\n        /* \"#utility.yul\":31726:31732   */\n      dup3\n        /* \"#utility.yul\":31722:31736   */\n      add\n        /* \"#utility.yul\":31715:31771   */\n      mstore\n        /* \"#utility.yul\":31598:31778   */\n      pop\n      jump\t// out\n        /* \"#utility.yul\":31784:32013   */\n    tag_655:\n        /* \"#utility.yul\":31924:31958   */\n      0x5361666542455032303a204245503230206f7065726174696f6e20646964206e\n        /* \"#utility.yul\":31920:31921   */\n      0x00\n        /* \"#utility.yul\":31912:31918   */\n      dup3\n        /* \"#utility.yul\":31908:31922   */\n      add\n        /* \"#utility.yul\":31901:31959   */\n      mstore\n        /* \"#utility.yul\":31993:32005   */\n      0x6f74207375636365656400000000000000000000000000000000000000000000\n        /* \"#utility.yul\":31988:31990   */\n      0x20\n        /* \"#utility.yul\":31980:31986   */\n      dup3\n        /* \"#utility.yul\":31976:31991   */\n      add\n        /* \"#utility.yul\":31969:32006   */\n      mstore\n        /* \"#utility.yul\":31784:32013   */\n      pop\n      jump\t// out\n        /* \"#utility.yul\":32019:32244   */\n    tag_660:\n        /* \"#utility.yul\":32159:32193   */\n      0x4f776e61626c653a206e6577206f776e657220697320746865207a65726f2061\n        /* \"#utility.yul\":32155:32156   */\n      0x00\n        /* \"#utility.yul\":32147:32153   */\n      dup3\n        /* \"#utility.yul\":32143:32157   */\n      add\n        /* \"#utility.yul\":32136:32194   */\n      mstore\n        /* \"#utility.yul\":32228:32236   */\n      0x6464726573730000000000000000000000000000000000000000000000000000\n        /* \"#utility.yul\":32223:32225   */\n      0x20\n        /* \"#utility.yul\":32215:32221   */\n      dup3\n        /* \"#utility.yul\":32211:32226   */\n      add\n        /* \"#utility.yul\":32204:32237   */\n      mstore\n        /* \"#utility.yul\":32019:32244   */\n      pop\n      jump\t// out\n        /* \"#utility.yul\":32250:32430   */\n    tag_665:\n        /* \"#utility.yul\":32390:32422   */\n      0x736574556e5374616b654665653a2066656550657263656e74203e2034300000\n        /* \"#utility.yul\":32386:32387   */\n      0x00\n        /* \"#utility.yul\":32378:32384   */\n      dup3\n        /* \"#utility.yul\":32374:32388   */\n      add\n        /* \"#utility.yul\":32367:32423   */\n      mstore\n        /* \"#utility.yul\":32250:32430   */\n      pop\n      jump\t// out\n        /* \"#utility.yul\":32436:32613   */\n    tag_670:\n        /* \"#utility.yul\":32576:32605   */\n      0x72656d6f7665556e5374616b654665653a2072616e6765206f75740000000000\n        /* \"#utility.yul\":32572:32573   */\n      0x00\n        /* \"#utility.yul\":32564:32570   */\n      dup3\n        /* \"#utility.yul\":32560:32574   */\n      add\n        /* \"#utility.yul\":32553:32606   */\n      mstore\n        /* \"#utility.yul\":32436:32613   */\n      pop\n      jump\t// out\n        /* \"#utility.yul\":32619:32855   */\n    tag_675:\n        /* \"#utility.yul\":32759:32793   */\n      0x4e4654205374616b696e673a206475706c696361746520746f6b656e20696473\n        /* \"#utility.yul\":32755:32756   */\n      0x00\n        /* \"#utility.yul\":32747:32753   */\n      dup3\n        /* \"#utility.yul\":32743:32757   */\n      add\n        /* \"#utility.yul\":32736:32794   */\n      mstore\n        /* \"#utility.yul\":32828:32847   */\n      0x20696e20696e70757420706172616d732e000000000000000000000000000000\n        /* \"#utility.yul\":32823:32825   */\n      0x20\n        /* \"#utility.yul\":32815:32821   */\n      dup3\n        /* \"#utility.yul\":32811:32826   */\n      add\n        /* \"#utility.yul\":32804:32848   */\n      mstore\n        /* \"#utility.yul\":32619:32855   */\n      pop\n      jump\t// out\n        /* \"#utility.yul\":32861:33082   */\n    tag_680:\n        /* \"#utility.yul\":33001:33035   */\n      0x4e4654205374616b696e673a20746f6b656e20616c7265616479207374616b65\n        /* \"#utility.yul\":32997:32998   */\n      0x00\n        /* \"#utility.yul\":32989:32995   */\n      dup3\n        /* \"#utility.yul\":32985:32999   */\n      add\n        /* \"#utility.yul\":32978:33036   */\n      mstore\n        /* \"#utility.yul\":33070:33074   */\n      0x642e000000000000000000000000000000000000000000000000000000000000\n        /* \"#utility.yul\":33065:33067   */\n      0x20\n        /* \"#utility.yul\":33057:33063   */\n      dup3\n        /* \"#utility.yul\":33053:33068   */\n      add\n        /* \"#utility.yul\":33046:33075   */\n      mstore\n        /* \"#utility.yul\":32861:33082   */\n      pop\n      jump\t// out\n        /* \"#utility.yul\":33088:33269   */\n    tag_685:\n        /* \"#utility.yul\":33228:33261   */\n      0x736574556e5374616b654665653a206d696e44617973206973206572726f7200\n        /* \"#utility.yul\":33224:33225   */\n      0x00\n        /* \"#utility.yul\":33216:33222   */\n      dup3\n        /* \"#utility.yul\":33212:33226   */\n      add\n        /* \"#utility.yul\":33205:33262   */\n      mstore\n        /* \"#utility.yul\":33088:33269   */\n      pop\n      jump\t// out\n        /* \"#utility.yul\":33275:33449   */\n    tag_690:\n        /* \"#utility.yul\":33415:33441   */\n      0x736574556e5374616b654665653a2072616e6765206f75740000000000000000\n        /* \"#utility.yul\":33411:33412   */\n      0x00\n        /* \"#utility.yul\":33403:33409   */\n      dup3\n        /* \"#utility.yul\":33399:33413   */\n      add\n        /* \"#utility.yul\":33392:33442   */\n      mstore\n        /* \"#utility.yul\":33275:33449   */\n      pop\n      jump\t// out\n        /* \"#utility.yul\":33455:33676   */\n    tag_695:\n        /* \"#utility.yul\":33595:33629   */\n      0x616464556e5374616b654665653a2066656550657263656e7420697320657272\n        /* \"#utility.yul\":33591:33592   */\n      0x00\n        /* \"#utility.yul\":33583:33589   */\n      dup3\n        /* \"#utility.yul\":33579:33593   */\n      add\n        /* \"#utility.yul\":33572:33630   */\n      mstore\n        /* \"#utility.yul\":33664:33668   */\n      0x6f72000000000000000000000000000000000000000000000000000000000000\n        /* \"#utility.yul\":33659:33661   */\n      0x20\n        /* \"#utility.yul\":33651:33657   */\n      dup3\n        /* \"#utility.yul\":33647:33662   */\n      add\n        /* \"#utility.yul\":33640:33669   */\n      mstore\n        /* \"#utility.yul\":33455:33676   */\n      pop\n      jump\t// out\n        /* \"#utility.yul\":33682:33864   */\n    tag_700:\n        /* \"#utility.yul\":33822:33856   */\n      0x4f776e61626c653a2063616c6c6572206973206e6f7420746865206f776e6572\n        /* \"#utility.yul\":33818:33819   */\n      0x00\n        /* \"#utility.yul\":33810:33816   */\n      dup3\n        /* \"#utility.yul\":33806:33820   */\n      add\n        /* \"#utility.yul\":33799:33857   */\n      mstore\n        /* \"#utility.yul\":33682:33864   */\n      pop\n      jump\t// out\n        /* \"#utility.yul\":33870:34050   */\n    tag_705:\n        /* \"#utility.yul\":34010:34042   */\n      0x736574486172766573744665653a2066656550657263656e74203e2034300000\n        /* \"#utility.yul\":34006:34007   */\n      0x00\n        /* \"#utility.yul\":33998:34004   */\n      dup3\n        /* \"#utility.yul\":33994:34008   */\n      add\n        /* \"#utility.yul\":33987:34043   */\n      mstore\n        /* \"#utility.yul\":33870:34050   */\n      pop\n      jump\t// out\n        /* \"#utility.yul\":34056:34237   */\n    tag_710:\n        /* \"#utility.yul\":34196:34229   */\n      0x616464556e5374616b654665653a206d696e44617973206973206572726f7200\n        /* \"#utility.yul\":34192:34193   */\n      0x00\n        /* \"#utility.yul\":34184:34190   */\n      dup3\n        /* \"#utility.yul\":34180:34194   */\n      add\n        /* \"#utility.yul\":34173:34230   */\n      mstore\n        /* \"#utility.yul\":34056:34237   */\n      pop\n      jump\t// out\n        /* \"#utility.yul\":34243:34464   */\n    tag_715:\n        /* \"#utility.yul\":34383:34417   */\n      0x736574556e5374616b654665653a2066656550657263656e7420697320657272\n        /* \"#utility.yul\":34379:34380   */\n      0x00\n        /* \"#utility.yul\":34371:34377   */\n      dup3\n        /* \"#utility.yul\":34367:34381   */\n      add\n        /* \"#utility.yul\":34360:34418   */\n      mstore\n        /* \"#utility.yul\":34452:34456   */\n      0x6f72000000000000000000000000000000000000000000000000000000000000\n        /* \"#utility.yul\":34447:34449   */\n      0x20\n        /* \"#utility.yul\":34439:34445   */\n      dup3\n        /* \"#utility.yul\":34435:34450   */\n      add\n        /* \"#utility.yul\":34428:34457   */\n      mstore\n        /* \"#utility.yul\":34243:34464   */\n      pop\n      jump\t// out\n        /* \"#utility.yul\":34470:34649   */\n    tag_720:\n        /* \"#utility.yul\":34610:34641   */\n      0x416464726573733a2063616c6c20746f206e6f6e2d636f6e7472616374000000\n        /* \"#utility.yul\":34606:34607   */\n      0x00\n        /* \"#utility.yul\":34598:34604   */\n      dup3\n        /* \"#utility.yul\":34594:34608   */\n      add\n        /* \"#utility.yul\":34587:34642   */\n      mstore\n        /* \"#utility.yul\":34470:34649   */\n      pop\n      jump\t// out\n        /* \"#utility.yul\":34655:34899   */\n    tag_725:\n        /* \"#utility.yul\":34795:34829   */\n      0x4e667420556e7374616b696e673a20746f6b656e206e6f74207374616b656420\n        /* \"#utility.yul\":34791:34792   */\n      0x00\n        /* \"#utility.yul\":34783:34789   */\n      dup3\n        /* \"#utility.yul\":34779:34793   */\n      add\n        /* \"#utility.yul\":34772:34830   */\n      mstore\n        /* \"#utility.yul\":34864:34891   */\n      0x6f7220696e636f727265637420746f6b656e206f776e65722e00000000000000\n        /* \"#utility.yul\":34859:34861   */\n      0x20\n        /* \"#utility.yul\":34851:34857   */\n      dup3\n        /* \"#utility.yul\":34847:34862   */\n      add\n        /* \"#utility.yul\":34840:34892   */\n      mstore\n        /* \"#utility.yul\":34655:34899   */\n      pop\n      jump\t// out\n        /* \"#utility.yul\":34905:35027   */\n    tag_535:\n        /* \"#utility.yul\":34978:35002   */\n      tag_893\n        /* \"#utility.yul\":34996:35001   */\n      dup2\n        /* \"#utility.yul\":34978:35002   */\n      tag_596\n      jump\t// in\n    tag_893:\n        /* \"#utility.yul\":34971:34976   */\n      dup2\n        /* \"#utility.yul\":34968:35003   */\n      eq\n        /* \"#utility.yul\":34958:35021   */\n      tag_894\n      jumpi\n        /* \"#utility.yul\":35017:35018   */\n      0x00\n        /* \"#utility.yul\":35014:35015   */\n      dup1\n        /* \"#utility.yul\":35007:35019   */\n      revert\n        /* \"#utility.yul\":34958:35021   */\n    tag_894:\n        /* \"#utility.yul\":34905:35027   */\n      pop\n      jump\t// out\n        /* \"#utility.yul\":35033:35149   */\n    tag_550:\n        /* \"#utility.yul\":35103:35124   */\n      tag_896\n        /* \"#utility.yul\":35118:35123   */\n      dup2\n        /* \"#utility.yul\":35103:35124   */\n      tag_838\n      jump\t// in\n    tag_896:\n        /* \"#utility.yul\":35096:35101   */\n      dup2\n        /* \"#utility.yul\":35093:35125   */\n      eq\n        /* \"#utility.yul\":35083:35143   */\n      tag_897\n      jumpi\n        /* \"#utility.yul\":35139:35140   */\n      0x00\n        /* \"#utility.yul\":35136:35137   */\n      dup1\n        /* \"#utility.yul\":35129:35141   */\n      revert\n        /* \"#utility.yul\":35083:35143   */\n    tag_897:\n        /* \"#utility.yul\":35033:35149   */\n      pop\n      jump\t// out\n        /* \"#utility.yul\":35155:35277   */\n    tag_554:\n        /* \"#utility.yul\":35228:35252   */\n      tag_899\n        /* \"#utility.yul\":35246:35251   */\n      dup2\n        /* \"#utility.yul\":35228:35252   */\n      tag_729\n      jump\t// in\n    tag_899:\n        /* \"#utility.yul\":35221:35226   */\n      dup2\n        /* \"#utility.yul\":35218:35253   */\n      eq\n        /* \"#utility.yul\":35208:35271   */\n      tag_900\n      jumpi\n        /* \"#utility.yul\":35267:35268   */\n      0x00\n        /* \"#utility.yul\":35264:35265   */\n      dup1\n        /* \"#utility.yul\":35257:35269   */\n      revert\n        /* \"#utility.yul\":35208:35271   */\n    tag_900:\n        /* \"#utility.yul\":35155:35277   */\n      pop\n      jump\t// out\n\n    auxdata: 0xa264697066735822122092cbb7e662f8f03be70be4f0d2743b23b0e54b2bc045d04b2d9808796721c74764736f6c63430008070033\n}\n",
				"bytecode": {
					"linkReferences": {},
					"object": "60c06040523480156200001157600080fd5b50604051620041ab380380620041ab8339818101604052810190620000379190620003c9565b620000576200004b6200012760201b60201c565b6200012f60201b60201c565b8373ffffffffffffffffffffffffffffffffffffffff1660808173ffffffffffffffffffffffffffffffffffffffff1660601b815250508273ffffffffffffffffffffffffffffffffffffffff1660a08173ffffffffffffffffffffffffffffffffffffffff1660601b815250508160048190555080600560006101000a81548173ffffffffffffffffffffffffffffffffffffffff021916908373ffffffffffffffffffffffffffffffffffffffff1602179055506200011d620001f360201b60201c565b505050506200050e565b600033905090565b60008060009054906101000a900473ffffffffffffffffffffffffffffffffffffffff169050816000806101000a81548173ffffffffffffffffffffffffffffffffffffffff021916908373ffffffffffffffffffffffffffffffffffffffff1602179055508173ffffffffffffffffffffffffffffffffffffffff168173ffffffffffffffffffffffffffffffffffffffff167f8be0079c531659141344cd1fd0a4f28419497f9722a3daafe3b4186f6b6457e060405160405180910390a35050565b60006040518060400160405280600781526020016028815250905060018190806001815401808255809150506001900390600052602060002090600202016000909190919091506000820151816000015560208201518160010155505060006040518060400160405280600e8152602001601e815250905060018190806001815401808255809150506001900390600052602060002090600202016000909190919091506000820151816000015560208201518160010155505060006040518060400160405280601581526020016014815250905060018190806001815401808255809150506001900390600052602060002090600202016000909190919091506000820151816000015560208201518160010155505060006040518060400160405280601e8152602001600a815250905060018190806001815401808255809150506001900390600052602060002090600202016000909190919091506000820151816000015560208201518160010155505050505050565b6000815190506200037e81620004a6565b92915050565b6000815190506200039581620004c0565b92915050565b600081519050620003ac81620004da565b92915050565b600081519050620003c381620004f4565b92915050565b60008060008060808587031215620003e657620003e5620004a1565b5b6000620003f6878288016200039b565b9450506020620004098782880162000384565b93505060406200041c87828801620003b2565b92505060606200042f878288016200036d565b91505092959194509250565b6000620004488262000477565b9050919050565b60006200045c826200043b565b9050919050565b600062000470826200043b565b9050919050565b600073ffffffffffffffffffffffffffffffffffffffff82169050919050565b6000819050919050565b600080fd5b620004b1816200043b565b8114620004bd57600080fd5b50565b620004cb816200044f565b8114620004d757600080fd5b50565b620004e58162000463565b8114620004f157600080fd5b50565b620004ff8162000497565b81146200050b57600080fd5b50565b60805160601c60a05160601c613c246200058760003960008181610de701528181610ec10152818161129601528181611345015281816113f60152818161143d015281816114ec015281816115bf01528181611f380152611fe70152600081816107bc01528181611c3101526121030152613c246000f3fe608060405234801561001057600080fd5b50600436106101585760003560e01c8063792b55b6116100c3578063a9f8d1811161007c578063a9f8d1811461037d578063b59629171461039b578063d06fcba8146103b9578063e449f341146103d7578063f25f4b56146103f3578063f2fde38b1461041157610158565b8063792b55b6146102bd5780638ae39cac146102d95780638da5cb5b146102f75780638dbb1e3a1461031557806390d49b9d146103455780639ca62a691461036157610158565b8063294d4e4a11610115578063294d4e4a1461023357806343db3c5f1461024f5780634641257d1461026d578063567e98f9146102775780635e42b45514610295578063715018a6146102b357610158565b80630fbf0a931461015d57806310c77237146101795780631959a0021461019557806319fca9f6146101c85780631c3e2e7a146101e65780631e2720ff14610217575b600080fd5b61017760048036038101906101729190612ac1565b61042d565b005b610193600480360381019061018e9190612bd5565b61089e565b005b6101af60048036038101906101aa9190612a94565b610db5565b6040516101bf94939291906133f1565b60405180910390f35b6101d0610de5565b6040516101dd91906130be565b60405180910390f35b61020060048036038101906101fb9190612b3b565b610e09565b60405161020e929190613391565b60405180910390f35b610231600480360381019061022c9190612b3b565b610e3d565b005b61024d60048036038101906102489190612b95565b610f72565b005b610257611201565b6040516102649190613376565b60405180910390f35b610275611207565b005b61027f61168e565b60405161028c9190613376565b60405180910390f35b61029d611694565b6040516102aa9190613376565b60405180910390f35b6102bb6116ff565b005b6102d760048036038101906102d29190612b3b565b611787565b005b6102e1611888565b6040516102ee9190613376565b60405180910390f35b6102ff61188e565b60405161030c9190612fda565b60405180910390f35b61032f600480360381019061032a9190612b95565b6118b7565b60405161033c9190613376565b60405180910390f35b61035f600480360381019061035a9190612a94565b6118d4565b005b61037b60048036038101906103769190612b3b565b6119f9565b005b610385611c23565b6040516103929190613376565b60405180910390f35b6103a3611c29565b6040516103b09190613376565b60405180910390f35b6103c1611c2f565b6040516103ce91906130d9565b60405180910390f35b6103f160048036038101906103ec9190612ac1565b611c53565b005b6103fb6121e6565b6040516104089190612fda565b60405180910390f35b61042b60048036038101906104269190612a94565b61220c565b005b60008282905011610473576040517f08c379a000000000000000000000000000000000000000000000000000000000815260040161046a90613136565b60405180910390fd5b60005b828290508110156105fb57600083838381811061049657610495613736565b5b905060200201359050600073ffffffffffffffffffffffffffffffffffffffff166009600083815260200190815260200160002060009054906101000a900473ffffffffffffffffffffffffffffffffffffffff1673ffffffffffffffffffffffffffffffffffffffff1614610541576040517f08c379a000000000000000000000000000000000000000000000000000000000815260040161053890613236565b60405180910390fd5b60006001836105509190613479565b90505b848490508110156105e65784848281811061057157610570613736565b5b9050602002013585858581811061058b5761058a613736565b5b9050602002013514156105d3576040517f08c379a00000000000000000000000000000000000000000000000000000000081526004016105ca90613216565b60405180910390fd5b80806105de90613660565b915050610553565b505080806105f390613660565b915050610476565b50610604612304565b6000600b60003373ffffffffffffffffffffffffffffffffffffffff1673ffffffffffffffffffffffffffffffffffffffff16815260200190815260200160002090506000816000015411156106bf57600061069c826001015461068e64e8d4a51000610680600354876000015461243890919063ffffffff16565b61244e90919063ffffffff16565b61246490919063ffffffff16565b90506106b581836002015461247a90919063ffffffff16565b8260020181905550505b60005b8383905081101561085d5760008484838181106106e2576106e1613736565b5b905060200201359050336009600083815260200190815260200160002060006101000a81548173ffffffffffffffffffffffffffffffffffffffff021916908373ffffffffffffffffffffffffffffffffffffffff160217905550610753600160075461247a90919063ffffffff16565b6007819055506107716001846000015461247a90919063ffffffff16565b83600001819055506107a964e8d4a5100061079b600354866000015461243890919063ffffffff16565b61244e90919063ffffffff16565b83600101819055504283600301819055507f000000000000000000000000000000000000000000000000000000000000000073ffffffffffffffffffffffffffffffffffffffff166323b872dd3330846040518463ffffffff1660e01b815260040161081793929190612ff5565b600060405180830381600087803b15801561083157600080fd5b505af1158015610845573d6000803e3d6000fd5b5050505050808061085590613660565b9150506106c2565b507f134b166c6094cc1ccbf1e3353ce5c3cd9fd29869051bdb999895854d77cc5ef63384846040516108919392919061302c565b60405180910390a1505050565b6108a6612490565b73ffffffffffffffffffffffffffffffffffffffff166108c461188e565b73ffffffffffffffffffffffffffffffffffffffff161461091a576040517f08c379a0000000000000000000000000000000000000000000000000000000008152600401610911906132b6565b60405180910390fd5b6001805490508310610961576040517f08c379a000000000000000000000000000000000000000000000000000000000815260040161095890613276565b60405180910390fd5b600082116109a4576040517f08c379a000000000000000000000000000000000000000000000000000000000815260040161099b90613156565b60405180910390fd5b60288111156109e8576040517f08c379a00000000000000000000000000000000000000000000000000000000081526004016109df906131d6565b60405180910390fd5b6000831415610ac45760018081548110610a0557610a04613736565b5b9060005260206000209060020201600001548210610a58576040517f08c379a0000000000000000000000000000000000000000000000000000000008152600401610a4f90613256565b60405180910390fd5b60018081548110610a6c57610a6b613736565b5b9060005260206000209060020201600101548111610abf576040517f08c379a0000000000000000000000000000000000000000000000000000000008152600401610ab690613316565b60405180910390fd5b610d21565b60018080549050610ad5919061355a565b831415610bc55760018084610aea919061355a565b81548110610afb57610afa613736565b5b9060005260206000209060020201600001548211610b4e576040517f08c379a0000000000000000000000000000000000000000000000000000000008152600401610b4590613256565b60405180910390fd5b60018084610b5c919061355a565b81548110610b6d57610b6c613736565b5b9060005260206000209060020201600101548110610bc0576040517f08c379a0000000000000000000000000000000000000000000000000000000008152600401610bb790613316565b60405180910390fd5b610d20565b60018084610bd3919061355a565b81548110610be457610be3613736565b5b90600052602060002090600202016000015482118015610c33575060018084610c0d9190613479565b81548110610c1e57610c1d613736565b5b90600052602060002090600202016000015482105b610c72576040517f08c379a0000000000000000000000000000000000000000000000000000000008152600401610c6990613256565b60405180910390fd5b60018084610c80919061355a565b81548110610c9157610c90613736565b5b90600052602060002090600202016001015481108015610ce0575060018084610cba9190613479565b81548110610ccb57610cca613736565b5b90600052602060002090600202016001015481115b610d1f576040517f08c379a0000000000000000000000000000000000000000000000000000000008152600401610d1690613316565b60405180910390fd5b5b5b8060018481548110610d3657610d35613736565b5b9060005260206000209060020201600101819055508160018481548110610d6057610d5f613736565b5b9060005260206000209060020201600001819055507fc5b7ef59c45162d0f957af811d4ad5f8980e588a729fa3b80ebef5020e4c2725838383604051610da8939291906133ba565b60405180910390a1505050565b600b6020528060005260406000206000915090508060000154908060010154908060020154908060030154905084565b7f000000000000000000000000000000000000000000000000000000000000000081565b60018181548110610e1957600080fd5b90600052602060002090600202016000915090508060000154908060010154905082565b610e45612490565b73ffffffffffffffffffffffffffffffffffffffff16610e6361188e565b73ffffffffffffffffffffffffffffffffffffffff1614610eb9576040517f08c379a0000000000000000000000000000000000000000000000000000000008152600401610eb0906132b6565b60405180910390fd5b610f063330837f000000000000000000000000000000000000000000000000000000000000000073ffffffffffffffffffffffffffffffffffffffff16612498909392919063ffffffff16565b3373ffffffffffffffffffffffffffffffffffffffff167f4f7fd5c9e17300a4800fd572ea53fc291e2ee7470d73346d16b357faee4e721082604051610f4c9190613376565b60405180910390a2610f698160085461247a90919063ffffffff16565b60088190555050565b610f7a612490565b73ffffffffffffffffffffffffffffffffffffffff16610f9861188e565b73ffffffffffffffffffffffffffffffffffffffff1614610fee576040517f08c379a0000000000000000000000000000000000000000000000000000000008152600401610fe5906132b6565b60405180910390fd5b60008211611031576040517f08c379a000000000000000000000000000000000000000000000000000000000815260040161102890613116565b60405180910390fd5b6028811115611075576040517f08c379a000000000000000000000000000000000000000000000000000000000815260040161106c90613176565b60405180910390fd5b6001808080549050611087919061355a565b8154811061109857611097613736565b5b90600052602060002090600202016000015482116110eb576040517f08c379a00000000000000000000000000000000000000000000000000000000081526004016110e2906132f6565b60405180910390fd5b60018080805490506110fd919061355a565b8154811061110e5761110d613736565b5b9060005260206000209060020201600101548110611161576040517f08c379a000000000000000000000000000000000000000000000000000000000815260040161115890613296565b60405180910390fd5b600060405180604001604052808481526020018381525090506001819080600181540180825580915050600190039060005260206000209060020201600090919091909150600082015181600001556020820151816001015550507f657ca150be22533e612098a9cdc78b9252aa1c21d424fb5011c5ceccc0447b5060018054905084846040516111f4939291906133ba565b60405180910390a1505050565b60035481565b600061121233612521565b90506000600b60003373ffffffffffffffffffffffffffffffffffffffff1673ffffffffffffffffffffffffffffffffffffffff1681526020019081526020016000209050600061128160646112736006548661243890919063ffffffff16565b61244e90919063ffffffff16565b905060008184611291919061355a565b9050807f000000000000000000000000000000000000000000000000000000000000000073ffffffffffffffffffffffffffffffffffffffff166370a08231306040518263ffffffff1660e01b81526004016112ed9190612fda565b60206040518083038186803b15801561130557600080fd5b505afa158015611319573d6000803e3d6000fd5b505050506040513d601f19601f8201168201806040525081019061133d9190612b68565b10156113ef577f000000000000000000000000000000000000000000000000000000000000000073ffffffffffffffffffffffffffffffffffffffff166370a08231306040518263ffffffff1660e01b815260040161139c9190612fda565b60206040518083038186803b1580156113b457600080fd5b505afa1580156113c8573d6000803e3d6000fd5b505050506040513d601f19601f820116820180604052508101906113ec9190612b68565b90505b61143a33827f000000000000000000000000000000000000000000000000000000000000000073ffffffffffffffffffffffffffffffffffffffff166126549092919063ffffffff16565b817f000000000000000000000000000000000000000000000000000000000000000073ffffffffffffffffffffffffffffffffffffffff166370a08231306040518263ffffffff1660e01b81526004016114949190612fda565b60206040518083038186803b1580156114ac57600080fd5b505afa1580156114c0573d6000803e3d6000fd5b505050506040513d601f19601f820116820180604052508101906114e49190612b68565b1015611596577f000000000000000000000000000000000000000000000000000000000000000073ffffffffffffffffffffffffffffffffffffffff166370a08231306040518263ffffffff1660e01b81526004016115439190612fda565b60206040518083038186803b15801561155b57600080fd5b505afa15801561156f573d6000803e3d6000fd5b505050506040513d601f19601f820116820180604052508101906115939190612b68565b91505b611603600560009054906101000a900473ffffffffffffffffffffffffffffffffffffffff16837f000000000000000000000000000000000000000000000000000000000000000073ffffffffffffffffffffffffffffffffffffffff166126549092919063ffffffff16565b7f71bab65ced2e5750775a0613be067df48ef06cf92a496ebf7663ae066092495433828460405161163693929190613087565b60405180910390a1611646612304565b6000836002018190555061168064e8d4a51000611672600354866000015461243890919063ffffffff16565b61244e90919063ffffffff16565b836001018190555050505050565b60075481565b6000600254431180156116aa5750600060075414155b156116f65760006116bd600254436118b7565b905060006116d66004548361243890919063ffffffff16565b90506116ed8160085461246490919063ffffffff16565b925050506116fc565b60085490505b90565b611707612490565b73ffffffffffffffffffffffffffffffffffffffff1661172561188e565b73ffffffffffffffffffffffffffffffffffffffff161461177b576040517f08c379a0000000000000000000000000000000000000000000000000000000008152600401611772906132b6565b60405180910390fd5b61178560006126da565b565b61178f612490565b73ffffffffffffffffffffffffffffffffffffffff166117ad61188e565b73ffffffffffffffffffffffffffffffffffffffff1614611803576040517f08c379a00000000000000000000000000000000000000000000000000000000081526004016117fa906132b6565b60405180910390fd5b6028811115611847576040517f08c379a000000000000000000000000000000000000000000000000000000000815260040161183e906132d6565b60405180910390fd5b806006819055507ff419800a2d8930c61d5d9cd782aa72c512cf6be2f79da6db0b8855870b7269ed8160405161187d9190613376565b60405180910390a150565b60045481565b60008060009054906101000a900473ffffffffffffffffffffffffffffffffffffffff16905090565b60006118cc838361246490919063ffffffff16565b905092915050565b6118dc612490565b73ffffffffffffffffffffffffffffffffffffffff166118fa61188e565b73ffffffffffffffffffffffffffffffffffffffff1614611950576040517f08c379a0000000000000000000000000000000000000000000000000000000008152600401611947906132b6565b60405180910390fd5b80600560006101000a81548173ffffffffffffffffffffffffffffffffffffffff021916908373ffffffffffffffffffffffffffffffffffffffff160217905550600560009054906101000a900473ffffffffffffffffffffffffffffffffffffffff1673ffffffffffffffffffffffffffffffffffffffff167f3d21e5a2b633291bd1ff5f9c654e402d063783c95759d2ea521b31fb30e4da4160405160405180910390a250565b611a01612490565b73ffffffffffffffffffffffffffffffffffffffff16611a1f61188e565b73ffffffffffffffffffffffffffffffffffffffff1614611a75576040517f08c379a0000000000000000000000000000000000000000000000000000000008152600401611a6c906132b6565b60405180910390fd5b6001805490508110611abc576040517f08c379a0000000000000000000000000000000000000000000000000000000008152600401611ab3906131f6565b60405180910390fd5b600060018281548110611ad257611ad1613736565b5b9060005260206000209060020201600001549050600060018381548110611afc57611afb613736565b5b906000526020600020906002020160010154905060008390505b60018080549050611b27919061355a565b811015611ba75760018082611b3c9190613479565b81548110611b4d57611b4c613736565b5b906000526020600020906002020160018281548110611b6f57611b6e613736565b5b906000526020600020906002020160008201548160000155600182015481600101559050508080611b9f90613660565b915050611b16565b506001805480611bba57611bb9613707565b5b60019003818190600052602060002090600202016000808201600090556001820160009055505090557f61fd4e7e2422942f3df6e8c8c7744f23212ce0f0a23a80f0ace593ffdf6d96d0838383604051611c16939291906133ba565b60405180910390a1505050565b60025481565b60065481565b7f000000000000000000000000000000000000000000000000000000000000000081565b60008282905011611c99576040517f08c379a0000000000000000000000000000000000000000000000000000000008152600401611c9090613136565b60405180910390fd5b60005b82829050811015611e20576000838383818110611cbc57611cbb613736565b5b9050602002013590503373ffffffffffffffffffffffffffffffffffffffff166009600083815260200190815260200160002060009054906101000a900473ffffffffffffffffffffffffffffffffffffffff1673ffffffffffffffffffffffffffffffffffffffff1614611d66576040517f08c379a0000000000000000000000000000000000000000000000000000000008152600401611d5d90613356565b60405180910390fd5b6000600183611d759190613479565b90505b84849050811015611e0b57848482818110611d9657611d95613736565b5b90506020020135858585818110611db057611daf613736565b5b905060200201351415611df8576040517f08c379a0000000000000000000000000000000000000000000000000000000008152600401611def90613216565b60405180910390fd5b8080611e0390613660565b915050611d78565b50508080611e1890613660565b915050611c9c565b50611e29612304565b6000600b60003373ffffffffffffffffffffffffffffffffffffffff1673ffffffffffffffffffffffffffffffffffffffff168152602001908152602001600020905060005b838390508110156121a5576000848483818110611e8f57611e8e613736565b5b90506020020135905060006009600083815260200190815260200160002060006101000a81548173ffffffffffffffffffffffffffffffffffffffff021916908373ffffffffffffffffffffffffffffffffffffffff1602179055506000611f338460010154611f2564e8d4a51000611f17600354896000015461243890919063ffffffff16565b61244e90919063ffffffff16565b61246490919063ffffffff16565b9050807f000000000000000000000000000000000000000000000000000000000000000073ffffffffffffffffffffffffffffffffffffffff166370a08231306040518263ffffffff1660e01b8152600401611f8f9190612fda565b60206040518083038186803b158015611fa757600080fd5b505afa158015611fbb573d6000803e3d6000fd5b505050506040513d601f19601f82011682018060405250810190611fdf9190612b68565b1015612091577f000000000000000000000000000000000000000000000000000000000000000073ffffffffffffffffffffffffffffffffffffffff166370a08231306040518263ffffffff1660e01b815260040161203e9190612fda565b60206040518083038186803b15801561205657600080fd5b505afa15801561206a573d6000803e3d6000fd5b505050506040513d601f19601f8201168201806040525081019061208e9190612b68565b90505b6120a881856002015461247a90919063ffffffff16565b84600201819055506120c86001856000015461246490919063ffffffff16565b506120f964e8d4a510006120eb600354876000015461243890919063ffffffff16565b61244e90919063ffffffff16565b84600101819055507f000000000000000000000000000000000000000000000000000000000000000073ffffffffffffffffffffffffffffffffffffffff166323b872dd3033856040518463ffffffff1660e01b815260040161215e93929190612ff5565b600060405180830381600087803b15801561217857600080fd5b505af115801561218c573d6000803e3d6000fd5b505050505050808061219d90613660565b915050611e6f565b507f80cc10bf7e52583ae0a17d8dd6ab5005573b17a08091a091af1a81205a675c913384846040516121d99392919061302c565b60405180910390a1505050565b600560009054906101000a900473ffffffffffffffffffffffffffffffffffffffff1681565b612214612490565b73ffffffffffffffffffffffffffffffffffffffff1661223261188e565b73ffffffffffffffffffffffffffffffffffffffff1614612288576040517f08c379a000000000000000000000000000000000000000000000000000000000815260040161227f906132b6565b60405180910390fd5b600073ffffffffffffffffffffffffffffffffffffffff168173ffffffffffffffffffffffffffffffffffffffff1614156122f8576040517f08c379a00000000000000000000000000000000000000000000000000000000081526004016122ef906131b6565b60405180910390fd5b612301816126da565b50565b600254431161231257612436565b600060075414156123295743600281905550612436565b6000612337600254436118b7565b905060006123506004548361243890919063ffffffff16565b90506000600854141561236b57436002819055505050612436565b8060085410156123ca576123b76123a660075461239864e8d4a5100060085461243890919063ffffffff16565b61244e90919063ffffffff16565b60035461247a90919063ffffffff16565b600381905550600060088190555061242c565b6123df8160085461246490919063ffffffff16565b60088190555061242561241460075461240664e8d4a510008561243890919063ffffffff16565b61244e90919063ffffffff16565b60035461247a90919063ffffffff16565b6003819055505b4360028190555050505b565b600081836124469190613500565b905092915050565b6000818361245c91906134cf565b905092915050565b60008183612472919061355a565b905092915050565b600081836124889190613479565b905092915050565b600033905090565b61251b846323b872dd60e01b8585856040516024016124b993929190612ff5565b604051602081830303815290604052907bffffffffffffffffffffffffffffffffffffffffffffffffffffffff19166020820180517bffffffffffffffffffffffffffffffffffffffffffffffffffffffff838183161783525050505061279e565b50505050565b600080600b60008473ffffffffffffffffffffffffffffffffffffffff1673ffffffffffffffffffffffffffffffffffffffff168152602001908152602001600020905060006003549050600254431180156125805750600060075414155b156125f1576000612593600254436118b7565b905060006125ac6004548361243890919063ffffffff16565b90506125ec6125dd6007546125cf64e8d4a510008561243890919063ffffffff16565b61244e90919063ffffffff16565b8461247a90919063ffffffff16565b925050505b61264b826002015461263d846001015461262f64e8d4a5100061262187896000015461243890919063ffffffff16565b61244e90919063ffffffff16565b61246490919063ffffffff16565b61247a90919063ffffffff16565b92505050919050565b6126d58363a9059cbb60e01b848460405160240161267392919061305e565b604051602081830303815290604052907bffffffffffffffffffffffffffffffffffffffffffffffffffffffff19166020820180517bffffffffffffffffffffffffffffffffffffffffffffffffffffffff838183161783525050505061279e565b505050565b60008060009054906101000a900473ffffffffffffffffffffffffffffffffffffffff169050816000806101000a81548173ffffffffffffffffffffffffffffffffffffffff021916908373ffffffffffffffffffffffffffffffffffffffff1602179055508173ffffffffffffffffffffffffffffffffffffffff168173ffffffffffffffffffffffffffffffffffffffff167f8be0079c531659141344cd1fd0a4f28419497f9722a3daafe3b4186f6b6457e060405160405180910390a35050565b6000612800826040518060400160405280602081526020017f5361666542455032303a206c6f772d6c6576656c2063616c6c206661696c65648152508573ffffffffffffffffffffffffffffffffffffffff166128659092919063ffffffff16565b905060008151111561286057808060200190518101906128209190612b0e565b61285f576040517f08c379a000000000000000000000000000000000000000000000000000000000815260040161285690613196565b60405180910390fd5b5b505050565b6060612874848460008561287d565b90509392505050565b60606128888561299f565b6128c7576040517f08c379a00000000000000000000000000000000000000000000000000000000081526004016128be90613336565b60405180910390fd5b6000808673ffffffffffffffffffffffffffffffffffffffff1685876040516128f09190612fc3565b60006040518083038185875af1925050503d806000811461292d576040519150601f19603f3d011682016040523d82523d6000602084013e612932565b606091505b50915091508115612947578092505050612997565b60008151111561295a5780518082602001fd5b836040517f08c379a000000000000000000000000000000000000000000000000000000000815260040161298e91906130f4565b60405180910390fd5b949350505050565b60008060007fc5d2460186f7233c927e7db2dcc703c0e500b653ca82273b7bfad8045d85a47060001b9050833f91508082141580156129e157506000801b8214155b92505050919050565b6000813590506129f981613ba9565b92915050565b60008083601f840112612a1557612a1461376a565b5b8235905067ffffffffffffffff811115612a3257612a31613765565b5b602083019150836020820283011115612a4e57612a4d61376f565b5b9250929050565b600081519050612a6481613bc0565b92915050565b600081359050612a7981613bd7565b92915050565b600081519050612a8e81613bd7565b92915050565b600060208284031215612aaa57612aa961377e565b5b6000612ab8848285016129ea565b91505092915050565b60008060208385031215612ad857612ad761377e565b5b600083013567ffffffffffffffff811115612af657612af5613774565b5b612b02858286016129ff565b92509250509250929050565b600060208284031215612b2457612b2361377e565b5b6000612b3284828501612a55565b91505092915050565b600060208284031215612b5157612b5061377e565b5b6000612b5f84828501612a6a565b91505092915050565b600060208284031215612b7e57612b7d61377e565b5b6000612b8c84828501612a7f565b91505092915050565b60008060408385031215612bac57612bab61377e565b5b6000612bba85828601612a6a565b9250506020612bcb85828601612a6a565b9150509250929050565b600080600060608486031215612bee57612bed61377e565b5b6000612bfc86828701612a6a565b9350506020612c0d86828701612a6a565b9250506040612c1e86828701612a6a565b9150509250925092565b612c318161358e565b82525050565b6000612c43838561344c565b93507f07ffffffffffffffffffffffffffffffffffffffffffffffffffffffffffffff831115612c7657612c75613779565b5b602083029250612c8783858461361e565b82840190509392505050565b6000612c9e82613436565b612ca8818561345d565b9350612cb881856020860161362d565b80840191505092915050565b612ccd816135d6565b82525050565b612cdc816135e8565b82525050565b6000612ced82613441565b612cf78185613468565b9350612d0781856020860161362d565b612d1081613783565b840191505092915050565b6000612d28601b83613468565b9150612d3382613794565b602082019050919050565b6000612d4b601883613468565b9150612d56826137bd565b602082019050919050565b6000612d6e601b83613468565b9150612d79826137e6565b602082019050919050565b6000612d91601e83613468565b9150612d9c8261380f565b602082019050919050565b6000612db4602a83613468565b9150612dbf82613838565b604082019050919050565b6000612dd7602683613468565b9150612de282613887565b604082019050919050565b6000612dfa601e83613468565b9150612e05826138d6565b602082019050919050565b6000612e1d601b83613468565b9150612e28826138ff565b602082019050919050565b6000612e40603183613468565b9150612e4b82613928565b604082019050919050565b6000612e63602283613468565b9150612e6e82613977565b604082019050919050565b6000612e86601f83613468565b9150612e91826139c6565b602082019050919050565b6000612ea9601883613468565b9150612eb4826139ef565b602082019050919050565b6000612ecc602283613468565b9150612ed782613a18565b604082019050919050565b6000612eef602083613468565b9150612efa82613a67565b602082019050919050565b6000612f12601e83613468565b9150612f1d82613a90565b602082019050919050565b6000612f35601f83613468565b9150612f4082613ab9565b602082019050919050565b6000612f58602283613468565b9150612f6382613ae2565b604082019050919050565b6000612f7b601d83613468565b9150612f8682613b31565b602082019050919050565b6000612f9e603983613468565b9150612fa982613b5a565b604082019050919050565b612fbd816135cc565b82525050565b6000612fcf8284612c93565b915081905092915050565b6000602082019050612fef6000830184612c28565b92915050565b600060608201905061300a6000830186612c28565b6130176020830185612c28565b6130246040830184612fb4565b949350505050565b60006040820190506130416000830186612c28565b8181036020830152613054818486612c37565b9050949350505050565b60006040820190506130736000830185612c28565b6130806020830184612fb4565b9392505050565b600060608201905061309c6000830186612c28565b6130a96020830185612fb4565b6130b66040830184612fb4565b949350505050565b60006020820190506130d36000830184612cc4565b92915050565b60006020820190506130ee6000830184612cd3565b92915050565b6000602082019050818103600083015261310e8184612ce2565b905092915050565b6000602082019050818103600083015261312f81612d1b565b9050919050565b6000602082019050818103600083015261314f81612d3e565b9050919050565b6000602082019050818103600083015261316f81612d61565b9050919050565b6000602082019050818103600083015261318f81612d84565b9050919050565b600060208201905081810360008301526131af81612da7565b9050919050565b600060208201905081810360008301526131cf81612dca565b9050919050565b600060208201905081810360008301526131ef81612ded565b9050919050565b6000602082019050818103600083015261320f81612e10565b9050919050565b6000602082019050818103600083015261322f81612e33565b9050919050565b6000602082019050818103600083015261324f81612e56565b9050919050565b6000602082019050818103600083015261326f81612e79565b9050919050565b6000602082019050818103600083015261328f81612e9c565b9050919050565b600060208201905081810360008301526132af81612ebf565b9050919050565b600060208201905081810360008301526132cf81612ee2565b9050919050565b600060208201905081810360008301526132ef81612f05565b9050919050565b6000602082019050818103600083015261330f81612f28565b9050919050565b6000602082019050818103600083015261332f81612f4b565b9050919050565b6000602082019050818103600083015261334f81612f6e565b9050919050565b6000602082019050818103600083015261336f81612f91565b9050919050565b600060208201905061338b6000830184612fb4565b92915050565b60006040820190506133a66000830185612fb4565b6133b36020830184612fb4565b9392505050565b60006060820190506133cf6000830186612fb4565b6133dc6020830185612fb4565b6133e96040830184612fb4565b949350505050565b60006080820190506134066000830187612fb4565b6134136020830186612fb4565b6134206040830185612fb4565b61342d6060830184612fb4565b95945050505050565b600081519050919050565b600081519050919050565b600082825260208201905092915050565b600081905092915050565b600082825260208201905092915050565b6000613484826135cc565b915061348f836135cc565b9250827fffffffffffffffffffffffffffffffffffffffffffffffffffffffffffffffff038211156134c4576134c36136a9565b5b828201905092915050565b60006134da826135cc565b91506134e5836135cc565b9250826134f5576134f46136d8565b5b828204905092915050565b600061350b826135cc565b9150613516836135cc565b9250817fffffffffffffffffffffffffffffffffffffffffffffffffffffffffffffffff048311821515161561354f5761354e6136a9565b5b828202905092915050565b6000613565826135cc565b9150613570836135cc565b925082821015613583576135826136a9565b5b828203905092915050565b6000613599826135ac565b9050919050565b60008115159050919050565b600073ffffffffffffffffffffffffffffffffffffffff82169050919050565b6000819050919050565b60006135e1826135fa565b9050919050565b60006135f3826135fa565b9050919050565b60006136058261360c565b9050919050565b6000613617826135ac565b9050919050565b82818337600083830152505050565b60005b8381101561364b578082015181840152602081019050613630565b8381111561365a576000848401525b50505050565b600061366b826135cc565b91507fffffffffffffffffffffffffffffffffffffffffffffffffffffffffffffffff82141561369e5761369d6136a9565b5b600182019050919050565b7f4e487b7100000000000000000000000000000000000000000000000000000000600052601160045260246000fd5b7f4e487b7100000000000000000000000000000000000000000000000000000000600052601260045260246000fd5b7f4e487b7100000000000000000000000000000000000000000000000000000000600052603160045260246000fd5b7f4e487b7100000000000000000000000000000000000000000000000000000000600052603260045260246000fd5b600080fd5b600080fd5b600080fd5b600080fd5b600080fd5b600080fd5b6000601f19601f8301169050919050565b7f616464556e5374616b654665653a206d696e4461797320697320300000000000600082015250565b7f4e4654205374616b696e673a20456d7074792041727261790000000000000000600082015250565b7f736574556e5374616b654665653a206d696e4461797320697320300000000000600082015250565b7f616464556e5374616b654665653a2066656550657263656e74203e2034300000600082015250565b7f5361666542455032303a204245503230206f7065726174696f6e20646964206e60008201527f6f74207375636365656400000000000000000000000000000000000000000000602082015250565b7f4f776e61626c653a206e6577206f776e657220697320746865207a65726f206160008201527f6464726573730000000000000000000000000000000000000000000000000000602082015250565b7f736574556e5374616b654665653a2066656550657263656e74203e2034300000600082015250565b7f72656d6f7665556e5374616b654665653a2072616e6765206f75740000000000600082015250565b7f4e4654205374616b696e673a206475706c696361746520746f6b656e2069647360008201527f20696e20696e70757420706172616d732e000000000000000000000000000000602082015250565b7f4e4654205374616b696e673a20746f6b656e20616c7265616479207374616b6560008201527f642e000000000000000000000000000000000000000000000000000000000000602082015250565b7f736574556e5374616b654665653a206d696e44617973206973206572726f7200600082015250565b7f736574556e5374616b654665653a2072616e6765206f75740000000000000000600082015250565b7f616464556e5374616b654665653a2066656550657263656e742069732065727260008201527f6f72000000000000000000000000000000000000000000000000000000000000602082015250565b7f4f776e61626c653a2063616c6c6572206973206e6f7420746865206f776e6572600082015250565b7f736574486172766573744665653a2066656550657263656e74203e2034300000600082015250565b7f616464556e5374616b654665653a206d696e44617973206973206572726f7200600082015250565b7f736574556e5374616b654665653a2066656550657263656e742069732065727260008201527f6f72000000000000000000000000000000000000000000000000000000000000602082015250565b7f416464726573733a2063616c6c20746f206e6f6e2d636f6e7472616374000000600082015250565b7f4e667420556e7374616b696e673a20746f6b656e206e6f74207374616b65642060008201527f6f7220696e636f727265637420746f6b656e206f776e65722e00000000000000602082015250565b613bb28161358e565b8114613bbd57600080fd5b50565b613bc9816135a0565b8114613bd457600080fd5b50565b613be0816135cc565b8114613beb57600080fd5b5056fea264697066735822122092cbb7e662f8f03be70be4f0d2743b23b0e54b2bc045d04b2d9808796721c74764736f6c63430008070033",
					"opcodes": "PUSH1 0xC0 PUSH1 0x40 MSTORE CALLVALUE DUP1 ISZERO PUSH3 0x11 JUMPI PUSH1 0x0 DUP1 REVERT JUMPDEST POP PUSH1 0x40 MLOAD PUSH3 0x41AB CODESIZE SUB DUP1 PUSH3 0x41AB DUP4 CODECOPY DUP2 DUP2 ADD PUSH1 0x40 MSTORE DUP2 ADD SWAP1 PUSH3 0x37 SWAP2 SWAP1 PUSH3 0x3C9 JUMP JUMPDEST PUSH3 0x57 PUSH3 0x4B PUSH3 0x127 PUSH1 0x20 SHL PUSH1 0x20 SHR JUMP JUMPDEST PUSH3 0x12F PUSH1 0x20 SHL PUSH1 0x20 SHR JUMP JUMPDEST DUP4 PUSH20 0xFFFFFFFFFFFFFFFFFFFFFFFFFFFFFFFFFFFFFFFF AND PUSH1 0x80 DUP2 PUSH20 0xFFFFFFFFFFFFFFFFFFFFFFFFFFFFFFFFFFFFFFFF AND PUSH1 0x60 SHL DUP2 MSTORE POP POP DUP3 PUSH20 0xFFFFFFFFFFFFFFFFFFFFFFFFFFFFFFFFFFFFFFFF AND PUSH1 0xA0 DUP2 PUSH20 0xFFFFFFFFFFFFFFFFFFFFFFFFFFFFFFFFFFFFFFFF AND PUSH1 0x60 SHL DUP2 MSTORE POP POP DUP2 PUSH1 0x4 DUP2 SWAP1 SSTORE POP DUP1 PUSH1 0x5 PUSH1 0x0 PUSH2 0x100 EXP DUP2 SLOAD DUP2 PUSH20 0xFFFFFFFFFFFFFFFFFFFFFFFFFFFFFFFFFFFFFFFF MUL NOT AND SWAP1 DUP4 PUSH20 0xFFFFFFFFFFFFFFFFFFFFFFFFFFFFFFFFFFFFFFFF AND MUL OR SWAP1 SSTORE POP PUSH3 0x11D PUSH3 0x1F3 PUSH1 0x20 SHL PUSH1 0x20 SHR JUMP JUMPDEST POP POP POP POP PUSH3 0x50E JUMP JUMPDEST PUSH1 0x0 CALLER SWAP1 POP SWAP1 JUMP JUMPDEST PUSH1 0x0 DUP1 PUSH1 0x0 SWAP1 SLOAD SWAP1 PUSH2 0x100 EXP SWAP1 DIV PUSH20 0xFFFFFFFFFFFFFFFFFFFFFFFFFFFFFFFFFFFFFFFF AND SWAP1 POP DUP2 PUSH1 0x0 DUP1 PUSH2 0x100 EXP DUP2 SLOAD DUP2 PUSH20 0xFFFFFFFFFFFFFFFFFFFFFFFFFFFFFFFFFFFFFFFF MUL NOT AND SWAP1 DUP4 PUSH20 0xFFFFFFFFFFFFFFFFFFFFFFFFFFFFFFFFFFFFFFFF AND MUL OR SWAP1 SSTORE POP DUP2 PUSH20 0xFFFFFFFFFFFFFFFFFFFFFFFFFFFFFFFFFFFFFFFF AND DUP2 PUSH20 0xFFFFFFFFFFFFFFFFFFFFFFFFFFFFFFFFFFFFFFFF AND PUSH32 0x8BE0079C531659141344CD1FD0A4F28419497F9722A3DAAFE3B4186F6B6457E0 PUSH1 0x40 MLOAD PUSH1 0x40 MLOAD DUP1 SWAP2 SUB SWAP1 LOG3 POP POP JUMP JUMPDEST PUSH1 0x0 PUSH1 0x40 MLOAD DUP1 PUSH1 0x40 ADD PUSH1 0x40 MSTORE DUP1 PUSH1 0x7 DUP2 MSTORE PUSH1 0x20 ADD PUSH1 0x28 DUP2 MSTORE POP SWAP1 POP PUSH1 0x1 DUP2 SWAP1 DUP1 PUSH1 0x1 DUP2 SLOAD ADD DUP1 DUP3 SSTORE DUP1 SWAP2 POP POP PUSH1 0x1 SWAP1 SUB SWAP1 PUSH1 0x0 MSTORE PUSH1 0x20 PUSH1 0x0 KECCAK256 SWAP1 PUSH1 0x2 MUL ADD PUSH1 0x0 SWAP1 SWAP2 SWAP1 SWAP2 SWAP1 SWAP2 POP PUSH1 0x0 DUP3 ADD MLOAD DUP2 PUSH1 0x0 ADD SSTORE PUSH1 0x20 DUP3 ADD MLOAD DUP2 PUSH1 0x1 ADD SSTORE POP POP PUSH1 0x0 PUSH1 0x40 MLOAD DUP1 PUSH1 0x40 ADD PUSH1 0x40 MSTORE DUP1 PUSH1 0xE DUP2 MSTORE PUSH1 0x20 ADD PUSH1 0x1E DUP2 MSTORE POP SWAP1 POP PUSH1 0x1 DUP2 SWAP1 DUP1 PUSH1 0x1 DUP2 SLOAD ADD DUP1 DUP3 SSTORE DUP1 SWAP2 POP POP PUSH1 0x1 SWAP1 SUB SWAP1 PUSH1 0x0 MSTORE PUSH1 0x20 PUSH1 0x0 KECCAK256 SWAP1 PUSH1 0x2 MUL ADD PUSH1 0x0 SWAP1 SWAP2 SWAP1 SWAP2 SWAP1 SWAP2 POP PUSH1 0x0 DUP3 ADD MLOAD DUP2 PUSH1 0x0 ADD SSTORE PUSH1 0x20 DUP3 ADD MLOAD DUP2 PUSH1 0x1 ADD SSTORE POP POP PUSH1 0x0 PUSH1 0x40 MLOAD DUP1 PUSH1 0x40 ADD PUSH1 0x40 MSTORE DUP1 PUSH1 0x15 DUP2 MSTORE PUSH1 0x20 ADD PUSH1 0x14 DUP2 MSTORE POP SWAP1 POP PUSH1 0x1 DUP2 SWAP1 DUP1 PUSH1 0x1 DUP2 SLOAD ADD DUP1 DUP3 SSTORE DUP1 SWAP2 POP POP PUSH1 0x1 SWAP1 SUB SWAP1 PUSH1 0x0 MSTORE PUSH1 0x20 PUSH1 0x0 KECCAK256 SWAP1 PUSH1 0x2 MUL ADD PUSH1 0x0 SWAP1 SWAP2 SWAP1 SWAP2 SWAP1 SWAP2 POP PUSH1 0x0 DUP3 ADD MLOAD DUP2 PUSH1 0x0 ADD SSTORE PUSH1 0x20 DUP3 ADD MLOAD DUP2 PUSH1 0x1 ADD SSTORE POP POP PUSH1 0x0 PUSH1 0x40 MLOAD DUP1 PUSH1 0x40 ADD PUSH1 0x40 MSTORE DUP1 PUSH1 0x1E DUP2 MSTORE PUSH1 0x20 ADD PUSH1 0xA DUP2 MSTORE POP SWAP1 POP PUSH1 0x1 DUP2 SWAP1 DUP1 PUSH1 0x1 DUP2 SLOAD ADD DUP1 DUP3 SSTORE DUP1 SWAP2 POP POP PUSH1 0x1 SWAP1 SUB SWAP1 PUSH1 0x0 MSTORE PUSH1 0x20 PUSH1 0x0 KECCAK256 SWAP1 PUSH1 0x2 MUL ADD PUSH1 0x0 SWAP1 SWAP2 SWAP1 SWAP2 SWAP1 SWAP2 POP PUSH1 0x0 DUP3 ADD MLOAD DUP2 PUSH1 0x0 ADD SSTORE PUSH1 0x20 DUP3 ADD MLOAD DUP2 PUSH1 0x1 ADD SSTORE POP POP POP POP POP POP JUMP JUMPDEST PUSH1 0x0 DUP2 MLOAD SWAP1 POP PUSH3 0x37E DUP2 PUSH3 0x4A6 JUMP JUMPDEST SWAP3 SWAP2 POP POP JUMP JUMPDEST PUSH1 0x0 DUP2 MLOAD SWAP1 POP PUSH3 0x395 DUP2 PUSH3 0x4C0 JUMP JUMPDEST SWAP3 SWAP2 POP POP JUMP JUMPDEST PUSH1 0x0 DUP2 MLOAD SWAP1 POP PUSH3 0x3AC DUP2 PUSH3 0x4DA JUMP JUMPDEST SWAP3 SWAP2 POP POP JUMP JUMPDEST PUSH1 0x0 DUP2 MLOAD SWAP1 POP PUSH3 0x3C3 DUP2 PUSH3 0x4F4 JUMP JUMPDEST SWAP3 SWAP2 POP POP JUMP JUMPDEST PUSH1 0x0 DUP1 PUSH1 0x0 DUP1 PUSH1 0x80 DUP6 DUP8 SUB SLT ISZERO PUSH3 0x3E6 JUMPI PUSH3 0x3E5 PUSH3 0x4A1 JUMP JUMPDEST JUMPDEST PUSH1 0x0 PUSH3 0x3F6 DUP8 DUP3 DUP9 ADD PUSH3 0x39B JUMP JUMPDEST SWAP5 POP POP PUSH1 0x20 PUSH3 0x409 DUP8 DUP3 DUP9 ADD PUSH3 0x384 JUMP JUMPDEST SWAP4 POP POP PUSH1 0x40 PUSH3 0x41C DUP8 DUP3 DUP9 ADD PUSH3 0x3B2 JUMP JUMPDEST SWAP3 POP POP PUSH1 0x60 PUSH3 0x42F DUP8 DUP3 DUP9 ADD PUSH3 0x36D JUMP JUMPDEST SWAP2 POP POP SWAP3 SWAP6 SWAP2 SWAP5 POP SWAP3 POP JUMP JUMPDEST PUSH1 0x0 PUSH3 0x448 DUP3 PUSH3 0x477 JUMP JUMPDEST SWAP1 POP SWAP2 SWAP1 POP JUMP JUMPDEST PUSH1 0x0 PUSH3 0x45C DUP3 PUSH3 0x43B JUMP JUMPDEST SWAP1 POP SWAP2 SWAP1 POP JUMP JUMPDEST PUSH1 0x0 PUSH3 0x470 DUP3 PUSH3 0x43B JUMP JUMPDEST SWAP1 POP SWAP2 SWAP1 POP JUMP JUMPDEST PUSH1 0x0 PUSH20 0xFFFFFFFFFFFFFFFFFFFFFFFFFFFFFFFFFFFFFFFF DUP3 AND SWAP1 POP SWAP2 SWAP1 POP JUMP JUMPDEST PUSH1 0x0 DUP2 SWAP1 POP SWAP2 SWAP1 POP JUMP JUMPDEST PUSH1 0x0 DUP1 REVERT JUMPDEST PUSH3 0x4B1 DUP2 PUSH3 0x43B JUMP JUMPDEST DUP2 EQ PUSH3 0x4BD JUMPI PUSH1 0x0 DUP1 REVERT JUMPDEST POP JUMP JUMPDEST PUSH3 0x4CB DUP2 PUSH3 0x44F JUMP JUMPDEST DUP2 EQ PUSH3 0x4D7 JUMPI PUSH1 0x0 DUP1 REVERT JUMPDEST POP JUMP JUMPDEST PUSH3 0x4E5 DUP2 PUSH3 0x463 JUMP JUMPDEST DUP2 EQ PUSH3 0x4F1 JUMPI PUSH1 0x0 DUP1 REVERT JUMPDEST POP JUMP JUMPDEST PUSH3 0x4FF DUP2 PUSH3 0x497 JUMP JUMPDEST DUP2 EQ PUSH3 0x50B JUMPI PUSH1 0x0 DUP1 REVERT JUMPDEST POP JUMP JUMPDEST PUSH1 0x80 MLOAD PUSH1 0x60 SHR PUSH1 0xA0 MLOAD PUSH1 0x60 SHR PUSH2 0x3C24 PUSH3 0x587 PUSH1 0x0 CODECOPY PUSH1 0x0 DUP2 DUP2 PUSH2 0xDE7 ADD MSTORE DUP2 DUP2 PUSH2 0xEC1 ADD MSTORE DUP2 DUP2 PUSH2 0x1296 ADD MSTORE DUP2 DUP2 PUSH2 0x1345 ADD MSTORE DUP2 DUP2 PUSH2 0x13F6 ADD MSTORE DUP2 DUP2 PUSH2 0x143D ADD MSTORE DUP2 DUP2 PUSH2 0x14EC ADD MSTORE DUP2 DUP2 PUSH2 0x15BF ADD MSTORE DUP2 DUP2 PUSH2 0x1F38 ADD MSTORE PUSH2 0x1FE7 ADD MSTORE PUSH1 0x0 DUP2 DUP2 PUSH2 0x7BC ADD MSTORE DUP2 DUP2 PUSH2 0x1C31 ADD MSTORE PUSH2 0x2103 ADD MSTORE PUSH2 0x3C24 PUSH1 0x0 RETURN INVALID PUSH1 0x80 PUSH1 0x40 MSTORE CALLVALUE DUP1 ISZERO PUSH2 0x10 JUMPI PUSH1 0x0 DUP1 REVERT JUMPDEST POP PUSH1 0x4 CALLDATASIZE LT PUSH2 0x158 JUMPI PUSH1 0x0 CALLDATALOAD PUSH1 0xE0 SHR DUP1 PUSH4 0x792B55B6 GT PUSH2 0xC3 JUMPI DUP1 PUSH4 0xA9F8D181 GT PUSH2 0x7C JUMPI DUP1 PUSH4 0xA9F8D181 EQ PUSH2 0x37D JUMPI DUP1 PUSH4 0xB5962917 EQ PUSH2 0x39B JUMPI DUP1 PUSH4 0xD06FCBA8 EQ PUSH2 0x3B9 JUMPI DUP1 PUSH4 0xE449F341 EQ PUSH2 0x3D7 JUMPI DUP1 PUSH4 0xF25F4B56 EQ PUSH2 0x3F3 JUMPI DUP1 PUSH4 0xF2FDE38B EQ PUSH2 0x411 JUMPI PUSH2 0x158 JUMP JUMPDEST DUP1 PUSH4 0x792B55B6 EQ PUSH2 0x2BD JUMPI DUP1 PUSH4 0x8AE39CAC EQ PUSH2 0x2D9 JUMPI DUP1 PUSH4 0x8DA5CB5B EQ PUSH2 0x2F7 JUMPI DUP1 PUSH4 0x8DBB1E3A EQ PUSH2 0x315 JUMPI DUP1 PUSH4 0x90D49B9D EQ PUSH2 0x345 JUMPI DUP1 PUSH4 0x9CA62A69 EQ PUSH2 0x361 JUMPI PUSH2 0x158 JUMP JUMPDEST DUP1 PUSH4 0x294D4E4A GT PUSH2 0x115 JUMPI DUP1 PUSH4 0x294D4E4A EQ PUSH2 0x233 JUMPI DUP1 PUSH4 0x43DB3C5F EQ PUSH2 0x24F JUMPI DUP1 PUSH4 0x4641257D EQ PUSH2 0x26D JUMPI DUP1 PUSH4 0x567E98F9 EQ PUSH2 0x277 JUMPI DUP1 PUSH4 0x5E42B455 EQ PUSH2 0x295 JUMPI DUP1 PUSH4 0x715018A6 EQ PUSH2 0x2B3 JUMPI PUSH2 0x158 JUMP JUMPDEST DUP1 PUSH4 0xFBF0A93 EQ PUSH2 0x15D JUMPI DUP1 PUSH4 0x10C77237 EQ PUSH2 0x179 JUMPI DUP1 PUSH4 0x1959A002 EQ PUSH2 0x195 JUMPI DUP1 PUSH4 0x19FCA9F6 EQ PUSH2 0x1C8 JUMPI DUP1 PUSH4 0x1C3E2E7A EQ PUSH2 0x1E6 JUMPI DUP1 PUSH4 0x1E2720FF EQ PUSH2 0x217 JUMPI JUMPDEST PUSH1 0x0 DUP1 REVERT JUMPDEST PUSH2 0x177 PUSH1 0x4 DUP1 CALLDATASIZE SUB DUP2 ADD SWAP1 PUSH2 0x172 SWAP2 SWAP1 PUSH2 0x2AC1 JUMP JUMPDEST PUSH2 0x42D JUMP JUMPDEST STOP JUMPDEST PUSH2 0x193 PUSH1 0x4 DUP1 CALLDATASIZE SUB DUP2 ADD SWAP1 PUSH2 0x18E SWAP2 SWAP1 PUSH2 0x2BD5 JUMP JUMPDEST PUSH2 0x89E JUMP JUMPDEST STOP JUMPDEST PUSH2 0x1AF PUSH1 0x4 DUP1 CALLDATASIZE SUB DUP2 ADD SWAP1 PUSH2 0x1AA SWAP2 SWAP1 PUSH2 0x2A94 JUMP JUMPDEST PUSH2 0xDB5 JUMP JUMPDEST PUSH1 0x40 MLOAD PUSH2 0x1BF SWAP5 SWAP4 SWAP3 SWAP2 SWAP1 PUSH2 0x33F1 JUMP JUMPDEST PUSH1 0x40 MLOAD DUP1 SWAP2 SUB SWAP1 RETURN JUMPDEST PUSH2 0x1D0 PUSH2 0xDE5 JUMP JUMPDEST PUSH1 0x40 MLOAD PUSH2 0x1DD SWAP2 SWAP1 PUSH2 0x30BE JUMP JUMPDEST PUSH1 0x40 MLOAD DUP1 SWAP2 SUB SWAP1 RETURN JUMPDEST PUSH2 0x200 PUSH1 0x4 DUP1 CALLDATASIZE SUB DUP2 ADD SWAP1 PUSH2 0x1FB SWAP2 SWAP1 PUSH2 0x2B3B JUMP JUMPDEST PUSH2 0xE09 JUMP JUMPDEST PUSH1 0x40 MLOAD PUSH2 0x20E SWAP3 SWAP2 SWAP1 PUSH2 0x3391 JUMP JUMPDEST PUSH1 0x40 MLOAD DUP1 SWAP2 SUB SWAP1 RETURN JUMPDEST PUSH2 0x231 PUSH1 0x4 DUP1 CALLDATASIZE SUB DUP2 ADD SWAP1 PUSH2 0x22C SWAP2 SWAP1 PUSH2 0x2B3B JUMP JUMPDEST PUSH2 0xE3D JUMP JUMPDEST STOP JUMPDEST PUSH2 0x24D PUSH1 0x4 DUP1 CALLDATASIZE SUB DUP2 ADD SWAP1 PUSH2 0x248 SWAP2 SWAP1 PUSH2 0x2B95 JUMP JUMPDEST PUSH2 0xF72 JUMP JUMPDEST STOP JUMPDEST PUSH2 0x257 PUSH2 0x1201 JUMP JUMPDEST PUSH1 0x40 MLOAD PUSH2 0x264 SWAP2 SWAP1 PUSH2 0x3376 JUMP JUMPDEST PUSH1 0x40 MLOAD DUP1 SWAP2 SUB SWAP1 RETURN JUMPDEST PUSH2 0x275 PUSH2 0x1207 JUMP JUMPDEST STOP JUMPDEST PUSH2 0x27F PUSH2 0x168E JUMP JUMPDEST PUSH1 0x40 MLOAD PUSH2 0x28C SWAP2 SWAP1 PUSH2 0x3376 JUMP JUMPDEST PUSH1 0x40 MLOAD DUP1 SWAP2 SUB SWAP1 RETURN JUMPDEST PUSH2 0x29D PUSH2 0x1694 JUMP JUMPDEST PUSH1 0x40 MLOAD PUSH2 0x2AA SWAP2 SWAP1 PUSH2 0x3376 JUMP JUMPDEST PUSH1 0x40 MLOAD DUP1 SWAP2 SUB SWAP1 RETURN JUMPDEST PUSH2 0x2BB PUSH2 0x16FF JUMP JUMPDEST STOP JUMPDEST PUSH2 0x2D7 PUSH1 0x4 DUP1 CALLDATASIZE SUB DUP2 ADD SWAP1 PUSH2 0x2D2 SWAP2 SWAP1 PUSH2 0x2B3B JUMP JUMPDEST PUSH2 0x1787 JUMP JUMPDEST STOP JUMPDEST PUSH2 0x2E1 PUSH2 0x1888 JUMP JUMPDEST PUSH1 0x40 MLOAD PUSH2 0x2EE SWAP2 SWAP1 PUSH2 0x3376 JUMP JUMPDEST PUSH1 0x40 MLOAD DUP1 SWAP2 SUB SWAP1 RETURN JUMPDEST PUSH2 0x2FF PUSH2 0x188E JUMP JUMPDEST PUSH1 0x40 MLOAD PUSH2 0x30C SWAP2 SWAP1 PUSH2 0x2FDA JUMP JUMPDEST PUSH1 0x40 MLOAD DUP1 SWAP2 SUB SWAP1 RETURN JUMPDEST PUSH2 0x32F PUSH1 0x4 DUP1 CALLDATASIZE SUB DUP2 ADD SWAP1 PUSH2 0x32A SWAP2 SWAP1 PUSH2 0x2B95 JUMP JUMPDEST PUSH2 0x18B7 JUMP JUMPDEST PUSH1 0x40 MLOAD PUSH2 0x33C SWAP2 SWAP1 PUSH2 0x3376 JUMP JUMPDEST PUSH1 0x40 MLOAD DUP1 SWAP2 SUB SWAP1 RETURN JUMPDEST PUSH2 0x35F PUSH1 0x4 DUP1 CALLDATASIZE SUB DUP2 ADD SWAP1 PUSH2 0x35A SWAP2 SWAP1 PUSH2 0x2A94 JUMP JUMPDEST PUSH2 0x18D4 JUMP JUMPDEST STOP JUMPDEST PUSH2 0x37B PUSH1 0x4 DUP1 CALLDATASIZE SUB DUP2 ADD SWAP1 PUSH2 0x376 SWAP2 SWAP1 PUSH2 0x2B3B JUMP JUMPDEST PUSH2 0x19F9 JUMP JUMPDEST STOP JUMPDEST PUSH2 0x385 PUSH2 0x1C23 JUMP JUMPDEST PUSH1 0x40 MLOAD PUSH2 0x392 SWAP2 SWAP1 PUSH2 0x3376 JUMP JUMPDEST PUSH1 0x40 MLOAD DUP1 SWAP2 SUB SWAP1 RETURN JUMPDEST PUSH2 0x3A3 PUSH2 0x1C29 JUMP JUMPDEST PUSH1 0x40 MLOAD PUSH2 0x3B0 SWAP2 SWAP1 PUSH2 0x3376 JUMP JUMPDEST PUSH1 0x40 MLOAD DUP1 SWAP2 SUB SWAP1 RETURN JUMPDEST PUSH2 0x3C1 PUSH2 0x1C2F JUMP JUMPDEST PUSH1 0x40 MLOAD PUSH2 0x3CE SWAP2 SWAP1 PUSH2 0x30D9 JUMP JUMPDEST PUSH1 0x40 MLOAD DUP1 SWAP2 SUB SWAP1 RETURN JUMPDEST PUSH2 0x3F1 PUSH1 0x4 DUP1 CALLDATASIZE SUB DUP2 ADD SWAP1 PUSH2 0x3EC SWAP2 SWAP1 PUSH2 0x2AC1 JUMP JUMPDEST PUSH2 0x1C53 JUMP JUMPDEST STOP JUMPDEST PUSH2 0x3FB PUSH2 0x21E6 JUMP JUMPDEST PUSH1 0x40 MLOAD PUSH2 0x408 SWAP2 SWAP1 PUSH2 0x2FDA JUMP JUMPDEST PUSH1 0x40 MLOAD DUP1 SWAP2 SUB SWAP1 RETURN JUMPDEST PUSH2 0x42B PUSH1 0x4 DUP1 CALLDATASIZE SUB DUP2 ADD SWAP1 PUSH2 0x426 SWAP2 SWAP1 PUSH2 0x2A94 JUMP JUMPDEST PUSH2 0x220C JUMP JUMPDEST STOP JUMPDEST PUSH1 0x0 DUP3 DUP3 SWAP1 POP GT PUSH2 0x473 JUMPI PUSH1 0x40 MLOAD PUSH32 0x8C379A000000000000000000000000000000000000000000000000000000000 DUP2 MSTORE PUSH1 0x4 ADD PUSH2 0x46A SWAP1 PUSH2 0x3136 JUMP JUMPDEST PUSH1 0x40 MLOAD DUP1 SWAP2 SUB SWAP1 REVERT JUMPDEST PUSH1 0x0 JUMPDEST DUP3 DUP3 SWAP1 POP DUP2 LT ISZERO PUSH2 0x5FB JUMPI PUSH1 0x0 DUP4 DUP4 DUP4 DUP2 DUP2 LT PUSH2 0x496 JUMPI PUSH2 0x495 PUSH2 0x3736 JUMP JUMPDEST JUMPDEST SWAP1 POP PUSH1 0x20 MUL ADD CALLDATALOAD SWAP1 POP PUSH1 0x0 PUSH20 0xFFFFFFFFFFFFFFFFFFFFFFFFFFFFFFFFFFFFFFFF AND PUSH1 0x9 PUSH1 0x0 DUP4 DUP2 MSTORE PUSH1 0x20 ADD SWAP1 DUP2 MSTORE PUSH1 0x20 ADD PUSH1 0x0 KECCAK256 PUSH1 0x0 SWAP1 SLOAD SWAP1 PUSH2 0x100 EXP SWAP1 DIV PUSH20 0xFFFFFFFFFFFFFFFFFFFFFFFFFFFFFFFFFFFFFFFF AND PUSH20 0xFFFFFFFFFFFFFFFFFFFFFFFFFFFFFFFFFFFFFFFF AND EQ PUSH2 0x541 JUMPI PUSH1 0x40 MLOAD PUSH32 0x8C379A000000000000000000000000000000000000000000000000000000000 DUP2 MSTORE PUSH1 0x4 ADD PUSH2 0x538 SWAP1 PUSH2 0x3236 JUMP JUMPDEST PUSH1 0x40 MLOAD DUP1 SWAP2 SUB SWAP1 REVERT JUMPDEST PUSH1 0x0 PUSH1 0x1 DUP4 PUSH2 0x550 SWAP2 SWAP1 PUSH2 0x3479 JUMP JUMPDEST SWAP1 POP JUMPDEST DUP5 DUP5 SWAP1 POP DUP2 LT ISZERO PUSH2 0x5E6 JUMPI DUP5 DUP5 DUP3 DUP2 DUP2 LT PUSH2 0x571 JUMPI PUSH2 0x570 PUSH2 0x3736 JUMP JUMPDEST JUMPDEST SWAP1 POP PUSH1 0x20 MUL ADD CALLDATALOAD DUP6 DUP6 DUP6 DUP2 DUP2 LT PUSH2 0x58B JUMPI PUSH2 0x58A PUSH2 0x3736 JUMP JUMPDEST JUMPDEST SWAP1 POP PUSH1 0x20 MUL ADD CALLDATALOAD EQ ISZERO PUSH2 0x5D3 JUMPI PUSH1 0x40 MLOAD PUSH32 0x8C379A000000000000000000000000000000000000000000000000000000000 DUP2 MSTORE PUSH1 0x4 ADD PUSH2 0x5CA SWAP1 PUSH2 0x3216 JUMP JUMPDEST PUSH1 0x40 MLOAD DUP1 SWAP2 SUB SWAP1 REVERT JUMPDEST DUP1 DUP1 PUSH2 0x5DE SWAP1 PUSH2 0x3660 JUMP JUMPDEST SWAP2 POP POP PUSH2 0x553 JUMP JUMPDEST POP POP DUP1 DUP1 PUSH2 0x5F3 SWAP1 PUSH2 0x3660 JUMP JUMPDEST SWAP2 POP POP PUSH2 0x476 JUMP JUMPDEST POP PUSH2 0x604 PUSH2 0x2304 JUMP JUMPDEST PUSH1 0x0 PUSH1 0xB PUSH1 0x0 CALLER PUSH20 0xFFFFFFFFFFFFFFFFFFFFFFFFFFFFFFFFFFFFFFFF AND PUSH20 0xFFFFFFFFFFFFFFFFFFFFFFFFFFFFFFFFFFFFFFFF AND DUP2 MSTORE PUSH1 0x20 ADD SWAP1 DUP2 MSTORE PUSH1 0x20 ADD PUSH1 0x0 KECCAK256 SWAP1 POP PUSH1 0x0 DUP2 PUSH1 0x0 ADD SLOAD GT ISZERO PUSH2 0x6BF JUMPI PUSH1 0x0 PUSH2 0x69C DUP3 PUSH1 0x1 ADD SLOAD PUSH2 0x68E PUSH5 0xE8D4A51000 PUSH2 0x680 PUSH1 0x3 SLOAD DUP8 PUSH1 0x0 ADD SLOAD PUSH2 0x2438 SWAP1 SWAP2 SWAP1 PUSH4 0xFFFFFFFF AND JUMP JUMPDEST PUSH2 0x244E SWAP1 SWAP2 SWAP1 PUSH4 0xFFFFFFFF AND JUMP JUMPDEST PUSH2 0x2464 SWAP1 SWAP2 SWAP1 PUSH4 0xFFFFFFFF AND JUMP JUMPDEST SWAP1 POP PUSH2 0x6B5 DUP2 DUP4 PUSH1 0x2 ADD SLOAD PUSH2 0x247A SWAP1 SWAP2 SWAP1 PUSH4 0xFFFFFFFF AND JUMP JUMPDEST DUP3 PUSH1 0x2 ADD DUP2 SWAP1 SSTORE POP POP JUMPDEST PUSH1 0x0 JUMPDEST DUP4 DUP4 SWAP1 POP DUP2 LT ISZERO PUSH2 0x85D JUMPI PUSH1 0x0 DUP5 DUP5 DUP4 DUP2 DUP2 LT PUSH2 0x6E2 JUMPI PUSH2 0x6E1 PUSH2 0x3736 JUMP JUMPDEST JUMPDEST SWAP1 POP PUSH1 0x20 MUL ADD CALLDATALOAD SWAP1 POP CALLER PUSH1 0x9 PUSH1 0x0 DUP4 DUP2 MSTORE PUSH1 0x20 ADD SWAP1 DUP2 MSTORE PUSH1 0x20 ADD PUSH1 0x0 KECCAK256 PUSH1 0x0 PUSH2 0x100 EXP DUP2 SLOAD DUP2 PUSH20 0xFFFFFFFFFFFFFFFFFFFFFFFFFFFFFFFFFFFFFFFF MUL NOT AND SWAP1 DUP4 PUSH20 0xFFFFFFFFFFFFFFFFFFFFFFFFFFFFFFFFFFFFFFFF AND MUL OR SWAP1 SSTORE POP PUSH2 0x753 PUSH1 0x1 PUSH1 0x7 SLOAD PUSH2 0x247A SWAP1 SWAP2 SWAP1 PUSH4 0xFFFFFFFF AND JUMP JUMPDEST PUSH1 0x7 DUP2 SWAP1 SSTORE POP PUSH2 0x771 PUSH1 0x1 DUP5 PUSH1 0x0 ADD SLOAD PUSH2 0x247A SWAP1 SWAP2 SWAP1 PUSH4 0xFFFFFFFF AND JUMP JUMPDEST DUP4 PUSH1 0x0 ADD DUP2 SWAP1 SSTORE POP PUSH2 0x7A9 PUSH5 0xE8D4A51000 PUSH2 0x79B PUSH1 0x3 SLOAD DUP7 PUSH1 0x0 ADD SLOAD PUSH2 0x2438 SWAP1 SWAP2 SWAP1 PUSH4 0xFFFFFFFF AND JUMP JUMPDEST PUSH2 0x244E SWAP1 SWAP2 SWAP1 PUSH4 0xFFFFFFFF AND JUMP JUMPDEST DUP4 PUSH1 0x1 ADD DUP2 SWAP1 SSTORE POP TIMESTAMP DUP4 PUSH1 0x3 ADD DUP2 SWAP1 SSTORE POP PUSH32 0x0 PUSH20 0xFFFFFFFFFFFFFFFFFFFFFFFFFFFFFFFFFFFFFFFF AND PUSH4 0x23B872DD CALLER ADDRESS DUP5 PUSH1 0x40 MLOAD DUP5 PUSH4 0xFFFFFFFF AND PUSH1 0xE0 SHL DUP2 MSTORE PUSH1 0x4 ADD PUSH2 0x817 SWAP4 SWAP3 SWAP2 SWAP1 PUSH2 0x2FF5 JUMP JUMPDEST PUSH1 0x0 PUSH1 0x40 MLOAD DUP1 DUP4 SUB DUP2 PUSH1 0x0 DUP8 DUP1 EXTCODESIZE ISZERO DUP1 ISZERO PUSH2 0x831 JUMPI PUSH1 0x0 DUP1 REVERT JUMPDEST POP GAS CALL ISZERO DUP1 ISZERO PUSH2 0x845 JUMPI RETURNDATASIZE PUSH1 0x0 DUP1 RETURNDATACOPY RETURNDATASIZE PUSH1 0x0 REVERT JUMPDEST POP POP POP POP POP DUP1 DUP1 PUSH2 0x855 SWAP1 PUSH2 0x3660 JUMP JUMPDEST SWAP2 POP POP PUSH2 0x6C2 JUMP JUMPDEST POP PUSH32 0x134B166C6094CC1CCBF1E3353CE5C3CD9FD29869051BDB999895854D77CC5EF6 CALLER DUP5 DUP5 PUSH1 0x40 MLOAD PUSH2 0x891 SWAP4 SWAP3 SWAP2 SWAP1 PUSH2 0x302C JUMP JUMPDEST PUSH1 0x40 MLOAD DUP1 SWAP2 SUB SWAP1 LOG1 POP POP POP JUMP JUMPDEST PUSH2 0x8A6 PUSH2 0x2490 JUMP JUMPDEST PUSH20 0xFFFFFFFFFFFFFFFFFFFFFFFFFFFFFFFFFFFFFFFF AND PUSH2 0x8C4 PUSH2 0x188E JUMP JUMPDEST PUSH20 0xFFFFFFFFFFFFFFFFFFFFFFFFFFFFFFFFFFFFFFFF AND EQ PUSH2 0x91A JUMPI PUSH1 0x40 MLOAD PUSH32 0x8C379A000000000000000000000000000000000000000000000000000000000 DUP2 MSTORE PUSH1 0x4 ADD PUSH2 0x911 SWAP1 PUSH2 0x32B6 JUMP JUMPDEST PUSH1 0x40 MLOAD DUP1 SWAP2 SUB SWAP1 REVERT JUMPDEST PUSH1 0x1 DUP1 SLOAD SWAP1 POP DUP4 LT PUSH2 0x961 JUMPI PUSH1 0x40 MLOAD PUSH32 0x8C379A000000000000000000000000000000000000000000000000000000000 DUP2 MSTORE PUSH1 0x4 ADD PUSH2 0x958 SWAP1 PUSH2 0x3276 JUMP JUMPDEST PUSH1 0x40 MLOAD DUP1 SWAP2 SUB SWAP1 REVERT JUMPDEST PUSH1 0x0 DUP3 GT PUSH2 0x9A4 JUMPI PUSH1 0x40 MLOAD PUSH32 0x8C379A000000000000000000000000000000000000000000000000000000000 DUP2 MSTORE PUSH1 0x4 ADD PUSH2 0x99B SWAP1 PUSH2 0x3156 JUMP JUMPDEST PUSH1 0x40 MLOAD DUP1 SWAP2 SUB SWAP1 REVERT JUMPDEST PUSH1 0x28 DUP2 GT ISZERO PUSH2 0x9E8 JUMPI PUSH1 0x40 MLOAD PUSH32 0x8C379A000000000000000000000000000000000000000000000000000000000 DUP2 MSTORE PUSH1 0x4 ADD PUSH2 0x9DF SWAP1 PUSH2 0x31D6 JUMP JUMPDEST PUSH1 0x40 MLOAD DUP1 SWAP2 SUB SWAP1 REVERT JUMPDEST PUSH1 0x0 DUP4 EQ ISZERO PUSH2 0xAC4 JUMPI PUSH1 0x1 DUP1 DUP2 SLOAD DUP2 LT PUSH2 0xA05 JUMPI PUSH2 0xA04 PUSH2 0x3736 JUMP JUMPDEST JUMPDEST SWAP1 PUSH1 0x0 MSTORE PUSH1 0x20 PUSH1 0x0 KECCAK256 SWAP1 PUSH1 0x2 MUL ADD PUSH1 0x0 ADD SLOAD DUP3 LT PUSH2 0xA58 JUMPI PUSH1 0x40 MLOAD PUSH32 0x8C379A000000000000000000000000000000000000000000000000000000000 DUP2 MSTORE PUSH1 0x4 ADD PUSH2 0xA4F SWAP1 PUSH2 0x3256 JUMP JUMPDEST PUSH1 0x40 MLOAD DUP1 SWAP2 SUB SWAP1 REVERT JUMPDEST PUSH1 0x1 DUP1 DUP2 SLOAD DUP2 LT PUSH2 0xA6C JUMPI PUSH2 0xA6B PUSH2 0x3736 JUMP JUMPDEST JUMPDEST SWAP1 PUSH1 0x0 MSTORE PUSH1 0x20 PUSH1 0x0 KECCAK256 SWAP1 PUSH1 0x2 MUL ADD PUSH1 0x1 ADD SLOAD DUP2 GT PUSH2 0xABF JUMPI PUSH1 0x40 MLOAD PUSH32 0x8C379A000000000000000000000000000000000000000000000000000000000 DUP2 MSTORE PUSH1 0x4 ADD PUSH2 0xAB6 SWAP1 PUSH2 0x3316 JUMP JUMPDEST PUSH1 0x40 MLOAD DUP1 SWAP2 SUB SWAP1 REVERT JUMPDEST PUSH2 0xD21 JUMP JUMPDEST PUSH1 0x1 DUP1 DUP1 SLOAD SWAP1 POP PUSH2 0xAD5 SWAP2 SWAP1 PUSH2 0x355A JUMP JUMPDEST DUP4 EQ ISZERO PUSH2 0xBC5 JUMPI PUSH1 0x1 DUP1 DUP5 PUSH2 0xAEA SWAP2 SWAP1 PUSH2 0x355A JUMP JUMPDEST DUP2 SLOAD DUP2 LT PUSH2 0xAFB JUMPI PUSH2 0xAFA PUSH2 0x3736 JUMP JUMPDEST JUMPDEST SWAP1 PUSH1 0x0 MSTORE PUSH1 0x20 PUSH1 0x0 KECCAK256 SWAP1 PUSH1 0x2 MUL ADD PUSH1 0x0 ADD SLOAD DUP3 GT PUSH2 0xB4E JUMPI PUSH1 0x40 MLOAD PUSH32 0x8C379A000000000000000000000000000000000000000000000000000000000 DUP2 MSTORE PUSH1 0x4 ADD PUSH2 0xB45 SWAP1 PUSH2 0x3256 JUMP JUMPDEST PUSH1 0x40 MLOAD DUP1 SWAP2 SUB SWAP1 REVERT JUMPDEST PUSH1 0x1 DUP1 DUP5 PUSH2 0xB5C SWAP2 SWAP1 PUSH2 0x355A JUMP JUMPDEST DUP2 SLOAD DUP2 LT PUSH2 0xB6D JUMPI PUSH2 0xB6C PUSH2 0x3736 JUMP JUMPDEST JUMPDEST SWAP1 PUSH1 0x0 MSTORE PUSH1 0x20 PUSH1 0x0 KECCAK256 SWAP1 PUSH1 0x2 MUL ADD PUSH1 0x1 ADD SLOAD DUP2 LT PUSH2 0xBC0 JUMPI PUSH1 0x40 MLOAD PUSH32 0x8C379A000000000000000000000000000000000000000000000000000000000 DUP2 MSTORE PUSH1 0x4 ADD PUSH2 0xBB7 SWAP1 PUSH2 0x3316 JUMP JUMPDEST PUSH1 0x40 MLOAD DUP1 SWAP2 SUB SWAP1 REVERT JUMPDEST PUSH2 0xD20 JUMP JUMPDEST PUSH1 0x1 DUP1 DUP5 PUSH2 0xBD3 SWAP2 SWAP1 PUSH2 0x355A JUMP JUMPDEST DUP2 SLOAD DUP2 LT PUSH2 0xBE4 JUMPI PUSH2 0xBE3 PUSH2 0x3736 JUMP JUMPDEST JUMPDEST SWAP1 PUSH1 0x0 MSTORE PUSH1 0x20 PUSH1 0x0 KECCAK256 SWAP1 PUSH1 0x2 MUL ADD PUSH1 0x0 ADD SLOAD DUP3 GT DUP1 ISZERO PUSH2 0xC33 JUMPI POP PUSH1 0x1 DUP1 DUP5 PUSH2 0xC0D SWAP2 SWAP1 PUSH2 0x3479 JUMP JUMPDEST DUP2 SLOAD DUP2 LT PUSH2 0xC1E JUMPI PUSH2 0xC1D PUSH2 0x3736 JUMP JUMPDEST JUMPDEST SWAP1 PUSH1 0x0 MSTORE PUSH1 0x20 PUSH1 0x0 KECCAK256 SWAP1 PUSH1 0x2 MUL ADD PUSH1 0x0 ADD SLOAD DUP3 LT JUMPDEST PUSH2 0xC72 JUMPI PUSH1 0x40 MLOAD PUSH32 0x8C379A000000000000000000000000000000000000000000000000000000000 DUP2 MSTORE PUSH1 0x4 ADD PUSH2 0xC69 SWAP1 PUSH2 0x3256 JUMP JUMPDEST PUSH1 0x40 MLOAD DUP1 SWAP2 SUB SWAP1 REVERT JUMPDEST PUSH1 0x1 DUP1 DUP5 PUSH2 0xC80 SWAP2 SWAP1 PUSH2 0x355A JUMP JUMPDEST DUP2 SLOAD DUP2 LT PUSH2 0xC91 JUMPI PUSH2 0xC90 PUSH2 0x3736 JUMP JUMPDEST JUMPDEST SWAP1 PUSH1 0x0 MSTORE PUSH1 0x20 PUSH1 0x0 KECCAK256 SWAP1 PUSH1 0x2 MUL ADD PUSH1 0x1 ADD SLOAD DUP2 LT DUP1 ISZERO PUSH2 0xCE0 JUMPI POP PUSH1 0x1 DUP1 DUP5 PUSH2 0xCBA SWAP2 SWAP1 PUSH2 0x3479 JUMP JUMPDEST DUP2 SLOAD DUP2 LT PUSH2 0xCCB JUMPI PUSH2 0xCCA PUSH2 0x3736 JUMP JUMPDEST JUMPDEST SWAP1 PUSH1 0x0 MSTORE PUSH1 0x20 PUSH1 0x0 KECCAK256 SWAP1 PUSH1 0x2 MUL ADD PUSH1 0x1 ADD SLOAD DUP2 GT JUMPDEST PUSH2 0xD1F JUMPI PUSH1 0x40 MLOAD PUSH32 0x8C379A000000000000000000000000000000000000000000000000000000000 DUP2 MSTORE PUSH1 0x4 ADD PUSH2 0xD16 SWAP1 PUSH2 0x3316 JUMP JUMPDEST PUSH1 0x40 MLOAD DUP1 SWAP2 SUB SWAP1 REVERT JUMPDEST JUMPDEST JUMPDEST DUP1 PUSH1 0x1 DUP5 DUP2 SLOAD DUP2 LT PUSH2 0xD36 JUMPI PUSH2 0xD35 PUSH2 0x3736 JUMP JUMPDEST JUMPDEST SWAP1 PUSH1 0x0 MSTORE PUSH1 0x20 PUSH1 0x0 KECCAK256 SWAP1 PUSH1 0x2 MUL ADD PUSH1 0x1 ADD DUP2 SWAP1 SSTORE POP DUP2 PUSH1 0x1 DUP5 DUP2 SLOAD DUP2 LT PUSH2 0xD60 JUMPI PUSH2 0xD5F PUSH2 0x3736 JUMP JUMPDEST JUMPDEST SWAP1 PUSH1 0x0 MSTORE PUSH1 0x20 PUSH1 0x0 KECCAK256 SWAP1 PUSH1 0x2 MUL ADD PUSH1 0x0 ADD DUP2 SWAP1 SSTORE POP PUSH32 0xC5B7EF59C45162D0F957AF811D4AD5F8980E588A729FA3B80EBEF5020E4C2725 DUP4 DUP4 DUP4 PUSH1 0x40 MLOAD PUSH2 0xDA8 SWAP4 SWAP3 SWAP2 SWAP1 PUSH2 0x33BA JUMP JUMPDEST PUSH1 0x40 MLOAD DUP1 SWAP2 SUB SWAP1 LOG1 POP POP POP JUMP JUMPDEST PUSH1 0xB PUSH1 0x20 MSTORE DUP1 PUSH1 0x0 MSTORE PUSH1 0x40 PUSH1 0x0 KECCAK256 PUSH1 0x0 SWAP2 POP SWAP1 POP DUP1 PUSH1 0x0 ADD SLOAD SWAP1 DUP1 PUSH1 0x1 ADD SLOAD SWAP1 DUP1 PUSH1 0x2 ADD SLOAD SWAP1 DUP1 PUSH1 0x3 ADD SLOAD SWAP1 POP DUP5 JUMP JUMPDEST PUSH32 0x0 DUP2 JUMP JUMPDEST PUSH1 0x1 DUP2 DUP2 SLOAD DUP2 LT PUSH2 0xE19 JUMPI PUSH1 0x0 DUP1 REVERT JUMPDEST SWAP1 PUSH1 0x0 MSTORE PUSH1 0x20 PUSH1 0x0 KECCAK256 SWAP1 PUSH1 0x2 MUL ADD PUSH1 0x0 SWAP2 POP SWAP1 POP DUP1 PUSH1 0x0 ADD SLOAD SWAP1 DUP1 PUSH1 0x1 ADD SLOAD SWAP1 POP DUP3 JUMP JUMPDEST PUSH2 0xE45 PUSH2 0x2490 JUMP JUMPDEST PUSH20 0xFFFFFFFFFFFFFFFFFFFFFFFFFFFFFFFFFFFFFFFF AND PUSH2 0xE63 PUSH2 0x188E JUMP JUMPDEST PUSH20 0xFFFFFFFFFFFFFFFFFFFFFFFFFFFFFFFFFFFFFFFF AND EQ PUSH2 0xEB9 JUMPI PUSH1 0x40 MLOAD PUSH32 0x8C379A000000000000000000000000000000000000000000000000000000000 DUP2 MSTORE PUSH1 0x4 ADD PUSH2 0xEB0 SWAP1 PUSH2 0x32B6 JUMP JUMPDEST PUSH1 0x40 MLOAD DUP1 SWAP2 SUB SWAP1 REVERT JUMPDEST PUSH2 0xF06 CALLER ADDRESS DUP4 PUSH32 0x0 PUSH20 0xFFFFFFFFFFFFFFFFFFFFFFFFFFFFFFFFFFFFFFFF AND PUSH2 0x2498 SWAP1 SWAP4 SWAP3 SWAP2 SWAP1 PUSH4 0xFFFFFFFF AND JUMP JUMPDEST CALLER PUSH20 0xFFFFFFFFFFFFFFFFFFFFFFFFFFFFFFFFFFFFFFFF AND PUSH32 0x4F7FD5C9E17300A4800FD572EA53FC291E2EE7470D73346D16B357FAEE4E7210 DUP3 PUSH1 0x40 MLOAD PUSH2 0xF4C SWAP2 SWAP1 PUSH2 0x3376 JUMP JUMPDEST PUSH1 0x40 MLOAD DUP1 SWAP2 SUB SWAP1 LOG2 PUSH2 0xF69 DUP2 PUSH1 0x8 SLOAD PUSH2 0x247A SWAP1 SWAP2 SWAP1 PUSH4 0xFFFFFFFF AND JUMP JUMPDEST PUSH1 0x8 DUP2 SWAP1 SSTORE POP POP JUMP JUMPDEST PUSH2 0xF7A PUSH2 0x2490 JUMP JUMPDEST PUSH20 0xFFFFFFFFFFFFFFFFFFFFFFFFFFFFFFFFFFFFFFFF AND PUSH2 0xF98 PUSH2 0x188E JUMP JUMPDEST PUSH20 0xFFFFFFFFFFFFFFFFFFFFFFFFFFFFFFFFFFFFFFFF AND EQ PUSH2 0xFEE JUMPI PUSH1 0x40 MLOAD PUSH32 0x8C379A000000000000000000000000000000000000000000000000000000000 DUP2 MSTORE PUSH1 0x4 ADD PUSH2 0xFE5 SWAP1 PUSH2 0x32B6 JUMP JUMPDEST PUSH1 0x40 MLOAD DUP1 SWAP2 SUB SWAP1 REVERT JUMPDEST PUSH1 0x0 DUP3 GT PUSH2 0x1031 JUMPI PUSH1 0x40 MLOAD PUSH32 0x8C379A000000000000000000000000000000000000000000000000000000000 DUP2 MSTORE PUSH1 0x4 ADD PUSH2 0x1028 SWAP1 PUSH2 0x3116 JUMP JUMPDEST PUSH1 0x40 MLOAD DUP1 SWAP2 SUB SWAP1 REVERT JUMPDEST PUSH1 0x28 DUP2 GT ISZERO PUSH2 0x1075 JUMPI PUSH1 0x40 MLOAD PUSH32 0x8C379A000000000000000000000000000000000000000000000000000000000 DUP2 MSTORE PUSH1 0x4 ADD PUSH2 0x106C SWAP1 PUSH2 0x3176 JUMP JUMPDEST PUSH1 0x40 MLOAD DUP1 SWAP2 SUB SWAP1 REVERT JUMPDEST PUSH1 0x1 DUP1 DUP1 DUP1 SLOAD SWAP1 POP PUSH2 0x1087 SWAP2 SWAP1 PUSH2 0x355A JUMP JUMPDEST DUP2 SLOAD DUP2 LT PUSH2 0x1098 JUMPI PUSH2 0x1097 PUSH2 0x3736 JUMP JUMPDEST JUMPDEST SWAP1 PUSH1 0x0 MSTORE PUSH1 0x20 PUSH1 0x0 KECCAK256 SWAP1 PUSH1 0x2 MUL ADD PUSH1 0x0 ADD SLOAD DUP3 GT PUSH2 0x10EB JUMPI PUSH1 0x40 MLOAD PUSH32 0x8C379A000000000000000000000000000000000000000000000000000000000 DUP2 MSTORE PUSH1 0x4 ADD PUSH2 0x10E2 SWAP1 PUSH2 0x32F6 JUMP JUMPDEST PUSH1 0x40 MLOAD DUP1 SWAP2 SUB SWAP1 REVERT JUMPDEST PUSH1 0x1 DUP1 DUP1 DUP1 SLOAD SWAP1 POP PUSH2 0x10FD SWAP2 SWAP1 PUSH2 0x355A JUMP JUMPDEST DUP2 SLOAD DUP2 LT PUSH2 0x110E JUMPI PUSH2 0x110D PUSH2 0x3736 JUMP JUMPDEST JUMPDEST SWAP1 PUSH1 0x0 MSTORE PUSH1 0x20 PUSH1 0x0 KECCAK256 SWAP1 PUSH1 0x2 MUL ADD PUSH1 0x1 ADD SLOAD DUP2 LT PUSH2 0x1161 JUMPI PUSH1 0x40 MLOAD PUSH32 0x8C379A000000000000000000000000000000000000000000000000000000000 DUP2 MSTORE PUSH1 0x4 ADD PUSH2 0x1158 SWAP1 PUSH2 0x3296 JUMP JUMPDEST PUSH1 0x40 MLOAD DUP1 SWAP2 SUB SWAP1 REVERT JUMPDEST PUSH1 0x0 PUSH1 0x40 MLOAD DUP1 PUSH1 0x40 ADD PUSH1 0x40 MSTORE DUP1 DUP5 DUP2 MSTORE PUSH1 0x20 ADD DUP4 DUP2 MSTORE POP SWAP1 POP PUSH1 0x1 DUP2 SWAP1 DUP1 PUSH1 0x1 DUP2 SLOAD ADD DUP1 DUP3 SSTORE DUP1 SWAP2 POP POP PUSH1 0x1 SWAP1 SUB SWAP1 PUSH1 0x0 MSTORE PUSH1 0x20 PUSH1 0x0 KECCAK256 SWAP1 PUSH1 0x2 MUL ADD PUSH1 0x0 SWAP1 SWAP2 SWAP1 SWAP2 SWAP1 SWAP2 POP PUSH1 0x0 DUP3 ADD MLOAD DUP2 PUSH1 0x0 ADD SSTORE PUSH1 0x20 DUP3 ADD MLOAD DUP2 PUSH1 0x1 ADD SSTORE POP POP PUSH32 0x657CA150BE22533E612098A9CDC78B9252AA1C21D424FB5011C5CECCC0447B50 PUSH1 0x1 DUP1 SLOAD SWAP1 POP DUP5 DUP5 PUSH1 0x40 MLOAD PUSH2 0x11F4 SWAP4 SWAP3 SWAP2 SWAP1 PUSH2 0x33BA JUMP JUMPDEST PUSH1 0x40 MLOAD DUP1 SWAP2 SUB SWAP1 LOG1 POP POP POP JUMP JUMPDEST PUSH1 0x3 SLOAD DUP2 JUMP JUMPDEST PUSH1 0x0 PUSH2 0x1212 CALLER PUSH2 0x2521 JUMP JUMPDEST SWAP1 POP PUSH1 0x0 PUSH1 0xB PUSH1 0x0 CALLER PUSH20 0xFFFFFFFFFFFFFFFFFFFFFFFFFFFFFFFFFFFFFFFF AND PUSH20 0xFFFFFFFFFFFFFFFFFFFFFFFFFFFFFFFFFFFFFFFF AND DUP2 MSTORE PUSH1 0x20 ADD SWAP1 DUP2 MSTORE PUSH1 0x20 ADD PUSH1 0x0 KECCAK256 SWAP1 POP PUSH1 0x0 PUSH2 0x1281 PUSH1 0x64 PUSH2 0x1273 PUSH1 0x6 SLOAD DUP7 PUSH2 0x2438 SWAP1 SWAP2 SWAP1 PUSH4 0xFFFFFFFF AND JUMP JUMPDEST PUSH2 0x244E SWAP1 SWAP2 SWAP1 PUSH4 0xFFFFFFFF AND JUMP JUMPDEST SWAP1 POP PUSH1 0x0 DUP2 DUP5 PUSH2 0x1291 SWAP2 SWAP1 PUSH2 0x355A JUMP JUMPDEST SWAP1 POP DUP1 PUSH32 0x0 PUSH20 0xFFFFFFFFFFFFFFFFFFFFFFFFFFFFFFFFFFFFFFFF AND PUSH4 0x70A08231 ADDRESS PUSH1 0x40 MLOAD DUP3 PUSH4 0xFFFFFFFF AND PUSH1 0xE0 SHL DUP2 MSTORE PUSH1 0x4 ADD PUSH2 0x12ED SWAP2 SWAP1 PUSH2 0x2FDA JUMP JUMPDEST PUSH1 0x20 PUSH1 0x40 MLOAD DUP1 DUP4 SUB DUP2 DUP7 DUP1 EXTCODESIZE ISZERO DUP1 ISZERO PUSH2 0x1305 JUMPI PUSH1 0x0 DUP1 REVERT JUMPDEST POP GAS STATICCALL ISZERO DUP1 ISZERO PUSH2 0x1319 JUMPI RETURNDATASIZE PUSH1 0x0 DUP1 RETURNDATACOPY RETURNDATASIZE PUSH1 0x0 REVERT JUMPDEST POP POP POP POP PUSH1 0x40 MLOAD RETURNDATASIZE PUSH1 0x1F NOT PUSH1 0x1F DUP3 ADD AND DUP3 ADD DUP1 PUSH1 0x40 MSTORE POP DUP2 ADD SWAP1 PUSH2 0x133D SWAP2 SWAP1 PUSH2 0x2B68 JUMP JUMPDEST LT ISZERO PUSH2 0x13EF JUMPI PUSH32 0x0 PUSH20 0xFFFFFFFFFFFFFFFFFFFFFFFFFFFFFFFFFFFFFFFF AND PUSH4 0x70A08231 ADDRESS PUSH1 0x40 MLOAD DUP3 PUSH4 0xFFFFFFFF AND PUSH1 0xE0 SHL DUP2 MSTORE PUSH1 0x4 ADD PUSH2 0x139C SWAP2 SWAP1 PUSH2 0x2FDA JUMP JUMPDEST PUSH1 0x20 PUSH1 0x40 MLOAD DUP1 DUP4 SUB DUP2 DUP7 DUP1 EXTCODESIZE ISZERO DUP1 ISZERO PUSH2 0x13B4 JUMPI PUSH1 0x0 DUP1 REVERT JUMPDEST POP GAS STATICCALL ISZERO DUP1 ISZERO PUSH2 0x13C8 JUMPI RETURNDATASIZE PUSH1 0x0 DUP1 RETURNDATACOPY RETURNDATASIZE PUSH1 0x0 REVERT JUMPDEST POP POP POP POP PUSH1 0x40 MLOAD RETURNDATASIZE PUSH1 0x1F NOT PUSH1 0x1F DUP3 ADD AND DUP3 ADD DUP1 PUSH1 0x40 MSTORE POP DUP2 ADD SWAP1 PUSH2 0x13EC SWAP2 SWAP1 PUSH2 0x2B68 JUMP JUMPDEST SWAP1 POP JUMPDEST PUSH2 0x143A CALLER DUP3 PUSH32 0x0 PUSH20 0xFFFFFFFFFFFFFFFFFFFFFFFFFFFFFFFFFFFFFFFF AND PUSH2 0x2654 SWAP1 SWAP3 SWAP2 SWAP1 PUSH4 0xFFFFFFFF AND JUMP JUMPDEST DUP2 PUSH32 0x0 PUSH20 0xFFFFFFFFFFFFFFFFFFFFFFFFFFFFFFFFFFFFFFFF AND PUSH4 0x70A08231 ADDRESS PUSH1 0x40 MLOAD DUP3 PUSH4 0xFFFFFFFF AND PUSH1 0xE0 SHL DUP2 MSTORE PUSH1 0x4 ADD PUSH2 0x1494 SWAP2 SWAP1 PUSH2 0x2FDA JUMP JUMPDEST PUSH1 0x20 PUSH1 0x40 MLOAD DUP1 DUP4 SUB DUP2 DUP7 DUP1 EXTCODESIZE ISZERO DUP1 ISZERO PUSH2 0x14AC JUMPI PUSH1 0x0 DUP1 REVERT JUMPDEST POP GAS STATICCALL ISZERO DUP1 ISZERO PUSH2 0x14C0 JUMPI RETURNDATASIZE PUSH1 0x0 DUP1 RETURNDATACOPY RETURNDATASIZE PUSH1 0x0 REVERT JUMPDEST POP POP POP POP PUSH1 0x40 MLOAD RETURNDATASIZE PUSH1 0x1F NOT PUSH1 0x1F DUP3 ADD AND DUP3 ADD DUP1 PUSH1 0x40 MSTORE POP DUP2 ADD SWAP1 PUSH2 0x14E4 SWAP2 SWAP1 PUSH2 0x2B68 JUMP JUMPDEST LT ISZERO PUSH2 0x1596 JUMPI PUSH32 0x0 PUSH20 0xFFFFFFFFFFFFFFFFFFFFFFFFFFFFFFFFFFFFFFFF AND PUSH4 0x70A08231 ADDRESS PUSH1 0x40 MLOAD DUP3 PUSH4 0xFFFFFFFF AND PUSH1 0xE0 SHL DUP2 MSTORE PUSH1 0x4 ADD PUSH2 0x1543 SWAP2 SWAP1 PUSH2 0x2FDA JUMP JUMPDEST PUSH1 0x20 PUSH1 0x40 MLOAD DUP1 DUP4 SUB DUP2 DUP7 DUP1 EXTCODESIZE ISZERO DUP1 ISZERO PUSH2 0x155B JUMPI PUSH1 0x0 DUP1 REVERT JUMPDEST POP GAS STATICCALL ISZERO DUP1 ISZERO PUSH2 0x156F JUMPI RETURNDATASIZE PUSH1 0x0 DUP1 RETURNDATACOPY RETURNDATASIZE PUSH1 0x0 REVERT JUMPDEST POP POP POP POP PUSH1 0x40 MLOAD RETURNDATASIZE PUSH1 0x1F NOT PUSH1 0x1F DUP3 ADD AND DUP3 ADD DUP1 PUSH1 0x40 MSTORE POP DUP2 ADD SWAP1 PUSH2 0x1593 SWAP2 SWAP1 PUSH2 0x2B68 JUMP JUMPDEST SWAP2 POP JUMPDEST PUSH2 0x1603 PUSH1 0x5 PUSH1 0x0 SWAP1 SLOAD SWAP1 PUSH2 0x100 EXP SWAP1 DIV PUSH20 0xFFFFFFFFFFFFFFFFFFFFFFFFFFFFFFFFFFFFFFFF AND DUP4 PUSH32 0x0 PUSH20 0xFFFFFFFFFFFFFFFFFFFFFFFFFFFFFFFFFFFFFFFF AND PUSH2 0x2654 SWAP1 SWAP3 SWAP2 SWAP1 PUSH4 0xFFFFFFFF AND JUMP JUMPDEST PUSH32 0x71BAB65CED2E5750775A0613BE067DF48EF06CF92A496EBF7663AE0660924954 CALLER DUP3 DUP5 PUSH1 0x40 MLOAD PUSH2 0x1636 SWAP4 SWAP3 SWAP2 SWAP1 PUSH2 0x3087 JUMP JUMPDEST PUSH1 0x40 MLOAD DUP1 SWAP2 SUB SWAP1 LOG1 PUSH2 0x1646 PUSH2 0x2304 JUMP JUMPDEST PUSH1 0x0 DUP4 PUSH1 0x2 ADD DUP2 SWAP1 SSTORE POP PUSH2 0x1680 PUSH5 0xE8D4A51000 PUSH2 0x1672 PUSH1 0x3 SLOAD DUP7 PUSH1 0x0 ADD SLOAD PUSH2 0x2438 SWAP1 SWAP2 SWAP1 PUSH4 0xFFFFFFFF AND JUMP JUMPDEST PUSH2 0x244E SWAP1 SWAP2 SWAP1 PUSH4 0xFFFFFFFF AND JUMP JUMPDEST DUP4 PUSH1 0x1 ADD DUP2 SWAP1 SSTORE POP POP POP POP POP JUMP JUMPDEST PUSH1 0x7 SLOAD DUP2 JUMP JUMPDEST PUSH1 0x0 PUSH1 0x2 SLOAD NUMBER GT DUP1 ISZERO PUSH2 0x16AA JUMPI POP PUSH1 0x0 PUSH1 0x7 SLOAD EQ ISZERO JUMPDEST ISZERO PUSH2 0x16F6 JUMPI PUSH1 0x0 PUSH2 0x16BD PUSH1 0x2 SLOAD NUMBER PUSH2 0x18B7 JUMP JUMPDEST SWAP1 POP PUSH1 0x0 PUSH2 0x16D6 PUSH1 0x4 SLOAD DUP4 PUSH2 0x2438 SWAP1 SWAP2 SWAP1 PUSH4 0xFFFFFFFF AND JUMP JUMPDEST SWAP1 POP PUSH2 0x16ED DUP2 PUSH1 0x8 SLOAD PUSH2 0x2464 SWAP1 SWAP2 SWAP1 PUSH4 0xFFFFFFFF AND JUMP JUMPDEST SWAP3 POP POP POP PUSH2 0x16FC JUMP JUMPDEST PUSH1 0x8 SLOAD SWAP1 POP JUMPDEST SWAP1 JUMP JUMPDEST PUSH2 0x1707 PUSH2 0x2490 JUMP JUMPDEST PUSH20 0xFFFFFFFFFFFFFFFFFFFFFFFFFFFFFFFFFFFFFFFF AND PUSH2 0x1725 PUSH2 0x188E JUMP JUMPDEST PUSH20 0xFFFFFFFFFFFFFFFFFFFFFFFFFFFFFFFFFFFFFFFF AND EQ PUSH2 0x177B JUMPI PUSH1 0x40 MLOAD PUSH32 0x8C379A000000000000000000000000000000000000000000000000000000000 DUP2 MSTORE PUSH1 0x4 ADD PUSH2 0x1772 SWAP1 PUSH2 0x32B6 JUMP JUMPDEST PUSH1 0x40 MLOAD DUP1 SWAP2 SUB SWAP1 REVERT JUMPDEST PUSH2 0x1785 PUSH1 0x0 PUSH2 0x26DA JUMP JUMPDEST JUMP JUMPDEST PUSH2 0x178F PUSH2 0x2490 JUMP JUMPDEST PUSH20 0xFFFFFFFFFFFFFFFFFFFFFFFFFFFFFFFFFFFFFFFF AND PUSH2 0x17AD PUSH2 0x188E JUMP JUMPDEST PUSH20 0xFFFFFFFFFFFFFFFFFFFFFFFFFFFFFFFFFFFFFFFF AND EQ PUSH2 0x1803 JUMPI PUSH1 0x40 MLOAD PUSH32 0x8C379A000000000000000000000000000000000000000000000000000000000 DUP2 MSTORE PUSH1 0x4 ADD PUSH2 0x17FA SWAP1 PUSH2 0x32B6 JUMP JUMPDEST PUSH1 0x40 MLOAD DUP1 SWAP2 SUB SWAP1 REVERT JUMPDEST PUSH1 0x28 DUP2 GT ISZERO PUSH2 0x1847 JUMPI PUSH1 0x40 MLOAD PUSH32 0x8C379A000000000000000000000000000000000000000000000000000000000 DUP2 MSTORE PUSH1 0x4 ADD PUSH2 0x183E SWAP1 PUSH2 0x32D6 JUMP JUMPDEST PUSH1 0x40 MLOAD DUP1 SWAP2 SUB SWAP1 REVERT JUMPDEST DUP1 PUSH1 0x6 DUP2 SWAP1 SSTORE POP PUSH32 0xF419800A2D8930C61D5D9CD782AA72C512CF6BE2F79DA6DB0B8855870B7269ED DUP2 PUSH1 0x40 MLOAD PUSH2 0x187D SWAP2 SWAP1 PUSH2 0x3376 JUMP JUMPDEST PUSH1 0x40 MLOAD DUP1 SWAP2 SUB SWAP1 LOG1 POP JUMP JUMPDEST PUSH1 0x4 SLOAD DUP2 JUMP JUMPDEST PUSH1 0x0 DUP1 PUSH1 0x0 SWAP1 SLOAD SWAP1 PUSH2 0x100 EXP SWAP1 DIV PUSH20 0xFFFFFFFFFFFFFFFFFFFFFFFFFFFFFFFFFFFFFFFF AND SWAP1 POP SWAP1 JUMP JUMPDEST PUSH1 0x0 PUSH2 0x18CC DUP4 DUP4 PUSH2 0x2464 SWAP1 SWAP2 SWAP1 PUSH4 0xFFFFFFFF AND JUMP JUMPDEST SWAP1 POP SWAP3 SWAP2 POP POP JUMP JUMPDEST PUSH2 0x18DC PUSH2 0x2490 JUMP JUMPDEST PUSH20 0xFFFFFFFFFFFFFFFFFFFFFFFFFFFFFFFFFFFFFFFF AND PUSH2 0x18FA PUSH2 0x188E JUMP JUMPDEST PUSH20 0xFFFFFFFFFFFFFFFFFFFFFFFFFFFFFFFFFFFFFFFF AND EQ PUSH2 0x1950 JUMPI PUSH1 0x40 MLOAD PUSH32 0x8C379A000000000000000000000000000000000000000000000000000000000 DUP2 MSTORE PUSH1 0x4 ADD PUSH2 0x1947 SWAP1 PUSH2 0x32B6 JUMP JUMPDEST PUSH1 0x40 MLOAD DUP1 SWAP2 SUB SWAP1 REVERT JUMPDEST DUP1 PUSH1 0x5 PUSH1 0x0 PUSH2 0x100 EXP DUP2 SLOAD DUP2 PUSH20 0xFFFFFFFFFFFFFFFFFFFFFFFFFFFFFFFFFFFFFFFF MUL NOT AND SWAP1 DUP4 PUSH20 0xFFFFFFFFFFFFFFFFFFFFFFFFFFFFFFFFFFFFFFFF AND MUL OR SWAP1 SSTORE POP PUSH1 0x5 PUSH1 0x0 SWAP1 SLOAD SWAP1 PUSH2 0x100 EXP SWAP1 DIV PUSH20 0xFFFFFFFFFFFFFFFFFFFFFFFFFFFFFFFFFFFFFFFF AND PUSH20 0xFFFFFFFFFFFFFFFFFFFFFFFFFFFFFFFFFFFFFFFF AND PUSH32 0x3D21E5A2B633291BD1FF5F9C654E402D063783C95759D2EA521B31FB30E4DA41 PUSH1 0x40 MLOAD PUSH1 0x40 MLOAD DUP1 SWAP2 SUB SWAP1 LOG2 POP JUMP JUMPDEST PUSH2 0x1A01 PUSH2 0x2490 JUMP JUMPDEST PUSH20 0xFFFFFFFFFFFFFFFFFFFFFFFFFFFFFFFFFFFFFFFF AND PUSH2 0x1A1F PUSH2 0x188E JUMP JUMPDEST PUSH20 0xFFFFFFFFFFFFFFFFFFFFFFFFFFFFFFFFFFFFFFFF AND EQ PUSH2 0x1A75 JUMPI PUSH1 0x40 MLOAD PUSH32 0x8C379A000000000000000000000000000000000000000000000000000000000 DUP2 MSTORE PUSH1 0x4 ADD PUSH2 0x1A6C SWAP1 PUSH2 0x32B6 JUMP JUMPDEST PUSH1 0x40 MLOAD DUP1 SWAP2 SUB SWAP1 REVERT JUMPDEST PUSH1 0x1 DUP1 SLOAD SWAP1 POP DUP2 LT PUSH2 0x1ABC JUMPI PUSH1 0x40 MLOAD PUSH32 0x8C379A000000000000000000000000000000000000000000000000000000000 DUP2 MSTORE PUSH1 0x4 ADD PUSH2 0x1AB3 SWAP1 PUSH2 0x31F6 JUMP JUMPDEST PUSH1 0x40 MLOAD DUP1 SWAP2 SUB SWAP1 REVERT JUMPDEST PUSH1 0x0 PUSH1 0x1 DUP3 DUP2 SLOAD DUP2 LT PUSH2 0x1AD2 JUMPI PUSH2 0x1AD1 PUSH2 0x3736 JUMP JUMPDEST JUMPDEST SWAP1 PUSH1 0x0 MSTORE PUSH1 0x20 PUSH1 0x0 KECCAK256 SWAP1 PUSH1 0x2 MUL ADD PUSH1 0x0 ADD SLOAD SWAP1 POP PUSH1 0x0 PUSH1 0x1 DUP4 DUP2 SLOAD DUP2 LT PUSH2 0x1AFC JUMPI PUSH2 0x1AFB PUSH2 0x3736 JUMP JUMPDEST JUMPDEST SWAP1 PUSH1 0x0 MSTORE PUSH1 0x20 PUSH1 0x0 KECCAK256 SWAP1 PUSH1 0x2 MUL ADD PUSH1 0x1 ADD SLOAD SWAP1 POP PUSH1 0x0 DUP4 SWAP1 POP JUMPDEST PUSH1 0x1 DUP1 DUP1 SLOAD SWAP1 POP PUSH2 0x1B27 SWAP2 SWAP1 PUSH2 0x355A JUMP JUMPDEST DUP2 LT ISZERO PUSH2 0x1BA7 JUMPI PUSH1 0x1 DUP1 DUP3 PUSH2 0x1B3C SWAP2 SWAP1 PUSH2 0x3479 JUMP JUMPDEST DUP2 SLOAD DUP2 LT PUSH2 0x1B4D JUMPI PUSH2 0x1B4C PUSH2 0x3736 JUMP JUMPDEST JUMPDEST SWAP1 PUSH1 0x0 MSTORE PUSH1 0x20 PUSH1 0x0 KECCAK256 SWAP1 PUSH1 0x2 MUL ADD PUSH1 0x1 DUP3 DUP2 SLOAD DUP2 LT PUSH2 0x1B6F JUMPI PUSH2 0x1B6E PUSH2 0x3736 JUMP JUMPDEST JUMPDEST SWAP1 PUSH1 0x0 MSTORE PUSH1 0x20 PUSH1 0x0 KECCAK256 SWAP1 PUSH1 0x2 MUL ADD PUSH1 0x0 DUP3 ADD SLOAD DUP2 PUSH1 0x0 ADD SSTORE PUSH1 0x1 DUP3 ADD SLOAD DUP2 PUSH1 0x1 ADD SSTORE SWAP1 POP POP DUP1 DUP1 PUSH2 0x1B9F SWAP1 PUSH2 0x3660 JUMP JUMPDEST SWAP2 POP POP PUSH2 0x1B16 JUMP JUMPDEST POP PUSH1 0x1 DUP1 SLOAD DUP1 PUSH2 0x1BBA JUMPI PUSH2 0x1BB9 PUSH2 0x3707 JUMP JUMPDEST JUMPDEST PUSH1 0x1 SWAP1 SUB DUP2 DUP2 SWAP1 PUSH1 0x0 MSTORE PUSH1 0x20 PUSH1 0x0 KECCAK256 SWAP1 PUSH1 0x2 MUL ADD PUSH1 0x0 DUP1 DUP3 ADD PUSH1 0x0 SWAP1 SSTORE PUSH1 0x1 DUP3 ADD PUSH1 0x0 SWAP1 SSTORE POP POP SWAP1 SSTORE PUSH32 0x61FD4E7E2422942F3DF6E8C8C7744F23212CE0F0A23A80F0ACE593FFDF6D96D0 DUP4 DUP4 DUP4 PUSH1 0x40 MLOAD PUSH2 0x1C16 SWAP4 SWAP3 SWAP2 SWAP1 PUSH2 0x33BA JUMP JUMPDEST PUSH1 0x40 MLOAD DUP1 SWAP2 SUB SWAP1 LOG1 POP POP POP JUMP JUMPDEST PUSH1 0x2 SLOAD DUP2 JUMP JUMPDEST PUSH1 0x6 SLOAD DUP2 JUMP JUMPDEST PUSH32 0x0 DUP2 JUMP JUMPDEST PUSH1 0x0 DUP3 DUP3 SWAP1 POP GT PUSH2 0x1C99 JUMPI PUSH1 0x40 MLOAD PUSH32 0x8C379A000000000000000000000000000000000000000000000000000000000 DUP2 MSTORE PUSH1 0x4 ADD PUSH2 0x1C90 SWAP1 PUSH2 0x3136 JUMP JUMPDEST PUSH1 0x40 MLOAD DUP1 SWAP2 SUB SWAP1 REVERT JUMPDEST PUSH1 0x0 JUMPDEST DUP3 DUP3 SWAP1 POP DUP2 LT ISZERO PUSH2 0x1E20 JUMPI PUSH1 0x0 DUP4 DUP4 DUP4 DUP2 DUP2 LT PUSH2 0x1CBC JUMPI PUSH2 0x1CBB PUSH2 0x3736 JUMP JUMPDEST JUMPDEST SWAP1 POP PUSH1 0x20 MUL ADD CALLDATALOAD SWAP1 POP CALLER PUSH20 0xFFFFFFFFFFFFFFFFFFFFFFFFFFFFFFFFFFFFFFFF AND PUSH1 0x9 PUSH1 0x0 DUP4 DUP2 MSTORE PUSH1 0x20 ADD SWAP1 DUP2 MSTORE PUSH1 0x20 ADD PUSH1 0x0 KECCAK256 PUSH1 0x0 SWAP1 SLOAD SWAP1 PUSH2 0x100 EXP SWAP1 DIV PUSH20 0xFFFFFFFFFFFFFFFFFFFFFFFFFFFFFFFFFFFFFFFF AND PUSH20 0xFFFFFFFFFFFFFFFFFFFFFFFFFFFFFFFFFFFFFFFF AND EQ PUSH2 0x1D66 JUMPI PUSH1 0x40 MLOAD PUSH32 0x8C379A000000000000000000000000000000000000000000000000000000000 DUP2 MSTORE PUSH1 0x4 ADD PUSH2 0x1D5D SWAP1 PUSH2 0x3356 JUMP JUMPDEST PUSH1 0x40 MLOAD DUP1 SWAP2 SUB SWAP1 REVERT JUMPDEST PUSH1 0x0 PUSH1 0x1 DUP4 PUSH2 0x1D75 SWAP2 SWAP1 PUSH2 0x3479 JUMP JUMPDEST SWAP1 POP JUMPDEST DUP5 DUP5 SWAP1 POP DUP2 LT ISZERO PUSH2 0x1E0B JUMPI DUP5 DUP5 DUP3 DUP2 DUP2 LT PUSH2 0x1D96 JUMPI PUSH2 0x1D95 PUSH2 0x3736 JUMP JUMPDEST JUMPDEST SWAP1 POP PUSH1 0x20 MUL ADD CALLDATALOAD DUP6 DUP6 DUP6 DUP2 DUP2 LT PUSH2 0x1DB0 JUMPI PUSH2 0x1DAF PUSH2 0x3736 JUMP JUMPDEST JUMPDEST SWAP1 POP PUSH1 0x20 MUL ADD CALLDATALOAD EQ ISZERO PUSH2 0x1DF8 JUMPI PUSH1 0x40 MLOAD PUSH32 0x8C379A000000000000000000000000000000000000000000000000000000000 DUP2 MSTORE PUSH1 0x4 ADD PUSH2 0x1DEF SWAP1 PUSH2 0x3216 JUMP JUMPDEST PUSH1 0x40 MLOAD DUP1 SWAP2 SUB SWAP1 REVERT JUMPDEST DUP1 DUP1 PUSH2 0x1E03 SWAP1 PUSH2 0x3660 JUMP JUMPDEST SWAP2 POP POP PUSH2 0x1D78 JUMP JUMPDEST POP POP DUP1 DUP1 PUSH2 0x1E18 SWAP1 PUSH2 0x3660 JUMP JUMPDEST SWAP2 POP POP PUSH2 0x1C9C JUMP JUMPDEST POP PUSH2 0x1E29 PUSH2 0x2304 JUMP JUMPDEST PUSH1 0x0 PUSH1 0xB PUSH1 0x0 CALLER PUSH20 0xFFFFFFFFFFFFFFFFFFFFFFFFFFFFFFFFFFFFFFFF AND PUSH20 0xFFFFFFFFFFFFFFFFFFFFFFFFFFFFFFFFFFFFFFFF AND DUP2 MSTORE PUSH1 0x20 ADD SWAP1 DUP2 MSTORE PUSH1 0x20 ADD PUSH1 0x0 KECCAK256 SWAP1 POP PUSH1 0x0 JUMPDEST DUP4 DUP4 SWAP1 POP DUP2 LT ISZERO PUSH2 0x21A5 JUMPI PUSH1 0x0 DUP5 DUP5 DUP4 DUP2 DUP2 LT PUSH2 0x1E8F JUMPI PUSH2 0x1E8E PUSH2 0x3736 JUMP JUMPDEST JUMPDEST SWAP1 POP PUSH1 0x20 MUL ADD CALLDATALOAD SWAP1 POP PUSH1 0x0 PUSH1 0x9 PUSH1 0x0 DUP4 DUP2 MSTORE PUSH1 0x20 ADD SWAP1 DUP2 MSTORE PUSH1 0x20 ADD PUSH1 0x0 KECCAK256 PUSH1 0x0 PUSH2 0x100 EXP DUP2 SLOAD DUP2 PUSH20 0xFFFFFFFFFFFFFFFFFFFFFFFFFFFFFFFFFFFFFFFF MUL NOT AND SWAP1 DUP4 PUSH20 0xFFFFFFFFFFFFFFFFFFFFFFFFFFFFFFFFFFFFFFFF AND MUL OR SWAP1 SSTORE POP PUSH1 0x0 PUSH2 0x1F33 DUP5 PUSH1 0x1 ADD SLOAD PUSH2 0x1F25 PUSH5 0xE8D4A51000 PUSH2 0x1F17 PUSH1 0x3 SLOAD DUP10 PUSH1 0x0 ADD SLOAD PUSH2 0x2438 SWAP1 SWAP2 SWAP1 PUSH4 0xFFFFFFFF AND JUMP JUMPDEST PUSH2 0x244E SWAP1 SWAP2 SWAP1 PUSH4 0xFFFFFFFF AND JUMP JUMPDEST PUSH2 0x2464 SWAP1 SWAP2 SWAP1 PUSH4 0xFFFFFFFF AND JUMP JUMPDEST SWAP1 POP DUP1 PUSH32 0x0 PUSH20 0xFFFFFFFFFFFFFFFFFFFFFFFFFFFFFFFFFFFFFFFF AND PUSH4 0x70A08231 ADDRESS PUSH1 0x40 MLOAD DUP3 PUSH4 0xFFFFFFFF AND PUSH1 0xE0 SHL DUP2 MSTORE PUSH1 0x4 ADD PUSH2 0x1F8F SWAP2 SWAP1 PUSH2 0x2FDA JUMP JUMPDEST PUSH1 0x20 PUSH1 0x40 MLOAD DUP1 DUP4 SUB DUP2 DUP7 DUP1 EXTCODESIZE ISZERO DUP1 ISZERO PUSH2 0x1FA7 JUMPI PUSH1 0x0 DUP1 REVERT JUMPDEST POP GAS STATICCALL ISZERO DUP1 ISZERO PUSH2 0x1FBB JUMPI RETURNDATASIZE PUSH1 0x0 DUP1 RETURNDATACOPY RETURNDATASIZE PUSH1 0x0 REVERT JUMPDEST POP POP POP POP PUSH1 0x40 MLOAD RETURNDATASIZE PUSH1 0x1F NOT PUSH1 0x1F DUP3 ADD AND DUP3 ADD DUP1 PUSH1 0x40 MSTORE POP DUP2 ADD SWAP1 PUSH2 0x1FDF SWAP2 SWAP1 PUSH2 0x2B68 JUMP JUMPDEST LT ISZERO PUSH2 0x2091 JUMPI PUSH32 0x0 PUSH20 0xFFFFFFFFFFFFFFFFFFFFFFFFFFFFFFFFFFFFFFFF AND PUSH4 0x70A08231 ADDRESS PUSH1 0x40 MLOAD DUP3 PUSH4 0xFFFFFFFF AND PUSH1 0xE0 SHL DUP2 MSTORE PUSH1 0x4 ADD PUSH2 0x203E SWAP2 SWAP1 PUSH2 0x2FDA JUMP JUMPDEST PUSH1 0x20 PUSH1 0x40 MLOAD DUP1 DUP4 SUB DUP2 DUP7 DUP1 EXTCODESIZE ISZERO DUP1 ISZERO PUSH2 0x2056 JUMPI PUSH1 0x0 DUP1 REVERT JUMPDEST POP GAS STATICCALL ISZERO DUP1 ISZERO PUSH2 0x206A JUMPI RETURNDATASIZE PUSH1 0x0 DUP1 RETURNDATACOPY RETURNDATASIZE PUSH1 0x0 REVERT JUMPDEST POP POP POP POP PUSH1 0x40 MLOAD RETURNDATASIZE PUSH1 0x1F NOT PUSH1 0x1F DUP3 ADD AND DUP3 ADD DUP1 PUSH1 0x40 MSTORE POP DUP2 ADD SWAP1 PUSH2 0x208E SWAP2 SWAP1 PUSH2 0x2B68 JUMP JUMPDEST SWAP1 POP JUMPDEST PUSH2 0x20A8 DUP2 DUP6 PUSH1 0x2 ADD SLOAD PUSH2 0x247A SWAP1 SWAP2 SWAP1 PUSH4 0xFFFFFFFF AND JUMP JUMPDEST DUP5 PUSH1 0x2 ADD DUP2 SWAP1 SSTORE POP PUSH2 0x20C8 PUSH1 0x1 DUP6 PUSH1 0x0 ADD SLOAD PUSH2 0x2464 SWAP1 SWAP2 SWAP1 PUSH4 0xFFFFFFFF AND JUMP JUMPDEST POP PUSH2 0x20F9 PUSH5 0xE8D4A51000 PUSH2 0x20EB PUSH1 0x3 SLOAD DUP8 PUSH1 0x0 ADD SLOAD PUSH2 0x2438 SWAP1 SWAP2 SWAP1 PUSH4 0xFFFFFFFF AND JUMP JUMPDEST PUSH2 0x244E SWAP1 SWAP2 SWAP1 PUSH4 0xFFFFFFFF AND JUMP JUMPDEST DUP5 PUSH1 0x1 ADD DUP2 SWAP1 SSTORE POP PUSH32 0x0 PUSH20 0xFFFFFFFFFFFFFFFFFFFFFFFFFFFFFFFFFFFFFFFF AND PUSH4 0x23B872DD ADDRESS CALLER DUP6 PUSH1 0x40 MLOAD DUP5 PUSH4 0xFFFFFFFF AND PUSH1 0xE0 SHL DUP2 MSTORE PUSH1 0x4 ADD PUSH2 0x215E SWAP4 SWAP3 SWAP2 SWAP1 PUSH2 0x2FF5 JUMP JUMPDEST PUSH1 0x0 PUSH1 0x40 MLOAD DUP1 DUP4 SUB DUP2 PUSH1 0x0 DUP8 DUP1 EXTCODESIZE ISZERO DUP1 ISZERO PUSH2 0x2178 JUMPI PUSH1 0x0 DUP1 REVERT JUMPDEST POP GAS CALL ISZERO DUP1 ISZERO PUSH2 0x218C JUMPI RETURNDATASIZE PUSH1 0x0 DUP1 RETURNDATACOPY RETURNDATASIZE PUSH1 0x0 REVERT JUMPDEST POP POP POP POP POP POP DUP1 DUP1 PUSH2 0x219D SWAP1 PUSH2 0x3660 JUMP JUMPDEST SWAP2 POP POP PUSH2 0x1E6F JUMP JUMPDEST POP PUSH32 0x80CC10BF7E52583AE0A17D8DD6AB5005573B17A08091A091AF1A81205A675C91 CALLER DUP5 DUP5 PUSH1 0x40 MLOAD PUSH2 0x21D9 SWAP4 SWAP3 SWAP2 SWAP1 PUSH2 0x302C JUMP JUMPDEST PUSH1 0x40 MLOAD DUP1 SWAP2 SUB SWAP1 LOG1 POP POP POP JUMP JUMPDEST PUSH1 0x5 PUSH1 0x0 SWAP1 SLOAD SWAP1 PUSH2 0x100 EXP SWAP1 DIV PUSH20 0xFFFFFFFFFFFFFFFFFFFFFFFFFFFFFFFFFFFFFFFF AND DUP2 JUMP JUMPDEST PUSH2 0x2214 PUSH2 0x2490 JUMP JUMPDEST PUSH20 0xFFFFFFFFFFFFFFFFFFFFFFFFFFFFFFFFFFFFFFFF AND PUSH2 0x2232 PUSH2 0x188E JUMP JUMPDEST PUSH20 0xFFFFFFFFFFFFFFFFFFFFFFFFFFFFFFFFFFFFFFFF AND EQ PUSH2 0x2288 JUMPI PUSH1 0x40 MLOAD PUSH32 0x8C379A000000000000000000000000000000000000000000000000000000000 DUP2 MSTORE PUSH1 0x4 ADD PUSH2 0x227F SWAP1 PUSH2 0x32B6 JUMP JUMPDEST PUSH1 0x40 MLOAD DUP1 SWAP2 SUB SWAP1 REVERT JUMPDEST PUSH1 0x0 PUSH20 0xFFFFFFFFFFFFFFFFFFFFFFFFFFFFFFFFFFFFFFFF AND DUP2 PUSH20 0xFFFFFFFFFFFFFFFFFFFFFFFFFFFFFFFFFFFFFFFF AND EQ ISZERO PUSH2 0x22F8 JUMPI PUSH1 0x40 MLOAD PUSH32 0x8C379A000000000000000000000000000000000000000000000000000000000 DUP2 MSTORE PUSH1 0x4 ADD PUSH2 0x22EF SWAP1 PUSH2 0x31B6 JUMP JUMPDEST PUSH1 0x40 MLOAD DUP1 SWAP2 SUB SWAP1 REVERT JUMPDEST PUSH2 0x2301 DUP2 PUSH2 0x26DA JUMP JUMPDEST POP JUMP JUMPDEST PUSH1 0x2 SLOAD NUMBER GT PUSH2 0x2312 JUMPI PUSH2 0x2436 JUMP JUMPDEST PUSH1 0x0 PUSH1 0x7 SLOAD EQ ISZERO PUSH2 0x2329 JUMPI NUMBER PUSH1 0x2 DUP2 SWAP1 SSTORE POP PUSH2 0x2436 JUMP JUMPDEST PUSH1 0x0 PUSH2 0x2337 PUSH1 0x2 SLOAD NUMBER PUSH2 0x18B7 JUMP JUMPDEST SWAP1 POP PUSH1 0x0 PUSH2 0x2350 PUSH1 0x4 SLOAD DUP4 PUSH2 0x2438 SWAP1 SWAP2 SWAP1 PUSH4 0xFFFFFFFF AND JUMP JUMPDEST SWAP1 POP PUSH1 0x0 PUSH1 0x8 SLOAD EQ ISZERO PUSH2 0x236B JUMPI NUMBER PUSH1 0x2 DUP2 SWAP1 SSTORE POP POP POP PUSH2 0x2436 JUMP JUMPDEST DUP1 PUSH1 0x8 SLOAD LT ISZERO PUSH2 0x23CA JUMPI PUSH2 0x23B7 PUSH2 0x23A6 PUSH1 0x7 SLOAD PUSH2 0x2398 PUSH5 0xE8D4A51000 PUSH1 0x8 SLOAD PUSH2 0x2438 SWAP1 SWAP2 SWAP1 PUSH4 0xFFFFFFFF AND JUMP JUMPDEST PUSH2 0x244E SWAP1 SWAP2 SWAP1 PUSH4 0xFFFFFFFF AND JUMP JUMPDEST PUSH1 0x3 SLOAD PUSH2 0x247A SWAP1 SWAP2 SWAP1 PUSH4 0xFFFFFFFF AND JUMP JUMPDEST PUSH1 0x3 DUP2 SWAP1 SSTORE POP PUSH1 0x0 PUSH1 0x8 DUP2 SWAP1 SSTORE POP PUSH2 0x242C JUMP JUMPDEST PUSH2 0x23DF DUP2 PUSH1 0x8 SLOAD PUSH2 0x2464 SWAP1 SWAP2 SWAP1 PUSH4 0xFFFFFFFF AND JUMP JUMPDEST PUSH1 0x8 DUP2 SWAP1 SSTORE POP PUSH2 0x2425 PUSH2 0x2414 PUSH1 0x7 SLOAD PUSH2 0x2406 PUSH5 0xE8D4A51000 DUP6 PUSH2 0x2438 SWAP1 SWAP2 SWAP1 PUSH4 0xFFFFFFFF AND JUMP JUMPDEST PUSH2 0x244E SWAP1 SWAP2 SWAP1 PUSH4 0xFFFFFFFF AND JUMP JUMPDEST PUSH1 0x3 SLOAD PUSH2 0x247A SWAP1 SWAP2 SWAP1 PUSH4 0xFFFFFFFF AND JUMP JUMPDEST PUSH1 0x3 DUP2 SWAP1 SSTORE POP JUMPDEST NUMBER PUSH1 0x2 DUP2 SWAP1 SSTORE POP POP POP JUMPDEST JUMP JUMPDEST PUSH1 0x0 DUP2 DUP4 PUSH2 0x2446 SWAP2 SWAP1 PUSH2 0x3500 JUMP JUMPDEST SWAP1 POP SWAP3 SWAP2 POP POP JUMP JUMPDEST PUSH1 0x0 DUP2 DUP4 PUSH2 0x245C SWAP2 SWAP1 PUSH2 0x34CF JUMP JUMPDEST SWAP1 POP SWAP3 SWAP2 POP POP JUMP JUMPDEST PUSH1 0x0 DUP2 DUP4 PUSH2 0x2472 SWAP2 SWAP1 PUSH2 0x355A JUMP JUMPDEST SWAP1 POP SWAP3 SWAP2 POP POP JUMP JUMPDEST PUSH1 0x0 DUP2 DUP4 PUSH2 0x2488 SWAP2 SWAP1 PUSH2 0x3479 JUMP JUMPDEST SWAP1 POP SWAP3 SWAP2 POP POP JUMP JUMPDEST PUSH1 0x0 CALLER SWAP1 POP SWAP1 JUMP JUMPDEST PUSH2 0x251B DUP5 PUSH4 0x23B872DD PUSH1 0xE0 SHL DUP6 DUP6 DUP6 PUSH1 0x40 MLOAD PUSH1 0x24 ADD PUSH2 0x24B9 SWAP4 SWAP3 SWAP2 SWAP1 PUSH2 0x2FF5 JUMP JUMPDEST PUSH1 0x40 MLOAD PUSH1 0x20 DUP2 DUP4 SUB SUB DUP2 MSTORE SWAP1 PUSH1 0x40 MSTORE SWAP1 PUSH28 0xFFFFFFFFFFFFFFFFFFFFFFFFFFFFFFFFFFFFFFFFFFFFFFFFFFFFFFFF NOT AND PUSH1 0x20 DUP3 ADD DUP1 MLOAD PUSH28 0xFFFFFFFFFFFFFFFFFFFFFFFFFFFFFFFFFFFFFFFFFFFFFFFFFFFFFFFF DUP4 DUP2 DUP4 AND OR DUP4 MSTORE POP POP POP POP PUSH2 0x279E JUMP JUMPDEST POP POP POP POP JUMP JUMPDEST PUSH1 0x0 DUP1 PUSH1 0xB PUSH1 0x0 DUP5 PUSH20 0xFFFFFFFFFFFFFFFFFFFFFFFFFFFFFFFFFFFFFFFF AND PUSH20 0xFFFFFFFFFFFFFFFFFFFFFFFFFFFFFFFFFFFFFFFF AND DUP2 MSTORE PUSH1 0x20 ADD SWAP1 DUP2 MSTORE PUSH1 0x20 ADD PUSH1 0x0 KECCAK256 SWAP1 POP PUSH1 0x0 PUSH1 0x3 SLOAD SWAP1 POP PUSH1 0x2 SLOAD NUMBER GT DUP1 ISZERO PUSH2 0x2580 JUMPI POP PUSH1 0x0 PUSH1 0x7 SLOAD EQ ISZERO JUMPDEST ISZERO PUSH2 0x25F1 JUMPI PUSH1 0x0 PUSH2 0x2593 PUSH1 0x2 SLOAD NUMBER PUSH2 0x18B7 JUMP JUMPDEST SWAP1 POP PUSH1 0x0 PUSH2 0x25AC PUSH1 0x4 SLOAD DUP4 PUSH2 0x2438 SWAP1 SWAP2 SWAP1 PUSH4 0xFFFFFFFF AND JUMP JUMPDEST SWAP1 POP PUSH2 0x25EC PUSH2 0x25DD PUSH1 0x7 SLOAD PUSH2 0x25CF PUSH5 0xE8D4A51000 DUP6 PUSH2 0x2438 SWAP1 SWAP2 SWAP1 PUSH4 0xFFFFFFFF AND JUMP JUMPDEST PUSH2 0x244E SWAP1 SWAP2 SWAP1 PUSH4 0xFFFFFFFF AND JUMP JUMPDEST DUP5 PUSH2 0x247A SWAP1 SWAP2 SWAP1 PUSH4 0xFFFFFFFF AND JUMP JUMPDEST SWAP3 POP POP POP JUMPDEST PUSH2 0x264B DUP3 PUSH1 0x2 ADD SLOAD PUSH2 0x263D DUP5 PUSH1 0x1 ADD SLOAD PUSH2 0x262F PUSH5 0xE8D4A51000 PUSH2 0x2621 DUP8 DUP10 PUSH1 0x0 ADD SLOAD PUSH2 0x2438 SWAP1 SWAP2 SWAP1 PUSH4 0xFFFFFFFF AND JUMP JUMPDEST PUSH2 0x244E SWAP1 SWAP2 SWAP1 PUSH4 0xFFFFFFFF AND JUMP JUMPDEST PUSH2 0x2464 SWAP1 SWAP2 SWAP1 PUSH4 0xFFFFFFFF AND JUMP JUMPDEST PUSH2 0x247A SWAP1 SWAP2 SWAP1 PUSH4 0xFFFFFFFF AND JUMP JUMPDEST SWAP3 POP POP POP SWAP2 SWAP1 POP JUMP JUMPDEST PUSH2 0x26D5 DUP4 PUSH4 0xA9059CBB PUSH1 0xE0 SHL DUP5 DUP5 PUSH1 0x40 MLOAD PUSH1 0x24 ADD PUSH2 0x2673 SWAP3 SWAP2 SWAP1 PUSH2 0x305E JUMP JUMPDEST PUSH1 0x40 MLOAD PUSH1 0x20 DUP2 DUP4 SUB SUB DUP2 MSTORE SWAP1 PUSH1 0x40 MSTORE SWAP1 PUSH28 0xFFFFFFFFFFFFFFFFFFFFFFFFFFFFFFFFFFFFFFFFFFFFFFFFFFFFFFFF NOT AND PUSH1 0x20 DUP3 ADD DUP1 MLOAD PUSH28 0xFFFFFFFFFFFFFFFFFFFFFFFFFFFFFFFFFFFFFFFFFFFFFFFFFFFFFFFF DUP4 DUP2 DUP4 AND OR DUP4 MSTORE POP POP POP POP PUSH2 0x279E JUMP JUMPDEST POP POP POP JUMP JUMPDEST PUSH1 0x0 DUP1 PUSH1 0x0 SWAP1 SLOAD SWAP1 PUSH2 0x100 EXP SWAP1 DIV PUSH20 0xFFFFFFFFFFFFFFFFFFFFFFFFFFFFFFFFFFFFFFFF AND SWAP1 POP DUP2 PUSH1 0x0 DUP1 PUSH2 0x100 EXP DUP2 SLOAD DUP2 PUSH20 0xFFFFFFFFFFFFFFFFFFFFFFFFFFFFFFFFFFFFFFFF MUL NOT AND SWAP1 DUP4 PUSH20 0xFFFFFFFFFFFFFFFFFFFFFFFFFFFFFFFFFFFFFFFF AND MUL OR SWAP1 SSTORE POP DUP2 PUSH20 0xFFFFFFFFFFFFFFFFFFFFFFFFFFFFFFFFFFFFFFFF AND DUP2 PUSH20 0xFFFFFFFFFFFFFFFFFFFFFFFFFFFFFFFFFFFFFFFF AND PUSH32 0x8BE0079C531659141344CD1FD0A4F28419497F9722A3DAAFE3B4186F6B6457E0 PUSH1 0x40 MLOAD PUSH1 0x40 MLOAD DUP1 SWAP2 SUB SWAP1 LOG3 POP POP JUMP JUMPDEST PUSH1 0x0 PUSH2 0x2800 DUP3 PUSH1 0x40 MLOAD DUP1 PUSH1 0x40 ADD PUSH1 0x40 MSTORE DUP1 PUSH1 0x20 DUP2 MSTORE PUSH1 0x20 ADD PUSH32 0x5361666542455032303A206C6F772D6C6576656C2063616C6C206661696C6564 DUP2 MSTORE POP DUP6 PUSH20 0xFFFFFFFFFFFFFFFFFFFFFFFFFFFFFFFFFFFFFFFF AND PUSH2 0x2865 SWAP1 SWAP3 SWAP2 SWAP1 PUSH4 0xFFFFFFFF AND JUMP JUMPDEST SWAP1 POP PUSH1 0x0 DUP2 MLOAD GT ISZERO PUSH2 0x2860 JUMPI DUP1 DUP1 PUSH1 0x20 ADD SWAP1 MLOAD DUP2 ADD SWAP1 PUSH2 0x2820 SWAP2 SWAP1 PUSH2 0x2B0E JUMP JUMPDEST PUSH2 0x285F JUMPI PUSH1 0x40 MLOAD PUSH32 0x8C379A000000000000000000000000000000000000000000000000000000000 DUP2 MSTORE PUSH1 0x4 ADD PUSH2 0x2856 SWAP1 PUSH2 0x3196 JUMP JUMPDEST PUSH1 0x40 MLOAD DUP1 SWAP2 SUB SWAP1 REVERT JUMPDEST JUMPDEST POP POP POP JUMP JUMPDEST PUSH1 0x60 PUSH2 0x2874 DUP5 DUP5 PUSH1 0x0 DUP6 PUSH2 0x287D JUMP JUMPDEST SWAP1 POP SWAP4 SWAP3 POP POP POP JUMP JUMPDEST PUSH1 0x60 PUSH2 0x2888 DUP6 PUSH2 0x299F JUMP JUMPDEST PUSH2 0x28C7 JUMPI PUSH1 0x40 MLOAD PUSH32 0x8C379A000000000000000000000000000000000000000000000000000000000 DUP2 MSTORE PUSH1 0x4 ADD PUSH2 0x28BE SWAP1 PUSH2 0x3336 JUMP JUMPDEST PUSH1 0x40 MLOAD DUP1 SWAP2 SUB SWAP1 REVERT JUMPDEST PUSH1 0x0 DUP1 DUP7 PUSH20 0xFFFFFFFFFFFFFFFFFFFFFFFFFFFFFFFFFFFFFFFF AND DUP6 DUP8 PUSH1 0x40 MLOAD PUSH2 0x28F0 SWAP2 SWAP1 PUSH2 0x2FC3 JUMP JUMPDEST PUSH1 0x0 PUSH1 0x40 MLOAD DUP1 DUP4 SUB DUP2 DUP6 DUP8 GAS CALL SWAP3 POP POP POP RETURNDATASIZE DUP1 PUSH1 0x0 DUP2 EQ PUSH2 0x292D JUMPI PUSH1 0x40 MLOAD SWAP2 POP PUSH1 0x1F NOT PUSH1 0x3F RETURNDATASIZE ADD AND DUP3 ADD PUSH1 0x40 MSTORE RETURNDATASIZE DUP3 MSTORE RETURNDATASIZE PUSH1 0x0 PUSH1 0x20 DUP5 ADD RETURNDATACOPY PUSH2 0x2932 JUMP JUMPDEST PUSH1 0x60 SWAP2 POP JUMPDEST POP SWAP2 POP SWAP2 POP DUP2 ISZERO PUSH2 0x2947 JUMPI DUP1 SWAP3 POP POP POP PUSH2 0x2997 JUMP JUMPDEST PUSH1 0x0 DUP2 MLOAD GT ISZERO PUSH2 0x295A JUMPI DUP1 MLOAD DUP1 DUP3 PUSH1 0x20 ADD REVERT JUMPDEST DUP4 PUSH1 0x40 MLOAD PUSH32 0x8C379A000000000000000000000000000000000000000000000000000000000 DUP2 MSTORE PUSH1 0x4 ADD PUSH2 0x298E SWAP2 SWAP1 PUSH2 0x30F4 JUMP JUMPDEST PUSH1 0x40 MLOAD DUP1 SWAP2 SUB SWAP1 REVERT JUMPDEST SWAP5 SWAP4 POP POP POP POP JUMP JUMPDEST PUSH1 0x0 DUP1 PUSH1 0x0 PUSH32 0xC5D2460186F7233C927E7DB2DCC703C0E500B653CA82273B7BFAD8045D85A470 PUSH1 0x0 SHL SWAP1 POP DUP4 EXTCODEHASH SWAP2 POP DUP1 DUP3 EQ ISZERO DUP1 ISZERO PUSH2 0x29E1 JUMPI POP PUSH1 0x0 DUP1 SHL DUP3 EQ ISZERO JUMPDEST SWAP3 POP POP POP SWAP2 SWAP1 POP JUMP JUMPDEST PUSH1 0x0 DUP2 CALLDATALOAD SWAP1 POP PUSH2 0x29F9 DUP2 PUSH2 0x3BA9 JUMP JUMPDEST SWAP3 SWAP2 POP POP JUMP JUMPDEST PUSH1 0x0 DUP1 DUP4 PUSH1 0x1F DUP5 ADD SLT PUSH2 0x2A15 JUMPI PUSH2 0x2A14 PUSH2 0x376A JUMP JUMPDEST JUMPDEST DUP3 CALLDATALOAD SWAP1 POP PUSH8 0xFFFFFFFFFFFFFFFF DUP2 GT ISZERO PUSH2 0x2A32 JUMPI PUSH2 0x2A31 PUSH2 0x3765 JUMP JUMPDEST JUMPDEST PUSH1 0x20 DUP4 ADD SWAP2 POP DUP4 PUSH1 0x20 DUP3 MUL DUP4 ADD GT ISZERO PUSH2 0x2A4E JUMPI PUSH2 0x2A4D PUSH2 0x376F JUMP JUMPDEST JUMPDEST SWAP3 POP SWAP3 SWAP1 POP JUMP JUMPDEST PUSH1 0x0 DUP2 MLOAD SWAP1 POP PUSH2 0x2A64 DUP2 PUSH2 0x3BC0 JUMP JUMPDEST SWAP3 SWAP2 POP POP JUMP JUMPDEST PUSH1 0x0 DUP2 CALLDATALOAD SWAP1 POP PUSH2 0x2A79 DUP2 PUSH2 0x3BD7 JUMP JUMPDEST SWAP3 SWAP2 POP POP JUMP JUMPDEST PUSH1 0x0 DUP2 MLOAD SWAP1 POP PUSH2 0x2A8E DUP2 PUSH2 0x3BD7 JUMP JUMPDEST SWAP3 SWAP2 POP POP JUMP JUMPDEST PUSH1 0x0 PUSH1 0x20 DUP3 DUP5 SUB SLT ISZERO PUSH2 0x2AAA JUMPI PUSH2 0x2AA9 PUSH2 0x377E JUMP JUMPDEST JUMPDEST PUSH1 0x0 PUSH2 0x2AB8 DUP5 DUP3 DUP6 ADD PUSH2 0x29EA JUMP JUMPDEST SWAP2 POP POP SWAP3 SWAP2 POP POP JUMP JUMPDEST PUSH1 0x0 DUP1 PUSH1 0x20 DUP4 DUP6 SUB SLT ISZERO PUSH2 0x2AD8 JUMPI PUSH2 0x2AD7 PUSH2 0x377E JUMP JUMPDEST JUMPDEST PUSH1 0x0 DUP4 ADD CALLDATALOAD PUSH8 0xFFFFFFFFFFFFFFFF DUP2 GT ISZERO PUSH2 0x2AF6 JUMPI PUSH2 0x2AF5 PUSH2 0x3774 JUMP JUMPDEST JUMPDEST PUSH2 0x2B02 DUP6 DUP3 DUP7 ADD PUSH2 0x29FF JUMP JUMPDEST SWAP3 POP SWAP3 POP POP SWAP3 POP SWAP3 SWAP1 POP JUMP JUMPDEST PUSH1 0x0 PUSH1 0x20 DUP3 DUP5 SUB SLT ISZERO PUSH2 0x2B24 JUMPI PUSH2 0x2B23 PUSH2 0x377E JUMP JUMPDEST JUMPDEST PUSH1 0x0 PUSH2 0x2B32 DUP5 DUP3 DUP6 ADD PUSH2 0x2A55 JUMP JUMPDEST SWAP2 POP POP SWAP3 SWAP2 POP POP JUMP JUMPDEST PUSH1 0x0 PUSH1 0x20 DUP3 DUP5 SUB SLT ISZERO PUSH2 0x2B51 JUMPI PUSH2 0x2B50 PUSH2 0x377E JUMP JUMPDEST JUMPDEST PUSH1 0x0 PUSH2 0x2B5F DUP5 DUP3 DUP6 ADD PUSH2 0x2A6A JUMP JUMPDEST SWAP2 POP POP SWAP3 SWAP2 POP POP JUMP JUMPDEST PUSH1 0x0 PUSH1 0x20 DUP3 DUP5 SUB SLT ISZERO PUSH2 0x2B7E JUMPI PUSH2 0x2B7D PUSH2 0x377E JUMP JUMPDEST JUMPDEST PUSH1 0x0 PUSH2 0x2B8C DUP5 DUP3 DUP6 ADD PUSH2 0x2A7F JUMP JUMPDEST SWAP2 POP POP SWAP3 SWAP2 POP POP JUMP JUMPDEST PUSH1 0x0 DUP1 PUSH1 0x40 DUP4 DUP6 SUB SLT ISZERO PUSH2 0x2BAC JUMPI PUSH2 0x2BAB PUSH2 0x377E JUMP JUMPDEST JUMPDEST PUSH1 0x0 PUSH2 0x2BBA DUP6 DUP3 DUP7 ADD PUSH2 0x2A6A JUMP JUMPDEST SWAP3 POP POP PUSH1 0x20 PUSH2 0x2BCB DUP6 DUP3 DUP7 ADD PUSH2 0x2A6A JUMP JUMPDEST SWAP2 POP POP SWAP3 POP SWAP3 SWAP1 POP JUMP JUMPDEST PUSH1 0x0 DUP1 PUSH1 0x0 PUSH1 0x60 DUP5 DUP7 SUB SLT ISZERO PUSH2 0x2BEE JUMPI PUSH2 0x2BED PUSH2 0x377E JUMP JUMPDEST JUMPDEST PUSH1 0x0 PUSH2 0x2BFC DUP7 DUP3 DUP8 ADD PUSH2 0x2A6A JUMP JUMPDEST SWAP4 POP POP PUSH1 0x20 PUSH2 0x2C0D DUP7 DUP3 DUP8 ADD PUSH2 0x2A6A JUMP JUMPDEST SWAP3 POP POP PUSH1 0x40 PUSH2 0x2C1E DUP7 DUP3 DUP8 ADD PUSH2 0x2A6A JUMP JUMPDEST SWAP2 POP POP SWAP3 POP SWAP3 POP SWAP3 JUMP JUMPDEST PUSH2 0x2C31 DUP2 PUSH2 0x358E JUMP JUMPDEST DUP3 MSTORE POP POP JUMP JUMPDEST PUSH1 0x0 PUSH2 0x2C43 DUP4 DUP6 PUSH2 0x344C JUMP JUMPDEST SWAP4 POP PUSH32 0x7FFFFFFFFFFFFFFFFFFFFFFFFFFFFFFFFFFFFFFFFFFFFFFFFFFFFFFFFFFFFFF DUP4 GT ISZERO PUSH2 0x2C76 JUMPI PUSH2 0x2C75 PUSH2 0x3779 JUMP JUMPDEST JUMPDEST PUSH1 0x20 DUP4 MUL SWAP3 POP PUSH2 0x2C87 DUP4 DUP6 DUP5 PUSH2 0x361E JUMP JUMPDEST DUP3 DUP5 ADD SWAP1 POP SWAP4 SWAP3 POP POP POP JUMP JUMPDEST PUSH1 0x0 PUSH2 0x2C9E DUP3 PUSH2 0x3436 JUMP JUMPDEST PUSH2 0x2CA8 DUP2 DUP6 PUSH2 0x345D JUMP JUMPDEST SWAP4 POP PUSH2 0x2CB8 DUP2 DUP6 PUSH1 0x20 DUP7 ADD PUSH2 0x362D JUMP JUMPDEST DUP1 DUP5 ADD SWAP2 POP POP SWAP3 SWAP2 POP POP JUMP JUMPDEST PUSH2 0x2CCD DUP2 PUSH2 0x35D6 JUMP JUMPDEST DUP3 MSTORE POP POP JUMP JUMPDEST PUSH2 0x2CDC DUP2 PUSH2 0x35E8 JUMP JUMPDEST DUP3 MSTORE POP POP JUMP JUMPDEST PUSH1 0x0 PUSH2 0x2CED DUP3 PUSH2 0x3441 JUMP JUMPDEST PUSH2 0x2CF7 DUP2 DUP6 PUSH2 0x3468 JUMP JUMPDEST SWAP4 POP PUSH2 0x2D07 DUP2 DUP6 PUSH1 0x20 DUP7 ADD PUSH2 0x362D JUMP JUMPDEST PUSH2 0x2D10 DUP2 PUSH2 0x3783 JUMP JUMPDEST DUP5 ADD SWAP2 POP POP SWAP3 SWAP2 POP POP JUMP JUMPDEST PUSH1 0x0 PUSH2 0x2D28 PUSH1 0x1B DUP4 PUSH2 0x3468 JUMP JUMPDEST SWAP2 POP PUSH2 0x2D33 DUP3 PUSH2 0x3794 JUMP JUMPDEST PUSH1 0x20 DUP3 ADD SWAP1 POP SWAP2 SWAP1 POP JUMP JUMPDEST PUSH1 0x0 PUSH2 0x2D4B PUSH1 0x18 DUP4 PUSH2 0x3468 JUMP JUMPDEST SWAP2 POP PUSH2 0x2D56 DUP3 PUSH2 0x37BD JUMP JUMPDEST PUSH1 0x20 DUP3 ADD SWAP1 POP SWAP2 SWAP1 POP JUMP JUMPDEST PUSH1 0x0 PUSH2 0x2D6E PUSH1 0x1B DUP4 PUSH2 0x3468 JUMP JUMPDEST SWAP2 POP PUSH2 0x2D79 DUP3 PUSH2 0x37E6 JUMP JUMPDEST PUSH1 0x20 DUP3 ADD SWAP1 POP SWAP2 SWAP1 POP JUMP JUMPDEST PUSH1 0x0 PUSH2 0x2D91 PUSH1 0x1E DUP4 PUSH2 0x3468 JUMP JUMPDEST SWAP2 POP PUSH2 0x2D9C DUP3 PUSH2 0x380F JUMP JUMPDEST PUSH1 0x20 DUP3 ADD SWAP1 POP SWAP2 SWAP1 POP JUMP JUMPDEST PUSH1 0x0 PUSH2 0x2DB4 PUSH1 0x2A DUP4 PUSH2 0x3468 JUMP JUMPDEST SWAP2 POP PUSH2 0x2DBF DUP3 PUSH2 0x3838 JUMP JUMPDEST PUSH1 0x40 DUP3 ADD SWAP1 POP SWAP2 SWAP1 POP JUMP JUMPDEST PUSH1 0x0 PUSH2 0x2DD7 PUSH1 0x26 DUP4 PUSH2 0x3468 JUMP JUMPDEST SWAP2 POP PUSH2 0x2DE2 DUP3 PUSH2 0x3887 JUMP JUMPDEST PUSH1 0x40 DUP3 ADD SWAP1 POP SWAP2 SWAP1 POP JUMP JUMPDEST PUSH1 0x0 PUSH2 0x2DFA PUSH1 0x1E DUP4 PUSH2 0x3468 JUMP JUMPDEST SWAP2 POP PUSH2 0x2E05 DUP3 PUSH2 0x38D6 JUMP JUMPDEST PUSH1 0x20 DUP3 ADD SWAP1 POP SWAP2 SWAP1 POP JUMP JUMPDEST PUSH1 0x0 PUSH2 0x2E1D PUSH1 0x1B DUP4 PUSH2 0x3468 JUMP JUMPDEST SWAP2 POP PUSH2 0x2E28 DUP3 PUSH2 0x38FF JUMP JUMPDEST PUSH1 0x20 DUP3 ADD SWAP1 POP SWAP2 SWAP1 POP JUMP JUMPDEST PUSH1 0x0 PUSH2 0x2E40 PUSH1 0x31 DUP4 PUSH2 0x3468 JUMP JUMPDEST SWAP2 POP PUSH2 0x2E4B DUP3 PUSH2 0x3928 JUMP JUMPDEST PUSH1 0x40 DUP3 ADD SWAP1 POP SWAP2 SWAP1 POP JUMP JUMPDEST PUSH1 0x0 PUSH2 0x2E63 PUSH1 0x22 DUP4 PUSH2 0x3468 JUMP JUMPDEST SWAP2 POP PUSH2 0x2E6E DUP3 PUSH2 0x3977 JUMP JUMPDEST PUSH1 0x40 DUP3 ADD SWAP1 POP SWAP2 SWAP1 POP JUMP JUMPDEST PUSH1 0x0 PUSH2 0x2E86 PUSH1 0x1F DUP4 PUSH2 0x3468 JUMP JUMPDEST SWAP2 POP PUSH2 0x2E91 DUP3 PUSH2 0x39C6 JUMP JUMPDEST PUSH1 0x20 DUP3 ADD SWAP1 POP SWAP2 SWAP1 POP JUMP JUMPDEST PUSH1 0x0 PUSH2 0x2EA9 PUSH1 0x18 DUP4 PUSH2 0x3468 JUMP JUMPDEST SWAP2 POP PUSH2 0x2EB4 DUP3 PUSH2 0x39EF JUMP JUMPDEST PUSH1 0x20 DUP3 ADD SWAP1 POP SWAP2 SWAP1 POP JUMP JUMPDEST PUSH1 0x0 PUSH2 0x2ECC PUSH1 0x22 DUP4 PUSH2 0x3468 JUMP JUMPDEST SWAP2 POP PUSH2 0x2ED7 DUP3 PUSH2 0x3A18 JUMP JUMPDEST PUSH1 0x40 DUP3 ADD SWAP1 POP SWAP2 SWAP1 POP JUMP JUMPDEST PUSH1 0x0 PUSH2 0x2EEF PUSH1 0x20 DUP4 PUSH2 0x3468 JUMP JUMPDEST SWAP2 POP PUSH2 0x2EFA DUP3 PUSH2 0x3A67 JUMP JUMPDEST PUSH1 0x20 DUP3 ADD SWAP1 POP SWAP2 SWAP1 POP JUMP JUMPDEST PUSH1 0x0 PUSH2 0x2F12 PUSH1 0x1E DUP4 PUSH2 0x3468 JUMP JUMPDEST SWAP2 POP PUSH2 0x2F1D DUP3 PUSH2 0x3A90 JUMP JUMPDEST PUSH1 0x20 DUP3 ADD SWAP1 POP SWAP2 SWAP1 POP JUMP JUMPDEST PUSH1 0x0 PUSH2 0x2F35 PUSH1 0x1F DUP4 PUSH2 0x3468 JUMP JUMPDEST SWAP2 POP PUSH2 0x2F40 DUP3 PUSH2 0x3AB9 JUMP JUMPDEST PUSH1 0x20 DUP3 ADD SWAP1 POP SWAP2 SWAP1 POP JUMP JUMPDEST PUSH1 0x0 PUSH2 0x2F58 PUSH1 0x22 DUP4 PUSH2 0x3468 JUMP JUMPDEST SWAP2 POP PUSH2 0x2F63 DUP3 PUSH2 0x3AE2 JUMP JUMPDEST PUSH1 0x40 DUP3 ADD SWAP1 POP SWAP2 SWAP1 POP JUMP JUMPDEST PUSH1 0x0 PUSH2 0x2F7B PUSH1 0x1D DUP4 PUSH2 0x3468 JUMP JUMPDEST SWAP2 POP PUSH2 0x2F86 DUP3 PUSH2 0x3B31 JUMP JUMPDEST PUSH1 0x20 DUP3 ADD SWAP1 POP SWAP2 SWAP1 POP JUMP JUMPDEST PUSH1 0x0 PUSH2 0x2F9E PUSH1 0x39 DUP4 PUSH2 0x3468 JUMP JUMPDEST SWAP2 POP PUSH2 0x2FA9 DUP3 PUSH2 0x3B5A JUMP JUMPDEST PUSH1 0x40 DUP3 ADD SWAP1 POP SWAP2 SWAP1 POP JUMP JUMPDEST PUSH2 0x2FBD DUP2 PUSH2 0x35CC JUMP JUMPDEST DUP3 MSTORE POP POP JUMP JUMPDEST PUSH1 0x0 PUSH2 0x2FCF DUP3 DUP5 PUSH2 0x2C93 JUMP JUMPDEST SWAP2 POP DUP2 SWAP1 POP SWAP3 SWAP2 POP POP JUMP JUMPDEST PUSH1 0x0 PUSH1 0x20 DUP3 ADD SWAP1 POP PUSH2 0x2FEF PUSH1 0x0 DUP4 ADD DUP5 PUSH2 0x2C28 JUMP JUMPDEST SWAP3 SWAP2 POP POP JUMP JUMPDEST PUSH1 0x0 PUSH1 0x60 DUP3 ADD SWAP1 POP PUSH2 0x300A PUSH1 0x0 DUP4 ADD DUP7 PUSH2 0x2C28 JUMP JUMPDEST PUSH2 0x3017 PUSH1 0x20 DUP4 ADD DUP6 PUSH2 0x2C28 JUMP JUMPDEST PUSH2 0x3024 PUSH1 0x40 DUP4 ADD DUP5 PUSH2 0x2FB4 JUMP JUMPDEST SWAP5 SWAP4 POP POP POP POP JUMP JUMPDEST PUSH1 0x0 PUSH1 0x40 DUP3 ADD SWAP1 POP PUSH2 0x3041 PUSH1 0x0 DUP4 ADD DUP7 PUSH2 0x2C28 JUMP JUMPDEST DUP2 DUP2 SUB PUSH1 0x20 DUP4 ADD MSTORE PUSH2 0x3054 DUP2 DUP5 DUP7 PUSH2 0x2C37 JUMP JUMPDEST SWAP1 POP SWAP5 SWAP4 POP POP POP POP JUMP JUMPDEST PUSH1 0x0 PUSH1 0x40 DUP3 ADD SWAP1 POP PUSH2 0x3073 PUSH1 0x0 DUP4 ADD DUP6 PUSH2 0x2C28 JUMP JUMPDEST PUSH2 0x3080 PUSH1 0x20 DUP4 ADD DUP5 PUSH2 0x2FB4 JUMP JUMPDEST SWAP4 SWAP3 POP POP POP JUMP JUMPDEST PUSH1 0x0 PUSH1 0x60 DUP3 ADD SWAP1 POP PUSH2 0x309C PUSH1 0x0 DUP4 ADD DUP7 PUSH2 0x2C28 JUMP JUMPDEST PUSH2 0x30A9 PUSH1 0x20 DUP4 ADD DUP6 PUSH2 0x2FB4 JUMP JUMPDEST PUSH2 0x30B6 PUSH1 0x40 DUP4 ADD DUP5 PUSH2 0x2FB4 JUMP JUMPDEST SWAP5 SWAP4 POP POP POP POP JUMP JUMPDEST PUSH1 0x0 PUSH1 0x20 DUP3 ADD SWAP1 POP PUSH2 0x30D3 PUSH1 0x0 DUP4 ADD DUP5 PUSH2 0x2CC4 JUMP JUMPDEST SWAP3 SWAP2 POP POP JUMP JUMPDEST PUSH1 0x0 PUSH1 0x20 DUP3 ADD SWAP1 POP PUSH2 0x30EE PUSH1 0x0 DUP4 ADD DUP5 PUSH2 0x2CD3 JUMP JUMPDEST SWAP3 SWAP2 POP POP JUMP JUMPDEST PUSH1 0x0 PUSH1 0x20 DUP3 ADD SWAP1 POP DUP2 DUP2 SUB PUSH1 0x0 DUP4 ADD MSTORE PUSH2 0x310E DUP2 DUP5 PUSH2 0x2CE2 JUMP JUMPDEST SWAP1 POP SWAP3 SWAP2 POP POP JUMP JUMPDEST PUSH1 0x0 PUSH1 0x20 DUP3 ADD SWAP1 POP DUP2 DUP2 SUB PUSH1 0x0 DUP4 ADD MSTORE PUSH2 0x312F DUP2 PUSH2 0x2D1B JUMP JUMPDEST SWAP1 POP SWAP2 SWAP1 POP JUMP JUMPDEST PUSH1 0x0 PUSH1 0x20 DUP3 ADD SWAP1 POP DUP2 DUP2 SUB PUSH1 0x0 DUP4 ADD MSTORE PUSH2 0x314F DUP2 PUSH2 0x2D3E JUMP JUMPDEST SWAP1 POP SWAP2 SWAP1 POP JUMP JUMPDEST PUSH1 0x0 PUSH1 0x20 DUP3 ADD SWAP1 POP DUP2 DUP2 SUB PUSH1 0x0 DUP4 ADD MSTORE PUSH2 0x316F DUP2 PUSH2 0x2D61 JUMP JUMPDEST SWAP1 POP SWAP2 SWAP1 POP JUMP JUMPDEST PUSH1 0x0 PUSH1 0x20 DUP3 ADD SWAP1 POP DUP2 DUP2 SUB PUSH1 0x0 DUP4 ADD MSTORE PUSH2 0x318F DUP2 PUSH2 0x2D84 JUMP JUMPDEST SWAP1 POP SWAP2 SWAP1 POP JUMP JUMPDEST PUSH1 0x0 PUSH1 0x20 DUP3 ADD SWAP1 POP DUP2 DUP2 SUB PUSH1 0x0 DUP4 ADD MSTORE PUSH2 0x31AF DUP2 PUSH2 0x2DA7 JUMP JUMPDEST SWAP1 POP SWAP2 SWAP1 POP JUMP JUMPDEST PUSH1 0x0 PUSH1 0x20 DUP3 ADD SWAP1 POP DUP2 DUP2 SUB PUSH1 0x0 DUP4 ADD MSTORE PUSH2 0x31CF DUP2 PUSH2 0x2DCA JUMP JUMPDEST SWAP1 POP SWAP2 SWAP1 POP JUMP JUMPDEST PUSH1 0x0 PUSH1 0x20 DUP3 ADD SWAP1 POP DUP2 DUP2 SUB PUSH1 0x0 DUP4 ADD MSTORE PUSH2 0x31EF DUP2 PUSH2 0x2DED JUMP JUMPDEST SWAP1 POP SWAP2 SWAP1 POP JUMP JUMPDEST PUSH1 0x0 PUSH1 0x20 DUP3 ADD SWAP1 POP DUP2 DUP2 SUB PUSH1 0x0 DUP4 ADD MSTORE PUSH2 0x320F DUP2 PUSH2 0x2E10 JUMP JUMPDEST SWAP1 POP SWAP2 SWAP1 POP JUMP JUMPDEST PUSH1 0x0 PUSH1 0x20 DUP3 ADD SWAP1 POP DUP2 DUP2 SUB PUSH1 0x0 DUP4 ADD MSTORE PUSH2 0x322F DUP2 PUSH2 0x2E33 JUMP JUMPDEST SWAP1 POP SWAP2 SWAP1 POP JUMP JUMPDEST PUSH1 0x0 PUSH1 0x20 DUP3 ADD SWAP1 POP DUP2 DUP2 SUB PUSH1 0x0 DUP4 ADD MSTORE PUSH2 0x324F DUP2 PUSH2 0x2E56 JUMP JUMPDEST SWAP1 POP SWAP2 SWAP1 POP JUMP JUMPDEST PUSH1 0x0 PUSH1 0x20 DUP3 ADD SWAP1 POP DUP2 DUP2 SUB PUSH1 0x0 DUP4 ADD MSTORE PUSH2 0x326F DUP2 PUSH2 0x2E79 JUMP JUMPDEST SWAP1 POP SWAP2 SWAP1 POP JUMP JUMPDEST PUSH1 0x0 PUSH1 0x20 DUP3 ADD SWAP1 POP DUP2 DUP2 SUB PUSH1 0x0 DUP4 ADD MSTORE PUSH2 0x328F DUP2 PUSH2 0x2E9C JUMP JUMPDEST SWAP1 POP SWAP2 SWAP1 POP JUMP JUMPDEST PUSH1 0x0 PUSH1 0x20 DUP3 ADD SWAP1 POP DUP2 DUP2 SUB PUSH1 0x0 DUP4 ADD MSTORE PUSH2 0x32AF DUP2 PUSH2 0x2EBF JUMP JUMPDEST SWAP1 POP SWAP2 SWAP1 POP JUMP JUMPDEST PUSH1 0x0 PUSH1 0x20 DUP3 ADD SWAP1 POP DUP2 DUP2 SUB PUSH1 0x0 DUP4 ADD MSTORE PUSH2 0x32CF DUP2 PUSH2 0x2EE2 JUMP JUMPDEST SWAP1 POP SWAP2 SWAP1 POP JUMP JUMPDEST PUSH1 0x0 PUSH1 0x20 DUP3 ADD SWAP1 POP DUP2 DUP2 SUB PUSH1 0x0 DUP4 ADD MSTORE PUSH2 0x32EF DUP2 PUSH2 0x2F05 JUMP JUMPDEST SWAP1 POP SWAP2 SWAP1 POP JUMP JUMPDEST PUSH1 0x0 PUSH1 0x20 DUP3 ADD SWAP1 POP DUP2 DUP2 SUB PUSH1 0x0 DUP4 ADD MSTORE PUSH2 0x330F DUP2 PUSH2 0x2F28 JUMP JUMPDEST SWAP1 POP SWAP2 SWAP1 POP JUMP JUMPDEST PUSH1 0x0 PUSH1 0x20 DUP3 ADD SWAP1 POP DUP2 DUP2 SUB PUSH1 0x0 DUP4 ADD MSTORE PUSH2 0x332F DUP2 PUSH2 0x2F4B JUMP JUMPDEST SWAP1 POP SWAP2 SWAP1 POP JUMP JUMPDEST PUSH1 0x0 PUSH1 0x20 DUP3 ADD SWAP1 POP DUP2 DUP2 SUB PUSH1 0x0 DUP4 ADD MSTORE PUSH2 0x334F DUP2 PUSH2 0x2F6E JUMP JUMPDEST SWAP1 POP SWAP2 SWAP1 POP JUMP JUMPDEST PUSH1 0x0 PUSH1 0x20 DUP3 ADD SWAP1 POP DUP2 DUP2 SUB PUSH1 0x0 DUP4 ADD MSTORE PUSH2 0x336F DUP2 PUSH2 0x2F91 JUMP JUMPDEST SWAP1 POP SWAP2 SWAP1 POP JUMP JUMPDEST PUSH1 0x0 PUSH1 0x20 DUP3 ADD SWAP1 POP PUSH2 0x338B PUSH1 0x0 DUP4 ADD DUP5 PUSH2 0x2FB4 JUMP JUMPDEST SWAP3 SWAP2 POP POP JUMP JUMPDEST PUSH1 0x0 PUSH1 0x40 DUP3 ADD SWAP1 POP PUSH2 0x33A6 PUSH1 0x0 DUP4 ADD DUP6 PUSH2 0x2FB4 JUMP JUMPDEST PUSH2 0x33B3 PUSH1 0x20 DUP4 ADD DUP5 PUSH2 0x2FB4 JUMP JUMPDEST SWAP4 SWAP3 POP POP POP JUMP JUMPDEST PUSH1 0x0 PUSH1 0x60 DUP3 ADD SWAP1 POP PUSH2 0x33CF PUSH1 0x0 DUP4 ADD DUP7 PUSH2 0x2FB4 JUMP JUMPDEST PUSH2 0x33DC PUSH1 0x20 DUP4 ADD DUP6 PUSH2 0x2FB4 JUMP JUMPDEST PUSH2 0x33E9 PUSH1 0x40 DUP4 ADD DUP5 PUSH2 0x2FB4 JUMP JUMPDEST SWAP5 SWAP4 POP POP POP POP JUMP JUMPDEST PUSH1 0x0 PUSH1 0x80 DUP3 ADD SWAP1 POP PUSH2 0x3406 PUSH1 0x0 DUP4 ADD DUP8 PUSH2 0x2FB4 JUMP JUMPDEST PUSH2 0x3413 PUSH1 0x20 DUP4 ADD DUP7 PUSH2 0x2FB4 JUMP JUMPDEST PUSH2 0x3420 PUSH1 0x40 DUP4 ADD DUP6 PUSH2 0x2FB4 JUMP JUMPDEST PUSH2 0x342D PUSH1 0x60 DUP4 ADD DUP5 PUSH2 0x2FB4 JUMP JUMPDEST SWAP6 SWAP5 POP POP POP POP POP JUMP JUMPDEST PUSH1 0x0 DUP2 MLOAD SWAP1 POP SWAP2 SWAP1 POP JUMP JUMPDEST PUSH1 0x0 DUP2 MLOAD SWAP1 POP SWAP2 SWAP1 POP JUMP JUMPDEST PUSH1 0x0 DUP3 DUP3 MSTORE PUSH1 0x20 DUP3 ADD SWAP1 POP SWAP3 SWAP2 POP POP JUMP JUMPDEST PUSH1 0x0 DUP2 SWAP1 POP SWAP3 SWAP2 POP POP JUMP JUMPDEST PUSH1 0x0 DUP3 DUP3 MSTORE PUSH1 0x20 DUP3 ADD SWAP1 POP SWAP3 SWAP2 POP POP JUMP JUMPDEST PUSH1 0x0 PUSH2 0x3484 DUP3 PUSH2 0x35CC JUMP JUMPDEST SWAP2 POP PUSH2 0x348F DUP4 PUSH2 0x35CC JUMP JUMPDEST SWAP3 POP DUP3 PUSH32 0xFFFFFFFFFFFFFFFFFFFFFFFFFFFFFFFFFFFFFFFFFFFFFFFFFFFFFFFFFFFFFFFF SUB DUP3 GT ISZERO PUSH2 0x34C4 JUMPI PUSH2 0x34C3 PUSH2 0x36A9 JUMP JUMPDEST JUMPDEST DUP3 DUP3 ADD SWAP1 POP SWAP3 SWAP2 POP POP JUMP JUMPDEST PUSH1 0x0 PUSH2 0x34DA DUP3 PUSH2 0x35CC JUMP JUMPDEST SWAP2 POP PUSH2 0x34E5 DUP4 PUSH2 0x35CC JUMP JUMPDEST SWAP3 POP DUP3 PUSH2 0x34F5 JUMPI PUSH2 0x34F4 PUSH2 0x36D8 JUMP JUMPDEST JUMPDEST DUP3 DUP3 DIV SWAP1 POP SWAP3 SWAP2 POP POP JUMP JUMPDEST PUSH1 0x0 PUSH2 0x350B DUP3 PUSH2 0x35CC JUMP JUMPDEST SWAP2 POP PUSH2 0x3516 DUP4 PUSH2 0x35CC JUMP JUMPDEST SWAP3 POP DUP2 PUSH32 0xFFFFFFFFFFFFFFFFFFFFFFFFFFFFFFFFFFFFFFFFFFFFFFFFFFFFFFFFFFFFFFFF DIV DUP4 GT DUP3 ISZERO ISZERO AND ISZERO PUSH2 0x354F JUMPI PUSH2 0x354E PUSH2 0x36A9 JUMP JUMPDEST JUMPDEST DUP3 DUP3 MUL SWAP1 POP SWAP3 SWAP2 POP POP JUMP JUMPDEST PUSH1 0x0 PUSH2 0x3565 DUP3 PUSH2 0x35CC JUMP JUMPDEST SWAP2 POP PUSH2 0x3570 DUP4 PUSH2 0x35CC JUMP JUMPDEST SWAP3 POP DUP3 DUP3 LT ISZERO PUSH2 0x3583 JUMPI PUSH2 0x3582 PUSH2 0x36A9 JUMP JUMPDEST JUMPDEST DUP3 DUP3 SUB SWAP1 POP SWAP3 SWAP2 POP POP JUMP JUMPDEST PUSH1 0x0 PUSH2 0x3599 DUP3 PUSH2 0x35AC JUMP JUMPDEST SWAP1 POP SWAP2 SWAP1 POP JUMP JUMPDEST PUSH1 0x0 DUP2 ISZERO ISZERO SWAP1 POP SWAP2 SWAP1 POP JUMP JUMPDEST PUSH1 0x0 PUSH20 0xFFFFFFFFFFFFFFFFFFFFFFFFFFFFFFFFFFFFFFFF DUP3 AND SWAP1 POP SWAP2 SWAP1 POP JUMP JUMPDEST PUSH1 0x0 DUP2 SWAP1 POP SWAP2 SWAP1 POP JUMP JUMPDEST PUSH1 0x0 PUSH2 0x35E1 DUP3 PUSH2 0x35FA JUMP JUMPDEST SWAP1 POP SWAP2 SWAP1 POP JUMP JUMPDEST PUSH1 0x0 PUSH2 0x35F3 DUP3 PUSH2 0x35FA JUMP JUMPDEST SWAP1 POP SWAP2 SWAP1 POP JUMP JUMPDEST PUSH1 0x0 PUSH2 0x3605 DUP3 PUSH2 0x360C JUMP JUMPDEST SWAP1 POP SWAP2 SWAP1 POP JUMP JUMPDEST PUSH1 0x0 PUSH2 0x3617 DUP3 PUSH2 0x35AC JUMP JUMPDEST SWAP1 POP SWAP2 SWAP1 POP JUMP JUMPDEST DUP3 DUP2 DUP4 CALLDATACOPY PUSH1 0x0 DUP4 DUP4 ADD MSTORE POP POP POP JUMP JUMPDEST PUSH1 0x0 JUMPDEST DUP4 DUP2 LT ISZERO PUSH2 0x364B JUMPI DUP1 DUP3 ADD MLOAD DUP2 DUP5 ADD MSTORE PUSH1 0x20 DUP2 ADD SWAP1 POP PUSH2 0x3630 JUMP JUMPDEST DUP4 DUP2 GT ISZERO PUSH2 0x365A JUMPI PUSH1 0x0 DUP5 DUP5 ADD MSTORE JUMPDEST POP POP POP POP JUMP JUMPDEST PUSH1 0x0 PUSH2 0x366B DUP3 PUSH2 0x35CC JUMP JUMPDEST SWAP2 POP PUSH32 0xFFFFFFFFFFFFFFFFFFFFFFFFFFFFFFFFFFFFFFFFFFFFFFFFFFFFFFFFFFFFFFFF DUP3 EQ ISZERO PUSH2 0x369E JUMPI PUSH2 0x369D PUSH2 0x36A9 JUMP JUMPDEST JUMPDEST PUSH1 0x1 DUP3 ADD SWAP1 POP SWAP2 SWAP1 POP JUMP JUMPDEST PUSH32 0x4E487B7100000000000000000000000000000000000000000000000000000000 PUSH1 0x0 MSTORE PUSH1 0x11 PUSH1 0x4 MSTORE PUSH1 0x24 PUSH1 0x0 REVERT JUMPDEST PUSH32 0x4E487B7100000000000000000000000000000000000000000000000000000000 PUSH1 0x0 MSTORE PUSH1 0x12 PUSH1 0x4 MSTORE PUSH1 0x24 PUSH1 0x0 REVERT JUMPDEST PUSH32 0x4E487B7100000000000000000000000000000000000000000000000000000000 PUSH1 0x0 MSTORE PUSH1 0x31 PUSH1 0x4 MSTORE PUSH1 0x24 PUSH1 0x0 REVERT JUMPDEST PUSH32 0x4E487B7100000000000000000000000000000000000000000000000000000000 PUSH1 0x0 MSTORE PUSH1 0x32 PUSH1 0x4 MSTORE PUSH1 0x24 PUSH1 0x0 REVERT JUMPDEST PUSH1 0x0 DUP1 REVERT JUMPDEST PUSH1 0x0 DUP1 REVERT JUMPDEST PUSH1 0x0 DUP1 REVERT JUMPDEST PUSH1 0x0 DUP1 REVERT JUMPDEST PUSH1 0x0 DUP1 REVERT JUMPDEST PUSH1 0x0 DUP1 REVERT JUMPDEST PUSH1 0x0 PUSH1 0x1F NOT PUSH1 0x1F DUP4 ADD AND SWAP1 POP SWAP2 SWAP1 POP JUMP JUMPDEST PUSH32 0x616464556E5374616B654665653A206D696E4461797320697320300000000000 PUSH1 0x0 DUP3 ADD MSTORE POP JUMP JUMPDEST PUSH32 0x4E4654205374616B696E673A20456D7074792041727261790000000000000000 PUSH1 0x0 DUP3 ADD MSTORE POP JUMP JUMPDEST PUSH32 0x736574556E5374616B654665653A206D696E4461797320697320300000000000 PUSH1 0x0 DUP3 ADD MSTORE POP JUMP JUMPDEST PUSH32 0x616464556E5374616B654665653A2066656550657263656E74203E2034300000 PUSH1 0x0 DUP3 ADD MSTORE POP JUMP JUMPDEST PUSH32 0x5361666542455032303A204245503230206F7065726174696F6E20646964206E PUSH1 0x0 DUP3 ADD MSTORE PUSH32 0x6F74207375636365656400000000000000000000000000000000000000000000 PUSH1 0x20 DUP3 ADD MSTORE POP JUMP JUMPDEST PUSH32 0x4F776E61626C653A206E6577206F776E657220697320746865207A65726F2061 PUSH1 0x0 DUP3 ADD MSTORE PUSH32 0x6464726573730000000000000000000000000000000000000000000000000000 PUSH1 0x20 DUP3 ADD MSTORE POP JUMP JUMPDEST PUSH32 0x736574556E5374616B654665653A2066656550657263656E74203E2034300000 PUSH1 0x0 DUP3 ADD MSTORE POP JUMP JUMPDEST PUSH32 0x72656D6F7665556E5374616B654665653A2072616E6765206F75740000000000 PUSH1 0x0 DUP3 ADD MSTORE POP JUMP JUMPDEST PUSH32 0x4E4654205374616B696E673A206475706C696361746520746F6B656E20696473 PUSH1 0x0 DUP3 ADD MSTORE PUSH32 0x20696E20696E70757420706172616D732E000000000000000000000000000000 PUSH1 0x20 DUP3 ADD MSTORE POP JUMP JUMPDEST PUSH32 0x4E4654205374616B696E673A20746F6B656E20616C7265616479207374616B65 PUSH1 0x0 DUP3 ADD MSTORE PUSH32 0x642E000000000000000000000000000000000000000000000000000000000000 PUSH1 0x20 DUP3 ADD MSTORE POP JUMP JUMPDEST PUSH32 0x736574556E5374616B654665653A206D696E44617973206973206572726F7200 PUSH1 0x0 DUP3 ADD MSTORE POP JUMP JUMPDEST PUSH32 0x736574556E5374616B654665653A2072616E6765206F75740000000000000000 PUSH1 0x0 DUP3 ADD MSTORE POP JUMP JUMPDEST PUSH32 0x616464556E5374616B654665653A2066656550657263656E7420697320657272 PUSH1 0x0 DUP3 ADD MSTORE PUSH32 0x6F72000000000000000000000000000000000000000000000000000000000000 PUSH1 0x20 DUP3 ADD MSTORE POP JUMP JUMPDEST PUSH32 0x4F776E61626C653A2063616C6C6572206973206E6F7420746865206F776E6572 PUSH1 0x0 DUP3 ADD MSTORE POP JUMP JUMPDEST PUSH32 0x736574486172766573744665653A2066656550657263656E74203E2034300000 PUSH1 0x0 DUP3 ADD MSTORE POP JUMP JUMPDEST PUSH32 0x616464556E5374616B654665653A206D696E44617973206973206572726F7200 PUSH1 0x0 DUP3 ADD MSTORE POP JUMP JUMPDEST PUSH32 0x736574556E5374616B654665653A2066656550657263656E7420697320657272 PUSH1 0x0 DUP3 ADD MSTORE PUSH32 0x6F72000000000000000000000000000000000000000000000000000000000000 PUSH1 0x20 DUP3 ADD MSTORE POP JUMP JUMPDEST PUSH32 0x416464726573733A2063616C6C20746F206E6F6E2D636F6E7472616374000000 PUSH1 0x0 DUP3 ADD MSTORE POP JUMP JUMPDEST PUSH32 0x4E667420556E7374616B696E673A20746F6B656E206E6F74207374616B656420 PUSH1 0x0 DUP3 ADD MSTORE PUSH32 0x6F7220696E636F727265637420746F6B656E206F776E65722E00000000000000 PUSH1 0x20 DUP3 ADD MSTORE POP JUMP JUMPDEST PUSH2 0x3BB2 DUP2 PUSH2 0x358E JUMP JUMPDEST DUP2 EQ PUSH2 0x3BBD JUMPI PUSH1 0x0 DUP1 REVERT JUMPDEST POP JUMP JUMPDEST PUSH2 0x3BC9 DUP2 PUSH2 0x35A0 JUMP JUMPDEST DUP2 EQ PUSH2 0x3BD4 JUMPI PUSH1 0x0 DUP1 REVERT JUMPDEST POP JUMP JUMPDEST PUSH2 0x3BE0 DUP2 PUSH2 0x35CC JUMP JUMPDEST DUP2 EQ PUSH2 0x3BEB JUMPI PUSH1 0x0 DUP1 REVERT JUMPDEST POP JUMP INVALID LOG2 PUSH5 0x6970667358 0x22 SLT KECCAK256 SWAP3 0xCB 0xB7 0xE6 PUSH3 0xF8F03B 0xE7 SIGNEXTEND 0xE4 CREATE 0xD2 PUSH21 0x3B23B0E54B2BC045D04B2D9808796721C74764736F PUSH13 0x63430008070033000000000000 "
				},
				"gasEstimates": {
					"creation": {
						"codeDepositCost": "3079200",
						"executionCost": "infinite",
						"totalCost": "infinite"
					},
					"external": {
						"accGHSPPerShare()": "2474",
						"addUnStakeFee(uint256,uint256)": "infinite",
						"depositReward(uint256)": "infinite",
						"feeWallet()": "2624",
						"getMultiplier(uint256,uint256)": "infinite",
						"getRewardBalance()": "infinite",
						"ghspToken()": "infinite",
						"harvest()": "infinite",
						"harvestFee()": "2473",
						"lastRewardBlock()": "2451",
						"nftToken()": "infinite",
						"owner()": "2589",
						"removeUnStakeFee(uint256)": "infinite",
						"renounceOwnership()": "30507",
						"rewardPerBlock()": "2474",
						"setFeeWallet(address)": "30370",
						"setHarvestFee(uint256)": "infinite",
						"setUnStakeFee(uint256,uint256,uint256)": "infinite",
						"stake(uint256[])": "infinite",
						"totalStakedAmount()": "2518",
						"transferOwnership(address)": "30855",
						"unStakeFees(uint256)": "infinite",
						"unstake(uint256[])": "infinite",
						"userInfo(address)": "infinite"
					},
					"internal": {
						"_getPending(address)": "infinite",
						"init()": "infinite",
						"updateStatus()": "infinite"
					}
				},
				"methodIdentifiers": {
					"accGHSPPerShare()": "43db3c5f",
					"addUnStakeFee(uint256,uint256)": "294d4e4a",
					"depositReward(uint256)": "1e2720ff",
					"feeWallet()": "f25f4b56",
					"getMultiplier(uint256,uint256)": "8dbb1e3a",
					"getRewardBalance()": "5e42b455",
					"ghspToken()": "19fca9f6",
					"harvest()": "4641257d",
					"harvestFee()": "b5962917",
					"lastRewardBlock()": "a9f8d181",
					"nftToken()": "d06fcba8",
					"owner()": "8da5cb5b",
					"removeUnStakeFee(uint256)": "9ca62a69",
					"renounceOwnership()": "715018a6",
					"rewardPerBlock()": "8ae39cac",
					"setFeeWallet(address)": "90d49b9d",
					"setHarvestFee(uint256)": "792b55b6",
					"setUnStakeFee(uint256,uint256,uint256)": "10c77237",
					"stake(uint256[])": "0fbf0a93",
					"totalStakedAmount()": "567e98f9",
					"transferOwnership(address)": "f2fde38b",
					"unStakeFees(uint256)": "1c3e2e7a",
					"unstake(uint256[])": "e449f341",
					"userInfo(address)": "1959a002"
				}
			},
			"userdoc": {
				"kind": "user",
				"methods": {},
				"version": 1
			}
		}
	}
}