{
	"Ghosper-NFT-Staking-MasterChef.sol": {
		"NftStaking": {
			"abi": [
				{
					"inputs": [
						{
							"internalType": "contract IERC721",
							"name": "_nftToken",
							"type": "address"
						},
						{
							"internalType": "contract IBEP20",
							"name": "_ghspToken",
							"type": "address"
						},
						{
							"internalType": "uint256",
							"name": "_rewardPerBlock",
							"type": "uint256"
						},
						{
							"internalType": "address",
							"name": "_feeWallet",
							"type": "address"
						}
					],
					"stateMutability": "nonpayable",
					"type": "constructor"
				},
				{
					"anonymous": false,
					"inputs": [
						{
							"indexed": false,
							"internalType": "uint256",
							"name": "_index",
							"type": "uint256"
						},
						{
							"indexed": false,
							"internalType": "uint256",
							"name": "_minDays",
							"type": "uint256"
						},
						{
							"indexed": false,
							"internalType": "uint256",
							"name": "_feePercent",
							"type": "uint256"
						}
					],
					"name": "AddUnStakeFee",
					"type": "event"
				},
				{
					"anonymous": false,
					"inputs": [
						{
							"indexed": true,
							"internalType": "address",
							"name": "user",
							"type": "address"
						},
						{
							"indexed": false,
							"internalType": "uint256",
							"name": "amount",
							"type": "uint256"
						}
					],
					"name": "DepositReward",
					"type": "event"
				},
				{
					"anonymous": false,
					"inputs": [
						{
							"indexed": false,
							"internalType": "address",
							"name": "staker",
							"type": "address"
						},
						{
							"indexed": false,
							"internalType": "uint256",
							"name": "amount",
							"type": "uint256"
						},
						{
							"indexed": false,
							"internalType": "uint256",
							"name": "harvestFee",
							"type": "uint256"
						}
					],
					"name": "Harvest",
					"type": "event"
				},
				{
					"anonymous": false,
					"inputs": [
						{
							"indexed": true,
							"internalType": "address",
							"name": "previousOwner",
							"type": "address"
						},
						{
							"indexed": true,
							"internalType": "address",
							"name": "newOwner",
							"type": "address"
						}
					],
					"name": "OwnershipTransferred",
					"type": "event"
				},
				{
					"anonymous": false,
					"inputs": [
						{
							"indexed": false,
							"internalType": "uint256",
							"name": "_index",
							"type": "uint256"
						},
						{
							"indexed": false,
							"internalType": "uint256",
							"name": "_minDays",
							"type": "uint256"
						},
						{
							"indexed": false,
							"internalType": "uint256",
							"name": "_feePercent",
							"type": "uint256"
						}
					],
					"name": "RemoveUnStakeFee",
					"type": "event"
				},
				{
					"anonymous": false,
					"inputs": [
						{
							"indexed": true,
							"internalType": "address",
							"name": "_feeWallet",
							"type": "address"
						}
					],
					"name": "SetFeeWallet",
					"type": "event"
				},
				{
					"anonymous": false,
					"inputs": [
						{
							"indexed": false,
							"internalType": "uint256",
							"name": "_harvestFee",
							"type": "uint256"
						}
					],
					"name": "SetHarvestFee",
					"type": "event"
				},
				{
					"anonymous": false,
					"inputs": [
						{
							"indexed": false,
							"internalType": "uint256",
							"name": "_index",
							"type": "uint256"
						},
						{
							"indexed": false,
							"internalType": "uint256",
							"name": "_minDays",
							"type": "uint256"
						},
						{
							"indexed": false,
							"internalType": "uint256",
							"name": "_feePercent",
							"type": "uint256"
						}
					],
					"name": "SetUnStakeFee",
					"type": "event"
				},
				{
					"anonymous": false,
					"inputs": [
						{
							"indexed": false,
							"internalType": "address",
							"name": "staker",
							"type": "address"
						},
						{
							"indexed": false,
							"internalType": "uint256[]",
							"name": "tokenId",
							"type": "uint256[]"
						}
					],
					"name": "Staked",
					"type": "event"
				},
				{
					"anonymous": false,
					"inputs": [
						{
							"indexed": false,
							"internalType": "address",
							"name": "staker",
							"type": "address"
						},
						{
							"indexed": false,
							"internalType": "uint256[]",
							"name": "tokenId",
							"type": "uint256[]"
						},
						{
							"indexed": false,
							"internalType": "uint256",
							"name": "unStakeFee",
							"type": "uint256"
						}
					],
					"name": "UnStake",
					"type": "event"
				},
				{
					"inputs": [],
					"name": "accGHSPPerShare",
					"outputs": [
						{
							"internalType": "uint256",
							"name": "",
							"type": "uint256"
						}
					],
					"stateMutability": "view",
					"type": "function"
				},
				{
					"inputs": [
						{
							"internalType": "uint256",
							"name": "_minDays",
							"type": "uint256"
						},
						{
							"internalType": "uint256",
							"name": "_feePercent",
							"type": "uint256"
						}
					],
					"name": "addUnStakeFee",
					"outputs": [],
					"stateMutability": "nonpayable",
					"type": "function"
				},
				{
					"inputs": [
						{
							"internalType": "uint256",
							"name": "_amount",
							"type": "uint256"
						}
					],
					"name": "depositReward",
					"outputs": [],
					"stateMutability": "nonpayable",
					"type": "function"
				},
				{
					"inputs": [],
					"name": "feeWallet",
					"outputs": [
						{
							"internalType": "address",
							"name": "",
							"type": "address"
						}
					],
					"stateMutability": "view",
					"type": "function"
				},
				{
					"inputs": [
						{
							"internalType": "uint256",
							"name": "_from",
							"type": "uint256"
						},
						{
							"internalType": "uint256",
							"name": "_to",
							"type": "uint256"
						}
					],
					"name": "getMultiplier",
					"outputs": [
						{
							"internalType": "uint256",
							"name": "",
							"type": "uint256"
						}
					],
					"stateMutability": "pure",
					"type": "function"
				},
				{
					"inputs": [],
					"name": "getRewardBalance",
					"outputs": [
						{
							"internalType": "uint256",
							"name": "",
							"type": "uint256"
						}
					],
					"stateMutability": "view",
					"type": "function"
				},
				{
					"inputs": [],
					"name": "ghspToken",
					"outputs": [
						{
							"internalType": "contract IBEP20",
							"name": "",
							"type": "address"
						}
					],
					"stateMutability": "view",
					"type": "function"
				},
				{
					"inputs": [],
					"name": "harvestFee",
					"outputs": [
						{
							"internalType": "uint256",
							"name": "",
							"type": "uint256"
						}
					],
					"stateMutability": "view",
					"type": "function"
				},
				{
					"inputs": [],
					"name": "lastRewardBlock",
					"outputs": [
						{
							"internalType": "uint256",
							"name": "",
							"type": "uint256"
						}
					],
					"stateMutability": "view",
					"type": "function"
				},
				{
					"inputs": [],
					"name": "nftToken",
					"outputs": [
						{
							"internalType": "contract IERC721",
							"name": "",
							"type": "address"
						}
					],
					"stateMutability": "view",
					"type": "function"
				},
				{
					"inputs": [],
					"name": "owner",
					"outputs": [
						{
							"internalType": "address",
							"name": "",
							"type": "address"
						}
					],
					"stateMutability": "view",
					"type": "function"
				},
				{
					"inputs": [
						{
							"internalType": "uint256",
							"name": "_index",
							"type": "uint256"
						}
					],
					"name": "removeUnStakeFee",
					"outputs": [],
					"stateMutability": "nonpayable",
					"type": "function"
				},
				{
					"inputs": [],
					"name": "renounceOwnership",
					"outputs": [],
					"stateMutability": "nonpayable",
					"type": "function"
				},
				{
					"inputs": [],
					"name": "rewardPerBlock",
					"outputs": [
						{
							"internalType": "uint256",
							"name": "",
							"type": "uint256"
						}
					],
					"stateMutability": "view",
					"type": "function"
				},
				{
					"inputs": [
						{
							"internalType": "address",
							"name": "_feeWallet",
							"type": "address"
						}
					],
					"name": "setFeeWallet",
					"outputs": [],
					"stateMutability": "nonpayable",
					"type": "function"
				},
				{
					"inputs": [
						{
							"internalType": "uint256",
							"name": "_feePercent",
							"type": "uint256"
						}
					],
					"name": "setHarvestFee",
					"outputs": [],
					"stateMutability": "nonpayable",
					"type": "function"
				},
				{
					"inputs": [
						{
							"internalType": "uint256",
							"name": "_index",
							"type": "uint256"
						},
						{
							"internalType": "uint256",
							"name": "_minDays",
							"type": "uint256"
						},
						{
							"internalType": "uint256",
							"name": "_feePercent",
							"type": "uint256"
						}
					],
					"name": "setUnStakeFee",
					"outputs": [],
					"stateMutability": "nonpayable",
					"type": "function"
				},
				{
					"inputs": [
						{
							"internalType": "uint256[]",
							"name": "tokenIds",
							"type": "uint256[]"
						}
					],
					"name": "stake",
					"outputs": [],
					"stateMutability": "nonpayable",
					"type": "function"
				},
				{
					"inputs": [],
					"name": "totalStakedAmount",
					"outputs": [
						{
							"internalType": "uint256",
							"name": "",
							"type": "uint256"
						}
					],
					"stateMutability": "view",
					"type": "function"
				},
				{
					"inputs": [
						{
							"internalType": "address",
							"name": "newOwner",
							"type": "address"
						}
					],
					"name": "transferOwnership",
					"outputs": [],
					"stateMutability": "nonpayable",
					"type": "function"
				},
				{
					"inputs": [
						{
							"internalType": "uint256",
							"name": "",
							"type": "uint256"
						}
					],
					"name": "unStakeFees",
					"outputs": [
						{
							"internalType": "uint256",
							"name": "minDays",
							"type": "uint256"
						},
						{
							"internalType": "uint256",
							"name": "feePercent",
							"type": "uint256"
						}
					],
					"stateMutability": "view",
					"type": "function"
				},
				{
					"inputs": [
						{
							"internalType": "address",
							"name": "",
							"type": "address"
						}
					],
					"name": "userInfo",
					"outputs": [
						{
							"internalType": "uint256",
							"name": "amount",
							"type": "uint256"
						},
						{
							"internalType": "uint256",
							"name": "rewardDebt",
							"type": "uint256"
						},
						{
							"internalType": "uint256",
							"name": "pendingAmount",
							"type": "uint256"
						},
						{
							"internalType": "uint256",
							"name": "lastStakedTime",
							"type": "uint256"
						}
					],
					"stateMutability": "view",
					"type": "function"
				}
			],
			"devdoc": {
				"kind": "dev",
				"methods": {
					"owner()": {
						"details": "Returns the address of the current owner."
					},
					"renounceOwnership()": {
						"details": "Leaves the contract without owner. It will not be possible to call `onlyOwner` functions anymore. Can only be called by the current owner. NOTE: Renouncing ownership will leave the contract without an owner, thereby removing any functionality that is only available to the owner."
					},
					"transferOwnership(address)": {
						"details": "Transfers ownership of the contract to a new account (`newOwner`). Can only be called by the current owner."
					}
				},
				"version": 1
			},
			"evm": {
				"assembly": "    /* \"Ghosper-NFT-Staking-MasterChef.sol\":27968:36423  contract NftStaking is Ownable {\r... */\n  mstore(0x40, 0xc0)\n    /* \"Ghosper-NFT-Staking-MasterChef.sol\":29507:29810  constructor(\r... */\n  callvalue\n  dup1\n  iszero\n  tag_1\n  jumpi\n  0x00\n  dup1\n  revert\ntag_1:\n  pop\n  mload(0x40)\n  sub(codesize, bytecodeSize)\n  dup1\n  bytecodeSize\n  dup4\n  codecopy\n  dup2\n  dup2\n  add\n  0x40\n  mstore\n  dup2\n  add\n  swap1\n  tag_2\n  swap2\n  swap1\n  tag_3\n  jump\t// in\ntag_2:\n    /* \"Ghosper-NFT-Staking-MasterChef.sol\":4790:4822  _transferOwnership(_msgSender()) */\n  tag_7\n    /* \"Ghosper-NFT-Staking-MasterChef.sol\":4809:4821  _msgSender() */\n  tag_8\n    /* \"Ghosper-NFT-Staking-MasterChef.sol\":4809:4819  _msgSender */\n  shl(0x20, tag_9)\n    /* \"Ghosper-NFT-Staking-MasterChef.sol\":4809:4821  _msgSender() */\n  0x20\n  shr\n  jump\t// in\ntag_8:\n    /* \"Ghosper-NFT-Staking-MasterChef.sol\":4790:4808  _transferOwnership */\n  shl(0x20, tag_10)\n    /* \"Ghosper-NFT-Staking-MasterChef.sol\":4790:4822  _transferOwnership(_msgSender()) */\n  0x20\n  shr\n  jump\t// in\ntag_7:\n    /* \"Ghosper-NFT-Staking-MasterChef.sol\":29667:29676  _nftToken */\n  dup4\n    /* \"Ghosper-NFT-Staking-MasterChef.sol\":29656:29676  nftToken = _nftToken */\n  0xffffffffffffffffffffffffffffffffffffffff\n  and\n  0x80\n  dup2\n  0xffffffffffffffffffffffffffffffffffffffff\n  and\n  0x60\n  shl\n  dup2\n  mstore\n  pop\n  pop\n    /* \"Ghosper-NFT-Staking-MasterChef.sol\":29699:29709  _ghspToken */\n  dup3\n    /* \"Ghosper-NFT-Staking-MasterChef.sol\":29687:29709  ghspToken = _ghspToken */\n  0xffffffffffffffffffffffffffffffffffffffff\n  and\n  0xa0\n  dup2\n  0xffffffffffffffffffffffffffffffffffffffff\n  and\n  0x60\n  shl\n  dup2\n  mstore\n  pop\n  pop\n    /* \"Ghosper-NFT-Staking-MasterChef.sol\":29737:29752  _rewardPerBlock */\n  dup2\n    /* \"Ghosper-NFT-Staking-MasterChef.sol\":29720:29734  rewardPerBlock */\n  0x04\n    /* \"Ghosper-NFT-Staking-MasterChef.sol\":29720:29752  rewardPerBlock = _rewardPerBlock */\n  dup2\n  swap1\n  sstore\n  pop\n    /* \"Ghosper-NFT-Staking-MasterChef.sol\":29775:29785  _feeWallet */\n  dup1\n    /* \"Ghosper-NFT-Staking-MasterChef.sol\":29763:29772  feeWallet */\n  0x05\n  0x00\n    /* \"Ghosper-NFT-Staking-MasterChef.sol\":29763:29785  feeWallet = _feeWallet */\n  0x0100\n  exp\n  dup2\n  sload\n  dup2\n  0xffffffffffffffffffffffffffffffffffffffff\n  mul\n  not\n  and\n  swap1\n  dup4\n  0xffffffffffffffffffffffffffffffffffffffff\n  and\n  mul\n  or\n  swap1\n  sstore\n  pop\n    /* \"Ghosper-NFT-Staking-MasterChef.sol\":29796:29802  init() */\n  tag_12\n    /* \"Ghosper-NFT-Staking-MasterChef.sol\":29796:29800  init */\n  shl(0x20, tag_13)\n    /* \"Ghosper-NFT-Staking-MasterChef.sol\":29796:29802  init() */\n  0x20\n  shr\n  jump\t// in\ntag_12:\n    /* \"Ghosper-NFT-Staking-MasterChef.sol\":29507:29810  constructor(\r... */\n  pop\n  pop\n  pop\n  pop\n    /* \"Ghosper-NFT-Staking-MasterChef.sol\":27968:36423  contract NftStaking is Ownable {\r... */\n  jump(tag_14)\n    /* \"Ghosper-NFT-Staking-MasterChef.sol\":3751:3849  function _msgSender() internal view virtual returns (address) {\r... */\ntag_9:\n    /* \"Ghosper-NFT-Staking-MasterChef.sol\":3804:3811  address */\n  0x00\n    /* \"Ghosper-NFT-Staking-MasterChef.sol\":3831:3841  msg.sender */\n  caller\n    /* \"Ghosper-NFT-Staking-MasterChef.sol\":3824:3841  return msg.sender */\n  swap1\n  pop\n    /* \"Ghosper-NFT-Staking-MasterChef.sol\":3751:3849  function _msgSender() internal view virtual returns (address) {\r... */\n  swap1\n  jump\t// out\n    /* \"Ghosper-NFT-Staking-MasterChef.sol\":6181:6372  function _transferOwnership(address newOwner) internal virtual {\r... */\ntag_10:\n    /* \"Ghosper-NFT-Staking-MasterChef.sol\":6255:6271  address oldOwner */\n  0x00\n    /* \"Ghosper-NFT-Staking-MasterChef.sol\":6274:6280  _owner */\n  dup1\n  0x00\n  swap1\n  sload\n  swap1\n  0x0100\n  exp\n  swap1\n  div\n  0xffffffffffffffffffffffffffffffffffffffff\n  and\n    /* \"Ghosper-NFT-Staking-MasterChef.sol\":6255:6280  address oldOwner = _owner */\n  swap1\n  pop\n    /* \"Ghosper-NFT-Staking-MasterChef.sol\":6300:6308  newOwner */\n  dup2\n    /* \"Ghosper-NFT-Staking-MasterChef.sol\":6291:6297  _owner */\n  0x00\n  dup1\n    /* \"Ghosper-NFT-Staking-MasterChef.sol\":6291:6308  _owner = newOwner */\n  0x0100\n  exp\n  dup2\n  sload\n  dup2\n  0xffffffffffffffffffffffffffffffffffffffff\n  mul\n  not\n  and\n  swap1\n  dup4\n  0xffffffffffffffffffffffffffffffffffffffff\n  and\n  mul\n  or\n  swap1\n  sstore\n  pop\n    /* \"Ghosper-NFT-Staking-MasterChef.sol\":6355:6363  newOwner */\n  dup2\n    /* \"Ghosper-NFT-Staking-MasterChef.sol\":6324:6364  OwnershipTransferred(oldOwner, newOwner) */\n  0xffffffffffffffffffffffffffffffffffffffff\n  and\n    /* \"Ghosper-NFT-Staking-MasterChef.sol\":6345:6353  oldOwner */\n  dup2\n    /* \"Ghosper-NFT-Staking-MasterChef.sol\":6324:6364  OwnershipTransferred(oldOwner, newOwner) */\n  0xffffffffffffffffffffffffffffffffffffffff\n  and\n  0x8be0079c531659141344cd1fd0a4f28419497f9722a3daafe3b4186f6b6457e0\n  mload(0x40)\n  mload(0x40)\n  dup1\n  swap2\n  sub\n  swap1\n  log3\n    /* \"Ghosper-NFT-Staking-MasterChef.sol\":6244:6372  {\r... */\n  pop\n    /* \"Ghosper-NFT-Staking-MasterChef.sol\":6181:6372  function _transferOwnership(address newOwner) internal virtual {\r... */\n  pop\n  jump\t// out\n    /* \"Ghosper-NFT-Staking-MasterChef.sol\":29818:30499  function init() private {\r... */\ntag_13:\n    /* \"Ghosper-NFT-Staking-MasterChef.sol\":29853:29882  UnStakeFee memory unStakeFee1 */\n  0x00\n    /* \"Ghosper-NFT-Staking-MasterChef.sol\":29885:29962  UnStakeFee({\r... */\n  mload(0x40)\n  dup1\n  0x40\n  add\n  0x40\n  mstore\n  dup1\n    /* \"Ghosper-NFT-Staking-MasterChef.sol\":29920:29921  7 */\n  0x07\n    /* \"Ghosper-NFT-Staking-MasterChef.sol\":29885:29962  UnStakeFee({\r... */\n  dup2\n  mstore\n  0x20\n  add\n    /* \"Ghosper-NFT-Staking-MasterChef.sol\":29948:29950  40 */\n  0x28\n    /* \"Ghosper-NFT-Staking-MasterChef.sol\":29885:29962  UnStakeFee({\r... */\n  dup2\n  mstore\n  pop\n    /* \"Ghosper-NFT-Staking-MasterChef.sol\":29853:29962  UnStakeFee memory unStakeFee1 = UnStakeFee({\r... */\n  swap1\n  pop\n    /* \"Ghosper-NFT-Staking-MasterChef.sol\":29973:29984  unStakeFees */\n  0x01\n    /* \"Ghosper-NFT-Staking-MasterChef.sol\":29990:30001  unStakeFee1 */\n  dup2\n    /* \"Ghosper-NFT-Staking-MasterChef.sol\":29973:30002  unStakeFees.push(unStakeFee1) */\n  swap1\n  dup1\n  0x01\n  dup2\n  sload\n  add\n  dup1\n  dup3\n  sstore\n  dup1\n  swap2\n  pop\n  pop\n  0x01\n  swap1\n  sub\n  swap1\n  0x00\n  mstore\n  keccak256(0x00, 0x20)\n  swap1\n  0x02\n  mul\n  add\n  0x00\n  swap1\n  swap2\n  swap1\n  swap2\n  swap1\n  swap2\n  pop\n  0x00\n  dup3\n  add\n  mload\n  dup2\n  0x00\n  add\n  sstore\n  0x20\n  dup3\n  add\n  mload\n  dup2\n  0x01\n  add\n  sstore\n  pop\n  pop\n    /* \"Ghosper-NFT-Staking-MasterChef.sol\":30015:30044  UnStakeFee memory unStakeFee2 */\n  0x00\n    /* \"Ghosper-NFT-Staking-MasterChef.sol\":30047:30125  UnStakeFee({\r... */\n  mload(0x40)\n  dup1\n  0x40\n  add\n  0x40\n  mstore\n  dup1\n    /* \"Ghosper-NFT-Staking-MasterChef.sol\":30082:30084  14 */\n  0x0e\n    /* \"Ghosper-NFT-Staking-MasterChef.sol\":30047:30125  UnStakeFee({\r... */\n  dup2\n  mstore\n  0x20\n  add\n    /* \"Ghosper-NFT-Staking-MasterChef.sol\":30111:30113  30 */\n  0x1e\n    /* \"Ghosper-NFT-Staking-MasterChef.sol\":30047:30125  UnStakeFee({\r... */\n  dup2\n  mstore\n  pop\n    /* \"Ghosper-NFT-Staking-MasterChef.sol\":30015:30125  UnStakeFee memory unStakeFee2 = UnStakeFee({\r... */\n  swap1\n  pop\n    /* \"Ghosper-NFT-Staking-MasterChef.sol\":30136:30147  unStakeFees */\n  0x01\n    /* \"Ghosper-NFT-Staking-MasterChef.sol\":30153:30164  unStakeFee2 */\n  dup2\n    /* \"Ghosper-NFT-Staking-MasterChef.sol\":30136:30165  unStakeFees.push(unStakeFee2) */\n  swap1\n  dup1\n  0x01\n  dup2\n  sload\n  add\n  dup1\n  dup3\n  sstore\n  dup1\n  swap2\n  pop\n  pop\n  0x01\n  swap1\n  sub\n  swap1\n  0x00\n  mstore\n  keccak256(0x00, 0x20)\n  swap1\n  0x02\n  mul\n  add\n  0x00\n  swap1\n  swap2\n  swap1\n  swap2\n  swap1\n  swap2\n  pop\n  0x00\n  dup3\n  add\n  mload\n  dup2\n  0x00\n  add\n  sstore\n  0x20\n  dup3\n  add\n  mload\n  dup2\n  0x01\n  add\n  sstore\n  pop\n  pop\n    /* \"Ghosper-NFT-Staking-MasterChef.sol\":30178:30207  UnStakeFee memory unStakeFee3 */\n  0x00\n    /* \"Ghosper-NFT-Staking-MasterChef.sol\":30210:30288  UnStakeFee({\r... */\n  mload(0x40)\n  dup1\n  0x40\n  add\n  0x40\n  mstore\n  dup1\n    /* \"Ghosper-NFT-Staking-MasterChef.sol\":30245:30247  21 */\n  0x15\n    /* \"Ghosper-NFT-Staking-MasterChef.sol\":30210:30288  UnStakeFee({\r... */\n  dup2\n  mstore\n  0x20\n  add\n    /* \"Ghosper-NFT-Staking-MasterChef.sol\":30274:30276  20 */\n  0x14\n    /* \"Ghosper-NFT-Staking-MasterChef.sol\":30210:30288  UnStakeFee({\r... */\n  dup2\n  mstore\n  pop\n    /* \"Ghosper-NFT-Staking-MasterChef.sol\":30178:30288  UnStakeFee memory unStakeFee3 = UnStakeFee({\r... */\n  swap1\n  pop\n    /* \"Ghosper-NFT-Staking-MasterChef.sol\":30299:30310  unStakeFees */\n  0x01\n    /* \"Ghosper-NFT-Staking-MasterChef.sol\":30316:30327  unStakeFee3 */\n  dup2\n    /* \"Ghosper-NFT-Staking-MasterChef.sol\":30299:30328  unStakeFees.push(unStakeFee3) */\n  swap1\n  dup1\n  0x01\n  dup2\n  sload\n  add\n  dup1\n  dup3\n  sstore\n  dup1\n  swap2\n  pop\n  pop\n  0x01\n  swap1\n  sub\n  swap1\n  0x00\n  mstore\n  keccak256(0x00, 0x20)\n  swap1\n  0x02\n  mul\n  add\n  0x00\n  swap1\n  swap2\n  swap1\n  swap2\n  swap1\n  swap2\n  pop\n  0x00\n  dup3\n  add\n  mload\n  dup2\n  0x00\n  add\n  sstore\n  0x20\n  dup3\n  add\n  mload\n  dup2\n  0x01\n  add\n  sstore\n  pop\n  pop\n    /* \"Ghosper-NFT-Staking-MasterChef.sol\":30341:30370  UnStakeFee memory unStakeFee4 */\n  0x00\n    /* \"Ghosper-NFT-Staking-MasterChef.sol\":30373:30451  UnStakeFee({\r... */\n  mload(0x40)\n  dup1\n  0x40\n  add\n  0x40\n  mstore\n  dup1\n    /* \"Ghosper-NFT-Staking-MasterChef.sol\":30408:30410  30 */\n  0x1e\n    /* \"Ghosper-NFT-Staking-MasterChef.sol\":30373:30451  UnStakeFee({\r... */\n  dup2\n  mstore\n  0x20\n  add\n    /* \"Ghosper-NFT-Staking-MasterChef.sol\":30437:30439  10 */\n  0x0a\n    /* \"Ghosper-NFT-Staking-MasterChef.sol\":30373:30451  UnStakeFee({\r... */\n  dup2\n  mstore\n  pop\n    /* \"Ghosper-NFT-Staking-MasterChef.sol\":30341:30451  UnStakeFee memory unStakeFee4 = UnStakeFee({\r... */\n  swap1\n  pop\n    /* \"Ghosper-NFT-Staking-MasterChef.sol\":30462:30473  unStakeFees */\n  0x01\n    /* \"Ghosper-NFT-Staking-MasterChef.sol\":30479:30490  unStakeFee4 */\n  dup2\n    /* \"Ghosper-NFT-Staking-MasterChef.sol\":30462:30491  unStakeFees.push(unStakeFee4) */\n  swap1\n  dup1\n  0x01\n  dup2\n  sload\n  add\n  dup1\n  dup3\n  sstore\n  dup1\n  swap2\n  pop\n  pop\n  0x01\n  swap1\n  sub\n  swap1\n  0x00\n  mstore\n  keccak256(0x00, 0x20)\n  swap1\n  0x02\n  mul\n  add\n  0x00\n  swap1\n  swap2\n  swap1\n  swap2\n  swap1\n  swap2\n  pop\n  0x00\n  dup3\n  add\n  mload\n  dup2\n  0x00\n  add\n  sstore\n  0x20\n  dup3\n  add\n  mload\n  dup2\n  0x01\n  add\n  sstore\n  pop\n  pop\n    /* \"Ghosper-NFT-Staking-MasterChef.sol\":29842:30499  {\r... */\n  pop\n  pop\n  pop\n  pop\n    /* \"Ghosper-NFT-Staking-MasterChef.sol\":29818:30499  function init() private {\r... */\n  jump\t// out\n    /* \"#utility.yul\":7:150   */\ntag_23:\n    /* \"#utility.yul\":64:69   */\n  0x00\n    /* \"#utility.yul\":95:101   */\n  dup2\n    /* \"#utility.yul\":89:102   */\n  mload\n    /* \"#utility.yul\":80:102   */\n  swap1\n  pop\n    /* \"#utility.yul\":111:144   */\n  tag_25\n    /* \"#utility.yul\":138:143   */\n  dup2\n    /* \"#utility.yul\":111:144   */\n  tag_26\n  jump\t// in\ntag_25:\n    /* \"#utility.yul\":7:150   */\n  swap3\n  swap2\n  pop\n  pop\n  jump\t// out\n    /* \"#utility.yul\":156:327   */\ntag_27:\n    /* \"#utility.yul\":227:232   */\n  0x00\n    /* \"#utility.yul\":258:264   */\n  dup2\n    /* \"#utility.yul\":252:265   */\n  mload\n    /* \"#utility.yul\":243:265   */\n  swap1\n  pop\n    /* \"#utility.yul\":274:321   */\n  tag_29\n    /* \"#utility.yul\":315:320   */\n  dup2\n    /* \"#utility.yul\":274:321   */\n  tag_30\n  jump\t// in\ntag_29:\n    /* \"#utility.yul\":156:327   */\n  swap3\n  swap2\n  pop\n  pop\n  jump\t// out\n    /* \"#utility.yul\":333:508   */\ntag_31:\n    /* \"#utility.yul\":406:411   */\n  0x00\n    /* \"#utility.yul\":437:443   */\n  dup2\n    /* \"#utility.yul\":431:444   */\n  mload\n    /* \"#utility.yul\":422:444   */\n  swap1\n  pop\n    /* \"#utility.yul\":453:502   */\n  tag_33\n    /* \"#utility.yul\":496:501   */\n  dup2\n    /* \"#utility.yul\":453:502   */\n  tag_34\n  jump\t// in\ntag_33:\n    /* \"#utility.yul\":333:508   */\n  swap3\n  swap2\n  pop\n  pop\n  jump\t// out\n    /* \"#utility.yul\":514:657   */\ntag_35:\n    /* \"#utility.yul\":571:576   */\n  0x00\n    /* \"#utility.yul\":602:608   */\n  dup2\n    /* \"#utility.yul\":596:609   */\n  mload\n    /* \"#utility.yul\":587:609   */\n  swap1\n  pop\n    /* \"#utility.yul\":618:651   */\n  tag_37\n    /* \"#utility.yul\":645:650   */\n  dup2\n    /* \"#utility.yul\":618:651   */\n  tag_38\n  jump\t// in\ntag_37:\n    /* \"#utility.yul\":514:657   */\n  swap3\n  swap2\n  pop\n  pop\n  jump\t// out\n    /* \"#utility.yul\":663:1543   */\ntag_3:\n    /* \"#utility.yul\":790:796   */\n  0x00\n    /* \"#utility.yul\":798:804   */\n  dup1\n    /* \"#utility.yul\":806:812   */\n  0x00\n    /* \"#utility.yul\":814:820   */\n  dup1\n    /* \"#utility.yul\":863:866   */\n  0x80\n    /* \"#utility.yul\":851:860   */\n  dup6\n    /* \"#utility.yul\":842:849   */\n  dup8\n    /* \"#utility.yul\":838:861   */\n  sub\n    /* \"#utility.yul\":834:867   */\n  slt\n    /* \"#utility.yul\":831:951   */\n  iszero\n  tag_40\n  jumpi\n    /* \"#utility.yul\":870:949   */\n  tag_41\n  tag_42\n  jump\t// in\ntag_41:\n    /* \"#utility.yul\":831:951   */\ntag_40:\n    /* \"#utility.yul\":990:991   */\n  0x00\n    /* \"#utility.yul\":1015:1095   */\n  tag_43\n    /* \"#utility.yul\":1087:1094   */\n  dup8\n    /* \"#utility.yul\":1078:1084   */\n  dup3\n    /* \"#utility.yul\":1067:1076   */\n  dup9\n    /* \"#utility.yul\":1063:1085   */\n  add\n    /* \"#utility.yul\":1015:1095   */\n  tag_31\n  jump\t// in\ntag_43:\n    /* \"#utility.yul\":1005:1095   */\n  swap5\n  pop\n    /* \"#utility.yul\":961:1105   */\n  pop\n    /* \"#utility.yul\":1144:1146   */\n  0x20\n    /* \"#utility.yul\":1170:1248   */\n  tag_44\n    /* \"#utility.yul\":1240:1247   */\n  dup8\n    /* \"#utility.yul\":1231:1237   */\n  dup3\n    /* \"#utility.yul\":1220:1229   */\n  dup9\n    /* \"#utility.yul\":1216:1238   */\n  add\n    /* \"#utility.yul\":1170:1248   */\n  tag_27\n  jump\t// in\ntag_44:\n    /* \"#utility.yul\":1160:1248   */\n  swap4\n  pop\n    /* \"#utility.yul\":1115:1258   */\n  pop\n    /* \"#utility.yul\":1297:1299   */\n  0x40\n    /* \"#utility.yul\":1323:1387   */\n  tag_45\n    /* \"#utility.yul\":1379:1386   */\n  dup8\n    /* \"#utility.yul\":1370:1376   */\n  dup3\n    /* \"#utility.yul\":1359:1368   */\n  dup9\n    /* \"#utility.yul\":1355:1377   */\n  add\n    /* \"#utility.yul\":1323:1387   */\n  tag_35\n  jump\t// in\ntag_45:\n    /* \"#utility.yul\":1313:1387   */\n  swap3\n  pop\n    /* \"#utility.yul\":1268:1397   */\n  pop\n    /* \"#utility.yul\":1436:1438   */\n  0x60\n    /* \"#utility.yul\":1462:1526   */\n  tag_46\n    /* \"#utility.yul\":1518:1525   */\n  dup8\n    /* \"#utility.yul\":1509:1515   */\n  dup3\n    /* \"#utility.yul\":1498:1507   */\n  dup9\n    /* \"#utility.yul\":1494:1516   */\n  add\n    /* \"#utility.yul\":1462:1526   */\n  tag_23\n  jump\t// in\ntag_46:\n    /* \"#utility.yul\":1452:1526   */\n  swap2\n  pop\n    /* \"#utility.yul\":1407:1536   */\n  pop\n    /* \"#utility.yul\":663:1543   */\n  swap3\n  swap6\n  swap2\n  swap5\n  pop\n  swap3\n  pop\n  jump\t// out\n    /* \"#utility.yul\":1630:1726   */\ntag_49:\n    /* \"#utility.yul\":1667:1674   */\n  0x00\n    /* \"#utility.yul\":1696:1720   */\n  tag_51\n    /* \"#utility.yul\":1714:1719   */\n  dup3\n    /* \"#utility.yul\":1696:1720   */\n  tag_52\n  jump\t// in\ntag_51:\n    /* \"#utility.yul\":1685:1720   */\n  swap1\n  pop\n    /* \"#utility.yul\":1630:1726   */\n  swap2\n  swap1\n  pop\n  jump\t// out\n    /* \"#utility.yul\":1732:1842   */\ntag_53:\n    /* \"#utility.yul\":1783:1790   */\n  0x00\n    /* \"#utility.yul\":1812:1836   */\n  tag_55\n    /* \"#utility.yul\":1830:1835   */\n  dup3\n    /* \"#utility.yul\":1812:1836   */\n  tag_49\n  jump\t// in\ntag_55:\n    /* \"#utility.yul\":1801:1836   */\n  swap1\n  pop\n    /* \"#utility.yul\":1732:1842   */\n  swap2\n  swap1\n  pop\n  jump\t// out\n    /* \"#utility.yul\":1848:1960   */\ntag_56:\n    /* \"#utility.yul\":1901:1908   */\n  0x00\n    /* \"#utility.yul\":1930:1954   */\n  tag_58\n    /* \"#utility.yul\":1948:1953   */\n  dup3\n    /* \"#utility.yul\":1930:1954   */\n  tag_49\n  jump\t// in\ntag_58:\n    /* \"#utility.yul\":1919:1954   */\n  swap1\n  pop\n    /* \"#utility.yul\":1848:1960   */\n  swap2\n  swap1\n  pop\n  jump\t// out\n    /* \"#utility.yul\":1966:2092   */\ntag_52:\n    /* \"#utility.yul\":2003:2010   */\n  0x00\n    /* \"#utility.yul\":2043:2085   */\n  0xffffffffffffffffffffffffffffffffffffffff\n    /* \"#utility.yul\":2036:2041   */\n  dup3\n    /* \"#utility.yul\":2032:2086   */\n  and\n    /* \"#utility.yul\":2021:2086   */\n  swap1\n  pop\n    /* \"#utility.yul\":1966:2092   */\n  swap2\n  swap1\n  pop\n  jump\t// out\n    /* \"#utility.yul\":2098:2175   */\ntag_60:\n    /* \"#utility.yul\":2135:2142   */\n  0x00\n    /* \"#utility.yul\":2164:2169   */\n  dup2\n    /* \"#utility.yul\":2153:2169   */\n  swap1\n  pop\n    /* \"#utility.yul\":2098:2175   */\n  swap2\n  swap1\n  pop\n  jump\t// out\n    /* \"#utility.yul\":2304:2421   */\ntag_42:\n    /* \"#utility.yul\":2413:2414   */\n  0x00\n    /* \"#utility.yul\":2410:2411   */\n  dup1\n    /* \"#utility.yul\":2403:2415   */\n  revert\n    /* \"#utility.yul\":2427:2549   */\ntag_26:\n    /* \"#utility.yul\":2500:2524   */\n  tag_66\n    /* \"#utility.yul\":2518:2523   */\n  dup2\n    /* \"#utility.yul\":2500:2524   */\n  tag_49\n  jump\t// in\ntag_66:\n    /* \"#utility.yul\":2493:2498   */\n  dup2\n    /* \"#utility.yul\":2490:2525   */\n  eq\n    /* \"#utility.yul\":2480:2543   */\n  tag_67\n  jumpi\n    /* \"#utility.yul\":2539:2540   */\n  0x00\n    /* \"#utility.yul\":2536:2537   */\n  dup1\n    /* \"#utility.yul\":2529:2541   */\n  revert\n    /* \"#utility.yul\":2480:2543   */\ntag_67:\n    /* \"#utility.yul\":2427:2549   */\n  pop\n  jump\t// out\n    /* \"#utility.yul\":2555:2705   */\ntag_30:\n    /* \"#utility.yul\":2642:2680   */\n  tag_69\n    /* \"#utility.yul\":2674:2679   */\n  dup2\n    /* \"#utility.yul\":2642:2680   */\n  tag_53\n  jump\t// in\ntag_69:\n    /* \"#utility.yul\":2635:2640   */\n  dup2\n    /* \"#utility.yul\":2632:2681   */\n  eq\n    /* \"#utility.yul\":2622:2699   */\n  tag_70\n  jumpi\n    /* \"#utility.yul\":2695:2696   */\n  0x00\n    /* \"#utility.yul\":2692:2693   */\n  dup1\n    /* \"#utility.yul\":2685:2697   */\n  revert\n    /* \"#utility.yul\":2622:2699   */\ntag_70:\n    /* \"#utility.yul\":2555:2705   */\n  pop\n  jump\t// out\n    /* \"#utility.yul\":2711:2865   */\ntag_34:\n    /* \"#utility.yul\":2800:2840   */\n  tag_72\n    /* \"#utility.yul\":2834:2839   */\n  dup2\n    /* \"#utility.yul\":2800:2840   */\n  tag_56\n  jump\t// in\ntag_72:\n    /* \"#utility.yul\":2793:2798   */\n  dup2\n    /* \"#utility.yul\":2790:2841   */\n  eq\n    /* \"#utility.yul\":2780:2859   */\n  tag_73\n  jumpi\n    /* \"#utility.yul\":2855:2856   */\n  0x00\n    /* \"#utility.yul\":2852:2853   */\n  dup1\n    /* \"#utility.yul\":2845:2857   */\n  revert\n    /* \"#utility.yul\":2780:2859   */\ntag_73:\n    /* \"#utility.yul\":2711:2865   */\n  pop\n  jump\t// out\n    /* \"#utility.yul\":2871:2993   */\ntag_38:\n    /* \"#utility.yul\":2944:2968   */\n  tag_75\n    /* \"#utility.yul\":2962:2967   */\n  dup2\n    /* \"#utility.yul\":2944:2968   */\n  tag_60\n  jump\t// in\ntag_75:\n    /* \"#utility.yul\":2937:2942   */\n  dup2\n    /* \"#utility.yul\":2934:2969   */\n  eq\n    /* \"#utility.yul\":2924:2987   */\n  tag_76\n  jumpi\n    /* \"#utility.yul\":2983:2984   */\n  0x00\n    /* \"#utility.yul\":2980:2981   */\n  dup1\n    /* \"#utility.yul\":2973:2985   */\n  revert\n    /* \"#utility.yul\":2924:2987   */\ntag_76:\n    /* \"#utility.yul\":2871:2993   */\n  pop\n  jump\t// out\n    /* \"Ghosper-NFT-Staking-MasterChef.sol\":27968:36423  contract NftStaking is Ownable {\r... */\ntag_14:\n  shr(0x60, mload(0x80))\n  shr(0x60, mload(0xa0))\n  codecopy(0x00, dataOffset(sub_0), dataSize(sub_0))\n  0x00\n  assignImmutable(\"0x2b788c69c84726cb61a0641c648d01bc1bc6568bcab92e0e8975f165cd12fe81\")\n  0x00\n  assignImmutable(\"0x29f8d1998cd4186678d0085cd54072aeefd05bc476ef1844361510d857ac074b\")\n  return(0x00, dataSize(sub_0))\nstop\n\nsub_0: assembly {\n        /* \"Ghosper-NFT-Staking-MasterChef.sol\":27968:36423  contract NftStaking is Ownable {\r... */\n      mstore(0x40, 0x80)\n      callvalue\n      dup1\n      iszero\n      tag_1\n      jumpi\n      0x00\n      dup1\n      revert\n    tag_1:\n      pop\n      jumpi(tag_2, lt(calldatasize, 0x04))\n      shr(0xe0, calldataload(0x00))\n      dup1\n      0x792b55b6\n      gt\n      tag_25\n      jumpi\n      dup1\n      0x9ca62a69\n      gt\n      tag_26\n      jumpi\n      dup1\n      0x9ca62a69\n      eq\n      tag_19\n      jumpi\n      dup1\n      0xa9f8d181\n      eq\n      tag_20\n      jumpi\n      dup1\n      0xb5962917\n      eq\n      tag_21\n      jumpi\n      dup1\n      0xd06fcba8\n      eq\n      tag_22\n      jumpi\n      dup1\n      0xf25f4b56\n      eq\n      tag_23\n      jumpi\n      dup1\n      0xf2fde38b\n      eq\n      tag_24\n      jumpi\n      jump(tag_2)\n    tag_26:\n      dup1\n      0x792b55b6\n      eq\n      tag_14\n      jumpi\n      dup1\n      0x8ae39cac\n      eq\n      tag_15\n      jumpi\n      dup1\n      0x8da5cb5b\n      eq\n      tag_16\n      jumpi\n      dup1\n      0x8dbb1e3a\n      eq\n      tag_17\n      jumpi\n      dup1\n      0x90d49b9d\n      eq\n      tag_18\n      jumpi\n      jump(tag_2)\n    tag_25:\n      dup1\n      0x1e2720ff\n      gt\n      tag_27\n      jumpi\n      dup1\n      0x1e2720ff\n      eq\n      tag_8\n      jumpi\n      dup1\n      0x294d4e4a\n      eq\n      tag_9\n      jumpi\n      dup1\n      0x43db3c5f\n      eq\n      tag_10\n      jumpi\n      dup1\n      0x567e98f9\n      eq\n      tag_11\n      jumpi\n      dup1\n      0x5e42b455\n      eq\n      tag_12\n      jumpi\n      dup1\n      0x715018a6\n      eq\n      tag_13\n      jumpi\n      jump(tag_2)\n    tag_27:\n      dup1\n      0x0fbf0a93\n      eq\n      tag_3\n      jumpi\n      dup1\n      0x10c77237\n      eq\n      tag_4\n      jumpi\n      dup1\n      0x1959a002\n      eq\n      tag_5\n      jumpi\n      dup1\n      0x19fca9f6\n      eq\n      tag_6\n      jumpi\n      dup1\n      0x1c3e2e7a\n      eq\n      tag_7\n      jumpi\n    tag_2:\n      0x00\n      dup1\n      revert\n        /* \"Ghosper-NFT-Staking-MasterChef.sol\":35068:36420  function stake(uint256[] calldata tokenIds) external {\r... */\n    tag_3:\n      tag_28\n      0x04\n      dup1\n      calldatasize\n      sub\n      dup2\n      add\n      swap1\n      tag_29\n      swap2\n      swap1\n      tag_30\n      jump\t// in\n    tag_29:\n      tag_31\n      jump\t// in\n    tag_28:\n      stop\n        /* \"Ghosper-NFT-Staking-MasterChef.sol\":30652:31956  function setUnStakeFee(uint256 _index, uint256 _minDays, uint256 _feePercent) external onlyOwner {\r... */\n    tag_4:\n      tag_32\n      0x04\n      dup1\n      calldatasize\n      sub\n      dup2\n      add\n      swap1\n      tag_33\n      swap2\n      swap1\n      tag_34\n      jump\t// in\n    tag_33:\n      tag_35\n      jump\t// in\n    tag_32:\n      stop\n        /* \"Ghosper-NFT-Staking-MasterChef.sol\":28828:28873  mapping (address => UserInfo) public userInfo */\n    tag_5:\n      tag_36\n      0x04\n      dup1\n      calldatasize\n      sub\n      dup2\n      add\n      swap1\n      tag_37\n      swap2\n      swap1\n      tag_38\n      jump\t// in\n    tag_37:\n      tag_39\n      jump\t// in\n    tag_36:\n      mload(0x40)\n      tag_40\n      swap5\n      swap4\n      swap3\n      swap2\n      swap1\n      tag_41\n      jump\t// in\n    tag_40:\n      mload(0x40)\n      dup1\n      swap2\n      sub\n      swap1\n      return\n        /* \"Ghosper-NFT-Staking-MasterChef.sol\":28414:28447  IBEP20 public immutable ghspToken */\n    tag_6:\n      tag_42\n      tag_43\n      jump\t// in\n    tag_42:\n      mload(0x40)\n      tag_44\n      swap2\n      swap1\n      tag_45\n      jump\t// in\n    tag_44:\n      mload(0x40)\n      dup1\n      swap2\n      sub\n      swap1\n      return\n        /* \"Ghosper-NFT-Staking-MasterChef.sol\":28336:28367  UnStakeFee[] public unStakeFees */\n    tag_7:\n      tag_46\n      0x04\n      dup1\n      calldatasize\n      sub\n      dup2\n      add\n      swap1\n      tag_47\n      swap2\n      swap1\n      tag_48\n      jump\t// in\n    tag_47:\n      tag_49\n      jump\t// in\n    tag_46:\n      mload(0x40)\n      tag_50\n      swap3\n      swap2\n      swap1\n      tag_51\n      jump\t// in\n    tag_50:\n      mload(0x40)\n      dup1\n      swap2\n      sub\n      swap1\n      return\n        /* \"Ghosper-NFT-Staking-MasterChef.sol\":33931:34176  function depositReward(uint256 _amount) external onlyOwner {\r... */\n    tag_8:\n      tag_52\n      0x04\n      dup1\n      calldatasize\n      sub\n      dup2\n      add\n      swap1\n      tag_53\n      swap2\n      swap1\n      tag_48\n      jump\t// in\n    tag_53:\n      tag_54\n      jump\t// in\n    tag_52:\n      stop\n        /* \"Ghosper-NFT-Staking-MasterChef.sol\":31964:32660  function addUnStakeFee(uint256 _minDays, uint256 _feePercent) external onlyOwner {\r... */\n    tag_9:\n      tag_55\n      0x04\n      dup1\n      calldatasize\n      sub\n      dup2\n      add\n      swap1\n      tag_56\n      swap2\n      swap1\n      tag_57\n      jump\t// in\n    tag_56:\n      tag_58\n      jump\t// in\n    tag_55:\n      stop\n        /* \"Ghosper-NFT-Staking-MasterChef.sol\":28491:28521  uint256 public accGHSPPerShare */\n    tag_10:\n      tag_59\n      tag_60\n      jump\t// in\n    tag_59:\n      mload(0x40)\n      tag_61\n      swap2\n      swap1\n      tag_62\n      jump\t// in\n    tag_61:\n      mload(0x40)\n      dup1\n      swap2\n      sub\n      swap1\n      return\n        /* \"Ghosper-NFT-Staking-MasterChef.sol\":28627:28659  uint256 public totalStakedAmount */\n    tag_11:\n      tag_63\n      tag_64\n      jump\t// in\n    tag_63:\n      mload(0x40)\n      tag_65\n      swap2\n      swap1\n      tag_62\n      jump\t// in\n    tag_65:\n      mload(0x40)\n      dup1\n      swap2\n      sub\n      swap1\n      return\n        /* \"Ghosper-NFT-Staking-MasterChef.sol\":33518:33923  function getRewardBalance() external view returns (uint256) {\r... */\n    tag_12:\n      tag_66\n      tag_67\n      jump\t// in\n    tag_66:\n      mload(0x40)\n      tag_68\n      swap2\n      swap1\n      tag_62\n      jump\t// in\n    tag_68:\n      mload(0x40)\n      dup1\n      swap2\n      sub\n      swap1\n      return\n        /* \"Ghosper-NFT-Staking-MasterChef.sol\":5562:5665  function renounceOwnership() public virtual onlyOwner {\r... */\n    tag_13:\n      tag_69\n      tag_70\n      jump\t// in\n    tag_69:\n      stop\n        /* \"Ghosper-NFT-Staking-MasterChef.sol\":33162:33381  function setHarvestFee(uint256 _feePercent) external onlyOwner {\r... */\n    tag_14:\n      tag_71\n      0x04\n      dup1\n      calldatasize\n      sub\n      dup2\n      add\n      swap1\n      tag_72\n      swap2\n      swap1\n      tag_48\n      jump\t// in\n    tag_72:\n      tag_73\n      jump\t// in\n    tag_71:\n      stop\n        /* \"Ghosper-NFT-Staking-MasterChef.sol\":28528:28557  uint256 public rewardPerBlock */\n    tag_15:\n      tag_74\n      tag_75\n      jump\t// in\n    tag_74:\n      mload(0x40)\n      tag_76\n      swap2\n      swap1\n      tag_62\n      jump\t// in\n    tag_76:\n      mload(0x40)\n      dup1\n      swap2\n      sub\n      swap1\n      return\n        /* \"Ghosper-NFT-Staking-MasterChef.sol\":4911:4998  function owner() public view virtual returns (address) {\r... */\n    tag_16:\n      tag_77\n      tag_78\n      jump\t// in\n    tag_77:\n      mload(0x40)\n      tag_79\n      swap2\n      swap1\n      tag_80\n      jump\t// in\n    tag_79:\n      mload(0x40)\n      dup1\n      swap2\n      sub\n      swap1\n      return\n        /* \"Ghosper-NFT-Staking-MasterChef.sol\":33389:33510  function getMultiplier(uint256 _from, uint256 _to) public pure returns (uint256) {\r... */\n    tag_17:\n      tag_81\n      0x04\n      dup1\n      calldatasize\n      sub\n      dup2\n      add\n      swap1\n      tag_82\n      swap2\n      swap1\n      tag_57\n      jump\t// in\n    tag_82:\n      tag_83\n      jump\t// in\n    tag_81:\n      mload(0x40)\n      tag_84\n      swap2\n      swap1\n      tag_62\n      jump\t// in\n    tag_84:\n      mload(0x40)\n      dup1\n      swap2\n      sub\n      swap1\n      return\n        /* \"Ghosper-NFT-Staking-MasterChef.sol\":30505:30646  function setFeeWallet(address _feeWallet) external onlyOwner {\r... */\n    tag_18:\n      tag_85\n      0x04\n      dup1\n      calldatasize\n      sub\n      dup2\n      add\n      swap1\n      tag_86\n      swap2\n      swap1\n      tag_38\n      jump\t// in\n    tag_86:\n      tag_87\n      jump\t// in\n    tag_85:\n      stop\n        /* \"Ghosper-NFT-Staking-MasterChef.sol\":32668:33154  function removeUnStakeFee(uint256 _index) external onlyOwner {\r... */\n    tag_19:\n      tag_88\n      0x04\n      dup1\n      calldatasize\n      sub\n      dup2\n      add\n      swap1\n      tag_89\n      swap2\n      swap1\n      tag_48\n      jump\t// in\n    tag_89:\n      tag_90\n      jump\t// in\n    tag_88:\n      stop\n        /* \"Ghosper-NFT-Staking-MasterChef.sol\":28454:28484  uint256 public lastRewardBlock */\n    tag_20:\n      tag_91\n      tag_92\n      jump\t// in\n    tag_91:\n      mload(0x40)\n      tag_93\n      swap2\n      swap1\n      tag_62\n      jump\t// in\n    tag_93:\n      mload(0x40)\n      dup1\n      swap2\n      sub\n      swap1\n      return\n        /* \"Ghosper-NFT-Staking-MasterChef.sol\":28595:28620  uint256 public harvestFee */\n    tag_21:\n      tag_94\n      tag_95\n      jump\t// in\n    tag_94:\n      mload(0x40)\n      tag_96\n      swap2\n      swap1\n      tag_62\n      jump\t// in\n    tag_96:\n      mload(0x40)\n      dup1\n      swap2\n      sub\n      swap1\n      return\n        /* \"Ghosper-NFT-Staking-MasterChef.sol\":28374:28407  IERC721 public immutable nftToken */\n    tag_22:\n      tag_97\n      tag_98\n      jump\t// in\n    tag_97:\n      mload(0x40)\n      tag_99\n      swap2\n      swap1\n      tag_100\n      jump\t// in\n    tag_99:\n      mload(0x40)\n      dup1\n      swap2\n      sub\n      swap1\n      return\n        /* \"Ghosper-NFT-Staking-MasterChef.sol\":28564:28588  address public feeWallet */\n    tag_23:\n      tag_101\n      tag_102\n      jump\t// in\n    tag_101:\n      mload(0x40)\n      tag_103\n      swap2\n      swap1\n      tag_80\n      jump\t// in\n    tag_103:\n      mload(0x40)\n      dup1\n      swap2\n      sub\n      swap1\n      return\n        /* \"Ghosper-NFT-Staking-MasterChef.sol\":5820:6021  function transferOwnership(address newOwner) public virtual onlyOwner {\r... */\n    tag_24:\n      tag_104\n      0x04\n      dup1\n      calldatasize\n      sub\n      dup2\n      add\n      swap1\n      tag_105\n      swap2\n      swap1\n      tag_38\n      jump\t// in\n    tag_105:\n      tag_106\n      jump\t// in\n    tag_104:\n      stop\n        /* \"Ghosper-NFT-Staking-MasterChef.sol\":35068:36420  function stake(uint256[] calldata tokenIds) external {\r... */\n    tag_31:\n        /* \"Ghosper-NFT-Staking-MasterChef.sol\":35158:35159  0 */\n      0x00\n        /* \"Ghosper-NFT-Staking-MasterChef.sol\":35140:35148  tokenIds */\n      dup3\n      dup3\n        /* \"Ghosper-NFT-Staking-MasterChef.sol\":35140:35155  tokenIds.length */\n      swap1\n      pop\n        /* \"Ghosper-NFT-Staking-MasterChef.sol\":35140:35159  tokenIds.length > 0 */\n      gt\n        /* \"Ghosper-NFT-Staking-MasterChef.sol\":35132:35188  require(tokenIds.length > 0, \"NFT Staking: Empty Array\") */\n      tag_108\n      jumpi\n      mload(0x40)\n      0x08c379a000000000000000000000000000000000000000000000000000000000\n      dup2\n      mstore\n      0x04\n      add\n      tag_109\n      swap1\n      tag_110\n      jump\t// in\n    tag_109:\n      mload(0x40)\n      dup1\n      swap2\n      sub\n      swap1\n      revert\n    tag_108:\n        /* \"Ghosper-NFT-Staking-MasterChef.sol\":35203:35212  uint256 i */\n      0x00\n        /* \"Ghosper-NFT-Staking-MasterChef.sol\":35199:35580  for(uint256 i = 0; i < tokenIds.length; i ++){\r... */\n    tag_111:\n        /* \"Ghosper-NFT-Staking-MasterChef.sol\":35222:35230  tokenIds */\n      dup3\n      dup3\n        /* \"Ghosper-NFT-Staking-MasterChef.sol\":35222:35237  tokenIds.length */\n      swap1\n      pop\n        /* \"Ghosper-NFT-Staking-MasterChef.sol\":35218:35219  i */\n      dup2\n        /* \"Ghosper-NFT-Staking-MasterChef.sol\":35218:35237  i < tokenIds.length */\n      lt\n        /* \"Ghosper-NFT-Staking-MasterChef.sol\":35199:35580  for(uint256 i = 0; i < tokenIds.length; i ++){\r... */\n      iszero\n      tag_112\n      jumpi\n        /* \"Ghosper-NFT-Staking-MasterChef.sol\":35259:35274  uint256 tokenId */\n      0x00\n        /* \"Ghosper-NFT-Staking-MasterChef.sol\":35277:35285  tokenIds */\n      dup4\n      dup4\n        /* \"Ghosper-NFT-Staking-MasterChef.sol\":35286:35287  i */\n      dup4\n        /* \"Ghosper-NFT-Staking-MasterChef.sol\":35277:35288  tokenIds[i] */\n      dup2\n      dup2\n      lt\n      tag_114\n      jumpi\n      tag_115\n      tag_116\n      jump\t// in\n    tag_115:\n    tag_114:\n      swap1\n      pop\n      0x20\n      mul\n      add\n      calldataload\n        /* \"Ghosper-NFT-Staking-MasterChef.sol\":35259:35288  uint256 tokenId = tokenIds[i] */\n      swap1\n      pop\n        /* \"Ghosper-NFT-Staking-MasterChef.sol\":35341:35342  0 */\n      0x00\n        /* \"Ghosper-NFT-Staking-MasterChef.sol\":35311:35343  allStakes[tokenId] == address(0) */\n      0xffffffffffffffffffffffffffffffffffffffff\n      and\n        /* \"Ghosper-NFT-Staking-MasterChef.sol\":35311:35320  allStakes */\n      0x09\n        /* \"Ghosper-NFT-Staking-MasterChef.sol\":35311:35329  allStakes[tokenId] */\n      0x00\n        /* \"Ghosper-NFT-Staking-MasterChef.sol\":35321:35328  tokenId */\n      dup4\n        /* \"Ghosper-NFT-Staking-MasterChef.sol\":35311:35329  allStakes[tokenId] */\n      dup2\n      mstore\n      0x20\n      add\n      swap1\n      dup2\n      mstore\n      0x20\n      add\n      0x00\n      keccak256\n      0x00\n      swap1\n      sload\n      swap1\n      0x0100\n      exp\n      swap1\n      div\n      0xffffffffffffffffffffffffffffffffffffffff\n      and\n        /* \"Ghosper-NFT-Staking-MasterChef.sol\":35311:35343  allStakes[tokenId] == address(0) */\n      0xffffffffffffffffffffffffffffffffffffffff\n      and\n      eq\n        /* \"Ghosper-NFT-Staking-MasterChef.sol\":35303:35382  require(allStakes[tokenId] == address(0), \"NFT Staking: token already staked.\") */\n      tag_117\n      jumpi\n      mload(0x40)\n      0x08c379a000000000000000000000000000000000000000000000000000000000\n      dup2\n      mstore\n      0x04\n      add\n      tag_118\n      swap1\n      tag_119\n      jump\t// in\n    tag_118:\n      mload(0x40)\n      dup1\n      swap2\n      sub\n      swap1\n      revert\n    tag_117:\n        /* \"Ghosper-NFT-Staking-MasterChef.sol\":35401:35410  uint256 j */\n      0x00\n        /* \"Ghosper-NFT-Staking-MasterChef.sol\":35417:35418  1 */\n      0x01\n        /* \"Ghosper-NFT-Staking-MasterChef.sol\":35413:35414  i */\n      dup4\n        /* \"Ghosper-NFT-Staking-MasterChef.sol\":35413:35418  i + 1 */\n      tag_123\n      swap2\n      swap1\n      tag_124\n      jump\t// in\n    tag_123:\n        /* \"Ghosper-NFT-Staking-MasterChef.sol\":35401:35418  uint256 j = i + 1 */\n      swap1\n      pop\n        /* \"Ghosper-NFT-Staking-MasterChef.sol\":35397:35569  for(uint256 j = i + 1; j < tokenIds.length; j ++){\r... */\n    tag_120:\n        /* \"Ghosper-NFT-Staking-MasterChef.sol\":35424:35432  tokenIds */\n      dup5\n      dup5\n        /* \"Ghosper-NFT-Staking-MasterChef.sol\":35424:35439  tokenIds.length */\n      swap1\n      pop\n        /* \"Ghosper-NFT-Staking-MasterChef.sol\":35420:35421  j */\n      dup2\n        /* \"Ghosper-NFT-Staking-MasterChef.sol\":35420:35439  j < tokenIds.length */\n      lt\n        /* \"Ghosper-NFT-Staking-MasterChef.sol\":35397:35569  for(uint256 j = i + 1; j < tokenIds.length; j ++){\r... */\n      iszero\n      tag_121\n      jumpi\n        /* \"Ghosper-NFT-Staking-MasterChef.sol\":35488:35496  tokenIds */\n      dup5\n      dup5\n        /* \"Ghosper-NFT-Staking-MasterChef.sol\":35497:35498  j */\n      dup3\n        /* \"Ghosper-NFT-Staking-MasterChef.sol\":35488:35499  tokenIds[j] */\n      dup2\n      dup2\n      lt\n      tag_125\n      jumpi\n      tag_126\n      tag_116\n      jump\t// in\n    tag_126:\n    tag_125:\n      swap1\n      pop\n      0x20\n      mul\n      add\n      calldataload\n        /* \"Ghosper-NFT-Staking-MasterChef.sol\":35473:35481  tokenIds */\n      dup6\n      dup6\n        /* \"Ghosper-NFT-Staking-MasterChef.sol\":35482:35483  i */\n      dup6\n        /* \"Ghosper-NFT-Staking-MasterChef.sol\":35473:35484  tokenIds[i] */\n      dup2\n      dup2\n      lt\n      tag_127\n      jumpi\n      tag_128\n      tag_116\n      jump\t// in\n    tag_128:\n    tag_127:\n      swap1\n      pop\n      0x20\n      mul\n      add\n      calldataload\n        /* \"Ghosper-NFT-Staking-MasterChef.sol\":35473:35499  tokenIds[i] != tokenIds[j] */\n      eq\n      iszero\n        /* \"Ghosper-NFT-Staking-MasterChef.sol\":35465:35553  require(tokenIds[i] != tokenIds[j], \"NFT Staking: duplicate token ids in input params.\") */\n      tag_129\n      jumpi\n      mload(0x40)\n      0x08c379a000000000000000000000000000000000000000000000000000000000\n      dup2\n      mstore\n      0x04\n      add\n      tag_130\n      swap1\n      tag_131\n      jump\t// in\n    tag_130:\n      mload(0x40)\n      dup1\n      swap2\n      sub\n      swap1\n      revert\n    tag_129:\n        /* \"Ghosper-NFT-Staking-MasterChef.sol\":35441:35445  j ++ */\n      dup1\n      dup1\n      tag_132\n      swap1\n      tag_133\n      jump\t// in\n    tag_132:\n      swap2\n      pop\n      pop\n        /* \"Ghosper-NFT-Staking-MasterChef.sol\":35397:35569  for(uint256 j = i + 1; j < tokenIds.length; j ++){\r... */\n      jump(tag_120)\n    tag_121:\n      pop\n        /* \"Ghosper-NFT-Staking-MasterChef.sol\":35244:35580  {\r... */\n      pop\n        /* \"Ghosper-NFT-Staking-MasterChef.sol\":35239:35243  i ++ */\n      dup1\n      dup1\n      tag_134\n      swap1\n      tag_133\n      jump\t// in\n    tag_134:\n      swap2\n      pop\n      pop\n        /* \"Ghosper-NFT-Staking-MasterChef.sol\":35199:35580  for(uint256 i = 0; i < tokenIds.length; i ++){\r... */\n      jump(tag_111)\n    tag_112:\n      pop\n        /* \"Ghosper-NFT-Staking-MasterChef.sol\":35590:35604  updateStatus() */\n      tag_135\n        /* \"Ghosper-NFT-Staking-MasterChef.sol\":35590:35602  updateStatus */\n      tag_136\n        /* \"Ghosper-NFT-Staking-MasterChef.sol\":35590:35604  updateStatus() */\n      jump\t// in\n    tag_135:\n        /* \"Ghosper-NFT-Staking-MasterChef.sol\":35615:35636  UserInfo storage user */\n      0x00\n        /* \"Ghosper-NFT-Staking-MasterChef.sol\":35639:35647  userInfo */\n      0x0b\n        /* \"Ghosper-NFT-Staking-MasterChef.sol\":35639:35659  userInfo[msg.sender] */\n      0x00\n        /* \"Ghosper-NFT-Staking-MasterChef.sol\":35648:35658  msg.sender */\n      caller\n        /* \"Ghosper-NFT-Staking-MasterChef.sol\":35639:35659  userInfo[msg.sender] */\n      0xffffffffffffffffffffffffffffffffffffffff\n      and\n      0xffffffffffffffffffffffffffffffffffffffff\n      and\n      dup2\n      mstore\n      0x20\n      add\n      swap1\n      dup2\n      mstore\n      0x20\n      add\n      0x00\n      keccak256\n        /* \"Ghosper-NFT-Staking-MasterChef.sol\":35615:35659  UserInfo storage user = userInfo[msg.sender] */\n      swap1\n      pop\n        /* \"Ghosper-NFT-Staking-MasterChef.sol\":35688:35689  0 */\n      0x00\n        /* \"Ghosper-NFT-Staking-MasterChef.sol\":35674:35678  user */\n      dup2\n        /* \"Ghosper-NFT-Staking-MasterChef.sol\":35674:35685  user.amount */\n      0x00\n      add\n      sload\n        /* \"Ghosper-NFT-Staking-MasterChef.sol\":35674:35689  user.amount > 0 */\n      gt\n        /* \"Ghosper-NFT-Staking-MasterChef.sol\":35670:35866  if (user.amount > 0) {\r... */\n      iszero\n      tag_137\n      jumpi\n        /* \"Ghosper-NFT-Staking-MasterChef.sol\":35706:35721  uint256 pending */\n      0x00\n        /* \"Ghosper-NFT-Staking-MasterChef.sol\":35724:35787  user.amount.mul(accGHSPPerShare).div(1e12).sub(user.rewardDebt) */\n      tag_138\n        /* \"Ghosper-NFT-Staking-MasterChef.sol\":35771:35775  user */\n      dup3\n        /* \"Ghosper-NFT-Staking-MasterChef.sol\":35771:35786  user.rewardDebt */\n      0x01\n      add\n      sload\n        /* \"Ghosper-NFT-Staking-MasterChef.sol\":35724:35766  user.amount.mul(accGHSPPerShare).div(1e12) */\n      tag_139\n        /* \"Ghosper-NFT-Staking-MasterChef.sol\":35761:35765  1e12 */\n      0xe8d4a51000\n        /* \"Ghosper-NFT-Staking-MasterChef.sol\":35724:35756  user.amount.mul(accGHSPPerShare) */\n      tag_140\n        /* \"Ghosper-NFT-Staking-MasterChef.sol\":35740:35755  accGHSPPerShare */\n      sload(0x03)\n        /* \"Ghosper-NFT-Staking-MasterChef.sol\":35724:35728  user */\n      dup8\n        /* \"Ghosper-NFT-Staking-MasterChef.sol\":35724:35735  user.amount */\n      0x00\n      add\n      sload\n        /* \"Ghosper-NFT-Staking-MasterChef.sol\":35724:35739  user.amount.mul */\n      tag_141\n      swap1\n        /* \"Ghosper-NFT-Staking-MasterChef.sol\":35724:35756  user.amount.mul(accGHSPPerShare) */\n      swap2\n      swap1\n      0xffffffff\n      and\n      jump\t// in\n    tag_140:\n        /* \"Ghosper-NFT-Staking-MasterChef.sol\":35724:35760  user.amount.mul(accGHSPPerShare).div */\n      tag_142\n      swap1\n        /* \"Ghosper-NFT-Staking-MasterChef.sol\":35724:35766  user.amount.mul(accGHSPPerShare).div(1e12) */\n      swap2\n      swap1\n      0xffffffff\n      and\n      jump\t// in\n    tag_139:\n        /* \"Ghosper-NFT-Staking-MasterChef.sol\":35724:35770  user.amount.mul(accGHSPPerShare).div(1e12).sub */\n      tag_143\n      swap1\n        /* \"Ghosper-NFT-Staking-MasterChef.sol\":35724:35787  user.amount.mul(accGHSPPerShare).div(1e12).sub(user.rewardDebt) */\n      swap2\n      swap1\n      0xffffffff\n      and\n      jump\t// in\n    tag_138:\n        /* \"Ghosper-NFT-Staking-MasterChef.sol\":35706:35787  uint256 pending = user.amount.mul(accGHSPPerShare).div(1e12).sub(user.rewardDebt) */\n      swap1\n      pop\n        /* \"Ghosper-NFT-Staking-MasterChef.sol\":35823:35854  user.pendingAmount.add(pending) */\n      tag_144\n        /* \"Ghosper-NFT-Staking-MasterChef.sol\":35846:35853  pending */\n      dup2\n        /* \"Ghosper-NFT-Staking-MasterChef.sol\":35823:35827  user */\n      dup4\n        /* \"Ghosper-NFT-Staking-MasterChef.sol\":35823:35841  user.pendingAmount */\n      0x02\n      add\n      sload\n        /* \"Ghosper-NFT-Staking-MasterChef.sol\":35823:35845  user.pendingAmount.add */\n      tag_145\n      swap1\n        /* \"Ghosper-NFT-Staking-MasterChef.sol\":35823:35854  user.pendingAmount.add(pending) */\n      swap2\n      swap1\n      0xffffffff\n      and\n      jump\t// in\n    tag_144:\n        /* \"Ghosper-NFT-Staking-MasterChef.sol\":35802:35806  user */\n      dup3\n        /* \"Ghosper-NFT-Staking-MasterChef.sol\":35802:35820  user.pendingAmount */\n      0x02\n      add\n        /* \"Ghosper-NFT-Staking-MasterChef.sol\":35802:35854  user.pendingAmount = user.pendingAmount.add(pending) */\n      dup2\n      swap1\n      sstore\n      pop\n        /* \"Ghosper-NFT-Staking-MasterChef.sol\":35691:35866  {\r... */\n      pop\n        /* \"Ghosper-NFT-Staking-MasterChef.sol\":35670:35866  if (user.amount > 0) {\r... */\n    tag_137:\n        /* \"Ghosper-NFT-Staking-MasterChef.sol\":35880:35889  uint256 i */\n      0x00\n        /* \"Ghosper-NFT-Staking-MasterChef.sol\":35876:36369  for(uint256 i = 0; i < tokenIds.length; i ++){\r... */\n    tag_146:\n        /* \"Ghosper-NFT-Staking-MasterChef.sol\":35899:35907  tokenIds */\n      dup4\n      dup4\n        /* \"Ghosper-NFT-Staking-MasterChef.sol\":35899:35914  tokenIds.length */\n      swap1\n      pop\n        /* \"Ghosper-NFT-Staking-MasterChef.sol\":35895:35896  i */\n      dup2\n        /* \"Ghosper-NFT-Staking-MasterChef.sol\":35895:35914  i < tokenIds.length */\n      lt\n        /* \"Ghosper-NFT-Staking-MasterChef.sol\":35876:36369  for(uint256 i = 0; i < tokenIds.length; i ++){\r... */\n      iszero\n      tag_147\n      jumpi\n        /* \"Ghosper-NFT-Staking-MasterChef.sol\":35936:35951  uint256 tokenId */\n      0x00\n        /* \"Ghosper-NFT-Staking-MasterChef.sol\":35954:35962  tokenIds */\n      dup5\n      dup5\n        /* \"Ghosper-NFT-Staking-MasterChef.sol\":35963:35964  i */\n      dup4\n        /* \"Ghosper-NFT-Staking-MasterChef.sol\":35954:35965  tokenIds[i] */\n      dup2\n      dup2\n      lt\n      tag_149\n      jumpi\n      tag_150\n      tag_116\n      jump\t// in\n    tag_150:\n    tag_149:\n      swap1\n      pop\n      0x20\n      mul\n      add\n      calldataload\n        /* \"Ghosper-NFT-Staking-MasterChef.sol\":35936:35965  uint256 tokenId = tokenIds[i] */\n      swap1\n      pop\n        /* \"Ghosper-NFT-Staking-MasterChef.sol\":36001:36011  msg.sender */\n      caller\n        /* \"Ghosper-NFT-Staking-MasterChef.sol\":35980:35989  allStakes */\n      0x09\n        /* \"Ghosper-NFT-Staking-MasterChef.sol\":35980:35998  allStakes[tokenId] */\n      0x00\n        /* \"Ghosper-NFT-Staking-MasterChef.sol\":35990:35997  tokenId */\n      dup4\n        /* \"Ghosper-NFT-Staking-MasterChef.sol\":35980:35998  allStakes[tokenId] */\n      dup2\n      mstore\n      0x20\n      add\n      swap1\n      dup2\n      mstore\n      0x20\n      add\n      0x00\n      keccak256\n      0x00\n        /* \"Ghosper-NFT-Staking-MasterChef.sol\":35980:36011  allStakes[tokenId] = msg.sender */\n      0x0100\n      exp\n      dup2\n      sload\n      dup2\n      0xffffffffffffffffffffffffffffffffffffffff\n      mul\n      not\n      and\n      swap1\n      dup4\n      0xffffffffffffffffffffffffffffffffffffffff\n      and\n      mul\n      or\n      swap1\n      sstore\n      pop\n        /* \"Ghosper-NFT-Staking-MasterChef.sol\":36026:36038  stakeIndices */\n      0x0a\n        /* \"Ghosper-NFT-Staking-MasterChef.sol\":36044:36051  tokenId */\n      dup2\n        /* \"Ghosper-NFT-Staking-MasterChef.sol\":36026:36052  stakeIndices.push(tokenId) */\n      swap1\n      dup1\n      0x01\n      dup2\n      sload\n      add\n      dup1\n      dup3\n      sstore\n      dup1\n      swap2\n      pop\n      pop\n      0x01\n      swap1\n      sub\n      swap1\n      0x00\n      mstore\n      keccak256(0x00, 0x20)\n      add\n      0x00\n      swap1\n      swap2\n      swap1\n      swap2\n      swap1\n      swap2\n      pop\n      sstore\n        /* \"Ghosper-NFT-Staking-MasterChef.sol\":36087:36111  totalStakedAmount.add(1) */\n      tag_152\n        /* \"Ghosper-NFT-Staking-MasterChef.sol\":36109:36110  1 */\n      0x01\n        /* \"Ghosper-NFT-Staking-MasterChef.sol\":36087:36104  totalStakedAmount */\n      sload(0x07)\n        /* \"Ghosper-NFT-Staking-MasterChef.sol\":36087:36108  totalStakedAmount.add */\n      tag_145\n      swap1\n        /* \"Ghosper-NFT-Staking-MasterChef.sol\":36087:36111  totalStakedAmount.add(1) */\n      swap2\n      swap1\n      0xffffffff\n      and\n      jump\t// in\n    tag_152:\n        /* \"Ghosper-NFT-Staking-MasterChef.sol\":36067:36084  totalStakedAmount */\n      0x07\n        /* \"Ghosper-NFT-Staking-MasterChef.sol\":36067:36111  totalStakedAmount = totalStakedAmount.add(1) */\n      dup2\n      swap1\n      sstore\n      pop\n        /* \"Ghosper-NFT-Staking-MasterChef.sol\":36140:36158  user.amount.add(1) */\n      tag_153\n        /* \"Ghosper-NFT-Staking-MasterChef.sol\":36156:36157  1 */\n      0x01\n        /* \"Ghosper-NFT-Staking-MasterChef.sol\":36140:36144  user */\n      dup5\n        /* \"Ghosper-NFT-Staking-MasterChef.sol\":36140:36151  user.amount */\n      0x00\n      add\n      sload\n        /* \"Ghosper-NFT-Staking-MasterChef.sol\":36140:36155  user.amount.add */\n      tag_145\n      swap1\n        /* \"Ghosper-NFT-Staking-MasterChef.sol\":36140:36158  user.amount.add(1) */\n      swap2\n      swap1\n      0xffffffff\n      and\n      jump\t// in\n    tag_153:\n        /* \"Ghosper-NFT-Staking-MasterChef.sol\":36126:36130  user */\n      dup4\n        /* \"Ghosper-NFT-Staking-MasterChef.sol\":36126:36137  user.amount */\n      0x00\n      add\n        /* \"Ghosper-NFT-Staking-MasterChef.sol\":36126:36158  user.amount = user.amount.add(1) */\n      dup2\n      swap1\n      sstore\n      pop\n        /* \"Ghosper-NFT-Staking-MasterChef.sol\":36191:36233  user.amount.mul(accGHSPPerShare).div(1e12) */\n      tag_154\n        /* \"Ghosper-NFT-Staking-MasterChef.sol\":36228:36232  1e12 */\n      0xe8d4a51000\n        /* \"Ghosper-NFT-Staking-MasterChef.sol\":36191:36223  user.amount.mul(accGHSPPerShare) */\n      tag_155\n        /* \"Ghosper-NFT-Staking-MasterChef.sol\":36207:36222  accGHSPPerShare */\n      sload(0x03)\n        /* \"Ghosper-NFT-Staking-MasterChef.sol\":36191:36195  user */\n      dup7\n        /* \"Ghosper-NFT-Staking-MasterChef.sol\":36191:36202  user.amount */\n      0x00\n      add\n      sload\n        /* \"Ghosper-NFT-Staking-MasterChef.sol\":36191:36206  user.amount.mul */\n      tag_141\n      swap1\n        /* \"Ghosper-NFT-Staking-MasterChef.sol\":36191:36223  user.amount.mul(accGHSPPerShare) */\n      swap2\n      swap1\n      0xffffffff\n      and\n      jump\t// in\n    tag_155:\n        /* \"Ghosper-NFT-Staking-MasterChef.sol\":36191:36227  user.amount.mul(accGHSPPerShare).div */\n      tag_142\n      swap1\n        /* \"Ghosper-NFT-Staking-MasterChef.sol\":36191:36233  user.amount.mul(accGHSPPerShare).div(1e12) */\n      swap2\n      swap1\n      0xffffffff\n      and\n      jump\t// in\n    tag_154:\n        /* \"Ghosper-NFT-Staking-MasterChef.sol\":36173:36177  user */\n      dup4\n        /* \"Ghosper-NFT-Staking-MasterChef.sol\":36173:36188  user.rewardDebt */\n      0x01\n      add\n        /* \"Ghosper-NFT-Staking-MasterChef.sol\":36173:36233  user.rewardDebt = user.amount.mul(accGHSPPerShare).div(1e12) */\n      dup2\n      swap1\n      sstore\n      pop\n        /* \"Ghosper-NFT-Staking-MasterChef.sol\":36270:36285  block.timestamp */\n      timestamp\n        /* \"Ghosper-NFT-Staking-MasterChef.sol\":36248:36252  user */\n      dup4\n        /* \"Ghosper-NFT-Staking-MasterChef.sol\":36248:36267  user.lastStakedTime */\n      0x03\n      add\n        /* \"Ghosper-NFT-Staking-MasterChef.sol\":36248:36285  user.lastStakedTime = block.timestamp */\n      dup2\n      swap1\n      sstore\n      pop\n        /* \"Ghosper-NFT-Staking-MasterChef.sol\":36300:36308  nftToken */\n      immutable(\"0x29f8d1998cd4186678d0085cd54072aeefd05bc476ef1844361510d857ac074b\")\n        /* \"Ghosper-NFT-Staking-MasterChef.sol\":36300:36321  nftToken.transferFrom */\n      0xffffffffffffffffffffffffffffffffffffffff\n      and\n      0x23b872dd\n        /* \"Ghosper-NFT-Staking-MasterChef.sol\":36322:36332  msg.sender */\n      caller\n        /* \"Ghosper-NFT-Staking-MasterChef.sol\":36342:36346  this */\n      address\n        /* \"Ghosper-NFT-Staking-MasterChef.sol\":36349:36356  tokenId */\n      dup5\n        /* \"Ghosper-NFT-Staking-MasterChef.sol\":36300:36357  nftToken.transferFrom(msg.sender, address(this), tokenId) */\n      mload(0x40)\n      dup5\n      0xffffffff\n      and\n      0xe0\n      shl\n      dup2\n      mstore\n      0x04\n      add\n      tag_156\n      swap4\n      swap3\n      swap2\n      swap1\n      tag_157\n      jump\t// in\n    tag_156:\n      0x00\n      mload(0x40)\n      dup1\n      dup4\n      sub\n      dup2\n      0x00\n      dup8\n      dup1\n      extcodesize\n      iszero\n      dup1\n      iszero\n      tag_158\n      jumpi\n      0x00\n      dup1\n      revert\n    tag_158:\n      pop\n      gas\n      call\n      iszero\n      dup1\n      iszero\n      tag_160\n      jumpi\n      returndatasize\n      0x00\n      dup1\n      returndatacopy\n      revert(0x00, returndatasize)\n    tag_160:\n      pop\n      pop\n      pop\n      pop\n        /* \"Ghosper-NFT-Staking-MasterChef.sol\":35921:36369  {\r... */\n      pop\n        /* \"Ghosper-NFT-Staking-MasterChef.sol\":35916:35920  i ++ */\n      dup1\n      dup1\n      tag_161\n      swap1\n      tag_133\n      jump\t// in\n    tag_161:\n      swap2\n      pop\n      pop\n        /* \"Ghosper-NFT-Staking-MasterChef.sol\":35876:36369  for(uint256 i = 0; i < tokenIds.length; i ++){\r... */\n      jump(tag_146)\n    tag_147:\n      pop\n        /* \"Ghosper-NFT-Staking-MasterChef.sol\":36384:36412  Staked(msg.sender, tokenIds) */\n      0x134b166c6094cc1ccbf1e3353ce5c3cd9fd29869051bdb999895854d77cc5ef6\n        /* \"Ghosper-NFT-Staking-MasterChef.sol\":36391:36401  msg.sender */\n      caller\n        /* \"Ghosper-NFT-Staking-MasterChef.sol\":36403:36411  tokenIds */\n      dup5\n      dup5\n        /* \"Ghosper-NFT-Staking-MasterChef.sol\":36384:36412  Staked(msg.sender, tokenIds) */\n      mload(0x40)\n      tag_162\n      swap4\n      swap3\n      swap2\n      swap1\n      tag_163\n      jump\t// in\n    tag_162:\n      mload(0x40)\n      dup1\n      swap2\n      sub\n      swap1\n      log1\n        /* \"Ghosper-NFT-Staking-MasterChef.sol\":35121:36420  {\r... */\n      pop\n        /* \"Ghosper-NFT-Staking-MasterChef.sol\":35068:36420  function stake(uint256[] calldata tokenIds) external {\r... */\n      pop\n      pop\n      jump\t// out\n        /* \"Ghosper-NFT-Staking-MasterChef.sol\":30652:31956  function setUnStakeFee(uint256 _index, uint256 _minDays, uint256 _feePercent) external onlyOwner {\r... */\n    tag_35:\n        /* \"Ghosper-NFT-Staking-MasterChef.sol\":5142:5154  _msgSender() */\n      tag_165\n        /* \"Ghosper-NFT-Staking-MasterChef.sol\":5142:5152  _msgSender */\n      tag_166\n        /* \"Ghosper-NFT-Staking-MasterChef.sol\":5142:5154  _msgSender() */\n      jump\t// in\n    tag_165:\n        /* \"Ghosper-NFT-Staking-MasterChef.sol\":5131:5154  owner() == _msgSender() */\n      0xffffffffffffffffffffffffffffffffffffffff\n      and\n        /* \"Ghosper-NFT-Staking-MasterChef.sol\":5131:5138  owner() */\n      tag_167\n        /* \"Ghosper-NFT-Staking-MasterChef.sol\":5131:5136  owner */\n      tag_78\n        /* \"Ghosper-NFT-Staking-MasterChef.sol\":5131:5138  owner() */\n      jump\t// in\n    tag_167:\n        /* \"Ghosper-NFT-Staking-MasterChef.sol\":5131:5154  owner() == _msgSender() */\n      0xffffffffffffffffffffffffffffffffffffffff\n      and\n      eq\n        /* \"Ghosper-NFT-Staking-MasterChef.sol\":5123:5191  require(owner() == _msgSender(), \"Ownable: caller is not the owner\") */\n      tag_168\n      jumpi\n      mload(0x40)\n      0x08c379a000000000000000000000000000000000000000000000000000000000\n      dup2\n      mstore\n      0x04\n      add\n      tag_169\n      swap1\n      tag_170\n      jump\t// in\n    tag_169:\n      mload(0x40)\n      dup1\n      swap2\n      sub\n      swap1\n      revert\n    tag_168:\n        /* \"Ghosper-NFT-Staking-MasterChef.sol\":30777:30788  unStakeFees */\n      0x01\n        /* \"Ghosper-NFT-Staking-MasterChef.sol\":30777:30795  unStakeFees.length */\n      dup1\n      sload\n      swap1\n      pop\n        /* \"Ghosper-NFT-Staking-MasterChef.sol\":30768:30774  _index */\n      dup4\n        /* \"Ghosper-NFT-Staking-MasterChef.sol\":30768:30795  _index < unStakeFees.length */\n      lt\n        /* \"Ghosper-NFT-Staking-MasterChef.sol\":30760:30824  require(_index < unStakeFees.length, \"setUnStakeFee: range out\") */\n      tag_172\n      jumpi\n      mload(0x40)\n      0x08c379a000000000000000000000000000000000000000000000000000000000\n      dup2\n      mstore\n      0x04\n      add\n      tag_173\n      swap1\n      tag_174\n      jump\t// in\n    tag_173:\n      mload(0x40)\n      dup1\n      swap2\n      sub\n      swap1\n      revert\n    tag_172:\n        /* \"Ghosper-NFT-Staking-MasterChef.sol\":30854:30855  0 */\n      0x00\n        /* \"Ghosper-NFT-Staking-MasterChef.sol\":30843:30851  _minDays */\n      dup3\n        /* \"Ghosper-NFT-Staking-MasterChef.sol\":30843:30855  _minDays > 0 */\n      gt\n        /* \"Ghosper-NFT-Staking-MasterChef.sol\":30835:30887  require(_minDays > 0, \"setUnStakeFee: minDays is 0\") */\n      tag_175\n      jumpi\n      mload(0x40)\n      0x08c379a000000000000000000000000000000000000000000000000000000000\n      dup2\n      mstore\n      0x04\n      add\n      tag_176\n      swap1\n      tag_177\n      jump\t// in\n    tag_176:\n      mload(0x40)\n      dup1\n      swap2\n      sub\n      swap1\n      revert\n    tag_175:\n        /* \"Ghosper-NFT-Staking-MasterChef.sol\":30921:30923  40 */\n      0x28\n        /* \"Ghosper-NFT-Staking-MasterChef.sol\":30906:30917  _feePercent */\n      dup2\n        /* \"Ghosper-NFT-Staking-MasterChef.sol\":30906:30923  _feePercent <= 40 */\n      gt\n      iszero\n        /* \"Ghosper-NFT-Staking-MasterChef.sol\":30898:30958  require(_feePercent <= 40, \"setUnStakeFee: feePercent > 40\") */\n      tag_178\n      jumpi\n      mload(0x40)\n      0x08c379a000000000000000000000000000000000000000000000000000000000\n      dup2\n      mstore\n      0x04\n      add\n      tag_179\n      swap1\n      tag_180\n      jump\t// in\n    tag_179:\n      mload(0x40)\n      dup1\n      swap2\n      sub\n      swap1\n      revert\n    tag_178:\n        /* \"Ghosper-NFT-Staking-MasterChef.sol\":30983:30984  0 */\n      0x00\n        /* \"Ghosper-NFT-Staking-MasterChef.sol\":30973:30979  _index */\n      dup4\n        /* \"Ghosper-NFT-Staking-MasterChef.sol\":30973:30984  _index == 0 */\n      eq\n        /* \"Ghosper-NFT-Staking-MasterChef.sol\":30969:31785  if (_index == 0) {\r... */\n      iszero\n      tag_181\n      jumpi\n        /* \"Ghosper-NFT-Staking-MasterChef.sol\":31020:31031  unStakeFees */\n      0x01\n        /* \"Ghosper-NFT-Staking-MasterChef.sol\":31032:31033  1 */\n      dup1\n        /* \"Ghosper-NFT-Staking-MasterChef.sol\":31020:31034  unStakeFees[1] */\n      dup2\n      sload\n      dup2\n      lt\n      tag_182\n      jumpi\n      tag_183\n      tag_116\n      jump\t// in\n    tag_183:\n    tag_182:\n      swap1\n      0x00\n      mstore\n      keccak256(0x00, 0x20)\n      swap1\n      0x02\n      mul\n      add\n        /* \"Ghosper-NFT-Staking-MasterChef.sol\":31020:31042  unStakeFees[1].minDays */\n      0x00\n      add\n      sload\n        /* \"Ghosper-NFT-Staking-MasterChef.sol\":31009:31017  _minDays */\n      dup3\n        /* \"Ghosper-NFT-Staking-MasterChef.sol\":31009:31042  _minDays < unStakeFees[1].minDays */\n      lt\n        /* \"Ghosper-NFT-Staking-MasterChef.sol\":31001:31078  require(_minDays < unStakeFees[1].minDays, \"setUnStakeFee: minDays is error\") */\n      tag_185\n      jumpi\n      mload(0x40)\n      0x08c379a000000000000000000000000000000000000000000000000000000000\n      dup2\n      mstore\n      0x04\n      add\n      tag_186\n      swap1\n      tag_187\n      jump\t// in\n    tag_186:\n      mload(0x40)\n      dup1\n      swap2\n      sub\n      swap1\n      revert\n    tag_185:\n        /* \"Ghosper-NFT-Staking-MasterChef.sol\":31115:31126  unStakeFees */\n      0x01\n        /* \"Ghosper-NFT-Staking-MasterChef.sol\":31127:31128  1 */\n      dup1\n        /* \"Ghosper-NFT-Staking-MasterChef.sol\":31115:31129  unStakeFees[1] */\n      dup2\n      sload\n      dup2\n      lt\n      tag_188\n      jumpi\n      tag_189\n      tag_116\n      jump\t// in\n    tag_189:\n    tag_188:\n      swap1\n      0x00\n      mstore\n      keccak256(0x00, 0x20)\n      swap1\n      0x02\n      mul\n      add\n        /* \"Ghosper-NFT-Staking-MasterChef.sol\":31115:31140  unStakeFees[1].feePercent */\n      0x01\n      add\n      sload\n        /* \"Ghosper-NFT-Staking-MasterChef.sol\":31101:31112  _feePercent */\n      dup2\n        /* \"Ghosper-NFT-Staking-MasterChef.sol\":31101:31140  _feePercent > unStakeFees[1].feePercent */\n      gt\n        /* \"Ghosper-NFT-Staking-MasterChef.sol\":31093:31179  require(_feePercent > unStakeFees[1].feePercent, \"setUnStakeFee: feePercent is error\") */\n      tag_191\n      jumpi\n      mload(0x40)\n      0x08c379a000000000000000000000000000000000000000000000000000000000\n      dup2\n      mstore\n      0x04\n      add\n      tag_192\n      swap1\n      tag_193\n      jump\t// in\n    tag_192:\n      mload(0x40)\n      dup1\n      swap2\n      sub\n      swap1\n      revert\n    tag_191:\n        /* \"Ghosper-NFT-Staking-MasterChef.sol\":30969:31785  if (_index == 0) {\r... */\n      jump(tag_194)\n    tag_181:\n        /* \"Ghosper-NFT-Staking-MasterChef.sol\":31232:31233  1 */\n      0x01\n        /* \"Ghosper-NFT-Staking-MasterChef.sol\":31211:31222  unStakeFees */\n      dup1\n        /* \"Ghosper-NFT-Staking-MasterChef.sol\":31211:31229  unStakeFees.length */\n      dup1\n      sload\n      swap1\n      pop\n        /* \"Ghosper-NFT-Staking-MasterChef.sol\":31211:31233  unStakeFees.length - 1 */\n      tag_195\n      swap2\n      swap1\n      tag_196\n      jump\t// in\n    tag_195:\n        /* \"Ghosper-NFT-Staking-MasterChef.sol\":31201:31207  _index */\n      dup4\n        /* \"Ghosper-NFT-Staking-MasterChef.sol\":31201:31233  _index == unStakeFees.length - 1 */\n      eq\n        /* \"Ghosper-NFT-Staking-MasterChef.sol\":31197:31785  if (_index == unStakeFees.length - 1) {\r... */\n      iszero\n      tag_197\n      jumpi\n        /* \"Ghosper-NFT-Staking-MasterChef.sol\":31269:31280  unStakeFees */\n      0x01\n        /* \"Ghosper-NFT-Staking-MasterChef.sol\":31290:31291  1 */\n      dup1\n        /* \"Ghosper-NFT-Staking-MasterChef.sol\":31281:31287  _index */\n      dup5\n        /* \"Ghosper-NFT-Staking-MasterChef.sol\":31281:31291  _index - 1 */\n      tag_198\n      swap2\n      swap1\n      tag_196\n      jump\t// in\n    tag_198:\n        /* \"Ghosper-NFT-Staking-MasterChef.sol\":31269:31292  unStakeFees[_index - 1] */\n      dup2\n      sload\n      dup2\n      lt\n      tag_199\n      jumpi\n      tag_200\n      tag_116\n      jump\t// in\n    tag_200:\n    tag_199:\n      swap1\n      0x00\n      mstore\n      keccak256(0x00, 0x20)\n      swap1\n      0x02\n      mul\n      add\n        /* \"Ghosper-NFT-Staking-MasterChef.sol\":31269:31300  unStakeFees[_index - 1].minDays */\n      0x00\n      add\n      sload\n        /* \"Ghosper-NFT-Staking-MasterChef.sol\":31258:31266  _minDays */\n      dup3\n        /* \"Ghosper-NFT-Staking-MasterChef.sol\":31258:31300  _minDays > unStakeFees[_index - 1].minDays */\n      gt\n        /* \"Ghosper-NFT-Staking-MasterChef.sol\":31250:31336  require(_minDays > unStakeFees[_index - 1].minDays, \"setUnStakeFee: minDays is error\") */\n      tag_202\n      jumpi\n      mload(0x40)\n      0x08c379a000000000000000000000000000000000000000000000000000000000\n      dup2\n      mstore\n      0x04\n      add\n      tag_203\n      swap1\n      tag_187\n      jump\t// in\n    tag_203:\n      mload(0x40)\n      dup1\n      swap2\n      sub\n      swap1\n      revert\n    tag_202:\n        /* \"Ghosper-NFT-Staking-MasterChef.sol\":31373:31384  unStakeFees */\n      0x01\n        /* \"Ghosper-NFT-Staking-MasterChef.sol\":31394:31395  1 */\n      dup1\n        /* \"Ghosper-NFT-Staking-MasterChef.sol\":31385:31391  _index */\n      dup5\n        /* \"Ghosper-NFT-Staking-MasterChef.sol\":31385:31395  _index - 1 */\n      tag_204\n      swap2\n      swap1\n      tag_196\n      jump\t// in\n    tag_204:\n        /* \"Ghosper-NFT-Staking-MasterChef.sol\":31373:31396  unStakeFees[_index - 1] */\n      dup2\n      sload\n      dup2\n      lt\n      tag_205\n      jumpi\n      tag_206\n      tag_116\n      jump\t// in\n    tag_206:\n    tag_205:\n      swap1\n      0x00\n      mstore\n      keccak256(0x00, 0x20)\n      swap1\n      0x02\n      mul\n      add\n        /* \"Ghosper-NFT-Staking-MasterChef.sol\":31373:31407  unStakeFees[_index - 1].feePercent */\n      0x01\n      add\n      sload\n        /* \"Ghosper-NFT-Staking-MasterChef.sol\":31359:31370  _feePercent */\n      dup2\n        /* \"Ghosper-NFT-Staking-MasterChef.sol\":31359:31407  _feePercent < unStakeFees[_index - 1].feePercent */\n      lt\n        /* \"Ghosper-NFT-Staking-MasterChef.sol\":31351:31446  require(_feePercent < unStakeFees[_index - 1].feePercent, \"setUnStakeFee: feePercent is error\") */\n      tag_208\n      jumpi\n      mload(0x40)\n      0x08c379a000000000000000000000000000000000000000000000000000000000\n      dup2\n      mstore\n      0x04\n      add\n      tag_209\n      swap1\n      tag_193\n      jump\t// in\n    tag_209:\n      mload(0x40)\n      dup1\n      swap2\n      sub\n      swap1\n      revert\n    tag_208:\n        /* \"Ghosper-NFT-Staking-MasterChef.sol\":31197:31785  if (_index == unStakeFees.length - 1) {\r... */\n      jump(tag_210)\n    tag_197:\n        /* \"Ghosper-NFT-Staking-MasterChef.sol\":31498:31509  unStakeFees */\n      0x01\n        /* \"Ghosper-NFT-Staking-MasterChef.sol\":31519:31520  1 */\n      dup1\n        /* \"Ghosper-NFT-Staking-MasterChef.sol\":31510:31516  _index */\n      dup5\n        /* \"Ghosper-NFT-Staking-MasterChef.sol\":31510:31520  _index - 1 */\n      tag_211\n      swap2\n      swap1\n      tag_196\n      jump\t// in\n    tag_211:\n        /* \"Ghosper-NFT-Staking-MasterChef.sol\":31498:31521  unStakeFees[_index - 1] */\n      dup2\n      sload\n      dup2\n      lt\n      tag_212\n      jumpi\n      tag_213\n      tag_116\n      jump\t// in\n    tag_213:\n    tag_212:\n      swap1\n      0x00\n      mstore\n      keccak256(0x00, 0x20)\n      swap1\n      0x02\n      mul\n      add\n        /* \"Ghosper-NFT-Staking-MasterChef.sol\":31498:31529  unStakeFees[_index - 1].minDays */\n      0x00\n      add\n      sload\n        /* \"Ghosper-NFT-Staking-MasterChef.sol\":31487:31495  _minDays */\n      dup3\n        /* \"Ghosper-NFT-Staking-MasterChef.sol\":31487:31529  _minDays > unStakeFees[_index - 1].minDays */\n      gt\n        /* \"Ghosper-NFT-Staking-MasterChef.sol\":31487:31575  _minDays > unStakeFees[_index - 1].minDays && _minDays < unStakeFees[_index + 1].minDays */\n      dup1\n      iszero\n      tag_215\n      jumpi\n      pop\n        /* \"Ghosper-NFT-Staking-MasterChef.sol\":31544:31555  unStakeFees */\n      0x01\n        /* \"Ghosper-NFT-Staking-MasterChef.sol\":31565:31566  1 */\n      dup1\n        /* \"Ghosper-NFT-Staking-MasterChef.sol\":31556:31562  _index */\n      dup5\n        /* \"Ghosper-NFT-Staking-MasterChef.sol\":31556:31566  _index + 1 */\n      tag_216\n      swap2\n      swap1\n      tag_124\n      jump\t// in\n    tag_216:\n        /* \"Ghosper-NFT-Staking-MasterChef.sol\":31544:31567  unStakeFees[_index + 1] */\n      dup2\n      sload\n      dup2\n      lt\n      tag_217\n      jumpi\n      tag_218\n      tag_116\n      jump\t// in\n    tag_218:\n    tag_217:\n      swap1\n      0x00\n      mstore\n      keccak256(0x00, 0x20)\n      swap1\n      0x02\n      mul\n      add\n        /* \"Ghosper-NFT-Staking-MasterChef.sol\":31544:31575  unStakeFees[_index + 1].minDays */\n      0x00\n      add\n      sload\n        /* \"Ghosper-NFT-Staking-MasterChef.sol\":31533:31541  _minDays */\n      dup3\n        /* \"Ghosper-NFT-Staking-MasterChef.sol\":31533:31575  _minDays < unStakeFees[_index + 1].minDays */\n      lt\n        /* \"Ghosper-NFT-Staking-MasterChef.sol\":31487:31575  _minDays > unStakeFees[_index - 1].minDays && _minDays < unStakeFees[_index + 1].minDays */\n    tag_215:\n        /* \"Ghosper-NFT-Staking-MasterChef.sol\":31479:31611  require(_minDays > unStakeFees[_index - 1].minDays && _minDays < unStakeFees[_index + 1].minDays, \"setUnStakeFee: minDays is error\") */\n      tag_220\n      jumpi\n      mload(0x40)\n      0x08c379a000000000000000000000000000000000000000000000000000000000\n      dup2\n      mstore\n      0x04\n      add\n      tag_221\n      swap1\n      tag_187\n      jump\t// in\n    tag_221:\n      mload(0x40)\n      dup1\n      swap2\n      sub\n      swap1\n      revert\n    tag_220:\n        /* \"Ghosper-NFT-Staking-MasterChef.sol\":31648:31659  unStakeFees */\n      0x01\n        /* \"Ghosper-NFT-Staking-MasterChef.sol\":31669:31670  1 */\n      dup1\n        /* \"Ghosper-NFT-Staking-MasterChef.sol\":31660:31666  _index */\n      dup5\n        /* \"Ghosper-NFT-Staking-MasterChef.sol\":31660:31670  _index - 1 */\n      tag_222\n      swap2\n      swap1\n      tag_196\n      jump\t// in\n    tag_222:\n        /* \"Ghosper-NFT-Staking-MasterChef.sol\":31648:31671  unStakeFees[_index - 1] */\n      dup2\n      sload\n      dup2\n      lt\n      tag_223\n      jumpi\n      tag_224\n      tag_116\n      jump\t// in\n    tag_224:\n    tag_223:\n      swap1\n      0x00\n      mstore\n      keccak256(0x00, 0x20)\n      swap1\n      0x02\n      mul\n      add\n        /* \"Ghosper-NFT-Staking-MasterChef.sol\":31648:31682  unStakeFees[_index - 1].feePercent */\n      0x01\n      add\n      sload\n        /* \"Ghosper-NFT-Staking-MasterChef.sol\":31634:31645  _feePercent */\n      dup2\n        /* \"Ghosper-NFT-Staking-MasterChef.sol\":31634:31682  _feePercent < unStakeFees[_index - 1].feePercent */\n      lt\n        /* \"Ghosper-NFT-Staking-MasterChef.sol\":31634:31734  _feePercent < unStakeFees[_index - 1].feePercent && _feePercent > unStakeFees[_index + 1].feePercent */\n      dup1\n      iszero\n      tag_226\n      jumpi\n      pop\n        /* \"Ghosper-NFT-Staking-MasterChef.sol\":31700:31711  unStakeFees */\n      0x01\n        /* \"Ghosper-NFT-Staking-MasterChef.sol\":31721:31722  1 */\n      dup1\n        /* \"Ghosper-NFT-Staking-MasterChef.sol\":31712:31718  _index */\n      dup5\n        /* \"Ghosper-NFT-Staking-MasterChef.sol\":31712:31722  _index + 1 */\n      tag_227\n      swap2\n      swap1\n      tag_124\n      jump\t// in\n    tag_227:\n        /* \"Ghosper-NFT-Staking-MasterChef.sol\":31700:31723  unStakeFees[_index + 1] */\n      dup2\n      sload\n      dup2\n      lt\n      tag_228\n      jumpi\n      tag_229\n      tag_116\n      jump\t// in\n    tag_229:\n    tag_228:\n      swap1\n      0x00\n      mstore\n      keccak256(0x00, 0x20)\n      swap1\n      0x02\n      mul\n      add\n        /* \"Ghosper-NFT-Staking-MasterChef.sol\":31700:31734  unStakeFees[_index + 1].feePercent */\n      0x01\n      add\n      sload\n        /* \"Ghosper-NFT-Staking-MasterChef.sol\":31686:31697  _feePercent */\n      dup2\n        /* \"Ghosper-NFT-Staking-MasterChef.sol\":31686:31734  _feePercent > unStakeFees[_index + 1].feePercent */\n      gt\n        /* \"Ghosper-NFT-Staking-MasterChef.sol\":31634:31734  _feePercent < unStakeFees[_index - 1].feePercent && _feePercent > unStakeFees[_index + 1].feePercent */\n    tag_226:\n        /* \"Ghosper-NFT-Staking-MasterChef.sol\":31626:31773  require(_feePercent < unStakeFees[_index - 1].feePercent && _feePercent > unStakeFees[_index + 1].feePercent, \"setUnStakeFee: feePercent is error\") */\n      tag_231\n      jumpi\n      mload(0x40)\n      0x08c379a000000000000000000000000000000000000000000000000000000000\n      dup2\n      mstore\n      0x04\n      add\n      tag_232\n      swap1\n      tag_193\n      jump\t// in\n    tag_232:\n      mload(0x40)\n      dup1\n      swap2\n      sub\n      swap1\n      revert\n    tag_231:\n        /* \"Ghosper-NFT-Staking-MasterChef.sol\":31197:31785  if (_index == unStakeFees.length - 1) {\r... */\n    tag_210:\n        /* \"Ghosper-NFT-Staking-MasterChef.sol\":30969:31785  if (_index == 0) {\r... */\n    tag_194:\n        /* \"Ghosper-NFT-Staking-MasterChef.sol\":31828:31839  _feePercent */\n      dup1\n        /* \"Ghosper-NFT-Staking-MasterChef.sol\":31795:31806  unStakeFees */\n      0x01\n        /* \"Ghosper-NFT-Staking-MasterChef.sol\":31807:31813  _index */\n      dup5\n        /* \"Ghosper-NFT-Staking-MasterChef.sol\":31795:31814  unStakeFees[_index] */\n      dup2\n      sload\n      dup2\n      lt\n      tag_233\n      jumpi\n      tag_234\n      tag_116\n      jump\t// in\n    tag_234:\n    tag_233:\n      swap1\n      0x00\n      mstore\n      keccak256(0x00, 0x20)\n      swap1\n      0x02\n      mul\n      add\n        /* \"Ghosper-NFT-Staking-MasterChef.sol\":31795:31825  unStakeFees[_index].feePercent */\n      0x01\n      add\n        /* \"Ghosper-NFT-Staking-MasterChef.sol\":31795:31839  unStakeFees[_index].feePercent = _feePercent */\n      dup2\n      swap1\n      sstore\n      pop\n        /* \"Ghosper-NFT-Staking-MasterChef.sol\":31880:31888  _minDays */\n      dup2\n        /* \"Ghosper-NFT-Staking-MasterChef.sol\":31850:31861  unStakeFees */\n      0x01\n        /* \"Ghosper-NFT-Staking-MasterChef.sol\":31862:31868  _index */\n      dup5\n        /* \"Ghosper-NFT-Staking-MasterChef.sol\":31850:31869  unStakeFees[_index] */\n      dup2\n      sload\n      dup2\n      lt\n      tag_236\n      jumpi\n      tag_237\n      tag_116\n      jump\t// in\n    tag_237:\n    tag_236:\n      swap1\n      0x00\n      mstore\n      keccak256(0x00, 0x20)\n      swap1\n      0x02\n      mul\n      add\n        /* \"Ghosper-NFT-Staking-MasterChef.sol\":31850:31877  unStakeFees[_index].minDays */\n      0x00\n      add\n        /* \"Ghosper-NFT-Staking-MasterChef.sol\":31850:31888  unStakeFees[_index].minDays = _minDays */\n      dup2\n      swap1\n      sstore\n      pop\n        /* \"Ghosper-NFT-Staking-MasterChef.sol\":31904:31948  SetUnStakeFee(_index, _minDays, _feePercent) */\n      0xc5b7ef59c45162d0f957af811d4ad5f8980e588a729fa3b80ebef5020e4c2725\n        /* \"Ghosper-NFT-Staking-MasterChef.sol\":31918:31924  _index */\n      dup4\n        /* \"Ghosper-NFT-Staking-MasterChef.sol\":31926:31934  _minDays */\n      dup4\n        /* \"Ghosper-NFT-Staking-MasterChef.sol\":31936:31947  _feePercent */\n      dup4\n        /* \"Ghosper-NFT-Staking-MasterChef.sol\":31904:31948  SetUnStakeFee(_index, _minDays, _feePercent) */\n      mload(0x40)\n      tag_239\n      swap4\n      swap3\n      swap2\n      swap1\n      tag_240\n      jump\t// in\n    tag_239:\n      mload(0x40)\n      dup1\n      swap2\n      sub\n      swap1\n      log1\n        /* \"Ghosper-NFT-Staking-MasterChef.sol\":30652:31956  function setUnStakeFee(uint256 _index, uint256 _minDays, uint256 _feePercent) external onlyOwner {\r... */\n      pop\n      pop\n      pop\n      jump\t// out\n        /* \"Ghosper-NFT-Staking-MasterChef.sol\":28828:28873  mapping (address => UserInfo) public userInfo */\n    tag_39:\n      mstore(0x20, 0x0b)\n      dup1\n      0x00\n      mstore\n      keccak256(0x00, 0x40)\n      0x00\n      swap2\n      pop\n      swap1\n      pop\n      dup1\n      0x00\n      add\n      sload\n      swap1\n      dup1\n      0x01\n      add\n      sload\n      swap1\n      dup1\n      0x02\n      add\n      sload\n      swap1\n      dup1\n      0x03\n      add\n      sload\n      swap1\n      pop\n      dup5\n      jump\t// out\n        /* \"Ghosper-NFT-Staking-MasterChef.sol\":28414:28447  IBEP20 public immutable ghspToken */\n    tag_43:\n      immutable(\"0x2b788c69c84726cb61a0641c648d01bc1bc6568bcab92e0e8975f165cd12fe81\")\n      dup2\n      jump\t// out\n        /* \"Ghosper-NFT-Staking-MasterChef.sol\":28336:28367  UnStakeFee[] public unStakeFees */\n    tag_49:\n      0x01\n      dup2\n      dup2\n      sload\n      dup2\n      lt\n      tag_241\n      jumpi\n      0x00\n      dup1\n      revert\n    tag_241:\n      swap1\n      0x00\n      mstore\n      keccak256(0x00, 0x20)\n      swap1\n      0x02\n      mul\n      add\n      0x00\n      swap2\n      pop\n      swap1\n      pop\n      dup1\n      0x00\n      add\n      sload\n      swap1\n      dup1\n      0x01\n      add\n      sload\n      swap1\n      pop\n      dup3\n      jump\t// out\n        /* \"Ghosper-NFT-Staking-MasterChef.sol\":33931:34176  function depositReward(uint256 _amount) external onlyOwner {\r... */\n    tag_54:\n        /* \"Ghosper-NFT-Staking-MasterChef.sol\":5142:5154  _msgSender() */\n      tag_244\n        /* \"Ghosper-NFT-Staking-MasterChef.sol\":5142:5152  _msgSender */\n      tag_166\n        /* \"Ghosper-NFT-Staking-MasterChef.sol\":5142:5154  _msgSender() */\n      jump\t// in\n    tag_244:\n        /* \"Ghosper-NFT-Staking-MasterChef.sol\":5131:5154  owner() == _msgSender() */\n      0xffffffffffffffffffffffffffffffffffffffff\n      and\n        /* \"Ghosper-NFT-Staking-MasterChef.sol\":5131:5138  owner() */\n      tag_245\n        /* \"Ghosper-NFT-Staking-MasterChef.sol\":5131:5136  owner */\n      tag_78\n        /* \"Ghosper-NFT-Staking-MasterChef.sol\":5131:5138  owner() */\n      jump\t// in\n    tag_245:\n        /* \"Ghosper-NFT-Staking-MasterChef.sol\":5131:5154  owner() == _msgSender() */\n      0xffffffffffffffffffffffffffffffffffffffff\n      and\n      eq\n        /* \"Ghosper-NFT-Staking-MasterChef.sol\":5123:5191  require(owner() == _msgSender(), \"Ownable: caller is not the owner\") */\n      tag_246\n      jumpi\n      mload(0x40)\n      0x08c379a000000000000000000000000000000000000000000000000000000000\n      dup2\n      mstore\n      0x04\n      add\n      tag_247\n      swap1\n      tag_170\n      jump\t// in\n    tag_247:\n      mload(0x40)\n      dup1\n      swap2\n      sub\n      swap1\n      revert\n    tag_246:\n        /* \"Ghosper-NFT-Staking-MasterChef.sol\":34001:34063  ghspToken.safeTransferFrom(msg.sender, address(this), _amount) */\n      tag_249\n        /* \"Ghosper-NFT-Staking-MasterChef.sol\":34028:34038  msg.sender */\n      caller\n        /* \"Ghosper-NFT-Staking-MasterChef.sol\":34048:34052  this */\n      address\n        /* \"Ghosper-NFT-Staking-MasterChef.sol\":34055:34062  _amount */\n      dup4\n        /* \"Ghosper-NFT-Staking-MasterChef.sol\":34001:34010  ghspToken */\n      immutable(\"0x2b788c69c84726cb61a0641c648d01bc1bc6568bcab92e0e8975f165cd12fe81\")\n        /* \"Ghosper-NFT-Staking-MasterChef.sol\":34001:34027  ghspToken.safeTransferFrom */\n      0xffffffffffffffffffffffffffffffffffffffff\n      and\n      tag_250\n      swap1\n        /* \"Ghosper-NFT-Staking-MasterChef.sol\":34001:34063  ghspToken.safeTransferFrom(msg.sender, address(this), _amount) */\n      swap4\n      swap3\n      swap2\n      swap1\n      0xffffffff\n      and\n      jump\t// in\n    tag_249:\n        /* \"Ghosper-NFT-Staking-MasterChef.sol\":34093:34103  msg.sender */\n      caller\n        /* \"Ghosper-NFT-Staking-MasterChef.sol\":34079:34113  DepositReward(msg.sender, _amount) */\n      0xffffffffffffffffffffffffffffffffffffffff\n      and\n      0x4f7fd5c9e17300a4800fd572ea53fc291e2ee7470d73346d16b357faee4e7210\n        /* \"Ghosper-NFT-Staking-MasterChef.sol\":34105:34112  _amount */\n      dup3\n        /* \"Ghosper-NFT-Staking-MasterChef.sol\":34079:34113  DepositReward(msg.sender, _amount) */\n      mload(0x40)\n      tag_251\n      swap2\n      swap1\n      tag_62\n      jump\t// in\n    tag_251:\n      mload(0x40)\n      dup1\n      swap2\n      sub\n      swap1\n      log2\n        /* \"Ghosper-NFT-Staking-MasterChef.sol\":34141:34168  _rewardBalance.add(_amount) */\n      tag_252\n        /* \"Ghosper-NFT-Staking-MasterChef.sol\":34160:34167  _amount */\n      dup2\n        /* \"Ghosper-NFT-Staking-MasterChef.sol\":34141:34155  _rewardBalance */\n      sload(0x08)\n        /* \"Ghosper-NFT-Staking-MasterChef.sol\":34141:34159  _rewardBalance.add */\n      tag_145\n      swap1\n        /* \"Ghosper-NFT-Staking-MasterChef.sol\":34141:34168  _rewardBalance.add(_amount) */\n      swap2\n      swap1\n      0xffffffff\n      and\n      jump\t// in\n    tag_252:\n        /* \"Ghosper-NFT-Staking-MasterChef.sol\":34124:34138  _rewardBalance */\n      0x08\n        /* \"Ghosper-NFT-Staking-MasterChef.sol\":34124:34168  _rewardBalance = _rewardBalance.add(_amount) */\n      dup2\n      swap1\n      sstore\n      pop\n        /* \"Ghosper-NFT-Staking-MasterChef.sol\":33931:34176  function depositReward(uint256 _amount) external onlyOwner {\r... */\n      pop\n      jump\t// out\n        /* \"Ghosper-NFT-Staking-MasterChef.sol\":31964:32660  function addUnStakeFee(uint256 _minDays, uint256 _feePercent) external onlyOwner {\r... */\n    tag_58:\n        /* \"Ghosper-NFT-Staking-MasterChef.sol\":5142:5154  _msgSender() */\n      tag_254\n        /* \"Ghosper-NFT-Staking-MasterChef.sol\":5142:5152  _msgSender */\n      tag_166\n        /* \"Ghosper-NFT-Staking-MasterChef.sol\":5142:5154  _msgSender() */\n      jump\t// in\n    tag_254:\n        /* \"Ghosper-NFT-Staking-MasterChef.sol\":5131:5154  owner() == _msgSender() */\n      0xffffffffffffffffffffffffffffffffffffffff\n      and\n        /* \"Ghosper-NFT-Staking-MasterChef.sol\":5131:5138  owner() */\n      tag_255\n        /* \"Ghosper-NFT-Staking-MasterChef.sol\":5131:5136  owner */\n      tag_78\n        /* \"Ghosper-NFT-Staking-MasterChef.sol\":5131:5138  owner() */\n      jump\t// in\n    tag_255:\n        /* \"Ghosper-NFT-Staking-MasterChef.sol\":5131:5154  owner() == _msgSender() */\n      0xffffffffffffffffffffffffffffffffffffffff\n      and\n      eq\n        /* \"Ghosper-NFT-Staking-MasterChef.sol\":5123:5191  require(owner() == _msgSender(), \"Ownable: caller is not the owner\") */\n      tag_256\n      jumpi\n      mload(0x40)\n      0x08c379a000000000000000000000000000000000000000000000000000000000\n      dup2\n      mstore\n      0x04\n      add\n      tag_257\n      swap1\n      tag_170\n      jump\t// in\n    tag_257:\n      mload(0x40)\n      dup1\n      swap2\n      sub\n      swap1\n      revert\n    tag_256:\n        /* \"Ghosper-NFT-Staking-MasterChef.sol\":32075:32076  0 */\n      0x00\n        /* \"Ghosper-NFT-Staking-MasterChef.sol\":32064:32072  _minDays */\n      dup3\n        /* \"Ghosper-NFT-Staking-MasterChef.sol\":32064:32076  _minDays > 0 */\n      gt\n        /* \"Ghosper-NFT-Staking-MasterChef.sol\":32056:32108  require(_minDays > 0, \"addUnStakeFee: minDays is 0\") */\n      tag_259\n      jumpi\n      mload(0x40)\n      0x08c379a000000000000000000000000000000000000000000000000000000000\n      dup2\n      mstore\n      0x04\n      add\n      tag_260\n      swap1\n      tag_261\n      jump\t// in\n    tag_260:\n      mload(0x40)\n      dup1\n      swap2\n      sub\n      swap1\n      revert\n    tag_259:\n        /* \"Ghosper-NFT-Staking-MasterChef.sol\":32142:32144  40 */\n      0x28\n        /* \"Ghosper-NFT-Staking-MasterChef.sol\":32127:32138  _feePercent */\n      dup2\n        /* \"Ghosper-NFT-Staking-MasterChef.sol\":32127:32144  _feePercent <= 40 */\n      gt\n      iszero\n        /* \"Ghosper-NFT-Staking-MasterChef.sol\":32119:32179  require(_feePercent <= 40, \"addUnStakeFee: feePercent > 40\") */\n      tag_262\n      jumpi\n      mload(0x40)\n      0x08c379a000000000000000000000000000000000000000000000000000000000\n      dup2\n      mstore\n      0x04\n      add\n      tag_263\n      swap1\n      tag_264\n      jump\t// in\n    tag_263:\n      mload(0x40)\n      dup1\n      swap2\n      sub\n      swap1\n      revert\n    tag_262:\n        /* \"Ghosper-NFT-Staking-MasterChef.sol\":32209:32220  unStakeFees */\n      0x01\n        /* \"Ghosper-NFT-Staking-MasterChef.sol\":32242:32243  1 */\n      dup1\n        /* \"Ghosper-NFT-Staking-MasterChef.sol\":32221:32232  unStakeFees */\n      dup1\n        /* \"Ghosper-NFT-Staking-MasterChef.sol\":32221:32239  unStakeFees.length */\n      dup1\n      sload\n      swap1\n      pop\n        /* \"Ghosper-NFT-Staking-MasterChef.sol\":32221:32243  unStakeFees.length - 1 */\n      tag_265\n      swap2\n      swap1\n      tag_196\n      jump\t// in\n    tag_265:\n        /* \"Ghosper-NFT-Staking-MasterChef.sol\":32209:32244  unStakeFees[unStakeFees.length - 1] */\n      dup2\n      sload\n      dup2\n      lt\n      tag_266\n      jumpi\n      tag_267\n      tag_116\n      jump\t// in\n    tag_267:\n    tag_266:\n      swap1\n      0x00\n      mstore\n      keccak256(0x00, 0x20)\n      swap1\n      0x02\n      mul\n      add\n        /* \"Ghosper-NFT-Staking-MasterChef.sol\":32209:32252  unStakeFees[unStakeFees.length - 1].minDays */\n      0x00\n      add\n      sload\n        /* \"Ghosper-NFT-Staking-MasterChef.sol\":32198:32206  _minDays */\n      dup3\n        /* \"Ghosper-NFT-Staking-MasterChef.sol\":32198:32252  _minDays > unStakeFees[unStakeFees.length - 1].minDays */\n      gt\n        /* \"Ghosper-NFT-Staking-MasterChef.sol\":32190:32288  require(_minDays > unStakeFees[unStakeFees.length - 1].minDays, \"addUnStakeFee: minDays is error\") */\n      tag_269\n      jumpi\n      mload(0x40)\n      0x08c379a000000000000000000000000000000000000000000000000000000000\n      dup2\n      mstore\n      0x04\n      add\n      tag_270\n      swap1\n      tag_271\n      jump\t// in\n    tag_270:\n      mload(0x40)\n      dup1\n      swap2\n      sub\n      swap1\n      revert\n    tag_269:\n        /* \"Ghosper-NFT-Staking-MasterChef.sol\":32321:32332  unStakeFees */\n      0x01\n        /* \"Ghosper-NFT-Staking-MasterChef.sol\":32354:32355  1 */\n      dup1\n        /* \"Ghosper-NFT-Staking-MasterChef.sol\":32333:32344  unStakeFees */\n      dup1\n        /* \"Ghosper-NFT-Staking-MasterChef.sol\":32333:32351  unStakeFees.length */\n      dup1\n      sload\n      swap1\n      pop\n        /* \"Ghosper-NFT-Staking-MasterChef.sol\":32333:32355  unStakeFees.length - 1 */\n      tag_272\n      swap2\n      swap1\n      tag_196\n      jump\t// in\n    tag_272:\n        /* \"Ghosper-NFT-Staking-MasterChef.sol\":32321:32356  unStakeFees[unStakeFees.length - 1] */\n      dup2\n      sload\n      dup2\n      lt\n      tag_273\n      jumpi\n      tag_274\n      tag_116\n      jump\t// in\n    tag_274:\n    tag_273:\n      swap1\n      0x00\n      mstore\n      keccak256(0x00, 0x20)\n      swap1\n      0x02\n      mul\n      add\n        /* \"Ghosper-NFT-Staking-MasterChef.sol\":32321:32367  unStakeFees[unStakeFees.length - 1].feePercent */\n      0x01\n      add\n      sload\n        /* \"Ghosper-NFT-Staking-MasterChef.sol\":32307:32318  _feePercent */\n      dup2\n        /* \"Ghosper-NFT-Staking-MasterChef.sol\":32307:32367  _feePercent < unStakeFees[unStakeFees.length - 1].feePercent */\n      lt\n        /* \"Ghosper-NFT-Staking-MasterChef.sol\":32299:32406  require(_feePercent < unStakeFees[unStakeFees.length - 1].feePercent, \"addUnStakeFee: feePercent is error\") */\n      tag_276\n      jumpi\n      mload(0x40)\n      0x08c379a000000000000000000000000000000000000000000000000000000000\n      dup2\n      mstore\n      0x04\n      add\n      tag_277\n      swap1\n      tag_278\n      jump\t// in\n    tag_277:\n      mload(0x40)\n      dup1\n      swap2\n      sub\n      swap1\n      revert\n    tag_276:\n        /* \"Ghosper-NFT-Staking-MasterChef.sol\":32417:32445  UnStakeFee memory unStakeFee */\n      0x00\n        /* \"Ghosper-NFT-Staking-MasterChef.sol\":32448:32541  UnStakeFee({\r... */\n      mload(0x40)\n      dup1\n      0x40\n      add\n      0x40\n      mstore\n      dup1\n        /* \"Ghosper-NFT-Staking-MasterChef.sol\":32483:32491  _minDays */\n      dup5\n        /* \"Ghosper-NFT-Staking-MasterChef.sol\":32448:32541  UnStakeFee({\r... */\n      dup2\n      mstore\n      0x20\n      add\n        /* \"Ghosper-NFT-Staking-MasterChef.sol\":32518:32529  _feePercent */\n      dup4\n        /* \"Ghosper-NFT-Staking-MasterChef.sol\":32448:32541  UnStakeFee({\r... */\n      dup2\n      mstore\n      pop\n        /* \"Ghosper-NFT-Staking-MasterChef.sol\":32417:32541  UnStakeFee memory unStakeFee = UnStakeFee({\r... */\n      swap1\n      pop\n        /* \"Ghosper-NFT-Staking-MasterChef.sol\":32552:32563  unStakeFees */\n      0x01\n        /* \"Ghosper-NFT-Staking-MasterChef.sol\":32569:32579  unStakeFee */\n      dup2\n        /* \"Ghosper-NFT-Staking-MasterChef.sol\":32552:32580  unStakeFees.push(unStakeFee) */\n      swap1\n      dup1\n      0x01\n      dup2\n      sload\n      add\n      dup1\n      dup3\n      sstore\n      dup1\n      swap2\n      pop\n      pop\n      0x01\n      swap1\n      sub\n      swap1\n      0x00\n      mstore\n      keccak256(0x00, 0x20)\n      swap1\n      0x02\n      mul\n      add\n      0x00\n      swap1\n      swap2\n      swap1\n      swap2\n      swap1\n      swap2\n      pop\n      0x00\n      dup3\n      add\n      mload\n      dup2\n      0x00\n      add\n      sstore\n      0x20\n      dup3\n      add\n      mload\n      dup2\n      0x01\n      add\n      sstore\n      pop\n      pop\n        /* \"Ghosper-NFT-Staking-MasterChef.sol\":32596:32652  AddUnStakeFee(unStakeFees.length, _minDays, _feePercent) */\n      0x657ca150be22533e612098a9cdc78b9252aa1c21d424fb5011c5ceccc0447b50\n        /* \"Ghosper-NFT-Staking-MasterChef.sol\":32610:32621  unStakeFees */\n      0x01\n        /* \"Ghosper-NFT-Staking-MasterChef.sol\":32610:32628  unStakeFees.length */\n      dup1\n      sload\n      swap1\n      pop\n        /* \"Ghosper-NFT-Staking-MasterChef.sol\":32630:32638  _minDays */\n      dup5\n        /* \"Ghosper-NFT-Staking-MasterChef.sol\":32640:32651  _feePercent */\n      dup5\n        /* \"Ghosper-NFT-Staking-MasterChef.sol\":32596:32652  AddUnStakeFee(unStakeFees.length, _minDays, _feePercent) */\n      mload(0x40)\n      tag_280\n      swap4\n      swap3\n      swap2\n      swap1\n      tag_240\n      jump\t// in\n    tag_280:\n      mload(0x40)\n      dup1\n      swap2\n      sub\n      swap1\n      log1\n        /* \"Ghosper-NFT-Staking-MasterChef.sol\":32045:32660  {\r... */\n      pop\n        /* \"Ghosper-NFT-Staking-MasterChef.sol\":31964:32660  function addUnStakeFee(uint256 _minDays, uint256 _feePercent) external onlyOwner {\r... */\n      pop\n      pop\n      jump\t// out\n        /* \"Ghosper-NFT-Staking-MasterChef.sol\":28491:28521  uint256 public accGHSPPerShare */\n    tag_60:\n      sload(0x03)\n      dup2\n      jump\t// out\n        /* \"Ghosper-NFT-Staking-MasterChef.sol\":28627:28659  uint256 public totalStakedAmount */\n    tag_64:\n      sload(0x07)\n      dup2\n      jump\t// out\n        /* \"Ghosper-NFT-Staking-MasterChef.sol\":33518:33923  function getRewardBalance() external view returns (uint256) {\r... */\n    tag_67:\n        /* \"Ghosper-NFT-Staking-MasterChef.sol\":33569:33576  uint256 */\n      0x00\n        /* \"Ghosper-NFT-Staking-MasterChef.sol\":33608:33623  lastRewardBlock */\n      sload(0x02)\n        /* \"Ghosper-NFT-Staking-MasterChef.sol\":33593:33605  block.number */\n      number\n        /* \"Ghosper-NFT-Staking-MasterChef.sol\":33593:33623  block.number > lastRewardBlock */\n      gt\n        /* \"Ghosper-NFT-Staking-MasterChef.sol\":33593:33649  block.number > lastRewardBlock && totalStakedAmount != 0 */\n      dup1\n      iszero\n      tag_282\n      jumpi\n      pop\n        /* \"Ghosper-NFT-Staking-MasterChef.sol\":33648:33649  0 */\n      0x00\n        /* \"Ghosper-NFT-Staking-MasterChef.sol\":33627:33644  totalStakedAmount */\n      sload(0x07)\n        /* \"Ghosper-NFT-Staking-MasterChef.sol\":33627:33649  totalStakedAmount != 0 */\n      eq\n      iszero\n        /* \"Ghosper-NFT-Staking-MasterChef.sol\":33593:33649  block.number > lastRewardBlock && totalStakedAmount != 0 */\n    tag_282:\n        /* \"Ghosper-NFT-Staking-MasterChef.sol\":33589:33916  if (block.number > lastRewardBlock && totalStakedAmount != 0) {\r... */\n      iszero\n      tag_283\n      jumpi\n        /* \"Ghosper-NFT-Staking-MasterChef.sol\":33666:33684  uint256 multiplier */\n      0x00\n        /* \"Ghosper-NFT-Staking-MasterChef.sol\":33687:33731  getMultiplier(lastRewardBlock, block.number) */\n      tag_284\n        /* \"Ghosper-NFT-Staking-MasterChef.sol\":33701:33716  lastRewardBlock */\n      sload(0x02)\n        /* \"Ghosper-NFT-Staking-MasterChef.sol\":33718:33730  block.number */\n      number\n        /* \"Ghosper-NFT-Staking-MasterChef.sol\":33687:33700  getMultiplier */\n      tag_83\n        /* \"Ghosper-NFT-Staking-MasterChef.sol\":33687:33731  getMultiplier(lastRewardBlock, block.number) */\n      jump\t// in\n    tag_284:\n        /* \"Ghosper-NFT-Staking-MasterChef.sol\":33666:33731  uint256 multiplier = getMultiplier(lastRewardBlock, block.number) */\n      swap1\n      pop\n        /* \"Ghosper-NFT-Staking-MasterChef.sol\":33746:33760  uint256 reward */\n      0x00\n        /* \"Ghosper-NFT-Staking-MasterChef.sol\":33763:33793  multiplier.mul(rewardPerBlock) */\n      tag_285\n        /* \"Ghosper-NFT-Staking-MasterChef.sol\":33778:33792  rewardPerBlock */\n      sload(0x04)\n        /* \"Ghosper-NFT-Staking-MasterChef.sol\":33763:33773  multiplier */\n      dup4\n        /* \"Ghosper-NFT-Staking-MasterChef.sol\":33763:33777  multiplier.mul */\n      tag_141\n      swap1\n        /* \"Ghosper-NFT-Staking-MasterChef.sol\":33763:33793  multiplier.mul(rewardPerBlock) */\n      swap2\n      swap1\n      0xffffffff\n      and\n      jump\t// in\n    tag_285:\n        /* \"Ghosper-NFT-Staking-MasterChef.sol\":33746:33793  uint256 reward = multiplier.mul(rewardPerBlock) */\n      swap1\n      pop\n        /* \"Ghosper-NFT-Staking-MasterChef.sol\":33815:33841  _rewardBalance.sub(reward) */\n      tag_286\n        /* \"Ghosper-NFT-Staking-MasterChef.sol\":33834:33840  reward */\n      dup2\n        /* \"Ghosper-NFT-Staking-MasterChef.sol\":33815:33829  _rewardBalance */\n      sload(0x08)\n        /* \"Ghosper-NFT-Staking-MasterChef.sol\":33815:33833  _rewardBalance.sub */\n      tag_143\n      swap1\n        /* \"Ghosper-NFT-Staking-MasterChef.sol\":33815:33841  _rewardBalance.sub(reward) */\n      swap2\n      swap1\n      0xffffffff\n      and\n      jump\t// in\n    tag_286:\n        /* \"Ghosper-NFT-Staking-MasterChef.sol\":33808:33841  return _rewardBalance.sub(reward) */\n      swap3\n      pop\n      pop\n      pop\n      jump(tag_281)\n        /* \"Ghosper-NFT-Staking-MasterChef.sol\":33589:33916  if (block.number > lastRewardBlock && totalStakedAmount != 0) {\r... */\n    tag_283:\n        /* \"Ghosper-NFT-Staking-MasterChef.sol\":33890:33904  _rewardBalance */\n      sload(0x08)\n        /* \"Ghosper-NFT-Staking-MasterChef.sol\":33883:33904  return _rewardBalance */\n      swap1\n      pop\n        /* \"Ghosper-NFT-Staking-MasterChef.sol\":33518:33923  function getRewardBalance() external view returns (uint256) {\r... */\n    tag_281:\n      swap1\n      jump\t// out\n        /* \"Ghosper-NFT-Staking-MasterChef.sol\":5562:5665  function renounceOwnership() public virtual onlyOwner {\r... */\n    tag_70:\n        /* \"Ghosper-NFT-Staking-MasterChef.sol\":5142:5154  _msgSender() */\n      tag_289\n        /* \"Ghosper-NFT-Staking-MasterChef.sol\":5142:5152  _msgSender */\n      tag_166\n        /* \"Ghosper-NFT-Staking-MasterChef.sol\":5142:5154  _msgSender() */\n      jump\t// in\n    tag_289:\n        /* \"Ghosper-NFT-Staking-MasterChef.sol\":5131:5154  owner() == _msgSender() */\n      0xffffffffffffffffffffffffffffffffffffffff\n      and\n        /* \"Ghosper-NFT-Staking-MasterChef.sol\":5131:5138  owner() */\n      tag_290\n        /* \"Ghosper-NFT-Staking-MasterChef.sol\":5131:5136  owner */\n      tag_78\n        /* \"Ghosper-NFT-Staking-MasterChef.sol\":5131:5138  owner() */\n      jump\t// in\n    tag_290:\n        /* \"Ghosper-NFT-Staking-MasterChef.sol\":5131:5154  owner() == _msgSender() */\n      0xffffffffffffffffffffffffffffffffffffffff\n      and\n      eq\n        /* \"Ghosper-NFT-Staking-MasterChef.sol\":5123:5191  require(owner() == _msgSender(), \"Ownable: caller is not the owner\") */\n      tag_291\n      jumpi\n      mload(0x40)\n      0x08c379a000000000000000000000000000000000000000000000000000000000\n      dup2\n      mstore\n      0x04\n      add\n      tag_292\n      swap1\n      tag_170\n      jump\t// in\n    tag_292:\n      mload(0x40)\n      dup1\n      swap2\n      sub\n      swap1\n      revert\n    tag_291:\n        /* \"Ghosper-NFT-Staking-MasterChef.sol\":5627:5657  _transferOwnership(address(0)) */\n      tag_294\n        /* \"Ghosper-NFT-Staking-MasterChef.sol\":5654:5655  0 */\n      0x00\n        /* \"Ghosper-NFT-Staking-MasterChef.sol\":5627:5645  _transferOwnership */\n      tag_295\n        /* \"Ghosper-NFT-Staking-MasterChef.sol\":5627:5657  _transferOwnership(address(0)) */\n      jump\t// in\n    tag_294:\n        /* \"Ghosper-NFT-Staking-MasterChef.sol\":5562:5665  function renounceOwnership() public virtual onlyOwner {\r... */\n      jump\t// out\n        /* \"Ghosper-NFT-Staking-MasterChef.sol\":33162:33381  function setHarvestFee(uint256 _feePercent) external onlyOwner {\r... */\n    tag_73:\n        /* \"Ghosper-NFT-Staking-MasterChef.sol\":5142:5154  _msgSender() */\n      tag_297\n        /* \"Ghosper-NFT-Staking-MasterChef.sol\":5142:5152  _msgSender */\n      tag_166\n        /* \"Ghosper-NFT-Staking-MasterChef.sol\":5142:5154  _msgSender() */\n      jump\t// in\n    tag_297:\n        /* \"Ghosper-NFT-Staking-MasterChef.sol\":5131:5154  owner() == _msgSender() */\n      0xffffffffffffffffffffffffffffffffffffffff\n      and\n        /* \"Ghosper-NFT-Staking-MasterChef.sol\":5131:5138  owner() */\n      tag_298\n        /* \"Ghosper-NFT-Staking-MasterChef.sol\":5131:5136  owner */\n      tag_78\n        /* \"Ghosper-NFT-Staking-MasterChef.sol\":5131:5138  owner() */\n      jump\t// in\n    tag_298:\n        /* \"Ghosper-NFT-Staking-MasterChef.sol\":5131:5154  owner() == _msgSender() */\n      0xffffffffffffffffffffffffffffffffffffffff\n      and\n      eq\n        /* \"Ghosper-NFT-Staking-MasterChef.sol\":5123:5191  require(owner() == _msgSender(), \"Ownable: caller is not the owner\") */\n      tag_299\n      jumpi\n      mload(0x40)\n      0x08c379a000000000000000000000000000000000000000000000000000000000\n      dup2\n      mstore\n      0x04\n      add\n      tag_300\n      swap1\n      tag_170\n      jump\t// in\n    tag_300:\n      mload(0x40)\n      dup1\n      swap2\n      sub\n      swap1\n      revert\n    tag_299:\n        /* \"Ghosper-NFT-Staking-MasterChef.sol\":33259:33261  40 */\n      0x28\n        /* \"Ghosper-NFT-Staking-MasterChef.sol\":33244:33255  _feePercent */\n      dup2\n        /* \"Ghosper-NFT-Staking-MasterChef.sol\":33244:33261  _feePercent <= 40 */\n      gt\n      iszero\n        /* \"Ghosper-NFT-Staking-MasterChef.sol\":33236:33296  require(_feePercent <= 40, \"setHarvestFee: feePercent > 40\") */\n      tag_302\n      jumpi\n      mload(0x40)\n      0x08c379a000000000000000000000000000000000000000000000000000000000\n      dup2\n      mstore\n      0x04\n      add\n      tag_303\n      swap1\n      tag_304\n      jump\t// in\n    tag_303:\n      mload(0x40)\n      dup1\n      swap2\n      sub\n      swap1\n      revert\n    tag_302:\n        /* \"Ghosper-NFT-Staking-MasterChef.sol\":33320:33331  _feePercent */\n      dup1\n        /* \"Ghosper-NFT-Staking-MasterChef.sol\":33307:33317  harvestFee */\n      0x06\n        /* \"Ghosper-NFT-Staking-MasterChef.sol\":33307:33331  harvestFee = _feePercent */\n      dup2\n      swap1\n      sstore\n      pop\n        /* \"Ghosper-NFT-Staking-MasterChef.sol\":33347:33373  SetHarvestFee(_feePercent) */\n      0xf419800a2d8930c61d5d9cd782aa72c512cf6be2f79da6db0b8855870b7269ed\n        /* \"Ghosper-NFT-Staking-MasterChef.sol\":33361:33372  _feePercent */\n      dup2\n        /* \"Ghosper-NFT-Staking-MasterChef.sol\":33347:33373  SetHarvestFee(_feePercent) */\n      mload(0x40)\n      tag_305\n      swap2\n      swap1\n      tag_62\n      jump\t// in\n    tag_305:\n      mload(0x40)\n      dup1\n      swap2\n      sub\n      swap1\n      log1\n        /* \"Ghosper-NFT-Staking-MasterChef.sol\":33162:33381  function setHarvestFee(uint256 _feePercent) external onlyOwner {\r... */\n      pop\n      jump\t// out\n        /* \"Ghosper-NFT-Staking-MasterChef.sol\":28528:28557  uint256 public rewardPerBlock */\n    tag_75:\n      sload(0x04)\n      dup2\n      jump\t// out\n        /* \"Ghosper-NFT-Staking-MasterChef.sol\":4911:4998  function owner() public view virtual returns (address) {\r... */\n    tag_78:\n        /* \"Ghosper-NFT-Staking-MasterChef.sol\":4957:4964  address */\n      0x00\n        /* \"Ghosper-NFT-Staking-MasterChef.sol\":4984:4990  _owner */\n      dup1\n      0x00\n      swap1\n      sload\n      swap1\n      0x0100\n      exp\n      swap1\n      div\n      0xffffffffffffffffffffffffffffffffffffffff\n      and\n        /* \"Ghosper-NFT-Staking-MasterChef.sol\":4977:4990  return _owner */\n      swap1\n      pop\n        /* \"Ghosper-NFT-Staking-MasterChef.sol\":4911:4998  function owner() public view virtual returns (address) {\r... */\n      swap1\n      jump\t// out\n        /* \"Ghosper-NFT-Staking-MasterChef.sol\":33389:33510  function getMultiplier(uint256 _from, uint256 _to) public pure returns (uint256) {\r... */\n    tag_83:\n        /* \"Ghosper-NFT-Staking-MasterChef.sol\":33461:33468  uint256 */\n      0x00\n        /* \"Ghosper-NFT-Staking-MasterChef.sol\":33488:33502  _to.sub(_from) */\n      tag_308\n        /* \"Ghosper-NFT-Staking-MasterChef.sol\":33496:33501  _from */\n      dup4\n        /* \"Ghosper-NFT-Staking-MasterChef.sol\":33488:33491  _to */\n      dup4\n        /* \"Ghosper-NFT-Staking-MasterChef.sol\":33488:33495  _to.sub */\n      tag_143\n      swap1\n        /* \"Ghosper-NFT-Staking-MasterChef.sol\":33488:33502  _to.sub(_from) */\n      swap2\n      swap1\n      0xffffffff\n      and\n      jump\t// in\n    tag_308:\n        /* \"Ghosper-NFT-Staking-MasterChef.sol\":33481:33502  return _to.sub(_from) */\n      swap1\n      pop\n        /* \"Ghosper-NFT-Staking-MasterChef.sol\":33389:33510  function getMultiplier(uint256 _from, uint256 _to) public pure returns (uint256) {\r... */\n      swap3\n      swap2\n      pop\n      pop\n      jump\t// out\n        /* \"Ghosper-NFT-Staking-MasterChef.sol\":30505:30646  function setFeeWallet(address _feeWallet) external onlyOwner {\r... */\n    tag_87:\n        /* \"Ghosper-NFT-Staking-MasterChef.sol\":5142:5154  _msgSender() */\n      tag_310\n        /* \"Ghosper-NFT-Staking-MasterChef.sol\":5142:5152  _msgSender */\n      tag_166\n        /* \"Ghosper-NFT-Staking-MasterChef.sol\":5142:5154  _msgSender() */\n      jump\t// in\n    tag_310:\n        /* \"Ghosper-NFT-Staking-MasterChef.sol\":5131:5154  owner() == _msgSender() */\n      0xffffffffffffffffffffffffffffffffffffffff\n      and\n        /* \"Ghosper-NFT-Staking-MasterChef.sol\":5131:5138  owner() */\n      tag_311\n        /* \"Ghosper-NFT-Staking-MasterChef.sol\":5131:5136  owner */\n      tag_78\n        /* \"Ghosper-NFT-Staking-MasterChef.sol\":5131:5138  owner() */\n      jump\t// in\n    tag_311:\n        /* \"Ghosper-NFT-Staking-MasterChef.sol\":5131:5154  owner() == _msgSender() */\n      0xffffffffffffffffffffffffffffffffffffffff\n      and\n      eq\n        /* \"Ghosper-NFT-Staking-MasterChef.sol\":5123:5191  require(owner() == _msgSender(), \"Ownable: caller is not the owner\") */\n      tag_312\n      jumpi\n      mload(0x40)\n      0x08c379a000000000000000000000000000000000000000000000000000000000\n      dup2\n      mstore\n      0x04\n      add\n      tag_313\n      swap1\n      tag_170\n      jump\t// in\n    tag_313:\n      mload(0x40)\n      dup1\n      swap2\n      sub\n      swap1\n      revert\n    tag_312:\n        /* \"Ghosper-NFT-Staking-MasterChef.sol\":30589:30599  _feeWallet */\n      dup1\n        /* \"Ghosper-NFT-Staking-MasterChef.sol\":30577:30586  feeWallet */\n      0x05\n      0x00\n        /* \"Ghosper-NFT-Staking-MasterChef.sol\":30577:30599  feeWallet = _feeWallet */\n      0x0100\n      exp\n      dup2\n      sload\n      dup2\n      0xffffffffffffffffffffffffffffffffffffffff\n      mul\n      not\n      and\n      swap1\n      dup4\n      0xffffffffffffffffffffffffffffffffffffffff\n      and\n      mul\n      or\n      swap1\n      sstore\n      pop\n        /* \"Ghosper-NFT-Staking-MasterChef.sol\":30628:30637  feeWallet */\n      0x05\n      0x00\n      swap1\n      sload\n      swap1\n      0x0100\n      exp\n      swap1\n      div\n      0xffffffffffffffffffffffffffffffffffffffff\n      and\n        /* \"Ghosper-NFT-Staking-MasterChef.sol\":30615:30638  SetFeeWallet(feeWallet) */\n      0xffffffffffffffffffffffffffffffffffffffff\n      and\n      0x3d21e5a2b633291bd1ff5f9c654e402d063783c95759d2ea521b31fb30e4da41\n      mload(0x40)\n      mload(0x40)\n      dup1\n      swap2\n      sub\n      swap1\n      log2\n        /* \"Ghosper-NFT-Staking-MasterChef.sol\":30505:30646  function setFeeWallet(address _feeWallet) external onlyOwner {\r... */\n      pop\n      jump\t// out\n        /* \"Ghosper-NFT-Staking-MasterChef.sol\":32668:33154  function removeUnStakeFee(uint256 _index) external onlyOwner {\r... */\n    tag_90:\n        /* \"Ghosper-NFT-Staking-MasterChef.sol\":5142:5154  _msgSender() */\n      tag_316\n        /* \"Ghosper-NFT-Staking-MasterChef.sol\":5142:5152  _msgSender */\n      tag_166\n        /* \"Ghosper-NFT-Staking-MasterChef.sol\":5142:5154  _msgSender() */\n      jump\t// in\n    tag_316:\n        /* \"Ghosper-NFT-Staking-MasterChef.sol\":5131:5154  owner() == _msgSender() */\n      0xffffffffffffffffffffffffffffffffffffffff\n      and\n        /* \"Ghosper-NFT-Staking-MasterChef.sol\":5131:5138  owner() */\n      tag_317\n        /* \"Ghosper-NFT-Staking-MasterChef.sol\":5131:5136  owner */\n      tag_78\n        /* \"Ghosper-NFT-Staking-MasterChef.sol\":5131:5138  owner() */\n      jump\t// in\n    tag_317:\n        /* \"Ghosper-NFT-Staking-MasterChef.sol\":5131:5154  owner() == _msgSender() */\n      0xffffffffffffffffffffffffffffffffffffffff\n      and\n      eq\n        /* \"Ghosper-NFT-Staking-MasterChef.sol\":5123:5191  require(owner() == _msgSender(), \"Ownable: caller is not the owner\") */\n      tag_318\n      jumpi\n      mload(0x40)\n      0x08c379a000000000000000000000000000000000000000000000000000000000\n      dup2\n      mstore\n      0x04\n      add\n      tag_319\n      swap1\n      tag_170\n      jump\t// in\n    tag_319:\n      mload(0x40)\n      dup1\n      swap2\n      sub\n      swap1\n      revert\n    tag_318:\n        /* \"Ghosper-NFT-Staking-MasterChef.sol\":32757:32768  unStakeFees */\n      0x01\n        /* \"Ghosper-NFT-Staking-MasterChef.sol\":32757:32775  unStakeFees.length */\n      dup1\n      sload\n      swap1\n      pop\n        /* \"Ghosper-NFT-Staking-MasterChef.sol\":32748:32754  _index */\n      dup2\n        /* \"Ghosper-NFT-Staking-MasterChef.sol\":32748:32775  _index < unStakeFees.length */\n      lt\n        /* \"Ghosper-NFT-Staking-MasterChef.sol\":32740:32807  require(_index < unStakeFees.length, \"removeUnStakeFee: range out\") */\n      tag_321\n      jumpi\n      mload(0x40)\n      0x08c379a000000000000000000000000000000000000000000000000000000000\n      dup2\n      mstore\n      0x04\n      add\n      tag_322\n      swap1\n      tag_323\n      jump\t// in\n    tag_322:\n      mload(0x40)\n      dup1\n      swap2\n      sub\n      swap1\n      revert\n    tag_321:\n        /* \"Ghosper-NFT-Staking-MasterChef.sol\":32818:32834  uint256 _minDays */\n      0x00\n        /* \"Ghosper-NFT-Staking-MasterChef.sol\":32837:32848  unStakeFees */\n      0x01\n        /* \"Ghosper-NFT-Staking-MasterChef.sol\":32849:32855  _index */\n      dup3\n        /* \"Ghosper-NFT-Staking-MasterChef.sol\":32837:32856  unStakeFees[_index] */\n      dup2\n      sload\n      dup2\n      lt\n      tag_324\n      jumpi\n      tag_325\n      tag_116\n      jump\t// in\n    tag_325:\n    tag_324:\n      swap1\n      0x00\n      mstore\n      keccak256(0x00, 0x20)\n      swap1\n      0x02\n      mul\n      add\n        /* \"Ghosper-NFT-Staking-MasterChef.sol\":32837:32864  unStakeFees[_index].minDays */\n      0x00\n      add\n      sload\n        /* \"Ghosper-NFT-Staking-MasterChef.sol\":32818:32864  uint256 _minDays = unStakeFees[_index].minDays */\n      swap1\n      pop\n        /* \"Ghosper-NFT-Staking-MasterChef.sol\":32875:32894  uint256 _feePercent */\n      0x00\n        /* \"Ghosper-NFT-Staking-MasterChef.sol\":32897:32908  unStakeFees */\n      0x01\n        /* \"Ghosper-NFT-Staking-MasterChef.sol\":32909:32915  _index */\n      dup4\n        /* \"Ghosper-NFT-Staking-MasterChef.sol\":32897:32916  unStakeFees[_index] */\n      dup2\n      sload\n      dup2\n      lt\n      tag_327\n      jumpi\n      tag_328\n      tag_116\n      jump\t// in\n    tag_328:\n    tag_327:\n      swap1\n      0x00\n      mstore\n      keccak256(0x00, 0x20)\n      swap1\n      0x02\n      mul\n      add\n        /* \"Ghosper-NFT-Staking-MasterChef.sol\":32897:32927  unStakeFees[_index].feePercent */\n      0x01\n      add\n      sload\n        /* \"Ghosper-NFT-Staking-MasterChef.sol\":32875:32927  uint256 _feePercent = unStakeFees[_index].feePercent */\n      swap1\n      pop\n        /* \"Ghosper-NFT-Staking-MasterChef.sol\":32943:32952  uint256 i */\n      0x00\n        /* \"Ghosper-NFT-Staking-MasterChef.sol\":32955:32961  _index */\n      dup4\n        /* \"Ghosper-NFT-Staking-MasterChef.sol\":32943:32961  uint256 i = _index */\n      swap1\n      pop\n        /* \"Ghosper-NFT-Staking-MasterChef.sol\":32938:33056  for (uint256 i = _index; i < unStakeFees.length - 1; i++) {\r... */\n    tag_330:\n        /* \"Ghosper-NFT-Staking-MasterChef.sol\":32988:32989  1 */\n      0x01\n        /* \"Ghosper-NFT-Staking-MasterChef.sol\":32967:32978  unStakeFees */\n      dup1\n        /* \"Ghosper-NFT-Staking-MasterChef.sol\":32967:32985  unStakeFees.length */\n      dup1\n      sload\n      swap1\n      pop\n        /* \"Ghosper-NFT-Staking-MasterChef.sol\":32967:32989  unStakeFees.length - 1 */\n      tag_333\n      swap2\n      swap1\n      tag_196\n      jump\t// in\n    tag_333:\n        /* \"Ghosper-NFT-Staking-MasterChef.sol\":32963:32964  i */\n      dup2\n        /* \"Ghosper-NFT-Staking-MasterChef.sol\":32963:32989  i < unStakeFees.length - 1 */\n      lt\n        /* \"Ghosper-NFT-Staking-MasterChef.sol\":32938:33056  for (uint256 i = _index; i < unStakeFees.length - 1; i++) {\r... */\n      iszero\n      tag_331\n      jumpi\n        /* \"Ghosper-NFT-Staking-MasterChef.sol\":33028:33039  unStakeFees */\n      0x01\n        /* \"Ghosper-NFT-Staking-MasterChef.sol\":33042:33043  1 */\n      dup1\n        /* \"Ghosper-NFT-Staking-MasterChef.sol\":33040:33041  i */\n      dup3\n        /* \"Ghosper-NFT-Staking-MasterChef.sol\":33040:33043  i+1 */\n      tag_334\n      swap2\n      swap1\n      tag_124\n      jump\t// in\n    tag_334:\n        /* \"Ghosper-NFT-Staking-MasterChef.sol\":33028:33044  unStakeFees[i+1] */\n      dup2\n      sload\n      dup2\n      lt\n      tag_335\n      jumpi\n      tag_336\n      tag_116\n      jump\t// in\n    tag_336:\n    tag_335:\n      swap1\n      0x00\n      mstore\n      keccak256(0x00, 0x20)\n      swap1\n      0x02\n      mul\n      add\n        /* \"Ghosper-NFT-Staking-MasterChef.sol\":33011:33022  unStakeFees */\n      0x01\n        /* \"Ghosper-NFT-Staking-MasterChef.sol\":33023:33024  i */\n      dup3\n        /* \"Ghosper-NFT-Staking-MasterChef.sol\":33011:33025  unStakeFees[i] */\n      dup2\n      sload\n      dup2\n      lt\n      tag_338\n      jumpi\n      tag_339\n      tag_116\n      jump\t// in\n    tag_339:\n    tag_338:\n      swap1\n      0x00\n      mstore\n      keccak256(0x00, 0x20)\n      swap1\n      0x02\n      mul\n      add\n        /* \"Ghosper-NFT-Staking-MasterChef.sol\":33011:33044  unStakeFees[i] = unStakeFees[i+1] */\n      0x00\n      dup3\n      add\n      sload\n      dup2\n      0x00\n      add\n      sstore\n      0x01\n      dup3\n      add\n      sload\n      dup2\n      0x01\n      add\n      sstore\n      swap1\n      pop\n      pop\n        /* \"Ghosper-NFT-Staking-MasterChef.sol\":32991:32994  i++ */\n      dup1\n      dup1\n      tag_341\n      swap1\n      tag_133\n      jump\t// in\n    tag_341:\n      swap2\n      pop\n      pop\n        /* \"Ghosper-NFT-Staking-MasterChef.sol\":32938:33056  for (uint256 i = _index; i < unStakeFees.length - 1; i++) {\r... */\n      jump(tag_330)\n    tag_331:\n      pop\n        /* \"Ghosper-NFT-Staking-MasterChef.sol\":33066:33077  unStakeFees */\n      0x01\n        /* \"Ghosper-NFT-Staking-MasterChef.sol\":33066:33083  unStakeFees.pop() */\n      dup1\n      sload\n      dup1\n      tag_342\n      jumpi\n      tag_343\n      tag_344\n      jump\t// in\n    tag_343:\n    tag_342:\n      0x01\n      swap1\n      sub\n      dup2\n      dup2\n      swap1\n      0x00\n      mstore\n      keccak256(0x00, 0x20)\n      swap1\n      0x02\n      mul\n      add\n      0x00\n      dup1\n      dup3\n      add\n      0x00\n      swap1\n      sstore\n      0x01\n      dup3\n      add\n      0x00\n      swap1\n      sstore\n      pop\n      pop\n      swap1\n      sstore\n        /* \"Ghosper-NFT-Staking-MasterChef.sol\":33099:33146  RemoveUnStakeFee(_index, _minDays, _feePercent) */\n      0x61fd4e7e2422942f3df6e8c8c7744f23212ce0f0a23a80f0ace593ffdf6d96d0\n        /* \"Ghosper-NFT-Staking-MasterChef.sol\":33116:33122  _index */\n      dup4\n        /* \"Ghosper-NFT-Staking-MasterChef.sol\":33124:33132  _minDays */\n      dup4\n        /* \"Ghosper-NFT-Staking-MasterChef.sol\":33134:33145  _feePercent */\n      dup4\n        /* \"Ghosper-NFT-Staking-MasterChef.sol\":33099:33146  RemoveUnStakeFee(_index, _minDays, _feePercent) */\n      mload(0x40)\n      tag_346\n      swap4\n      swap3\n      swap2\n      swap1\n      tag_240\n      jump\t// in\n    tag_346:\n      mload(0x40)\n      dup1\n      swap2\n      sub\n      swap1\n      log1\n        /* \"Ghosper-NFT-Staking-MasterChef.sol\":32729:33154  {\r... */\n      pop\n      pop\n        /* \"Ghosper-NFT-Staking-MasterChef.sol\":32668:33154  function removeUnStakeFee(uint256 _index) external onlyOwner {\r... */\n      pop\n      jump\t// out\n        /* \"Ghosper-NFT-Staking-MasterChef.sol\":28454:28484  uint256 public lastRewardBlock */\n    tag_92:\n      sload(0x02)\n      dup2\n      jump\t// out\n        /* \"Ghosper-NFT-Staking-MasterChef.sol\":28595:28620  uint256 public harvestFee */\n    tag_95:\n      sload(0x06)\n      dup2\n      jump\t// out\n        /* \"Ghosper-NFT-Staking-MasterChef.sol\":28374:28407  IERC721 public immutable nftToken */\n    tag_98:\n      immutable(\"0x29f8d1998cd4186678d0085cd54072aeefd05bc476ef1844361510d857ac074b\")\n      dup2\n      jump\t// out\n        /* \"Ghosper-NFT-Staking-MasterChef.sol\":28564:28588  address public feeWallet */\n    tag_102:\n      0x05\n      0x00\n      swap1\n      sload\n      swap1\n      0x0100\n      exp\n      swap1\n      div\n      0xffffffffffffffffffffffffffffffffffffffff\n      and\n      dup2\n      jump\t// out\n        /* \"Ghosper-NFT-Staking-MasterChef.sol\":5820:6021  function transferOwnership(address newOwner) public virtual onlyOwner {\r... */\n    tag_106:\n        /* \"Ghosper-NFT-Staking-MasterChef.sol\":5142:5154  _msgSender() */\n      tag_348\n        /* \"Ghosper-NFT-Staking-MasterChef.sol\":5142:5152  _msgSender */\n      tag_166\n        /* \"Ghosper-NFT-Staking-MasterChef.sol\":5142:5154  _msgSender() */\n      jump\t// in\n    tag_348:\n        /* \"Ghosper-NFT-Staking-MasterChef.sol\":5131:5154  owner() == _msgSender() */\n      0xffffffffffffffffffffffffffffffffffffffff\n      and\n        /* \"Ghosper-NFT-Staking-MasterChef.sol\":5131:5138  owner() */\n      tag_349\n        /* \"Ghosper-NFT-Staking-MasterChef.sol\":5131:5136  owner */\n      tag_78\n        /* \"Ghosper-NFT-Staking-MasterChef.sol\":5131:5138  owner() */\n      jump\t// in\n    tag_349:\n        /* \"Ghosper-NFT-Staking-MasterChef.sol\":5131:5154  owner() == _msgSender() */\n      0xffffffffffffffffffffffffffffffffffffffff\n      and\n      eq\n        /* \"Ghosper-NFT-Staking-MasterChef.sol\":5123:5191  require(owner() == _msgSender(), \"Ownable: caller is not the owner\") */\n      tag_350\n      jumpi\n      mload(0x40)\n      0x08c379a000000000000000000000000000000000000000000000000000000000\n      dup2\n      mstore\n      0x04\n      add\n      tag_351\n      swap1\n      tag_170\n      jump\t// in\n    tag_351:\n      mload(0x40)\n      dup1\n      swap2\n      sub\n      swap1\n      revert\n    tag_350:\n        /* \"Ghosper-NFT-Staking-MasterChef.sol\":5929:5930  0 */\n      0x00\n        /* \"Ghosper-NFT-Staking-MasterChef.sol\":5909:5931  newOwner != address(0) */\n      0xffffffffffffffffffffffffffffffffffffffff\n      and\n        /* \"Ghosper-NFT-Staking-MasterChef.sol\":5909:5917  newOwner */\n      dup2\n        /* \"Ghosper-NFT-Staking-MasterChef.sol\":5909:5931  newOwner != address(0) */\n      0xffffffffffffffffffffffffffffffffffffffff\n      and\n      eq\n      iszero\n        /* \"Ghosper-NFT-Staking-MasterChef.sol\":5901:5974  require(newOwner != address(0), \"Ownable: new owner is the zero address\") */\n      tag_353\n      jumpi\n      mload(0x40)\n      0x08c379a000000000000000000000000000000000000000000000000000000000\n      dup2\n      mstore\n      0x04\n      add\n      tag_354\n      swap1\n      tag_355\n      jump\t// in\n    tag_354:\n      mload(0x40)\n      dup1\n      swap2\n      sub\n      swap1\n      revert\n    tag_353:\n        /* \"Ghosper-NFT-Staking-MasterChef.sol\":5985:6013  _transferOwnership(newOwner) */\n      tag_356\n        /* \"Ghosper-NFT-Staking-MasterChef.sol\":6004:6012  newOwner */\n      dup2\n        /* \"Ghosper-NFT-Staking-MasterChef.sol\":5985:6003  _transferOwnership */\n      tag_295\n        /* \"Ghosper-NFT-Staking-MasterChef.sol\":5985:6013  _transferOwnership(newOwner) */\n      jump\t// in\n    tag_356:\n        /* \"Ghosper-NFT-Staking-MasterChef.sol\":5820:6021  function transferOwnership(address newOwner) public virtual onlyOwner {\r... */\n      pop\n      jump\t// out\n        /* \"Ghosper-NFT-Staking-MasterChef.sol\":34184:35062  function updateStatus() private {\r... */\n    tag_136:\n        /* \"Ghosper-NFT-Staking-MasterChef.sol\":34247:34262  lastRewardBlock */\n      sload(0x02)\n        /* \"Ghosper-NFT-Staking-MasterChef.sol\":34231:34243  block.number */\n      number\n        /* \"Ghosper-NFT-Staking-MasterChef.sol\":34231:34262  block.number <= lastRewardBlock */\n      gt\n        /* \"Ghosper-NFT-Staking-MasterChef.sol\":34227:34297  if (block.number <= lastRewardBlock) {\r... */\n      tag_358\n      jumpi\n        /* \"Ghosper-NFT-Staking-MasterChef.sol\":34279:34286  return; */\n      jump(tag_357)\n        /* \"Ghosper-NFT-Staking-MasterChef.sol\":34227:34297  if (block.number <= lastRewardBlock) {\r... */\n    tag_358:\n        /* \"Ghosper-NFT-Staking-MasterChef.sol\":34332:34333  0 */\n      0x00\n        /* \"Ghosper-NFT-Staking-MasterChef.sol\":34311:34328  totalStakedAmount */\n      sload(0x07)\n        /* \"Ghosper-NFT-Staking-MasterChef.sol\":34311:34333  totalStakedAmount == 0 */\n      eq\n        /* \"Ghosper-NFT-Staking-MasterChef.sol\":34307:34413  if (totalStakedAmount == 0) {\r... */\n      iszero\n      tag_359\n      jumpi\n        /* \"Ghosper-NFT-Staking-MasterChef.sol\":34368:34380  block.number */\n      number\n        /* \"Ghosper-NFT-Staking-MasterChef.sol\":34350:34365  lastRewardBlock */\n      0x02\n        /* \"Ghosper-NFT-Staking-MasterChef.sol\":34350:34380  lastRewardBlock = block.number */\n      dup2\n      swap1\n      sstore\n      pop\n        /* \"Ghosper-NFT-Staking-MasterChef.sol\":34395:34402  return; */\n      jump(tag_357)\n        /* \"Ghosper-NFT-Staking-MasterChef.sol\":34307:34413  if (totalStakedAmount == 0) {\r... */\n    tag_359:\n        /* \"Ghosper-NFT-Staking-MasterChef.sol\":34423:34441  uint256 multiplier */\n      0x00\n        /* \"Ghosper-NFT-Staking-MasterChef.sol\":34444:34488  getMultiplier(lastRewardBlock, block.number) */\n      tag_360\n        /* \"Ghosper-NFT-Staking-MasterChef.sol\":34458:34473  lastRewardBlock */\n      sload(0x02)\n        /* \"Ghosper-NFT-Staking-MasterChef.sol\":34475:34487  block.number */\n      number\n        /* \"Ghosper-NFT-Staking-MasterChef.sol\":34444:34457  getMultiplier */\n      tag_83\n        /* \"Ghosper-NFT-Staking-MasterChef.sol\":34444:34488  getMultiplier(lastRewardBlock, block.number) */\n      jump\t// in\n    tag_360:\n        /* \"Ghosper-NFT-Staking-MasterChef.sol\":34423:34488  uint256 multiplier = getMultiplier(lastRewardBlock, block.number) */\n      swap1\n      pop\n        /* \"Ghosper-NFT-Staking-MasterChef.sol\":34499:34513  uint256 reward */\n      0x00\n        /* \"Ghosper-NFT-Staking-MasterChef.sol\":34516:34546  multiplier.mul(rewardPerBlock) */\n      tag_361\n        /* \"Ghosper-NFT-Staking-MasterChef.sol\":34531:34545  rewardPerBlock */\n      sload(0x04)\n        /* \"Ghosper-NFT-Staking-MasterChef.sol\":34516:34526  multiplier */\n      dup4\n        /* \"Ghosper-NFT-Staking-MasterChef.sol\":34516:34530  multiplier.mul */\n      tag_141\n      swap1\n        /* \"Ghosper-NFT-Staking-MasterChef.sol\":34516:34546  multiplier.mul(rewardPerBlock) */\n      swap2\n      swap1\n      0xffffffff\n      and\n      jump\t// in\n    tag_361:\n        /* \"Ghosper-NFT-Staking-MasterChef.sol\":34499:34546  uint256 reward = multiplier.mul(rewardPerBlock) */\n      swap1\n      pop\n        /* \"Ghosper-NFT-Staking-MasterChef.sol\":34579:34580  0 */\n      0x00\n        /* \"Ghosper-NFT-Staking-MasterChef.sol\":34561:34575  _rewardBalance */\n      sload(0x08)\n        /* \"Ghosper-NFT-Staking-MasterChef.sol\":34561:34580  _rewardBalance == 0 */\n      eq\n        /* \"Ghosper-NFT-Staking-MasterChef.sol\":34557:34660  if (_rewardBalance == 0) {\r... */\n      iszero\n      tag_362\n      jumpi\n        /* \"Ghosper-NFT-Staking-MasterChef.sol\":34615:34627  block.number */\n      number\n        /* \"Ghosper-NFT-Staking-MasterChef.sol\":34597:34612  lastRewardBlock */\n      0x02\n        /* \"Ghosper-NFT-Staking-MasterChef.sol\":34597:34627  lastRewardBlock = block.number */\n      dup2\n      swap1\n      sstore\n      pop\n        /* \"Ghosper-NFT-Staking-MasterChef.sol\":34642:34649  return; */\n      pop\n      pop\n      jump(tag_357)\n        /* \"Ghosper-NFT-Staking-MasterChef.sol\":34557:34660  if (_rewardBalance == 0) {\r... */\n    tag_362:\n        /* \"Ghosper-NFT-Staking-MasterChef.sol\":34691:34697  reward */\n      dup1\n        /* \"Ghosper-NFT-Staking-MasterChef.sol\":34674:34688  _rewardBalance */\n      sload(0x08)\n        /* \"Ghosper-NFT-Staking-MasterChef.sol\":34674:34697  _rewardBalance < reward */\n      lt\n        /* \"Ghosper-NFT-Staking-MasterChef.sol\":34670:35014  if (_rewardBalance < reward) {\r... */\n      iszero\n      tag_363\n      jumpi\n        /* \"Ghosper-NFT-Staking-MasterChef.sol\":34732:34800  accGHSPPerShare.add(_rewardBalance.mul(1e12).div(totalStakedAmount)) */\n      tag_364\n        /* \"Ghosper-NFT-Staking-MasterChef.sol\":34752:34799  _rewardBalance.mul(1e12).div(totalStakedAmount) */\n      tag_365\n        /* \"Ghosper-NFT-Staking-MasterChef.sol\":34781:34798  totalStakedAmount */\n      sload(0x07)\n        /* \"Ghosper-NFT-Staking-MasterChef.sol\":34752:34776  _rewardBalance.mul(1e12) */\n      tag_366\n        /* \"Ghosper-NFT-Staking-MasterChef.sol\":34771:34775  1e12 */\n      0xe8d4a51000\n        /* \"Ghosper-NFT-Staking-MasterChef.sol\":34752:34766  _rewardBalance */\n      sload(0x08)\n        /* \"Ghosper-NFT-Staking-MasterChef.sol\":34752:34770  _rewardBalance.mul */\n      tag_141\n      swap1\n        /* \"Ghosper-NFT-Staking-MasterChef.sol\":34752:34776  _rewardBalance.mul(1e12) */\n      swap2\n      swap1\n      0xffffffff\n      and\n      jump\t// in\n    tag_366:\n        /* \"Ghosper-NFT-Staking-MasterChef.sol\":34752:34780  _rewardBalance.mul(1e12).div */\n      tag_142\n      swap1\n        /* \"Ghosper-NFT-Staking-MasterChef.sol\":34752:34799  _rewardBalance.mul(1e12).div(totalStakedAmount) */\n      swap2\n      swap1\n      0xffffffff\n      and\n      jump\t// in\n    tag_365:\n        /* \"Ghosper-NFT-Staking-MasterChef.sol\":34732:34747  accGHSPPerShare */\n      sload(0x03)\n        /* \"Ghosper-NFT-Staking-MasterChef.sol\":34732:34751  accGHSPPerShare.add */\n      tag_145\n      swap1\n        /* \"Ghosper-NFT-Staking-MasterChef.sol\":34732:34800  accGHSPPerShare.add(_rewardBalance.mul(1e12).div(totalStakedAmount)) */\n      swap2\n      swap1\n      0xffffffff\n      and\n      jump\t// in\n    tag_364:\n        /* \"Ghosper-NFT-Staking-MasterChef.sol\":34714:34729  accGHSPPerShare */\n      0x03\n        /* \"Ghosper-NFT-Staking-MasterChef.sol\":34714:34800  accGHSPPerShare = accGHSPPerShare.add(_rewardBalance.mul(1e12).div(totalStakedAmount)) */\n      dup2\n      swap1\n      sstore\n      pop\n        /* \"Ghosper-NFT-Staking-MasterChef.sol\":34832:34833  0 */\n      0x00\n        /* \"Ghosper-NFT-Staking-MasterChef.sol\":34815:34829  _rewardBalance */\n      0x08\n        /* \"Ghosper-NFT-Staking-MasterChef.sol\":34815:34833  _rewardBalance = 0 */\n      dup2\n      swap1\n      sstore\n      pop\n        /* \"Ghosper-NFT-Staking-MasterChef.sol\":34670:35014  if (_rewardBalance < reward) {\r... */\n      jump(tag_367)\n    tag_363:\n        /* \"Ghosper-NFT-Staking-MasterChef.sol\":34883:34909  _rewardBalance.sub(reward) */\n      tag_368\n        /* \"Ghosper-NFT-Staking-MasterChef.sol\":34902:34908  reward */\n      dup2\n        /* \"Ghosper-NFT-Staking-MasterChef.sol\":34883:34897  _rewardBalance */\n      sload(0x08)\n        /* \"Ghosper-NFT-Staking-MasterChef.sol\":34883:34901  _rewardBalance.sub */\n      tag_143\n      swap1\n        /* \"Ghosper-NFT-Staking-MasterChef.sol\":34883:34909  _rewardBalance.sub(reward) */\n      swap2\n      swap1\n      0xffffffff\n      and\n      jump\t// in\n    tag_368:\n        /* \"Ghosper-NFT-Staking-MasterChef.sol\":34866:34880  _rewardBalance */\n      0x08\n        /* \"Ghosper-NFT-Staking-MasterChef.sol\":34866:34909  _rewardBalance = _rewardBalance.sub(reward) */\n      dup2\n      swap1\n      sstore\n      pop\n        /* \"Ghosper-NFT-Staking-MasterChef.sol\":34942:35002  accGHSPPerShare.add(reward.mul(1e12).div(totalStakedAmount)) */\n      tag_369\n        /* \"Ghosper-NFT-Staking-MasterChef.sol\":34962:35001  reward.mul(1e12).div(totalStakedAmount) */\n      tag_370\n        /* \"Ghosper-NFT-Staking-MasterChef.sol\":34983:35000  totalStakedAmount */\n      sload(0x07)\n        /* \"Ghosper-NFT-Staking-MasterChef.sol\":34962:34978  reward.mul(1e12) */\n      tag_371\n        /* \"Ghosper-NFT-Staking-MasterChef.sol\":34973:34977  1e12 */\n      0xe8d4a51000\n        /* \"Ghosper-NFT-Staking-MasterChef.sol\":34962:34968  reward */\n      dup6\n        /* \"Ghosper-NFT-Staking-MasterChef.sol\":34962:34972  reward.mul */\n      tag_141\n      swap1\n        /* \"Ghosper-NFT-Staking-MasterChef.sol\":34962:34978  reward.mul(1e12) */\n      swap2\n      swap1\n      0xffffffff\n      and\n      jump\t// in\n    tag_371:\n        /* \"Ghosper-NFT-Staking-MasterChef.sol\":34962:34982  reward.mul(1e12).div */\n      tag_142\n      swap1\n        /* \"Ghosper-NFT-Staking-MasterChef.sol\":34962:35001  reward.mul(1e12).div(totalStakedAmount) */\n      swap2\n      swap1\n      0xffffffff\n      and\n      jump\t// in\n    tag_370:\n        /* \"Ghosper-NFT-Staking-MasterChef.sol\":34942:34957  accGHSPPerShare */\n      sload(0x03)\n        /* \"Ghosper-NFT-Staking-MasterChef.sol\":34942:34961  accGHSPPerShare.add */\n      tag_145\n      swap1\n        /* \"Ghosper-NFT-Staking-MasterChef.sol\":34942:35002  accGHSPPerShare.add(reward.mul(1e12).div(totalStakedAmount)) */\n      swap2\n      swap1\n      0xffffffff\n      and\n      jump\t// in\n    tag_369:\n        /* \"Ghosper-NFT-Staking-MasterChef.sol\":34924:34939  accGHSPPerShare */\n      0x03\n        /* \"Ghosper-NFT-Staking-MasterChef.sol\":34924:35002  accGHSPPerShare = accGHSPPerShare.add(reward.mul(1e12).div(totalStakedAmount)) */\n      dup2\n      swap1\n      sstore\n      pop\n        /* \"Ghosper-NFT-Staking-MasterChef.sol\":34670:35014  if (_rewardBalance < reward) {\r... */\n    tag_367:\n        /* \"Ghosper-NFT-Staking-MasterChef.sol\":35042:35054  block.number */\n      number\n        /* \"Ghosper-NFT-Staking-MasterChef.sol\":35024:35039  lastRewardBlock */\n      0x02\n        /* \"Ghosper-NFT-Staking-MasterChef.sol\":35024:35054  lastRewardBlock = block.number */\n      dup2\n      swap1\n      sstore\n      pop\n        /* \"Ghosper-NFT-Staking-MasterChef.sol\":34216:35062  {\r... */\n      pop\n      pop\n        /* \"Ghosper-NFT-Staking-MasterChef.sol\":34184:35062  function updateStatus() private {\r... */\n    tag_357:\n      jump\t// out\n        /* \"Ghosper-NFT-Staking-MasterChef.sol\":9698:9796  function mul(uint256 a, uint256 b) internal pure returns (uint256) {\r... */\n    tag_141:\n        /* \"Ghosper-NFT-Staking-MasterChef.sol\":9756:9763  uint256 */\n      0x00\n        /* \"Ghosper-NFT-Staking-MasterChef.sol\":9787:9788  b */\n      dup2\n        /* \"Ghosper-NFT-Staking-MasterChef.sol\":9783:9784  a */\n      dup4\n        /* \"Ghosper-NFT-Staking-MasterChef.sol\":9783:9788  a * b */\n      tag_373\n      swap2\n      swap1\n      tag_374\n      jump\t// in\n    tag_373:\n        /* \"Ghosper-NFT-Staking-MasterChef.sol\":9776:9788  return a * b */\n      swap1\n      pop\n        /* \"Ghosper-NFT-Staking-MasterChef.sol\":9698:9796  function mul(uint256 a, uint256 b) internal pure returns (uint256) {\r... */\n      swap3\n      swap2\n      pop\n      pop\n      jump\t// out\n        /* \"Ghosper-NFT-Staking-MasterChef.sol\":10097:10195  function div(uint256 a, uint256 b) internal pure returns (uint256) {\r... */\n    tag_142:\n        /* \"Ghosper-NFT-Staking-MasterChef.sol\":10155:10162  uint256 */\n      0x00\n        /* \"Ghosper-NFT-Staking-MasterChef.sol\":10186:10187  b */\n      dup2\n        /* \"Ghosper-NFT-Staking-MasterChef.sol\":10182:10183  a */\n      dup4\n        /* \"Ghosper-NFT-Staking-MasterChef.sol\":10182:10187  a / b */\n      tag_376\n      swap2\n      swap1\n      tag_377\n      jump\t// in\n    tag_376:\n        /* \"Ghosper-NFT-Staking-MasterChef.sol\":10175:10187  return a / b */\n      swap1\n      pop\n        /* \"Ghosper-NFT-Staking-MasterChef.sol\":10097:10195  function div(uint256 a, uint256 b) internal pure returns (uint256) {\r... */\n      swap3\n      swap2\n      pop\n      pop\n      jump\t// out\n        /* \"Ghosper-NFT-Staking-MasterChef.sol\":9341:9439  function sub(uint256 a, uint256 b) internal pure returns (uint256) {\r... */\n    tag_143:\n        /* \"Ghosper-NFT-Staking-MasterChef.sol\":9399:9406  uint256 */\n      0x00\n        /* \"Ghosper-NFT-Staking-MasterChef.sol\":9430:9431  b */\n      dup2\n        /* \"Ghosper-NFT-Staking-MasterChef.sol\":9426:9427  a */\n      dup4\n        /* \"Ghosper-NFT-Staking-MasterChef.sol\":9426:9431  a - b */\n      tag_379\n      swap2\n      swap1\n      tag_196\n      jump\t// in\n    tag_379:\n        /* \"Ghosper-NFT-Staking-MasterChef.sol\":9419:9431  return a - b */\n      swap1\n      pop\n        /* \"Ghosper-NFT-Staking-MasterChef.sol\":9341:9439  function sub(uint256 a, uint256 b) internal pure returns (uint256) {\r... */\n      swap3\n      swap2\n      pop\n      pop\n      jump\t// out\n        /* \"Ghosper-NFT-Staking-MasterChef.sol\":8960:9058  function add(uint256 a, uint256 b) internal pure returns (uint256) {\r... */\n    tag_145:\n        /* \"Ghosper-NFT-Staking-MasterChef.sol\":9018:9025  uint256 */\n      0x00\n        /* \"Ghosper-NFT-Staking-MasterChef.sol\":9049:9050  b */\n      dup2\n        /* \"Ghosper-NFT-Staking-MasterChef.sol\":9045:9046  a */\n      dup4\n        /* \"Ghosper-NFT-Staking-MasterChef.sol\":9045:9050  a + b */\n      tag_381\n      swap2\n      swap1\n      tag_124\n      jump\t// in\n    tag_381:\n        /* \"Ghosper-NFT-Staking-MasterChef.sol\":9038:9050  return a + b */\n      swap1\n      pop\n        /* \"Ghosper-NFT-Staking-MasterChef.sol\":8960:9058  function add(uint256 a, uint256 b) internal pure returns (uint256) {\r... */\n      swap3\n      swap2\n      pop\n      pop\n      jump\t// out\n        /* \"Ghosper-NFT-Staking-MasterChef.sol\":3751:3849  function _msgSender() internal view virtual returns (address) {\r... */\n    tag_166:\n        /* \"Ghosper-NFT-Staking-MasterChef.sol\":3804:3811  address */\n      0x00\n        /* \"Ghosper-NFT-Staking-MasterChef.sol\":3831:3841  msg.sender */\n      caller\n        /* \"Ghosper-NFT-Staking-MasterChef.sol\":3824:3841  return msg.sender */\n      swap1\n      pop\n        /* \"Ghosper-NFT-Staking-MasterChef.sol\":3751:3849  function _msgSender() internal view virtual returns (address) {\r... */\n      swap1\n      jump\t// out\n        /* \"Ghosper-NFT-Staking-MasterChef.sol\":13429:13634  function safeTransferFrom(IBEP20 token, address from, address to, uint256 value) internal {\r... */\n    tag_250:\n        /* \"Ghosper-NFT-Staking-MasterChef.sol\":13530:13626  _callOptionalReturn(token, abi.encodeWithSelector(token.transferFrom.selector, from, to, value)) */\n      tag_384\n        /* \"Ghosper-NFT-Staking-MasterChef.sol\":13550:13555  token */\n      dup5\n        /* \"Ghosper-NFT-Staking-MasterChef.sol\":13580:13607  token.transferFrom.selector */\n      shl(0xe0, 0x23b872dd)\n        /* \"Ghosper-NFT-Staking-MasterChef.sol\":13609:13613  from */\n      dup6\n        /* \"Ghosper-NFT-Staking-MasterChef.sol\":13615:13617  to */\n      dup6\n        /* \"Ghosper-NFT-Staking-MasterChef.sol\":13619:13624  value */\n      dup6\n        /* \"Ghosper-NFT-Staking-MasterChef.sol\":13557:13625  abi.encodeWithSelector(token.transferFrom.selector, from, to, value) */\n      add(0x24, mload(0x40))\n      tag_385\n      swap4\n      swap3\n      swap2\n      swap1\n      tag_157\n      jump\t// in\n    tag_385:\n      mload(0x40)\n      0x20\n      dup2\n      dup4\n      sub\n      sub\n      dup2\n      mstore\n      swap1\n      0x40\n      mstore\n      swap1\n      not(0xffffffffffffffffffffffffffffffffffffffffffffffffffffffff)\n      and\n      0x20\n      dup3\n      add\n      dup1\n      mload\n      0xffffffffffffffffffffffffffffffffffffffffffffffffffffffff\n      dup4\n      dup2\n      dup4\n      and\n      or\n      dup4\n      mstore\n      pop\n      pop\n      pop\n      pop\n        /* \"Ghosper-NFT-Staking-MasterChef.sol\":13530:13549  _callOptionalReturn */\n      tag_386\n        /* \"Ghosper-NFT-Staking-MasterChef.sol\":13530:13626  _callOptionalReturn(token, abi.encodeWithSelector(token.transferFrom.selector, from, to, value)) */\n      jump\t// in\n    tag_384:\n        /* \"Ghosper-NFT-Staking-MasterChef.sol\":13429:13634  function safeTransferFrom(IBEP20 token, address from, address to, uint256 value) internal {\r... */\n      pop\n      pop\n      pop\n      pop\n      jump\t// out\n        /* \"Ghosper-NFT-Staking-MasterChef.sol\":6181:6372  function _transferOwnership(address newOwner) internal virtual {\r... */\n    tag_295:\n        /* \"Ghosper-NFT-Staking-MasterChef.sol\":6255:6271  address oldOwner */\n      0x00\n        /* \"Ghosper-NFT-Staking-MasterChef.sol\":6274:6280  _owner */\n      dup1\n      0x00\n      swap1\n      sload\n      swap1\n      0x0100\n      exp\n      swap1\n      div\n      0xffffffffffffffffffffffffffffffffffffffff\n      and\n        /* \"Ghosper-NFT-Staking-MasterChef.sol\":6255:6280  address oldOwner = _owner */\n      swap1\n      pop\n        /* \"Ghosper-NFT-Staking-MasterChef.sol\":6300:6308  newOwner */\n      dup2\n        /* \"Ghosper-NFT-Staking-MasterChef.sol\":6291:6297  _owner */\n      0x00\n      dup1\n        /* \"Ghosper-NFT-Staking-MasterChef.sol\":6291:6308  _owner = newOwner */\n      0x0100\n      exp\n      dup2\n      sload\n      dup2\n      0xffffffffffffffffffffffffffffffffffffffff\n      mul\n      not\n      and\n      swap1\n      dup4\n      0xffffffffffffffffffffffffffffffffffffffff\n      and\n      mul\n      or\n      swap1\n      sstore\n      pop\n        /* \"Ghosper-NFT-Staking-MasterChef.sol\":6355:6363  newOwner */\n      dup2\n        /* \"Ghosper-NFT-Staking-MasterChef.sol\":6324:6364  OwnershipTransferred(oldOwner, newOwner) */\n      0xffffffffffffffffffffffffffffffffffffffff\n      and\n        /* \"Ghosper-NFT-Staking-MasterChef.sol\":6345:6353  oldOwner */\n      dup2\n        /* \"Ghosper-NFT-Staking-MasterChef.sol\":6324:6364  OwnershipTransferred(oldOwner, newOwner) */\n      0xffffffffffffffffffffffffffffffffffffffff\n      and\n      0x8be0079c531659141344cd1fd0a4f28419497f9722a3daafe3b4186f6b6457e0\n      mload(0x40)\n      mload(0x40)\n      dup1\n      swap2\n      sub\n      swap1\n      log3\n        /* \"Ghosper-NFT-Staking-MasterChef.sol\":6244:6372  {\r... */\n      pop\n        /* \"Ghosper-NFT-Staking-MasterChef.sol\":6181:6372  function _transferOwnership(address newOwner) internal virtual {\r... */\n      pop\n      jump\t// out\n        /* \"Ghosper-NFT-Staking-MasterChef.sol\":15549:16310  function _callOptionalReturn(IBEP20 token, bytes memory data) private {\r... */\n    tag_386:\n        /* \"Ghosper-NFT-Staking-MasterChef.sol\":15973:15996  bytes memory returndata */\n      0x00\n        /* \"Ghosper-NFT-Staking-MasterChef.sol\":15999:16068  address(token).functionCall(data, \"SafeBEP20: low-level call failed\") */\n      tag_389\n        /* \"Ghosper-NFT-Staking-MasterChef.sol\":16027:16031  data */\n      dup3\n        /* \"Ghosper-NFT-Staking-MasterChef.sol\":15999:16068  address(token).functionCall(data, \"SafeBEP20: low-level call failed\") */\n      mload(0x40)\n      dup1\n      0x40\n      add\n      0x40\n      mstore\n      dup1\n      0x20\n      dup2\n      mstore\n      0x20\n      add\n      0x5361666542455032303a206c6f772d6c6576656c2063616c6c206661696c6564\n      dup2\n      mstore\n      pop\n        /* \"Ghosper-NFT-Staking-MasterChef.sol\":16007:16012  token */\n      dup6\n        /* \"Ghosper-NFT-Staking-MasterChef.sol\":15999:16026  address(token).functionCall */\n      0xffffffffffffffffffffffffffffffffffffffff\n      and\n      tag_390\n      swap1\n        /* \"Ghosper-NFT-Staking-MasterChef.sol\":15999:16068  address(token).functionCall(data, \"SafeBEP20: low-level call failed\") */\n      swap3\n      swap2\n      swap1\n      0xffffffff\n      and\n      jump\t// in\n    tag_389:\n        /* \"Ghosper-NFT-Staking-MasterChef.sol\":15973:16068  bytes memory returndata = address(token).functionCall(data, \"SafeBEP20: low-level call failed\") */\n      swap1\n      pop\n        /* \"Ghosper-NFT-Staking-MasterChef.sol\":16103:16104  0 */\n      0x00\n        /* \"Ghosper-NFT-Staking-MasterChef.sol\":16083:16093  returndata */\n      dup2\n        /* \"Ghosper-NFT-Staking-MasterChef.sol\":16083:16100  returndata.length */\n      mload\n        /* \"Ghosper-NFT-Staking-MasterChef.sol\":16083:16104  returndata.length > 0 */\n      gt\n        /* \"Ghosper-NFT-Staking-MasterChef.sol\":16079:16303  if (returndata.length > 0) { // Return data is optional\r... */\n      iszero\n      tag_391\n      jumpi\n        /* \"Ghosper-NFT-Staking-MasterChef.sol\":16225:16235  returndata */\n      dup1\n        /* \"Ghosper-NFT-Staking-MasterChef.sol\":16214:16244  abi.decode(returndata, (bool)) */\n      dup1\n      0x20\n      add\n      swap1\n      mload\n      dup2\n      add\n      swap1\n      tag_392\n      swap2\n      swap1\n      tag_393\n      jump\t// in\n    tag_392:\n        /* \"Ghosper-NFT-Staking-MasterChef.sol\":16206:16291  require(abi.decode(returndata, (bool)), \"SafeBEP20: BEP20 operation did not succeed\") */\n      tag_394\n      jumpi\n      mload(0x40)\n      0x08c379a000000000000000000000000000000000000000000000000000000000\n      dup2\n      mstore\n      0x04\n      add\n      tag_395\n      swap1\n      tag_396\n      jump\t// in\n    tag_395:\n      mload(0x40)\n      dup1\n      swap2\n      sub\n      swap1\n      revert\n    tag_394:\n        /* \"Ghosper-NFT-Staking-MasterChef.sol\":16079:16303  if (returndata.length > 0) { // Return data is optional\r... */\n    tag_391:\n        /* \"Ghosper-NFT-Staking-MasterChef.sol\":15619:16310  {\r... */\n      pop\n        /* \"Ghosper-NFT-Staking-MasterChef.sol\":15549:16310  function _callOptionalReturn(IBEP20 token, bytes memory data) private {\r... */\n      pop\n      pop\n      jump\t// out\n        /* \"Ghosper-NFT-Staking-MasterChef.sol\":20069:20265  function functionCall(address target, bytes memory data, string memory errorMessage) internal returns (bytes memory) {\r... */\n    tag_390:\n        /* \"Ghosper-NFT-Staking-MasterChef.sol\":20172:20184  bytes memory */\n      0x60\n        /* \"Ghosper-NFT-Staking-MasterChef.sol\":20204:20257  _functionCallWithValue(target, data, 0, errorMessage) */\n      tag_398\n        /* \"Ghosper-NFT-Staking-MasterChef.sol\":20227:20233  target */\n      dup5\n        /* \"Ghosper-NFT-Staking-MasterChef.sol\":20235:20239  data */\n      dup5\n        /* \"Ghosper-NFT-Staking-MasterChef.sol\":20241:20242  0 */\n      0x00\n        /* \"Ghosper-NFT-Staking-MasterChef.sol\":20244:20256  errorMessage */\n      dup6\n        /* \"Ghosper-NFT-Staking-MasterChef.sol\":20204:20226  _functionCallWithValue */\n      tag_399\n        /* \"Ghosper-NFT-Staking-MasterChef.sol\":20204:20257  _functionCallWithValue(target, data, 0, errorMessage) */\n      jump\t// in\n    tag_398:\n        /* \"Ghosper-NFT-Staking-MasterChef.sol\":20197:20257  return _functionCallWithValue(target, data, 0, errorMessage) */\n      swap1\n      pop\n        /* \"Ghosper-NFT-Staking-MasterChef.sol\":20069:20265  function functionCall(address target, bytes memory data, string memory errorMessage) internal returns (bytes memory) {\r... */\n      swap4\n      swap3\n      pop\n      pop\n      pop\n      jump\t// out\n        /* \"Ghosper-NFT-Staking-MasterChef.sol\":21446:22425  function _functionCallWithValue(address target, bytes memory data, uint256 weiValue, string memory errorMessage) private returns (bytes memory) {\r... */\n    tag_399:\n        /* \"Ghosper-NFT-Staking-MasterChef.sol\":21576:21588  bytes memory */\n      0x60\n        /* \"Ghosper-NFT-Staking-MasterChef.sol\":21609:21627  isContract(target) */\n      tag_401\n        /* \"Ghosper-NFT-Staking-MasterChef.sol\":21620:21626  target */\n      dup6\n        /* \"Ghosper-NFT-Staking-MasterChef.sol\":21609:21619  isContract */\n      tag_402\n        /* \"Ghosper-NFT-Staking-MasterChef.sol\":21609:21627  isContract(target) */\n      jump\t// in\n    tag_401:\n        /* \"Ghosper-NFT-Staking-MasterChef.sol\":21601:21661  require(isContract(target), \"Address: call to non-contract\") */\n      tag_403\n      jumpi\n      mload(0x40)\n      0x08c379a000000000000000000000000000000000000000000000000000000000\n      dup2\n      mstore\n      0x04\n      add\n      tag_404\n      swap1\n      tag_405\n      jump\t// in\n    tag_404:\n      mload(0x40)\n      dup1\n      swap2\n      sub\n      swap1\n      revert\n    tag_403:\n        /* \"Ghosper-NFT-Staking-MasterChef.sol\":21735:21747  bool success */\n      0x00\n        /* \"Ghosper-NFT-Staking-MasterChef.sol\":21749:21772  bytes memory returndata */\n      dup1\n        /* \"Ghosper-NFT-Staking-MasterChef.sol\":21776:21782  target */\n      dup7\n        /* \"Ghosper-NFT-Staking-MasterChef.sol\":21776:21787  target.call */\n      0xffffffffffffffffffffffffffffffffffffffff\n      and\n        /* \"Ghosper-NFT-Staking-MasterChef.sol\":21796:21804  weiValue */\n      dup6\n        /* \"Ghosper-NFT-Staking-MasterChef.sol\":21807:21811  data */\n      dup8\n        /* \"Ghosper-NFT-Staking-MasterChef.sol\":21776:21812  target.call{ value: weiValue }(data) */\n      mload(0x40)\n      tag_406\n      swap2\n      swap1\n      tag_407\n      jump\t// in\n    tag_406:\n      0x00\n      mload(0x40)\n      dup1\n      dup4\n      sub\n      dup2\n      dup6\n      dup8\n      gas\n      call\n      swap3\n      pop\n      pop\n      pop\n      returndatasize\n      dup1\n      0x00\n      dup2\n      eq\n      tag_410\n      jumpi\n      mload(0x40)\n      swap2\n      pop\n      and(add(returndatasize, 0x3f), not(0x1f))\n      dup3\n      add\n      0x40\n      mstore\n      returndatasize\n      dup3\n      mstore\n      returndatasize\n      0x00\n      0x20\n      dup5\n      add\n      returndatacopy\n      jump(tag_409)\n    tag_410:\n      0x60\n      swap2\n      pop\n    tag_409:\n      pop\n        /* \"Ghosper-NFT-Staking-MasterChef.sol\":21734:21812  (bool success, bytes memory returndata) = target.call{ value: weiValue }(data) */\n      swap2\n      pop\n      swap2\n      pop\n        /* \"Ghosper-NFT-Staking-MasterChef.sol\":21827:21834  success */\n      dup2\n        /* \"Ghosper-NFT-Staking-MasterChef.sol\":21823:22418  if (success) {\r... */\n      iszero\n      tag_411\n      jumpi\n        /* \"Ghosper-NFT-Staking-MasterChef.sol\":21858:21868  returndata */\n      dup1\n        /* \"Ghosper-NFT-Staking-MasterChef.sol\":21851:21868  return returndata */\n      swap3\n      pop\n      pop\n      pop\n      jump(tag_400)\n        /* \"Ghosper-NFT-Staking-MasterChef.sol\":21823:22418  if (success) {\r... */\n    tag_411:\n        /* \"Ghosper-NFT-Staking-MasterChef.sol\":21992:21993  0 */\n      0x00\n        /* \"Ghosper-NFT-Staking-MasterChef.sol\":21972:21982  returndata */\n      dup2\n        /* \"Ghosper-NFT-Staking-MasterChef.sol\":21972:21989  returndata.length */\n      mload\n        /* \"Ghosper-NFT-Staking-MasterChef.sol\":21972:21993  returndata.length > 0 */\n      gt\n        /* \"Ghosper-NFT-Staking-MasterChef.sol\":21968:22407  if (returndata.length > 0) {\r... */\n      iszero\n      tag_413\n      jumpi\n        /* \"Ghosper-NFT-Staking-MasterChef.sol\":22235:22245  returndata */\n      dup1\n        /* \"Ghosper-NFT-Staking-MasterChef.sol\":22229:22246  mload(returndata) */\n      mload\n        /* \"Ghosper-NFT-Staking-MasterChef.sol\":22296:22311  returndata_size */\n      dup1\n        /* \"Ghosper-NFT-Staking-MasterChef.sol\":22283:22293  returndata */\n      dup3\n        /* \"Ghosper-NFT-Staking-MasterChef.sol\":22279:22281  32 */\n      0x20\n        /* \"Ghosper-NFT-Staking-MasterChef.sol\":22275:22294  add(32, returndata) */\n      add\n        /* \"Ghosper-NFT-Staking-MasterChef.sol\":22268:22312  revert(add(32, returndata), returndata_size) */\n      revert\n        /* \"Ghosper-NFT-Staking-MasterChef.sol\":21968:22407  if (returndata.length > 0) {\r... */\n    tag_413:\n        /* \"Ghosper-NFT-Staking-MasterChef.sol\":22378:22390  errorMessage */\n      dup4\n        /* \"Ghosper-NFT-Staking-MasterChef.sol\":22371:22391  revert(errorMessage) */\n      mload(0x40)\n      0x08c379a000000000000000000000000000000000000000000000000000000000\n      dup2\n      mstore\n      0x04\n      add\n      tag_415\n      swap2\n      swap1\n      tag_416\n      jump\t// in\n    tag_415:\n      mload(0x40)\n      dup1\n      swap2\n      sub\n      swap1\n      revert\n        /* \"Ghosper-NFT-Staking-MasterChef.sol\":21446:22425  function _functionCallWithValue(address target, bytes memory data, uint256 weiValue, string memory errorMessage) private returns (bytes memory) {\r... */\n    tag_400:\n      swap5\n      swap4\n      pop\n      pop\n      pop\n      pop\n      jump\t// out\n        /* \"Ghosper-NFT-Staking-MasterChef.sol\":16954:17573  function isContract(address account) internal view returns (bool) {\r... */\n    tag_402:\n        /* \"Ghosper-NFT-Staking-MasterChef.sol\":17014:17018  bool */\n      0x00\n        /* \"Ghosper-NFT-Staking-MasterChef.sol\":17276:17292  bytes32 codehash */\n      dup1\n        /* \"Ghosper-NFT-Staking-MasterChef.sol\":17303:17322  bytes32 accountHash */\n      0x00\n        /* \"Ghosper-NFT-Staking-MasterChef.sol\":17325:17391  0xc5d2460186f7233c927e7db2dcc703c0e500b653ca82273b7bfad8045d85a470 */\n      0xc5d2460186f7233c927e7db2dcc703c0e500b653ca82273b7bfad8045d85a470\n        /* \"Ghosper-NFT-Staking-MasterChef.sol\":17303:17391  bytes32 accountHash = 0xc5d2460186f7233c927e7db2dcc703c0e500b653ca82273b7bfad8045d85a470 */\n      0x00\n      shl\n      swap1\n      pop\n        /* \"Ghosper-NFT-Staking-MasterChef.sol\":17494:17501  account */\n      dup4\n        /* \"Ghosper-NFT-Staking-MasterChef.sol\":17482:17502  extcodehash(account) */\n      extcodehash\n        /* \"Ghosper-NFT-Staking-MasterChef.sol\":17470:17502  codehash := extcodehash(account) */\n      swap2\n      pop\n        /* \"Ghosper-NFT-Staking-MasterChef.sol\":17534:17545  accountHash */\n      dup1\n        /* \"Ghosper-NFT-Staking-MasterChef.sol\":17522:17530  codehash */\n      dup3\n        /* \"Ghosper-NFT-Staking-MasterChef.sol\":17522:17545  codehash != accountHash */\n      eq\n      iszero\n        /* \"Ghosper-NFT-Staking-MasterChef.sol\":17522:17564  codehash != accountHash && codehash != 0x0 */\n      dup1\n      iszero\n      tag_418\n      jumpi\n      pop\n        /* \"Ghosper-NFT-Staking-MasterChef.sol\":17561:17564  0x0 */\n      0x00\n        /* \"Ghosper-NFT-Staking-MasterChef.sol\":17549:17564  codehash != 0x0 */\n      dup1\n      shl\n        /* \"Ghosper-NFT-Staking-MasterChef.sol\":17549:17557  codehash */\n      dup3\n        /* \"Ghosper-NFT-Staking-MasterChef.sol\":17549:17564  codehash != 0x0 */\n      eq\n      iszero\n        /* \"Ghosper-NFT-Staking-MasterChef.sol\":17522:17564  codehash != accountHash && codehash != 0x0 */\n    tag_418:\n        /* \"Ghosper-NFT-Staking-MasterChef.sol\":17514:17565  return (codehash != accountHash && codehash != 0x0) */\n      swap3\n      pop\n      pop\n      pop\n        /* \"Ghosper-NFT-Staking-MasterChef.sol\":16954:17573  function isContract(address account) internal view returns (bool) {\r... */\n      swap2\n      swap1\n      pop\n      jump\t// out\n        /* \"#utility.yul\":7:146   */\n    tag_420:\n        /* \"#utility.yul\":53:58   */\n      0x00\n        /* \"#utility.yul\":91:97   */\n      dup2\n        /* \"#utility.yul\":78:98   */\n      calldataload\n        /* \"#utility.yul\":69:98   */\n      swap1\n      pop\n        /* \"#utility.yul\":107:140   */\n      tag_422\n        /* \"#utility.yul\":134:139   */\n      dup2\n        /* \"#utility.yul\":107:140   */\n      tag_423\n      jump\t// in\n    tag_422:\n        /* \"#utility.yul\":7:146   */\n      swap3\n      swap2\n      pop\n      pop\n      jump\t// out\n        /* \"#utility.yul\":169:737   */\n    tag_424:\n        /* \"#utility.yul\":242:250   */\n      0x00\n        /* \"#utility.yul\":252:258   */\n      dup1\n        /* \"#utility.yul\":302:305   */\n      dup4\n        /* \"#utility.yul\":295:299   */\n      0x1f\n        /* \"#utility.yul\":287:293   */\n      dup5\n        /* \"#utility.yul\":283:300   */\n      add\n        /* \"#utility.yul\":279:306   */\n      slt\n        /* \"#utility.yul\":269:391   */\n      tag_426\n      jumpi\n        /* \"#utility.yul\":310:389   */\n      tag_427\n      tag_428\n      jump\t// in\n    tag_427:\n        /* \"#utility.yul\":269:391   */\n    tag_426:\n        /* \"#utility.yul\":423:429   */\n      dup3\n        /* \"#utility.yul\":410:430   */\n      calldataload\n        /* \"#utility.yul\":400:430   */\n      swap1\n      pop\n        /* \"#utility.yul\":453:471   */\n      0xffffffffffffffff\n        /* \"#utility.yul\":445:451   */\n      dup2\n        /* \"#utility.yul\":442:472   */\n      gt\n        /* \"#utility.yul\":439:556   */\n      iszero\n      tag_429\n      jumpi\n        /* \"#utility.yul\":475:554   */\n      tag_430\n      tag_431\n      jump\t// in\n    tag_430:\n        /* \"#utility.yul\":439:556   */\n    tag_429:\n        /* \"#utility.yul\":589:593   */\n      0x20\n        /* \"#utility.yul\":581:587   */\n      dup4\n        /* \"#utility.yul\":577:594   */\n      add\n        /* \"#utility.yul\":565:594   */\n      swap2\n      pop\n        /* \"#utility.yul\":643:646   */\n      dup4\n        /* \"#utility.yul\":635:639   */\n      0x20\n        /* \"#utility.yul\":627:633   */\n      dup3\n        /* \"#utility.yul\":623:640   */\n      mul\n        /* \"#utility.yul\":613:621   */\n      dup4\n        /* \"#utility.yul\":609:641   */\n      add\n        /* \"#utility.yul\":606:647   */\n      gt\n        /* \"#utility.yul\":603:731   */\n      iszero\n      tag_432\n      jumpi\n        /* \"#utility.yul\":650:729   */\n      tag_433\n      tag_434\n      jump\t// in\n    tag_433:\n        /* \"#utility.yul\":603:731   */\n    tag_432:\n        /* \"#utility.yul\":169:737   */\n      swap3\n      pop\n      swap3\n      swap1\n      pop\n      jump\t// out\n        /* \"#utility.yul\":743:880   */\n    tag_435:\n        /* \"#utility.yul\":797:802   */\n      0x00\n        /* \"#utility.yul\":828:834   */\n      dup2\n        /* \"#utility.yul\":822:835   */\n      mload\n        /* \"#utility.yul\":813:835   */\n      swap1\n      pop\n        /* \"#utility.yul\":844:874   */\n      tag_437\n        /* \"#utility.yul\":868:873   */\n      dup2\n        /* \"#utility.yul\":844:874   */\n      tag_438\n      jump\t// in\n    tag_437:\n        /* \"#utility.yul\":743:880   */\n      swap3\n      swap2\n      pop\n      pop\n      jump\t// out\n        /* \"#utility.yul\":886:1025   */\n    tag_439:\n        /* \"#utility.yul\":932:937   */\n      0x00\n        /* \"#utility.yul\":970:976   */\n      dup2\n        /* \"#utility.yul\":957:977   */\n      calldataload\n        /* \"#utility.yul\":948:977   */\n      swap1\n      pop\n        /* \"#utility.yul\":986:1019   */\n      tag_441\n        /* \"#utility.yul\":1013:1018   */\n      dup2\n        /* \"#utility.yul\":986:1019   */\n      tag_442\n      jump\t// in\n    tag_441:\n        /* \"#utility.yul\":886:1025   */\n      swap3\n      swap2\n      pop\n      pop\n      jump\t// out\n        /* \"#utility.yul\":1031:1360   */\n    tag_38:\n        /* \"#utility.yul\":1090:1096   */\n      0x00\n        /* \"#utility.yul\":1139:1141   */\n      0x20\n        /* \"#utility.yul\":1127:1136   */\n      dup3\n        /* \"#utility.yul\":1118:1125   */\n      dup5\n        /* \"#utility.yul\":1114:1137   */\n      sub\n        /* \"#utility.yul\":1110:1142   */\n      slt\n        /* \"#utility.yul\":1107:1226   */\n      iszero\n      tag_444\n      jumpi\n        /* \"#utility.yul\":1145:1224   */\n      tag_445\n      tag_446\n      jump\t// in\n    tag_445:\n        /* \"#utility.yul\":1107:1226   */\n    tag_444:\n        /* \"#utility.yul\":1265:1266   */\n      0x00\n        /* \"#utility.yul\":1290:1343   */\n      tag_447\n        /* \"#utility.yul\":1335:1342   */\n      dup5\n        /* \"#utility.yul\":1326:1332   */\n      dup3\n        /* \"#utility.yul\":1315:1324   */\n      dup6\n        /* \"#utility.yul\":1311:1333   */\n      add\n        /* \"#utility.yul\":1290:1343   */\n      tag_420\n      jump\t// in\n    tag_447:\n        /* \"#utility.yul\":1280:1343   */\n      swap2\n      pop\n        /* \"#utility.yul\":1236:1353   */\n      pop\n        /* \"#utility.yul\":1031:1360   */\n      swap3\n      swap2\n      pop\n      pop\n      jump\t// out\n        /* \"#utility.yul\":1366:1925   */\n    tag_30:\n        /* \"#utility.yul\":1452:1458   */\n      0x00\n        /* \"#utility.yul\":1460:1466   */\n      dup1\n        /* \"#utility.yul\":1509:1511   */\n      0x20\n        /* \"#utility.yul\":1497:1506   */\n      dup4\n        /* \"#utility.yul\":1488:1495   */\n      dup6\n        /* \"#utility.yul\":1484:1507   */\n      sub\n        /* \"#utility.yul\":1480:1512   */\n      slt\n        /* \"#utility.yul\":1477:1596   */\n      iszero\n      tag_449\n      jumpi\n        /* \"#utility.yul\":1515:1594   */\n      tag_450\n      tag_446\n      jump\t// in\n    tag_450:\n        /* \"#utility.yul\":1477:1596   */\n    tag_449:\n        /* \"#utility.yul\":1663:1664   */\n      0x00\n        /* \"#utility.yul\":1652:1661   */\n      dup4\n        /* \"#utility.yul\":1648:1665   */\n      add\n        /* \"#utility.yul\":1635:1666   */\n      calldataload\n        /* \"#utility.yul\":1693:1711   */\n      0xffffffffffffffff\n        /* \"#utility.yul\":1685:1691   */\n      dup2\n        /* \"#utility.yul\":1682:1712   */\n      gt\n        /* \"#utility.yul\":1679:1796   */\n      iszero\n      tag_451\n      jumpi\n        /* \"#utility.yul\":1715:1794   */\n      tag_452\n      tag_453\n      jump\t// in\n    tag_452:\n        /* \"#utility.yul\":1679:1796   */\n    tag_451:\n        /* \"#utility.yul\":1828:1908   */\n      tag_454\n        /* \"#utility.yul\":1900:1907   */\n      dup6\n        /* \"#utility.yul\":1891:1897   */\n      dup3\n        /* \"#utility.yul\":1880:1889   */\n      dup7\n        /* \"#utility.yul\":1876:1898   */\n      add\n        /* \"#utility.yul\":1828:1908   */\n      tag_424\n      jump\t// in\n    tag_454:\n        /* \"#utility.yul\":1810:1908   */\n      swap3\n      pop\n      swap3\n      pop\n        /* \"#utility.yul\":1606:1918   */\n      pop\n        /* \"#utility.yul\":1366:1925   */\n      swap3\n      pop\n      swap3\n      swap1\n      pop\n      jump\t// out\n        /* \"#utility.yul\":1931:2276   */\n    tag_393:\n        /* \"#utility.yul\":1998:2004   */\n      0x00\n        /* \"#utility.yul\":2047:2049   */\n      0x20\n        /* \"#utility.yul\":2035:2044   */\n      dup3\n        /* \"#utility.yul\":2026:2033   */\n      dup5\n        /* \"#utility.yul\":2022:2045   */\n      sub\n        /* \"#utility.yul\":2018:2050   */\n      slt\n        /* \"#utility.yul\":2015:2134   */\n      iszero\n      tag_456\n      jumpi\n        /* \"#utility.yul\":2053:2132   */\n      tag_457\n      tag_446\n      jump\t// in\n    tag_457:\n        /* \"#utility.yul\":2015:2134   */\n    tag_456:\n        /* \"#utility.yul\":2173:2174   */\n      0x00\n        /* \"#utility.yul\":2198:2259   */\n      tag_458\n        /* \"#utility.yul\":2251:2258   */\n      dup5\n        /* \"#utility.yul\":2242:2248   */\n      dup3\n        /* \"#utility.yul\":2231:2240   */\n      dup6\n        /* \"#utility.yul\":2227:2249   */\n      add\n        /* \"#utility.yul\":2198:2259   */\n      tag_435\n      jump\t// in\n    tag_458:\n        /* \"#utility.yul\":2188:2259   */\n      swap2\n      pop\n        /* \"#utility.yul\":2144:2269   */\n      pop\n        /* \"#utility.yul\":1931:2276   */\n      swap3\n      swap2\n      pop\n      pop\n      jump\t// out\n        /* \"#utility.yul\":2282:2611   */\n    tag_48:\n        /* \"#utility.yul\":2341:2347   */\n      0x00\n        /* \"#utility.yul\":2390:2392   */\n      0x20\n        /* \"#utility.yul\":2378:2387   */\n      dup3\n        /* \"#utility.yul\":2369:2376   */\n      dup5\n        /* \"#utility.yul\":2365:2388   */\n      sub\n        /* \"#utility.yul\":2361:2393   */\n      slt\n        /* \"#utility.yul\":2358:2477   */\n      iszero\n      tag_460\n      jumpi\n        /* \"#utility.yul\":2396:2475   */\n      tag_461\n      tag_446\n      jump\t// in\n    tag_461:\n        /* \"#utility.yul\":2358:2477   */\n    tag_460:\n        /* \"#utility.yul\":2516:2517   */\n      0x00\n        /* \"#utility.yul\":2541:2594   */\n      tag_462\n        /* \"#utility.yul\":2586:2593   */\n      dup5\n        /* \"#utility.yul\":2577:2583   */\n      dup3\n        /* \"#utility.yul\":2566:2575   */\n      dup6\n        /* \"#utility.yul\":2562:2584   */\n      add\n        /* \"#utility.yul\":2541:2594   */\n      tag_439\n      jump\t// in\n    tag_462:\n        /* \"#utility.yul\":2531:2594   */\n      swap2\n      pop\n        /* \"#utility.yul\":2487:2604   */\n      pop\n        /* \"#utility.yul\":2282:2611   */\n      swap3\n      swap2\n      pop\n      pop\n      jump\t// out\n        /* \"#utility.yul\":2617:3091   */\n    tag_57:\n        /* \"#utility.yul\":2685:2691   */\n      0x00\n        /* \"#utility.yul\":2693:2699   */\n      dup1\n        /* \"#utility.yul\":2742:2744   */\n      0x40\n        /* \"#utility.yul\":2730:2739   */\n      dup4\n        /* \"#utility.yul\":2721:2728   */\n      dup6\n        /* \"#utility.yul\":2717:2740   */\n      sub\n        /* \"#utility.yul\":2713:2745   */\n      slt\n        /* \"#utility.yul\":2710:2829   */\n      iszero\n      tag_464\n      jumpi\n        /* \"#utility.yul\":2748:2827   */\n      tag_465\n      tag_446\n      jump\t// in\n    tag_465:\n        /* \"#utility.yul\":2710:2829   */\n    tag_464:\n        /* \"#utility.yul\":2868:2869   */\n      0x00\n        /* \"#utility.yul\":2893:2946   */\n      tag_466\n        /* \"#utility.yul\":2938:2945   */\n      dup6\n        /* \"#utility.yul\":2929:2935   */\n      dup3\n        /* \"#utility.yul\":2918:2927   */\n      dup7\n        /* \"#utility.yul\":2914:2936   */\n      add\n        /* \"#utility.yul\":2893:2946   */\n      tag_439\n      jump\t// in\n    tag_466:\n        /* \"#utility.yul\":2883:2946   */\n      swap3\n      pop\n        /* \"#utility.yul\":2839:2956   */\n      pop\n        /* \"#utility.yul\":2995:2997   */\n      0x20\n        /* \"#utility.yul\":3021:3074   */\n      tag_467\n        /* \"#utility.yul\":3066:3073   */\n      dup6\n        /* \"#utility.yul\":3057:3063   */\n      dup3\n        /* \"#utility.yul\":3046:3055   */\n      dup7\n        /* \"#utility.yul\":3042:3064   */\n      add\n        /* \"#utility.yul\":3021:3074   */\n      tag_439\n      jump\t// in\n    tag_467:\n        /* \"#utility.yul\":3011:3074   */\n      swap2\n      pop\n        /* \"#utility.yul\":2966:3084   */\n      pop\n        /* \"#utility.yul\":2617:3091   */\n      swap3\n      pop\n      swap3\n      swap1\n      pop\n      jump\t// out\n        /* \"#utility.yul\":3097:3716   */\n    tag_34:\n        /* \"#utility.yul\":3174:3180   */\n      0x00\n        /* \"#utility.yul\":3182:3188   */\n      dup1\n        /* \"#utility.yul\":3190:3196   */\n      0x00\n        /* \"#utility.yul\":3239:3241   */\n      0x60\n        /* \"#utility.yul\":3227:3236   */\n      dup5\n        /* \"#utility.yul\":3218:3225   */\n      dup7\n        /* \"#utility.yul\":3214:3237   */\n      sub\n        /* \"#utility.yul\":3210:3242   */\n      slt\n        /* \"#utility.yul\":3207:3326   */\n      iszero\n      tag_469\n      jumpi\n        /* \"#utility.yul\":3245:3324   */\n      tag_470\n      tag_446\n      jump\t// in\n    tag_470:\n        /* \"#utility.yul\":3207:3326   */\n    tag_469:\n        /* \"#utility.yul\":3365:3366   */\n      0x00\n        /* \"#utility.yul\":3390:3443   */\n      tag_471\n        /* \"#utility.yul\":3435:3442   */\n      dup7\n        /* \"#utility.yul\":3426:3432   */\n      dup3\n        /* \"#utility.yul\":3415:3424   */\n      dup8\n        /* \"#utility.yul\":3411:3433   */\n      add\n        /* \"#utility.yul\":3390:3443   */\n      tag_439\n      jump\t// in\n    tag_471:\n        /* \"#utility.yul\":3380:3443   */\n      swap4\n      pop\n        /* \"#utility.yul\":3336:3453   */\n      pop\n        /* \"#utility.yul\":3492:3494   */\n      0x20\n        /* \"#utility.yul\":3518:3571   */\n      tag_472\n        /* \"#utility.yul\":3563:3570   */\n      dup7\n        /* \"#utility.yul\":3554:3560   */\n      dup3\n        /* \"#utility.yul\":3543:3552   */\n      dup8\n        /* \"#utility.yul\":3539:3561   */\n      add\n        /* \"#utility.yul\":3518:3571   */\n      tag_439\n      jump\t// in\n    tag_472:\n        /* \"#utility.yul\":3508:3571   */\n      swap3\n      pop\n        /* \"#utility.yul\":3463:3581   */\n      pop\n        /* \"#utility.yul\":3620:3622   */\n      0x40\n        /* \"#utility.yul\":3646:3699   */\n      tag_473\n        /* \"#utility.yul\":3691:3698   */\n      dup7\n        /* \"#utility.yul\":3682:3688   */\n      dup3\n        /* \"#utility.yul\":3671:3680   */\n      dup8\n        /* \"#utility.yul\":3667:3689   */\n      add\n        /* \"#utility.yul\":3646:3699   */\n      tag_439\n      jump\t// in\n    tag_473:\n        /* \"#utility.yul\":3636:3699   */\n      swap2\n      pop\n        /* \"#utility.yul\":3591:3709   */\n      pop\n        /* \"#utility.yul\":3097:3716   */\n      swap3\n      pop\n      swap3\n      pop\n      swap3\n      jump\t// out\n        /* \"#utility.yul\":3722:3840   */\n    tag_474:\n        /* \"#utility.yul\":3809:3833   */\n      tag_476\n        /* \"#utility.yul\":3827:3832   */\n      dup2\n        /* \"#utility.yul\":3809:3833   */\n      tag_477\n      jump\t// in\n    tag_476:\n        /* \"#utility.yul\":3804:3807   */\n      dup3\n        /* \"#utility.yul\":3797:3834   */\n      mstore\n        /* \"#utility.yul\":3722:3840   */\n      pop\n      pop\n      jump\t// out\n        /* \"#utility.yul\":3876:4413   */\n    tag_478:\n        /* \"#utility.yul\":4004:4007   */\n      0x00\n        /* \"#utility.yul\":4025:4111   */\n      tag_480\n        /* \"#utility.yul\":4104:4110   */\n      dup4\n        /* \"#utility.yul\":4099:4102   */\n      dup6\n        /* \"#utility.yul\":4025:4111   */\n      tag_481\n      jump\t// in\n    tag_480:\n        /* \"#utility.yul\":4018:4111   */\n      swap4\n      pop\n        /* \"#utility.yul\":4135:4201   */\n      0x07ffffffffffffffffffffffffffffffffffffffffffffffffffffffffffffff\n        /* \"#utility.yul\":4127:4133   */\n      dup4\n        /* \"#utility.yul\":4124:4202   */\n      gt\n        /* \"#utility.yul\":4121:4286   */\n      iszero\n      tag_482\n      jumpi\n        /* \"#utility.yul\":4205:4284   */\n      tag_483\n      tag_484\n      jump\t// in\n    tag_483:\n        /* \"#utility.yul\":4121:4286   */\n    tag_482:\n        /* \"#utility.yul\":4317:4321   */\n      0x20\n        /* \"#utility.yul\":4309:4315   */\n      dup4\n        /* \"#utility.yul\":4305:4322   */\n      mul\n        /* \"#utility.yul\":4295:4322   */\n      swap3\n      pop\n        /* \"#utility.yul\":4332:4375   */\n      tag_485\n        /* \"#utility.yul\":4368:4374   */\n      dup4\n        /* \"#utility.yul\":4363:4366   */\n      dup6\n        /* \"#utility.yul\":4356:4361   */\n      dup5\n        /* \"#utility.yul\":4332:4375   */\n      tag_486\n      jump\t// in\n    tag_485:\n        /* \"#utility.yul\":4400:4406   */\n      dup3\n        /* \"#utility.yul\":4395:4398   */\n      dup5\n        /* \"#utility.yul\":4391:4407   */\n      add\n        /* \"#utility.yul\":4384:4407   */\n      swap1\n      pop\n        /* \"#utility.yul\":3876:4413   */\n      swap4\n      swap3\n      pop\n      pop\n      pop\n      jump\t// out\n        /* \"#utility.yul\":4419:4792   */\n    tag_487:\n        /* \"#utility.yul\":4523:4526   */\n      0x00\n        /* \"#utility.yul\":4551:4589   */\n      tag_489\n        /* \"#utility.yul\":4583:4588   */\n      dup3\n        /* \"#utility.yul\":4551:4589   */\n      tag_490\n      jump\t// in\n    tag_489:\n        /* \"#utility.yul\":4605:4693   */\n      tag_491\n        /* \"#utility.yul\":4686:4692   */\n      dup2\n        /* \"#utility.yul\":4681:4684   */\n      dup6\n        /* \"#utility.yul\":4605:4693   */\n      tag_492\n      jump\t// in\n    tag_491:\n        /* \"#utility.yul\":4598:4693   */\n      swap4\n      pop\n        /* \"#utility.yul\":4702:4754   */\n      tag_493\n        /* \"#utility.yul\":4747:4753   */\n      dup2\n        /* \"#utility.yul\":4742:4745   */\n      dup6\n        /* \"#utility.yul\":4735:4739   */\n      0x20\n        /* \"#utility.yul\":4728:4733   */\n      dup7\n        /* \"#utility.yul\":4724:4740   */\n      add\n        /* \"#utility.yul\":4702:4754   */\n      tag_494\n      jump\t// in\n    tag_493:\n        /* \"#utility.yul\":4779:4785   */\n      dup1\n        /* \"#utility.yul\":4774:4777   */\n      dup5\n        /* \"#utility.yul\":4770:4786   */\n      add\n        /* \"#utility.yul\":4763:4786   */\n      swap2\n      pop\n        /* \"#utility.yul\":4527:4792   */\n      pop\n        /* \"#utility.yul\":4419:4792   */\n      swap3\n      swap2\n      pop\n      pop\n      jump\t// out\n        /* \"#utility.yul\":4798:4957   */\n    tag_495:\n        /* \"#utility.yul\":4899:4950   */\n      tag_497\n        /* \"#utility.yul\":4944:4949   */\n      dup2\n        /* \"#utility.yul\":4899:4950   */\n      tag_498\n      jump\t// in\n    tag_497:\n        /* \"#utility.yul\":4894:4897   */\n      dup3\n        /* \"#utility.yul\":4887:4951   */\n      mstore\n        /* \"#utility.yul\":4798:4957   */\n      pop\n      pop\n      jump\t// out\n        /* \"#utility.yul\":4963:5126   */\n    tag_499:\n        /* \"#utility.yul\":5066:5119   */\n      tag_501\n        /* \"#utility.yul\":5113:5118   */\n      dup2\n        /* \"#utility.yul\":5066:5119   */\n      tag_502\n      jump\t// in\n    tag_501:\n        /* \"#utility.yul\":5061:5064   */\n      dup3\n        /* \"#utility.yul\":5054:5120   */\n      mstore\n        /* \"#utility.yul\":4963:5126   */\n      pop\n      pop\n      jump\t// out\n        /* \"#utility.yul\":5132:5496   */\n    tag_503:\n        /* \"#utility.yul\":5220:5223   */\n      0x00\n        /* \"#utility.yul\":5248:5287   */\n      tag_505\n        /* \"#utility.yul\":5281:5286   */\n      dup3\n        /* \"#utility.yul\":5248:5287   */\n      tag_506\n      jump\t// in\n    tag_505:\n        /* \"#utility.yul\":5303:5374   */\n      tag_507\n        /* \"#utility.yul\":5367:5373   */\n      dup2\n        /* \"#utility.yul\":5362:5365   */\n      dup6\n        /* \"#utility.yul\":5303:5374   */\n      tag_508\n      jump\t// in\n    tag_507:\n        /* \"#utility.yul\":5296:5374   */\n      swap4\n      pop\n        /* \"#utility.yul\":5383:5435   */\n      tag_509\n        /* \"#utility.yul\":5428:5434   */\n      dup2\n        /* \"#utility.yul\":5423:5426   */\n      dup6\n        /* \"#utility.yul\":5416:5420   */\n      0x20\n        /* \"#utility.yul\":5409:5414   */\n      dup7\n        /* \"#utility.yul\":5405:5421   */\n      add\n        /* \"#utility.yul\":5383:5435   */\n      tag_494\n      jump\t// in\n    tag_509:\n        /* \"#utility.yul\":5460:5489   */\n      tag_510\n        /* \"#utility.yul\":5482:5488   */\n      dup2\n        /* \"#utility.yul\":5460:5489   */\n      tag_511\n      jump\t// in\n    tag_510:\n        /* \"#utility.yul\":5455:5458   */\n      dup5\n        /* \"#utility.yul\":5451:5490   */\n      add\n        /* \"#utility.yul\":5444:5490   */\n      swap2\n      pop\n        /* \"#utility.yul\":5224:5496   */\n      pop\n        /* \"#utility.yul\":5132:5496   */\n      swap3\n      swap2\n      pop\n      pop\n      jump\t// out\n        /* \"#utility.yul\":5502:5868   */\n    tag_512:\n        /* \"#utility.yul\":5644:5647   */\n      0x00\n        /* \"#utility.yul\":5665:5732   */\n      tag_514\n        /* \"#utility.yul\":5729:5731   */\n      0x1b\n        /* \"#utility.yul\":5724:5727   */\n      dup4\n        /* \"#utility.yul\":5665:5732   */\n      tag_508\n      jump\t// in\n    tag_514:\n        /* \"#utility.yul\":5658:5732   */\n      swap2\n      pop\n        /* \"#utility.yul\":5741:5834   */\n      tag_515\n        /* \"#utility.yul\":5830:5833   */\n      dup3\n        /* \"#utility.yul\":5741:5834   */\n      tag_516\n      jump\t// in\n    tag_515:\n        /* \"#utility.yul\":5859:5861   */\n      0x20\n        /* \"#utility.yul\":5854:5857   */\n      dup3\n        /* \"#utility.yul\":5850:5862   */\n      add\n        /* \"#utility.yul\":5843:5862   */\n      swap1\n      pop\n        /* \"#utility.yul\":5502:5868   */\n      swap2\n      swap1\n      pop\n      jump\t// out\n        /* \"#utility.yul\":5874:6240   */\n    tag_517:\n        /* \"#utility.yul\":6016:6019   */\n      0x00\n        /* \"#utility.yul\":6037:6104   */\n      tag_519\n        /* \"#utility.yul\":6101:6103   */\n      0x18\n        /* \"#utility.yul\":6096:6099   */\n      dup4\n        /* \"#utility.yul\":6037:6104   */\n      tag_508\n      jump\t// in\n    tag_519:\n        /* \"#utility.yul\":6030:6104   */\n      swap2\n      pop\n        /* \"#utility.yul\":6113:6206   */\n      tag_520\n        /* \"#utility.yul\":6202:6205   */\n      dup3\n        /* \"#utility.yul\":6113:6206   */\n      tag_521\n      jump\t// in\n    tag_520:\n        /* \"#utility.yul\":6231:6233   */\n      0x20\n        /* \"#utility.yul\":6226:6229   */\n      dup3\n        /* \"#utility.yul\":6222:6234   */\n      add\n        /* \"#utility.yul\":6215:6234   */\n      swap1\n      pop\n        /* \"#utility.yul\":5874:6240   */\n      swap2\n      swap1\n      pop\n      jump\t// out\n        /* \"#utility.yul\":6246:6612   */\n    tag_522:\n        /* \"#utility.yul\":6388:6391   */\n      0x00\n        /* \"#utility.yul\":6409:6476   */\n      tag_524\n        /* \"#utility.yul\":6473:6475   */\n      0x1b\n        /* \"#utility.yul\":6468:6471   */\n      dup4\n        /* \"#utility.yul\":6409:6476   */\n      tag_508\n      jump\t// in\n    tag_524:\n        /* \"#utility.yul\":6402:6476   */\n      swap2\n      pop\n        /* \"#utility.yul\":6485:6578   */\n      tag_525\n        /* \"#utility.yul\":6574:6577   */\n      dup3\n        /* \"#utility.yul\":6485:6578   */\n      tag_526\n      jump\t// in\n    tag_525:\n        /* \"#utility.yul\":6603:6605   */\n      0x20\n        /* \"#utility.yul\":6598:6601   */\n      dup3\n        /* \"#utility.yul\":6594:6606   */\n      add\n        /* \"#utility.yul\":6587:6606   */\n      swap1\n      pop\n        /* \"#utility.yul\":6246:6612   */\n      swap2\n      swap1\n      pop\n      jump\t// out\n        /* \"#utility.yul\":6618:6984   */\n    tag_527:\n        /* \"#utility.yul\":6760:6763   */\n      0x00\n        /* \"#utility.yul\":6781:6848   */\n      tag_529\n        /* \"#utility.yul\":6845:6847   */\n      0x1e\n        /* \"#utility.yul\":6840:6843   */\n      dup4\n        /* \"#utility.yul\":6781:6848   */\n      tag_508\n      jump\t// in\n    tag_529:\n        /* \"#utility.yul\":6774:6848   */\n      swap2\n      pop\n        /* \"#utility.yul\":6857:6950   */\n      tag_530\n        /* \"#utility.yul\":6946:6949   */\n      dup3\n        /* \"#utility.yul\":6857:6950   */\n      tag_531\n      jump\t// in\n    tag_530:\n        /* \"#utility.yul\":6975:6977   */\n      0x20\n        /* \"#utility.yul\":6970:6973   */\n      dup3\n        /* \"#utility.yul\":6966:6978   */\n      add\n        /* \"#utility.yul\":6959:6978   */\n      swap1\n      pop\n        /* \"#utility.yul\":6618:6984   */\n      swap2\n      swap1\n      pop\n      jump\t// out\n        /* \"#utility.yul\":6990:7356   */\n    tag_532:\n        /* \"#utility.yul\":7132:7135   */\n      0x00\n        /* \"#utility.yul\":7153:7220   */\n      tag_534\n        /* \"#utility.yul\":7217:7219   */\n      0x2a\n        /* \"#utility.yul\":7212:7215   */\n      dup4\n        /* \"#utility.yul\":7153:7220   */\n      tag_508\n      jump\t// in\n    tag_534:\n        /* \"#utility.yul\":7146:7220   */\n      swap2\n      pop\n        /* \"#utility.yul\":7229:7322   */\n      tag_535\n        /* \"#utility.yul\":7318:7321   */\n      dup3\n        /* \"#utility.yul\":7229:7322   */\n      tag_536\n      jump\t// in\n    tag_535:\n        /* \"#utility.yul\":7347:7349   */\n      0x40\n        /* \"#utility.yul\":7342:7345   */\n      dup3\n        /* \"#utility.yul\":7338:7350   */\n      add\n        /* \"#utility.yul\":7331:7350   */\n      swap1\n      pop\n        /* \"#utility.yul\":6990:7356   */\n      swap2\n      swap1\n      pop\n      jump\t// out\n        /* \"#utility.yul\":7362:7728   */\n    tag_537:\n        /* \"#utility.yul\":7504:7507   */\n      0x00\n        /* \"#utility.yul\":7525:7592   */\n      tag_539\n        /* \"#utility.yul\":7589:7591   */\n      0x26\n        /* \"#utility.yul\":7584:7587   */\n      dup4\n        /* \"#utility.yul\":7525:7592   */\n      tag_508\n      jump\t// in\n    tag_539:\n        /* \"#utility.yul\":7518:7592   */\n      swap2\n      pop\n        /* \"#utility.yul\":7601:7694   */\n      tag_540\n        /* \"#utility.yul\":7690:7693   */\n      dup3\n        /* \"#utility.yul\":7601:7694   */\n      tag_541\n      jump\t// in\n    tag_540:\n        /* \"#utility.yul\":7719:7721   */\n      0x40\n        /* \"#utility.yul\":7714:7717   */\n      dup3\n        /* \"#utility.yul\":7710:7722   */\n      add\n        /* \"#utility.yul\":7703:7722   */\n      swap1\n      pop\n        /* \"#utility.yul\":7362:7728   */\n      swap2\n      swap1\n      pop\n      jump\t// out\n        /* \"#utility.yul\":7734:8100   */\n    tag_542:\n        /* \"#utility.yul\":7876:7879   */\n      0x00\n        /* \"#utility.yul\":7897:7964   */\n      tag_544\n        /* \"#utility.yul\":7961:7963   */\n      0x1e\n        /* \"#utility.yul\":7956:7959   */\n      dup4\n        /* \"#utility.yul\":7897:7964   */\n      tag_508\n      jump\t// in\n    tag_544:\n        /* \"#utility.yul\":7890:7964   */\n      swap2\n      pop\n        /* \"#utility.yul\":7973:8066   */\n      tag_545\n        /* \"#utility.yul\":8062:8065   */\n      dup3\n        /* \"#utility.yul\":7973:8066   */\n      tag_546\n      jump\t// in\n    tag_545:\n        /* \"#utility.yul\":8091:8093   */\n      0x20\n        /* \"#utility.yul\":8086:8089   */\n      dup3\n        /* \"#utility.yul\":8082:8094   */\n      add\n        /* \"#utility.yul\":8075:8094   */\n      swap1\n      pop\n        /* \"#utility.yul\":7734:8100   */\n      swap2\n      swap1\n      pop\n      jump\t// out\n        /* \"#utility.yul\":8106:8472   */\n    tag_547:\n        /* \"#utility.yul\":8248:8251   */\n      0x00\n        /* \"#utility.yul\":8269:8336   */\n      tag_549\n        /* \"#utility.yul\":8333:8335   */\n      0x1b\n        /* \"#utility.yul\":8328:8331   */\n      dup4\n        /* \"#utility.yul\":8269:8336   */\n      tag_508\n      jump\t// in\n    tag_549:\n        /* \"#utility.yul\":8262:8336   */\n      swap2\n      pop\n        /* \"#utility.yul\":8345:8438   */\n      tag_550\n        /* \"#utility.yul\":8434:8437   */\n      dup3\n        /* \"#utility.yul\":8345:8438   */\n      tag_551\n      jump\t// in\n    tag_550:\n        /* \"#utility.yul\":8463:8465   */\n      0x20\n        /* \"#utility.yul\":8458:8461   */\n      dup3\n        /* \"#utility.yul\":8454:8466   */\n      add\n        /* \"#utility.yul\":8447:8466   */\n      swap1\n      pop\n        /* \"#utility.yul\":8106:8472   */\n      swap2\n      swap1\n      pop\n      jump\t// out\n        /* \"#utility.yul\":8478:8844   */\n    tag_552:\n        /* \"#utility.yul\":8620:8623   */\n      0x00\n        /* \"#utility.yul\":8641:8708   */\n      tag_554\n        /* \"#utility.yul\":8705:8707   */\n      0x31\n        /* \"#utility.yul\":8700:8703   */\n      dup4\n        /* \"#utility.yul\":8641:8708   */\n      tag_508\n      jump\t// in\n    tag_554:\n        /* \"#utility.yul\":8634:8708   */\n      swap2\n      pop\n        /* \"#utility.yul\":8717:8810   */\n      tag_555\n        /* \"#utility.yul\":8806:8809   */\n      dup3\n        /* \"#utility.yul\":8717:8810   */\n      tag_556\n      jump\t// in\n    tag_555:\n        /* \"#utility.yul\":8835:8837   */\n      0x40\n        /* \"#utility.yul\":8830:8833   */\n      dup3\n        /* \"#utility.yul\":8826:8838   */\n      add\n        /* \"#utility.yul\":8819:8838   */\n      swap1\n      pop\n        /* \"#utility.yul\":8478:8844   */\n      swap2\n      swap1\n      pop\n      jump\t// out\n        /* \"#utility.yul\":8850:9216   */\n    tag_557:\n        /* \"#utility.yul\":8992:8995   */\n      0x00\n        /* \"#utility.yul\":9013:9080   */\n      tag_559\n        /* \"#utility.yul\":9077:9079   */\n      0x22\n        /* \"#utility.yul\":9072:9075   */\n      dup4\n        /* \"#utility.yul\":9013:9080   */\n      tag_508\n      jump\t// in\n    tag_559:\n        /* \"#utility.yul\":9006:9080   */\n      swap2\n      pop\n        /* \"#utility.yul\":9089:9182   */\n      tag_560\n        /* \"#utility.yul\":9178:9181   */\n      dup3\n        /* \"#utility.yul\":9089:9182   */\n      tag_561\n      jump\t// in\n    tag_560:\n        /* \"#utility.yul\":9207:9209   */\n      0x40\n        /* \"#utility.yul\":9202:9205   */\n      dup3\n        /* \"#utility.yul\":9198:9210   */\n      add\n        /* \"#utility.yul\":9191:9210   */\n      swap1\n      pop\n        /* \"#utility.yul\":8850:9216   */\n      swap2\n      swap1\n      pop\n      jump\t// out\n        /* \"#utility.yul\":9222:9588   */\n    tag_562:\n        /* \"#utility.yul\":9364:9367   */\n      0x00\n        /* \"#utility.yul\":9385:9452   */\n      tag_564\n        /* \"#utility.yul\":9449:9451   */\n      0x1f\n        /* \"#utility.yul\":9444:9447   */\n      dup4\n        /* \"#utility.yul\":9385:9452   */\n      tag_508\n      jump\t// in\n    tag_564:\n        /* \"#utility.yul\":9378:9452   */\n      swap2\n      pop\n        /* \"#utility.yul\":9461:9554   */\n      tag_565\n        /* \"#utility.yul\":9550:9553   */\n      dup3\n        /* \"#utility.yul\":9461:9554   */\n      tag_566\n      jump\t// in\n    tag_565:\n        /* \"#utility.yul\":9579:9581   */\n      0x20\n        /* \"#utility.yul\":9574:9577   */\n      dup3\n        /* \"#utility.yul\":9570:9582   */\n      add\n        /* \"#utility.yul\":9563:9582   */\n      swap1\n      pop\n        /* \"#utility.yul\":9222:9588   */\n      swap2\n      swap1\n      pop\n      jump\t// out\n        /* \"#utility.yul\":9594:9960   */\n    tag_567:\n        /* \"#utility.yul\":9736:9739   */\n      0x00\n        /* \"#utility.yul\":9757:9824   */\n      tag_569\n        /* \"#utility.yul\":9821:9823   */\n      0x18\n        /* \"#utility.yul\":9816:9819   */\n      dup4\n        /* \"#utility.yul\":9757:9824   */\n      tag_508\n      jump\t// in\n    tag_569:\n        /* \"#utility.yul\":9750:9824   */\n      swap2\n      pop\n        /* \"#utility.yul\":9833:9926   */\n      tag_570\n        /* \"#utility.yul\":9922:9925   */\n      dup3\n        /* \"#utility.yul\":9833:9926   */\n      tag_571\n      jump\t// in\n    tag_570:\n        /* \"#utility.yul\":9951:9953   */\n      0x20\n        /* \"#utility.yul\":9946:9949   */\n      dup3\n        /* \"#utility.yul\":9942:9954   */\n      add\n        /* \"#utility.yul\":9935:9954   */\n      swap1\n      pop\n        /* \"#utility.yul\":9594:9960   */\n      swap2\n      swap1\n      pop\n      jump\t// out\n        /* \"#utility.yul\":9966:10332   */\n    tag_572:\n        /* \"#utility.yul\":10108:10111   */\n      0x00\n        /* \"#utility.yul\":10129:10196   */\n      tag_574\n        /* \"#utility.yul\":10193:10195   */\n      0x22\n        /* \"#utility.yul\":10188:10191   */\n      dup4\n        /* \"#utility.yul\":10129:10196   */\n      tag_508\n      jump\t// in\n    tag_574:\n        /* \"#utility.yul\":10122:10196   */\n      swap2\n      pop\n        /* \"#utility.yul\":10205:10298   */\n      tag_575\n        /* \"#utility.yul\":10294:10297   */\n      dup3\n        /* \"#utility.yul\":10205:10298   */\n      tag_576\n      jump\t// in\n    tag_575:\n        /* \"#utility.yul\":10323:10325   */\n      0x40\n        /* \"#utility.yul\":10318:10321   */\n      dup3\n        /* \"#utility.yul\":10314:10326   */\n      add\n        /* \"#utility.yul\":10307:10326   */\n      swap1\n      pop\n        /* \"#utility.yul\":9966:10332   */\n      swap2\n      swap1\n      pop\n      jump\t// out\n        /* \"#utility.yul\":10338:10704   */\n    tag_577:\n        /* \"#utility.yul\":10480:10483   */\n      0x00\n        /* \"#utility.yul\":10501:10568   */\n      tag_579\n        /* \"#utility.yul\":10565:10567   */\n      0x20\n        /* \"#utility.yul\":10560:10563   */\n      dup4\n        /* \"#utility.yul\":10501:10568   */\n      tag_508\n      jump\t// in\n    tag_579:\n        /* \"#utility.yul\":10494:10568   */\n      swap2\n      pop\n        /* \"#utility.yul\":10577:10670   */\n      tag_580\n        /* \"#utility.yul\":10666:10669   */\n      dup3\n        /* \"#utility.yul\":10577:10670   */\n      tag_581\n      jump\t// in\n    tag_580:\n        /* \"#utility.yul\":10695:10697   */\n      0x20\n        /* \"#utility.yul\":10690:10693   */\n      dup3\n        /* \"#utility.yul\":10686:10698   */\n      add\n        /* \"#utility.yul\":10679:10698   */\n      swap1\n      pop\n        /* \"#utility.yul\":10338:10704   */\n      swap2\n      swap1\n      pop\n      jump\t// out\n        /* \"#utility.yul\":10710:11076   */\n    tag_582:\n        /* \"#utility.yul\":10852:10855   */\n      0x00\n        /* \"#utility.yul\":10873:10940   */\n      tag_584\n        /* \"#utility.yul\":10937:10939   */\n      0x1e\n        /* \"#utility.yul\":10932:10935   */\n      dup4\n        /* \"#utility.yul\":10873:10940   */\n      tag_508\n      jump\t// in\n    tag_584:\n        /* \"#utility.yul\":10866:10940   */\n      swap2\n      pop\n        /* \"#utility.yul\":10949:11042   */\n      tag_585\n        /* \"#utility.yul\":11038:11041   */\n      dup3\n        /* \"#utility.yul\":10949:11042   */\n      tag_586\n      jump\t// in\n    tag_585:\n        /* \"#utility.yul\":11067:11069   */\n      0x20\n        /* \"#utility.yul\":11062:11065   */\n      dup3\n        /* \"#utility.yul\":11058:11070   */\n      add\n        /* \"#utility.yul\":11051:11070   */\n      swap1\n      pop\n        /* \"#utility.yul\":10710:11076   */\n      swap2\n      swap1\n      pop\n      jump\t// out\n        /* \"#utility.yul\":11082:11448   */\n    tag_587:\n        /* \"#utility.yul\":11224:11227   */\n      0x00\n        /* \"#utility.yul\":11245:11312   */\n      tag_589\n        /* \"#utility.yul\":11309:11311   */\n      0x1f\n        /* \"#utility.yul\":11304:11307   */\n      dup4\n        /* \"#utility.yul\":11245:11312   */\n      tag_508\n      jump\t// in\n    tag_589:\n        /* \"#utility.yul\":11238:11312   */\n      swap2\n      pop\n        /* \"#utility.yul\":11321:11414   */\n      tag_590\n        /* \"#utility.yul\":11410:11413   */\n      dup3\n        /* \"#utility.yul\":11321:11414   */\n      tag_591\n      jump\t// in\n    tag_590:\n        /* \"#utility.yul\":11439:11441   */\n      0x20\n        /* \"#utility.yul\":11434:11437   */\n      dup3\n        /* \"#utility.yul\":11430:11442   */\n      add\n        /* \"#utility.yul\":11423:11442   */\n      swap1\n      pop\n        /* \"#utility.yul\":11082:11448   */\n      swap2\n      swap1\n      pop\n      jump\t// out\n        /* \"#utility.yul\":11454:11820   */\n    tag_592:\n        /* \"#utility.yul\":11596:11599   */\n      0x00\n        /* \"#utility.yul\":11617:11684   */\n      tag_594\n        /* \"#utility.yul\":11681:11683   */\n      0x22\n        /* \"#utility.yul\":11676:11679   */\n      dup4\n        /* \"#utility.yul\":11617:11684   */\n      tag_508\n      jump\t// in\n    tag_594:\n        /* \"#utility.yul\":11610:11684   */\n      swap2\n      pop\n        /* \"#utility.yul\":11693:11786   */\n      tag_595\n        /* \"#utility.yul\":11782:11785   */\n      dup3\n        /* \"#utility.yul\":11693:11786   */\n      tag_596\n      jump\t// in\n    tag_595:\n        /* \"#utility.yul\":11811:11813   */\n      0x40\n        /* \"#utility.yul\":11806:11809   */\n      dup3\n        /* \"#utility.yul\":11802:11814   */\n      add\n        /* \"#utility.yul\":11795:11814   */\n      swap1\n      pop\n        /* \"#utility.yul\":11454:11820   */\n      swap2\n      swap1\n      pop\n      jump\t// out\n        /* \"#utility.yul\":11826:12192   */\n    tag_597:\n        /* \"#utility.yul\":11968:11971   */\n      0x00\n        /* \"#utility.yul\":11989:12056   */\n      tag_599\n        /* \"#utility.yul\":12053:12055   */\n      0x1d\n        /* \"#utility.yul\":12048:12051   */\n      dup4\n        /* \"#utility.yul\":11989:12056   */\n      tag_508\n      jump\t// in\n    tag_599:\n        /* \"#utility.yul\":11982:12056   */\n      swap2\n      pop\n        /* \"#utility.yul\":12065:12158   */\n      tag_600\n        /* \"#utility.yul\":12154:12157   */\n      dup3\n        /* \"#utility.yul\":12065:12158   */\n      tag_601\n      jump\t// in\n    tag_600:\n        /* \"#utility.yul\":12183:12185   */\n      0x20\n        /* \"#utility.yul\":12178:12181   */\n      dup3\n        /* \"#utility.yul\":12174:12186   */\n      add\n        /* \"#utility.yul\":12167:12186   */\n      swap1\n      pop\n        /* \"#utility.yul\":11826:12192   */\n      swap2\n      swap1\n      pop\n      jump\t// out\n        /* \"#utility.yul\":12198:12316   */\n    tag_602:\n        /* \"#utility.yul\":12285:12309   */\n      tag_604\n        /* \"#utility.yul\":12303:12308   */\n      dup2\n        /* \"#utility.yul\":12285:12309   */\n      tag_605\n      jump\t// in\n    tag_604:\n        /* \"#utility.yul\":12280:12283   */\n      dup3\n        /* \"#utility.yul\":12273:12310   */\n      mstore\n        /* \"#utility.yul\":12198:12316   */\n      pop\n      pop\n      jump\t// out\n        /* \"#utility.yul\":12322:12593   */\n    tag_407:\n        /* \"#utility.yul\":12452:12455   */\n      0x00\n        /* \"#utility.yul\":12474:12567   */\n      tag_607\n        /* \"#utility.yul\":12563:12566   */\n      dup3\n        /* \"#utility.yul\":12554:12560   */\n      dup5\n        /* \"#utility.yul\":12474:12567   */\n      tag_487\n      jump\t// in\n    tag_607:\n        /* \"#utility.yul\":12467:12567   */\n      swap2\n      pop\n        /* \"#utility.yul\":12584:12587   */\n      dup2\n        /* \"#utility.yul\":12577:12587   */\n      swap1\n      pop\n        /* \"#utility.yul\":12322:12593   */\n      swap3\n      swap2\n      pop\n      pop\n      jump\t// out\n        /* \"#utility.yul\":12599:12821   */\n    tag_80:\n        /* \"#utility.yul\":12692:12696   */\n      0x00\n        /* \"#utility.yul\":12730:12732   */\n      0x20\n        /* \"#utility.yul\":12719:12728   */\n      dup3\n        /* \"#utility.yul\":12715:12733   */\n      add\n        /* \"#utility.yul\":12707:12733   */\n      swap1\n      pop\n        /* \"#utility.yul\":12743:12814   */\n      tag_609\n        /* \"#utility.yul\":12811:12812   */\n      0x00\n        /* \"#utility.yul\":12800:12809   */\n      dup4\n        /* \"#utility.yul\":12796:12813   */\n      add\n        /* \"#utility.yul\":12787:12793   */\n      dup5\n        /* \"#utility.yul\":12743:12814   */\n      tag_474\n      jump\t// in\n    tag_609:\n        /* \"#utility.yul\":12599:12821   */\n      swap3\n      swap2\n      pop\n      pop\n      jump\t// out\n        /* \"#utility.yul\":12827:13269   */\n    tag_157:\n        /* \"#utility.yul\":12976:12980   */\n      0x00\n        /* \"#utility.yul\":13014:13016   */\n      0x60\n        /* \"#utility.yul\":13003:13012   */\n      dup3\n        /* \"#utility.yul\":12999:13017   */\n      add\n        /* \"#utility.yul\":12991:13017   */\n      swap1\n      pop\n        /* \"#utility.yul\":13027:13098   */\n      tag_611\n        /* \"#utility.yul\":13095:13096   */\n      0x00\n        /* \"#utility.yul\":13084:13093   */\n      dup4\n        /* \"#utility.yul\":13080:13097   */\n      add\n        /* \"#utility.yul\":13071:13077   */\n      dup7\n        /* \"#utility.yul\":13027:13098   */\n      tag_474\n      jump\t// in\n    tag_611:\n        /* \"#utility.yul\":13108:13180   */\n      tag_612\n        /* \"#utility.yul\":13176:13178   */\n      0x20\n        /* \"#utility.yul\":13165:13174   */\n      dup4\n        /* \"#utility.yul\":13161:13179   */\n      add\n        /* \"#utility.yul\":13152:13158   */\n      dup6\n        /* \"#utility.yul\":13108:13180   */\n      tag_474\n      jump\t// in\n    tag_612:\n        /* \"#utility.yul\":13190:13262   */\n      tag_613\n        /* \"#utility.yul\":13258:13260   */\n      0x40\n        /* \"#utility.yul\":13247:13256   */\n      dup4\n        /* \"#utility.yul\":13243:13261   */\n      add\n        /* \"#utility.yul\":13234:13240   */\n      dup5\n        /* \"#utility.yul\":13190:13262   */\n      tag_602\n      jump\t// in\n    tag_613:\n        /* \"#utility.yul\":12827:13269   */\n      swap5\n      swap4\n      pop\n      pop\n      pop\n      pop\n      jump\t// out\n        /* \"#utility.yul\":13275:13778   */\n    tag_163:\n        /* \"#utility.yul\":13456:13460   */\n      0x00\n        /* \"#utility.yul\":13494:13496   */\n      0x40\n        /* \"#utility.yul\":13483:13492   */\n      dup3\n        /* \"#utility.yul\":13479:13497   */\n      add\n        /* \"#utility.yul\":13471:13497   */\n      swap1\n      pop\n        /* \"#utility.yul\":13507:13578   */\n      tag_615\n        /* \"#utility.yul\":13575:13576   */\n      0x00\n        /* \"#utility.yul\":13564:13573   */\n      dup4\n        /* \"#utility.yul\":13560:13577   */\n      add\n        /* \"#utility.yul\":13551:13557   */\n      dup7\n        /* \"#utility.yul\":13507:13578   */\n      tag_474\n      jump\t// in\n    tag_615:\n        /* \"#utility.yul\":13625:13634   */\n      dup2\n        /* \"#utility.yul\":13619:13623   */\n      dup2\n        /* \"#utility.yul\":13615:13635   */\n      sub\n        /* \"#utility.yul\":13610:13612   */\n      0x20\n        /* \"#utility.yul\":13599:13608   */\n      dup4\n        /* \"#utility.yul\":13595:13613   */\n      add\n        /* \"#utility.yul\":13588:13636   */\n      mstore\n        /* \"#utility.yul\":13653:13771   */\n      tag_616\n        /* \"#utility.yul\":13766:13770   */\n      dup2\n        /* \"#utility.yul\":13757:13763   */\n      dup5\n        /* \"#utility.yul\":13749:13755   */\n      dup7\n        /* \"#utility.yul\":13653:13771   */\n      tag_478\n      jump\t// in\n    tag_616:\n        /* \"#utility.yul\":13645:13771   */\n      swap1\n      pop\n        /* \"#utility.yul\":13275:13778   */\n      swap5\n      swap4\n      pop\n      pop\n      pop\n      pop\n      jump\t// out\n        /* \"#utility.yul\":13784:14034   */\n    tag_45:\n        /* \"#utility.yul\":13891:13895   */\n      0x00\n        /* \"#utility.yul\":13929:13931   */\n      0x20\n        /* \"#utility.yul\":13918:13927   */\n      dup3\n        /* \"#utility.yul\":13914:13932   */\n      add\n        /* \"#utility.yul\":13906:13932   */\n      swap1\n      pop\n        /* \"#utility.yul\":13942:14027   */\n      tag_618\n        /* \"#utility.yul\":14024:14025   */\n      0x00\n        /* \"#utility.yul\":14013:14022   */\n      dup4\n        /* \"#utility.yul\":14009:14026   */\n      add\n        /* \"#utility.yul\":14000:14006   */\n      dup5\n        /* \"#utility.yul\":13942:14027   */\n      tag_495\n      jump\t// in\n    tag_618:\n        /* \"#utility.yul\":13784:14034   */\n      swap3\n      swap2\n      pop\n      pop\n      jump\t// out\n        /* \"#utility.yul\":14040:14294   */\n    tag_100:\n        /* \"#utility.yul\":14149:14153   */\n      0x00\n        /* \"#utility.yul\":14187:14189   */\n      0x20\n        /* \"#utility.yul\":14176:14185   */\n      dup3\n        /* \"#utility.yul\":14172:14190   */\n      add\n        /* \"#utility.yul\":14164:14190   */\n      swap1\n      pop\n        /* \"#utility.yul\":14200:14287   */\n      tag_620\n        /* \"#utility.yul\":14284:14285   */\n      0x00\n        /* \"#utility.yul\":14273:14282   */\n      dup4\n        /* \"#utility.yul\":14269:14286   */\n      add\n        /* \"#utility.yul\":14260:14266   */\n      dup5\n        /* \"#utility.yul\":14200:14287   */\n      tag_499\n      jump\t// in\n    tag_620:\n        /* \"#utility.yul\":14040:14294   */\n      swap3\n      swap2\n      pop\n      pop\n      jump\t// out\n        /* \"#utility.yul\":14300:14613   */\n    tag_416:\n        /* \"#utility.yul\":14413:14417   */\n      0x00\n        /* \"#utility.yul\":14451:14453   */\n      0x20\n        /* \"#utility.yul\":14440:14449   */\n      dup3\n        /* \"#utility.yul\":14436:14454   */\n      add\n        /* \"#utility.yul\":14428:14454   */\n      swap1\n      pop\n        /* \"#utility.yul\":14500:14509   */\n      dup2\n        /* \"#utility.yul\":14494:14498   */\n      dup2\n        /* \"#utility.yul\":14490:14510   */\n      sub\n        /* \"#utility.yul\":14486:14487   */\n      0x00\n        /* \"#utility.yul\":14475:14484   */\n      dup4\n        /* \"#utility.yul\":14471:14488   */\n      add\n        /* \"#utility.yul\":14464:14511   */\n      mstore\n        /* \"#utility.yul\":14528:14606   */\n      tag_622\n        /* \"#utility.yul\":14601:14605   */\n      dup2\n        /* \"#utility.yul\":14592:14598   */\n      dup5\n        /* \"#utility.yul\":14528:14606   */\n      tag_503\n      jump\t// in\n    tag_622:\n        /* \"#utility.yul\":14520:14606   */\n      swap1\n      pop\n        /* \"#utility.yul\":14300:14613   */\n      swap3\n      swap2\n      pop\n      pop\n      jump\t// out\n        /* \"#utility.yul\":14619:15038   */\n    tag_261:\n        /* \"#utility.yul\":14785:14789   */\n      0x00\n        /* \"#utility.yul\":14823:14825   */\n      0x20\n        /* \"#utility.yul\":14812:14821   */\n      dup3\n        /* \"#utility.yul\":14808:14826   */\n      add\n        /* \"#utility.yul\":14800:14826   */\n      swap1\n      pop\n        /* \"#utility.yul\":14872:14881   */\n      dup2\n        /* \"#utility.yul\":14866:14870   */\n      dup2\n        /* \"#utility.yul\":14862:14882   */\n      sub\n        /* \"#utility.yul\":14858:14859   */\n      0x00\n        /* \"#utility.yul\":14847:14856   */\n      dup4\n        /* \"#utility.yul\":14843:14860   */\n      add\n        /* \"#utility.yul\":14836:14883   */\n      mstore\n        /* \"#utility.yul\":14900:15031   */\n      tag_624\n        /* \"#utility.yul\":15026:15030   */\n      dup2\n        /* \"#utility.yul\":14900:15031   */\n      tag_512\n      jump\t// in\n    tag_624:\n        /* \"#utility.yul\":14892:15031   */\n      swap1\n      pop\n        /* \"#utility.yul\":14619:15038   */\n      swap2\n      swap1\n      pop\n      jump\t// out\n        /* \"#utility.yul\":15044:15463   */\n    tag_110:\n        /* \"#utility.yul\":15210:15214   */\n      0x00\n        /* \"#utility.yul\":15248:15250   */\n      0x20\n        /* \"#utility.yul\":15237:15246   */\n      dup3\n        /* \"#utility.yul\":15233:15251   */\n      add\n        /* \"#utility.yul\":15225:15251   */\n      swap1\n      pop\n        /* \"#utility.yul\":15297:15306   */\n      dup2\n        /* \"#utility.yul\":15291:15295   */\n      dup2\n        /* \"#utility.yul\":15287:15307   */\n      sub\n        /* \"#utility.yul\":15283:15284   */\n      0x00\n        /* \"#utility.yul\":15272:15281   */\n      dup4\n        /* \"#utility.yul\":15268:15285   */\n      add\n        /* \"#utility.yul\":15261:15308   */\n      mstore\n        /* \"#utility.yul\":15325:15456   */\n      tag_626\n        /* \"#utility.yul\":15451:15455   */\n      dup2\n        /* \"#utility.yul\":15325:15456   */\n      tag_517\n      jump\t// in\n    tag_626:\n        /* \"#utility.yul\":15317:15456   */\n      swap1\n      pop\n        /* \"#utility.yul\":15044:15463   */\n      swap2\n      swap1\n      pop\n      jump\t// out\n        /* \"#utility.yul\":15469:15888   */\n    tag_177:\n        /* \"#utility.yul\":15635:15639   */\n      0x00\n        /* \"#utility.yul\":15673:15675   */\n      0x20\n        /* \"#utility.yul\":15662:15671   */\n      dup3\n        /* \"#utility.yul\":15658:15676   */\n      add\n        /* \"#utility.yul\":15650:15676   */\n      swap1\n      pop\n        /* \"#utility.yul\":15722:15731   */\n      dup2\n        /* \"#utility.yul\":15716:15720   */\n      dup2\n        /* \"#utility.yul\":15712:15732   */\n      sub\n        /* \"#utility.yul\":15708:15709   */\n      0x00\n        /* \"#utility.yul\":15697:15706   */\n      dup4\n        /* \"#utility.yul\":15693:15710   */\n      add\n        /* \"#utility.yul\":15686:15733   */\n      mstore\n        /* \"#utility.yul\":15750:15881   */\n      tag_628\n        /* \"#utility.yul\":15876:15880   */\n      dup2\n        /* \"#utility.yul\":15750:15881   */\n      tag_522\n      jump\t// in\n    tag_628:\n        /* \"#utility.yul\":15742:15881   */\n      swap1\n      pop\n        /* \"#utility.yul\":15469:15888   */\n      swap2\n      swap1\n      pop\n      jump\t// out\n        /* \"#utility.yul\":15894:16313   */\n    tag_264:\n        /* \"#utility.yul\":16060:16064   */\n      0x00\n        /* \"#utility.yul\":16098:16100   */\n      0x20\n        /* \"#utility.yul\":16087:16096   */\n      dup3\n        /* \"#utility.yul\":16083:16101   */\n      add\n        /* \"#utility.yul\":16075:16101   */\n      swap1\n      pop\n        /* \"#utility.yul\":16147:16156   */\n      dup2\n        /* \"#utility.yul\":16141:16145   */\n      dup2\n        /* \"#utility.yul\":16137:16157   */\n      sub\n        /* \"#utility.yul\":16133:16134   */\n      0x00\n        /* \"#utility.yul\":16122:16131   */\n      dup4\n        /* \"#utility.yul\":16118:16135   */\n      add\n        /* \"#utility.yul\":16111:16158   */\n      mstore\n        /* \"#utility.yul\":16175:16306   */\n      tag_630\n        /* \"#utility.yul\":16301:16305   */\n      dup2\n        /* \"#utility.yul\":16175:16306   */\n      tag_527\n      jump\t// in\n    tag_630:\n        /* \"#utility.yul\":16167:16306   */\n      swap1\n      pop\n        /* \"#utility.yul\":15894:16313   */\n      swap2\n      swap1\n      pop\n      jump\t// out\n        /* \"#utility.yul\":16319:16738   */\n    tag_396:\n        /* \"#utility.yul\":16485:16489   */\n      0x00\n        /* \"#utility.yul\":16523:16525   */\n      0x20\n        /* \"#utility.yul\":16512:16521   */\n      dup3\n        /* \"#utility.yul\":16508:16526   */\n      add\n        /* \"#utility.yul\":16500:16526   */\n      swap1\n      pop\n        /* \"#utility.yul\":16572:16581   */\n      dup2\n        /* \"#utility.yul\":16566:16570   */\n      dup2\n        /* \"#utility.yul\":16562:16582   */\n      sub\n        /* \"#utility.yul\":16558:16559   */\n      0x00\n        /* \"#utility.yul\":16547:16556   */\n      dup4\n        /* \"#utility.yul\":16543:16560   */\n      add\n        /* \"#utility.yul\":16536:16583   */\n      mstore\n        /* \"#utility.yul\":16600:16731   */\n      tag_632\n        /* \"#utility.yul\":16726:16730   */\n      dup2\n        /* \"#utility.yul\":16600:16731   */\n      tag_532\n      jump\t// in\n    tag_632:\n        /* \"#utility.yul\":16592:16731   */\n      swap1\n      pop\n        /* \"#utility.yul\":16319:16738   */\n      swap2\n      swap1\n      pop\n      jump\t// out\n        /* \"#utility.yul\":16744:17163   */\n    tag_355:\n        /* \"#utility.yul\":16910:16914   */\n      0x00\n        /* \"#utility.yul\":16948:16950   */\n      0x20\n        /* \"#utility.yul\":16937:16946   */\n      dup3\n        /* \"#utility.yul\":16933:16951   */\n      add\n        /* \"#utility.yul\":16925:16951   */\n      swap1\n      pop\n        /* \"#utility.yul\":16997:17006   */\n      dup2\n        /* \"#utility.yul\":16991:16995   */\n      dup2\n        /* \"#utility.yul\":16987:17007   */\n      sub\n        /* \"#utility.yul\":16983:16984   */\n      0x00\n        /* \"#utility.yul\":16972:16981   */\n      dup4\n        /* \"#utility.yul\":16968:16985   */\n      add\n        /* \"#utility.yul\":16961:17008   */\n      mstore\n        /* \"#utility.yul\":17025:17156   */\n      tag_634\n        /* \"#utility.yul\":17151:17155   */\n      dup2\n        /* \"#utility.yul\":17025:17156   */\n      tag_537\n      jump\t// in\n    tag_634:\n        /* \"#utility.yul\":17017:17156   */\n      swap1\n      pop\n        /* \"#utility.yul\":16744:17163   */\n      swap2\n      swap1\n      pop\n      jump\t// out\n        /* \"#utility.yul\":17169:17588   */\n    tag_180:\n        /* \"#utility.yul\":17335:17339   */\n      0x00\n        /* \"#utility.yul\":17373:17375   */\n      0x20\n        /* \"#utility.yul\":17362:17371   */\n      dup3\n        /* \"#utility.yul\":17358:17376   */\n      add\n        /* \"#utility.yul\":17350:17376   */\n      swap1\n      pop\n        /* \"#utility.yul\":17422:17431   */\n      dup2\n        /* \"#utility.yul\":17416:17420   */\n      dup2\n        /* \"#utility.yul\":17412:17432   */\n      sub\n        /* \"#utility.yul\":17408:17409   */\n      0x00\n        /* \"#utility.yul\":17397:17406   */\n      dup4\n        /* \"#utility.yul\":17393:17410   */\n      add\n        /* \"#utility.yul\":17386:17433   */\n      mstore\n        /* \"#utility.yul\":17450:17581   */\n      tag_636\n        /* \"#utility.yul\":17576:17580   */\n      dup2\n        /* \"#utility.yul\":17450:17581   */\n      tag_542\n      jump\t// in\n    tag_636:\n        /* \"#utility.yul\":17442:17581   */\n      swap1\n      pop\n        /* \"#utility.yul\":17169:17588   */\n      swap2\n      swap1\n      pop\n      jump\t// out\n        /* \"#utility.yul\":17594:18013   */\n    tag_323:\n        /* \"#utility.yul\":17760:17764   */\n      0x00\n        /* \"#utility.yul\":17798:17800   */\n      0x20\n        /* \"#utility.yul\":17787:17796   */\n      dup3\n        /* \"#utility.yul\":17783:17801   */\n      add\n        /* \"#utility.yul\":17775:17801   */\n      swap1\n      pop\n        /* \"#utility.yul\":17847:17856   */\n      dup2\n        /* \"#utility.yul\":17841:17845   */\n      dup2\n        /* \"#utility.yul\":17837:17857   */\n      sub\n        /* \"#utility.yul\":17833:17834   */\n      0x00\n        /* \"#utility.yul\":17822:17831   */\n      dup4\n        /* \"#utility.yul\":17818:17835   */\n      add\n        /* \"#utility.yul\":17811:17858   */\n      mstore\n        /* \"#utility.yul\":17875:18006   */\n      tag_638\n        /* \"#utility.yul\":18001:18005   */\n      dup2\n        /* \"#utility.yul\":17875:18006   */\n      tag_547\n      jump\t// in\n    tag_638:\n        /* \"#utility.yul\":17867:18006   */\n      swap1\n      pop\n        /* \"#utility.yul\":17594:18013   */\n      swap2\n      swap1\n      pop\n      jump\t// out\n        /* \"#utility.yul\":18019:18438   */\n    tag_131:\n        /* \"#utility.yul\":18185:18189   */\n      0x00\n        /* \"#utility.yul\":18223:18225   */\n      0x20\n        /* \"#utility.yul\":18212:18221   */\n      dup3\n        /* \"#utility.yul\":18208:18226   */\n      add\n        /* \"#utility.yul\":18200:18226   */\n      swap1\n      pop\n        /* \"#utility.yul\":18272:18281   */\n      dup2\n        /* \"#utility.yul\":18266:18270   */\n      dup2\n        /* \"#utility.yul\":18262:18282   */\n      sub\n        /* \"#utility.yul\":18258:18259   */\n      0x00\n        /* \"#utility.yul\":18247:18256   */\n      dup4\n        /* \"#utility.yul\":18243:18260   */\n      add\n        /* \"#utility.yul\":18236:18283   */\n      mstore\n        /* \"#utility.yul\":18300:18431   */\n      tag_640\n        /* \"#utility.yul\":18426:18430   */\n      dup2\n        /* \"#utility.yul\":18300:18431   */\n      tag_552\n      jump\t// in\n    tag_640:\n        /* \"#utility.yul\":18292:18431   */\n      swap1\n      pop\n        /* \"#utility.yul\":18019:18438   */\n      swap2\n      swap1\n      pop\n      jump\t// out\n        /* \"#utility.yul\":18444:18863   */\n    tag_119:\n        /* \"#utility.yul\":18610:18614   */\n      0x00\n        /* \"#utility.yul\":18648:18650   */\n      0x20\n        /* \"#utility.yul\":18637:18646   */\n      dup3\n        /* \"#utility.yul\":18633:18651   */\n      add\n        /* \"#utility.yul\":18625:18651   */\n      swap1\n      pop\n        /* \"#utility.yul\":18697:18706   */\n      dup2\n        /* \"#utility.yul\":18691:18695   */\n      dup2\n        /* \"#utility.yul\":18687:18707   */\n      sub\n        /* \"#utility.yul\":18683:18684   */\n      0x00\n        /* \"#utility.yul\":18672:18681   */\n      dup4\n        /* \"#utility.yul\":18668:18685   */\n      add\n        /* \"#utility.yul\":18661:18708   */\n      mstore\n        /* \"#utility.yul\":18725:18856   */\n      tag_642\n        /* \"#utility.yul\":18851:18855   */\n      dup2\n        /* \"#utility.yul\":18725:18856   */\n      tag_557\n      jump\t// in\n    tag_642:\n        /* \"#utility.yul\":18717:18856   */\n      swap1\n      pop\n        /* \"#utility.yul\":18444:18863   */\n      swap2\n      swap1\n      pop\n      jump\t// out\n        /* \"#utility.yul\":18869:19288   */\n    tag_187:\n        /* \"#utility.yul\":19035:19039   */\n      0x00\n        /* \"#utility.yul\":19073:19075   */\n      0x20\n        /* \"#utility.yul\":19062:19071   */\n      dup3\n        /* \"#utility.yul\":19058:19076   */\n      add\n        /* \"#utility.yul\":19050:19076   */\n      swap1\n      pop\n        /* \"#utility.yul\":19122:19131   */\n      dup2\n        /* \"#utility.yul\":19116:19120   */\n      dup2\n        /* \"#utility.yul\":19112:19132   */\n      sub\n        /* \"#utility.yul\":19108:19109   */\n      0x00\n        /* \"#utility.yul\":19097:19106   */\n      dup4\n        /* \"#utility.yul\":19093:19110   */\n      add\n        /* \"#utility.yul\":19086:19133   */\n      mstore\n        /* \"#utility.yul\":19150:19281   */\n      tag_644\n        /* \"#utility.yul\":19276:19280   */\n      dup2\n        /* \"#utility.yul\":19150:19281   */\n      tag_562\n      jump\t// in\n    tag_644:\n        /* \"#utility.yul\":19142:19281   */\n      swap1\n      pop\n        /* \"#utility.yul\":18869:19288   */\n      swap2\n      swap1\n      pop\n      jump\t// out\n        /* \"#utility.yul\":19294:19713   */\n    tag_174:\n        /* \"#utility.yul\":19460:19464   */\n      0x00\n        /* \"#utility.yul\":19498:19500   */\n      0x20\n        /* \"#utility.yul\":19487:19496   */\n      dup3\n        /* \"#utility.yul\":19483:19501   */\n      add\n        /* \"#utility.yul\":19475:19501   */\n      swap1\n      pop\n        /* \"#utility.yul\":19547:19556   */\n      dup2\n        /* \"#utility.yul\":19541:19545   */\n      dup2\n        /* \"#utility.yul\":19537:19557   */\n      sub\n        /* \"#utility.yul\":19533:19534   */\n      0x00\n        /* \"#utility.yul\":19522:19531   */\n      dup4\n        /* \"#utility.yul\":19518:19535   */\n      add\n        /* \"#utility.yul\":19511:19558   */\n      mstore\n        /* \"#utility.yul\":19575:19706   */\n      tag_646\n        /* \"#utility.yul\":19701:19705   */\n      dup2\n        /* \"#utility.yul\":19575:19706   */\n      tag_567\n      jump\t// in\n    tag_646:\n        /* \"#utility.yul\":19567:19706   */\n      swap1\n      pop\n        /* \"#utility.yul\":19294:19713   */\n      swap2\n      swap1\n      pop\n      jump\t// out\n        /* \"#utility.yul\":19719:20138   */\n    tag_278:\n        /* \"#utility.yul\":19885:19889   */\n      0x00\n        /* \"#utility.yul\":19923:19925   */\n      0x20\n        /* \"#utility.yul\":19912:19921   */\n      dup3\n        /* \"#utility.yul\":19908:19926   */\n      add\n        /* \"#utility.yul\":19900:19926   */\n      swap1\n      pop\n        /* \"#utility.yul\":19972:19981   */\n      dup2\n        /* \"#utility.yul\":19966:19970   */\n      dup2\n        /* \"#utility.yul\":19962:19982   */\n      sub\n        /* \"#utility.yul\":19958:19959   */\n      0x00\n        /* \"#utility.yul\":19947:19956   */\n      dup4\n        /* \"#utility.yul\":19943:19960   */\n      add\n        /* \"#utility.yul\":19936:19983   */\n      mstore\n        /* \"#utility.yul\":20000:20131   */\n      tag_648\n        /* \"#utility.yul\":20126:20130   */\n      dup2\n        /* \"#utility.yul\":20000:20131   */\n      tag_572\n      jump\t// in\n    tag_648:\n        /* \"#utility.yul\":19992:20131   */\n      swap1\n      pop\n        /* \"#utility.yul\":19719:20138   */\n      swap2\n      swap1\n      pop\n      jump\t// out\n        /* \"#utility.yul\":20144:20563   */\n    tag_170:\n        /* \"#utility.yul\":20310:20314   */\n      0x00\n        /* \"#utility.yul\":20348:20350   */\n      0x20\n        /* \"#utility.yul\":20337:20346   */\n      dup3\n        /* \"#utility.yul\":20333:20351   */\n      add\n        /* \"#utility.yul\":20325:20351   */\n      swap1\n      pop\n        /* \"#utility.yul\":20397:20406   */\n      dup2\n        /* \"#utility.yul\":20391:20395   */\n      dup2\n        /* \"#utility.yul\":20387:20407   */\n      sub\n        /* \"#utility.yul\":20383:20384   */\n      0x00\n        /* \"#utility.yul\":20372:20381   */\n      dup4\n        /* \"#utility.yul\":20368:20385   */\n      add\n        /* \"#utility.yul\":20361:20408   */\n      mstore\n        /* \"#utility.yul\":20425:20556   */\n      tag_650\n        /* \"#utility.yul\":20551:20555   */\n      dup2\n        /* \"#utility.yul\":20425:20556   */\n      tag_577\n      jump\t// in\n    tag_650:\n        /* \"#utility.yul\":20417:20556   */\n      swap1\n      pop\n        /* \"#utility.yul\":20144:20563   */\n      swap2\n      swap1\n      pop\n      jump\t// out\n        /* \"#utility.yul\":20569:20988   */\n    tag_304:\n        /* \"#utility.yul\":20735:20739   */\n      0x00\n        /* \"#utility.yul\":20773:20775   */\n      0x20\n        /* \"#utility.yul\":20762:20771   */\n      dup3\n        /* \"#utility.yul\":20758:20776   */\n      add\n        /* \"#utility.yul\":20750:20776   */\n      swap1\n      pop\n        /* \"#utility.yul\":20822:20831   */\n      dup2\n        /* \"#utility.yul\":20816:20820   */\n      dup2\n        /* \"#utility.yul\":20812:20832   */\n      sub\n        /* \"#utility.yul\":20808:20809   */\n      0x00\n        /* \"#utility.yul\":20797:20806   */\n      dup4\n        /* \"#utility.yul\":20793:20810   */\n      add\n        /* \"#utility.yul\":20786:20833   */\n      mstore\n        /* \"#utility.yul\":20850:20981   */\n      tag_652\n        /* \"#utility.yul\":20976:20980   */\n      dup2\n        /* \"#utility.yul\":20850:20981   */\n      tag_582\n      jump\t// in\n    tag_652:\n        /* \"#utility.yul\":20842:20981   */\n      swap1\n      pop\n        /* \"#utility.yul\":20569:20988   */\n      swap2\n      swap1\n      pop\n      jump\t// out\n        /* \"#utility.yul\":20994:21413   */\n    tag_271:\n        /* \"#utility.yul\":21160:21164   */\n      0x00\n        /* \"#utility.yul\":21198:21200   */\n      0x20\n        /* \"#utility.yul\":21187:21196   */\n      dup3\n        /* \"#utility.yul\":21183:21201   */\n      add\n        /* \"#utility.yul\":21175:21201   */\n      swap1\n      pop\n        /* \"#utility.yul\":21247:21256   */\n      dup2\n        /* \"#utility.yul\":21241:21245   */\n      dup2\n        /* \"#utility.yul\":21237:21257   */\n      sub\n        /* \"#utility.yul\":21233:21234   */\n      0x00\n        /* \"#utility.yul\":21222:21231   */\n      dup4\n        /* \"#utility.yul\":21218:21235   */\n      add\n        /* \"#utility.yul\":21211:21258   */\n      mstore\n        /* \"#utility.yul\":21275:21406   */\n      tag_654\n        /* \"#utility.yul\":21401:21405   */\n      dup2\n        /* \"#utility.yul\":21275:21406   */\n      tag_587\n      jump\t// in\n    tag_654:\n        /* \"#utility.yul\":21267:21406   */\n      swap1\n      pop\n        /* \"#utility.yul\":20994:21413   */\n      swap2\n      swap1\n      pop\n      jump\t// out\n        /* \"#utility.yul\":21419:21838   */\n    tag_193:\n        /* \"#utility.yul\":21585:21589   */\n      0x00\n        /* \"#utility.yul\":21623:21625   */\n      0x20\n        /* \"#utility.yul\":21612:21621   */\n      dup3\n        /* \"#utility.yul\":21608:21626   */\n      add\n        /* \"#utility.yul\":21600:21626   */\n      swap1\n      pop\n        /* \"#utility.yul\":21672:21681   */\n      dup2\n        /* \"#utility.yul\":21666:21670   */\n      dup2\n        /* \"#utility.yul\":21662:21682   */\n      sub\n        /* \"#utility.yul\":21658:21659   */\n      0x00\n        /* \"#utility.yul\":21647:21656   */\n      dup4\n        /* \"#utility.yul\":21643:21660   */\n      add\n        /* \"#utility.yul\":21636:21683   */\n      mstore\n        /* \"#utility.yul\":21700:21831   */\n      tag_656\n        /* \"#utility.yul\":21826:21830   */\n      dup2\n        /* \"#utility.yul\":21700:21831   */\n      tag_592\n      jump\t// in\n    tag_656:\n        /* \"#utility.yul\":21692:21831   */\n      swap1\n      pop\n        /* \"#utility.yul\":21419:21838   */\n      swap2\n      swap1\n      pop\n      jump\t// out\n        /* \"#utility.yul\":21844:22263   */\n    tag_405:\n        /* \"#utility.yul\":22010:22014   */\n      0x00\n        /* \"#utility.yul\":22048:22050   */\n      0x20\n        /* \"#utility.yul\":22037:22046   */\n      dup3\n        /* \"#utility.yul\":22033:22051   */\n      add\n        /* \"#utility.yul\":22025:22051   */\n      swap1\n      pop\n        /* \"#utility.yul\":22097:22106   */\n      dup2\n        /* \"#utility.yul\":22091:22095   */\n      dup2\n        /* \"#utility.yul\":22087:22107   */\n      sub\n        /* \"#utility.yul\":22083:22084   */\n      0x00\n        /* \"#utility.yul\":22072:22081   */\n      dup4\n        /* \"#utility.yul\":22068:22085   */\n      add\n        /* \"#utility.yul\":22061:22108   */\n      mstore\n        /* \"#utility.yul\":22125:22256   */\n      tag_658\n        /* \"#utility.yul\":22251:22255   */\n      dup2\n        /* \"#utility.yul\":22125:22256   */\n      tag_597\n      jump\t// in\n    tag_658:\n        /* \"#utility.yul\":22117:22256   */\n      swap1\n      pop\n        /* \"#utility.yul\":21844:22263   */\n      swap2\n      swap1\n      pop\n      jump\t// out\n        /* \"#utility.yul\":22269:22491   */\n    tag_62:\n        /* \"#utility.yul\":22362:22366   */\n      0x00\n        /* \"#utility.yul\":22400:22402   */\n      0x20\n        /* \"#utility.yul\":22389:22398   */\n      dup3\n        /* \"#utility.yul\":22385:22403   */\n      add\n        /* \"#utility.yul\":22377:22403   */\n      swap1\n      pop\n        /* \"#utility.yul\":22413:22484   */\n      tag_660\n        /* \"#utility.yul\":22481:22482   */\n      0x00\n        /* \"#utility.yul\":22470:22479   */\n      dup4\n        /* \"#utility.yul\":22466:22483   */\n      add\n        /* \"#utility.yul\":22457:22463   */\n      dup5\n        /* \"#utility.yul\":22413:22484   */\n      tag_602\n      jump\t// in\n    tag_660:\n        /* \"#utility.yul\":22269:22491   */\n      swap3\n      swap2\n      pop\n      pop\n      jump\t// out\n        /* \"#utility.yul\":22497:22829   */\n    tag_51:\n        /* \"#utility.yul\":22618:22622   */\n      0x00\n        /* \"#utility.yul\":22656:22658   */\n      0x40\n        /* \"#utility.yul\":22645:22654   */\n      dup3\n        /* \"#utility.yul\":22641:22659   */\n      add\n        /* \"#utility.yul\":22633:22659   */\n      swap1\n      pop\n        /* \"#utility.yul\":22669:22740   */\n      tag_662\n        /* \"#utility.yul\":22737:22738   */\n      0x00\n        /* \"#utility.yul\":22726:22735   */\n      dup4\n        /* \"#utility.yul\":22722:22739   */\n      add\n        /* \"#utility.yul\":22713:22719   */\n      dup6\n        /* \"#utility.yul\":22669:22740   */\n      tag_602\n      jump\t// in\n    tag_662:\n        /* \"#utility.yul\":22750:22822   */\n      tag_663\n        /* \"#utility.yul\":22818:22820   */\n      0x20\n        /* \"#utility.yul\":22807:22816   */\n      dup4\n        /* \"#utility.yul\":22803:22821   */\n      add\n        /* \"#utility.yul\":22794:22800   */\n      dup5\n        /* \"#utility.yul\":22750:22822   */\n      tag_602\n      jump\t// in\n    tag_663:\n        /* \"#utility.yul\":22497:22829   */\n      swap4\n      swap3\n      pop\n      pop\n      pop\n      jump\t// out\n        /* \"#utility.yul\":22835:23277   */\n    tag_240:\n        /* \"#utility.yul\":22984:22988   */\n      0x00\n        /* \"#utility.yul\":23022:23024   */\n      0x60\n        /* \"#utility.yul\":23011:23020   */\n      dup3\n        /* \"#utility.yul\":23007:23025   */\n      add\n        /* \"#utility.yul\":22999:23025   */\n      swap1\n      pop\n        /* \"#utility.yul\":23035:23106   */\n      tag_665\n        /* \"#utility.yul\":23103:23104   */\n      0x00\n        /* \"#utility.yul\":23092:23101   */\n      dup4\n        /* \"#utility.yul\":23088:23105   */\n      add\n        /* \"#utility.yul\":23079:23085   */\n      dup7\n        /* \"#utility.yul\":23035:23106   */\n      tag_602\n      jump\t// in\n    tag_665:\n        /* \"#utility.yul\":23116:23188   */\n      tag_666\n        /* \"#utility.yul\":23184:23186   */\n      0x20\n        /* \"#utility.yul\":23173:23182   */\n      dup4\n        /* \"#utility.yul\":23169:23187   */\n      add\n        /* \"#utility.yul\":23160:23166   */\n      dup6\n        /* \"#utility.yul\":23116:23188   */\n      tag_602\n      jump\t// in\n    tag_666:\n        /* \"#utility.yul\":23198:23270   */\n      tag_667\n        /* \"#utility.yul\":23266:23268   */\n      0x40\n        /* \"#utility.yul\":23255:23264   */\n      dup4\n        /* \"#utility.yul\":23251:23269   */\n      add\n        /* \"#utility.yul\":23242:23248   */\n      dup5\n        /* \"#utility.yul\":23198:23270   */\n      tag_602\n      jump\t// in\n    tag_667:\n        /* \"#utility.yul\":22835:23277   */\n      swap5\n      swap4\n      pop\n      pop\n      pop\n      pop\n      jump\t// out\n        /* \"#utility.yul\":23283:23836   */\n    tag_41:\n        /* \"#utility.yul\":23460:23464   */\n      0x00\n        /* \"#utility.yul\":23498:23501   */\n      0x80\n        /* \"#utility.yul\":23487:23496   */\n      dup3\n        /* \"#utility.yul\":23483:23502   */\n      add\n        /* \"#utility.yul\":23475:23502   */\n      swap1\n      pop\n        /* \"#utility.yul\":23512:23583   */\n      tag_669\n        /* \"#utility.yul\":23580:23581   */\n      0x00\n        /* \"#utility.yul\":23569:23578   */\n      dup4\n        /* \"#utility.yul\":23565:23582   */\n      add\n        /* \"#utility.yul\":23556:23562   */\n      dup8\n        /* \"#utility.yul\":23512:23583   */\n      tag_602\n      jump\t// in\n    tag_669:\n        /* \"#utility.yul\":23593:23665   */\n      tag_670\n        /* \"#utility.yul\":23661:23663   */\n      0x20\n        /* \"#utility.yul\":23650:23659   */\n      dup4\n        /* \"#utility.yul\":23646:23664   */\n      add\n        /* \"#utility.yul\":23637:23643   */\n      dup7\n        /* \"#utility.yul\":23593:23665   */\n      tag_602\n      jump\t// in\n    tag_670:\n        /* \"#utility.yul\":23675:23747   */\n      tag_671\n        /* \"#utility.yul\":23743:23745   */\n      0x40\n        /* \"#utility.yul\":23732:23741   */\n      dup4\n        /* \"#utility.yul\":23728:23746   */\n      add\n        /* \"#utility.yul\":23719:23725   */\n      dup6\n        /* \"#utility.yul\":23675:23747   */\n      tag_602\n      jump\t// in\n    tag_671:\n        /* \"#utility.yul\":23757:23829   */\n      tag_672\n        /* \"#utility.yul\":23825:23827   */\n      0x60\n        /* \"#utility.yul\":23814:23823   */\n      dup4\n        /* \"#utility.yul\":23810:23828   */\n      add\n        /* \"#utility.yul\":23801:23807   */\n      dup5\n        /* \"#utility.yul\":23757:23829   */\n      tag_602\n      jump\t// in\n    tag_672:\n        /* \"#utility.yul\":23283:23836   */\n      swap6\n      swap5\n      pop\n      pop\n      pop\n      pop\n      pop\n      jump\t// out\n        /* \"#utility.yul\":23923:24021   */\n    tag_490:\n        /* \"#utility.yul\":23974:23980   */\n      0x00\n        /* \"#utility.yul\":24008:24013   */\n      dup2\n        /* \"#utility.yul\":24002:24014   */\n      mload\n        /* \"#utility.yul\":23992:24014   */\n      swap1\n      pop\n        /* \"#utility.yul\":23923:24021   */\n      swap2\n      swap1\n      pop\n      jump\t// out\n        /* \"#utility.yul\":24027:24126   */\n    tag_506:\n        /* \"#utility.yul\":24079:24085   */\n      0x00\n        /* \"#utility.yul\":24113:24118   */\n      dup2\n        /* \"#utility.yul\":24107:24119   */\n      mload\n        /* \"#utility.yul\":24097:24119   */\n      swap1\n      pop\n        /* \"#utility.yul\":24027:24126   */\n      swap2\n      swap1\n      pop\n      jump\t// out\n        /* \"#utility.yul\":24132:24316   */\n    tag_481:\n        /* \"#utility.yul\":24231:24242   */\n      0x00\n        /* \"#utility.yul\":24265:24271   */\n      dup3\n        /* \"#utility.yul\":24260:24263   */\n      dup3\n        /* \"#utility.yul\":24253:24272   */\n      mstore\n        /* \"#utility.yul\":24305:24309   */\n      0x20\n        /* \"#utility.yul\":24300:24303   */\n      dup3\n        /* \"#utility.yul\":24296:24310   */\n      add\n        /* \"#utility.yul\":24281:24310   */\n      swap1\n      pop\n        /* \"#utility.yul\":24132:24316   */\n      swap3\n      swap2\n      pop\n      pop\n      jump\t// out\n        /* \"#utility.yul\":24322:24469   */\n    tag_492:\n        /* \"#utility.yul\":24423:24434   */\n      0x00\n        /* \"#utility.yul\":24460:24463   */\n      dup2\n        /* \"#utility.yul\":24445:24463   */\n      swap1\n      pop\n        /* \"#utility.yul\":24322:24469   */\n      swap3\n      swap2\n      pop\n      pop\n      jump\t// out\n        /* \"#utility.yul\":24475:24644   */\n    tag_508:\n        /* \"#utility.yul\":24559:24570   */\n      0x00\n        /* \"#utility.yul\":24593:24599   */\n      dup3\n        /* \"#utility.yul\":24588:24591   */\n      dup3\n        /* \"#utility.yul\":24581:24600   */\n      mstore\n        /* \"#utility.yul\":24633:24637   */\n      0x20\n        /* \"#utility.yul\":24628:24631   */\n      dup3\n        /* \"#utility.yul\":24624:24638   */\n      add\n        /* \"#utility.yul\":24609:24638   */\n      swap1\n      pop\n        /* \"#utility.yul\":24475:24644   */\n      swap3\n      swap2\n      pop\n      pop\n      jump\t// out\n        /* \"#utility.yul\":24650:24955   */\n    tag_124:\n        /* \"#utility.yul\":24690:24693   */\n      0x00\n        /* \"#utility.yul\":24709:24729   */\n      tag_681\n        /* \"#utility.yul\":24727:24728   */\n      dup3\n        /* \"#utility.yul\":24709:24729   */\n      tag_605\n      jump\t// in\n    tag_681:\n        /* \"#utility.yul\":24704:24729   */\n      swap2\n      pop\n        /* \"#utility.yul\":24743:24763   */\n      tag_682\n        /* \"#utility.yul\":24761:24762   */\n      dup4\n        /* \"#utility.yul\":24743:24763   */\n      tag_605\n      jump\t// in\n    tag_682:\n        /* \"#utility.yul\":24738:24763   */\n      swap3\n      pop\n        /* \"#utility.yul\":24897:24898   */\n      dup3\n        /* \"#utility.yul\":24829:24895   */\n      0xffffffffffffffffffffffffffffffffffffffffffffffffffffffffffffffff\n        /* \"#utility.yul\":24825:24899   */\n      sub\n        /* \"#utility.yul\":24822:24823   */\n      dup3\n        /* \"#utility.yul\":24819:24900   */\n      gt\n        /* \"#utility.yul\":24816:24923   */\n      iszero\n      tag_683\n      jumpi\n        /* \"#utility.yul\":24903:24921   */\n      tag_684\n      tag_685\n      jump\t// in\n    tag_684:\n        /* \"#utility.yul\":24816:24923   */\n    tag_683:\n        /* \"#utility.yul\":24947:24948   */\n      dup3\n        /* \"#utility.yul\":24944:24945   */\n      dup3\n        /* \"#utility.yul\":24940:24949   */\n      add\n        /* \"#utility.yul\":24933:24949   */\n      swap1\n      pop\n        /* \"#utility.yul\":24650:24955   */\n      swap3\n      swap2\n      pop\n      pop\n      jump\t// out\n        /* \"#utility.yul\":24961:25146   */\n    tag_377:\n        /* \"#utility.yul\":25001:25002   */\n      0x00\n        /* \"#utility.yul\":25018:25038   */\n      tag_687\n        /* \"#utility.yul\":25036:25037   */\n      dup3\n        /* \"#utility.yul\":25018:25038   */\n      tag_605\n      jump\t// in\n    tag_687:\n        /* \"#utility.yul\":25013:25038   */\n      swap2\n      pop\n        /* \"#utility.yul\":25052:25072   */\n      tag_688\n        /* \"#utility.yul\":25070:25071   */\n      dup4\n        /* \"#utility.yul\":25052:25072   */\n      tag_605\n      jump\t// in\n    tag_688:\n        /* \"#utility.yul\":25047:25072   */\n      swap3\n      pop\n        /* \"#utility.yul\":25091:25092   */\n      dup3\n        /* \"#utility.yul\":25081:25116   */\n      tag_689\n      jumpi\n        /* \"#utility.yul\":25096:25114   */\n      tag_690\n      tag_691\n      jump\t// in\n    tag_690:\n        /* \"#utility.yul\":25081:25116   */\n    tag_689:\n        /* \"#utility.yul\":25138:25139   */\n      dup3\n        /* \"#utility.yul\":25135:25136   */\n      dup3\n        /* \"#utility.yul\":25131:25140   */\n      div\n        /* \"#utility.yul\":25126:25140   */\n      swap1\n      pop\n        /* \"#utility.yul\":24961:25146   */\n      swap3\n      swap2\n      pop\n      pop\n      jump\t// out\n        /* \"#utility.yul\":25152:25500   */\n    tag_374:\n        /* \"#utility.yul\":25192:25199   */\n      0x00\n        /* \"#utility.yul\":25215:25235   */\n      tag_693\n        /* \"#utility.yul\":25233:25234   */\n      dup3\n        /* \"#utility.yul\":25215:25235   */\n      tag_605\n      jump\t// in\n    tag_693:\n        /* \"#utility.yul\":25210:25235   */\n      swap2\n      pop\n        /* \"#utility.yul\":25249:25269   */\n      tag_694\n        /* \"#utility.yul\":25267:25268   */\n      dup4\n        /* \"#utility.yul\":25249:25269   */\n      tag_605\n      jump\t// in\n    tag_694:\n        /* \"#utility.yul\":25244:25269   */\n      swap3\n      pop\n        /* \"#utility.yul\":25437:25438   */\n      dup2\n        /* \"#utility.yul\":25369:25435   */\n      0xffffffffffffffffffffffffffffffffffffffffffffffffffffffffffffffff\n        /* \"#utility.yul\":25365:25439   */\n      div\n        /* \"#utility.yul\":25362:25363   */\n      dup4\n        /* \"#utility.yul\":25359:25440   */\n      gt\n        /* \"#utility.yul\":25354:25355   */\n      dup3\n        /* \"#utility.yul\":25347:25356   */\n      iszero\n        /* \"#utility.yul\":25340:25357   */\n      iszero\n        /* \"#utility.yul\":25336:25441   */\n      and\n        /* \"#utility.yul\":25333:25464   */\n      iszero\n      tag_695\n      jumpi\n        /* \"#utility.yul\":25444:25462   */\n      tag_696\n      tag_685\n      jump\t// in\n    tag_696:\n        /* \"#utility.yul\":25333:25464   */\n    tag_695:\n        /* \"#utility.yul\":25492:25493   */\n      dup3\n        /* \"#utility.yul\":25489:25490   */\n      dup3\n        /* \"#utility.yul\":25485:25494   */\n      mul\n        /* \"#utility.yul\":25474:25494   */\n      swap1\n      pop\n        /* \"#utility.yul\":25152:25500   */\n      swap3\n      swap2\n      pop\n      pop\n      jump\t// out\n        /* \"#utility.yul\":25506:25697   */\n    tag_196:\n        /* \"#utility.yul\":25546:25550   */\n      0x00\n        /* \"#utility.yul\":25566:25586   */\n      tag_698\n        /* \"#utility.yul\":25584:25585   */\n      dup3\n        /* \"#utility.yul\":25566:25586   */\n      tag_605\n      jump\t// in\n    tag_698:\n        /* \"#utility.yul\":25561:25586   */\n      swap2\n      pop\n        /* \"#utility.yul\":25600:25620   */\n      tag_699\n        /* \"#utility.yul\":25618:25619   */\n      dup4\n        /* \"#utility.yul\":25600:25620   */\n      tag_605\n      jump\t// in\n    tag_699:\n        /* \"#utility.yul\":25595:25620   */\n      swap3\n      pop\n        /* \"#utility.yul\":25639:25640   */\n      dup3\n        /* \"#utility.yul\":25636:25637   */\n      dup3\n        /* \"#utility.yul\":25633:25641   */\n      lt\n        /* \"#utility.yul\":25630:25664   */\n      iszero\n      tag_700\n      jumpi\n        /* \"#utility.yul\":25644:25662   */\n      tag_701\n      tag_685\n      jump\t// in\n    tag_701:\n        /* \"#utility.yul\":25630:25664   */\n    tag_700:\n        /* \"#utility.yul\":25689:25690   */\n      dup3\n        /* \"#utility.yul\":25686:25687   */\n      dup3\n        /* \"#utility.yul\":25682:25691   */\n      sub\n        /* \"#utility.yul\":25674:25691   */\n      swap1\n      pop\n        /* \"#utility.yul\":25506:25697   */\n      swap3\n      swap2\n      pop\n      pop\n      jump\t// out\n        /* \"#utility.yul\":25703:25799   */\n    tag_477:\n        /* \"#utility.yul\":25740:25747   */\n      0x00\n        /* \"#utility.yul\":25769:25793   */\n      tag_703\n        /* \"#utility.yul\":25787:25792   */\n      dup3\n        /* \"#utility.yul\":25769:25793   */\n      tag_704\n      jump\t// in\n    tag_703:\n        /* \"#utility.yul\":25758:25793   */\n      swap1\n      pop\n        /* \"#utility.yul\":25703:25799   */\n      swap2\n      swap1\n      pop\n      jump\t// out\n        /* \"#utility.yul\":25805:25895   */\n    tag_705:\n        /* \"#utility.yul\":25839:25846   */\n      0x00\n        /* \"#utility.yul\":25882:25887   */\n      dup2\n        /* \"#utility.yul\":25875:25888   */\n      iszero\n        /* \"#utility.yul\":25868:25889   */\n      iszero\n        /* \"#utility.yul\":25857:25889   */\n      swap1\n      pop\n        /* \"#utility.yul\":25805:25895   */\n      swap2\n      swap1\n      pop\n      jump\t// out\n        /* \"#utility.yul\":25901:26027   */\n    tag_704:\n        /* \"#utility.yul\":25938:25945   */\n      0x00\n        /* \"#utility.yul\":25978:26020   */\n      0xffffffffffffffffffffffffffffffffffffffff\n        /* \"#utility.yul\":25971:25976   */\n      dup3\n        /* \"#utility.yul\":25967:26021   */\n      and\n        /* \"#utility.yul\":25956:26021   */\n      swap1\n      pop\n        /* \"#utility.yul\":25901:26027   */\n      swap2\n      swap1\n      pop\n      jump\t// out\n        /* \"#utility.yul\":26033:26110   */\n    tag_605:\n        /* \"#utility.yul\":26070:26077   */\n      0x00\n        /* \"#utility.yul\":26099:26104   */\n      dup2\n        /* \"#utility.yul\":26088:26104   */\n      swap1\n      pop\n        /* \"#utility.yul\":26033:26110   */\n      swap2\n      swap1\n      pop\n      jump\t// out\n        /* \"#utility.yul\":26116:26256   */\n    tag_498:\n        /* \"#utility.yul\":26180:26189   */\n      0x00\n        /* \"#utility.yul\":26213:26250   */\n      tag_710\n        /* \"#utility.yul\":26244:26249   */\n      dup3\n        /* \"#utility.yul\":26213:26250   */\n      tag_711\n      jump\t// in\n    tag_710:\n        /* \"#utility.yul\":26200:26250   */\n      swap1\n      pop\n        /* \"#utility.yul\":26116:26256   */\n      swap2\n      swap1\n      pop\n      jump\t// out\n        /* \"#utility.yul\":26262:26404   */\n    tag_502:\n        /* \"#utility.yul\":26328:26337   */\n      0x00\n        /* \"#utility.yul\":26361:26398   */\n      tag_713\n        /* \"#utility.yul\":26392:26397   */\n      dup3\n        /* \"#utility.yul\":26361:26398   */\n      tag_711\n      jump\t// in\n    tag_713:\n        /* \"#utility.yul\":26348:26398   */\n      swap1\n      pop\n        /* \"#utility.yul\":26262:26404   */\n      swap2\n      swap1\n      pop\n      jump\t// out\n        /* \"#utility.yul\":26410:26536   */\n    tag_711:\n        /* \"#utility.yul\":26460:26469   */\n      0x00\n        /* \"#utility.yul\":26493:26530   */\n      tag_715\n        /* \"#utility.yul\":26524:26529   */\n      dup3\n        /* \"#utility.yul\":26493:26530   */\n      tag_716\n      jump\t// in\n    tag_715:\n        /* \"#utility.yul\":26480:26530   */\n      swap1\n      pop\n        /* \"#utility.yul\":26410:26536   */\n      swap2\n      swap1\n      pop\n      jump\t// out\n        /* \"#utility.yul\":26542:26655   */\n    tag_716:\n        /* \"#utility.yul\":26592:26601   */\n      0x00\n        /* \"#utility.yul\":26625:26649   */\n      tag_718\n        /* \"#utility.yul\":26643:26648   */\n      dup3\n        /* \"#utility.yul\":26625:26649   */\n      tag_704\n      jump\t// in\n    tag_718:\n        /* \"#utility.yul\":26612:26649   */\n      swap1\n      pop\n        /* \"#utility.yul\":26542:26655   */\n      swap2\n      swap1\n      pop\n      jump\t// out\n        /* \"#utility.yul\":26661:26815   */\n    tag_486:\n        /* \"#utility.yul\":26745:26751   */\n      dup3\n        /* \"#utility.yul\":26740:26743   */\n      dup2\n        /* \"#utility.yul\":26735:26738   */\n      dup4\n        /* \"#utility.yul\":26722:26752   */\n      calldatacopy\n        /* \"#utility.yul\":26807:26808   */\n      0x00\n        /* \"#utility.yul\":26798:26804   */\n      dup4\n        /* \"#utility.yul\":26793:26796   */\n      dup4\n        /* \"#utility.yul\":26789:26805   */\n      add\n        /* \"#utility.yul\":26782:26809   */\n      mstore\n        /* \"#utility.yul\":26661:26815   */\n      pop\n      pop\n      pop\n      jump\t// out\n        /* \"#utility.yul\":26821:27128   */\n    tag_494:\n        /* \"#utility.yul\":26889:26890   */\n      0x00\n        /* \"#utility.yul\":26899:27012   */\n    tag_721:\n        /* \"#utility.yul\":26913:26919   */\n      dup4\n        /* \"#utility.yul\":26910:26911   */\n      dup2\n        /* \"#utility.yul\":26907:26920   */\n      lt\n        /* \"#utility.yul\":26899:27012   */\n      iszero\n      tag_723\n      jumpi\n        /* \"#utility.yul\":26998:26999   */\n      dup1\n        /* \"#utility.yul\":26993:26996   */\n      dup3\n        /* \"#utility.yul\":26989:27000   */\n      add\n        /* \"#utility.yul\":26983:27001   */\n      mload\n        /* \"#utility.yul\":26979:26980   */\n      dup2\n        /* \"#utility.yul\":26974:26977   */\n      dup5\n        /* \"#utility.yul\":26970:26981   */\n      add\n        /* \"#utility.yul\":26963:27002   */\n      mstore\n        /* \"#utility.yul\":26935:26937   */\n      0x20\n        /* \"#utility.yul\":26932:26933   */\n      dup2\n        /* \"#utility.yul\":26928:26938   */\n      add\n        /* \"#utility.yul\":26923:26938   */\n      swap1\n      pop\n        /* \"#utility.yul\":26899:27012   */\n      jump(tag_721)\n    tag_723:\n        /* \"#utility.yul\":27030:27036   */\n      dup4\n        /* \"#utility.yul\":27027:27028   */\n      dup2\n        /* \"#utility.yul\":27024:27037   */\n      gt\n        /* \"#utility.yul\":27021:27122   */\n      iszero\n      tag_724\n      jumpi\n        /* \"#utility.yul\":27110:27111   */\n      0x00\n        /* \"#utility.yul\":27101:27107   */\n      dup5\n        /* \"#utility.yul\":27096:27099   */\n      dup5\n        /* \"#utility.yul\":27092:27108   */\n      add\n        /* \"#utility.yul\":27085:27112   */\n      mstore\n        /* \"#utility.yul\":27021:27122   */\n    tag_724:\n        /* \"#utility.yul\":26870:27128   */\n      pop\n        /* \"#utility.yul\":26821:27128   */\n      pop\n      pop\n      pop\n      jump\t// out\n        /* \"#utility.yul\":27134:27367   */\n    tag_133:\n        /* \"#utility.yul\":27173:27176   */\n      0x00\n        /* \"#utility.yul\":27196:27220   */\n      tag_726\n        /* \"#utility.yul\":27214:27219   */\n      dup3\n        /* \"#utility.yul\":27196:27220   */\n      tag_605\n      jump\t// in\n    tag_726:\n        /* \"#utility.yul\":27187:27220   */\n      swap2\n      pop\n        /* \"#utility.yul\":27242:27308   */\n      0xffffffffffffffffffffffffffffffffffffffffffffffffffffffffffffffff\n        /* \"#utility.yul\":27235:27240   */\n      dup3\n        /* \"#utility.yul\":27232:27309   */\n      eq\n        /* \"#utility.yul\":27229:27332   */\n      iszero\n      tag_727\n      jumpi\n        /* \"#utility.yul\":27312:27330   */\n      tag_728\n      tag_685\n      jump\t// in\n    tag_728:\n        /* \"#utility.yul\":27229:27332   */\n    tag_727:\n        /* \"#utility.yul\":27359:27360   */\n      0x01\n        /* \"#utility.yul\":27352:27357   */\n      dup3\n        /* \"#utility.yul\":27348:27361   */\n      add\n        /* \"#utility.yul\":27341:27361   */\n      swap1\n      pop\n        /* \"#utility.yul\":27134:27367   */\n      swap2\n      swap1\n      pop\n      jump\t// out\n        /* \"#utility.yul\":27373:27553   */\n    tag_685:\n        /* \"#utility.yul\":27421:27498   */\n      0x4e487b7100000000000000000000000000000000000000000000000000000000\n        /* \"#utility.yul\":27418:27419   */\n      0x00\n        /* \"#utility.yul\":27411:27499   */\n      mstore\n        /* \"#utility.yul\":27518:27522   */\n      0x11\n        /* \"#utility.yul\":27515:27516   */\n      0x04\n        /* \"#utility.yul\":27508:27523   */\n      mstore\n        /* \"#utility.yul\":27542:27546   */\n      0x24\n        /* \"#utility.yul\":27539:27540   */\n      0x00\n        /* \"#utility.yul\":27532:27547   */\n      revert\n        /* \"#utility.yul\":27559:27739   */\n    tag_691:\n        /* \"#utility.yul\":27607:27684   */\n      0x4e487b7100000000000000000000000000000000000000000000000000000000\n        /* \"#utility.yul\":27604:27605   */\n      0x00\n        /* \"#utility.yul\":27597:27685   */\n      mstore\n        /* \"#utility.yul\":27704:27708   */\n      0x12\n        /* \"#utility.yul\":27701:27702   */\n      0x04\n        /* \"#utility.yul\":27694:27709   */\n      mstore\n        /* \"#utility.yul\":27728:27732   */\n      0x24\n        /* \"#utility.yul\":27725:27726   */\n      0x00\n        /* \"#utility.yul\":27718:27733   */\n      revert\n        /* \"#utility.yul\":27745:27925   */\n    tag_344:\n        /* \"#utility.yul\":27793:27870   */\n      0x4e487b7100000000000000000000000000000000000000000000000000000000\n        /* \"#utility.yul\":27790:27791   */\n      0x00\n        /* \"#utility.yul\":27783:27871   */\n      mstore\n        /* \"#utility.yul\":27890:27894   */\n      0x31\n        /* \"#utility.yul\":27887:27888   */\n      0x04\n        /* \"#utility.yul\":27880:27895   */\n      mstore\n        /* \"#utility.yul\":27914:27918   */\n      0x24\n        /* \"#utility.yul\":27911:27912   */\n      0x00\n        /* \"#utility.yul\":27904:27919   */\n      revert\n        /* \"#utility.yul\":27931:28111   */\n    tag_116:\n        /* \"#utility.yul\":27979:28056   */\n      0x4e487b7100000000000000000000000000000000000000000000000000000000\n        /* \"#utility.yul\":27976:27977   */\n      0x00\n        /* \"#utility.yul\":27969:28057   */\n      mstore\n        /* \"#utility.yul\":28076:28080   */\n      0x32\n        /* \"#utility.yul\":28073:28074   */\n      0x04\n        /* \"#utility.yul\":28066:28081   */\n      mstore\n        /* \"#utility.yul\":28100:28104   */\n      0x24\n        /* \"#utility.yul\":28097:28098   */\n      0x00\n        /* \"#utility.yul\":28090:28105   */\n      revert\n        /* \"#utility.yul\":28117:28234   */\n    tag_431:\n        /* \"#utility.yul\":28226:28227   */\n      0x00\n        /* \"#utility.yul\":28223:28224   */\n      dup1\n        /* \"#utility.yul\":28216:28228   */\n      revert\n        /* \"#utility.yul\":28240:28357   */\n    tag_428:\n        /* \"#utility.yul\":28349:28350   */\n      0x00\n        /* \"#utility.yul\":28346:28347   */\n      dup1\n        /* \"#utility.yul\":28339:28351   */\n      revert\n        /* \"#utility.yul\":28363:28480   */\n    tag_434:\n        /* \"#utility.yul\":28472:28473   */\n      0x00\n        /* \"#utility.yul\":28469:28470   */\n      dup1\n        /* \"#utility.yul\":28462:28474   */\n      revert\n        /* \"#utility.yul\":28486:28603   */\n    tag_453:\n        /* \"#utility.yul\":28595:28596   */\n      0x00\n        /* \"#utility.yul\":28592:28593   */\n      dup1\n        /* \"#utility.yul\":28585:28597   */\n      revert\n        /* \"#utility.yul\":28609:28726   */\n    tag_484:\n        /* \"#utility.yul\":28718:28719   */\n      0x00\n        /* \"#utility.yul\":28715:28716   */\n      dup1\n        /* \"#utility.yul\":28708:28720   */\n      revert\n        /* \"#utility.yul\":28732:28849   */\n    tag_446:\n        /* \"#utility.yul\":28841:28842   */\n      0x00\n        /* \"#utility.yul\":28838:28839   */\n      dup1\n        /* \"#utility.yul\":28831:28843   */\n      revert\n        /* \"#utility.yul\":28855:28957   */\n    tag_511:\n        /* \"#utility.yul\":28896:28902   */\n      0x00\n        /* \"#utility.yul\":28947:28949   */\n      0x1f\n        /* \"#utility.yul\":28943:28950   */\n      not\n        /* \"#utility.yul\":28938:28940   */\n      0x1f\n        /* \"#utility.yul\":28931:28936   */\n      dup4\n        /* \"#utility.yul\":28927:28941   */\n      add\n        /* \"#utility.yul\":28923:28951   */\n      and\n        /* \"#utility.yul\":28913:28951   */\n      swap1\n      pop\n        /* \"#utility.yul\":28855:28957   */\n      swap2\n      swap1\n      pop\n      jump\t// out\n        /* \"#utility.yul\":28963:29140   */\n    tag_516:\n        /* \"#utility.yul\":29103:29132   */\n      0x616464556e5374616b654665653a206d696e4461797320697320300000000000\n        /* \"#utility.yul\":29099:29100   */\n      0x00\n        /* \"#utility.yul\":29091:29097   */\n      dup3\n        /* \"#utility.yul\":29087:29101   */\n      add\n        /* \"#utility.yul\":29080:29133   */\n      mstore\n        /* \"#utility.yul\":28963:29140   */\n      pop\n      jump\t// out\n        /* \"#utility.yul\":29146:29320   */\n    tag_521:\n        /* \"#utility.yul\":29286:29312   */\n      0x4e4654205374616b696e673a20456d7074792041727261790000000000000000\n        /* \"#utility.yul\":29282:29283   */\n      0x00\n        /* \"#utility.yul\":29274:29280   */\n      dup3\n        /* \"#utility.yul\":29270:29284   */\n      add\n        /* \"#utility.yul\":29263:29313   */\n      mstore\n        /* \"#utility.yul\":29146:29320   */\n      pop\n      jump\t// out\n        /* \"#utility.yul\":29326:29503   */\n    tag_526:\n        /* \"#utility.yul\":29466:29495   */\n      0x736574556e5374616b654665653a206d696e4461797320697320300000000000\n        /* \"#utility.yul\":29462:29463   */\n      0x00\n        /* \"#utility.yul\":29454:29460   */\n      dup3\n        /* \"#utility.yul\":29450:29464   */\n      add\n        /* \"#utility.yul\":29443:29496   */\n      mstore\n        /* \"#utility.yul\":29326:29503   */\n      pop\n      jump\t// out\n        /* \"#utility.yul\":29509:29689   */\n    tag_531:\n        /* \"#utility.yul\":29649:29681   */\n      0x616464556e5374616b654665653a2066656550657263656e74203e2034300000\n        /* \"#utility.yul\":29645:29646   */\n      0x00\n        /* \"#utility.yul\":29637:29643   */\n      dup3\n        /* \"#utility.yul\":29633:29647   */\n      add\n        /* \"#utility.yul\":29626:29682   */\n      mstore\n        /* \"#utility.yul\":29509:29689   */\n      pop\n      jump\t// out\n        /* \"#utility.yul\":29695:29924   */\n    tag_536:\n        /* \"#utility.yul\":29835:29869   */\n      0x5361666542455032303a204245503230206f7065726174696f6e20646964206e\n        /* \"#utility.yul\":29831:29832   */\n      0x00\n        /* \"#utility.yul\":29823:29829   */\n      dup3\n        /* \"#utility.yul\":29819:29833   */\n      add\n        /* \"#utility.yul\":29812:29870   */\n      mstore\n        /* \"#utility.yul\":29904:29916   */\n      0x6f74207375636365656400000000000000000000000000000000000000000000\n        /* \"#utility.yul\":29899:29901   */\n      0x20\n        /* \"#utility.yul\":29891:29897   */\n      dup3\n        /* \"#utility.yul\":29887:29902   */\n      add\n        /* \"#utility.yul\":29880:29917   */\n      mstore\n        /* \"#utility.yul\":29695:29924   */\n      pop\n      jump\t// out\n        /* \"#utility.yul\":29930:30155   */\n    tag_541:\n        /* \"#utility.yul\":30070:30104   */\n      0x4f776e61626c653a206e6577206f776e657220697320746865207a65726f2061\n        /* \"#utility.yul\":30066:30067   */\n      0x00\n        /* \"#utility.yul\":30058:30064   */\n      dup3\n        /* \"#utility.yul\":30054:30068   */\n      add\n        /* \"#utility.yul\":30047:30105   */\n      mstore\n        /* \"#utility.yul\":30139:30147   */\n      0x6464726573730000000000000000000000000000000000000000000000000000\n        /* \"#utility.yul\":30134:30136   */\n      0x20\n        /* \"#utility.yul\":30126:30132   */\n      dup3\n        /* \"#utility.yul\":30122:30137   */\n      add\n        /* \"#utility.yul\":30115:30148   */\n      mstore\n        /* \"#utility.yul\":29930:30155   */\n      pop\n      jump\t// out\n        /* \"#utility.yul\":30161:30341   */\n    tag_546:\n        /* \"#utility.yul\":30301:30333   */\n      0x736574556e5374616b654665653a2066656550657263656e74203e2034300000\n        /* \"#utility.yul\":30297:30298   */\n      0x00\n        /* \"#utility.yul\":30289:30295   */\n      dup3\n        /* \"#utility.yul\":30285:30299   */\n      add\n        /* \"#utility.yul\":30278:30334   */\n      mstore\n        /* \"#utility.yul\":30161:30341   */\n      pop\n      jump\t// out\n        /* \"#utility.yul\":30347:30524   */\n    tag_551:\n        /* \"#utility.yul\":30487:30516   */\n      0x72656d6f7665556e5374616b654665653a2072616e6765206f75740000000000\n        /* \"#utility.yul\":30483:30484   */\n      0x00\n        /* \"#utility.yul\":30475:30481   */\n      dup3\n        /* \"#utility.yul\":30471:30485   */\n      add\n        /* \"#utility.yul\":30464:30517   */\n      mstore\n        /* \"#utility.yul\":30347:30524   */\n      pop\n      jump\t// out\n        /* \"#utility.yul\":30530:30766   */\n    tag_556:\n        /* \"#utility.yul\":30670:30704   */\n      0x4e4654205374616b696e673a206475706c696361746520746f6b656e20696473\n        /* \"#utility.yul\":30666:30667   */\n      0x00\n        /* \"#utility.yul\":30658:30664   */\n      dup3\n        /* \"#utility.yul\":30654:30668   */\n      add\n        /* \"#utility.yul\":30647:30705   */\n      mstore\n        /* \"#utility.yul\":30739:30758   */\n      0x20696e20696e70757420706172616d732e000000000000000000000000000000\n        /* \"#utility.yul\":30734:30736   */\n      0x20\n        /* \"#utility.yul\":30726:30732   */\n      dup3\n        /* \"#utility.yul\":30722:30737   */\n      add\n        /* \"#utility.yul\":30715:30759   */\n      mstore\n        /* \"#utility.yul\":30530:30766   */\n      pop\n      jump\t// out\n        /* \"#utility.yul\":30772:30993   */\n    tag_561:\n        /* \"#utility.yul\":30912:30946   */\n      0x4e4654205374616b696e673a20746f6b656e20616c7265616479207374616b65\n        /* \"#utility.yul\":30908:30909   */\n      0x00\n        /* \"#utility.yul\":30900:30906   */\n      dup3\n        /* \"#utility.yul\":30896:30910   */\n      add\n        /* \"#utility.yul\":30889:30947   */\n      mstore\n        /* \"#utility.yul\":30981:30985   */\n      0x642e000000000000000000000000000000000000000000000000000000000000\n        /* \"#utility.yul\":30976:30978   */\n      0x20\n        /* \"#utility.yul\":30968:30974   */\n      dup3\n        /* \"#utility.yul\":30964:30979   */\n      add\n        /* \"#utility.yul\":30957:30986   */\n      mstore\n        /* \"#utility.yul\":30772:30993   */\n      pop\n      jump\t// out\n        /* \"#utility.yul\":30999:31180   */\n    tag_566:\n        /* \"#utility.yul\":31139:31172   */\n      0x736574556e5374616b654665653a206d696e44617973206973206572726f7200\n        /* \"#utility.yul\":31135:31136   */\n      0x00\n        /* \"#utility.yul\":31127:31133   */\n      dup3\n        /* \"#utility.yul\":31123:31137   */\n      add\n        /* \"#utility.yul\":31116:31173   */\n      mstore\n        /* \"#utility.yul\":30999:31180   */\n      pop\n      jump\t// out\n        /* \"#utility.yul\":31186:31360   */\n    tag_571:\n        /* \"#utility.yul\":31326:31352   */\n      0x736574556e5374616b654665653a2072616e6765206f75740000000000000000\n        /* \"#utility.yul\":31322:31323   */\n      0x00\n        /* \"#utility.yul\":31314:31320   */\n      dup3\n        /* \"#utility.yul\":31310:31324   */\n      add\n        /* \"#utility.yul\":31303:31353   */\n      mstore\n        /* \"#utility.yul\":31186:31360   */\n      pop\n      jump\t// out\n        /* \"#utility.yul\":31366:31587   */\n    tag_576:\n        /* \"#utility.yul\":31506:31540   */\n      0x616464556e5374616b654665653a2066656550657263656e7420697320657272\n        /* \"#utility.yul\":31502:31503   */\n      0x00\n        /* \"#utility.yul\":31494:31500   */\n      dup3\n        /* \"#utility.yul\":31490:31504   */\n      add\n        /* \"#utility.yul\":31483:31541   */\n      mstore\n        /* \"#utility.yul\":31575:31579   */\n      0x6f72000000000000000000000000000000000000000000000000000000000000\n        /* \"#utility.yul\":31570:31572   */\n      0x20\n        /* \"#utility.yul\":31562:31568   */\n      dup3\n        /* \"#utility.yul\":31558:31573   */\n      add\n        /* \"#utility.yul\":31551:31580   */\n      mstore\n        /* \"#utility.yul\":31366:31587   */\n      pop\n      jump\t// out\n        /* \"#utility.yul\":31593:31775   */\n    tag_581:\n        /* \"#utility.yul\":31733:31767   */\n      0x4f776e61626c653a2063616c6c6572206973206e6f7420746865206f776e6572\n        /* \"#utility.yul\":31729:31730   */\n      0x00\n        /* \"#utility.yul\":31721:31727   */\n      dup3\n        /* \"#utility.yul\":31717:31731   */\n      add\n        /* \"#utility.yul\":31710:31768   */\n      mstore\n        /* \"#utility.yul\":31593:31775   */\n      pop\n      jump\t// out\n        /* \"#utility.yul\":31781:31961   */\n    tag_586:\n        /* \"#utility.yul\":31921:31953   */\n      0x736574486172766573744665653a2066656550657263656e74203e2034300000\n        /* \"#utility.yul\":31917:31918   */\n      0x00\n        /* \"#utility.yul\":31909:31915   */\n      dup3\n        /* \"#utility.yul\":31905:31919   */\n      add\n        /* \"#utility.yul\":31898:31954   */\n      mstore\n        /* \"#utility.yul\":31781:31961   */\n      pop\n      jump\t// out\n        /* \"#utility.yul\":31967:32148   */\n    tag_591:\n        /* \"#utility.yul\":32107:32140   */\n      0x616464556e5374616b654665653a206d696e44617973206973206572726f7200\n        /* \"#utility.yul\":32103:32104   */\n      0x00\n        /* \"#utility.yul\":32095:32101   */\n      dup3\n        /* \"#utility.yul\":32091:32105   */\n      add\n        /* \"#utility.yul\":32084:32141   */\n      mstore\n        /* \"#utility.yul\":31967:32148   */\n      pop\n      jump\t// out\n        /* \"#utility.yul\":32154:32375   */\n    tag_596:\n        /* \"#utility.yul\":32294:32328   */\n      0x736574556e5374616b654665653a2066656550657263656e7420697320657272\n        /* \"#utility.yul\":32290:32291   */\n      0x00\n        /* \"#utility.yul\":32282:32288   */\n      dup3\n        /* \"#utility.yul\":32278:32292   */\n      add\n        /* \"#utility.yul\":32271:32329   */\n      mstore\n        /* \"#utility.yul\":32363:32367   */\n      0x6f72000000000000000000000000000000000000000000000000000000000000\n        /* \"#utility.yul\":32358:32360   */\n      0x20\n        /* \"#utility.yul\":32350:32356   */\n      dup3\n        /* \"#utility.yul\":32346:32361   */\n      add\n        /* \"#utility.yul\":32339:32368   */\n      mstore\n        /* \"#utility.yul\":32154:32375   */\n      pop\n      jump\t// out\n        /* \"#utility.yul\":32381:32560   */\n    tag_601:\n        /* \"#utility.yul\":32521:32552   */\n      0x416464726573733a2063616c6c20746f206e6f6e2d636f6e7472616374000000\n        /* \"#utility.yul\":32517:32518   */\n      0x00\n        /* \"#utility.yul\":32509:32515   */\n      dup3\n        /* \"#utility.yul\":32505:32519   */\n      add\n        /* \"#utility.yul\":32498:32553   */\n      mstore\n        /* \"#utility.yul\":32381:32560   */\n      pop\n      jump\t// out\n        /* \"#utility.yul\":32566:32688   */\n    tag_423:\n        /* \"#utility.yul\":32639:32663   */\n      tag_759\n        /* \"#utility.yul\":32657:32662   */\n      dup2\n        /* \"#utility.yul\":32639:32663   */\n      tag_477\n      jump\t// in\n    tag_759:\n        /* \"#utility.yul\":32632:32637   */\n      dup2\n        /* \"#utility.yul\":32629:32664   */\n      eq\n        /* \"#utility.yul\":32619:32682   */\n      tag_760\n      jumpi\n        /* \"#utility.yul\":32678:32679   */\n      0x00\n        /* \"#utility.yul\":32675:32676   */\n      dup1\n        /* \"#utility.yul\":32668:32680   */\n      revert\n        /* \"#utility.yul\":32619:32682   */\n    tag_760:\n        /* \"#utility.yul\":32566:32688   */\n      pop\n      jump\t// out\n        /* \"#utility.yul\":32694:32810   */\n    tag_438:\n        /* \"#utility.yul\":32764:32785   */\n      tag_762\n        /* \"#utility.yul\":32779:32784   */\n      dup2\n        /* \"#utility.yul\":32764:32785   */\n      tag_705\n      jump\t// in\n    tag_762:\n        /* \"#utility.yul\":32757:32762   */\n      dup2\n        /* \"#utility.yul\":32754:32786   */\n      eq\n        /* \"#utility.yul\":32744:32804   */\n      tag_763\n      jumpi\n        /* \"#utility.yul\":32800:32801   */\n      0x00\n        /* \"#utility.yul\":32797:32798   */\n      dup1\n        /* \"#utility.yul\":32790:32802   */\n      revert\n        /* \"#utility.yul\":32744:32804   */\n    tag_763:\n        /* \"#utility.yul\":32694:32810   */\n      pop\n      jump\t// out\n        /* \"#utility.yul\":32816:32938   */\n    tag_442:\n        /* \"#utility.yul\":32889:32913   */\n      tag_765\n        /* \"#utility.yul\":32907:32912   */\n      dup2\n        /* \"#utility.yul\":32889:32913   */\n      tag_605\n      jump\t// in\n    tag_765:\n        /* \"#utility.yul\":32882:32887   */\n      dup2\n        /* \"#utility.yul\":32879:32914   */\n      eq\n        /* \"#utility.yul\":32869:32932   */\n      tag_766\n      jumpi\n        /* \"#utility.yul\":32928:32929   */\n      0x00\n        /* \"#utility.yul\":32925:32926   */\n      dup1\n        /* \"#utility.yul\":32918:32930   */\n      revert\n        /* \"#utility.yul\":32869:32932   */\n    tag_766:\n        /* \"#utility.yul\":32816:32938   */\n      pop\n      jump\t// out\n\n    auxdata: 0xa2646970667358221220437e811caaeadd57e5cf2881b41cb849dbb91233f48cc1816c46a54f4ced515264736f6c63430008070033\n}\n",
				"bytecode": {
					"linkReferences": {},
					"object": "60c06040523480156200001157600080fd5b5060405162003452380380620034528339818101604052810190620000379190620003c9565b620000576200004b6200012760201b60201c565b6200012f60201b60201c565b8373ffffffffffffffffffffffffffffffffffffffff1660808173ffffffffffffffffffffffffffffffffffffffff1660601b815250508273ffffffffffffffffffffffffffffffffffffffff1660a08173ffffffffffffffffffffffffffffffffffffffff1660601b815250508160048190555080600560006101000a81548173ffffffffffffffffffffffffffffffffffffffff021916908373ffffffffffffffffffffffffffffffffffffffff1602179055506200011d620001f360201b60201c565b505050506200050e565b600033905090565b60008060009054906101000a900473ffffffffffffffffffffffffffffffffffffffff169050816000806101000a81548173ffffffffffffffffffffffffffffffffffffffff021916908373ffffffffffffffffffffffffffffffffffffffff1602179055508173ffffffffffffffffffffffffffffffffffffffff168173ffffffffffffffffffffffffffffffffffffffff167f8be0079c531659141344cd1fd0a4f28419497f9722a3daafe3b4186f6b6457e060405160405180910390a35050565b60006040518060400160405280600781526020016028815250905060018190806001815401808255809150506001900390600052602060002090600202016000909190919091506000820151816000015560208201518160010155505060006040518060400160405280600e8152602001601e815250905060018190806001815401808255809150506001900390600052602060002090600202016000909190919091506000820151816000015560208201518160010155505060006040518060400160405280601581526020016014815250905060018190806001815401808255809150506001900390600052602060002090600202016000909190919091506000820151816000015560208201518160010155505060006040518060400160405280601e8152602001600a815250905060018190806001815401808255809150506001900390600052602060002090600202016000909190919091506000820151816000015560208201518160010155505050505050565b6000815190506200037e81620004a6565b92915050565b6000815190506200039581620004c0565b92915050565b600081519050620003ac81620004da565b92915050565b600081519050620003c381620004f4565b92915050565b60008060008060808587031215620003e657620003e5620004a1565b5b6000620003f6878288016200039b565b9450506020620004098782880162000384565b93505060406200041c87828801620003b2565b92505060606200042f878288016200036d565b91505092959194509250565b6000620004488262000477565b9050919050565b60006200045c826200043b565b9050919050565b600062000470826200043b565b9050919050565b600073ffffffffffffffffffffffffffffffffffffffff82169050919050565b6000819050919050565b600080fd5b620004b1816200043b565b8114620004bd57600080fd5b50565b620004cb816200044f565b8114620004d757600080fd5b50565b620004e58162000463565b8114620004f157600080fd5b50565b620004ff8162000497565b81146200050b57600080fd5b50565b60805160601c60a05160601c612f0a6200054860003960008181610dd40152610eae0152600081816107a901526117970152612f0a6000f3fe608060405234801561001057600080fd5b50600436106101425760003560e01c8063792b55b6116100b85780639ca62a691161007c5780639ca62a6914610341578063a9f8d1811461035d578063b59629171461037b578063d06fcba814610399578063f25f4b56146103b7578063f2fde38b146103d557610142565b8063792b55b61461029d5780638ae39cac146102b95780638da5cb5b146102d75780638dbb1e3a146102f557806390d49b9d1461032557610142565b80631e2720ff1161010a5780631e2720ff14610201578063294d4e4a1461021d57806343db3c5f14610239578063567e98f9146102575780635e42b45514610275578063715018a61461029357610142565b80630fbf0a931461014757806310c77237146101635780631959a0021461017f57806319fca9f6146101b25780631c3e2e7a146101d0575b600080fd5b610161600480360381019061015c9190611ec6565b6103f1565b005b61017d60048036038101906101789190611fad565b61088b565b005b61019960048036038101906101949190611e99565b610da2565b6040516101a99493929190612726565b60405180910390f35b6101ba610dd2565b6040516101c79190612413565b60405180910390f35b6101ea60048036038101906101e59190611f40565b610df6565b6040516101f89291906126c6565b60405180910390f35b61021b60048036038101906102169190611f40565b610e2a565b005b61023760048036038101906102329190611f6d565b610f5f565b005b6102416111ee565b60405161024e91906126ab565b60405180910390f35b61025f6111f4565b60405161026c91906126ab565b60405180910390f35b61027d6111fa565b60405161028a91906126ab565b60405180910390f35b61029b611265565b005b6102b760048036038101906102b29190611f40565b6112ed565b005b6102c16113ee565b6040516102ce91906126ab565b60405180910390f35b6102df6113f4565b6040516102ec919061238f565b60405180910390f35b61030f600480360381019061030a9190611f6d565b61141d565b60405161031c91906126ab565b60405180910390f35b61033f600480360381019061033a9190611e99565b61143a565b005b61035b60048036038101906103569190611f40565b61155f565b005b610365611789565b60405161037291906126ab565b60405180910390f35b61038361178f565b60405161039091906126ab565b60405180910390f35b6103a1611795565b6040516103ae919061242e565b60405180910390f35b6103bf6117b9565b6040516103cc919061238f565b60405180910390f35b6103ef60048036038101906103ea9190611e99565b6117df565b005b60008282905011610437576040517f08c379a000000000000000000000000000000000000000000000000000000000815260040161042e9061248b565b60405180910390fd5b60005b828290508110156105bf57600083838381811061045a57610459612a6b565b5b905060200201359050600073ffffffffffffffffffffffffffffffffffffffff166009600083815260200190815260200160002060009054906101000a900473ffffffffffffffffffffffffffffffffffffffff1673ffffffffffffffffffffffffffffffffffffffff1614610505576040517f08c379a00000000000000000000000000000000000000000000000000000000081526004016104fc9061258b565b60405180910390fd5b600060018361051491906127ae565b90505b848490508110156105aa5784848281811061053557610534612a6b565b5b9050602002013585858581811061054f5761054e612a6b565b5b905060200201351415610597576040517f08c379a000000000000000000000000000000000000000000000000000000000815260040161058e9061256b565b60405180910390fd5b80806105a290612995565b915050610517565b505080806105b790612995565b91505061043a565b506105c86118d7565b6000600b60003373ffffffffffffffffffffffffffffffffffffffff1673ffffffffffffffffffffffffffffffffffffffff1681526020019081526020016000209050600081600001541115610683576000610660826001015461065264e8d4a510006106446003548760000154611a0b90919063ffffffff16565b611a2190919063ffffffff16565b611a3790919063ffffffff16565b9050610679818360020154611a4d90919063ffffffff16565b8260020181905550505b60005b8383905081101561084a5760008484838181106106a6576106a5612a6b565b5b905060200201359050336009600083815260200190815260200160002060006101000a81548173ffffffffffffffffffffffffffffffffffffffff021916908373ffffffffffffffffffffffffffffffffffffffff160217905550600a8190806001815401808255809150506001900390600052602060002001600090919091909150556107406001600754611a4d90919063ffffffff16565b60078190555061075e60018460000154611a4d90919063ffffffff16565b836000018190555061079664e8d4a510006107886003548660000154611a0b90919063ffffffff16565b611a2190919063ffffffff16565b83600101819055504283600301819055507f000000000000000000000000000000000000000000000000000000000000000073ffffffffffffffffffffffffffffffffffffffff166323b872dd3330846040518463ffffffff1660e01b8152600401610804939291906123aa565b600060405180830381600087803b15801561081e57600080fd5b505af1158015610832573d6000803e3d6000fd5b5050505050808061084290612995565b915050610686565b507f134b166c6094cc1ccbf1e3353ce5c3cd9fd29869051bdb999895854d77cc5ef633848460405161087e939291906123e1565b60405180910390a1505050565b610893611a63565b73ffffffffffffffffffffffffffffffffffffffff166108b16113f4565b73ffffffffffffffffffffffffffffffffffffffff1614610907576040517f08c379a00000000000000000000000000000000000000000000000000000000081526004016108fe9061260b565b60405180910390fd5b600180549050831061094e576040517f08c379a0000000000000000000000000000000000000000000000000000000008152600401610945906125cb565b60405180910390fd5b60008211610991576040517f08c379a0000000000000000000000000000000000000000000000000000000008152600401610988906124ab565b60405180910390fd5b60288111156109d5576040517f08c379a00000000000000000000000000000000000000000000000000000000081526004016109cc9061252b565b60405180910390fd5b6000831415610ab157600180815481106109f2576109f1612a6b565b5b9060005260206000209060020201600001548210610a45576040517f08c379a0000000000000000000000000000000000000000000000000000000008152600401610a3c906125ab565b60405180910390fd5b60018081548110610a5957610a58612a6b565b5b9060005260206000209060020201600101548111610aac576040517f08c379a0000000000000000000000000000000000000000000000000000000008152600401610aa39061266b565b60405180910390fd5b610d0e565b60018080549050610ac2919061288f565b831415610bb25760018084610ad7919061288f565b81548110610ae857610ae7612a6b565b5b9060005260206000209060020201600001548211610b3b576040517f08c379a0000000000000000000000000000000000000000000000000000000008152600401610b32906125ab565b60405180910390fd5b60018084610b49919061288f565b81548110610b5a57610b59612a6b565b5b9060005260206000209060020201600101548110610bad576040517f08c379a0000000000000000000000000000000000000000000000000000000008152600401610ba49061266b565b60405180910390fd5b610d0d565b60018084610bc0919061288f565b81548110610bd157610bd0612a6b565b5b90600052602060002090600202016000015482118015610c20575060018084610bfa91906127ae565b81548110610c0b57610c0a612a6b565b5b90600052602060002090600202016000015482105b610c5f576040517f08c379a0000000000000000000000000000000000000000000000000000000008152600401610c56906125ab565b60405180910390fd5b60018084610c6d919061288f565b81548110610c7e57610c7d612a6b565b5b90600052602060002090600202016001015481108015610ccd575060018084610ca791906127ae565b81548110610cb857610cb7612a6b565b5b90600052602060002090600202016001015481115b610d0c576040517f08c379a0000000000000000000000000000000000000000000000000000000008152600401610d039061266b565b60405180910390fd5b5b5b8060018481548110610d2357610d22612a6b565b5b9060005260206000209060020201600101819055508160018481548110610d4d57610d4c612a6b565b5b9060005260206000209060020201600001819055507fc5b7ef59c45162d0f957af811d4ad5f8980e588a729fa3b80ebef5020e4c2725838383604051610d95939291906126ef565b60405180910390a1505050565b600b6020528060005260406000206000915090508060000154908060010154908060020154908060030154905084565b7f000000000000000000000000000000000000000000000000000000000000000081565b60018181548110610e0657600080fd5b90600052602060002090600202016000915090508060000154908060010154905082565b610e32611a63565b73ffffffffffffffffffffffffffffffffffffffff16610e506113f4565b73ffffffffffffffffffffffffffffffffffffffff1614610ea6576040517f08c379a0000000000000000000000000000000000000000000000000000000008152600401610e9d9061260b565b60405180910390fd5b610ef33330837f000000000000000000000000000000000000000000000000000000000000000073ffffffffffffffffffffffffffffffffffffffff16611a6b909392919063ffffffff16565b3373ffffffffffffffffffffffffffffffffffffffff167f4f7fd5c9e17300a4800fd572ea53fc291e2ee7470d73346d16b357faee4e721082604051610f3991906126ab565b60405180910390a2610f5681600854611a4d90919063ffffffff16565b60088190555050565b610f67611a63565b73ffffffffffffffffffffffffffffffffffffffff16610f856113f4565b73ffffffffffffffffffffffffffffffffffffffff1614610fdb576040517f08c379a0000000000000000000000000000000000000000000000000000000008152600401610fd29061260b565b60405180910390fd5b6000821161101e576040517f08c379a00000000000000000000000000000000000000000000000000000000081526004016110159061246b565b60405180910390fd5b6028811115611062576040517f08c379a0000000000000000000000000000000000000000000000000000000008152600401611059906124cb565b60405180910390fd5b6001808080549050611074919061288f565b8154811061108557611084612a6b565b5b90600052602060002090600202016000015482116110d8576040517f08c379a00000000000000000000000000000000000000000000000000000000081526004016110cf9061264b565b60405180910390fd5b60018080805490506110ea919061288f565b815481106110fb576110fa612a6b565b5b906000526020600020906002020160010154811061114e576040517f08c379a0000000000000000000000000000000000000000000000000000000008152600401611145906125eb565b60405180910390fd5b600060405180604001604052808481526020018381525090506001819080600181540180825580915050600190039060005260206000209060020201600090919091909150600082015181600001556020820151816001015550507f657ca150be22533e612098a9cdc78b9252aa1c21d424fb5011c5ceccc0447b5060018054905084846040516111e1939291906126ef565b60405180910390a1505050565b60035481565b60075481565b6000600254431180156112105750600060075414155b1561125c5760006112236002544361141d565b9050600061123c60045483611a0b90919063ffffffff16565b905061125381600854611a3790919063ffffffff16565b92505050611262565b60085490505b90565b61126d611a63565b73ffffffffffffffffffffffffffffffffffffffff1661128b6113f4565b73ffffffffffffffffffffffffffffffffffffffff16146112e1576040517f08c379a00000000000000000000000000000000000000000000000000000000081526004016112d89061260b565b60405180910390fd5b6112eb6000611af4565b565b6112f5611a63565b73ffffffffffffffffffffffffffffffffffffffff166113136113f4565b73ffffffffffffffffffffffffffffffffffffffff1614611369576040517f08c379a00000000000000000000000000000000000000000000000000000000081526004016113609061260b565b60405180910390fd5b60288111156113ad576040517f08c379a00000000000000000000000000000000000000000000000000000000081526004016113a49061262b565b60405180910390fd5b806006819055507ff419800a2d8930c61d5d9cd782aa72c512cf6be2f79da6db0b8855870b7269ed816040516113e391906126ab565b60405180910390a150565b60045481565b60008060009054906101000a900473ffffffffffffffffffffffffffffffffffffffff16905090565b60006114328383611a3790919063ffffffff16565b905092915050565b611442611a63565b73ffffffffffffffffffffffffffffffffffffffff166114606113f4565b73ffffffffffffffffffffffffffffffffffffffff16146114b6576040517f08c379a00000000000000000000000000000000000000000000000000000000081526004016114ad9061260b565b60405180910390fd5b80600560006101000a81548173ffffffffffffffffffffffffffffffffffffffff021916908373ffffffffffffffffffffffffffffffffffffffff160217905550600560009054906101000a900473ffffffffffffffffffffffffffffffffffffffff1673ffffffffffffffffffffffffffffffffffffffff167f3d21e5a2b633291bd1ff5f9c654e402d063783c95759d2ea521b31fb30e4da4160405160405180910390a250565b611567611a63565b73ffffffffffffffffffffffffffffffffffffffff166115856113f4565b73ffffffffffffffffffffffffffffffffffffffff16146115db576040517f08c379a00000000000000000000000000000000000000000000000000000000081526004016115d29061260b565b60405180910390fd5b6001805490508110611622576040517f08c379a00000000000000000000000000000000000000000000000000000000081526004016116199061254b565b60405180910390fd5b60006001828154811061163857611637612a6b565b5b906000526020600020906002020160000154905060006001838154811061166257611661612a6b565b5b906000526020600020906002020160010154905060008390505b6001808054905061168d919061288f565b81101561170d57600180826116a291906127ae565b815481106116b3576116b2612a6b565b5b9060005260206000209060020201600182815481106116d5576116d4612a6b565b5b90600052602060002090600202016000820154816000015560018201548160010155905050808061170590612995565b91505061167c565b5060018054806117205761171f612a3c565b5b60019003818190600052602060002090600202016000808201600090556001820160009055505090557f61fd4e7e2422942f3df6e8c8c7744f23212ce0f0a23a80f0ace593ffdf6d96d083838360405161177c939291906126ef565b60405180910390a1505050565b60025481565b60065481565b7f000000000000000000000000000000000000000000000000000000000000000081565b600560009054906101000a900473ffffffffffffffffffffffffffffffffffffffff1681565b6117e7611a63565b73ffffffffffffffffffffffffffffffffffffffff166118056113f4565b73ffffffffffffffffffffffffffffffffffffffff161461185b576040517f08c379a00000000000000000000000000000000000000000000000000000000081526004016118529061260b565b60405180910390fd5b600073ffffffffffffffffffffffffffffffffffffffff168173ffffffffffffffffffffffffffffffffffffffff1614156118cb576040517f08c379a00000000000000000000000000000000000000000000000000000000081526004016118c29061250b565b60405180910390fd5b6118d481611af4565b50565b60025443116118e557611a09565b600060075414156118fc5743600281905550611a09565b600061190a6002544361141d565b9050600061192360045483611a0b90919063ffffffff16565b90506000600854141561193e57436002819055505050611a09565b80600854101561199d5761198a61197960075461196b64e8d4a51000600854611a0b90919063ffffffff16565b611a2190919063ffffffff16565b600354611a4d90919063ffffffff16565b60038190555060006008819055506119ff565b6119b281600854611a3790919063ffffffff16565b6008819055506119f86119e76007546119d964e8d4a5100085611a0b90919063ffffffff16565b611a2190919063ffffffff16565b600354611a4d90919063ffffffff16565b6003819055505b4360028190555050505b565b60008183611a199190612835565b905092915050565b60008183611a2f9190612804565b905092915050565b60008183611a45919061288f565b905092915050565b60008183611a5b91906127ae565b905092915050565b600033905090565b611aee846323b872dd60e01b858585604051602401611a8c939291906123aa565b604051602081830303815290604052907bffffffffffffffffffffffffffffffffffffffffffffffffffffffff19166020820180517bffffffffffffffffffffffffffffffffffffffffffffffffffffffff8381831617835250505050611bb8565b50505050565b60008060009054906101000a900473ffffffffffffffffffffffffffffffffffffffff169050816000806101000a81548173ffffffffffffffffffffffffffffffffffffffff021916908373ffffffffffffffffffffffffffffffffffffffff1602179055508173ffffffffffffffffffffffffffffffffffffffff168173ffffffffffffffffffffffffffffffffffffffff167f8be0079c531659141344cd1fd0a4f28419497f9722a3daafe3b4186f6b6457e060405160405180910390a35050565b6000611c1a826040518060400160405280602081526020017f5361666542455032303a206c6f772d6c6576656c2063616c6c206661696c65648152508573ffffffffffffffffffffffffffffffffffffffff16611c7f9092919063ffffffff16565b9050600081511115611c7a5780806020019051810190611c3a9190611f13565b611c79576040517f08c379a0000000000000000000000000000000000000000000000000000000008152600401611c70906124eb565b60405180910390fd5b5b505050565b6060611c8e8484600085611c97565b90509392505050565b6060611ca285611db9565b611ce1576040517f08c379a0000000000000000000000000000000000000000000000000000000008152600401611cd89061268b565b60405180910390fd5b6000808673ffffffffffffffffffffffffffffffffffffffff168587604051611d0a9190612378565b60006040518083038185875af1925050503d8060008114611d47576040519150601f19603f3d011682016040523d82523d6000602084013e611d4c565b606091505b50915091508115611d61578092505050611db1565b600081511115611d745780518082602001fd5b836040517f08c379a0000000000000000000000000000000000000000000000000000000008152600401611da89190612449565b60405180910390fd5b949350505050565b60008060007fc5d2460186f7233c927e7db2dcc703c0e500b653ca82273b7bfad8045d85a47060001b9050833f9150808214158015611dfb57506000801b8214155b92505050919050565b600081359050611e1381612e8f565b92915050565b60008083601f840112611e2f57611e2e612a9f565b5b8235905067ffffffffffffffff811115611e4c57611e4b612a9a565b5b602083019150836020820283011115611e6857611e67612aa4565b5b9250929050565b600081519050611e7e81612ea6565b92915050565b600081359050611e9381612ebd565b92915050565b600060208284031215611eaf57611eae612ab3565b5b6000611ebd84828501611e04565b91505092915050565b60008060208385031215611edd57611edc612ab3565b5b600083013567ffffffffffffffff811115611efb57611efa612aa9565b5b611f0785828601611e19565b92509250509250929050565b600060208284031215611f2957611f28612ab3565b5b6000611f3784828501611e6f565b91505092915050565b600060208284031215611f5657611f55612ab3565b5b6000611f6484828501611e84565b91505092915050565b60008060408385031215611f8457611f83612ab3565b5b6000611f9285828601611e84565b9250506020611fa385828601611e84565b9150509250929050565b600080600060608486031215611fc657611fc5612ab3565b5b6000611fd486828701611e84565b9350506020611fe586828701611e84565b9250506040611ff686828701611e84565b9150509250925092565b612009816128c3565b82525050565b600061201b8385612781565b93507f07ffffffffffffffffffffffffffffffffffffffffffffffffffffffffffffff83111561204e5761204d612aae565b5b60208302925061205f838584612953565b82840190509392505050565b60006120768261276b565b6120808185612792565b9350612090818560208601612962565b80840191505092915050565b6120a58161290b565b82525050565b6120b48161291d565b82525050565b60006120c582612776565b6120cf818561279d565b93506120df818560208601612962565b6120e881612ab8565b840191505092915050565b6000612100601b8361279d565b915061210b82612ac9565b602082019050919050565b600061212360188361279d565b915061212e82612af2565b602082019050919050565b6000612146601b8361279d565b915061215182612b1b565b602082019050919050565b6000612169601e8361279d565b915061217482612b44565b602082019050919050565b600061218c602a8361279d565b915061219782612b6d565b604082019050919050565b60006121af60268361279d565b91506121ba82612bbc565b604082019050919050565b60006121d2601e8361279d565b91506121dd82612c0b565b602082019050919050565b60006121f5601b8361279d565b915061220082612c34565b602082019050919050565b600061221860318361279d565b915061222382612c5d565b604082019050919050565b600061223b60228361279d565b915061224682612cac565b604082019050919050565b600061225e601f8361279d565b915061226982612cfb565b602082019050919050565b600061228160188361279d565b915061228c82612d24565b602082019050919050565b60006122a460228361279d565b91506122af82612d4d565b604082019050919050565b60006122c760208361279d565b91506122d282612d9c565b602082019050919050565b60006122ea601e8361279d565b91506122f582612dc5565b602082019050919050565b600061230d601f8361279d565b915061231882612dee565b602082019050919050565b600061233060228361279d565b915061233b82612e17565b604082019050919050565b6000612353601d8361279d565b915061235e82612e66565b602082019050919050565b61237281612901565b82525050565b6000612384828461206b565b915081905092915050565b60006020820190506123a46000830184612000565b92915050565b60006060820190506123bf6000830186612000565b6123cc6020830185612000565b6123d96040830184612369565b949350505050565b60006040820190506123f66000830186612000565b818103602083015261240981848661200f565b9050949350505050565b6000602082019050612428600083018461209c565b92915050565b600060208201905061244360008301846120ab565b92915050565b6000602082019050818103600083015261246381846120ba565b905092915050565b60006020820190508181036000830152612484816120f3565b9050919050565b600060208201905081810360008301526124a481612116565b9050919050565b600060208201905081810360008301526124c481612139565b9050919050565b600060208201905081810360008301526124e48161215c565b9050919050565b600060208201905081810360008301526125048161217f565b9050919050565b60006020820190508181036000830152612524816121a2565b9050919050565b60006020820190508181036000830152612544816121c5565b9050919050565b60006020820190508181036000830152612564816121e8565b9050919050565b600060208201905081810360008301526125848161220b565b9050919050565b600060208201905081810360008301526125a48161222e565b9050919050565b600060208201905081810360008301526125c481612251565b9050919050565b600060208201905081810360008301526125e481612274565b9050919050565b6000602082019050818103600083015261260481612297565b9050919050565b60006020820190508181036000830152612624816122ba565b9050919050565b60006020820190508181036000830152612644816122dd565b9050919050565b6000602082019050818103600083015261266481612300565b9050919050565b6000602082019050818103600083015261268481612323565b9050919050565b600060208201905081810360008301526126a481612346565b9050919050565b60006020820190506126c06000830184612369565b92915050565b60006040820190506126db6000830185612369565b6126e86020830184612369565b9392505050565b60006060820190506127046000830186612369565b6127116020830185612369565b61271e6040830184612369565b949350505050565b600060808201905061273b6000830187612369565b6127486020830186612369565b6127556040830185612369565b6127626060830184612369565b95945050505050565b600081519050919050565b600081519050919050565b600082825260208201905092915050565b600081905092915050565b600082825260208201905092915050565b60006127b982612901565b91506127c483612901565b9250827fffffffffffffffffffffffffffffffffffffffffffffffffffffffffffffffff038211156127f9576127f86129de565b5b828201905092915050565b600061280f82612901565b915061281a83612901565b92508261282a57612829612a0d565b5b828204905092915050565b600061284082612901565b915061284b83612901565b9250817fffffffffffffffffffffffffffffffffffffffffffffffffffffffffffffffff0483118215151615612884576128836129de565b5b828202905092915050565b600061289a82612901565b91506128a583612901565b9250828210156128b8576128b76129de565b5b828203905092915050565b60006128ce826128e1565b9050919050565b60008115159050919050565b600073ffffffffffffffffffffffffffffffffffffffff82169050919050565b6000819050919050565b60006129168261292f565b9050919050565b60006129288261292f565b9050919050565b600061293a82612941565b9050919050565b600061294c826128e1565b9050919050565b82818337600083830152505050565b60005b83811015612980578082015181840152602081019050612965565b8381111561298f576000848401525b50505050565b60006129a082612901565b91507fffffffffffffffffffffffffffffffffffffffffffffffffffffffffffffffff8214156129d3576129d26129de565b5b600182019050919050565b7f4e487b7100000000000000000000000000000000000000000000000000000000600052601160045260246000fd5b7f4e487b7100000000000000000000000000000000000000000000000000000000600052601260045260246000fd5b7f4e487b7100000000000000000000000000000000000000000000000000000000600052603160045260246000fd5b7f4e487b7100000000000000000000000000000000000000000000000000000000600052603260045260246000fd5b600080fd5b600080fd5b600080fd5b600080fd5b600080fd5b600080fd5b6000601f19601f8301169050919050565b7f616464556e5374616b654665653a206d696e4461797320697320300000000000600082015250565b7f4e4654205374616b696e673a20456d7074792041727261790000000000000000600082015250565b7f736574556e5374616b654665653a206d696e4461797320697320300000000000600082015250565b7f616464556e5374616b654665653a2066656550657263656e74203e2034300000600082015250565b7f5361666542455032303a204245503230206f7065726174696f6e20646964206e60008201527f6f74207375636365656400000000000000000000000000000000000000000000602082015250565b7f4f776e61626c653a206e6577206f776e657220697320746865207a65726f206160008201527f6464726573730000000000000000000000000000000000000000000000000000602082015250565b7f736574556e5374616b654665653a2066656550657263656e74203e2034300000600082015250565b7f72656d6f7665556e5374616b654665653a2072616e6765206f75740000000000600082015250565b7f4e4654205374616b696e673a206475706c696361746520746f6b656e2069647360008201527f20696e20696e70757420706172616d732e000000000000000000000000000000602082015250565b7f4e4654205374616b696e673a20746f6b656e20616c7265616479207374616b6560008201527f642e000000000000000000000000000000000000000000000000000000000000602082015250565b7f736574556e5374616b654665653a206d696e44617973206973206572726f7200600082015250565b7f736574556e5374616b654665653a2072616e6765206f75740000000000000000600082015250565b7f616464556e5374616b654665653a2066656550657263656e742069732065727260008201527f6f72000000000000000000000000000000000000000000000000000000000000602082015250565b7f4f776e61626c653a2063616c6c6572206973206e6f7420746865206f776e6572600082015250565b7f736574486172766573744665653a2066656550657263656e74203e2034300000600082015250565b7f616464556e5374616b654665653a206d696e44617973206973206572726f7200600082015250565b7f736574556e5374616b654665653a2066656550657263656e742069732065727260008201527f6f72000000000000000000000000000000000000000000000000000000000000602082015250565b7f416464726573733a2063616c6c20746f206e6f6e2d636f6e7472616374000000600082015250565b612e98816128c3565b8114612ea357600080fd5b50565b612eaf816128d5565b8114612eba57600080fd5b50565b612ec681612901565b8114612ed157600080fd5b5056fea2646970667358221220437e811caaeadd57e5cf2881b41cb849dbb91233f48cc1816c46a54f4ced515264736f6c63430008070033",
					"opcodes": "PUSH1 0xC0 PUSH1 0x40 MSTORE CALLVALUE DUP1 ISZERO PUSH3 0x11 JUMPI PUSH1 0x0 DUP1 REVERT JUMPDEST POP PUSH1 0x40 MLOAD PUSH3 0x3452 CODESIZE SUB DUP1 PUSH3 0x3452 DUP4 CODECOPY DUP2 DUP2 ADD PUSH1 0x40 MSTORE DUP2 ADD SWAP1 PUSH3 0x37 SWAP2 SWAP1 PUSH3 0x3C9 JUMP JUMPDEST PUSH3 0x57 PUSH3 0x4B PUSH3 0x127 PUSH1 0x20 SHL PUSH1 0x20 SHR JUMP JUMPDEST PUSH3 0x12F PUSH1 0x20 SHL PUSH1 0x20 SHR JUMP JUMPDEST DUP4 PUSH20 0xFFFFFFFFFFFFFFFFFFFFFFFFFFFFFFFFFFFFFFFF AND PUSH1 0x80 DUP2 PUSH20 0xFFFFFFFFFFFFFFFFFFFFFFFFFFFFFFFFFFFFFFFF AND PUSH1 0x60 SHL DUP2 MSTORE POP POP DUP3 PUSH20 0xFFFFFFFFFFFFFFFFFFFFFFFFFFFFFFFFFFFFFFFF AND PUSH1 0xA0 DUP2 PUSH20 0xFFFFFFFFFFFFFFFFFFFFFFFFFFFFFFFFFFFFFFFF AND PUSH1 0x60 SHL DUP2 MSTORE POP POP DUP2 PUSH1 0x4 DUP2 SWAP1 SSTORE POP DUP1 PUSH1 0x5 PUSH1 0x0 PUSH2 0x100 EXP DUP2 SLOAD DUP2 PUSH20 0xFFFFFFFFFFFFFFFFFFFFFFFFFFFFFFFFFFFFFFFF MUL NOT AND SWAP1 DUP4 PUSH20 0xFFFFFFFFFFFFFFFFFFFFFFFFFFFFFFFFFFFFFFFF AND MUL OR SWAP1 SSTORE POP PUSH3 0x11D PUSH3 0x1F3 PUSH1 0x20 SHL PUSH1 0x20 SHR JUMP JUMPDEST POP POP POP POP PUSH3 0x50E JUMP JUMPDEST PUSH1 0x0 CALLER SWAP1 POP SWAP1 JUMP JUMPDEST PUSH1 0x0 DUP1 PUSH1 0x0 SWAP1 SLOAD SWAP1 PUSH2 0x100 EXP SWAP1 DIV PUSH20 0xFFFFFFFFFFFFFFFFFFFFFFFFFFFFFFFFFFFFFFFF AND SWAP1 POP DUP2 PUSH1 0x0 DUP1 PUSH2 0x100 EXP DUP2 SLOAD DUP2 PUSH20 0xFFFFFFFFFFFFFFFFFFFFFFFFFFFFFFFFFFFFFFFF MUL NOT AND SWAP1 DUP4 PUSH20 0xFFFFFFFFFFFFFFFFFFFFFFFFFFFFFFFFFFFFFFFF AND MUL OR SWAP1 SSTORE POP DUP2 PUSH20 0xFFFFFFFFFFFFFFFFFFFFFFFFFFFFFFFFFFFFFFFF AND DUP2 PUSH20 0xFFFFFFFFFFFFFFFFFFFFFFFFFFFFFFFFFFFFFFFF AND PUSH32 0x8BE0079C531659141344CD1FD0A4F28419497F9722A3DAAFE3B4186F6B6457E0 PUSH1 0x40 MLOAD PUSH1 0x40 MLOAD DUP1 SWAP2 SUB SWAP1 LOG3 POP POP JUMP JUMPDEST PUSH1 0x0 PUSH1 0x40 MLOAD DUP1 PUSH1 0x40 ADD PUSH1 0x40 MSTORE DUP1 PUSH1 0x7 DUP2 MSTORE PUSH1 0x20 ADD PUSH1 0x28 DUP2 MSTORE POP SWAP1 POP PUSH1 0x1 DUP2 SWAP1 DUP1 PUSH1 0x1 DUP2 SLOAD ADD DUP1 DUP3 SSTORE DUP1 SWAP2 POP POP PUSH1 0x1 SWAP1 SUB SWAP1 PUSH1 0x0 MSTORE PUSH1 0x20 PUSH1 0x0 KECCAK256 SWAP1 PUSH1 0x2 MUL ADD PUSH1 0x0 SWAP1 SWAP2 SWAP1 SWAP2 SWAP1 SWAP2 POP PUSH1 0x0 DUP3 ADD MLOAD DUP2 PUSH1 0x0 ADD SSTORE PUSH1 0x20 DUP3 ADD MLOAD DUP2 PUSH1 0x1 ADD SSTORE POP POP PUSH1 0x0 PUSH1 0x40 MLOAD DUP1 PUSH1 0x40 ADD PUSH1 0x40 MSTORE DUP1 PUSH1 0xE DUP2 MSTORE PUSH1 0x20 ADD PUSH1 0x1E DUP2 MSTORE POP SWAP1 POP PUSH1 0x1 DUP2 SWAP1 DUP1 PUSH1 0x1 DUP2 SLOAD ADD DUP1 DUP3 SSTORE DUP1 SWAP2 POP POP PUSH1 0x1 SWAP1 SUB SWAP1 PUSH1 0x0 MSTORE PUSH1 0x20 PUSH1 0x0 KECCAK256 SWAP1 PUSH1 0x2 MUL ADD PUSH1 0x0 SWAP1 SWAP2 SWAP1 SWAP2 SWAP1 SWAP2 POP PUSH1 0x0 DUP3 ADD MLOAD DUP2 PUSH1 0x0 ADD SSTORE PUSH1 0x20 DUP3 ADD MLOAD DUP2 PUSH1 0x1 ADD SSTORE POP POP PUSH1 0x0 PUSH1 0x40 MLOAD DUP1 PUSH1 0x40 ADD PUSH1 0x40 MSTORE DUP1 PUSH1 0x15 DUP2 MSTORE PUSH1 0x20 ADD PUSH1 0x14 DUP2 MSTORE POP SWAP1 POP PUSH1 0x1 DUP2 SWAP1 DUP1 PUSH1 0x1 DUP2 SLOAD ADD DUP1 DUP3 SSTORE DUP1 SWAP2 POP POP PUSH1 0x1 SWAP1 SUB SWAP1 PUSH1 0x0 MSTORE PUSH1 0x20 PUSH1 0x0 KECCAK256 SWAP1 PUSH1 0x2 MUL ADD PUSH1 0x0 SWAP1 SWAP2 SWAP1 SWAP2 SWAP1 SWAP2 POP PUSH1 0x0 DUP3 ADD MLOAD DUP2 PUSH1 0x0 ADD SSTORE PUSH1 0x20 DUP3 ADD MLOAD DUP2 PUSH1 0x1 ADD SSTORE POP POP PUSH1 0x0 PUSH1 0x40 MLOAD DUP1 PUSH1 0x40 ADD PUSH1 0x40 MSTORE DUP1 PUSH1 0x1E DUP2 MSTORE PUSH1 0x20 ADD PUSH1 0xA DUP2 MSTORE POP SWAP1 POP PUSH1 0x1 DUP2 SWAP1 DUP1 PUSH1 0x1 DUP2 SLOAD ADD DUP1 DUP3 SSTORE DUP1 SWAP2 POP POP PUSH1 0x1 SWAP1 SUB SWAP1 PUSH1 0x0 MSTORE PUSH1 0x20 PUSH1 0x0 KECCAK256 SWAP1 PUSH1 0x2 MUL ADD PUSH1 0x0 SWAP1 SWAP2 SWAP1 SWAP2 SWAP1 SWAP2 POP PUSH1 0x0 DUP3 ADD MLOAD DUP2 PUSH1 0x0 ADD SSTORE PUSH1 0x20 DUP3 ADD MLOAD DUP2 PUSH1 0x1 ADD SSTORE POP POP POP POP POP POP JUMP JUMPDEST PUSH1 0x0 DUP2 MLOAD SWAP1 POP PUSH3 0x37E DUP2 PUSH3 0x4A6 JUMP JUMPDEST SWAP3 SWAP2 POP POP JUMP JUMPDEST PUSH1 0x0 DUP2 MLOAD SWAP1 POP PUSH3 0x395 DUP2 PUSH3 0x4C0 JUMP JUMPDEST SWAP3 SWAP2 POP POP JUMP JUMPDEST PUSH1 0x0 DUP2 MLOAD SWAP1 POP PUSH3 0x3AC DUP2 PUSH3 0x4DA JUMP JUMPDEST SWAP3 SWAP2 POP POP JUMP JUMPDEST PUSH1 0x0 DUP2 MLOAD SWAP1 POP PUSH3 0x3C3 DUP2 PUSH3 0x4F4 JUMP JUMPDEST SWAP3 SWAP2 POP POP JUMP JUMPDEST PUSH1 0x0 DUP1 PUSH1 0x0 DUP1 PUSH1 0x80 DUP6 DUP8 SUB SLT ISZERO PUSH3 0x3E6 JUMPI PUSH3 0x3E5 PUSH3 0x4A1 JUMP JUMPDEST JUMPDEST PUSH1 0x0 PUSH3 0x3F6 DUP8 DUP3 DUP9 ADD PUSH3 0x39B JUMP JUMPDEST SWAP5 POP POP PUSH1 0x20 PUSH3 0x409 DUP8 DUP3 DUP9 ADD PUSH3 0x384 JUMP JUMPDEST SWAP4 POP POP PUSH1 0x40 PUSH3 0x41C DUP8 DUP3 DUP9 ADD PUSH3 0x3B2 JUMP JUMPDEST SWAP3 POP POP PUSH1 0x60 PUSH3 0x42F DUP8 DUP3 DUP9 ADD PUSH3 0x36D JUMP JUMPDEST SWAP2 POP POP SWAP3 SWAP6 SWAP2 SWAP5 POP SWAP3 POP JUMP JUMPDEST PUSH1 0x0 PUSH3 0x448 DUP3 PUSH3 0x477 JUMP JUMPDEST SWAP1 POP SWAP2 SWAP1 POP JUMP JUMPDEST PUSH1 0x0 PUSH3 0x45C DUP3 PUSH3 0x43B JUMP JUMPDEST SWAP1 POP SWAP2 SWAP1 POP JUMP JUMPDEST PUSH1 0x0 PUSH3 0x470 DUP3 PUSH3 0x43B JUMP JUMPDEST SWAP1 POP SWAP2 SWAP1 POP JUMP JUMPDEST PUSH1 0x0 PUSH20 0xFFFFFFFFFFFFFFFFFFFFFFFFFFFFFFFFFFFFFFFF DUP3 AND SWAP1 POP SWAP2 SWAP1 POP JUMP JUMPDEST PUSH1 0x0 DUP2 SWAP1 POP SWAP2 SWAP1 POP JUMP JUMPDEST PUSH1 0x0 DUP1 REVERT JUMPDEST PUSH3 0x4B1 DUP2 PUSH3 0x43B JUMP JUMPDEST DUP2 EQ PUSH3 0x4BD JUMPI PUSH1 0x0 DUP1 REVERT JUMPDEST POP JUMP JUMPDEST PUSH3 0x4CB DUP2 PUSH3 0x44F JUMP JUMPDEST DUP2 EQ PUSH3 0x4D7 JUMPI PUSH1 0x0 DUP1 REVERT JUMPDEST POP JUMP JUMPDEST PUSH3 0x4E5 DUP2 PUSH3 0x463 JUMP JUMPDEST DUP2 EQ PUSH3 0x4F1 JUMPI PUSH1 0x0 DUP1 REVERT JUMPDEST POP JUMP JUMPDEST PUSH3 0x4FF DUP2 PUSH3 0x497 JUMP JUMPDEST DUP2 EQ PUSH3 0x50B JUMPI PUSH1 0x0 DUP1 REVERT JUMPDEST POP JUMP JUMPDEST PUSH1 0x80 MLOAD PUSH1 0x60 SHR PUSH1 0xA0 MLOAD PUSH1 0x60 SHR PUSH2 0x2F0A PUSH3 0x548 PUSH1 0x0 CODECOPY PUSH1 0x0 DUP2 DUP2 PUSH2 0xDD4 ADD MSTORE PUSH2 0xEAE ADD MSTORE PUSH1 0x0 DUP2 DUP2 PUSH2 0x7A9 ADD MSTORE PUSH2 0x1797 ADD MSTORE PUSH2 0x2F0A PUSH1 0x0 RETURN INVALID PUSH1 0x80 PUSH1 0x40 MSTORE CALLVALUE DUP1 ISZERO PUSH2 0x10 JUMPI PUSH1 0x0 DUP1 REVERT JUMPDEST POP PUSH1 0x4 CALLDATASIZE LT PUSH2 0x142 JUMPI PUSH1 0x0 CALLDATALOAD PUSH1 0xE0 SHR DUP1 PUSH4 0x792B55B6 GT PUSH2 0xB8 JUMPI DUP1 PUSH4 0x9CA62A69 GT PUSH2 0x7C JUMPI DUP1 PUSH4 0x9CA62A69 EQ PUSH2 0x341 JUMPI DUP1 PUSH4 0xA9F8D181 EQ PUSH2 0x35D JUMPI DUP1 PUSH4 0xB5962917 EQ PUSH2 0x37B JUMPI DUP1 PUSH4 0xD06FCBA8 EQ PUSH2 0x399 JUMPI DUP1 PUSH4 0xF25F4B56 EQ PUSH2 0x3B7 JUMPI DUP1 PUSH4 0xF2FDE38B EQ PUSH2 0x3D5 JUMPI PUSH2 0x142 JUMP JUMPDEST DUP1 PUSH4 0x792B55B6 EQ PUSH2 0x29D JUMPI DUP1 PUSH4 0x8AE39CAC EQ PUSH2 0x2B9 JUMPI DUP1 PUSH4 0x8DA5CB5B EQ PUSH2 0x2D7 JUMPI DUP1 PUSH4 0x8DBB1E3A EQ PUSH2 0x2F5 JUMPI DUP1 PUSH4 0x90D49B9D EQ PUSH2 0x325 JUMPI PUSH2 0x142 JUMP JUMPDEST DUP1 PUSH4 0x1E2720FF GT PUSH2 0x10A JUMPI DUP1 PUSH4 0x1E2720FF EQ PUSH2 0x201 JUMPI DUP1 PUSH4 0x294D4E4A EQ PUSH2 0x21D JUMPI DUP1 PUSH4 0x43DB3C5F EQ PUSH2 0x239 JUMPI DUP1 PUSH4 0x567E98F9 EQ PUSH2 0x257 JUMPI DUP1 PUSH4 0x5E42B455 EQ PUSH2 0x275 JUMPI DUP1 PUSH4 0x715018A6 EQ PUSH2 0x293 JUMPI PUSH2 0x142 JUMP JUMPDEST DUP1 PUSH4 0xFBF0A93 EQ PUSH2 0x147 JUMPI DUP1 PUSH4 0x10C77237 EQ PUSH2 0x163 JUMPI DUP1 PUSH4 0x1959A002 EQ PUSH2 0x17F JUMPI DUP1 PUSH4 0x19FCA9F6 EQ PUSH2 0x1B2 JUMPI DUP1 PUSH4 0x1C3E2E7A EQ PUSH2 0x1D0 JUMPI JUMPDEST PUSH1 0x0 DUP1 REVERT JUMPDEST PUSH2 0x161 PUSH1 0x4 DUP1 CALLDATASIZE SUB DUP2 ADD SWAP1 PUSH2 0x15C SWAP2 SWAP1 PUSH2 0x1EC6 JUMP JUMPDEST PUSH2 0x3F1 JUMP JUMPDEST STOP JUMPDEST PUSH2 0x17D PUSH1 0x4 DUP1 CALLDATASIZE SUB DUP2 ADD SWAP1 PUSH2 0x178 SWAP2 SWAP1 PUSH2 0x1FAD JUMP JUMPDEST PUSH2 0x88B JUMP JUMPDEST STOP JUMPDEST PUSH2 0x199 PUSH1 0x4 DUP1 CALLDATASIZE SUB DUP2 ADD SWAP1 PUSH2 0x194 SWAP2 SWAP1 PUSH2 0x1E99 JUMP JUMPDEST PUSH2 0xDA2 JUMP JUMPDEST PUSH1 0x40 MLOAD PUSH2 0x1A9 SWAP5 SWAP4 SWAP3 SWAP2 SWAP1 PUSH2 0x2726 JUMP JUMPDEST PUSH1 0x40 MLOAD DUP1 SWAP2 SUB SWAP1 RETURN JUMPDEST PUSH2 0x1BA PUSH2 0xDD2 JUMP JUMPDEST PUSH1 0x40 MLOAD PUSH2 0x1C7 SWAP2 SWAP1 PUSH2 0x2413 JUMP JUMPDEST PUSH1 0x40 MLOAD DUP1 SWAP2 SUB SWAP1 RETURN JUMPDEST PUSH2 0x1EA PUSH1 0x4 DUP1 CALLDATASIZE SUB DUP2 ADD SWAP1 PUSH2 0x1E5 SWAP2 SWAP1 PUSH2 0x1F40 JUMP JUMPDEST PUSH2 0xDF6 JUMP JUMPDEST PUSH1 0x40 MLOAD PUSH2 0x1F8 SWAP3 SWAP2 SWAP1 PUSH2 0x26C6 JUMP JUMPDEST PUSH1 0x40 MLOAD DUP1 SWAP2 SUB SWAP1 RETURN JUMPDEST PUSH2 0x21B PUSH1 0x4 DUP1 CALLDATASIZE SUB DUP2 ADD SWAP1 PUSH2 0x216 SWAP2 SWAP1 PUSH2 0x1F40 JUMP JUMPDEST PUSH2 0xE2A JUMP JUMPDEST STOP JUMPDEST PUSH2 0x237 PUSH1 0x4 DUP1 CALLDATASIZE SUB DUP2 ADD SWAP1 PUSH2 0x232 SWAP2 SWAP1 PUSH2 0x1F6D JUMP JUMPDEST PUSH2 0xF5F JUMP JUMPDEST STOP JUMPDEST PUSH2 0x241 PUSH2 0x11EE JUMP JUMPDEST PUSH1 0x40 MLOAD PUSH2 0x24E SWAP2 SWAP1 PUSH2 0x26AB JUMP JUMPDEST PUSH1 0x40 MLOAD DUP1 SWAP2 SUB SWAP1 RETURN JUMPDEST PUSH2 0x25F PUSH2 0x11F4 JUMP JUMPDEST PUSH1 0x40 MLOAD PUSH2 0x26C SWAP2 SWAP1 PUSH2 0x26AB JUMP JUMPDEST PUSH1 0x40 MLOAD DUP1 SWAP2 SUB SWAP1 RETURN JUMPDEST PUSH2 0x27D PUSH2 0x11FA JUMP JUMPDEST PUSH1 0x40 MLOAD PUSH2 0x28A SWAP2 SWAP1 PUSH2 0x26AB JUMP JUMPDEST PUSH1 0x40 MLOAD DUP1 SWAP2 SUB SWAP1 RETURN JUMPDEST PUSH2 0x29B PUSH2 0x1265 JUMP JUMPDEST STOP JUMPDEST PUSH2 0x2B7 PUSH1 0x4 DUP1 CALLDATASIZE SUB DUP2 ADD SWAP1 PUSH2 0x2B2 SWAP2 SWAP1 PUSH2 0x1F40 JUMP JUMPDEST PUSH2 0x12ED JUMP JUMPDEST STOP JUMPDEST PUSH2 0x2C1 PUSH2 0x13EE JUMP JUMPDEST PUSH1 0x40 MLOAD PUSH2 0x2CE SWAP2 SWAP1 PUSH2 0x26AB JUMP JUMPDEST PUSH1 0x40 MLOAD DUP1 SWAP2 SUB SWAP1 RETURN JUMPDEST PUSH2 0x2DF PUSH2 0x13F4 JUMP JUMPDEST PUSH1 0x40 MLOAD PUSH2 0x2EC SWAP2 SWAP1 PUSH2 0x238F JUMP JUMPDEST PUSH1 0x40 MLOAD DUP1 SWAP2 SUB SWAP1 RETURN JUMPDEST PUSH2 0x30F PUSH1 0x4 DUP1 CALLDATASIZE SUB DUP2 ADD SWAP1 PUSH2 0x30A SWAP2 SWAP1 PUSH2 0x1F6D JUMP JUMPDEST PUSH2 0x141D JUMP JUMPDEST PUSH1 0x40 MLOAD PUSH2 0x31C SWAP2 SWAP1 PUSH2 0x26AB JUMP JUMPDEST PUSH1 0x40 MLOAD DUP1 SWAP2 SUB SWAP1 RETURN JUMPDEST PUSH2 0x33F PUSH1 0x4 DUP1 CALLDATASIZE SUB DUP2 ADD SWAP1 PUSH2 0x33A SWAP2 SWAP1 PUSH2 0x1E99 JUMP JUMPDEST PUSH2 0x143A JUMP JUMPDEST STOP JUMPDEST PUSH2 0x35B PUSH1 0x4 DUP1 CALLDATASIZE SUB DUP2 ADD SWAP1 PUSH2 0x356 SWAP2 SWAP1 PUSH2 0x1F40 JUMP JUMPDEST PUSH2 0x155F JUMP JUMPDEST STOP JUMPDEST PUSH2 0x365 PUSH2 0x1789 JUMP JUMPDEST PUSH1 0x40 MLOAD PUSH2 0x372 SWAP2 SWAP1 PUSH2 0x26AB JUMP JUMPDEST PUSH1 0x40 MLOAD DUP1 SWAP2 SUB SWAP1 RETURN JUMPDEST PUSH2 0x383 PUSH2 0x178F JUMP JUMPDEST PUSH1 0x40 MLOAD PUSH2 0x390 SWAP2 SWAP1 PUSH2 0x26AB JUMP JUMPDEST PUSH1 0x40 MLOAD DUP1 SWAP2 SUB SWAP1 RETURN JUMPDEST PUSH2 0x3A1 PUSH2 0x1795 JUMP JUMPDEST PUSH1 0x40 MLOAD PUSH2 0x3AE SWAP2 SWAP1 PUSH2 0x242E JUMP JUMPDEST PUSH1 0x40 MLOAD DUP1 SWAP2 SUB SWAP1 RETURN JUMPDEST PUSH2 0x3BF PUSH2 0x17B9 JUMP JUMPDEST PUSH1 0x40 MLOAD PUSH2 0x3CC SWAP2 SWAP1 PUSH2 0x238F JUMP JUMPDEST PUSH1 0x40 MLOAD DUP1 SWAP2 SUB SWAP1 RETURN JUMPDEST PUSH2 0x3EF PUSH1 0x4 DUP1 CALLDATASIZE SUB DUP2 ADD SWAP1 PUSH2 0x3EA SWAP2 SWAP1 PUSH2 0x1E99 JUMP JUMPDEST PUSH2 0x17DF JUMP JUMPDEST STOP JUMPDEST PUSH1 0x0 DUP3 DUP3 SWAP1 POP GT PUSH2 0x437 JUMPI PUSH1 0x40 MLOAD PUSH32 0x8C379A000000000000000000000000000000000000000000000000000000000 DUP2 MSTORE PUSH1 0x4 ADD PUSH2 0x42E SWAP1 PUSH2 0x248B JUMP JUMPDEST PUSH1 0x40 MLOAD DUP1 SWAP2 SUB SWAP1 REVERT JUMPDEST PUSH1 0x0 JUMPDEST DUP3 DUP3 SWAP1 POP DUP2 LT ISZERO PUSH2 0x5BF JUMPI PUSH1 0x0 DUP4 DUP4 DUP4 DUP2 DUP2 LT PUSH2 0x45A JUMPI PUSH2 0x459 PUSH2 0x2A6B JUMP JUMPDEST JUMPDEST SWAP1 POP PUSH1 0x20 MUL ADD CALLDATALOAD SWAP1 POP PUSH1 0x0 PUSH20 0xFFFFFFFFFFFFFFFFFFFFFFFFFFFFFFFFFFFFFFFF AND PUSH1 0x9 PUSH1 0x0 DUP4 DUP2 MSTORE PUSH1 0x20 ADD SWAP1 DUP2 MSTORE PUSH1 0x20 ADD PUSH1 0x0 KECCAK256 PUSH1 0x0 SWAP1 SLOAD SWAP1 PUSH2 0x100 EXP SWAP1 DIV PUSH20 0xFFFFFFFFFFFFFFFFFFFFFFFFFFFFFFFFFFFFFFFF AND PUSH20 0xFFFFFFFFFFFFFFFFFFFFFFFFFFFFFFFFFFFFFFFF AND EQ PUSH2 0x505 JUMPI PUSH1 0x40 MLOAD PUSH32 0x8C379A000000000000000000000000000000000000000000000000000000000 DUP2 MSTORE PUSH1 0x4 ADD PUSH2 0x4FC SWAP1 PUSH2 0x258B JUMP JUMPDEST PUSH1 0x40 MLOAD DUP1 SWAP2 SUB SWAP1 REVERT JUMPDEST PUSH1 0x0 PUSH1 0x1 DUP4 PUSH2 0x514 SWAP2 SWAP1 PUSH2 0x27AE JUMP JUMPDEST SWAP1 POP JUMPDEST DUP5 DUP5 SWAP1 POP DUP2 LT ISZERO PUSH2 0x5AA JUMPI DUP5 DUP5 DUP3 DUP2 DUP2 LT PUSH2 0x535 JUMPI PUSH2 0x534 PUSH2 0x2A6B JUMP JUMPDEST JUMPDEST SWAP1 POP PUSH1 0x20 MUL ADD CALLDATALOAD DUP6 DUP6 DUP6 DUP2 DUP2 LT PUSH2 0x54F JUMPI PUSH2 0x54E PUSH2 0x2A6B JUMP JUMPDEST JUMPDEST SWAP1 POP PUSH1 0x20 MUL ADD CALLDATALOAD EQ ISZERO PUSH2 0x597 JUMPI PUSH1 0x40 MLOAD PUSH32 0x8C379A000000000000000000000000000000000000000000000000000000000 DUP2 MSTORE PUSH1 0x4 ADD PUSH2 0x58E SWAP1 PUSH2 0x256B JUMP JUMPDEST PUSH1 0x40 MLOAD DUP1 SWAP2 SUB SWAP1 REVERT JUMPDEST DUP1 DUP1 PUSH2 0x5A2 SWAP1 PUSH2 0x2995 JUMP JUMPDEST SWAP2 POP POP PUSH2 0x517 JUMP JUMPDEST POP POP DUP1 DUP1 PUSH2 0x5B7 SWAP1 PUSH2 0x2995 JUMP JUMPDEST SWAP2 POP POP PUSH2 0x43A JUMP JUMPDEST POP PUSH2 0x5C8 PUSH2 0x18D7 JUMP JUMPDEST PUSH1 0x0 PUSH1 0xB PUSH1 0x0 CALLER PUSH20 0xFFFFFFFFFFFFFFFFFFFFFFFFFFFFFFFFFFFFFFFF AND PUSH20 0xFFFFFFFFFFFFFFFFFFFFFFFFFFFFFFFFFFFFFFFF AND DUP2 MSTORE PUSH1 0x20 ADD SWAP1 DUP2 MSTORE PUSH1 0x20 ADD PUSH1 0x0 KECCAK256 SWAP1 POP PUSH1 0x0 DUP2 PUSH1 0x0 ADD SLOAD GT ISZERO PUSH2 0x683 JUMPI PUSH1 0x0 PUSH2 0x660 DUP3 PUSH1 0x1 ADD SLOAD PUSH2 0x652 PUSH5 0xE8D4A51000 PUSH2 0x644 PUSH1 0x3 SLOAD DUP8 PUSH1 0x0 ADD SLOAD PUSH2 0x1A0B SWAP1 SWAP2 SWAP1 PUSH4 0xFFFFFFFF AND JUMP JUMPDEST PUSH2 0x1A21 SWAP1 SWAP2 SWAP1 PUSH4 0xFFFFFFFF AND JUMP JUMPDEST PUSH2 0x1A37 SWAP1 SWAP2 SWAP1 PUSH4 0xFFFFFFFF AND JUMP JUMPDEST SWAP1 POP PUSH2 0x679 DUP2 DUP4 PUSH1 0x2 ADD SLOAD PUSH2 0x1A4D SWAP1 SWAP2 SWAP1 PUSH4 0xFFFFFFFF AND JUMP JUMPDEST DUP3 PUSH1 0x2 ADD DUP2 SWAP1 SSTORE POP POP JUMPDEST PUSH1 0x0 JUMPDEST DUP4 DUP4 SWAP1 POP DUP2 LT ISZERO PUSH2 0x84A JUMPI PUSH1 0x0 DUP5 DUP5 DUP4 DUP2 DUP2 LT PUSH2 0x6A6 JUMPI PUSH2 0x6A5 PUSH2 0x2A6B JUMP JUMPDEST JUMPDEST SWAP1 POP PUSH1 0x20 MUL ADD CALLDATALOAD SWAP1 POP CALLER PUSH1 0x9 PUSH1 0x0 DUP4 DUP2 MSTORE PUSH1 0x20 ADD SWAP1 DUP2 MSTORE PUSH1 0x20 ADD PUSH1 0x0 KECCAK256 PUSH1 0x0 PUSH2 0x100 EXP DUP2 SLOAD DUP2 PUSH20 0xFFFFFFFFFFFFFFFFFFFFFFFFFFFFFFFFFFFFFFFF MUL NOT AND SWAP1 DUP4 PUSH20 0xFFFFFFFFFFFFFFFFFFFFFFFFFFFFFFFFFFFFFFFF AND MUL OR SWAP1 SSTORE POP PUSH1 0xA DUP2 SWAP1 DUP1 PUSH1 0x1 DUP2 SLOAD ADD DUP1 DUP3 SSTORE DUP1 SWAP2 POP POP PUSH1 0x1 SWAP1 SUB SWAP1 PUSH1 0x0 MSTORE PUSH1 0x20 PUSH1 0x0 KECCAK256 ADD PUSH1 0x0 SWAP1 SWAP2 SWAP1 SWAP2 SWAP1 SWAP2 POP SSTORE PUSH2 0x740 PUSH1 0x1 PUSH1 0x7 SLOAD PUSH2 0x1A4D SWAP1 SWAP2 SWAP1 PUSH4 0xFFFFFFFF AND JUMP JUMPDEST PUSH1 0x7 DUP2 SWAP1 SSTORE POP PUSH2 0x75E PUSH1 0x1 DUP5 PUSH1 0x0 ADD SLOAD PUSH2 0x1A4D SWAP1 SWAP2 SWAP1 PUSH4 0xFFFFFFFF AND JUMP JUMPDEST DUP4 PUSH1 0x0 ADD DUP2 SWAP1 SSTORE POP PUSH2 0x796 PUSH5 0xE8D4A51000 PUSH2 0x788 PUSH1 0x3 SLOAD DUP7 PUSH1 0x0 ADD SLOAD PUSH2 0x1A0B SWAP1 SWAP2 SWAP1 PUSH4 0xFFFFFFFF AND JUMP JUMPDEST PUSH2 0x1A21 SWAP1 SWAP2 SWAP1 PUSH4 0xFFFFFFFF AND JUMP JUMPDEST DUP4 PUSH1 0x1 ADD DUP2 SWAP1 SSTORE POP TIMESTAMP DUP4 PUSH1 0x3 ADD DUP2 SWAP1 SSTORE POP PUSH32 0x0 PUSH20 0xFFFFFFFFFFFFFFFFFFFFFFFFFFFFFFFFFFFFFFFF AND PUSH4 0x23B872DD CALLER ADDRESS DUP5 PUSH1 0x40 MLOAD DUP5 PUSH4 0xFFFFFFFF AND PUSH1 0xE0 SHL DUP2 MSTORE PUSH1 0x4 ADD PUSH2 0x804 SWAP4 SWAP3 SWAP2 SWAP1 PUSH2 0x23AA JUMP JUMPDEST PUSH1 0x0 PUSH1 0x40 MLOAD DUP1 DUP4 SUB DUP2 PUSH1 0x0 DUP8 DUP1 EXTCODESIZE ISZERO DUP1 ISZERO PUSH2 0x81E JUMPI PUSH1 0x0 DUP1 REVERT JUMPDEST POP GAS CALL ISZERO DUP1 ISZERO PUSH2 0x832 JUMPI RETURNDATASIZE PUSH1 0x0 DUP1 RETURNDATACOPY RETURNDATASIZE PUSH1 0x0 REVERT JUMPDEST POP POP POP POP POP DUP1 DUP1 PUSH2 0x842 SWAP1 PUSH2 0x2995 JUMP JUMPDEST SWAP2 POP POP PUSH2 0x686 JUMP JUMPDEST POP PUSH32 0x134B166C6094CC1CCBF1E3353CE5C3CD9FD29869051BDB999895854D77CC5EF6 CALLER DUP5 DUP5 PUSH1 0x40 MLOAD PUSH2 0x87E SWAP4 SWAP3 SWAP2 SWAP1 PUSH2 0x23E1 JUMP JUMPDEST PUSH1 0x40 MLOAD DUP1 SWAP2 SUB SWAP1 LOG1 POP POP POP JUMP JUMPDEST PUSH2 0x893 PUSH2 0x1A63 JUMP JUMPDEST PUSH20 0xFFFFFFFFFFFFFFFFFFFFFFFFFFFFFFFFFFFFFFFF AND PUSH2 0x8B1 PUSH2 0x13F4 JUMP JUMPDEST PUSH20 0xFFFFFFFFFFFFFFFFFFFFFFFFFFFFFFFFFFFFFFFF AND EQ PUSH2 0x907 JUMPI PUSH1 0x40 MLOAD PUSH32 0x8C379A000000000000000000000000000000000000000000000000000000000 DUP2 MSTORE PUSH1 0x4 ADD PUSH2 0x8FE SWAP1 PUSH2 0x260B JUMP JUMPDEST PUSH1 0x40 MLOAD DUP1 SWAP2 SUB SWAP1 REVERT JUMPDEST PUSH1 0x1 DUP1 SLOAD SWAP1 POP DUP4 LT PUSH2 0x94E JUMPI PUSH1 0x40 MLOAD PUSH32 0x8C379A000000000000000000000000000000000000000000000000000000000 DUP2 MSTORE PUSH1 0x4 ADD PUSH2 0x945 SWAP1 PUSH2 0x25CB JUMP JUMPDEST PUSH1 0x40 MLOAD DUP1 SWAP2 SUB SWAP1 REVERT JUMPDEST PUSH1 0x0 DUP3 GT PUSH2 0x991 JUMPI PUSH1 0x40 MLOAD PUSH32 0x8C379A000000000000000000000000000000000000000000000000000000000 DUP2 MSTORE PUSH1 0x4 ADD PUSH2 0x988 SWAP1 PUSH2 0x24AB JUMP JUMPDEST PUSH1 0x40 MLOAD DUP1 SWAP2 SUB SWAP1 REVERT JUMPDEST PUSH1 0x28 DUP2 GT ISZERO PUSH2 0x9D5 JUMPI PUSH1 0x40 MLOAD PUSH32 0x8C379A000000000000000000000000000000000000000000000000000000000 DUP2 MSTORE PUSH1 0x4 ADD PUSH2 0x9CC SWAP1 PUSH2 0x252B JUMP JUMPDEST PUSH1 0x40 MLOAD DUP1 SWAP2 SUB SWAP1 REVERT JUMPDEST PUSH1 0x0 DUP4 EQ ISZERO PUSH2 0xAB1 JUMPI PUSH1 0x1 DUP1 DUP2 SLOAD DUP2 LT PUSH2 0x9F2 JUMPI PUSH2 0x9F1 PUSH2 0x2A6B JUMP JUMPDEST JUMPDEST SWAP1 PUSH1 0x0 MSTORE PUSH1 0x20 PUSH1 0x0 KECCAK256 SWAP1 PUSH1 0x2 MUL ADD PUSH1 0x0 ADD SLOAD DUP3 LT PUSH2 0xA45 JUMPI PUSH1 0x40 MLOAD PUSH32 0x8C379A000000000000000000000000000000000000000000000000000000000 DUP2 MSTORE PUSH1 0x4 ADD PUSH2 0xA3C SWAP1 PUSH2 0x25AB JUMP JUMPDEST PUSH1 0x40 MLOAD DUP1 SWAP2 SUB SWAP1 REVERT JUMPDEST PUSH1 0x1 DUP1 DUP2 SLOAD DUP2 LT PUSH2 0xA59 JUMPI PUSH2 0xA58 PUSH2 0x2A6B JUMP JUMPDEST JUMPDEST SWAP1 PUSH1 0x0 MSTORE PUSH1 0x20 PUSH1 0x0 KECCAK256 SWAP1 PUSH1 0x2 MUL ADD PUSH1 0x1 ADD SLOAD DUP2 GT PUSH2 0xAAC JUMPI PUSH1 0x40 MLOAD PUSH32 0x8C379A000000000000000000000000000000000000000000000000000000000 DUP2 MSTORE PUSH1 0x4 ADD PUSH2 0xAA3 SWAP1 PUSH2 0x266B JUMP JUMPDEST PUSH1 0x40 MLOAD DUP1 SWAP2 SUB SWAP1 REVERT JUMPDEST PUSH2 0xD0E JUMP JUMPDEST PUSH1 0x1 DUP1 DUP1 SLOAD SWAP1 POP PUSH2 0xAC2 SWAP2 SWAP1 PUSH2 0x288F JUMP JUMPDEST DUP4 EQ ISZERO PUSH2 0xBB2 JUMPI PUSH1 0x1 DUP1 DUP5 PUSH2 0xAD7 SWAP2 SWAP1 PUSH2 0x288F JUMP JUMPDEST DUP2 SLOAD DUP2 LT PUSH2 0xAE8 JUMPI PUSH2 0xAE7 PUSH2 0x2A6B JUMP JUMPDEST JUMPDEST SWAP1 PUSH1 0x0 MSTORE PUSH1 0x20 PUSH1 0x0 KECCAK256 SWAP1 PUSH1 0x2 MUL ADD PUSH1 0x0 ADD SLOAD DUP3 GT PUSH2 0xB3B JUMPI PUSH1 0x40 MLOAD PUSH32 0x8C379A000000000000000000000000000000000000000000000000000000000 DUP2 MSTORE PUSH1 0x4 ADD PUSH2 0xB32 SWAP1 PUSH2 0x25AB JUMP JUMPDEST PUSH1 0x40 MLOAD DUP1 SWAP2 SUB SWAP1 REVERT JUMPDEST PUSH1 0x1 DUP1 DUP5 PUSH2 0xB49 SWAP2 SWAP1 PUSH2 0x288F JUMP JUMPDEST DUP2 SLOAD DUP2 LT PUSH2 0xB5A JUMPI PUSH2 0xB59 PUSH2 0x2A6B JUMP JUMPDEST JUMPDEST SWAP1 PUSH1 0x0 MSTORE PUSH1 0x20 PUSH1 0x0 KECCAK256 SWAP1 PUSH1 0x2 MUL ADD PUSH1 0x1 ADD SLOAD DUP2 LT PUSH2 0xBAD JUMPI PUSH1 0x40 MLOAD PUSH32 0x8C379A000000000000000000000000000000000000000000000000000000000 DUP2 MSTORE PUSH1 0x4 ADD PUSH2 0xBA4 SWAP1 PUSH2 0x266B JUMP JUMPDEST PUSH1 0x40 MLOAD DUP1 SWAP2 SUB SWAP1 REVERT JUMPDEST PUSH2 0xD0D JUMP JUMPDEST PUSH1 0x1 DUP1 DUP5 PUSH2 0xBC0 SWAP2 SWAP1 PUSH2 0x288F JUMP JUMPDEST DUP2 SLOAD DUP2 LT PUSH2 0xBD1 JUMPI PUSH2 0xBD0 PUSH2 0x2A6B JUMP JUMPDEST JUMPDEST SWAP1 PUSH1 0x0 MSTORE PUSH1 0x20 PUSH1 0x0 KECCAK256 SWAP1 PUSH1 0x2 MUL ADD PUSH1 0x0 ADD SLOAD DUP3 GT DUP1 ISZERO PUSH2 0xC20 JUMPI POP PUSH1 0x1 DUP1 DUP5 PUSH2 0xBFA SWAP2 SWAP1 PUSH2 0x27AE JUMP JUMPDEST DUP2 SLOAD DUP2 LT PUSH2 0xC0B JUMPI PUSH2 0xC0A PUSH2 0x2A6B JUMP JUMPDEST JUMPDEST SWAP1 PUSH1 0x0 MSTORE PUSH1 0x20 PUSH1 0x0 KECCAK256 SWAP1 PUSH1 0x2 MUL ADD PUSH1 0x0 ADD SLOAD DUP3 LT JUMPDEST PUSH2 0xC5F JUMPI PUSH1 0x40 MLOAD PUSH32 0x8C379A000000000000000000000000000000000000000000000000000000000 DUP2 MSTORE PUSH1 0x4 ADD PUSH2 0xC56 SWAP1 PUSH2 0x25AB JUMP JUMPDEST PUSH1 0x40 MLOAD DUP1 SWAP2 SUB SWAP1 REVERT JUMPDEST PUSH1 0x1 DUP1 DUP5 PUSH2 0xC6D SWAP2 SWAP1 PUSH2 0x288F JUMP JUMPDEST DUP2 SLOAD DUP2 LT PUSH2 0xC7E JUMPI PUSH2 0xC7D PUSH2 0x2A6B JUMP JUMPDEST JUMPDEST SWAP1 PUSH1 0x0 MSTORE PUSH1 0x20 PUSH1 0x0 KECCAK256 SWAP1 PUSH1 0x2 MUL ADD PUSH1 0x1 ADD SLOAD DUP2 LT DUP1 ISZERO PUSH2 0xCCD JUMPI POP PUSH1 0x1 DUP1 DUP5 PUSH2 0xCA7 SWAP2 SWAP1 PUSH2 0x27AE JUMP JUMPDEST DUP2 SLOAD DUP2 LT PUSH2 0xCB8 JUMPI PUSH2 0xCB7 PUSH2 0x2A6B JUMP JUMPDEST JUMPDEST SWAP1 PUSH1 0x0 MSTORE PUSH1 0x20 PUSH1 0x0 KECCAK256 SWAP1 PUSH1 0x2 MUL ADD PUSH1 0x1 ADD SLOAD DUP2 GT JUMPDEST PUSH2 0xD0C JUMPI PUSH1 0x40 MLOAD PUSH32 0x8C379A000000000000000000000000000000000000000000000000000000000 DUP2 MSTORE PUSH1 0x4 ADD PUSH2 0xD03 SWAP1 PUSH2 0x266B JUMP JUMPDEST PUSH1 0x40 MLOAD DUP1 SWAP2 SUB SWAP1 REVERT JUMPDEST JUMPDEST JUMPDEST DUP1 PUSH1 0x1 DUP5 DUP2 SLOAD DUP2 LT PUSH2 0xD23 JUMPI PUSH2 0xD22 PUSH2 0x2A6B JUMP JUMPDEST JUMPDEST SWAP1 PUSH1 0x0 MSTORE PUSH1 0x20 PUSH1 0x0 KECCAK256 SWAP1 PUSH1 0x2 MUL ADD PUSH1 0x1 ADD DUP2 SWAP1 SSTORE POP DUP2 PUSH1 0x1 DUP5 DUP2 SLOAD DUP2 LT PUSH2 0xD4D JUMPI PUSH2 0xD4C PUSH2 0x2A6B JUMP JUMPDEST JUMPDEST SWAP1 PUSH1 0x0 MSTORE PUSH1 0x20 PUSH1 0x0 KECCAK256 SWAP1 PUSH1 0x2 MUL ADD PUSH1 0x0 ADD DUP2 SWAP1 SSTORE POP PUSH32 0xC5B7EF59C45162D0F957AF811D4AD5F8980E588A729FA3B80EBEF5020E4C2725 DUP4 DUP4 DUP4 PUSH1 0x40 MLOAD PUSH2 0xD95 SWAP4 SWAP3 SWAP2 SWAP1 PUSH2 0x26EF JUMP JUMPDEST PUSH1 0x40 MLOAD DUP1 SWAP2 SUB SWAP1 LOG1 POP POP POP JUMP JUMPDEST PUSH1 0xB PUSH1 0x20 MSTORE DUP1 PUSH1 0x0 MSTORE PUSH1 0x40 PUSH1 0x0 KECCAK256 PUSH1 0x0 SWAP2 POP SWAP1 POP DUP1 PUSH1 0x0 ADD SLOAD SWAP1 DUP1 PUSH1 0x1 ADD SLOAD SWAP1 DUP1 PUSH1 0x2 ADD SLOAD SWAP1 DUP1 PUSH1 0x3 ADD SLOAD SWAP1 POP DUP5 JUMP JUMPDEST PUSH32 0x0 DUP2 JUMP JUMPDEST PUSH1 0x1 DUP2 DUP2 SLOAD DUP2 LT PUSH2 0xE06 JUMPI PUSH1 0x0 DUP1 REVERT JUMPDEST SWAP1 PUSH1 0x0 MSTORE PUSH1 0x20 PUSH1 0x0 KECCAK256 SWAP1 PUSH1 0x2 MUL ADD PUSH1 0x0 SWAP2 POP SWAP1 POP DUP1 PUSH1 0x0 ADD SLOAD SWAP1 DUP1 PUSH1 0x1 ADD SLOAD SWAP1 POP DUP3 JUMP JUMPDEST PUSH2 0xE32 PUSH2 0x1A63 JUMP JUMPDEST PUSH20 0xFFFFFFFFFFFFFFFFFFFFFFFFFFFFFFFFFFFFFFFF AND PUSH2 0xE50 PUSH2 0x13F4 JUMP JUMPDEST PUSH20 0xFFFFFFFFFFFFFFFFFFFFFFFFFFFFFFFFFFFFFFFF AND EQ PUSH2 0xEA6 JUMPI PUSH1 0x40 MLOAD PUSH32 0x8C379A000000000000000000000000000000000000000000000000000000000 DUP2 MSTORE PUSH1 0x4 ADD PUSH2 0xE9D SWAP1 PUSH2 0x260B JUMP JUMPDEST PUSH1 0x40 MLOAD DUP1 SWAP2 SUB SWAP1 REVERT JUMPDEST PUSH2 0xEF3 CALLER ADDRESS DUP4 PUSH32 0x0 PUSH20 0xFFFFFFFFFFFFFFFFFFFFFFFFFFFFFFFFFFFFFFFF AND PUSH2 0x1A6B SWAP1 SWAP4 SWAP3 SWAP2 SWAP1 PUSH4 0xFFFFFFFF AND JUMP JUMPDEST CALLER PUSH20 0xFFFFFFFFFFFFFFFFFFFFFFFFFFFFFFFFFFFFFFFF AND PUSH32 0x4F7FD5C9E17300A4800FD572EA53FC291E2EE7470D73346D16B357FAEE4E7210 DUP3 PUSH1 0x40 MLOAD PUSH2 0xF39 SWAP2 SWAP1 PUSH2 0x26AB JUMP JUMPDEST PUSH1 0x40 MLOAD DUP1 SWAP2 SUB SWAP1 LOG2 PUSH2 0xF56 DUP2 PUSH1 0x8 SLOAD PUSH2 0x1A4D SWAP1 SWAP2 SWAP1 PUSH4 0xFFFFFFFF AND JUMP JUMPDEST PUSH1 0x8 DUP2 SWAP1 SSTORE POP POP JUMP JUMPDEST PUSH2 0xF67 PUSH2 0x1A63 JUMP JUMPDEST PUSH20 0xFFFFFFFFFFFFFFFFFFFFFFFFFFFFFFFFFFFFFFFF AND PUSH2 0xF85 PUSH2 0x13F4 JUMP JUMPDEST PUSH20 0xFFFFFFFFFFFFFFFFFFFFFFFFFFFFFFFFFFFFFFFF AND EQ PUSH2 0xFDB JUMPI PUSH1 0x40 MLOAD PUSH32 0x8C379A000000000000000000000000000000000000000000000000000000000 DUP2 MSTORE PUSH1 0x4 ADD PUSH2 0xFD2 SWAP1 PUSH2 0x260B JUMP JUMPDEST PUSH1 0x40 MLOAD DUP1 SWAP2 SUB SWAP1 REVERT JUMPDEST PUSH1 0x0 DUP3 GT PUSH2 0x101E JUMPI PUSH1 0x40 MLOAD PUSH32 0x8C379A000000000000000000000000000000000000000000000000000000000 DUP2 MSTORE PUSH1 0x4 ADD PUSH2 0x1015 SWAP1 PUSH2 0x246B JUMP JUMPDEST PUSH1 0x40 MLOAD DUP1 SWAP2 SUB SWAP1 REVERT JUMPDEST PUSH1 0x28 DUP2 GT ISZERO PUSH2 0x1062 JUMPI PUSH1 0x40 MLOAD PUSH32 0x8C379A000000000000000000000000000000000000000000000000000000000 DUP2 MSTORE PUSH1 0x4 ADD PUSH2 0x1059 SWAP1 PUSH2 0x24CB JUMP JUMPDEST PUSH1 0x40 MLOAD DUP1 SWAP2 SUB SWAP1 REVERT JUMPDEST PUSH1 0x1 DUP1 DUP1 DUP1 SLOAD SWAP1 POP PUSH2 0x1074 SWAP2 SWAP1 PUSH2 0x288F JUMP JUMPDEST DUP2 SLOAD DUP2 LT PUSH2 0x1085 JUMPI PUSH2 0x1084 PUSH2 0x2A6B JUMP JUMPDEST JUMPDEST SWAP1 PUSH1 0x0 MSTORE PUSH1 0x20 PUSH1 0x0 KECCAK256 SWAP1 PUSH1 0x2 MUL ADD PUSH1 0x0 ADD SLOAD DUP3 GT PUSH2 0x10D8 JUMPI PUSH1 0x40 MLOAD PUSH32 0x8C379A000000000000000000000000000000000000000000000000000000000 DUP2 MSTORE PUSH1 0x4 ADD PUSH2 0x10CF SWAP1 PUSH2 0x264B JUMP JUMPDEST PUSH1 0x40 MLOAD DUP1 SWAP2 SUB SWAP1 REVERT JUMPDEST PUSH1 0x1 DUP1 DUP1 DUP1 SLOAD SWAP1 POP PUSH2 0x10EA SWAP2 SWAP1 PUSH2 0x288F JUMP JUMPDEST DUP2 SLOAD DUP2 LT PUSH2 0x10FB JUMPI PUSH2 0x10FA PUSH2 0x2A6B JUMP JUMPDEST JUMPDEST SWAP1 PUSH1 0x0 MSTORE PUSH1 0x20 PUSH1 0x0 KECCAK256 SWAP1 PUSH1 0x2 MUL ADD PUSH1 0x1 ADD SLOAD DUP2 LT PUSH2 0x114E JUMPI PUSH1 0x40 MLOAD PUSH32 0x8C379A000000000000000000000000000000000000000000000000000000000 DUP2 MSTORE PUSH1 0x4 ADD PUSH2 0x1145 SWAP1 PUSH2 0x25EB JUMP JUMPDEST PUSH1 0x40 MLOAD DUP1 SWAP2 SUB SWAP1 REVERT JUMPDEST PUSH1 0x0 PUSH1 0x40 MLOAD DUP1 PUSH1 0x40 ADD PUSH1 0x40 MSTORE DUP1 DUP5 DUP2 MSTORE PUSH1 0x20 ADD DUP4 DUP2 MSTORE POP SWAP1 POP PUSH1 0x1 DUP2 SWAP1 DUP1 PUSH1 0x1 DUP2 SLOAD ADD DUP1 DUP3 SSTORE DUP1 SWAP2 POP POP PUSH1 0x1 SWAP1 SUB SWAP1 PUSH1 0x0 MSTORE PUSH1 0x20 PUSH1 0x0 KECCAK256 SWAP1 PUSH1 0x2 MUL ADD PUSH1 0x0 SWAP1 SWAP2 SWAP1 SWAP2 SWAP1 SWAP2 POP PUSH1 0x0 DUP3 ADD MLOAD DUP2 PUSH1 0x0 ADD SSTORE PUSH1 0x20 DUP3 ADD MLOAD DUP2 PUSH1 0x1 ADD SSTORE POP POP PUSH32 0x657CA150BE22533E612098A9CDC78B9252AA1C21D424FB5011C5CECCC0447B50 PUSH1 0x1 DUP1 SLOAD SWAP1 POP DUP5 DUP5 PUSH1 0x40 MLOAD PUSH2 0x11E1 SWAP4 SWAP3 SWAP2 SWAP1 PUSH2 0x26EF JUMP JUMPDEST PUSH1 0x40 MLOAD DUP1 SWAP2 SUB SWAP1 LOG1 POP POP POP JUMP JUMPDEST PUSH1 0x3 SLOAD DUP2 JUMP JUMPDEST PUSH1 0x7 SLOAD DUP2 JUMP JUMPDEST PUSH1 0x0 PUSH1 0x2 SLOAD NUMBER GT DUP1 ISZERO PUSH2 0x1210 JUMPI POP PUSH1 0x0 PUSH1 0x7 SLOAD EQ ISZERO JUMPDEST ISZERO PUSH2 0x125C JUMPI PUSH1 0x0 PUSH2 0x1223 PUSH1 0x2 SLOAD NUMBER PUSH2 0x141D JUMP JUMPDEST SWAP1 POP PUSH1 0x0 PUSH2 0x123C PUSH1 0x4 SLOAD DUP4 PUSH2 0x1A0B SWAP1 SWAP2 SWAP1 PUSH4 0xFFFFFFFF AND JUMP JUMPDEST SWAP1 POP PUSH2 0x1253 DUP2 PUSH1 0x8 SLOAD PUSH2 0x1A37 SWAP1 SWAP2 SWAP1 PUSH4 0xFFFFFFFF AND JUMP JUMPDEST SWAP3 POP POP POP PUSH2 0x1262 JUMP JUMPDEST PUSH1 0x8 SLOAD SWAP1 POP JUMPDEST SWAP1 JUMP JUMPDEST PUSH2 0x126D PUSH2 0x1A63 JUMP JUMPDEST PUSH20 0xFFFFFFFFFFFFFFFFFFFFFFFFFFFFFFFFFFFFFFFF AND PUSH2 0x128B PUSH2 0x13F4 JUMP JUMPDEST PUSH20 0xFFFFFFFFFFFFFFFFFFFFFFFFFFFFFFFFFFFFFFFF AND EQ PUSH2 0x12E1 JUMPI PUSH1 0x40 MLOAD PUSH32 0x8C379A000000000000000000000000000000000000000000000000000000000 DUP2 MSTORE PUSH1 0x4 ADD PUSH2 0x12D8 SWAP1 PUSH2 0x260B JUMP JUMPDEST PUSH1 0x40 MLOAD DUP1 SWAP2 SUB SWAP1 REVERT JUMPDEST PUSH2 0x12EB PUSH1 0x0 PUSH2 0x1AF4 JUMP JUMPDEST JUMP JUMPDEST PUSH2 0x12F5 PUSH2 0x1A63 JUMP JUMPDEST PUSH20 0xFFFFFFFFFFFFFFFFFFFFFFFFFFFFFFFFFFFFFFFF AND PUSH2 0x1313 PUSH2 0x13F4 JUMP JUMPDEST PUSH20 0xFFFFFFFFFFFFFFFFFFFFFFFFFFFFFFFFFFFFFFFF AND EQ PUSH2 0x1369 JUMPI PUSH1 0x40 MLOAD PUSH32 0x8C379A000000000000000000000000000000000000000000000000000000000 DUP2 MSTORE PUSH1 0x4 ADD PUSH2 0x1360 SWAP1 PUSH2 0x260B JUMP JUMPDEST PUSH1 0x40 MLOAD DUP1 SWAP2 SUB SWAP1 REVERT JUMPDEST PUSH1 0x28 DUP2 GT ISZERO PUSH2 0x13AD JUMPI PUSH1 0x40 MLOAD PUSH32 0x8C379A000000000000000000000000000000000000000000000000000000000 DUP2 MSTORE PUSH1 0x4 ADD PUSH2 0x13A4 SWAP1 PUSH2 0x262B JUMP JUMPDEST PUSH1 0x40 MLOAD DUP1 SWAP2 SUB SWAP1 REVERT JUMPDEST DUP1 PUSH1 0x6 DUP2 SWAP1 SSTORE POP PUSH32 0xF419800A2D8930C61D5D9CD782AA72C512CF6BE2F79DA6DB0B8855870B7269ED DUP2 PUSH1 0x40 MLOAD PUSH2 0x13E3 SWAP2 SWAP1 PUSH2 0x26AB JUMP JUMPDEST PUSH1 0x40 MLOAD DUP1 SWAP2 SUB SWAP1 LOG1 POP JUMP JUMPDEST PUSH1 0x4 SLOAD DUP2 JUMP JUMPDEST PUSH1 0x0 DUP1 PUSH1 0x0 SWAP1 SLOAD SWAP1 PUSH2 0x100 EXP SWAP1 DIV PUSH20 0xFFFFFFFFFFFFFFFFFFFFFFFFFFFFFFFFFFFFFFFF AND SWAP1 POP SWAP1 JUMP JUMPDEST PUSH1 0x0 PUSH2 0x1432 DUP4 DUP4 PUSH2 0x1A37 SWAP1 SWAP2 SWAP1 PUSH4 0xFFFFFFFF AND JUMP JUMPDEST SWAP1 POP SWAP3 SWAP2 POP POP JUMP JUMPDEST PUSH2 0x1442 PUSH2 0x1A63 JUMP JUMPDEST PUSH20 0xFFFFFFFFFFFFFFFFFFFFFFFFFFFFFFFFFFFFFFFF AND PUSH2 0x1460 PUSH2 0x13F4 JUMP JUMPDEST PUSH20 0xFFFFFFFFFFFFFFFFFFFFFFFFFFFFFFFFFFFFFFFF AND EQ PUSH2 0x14B6 JUMPI PUSH1 0x40 MLOAD PUSH32 0x8C379A000000000000000000000000000000000000000000000000000000000 DUP2 MSTORE PUSH1 0x4 ADD PUSH2 0x14AD SWAP1 PUSH2 0x260B JUMP JUMPDEST PUSH1 0x40 MLOAD DUP1 SWAP2 SUB SWAP1 REVERT JUMPDEST DUP1 PUSH1 0x5 PUSH1 0x0 PUSH2 0x100 EXP DUP2 SLOAD DUP2 PUSH20 0xFFFFFFFFFFFFFFFFFFFFFFFFFFFFFFFFFFFFFFFF MUL NOT AND SWAP1 DUP4 PUSH20 0xFFFFFFFFFFFFFFFFFFFFFFFFFFFFFFFFFFFFFFFF AND MUL OR SWAP1 SSTORE POP PUSH1 0x5 PUSH1 0x0 SWAP1 SLOAD SWAP1 PUSH2 0x100 EXP SWAP1 DIV PUSH20 0xFFFFFFFFFFFFFFFFFFFFFFFFFFFFFFFFFFFFFFFF AND PUSH20 0xFFFFFFFFFFFFFFFFFFFFFFFFFFFFFFFFFFFFFFFF AND PUSH32 0x3D21E5A2B633291BD1FF5F9C654E402D063783C95759D2EA521B31FB30E4DA41 PUSH1 0x40 MLOAD PUSH1 0x40 MLOAD DUP1 SWAP2 SUB SWAP1 LOG2 POP JUMP JUMPDEST PUSH2 0x1567 PUSH2 0x1A63 JUMP JUMPDEST PUSH20 0xFFFFFFFFFFFFFFFFFFFFFFFFFFFFFFFFFFFFFFFF AND PUSH2 0x1585 PUSH2 0x13F4 JUMP JUMPDEST PUSH20 0xFFFFFFFFFFFFFFFFFFFFFFFFFFFFFFFFFFFFFFFF AND EQ PUSH2 0x15DB JUMPI PUSH1 0x40 MLOAD PUSH32 0x8C379A000000000000000000000000000000000000000000000000000000000 DUP2 MSTORE PUSH1 0x4 ADD PUSH2 0x15D2 SWAP1 PUSH2 0x260B JUMP JUMPDEST PUSH1 0x40 MLOAD DUP1 SWAP2 SUB SWAP1 REVERT JUMPDEST PUSH1 0x1 DUP1 SLOAD SWAP1 POP DUP2 LT PUSH2 0x1622 JUMPI PUSH1 0x40 MLOAD PUSH32 0x8C379A000000000000000000000000000000000000000000000000000000000 DUP2 MSTORE PUSH1 0x4 ADD PUSH2 0x1619 SWAP1 PUSH2 0x254B JUMP JUMPDEST PUSH1 0x40 MLOAD DUP1 SWAP2 SUB SWAP1 REVERT JUMPDEST PUSH1 0x0 PUSH1 0x1 DUP3 DUP2 SLOAD DUP2 LT PUSH2 0x1638 JUMPI PUSH2 0x1637 PUSH2 0x2A6B JUMP JUMPDEST JUMPDEST SWAP1 PUSH1 0x0 MSTORE PUSH1 0x20 PUSH1 0x0 KECCAK256 SWAP1 PUSH1 0x2 MUL ADD PUSH1 0x0 ADD SLOAD SWAP1 POP PUSH1 0x0 PUSH1 0x1 DUP4 DUP2 SLOAD DUP2 LT PUSH2 0x1662 JUMPI PUSH2 0x1661 PUSH2 0x2A6B JUMP JUMPDEST JUMPDEST SWAP1 PUSH1 0x0 MSTORE PUSH1 0x20 PUSH1 0x0 KECCAK256 SWAP1 PUSH1 0x2 MUL ADD PUSH1 0x1 ADD SLOAD SWAP1 POP PUSH1 0x0 DUP4 SWAP1 POP JUMPDEST PUSH1 0x1 DUP1 DUP1 SLOAD SWAP1 POP PUSH2 0x168D SWAP2 SWAP1 PUSH2 0x288F JUMP JUMPDEST DUP2 LT ISZERO PUSH2 0x170D JUMPI PUSH1 0x1 DUP1 DUP3 PUSH2 0x16A2 SWAP2 SWAP1 PUSH2 0x27AE JUMP JUMPDEST DUP2 SLOAD DUP2 LT PUSH2 0x16B3 JUMPI PUSH2 0x16B2 PUSH2 0x2A6B JUMP JUMPDEST JUMPDEST SWAP1 PUSH1 0x0 MSTORE PUSH1 0x20 PUSH1 0x0 KECCAK256 SWAP1 PUSH1 0x2 MUL ADD PUSH1 0x1 DUP3 DUP2 SLOAD DUP2 LT PUSH2 0x16D5 JUMPI PUSH2 0x16D4 PUSH2 0x2A6B JUMP JUMPDEST JUMPDEST SWAP1 PUSH1 0x0 MSTORE PUSH1 0x20 PUSH1 0x0 KECCAK256 SWAP1 PUSH1 0x2 MUL ADD PUSH1 0x0 DUP3 ADD SLOAD DUP2 PUSH1 0x0 ADD SSTORE PUSH1 0x1 DUP3 ADD SLOAD DUP2 PUSH1 0x1 ADD SSTORE SWAP1 POP POP DUP1 DUP1 PUSH2 0x1705 SWAP1 PUSH2 0x2995 JUMP JUMPDEST SWAP2 POP POP PUSH2 0x167C JUMP JUMPDEST POP PUSH1 0x1 DUP1 SLOAD DUP1 PUSH2 0x1720 JUMPI PUSH2 0x171F PUSH2 0x2A3C JUMP JUMPDEST JUMPDEST PUSH1 0x1 SWAP1 SUB DUP2 DUP2 SWAP1 PUSH1 0x0 MSTORE PUSH1 0x20 PUSH1 0x0 KECCAK256 SWAP1 PUSH1 0x2 MUL ADD PUSH1 0x0 DUP1 DUP3 ADD PUSH1 0x0 SWAP1 SSTORE PUSH1 0x1 DUP3 ADD PUSH1 0x0 SWAP1 SSTORE POP POP SWAP1 SSTORE PUSH32 0x61FD4E7E2422942F3DF6E8C8C7744F23212CE0F0A23A80F0ACE593FFDF6D96D0 DUP4 DUP4 DUP4 PUSH1 0x40 MLOAD PUSH2 0x177C SWAP4 SWAP3 SWAP2 SWAP1 PUSH2 0x26EF JUMP JUMPDEST PUSH1 0x40 MLOAD DUP1 SWAP2 SUB SWAP1 LOG1 POP POP POP JUMP JUMPDEST PUSH1 0x2 SLOAD DUP2 JUMP JUMPDEST PUSH1 0x6 SLOAD DUP2 JUMP JUMPDEST PUSH32 0x0 DUP2 JUMP JUMPDEST PUSH1 0x5 PUSH1 0x0 SWAP1 SLOAD SWAP1 PUSH2 0x100 EXP SWAP1 DIV PUSH20 0xFFFFFFFFFFFFFFFFFFFFFFFFFFFFFFFFFFFFFFFF AND DUP2 JUMP JUMPDEST PUSH2 0x17E7 PUSH2 0x1A63 JUMP JUMPDEST PUSH20 0xFFFFFFFFFFFFFFFFFFFFFFFFFFFFFFFFFFFFFFFF AND PUSH2 0x1805 PUSH2 0x13F4 JUMP JUMPDEST PUSH20 0xFFFFFFFFFFFFFFFFFFFFFFFFFFFFFFFFFFFFFFFF AND EQ PUSH2 0x185B JUMPI PUSH1 0x40 MLOAD PUSH32 0x8C379A000000000000000000000000000000000000000000000000000000000 DUP2 MSTORE PUSH1 0x4 ADD PUSH2 0x1852 SWAP1 PUSH2 0x260B JUMP JUMPDEST PUSH1 0x40 MLOAD DUP1 SWAP2 SUB SWAP1 REVERT JUMPDEST PUSH1 0x0 PUSH20 0xFFFFFFFFFFFFFFFFFFFFFFFFFFFFFFFFFFFFFFFF AND DUP2 PUSH20 0xFFFFFFFFFFFFFFFFFFFFFFFFFFFFFFFFFFFFFFFF AND EQ ISZERO PUSH2 0x18CB JUMPI PUSH1 0x40 MLOAD PUSH32 0x8C379A000000000000000000000000000000000000000000000000000000000 DUP2 MSTORE PUSH1 0x4 ADD PUSH2 0x18C2 SWAP1 PUSH2 0x250B JUMP JUMPDEST PUSH1 0x40 MLOAD DUP1 SWAP2 SUB SWAP1 REVERT JUMPDEST PUSH2 0x18D4 DUP2 PUSH2 0x1AF4 JUMP JUMPDEST POP JUMP JUMPDEST PUSH1 0x2 SLOAD NUMBER GT PUSH2 0x18E5 JUMPI PUSH2 0x1A09 JUMP JUMPDEST PUSH1 0x0 PUSH1 0x7 SLOAD EQ ISZERO PUSH2 0x18FC JUMPI NUMBER PUSH1 0x2 DUP2 SWAP1 SSTORE POP PUSH2 0x1A09 JUMP JUMPDEST PUSH1 0x0 PUSH2 0x190A PUSH1 0x2 SLOAD NUMBER PUSH2 0x141D JUMP JUMPDEST SWAP1 POP PUSH1 0x0 PUSH2 0x1923 PUSH1 0x4 SLOAD DUP4 PUSH2 0x1A0B SWAP1 SWAP2 SWAP1 PUSH4 0xFFFFFFFF AND JUMP JUMPDEST SWAP1 POP PUSH1 0x0 PUSH1 0x8 SLOAD EQ ISZERO PUSH2 0x193E JUMPI NUMBER PUSH1 0x2 DUP2 SWAP1 SSTORE POP POP POP PUSH2 0x1A09 JUMP JUMPDEST DUP1 PUSH1 0x8 SLOAD LT ISZERO PUSH2 0x199D JUMPI PUSH2 0x198A PUSH2 0x1979 PUSH1 0x7 SLOAD PUSH2 0x196B PUSH5 0xE8D4A51000 PUSH1 0x8 SLOAD PUSH2 0x1A0B SWAP1 SWAP2 SWAP1 PUSH4 0xFFFFFFFF AND JUMP JUMPDEST PUSH2 0x1A21 SWAP1 SWAP2 SWAP1 PUSH4 0xFFFFFFFF AND JUMP JUMPDEST PUSH1 0x3 SLOAD PUSH2 0x1A4D SWAP1 SWAP2 SWAP1 PUSH4 0xFFFFFFFF AND JUMP JUMPDEST PUSH1 0x3 DUP2 SWAP1 SSTORE POP PUSH1 0x0 PUSH1 0x8 DUP2 SWAP1 SSTORE POP PUSH2 0x19FF JUMP JUMPDEST PUSH2 0x19B2 DUP2 PUSH1 0x8 SLOAD PUSH2 0x1A37 SWAP1 SWAP2 SWAP1 PUSH4 0xFFFFFFFF AND JUMP JUMPDEST PUSH1 0x8 DUP2 SWAP1 SSTORE POP PUSH2 0x19F8 PUSH2 0x19E7 PUSH1 0x7 SLOAD PUSH2 0x19D9 PUSH5 0xE8D4A51000 DUP6 PUSH2 0x1A0B SWAP1 SWAP2 SWAP1 PUSH4 0xFFFFFFFF AND JUMP JUMPDEST PUSH2 0x1A21 SWAP1 SWAP2 SWAP1 PUSH4 0xFFFFFFFF AND JUMP JUMPDEST PUSH1 0x3 SLOAD PUSH2 0x1A4D SWAP1 SWAP2 SWAP1 PUSH4 0xFFFFFFFF AND JUMP JUMPDEST PUSH1 0x3 DUP2 SWAP1 SSTORE POP JUMPDEST NUMBER PUSH1 0x2 DUP2 SWAP1 SSTORE POP POP POP JUMPDEST JUMP JUMPDEST PUSH1 0x0 DUP2 DUP4 PUSH2 0x1A19 SWAP2 SWAP1 PUSH2 0x2835 JUMP JUMPDEST SWAP1 POP SWAP3 SWAP2 POP POP JUMP JUMPDEST PUSH1 0x0 DUP2 DUP4 PUSH2 0x1A2F SWAP2 SWAP1 PUSH2 0x2804 JUMP JUMPDEST SWAP1 POP SWAP3 SWAP2 POP POP JUMP JUMPDEST PUSH1 0x0 DUP2 DUP4 PUSH2 0x1A45 SWAP2 SWAP1 PUSH2 0x288F JUMP JUMPDEST SWAP1 POP SWAP3 SWAP2 POP POP JUMP JUMPDEST PUSH1 0x0 DUP2 DUP4 PUSH2 0x1A5B SWAP2 SWAP1 PUSH2 0x27AE JUMP JUMPDEST SWAP1 POP SWAP3 SWAP2 POP POP JUMP JUMPDEST PUSH1 0x0 CALLER SWAP1 POP SWAP1 JUMP JUMPDEST PUSH2 0x1AEE DUP5 PUSH4 0x23B872DD PUSH1 0xE0 SHL DUP6 DUP6 DUP6 PUSH1 0x40 MLOAD PUSH1 0x24 ADD PUSH2 0x1A8C SWAP4 SWAP3 SWAP2 SWAP1 PUSH2 0x23AA JUMP JUMPDEST PUSH1 0x40 MLOAD PUSH1 0x20 DUP2 DUP4 SUB SUB DUP2 MSTORE SWAP1 PUSH1 0x40 MSTORE SWAP1 PUSH28 0xFFFFFFFFFFFFFFFFFFFFFFFFFFFFFFFFFFFFFFFFFFFFFFFFFFFFFFFF NOT AND PUSH1 0x20 DUP3 ADD DUP1 MLOAD PUSH28 0xFFFFFFFFFFFFFFFFFFFFFFFFFFFFFFFFFFFFFFFFFFFFFFFFFFFFFFFF DUP4 DUP2 DUP4 AND OR DUP4 MSTORE POP POP POP POP PUSH2 0x1BB8 JUMP JUMPDEST POP POP POP POP JUMP JUMPDEST PUSH1 0x0 DUP1 PUSH1 0x0 SWAP1 SLOAD SWAP1 PUSH2 0x100 EXP SWAP1 DIV PUSH20 0xFFFFFFFFFFFFFFFFFFFFFFFFFFFFFFFFFFFFFFFF AND SWAP1 POP DUP2 PUSH1 0x0 DUP1 PUSH2 0x100 EXP DUP2 SLOAD DUP2 PUSH20 0xFFFFFFFFFFFFFFFFFFFFFFFFFFFFFFFFFFFFFFFF MUL NOT AND SWAP1 DUP4 PUSH20 0xFFFFFFFFFFFFFFFFFFFFFFFFFFFFFFFFFFFFFFFF AND MUL OR SWAP1 SSTORE POP DUP2 PUSH20 0xFFFFFFFFFFFFFFFFFFFFFFFFFFFFFFFFFFFFFFFF AND DUP2 PUSH20 0xFFFFFFFFFFFFFFFFFFFFFFFFFFFFFFFFFFFFFFFF AND PUSH32 0x8BE0079C531659141344CD1FD0A4F28419497F9722A3DAAFE3B4186F6B6457E0 PUSH1 0x40 MLOAD PUSH1 0x40 MLOAD DUP1 SWAP2 SUB SWAP1 LOG3 POP POP JUMP JUMPDEST PUSH1 0x0 PUSH2 0x1C1A DUP3 PUSH1 0x40 MLOAD DUP1 PUSH1 0x40 ADD PUSH1 0x40 MSTORE DUP1 PUSH1 0x20 DUP2 MSTORE PUSH1 0x20 ADD PUSH32 0x5361666542455032303A206C6F772D6C6576656C2063616C6C206661696C6564 DUP2 MSTORE POP DUP6 PUSH20 0xFFFFFFFFFFFFFFFFFFFFFFFFFFFFFFFFFFFFFFFF AND PUSH2 0x1C7F SWAP1 SWAP3 SWAP2 SWAP1 PUSH4 0xFFFFFFFF AND JUMP JUMPDEST SWAP1 POP PUSH1 0x0 DUP2 MLOAD GT ISZERO PUSH2 0x1C7A JUMPI DUP1 DUP1 PUSH1 0x20 ADD SWAP1 MLOAD DUP2 ADD SWAP1 PUSH2 0x1C3A SWAP2 SWAP1 PUSH2 0x1F13 JUMP JUMPDEST PUSH2 0x1C79 JUMPI PUSH1 0x40 MLOAD PUSH32 0x8C379A000000000000000000000000000000000000000000000000000000000 DUP2 MSTORE PUSH1 0x4 ADD PUSH2 0x1C70 SWAP1 PUSH2 0x24EB JUMP JUMPDEST PUSH1 0x40 MLOAD DUP1 SWAP2 SUB SWAP1 REVERT JUMPDEST JUMPDEST POP POP POP JUMP JUMPDEST PUSH1 0x60 PUSH2 0x1C8E DUP5 DUP5 PUSH1 0x0 DUP6 PUSH2 0x1C97 JUMP JUMPDEST SWAP1 POP SWAP4 SWAP3 POP POP POP JUMP JUMPDEST PUSH1 0x60 PUSH2 0x1CA2 DUP6 PUSH2 0x1DB9 JUMP JUMPDEST PUSH2 0x1CE1 JUMPI PUSH1 0x40 MLOAD PUSH32 0x8C379A000000000000000000000000000000000000000000000000000000000 DUP2 MSTORE PUSH1 0x4 ADD PUSH2 0x1CD8 SWAP1 PUSH2 0x268B JUMP JUMPDEST PUSH1 0x40 MLOAD DUP1 SWAP2 SUB SWAP1 REVERT JUMPDEST PUSH1 0x0 DUP1 DUP7 PUSH20 0xFFFFFFFFFFFFFFFFFFFFFFFFFFFFFFFFFFFFFFFF AND DUP6 DUP8 PUSH1 0x40 MLOAD PUSH2 0x1D0A SWAP2 SWAP1 PUSH2 0x2378 JUMP JUMPDEST PUSH1 0x0 PUSH1 0x40 MLOAD DUP1 DUP4 SUB DUP2 DUP6 DUP8 GAS CALL SWAP3 POP POP POP RETURNDATASIZE DUP1 PUSH1 0x0 DUP2 EQ PUSH2 0x1D47 JUMPI PUSH1 0x40 MLOAD SWAP2 POP PUSH1 0x1F NOT PUSH1 0x3F RETURNDATASIZE ADD AND DUP3 ADD PUSH1 0x40 MSTORE RETURNDATASIZE DUP3 MSTORE RETURNDATASIZE PUSH1 0x0 PUSH1 0x20 DUP5 ADD RETURNDATACOPY PUSH2 0x1D4C JUMP JUMPDEST PUSH1 0x60 SWAP2 POP JUMPDEST POP SWAP2 POP SWAP2 POP DUP2 ISZERO PUSH2 0x1D61 JUMPI DUP1 SWAP3 POP POP POP PUSH2 0x1DB1 JUMP JUMPDEST PUSH1 0x0 DUP2 MLOAD GT ISZERO PUSH2 0x1D74 JUMPI DUP1 MLOAD DUP1 DUP3 PUSH1 0x20 ADD REVERT JUMPDEST DUP4 PUSH1 0x40 MLOAD PUSH32 0x8C379A000000000000000000000000000000000000000000000000000000000 DUP2 MSTORE PUSH1 0x4 ADD PUSH2 0x1DA8 SWAP2 SWAP1 PUSH2 0x2449 JUMP JUMPDEST PUSH1 0x40 MLOAD DUP1 SWAP2 SUB SWAP1 REVERT JUMPDEST SWAP5 SWAP4 POP POP POP POP JUMP JUMPDEST PUSH1 0x0 DUP1 PUSH1 0x0 PUSH32 0xC5D2460186F7233C927E7DB2DCC703C0E500B653CA82273B7BFAD8045D85A470 PUSH1 0x0 SHL SWAP1 POP DUP4 EXTCODEHASH SWAP2 POP DUP1 DUP3 EQ ISZERO DUP1 ISZERO PUSH2 0x1DFB JUMPI POP PUSH1 0x0 DUP1 SHL DUP3 EQ ISZERO JUMPDEST SWAP3 POP POP POP SWAP2 SWAP1 POP JUMP JUMPDEST PUSH1 0x0 DUP2 CALLDATALOAD SWAP1 POP PUSH2 0x1E13 DUP2 PUSH2 0x2E8F JUMP JUMPDEST SWAP3 SWAP2 POP POP JUMP JUMPDEST PUSH1 0x0 DUP1 DUP4 PUSH1 0x1F DUP5 ADD SLT PUSH2 0x1E2F JUMPI PUSH2 0x1E2E PUSH2 0x2A9F JUMP JUMPDEST JUMPDEST DUP3 CALLDATALOAD SWAP1 POP PUSH8 0xFFFFFFFFFFFFFFFF DUP2 GT ISZERO PUSH2 0x1E4C JUMPI PUSH2 0x1E4B PUSH2 0x2A9A JUMP JUMPDEST JUMPDEST PUSH1 0x20 DUP4 ADD SWAP2 POP DUP4 PUSH1 0x20 DUP3 MUL DUP4 ADD GT ISZERO PUSH2 0x1E68 JUMPI PUSH2 0x1E67 PUSH2 0x2AA4 JUMP JUMPDEST JUMPDEST SWAP3 POP SWAP3 SWAP1 POP JUMP JUMPDEST PUSH1 0x0 DUP2 MLOAD SWAP1 POP PUSH2 0x1E7E DUP2 PUSH2 0x2EA6 JUMP JUMPDEST SWAP3 SWAP2 POP POP JUMP JUMPDEST PUSH1 0x0 DUP2 CALLDATALOAD SWAP1 POP PUSH2 0x1E93 DUP2 PUSH2 0x2EBD JUMP JUMPDEST SWAP3 SWAP2 POP POP JUMP JUMPDEST PUSH1 0x0 PUSH1 0x20 DUP3 DUP5 SUB SLT ISZERO PUSH2 0x1EAF JUMPI PUSH2 0x1EAE PUSH2 0x2AB3 JUMP JUMPDEST JUMPDEST PUSH1 0x0 PUSH2 0x1EBD DUP5 DUP3 DUP6 ADD PUSH2 0x1E04 JUMP JUMPDEST SWAP2 POP POP SWAP3 SWAP2 POP POP JUMP JUMPDEST PUSH1 0x0 DUP1 PUSH1 0x20 DUP4 DUP6 SUB SLT ISZERO PUSH2 0x1EDD JUMPI PUSH2 0x1EDC PUSH2 0x2AB3 JUMP JUMPDEST JUMPDEST PUSH1 0x0 DUP4 ADD CALLDATALOAD PUSH8 0xFFFFFFFFFFFFFFFF DUP2 GT ISZERO PUSH2 0x1EFB JUMPI PUSH2 0x1EFA PUSH2 0x2AA9 JUMP JUMPDEST JUMPDEST PUSH2 0x1F07 DUP6 DUP3 DUP7 ADD PUSH2 0x1E19 JUMP JUMPDEST SWAP3 POP SWAP3 POP POP SWAP3 POP SWAP3 SWAP1 POP JUMP JUMPDEST PUSH1 0x0 PUSH1 0x20 DUP3 DUP5 SUB SLT ISZERO PUSH2 0x1F29 JUMPI PUSH2 0x1F28 PUSH2 0x2AB3 JUMP JUMPDEST JUMPDEST PUSH1 0x0 PUSH2 0x1F37 DUP5 DUP3 DUP6 ADD PUSH2 0x1E6F JUMP JUMPDEST SWAP2 POP POP SWAP3 SWAP2 POP POP JUMP JUMPDEST PUSH1 0x0 PUSH1 0x20 DUP3 DUP5 SUB SLT ISZERO PUSH2 0x1F56 JUMPI PUSH2 0x1F55 PUSH2 0x2AB3 JUMP JUMPDEST JUMPDEST PUSH1 0x0 PUSH2 0x1F64 DUP5 DUP3 DUP6 ADD PUSH2 0x1E84 JUMP JUMPDEST SWAP2 POP POP SWAP3 SWAP2 POP POP JUMP JUMPDEST PUSH1 0x0 DUP1 PUSH1 0x40 DUP4 DUP6 SUB SLT ISZERO PUSH2 0x1F84 JUMPI PUSH2 0x1F83 PUSH2 0x2AB3 JUMP JUMPDEST JUMPDEST PUSH1 0x0 PUSH2 0x1F92 DUP6 DUP3 DUP7 ADD PUSH2 0x1E84 JUMP JUMPDEST SWAP3 POP POP PUSH1 0x20 PUSH2 0x1FA3 DUP6 DUP3 DUP7 ADD PUSH2 0x1E84 JUMP JUMPDEST SWAP2 POP POP SWAP3 POP SWAP3 SWAP1 POP JUMP JUMPDEST PUSH1 0x0 DUP1 PUSH1 0x0 PUSH1 0x60 DUP5 DUP7 SUB SLT ISZERO PUSH2 0x1FC6 JUMPI PUSH2 0x1FC5 PUSH2 0x2AB3 JUMP JUMPDEST JUMPDEST PUSH1 0x0 PUSH2 0x1FD4 DUP7 DUP3 DUP8 ADD PUSH2 0x1E84 JUMP JUMPDEST SWAP4 POP POP PUSH1 0x20 PUSH2 0x1FE5 DUP7 DUP3 DUP8 ADD PUSH2 0x1E84 JUMP JUMPDEST SWAP3 POP POP PUSH1 0x40 PUSH2 0x1FF6 DUP7 DUP3 DUP8 ADD PUSH2 0x1E84 JUMP JUMPDEST SWAP2 POP POP SWAP3 POP SWAP3 POP SWAP3 JUMP JUMPDEST PUSH2 0x2009 DUP2 PUSH2 0x28C3 JUMP JUMPDEST DUP3 MSTORE POP POP JUMP JUMPDEST PUSH1 0x0 PUSH2 0x201B DUP4 DUP6 PUSH2 0x2781 JUMP JUMPDEST SWAP4 POP PUSH32 0x7FFFFFFFFFFFFFFFFFFFFFFFFFFFFFFFFFFFFFFFFFFFFFFFFFFFFFFFFFFFFFF DUP4 GT ISZERO PUSH2 0x204E JUMPI PUSH2 0x204D PUSH2 0x2AAE JUMP JUMPDEST JUMPDEST PUSH1 0x20 DUP4 MUL SWAP3 POP PUSH2 0x205F DUP4 DUP6 DUP5 PUSH2 0x2953 JUMP JUMPDEST DUP3 DUP5 ADD SWAP1 POP SWAP4 SWAP3 POP POP POP JUMP JUMPDEST PUSH1 0x0 PUSH2 0x2076 DUP3 PUSH2 0x276B JUMP JUMPDEST PUSH2 0x2080 DUP2 DUP6 PUSH2 0x2792 JUMP JUMPDEST SWAP4 POP PUSH2 0x2090 DUP2 DUP6 PUSH1 0x20 DUP7 ADD PUSH2 0x2962 JUMP JUMPDEST DUP1 DUP5 ADD SWAP2 POP POP SWAP3 SWAP2 POP POP JUMP JUMPDEST PUSH2 0x20A5 DUP2 PUSH2 0x290B JUMP JUMPDEST DUP3 MSTORE POP POP JUMP JUMPDEST PUSH2 0x20B4 DUP2 PUSH2 0x291D JUMP JUMPDEST DUP3 MSTORE POP POP JUMP JUMPDEST PUSH1 0x0 PUSH2 0x20C5 DUP3 PUSH2 0x2776 JUMP JUMPDEST PUSH2 0x20CF DUP2 DUP6 PUSH2 0x279D JUMP JUMPDEST SWAP4 POP PUSH2 0x20DF DUP2 DUP6 PUSH1 0x20 DUP7 ADD PUSH2 0x2962 JUMP JUMPDEST PUSH2 0x20E8 DUP2 PUSH2 0x2AB8 JUMP JUMPDEST DUP5 ADD SWAP2 POP POP SWAP3 SWAP2 POP POP JUMP JUMPDEST PUSH1 0x0 PUSH2 0x2100 PUSH1 0x1B DUP4 PUSH2 0x279D JUMP JUMPDEST SWAP2 POP PUSH2 0x210B DUP3 PUSH2 0x2AC9 JUMP JUMPDEST PUSH1 0x20 DUP3 ADD SWAP1 POP SWAP2 SWAP1 POP JUMP JUMPDEST PUSH1 0x0 PUSH2 0x2123 PUSH1 0x18 DUP4 PUSH2 0x279D JUMP JUMPDEST SWAP2 POP PUSH2 0x212E DUP3 PUSH2 0x2AF2 JUMP JUMPDEST PUSH1 0x20 DUP3 ADD SWAP1 POP SWAP2 SWAP1 POP JUMP JUMPDEST PUSH1 0x0 PUSH2 0x2146 PUSH1 0x1B DUP4 PUSH2 0x279D JUMP JUMPDEST SWAP2 POP PUSH2 0x2151 DUP3 PUSH2 0x2B1B JUMP JUMPDEST PUSH1 0x20 DUP3 ADD SWAP1 POP SWAP2 SWAP1 POP JUMP JUMPDEST PUSH1 0x0 PUSH2 0x2169 PUSH1 0x1E DUP4 PUSH2 0x279D JUMP JUMPDEST SWAP2 POP PUSH2 0x2174 DUP3 PUSH2 0x2B44 JUMP JUMPDEST PUSH1 0x20 DUP3 ADD SWAP1 POP SWAP2 SWAP1 POP JUMP JUMPDEST PUSH1 0x0 PUSH2 0x218C PUSH1 0x2A DUP4 PUSH2 0x279D JUMP JUMPDEST SWAP2 POP PUSH2 0x2197 DUP3 PUSH2 0x2B6D JUMP JUMPDEST PUSH1 0x40 DUP3 ADD SWAP1 POP SWAP2 SWAP1 POP JUMP JUMPDEST PUSH1 0x0 PUSH2 0x21AF PUSH1 0x26 DUP4 PUSH2 0x279D JUMP JUMPDEST SWAP2 POP PUSH2 0x21BA DUP3 PUSH2 0x2BBC JUMP JUMPDEST PUSH1 0x40 DUP3 ADD SWAP1 POP SWAP2 SWAP1 POP JUMP JUMPDEST PUSH1 0x0 PUSH2 0x21D2 PUSH1 0x1E DUP4 PUSH2 0x279D JUMP JUMPDEST SWAP2 POP PUSH2 0x21DD DUP3 PUSH2 0x2C0B JUMP JUMPDEST PUSH1 0x20 DUP3 ADD SWAP1 POP SWAP2 SWAP1 POP JUMP JUMPDEST PUSH1 0x0 PUSH2 0x21F5 PUSH1 0x1B DUP4 PUSH2 0x279D JUMP JUMPDEST SWAP2 POP PUSH2 0x2200 DUP3 PUSH2 0x2C34 JUMP JUMPDEST PUSH1 0x20 DUP3 ADD SWAP1 POP SWAP2 SWAP1 POP JUMP JUMPDEST PUSH1 0x0 PUSH2 0x2218 PUSH1 0x31 DUP4 PUSH2 0x279D JUMP JUMPDEST SWAP2 POP PUSH2 0x2223 DUP3 PUSH2 0x2C5D JUMP JUMPDEST PUSH1 0x40 DUP3 ADD SWAP1 POP SWAP2 SWAP1 POP JUMP JUMPDEST PUSH1 0x0 PUSH2 0x223B PUSH1 0x22 DUP4 PUSH2 0x279D JUMP JUMPDEST SWAP2 POP PUSH2 0x2246 DUP3 PUSH2 0x2CAC JUMP JUMPDEST PUSH1 0x40 DUP3 ADD SWAP1 POP SWAP2 SWAP1 POP JUMP JUMPDEST PUSH1 0x0 PUSH2 0x225E PUSH1 0x1F DUP4 PUSH2 0x279D JUMP JUMPDEST SWAP2 POP PUSH2 0x2269 DUP3 PUSH2 0x2CFB JUMP JUMPDEST PUSH1 0x20 DUP3 ADD SWAP1 POP SWAP2 SWAP1 POP JUMP JUMPDEST PUSH1 0x0 PUSH2 0x2281 PUSH1 0x18 DUP4 PUSH2 0x279D JUMP JUMPDEST SWAP2 POP PUSH2 0x228C DUP3 PUSH2 0x2D24 JUMP JUMPDEST PUSH1 0x20 DUP3 ADD SWAP1 POP SWAP2 SWAP1 POP JUMP JUMPDEST PUSH1 0x0 PUSH2 0x22A4 PUSH1 0x22 DUP4 PUSH2 0x279D JUMP JUMPDEST SWAP2 POP PUSH2 0x22AF DUP3 PUSH2 0x2D4D JUMP JUMPDEST PUSH1 0x40 DUP3 ADD SWAP1 POP SWAP2 SWAP1 POP JUMP JUMPDEST PUSH1 0x0 PUSH2 0x22C7 PUSH1 0x20 DUP4 PUSH2 0x279D JUMP JUMPDEST SWAP2 POP PUSH2 0x22D2 DUP3 PUSH2 0x2D9C JUMP JUMPDEST PUSH1 0x20 DUP3 ADD SWAP1 POP SWAP2 SWAP1 POP JUMP JUMPDEST PUSH1 0x0 PUSH2 0x22EA PUSH1 0x1E DUP4 PUSH2 0x279D JUMP JUMPDEST SWAP2 POP PUSH2 0x22F5 DUP3 PUSH2 0x2DC5 JUMP JUMPDEST PUSH1 0x20 DUP3 ADD SWAP1 POP SWAP2 SWAP1 POP JUMP JUMPDEST PUSH1 0x0 PUSH2 0x230D PUSH1 0x1F DUP4 PUSH2 0x279D JUMP JUMPDEST SWAP2 POP PUSH2 0x2318 DUP3 PUSH2 0x2DEE JUMP JUMPDEST PUSH1 0x20 DUP3 ADD SWAP1 POP SWAP2 SWAP1 POP JUMP JUMPDEST PUSH1 0x0 PUSH2 0x2330 PUSH1 0x22 DUP4 PUSH2 0x279D JUMP JUMPDEST SWAP2 POP PUSH2 0x233B DUP3 PUSH2 0x2E17 JUMP JUMPDEST PUSH1 0x40 DUP3 ADD SWAP1 POP SWAP2 SWAP1 POP JUMP JUMPDEST PUSH1 0x0 PUSH2 0x2353 PUSH1 0x1D DUP4 PUSH2 0x279D JUMP JUMPDEST SWAP2 POP PUSH2 0x235E DUP3 PUSH2 0x2E66 JUMP JUMPDEST PUSH1 0x20 DUP3 ADD SWAP1 POP SWAP2 SWAP1 POP JUMP JUMPDEST PUSH2 0x2372 DUP2 PUSH2 0x2901 JUMP JUMPDEST DUP3 MSTORE POP POP JUMP JUMPDEST PUSH1 0x0 PUSH2 0x2384 DUP3 DUP5 PUSH2 0x206B JUMP JUMPDEST SWAP2 POP DUP2 SWAP1 POP SWAP3 SWAP2 POP POP JUMP JUMPDEST PUSH1 0x0 PUSH1 0x20 DUP3 ADD SWAP1 POP PUSH2 0x23A4 PUSH1 0x0 DUP4 ADD DUP5 PUSH2 0x2000 JUMP JUMPDEST SWAP3 SWAP2 POP POP JUMP JUMPDEST PUSH1 0x0 PUSH1 0x60 DUP3 ADD SWAP1 POP PUSH2 0x23BF PUSH1 0x0 DUP4 ADD DUP7 PUSH2 0x2000 JUMP JUMPDEST PUSH2 0x23CC PUSH1 0x20 DUP4 ADD DUP6 PUSH2 0x2000 JUMP JUMPDEST PUSH2 0x23D9 PUSH1 0x40 DUP4 ADD DUP5 PUSH2 0x2369 JUMP JUMPDEST SWAP5 SWAP4 POP POP POP POP JUMP JUMPDEST PUSH1 0x0 PUSH1 0x40 DUP3 ADD SWAP1 POP PUSH2 0x23F6 PUSH1 0x0 DUP4 ADD DUP7 PUSH2 0x2000 JUMP JUMPDEST DUP2 DUP2 SUB PUSH1 0x20 DUP4 ADD MSTORE PUSH2 0x2409 DUP2 DUP5 DUP7 PUSH2 0x200F JUMP JUMPDEST SWAP1 POP SWAP5 SWAP4 POP POP POP POP JUMP JUMPDEST PUSH1 0x0 PUSH1 0x20 DUP3 ADD SWAP1 POP PUSH2 0x2428 PUSH1 0x0 DUP4 ADD DUP5 PUSH2 0x209C JUMP JUMPDEST SWAP3 SWAP2 POP POP JUMP JUMPDEST PUSH1 0x0 PUSH1 0x20 DUP3 ADD SWAP1 POP PUSH2 0x2443 PUSH1 0x0 DUP4 ADD DUP5 PUSH2 0x20AB JUMP JUMPDEST SWAP3 SWAP2 POP POP JUMP JUMPDEST PUSH1 0x0 PUSH1 0x20 DUP3 ADD SWAP1 POP DUP2 DUP2 SUB PUSH1 0x0 DUP4 ADD MSTORE PUSH2 0x2463 DUP2 DUP5 PUSH2 0x20BA JUMP JUMPDEST SWAP1 POP SWAP3 SWAP2 POP POP JUMP JUMPDEST PUSH1 0x0 PUSH1 0x20 DUP3 ADD SWAP1 POP DUP2 DUP2 SUB PUSH1 0x0 DUP4 ADD MSTORE PUSH2 0x2484 DUP2 PUSH2 0x20F3 JUMP JUMPDEST SWAP1 POP SWAP2 SWAP1 POP JUMP JUMPDEST PUSH1 0x0 PUSH1 0x20 DUP3 ADD SWAP1 POP DUP2 DUP2 SUB PUSH1 0x0 DUP4 ADD MSTORE PUSH2 0x24A4 DUP2 PUSH2 0x2116 JUMP JUMPDEST SWAP1 POP SWAP2 SWAP1 POP JUMP JUMPDEST PUSH1 0x0 PUSH1 0x20 DUP3 ADD SWAP1 POP DUP2 DUP2 SUB PUSH1 0x0 DUP4 ADD MSTORE PUSH2 0x24C4 DUP2 PUSH2 0x2139 JUMP JUMPDEST SWAP1 POP SWAP2 SWAP1 POP JUMP JUMPDEST PUSH1 0x0 PUSH1 0x20 DUP3 ADD SWAP1 POP DUP2 DUP2 SUB PUSH1 0x0 DUP4 ADD MSTORE PUSH2 0x24E4 DUP2 PUSH2 0x215C JUMP JUMPDEST SWAP1 POP SWAP2 SWAP1 POP JUMP JUMPDEST PUSH1 0x0 PUSH1 0x20 DUP3 ADD SWAP1 POP DUP2 DUP2 SUB PUSH1 0x0 DUP4 ADD MSTORE PUSH2 0x2504 DUP2 PUSH2 0x217F JUMP JUMPDEST SWAP1 POP SWAP2 SWAP1 POP JUMP JUMPDEST PUSH1 0x0 PUSH1 0x20 DUP3 ADD SWAP1 POP DUP2 DUP2 SUB PUSH1 0x0 DUP4 ADD MSTORE PUSH2 0x2524 DUP2 PUSH2 0x21A2 JUMP JUMPDEST SWAP1 POP SWAP2 SWAP1 POP JUMP JUMPDEST PUSH1 0x0 PUSH1 0x20 DUP3 ADD SWAP1 POP DUP2 DUP2 SUB PUSH1 0x0 DUP4 ADD MSTORE PUSH2 0x2544 DUP2 PUSH2 0x21C5 JUMP JUMPDEST SWAP1 POP SWAP2 SWAP1 POP JUMP JUMPDEST PUSH1 0x0 PUSH1 0x20 DUP3 ADD SWAP1 POP DUP2 DUP2 SUB PUSH1 0x0 DUP4 ADD MSTORE PUSH2 0x2564 DUP2 PUSH2 0x21E8 JUMP JUMPDEST SWAP1 POP SWAP2 SWAP1 POP JUMP JUMPDEST PUSH1 0x0 PUSH1 0x20 DUP3 ADD SWAP1 POP DUP2 DUP2 SUB PUSH1 0x0 DUP4 ADD MSTORE PUSH2 0x2584 DUP2 PUSH2 0x220B JUMP JUMPDEST SWAP1 POP SWAP2 SWAP1 POP JUMP JUMPDEST PUSH1 0x0 PUSH1 0x20 DUP3 ADD SWAP1 POP DUP2 DUP2 SUB PUSH1 0x0 DUP4 ADD MSTORE PUSH2 0x25A4 DUP2 PUSH2 0x222E JUMP JUMPDEST SWAP1 POP SWAP2 SWAP1 POP JUMP JUMPDEST PUSH1 0x0 PUSH1 0x20 DUP3 ADD SWAP1 POP DUP2 DUP2 SUB PUSH1 0x0 DUP4 ADD MSTORE PUSH2 0x25C4 DUP2 PUSH2 0x2251 JUMP JUMPDEST SWAP1 POP SWAP2 SWAP1 POP JUMP JUMPDEST PUSH1 0x0 PUSH1 0x20 DUP3 ADD SWAP1 POP DUP2 DUP2 SUB PUSH1 0x0 DUP4 ADD MSTORE PUSH2 0x25E4 DUP2 PUSH2 0x2274 JUMP JUMPDEST SWAP1 POP SWAP2 SWAP1 POP JUMP JUMPDEST PUSH1 0x0 PUSH1 0x20 DUP3 ADD SWAP1 POP DUP2 DUP2 SUB PUSH1 0x0 DUP4 ADD MSTORE PUSH2 0x2604 DUP2 PUSH2 0x2297 JUMP JUMPDEST SWAP1 POP SWAP2 SWAP1 POP JUMP JUMPDEST PUSH1 0x0 PUSH1 0x20 DUP3 ADD SWAP1 POP DUP2 DUP2 SUB PUSH1 0x0 DUP4 ADD MSTORE PUSH2 0x2624 DUP2 PUSH2 0x22BA JUMP JUMPDEST SWAP1 POP SWAP2 SWAP1 POP JUMP JUMPDEST PUSH1 0x0 PUSH1 0x20 DUP3 ADD SWAP1 POP DUP2 DUP2 SUB PUSH1 0x0 DUP4 ADD MSTORE PUSH2 0x2644 DUP2 PUSH2 0x22DD JUMP JUMPDEST SWAP1 POP SWAP2 SWAP1 POP JUMP JUMPDEST PUSH1 0x0 PUSH1 0x20 DUP3 ADD SWAP1 POP DUP2 DUP2 SUB PUSH1 0x0 DUP4 ADD MSTORE PUSH2 0x2664 DUP2 PUSH2 0x2300 JUMP JUMPDEST SWAP1 POP SWAP2 SWAP1 POP JUMP JUMPDEST PUSH1 0x0 PUSH1 0x20 DUP3 ADD SWAP1 POP DUP2 DUP2 SUB PUSH1 0x0 DUP4 ADD MSTORE PUSH2 0x2684 DUP2 PUSH2 0x2323 JUMP JUMPDEST SWAP1 POP SWAP2 SWAP1 POP JUMP JUMPDEST PUSH1 0x0 PUSH1 0x20 DUP3 ADD SWAP1 POP DUP2 DUP2 SUB PUSH1 0x0 DUP4 ADD MSTORE PUSH2 0x26A4 DUP2 PUSH2 0x2346 JUMP JUMPDEST SWAP1 POP SWAP2 SWAP1 POP JUMP JUMPDEST PUSH1 0x0 PUSH1 0x20 DUP3 ADD SWAP1 POP PUSH2 0x26C0 PUSH1 0x0 DUP4 ADD DUP5 PUSH2 0x2369 JUMP JUMPDEST SWAP3 SWAP2 POP POP JUMP JUMPDEST PUSH1 0x0 PUSH1 0x40 DUP3 ADD SWAP1 POP PUSH2 0x26DB PUSH1 0x0 DUP4 ADD DUP6 PUSH2 0x2369 JUMP JUMPDEST PUSH2 0x26E8 PUSH1 0x20 DUP4 ADD DUP5 PUSH2 0x2369 JUMP JUMPDEST SWAP4 SWAP3 POP POP POP JUMP JUMPDEST PUSH1 0x0 PUSH1 0x60 DUP3 ADD SWAP1 POP PUSH2 0x2704 PUSH1 0x0 DUP4 ADD DUP7 PUSH2 0x2369 JUMP JUMPDEST PUSH2 0x2711 PUSH1 0x20 DUP4 ADD DUP6 PUSH2 0x2369 JUMP JUMPDEST PUSH2 0x271E PUSH1 0x40 DUP4 ADD DUP5 PUSH2 0x2369 JUMP JUMPDEST SWAP5 SWAP4 POP POP POP POP JUMP JUMPDEST PUSH1 0x0 PUSH1 0x80 DUP3 ADD SWAP1 POP PUSH2 0x273B PUSH1 0x0 DUP4 ADD DUP8 PUSH2 0x2369 JUMP JUMPDEST PUSH2 0x2748 PUSH1 0x20 DUP4 ADD DUP7 PUSH2 0x2369 JUMP JUMPDEST PUSH2 0x2755 PUSH1 0x40 DUP4 ADD DUP6 PUSH2 0x2369 JUMP JUMPDEST PUSH2 0x2762 PUSH1 0x60 DUP4 ADD DUP5 PUSH2 0x2369 JUMP JUMPDEST SWAP6 SWAP5 POP POP POP POP POP JUMP JUMPDEST PUSH1 0x0 DUP2 MLOAD SWAP1 POP SWAP2 SWAP1 POP JUMP JUMPDEST PUSH1 0x0 DUP2 MLOAD SWAP1 POP SWAP2 SWAP1 POP JUMP JUMPDEST PUSH1 0x0 DUP3 DUP3 MSTORE PUSH1 0x20 DUP3 ADD SWAP1 POP SWAP3 SWAP2 POP POP JUMP JUMPDEST PUSH1 0x0 DUP2 SWAP1 POP SWAP3 SWAP2 POP POP JUMP JUMPDEST PUSH1 0x0 DUP3 DUP3 MSTORE PUSH1 0x20 DUP3 ADD SWAP1 POP SWAP3 SWAP2 POP POP JUMP JUMPDEST PUSH1 0x0 PUSH2 0x27B9 DUP3 PUSH2 0x2901 JUMP JUMPDEST SWAP2 POP PUSH2 0x27C4 DUP4 PUSH2 0x2901 JUMP JUMPDEST SWAP3 POP DUP3 PUSH32 0xFFFFFFFFFFFFFFFFFFFFFFFFFFFFFFFFFFFFFFFFFFFFFFFFFFFFFFFFFFFFFFFF SUB DUP3 GT ISZERO PUSH2 0x27F9 JUMPI PUSH2 0x27F8 PUSH2 0x29DE JUMP JUMPDEST JUMPDEST DUP3 DUP3 ADD SWAP1 POP SWAP3 SWAP2 POP POP JUMP JUMPDEST PUSH1 0x0 PUSH2 0x280F DUP3 PUSH2 0x2901 JUMP JUMPDEST SWAP2 POP PUSH2 0x281A DUP4 PUSH2 0x2901 JUMP JUMPDEST SWAP3 POP DUP3 PUSH2 0x282A JUMPI PUSH2 0x2829 PUSH2 0x2A0D JUMP JUMPDEST JUMPDEST DUP3 DUP3 DIV SWAP1 POP SWAP3 SWAP2 POP POP JUMP JUMPDEST PUSH1 0x0 PUSH2 0x2840 DUP3 PUSH2 0x2901 JUMP JUMPDEST SWAP2 POP PUSH2 0x284B DUP4 PUSH2 0x2901 JUMP JUMPDEST SWAP3 POP DUP2 PUSH32 0xFFFFFFFFFFFFFFFFFFFFFFFFFFFFFFFFFFFFFFFFFFFFFFFFFFFFFFFFFFFFFFFF DIV DUP4 GT DUP3 ISZERO ISZERO AND ISZERO PUSH2 0x2884 JUMPI PUSH2 0x2883 PUSH2 0x29DE JUMP JUMPDEST JUMPDEST DUP3 DUP3 MUL SWAP1 POP SWAP3 SWAP2 POP POP JUMP JUMPDEST PUSH1 0x0 PUSH2 0x289A DUP3 PUSH2 0x2901 JUMP JUMPDEST SWAP2 POP PUSH2 0x28A5 DUP4 PUSH2 0x2901 JUMP JUMPDEST SWAP3 POP DUP3 DUP3 LT ISZERO PUSH2 0x28B8 JUMPI PUSH2 0x28B7 PUSH2 0x29DE JUMP JUMPDEST JUMPDEST DUP3 DUP3 SUB SWAP1 POP SWAP3 SWAP2 POP POP JUMP JUMPDEST PUSH1 0x0 PUSH2 0x28CE DUP3 PUSH2 0x28E1 JUMP JUMPDEST SWAP1 POP SWAP2 SWAP1 POP JUMP JUMPDEST PUSH1 0x0 DUP2 ISZERO ISZERO SWAP1 POP SWAP2 SWAP1 POP JUMP JUMPDEST PUSH1 0x0 PUSH20 0xFFFFFFFFFFFFFFFFFFFFFFFFFFFFFFFFFFFFFFFF DUP3 AND SWAP1 POP SWAP2 SWAP1 POP JUMP JUMPDEST PUSH1 0x0 DUP2 SWAP1 POP SWAP2 SWAP1 POP JUMP JUMPDEST PUSH1 0x0 PUSH2 0x2916 DUP3 PUSH2 0x292F JUMP JUMPDEST SWAP1 POP SWAP2 SWAP1 POP JUMP JUMPDEST PUSH1 0x0 PUSH2 0x2928 DUP3 PUSH2 0x292F JUMP JUMPDEST SWAP1 POP SWAP2 SWAP1 POP JUMP JUMPDEST PUSH1 0x0 PUSH2 0x293A DUP3 PUSH2 0x2941 JUMP JUMPDEST SWAP1 POP SWAP2 SWAP1 POP JUMP JUMPDEST PUSH1 0x0 PUSH2 0x294C DUP3 PUSH2 0x28E1 JUMP JUMPDEST SWAP1 POP SWAP2 SWAP1 POP JUMP JUMPDEST DUP3 DUP2 DUP4 CALLDATACOPY PUSH1 0x0 DUP4 DUP4 ADD MSTORE POP POP POP JUMP JUMPDEST PUSH1 0x0 JUMPDEST DUP4 DUP2 LT ISZERO PUSH2 0x2980 JUMPI DUP1 DUP3 ADD MLOAD DUP2 DUP5 ADD MSTORE PUSH1 0x20 DUP2 ADD SWAP1 POP PUSH2 0x2965 JUMP JUMPDEST DUP4 DUP2 GT ISZERO PUSH2 0x298F JUMPI PUSH1 0x0 DUP5 DUP5 ADD MSTORE JUMPDEST POP POP POP POP JUMP JUMPDEST PUSH1 0x0 PUSH2 0x29A0 DUP3 PUSH2 0x2901 JUMP JUMPDEST SWAP2 POP PUSH32 0xFFFFFFFFFFFFFFFFFFFFFFFFFFFFFFFFFFFFFFFFFFFFFFFFFFFFFFFFFFFFFFFF DUP3 EQ ISZERO PUSH2 0x29D3 JUMPI PUSH2 0x29D2 PUSH2 0x29DE JUMP JUMPDEST JUMPDEST PUSH1 0x1 DUP3 ADD SWAP1 POP SWAP2 SWAP1 POP JUMP JUMPDEST PUSH32 0x4E487B7100000000000000000000000000000000000000000000000000000000 PUSH1 0x0 MSTORE PUSH1 0x11 PUSH1 0x4 MSTORE PUSH1 0x24 PUSH1 0x0 REVERT JUMPDEST PUSH32 0x4E487B7100000000000000000000000000000000000000000000000000000000 PUSH1 0x0 MSTORE PUSH1 0x12 PUSH1 0x4 MSTORE PUSH1 0x24 PUSH1 0x0 REVERT JUMPDEST PUSH32 0x4E487B7100000000000000000000000000000000000000000000000000000000 PUSH1 0x0 MSTORE PUSH1 0x31 PUSH1 0x4 MSTORE PUSH1 0x24 PUSH1 0x0 REVERT JUMPDEST PUSH32 0x4E487B7100000000000000000000000000000000000000000000000000000000 PUSH1 0x0 MSTORE PUSH1 0x32 PUSH1 0x4 MSTORE PUSH1 0x24 PUSH1 0x0 REVERT JUMPDEST PUSH1 0x0 DUP1 REVERT JUMPDEST PUSH1 0x0 DUP1 REVERT JUMPDEST PUSH1 0x0 DUP1 REVERT JUMPDEST PUSH1 0x0 DUP1 REVERT JUMPDEST PUSH1 0x0 DUP1 REVERT JUMPDEST PUSH1 0x0 DUP1 REVERT JUMPDEST PUSH1 0x0 PUSH1 0x1F NOT PUSH1 0x1F DUP4 ADD AND SWAP1 POP SWAP2 SWAP1 POP JUMP JUMPDEST PUSH32 0x616464556E5374616B654665653A206D696E4461797320697320300000000000 PUSH1 0x0 DUP3 ADD MSTORE POP JUMP JUMPDEST PUSH32 0x4E4654205374616B696E673A20456D7074792041727261790000000000000000 PUSH1 0x0 DUP3 ADD MSTORE POP JUMP JUMPDEST PUSH32 0x736574556E5374616B654665653A206D696E4461797320697320300000000000 PUSH1 0x0 DUP3 ADD MSTORE POP JUMP JUMPDEST PUSH32 0x616464556E5374616B654665653A2066656550657263656E74203E2034300000 PUSH1 0x0 DUP3 ADD MSTORE POP JUMP JUMPDEST PUSH32 0x5361666542455032303A204245503230206F7065726174696F6E20646964206E PUSH1 0x0 DUP3 ADD MSTORE PUSH32 0x6F74207375636365656400000000000000000000000000000000000000000000 PUSH1 0x20 DUP3 ADD MSTORE POP JUMP JUMPDEST PUSH32 0x4F776E61626C653A206E6577206F776E657220697320746865207A65726F2061 PUSH1 0x0 DUP3 ADD MSTORE PUSH32 0x6464726573730000000000000000000000000000000000000000000000000000 PUSH1 0x20 DUP3 ADD MSTORE POP JUMP JUMPDEST PUSH32 0x736574556E5374616B654665653A2066656550657263656E74203E2034300000 PUSH1 0x0 DUP3 ADD MSTORE POP JUMP JUMPDEST PUSH32 0x72656D6F7665556E5374616B654665653A2072616E6765206F75740000000000 PUSH1 0x0 DUP3 ADD MSTORE POP JUMP JUMPDEST PUSH32 0x4E4654205374616B696E673A206475706C696361746520746F6B656E20696473 PUSH1 0x0 DUP3 ADD MSTORE PUSH32 0x20696E20696E70757420706172616D732E000000000000000000000000000000 PUSH1 0x20 DUP3 ADD MSTORE POP JUMP JUMPDEST PUSH32 0x4E4654205374616B696E673A20746F6B656E20616C7265616479207374616B65 PUSH1 0x0 DUP3 ADD MSTORE PUSH32 0x642E000000000000000000000000000000000000000000000000000000000000 PUSH1 0x20 DUP3 ADD MSTORE POP JUMP JUMPDEST PUSH32 0x736574556E5374616B654665653A206D696E44617973206973206572726F7200 PUSH1 0x0 DUP3 ADD MSTORE POP JUMP JUMPDEST PUSH32 0x736574556E5374616B654665653A2072616E6765206F75740000000000000000 PUSH1 0x0 DUP3 ADD MSTORE POP JUMP JUMPDEST PUSH32 0x616464556E5374616B654665653A2066656550657263656E7420697320657272 PUSH1 0x0 DUP3 ADD MSTORE PUSH32 0x6F72000000000000000000000000000000000000000000000000000000000000 PUSH1 0x20 DUP3 ADD MSTORE POP JUMP JUMPDEST PUSH32 0x4F776E61626C653A2063616C6C6572206973206E6F7420746865206F776E6572 PUSH1 0x0 DUP3 ADD MSTORE POP JUMP JUMPDEST PUSH32 0x736574486172766573744665653A2066656550657263656E74203E2034300000 PUSH1 0x0 DUP3 ADD MSTORE POP JUMP JUMPDEST PUSH32 0x616464556E5374616B654665653A206D696E44617973206973206572726F7200 PUSH1 0x0 DUP3 ADD MSTORE POP JUMP JUMPDEST PUSH32 0x736574556E5374616B654665653A2066656550657263656E7420697320657272 PUSH1 0x0 DUP3 ADD MSTORE PUSH32 0x6F72000000000000000000000000000000000000000000000000000000000000 PUSH1 0x20 DUP3 ADD MSTORE POP JUMP JUMPDEST PUSH32 0x416464726573733A2063616C6C20746F206E6F6E2D636F6E7472616374000000 PUSH1 0x0 DUP3 ADD MSTORE POP JUMP JUMPDEST PUSH2 0x2E98 DUP2 PUSH2 0x28C3 JUMP JUMPDEST DUP2 EQ PUSH2 0x2EA3 JUMPI PUSH1 0x0 DUP1 REVERT JUMPDEST POP JUMP JUMPDEST PUSH2 0x2EAF DUP2 PUSH2 0x28D5 JUMP JUMPDEST DUP2 EQ PUSH2 0x2EBA JUMPI PUSH1 0x0 DUP1 REVERT JUMPDEST POP JUMP JUMPDEST PUSH2 0x2EC6 DUP2 PUSH2 0x2901 JUMP JUMPDEST DUP2 EQ PUSH2 0x2ED1 JUMPI PUSH1 0x0 DUP1 REVERT JUMPDEST POP JUMP INVALID LOG2 PUSH5 0x6970667358 0x22 SLT KECCAK256 NUMBER PUSH31 0x811CAAEADD57E5CF2881B41CB849DBB91233F48CC1816C46A54F4CED515264 PUSH20 0x6F6C634300080700330000000000000000000000 "
				},
				"gasEstimates": {
					"creation": {
						"codeDepositCost": "2408400",
						"executionCost": "infinite",
						"totalCost": "infinite"
					},
					"external": {
						"accGHSPPerShare()": "2496",
						"addUnStakeFee(uint256,uint256)": "infinite",
						"depositReward(uint256)": "infinite",
						"feeWallet()": "2624",
						"getMultiplier(uint256,uint256)": "infinite",
						"getRewardBalance()": "infinite",
						"ghspToken()": "infinite",
						"harvestFee()": "2495",
						"lastRewardBlock()": "2473",
						"nftToken()": "infinite",
						"owner()": "2589",
						"removeUnStakeFee(uint256)": "infinite",
						"renounceOwnership()": "30507",
						"rewardPerBlock()": "2474",
						"setFeeWallet(address)": "30370",
						"setHarvestFee(uint256)": "infinite",
						"setUnStakeFee(uint256,uint256,uint256)": "infinite",
						"stake(uint256[])": "infinite",
						"totalStakedAmount()": "2518",
						"transferOwnership(address)": "30855",
						"unStakeFees(uint256)": "infinite",
						"userInfo(address)": "infinite"
					},
					"internal": {
						"init()": "infinite",
						"updateStatus()": "infinite"
					}
				},
				"methodIdentifiers": {
					"accGHSPPerShare()": "43db3c5f",
					"addUnStakeFee(uint256,uint256)": "294d4e4a",
					"depositReward(uint256)": "1e2720ff",
					"feeWallet()": "f25f4b56",
					"getMultiplier(uint256,uint256)": "8dbb1e3a",
					"getRewardBalance()": "5e42b455",
					"ghspToken()": "19fca9f6",
					"harvestFee()": "b5962917",
					"lastRewardBlock()": "a9f8d181",
					"nftToken()": "d06fcba8",
					"owner()": "8da5cb5b",
					"removeUnStakeFee(uint256)": "9ca62a69",
					"renounceOwnership()": "715018a6",
					"rewardPerBlock()": "8ae39cac",
					"setFeeWallet(address)": "90d49b9d",
					"setHarvestFee(uint256)": "792b55b6",
					"setUnStakeFee(uint256,uint256,uint256)": "10c77237",
					"stake(uint256[])": "0fbf0a93",
					"totalStakedAmount()": "567e98f9",
					"transferOwnership(address)": "f2fde38b",
					"unStakeFees(uint256)": "1c3e2e7a",
					"userInfo(address)": "1959a002"
				}
			},
			"userdoc": {
				"kind": "user",
				"methods": {},
				"version": 1
			}
		}
	}
}