{
	"Ghosper-NFT-Staking-MasterChef.sol": {
		"NftStaking": {
			"abi": [
				{
					"inputs": [
						{
							"internalType": "contract IERC721",
							"name": "_nftToken",
							"type": "address"
						},
						{
							"internalType": "contract IBEP20",
							"name": "_ghspToken",
							"type": "address"
						},
						{
							"internalType": "uint256",
							"name": "_rewardPerBlock",
							"type": "uint256"
						},
						{
							"internalType": "address",
							"name": "_feeWallet",
							"type": "address"
						}
					],
					"stateMutability": "nonpayable",
					"type": "constructor"
				},
				{
					"anonymous": false,
					"inputs": [
						{
							"indexed": false,
							"internalType": "uint256",
							"name": "_index",
							"type": "uint256"
						},
						{
							"indexed": false,
							"internalType": "uint256",
							"name": "_minDays",
							"type": "uint256"
						},
						{
							"indexed": false,
							"internalType": "uint256",
							"name": "_feePercent",
							"type": "uint256"
						}
					],
					"name": "AddUnStakeFee",
					"type": "event"
				},
				{
					"anonymous": false,
					"inputs": [
						{
							"indexed": true,
							"internalType": "address",
							"name": "user",
							"type": "address"
						},
						{
							"indexed": false,
							"internalType": "uint256",
							"name": "amount",
							"type": "uint256"
						}
					],
					"name": "DepositReward",
					"type": "event"
				},
				{
					"anonymous": false,
					"inputs": [
						{
							"indexed": false,
							"internalType": "address",
							"name": "staker",
							"type": "address"
						},
						{
							"indexed": false,
							"internalType": "uint256",
							"name": "amount",
							"type": "uint256"
						},
						{
							"indexed": false,
							"internalType": "uint256",
							"name": "harvestFee",
							"type": "uint256"
						}
					],
					"name": "Harvest",
					"type": "event"
				},
				{
					"anonymous": false,
					"inputs": [
						{
							"indexed": true,
							"internalType": "address",
							"name": "previousOwner",
							"type": "address"
						},
						{
							"indexed": true,
							"internalType": "address",
							"name": "newOwner",
							"type": "address"
						}
					],
					"name": "OwnershipTransferred",
					"type": "event"
				},
				{
					"anonymous": false,
					"inputs": [
						{
							"indexed": false,
							"internalType": "uint256",
							"name": "_index",
							"type": "uint256"
						},
						{
							"indexed": false,
							"internalType": "uint256",
							"name": "_minDays",
							"type": "uint256"
						},
						{
							"indexed": false,
							"internalType": "uint256",
							"name": "_feePercent",
							"type": "uint256"
						}
					],
					"name": "RemoveUnStakeFee",
					"type": "event"
				},
				{
					"anonymous": false,
					"inputs": [
						{
							"indexed": true,
							"internalType": "address",
							"name": "_feeWallet",
							"type": "address"
						}
					],
					"name": "SetFeeWallet",
					"type": "event"
				},
				{
					"anonymous": false,
					"inputs": [
						{
							"indexed": false,
							"internalType": "uint256",
							"name": "_harvestFee",
							"type": "uint256"
						}
					],
					"name": "SetHarvestFee",
					"type": "event"
				},
				{
					"anonymous": false,
					"inputs": [
						{
							"indexed": false,
							"internalType": "uint256",
							"name": "_index",
							"type": "uint256"
						},
						{
							"indexed": false,
							"internalType": "uint256",
							"name": "_minDays",
							"type": "uint256"
						},
						{
							"indexed": false,
							"internalType": "uint256",
							"name": "_feePercent",
							"type": "uint256"
						}
					],
					"name": "SetUnStakeFee",
					"type": "event"
				},
				{
					"anonymous": false,
					"inputs": [
						{
							"indexed": false,
							"internalType": "address",
							"name": "staker",
							"type": "address"
						},
						{
							"indexed": false,
							"internalType": "uint256[]",
							"name": "tokenId",
							"type": "uint256[]"
						}
					],
					"name": "Staked",
					"type": "event"
				},
				{
					"anonymous": false,
					"inputs": [
						{
							"indexed": false,
							"internalType": "address",
							"name": "staker",
							"type": "address"
						},
						{
							"indexed": false,
							"internalType": "uint256[]",
							"name": "tokenId",
							"type": "uint256[]"
						}
					],
					"name": "UnStaked",
					"type": "event"
				},
				{
					"inputs": [],
					"name": "accGHSPPerShare",
					"outputs": [
						{
							"internalType": "uint256",
							"name": "",
							"type": "uint256"
						}
					],
					"stateMutability": "view",
					"type": "function"
				},
				{
					"inputs": [
						{
							"internalType": "uint256",
							"name": "_minDays",
							"type": "uint256"
						},
						{
							"internalType": "uint256",
							"name": "_feePercent",
							"type": "uint256"
						}
					],
					"name": "addUnStakeFee",
					"outputs": [],
					"stateMutability": "nonpayable",
					"type": "function"
				},
				{
					"inputs": [
						{
							"internalType": "uint256",
							"name": "_amount",
							"type": "uint256"
						}
					],
					"name": "depositReward",
					"outputs": [],
					"stateMutability": "nonpayable",
					"type": "function"
				},
				{
					"inputs": [],
					"name": "feeWallet",
					"outputs": [
						{
							"internalType": "address",
							"name": "",
							"type": "address"
						}
					],
					"stateMutability": "view",
					"type": "function"
				},
				{
					"inputs": [
						{
							"internalType": "uint256",
							"name": "_from",
							"type": "uint256"
						},
						{
							"internalType": "uint256",
							"name": "_to",
							"type": "uint256"
						}
					],
					"name": "getMultiplier",
					"outputs": [
						{
							"internalType": "uint256",
							"name": "",
							"type": "uint256"
						}
					],
					"stateMutability": "pure",
					"type": "function"
				},
				{
					"inputs": [],
					"name": "getRewardBalance",
					"outputs": [
						{
							"internalType": "uint256",
							"name": "",
							"type": "uint256"
						}
					],
					"stateMutability": "view",
					"type": "function"
				},
				{
					"inputs": [],
					"name": "ghspToken",
					"outputs": [
						{
							"internalType": "contract IBEP20",
							"name": "",
							"type": "address"
						}
					],
					"stateMutability": "view",
					"type": "function"
				},
				{
					"inputs": [],
					"name": "harvest",
					"outputs": [],
					"stateMutability": "nonpayable",
					"type": "function"
				},
				{
					"inputs": [],
					"name": "harvestFee",
					"outputs": [
						{
							"internalType": "uint256",
							"name": "",
							"type": "uint256"
						}
					],
					"stateMutability": "view",
					"type": "function"
				},
				{
					"inputs": [],
					"name": "lastRewardBlock",
					"outputs": [
						{
							"internalType": "uint256",
							"name": "",
							"type": "uint256"
						}
					],
					"stateMutability": "view",
					"type": "function"
				},
				{
					"inputs": [],
					"name": "nftToken",
					"outputs": [
						{
							"internalType": "contract IERC721",
							"name": "",
							"type": "address"
						}
					],
					"stateMutability": "view",
					"type": "function"
				},
				{
					"inputs": [],
					"name": "owner",
					"outputs": [
						{
							"internalType": "address",
							"name": "",
							"type": "address"
						}
					],
					"stateMutability": "view",
					"type": "function"
				},
				{
					"inputs": [
						{
							"internalType": "uint256",
							"name": "_index",
							"type": "uint256"
						}
					],
					"name": "removeUnStakeFee",
					"outputs": [],
					"stateMutability": "nonpayable",
					"type": "function"
				},
				{
					"inputs": [],
					"name": "renounceOwnership",
					"outputs": [],
					"stateMutability": "nonpayable",
					"type": "function"
				},
				{
					"inputs": [],
					"name": "rewardPerBlock",
					"outputs": [
						{
							"internalType": "uint256",
							"name": "",
							"type": "uint256"
						}
					],
					"stateMutability": "view",
					"type": "function"
				},
				{
					"inputs": [
						{
							"internalType": "address",
							"name": "_feeWallet",
							"type": "address"
						}
					],
					"name": "setFeeWallet",
					"outputs": [],
					"stateMutability": "nonpayable",
					"type": "function"
				},
				{
					"inputs": [
						{
							"internalType": "uint256",
							"name": "_feePercent",
							"type": "uint256"
						}
					],
					"name": "setHarvestFee",
					"outputs": [],
					"stateMutability": "nonpayable",
					"type": "function"
				},
				{
					"inputs": [
						{
							"internalType": "uint256",
							"name": "_index",
							"type": "uint256"
						},
						{
							"internalType": "uint256",
							"name": "_minDays",
							"type": "uint256"
						},
						{
							"internalType": "uint256",
							"name": "_feePercent",
							"type": "uint256"
						}
					],
					"name": "setUnStakeFee",
					"outputs": [],
					"stateMutability": "nonpayable",
					"type": "function"
				},
				{
					"inputs": [
						{
							"internalType": "uint256[]",
							"name": "tokenIds",
							"type": "uint256[]"
						}
					],
					"name": "stake",
					"outputs": [],
					"stateMutability": "nonpayable",
					"type": "function"
				},
				{
					"inputs": [],
					"name": "totalStakedAmount",
					"outputs": [
						{
							"internalType": "uint256",
							"name": "",
							"type": "uint256"
						}
					],
					"stateMutability": "view",
					"type": "function"
				},
				{
					"inputs": [
						{
							"internalType": "address",
							"name": "newOwner",
							"type": "address"
						}
					],
					"name": "transferOwnership",
					"outputs": [],
					"stateMutability": "nonpayable",
					"type": "function"
				},
				{
					"inputs": [
						{
							"internalType": "uint256",
							"name": "",
							"type": "uint256"
						}
					],
					"name": "unStakeFees",
					"outputs": [
						{
							"internalType": "uint256",
							"name": "minDays",
							"type": "uint256"
						},
						{
							"internalType": "uint256",
							"name": "feePercent",
							"type": "uint256"
						}
					],
					"stateMutability": "view",
					"type": "function"
				},
				{
					"inputs": [
						{
							"internalType": "uint256[]",
							"name": "tokenIds",
							"type": "uint256[]"
						}
					],
					"name": "unstake",
					"outputs": [],
					"stateMutability": "nonpayable",
					"type": "function"
				},
				{
					"inputs": [
						{
							"internalType": "address",
							"name": "",
							"type": "address"
						}
					],
					"name": "userInfo",
					"outputs": [
						{
							"internalType": "uint256",
							"name": "amount",
							"type": "uint256"
						},
						{
							"internalType": "uint256",
							"name": "rewardDebt",
							"type": "uint256"
						},
						{
							"internalType": "uint256",
							"name": "pendingAmount",
							"type": "uint256"
						},
						{
							"internalType": "uint256",
							"name": "lastStakedTime",
							"type": "uint256"
						}
					],
					"stateMutability": "view",
					"type": "function"
				}
			],
			"devdoc": {
				"kind": "dev",
				"methods": {
					"owner()": {
						"details": "Returns the address of the current owner."
					},
					"renounceOwnership()": {
						"details": "Leaves the contract without owner. It will not be possible to call `onlyOwner` functions anymore. Can only be called by the current owner. NOTE: Renouncing ownership will leave the contract without an owner, thereby removing any functionality that is only available to the owner."
					},
					"transferOwnership(address)": {
						"details": "Transfers ownership of the contract to a new account (`newOwner`). Can only be called by the current owner."
					}
				},
				"version": 1
			},
			"evm": {
				"assembly": "    /* \"Ghosper-NFT-Staking-MasterChef.sol\":27968:38950  contract NftStaking is Ownable {\r... */\n  mstore(0x40, 0xc0)\n    /* \"Ghosper-NFT-Staking-MasterChef.sol\":29488:29791  constructor(\r... */\n  callvalue\n  dup1\n  iszero\n  tag_1\n  jumpi\n  0x00\n  dup1\n  revert\ntag_1:\n  pop\n  mload(0x40)\n  sub(codesize, bytecodeSize)\n  dup1\n  bytecodeSize\n  dup4\n  codecopy\n  dup2\n  dup2\n  add\n  0x40\n  mstore\n  dup2\n  add\n  swap1\n  tag_2\n  swap2\n  swap1\n  tag_3\n  jump\t// in\ntag_2:\n    /* \"Ghosper-NFT-Staking-MasterChef.sol\":4790:4822  _transferOwnership(_msgSender()) */\n  tag_7\n    /* \"Ghosper-NFT-Staking-MasterChef.sol\":4809:4821  _msgSender() */\n  tag_8\n    /* \"Ghosper-NFT-Staking-MasterChef.sol\":4809:4819  _msgSender */\n  shl(0x20, tag_9)\n    /* \"Ghosper-NFT-Staking-MasterChef.sol\":4809:4821  _msgSender() */\n  0x20\n  shr\n  jump\t// in\ntag_8:\n    /* \"Ghosper-NFT-Staking-MasterChef.sol\":4790:4808  _transferOwnership */\n  shl(0x20, tag_10)\n    /* \"Ghosper-NFT-Staking-MasterChef.sol\":4790:4822  _transferOwnership(_msgSender()) */\n  0x20\n  shr\n  jump\t// in\ntag_7:\n    /* \"Ghosper-NFT-Staking-MasterChef.sol\":29648:29657  _nftToken */\n  dup4\n    /* \"Ghosper-NFT-Staking-MasterChef.sol\":29637:29657  nftToken = _nftToken */\n  0xffffffffffffffffffffffffffffffffffffffff\n  and\n  0x80\n  dup2\n  0xffffffffffffffffffffffffffffffffffffffff\n  and\n  0x60\n  shl\n  dup2\n  mstore\n  pop\n  pop\n    /* \"Ghosper-NFT-Staking-MasterChef.sol\":29680:29690  _ghspToken */\n  dup3\n    /* \"Ghosper-NFT-Staking-MasterChef.sol\":29668:29690  ghspToken = _ghspToken */\n  0xffffffffffffffffffffffffffffffffffffffff\n  and\n  0xa0\n  dup2\n  0xffffffffffffffffffffffffffffffffffffffff\n  and\n  0x60\n  shl\n  dup2\n  mstore\n  pop\n  pop\n    /* \"Ghosper-NFT-Staking-MasterChef.sol\":29718:29733  _rewardPerBlock */\n  dup2\n    /* \"Ghosper-NFT-Staking-MasterChef.sol\":29701:29715  rewardPerBlock */\n  0x04\n    /* \"Ghosper-NFT-Staking-MasterChef.sol\":29701:29733  rewardPerBlock = _rewardPerBlock */\n  dup2\n  swap1\n  sstore\n  pop\n    /* \"Ghosper-NFT-Staking-MasterChef.sol\":29756:29766  _feeWallet */\n  dup1\n    /* \"Ghosper-NFT-Staking-MasterChef.sol\":29744:29753  feeWallet */\n  0x05\n  0x00\n    /* \"Ghosper-NFT-Staking-MasterChef.sol\":29744:29766  feeWallet = _feeWallet */\n  0x0100\n  exp\n  dup2\n  sload\n  dup2\n  0xffffffffffffffffffffffffffffffffffffffff\n  mul\n  not\n  and\n  swap1\n  dup4\n  0xffffffffffffffffffffffffffffffffffffffff\n  and\n  mul\n  or\n  swap1\n  sstore\n  pop\n    /* \"Ghosper-NFT-Staking-MasterChef.sol\":29777:29783  init() */\n  tag_12\n    /* \"Ghosper-NFT-Staking-MasterChef.sol\":29777:29781  init */\n  shl(0x20, tag_13)\n    /* \"Ghosper-NFT-Staking-MasterChef.sol\":29777:29783  init() */\n  0x20\n  shr\n  jump\t// in\ntag_12:\n    /* \"Ghosper-NFT-Staking-MasterChef.sol\":29488:29791  constructor(\r... */\n  pop\n  pop\n  pop\n  pop\n    /* \"Ghosper-NFT-Staking-MasterChef.sol\":27968:38950  contract NftStaking is Ownable {\r... */\n  jump(tag_14)\n    /* \"Ghosper-NFT-Staking-MasterChef.sol\":3751:3849  function _msgSender() internal view virtual returns (address) {\r... */\ntag_9:\n    /* \"Ghosper-NFT-Staking-MasterChef.sol\":3804:3811  address */\n  0x00\n    /* \"Ghosper-NFT-Staking-MasterChef.sol\":3831:3841  msg.sender */\n  caller\n    /* \"Ghosper-NFT-Staking-MasterChef.sol\":3824:3841  return msg.sender */\n  swap1\n  pop\n    /* \"Ghosper-NFT-Staking-MasterChef.sol\":3751:3849  function _msgSender() internal view virtual returns (address) {\r... */\n  swap1\n  jump\t// out\n    /* \"Ghosper-NFT-Staking-MasterChef.sol\":6181:6372  function _transferOwnership(address newOwner) internal virtual {\r... */\ntag_10:\n    /* \"Ghosper-NFT-Staking-MasterChef.sol\":6255:6271  address oldOwner */\n  0x00\n    /* \"Ghosper-NFT-Staking-MasterChef.sol\":6274:6280  _owner */\n  dup1\n  0x00\n  swap1\n  sload\n  swap1\n  0x0100\n  exp\n  swap1\n  div\n  0xffffffffffffffffffffffffffffffffffffffff\n  and\n    /* \"Ghosper-NFT-Staking-MasterChef.sol\":6255:6280  address oldOwner = _owner */\n  swap1\n  pop\n    /* \"Ghosper-NFT-Staking-MasterChef.sol\":6300:6308  newOwner */\n  dup2\n    /* \"Ghosper-NFT-Staking-MasterChef.sol\":6291:6297  _owner */\n  0x00\n  dup1\n    /* \"Ghosper-NFT-Staking-MasterChef.sol\":6291:6308  _owner = newOwner */\n  0x0100\n  exp\n  dup2\n  sload\n  dup2\n  0xffffffffffffffffffffffffffffffffffffffff\n  mul\n  not\n  and\n  swap1\n  dup4\n  0xffffffffffffffffffffffffffffffffffffffff\n  and\n  mul\n  or\n  swap1\n  sstore\n  pop\n    /* \"Ghosper-NFT-Staking-MasterChef.sol\":6355:6363  newOwner */\n  dup2\n    /* \"Ghosper-NFT-Staking-MasterChef.sol\":6324:6364  OwnershipTransferred(oldOwner, newOwner) */\n  0xffffffffffffffffffffffffffffffffffffffff\n  and\n    /* \"Ghosper-NFT-Staking-MasterChef.sol\":6345:6353  oldOwner */\n  dup2\n    /* \"Ghosper-NFT-Staking-MasterChef.sol\":6324:6364  OwnershipTransferred(oldOwner, newOwner) */\n  0xffffffffffffffffffffffffffffffffffffffff\n  and\n  0x8be0079c531659141344cd1fd0a4f28419497f9722a3daafe3b4186f6b6457e0\n  mload(0x40)\n  mload(0x40)\n  dup1\n  swap2\n  sub\n  swap1\n  log3\n    /* \"Ghosper-NFT-Staking-MasterChef.sol\":6244:6372  {\r... */\n  pop\n    /* \"Ghosper-NFT-Staking-MasterChef.sol\":6181:6372  function _transferOwnership(address newOwner) internal virtual {\r... */\n  pop\n  jump\t// out\n    /* \"Ghosper-NFT-Staking-MasterChef.sol\":29799:30480  function init() private {\r... */\ntag_13:\n    /* \"Ghosper-NFT-Staking-MasterChef.sol\":29834:29863  UnStakeFee memory unStakeFee1 */\n  0x00\n    /* \"Ghosper-NFT-Staking-MasterChef.sol\":29866:29943  UnStakeFee({\r... */\n  mload(0x40)\n  dup1\n  0x40\n  add\n  0x40\n  mstore\n  dup1\n    /* \"Ghosper-NFT-Staking-MasterChef.sol\":29901:29902  7 */\n  0x07\n    /* \"Ghosper-NFT-Staking-MasterChef.sol\":29866:29943  UnStakeFee({\r... */\n  dup2\n  mstore\n  0x20\n  add\n    /* \"Ghosper-NFT-Staking-MasterChef.sol\":29929:29931  40 */\n  0x28\n    /* \"Ghosper-NFT-Staking-MasterChef.sol\":29866:29943  UnStakeFee({\r... */\n  dup2\n  mstore\n  pop\n    /* \"Ghosper-NFT-Staking-MasterChef.sol\":29834:29943  UnStakeFee memory unStakeFee1 = UnStakeFee({\r... */\n  swap1\n  pop\n    /* \"Ghosper-NFT-Staking-MasterChef.sol\":29954:29965  unStakeFees */\n  0x01\n    /* \"Ghosper-NFT-Staking-MasterChef.sol\":29971:29982  unStakeFee1 */\n  dup2\n    /* \"Ghosper-NFT-Staking-MasterChef.sol\":29954:29983  unStakeFees.push(unStakeFee1) */\n  swap1\n  dup1\n  0x01\n  dup2\n  sload\n  add\n  dup1\n  dup3\n  sstore\n  dup1\n  swap2\n  pop\n  pop\n  0x01\n  swap1\n  sub\n  swap1\n  0x00\n  mstore\n  keccak256(0x00, 0x20)\n  swap1\n  0x02\n  mul\n  add\n  0x00\n  swap1\n  swap2\n  swap1\n  swap2\n  swap1\n  swap2\n  pop\n  0x00\n  dup3\n  add\n  mload\n  dup2\n  0x00\n  add\n  sstore\n  0x20\n  dup3\n  add\n  mload\n  dup2\n  0x01\n  add\n  sstore\n  pop\n  pop\n    /* \"Ghosper-NFT-Staking-MasterChef.sol\":29996:30025  UnStakeFee memory unStakeFee2 */\n  0x00\n    /* \"Ghosper-NFT-Staking-MasterChef.sol\":30028:30106  UnStakeFee({\r... */\n  mload(0x40)\n  dup1\n  0x40\n  add\n  0x40\n  mstore\n  dup1\n    /* \"Ghosper-NFT-Staking-MasterChef.sol\":30063:30065  14 */\n  0x0e\n    /* \"Ghosper-NFT-Staking-MasterChef.sol\":30028:30106  UnStakeFee({\r... */\n  dup2\n  mstore\n  0x20\n  add\n    /* \"Ghosper-NFT-Staking-MasterChef.sol\":30092:30094  30 */\n  0x1e\n    /* \"Ghosper-NFT-Staking-MasterChef.sol\":30028:30106  UnStakeFee({\r... */\n  dup2\n  mstore\n  pop\n    /* \"Ghosper-NFT-Staking-MasterChef.sol\":29996:30106  UnStakeFee memory unStakeFee2 = UnStakeFee({\r... */\n  swap1\n  pop\n    /* \"Ghosper-NFT-Staking-MasterChef.sol\":30117:30128  unStakeFees */\n  0x01\n    /* \"Ghosper-NFT-Staking-MasterChef.sol\":30134:30145  unStakeFee2 */\n  dup2\n    /* \"Ghosper-NFT-Staking-MasterChef.sol\":30117:30146  unStakeFees.push(unStakeFee2) */\n  swap1\n  dup1\n  0x01\n  dup2\n  sload\n  add\n  dup1\n  dup3\n  sstore\n  dup1\n  swap2\n  pop\n  pop\n  0x01\n  swap1\n  sub\n  swap1\n  0x00\n  mstore\n  keccak256(0x00, 0x20)\n  swap1\n  0x02\n  mul\n  add\n  0x00\n  swap1\n  swap2\n  swap1\n  swap2\n  swap1\n  swap2\n  pop\n  0x00\n  dup3\n  add\n  mload\n  dup2\n  0x00\n  add\n  sstore\n  0x20\n  dup3\n  add\n  mload\n  dup2\n  0x01\n  add\n  sstore\n  pop\n  pop\n    /* \"Ghosper-NFT-Staking-MasterChef.sol\":30159:30188  UnStakeFee memory unStakeFee3 */\n  0x00\n    /* \"Ghosper-NFT-Staking-MasterChef.sol\":30191:30269  UnStakeFee({\r... */\n  mload(0x40)\n  dup1\n  0x40\n  add\n  0x40\n  mstore\n  dup1\n    /* \"Ghosper-NFT-Staking-MasterChef.sol\":30226:30228  21 */\n  0x15\n    /* \"Ghosper-NFT-Staking-MasterChef.sol\":30191:30269  UnStakeFee({\r... */\n  dup2\n  mstore\n  0x20\n  add\n    /* \"Ghosper-NFT-Staking-MasterChef.sol\":30255:30257  20 */\n  0x14\n    /* \"Ghosper-NFT-Staking-MasterChef.sol\":30191:30269  UnStakeFee({\r... */\n  dup2\n  mstore\n  pop\n    /* \"Ghosper-NFT-Staking-MasterChef.sol\":30159:30269  UnStakeFee memory unStakeFee3 = UnStakeFee({\r... */\n  swap1\n  pop\n    /* \"Ghosper-NFT-Staking-MasterChef.sol\":30280:30291  unStakeFees */\n  0x01\n    /* \"Ghosper-NFT-Staking-MasterChef.sol\":30297:30308  unStakeFee3 */\n  dup2\n    /* \"Ghosper-NFT-Staking-MasterChef.sol\":30280:30309  unStakeFees.push(unStakeFee3) */\n  swap1\n  dup1\n  0x01\n  dup2\n  sload\n  add\n  dup1\n  dup3\n  sstore\n  dup1\n  swap2\n  pop\n  pop\n  0x01\n  swap1\n  sub\n  swap1\n  0x00\n  mstore\n  keccak256(0x00, 0x20)\n  swap1\n  0x02\n  mul\n  add\n  0x00\n  swap1\n  swap2\n  swap1\n  swap2\n  swap1\n  swap2\n  pop\n  0x00\n  dup3\n  add\n  mload\n  dup2\n  0x00\n  add\n  sstore\n  0x20\n  dup3\n  add\n  mload\n  dup2\n  0x01\n  add\n  sstore\n  pop\n  pop\n    /* \"Ghosper-NFT-Staking-MasterChef.sol\":30322:30351  UnStakeFee memory unStakeFee4 */\n  0x00\n    /* \"Ghosper-NFT-Staking-MasterChef.sol\":30354:30432  UnStakeFee({\r... */\n  mload(0x40)\n  dup1\n  0x40\n  add\n  0x40\n  mstore\n  dup1\n    /* \"Ghosper-NFT-Staking-MasterChef.sol\":30389:30391  30 */\n  0x1e\n    /* \"Ghosper-NFT-Staking-MasterChef.sol\":30354:30432  UnStakeFee({\r... */\n  dup2\n  mstore\n  0x20\n  add\n    /* \"Ghosper-NFT-Staking-MasterChef.sol\":30418:30420  10 */\n  0x0a\n    /* \"Ghosper-NFT-Staking-MasterChef.sol\":30354:30432  UnStakeFee({\r... */\n  dup2\n  mstore\n  pop\n    /* \"Ghosper-NFT-Staking-MasterChef.sol\":30322:30432  UnStakeFee memory unStakeFee4 = UnStakeFee({\r... */\n  swap1\n  pop\n    /* \"Ghosper-NFT-Staking-MasterChef.sol\":30443:30454  unStakeFees */\n  0x01\n    /* \"Ghosper-NFT-Staking-MasterChef.sol\":30460:30471  unStakeFee4 */\n  dup2\n    /* \"Ghosper-NFT-Staking-MasterChef.sol\":30443:30472  unStakeFees.push(unStakeFee4) */\n  swap1\n  dup1\n  0x01\n  dup2\n  sload\n  add\n  dup1\n  dup3\n  sstore\n  dup1\n  swap2\n  pop\n  pop\n  0x01\n  swap1\n  sub\n  swap1\n  0x00\n  mstore\n  keccak256(0x00, 0x20)\n  swap1\n  0x02\n  mul\n  add\n  0x00\n  swap1\n  swap2\n  swap1\n  swap2\n  swap1\n  swap2\n  pop\n  0x00\n  dup3\n  add\n  mload\n  dup2\n  0x00\n  add\n  sstore\n  0x20\n  dup3\n  add\n  mload\n  dup2\n  0x01\n  add\n  sstore\n  pop\n  pop\n    /* \"Ghosper-NFT-Staking-MasterChef.sol\":29823:30480  {\r... */\n  pop\n  pop\n  pop\n  pop\n    /* \"Ghosper-NFT-Staking-MasterChef.sol\":29799:30480  function init() private {\r... */\n  jump\t// out\n    /* \"#utility.yul\":7:150   */\ntag_23:\n    /* \"#utility.yul\":64:69   */\n  0x00\n    /* \"#utility.yul\":95:101   */\n  dup2\n    /* \"#utility.yul\":89:102   */\n  mload\n    /* \"#utility.yul\":80:102   */\n  swap1\n  pop\n    /* \"#utility.yul\":111:144   */\n  tag_25\n    /* \"#utility.yul\":138:143   */\n  dup2\n    /* \"#utility.yul\":111:144   */\n  tag_26\n  jump\t// in\ntag_25:\n    /* \"#utility.yul\":7:150   */\n  swap3\n  swap2\n  pop\n  pop\n  jump\t// out\n    /* \"#utility.yul\":156:327   */\ntag_27:\n    /* \"#utility.yul\":227:232   */\n  0x00\n    /* \"#utility.yul\":258:264   */\n  dup2\n    /* \"#utility.yul\":252:265   */\n  mload\n    /* \"#utility.yul\":243:265   */\n  swap1\n  pop\n    /* \"#utility.yul\":274:321   */\n  tag_29\n    /* \"#utility.yul\":315:320   */\n  dup2\n    /* \"#utility.yul\":274:321   */\n  tag_30\n  jump\t// in\ntag_29:\n    /* \"#utility.yul\":156:327   */\n  swap3\n  swap2\n  pop\n  pop\n  jump\t// out\n    /* \"#utility.yul\":333:508   */\ntag_31:\n    /* \"#utility.yul\":406:411   */\n  0x00\n    /* \"#utility.yul\":437:443   */\n  dup2\n    /* \"#utility.yul\":431:444   */\n  mload\n    /* \"#utility.yul\":422:444   */\n  swap1\n  pop\n    /* \"#utility.yul\":453:502   */\n  tag_33\n    /* \"#utility.yul\":496:501   */\n  dup2\n    /* \"#utility.yul\":453:502   */\n  tag_34\n  jump\t// in\ntag_33:\n    /* \"#utility.yul\":333:508   */\n  swap3\n  swap2\n  pop\n  pop\n  jump\t// out\n    /* \"#utility.yul\":514:657   */\ntag_35:\n    /* \"#utility.yul\":571:576   */\n  0x00\n    /* \"#utility.yul\":602:608   */\n  dup2\n    /* \"#utility.yul\":596:609   */\n  mload\n    /* \"#utility.yul\":587:609   */\n  swap1\n  pop\n    /* \"#utility.yul\":618:651   */\n  tag_37\n    /* \"#utility.yul\":645:650   */\n  dup2\n    /* \"#utility.yul\":618:651   */\n  tag_38\n  jump\t// in\ntag_37:\n    /* \"#utility.yul\":514:657   */\n  swap3\n  swap2\n  pop\n  pop\n  jump\t// out\n    /* \"#utility.yul\":663:1543   */\ntag_3:\n    /* \"#utility.yul\":790:796   */\n  0x00\n    /* \"#utility.yul\":798:804   */\n  dup1\n    /* \"#utility.yul\":806:812   */\n  0x00\n    /* \"#utility.yul\":814:820   */\n  dup1\n    /* \"#utility.yul\":863:866   */\n  0x80\n    /* \"#utility.yul\":851:860   */\n  dup6\n    /* \"#utility.yul\":842:849   */\n  dup8\n    /* \"#utility.yul\":838:861   */\n  sub\n    /* \"#utility.yul\":834:867   */\n  slt\n    /* \"#utility.yul\":831:951   */\n  iszero\n  tag_40\n  jumpi\n    /* \"#utility.yul\":870:949   */\n  tag_41\n  tag_42\n  jump\t// in\ntag_41:\n    /* \"#utility.yul\":831:951   */\ntag_40:\n    /* \"#utility.yul\":990:991   */\n  0x00\n    /* \"#utility.yul\":1015:1095   */\n  tag_43\n    /* \"#utility.yul\":1087:1094   */\n  dup8\n    /* \"#utility.yul\":1078:1084   */\n  dup3\n    /* \"#utility.yul\":1067:1076   */\n  dup9\n    /* \"#utility.yul\":1063:1085   */\n  add\n    /* \"#utility.yul\":1015:1095   */\n  tag_31\n  jump\t// in\ntag_43:\n    /* \"#utility.yul\":1005:1095   */\n  swap5\n  pop\n    /* \"#utility.yul\":961:1105   */\n  pop\n    /* \"#utility.yul\":1144:1146   */\n  0x20\n    /* \"#utility.yul\":1170:1248   */\n  tag_44\n    /* \"#utility.yul\":1240:1247   */\n  dup8\n    /* \"#utility.yul\":1231:1237   */\n  dup3\n    /* \"#utility.yul\":1220:1229   */\n  dup9\n    /* \"#utility.yul\":1216:1238   */\n  add\n    /* \"#utility.yul\":1170:1248   */\n  tag_27\n  jump\t// in\ntag_44:\n    /* \"#utility.yul\":1160:1248   */\n  swap4\n  pop\n    /* \"#utility.yul\":1115:1258   */\n  pop\n    /* \"#utility.yul\":1297:1299   */\n  0x40\n    /* \"#utility.yul\":1323:1387   */\n  tag_45\n    /* \"#utility.yul\":1379:1386   */\n  dup8\n    /* \"#utility.yul\":1370:1376   */\n  dup3\n    /* \"#utility.yul\":1359:1368   */\n  dup9\n    /* \"#utility.yul\":1355:1377   */\n  add\n    /* \"#utility.yul\":1323:1387   */\n  tag_35\n  jump\t// in\ntag_45:\n    /* \"#utility.yul\":1313:1387   */\n  swap3\n  pop\n    /* \"#utility.yul\":1268:1397   */\n  pop\n    /* \"#utility.yul\":1436:1438   */\n  0x60\n    /* \"#utility.yul\":1462:1526   */\n  tag_46\n    /* \"#utility.yul\":1518:1525   */\n  dup8\n    /* \"#utility.yul\":1509:1515   */\n  dup3\n    /* \"#utility.yul\":1498:1507   */\n  dup9\n    /* \"#utility.yul\":1494:1516   */\n  add\n    /* \"#utility.yul\":1462:1526   */\n  tag_23\n  jump\t// in\ntag_46:\n    /* \"#utility.yul\":1452:1526   */\n  swap2\n  pop\n    /* \"#utility.yul\":1407:1536   */\n  pop\n    /* \"#utility.yul\":663:1543   */\n  swap3\n  swap6\n  swap2\n  swap5\n  pop\n  swap3\n  pop\n  jump\t// out\n    /* \"#utility.yul\":1630:1726   */\ntag_49:\n    /* \"#utility.yul\":1667:1674   */\n  0x00\n    /* \"#utility.yul\":1696:1720   */\n  tag_51\n    /* \"#utility.yul\":1714:1719   */\n  dup3\n    /* \"#utility.yul\":1696:1720   */\n  tag_52\n  jump\t// in\ntag_51:\n    /* \"#utility.yul\":1685:1720   */\n  swap1\n  pop\n    /* \"#utility.yul\":1630:1726   */\n  swap2\n  swap1\n  pop\n  jump\t// out\n    /* \"#utility.yul\":1732:1842   */\ntag_53:\n    /* \"#utility.yul\":1783:1790   */\n  0x00\n    /* \"#utility.yul\":1812:1836   */\n  tag_55\n    /* \"#utility.yul\":1830:1835   */\n  dup3\n    /* \"#utility.yul\":1812:1836   */\n  tag_49\n  jump\t// in\ntag_55:\n    /* \"#utility.yul\":1801:1836   */\n  swap1\n  pop\n    /* \"#utility.yul\":1732:1842   */\n  swap2\n  swap1\n  pop\n  jump\t// out\n    /* \"#utility.yul\":1848:1960   */\ntag_56:\n    /* \"#utility.yul\":1901:1908   */\n  0x00\n    /* \"#utility.yul\":1930:1954   */\n  tag_58\n    /* \"#utility.yul\":1948:1953   */\n  dup3\n    /* \"#utility.yul\":1930:1954   */\n  tag_49\n  jump\t// in\ntag_58:\n    /* \"#utility.yul\":1919:1954   */\n  swap1\n  pop\n    /* \"#utility.yul\":1848:1960   */\n  swap2\n  swap1\n  pop\n  jump\t// out\n    /* \"#utility.yul\":1966:2092   */\ntag_52:\n    /* \"#utility.yul\":2003:2010   */\n  0x00\n    /* \"#utility.yul\":2043:2085   */\n  0xffffffffffffffffffffffffffffffffffffffff\n    /* \"#utility.yul\":2036:2041   */\n  dup3\n    /* \"#utility.yul\":2032:2086   */\n  and\n    /* \"#utility.yul\":2021:2086   */\n  swap1\n  pop\n    /* \"#utility.yul\":1966:2092   */\n  swap2\n  swap1\n  pop\n  jump\t// out\n    /* \"#utility.yul\":2098:2175   */\ntag_60:\n    /* \"#utility.yul\":2135:2142   */\n  0x00\n    /* \"#utility.yul\":2164:2169   */\n  dup2\n    /* \"#utility.yul\":2153:2169   */\n  swap1\n  pop\n    /* \"#utility.yul\":2098:2175   */\n  swap2\n  swap1\n  pop\n  jump\t// out\n    /* \"#utility.yul\":2304:2421   */\ntag_42:\n    /* \"#utility.yul\":2413:2414   */\n  0x00\n    /* \"#utility.yul\":2410:2411   */\n  dup1\n    /* \"#utility.yul\":2403:2415   */\n  revert\n    /* \"#utility.yul\":2427:2549   */\ntag_26:\n    /* \"#utility.yul\":2500:2524   */\n  tag_66\n    /* \"#utility.yul\":2518:2523   */\n  dup2\n    /* \"#utility.yul\":2500:2524   */\n  tag_49\n  jump\t// in\ntag_66:\n    /* \"#utility.yul\":2493:2498   */\n  dup2\n    /* \"#utility.yul\":2490:2525   */\n  eq\n    /* \"#utility.yul\":2480:2543   */\n  tag_67\n  jumpi\n    /* \"#utility.yul\":2539:2540   */\n  0x00\n    /* \"#utility.yul\":2536:2537   */\n  dup1\n    /* \"#utility.yul\":2529:2541   */\n  revert\n    /* \"#utility.yul\":2480:2543   */\ntag_67:\n    /* \"#utility.yul\":2427:2549   */\n  pop\n  jump\t// out\n    /* \"#utility.yul\":2555:2705   */\ntag_30:\n    /* \"#utility.yul\":2642:2680   */\n  tag_69\n    /* \"#utility.yul\":2674:2679   */\n  dup2\n    /* \"#utility.yul\":2642:2680   */\n  tag_53\n  jump\t// in\ntag_69:\n    /* \"#utility.yul\":2635:2640   */\n  dup2\n    /* \"#utility.yul\":2632:2681   */\n  eq\n    /* \"#utility.yul\":2622:2699   */\n  tag_70\n  jumpi\n    /* \"#utility.yul\":2695:2696   */\n  0x00\n    /* \"#utility.yul\":2692:2693   */\n  dup1\n    /* \"#utility.yul\":2685:2697   */\n  revert\n    /* \"#utility.yul\":2622:2699   */\ntag_70:\n    /* \"#utility.yul\":2555:2705   */\n  pop\n  jump\t// out\n    /* \"#utility.yul\":2711:2865   */\ntag_34:\n    /* \"#utility.yul\":2800:2840   */\n  tag_72\n    /* \"#utility.yul\":2834:2839   */\n  dup2\n    /* \"#utility.yul\":2800:2840   */\n  tag_56\n  jump\t// in\ntag_72:\n    /* \"#utility.yul\":2793:2798   */\n  dup2\n    /* \"#utility.yul\":2790:2841   */\n  eq\n    /* \"#utility.yul\":2780:2859   */\n  tag_73\n  jumpi\n    /* \"#utility.yul\":2855:2856   */\n  0x00\n    /* \"#utility.yul\":2852:2853   */\n  dup1\n    /* \"#utility.yul\":2845:2857   */\n  revert\n    /* \"#utility.yul\":2780:2859   */\ntag_73:\n    /* \"#utility.yul\":2711:2865   */\n  pop\n  jump\t// out\n    /* \"#utility.yul\":2871:2993   */\ntag_38:\n    /* \"#utility.yul\":2944:2968   */\n  tag_75\n    /* \"#utility.yul\":2962:2967   */\n  dup2\n    /* \"#utility.yul\":2944:2968   */\n  tag_60\n  jump\t// in\ntag_75:\n    /* \"#utility.yul\":2937:2942   */\n  dup2\n    /* \"#utility.yul\":2934:2969   */\n  eq\n    /* \"#utility.yul\":2924:2987   */\n  tag_76\n  jumpi\n    /* \"#utility.yul\":2983:2984   */\n  0x00\n    /* \"#utility.yul\":2980:2981   */\n  dup1\n    /* \"#utility.yul\":2973:2985   */\n  revert\n    /* \"#utility.yul\":2924:2987   */\ntag_76:\n    /* \"#utility.yul\":2871:2993   */\n  pop\n  jump\t// out\n    /* \"Ghosper-NFT-Staking-MasterChef.sol\":27968:38950  contract NftStaking is Ownable {\r... */\ntag_14:\n  shr(0x60, mload(0x80))\n  shr(0x60, mload(0xa0))\n  codecopy(0x00, dataOffset(sub_0), dataSize(sub_0))\n  0x00\n  assignImmutable(\"0x2b788c69c84726cb61a0641c648d01bc1bc6568bcab92e0e8975f165cd12fe81\")\n  0x00\n  assignImmutable(\"0x29f8d1998cd4186678d0085cd54072aeefd05bc476ef1844361510d857ac074b\")\n  return(0x00, dataSize(sub_0))\nstop\n\nsub_0: assembly {\n        /* \"Ghosper-NFT-Staking-MasterChef.sol\":27968:38950  contract NftStaking is Ownable {\r... */\n      mstore(0x40, 0x80)\n      callvalue\n      dup1\n      iszero\n      tag_1\n      jumpi\n      0x00\n      dup1\n      revert\n    tag_1:\n      pop\n      jumpi(tag_2, lt(calldatasize, 0x04))\n      shr(0xe0, calldataload(0x00))\n      dup1\n      0x792b55b6\n      gt\n      tag_27\n      jumpi\n      dup1\n      0xa9f8d181\n      gt\n      tag_28\n      jumpi\n      dup1\n      0xa9f8d181\n      eq\n      tag_21\n      jumpi\n      dup1\n      0xb5962917\n      eq\n      tag_22\n      jumpi\n      dup1\n      0xd06fcba8\n      eq\n      tag_23\n      jumpi\n      dup1\n      0xe449f341\n      eq\n      tag_24\n      jumpi\n      dup1\n      0xf25f4b56\n      eq\n      tag_25\n      jumpi\n      dup1\n      0xf2fde38b\n      eq\n      tag_26\n      jumpi\n      jump(tag_2)\n    tag_28:\n      dup1\n      0x792b55b6\n      eq\n      tag_15\n      jumpi\n      dup1\n      0x8ae39cac\n      eq\n      tag_16\n      jumpi\n      dup1\n      0x8da5cb5b\n      eq\n      tag_17\n      jumpi\n      dup1\n      0x8dbb1e3a\n      eq\n      tag_18\n      jumpi\n      dup1\n      0x90d49b9d\n      eq\n      tag_19\n      jumpi\n      dup1\n      0x9ca62a69\n      eq\n      tag_20\n      jumpi\n      jump(tag_2)\n    tag_27:\n      dup1\n      0x294d4e4a\n      gt\n      tag_29\n      jumpi\n      dup1\n      0x294d4e4a\n      eq\n      tag_9\n      jumpi\n      dup1\n      0x43db3c5f\n      eq\n      tag_10\n      jumpi\n      dup1\n      0x4641257d\n      eq\n      tag_11\n      jumpi\n      dup1\n      0x567e98f9\n      eq\n      tag_12\n      jumpi\n      dup1\n      0x5e42b455\n      eq\n      tag_13\n      jumpi\n      dup1\n      0x715018a6\n      eq\n      tag_14\n      jumpi\n      jump(tag_2)\n    tag_29:\n      dup1\n      0x0fbf0a93\n      eq\n      tag_3\n      jumpi\n      dup1\n      0x10c77237\n      eq\n      tag_4\n      jumpi\n      dup1\n      0x1959a002\n      eq\n      tag_5\n      jumpi\n      dup1\n      0x19fca9f6\n      eq\n      tag_6\n      jumpi\n      dup1\n      0x1c3e2e7a\n      eq\n      tag_7\n      jumpi\n      dup1\n      0x1e2720ff\n      eq\n      tag_8\n      jumpi\n    tag_2:\n      0x00\n      dup1\n      revert\n        /* \"Ghosper-NFT-Staking-MasterChef.sol\":35049:36403  function stake(uint256[] calldata tokenIds) external {\r... */\n    tag_3:\n      tag_30\n      0x04\n      dup1\n      calldatasize\n      sub\n      dup2\n      add\n      swap1\n      tag_31\n      swap2\n      swap1\n      tag_32\n      jump\t// in\n    tag_31:\n      tag_33\n      jump\t// in\n    tag_30:\n      stop\n        /* \"Ghosper-NFT-Staking-MasterChef.sol\":30633:31937  function setUnStakeFee(uint256 _index, uint256 _minDays, uint256 _feePercent) external onlyOwner {\r... */\n    tag_4:\n      tag_34\n      0x04\n      dup1\n      calldatasize\n      sub\n      dup2\n      add\n      swap1\n      tag_35\n      swap2\n      swap1\n      tag_36\n      jump\t// in\n    tag_35:\n      tag_37\n      jump\t// in\n    tag_34:\n      stop\n        /* \"Ghosper-NFT-Staking-MasterChef.sol\":28828:28873  mapping (address => UserInfo) public userInfo */\n    tag_5:\n      tag_38\n      0x04\n      dup1\n      calldatasize\n      sub\n      dup2\n      add\n      swap1\n      tag_39\n      swap2\n      swap1\n      tag_40\n      jump\t// in\n    tag_39:\n      tag_41\n      jump\t// in\n    tag_38:\n      mload(0x40)\n      tag_42\n      swap5\n      swap4\n      swap3\n      swap2\n      swap1\n      tag_43\n      jump\t// in\n    tag_42:\n      mload(0x40)\n      dup1\n      swap2\n      sub\n      swap1\n      return\n        /* \"Ghosper-NFT-Staking-MasterChef.sol\":28414:28447  IBEP20 public immutable ghspToken */\n    tag_6:\n      tag_44\n      tag_45\n      jump\t// in\n    tag_44:\n      mload(0x40)\n      tag_46\n      swap2\n      swap1\n      tag_47\n      jump\t// in\n    tag_46:\n      mload(0x40)\n      dup1\n      swap2\n      sub\n      swap1\n      return\n        /* \"Ghosper-NFT-Staking-MasterChef.sol\":28336:28367  UnStakeFee[] public unStakeFees */\n    tag_7:\n      tag_48\n      0x04\n      dup1\n      calldatasize\n      sub\n      dup2\n      add\n      swap1\n      tag_49\n      swap2\n      swap1\n      tag_50\n      jump\t// in\n    tag_49:\n      tag_51\n      jump\t// in\n    tag_48:\n      mload(0x40)\n      tag_52\n      swap3\n      swap2\n      swap1\n      tag_53\n      jump\t// in\n    tag_52:\n      mload(0x40)\n      dup1\n      swap2\n      sub\n      swap1\n      return\n        /* \"Ghosper-NFT-Staking-MasterChef.sol\":33912:34157  function depositReward(uint256 _amount) external onlyOwner {\r... */\n    tag_8:\n      tag_54\n      0x04\n      dup1\n      calldatasize\n      sub\n      dup2\n      add\n      swap1\n      tag_55\n      swap2\n      swap1\n      tag_50\n      jump\t// in\n    tag_55:\n      tag_56\n      jump\t// in\n    tag_54:\n      stop\n        /* \"Ghosper-NFT-Staking-MasterChef.sol\":31945:32641  function addUnStakeFee(uint256 _minDays, uint256 _feePercent) external onlyOwner {\r... */\n    tag_9:\n      tag_57\n      0x04\n      dup1\n      calldatasize\n      sub\n      dup2\n      add\n      swap1\n      tag_58\n      swap2\n      swap1\n      tag_59\n      jump\t// in\n    tag_58:\n      tag_60\n      jump\t// in\n    tag_57:\n      stop\n        /* \"Ghosper-NFT-Staking-MasterChef.sol\":28491:28521  uint256 public accGHSPPerShare */\n    tag_10:\n      tag_61\n      tag_62\n      jump\t// in\n    tag_61:\n      mload(0x40)\n      tag_63\n      swap2\n      swap1\n      tag_64\n      jump\t// in\n    tag_63:\n      mload(0x40)\n      dup1\n      swap2\n      sub\n      swap1\n      return\n        /* \"Ghosper-NFT-Staking-MasterChef.sol\":38295:38947  function harvest() external {\r... */\n    tag_11:\n      tag_65\n      tag_66\n      jump\t// in\n    tag_65:\n      stop\n        /* \"Ghosper-NFT-Staking-MasterChef.sol\":28627:28659  uint256 public totalStakedAmount */\n    tag_12:\n      tag_67\n      tag_68\n      jump\t// in\n    tag_67:\n      mload(0x40)\n      tag_69\n      swap2\n      swap1\n      tag_64\n      jump\t// in\n    tag_69:\n      mload(0x40)\n      dup1\n      swap2\n      sub\n      swap1\n      return\n        /* \"Ghosper-NFT-Staking-MasterChef.sol\":33499:33904  function getRewardBalance() external view returns (uint256) {\r... */\n    tag_13:\n      tag_70\n      tag_71\n      jump\t// in\n    tag_70:\n      mload(0x40)\n      tag_72\n      swap2\n      swap1\n      tag_64\n      jump\t// in\n    tag_72:\n      mload(0x40)\n      dup1\n      swap2\n      sub\n      swap1\n      return\n        /* \"Ghosper-NFT-Staking-MasterChef.sol\":5562:5665  function renounceOwnership() public virtual onlyOwner {\r... */\n    tag_14:\n      tag_73\n      tag_74\n      jump\t// in\n    tag_73:\n      stop\n        /* \"Ghosper-NFT-Staking-MasterChef.sol\":33143:33362  function setHarvestFee(uint256 _feePercent) external onlyOwner {\r... */\n    tag_15:\n      tag_75\n      0x04\n      dup1\n      calldatasize\n      sub\n      dup2\n      add\n      swap1\n      tag_76\n      swap2\n      swap1\n      tag_50\n      jump\t// in\n    tag_76:\n      tag_77\n      jump\t// in\n    tag_75:\n      stop\n        /* \"Ghosper-NFT-Staking-MasterChef.sol\":28528:28557  uint256 public rewardPerBlock */\n    tag_16:\n      tag_78\n      tag_79\n      jump\t// in\n    tag_78:\n      mload(0x40)\n      tag_80\n      swap2\n      swap1\n      tag_64\n      jump\t// in\n    tag_80:\n      mload(0x40)\n      dup1\n      swap2\n      sub\n      swap1\n      return\n        /* \"Ghosper-NFT-Staking-MasterChef.sol\":4911:4998  function owner() public view virtual returns (address) {\r... */\n    tag_17:\n      tag_81\n      tag_82\n      jump\t// in\n    tag_81:\n      mload(0x40)\n      tag_83\n      swap2\n      swap1\n      tag_84\n      jump\t// in\n    tag_83:\n      mload(0x40)\n      dup1\n      swap2\n      sub\n      swap1\n      return\n        /* \"Ghosper-NFT-Staking-MasterChef.sol\":33370:33491  function getMultiplier(uint256 _from, uint256 _to) public pure returns (uint256) {\r... */\n    tag_18:\n      tag_85\n      0x04\n      dup1\n      calldatasize\n      sub\n      dup2\n      add\n      swap1\n      tag_86\n      swap2\n      swap1\n      tag_59\n      jump\t// in\n    tag_86:\n      tag_87\n      jump\t// in\n    tag_85:\n      mload(0x40)\n      tag_88\n      swap2\n      swap1\n      tag_64\n      jump\t// in\n    tag_88:\n      mload(0x40)\n      dup1\n      swap2\n      sub\n      swap1\n      return\n        /* \"Ghosper-NFT-Staking-MasterChef.sol\":30486:30627  function setFeeWallet(address _feeWallet) external onlyOwner {\r... */\n    tag_19:\n      tag_89\n      0x04\n      dup1\n      calldatasize\n      sub\n      dup2\n      add\n      swap1\n      tag_90\n      swap2\n      swap1\n      tag_40\n      jump\t// in\n    tag_90:\n      tag_91\n      jump\t// in\n    tag_89:\n      stop\n        /* \"Ghosper-NFT-Staking-MasterChef.sol\":32649:33135  function removeUnStakeFee(uint256 _index) external onlyOwner {\r... */\n    tag_20:\n      tag_92\n      0x04\n      dup1\n      calldatasize\n      sub\n      dup2\n      add\n      swap1\n      tag_93\n      swap2\n      swap1\n      tag_50\n      jump\t// in\n    tag_93:\n      tag_94\n      jump\t// in\n    tag_92:\n      stop\n        /* \"Ghosper-NFT-Staking-MasterChef.sol\":28454:28484  uint256 public lastRewardBlock */\n    tag_21:\n      tag_95\n      tag_96\n      jump\t// in\n    tag_95:\n      mload(0x40)\n      tag_97\n      swap2\n      swap1\n      tag_64\n      jump\t// in\n    tag_97:\n      mload(0x40)\n      dup1\n      swap2\n      sub\n      swap1\n      return\n        /* \"Ghosper-NFT-Staking-MasterChef.sol\":28595:28620  uint256 public harvestFee */\n    tag_22:\n      tag_98\n      tag_99\n      jump\t// in\n    tag_98:\n      mload(0x40)\n      tag_100\n      swap2\n      swap1\n      tag_64\n      jump\t// in\n    tag_100:\n      mload(0x40)\n      dup1\n      swap2\n      sub\n      swap1\n      return\n        /* \"Ghosper-NFT-Staking-MasterChef.sol\":28374:28407  IERC721 public immutable nftToken */\n    tag_23:\n      tag_101\n      tag_102\n      jump\t// in\n    tag_101:\n      mload(0x40)\n      tag_103\n      swap2\n      swap1\n      tag_104\n      jump\t// in\n    tag_103:\n      mload(0x40)\n      dup1\n      swap2\n      sub\n      swap1\n      return\n        /* \"Ghosper-NFT-Staking-MasterChef.sol\":36411:37726  function unstake(uint256[] calldata tokenIds) external {\r... */\n    tag_24:\n      tag_105\n      0x04\n      dup1\n      calldatasize\n      sub\n      dup2\n      add\n      swap1\n      tag_106\n      swap2\n      swap1\n      tag_32\n      jump\t// in\n    tag_106:\n      tag_107\n      jump\t// in\n    tag_105:\n      stop\n        /* \"Ghosper-NFT-Staking-MasterChef.sol\":28564:28588  address public feeWallet */\n    tag_25:\n      tag_108\n      tag_109\n      jump\t// in\n    tag_108:\n      mload(0x40)\n      tag_110\n      swap2\n      swap1\n      tag_84\n      jump\t// in\n    tag_110:\n      mload(0x40)\n      dup1\n      swap2\n      sub\n      swap1\n      return\n        /* \"Ghosper-NFT-Staking-MasterChef.sol\":5820:6021  function transferOwnership(address newOwner) public virtual onlyOwner {\r... */\n    tag_26:\n      tag_111\n      0x04\n      dup1\n      calldatasize\n      sub\n      dup2\n      add\n      swap1\n      tag_112\n      swap2\n      swap1\n      tag_40\n      jump\t// in\n    tag_112:\n      tag_113\n      jump\t// in\n    tag_111:\n      stop\n        /* \"Ghosper-NFT-Staking-MasterChef.sol\":35049:36403  function stake(uint256[] calldata tokenIds) external {\r... */\n    tag_33:\n        /* \"Ghosper-NFT-Staking-MasterChef.sol\":35139:35140  0 */\n      0x00\n        /* \"Ghosper-NFT-Staking-MasterChef.sol\":35121:35129  tokenIds */\n      dup3\n      dup3\n        /* \"Ghosper-NFT-Staking-MasterChef.sol\":35121:35136  tokenIds.length */\n      swap1\n      pop\n        /* \"Ghosper-NFT-Staking-MasterChef.sol\":35121:35140  tokenIds.length > 0 */\n      gt\n        /* \"Ghosper-NFT-Staking-MasterChef.sol\":35113:35169  require(tokenIds.length > 0, \"NFT Staking: Empty Array\") */\n      tag_115\n      jumpi\n      mload(0x40)\n      0x08c379a000000000000000000000000000000000000000000000000000000000\n      dup2\n      mstore\n      0x04\n      add\n      tag_116\n      swap1\n      tag_117\n      jump\t// in\n    tag_116:\n      mload(0x40)\n      dup1\n      swap2\n      sub\n      swap1\n      revert\n    tag_115:\n        /* \"Ghosper-NFT-Staking-MasterChef.sol\":35184:35193  uint256 i */\n      0x00\n        /* \"Ghosper-NFT-Staking-MasterChef.sol\":35180:35561  for(uint256 i = 0; i < tokenIds.length; i ++){\r... */\n    tag_118:\n        /* \"Ghosper-NFT-Staking-MasterChef.sol\":35203:35211  tokenIds */\n      dup3\n      dup3\n        /* \"Ghosper-NFT-Staking-MasterChef.sol\":35203:35218  tokenIds.length */\n      swap1\n      pop\n        /* \"Ghosper-NFT-Staking-MasterChef.sol\":35199:35200  i */\n      dup2\n        /* \"Ghosper-NFT-Staking-MasterChef.sol\":35199:35218  i < tokenIds.length */\n      lt\n        /* \"Ghosper-NFT-Staking-MasterChef.sol\":35180:35561  for(uint256 i = 0; i < tokenIds.length; i ++){\r... */\n      iszero\n      tag_119\n      jumpi\n        /* \"Ghosper-NFT-Staking-MasterChef.sol\":35240:35255  uint256 tokenId */\n      0x00\n        /* \"Ghosper-NFT-Staking-MasterChef.sol\":35258:35266  tokenIds */\n      dup4\n      dup4\n        /* \"Ghosper-NFT-Staking-MasterChef.sol\":35267:35268  i */\n      dup4\n        /* \"Ghosper-NFT-Staking-MasterChef.sol\":35258:35269  tokenIds[i] */\n      dup2\n      dup2\n      lt\n      tag_121\n      jumpi\n      tag_122\n      tag_123\n      jump\t// in\n    tag_122:\n    tag_121:\n      swap1\n      pop\n      0x20\n      mul\n      add\n      calldataload\n        /* \"Ghosper-NFT-Staking-MasterChef.sol\":35240:35269  uint256 tokenId = tokenIds[i] */\n      swap1\n      pop\n        /* \"Ghosper-NFT-Staking-MasterChef.sol\":35322:35323  0 */\n      0x00\n        /* \"Ghosper-NFT-Staking-MasterChef.sol\":35292:35324  allStakes[tokenId] == address(0) */\n      0xffffffffffffffffffffffffffffffffffffffff\n      and\n        /* \"Ghosper-NFT-Staking-MasterChef.sol\":35292:35301  allStakes */\n      0x09\n        /* \"Ghosper-NFT-Staking-MasterChef.sol\":35292:35310  allStakes[tokenId] */\n      0x00\n        /* \"Ghosper-NFT-Staking-MasterChef.sol\":35302:35309  tokenId */\n      dup4\n        /* \"Ghosper-NFT-Staking-MasterChef.sol\":35292:35310  allStakes[tokenId] */\n      dup2\n      mstore\n      0x20\n      add\n      swap1\n      dup2\n      mstore\n      0x20\n      add\n      0x00\n      keccak256\n      0x00\n      swap1\n      sload\n      swap1\n      0x0100\n      exp\n      swap1\n      div\n      0xffffffffffffffffffffffffffffffffffffffff\n      and\n        /* \"Ghosper-NFT-Staking-MasterChef.sol\":35292:35324  allStakes[tokenId] == address(0) */\n      0xffffffffffffffffffffffffffffffffffffffff\n      and\n      eq\n        /* \"Ghosper-NFT-Staking-MasterChef.sol\":35284:35363  require(allStakes[tokenId] == address(0), \"NFT Staking: token already staked.\") */\n      tag_124\n      jumpi\n      mload(0x40)\n      0x08c379a000000000000000000000000000000000000000000000000000000000\n      dup2\n      mstore\n      0x04\n      add\n      tag_125\n      swap1\n      tag_126\n      jump\t// in\n    tag_125:\n      mload(0x40)\n      dup1\n      swap2\n      sub\n      swap1\n      revert\n    tag_124:\n        /* \"Ghosper-NFT-Staking-MasterChef.sol\":35382:35391  uint256 j */\n      0x00\n        /* \"Ghosper-NFT-Staking-MasterChef.sol\":35398:35399  1 */\n      0x01\n        /* \"Ghosper-NFT-Staking-MasterChef.sol\":35394:35395  i */\n      dup4\n        /* \"Ghosper-NFT-Staking-MasterChef.sol\":35394:35399  i + 1 */\n      tag_130\n      swap2\n      swap1\n      tag_131\n      jump\t// in\n    tag_130:\n        /* \"Ghosper-NFT-Staking-MasterChef.sol\":35382:35399  uint256 j = i + 1 */\n      swap1\n      pop\n        /* \"Ghosper-NFT-Staking-MasterChef.sol\":35378:35550  for(uint256 j = i + 1; j < tokenIds.length; j ++){\r... */\n    tag_127:\n        /* \"Ghosper-NFT-Staking-MasterChef.sol\":35405:35413  tokenIds */\n      dup5\n      dup5\n        /* \"Ghosper-NFT-Staking-MasterChef.sol\":35405:35420  tokenIds.length */\n      swap1\n      pop\n        /* \"Ghosper-NFT-Staking-MasterChef.sol\":35401:35402  j */\n      dup2\n        /* \"Ghosper-NFT-Staking-MasterChef.sol\":35401:35420  j < tokenIds.length */\n      lt\n        /* \"Ghosper-NFT-Staking-MasterChef.sol\":35378:35550  for(uint256 j = i + 1; j < tokenIds.length; j ++){\r... */\n      iszero\n      tag_128\n      jumpi\n        /* \"Ghosper-NFT-Staking-MasterChef.sol\":35469:35477  tokenIds */\n      dup5\n      dup5\n        /* \"Ghosper-NFT-Staking-MasterChef.sol\":35478:35479  j */\n      dup3\n        /* \"Ghosper-NFT-Staking-MasterChef.sol\":35469:35480  tokenIds[j] */\n      dup2\n      dup2\n      lt\n      tag_132\n      jumpi\n      tag_133\n      tag_123\n      jump\t// in\n    tag_133:\n    tag_132:\n      swap1\n      pop\n      0x20\n      mul\n      add\n      calldataload\n        /* \"Ghosper-NFT-Staking-MasterChef.sol\":35454:35462  tokenIds */\n      dup6\n      dup6\n        /* \"Ghosper-NFT-Staking-MasterChef.sol\":35463:35464  i */\n      dup6\n        /* \"Ghosper-NFT-Staking-MasterChef.sol\":35454:35465  tokenIds[i] */\n      dup2\n      dup2\n      lt\n      tag_134\n      jumpi\n      tag_135\n      tag_123\n      jump\t// in\n    tag_135:\n    tag_134:\n      swap1\n      pop\n      0x20\n      mul\n      add\n      calldataload\n        /* \"Ghosper-NFT-Staking-MasterChef.sol\":35454:35480  tokenIds[i] != tokenIds[j] */\n      eq\n      iszero\n        /* \"Ghosper-NFT-Staking-MasterChef.sol\":35446:35534  require(tokenIds[i] != tokenIds[j], \"NFT Staking: duplicate token ids in input params.\") */\n      tag_136\n      jumpi\n      mload(0x40)\n      0x08c379a000000000000000000000000000000000000000000000000000000000\n      dup2\n      mstore\n      0x04\n      add\n      tag_137\n      swap1\n      tag_138\n      jump\t// in\n    tag_137:\n      mload(0x40)\n      dup1\n      swap2\n      sub\n      swap1\n      revert\n    tag_136:\n        /* \"Ghosper-NFT-Staking-MasterChef.sol\":35422:35426  j ++ */\n      dup1\n      dup1\n      tag_139\n      swap1\n      tag_140\n      jump\t// in\n    tag_139:\n      swap2\n      pop\n      pop\n        /* \"Ghosper-NFT-Staking-MasterChef.sol\":35378:35550  for(uint256 j = i + 1; j < tokenIds.length; j ++){\r... */\n      jump(tag_127)\n    tag_128:\n      pop\n        /* \"Ghosper-NFT-Staking-MasterChef.sol\":35225:35561  {\r... */\n      pop\n        /* \"Ghosper-NFT-Staking-MasterChef.sol\":35220:35224  i ++ */\n      dup1\n      dup1\n      tag_141\n      swap1\n      tag_140\n      jump\t// in\n    tag_141:\n      swap2\n      pop\n      pop\n        /* \"Ghosper-NFT-Staking-MasterChef.sol\":35180:35561  for(uint256 i = 0; i < tokenIds.length; i ++){\r... */\n      jump(tag_118)\n    tag_119:\n      pop\n        /* \"Ghosper-NFT-Staking-MasterChef.sol\":35571:35585  updateStatus() */\n      tag_142\n        /* \"Ghosper-NFT-Staking-MasterChef.sol\":35571:35583  updateStatus */\n      tag_143\n        /* \"Ghosper-NFT-Staking-MasterChef.sol\":35571:35585  updateStatus() */\n      jump\t// in\n    tag_142:\n        /* \"Ghosper-NFT-Staking-MasterChef.sol\":35596:35617  UserInfo storage user */\n      0x00\n        /* \"Ghosper-NFT-Staking-MasterChef.sol\":35620:35628  userInfo */\n      0x0b\n        /* \"Ghosper-NFT-Staking-MasterChef.sol\":35620:35640  userInfo[msg.sender] */\n      0x00\n        /* \"Ghosper-NFT-Staking-MasterChef.sol\":35629:35639  msg.sender */\n      caller\n        /* \"Ghosper-NFT-Staking-MasterChef.sol\":35620:35640  userInfo[msg.sender] */\n      0xffffffffffffffffffffffffffffffffffffffff\n      and\n      0xffffffffffffffffffffffffffffffffffffffff\n      and\n      dup2\n      mstore\n      0x20\n      add\n      swap1\n      dup2\n      mstore\n      0x20\n      add\n      0x00\n      keccak256\n        /* \"Ghosper-NFT-Staking-MasterChef.sol\":35596:35640  UserInfo storage user = userInfo[msg.sender] */\n      swap1\n      pop\n        /* \"Ghosper-NFT-Staking-MasterChef.sol\":35669:35670  0 */\n      0x00\n        /* \"Ghosper-NFT-Staking-MasterChef.sol\":35655:35659  user */\n      dup2\n        /* \"Ghosper-NFT-Staking-MasterChef.sol\":35655:35666  user.amount */\n      0x00\n      add\n      sload\n        /* \"Ghosper-NFT-Staking-MasterChef.sol\":35655:35670  user.amount > 0 */\n      gt\n        /* \"Ghosper-NFT-Staking-MasterChef.sol\":35651:35847  if (user.amount > 0) {\r... */\n      iszero\n      tag_144\n      jumpi\n        /* \"Ghosper-NFT-Staking-MasterChef.sol\":35687:35702  uint256 pending */\n      0x00\n        /* \"Ghosper-NFT-Staking-MasterChef.sol\":35705:35768  user.amount.mul(accGHSPPerShare).div(1e12).sub(user.rewardDebt) */\n      tag_145\n        /* \"Ghosper-NFT-Staking-MasterChef.sol\":35752:35756  user */\n      dup3\n        /* \"Ghosper-NFT-Staking-MasterChef.sol\":35752:35767  user.rewardDebt */\n      0x01\n      add\n      sload\n        /* \"Ghosper-NFT-Staking-MasterChef.sol\":35705:35747  user.amount.mul(accGHSPPerShare).div(1e12) */\n      tag_146\n        /* \"Ghosper-NFT-Staking-MasterChef.sol\":35742:35746  1e12 */\n      0xe8d4a51000\n        /* \"Ghosper-NFT-Staking-MasterChef.sol\":35705:35737  user.amount.mul(accGHSPPerShare) */\n      tag_147\n        /* \"Ghosper-NFT-Staking-MasterChef.sol\":35721:35736  accGHSPPerShare */\n      sload(0x03)\n        /* \"Ghosper-NFT-Staking-MasterChef.sol\":35705:35709  user */\n      dup8\n        /* \"Ghosper-NFT-Staking-MasterChef.sol\":35705:35716  user.amount */\n      0x00\n      add\n      sload\n        /* \"Ghosper-NFT-Staking-MasterChef.sol\":35705:35720  user.amount.mul */\n      tag_148\n      swap1\n        /* \"Ghosper-NFT-Staking-MasterChef.sol\":35705:35737  user.amount.mul(accGHSPPerShare) */\n      swap2\n      swap1\n      0xffffffff\n      and\n      jump\t// in\n    tag_147:\n        /* \"Ghosper-NFT-Staking-MasterChef.sol\":35705:35741  user.amount.mul(accGHSPPerShare).div */\n      tag_149\n      swap1\n        /* \"Ghosper-NFT-Staking-MasterChef.sol\":35705:35747  user.amount.mul(accGHSPPerShare).div(1e12) */\n      swap2\n      swap1\n      0xffffffff\n      and\n      jump\t// in\n    tag_146:\n        /* \"Ghosper-NFT-Staking-MasterChef.sol\":35705:35751  user.amount.mul(accGHSPPerShare).div(1e12).sub */\n      tag_150\n      swap1\n        /* \"Ghosper-NFT-Staking-MasterChef.sol\":35705:35768  user.amount.mul(accGHSPPerShare).div(1e12).sub(user.rewardDebt) */\n      swap2\n      swap1\n      0xffffffff\n      and\n      jump\t// in\n    tag_145:\n        /* \"Ghosper-NFT-Staking-MasterChef.sol\":35687:35768  uint256 pending = user.amount.mul(accGHSPPerShare).div(1e12).sub(user.rewardDebt) */\n      swap1\n      pop\n        /* \"Ghosper-NFT-Staking-MasterChef.sol\":35804:35835  user.pendingAmount.add(pending) */\n      tag_151\n        /* \"Ghosper-NFT-Staking-MasterChef.sol\":35827:35834  pending */\n      dup2\n        /* \"Ghosper-NFT-Staking-MasterChef.sol\":35804:35808  user */\n      dup4\n        /* \"Ghosper-NFT-Staking-MasterChef.sol\":35804:35822  user.pendingAmount */\n      0x02\n      add\n      sload\n        /* \"Ghosper-NFT-Staking-MasterChef.sol\":35804:35826  user.pendingAmount.add */\n      tag_152\n      swap1\n        /* \"Ghosper-NFT-Staking-MasterChef.sol\":35804:35835  user.pendingAmount.add(pending) */\n      swap2\n      swap1\n      0xffffffff\n      and\n      jump\t// in\n    tag_151:\n        /* \"Ghosper-NFT-Staking-MasterChef.sol\":35783:35787  user */\n      dup3\n        /* \"Ghosper-NFT-Staking-MasterChef.sol\":35783:35801  user.pendingAmount */\n      0x02\n      add\n        /* \"Ghosper-NFT-Staking-MasterChef.sol\":35783:35835  user.pendingAmount = user.pendingAmount.add(pending) */\n      dup2\n      swap1\n      sstore\n      pop\n        /* \"Ghosper-NFT-Staking-MasterChef.sol\":35672:35847  {\r... */\n      pop\n        /* \"Ghosper-NFT-Staking-MasterChef.sol\":35651:35847  if (user.amount > 0) {\r... */\n    tag_144:\n        /* \"Ghosper-NFT-Staking-MasterChef.sol\":35861:35870  uint256 i */\n      0x00\n        /* \"Ghosper-NFT-Staking-MasterChef.sol\":35857:36352  for(uint256 i = 0; i < tokenIds.length; i ++){\r... */\n    tag_153:\n        /* \"Ghosper-NFT-Staking-MasterChef.sol\":35880:35888  tokenIds */\n      dup4\n      dup4\n        /* \"Ghosper-NFT-Staking-MasterChef.sol\":35880:35895  tokenIds.length */\n      swap1\n      pop\n        /* \"Ghosper-NFT-Staking-MasterChef.sol\":35876:35877  i */\n      dup2\n        /* \"Ghosper-NFT-Staking-MasterChef.sol\":35876:35895  i < tokenIds.length */\n      lt\n        /* \"Ghosper-NFT-Staking-MasterChef.sol\":35857:36352  for(uint256 i = 0; i < tokenIds.length; i ++){\r... */\n      iszero\n      tag_154\n      jumpi\n        /* \"Ghosper-NFT-Staking-MasterChef.sol\":35917:35932  uint256 tokenId */\n      0x00\n        /* \"Ghosper-NFT-Staking-MasterChef.sol\":35935:35943  tokenIds */\n      dup5\n      dup5\n        /* \"Ghosper-NFT-Staking-MasterChef.sol\":35944:35945  i */\n      dup4\n        /* \"Ghosper-NFT-Staking-MasterChef.sol\":35935:35946  tokenIds[i] */\n      dup2\n      dup2\n      lt\n      tag_156\n      jumpi\n      tag_157\n      tag_123\n      jump\t// in\n    tag_157:\n    tag_156:\n      swap1\n      pop\n      0x20\n      mul\n      add\n      calldataload\n        /* \"Ghosper-NFT-Staking-MasterChef.sol\":35917:35946  uint256 tokenId = tokenIds[i] */\n      swap1\n      pop\n        /* \"Ghosper-NFT-Staking-MasterChef.sol\":35982:35992  msg.sender */\n      caller\n        /* \"Ghosper-NFT-Staking-MasterChef.sol\":35961:35970  allStakes */\n      0x09\n        /* \"Ghosper-NFT-Staking-MasterChef.sol\":35961:35979  allStakes[tokenId] */\n      0x00\n        /* \"Ghosper-NFT-Staking-MasterChef.sol\":35971:35978  tokenId */\n      dup4\n        /* \"Ghosper-NFT-Staking-MasterChef.sol\":35961:35979  allStakes[tokenId] */\n      dup2\n      mstore\n      0x20\n      add\n      swap1\n      dup2\n      mstore\n      0x20\n      add\n      0x00\n      keccak256\n      0x00\n        /* \"Ghosper-NFT-Staking-MasterChef.sol\":35961:35992  allStakes[tokenId] = msg.sender */\n      0x0100\n      exp\n      dup2\n      sload\n      dup2\n      0xffffffffffffffffffffffffffffffffffffffff\n      mul\n      not\n      and\n      swap1\n      dup4\n      0xffffffffffffffffffffffffffffffffffffffff\n      and\n      mul\n      or\n      swap1\n      sstore\n      pop\n        /* \"Ghosper-NFT-Staking-MasterChef.sol\":36070:36094  totalStakedAmount.add(1) */\n      tag_158\n        /* \"Ghosper-NFT-Staking-MasterChef.sol\":36092:36093  1 */\n      0x01\n        /* \"Ghosper-NFT-Staking-MasterChef.sol\":36070:36087  totalStakedAmount */\n      sload(0x07)\n        /* \"Ghosper-NFT-Staking-MasterChef.sol\":36070:36091  totalStakedAmount.add */\n      tag_152\n      swap1\n        /* \"Ghosper-NFT-Staking-MasterChef.sol\":36070:36094  totalStakedAmount.add(1) */\n      swap2\n      swap1\n      0xffffffff\n      and\n      jump\t// in\n    tag_158:\n        /* \"Ghosper-NFT-Staking-MasterChef.sol\":36050:36067  totalStakedAmount */\n      0x07\n        /* \"Ghosper-NFT-Staking-MasterChef.sol\":36050:36094  totalStakedAmount = totalStakedAmount.add(1) */\n      dup2\n      swap1\n      sstore\n      pop\n        /* \"Ghosper-NFT-Staking-MasterChef.sol\":36123:36141  user.amount.add(1) */\n      tag_159\n        /* \"Ghosper-NFT-Staking-MasterChef.sol\":36139:36140  1 */\n      0x01\n        /* \"Ghosper-NFT-Staking-MasterChef.sol\":36123:36127  user */\n      dup5\n        /* \"Ghosper-NFT-Staking-MasterChef.sol\":36123:36134  user.amount */\n      0x00\n      add\n      sload\n        /* \"Ghosper-NFT-Staking-MasterChef.sol\":36123:36138  user.amount.add */\n      tag_152\n      swap1\n        /* \"Ghosper-NFT-Staking-MasterChef.sol\":36123:36141  user.amount.add(1) */\n      swap2\n      swap1\n      0xffffffff\n      and\n      jump\t// in\n    tag_159:\n        /* \"Ghosper-NFT-Staking-MasterChef.sol\":36109:36113  user */\n      dup4\n        /* \"Ghosper-NFT-Staking-MasterChef.sol\":36109:36120  user.amount */\n      0x00\n      add\n        /* \"Ghosper-NFT-Staking-MasterChef.sol\":36109:36141  user.amount = user.amount.add(1) */\n      dup2\n      swap1\n      sstore\n      pop\n        /* \"Ghosper-NFT-Staking-MasterChef.sol\":36174:36216  user.amount.mul(accGHSPPerShare).div(1e12) */\n      tag_160\n        /* \"Ghosper-NFT-Staking-MasterChef.sol\":36211:36215  1e12 */\n      0xe8d4a51000\n        /* \"Ghosper-NFT-Staking-MasterChef.sol\":36174:36206  user.amount.mul(accGHSPPerShare) */\n      tag_161\n        /* \"Ghosper-NFT-Staking-MasterChef.sol\":36190:36205  accGHSPPerShare */\n      sload(0x03)\n        /* \"Ghosper-NFT-Staking-MasterChef.sol\":36174:36178  user */\n      dup7\n        /* \"Ghosper-NFT-Staking-MasterChef.sol\":36174:36185  user.amount */\n      0x00\n      add\n      sload\n        /* \"Ghosper-NFT-Staking-MasterChef.sol\":36174:36189  user.amount.mul */\n      tag_148\n      swap1\n        /* \"Ghosper-NFT-Staking-MasterChef.sol\":36174:36206  user.amount.mul(accGHSPPerShare) */\n      swap2\n      swap1\n      0xffffffff\n      and\n      jump\t// in\n    tag_161:\n        /* \"Ghosper-NFT-Staking-MasterChef.sol\":36174:36210  user.amount.mul(accGHSPPerShare).div */\n      tag_149\n      swap1\n        /* \"Ghosper-NFT-Staking-MasterChef.sol\":36174:36216  user.amount.mul(accGHSPPerShare).div(1e12) */\n      swap2\n      swap1\n      0xffffffff\n      and\n      jump\t// in\n    tag_160:\n        /* \"Ghosper-NFT-Staking-MasterChef.sol\":36156:36160  user */\n      dup4\n        /* \"Ghosper-NFT-Staking-MasterChef.sol\":36156:36171  user.rewardDebt */\n      0x01\n      add\n        /* \"Ghosper-NFT-Staking-MasterChef.sol\":36156:36216  user.rewardDebt = user.amount.mul(accGHSPPerShare).div(1e12) */\n      dup2\n      swap1\n      sstore\n      pop\n        /* \"Ghosper-NFT-Staking-MasterChef.sol\":36253:36268  block.timestamp */\n      timestamp\n        /* \"Ghosper-NFT-Staking-MasterChef.sol\":36231:36235  user */\n      dup4\n        /* \"Ghosper-NFT-Staking-MasterChef.sol\":36231:36250  user.lastStakedTime */\n      0x03\n      add\n        /* \"Ghosper-NFT-Staking-MasterChef.sol\":36231:36268  user.lastStakedTime = block.timestamp */\n      dup2\n      swap1\n      sstore\n      pop\n        /* \"Ghosper-NFT-Staking-MasterChef.sol\":36283:36291  nftToken */\n      immutable(\"0x29f8d1998cd4186678d0085cd54072aeefd05bc476ef1844361510d857ac074b\")\n        /* \"Ghosper-NFT-Staking-MasterChef.sol\":36283:36304  nftToken.transferFrom */\n      0xffffffffffffffffffffffffffffffffffffffff\n      and\n      0x23b872dd\n        /* \"Ghosper-NFT-Staking-MasterChef.sol\":36305:36315  msg.sender */\n      caller\n        /* \"Ghosper-NFT-Staking-MasterChef.sol\":36325:36329  this */\n      address\n        /* \"Ghosper-NFT-Staking-MasterChef.sol\":36332:36339  tokenId */\n      dup5\n        /* \"Ghosper-NFT-Staking-MasterChef.sol\":36283:36340  nftToken.transferFrom(msg.sender, address(this), tokenId) */\n      mload(0x40)\n      dup5\n      0xffffffff\n      and\n      0xe0\n      shl\n      dup2\n      mstore\n      0x04\n      add\n      tag_162\n      swap4\n      swap3\n      swap2\n      swap1\n      tag_163\n      jump\t// in\n    tag_162:\n      0x00\n      mload(0x40)\n      dup1\n      dup4\n      sub\n      dup2\n      0x00\n      dup8\n      dup1\n      extcodesize\n      iszero\n      dup1\n      iszero\n      tag_164\n      jumpi\n      0x00\n      dup1\n      revert\n    tag_164:\n      pop\n      gas\n      call\n      iszero\n      dup1\n      iszero\n      tag_166\n      jumpi\n      returndatasize\n      0x00\n      dup1\n      returndatacopy\n      revert(0x00, returndatasize)\n    tag_166:\n      pop\n      pop\n      pop\n      pop\n        /* \"Ghosper-NFT-Staking-MasterChef.sol\":35902:36352  {\r... */\n      pop\n        /* \"Ghosper-NFT-Staking-MasterChef.sol\":35897:35901  i ++ */\n      dup1\n      dup1\n      tag_167\n      swap1\n      tag_140\n      jump\t// in\n    tag_167:\n      swap2\n      pop\n      pop\n        /* \"Ghosper-NFT-Staking-MasterChef.sol\":35857:36352  for(uint256 i = 0; i < tokenIds.length; i ++){\r... */\n      jump(tag_153)\n    tag_154:\n      pop\n        /* \"Ghosper-NFT-Staking-MasterChef.sol\":36367:36395  Staked(msg.sender, tokenIds) */\n      0x134b166c6094cc1ccbf1e3353ce5c3cd9fd29869051bdb999895854d77cc5ef6\n        /* \"Ghosper-NFT-Staking-MasterChef.sol\":36374:36384  msg.sender */\n      caller\n        /* \"Ghosper-NFT-Staking-MasterChef.sol\":36386:36394  tokenIds */\n      dup5\n      dup5\n        /* \"Ghosper-NFT-Staking-MasterChef.sol\":36367:36395  Staked(msg.sender, tokenIds) */\n      mload(0x40)\n      tag_168\n      swap4\n      swap3\n      swap2\n      swap1\n      tag_169\n      jump\t// in\n    tag_168:\n      mload(0x40)\n      dup1\n      swap2\n      sub\n      swap1\n      log1\n        /* \"Ghosper-NFT-Staking-MasterChef.sol\":35102:36403  {\r... */\n      pop\n        /* \"Ghosper-NFT-Staking-MasterChef.sol\":35049:36403  function stake(uint256[] calldata tokenIds) external {\r... */\n      pop\n      pop\n      jump\t// out\n        /* \"Ghosper-NFT-Staking-MasterChef.sol\":30633:31937  function setUnStakeFee(uint256 _index, uint256 _minDays, uint256 _feePercent) external onlyOwner {\r... */\n    tag_37:\n        /* \"Ghosper-NFT-Staking-MasterChef.sol\":5142:5154  _msgSender() */\n      tag_171\n        /* \"Ghosper-NFT-Staking-MasterChef.sol\":5142:5152  _msgSender */\n      tag_172\n        /* \"Ghosper-NFT-Staking-MasterChef.sol\":5142:5154  _msgSender() */\n      jump\t// in\n    tag_171:\n        /* \"Ghosper-NFT-Staking-MasterChef.sol\":5131:5154  owner() == _msgSender() */\n      0xffffffffffffffffffffffffffffffffffffffff\n      and\n        /* \"Ghosper-NFT-Staking-MasterChef.sol\":5131:5138  owner() */\n      tag_173\n        /* \"Ghosper-NFT-Staking-MasterChef.sol\":5131:5136  owner */\n      tag_82\n        /* \"Ghosper-NFT-Staking-MasterChef.sol\":5131:5138  owner() */\n      jump\t// in\n    tag_173:\n        /* \"Ghosper-NFT-Staking-MasterChef.sol\":5131:5154  owner() == _msgSender() */\n      0xffffffffffffffffffffffffffffffffffffffff\n      and\n      eq\n        /* \"Ghosper-NFT-Staking-MasterChef.sol\":5123:5191  require(owner() == _msgSender(), \"Ownable: caller is not the owner\") */\n      tag_174\n      jumpi\n      mload(0x40)\n      0x08c379a000000000000000000000000000000000000000000000000000000000\n      dup2\n      mstore\n      0x04\n      add\n      tag_175\n      swap1\n      tag_176\n      jump\t// in\n    tag_175:\n      mload(0x40)\n      dup1\n      swap2\n      sub\n      swap1\n      revert\n    tag_174:\n        /* \"Ghosper-NFT-Staking-MasterChef.sol\":30758:30769  unStakeFees */\n      0x01\n        /* \"Ghosper-NFT-Staking-MasterChef.sol\":30758:30776  unStakeFees.length */\n      dup1\n      sload\n      swap1\n      pop\n        /* \"Ghosper-NFT-Staking-MasterChef.sol\":30749:30755  _index */\n      dup4\n        /* \"Ghosper-NFT-Staking-MasterChef.sol\":30749:30776  _index < unStakeFees.length */\n      lt\n        /* \"Ghosper-NFT-Staking-MasterChef.sol\":30741:30805  require(_index < unStakeFees.length, \"setUnStakeFee: range out\") */\n      tag_178\n      jumpi\n      mload(0x40)\n      0x08c379a000000000000000000000000000000000000000000000000000000000\n      dup2\n      mstore\n      0x04\n      add\n      tag_179\n      swap1\n      tag_180\n      jump\t// in\n    tag_179:\n      mload(0x40)\n      dup1\n      swap2\n      sub\n      swap1\n      revert\n    tag_178:\n        /* \"Ghosper-NFT-Staking-MasterChef.sol\":30835:30836  0 */\n      0x00\n        /* \"Ghosper-NFT-Staking-MasterChef.sol\":30824:30832  _minDays */\n      dup3\n        /* \"Ghosper-NFT-Staking-MasterChef.sol\":30824:30836  _minDays > 0 */\n      gt\n        /* \"Ghosper-NFT-Staking-MasterChef.sol\":30816:30868  require(_minDays > 0, \"setUnStakeFee: minDays is 0\") */\n      tag_181\n      jumpi\n      mload(0x40)\n      0x08c379a000000000000000000000000000000000000000000000000000000000\n      dup2\n      mstore\n      0x04\n      add\n      tag_182\n      swap1\n      tag_183\n      jump\t// in\n    tag_182:\n      mload(0x40)\n      dup1\n      swap2\n      sub\n      swap1\n      revert\n    tag_181:\n        /* \"Ghosper-NFT-Staking-MasterChef.sol\":30902:30904  40 */\n      0x28\n        /* \"Ghosper-NFT-Staking-MasterChef.sol\":30887:30898  _feePercent */\n      dup2\n        /* \"Ghosper-NFT-Staking-MasterChef.sol\":30887:30904  _feePercent <= 40 */\n      gt\n      iszero\n        /* \"Ghosper-NFT-Staking-MasterChef.sol\":30879:30939  require(_feePercent <= 40, \"setUnStakeFee: feePercent > 40\") */\n      tag_184\n      jumpi\n      mload(0x40)\n      0x08c379a000000000000000000000000000000000000000000000000000000000\n      dup2\n      mstore\n      0x04\n      add\n      tag_185\n      swap1\n      tag_186\n      jump\t// in\n    tag_185:\n      mload(0x40)\n      dup1\n      swap2\n      sub\n      swap1\n      revert\n    tag_184:\n        /* \"Ghosper-NFT-Staking-MasterChef.sol\":30964:30965  0 */\n      0x00\n        /* \"Ghosper-NFT-Staking-MasterChef.sol\":30954:30960  _index */\n      dup4\n        /* \"Ghosper-NFT-Staking-MasterChef.sol\":30954:30965  _index == 0 */\n      eq\n        /* \"Ghosper-NFT-Staking-MasterChef.sol\":30950:31766  if (_index == 0) {\r... */\n      iszero\n      tag_187\n      jumpi\n        /* \"Ghosper-NFT-Staking-MasterChef.sol\":31001:31012  unStakeFees */\n      0x01\n        /* \"Ghosper-NFT-Staking-MasterChef.sol\":31013:31014  1 */\n      dup1\n        /* \"Ghosper-NFT-Staking-MasterChef.sol\":31001:31015  unStakeFees[1] */\n      dup2\n      sload\n      dup2\n      lt\n      tag_188\n      jumpi\n      tag_189\n      tag_123\n      jump\t// in\n    tag_189:\n    tag_188:\n      swap1\n      0x00\n      mstore\n      keccak256(0x00, 0x20)\n      swap1\n      0x02\n      mul\n      add\n        /* \"Ghosper-NFT-Staking-MasterChef.sol\":31001:31023  unStakeFees[1].minDays */\n      0x00\n      add\n      sload\n        /* \"Ghosper-NFT-Staking-MasterChef.sol\":30990:30998  _minDays */\n      dup3\n        /* \"Ghosper-NFT-Staking-MasterChef.sol\":30990:31023  _minDays < unStakeFees[1].minDays */\n      lt\n        /* \"Ghosper-NFT-Staking-MasterChef.sol\":30982:31059  require(_minDays < unStakeFees[1].minDays, \"setUnStakeFee: minDays is error\") */\n      tag_191\n      jumpi\n      mload(0x40)\n      0x08c379a000000000000000000000000000000000000000000000000000000000\n      dup2\n      mstore\n      0x04\n      add\n      tag_192\n      swap1\n      tag_193\n      jump\t// in\n    tag_192:\n      mload(0x40)\n      dup1\n      swap2\n      sub\n      swap1\n      revert\n    tag_191:\n        /* \"Ghosper-NFT-Staking-MasterChef.sol\":31096:31107  unStakeFees */\n      0x01\n        /* \"Ghosper-NFT-Staking-MasterChef.sol\":31108:31109  1 */\n      dup1\n        /* \"Ghosper-NFT-Staking-MasterChef.sol\":31096:31110  unStakeFees[1] */\n      dup2\n      sload\n      dup2\n      lt\n      tag_194\n      jumpi\n      tag_195\n      tag_123\n      jump\t// in\n    tag_195:\n    tag_194:\n      swap1\n      0x00\n      mstore\n      keccak256(0x00, 0x20)\n      swap1\n      0x02\n      mul\n      add\n        /* \"Ghosper-NFT-Staking-MasterChef.sol\":31096:31121  unStakeFees[1].feePercent */\n      0x01\n      add\n      sload\n        /* \"Ghosper-NFT-Staking-MasterChef.sol\":31082:31093  _feePercent */\n      dup2\n        /* \"Ghosper-NFT-Staking-MasterChef.sol\":31082:31121  _feePercent > unStakeFees[1].feePercent */\n      gt\n        /* \"Ghosper-NFT-Staking-MasterChef.sol\":31074:31160  require(_feePercent > unStakeFees[1].feePercent, \"setUnStakeFee: feePercent is error\") */\n      tag_197\n      jumpi\n      mload(0x40)\n      0x08c379a000000000000000000000000000000000000000000000000000000000\n      dup2\n      mstore\n      0x04\n      add\n      tag_198\n      swap1\n      tag_199\n      jump\t// in\n    tag_198:\n      mload(0x40)\n      dup1\n      swap2\n      sub\n      swap1\n      revert\n    tag_197:\n        /* \"Ghosper-NFT-Staking-MasterChef.sol\":30950:31766  if (_index == 0) {\r... */\n      jump(tag_200)\n    tag_187:\n        /* \"Ghosper-NFT-Staking-MasterChef.sol\":31213:31214  1 */\n      0x01\n        /* \"Ghosper-NFT-Staking-MasterChef.sol\":31192:31203  unStakeFees */\n      dup1\n        /* \"Ghosper-NFT-Staking-MasterChef.sol\":31192:31210  unStakeFees.length */\n      dup1\n      sload\n      swap1\n      pop\n        /* \"Ghosper-NFT-Staking-MasterChef.sol\":31192:31214  unStakeFees.length - 1 */\n      tag_201\n      swap2\n      swap1\n      tag_202\n      jump\t// in\n    tag_201:\n        /* \"Ghosper-NFT-Staking-MasterChef.sol\":31182:31188  _index */\n      dup4\n        /* \"Ghosper-NFT-Staking-MasterChef.sol\":31182:31214  _index == unStakeFees.length - 1 */\n      eq\n        /* \"Ghosper-NFT-Staking-MasterChef.sol\":31178:31766  if (_index == unStakeFees.length - 1) {\r... */\n      iszero\n      tag_203\n      jumpi\n        /* \"Ghosper-NFT-Staking-MasterChef.sol\":31250:31261  unStakeFees */\n      0x01\n        /* \"Ghosper-NFT-Staking-MasterChef.sol\":31271:31272  1 */\n      dup1\n        /* \"Ghosper-NFT-Staking-MasterChef.sol\":31262:31268  _index */\n      dup5\n        /* \"Ghosper-NFT-Staking-MasterChef.sol\":31262:31272  _index - 1 */\n      tag_204\n      swap2\n      swap1\n      tag_202\n      jump\t// in\n    tag_204:\n        /* \"Ghosper-NFT-Staking-MasterChef.sol\":31250:31273  unStakeFees[_index - 1] */\n      dup2\n      sload\n      dup2\n      lt\n      tag_205\n      jumpi\n      tag_206\n      tag_123\n      jump\t// in\n    tag_206:\n    tag_205:\n      swap1\n      0x00\n      mstore\n      keccak256(0x00, 0x20)\n      swap1\n      0x02\n      mul\n      add\n        /* \"Ghosper-NFT-Staking-MasterChef.sol\":31250:31281  unStakeFees[_index - 1].minDays */\n      0x00\n      add\n      sload\n        /* \"Ghosper-NFT-Staking-MasterChef.sol\":31239:31247  _minDays */\n      dup3\n        /* \"Ghosper-NFT-Staking-MasterChef.sol\":31239:31281  _minDays > unStakeFees[_index - 1].minDays */\n      gt\n        /* \"Ghosper-NFT-Staking-MasterChef.sol\":31231:31317  require(_minDays > unStakeFees[_index - 1].minDays, \"setUnStakeFee: minDays is error\") */\n      tag_208\n      jumpi\n      mload(0x40)\n      0x08c379a000000000000000000000000000000000000000000000000000000000\n      dup2\n      mstore\n      0x04\n      add\n      tag_209\n      swap1\n      tag_193\n      jump\t// in\n    tag_209:\n      mload(0x40)\n      dup1\n      swap2\n      sub\n      swap1\n      revert\n    tag_208:\n        /* \"Ghosper-NFT-Staking-MasterChef.sol\":31354:31365  unStakeFees */\n      0x01\n        /* \"Ghosper-NFT-Staking-MasterChef.sol\":31375:31376  1 */\n      dup1\n        /* \"Ghosper-NFT-Staking-MasterChef.sol\":31366:31372  _index */\n      dup5\n        /* \"Ghosper-NFT-Staking-MasterChef.sol\":31366:31376  _index - 1 */\n      tag_210\n      swap2\n      swap1\n      tag_202\n      jump\t// in\n    tag_210:\n        /* \"Ghosper-NFT-Staking-MasterChef.sol\":31354:31377  unStakeFees[_index - 1] */\n      dup2\n      sload\n      dup2\n      lt\n      tag_211\n      jumpi\n      tag_212\n      tag_123\n      jump\t// in\n    tag_212:\n    tag_211:\n      swap1\n      0x00\n      mstore\n      keccak256(0x00, 0x20)\n      swap1\n      0x02\n      mul\n      add\n        /* \"Ghosper-NFT-Staking-MasterChef.sol\":31354:31388  unStakeFees[_index - 1].feePercent */\n      0x01\n      add\n      sload\n        /* \"Ghosper-NFT-Staking-MasterChef.sol\":31340:31351  _feePercent */\n      dup2\n        /* \"Ghosper-NFT-Staking-MasterChef.sol\":31340:31388  _feePercent < unStakeFees[_index - 1].feePercent */\n      lt\n        /* \"Ghosper-NFT-Staking-MasterChef.sol\":31332:31427  require(_feePercent < unStakeFees[_index - 1].feePercent, \"setUnStakeFee: feePercent is error\") */\n      tag_214\n      jumpi\n      mload(0x40)\n      0x08c379a000000000000000000000000000000000000000000000000000000000\n      dup2\n      mstore\n      0x04\n      add\n      tag_215\n      swap1\n      tag_199\n      jump\t// in\n    tag_215:\n      mload(0x40)\n      dup1\n      swap2\n      sub\n      swap1\n      revert\n    tag_214:\n        /* \"Ghosper-NFT-Staking-MasterChef.sol\":31178:31766  if (_index == unStakeFees.length - 1) {\r... */\n      jump(tag_216)\n    tag_203:\n        /* \"Ghosper-NFT-Staking-MasterChef.sol\":31479:31490  unStakeFees */\n      0x01\n        /* \"Ghosper-NFT-Staking-MasterChef.sol\":31500:31501  1 */\n      dup1\n        /* \"Ghosper-NFT-Staking-MasterChef.sol\":31491:31497  _index */\n      dup5\n        /* \"Ghosper-NFT-Staking-MasterChef.sol\":31491:31501  _index - 1 */\n      tag_217\n      swap2\n      swap1\n      tag_202\n      jump\t// in\n    tag_217:\n        /* \"Ghosper-NFT-Staking-MasterChef.sol\":31479:31502  unStakeFees[_index - 1] */\n      dup2\n      sload\n      dup2\n      lt\n      tag_218\n      jumpi\n      tag_219\n      tag_123\n      jump\t// in\n    tag_219:\n    tag_218:\n      swap1\n      0x00\n      mstore\n      keccak256(0x00, 0x20)\n      swap1\n      0x02\n      mul\n      add\n        /* \"Ghosper-NFT-Staking-MasterChef.sol\":31479:31510  unStakeFees[_index - 1].minDays */\n      0x00\n      add\n      sload\n        /* \"Ghosper-NFT-Staking-MasterChef.sol\":31468:31476  _minDays */\n      dup3\n        /* \"Ghosper-NFT-Staking-MasterChef.sol\":31468:31510  _minDays > unStakeFees[_index - 1].minDays */\n      gt\n        /* \"Ghosper-NFT-Staking-MasterChef.sol\":31468:31556  _minDays > unStakeFees[_index - 1].minDays && _minDays < unStakeFees[_index + 1].minDays */\n      dup1\n      iszero\n      tag_221\n      jumpi\n      pop\n        /* \"Ghosper-NFT-Staking-MasterChef.sol\":31525:31536  unStakeFees */\n      0x01\n        /* \"Ghosper-NFT-Staking-MasterChef.sol\":31546:31547  1 */\n      dup1\n        /* \"Ghosper-NFT-Staking-MasterChef.sol\":31537:31543  _index */\n      dup5\n        /* \"Ghosper-NFT-Staking-MasterChef.sol\":31537:31547  _index + 1 */\n      tag_222\n      swap2\n      swap1\n      tag_131\n      jump\t// in\n    tag_222:\n        /* \"Ghosper-NFT-Staking-MasterChef.sol\":31525:31548  unStakeFees[_index + 1] */\n      dup2\n      sload\n      dup2\n      lt\n      tag_223\n      jumpi\n      tag_224\n      tag_123\n      jump\t// in\n    tag_224:\n    tag_223:\n      swap1\n      0x00\n      mstore\n      keccak256(0x00, 0x20)\n      swap1\n      0x02\n      mul\n      add\n        /* \"Ghosper-NFT-Staking-MasterChef.sol\":31525:31556  unStakeFees[_index + 1].minDays */\n      0x00\n      add\n      sload\n        /* \"Ghosper-NFT-Staking-MasterChef.sol\":31514:31522  _minDays */\n      dup3\n        /* \"Ghosper-NFT-Staking-MasterChef.sol\":31514:31556  _minDays < unStakeFees[_index + 1].minDays */\n      lt\n        /* \"Ghosper-NFT-Staking-MasterChef.sol\":31468:31556  _minDays > unStakeFees[_index - 1].minDays && _minDays < unStakeFees[_index + 1].minDays */\n    tag_221:\n        /* \"Ghosper-NFT-Staking-MasterChef.sol\":31460:31592  require(_minDays > unStakeFees[_index - 1].minDays && _minDays < unStakeFees[_index + 1].minDays, \"setUnStakeFee: minDays is error\") */\n      tag_226\n      jumpi\n      mload(0x40)\n      0x08c379a000000000000000000000000000000000000000000000000000000000\n      dup2\n      mstore\n      0x04\n      add\n      tag_227\n      swap1\n      tag_193\n      jump\t// in\n    tag_227:\n      mload(0x40)\n      dup1\n      swap2\n      sub\n      swap1\n      revert\n    tag_226:\n        /* \"Ghosper-NFT-Staking-MasterChef.sol\":31629:31640  unStakeFees */\n      0x01\n        /* \"Ghosper-NFT-Staking-MasterChef.sol\":31650:31651  1 */\n      dup1\n        /* \"Ghosper-NFT-Staking-MasterChef.sol\":31641:31647  _index */\n      dup5\n        /* \"Ghosper-NFT-Staking-MasterChef.sol\":31641:31651  _index - 1 */\n      tag_228\n      swap2\n      swap1\n      tag_202\n      jump\t// in\n    tag_228:\n        /* \"Ghosper-NFT-Staking-MasterChef.sol\":31629:31652  unStakeFees[_index - 1] */\n      dup2\n      sload\n      dup2\n      lt\n      tag_229\n      jumpi\n      tag_230\n      tag_123\n      jump\t// in\n    tag_230:\n    tag_229:\n      swap1\n      0x00\n      mstore\n      keccak256(0x00, 0x20)\n      swap1\n      0x02\n      mul\n      add\n        /* \"Ghosper-NFT-Staking-MasterChef.sol\":31629:31663  unStakeFees[_index - 1].feePercent */\n      0x01\n      add\n      sload\n        /* \"Ghosper-NFT-Staking-MasterChef.sol\":31615:31626  _feePercent */\n      dup2\n        /* \"Ghosper-NFT-Staking-MasterChef.sol\":31615:31663  _feePercent < unStakeFees[_index - 1].feePercent */\n      lt\n        /* \"Ghosper-NFT-Staking-MasterChef.sol\":31615:31715  _feePercent < unStakeFees[_index - 1].feePercent && _feePercent > unStakeFees[_index + 1].feePercent */\n      dup1\n      iszero\n      tag_232\n      jumpi\n      pop\n        /* \"Ghosper-NFT-Staking-MasterChef.sol\":31681:31692  unStakeFees */\n      0x01\n        /* \"Ghosper-NFT-Staking-MasterChef.sol\":31702:31703  1 */\n      dup1\n        /* \"Ghosper-NFT-Staking-MasterChef.sol\":31693:31699  _index */\n      dup5\n        /* \"Ghosper-NFT-Staking-MasterChef.sol\":31693:31703  _index + 1 */\n      tag_233\n      swap2\n      swap1\n      tag_131\n      jump\t// in\n    tag_233:\n        /* \"Ghosper-NFT-Staking-MasterChef.sol\":31681:31704  unStakeFees[_index + 1] */\n      dup2\n      sload\n      dup2\n      lt\n      tag_234\n      jumpi\n      tag_235\n      tag_123\n      jump\t// in\n    tag_235:\n    tag_234:\n      swap1\n      0x00\n      mstore\n      keccak256(0x00, 0x20)\n      swap1\n      0x02\n      mul\n      add\n        /* \"Ghosper-NFT-Staking-MasterChef.sol\":31681:31715  unStakeFees[_index + 1].feePercent */\n      0x01\n      add\n      sload\n        /* \"Ghosper-NFT-Staking-MasterChef.sol\":31667:31678  _feePercent */\n      dup2\n        /* \"Ghosper-NFT-Staking-MasterChef.sol\":31667:31715  _feePercent > unStakeFees[_index + 1].feePercent */\n      gt\n        /* \"Ghosper-NFT-Staking-MasterChef.sol\":31615:31715  _feePercent < unStakeFees[_index - 1].feePercent && _feePercent > unStakeFees[_index + 1].feePercent */\n    tag_232:\n        /* \"Ghosper-NFT-Staking-MasterChef.sol\":31607:31754  require(_feePercent < unStakeFees[_index - 1].feePercent && _feePercent > unStakeFees[_index + 1].feePercent, \"setUnStakeFee: feePercent is error\") */\n      tag_237\n      jumpi\n      mload(0x40)\n      0x08c379a000000000000000000000000000000000000000000000000000000000\n      dup2\n      mstore\n      0x04\n      add\n      tag_238\n      swap1\n      tag_199\n      jump\t// in\n    tag_238:\n      mload(0x40)\n      dup1\n      swap2\n      sub\n      swap1\n      revert\n    tag_237:\n        /* \"Ghosper-NFT-Staking-MasterChef.sol\":31178:31766  if (_index == unStakeFees.length - 1) {\r... */\n    tag_216:\n        /* \"Ghosper-NFT-Staking-MasterChef.sol\":30950:31766  if (_index == 0) {\r... */\n    tag_200:\n        /* \"Ghosper-NFT-Staking-MasterChef.sol\":31809:31820  _feePercent */\n      dup1\n        /* \"Ghosper-NFT-Staking-MasterChef.sol\":31776:31787  unStakeFees */\n      0x01\n        /* \"Ghosper-NFT-Staking-MasterChef.sol\":31788:31794  _index */\n      dup5\n        /* \"Ghosper-NFT-Staking-MasterChef.sol\":31776:31795  unStakeFees[_index] */\n      dup2\n      sload\n      dup2\n      lt\n      tag_239\n      jumpi\n      tag_240\n      tag_123\n      jump\t// in\n    tag_240:\n    tag_239:\n      swap1\n      0x00\n      mstore\n      keccak256(0x00, 0x20)\n      swap1\n      0x02\n      mul\n      add\n        /* \"Ghosper-NFT-Staking-MasterChef.sol\":31776:31806  unStakeFees[_index].feePercent */\n      0x01\n      add\n        /* \"Ghosper-NFT-Staking-MasterChef.sol\":31776:31820  unStakeFees[_index].feePercent = _feePercent */\n      dup2\n      swap1\n      sstore\n      pop\n        /* \"Ghosper-NFT-Staking-MasterChef.sol\":31861:31869  _minDays */\n      dup2\n        /* \"Ghosper-NFT-Staking-MasterChef.sol\":31831:31842  unStakeFees */\n      0x01\n        /* \"Ghosper-NFT-Staking-MasterChef.sol\":31843:31849  _index */\n      dup5\n        /* \"Ghosper-NFT-Staking-MasterChef.sol\":31831:31850  unStakeFees[_index] */\n      dup2\n      sload\n      dup2\n      lt\n      tag_242\n      jumpi\n      tag_243\n      tag_123\n      jump\t// in\n    tag_243:\n    tag_242:\n      swap1\n      0x00\n      mstore\n      keccak256(0x00, 0x20)\n      swap1\n      0x02\n      mul\n      add\n        /* \"Ghosper-NFT-Staking-MasterChef.sol\":31831:31858  unStakeFees[_index].minDays */\n      0x00\n      add\n        /* \"Ghosper-NFT-Staking-MasterChef.sol\":31831:31869  unStakeFees[_index].minDays = _minDays */\n      dup2\n      swap1\n      sstore\n      pop\n        /* \"Ghosper-NFT-Staking-MasterChef.sol\":31885:31929  SetUnStakeFee(_index, _minDays, _feePercent) */\n      0xc5b7ef59c45162d0f957af811d4ad5f8980e588a729fa3b80ebef5020e4c2725\n        /* \"Ghosper-NFT-Staking-MasterChef.sol\":31899:31905  _index */\n      dup4\n        /* \"Ghosper-NFT-Staking-MasterChef.sol\":31907:31915  _minDays */\n      dup4\n        /* \"Ghosper-NFT-Staking-MasterChef.sol\":31917:31928  _feePercent */\n      dup4\n        /* \"Ghosper-NFT-Staking-MasterChef.sol\":31885:31929  SetUnStakeFee(_index, _minDays, _feePercent) */\n      mload(0x40)\n      tag_245\n      swap4\n      swap3\n      swap2\n      swap1\n      tag_246\n      jump\t// in\n    tag_245:\n      mload(0x40)\n      dup1\n      swap2\n      sub\n      swap1\n      log1\n        /* \"Ghosper-NFT-Staking-MasterChef.sol\":30633:31937  function setUnStakeFee(uint256 _index, uint256 _minDays, uint256 _feePercent) external onlyOwner {\r... */\n      pop\n      pop\n      pop\n      jump\t// out\n        /* \"Ghosper-NFT-Staking-MasterChef.sol\":28828:28873  mapping (address => UserInfo) public userInfo */\n    tag_41:\n      mstore(0x20, 0x0b)\n      dup1\n      0x00\n      mstore\n      keccak256(0x00, 0x40)\n      0x00\n      swap2\n      pop\n      swap1\n      pop\n      dup1\n      0x00\n      add\n      sload\n      swap1\n      dup1\n      0x01\n      add\n      sload\n      swap1\n      dup1\n      0x02\n      add\n      sload\n      swap1\n      dup1\n      0x03\n      add\n      sload\n      swap1\n      pop\n      dup5\n      jump\t// out\n        /* \"Ghosper-NFT-Staking-MasterChef.sol\":28414:28447  IBEP20 public immutable ghspToken */\n    tag_45:\n      immutable(\"0x2b788c69c84726cb61a0641c648d01bc1bc6568bcab92e0e8975f165cd12fe81\")\n      dup2\n      jump\t// out\n        /* \"Ghosper-NFT-Staking-MasterChef.sol\":28336:28367  UnStakeFee[] public unStakeFees */\n    tag_51:\n      0x01\n      dup2\n      dup2\n      sload\n      dup2\n      lt\n      tag_247\n      jumpi\n      0x00\n      dup1\n      revert\n    tag_247:\n      swap1\n      0x00\n      mstore\n      keccak256(0x00, 0x20)\n      swap1\n      0x02\n      mul\n      add\n      0x00\n      swap2\n      pop\n      swap1\n      pop\n      dup1\n      0x00\n      add\n      sload\n      swap1\n      dup1\n      0x01\n      add\n      sload\n      swap1\n      pop\n      dup3\n      jump\t// out\n        /* \"Ghosper-NFT-Staking-MasterChef.sol\":33912:34157  function depositReward(uint256 _amount) external onlyOwner {\r... */\n    tag_56:\n        /* \"Ghosper-NFT-Staking-MasterChef.sol\":5142:5154  _msgSender() */\n      tag_250\n        /* \"Ghosper-NFT-Staking-MasterChef.sol\":5142:5152  _msgSender */\n      tag_172\n        /* \"Ghosper-NFT-Staking-MasterChef.sol\":5142:5154  _msgSender() */\n      jump\t// in\n    tag_250:\n        /* \"Ghosper-NFT-Staking-MasterChef.sol\":5131:5154  owner() == _msgSender() */\n      0xffffffffffffffffffffffffffffffffffffffff\n      and\n        /* \"Ghosper-NFT-Staking-MasterChef.sol\":5131:5138  owner() */\n      tag_251\n        /* \"Ghosper-NFT-Staking-MasterChef.sol\":5131:5136  owner */\n      tag_82\n        /* \"Ghosper-NFT-Staking-MasterChef.sol\":5131:5138  owner() */\n      jump\t// in\n    tag_251:\n        /* \"Ghosper-NFT-Staking-MasterChef.sol\":5131:5154  owner() == _msgSender() */\n      0xffffffffffffffffffffffffffffffffffffffff\n      and\n      eq\n        /* \"Ghosper-NFT-Staking-MasterChef.sol\":5123:5191  require(owner() == _msgSender(), \"Ownable: caller is not the owner\") */\n      tag_252\n      jumpi\n      mload(0x40)\n      0x08c379a000000000000000000000000000000000000000000000000000000000\n      dup2\n      mstore\n      0x04\n      add\n      tag_253\n      swap1\n      tag_176\n      jump\t// in\n    tag_253:\n      mload(0x40)\n      dup1\n      swap2\n      sub\n      swap1\n      revert\n    tag_252:\n        /* \"Ghosper-NFT-Staking-MasterChef.sol\":33982:34044  ghspToken.safeTransferFrom(msg.sender, address(this), _amount) */\n      tag_255\n        /* \"Ghosper-NFT-Staking-MasterChef.sol\":34009:34019  msg.sender */\n      caller\n        /* \"Ghosper-NFT-Staking-MasterChef.sol\":34029:34033  this */\n      address\n        /* \"Ghosper-NFT-Staking-MasterChef.sol\":34036:34043  _amount */\n      dup4\n        /* \"Ghosper-NFT-Staking-MasterChef.sol\":33982:33991  ghspToken */\n      immutable(\"0x2b788c69c84726cb61a0641c648d01bc1bc6568bcab92e0e8975f165cd12fe81\")\n        /* \"Ghosper-NFT-Staking-MasterChef.sol\":33982:34008  ghspToken.safeTransferFrom */\n      0xffffffffffffffffffffffffffffffffffffffff\n      and\n      tag_256\n      swap1\n        /* \"Ghosper-NFT-Staking-MasterChef.sol\":33982:34044  ghspToken.safeTransferFrom(msg.sender, address(this), _amount) */\n      swap4\n      swap3\n      swap2\n      swap1\n      0xffffffff\n      and\n      jump\t// in\n    tag_255:\n        /* \"Ghosper-NFT-Staking-MasterChef.sol\":34074:34084  msg.sender */\n      caller\n        /* \"Ghosper-NFT-Staking-MasterChef.sol\":34060:34094  DepositReward(msg.sender, _amount) */\n      0xffffffffffffffffffffffffffffffffffffffff\n      and\n      0x4f7fd5c9e17300a4800fd572ea53fc291e2ee7470d73346d16b357faee4e7210\n        /* \"Ghosper-NFT-Staking-MasterChef.sol\":34086:34093  _amount */\n      dup3\n        /* \"Ghosper-NFT-Staking-MasterChef.sol\":34060:34094  DepositReward(msg.sender, _amount) */\n      mload(0x40)\n      tag_257\n      swap2\n      swap1\n      tag_64\n      jump\t// in\n    tag_257:\n      mload(0x40)\n      dup1\n      swap2\n      sub\n      swap1\n      log2\n        /* \"Ghosper-NFT-Staking-MasterChef.sol\":34122:34149  _rewardBalance.add(_amount) */\n      tag_258\n        /* \"Ghosper-NFT-Staking-MasterChef.sol\":34141:34148  _amount */\n      dup2\n        /* \"Ghosper-NFT-Staking-MasterChef.sol\":34122:34136  _rewardBalance */\n      sload(0x08)\n        /* \"Ghosper-NFT-Staking-MasterChef.sol\":34122:34140  _rewardBalance.add */\n      tag_152\n      swap1\n        /* \"Ghosper-NFT-Staking-MasterChef.sol\":34122:34149  _rewardBalance.add(_amount) */\n      swap2\n      swap1\n      0xffffffff\n      and\n      jump\t// in\n    tag_258:\n        /* \"Ghosper-NFT-Staking-MasterChef.sol\":34105:34119  _rewardBalance */\n      0x08\n        /* \"Ghosper-NFT-Staking-MasterChef.sol\":34105:34149  _rewardBalance = _rewardBalance.add(_amount) */\n      dup2\n      swap1\n      sstore\n      pop\n        /* \"Ghosper-NFT-Staking-MasterChef.sol\":33912:34157  function depositReward(uint256 _amount) external onlyOwner {\r... */\n      pop\n      jump\t// out\n        /* \"Ghosper-NFT-Staking-MasterChef.sol\":31945:32641  function addUnStakeFee(uint256 _minDays, uint256 _feePercent) external onlyOwner {\r... */\n    tag_60:\n        /* \"Ghosper-NFT-Staking-MasterChef.sol\":5142:5154  _msgSender() */\n      tag_260\n        /* \"Ghosper-NFT-Staking-MasterChef.sol\":5142:5152  _msgSender */\n      tag_172\n        /* \"Ghosper-NFT-Staking-MasterChef.sol\":5142:5154  _msgSender() */\n      jump\t// in\n    tag_260:\n        /* \"Ghosper-NFT-Staking-MasterChef.sol\":5131:5154  owner() == _msgSender() */\n      0xffffffffffffffffffffffffffffffffffffffff\n      and\n        /* \"Ghosper-NFT-Staking-MasterChef.sol\":5131:5138  owner() */\n      tag_261\n        /* \"Ghosper-NFT-Staking-MasterChef.sol\":5131:5136  owner */\n      tag_82\n        /* \"Ghosper-NFT-Staking-MasterChef.sol\":5131:5138  owner() */\n      jump\t// in\n    tag_261:\n        /* \"Ghosper-NFT-Staking-MasterChef.sol\":5131:5154  owner() == _msgSender() */\n      0xffffffffffffffffffffffffffffffffffffffff\n      and\n      eq\n        /* \"Ghosper-NFT-Staking-MasterChef.sol\":5123:5191  require(owner() == _msgSender(), \"Ownable: caller is not the owner\") */\n      tag_262\n      jumpi\n      mload(0x40)\n      0x08c379a000000000000000000000000000000000000000000000000000000000\n      dup2\n      mstore\n      0x04\n      add\n      tag_263\n      swap1\n      tag_176\n      jump\t// in\n    tag_263:\n      mload(0x40)\n      dup1\n      swap2\n      sub\n      swap1\n      revert\n    tag_262:\n        /* \"Ghosper-NFT-Staking-MasterChef.sol\":32056:32057  0 */\n      0x00\n        /* \"Ghosper-NFT-Staking-MasterChef.sol\":32045:32053  _minDays */\n      dup3\n        /* \"Ghosper-NFT-Staking-MasterChef.sol\":32045:32057  _minDays > 0 */\n      gt\n        /* \"Ghosper-NFT-Staking-MasterChef.sol\":32037:32089  require(_minDays > 0, \"addUnStakeFee: minDays is 0\") */\n      tag_265\n      jumpi\n      mload(0x40)\n      0x08c379a000000000000000000000000000000000000000000000000000000000\n      dup2\n      mstore\n      0x04\n      add\n      tag_266\n      swap1\n      tag_267\n      jump\t// in\n    tag_266:\n      mload(0x40)\n      dup1\n      swap2\n      sub\n      swap1\n      revert\n    tag_265:\n        /* \"Ghosper-NFT-Staking-MasterChef.sol\":32123:32125  40 */\n      0x28\n        /* \"Ghosper-NFT-Staking-MasterChef.sol\":32108:32119  _feePercent */\n      dup2\n        /* \"Ghosper-NFT-Staking-MasterChef.sol\":32108:32125  _feePercent <= 40 */\n      gt\n      iszero\n        /* \"Ghosper-NFT-Staking-MasterChef.sol\":32100:32160  require(_feePercent <= 40, \"addUnStakeFee: feePercent > 40\") */\n      tag_268\n      jumpi\n      mload(0x40)\n      0x08c379a000000000000000000000000000000000000000000000000000000000\n      dup2\n      mstore\n      0x04\n      add\n      tag_269\n      swap1\n      tag_270\n      jump\t// in\n    tag_269:\n      mload(0x40)\n      dup1\n      swap2\n      sub\n      swap1\n      revert\n    tag_268:\n        /* \"Ghosper-NFT-Staking-MasterChef.sol\":32190:32201  unStakeFees */\n      0x01\n        /* \"Ghosper-NFT-Staking-MasterChef.sol\":32223:32224  1 */\n      dup1\n        /* \"Ghosper-NFT-Staking-MasterChef.sol\":32202:32213  unStakeFees */\n      dup1\n        /* \"Ghosper-NFT-Staking-MasterChef.sol\":32202:32220  unStakeFees.length */\n      dup1\n      sload\n      swap1\n      pop\n        /* \"Ghosper-NFT-Staking-MasterChef.sol\":32202:32224  unStakeFees.length - 1 */\n      tag_271\n      swap2\n      swap1\n      tag_202\n      jump\t// in\n    tag_271:\n        /* \"Ghosper-NFT-Staking-MasterChef.sol\":32190:32225  unStakeFees[unStakeFees.length - 1] */\n      dup2\n      sload\n      dup2\n      lt\n      tag_272\n      jumpi\n      tag_273\n      tag_123\n      jump\t// in\n    tag_273:\n    tag_272:\n      swap1\n      0x00\n      mstore\n      keccak256(0x00, 0x20)\n      swap1\n      0x02\n      mul\n      add\n        /* \"Ghosper-NFT-Staking-MasterChef.sol\":32190:32233  unStakeFees[unStakeFees.length - 1].minDays */\n      0x00\n      add\n      sload\n        /* \"Ghosper-NFT-Staking-MasterChef.sol\":32179:32187  _minDays */\n      dup3\n        /* \"Ghosper-NFT-Staking-MasterChef.sol\":32179:32233  _minDays > unStakeFees[unStakeFees.length - 1].minDays */\n      gt\n        /* \"Ghosper-NFT-Staking-MasterChef.sol\":32171:32269  require(_minDays > unStakeFees[unStakeFees.length - 1].minDays, \"addUnStakeFee: minDays is error\") */\n      tag_275\n      jumpi\n      mload(0x40)\n      0x08c379a000000000000000000000000000000000000000000000000000000000\n      dup2\n      mstore\n      0x04\n      add\n      tag_276\n      swap1\n      tag_277\n      jump\t// in\n    tag_276:\n      mload(0x40)\n      dup1\n      swap2\n      sub\n      swap1\n      revert\n    tag_275:\n        /* \"Ghosper-NFT-Staking-MasterChef.sol\":32302:32313  unStakeFees */\n      0x01\n        /* \"Ghosper-NFT-Staking-MasterChef.sol\":32335:32336  1 */\n      dup1\n        /* \"Ghosper-NFT-Staking-MasterChef.sol\":32314:32325  unStakeFees */\n      dup1\n        /* \"Ghosper-NFT-Staking-MasterChef.sol\":32314:32332  unStakeFees.length */\n      dup1\n      sload\n      swap1\n      pop\n        /* \"Ghosper-NFT-Staking-MasterChef.sol\":32314:32336  unStakeFees.length - 1 */\n      tag_278\n      swap2\n      swap1\n      tag_202\n      jump\t// in\n    tag_278:\n        /* \"Ghosper-NFT-Staking-MasterChef.sol\":32302:32337  unStakeFees[unStakeFees.length - 1] */\n      dup2\n      sload\n      dup2\n      lt\n      tag_279\n      jumpi\n      tag_280\n      tag_123\n      jump\t// in\n    tag_280:\n    tag_279:\n      swap1\n      0x00\n      mstore\n      keccak256(0x00, 0x20)\n      swap1\n      0x02\n      mul\n      add\n        /* \"Ghosper-NFT-Staking-MasterChef.sol\":32302:32348  unStakeFees[unStakeFees.length - 1].feePercent */\n      0x01\n      add\n      sload\n        /* \"Ghosper-NFT-Staking-MasterChef.sol\":32288:32299  _feePercent */\n      dup2\n        /* \"Ghosper-NFT-Staking-MasterChef.sol\":32288:32348  _feePercent < unStakeFees[unStakeFees.length - 1].feePercent */\n      lt\n        /* \"Ghosper-NFT-Staking-MasterChef.sol\":32280:32387  require(_feePercent < unStakeFees[unStakeFees.length - 1].feePercent, \"addUnStakeFee: feePercent is error\") */\n      tag_282\n      jumpi\n      mload(0x40)\n      0x08c379a000000000000000000000000000000000000000000000000000000000\n      dup2\n      mstore\n      0x04\n      add\n      tag_283\n      swap1\n      tag_284\n      jump\t// in\n    tag_283:\n      mload(0x40)\n      dup1\n      swap2\n      sub\n      swap1\n      revert\n    tag_282:\n        /* \"Ghosper-NFT-Staking-MasterChef.sol\":32398:32426  UnStakeFee memory unStakeFee */\n      0x00\n        /* \"Ghosper-NFT-Staking-MasterChef.sol\":32429:32522  UnStakeFee({\r... */\n      mload(0x40)\n      dup1\n      0x40\n      add\n      0x40\n      mstore\n      dup1\n        /* \"Ghosper-NFT-Staking-MasterChef.sol\":32464:32472  _minDays */\n      dup5\n        /* \"Ghosper-NFT-Staking-MasterChef.sol\":32429:32522  UnStakeFee({\r... */\n      dup2\n      mstore\n      0x20\n      add\n        /* \"Ghosper-NFT-Staking-MasterChef.sol\":32499:32510  _feePercent */\n      dup4\n        /* \"Ghosper-NFT-Staking-MasterChef.sol\":32429:32522  UnStakeFee({\r... */\n      dup2\n      mstore\n      pop\n        /* \"Ghosper-NFT-Staking-MasterChef.sol\":32398:32522  UnStakeFee memory unStakeFee = UnStakeFee({\r... */\n      swap1\n      pop\n        /* \"Ghosper-NFT-Staking-MasterChef.sol\":32533:32544  unStakeFees */\n      0x01\n        /* \"Ghosper-NFT-Staking-MasterChef.sol\":32550:32560  unStakeFee */\n      dup2\n        /* \"Ghosper-NFT-Staking-MasterChef.sol\":32533:32561  unStakeFees.push(unStakeFee) */\n      swap1\n      dup1\n      0x01\n      dup2\n      sload\n      add\n      dup1\n      dup3\n      sstore\n      dup1\n      swap2\n      pop\n      pop\n      0x01\n      swap1\n      sub\n      swap1\n      0x00\n      mstore\n      keccak256(0x00, 0x20)\n      swap1\n      0x02\n      mul\n      add\n      0x00\n      swap1\n      swap2\n      swap1\n      swap2\n      swap1\n      swap2\n      pop\n      0x00\n      dup3\n      add\n      mload\n      dup2\n      0x00\n      add\n      sstore\n      0x20\n      dup3\n      add\n      mload\n      dup2\n      0x01\n      add\n      sstore\n      pop\n      pop\n        /* \"Ghosper-NFT-Staking-MasterChef.sol\":32577:32633  AddUnStakeFee(unStakeFees.length, _minDays, _feePercent) */\n      0x657ca150be22533e612098a9cdc78b9252aa1c21d424fb5011c5ceccc0447b50\n        /* \"Ghosper-NFT-Staking-MasterChef.sol\":32591:32602  unStakeFees */\n      0x01\n        /* \"Ghosper-NFT-Staking-MasterChef.sol\":32591:32609  unStakeFees.length */\n      dup1\n      sload\n      swap1\n      pop\n        /* \"Ghosper-NFT-Staking-MasterChef.sol\":32611:32619  _minDays */\n      dup5\n        /* \"Ghosper-NFT-Staking-MasterChef.sol\":32621:32632  _feePercent */\n      dup5\n        /* \"Ghosper-NFT-Staking-MasterChef.sol\":32577:32633  AddUnStakeFee(unStakeFees.length, _minDays, _feePercent) */\n      mload(0x40)\n      tag_286\n      swap4\n      swap3\n      swap2\n      swap1\n      tag_246\n      jump\t// in\n    tag_286:\n      mload(0x40)\n      dup1\n      swap2\n      sub\n      swap1\n      log1\n        /* \"Ghosper-NFT-Staking-MasterChef.sol\":32026:32641  {\r... */\n      pop\n        /* \"Ghosper-NFT-Staking-MasterChef.sol\":31945:32641  function addUnStakeFee(uint256 _minDays, uint256 _feePercent) external onlyOwner {\r... */\n      pop\n      pop\n      jump\t// out\n        /* \"Ghosper-NFT-Staking-MasterChef.sol\":28491:28521  uint256 public accGHSPPerShare */\n    tag_62:\n      sload(0x03)\n      dup2\n      jump\t// out\n        /* \"Ghosper-NFT-Staking-MasterChef.sol\":38295:38947  function harvest() external {\r... */\n    tag_66:\n        /* \"Ghosper-NFT-Staking-MasterChef.sol\":38334:38354  uint256 rewardAmount */\n      0x00\n        /* \"Ghosper-NFT-Staking-MasterChef.sol\":38357:38380  _getPending(msg.sender) */\n      tag_288\n        /* \"Ghosper-NFT-Staking-MasterChef.sol\":38369:38379  msg.sender */\n      caller\n        /* \"Ghosper-NFT-Staking-MasterChef.sol\":38357:38368  _getPending */\n      tag_289\n        /* \"Ghosper-NFT-Staking-MasterChef.sol\":38357:38380  _getPending(msg.sender) */\n      jump\t// in\n    tag_288:\n        /* \"Ghosper-NFT-Staking-MasterChef.sol\":38334:38380  uint256 rewardAmount = _getPending(msg.sender) */\n      swap1\n      pop\n        /* \"Ghosper-NFT-Staking-MasterChef.sol\":38391:38412  UserInfo storage user */\n      0x00\n        /* \"Ghosper-NFT-Staking-MasterChef.sol\":38415:38423  userInfo */\n      0x0b\n        /* \"Ghosper-NFT-Staking-MasterChef.sol\":38415:38435  userInfo[msg.sender] */\n      0x00\n        /* \"Ghosper-NFT-Staking-MasterChef.sol\":38424:38434  msg.sender */\n      caller\n        /* \"Ghosper-NFT-Staking-MasterChef.sol\":38415:38435  userInfo[msg.sender] */\n      0xffffffffffffffffffffffffffffffffffffffff\n      and\n      0xffffffffffffffffffffffffffffffffffffffff\n      and\n      dup2\n      mstore\n      0x20\n      add\n      swap1\n      dup2\n      mstore\n      0x20\n      add\n      0x00\n      keccak256\n        /* \"Ghosper-NFT-Staking-MasterChef.sol\":38391:38435  UserInfo storage user = userInfo[msg.sender] */\n      swap1\n      pop\n        /* \"Ghosper-NFT-Staking-MasterChef.sol\":38446:38465  uint256 _harvestFee */\n      0x00\n        /* \"Ghosper-NFT-Staking-MasterChef.sol\":38468:38505  rewardAmount.mul(harvestFee).div(100) */\n      tag_290\n        /* \"Ghosper-NFT-Staking-MasterChef.sol\":38501:38504  100 */\n      0x64\n        /* \"Ghosper-NFT-Staking-MasterChef.sol\":38468:38496  rewardAmount.mul(harvestFee) */\n      tag_291\n        /* \"Ghosper-NFT-Staking-MasterChef.sol\":38485:38495  harvestFee */\n      sload(0x06)\n        /* \"Ghosper-NFT-Staking-MasterChef.sol\":38468:38480  rewardAmount */\n      dup7\n        /* \"Ghosper-NFT-Staking-MasterChef.sol\":38468:38484  rewardAmount.mul */\n      tag_148\n      swap1\n        /* \"Ghosper-NFT-Staking-MasterChef.sol\":38468:38496  rewardAmount.mul(harvestFee) */\n      swap2\n      swap1\n      0xffffffff\n      and\n      jump\t// in\n    tag_291:\n        /* \"Ghosper-NFT-Staking-MasterChef.sol\":38468:38500  rewardAmount.mul(harvestFee).div */\n      tag_149\n      swap1\n        /* \"Ghosper-NFT-Staking-MasterChef.sol\":38468:38505  rewardAmount.mul(harvestFee).div(100) */\n      swap2\n      swap1\n      0xffffffff\n      and\n      jump\t// in\n    tag_290:\n        /* \"Ghosper-NFT-Staking-MasterChef.sol\":38446:38505  uint256 _harvestFee = rewardAmount.mul(harvestFee).div(100) */\n      swap1\n      pop\n        /* \"Ghosper-NFT-Staking-MasterChef.sol\":38516:38530  uint256 amount */\n      0x00\n        /* \"Ghosper-NFT-Staking-MasterChef.sol\":38548:38559  _harvestFee */\n      dup2\n        /* \"Ghosper-NFT-Staking-MasterChef.sol\":38533:38545  rewardAmount */\n      dup5\n        /* \"Ghosper-NFT-Staking-MasterChef.sol\":38533:38559  rewardAmount - _harvestFee */\n      tag_292\n      swap2\n      swap1\n      tag_202\n      jump\t// in\n    tag_292:\n        /* \"Ghosper-NFT-Staking-MasterChef.sol\":38516:38559  uint256 amount = rewardAmount - _harvestFee */\n      swap1\n      pop\n        /* \"Ghosper-NFT-Staking-MasterChef.sol\":38611:38617  amount */\n      dup1\n        /* \"Ghosper-NFT-Staking-MasterChef.sol\":38574:38583  ghspToken */\n      immutable(\"0x2b788c69c84726cb61a0641c648d01bc1bc6568bcab92e0e8975f165cd12fe81\")\n        /* \"Ghosper-NFT-Staking-MasterChef.sol\":38574:38593  ghspToken.balanceOf */\n      0xffffffffffffffffffffffffffffffffffffffff\n      and\n      0x70a08231\n        /* \"Ghosper-NFT-Staking-MasterChef.sol\":38602:38606  this */\n      address\n        /* \"Ghosper-NFT-Staking-MasterChef.sol\":38574:38608  ghspToken.balanceOf(address(this)) */\n      mload(0x40)\n      dup3\n      0xffffffff\n      and\n      0xe0\n      shl\n      dup2\n      mstore\n      0x04\n      add\n      tag_293\n      swap2\n      swap1\n      tag_84\n      jump\t// in\n    tag_293:\n      0x20\n      mload(0x40)\n      dup1\n      dup4\n      sub\n      dup2\n      dup7\n      dup1\n      extcodesize\n      iszero\n      dup1\n      iszero\n      tag_294\n      jumpi\n      0x00\n      dup1\n      revert\n    tag_294:\n      pop\n      gas\n      staticcall\n      iszero\n      dup1\n      iszero\n      tag_296\n      jumpi\n      returndatasize\n      0x00\n      dup1\n      returndatacopy\n      revert(0x00, returndatasize)\n    tag_296:\n      pop\n      pop\n      pop\n      pop\n      mload(0x40)\n      returndatasize\n      not(0x1f)\n      0x1f\n      dup3\n      add\n      and\n      dup3\n      add\n      dup1\n      0x40\n      mstore\n      pop\n      dup2\n      add\n      swap1\n      tag_297\n      swap2\n      swap1\n      tag_298\n      jump\t// in\n    tag_297:\n        /* \"Ghosper-NFT-Staking-MasterChef.sol\":38574:38617  ghspToken.balanceOf(address(this)) < amount */\n      lt\n        /* \"Ghosper-NFT-Staking-MasterChef.sol\":38570:38689  if (ghspToken.balanceOf(address(this)) < amount) {\r... */\n      iszero\n      tag_299\n      jumpi\n        /* \"Ghosper-NFT-Staking-MasterChef.sol\":38643:38652  ghspToken */\n      immutable(\"0x2b788c69c84726cb61a0641c648d01bc1bc6568bcab92e0e8975f165cd12fe81\")\n        /* \"Ghosper-NFT-Staking-MasterChef.sol\":38643:38662  ghspToken.balanceOf */\n      0xffffffffffffffffffffffffffffffffffffffff\n      and\n      0x70a08231\n        /* \"Ghosper-NFT-Staking-MasterChef.sol\":38671:38675  this */\n      address\n        /* \"Ghosper-NFT-Staking-MasterChef.sol\":38643:38677  ghspToken.balanceOf(address(this)) */\n      mload(0x40)\n      dup3\n      0xffffffff\n      and\n      0xe0\n      shl\n      dup2\n      mstore\n      0x04\n      add\n      tag_300\n      swap2\n      swap1\n      tag_84\n      jump\t// in\n    tag_300:\n      0x20\n      mload(0x40)\n      dup1\n      dup4\n      sub\n      dup2\n      dup7\n      dup1\n      extcodesize\n      iszero\n      dup1\n      iszero\n      tag_301\n      jumpi\n      0x00\n      dup1\n      revert\n    tag_301:\n      pop\n      gas\n      staticcall\n      iszero\n      dup1\n      iszero\n      tag_303\n      jumpi\n      returndatasize\n      0x00\n      dup1\n      returndatacopy\n      revert(0x00, returndatasize)\n    tag_303:\n      pop\n      pop\n      pop\n      pop\n      mload(0x40)\n      returndatasize\n      not(0x1f)\n      0x1f\n      dup3\n      add\n      and\n      dup3\n      add\n      dup1\n      0x40\n      mstore\n      pop\n      dup2\n      add\n      swap1\n      tag_304\n      swap2\n      swap1\n      tag_298\n      jump\t// in\n    tag_304:\n        /* \"Ghosper-NFT-Staking-MasterChef.sol\":38634:38677  amount = ghspToken.balanceOf(address(this)) */\n      swap1\n      pop\n        /* \"Ghosper-NFT-Staking-MasterChef.sol\":38570:38689  if (ghspToken.balanceOf(address(this)) < amount) {\r... */\n    tag_299:\n        /* \"Ghosper-NFT-Staking-MasterChef.sol\":38699:38741  ghspToken.safeTransfer(msg.sender, amount) */\n      tag_305\n        /* \"Ghosper-NFT-Staking-MasterChef.sol\":38722:38732  msg.sender */\n      caller\n        /* \"Ghosper-NFT-Staking-MasterChef.sol\":38734:38740  amount */\n      dup3\n        /* \"Ghosper-NFT-Staking-MasterChef.sol\":38699:38708  ghspToken */\n      immutable(\"0x2b788c69c84726cb61a0641c648d01bc1bc6568bcab92e0e8975f165cd12fe81\")\n        /* \"Ghosper-NFT-Staking-MasterChef.sol\":38699:38721  ghspToken.safeTransfer */\n      0xffffffffffffffffffffffffffffffffffffffff\n      and\n      tag_306\n      swap1\n        /* \"Ghosper-NFT-Staking-MasterChef.sol\":38699:38741  ghspToken.safeTransfer(msg.sender, amount) */\n      swap3\n      swap2\n      swap1\n      0xffffffff\n      and\n      jump\t// in\n    tag_305:\n        /* \"Ghosper-NFT-Staking-MasterChef.sol\":38795:38806  _harvestFee */\n      dup2\n        /* \"Ghosper-NFT-Staking-MasterChef.sol\":38758:38767  ghspToken */\n      immutable(\"0x2b788c69c84726cb61a0641c648d01bc1bc6568bcab92e0e8975f165cd12fe81\")\n        /* \"Ghosper-NFT-Staking-MasterChef.sol\":38758:38777  ghspToken.balanceOf */\n      0xffffffffffffffffffffffffffffffffffffffff\n      and\n      0x70a08231\n        /* \"Ghosper-NFT-Staking-MasterChef.sol\":38786:38790  this */\n      address\n        /* \"Ghosper-NFT-Staking-MasterChef.sol\":38758:38792  ghspToken.balanceOf(address(this)) */\n      mload(0x40)\n      dup3\n      0xffffffff\n      and\n      0xe0\n      shl\n      dup2\n      mstore\n      0x04\n      add\n      tag_307\n      swap2\n      swap1\n      tag_84\n      jump\t// in\n    tag_307:\n      0x20\n      mload(0x40)\n      dup1\n      dup4\n      sub\n      dup2\n      dup7\n      dup1\n      extcodesize\n      iszero\n      dup1\n      iszero\n      tag_308\n      jumpi\n      0x00\n      dup1\n      revert\n    tag_308:\n      pop\n      gas\n      staticcall\n      iszero\n      dup1\n      iszero\n      tag_310\n      jumpi\n      returndatasize\n      0x00\n      dup1\n      returndatacopy\n      revert(0x00, returndatasize)\n    tag_310:\n      pop\n      pop\n      pop\n      pop\n      mload(0x40)\n      returndatasize\n      not(0x1f)\n      0x1f\n      dup3\n      add\n      and\n      dup3\n      add\n      dup1\n      0x40\n      mstore\n      pop\n      dup2\n      add\n      swap1\n      tag_311\n      swap2\n      swap1\n      tag_298\n      jump\t// in\n    tag_311:\n        /* \"Ghosper-NFT-Staking-MasterChef.sol\":38758:38806  ghspToken.balanceOf(address(this)) < _harvestFee */\n      lt\n        /* \"Ghosper-NFT-Staking-MasterChef.sol\":38754:38883  if (ghspToken.balanceOf(address(this)) < _harvestFee) {\r... */\n      iszero\n      tag_312\n      jumpi\n        /* \"Ghosper-NFT-Staking-MasterChef.sol\":38837:38846  ghspToken */\n      immutable(\"0x2b788c69c84726cb61a0641c648d01bc1bc6568bcab92e0e8975f165cd12fe81\")\n        /* \"Ghosper-NFT-Staking-MasterChef.sol\":38837:38856  ghspToken.balanceOf */\n      0xffffffffffffffffffffffffffffffffffffffff\n      and\n      0x70a08231\n        /* \"Ghosper-NFT-Staking-MasterChef.sol\":38865:38869  this */\n      address\n        /* \"Ghosper-NFT-Staking-MasterChef.sol\":38837:38871  ghspToken.balanceOf(address(this)) */\n      mload(0x40)\n      dup3\n      0xffffffff\n      and\n      0xe0\n      shl\n      dup2\n      mstore\n      0x04\n      add\n      tag_313\n      swap2\n      swap1\n      tag_84\n      jump\t// in\n    tag_313:\n      0x20\n      mload(0x40)\n      dup1\n      dup4\n      sub\n      dup2\n      dup7\n      dup1\n      extcodesize\n      iszero\n      dup1\n      iszero\n      tag_314\n      jumpi\n      0x00\n      dup1\n      revert\n    tag_314:\n      pop\n      gas\n      staticcall\n      iszero\n      dup1\n      iszero\n      tag_316\n      jumpi\n      returndatasize\n      0x00\n      dup1\n      returndatacopy\n      revert(0x00, returndatasize)\n    tag_316:\n      pop\n      pop\n      pop\n      pop\n      mload(0x40)\n      returndatasize\n      not(0x1f)\n      0x1f\n      dup3\n      add\n      and\n      dup3\n      add\n      dup1\n      0x40\n      mstore\n      pop\n      dup2\n      add\n      swap1\n      tag_317\n      swap2\n      swap1\n      tag_298\n      jump\t// in\n    tag_317:\n        /* \"Ghosper-NFT-Staking-MasterChef.sol\":38823:38871  _harvestFee = ghspToken.balanceOf(address(this)) */\n      swap2\n      pop\n        /* \"Ghosper-NFT-Staking-MasterChef.sol\":38754:38883  if (ghspToken.balanceOf(address(this)) < _harvestFee) {\r... */\n    tag_312:\n        /* \"Ghosper-NFT-Staking-MasterChef.sol\":38893:38939  ghspToken.safeTransfer(feeWallet, _harvestFee) */\n      tag_318\n        /* \"Ghosper-NFT-Staking-MasterChef.sol\":38916:38925  feeWallet */\n      0x05\n      0x00\n      swap1\n      sload\n      swap1\n      0x0100\n      exp\n      swap1\n      div\n      0xffffffffffffffffffffffffffffffffffffffff\n      and\n        /* \"Ghosper-NFT-Staking-MasterChef.sol\":38927:38938  _harvestFee */\n      dup4\n        /* \"Ghosper-NFT-Staking-MasterChef.sol\":38893:38902  ghspToken */\n      immutable(\"0x2b788c69c84726cb61a0641c648d01bc1bc6568bcab92e0e8975f165cd12fe81\")\n        /* \"Ghosper-NFT-Staking-MasterChef.sol\":38893:38915  ghspToken.safeTransfer */\n      0xffffffffffffffffffffffffffffffffffffffff\n      and\n      tag_306\n      swap1\n        /* \"Ghosper-NFT-Staking-MasterChef.sol\":38893:38939  ghspToken.safeTransfer(feeWallet, _harvestFee) */\n      swap3\n      swap2\n      swap1\n      0xffffffff\n      and\n      jump\t// in\n    tag_318:\n        /* \"Ghosper-NFT-Staking-MasterChef.sol\":38323:38947  {\r... */\n      pop\n      pop\n      pop\n      pop\n        /* \"Ghosper-NFT-Staking-MasterChef.sol\":38295:38947  function harvest() external {\r... */\n      jump\t// out\n        /* \"Ghosper-NFT-Staking-MasterChef.sol\":28627:28659  uint256 public totalStakedAmount */\n    tag_68:\n      sload(0x07)\n      dup2\n      jump\t// out\n        /* \"Ghosper-NFT-Staking-MasterChef.sol\":33499:33904  function getRewardBalance() external view returns (uint256) {\r... */\n    tag_71:\n        /* \"Ghosper-NFT-Staking-MasterChef.sol\":33550:33557  uint256 */\n      0x00\n        /* \"Ghosper-NFT-Staking-MasterChef.sol\":33589:33604  lastRewardBlock */\n      sload(0x02)\n        /* \"Ghosper-NFT-Staking-MasterChef.sol\":33574:33586  block.number */\n      number\n        /* \"Ghosper-NFT-Staking-MasterChef.sol\":33574:33604  block.number > lastRewardBlock */\n      gt\n        /* \"Ghosper-NFT-Staking-MasterChef.sol\":33574:33630  block.number > lastRewardBlock && totalStakedAmount != 0 */\n      dup1\n      iszero\n      tag_320\n      jumpi\n      pop\n        /* \"Ghosper-NFT-Staking-MasterChef.sol\":33629:33630  0 */\n      0x00\n        /* \"Ghosper-NFT-Staking-MasterChef.sol\":33608:33625  totalStakedAmount */\n      sload(0x07)\n        /* \"Ghosper-NFT-Staking-MasterChef.sol\":33608:33630  totalStakedAmount != 0 */\n      eq\n      iszero\n        /* \"Ghosper-NFT-Staking-MasterChef.sol\":33574:33630  block.number > lastRewardBlock && totalStakedAmount != 0 */\n    tag_320:\n        /* \"Ghosper-NFT-Staking-MasterChef.sol\":33570:33897  if (block.number > lastRewardBlock && totalStakedAmount != 0) {\r... */\n      iszero\n      tag_321\n      jumpi\n        /* \"Ghosper-NFT-Staking-MasterChef.sol\":33647:33665  uint256 multiplier */\n      0x00\n        /* \"Ghosper-NFT-Staking-MasterChef.sol\":33668:33712  getMultiplier(lastRewardBlock, block.number) */\n      tag_322\n        /* \"Ghosper-NFT-Staking-MasterChef.sol\":33682:33697  lastRewardBlock */\n      sload(0x02)\n        /* \"Ghosper-NFT-Staking-MasterChef.sol\":33699:33711  block.number */\n      number\n        /* \"Ghosper-NFT-Staking-MasterChef.sol\":33668:33681  getMultiplier */\n      tag_87\n        /* \"Ghosper-NFT-Staking-MasterChef.sol\":33668:33712  getMultiplier(lastRewardBlock, block.number) */\n      jump\t// in\n    tag_322:\n        /* \"Ghosper-NFT-Staking-MasterChef.sol\":33647:33712  uint256 multiplier = getMultiplier(lastRewardBlock, block.number) */\n      swap1\n      pop\n        /* \"Ghosper-NFT-Staking-MasterChef.sol\":33727:33741  uint256 reward */\n      0x00\n        /* \"Ghosper-NFT-Staking-MasterChef.sol\":33744:33774  multiplier.mul(rewardPerBlock) */\n      tag_323\n        /* \"Ghosper-NFT-Staking-MasterChef.sol\":33759:33773  rewardPerBlock */\n      sload(0x04)\n        /* \"Ghosper-NFT-Staking-MasterChef.sol\":33744:33754  multiplier */\n      dup4\n        /* \"Ghosper-NFT-Staking-MasterChef.sol\":33744:33758  multiplier.mul */\n      tag_148\n      swap1\n        /* \"Ghosper-NFT-Staking-MasterChef.sol\":33744:33774  multiplier.mul(rewardPerBlock) */\n      swap2\n      swap1\n      0xffffffff\n      and\n      jump\t// in\n    tag_323:\n        /* \"Ghosper-NFT-Staking-MasterChef.sol\":33727:33774  uint256 reward = multiplier.mul(rewardPerBlock) */\n      swap1\n      pop\n        /* \"Ghosper-NFT-Staking-MasterChef.sol\":33796:33822  _rewardBalance.sub(reward) */\n      tag_324\n        /* \"Ghosper-NFT-Staking-MasterChef.sol\":33815:33821  reward */\n      dup2\n        /* \"Ghosper-NFT-Staking-MasterChef.sol\":33796:33810  _rewardBalance */\n      sload(0x08)\n        /* \"Ghosper-NFT-Staking-MasterChef.sol\":33796:33814  _rewardBalance.sub */\n      tag_150\n      swap1\n        /* \"Ghosper-NFT-Staking-MasterChef.sol\":33796:33822  _rewardBalance.sub(reward) */\n      swap2\n      swap1\n      0xffffffff\n      and\n      jump\t// in\n    tag_324:\n        /* \"Ghosper-NFT-Staking-MasterChef.sol\":33789:33822  return _rewardBalance.sub(reward) */\n      swap3\n      pop\n      pop\n      pop\n      jump(tag_319)\n        /* \"Ghosper-NFT-Staking-MasterChef.sol\":33570:33897  if (block.number > lastRewardBlock && totalStakedAmount != 0) {\r... */\n    tag_321:\n        /* \"Ghosper-NFT-Staking-MasterChef.sol\":33871:33885  _rewardBalance */\n      sload(0x08)\n        /* \"Ghosper-NFT-Staking-MasterChef.sol\":33864:33885  return _rewardBalance */\n      swap1\n      pop\n        /* \"Ghosper-NFT-Staking-MasterChef.sol\":33499:33904  function getRewardBalance() external view returns (uint256) {\r... */\n    tag_319:\n      swap1\n      jump\t// out\n        /* \"Ghosper-NFT-Staking-MasterChef.sol\":5562:5665  function renounceOwnership() public virtual onlyOwner {\r... */\n    tag_74:\n        /* \"Ghosper-NFT-Staking-MasterChef.sol\":5142:5154  _msgSender() */\n      tag_327\n        /* \"Ghosper-NFT-Staking-MasterChef.sol\":5142:5152  _msgSender */\n      tag_172\n        /* \"Ghosper-NFT-Staking-MasterChef.sol\":5142:5154  _msgSender() */\n      jump\t// in\n    tag_327:\n        /* \"Ghosper-NFT-Staking-MasterChef.sol\":5131:5154  owner() == _msgSender() */\n      0xffffffffffffffffffffffffffffffffffffffff\n      and\n        /* \"Ghosper-NFT-Staking-MasterChef.sol\":5131:5138  owner() */\n      tag_328\n        /* \"Ghosper-NFT-Staking-MasterChef.sol\":5131:5136  owner */\n      tag_82\n        /* \"Ghosper-NFT-Staking-MasterChef.sol\":5131:5138  owner() */\n      jump\t// in\n    tag_328:\n        /* \"Ghosper-NFT-Staking-MasterChef.sol\":5131:5154  owner() == _msgSender() */\n      0xffffffffffffffffffffffffffffffffffffffff\n      and\n      eq\n        /* \"Ghosper-NFT-Staking-MasterChef.sol\":5123:5191  require(owner() == _msgSender(), \"Ownable: caller is not the owner\") */\n      tag_329\n      jumpi\n      mload(0x40)\n      0x08c379a000000000000000000000000000000000000000000000000000000000\n      dup2\n      mstore\n      0x04\n      add\n      tag_330\n      swap1\n      tag_176\n      jump\t// in\n    tag_330:\n      mload(0x40)\n      dup1\n      swap2\n      sub\n      swap1\n      revert\n    tag_329:\n        /* \"Ghosper-NFT-Staking-MasterChef.sol\":5627:5657  _transferOwnership(address(0)) */\n      tag_332\n        /* \"Ghosper-NFT-Staking-MasterChef.sol\":5654:5655  0 */\n      0x00\n        /* \"Ghosper-NFT-Staking-MasterChef.sol\":5627:5645  _transferOwnership */\n      tag_333\n        /* \"Ghosper-NFT-Staking-MasterChef.sol\":5627:5657  _transferOwnership(address(0)) */\n      jump\t// in\n    tag_332:\n        /* \"Ghosper-NFT-Staking-MasterChef.sol\":5562:5665  function renounceOwnership() public virtual onlyOwner {\r... */\n      jump\t// out\n        /* \"Ghosper-NFT-Staking-MasterChef.sol\":33143:33362  function setHarvestFee(uint256 _feePercent) external onlyOwner {\r... */\n    tag_77:\n        /* \"Ghosper-NFT-Staking-MasterChef.sol\":5142:5154  _msgSender() */\n      tag_335\n        /* \"Ghosper-NFT-Staking-MasterChef.sol\":5142:5152  _msgSender */\n      tag_172\n        /* \"Ghosper-NFT-Staking-MasterChef.sol\":5142:5154  _msgSender() */\n      jump\t// in\n    tag_335:\n        /* \"Ghosper-NFT-Staking-MasterChef.sol\":5131:5154  owner() == _msgSender() */\n      0xffffffffffffffffffffffffffffffffffffffff\n      and\n        /* \"Ghosper-NFT-Staking-MasterChef.sol\":5131:5138  owner() */\n      tag_336\n        /* \"Ghosper-NFT-Staking-MasterChef.sol\":5131:5136  owner */\n      tag_82\n        /* \"Ghosper-NFT-Staking-MasterChef.sol\":5131:5138  owner() */\n      jump\t// in\n    tag_336:\n        /* \"Ghosper-NFT-Staking-MasterChef.sol\":5131:5154  owner() == _msgSender() */\n      0xffffffffffffffffffffffffffffffffffffffff\n      and\n      eq\n        /* \"Ghosper-NFT-Staking-MasterChef.sol\":5123:5191  require(owner() == _msgSender(), \"Ownable: caller is not the owner\") */\n      tag_337\n      jumpi\n      mload(0x40)\n      0x08c379a000000000000000000000000000000000000000000000000000000000\n      dup2\n      mstore\n      0x04\n      add\n      tag_338\n      swap1\n      tag_176\n      jump\t// in\n    tag_338:\n      mload(0x40)\n      dup1\n      swap2\n      sub\n      swap1\n      revert\n    tag_337:\n        /* \"Ghosper-NFT-Staking-MasterChef.sol\":33240:33242  40 */\n      0x28\n        /* \"Ghosper-NFT-Staking-MasterChef.sol\":33225:33236  _feePercent */\n      dup2\n        /* \"Ghosper-NFT-Staking-MasterChef.sol\":33225:33242  _feePercent <= 40 */\n      gt\n      iszero\n        /* \"Ghosper-NFT-Staking-MasterChef.sol\":33217:33277  require(_feePercent <= 40, \"setHarvestFee: feePercent > 40\") */\n      tag_340\n      jumpi\n      mload(0x40)\n      0x08c379a000000000000000000000000000000000000000000000000000000000\n      dup2\n      mstore\n      0x04\n      add\n      tag_341\n      swap1\n      tag_342\n      jump\t// in\n    tag_341:\n      mload(0x40)\n      dup1\n      swap2\n      sub\n      swap1\n      revert\n    tag_340:\n        /* \"Ghosper-NFT-Staking-MasterChef.sol\":33301:33312  _feePercent */\n      dup1\n        /* \"Ghosper-NFT-Staking-MasterChef.sol\":33288:33298  harvestFee */\n      0x06\n        /* \"Ghosper-NFT-Staking-MasterChef.sol\":33288:33312  harvestFee = _feePercent */\n      dup2\n      swap1\n      sstore\n      pop\n        /* \"Ghosper-NFT-Staking-MasterChef.sol\":33328:33354  SetHarvestFee(_feePercent) */\n      0xf419800a2d8930c61d5d9cd782aa72c512cf6be2f79da6db0b8855870b7269ed\n        /* \"Ghosper-NFT-Staking-MasterChef.sol\":33342:33353  _feePercent */\n      dup2\n        /* \"Ghosper-NFT-Staking-MasterChef.sol\":33328:33354  SetHarvestFee(_feePercent) */\n      mload(0x40)\n      tag_343\n      swap2\n      swap1\n      tag_64\n      jump\t// in\n    tag_343:\n      mload(0x40)\n      dup1\n      swap2\n      sub\n      swap1\n      log1\n        /* \"Ghosper-NFT-Staking-MasterChef.sol\":33143:33362  function setHarvestFee(uint256 _feePercent) external onlyOwner {\r... */\n      pop\n      jump\t// out\n        /* \"Ghosper-NFT-Staking-MasterChef.sol\":28528:28557  uint256 public rewardPerBlock */\n    tag_79:\n      sload(0x04)\n      dup2\n      jump\t// out\n        /* \"Ghosper-NFT-Staking-MasterChef.sol\":4911:4998  function owner() public view virtual returns (address) {\r... */\n    tag_82:\n        /* \"Ghosper-NFT-Staking-MasterChef.sol\":4957:4964  address */\n      0x00\n        /* \"Ghosper-NFT-Staking-MasterChef.sol\":4984:4990  _owner */\n      dup1\n      0x00\n      swap1\n      sload\n      swap1\n      0x0100\n      exp\n      swap1\n      div\n      0xffffffffffffffffffffffffffffffffffffffff\n      and\n        /* \"Ghosper-NFT-Staking-MasterChef.sol\":4977:4990  return _owner */\n      swap1\n      pop\n        /* \"Ghosper-NFT-Staking-MasterChef.sol\":4911:4998  function owner() public view virtual returns (address) {\r... */\n      swap1\n      jump\t// out\n        /* \"Ghosper-NFT-Staking-MasterChef.sol\":33370:33491  function getMultiplier(uint256 _from, uint256 _to) public pure returns (uint256) {\r... */\n    tag_87:\n        /* \"Ghosper-NFT-Staking-MasterChef.sol\":33442:33449  uint256 */\n      0x00\n        /* \"Ghosper-NFT-Staking-MasterChef.sol\":33469:33483  _to.sub(_from) */\n      tag_346\n        /* \"Ghosper-NFT-Staking-MasterChef.sol\":33477:33482  _from */\n      dup4\n        /* \"Ghosper-NFT-Staking-MasterChef.sol\":33469:33472  _to */\n      dup4\n        /* \"Ghosper-NFT-Staking-MasterChef.sol\":33469:33476  _to.sub */\n      tag_150\n      swap1\n        /* \"Ghosper-NFT-Staking-MasterChef.sol\":33469:33483  _to.sub(_from) */\n      swap2\n      swap1\n      0xffffffff\n      and\n      jump\t// in\n    tag_346:\n        /* \"Ghosper-NFT-Staking-MasterChef.sol\":33462:33483  return _to.sub(_from) */\n      swap1\n      pop\n        /* \"Ghosper-NFT-Staking-MasterChef.sol\":33370:33491  function getMultiplier(uint256 _from, uint256 _to) public pure returns (uint256) {\r... */\n      swap3\n      swap2\n      pop\n      pop\n      jump\t// out\n        /* \"Ghosper-NFT-Staking-MasterChef.sol\":30486:30627  function setFeeWallet(address _feeWallet) external onlyOwner {\r... */\n    tag_91:\n        /* \"Ghosper-NFT-Staking-MasterChef.sol\":5142:5154  _msgSender() */\n      tag_348\n        /* \"Ghosper-NFT-Staking-MasterChef.sol\":5142:5152  _msgSender */\n      tag_172\n        /* \"Ghosper-NFT-Staking-MasterChef.sol\":5142:5154  _msgSender() */\n      jump\t// in\n    tag_348:\n        /* \"Ghosper-NFT-Staking-MasterChef.sol\":5131:5154  owner() == _msgSender() */\n      0xffffffffffffffffffffffffffffffffffffffff\n      and\n        /* \"Ghosper-NFT-Staking-MasterChef.sol\":5131:5138  owner() */\n      tag_349\n        /* \"Ghosper-NFT-Staking-MasterChef.sol\":5131:5136  owner */\n      tag_82\n        /* \"Ghosper-NFT-Staking-MasterChef.sol\":5131:5138  owner() */\n      jump\t// in\n    tag_349:\n        /* \"Ghosper-NFT-Staking-MasterChef.sol\":5131:5154  owner() == _msgSender() */\n      0xffffffffffffffffffffffffffffffffffffffff\n      and\n      eq\n        /* \"Ghosper-NFT-Staking-MasterChef.sol\":5123:5191  require(owner() == _msgSender(), \"Ownable: caller is not the owner\") */\n      tag_350\n      jumpi\n      mload(0x40)\n      0x08c379a000000000000000000000000000000000000000000000000000000000\n      dup2\n      mstore\n      0x04\n      add\n      tag_351\n      swap1\n      tag_176\n      jump\t// in\n    tag_351:\n      mload(0x40)\n      dup1\n      swap2\n      sub\n      swap1\n      revert\n    tag_350:\n        /* \"Ghosper-NFT-Staking-MasterChef.sol\":30570:30580  _feeWallet */\n      dup1\n        /* \"Ghosper-NFT-Staking-MasterChef.sol\":30558:30567  feeWallet */\n      0x05\n      0x00\n        /* \"Ghosper-NFT-Staking-MasterChef.sol\":30558:30580  feeWallet = _feeWallet */\n      0x0100\n      exp\n      dup2\n      sload\n      dup2\n      0xffffffffffffffffffffffffffffffffffffffff\n      mul\n      not\n      and\n      swap1\n      dup4\n      0xffffffffffffffffffffffffffffffffffffffff\n      and\n      mul\n      or\n      swap1\n      sstore\n      pop\n        /* \"Ghosper-NFT-Staking-MasterChef.sol\":30609:30618  feeWallet */\n      0x05\n      0x00\n      swap1\n      sload\n      swap1\n      0x0100\n      exp\n      swap1\n      div\n      0xffffffffffffffffffffffffffffffffffffffff\n      and\n        /* \"Ghosper-NFT-Staking-MasterChef.sol\":30596:30619  SetFeeWallet(feeWallet) */\n      0xffffffffffffffffffffffffffffffffffffffff\n      and\n      0x3d21e5a2b633291bd1ff5f9c654e402d063783c95759d2ea521b31fb30e4da41\n      mload(0x40)\n      mload(0x40)\n      dup1\n      swap2\n      sub\n      swap1\n      log2\n        /* \"Ghosper-NFT-Staking-MasterChef.sol\":30486:30627  function setFeeWallet(address _feeWallet) external onlyOwner {\r... */\n      pop\n      jump\t// out\n        /* \"Ghosper-NFT-Staking-MasterChef.sol\":32649:33135  function removeUnStakeFee(uint256 _index) external onlyOwner {\r... */\n    tag_94:\n        /* \"Ghosper-NFT-Staking-MasterChef.sol\":5142:5154  _msgSender() */\n      tag_354\n        /* \"Ghosper-NFT-Staking-MasterChef.sol\":5142:5152  _msgSender */\n      tag_172\n        /* \"Ghosper-NFT-Staking-MasterChef.sol\":5142:5154  _msgSender() */\n      jump\t// in\n    tag_354:\n        /* \"Ghosper-NFT-Staking-MasterChef.sol\":5131:5154  owner() == _msgSender() */\n      0xffffffffffffffffffffffffffffffffffffffff\n      and\n        /* \"Ghosper-NFT-Staking-MasterChef.sol\":5131:5138  owner() */\n      tag_355\n        /* \"Ghosper-NFT-Staking-MasterChef.sol\":5131:5136  owner */\n      tag_82\n        /* \"Ghosper-NFT-Staking-MasterChef.sol\":5131:5138  owner() */\n      jump\t// in\n    tag_355:\n        /* \"Ghosper-NFT-Staking-MasterChef.sol\":5131:5154  owner() == _msgSender() */\n      0xffffffffffffffffffffffffffffffffffffffff\n      and\n      eq\n        /* \"Ghosper-NFT-Staking-MasterChef.sol\":5123:5191  require(owner() == _msgSender(), \"Ownable: caller is not the owner\") */\n      tag_356\n      jumpi\n      mload(0x40)\n      0x08c379a000000000000000000000000000000000000000000000000000000000\n      dup2\n      mstore\n      0x04\n      add\n      tag_357\n      swap1\n      tag_176\n      jump\t// in\n    tag_357:\n      mload(0x40)\n      dup1\n      swap2\n      sub\n      swap1\n      revert\n    tag_356:\n        /* \"Ghosper-NFT-Staking-MasterChef.sol\":32738:32749  unStakeFees */\n      0x01\n        /* \"Ghosper-NFT-Staking-MasterChef.sol\":32738:32756  unStakeFees.length */\n      dup1\n      sload\n      swap1\n      pop\n        /* \"Ghosper-NFT-Staking-MasterChef.sol\":32729:32735  _index */\n      dup2\n        /* \"Ghosper-NFT-Staking-MasterChef.sol\":32729:32756  _index < unStakeFees.length */\n      lt\n        /* \"Ghosper-NFT-Staking-MasterChef.sol\":32721:32788  require(_index < unStakeFees.length, \"removeUnStakeFee: range out\") */\n      tag_359\n      jumpi\n      mload(0x40)\n      0x08c379a000000000000000000000000000000000000000000000000000000000\n      dup2\n      mstore\n      0x04\n      add\n      tag_360\n      swap1\n      tag_361\n      jump\t// in\n    tag_360:\n      mload(0x40)\n      dup1\n      swap2\n      sub\n      swap1\n      revert\n    tag_359:\n        /* \"Ghosper-NFT-Staking-MasterChef.sol\":32799:32815  uint256 _minDays */\n      0x00\n        /* \"Ghosper-NFT-Staking-MasterChef.sol\":32818:32829  unStakeFees */\n      0x01\n        /* \"Ghosper-NFT-Staking-MasterChef.sol\":32830:32836  _index */\n      dup3\n        /* \"Ghosper-NFT-Staking-MasterChef.sol\":32818:32837  unStakeFees[_index] */\n      dup2\n      sload\n      dup2\n      lt\n      tag_362\n      jumpi\n      tag_363\n      tag_123\n      jump\t// in\n    tag_363:\n    tag_362:\n      swap1\n      0x00\n      mstore\n      keccak256(0x00, 0x20)\n      swap1\n      0x02\n      mul\n      add\n        /* \"Ghosper-NFT-Staking-MasterChef.sol\":32818:32845  unStakeFees[_index].minDays */\n      0x00\n      add\n      sload\n        /* \"Ghosper-NFT-Staking-MasterChef.sol\":32799:32845  uint256 _minDays = unStakeFees[_index].minDays */\n      swap1\n      pop\n        /* \"Ghosper-NFT-Staking-MasterChef.sol\":32856:32875  uint256 _feePercent */\n      0x00\n        /* \"Ghosper-NFT-Staking-MasterChef.sol\":32878:32889  unStakeFees */\n      0x01\n        /* \"Ghosper-NFT-Staking-MasterChef.sol\":32890:32896  _index */\n      dup4\n        /* \"Ghosper-NFT-Staking-MasterChef.sol\":32878:32897  unStakeFees[_index] */\n      dup2\n      sload\n      dup2\n      lt\n      tag_365\n      jumpi\n      tag_366\n      tag_123\n      jump\t// in\n    tag_366:\n    tag_365:\n      swap1\n      0x00\n      mstore\n      keccak256(0x00, 0x20)\n      swap1\n      0x02\n      mul\n      add\n        /* \"Ghosper-NFT-Staking-MasterChef.sol\":32878:32908  unStakeFees[_index].feePercent */\n      0x01\n      add\n      sload\n        /* \"Ghosper-NFT-Staking-MasterChef.sol\":32856:32908  uint256 _feePercent = unStakeFees[_index].feePercent */\n      swap1\n      pop\n        /* \"Ghosper-NFT-Staking-MasterChef.sol\":32924:32933  uint256 i */\n      0x00\n        /* \"Ghosper-NFT-Staking-MasterChef.sol\":32936:32942  _index */\n      dup4\n        /* \"Ghosper-NFT-Staking-MasterChef.sol\":32924:32942  uint256 i = _index */\n      swap1\n      pop\n        /* \"Ghosper-NFT-Staking-MasterChef.sol\":32919:33037  for (uint256 i = _index; i < unStakeFees.length - 1; i++) {\r... */\n    tag_368:\n        /* \"Ghosper-NFT-Staking-MasterChef.sol\":32969:32970  1 */\n      0x01\n        /* \"Ghosper-NFT-Staking-MasterChef.sol\":32948:32959  unStakeFees */\n      dup1\n        /* \"Ghosper-NFT-Staking-MasterChef.sol\":32948:32966  unStakeFees.length */\n      dup1\n      sload\n      swap1\n      pop\n        /* \"Ghosper-NFT-Staking-MasterChef.sol\":32948:32970  unStakeFees.length - 1 */\n      tag_371\n      swap2\n      swap1\n      tag_202\n      jump\t// in\n    tag_371:\n        /* \"Ghosper-NFT-Staking-MasterChef.sol\":32944:32945  i */\n      dup2\n        /* \"Ghosper-NFT-Staking-MasterChef.sol\":32944:32970  i < unStakeFees.length - 1 */\n      lt\n        /* \"Ghosper-NFT-Staking-MasterChef.sol\":32919:33037  for (uint256 i = _index; i < unStakeFees.length - 1; i++) {\r... */\n      iszero\n      tag_369\n      jumpi\n        /* \"Ghosper-NFT-Staking-MasterChef.sol\":33009:33020  unStakeFees */\n      0x01\n        /* \"Ghosper-NFT-Staking-MasterChef.sol\":33023:33024  1 */\n      dup1\n        /* \"Ghosper-NFT-Staking-MasterChef.sol\":33021:33022  i */\n      dup3\n        /* \"Ghosper-NFT-Staking-MasterChef.sol\":33021:33024  i+1 */\n      tag_372\n      swap2\n      swap1\n      tag_131\n      jump\t// in\n    tag_372:\n        /* \"Ghosper-NFT-Staking-MasterChef.sol\":33009:33025  unStakeFees[i+1] */\n      dup2\n      sload\n      dup2\n      lt\n      tag_373\n      jumpi\n      tag_374\n      tag_123\n      jump\t// in\n    tag_374:\n    tag_373:\n      swap1\n      0x00\n      mstore\n      keccak256(0x00, 0x20)\n      swap1\n      0x02\n      mul\n      add\n        /* \"Ghosper-NFT-Staking-MasterChef.sol\":32992:33003  unStakeFees */\n      0x01\n        /* \"Ghosper-NFT-Staking-MasterChef.sol\":33004:33005  i */\n      dup3\n        /* \"Ghosper-NFT-Staking-MasterChef.sol\":32992:33006  unStakeFees[i] */\n      dup2\n      sload\n      dup2\n      lt\n      tag_376\n      jumpi\n      tag_377\n      tag_123\n      jump\t// in\n    tag_377:\n    tag_376:\n      swap1\n      0x00\n      mstore\n      keccak256(0x00, 0x20)\n      swap1\n      0x02\n      mul\n      add\n        /* \"Ghosper-NFT-Staking-MasterChef.sol\":32992:33025  unStakeFees[i] = unStakeFees[i+1] */\n      0x00\n      dup3\n      add\n      sload\n      dup2\n      0x00\n      add\n      sstore\n      0x01\n      dup3\n      add\n      sload\n      dup2\n      0x01\n      add\n      sstore\n      swap1\n      pop\n      pop\n        /* \"Ghosper-NFT-Staking-MasterChef.sol\":32972:32975  i++ */\n      dup1\n      dup1\n      tag_379\n      swap1\n      tag_140\n      jump\t// in\n    tag_379:\n      swap2\n      pop\n      pop\n        /* \"Ghosper-NFT-Staking-MasterChef.sol\":32919:33037  for (uint256 i = _index; i < unStakeFees.length - 1; i++) {\r... */\n      jump(tag_368)\n    tag_369:\n      pop\n        /* \"Ghosper-NFT-Staking-MasterChef.sol\":33047:33058  unStakeFees */\n      0x01\n        /* \"Ghosper-NFT-Staking-MasterChef.sol\":33047:33064  unStakeFees.pop() */\n      dup1\n      sload\n      dup1\n      tag_380\n      jumpi\n      tag_381\n      tag_382\n      jump\t// in\n    tag_381:\n    tag_380:\n      0x01\n      swap1\n      sub\n      dup2\n      dup2\n      swap1\n      0x00\n      mstore\n      keccak256(0x00, 0x20)\n      swap1\n      0x02\n      mul\n      add\n      0x00\n      dup1\n      dup3\n      add\n      0x00\n      swap1\n      sstore\n      0x01\n      dup3\n      add\n      0x00\n      swap1\n      sstore\n      pop\n      pop\n      swap1\n      sstore\n        /* \"Ghosper-NFT-Staking-MasterChef.sol\":33080:33127  RemoveUnStakeFee(_index, _minDays, _feePercent) */\n      0x61fd4e7e2422942f3df6e8c8c7744f23212ce0f0a23a80f0ace593ffdf6d96d0\n        /* \"Ghosper-NFT-Staking-MasterChef.sol\":33097:33103  _index */\n      dup4\n        /* \"Ghosper-NFT-Staking-MasterChef.sol\":33105:33113  _minDays */\n      dup4\n        /* \"Ghosper-NFT-Staking-MasterChef.sol\":33115:33126  _feePercent */\n      dup4\n        /* \"Ghosper-NFT-Staking-MasterChef.sol\":33080:33127  RemoveUnStakeFee(_index, _minDays, _feePercent) */\n      mload(0x40)\n      tag_384\n      swap4\n      swap3\n      swap2\n      swap1\n      tag_246\n      jump\t// in\n    tag_384:\n      mload(0x40)\n      dup1\n      swap2\n      sub\n      swap1\n      log1\n        /* \"Ghosper-NFT-Staking-MasterChef.sol\":32710:33135  {\r... */\n      pop\n      pop\n        /* \"Ghosper-NFT-Staking-MasterChef.sol\":32649:33135  function removeUnStakeFee(uint256 _index) external onlyOwner {\r... */\n      pop\n      jump\t// out\n        /* \"Ghosper-NFT-Staking-MasterChef.sol\":28454:28484  uint256 public lastRewardBlock */\n    tag_96:\n      sload(0x02)\n      dup2\n      jump\t// out\n        /* \"Ghosper-NFT-Staking-MasterChef.sol\":28595:28620  uint256 public harvestFee */\n    tag_99:\n      sload(0x06)\n      dup2\n      jump\t// out\n        /* \"Ghosper-NFT-Staking-MasterChef.sol\":28374:28407  IERC721 public immutable nftToken */\n    tag_102:\n      immutable(\"0x29f8d1998cd4186678d0085cd54072aeefd05bc476ef1844361510d857ac074b\")\n      dup2\n      jump\t// out\n        /* \"Ghosper-NFT-Staking-MasterChef.sol\":36411:37726  function unstake(uint256[] calldata tokenIds) external {\r... */\n    tag_107:\n        /* \"Ghosper-NFT-Staking-MasterChef.sol\":36503:36504  0 */\n      0x00\n        /* \"Ghosper-NFT-Staking-MasterChef.sol\":36485:36493  tokenIds */\n      dup3\n      dup3\n        /* \"Ghosper-NFT-Staking-MasterChef.sol\":36485:36500  tokenIds.length */\n      swap1\n      pop\n        /* \"Ghosper-NFT-Staking-MasterChef.sol\":36485:36504  tokenIds.length > 0 */\n      gt\n        /* \"Ghosper-NFT-Staking-MasterChef.sol\":36477:36533  require(tokenIds.length > 0, \"NFT Staking: Empty Array\") */\n      tag_386\n      jumpi\n      mload(0x40)\n      0x08c379a000000000000000000000000000000000000000000000000000000000\n      dup2\n      mstore\n      0x04\n      add\n      tag_387\n      swap1\n      tag_117\n      jump\t// in\n    tag_387:\n      mload(0x40)\n      dup1\n      swap2\n      sub\n      swap1\n      revert\n    tag_386:\n        /* \"Ghosper-NFT-Staking-MasterChef.sol\":36548:36557  uint256 i */\n      0x00\n        /* \"Ghosper-NFT-Staking-MasterChef.sol\":36544:36948  for(uint256 i = 0; i < tokenIds.length; i ++){\r... */\n    tag_388:\n        /* \"Ghosper-NFT-Staking-MasterChef.sol\":36567:36575  tokenIds */\n      dup3\n      dup3\n        /* \"Ghosper-NFT-Staking-MasterChef.sol\":36567:36582  tokenIds.length */\n      swap1\n      pop\n        /* \"Ghosper-NFT-Staking-MasterChef.sol\":36563:36564  i */\n      dup2\n        /* \"Ghosper-NFT-Staking-MasterChef.sol\":36563:36582  i < tokenIds.length */\n      lt\n        /* \"Ghosper-NFT-Staking-MasterChef.sol\":36544:36948  for(uint256 i = 0; i < tokenIds.length; i ++){\r... */\n      iszero\n      tag_389\n      jumpi\n        /* \"Ghosper-NFT-Staking-MasterChef.sol\":36604:36619  uint256 tokenId */\n      0x00\n        /* \"Ghosper-NFT-Staking-MasterChef.sol\":36622:36630  tokenIds */\n      dup4\n      dup4\n        /* \"Ghosper-NFT-Staking-MasterChef.sol\":36631:36632  i */\n      dup4\n        /* \"Ghosper-NFT-Staking-MasterChef.sol\":36622:36633  tokenIds[i] */\n      dup2\n      dup2\n      lt\n      tag_391\n      jumpi\n      tag_392\n      tag_123\n      jump\t// in\n    tag_392:\n    tag_391:\n      swap1\n      pop\n      0x20\n      mul\n      add\n      calldataload\n        /* \"Ghosper-NFT-Staking-MasterChef.sol\":36604:36633  uint256 tokenId = tokenIds[i] */\n      swap1\n      pop\n        /* \"Ghosper-NFT-Staking-MasterChef.sol\":36678:36688  msg.sender */\n      caller\n        /* \"Ghosper-NFT-Staking-MasterChef.sol\":36656:36688  allStakes[tokenId] == msg.sender */\n      0xffffffffffffffffffffffffffffffffffffffff\n      and\n        /* \"Ghosper-NFT-Staking-MasterChef.sol\":36656:36665  allStakes */\n      0x09\n        /* \"Ghosper-NFT-Staking-MasterChef.sol\":36656:36674  allStakes[tokenId] */\n      0x00\n        /* \"Ghosper-NFT-Staking-MasterChef.sol\":36666:36673  tokenId */\n      dup4\n        /* \"Ghosper-NFT-Staking-MasterChef.sol\":36656:36674  allStakes[tokenId] */\n      dup2\n      mstore\n      0x20\n      add\n      swap1\n      dup2\n      mstore\n      0x20\n      add\n      0x00\n      keccak256\n      0x00\n      swap1\n      sload\n      swap1\n      0x0100\n      exp\n      swap1\n      div\n      0xffffffffffffffffffffffffffffffffffffffff\n      and\n        /* \"Ghosper-NFT-Staking-MasterChef.sol\":36656:36688  allStakes[tokenId] == msg.sender */\n      0xffffffffffffffffffffffffffffffffffffffff\n      and\n      eq\n        /* \"Ghosper-NFT-Staking-MasterChef.sol\":36648:36750  require(allStakes[tokenId] == msg.sender, \"Nft Unstaking: token not staked or incorrect token owner.\") */\n      tag_393\n      jumpi\n      mload(0x40)\n      0x08c379a000000000000000000000000000000000000000000000000000000000\n      dup2\n      mstore\n      0x04\n      add\n      tag_394\n      swap1\n      tag_395\n      jump\t// in\n    tag_394:\n      mload(0x40)\n      dup1\n      swap2\n      sub\n      swap1\n      revert\n    tag_393:\n        /* \"Ghosper-NFT-Staking-MasterChef.sol\":36769:36778  uint256 j */\n      0x00\n        /* \"Ghosper-NFT-Staking-MasterChef.sol\":36785:36786  1 */\n      0x01\n        /* \"Ghosper-NFT-Staking-MasterChef.sol\":36781:36782  i */\n      dup4\n        /* \"Ghosper-NFT-Staking-MasterChef.sol\":36781:36786  i + 1 */\n      tag_399\n      swap2\n      swap1\n      tag_131\n      jump\t// in\n    tag_399:\n        /* \"Ghosper-NFT-Staking-MasterChef.sol\":36769:36786  uint256 j = i + 1 */\n      swap1\n      pop\n        /* \"Ghosper-NFT-Staking-MasterChef.sol\":36765:36937  for(uint256 j = i + 1; j < tokenIds.length; j ++){\r... */\n    tag_396:\n        /* \"Ghosper-NFT-Staking-MasterChef.sol\":36792:36800  tokenIds */\n      dup5\n      dup5\n        /* \"Ghosper-NFT-Staking-MasterChef.sol\":36792:36807  tokenIds.length */\n      swap1\n      pop\n        /* \"Ghosper-NFT-Staking-MasterChef.sol\":36788:36789  j */\n      dup2\n        /* \"Ghosper-NFT-Staking-MasterChef.sol\":36788:36807  j < tokenIds.length */\n      lt\n        /* \"Ghosper-NFT-Staking-MasterChef.sol\":36765:36937  for(uint256 j = i + 1; j < tokenIds.length; j ++){\r... */\n      iszero\n      tag_397\n      jumpi\n        /* \"Ghosper-NFT-Staking-MasterChef.sol\":36856:36864  tokenIds */\n      dup5\n      dup5\n        /* \"Ghosper-NFT-Staking-MasterChef.sol\":36865:36866  j */\n      dup3\n        /* \"Ghosper-NFT-Staking-MasterChef.sol\":36856:36867  tokenIds[j] */\n      dup2\n      dup2\n      lt\n      tag_400\n      jumpi\n      tag_401\n      tag_123\n      jump\t// in\n    tag_401:\n    tag_400:\n      swap1\n      pop\n      0x20\n      mul\n      add\n      calldataload\n        /* \"Ghosper-NFT-Staking-MasterChef.sol\":36841:36849  tokenIds */\n      dup6\n      dup6\n        /* \"Ghosper-NFT-Staking-MasterChef.sol\":36850:36851  i */\n      dup6\n        /* \"Ghosper-NFT-Staking-MasterChef.sol\":36841:36852  tokenIds[i] */\n      dup2\n      dup2\n      lt\n      tag_402\n      jumpi\n      tag_403\n      tag_123\n      jump\t// in\n    tag_403:\n    tag_402:\n      swap1\n      pop\n      0x20\n      mul\n      add\n      calldataload\n        /* \"Ghosper-NFT-Staking-MasterChef.sol\":36841:36867  tokenIds[i] != tokenIds[j] */\n      eq\n      iszero\n        /* \"Ghosper-NFT-Staking-MasterChef.sol\":36833:36921  require(tokenIds[i] != tokenIds[j], \"NFT Staking: duplicate token ids in input params.\") */\n      tag_404\n      jumpi\n      mload(0x40)\n      0x08c379a000000000000000000000000000000000000000000000000000000000\n      dup2\n      mstore\n      0x04\n      add\n      tag_405\n      swap1\n      tag_138\n      jump\t// in\n    tag_405:\n      mload(0x40)\n      dup1\n      swap2\n      sub\n      swap1\n      revert\n    tag_404:\n        /* \"Ghosper-NFT-Staking-MasterChef.sol\":36809:36813  j ++ */\n      dup1\n      dup1\n      tag_406\n      swap1\n      tag_140\n      jump\t// in\n    tag_406:\n      swap2\n      pop\n      pop\n        /* \"Ghosper-NFT-Staking-MasterChef.sol\":36765:36937  for(uint256 j = i + 1; j < tokenIds.length; j ++){\r... */\n      jump(tag_396)\n    tag_397:\n      pop\n        /* \"Ghosper-NFT-Staking-MasterChef.sol\":36589:36948  {\r... */\n      pop\n        /* \"Ghosper-NFT-Staking-MasterChef.sol\":36584:36588  i ++ */\n      dup1\n      dup1\n      tag_407\n      swap1\n      tag_140\n      jump\t// in\n    tag_407:\n      swap2\n      pop\n      pop\n        /* \"Ghosper-NFT-Staking-MasterChef.sol\":36544:36948  for(uint256 i = 0; i < tokenIds.length; i ++){\r... */\n      jump(tag_388)\n    tag_389:\n      pop\n        /* \"Ghosper-NFT-Staking-MasterChef.sol\":36960:36974  updateStatus() */\n      tag_408\n        /* \"Ghosper-NFT-Staking-MasterChef.sol\":36960:36972  updateStatus */\n      tag_143\n        /* \"Ghosper-NFT-Staking-MasterChef.sol\":36960:36974  updateStatus() */\n      jump\t// in\n    tag_408:\n        /* \"Ghosper-NFT-Staking-MasterChef.sol\":36985:37006  UserInfo storage user */\n      0x00\n        /* \"Ghosper-NFT-Staking-MasterChef.sol\":37009:37017  userInfo */\n      0x0b\n        /* \"Ghosper-NFT-Staking-MasterChef.sol\":37009:37029  userInfo[msg.sender] */\n      0x00\n        /* \"Ghosper-NFT-Staking-MasterChef.sol\":37018:37028  msg.sender */\n      caller\n        /* \"Ghosper-NFT-Staking-MasterChef.sol\":37009:37029  userInfo[msg.sender] */\n      0xffffffffffffffffffffffffffffffffffffffff\n      and\n      0xffffffffffffffffffffffffffffffffffffffff\n      and\n      dup2\n      mstore\n      0x20\n      add\n      swap1\n      dup2\n      mstore\n      0x20\n      add\n      0x00\n      keccak256\n        /* \"Ghosper-NFT-Staking-MasterChef.sol\":36985:37029  UserInfo storage user = userInfo[msg.sender] */\n      swap1\n      pop\n        /* \"Ghosper-NFT-Staking-MasterChef.sol\":37044:37053  uint256 i */\n      0x00\n        /* \"Ghosper-NFT-Staking-MasterChef.sol\":37040:37673  for(uint256 i = 0; i < tokenIds.length; i ++){\r... */\n    tag_409:\n        /* \"Ghosper-NFT-Staking-MasterChef.sol\":37063:37071  tokenIds */\n      dup4\n      dup4\n        /* \"Ghosper-NFT-Staking-MasterChef.sol\":37063:37078  tokenIds.length */\n      swap1\n      pop\n        /* \"Ghosper-NFT-Staking-MasterChef.sol\":37059:37060  i */\n      dup2\n        /* \"Ghosper-NFT-Staking-MasterChef.sol\":37059:37078  i < tokenIds.length */\n      lt\n        /* \"Ghosper-NFT-Staking-MasterChef.sol\":37040:37673  for(uint256 i = 0; i < tokenIds.length; i ++){\r... */\n      iszero\n      tag_410\n      jumpi\n        /* \"Ghosper-NFT-Staking-MasterChef.sol\":37100:37115  uint256 tokenId */\n      0x00\n        /* \"Ghosper-NFT-Staking-MasterChef.sol\":37118:37126  tokenIds */\n      dup5\n      dup5\n        /* \"Ghosper-NFT-Staking-MasterChef.sol\":37127:37128  i */\n      dup4\n        /* \"Ghosper-NFT-Staking-MasterChef.sol\":37118:37129  tokenIds[i] */\n      dup2\n      dup2\n      lt\n      tag_412\n      jumpi\n      tag_413\n      tag_123\n      jump\t// in\n    tag_413:\n    tag_412:\n      swap1\n      pop\n      0x20\n      mul\n      add\n      calldataload\n        /* \"Ghosper-NFT-Staking-MasterChef.sol\":37100:37129  uint256 tokenId = tokenIds[i] */\n      swap1\n      pop\n        /* \"Ghosper-NFT-Staking-MasterChef.sol\":37173:37174  0 */\n      0x00\n        /* \"Ghosper-NFT-Staking-MasterChef.sol\":37144:37153  allStakes */\n      0x09\n        /* \"Ghosper-NFT-Staking-MasterChef.sol\":37144:37162  allStakes[tokenId] */\n      0x00\n        /* \"Ghosper-NFT-Staking-MasterChef.sol\":37154:37161  tokenId */\n      dup4\n        /* \"Ghosper-NFT-Staking-MasterChef.sol\":37144:37162  allStakes[tokenId] */\n      dup2\n      mstore\n      0x20\n      add\n      swap1\n      dup2\n      mstore\n      0x20\n      add\n      0x00\n      keccak256\n      0x00\n        /* \"Ghosper-NFT-Staking-MasterChef.sol\":37144:37175  allStakes[tokenId] = address(0) */\n      0x0100\n      exp\n      dup2\n      sload\n      dup2\n      0xffffffffffffffffffffffffffffffffffffffff\n      mul\n      not\n      and\n      swap1\n      dup4\n      0xffffffffffffffffffffffffffffffffffffffff\n      and\n      mul\n      or\n      swap1\n      sstore\n      pop\n        /* \"Ghosper-NFT-Staking-MasterChef.sol\":37190:37205  uint256 pending */\n      0x00\n        /* \"Ghosper-NFT-Staking-MasterChef.sol\":37208:37271  user.amount.mul(accGHSPPerShare).div(1e12).sub(user.rewardDebt) */\n      tag_414\n        /* \"Ghosper-NFT-Staking-MasterChef.sol\":37255:37259  user */\n      dup5\n        /* \"Ghosper-NFT-Staking-MasterChef.sol\":37255:37270  user.rewardDebt */\n      0x01\n      add\n      sload\n        /* \"Ghosper-NFT-Staking-MasterChef.sol\":37208:37250  user.amount.mul(accGHSPPerShare).div(1e12) */\n      tag_415\n        /* \"Ghosper-NFT-Staking-MasterChef.sol\":37245:37249  1e12 */\n      0xe8d4a51000\n        /* \"Ghosper-NFT-Staking-MasterChef.sol\":37208:37240  user.amount.mul(accGHSPPerShare) */\n      tag_416\n        /* \"Ghosper-NFT-Staking-MasterChef.sol\":37224:37239  accGHSPPerShare */\n      sload(0x03)\n        /* \"Ghosper-NFT-Staking-MasterChef.sol\":37208:37212  user */\n      dup10\n        /* \"Ghosper-NFT-Staking-MasterChef.sol\":37208:37219  user.amount */\n      0x00\n      add\n      sload\n        /* \"Ghosper-NFT-Staking-MasterChef.sol\":37208:37223  user.amount.mul */\n      tag_148\n      swap1\n        /* \"Ghosper-NFT-Staking-MasterChef.sol\":37208:37240  user.amount.mul(accGHSPPerShare) */\n      swap2\n      swap1\n      0xffffffff\n      and\n      jump\t// in\n    tag_416:\n        /* \"Ghosper-NFT-Staking-MasterChef.sol\":37208:37244  user.amount.mul(accGHSPPerShare).div */\n      tag_149\n      swap1\n        /* \"Ghosper-NFT-Staking-MasterChef.sol\":37208:37250  user.amount.mul(accGHSPPerShare).div(1e12) */\n      swap2\n      swap1\n      0xffffffff\n      and\n      jump\t// in\n    tag_415:\n        /* \"Ghosper-NFT-Staking-MasterChef.sol\":37208:37254  user.amount.mul(accGHSPPerShare).div(1e12).sub */\n      tag_150\n      swap1\n        /* \"Ghosper-NFT-Staking-MasterChef.sol\":37208:37271  user.amount.mul(accGHSPPerShare).div(1e12).sub(user.rewardDebt) */\n      swap2\n      swap1\n      0xffffffff\n      and\n      jump\t// in\n    tag_414:\n        /* \"Ghosper-NFT-Staking-MasterChef.sol\":37190:37271  uint256 pending = user.amount.mul(accGHSPPerShare).div(1e12).sub(user.rewardDebt) */\n      swap1\n      pop\n        /* \"Ghosper-NFT-Staking-MasterChef.sol\":37327:37334  pending */\n      dup1\n        /* \"Ghosper-NFT-Staking-MasterChef.sol\":37290:37299  ghspToken */\n      immutable(\"0x2b788c69c84726cb61a0641c648d01bc1bc6568bcab92e0e8975f165cd12fe81\")\n        /* \"Ghosper-NFT-Staking-MasterChef.sol\":37290:37309  ghspToken.balanceOf */\n      0xffffffffffffffffffffffffffffffffffffffff\n      and\n      0x70a08231\n        /* \"Ghosper-NFT-Staking-MasterChef.sol\":37318:37322  this */\n      address\n        /* \"Ghosper-NFT-Staking-MasterChef.sol\":37290:37324  ghspToken.balanceOf(address(this)) */\n      mload(0x40)\n      dup3\n      0xffffffff\n      and\n      0xe0\n      shl\n      dup2\n      mstore\n      0x04\n      add\n      tag_417\n      swap2\n      swap1\n      tag_84\n      jump\t// in\n    tag_417:\n      0x20\n      mload(0x40)\n      dup1\n      dup4\n      sub\n      dup2\n      dup7\n      dup1\n      extcodesize\n      iszero\n      dup1\n      iszero\n      tag_418\n      jumpi\n      0x00\n      dup1\n      revert\n    tag_418:\n      pop\n      gas\n      staticcall\n      iszero\n      dup1\n      iszero\n      tag_420\n      jumpi\n      returndatasize\n      0x00\n      dup1\n      returndatacopy\n      revert(0x00, returndatasize)\n    tag_420:\n      pop\n      pop\n      pop\n      pop\n      mload(0x40)\n      returndatasize\n      not(0x1f)\n      0x1f\n      dup3\n      add\n      and\n      dup3\n      add\n      dup1\n      0x40\n      mstore\n      pop\n      dup2\n      add\n      swap1\n      tag_421\n      swap2\n      swap1\n      tag_298\n      jump\t// in\n    tag_421:\n        /* \"Ghosper-NFT-Staking-MasterChef.sol\":37290:37334  ghspToken.balanceOf(address(this)) < pending */\n      lt\n        /* \"Ghosper-NFT-Staking-MasterChef.sol\":37286:37415  if (ghspToken.balanceOf(address(this)) < pending) {\r... */\n      iszero\n      tag_422\n      jumpi\n        /* \"Ghosper-NFT-Staking-MasterChef.sol\":37365:37374  ghspToken */\n      immutable(\"0x2b788c69c84726cb61a0641c648d01bc1bc6568bcab92e0e8975f165cd12fe81\")\n        /* \"Ghosper-NFT-Staking-MasterChef.sol\":37365:37384  ghspToken.balanceOf */\n      0xffffffffffffffffffffffffffffffffffffffff\n      and\n      0x70a08231\n        /* \"Ghosper-NFT-Staking-MasterChef.sol\":37393:37397  this */\n      address\n        /* \"Ghosper-NFT-Staking-MasterChef.sol\":37365:37399  ghspToken.balanceOf(address(this)) */\n      mload(0x40)\n      dup3\n      0xffffffff\n      and\n      0xe0\n      shl\n      dup2\n      mstore\n      0x04\n      add\n      tag_423\n      swap2\n      swap1\n      tag_84\n      jump\t// in\n    tag_423:\n      0x20\n      mload(0x40)\n      dup1\n      dup4\n      sub\n      dup2\n      dup7\n      dup1\n      extcodesize\n      iszero\n      dup1\n      iszero\n      tag_424\n      jumpi\n      0x00\n      dup1\n      revert\n    tag_424:\n      pop\n      gas\n      staticcall\n      iszero\n      dup1\n      iszero\n      tag_426\n      jumpi\n      returndatasize\n      0x00\n      dup1\n      returndatacopy\n      revert(0x00, returndatasize)\n    tag_426:\n      pop\n      pop\n      pop\n      pop\n      mload(0x40)\n      returndatasize\n      not(0x1f)\n      0x1f\n      dup3\n      add\n      and\n      dup3\n      add\n      dup1\n      0x40\n      mstore\n      pop\n      dup2\n      add\n      swap1\n      tag_427\n      swap2\n      swap1\n      tag_298\n      jump\t// in\n    tag_427:\n        /* \"Ghosper-NFT-Staking-MasterChef.sol\":37355:37399  pending = ghspToken.balanceOf(address(this)) */\n      swap1\n      pop\n        /* \"Ghosper-NFT-Staking-MasterChef.sol\":37286:37415  if (ghspToken.balanceOf(address(this)) < pending) {\r... */\n    tag_422:\n        /* \"Ghosper-NFT-Staking-MasterChef.sol\":37450:37481  user.pendingAmount.add(pending) */\n      tag_428\n        /* \"Ghosper-NFT-Staking-MasterChef.sol\":37473:37480  pending */\n      dup2\n        /* \"Ghosper-NFT-Staking-MasterChef.sol\":37450:37454  user */\n      dup6\n        /* \"Ghosper-NFT-Staking-MasterChef.sol\":37450:37468  user.pendingAmount */\n      0x02\n      add\n      sload\n        /* \"Ghosper-NFT-Staking-MasterChef.sol\":37450:37472  user.pendingAmount.add */\n      tag_152\n      swap1\n        /* \"Ghosper-NFT-Staking-MasterChef.sol\":37450:37481  user.pendingAmount.add(pending) */\n      swap2\n      swap1\n      0xffffffff\n      and\n      jump\t// in\n    tag_428:\n        /* \"Ghosper-NFT-Staking-MasterChef.sol\":37429:37433  user */\n      dup5\n        /* \"Ghosper-NFT-Staking-MasterChef.sol\":37429:37447  user.pendingAmount */\n      0x02\n      add\n        /* \"Ghosper-NFT-Staking-MasterChef.sol\":37429:37481  user.pendingAmount = user.pendingAmount.add(pending) */\n      dup2\n      swap1\n      sstore\n      pop\n        /* \"Ghosper-NFT-Staking-MasterChef.sol\":37496:37514  user.amount.sub(1) */\n      tag_429\n        /* \"Ghosper-NFT-Staking-MasterChef.sol\":37512:37513  1 */\n      0x01\n        /* \"Ghosper-NFT-Staking-MasterChef.sol\":37496:37500  user */\n      dup6\n        /* \"Ghosper-NFT-Staking-MasterChef.sol\":37496:37507  user.amount */\n      0x00\n      add\n      sload\n        /* \"Ghosper-NFT-Staking-MasterChef.sol\":37496:37511  user.amount.sub */\n      tag_150\n      swap1\n        /* \"Ghosper-NFT-Staking-MasterChef.sol\":37496:37514  user.amount.sub(1) */\n      swap2\n      swap1\n      0xffffffff\n      and\n      jump\t// in\n    tag_429:\n      pop\n        /* \"Ghosper-NFT-Staking-MasterChef.sol\":37547:37589  user.amount.mul(accGHSPPerShare).div(1e12) */\n      tag_430\n        /* \"Ghosper-NFT-Staking-MasterChef.sol\":37584:37588  1e12 */\n      0xe8d4a51000\n        /* \"Ghosper-NFT-Staking-MasterChef.sol\":37547:37579  user.amount.mul(accGHSPPerShare) */\n      tag_431\n        /* \"Ghosper-NFT-Staking-MasterChef.sol\":37563:37578  accGHSPPerShare */\n      sload(0x03)\n        /* \"Ghosper-NFT-Staking-MasterChef.sol\":37547:37551  user */\n      dup8\n        /* \"Ghosper-NFT-Staking-MasterChef.sol\":37547:37558  user.amount */\n      0x00\n      add\n      sload\n        /* \"Ghosper-NFT-Staking-MasterChef.sol\":37547:37562  user.amount.mul */\n      tag_148\n      swap1\n        /* \"Ghosper-NFT-Staking-MasterChef.sol\":37547:37579  user.amount.mul(accGHSPPerShare) */\n      swap2\n      swap1\n      0xffffffff\n      and\n      jump\t// in\n    tag_431:\n        /* \"Ghosper-NFT-Staking-MasterChef.sol\":37547:37583  user.amount.mul(accGHSPPerShare).div */\n      tag_149\n      swap1\n        /* \"Ghosper-NFT-Staking-MasterChef.sol\":37547:37589  user.amount.mul(accGHSPPerShare).div(1e12) */\n      swap2\n      swap1\n      0xffffffff\n      and\n      jump\t// in\n    tag_430:\n        /* \"Ghosper-NFT-Staking-MasterChef.sol\":37529:37533  user */\n      dup5\n        /* \"Ghosper-NFT-Staking-MasterChef.sol\":37529:37544  user.rewardDebt */\n      0x01\n      add\n        /* \"Ghosper-NFT-Staking-MasterChef.sol\":37529:37589  user.rewardDebt = user.amount.mul(accGHSPPerShare).div(1e12) */\n      dup2\n      swap1\n      sstore\n      pop\n        /* \"Ghosper-NFT-Staking-MasterChef.sol\":37604:37612  nftToken */\n      immutable(\"0x29f8d1998cd4186678d0085cd54072aeefd05bc476ef1844361510d857ac074b\")\n        /* \"Ghosper-NFT-Staking-MasterChef.sol\":37604:37625  nftToken.transferFrom */\n      0xffffffffffffffffffffffffffffffffffffffff\n      and\n      0x23b872dd\n        /* \"Ghosper-NFT-Staking-MasterChef.sol\":37634:37638  this */\n      address\n        /* \"Ghosper-NFT-Staking-MasterChef.sol\":37641:37651  msg.sender */\n      caller\n        /* \"Ghosper-NFT-Staking-MasterChef.sol\":37653:37660  tokenId */\n      dup6\n        /* \"Ghosper-NFT-Staking-MasterChef.sol\":37604:37661  nftToken.transferFrom(address(this), msg.sender, tokenId) */\n      mload(0x40)\n      dup5\n      0xffffffff\n      and\n      0xe0\n      shl\n      dup2\n      mstore\n      0x04\n      add\n      tag_432\n      swap4\n      swap3\n      swap2\n      swap1\n      tag_163\n      jump\t// in\n    tag_432:\n      0x00\n      mload(0x40)\n      dup1\n      dup4\n      sub\n      dup2\n      0x00\n      dup8\n      dup1\n      extcodesize\n      iszero\n      dup1\n      iszero\n      tag_433\n      jumpi\n      0x00\n      dup1\n      revert\n    tag_433:\n      pop\n      gas\n      call\n      iszero\n      dup1\n      iszero\n      tag_435\n      jumpi\n      returndatasize\n      0x00\n      dup1\n      returndatacopy\n      revert(0x00, returndatasize)\n    tag_435:\n      pop\n      pop\n      pop\n      pop\n        /* \"Ghosper-NFT-Staking-MasterChef.sol\":37085:37673  {\r... */\n      pop\n      pop\n        /* \"Ghosper-NFT-Staking-MasterChef.sol\":37080:37084  i ++ */\n      dup1\n      dup1\n      tag_436\n      swap1\n      tag_140\n      jump\t// in\n    tag_436:\n      swap2\n      pop\n      pop\n        /* \"Ghosper-NFT-Staking-MasterChef.sol\":37040:37673  for(uint256 i = 0; i < tokenIds.length; i ++){\r... */\n      jump(tag_409)\n    tag_410:\n      pop\n        /* \"Ghosper-NFT-Staking-MasterChef.sol\":37688:37718  UnStaked(msg.sender, tokenIds) */\n      0x80cc10bf7e52583ae0a17d8dd6ab5005573b17a08091a091af1a81205a675c91\n        /* \"Ghosper-NFT-Staking-MasterChef.sol\":37697:37707  msg.sender */\n      caller\n        /* \"Ghosper-NFT-Staking-MasterChef.sol\":37709:37717  tokenIds */\n      dup5\n      dup5\n        /* \"Ghosper-NFT-Staking-MasterChef.sol\":37688:37718  UnStaked(msg.sender, tokenIds) */\n      mload(0x40)\n      tag_437\n      swap4\n      swap3\n      swap2\n      swap1\n      tag_169\n      jump\t// in\n    tag_437:\n      mload(0x40)\n      dup1\n      swap2\n      sub\n      swap1\n      log1\n        /* \"Ghosper-NFT-Staking-MasterChef.sol\":36466:37726  {\r... */\n      pop\n        /* \"Ghosper-NFT-Staking-MasterChef.sol\":36411:37726  function unstake(uint256[] calldata tokenIds) external {\r... */\n      pop\n      pop\n      jump\t// out\n        /* \"Ghosper-NFT-Staking-MasterChef.sol\":28564:28588  address public feeWallet */\n    tag_109:\n      0x05\n      0x00\n      swap1\n      sload\n      swap1\n      0x0100\n      exp\n      swap1\n      div\n      0xffffffffffffffffffffffffffffffffffffffff\n      and\n      dup2\n      jump\t// out\n        /* \"Ghosper-NFT-Staking-MasterChef.sol\":5820:6021  function transferOwnership(address newOwner) public virtual onlyOwner {\r... */\n    tag_113:\n        /* \"Ghosper-NFT-Staking-MasterChef.sol\":5142:5154  _msgSender() */\n      tag_439\n        /* \"Ghosper-NFT-Staking-MasterChef.sol\":5142:5152  _msgSender */\n      tag_172\n        /* \"Ghosper-NFT-Staking-MasterChef.sol\":5142:5154  _msgSender() */\n      jump\t// in\n    tag_439:\n        /* \"Ghosper-NFT-Staking-MasterChef.sol\":5131:5154  owner() == _msgSender() */\n      0xffffffffffffffffffffffffffffffffffffffff\n      and\n        /* \"Ghosper-NFT-Staking-MasterChef.sol\":5131:5138  owner() */\n      tag_440\n        /* \"Ghosper-NFT-Staking-MasterChef.sol\":5131:5136  owner */\n      tag_82\n        /* \"Ghosper-NFT-Staking-MasterChef.sol\":5131:5138  owner() */\n      jump\t// in\n    tag_440:\n        /* \"Ghosper-NFT-Staking-MasterChef.sol\":5131:5154  owner() == _msgSender() */\n      0xffffffffffffffffffffffffffffffffffffffff\n      and\n      eq\n        /* \"Ghosper-NFT-Staking-MasterChef.sol\":5123:5191  require(owner() == _msgSender(), \"Ownable: caller is not the owner\") */\n      tag_441\n      jumpi\n      mload(0x40)\n      0x08c379a000000000000000000000000000000000000000000000000000000000\n      dup2\n      mstore\n      0x04\n      add\n      tag_442\n      swap1\n      tag_176\n      jump\t// in\n    tag_442:\n      mload(0x40)\n      dup1\n      swap2\n      sub\n      swap1\n      revert\n    tag_441:\n        /* \"Ghosper-NFT-Staking-MasterChef.sol\":5929:5930  0 */\n      0x00\n        /* \"Ghosper-NFT-Staking-MasterChef.sol\":5909:5931  newOwner != address(0) */\n      0xffffffffffffffffffffffffffffffffffffffff\n      and\n        /* \"Ghosper-NFT-Staking-MasterChef.sol\":5909:5917  newOwner */\n      dup2\n        /* \"Ghosper-NFT-Staking-MasterChef.sol\":5909:5931  newOwner != address(0) */\n      0xffffffffffffffffffffffffffffffffffffffff\n      and\n      eq\n      iszero\n        /* \"Ghosper-NFT-Staking-MasterChef.sol\":5901:5974  require(newOwner != address(0), \"Ownable: new owner is the zero address\") */\n      tag_444\n      jumpi\n      mload(0x40)\n      0x08c379a000000000000000000000000000000000000000000000000000000000\n      dup2\n      mstore\n      0x04\n      add\n      tag_445\n      swap1\n      tag_446\n      jump\t// in\n    tag_445:\n      mload(0x40)\n      dup1\n      swap2\n      sub\n      swap1\n      revert\n    tag_444:\n        /* \"Ghosper-NFT-Staking-MasterChef.sol\":5985:6013  _transferOwnership(newOwner) */\n      tag_447\n        /* \"Ghosper-NFT-Staking-MasterChef.sol\":6004:6012  newOwner */\n      dup2\n        /* \"Ghosper-NFT-Staking-MasterChef.sol\":5985:6003  _transferOwnership */\n      tag_333\n        /* \"Ghosper-NFT-Staking-MasterChef.sol\":5985:6013  _transferOwnership(newOwner) */\n      jump\t// in\n    tag_447:\n        /* \"Ghosper-NFT-Staking-MasterChef.sol\":5820:6021  function transferOwnership(address newOwner) public virtual onlyOwner {\r... */\n      pop\n      jump\t// out\n        /* \"Ghosper-NFT-Staking-MasterChef.sol\":34165:35043  function updateStatus() private {\r... */\n    tag_143:\n        /* \"Ghosper-NFT-Staking-MasterChef.sol\":34228:34243  lastRewardBlock */\n      sload(0x02)\n        /* \"Ghosper-NFT-Staking-MasterChef.sol\":34212:34224  block.number */\n      number\n        /* \"Ghosper-NFT-Staking-MasterChef.sol\":34212:34243  block.number <= lastRewardBlock */\n      gt\n        /* \"Ghosper-NFT-Staking-MasterChef.sol\":34208:34278  if (block.number <= lastRewardBlock) {\r... */\n      tag_449\n      jumpi\n        /* \"Ghosper-NFT-Staking-MasterChef.sol\":34260:34267  return; */\n      jump(tag_448)\n        /* \"Ghosper-NFT-Staking-MasterChef.sol\":34208:34278  if (block.number <= lastRewardBlock) {\r... */\n    tag_449:\n        /* \"Ghosper-NFT-Staking-MasterChef.sol\":34313:34314  0 */\n      0x00\n        /* \"Ghosper-NFT-Staking-MasterChef.sol\":34292:34309  totalStakedAmount */\n      sload(0x07)\n        /* \"Ghosper-NFT-Staking-MasterChef.sol\":34292:34314  totalStakedAmount == 0 */\n      eq\n        /* \"Ghosper-NFT-Staking-MasterChef.sol\":34288:34394  if (totalStakedAmount == 0) {\r... */\n      iszero\n      tag_450\n      jumpi\n        /* \"Ghosper-NFT-Staking-MasterChef.sol\":34349:34361  block.number */\n      number\n        /* \"Ghosper-NFT-Staking-MasterChef.sol\":34331:34346  lastRewardBlock */\n      0x02\n        /* \"Ghosper-NFT-Staking-MasterChef.sol\":34331:34361  lastRewardBlock = block.number */\n      dup2\n      swap1\n      sstore\n      pop\n        /* \"Ghosper-NFT-Staking-MasterChef.sol\":34376:34383  return; */\n      jump(tag_448)\n        /* \"Ghosper-NFT-Staking-MasterChef.sol\":34288:34394  if (totalStakedAmount == 0) {\r... */\n    tag_450:\n        /* \"Ghosper-NFT-Staking-MasterChef.sol\":34404:34422  uint256 multiplier */\n      0x00\n        /* \"Ghosper-NFT-Staking-MasterChef.sol\":34425:34469  getMultiplier(lastRewardBlock, block.number) */\n      tag_451\n        /* \"Ghosper-NFT-Staking-MasterChef.sol\":34439:34454  lastRewardBlock */\n      sload(0x02)\n        /* \"Ghosper-NFT-Staking-MasterChef.sol\":34456:34468  block.number */\n      number\n        /* \"Ghosper-NFT-Staking-MasterChef.sol\":34425:34438  getMultiplier */\n      tag_87\n        /* \"Ghosper-NFT-Staking-MasterChef.sol\":34425:34469  getMultiplier(lastRewardBlock, block.number) */\n      jump\t// in\n    tag_451:\n        /* \"Ghosper-NFT-Staking-MasterChef.sol\":34404:34469  uint256 multiplier = getMultiplier(lastRewardBlock, block.number) */\n      swap1\n      pop\n        /* \"Ghosper-NFT-Staking-MasterChef.sol\":34480:34494  uint256 reward */\n      0x00\n        /* \"Ghosper-NFT-Staking-MasterChef.sol\":34497:34527  multiplier.mul(rewardPerBlock) */\n      tag_452\n        /* \"Ghosper-NFT-Staking-MasterChef.sol\":34512:34526  rewardPerBlock */\n      sload(0x04)\n        /* \"Ghosper-NFT-Staking-MasterChef.sol\":34497:34507  multiplier */\n      dup4\n        /* \"Ghosper-NFT-Staking-MasterChef.sol\":34497:34511  multiplier.mul */\n      tag_148\n      swap1\n        /* \"Ghosper-NFT-Staking-MasterChef.sol\":34497:34527  multiplier.mul(rewardPerBlock) */\n      swap2\n      swap1\n      0xffffffff\n      and\n      jump\t// in\n    tag_452:\n        /* \"Ghosper-NFT-Staking-MasterChef.sol\":34480:34527  uint256 reward = multiplier.mul(rewardPerBlock) */\n      swap1\n      pop\n        /* \"Ghosper-NFT-Staking-MasterChef.sol\":34560:34561  0 */\n      0x00\n        /* \"Ghosper-NFT-Staking-MasterChef.sol\":34542:34556  _rewardBalance */\n      sload(0x08)\n        /* \"Ghosper-NFT-Staking-MasterChef.sol\":34542:34561  _rewardBalance == 0 */\n      eq\n        /* \"Ghosper-NFT-Staking-MasterChef.sol\":34538:34641  if (_rewardBalance == 0) {\r... */\n      iszero\n      tag_453\n      jumpi\n        /* \"Ghosper-NFT-Staking-MasterChef.sol\":34596:34608  block.number */\n      number\n        /* \"Ghosper-NFT-Staking-MasterChef.sol\":34578:34593  lastRewardBlock */\n      0x02\n        /* \"Ghosper-NFT-Staking-MasterChef.sol\":34578:34608  lastRewardBlock = block.number */\n      dup2\n      swap1\n      sstore\n      pop\n        /* \"Ghosper-NFT-Staking-MasterChef.sol\":34623:34630  return; */\n      pop\n      pop\n      jump(tag_448)\n        /* \"Ghosper-NFT-Staking-MasterChef.sol\":34538:34641  if (_rewardBalance == 0) {\r... */\n    tag_453:\n        /* \"Ghosper-NFT-Staking-MasterChef.sol\":34672:34678  reward */\n      dup1\n        /* \"Ghosper-NFT-Staking-MasterChef.sol\":34655:34669  _rewardBalance */\n      sload(0x08)\n        /* \"Ghosper-NFT-Staking-MasterChef.sol\":34655:34678  _rewardBalance < reward */\n      lt\n        /* \"Ghosper-NFT-Staking-MasterChef.sol\":34651:34995  if (_rewardBalance < reward) {\r... */\n      iszero\n      tag_454\n      jumpi\n        /* \"Ghosper-NFT-Staking-MasterChef.sol\":34713:34781  accGHSPPerShare.add(_rewardBalance.mul(1e12).div(totalStakedAmount)) */\n      tag_455\n        /* \"Ghosper-NFT-Staking-MasterChef.sol\":34733:34780  _rewardBalance.mul(1e12).div(totalStakedAmount) */\n      tag_456\n        /* \"Ghosper-NFT-Staking-MasterChef.sol\":34762:34779  totalStakedAmount */\n      sload(0x07)\n        /* \"Ghosper-NFT-Staking-MasterChef.sol\":34733:34757  _rewardBalance.mul(1e12) */\n      tag_457\n        /* \"Ghosper-NFT-Staking-MasterChef.sol\":34752:34756  1e12 */\n      0xe8d4a51000\n        /* \"Ghosper-NFT-Staking-MasterChef.sol\":34733:34747  _rewardBalance */\n      sload(0x08)\n        /* \"Ghosper-NFT-Staking-MasterChef.sol\":34733:34751  _rewardBalance.mul */\n      tag_148\n      swap1\n        /* \"Ghosper-NFT-Staking-MasterChef.sol\":34733:34757  _rewardBalance.mul(1e12) */\n      swap2\n      swap1\n      0xffffffff\n      and\n      jump\t// in\n    tag_457:\n        /* \"Ghosper-NFT-Staking-MasterChef.sol\":34733:34761  _rewardBalance.mul(1e12).div */\n      tag_149\n      swap1\n        /* \"Ghosper-NFT-Staking-MasterChef.sol\":34733:34780  _rewardBalance.mul(1e12).div(totalStakedAmount) */\n      swap2\n      swap1\n      0xffffffff\n      and\n      jump\t// in\n    tag_456:\n        /* \"Ghosper-NFT-Staking-MasterChef.sol\":34713:34728  accGHSPPerShare */\n      sload(0x03)\n        /* \"Ghosper-NFT-Staking-MasterChef.sol\":34713:34732  accGHSPPerShare.add */\n      tag_152\n      swap1\n        /* \"Ghosper-NFT-Staking-MasterChef.sol\":34713:34781  accGHSPPerShare.add(_rewardBalance.mul(1e12).div(totalStakedAmount)) */\n      swap2\n      swap1\n      0xffffffff\n      and\n      jump\t// in\n    tag_455:\n        /* \"Ghosper-NFT-Staking-MasterChef.sol\":34695:34710  accGHSPPerShare */\n      0x03\n        /* \"Ghosper-NFT-Staking-MasterChef.sol\":34695:34781  accGHSPPerShare = accGHSPPerShare.add(_rewardBalance.mul(1e12).div(totalStakedAmount)) */\n      dup2\n      swap1\n      sstore\n      pop\n        /* \"Ghosper-NFT-Staking-MasterChef.sol\":34813:34814  0 */\n      0x00\n        /* \"Ghosper-NFT-Staking-MasterChef.sol\":34796:34810  _rewardBalance */\n      0x08\n        /* \"Ghosper-NFT-Staking-MasterChef.sol\":34796:34814  _rewardBalance = 0 */\n      dup2\n      swap1\n      sstore\n      pop\n        /* \"Ghosper-NFT-Staking-MasterChef.sol\":34651:34995  if (_rewardBalance < reward) {\r... */\n      jump(tag_458)\n    tag_454:\n        /* \"Ghosper-NFT-Staking-MasterChef.sol\":34864:34890  _rewardBalance.sub(reward) */\n      tag_459\n        /* \"Ghosper-NFT-Staking-MasterChef.sol\":34883:34889  reward */\n      dup2\n        /* \"Ghosper-NFT-Staking-MasterChef.sol\":34864:34878  _rewardBalance */\n      sload(0x08)\n        /* \"Ghosper-NFT-Staking-MasterChef.sol\":34864:34882  _rewardBalance.sub */\n      tag_150\n      swap1\n        /* \"Ghosper-NFT-Staking-MasterChef.sol\":34864:34890  _rewardBalance.sub(reward) */\n      swap2\n      swap1\n      0xffffffff\n      and\n      jump\t// in\n    tag_459:\n        /* \"Ghosper-NFT-Staking-MasterChef.sol\":34847:34861  _rewardBalance */\n      0x08\n        /* \"Ghosper-NFT-Staking-MasterChef.sol\":34847:34890  _rewardBalance = _rewardBalance.sub(reward) */\n      dup2\n      swap1\n      sstore\n      pop\n        /* \"Ghosper-NFT-Staking-MasterChef.sol\":34923:34983  accGHSPPerShare.add(reward.mul(1e12).div(totalStakedAmount)) */\n      tag_460\n        /* \"Ghosper-NFT-Staking-MasterChef.sol\":34943:34982  reward.mul(1e12).div(totalStakedAmount) */\n      tag_461\n        /* \"Ghosper-NFT-Staking-MasterChef.sol\":34964:34981  totalStakedAmount */\n      sload(0x07)\n        /* \"Ghosper-NFT-Staking-MasterChef.sol\":34943:34959  reward.mul(1e12) */\n      tag_462\n        /* \"Ghosper-NFT-Staking-MasterChef.sol\":34954:34958  1e12 */\n      0xe8d4a51000\n        /* \"Ghosper-NFT-Staking-MasterChef.sol\":34943:34949  reward */\n      dup6\n        /* \"Ghosper-NFT-Staking-MasterChef.sol\":34943:34953  reward.mul */\n      tag_148\n      swap1\n        /* \"Ghosper-NFT-Staking-MasterChef.sol\":34943:34959  reward.mul(1e12) */\n      swap2\n      swap1\n      0xffffffff\n      and\n      jump\t// in\n    tag_462:\n        /* \"Ghosper-NFT-Staking-MasterChef.sol\":34943:34963  reward.mul(1e12).div */\n      tag_149\n      swap1\n        /* \"Ghosper-NFT-Staking-MasterChef.sol\":34943:34982  reward.mul(1e12).div(totalStakedAmount) */\n      swap2\n      swap1\n      0xffffffff\n      and\n      jump\t// in\n    tag_461:\n        /* \"Ghosper-NFT-Staking-MasterChef.sol\":34923:34938  accGHSPPerShare */\n      sload(0x03)\n        /* \"Ghosper-NFT-Staking-MasterChef.sol\":34923:34942  accGHSPPerShare.add */\n      tag_152\n      swap1\n        /* \"Ghosper-NFT-Staking-MasterChef.sol\":34923:34983  accGHSPPerShare.add(reward.mul(1e12).div(totalStakedAmount)) */\n      swap2\n      swap1\n      0xffffffff\n      and\n      jump\t// in\n    tag_460:\n        /* \"Ghosper-NFT-Staking-MasterChef.sol\":34905:34920  accGHSPPerShare */\n      0x03\n        /* \"Ghosper-NFT-Staking-MasterChef.sol\":34905:34983  accGHSPPerShare = accGHSPPerShare.add(reward.mul(1e12).div(totalStakedAmount)) */\n      dup2\n      swap1\n      sstore\n      pop\n        /* \"Ghosper-NFT-Staking-MasterChef.sol\":34651:34995  if (_rewardBalance < reward) {\r... */\n    tag_458:\n        /* \"Ghosper-NFT-Staking-MasterChef.sol\":35023:35035  block.number */\n      number\n        /* \"Ghosper-NFT-Staking-MasterChef.sol\":35005:35020  lastRewardBlock */\n      0x02\n        /* \"Ghosper-NFT-Staking-MasterChef.sol\":35005:35035  lastRewardBlock = block.number */\n      dup2\n      swap1\n      sstore\n      pop\n        /* \"Ghosper-NFT-Staking-MasterChef.sol\":34197:35043  {\r... */\n      pop\n      pop\n        /* \"Ghosper-NFT-Staking-MasterChef.sol\":34165:35043  function updateStatus() private {\r... */\n    tag_448:\n      jump\t// out\n        /* \"Ghosper-NFT-Staking-MasterChef.sol\":9698:9796  function mul(uint256 a, uint256 b) internal pure returns (uint256) {\r... */\n    tag_148:\n        /* \"Ghosper-NFT-Staking-MasterChef.sol\":9756:9763  uint256 */\n      0x00\n        /* \"Ghosper-NFT-Staking-MasterChef.sol\":9787:9788  b */\n      dup2\n        /* \"Ghosper-NFT-Staking-MasterChef.sol\":9783:9784  a */\n      dup4\n        /* \"Ghosper-NFT-Staking-MasterChef.sol\":9783:9788  a * b */\n      tag_464\n      swap2\n      swap1\n      tag_465\n      jump\t// in\n    tag_464:\n        /* \"Ghosper-NFT-Staking-MasterChef.sol\":9776:9788  return a * b */\n      swap1\n      pop\n        /* \"Ghosper-NFT-Staking-MasterChef.sol\":9698:9796  function mul(uint256 a, uint256 b) internal pure returns (uint256) {\r... */\n      swap3\n      swap2\n      pop\n      pop\n      jump\t// out\n        /* \"Ghosper-NFT-Staking-MasterChef.sol\":10097:10195  function div(uint256 a, uint256 b) internal pure returns (uint256) {\r... */\n    tag_149:\n        /* \"Ghosper-NFT-Staking-MasterChef.sol\":10155:10162  uint256 */\n      0x00\n        /* \"Ghosper-NFT-Staking-MasterChef.sol\":10186:10187  b */\n      dup2\n        /* \"Ghosper-NFT-Staking-MasterChef.sol\":10182:10183  a */\n      dup4\n        /* \"Ghosper-NFT-Staking-MasterChef.sol\":10182:10187  a / b */\n      tag_467\n      swap2\n      swap1\n      tag_468\n      jump\t// in\n    tag_467:\n        /* \"Ghosper-NFT-Staking-MasterChef.sol\":10175:10187  return a / b */\n      swap1\n      pop\n        /* \"Ghosper-NFT-Staking-MasterChef.sol\":10097:10195  function div(uint256 a, uint256 b) internal pure returns (uint256) {\r... */\n      swap3\n      swap2\n      pop\n      pop\n      jump\t// out\n        /* \"Ghosper-NFT-Staking-MasterChef.sol\":9341:9439  function sub(uint256 a, uint256 b) internal pure returns (uint256) {\r... */\n    tag_150:\n        /* \"Ghosper-NFT-Staking-MasterChef.sol\":9399:9406  uint256 */\n      0x00\n        /* \"Ghosper-NFT-Staking-MasterChef.sol\":9430:9431  b */\n      dup2\n        /* \"Ghosper-NFT-Staking-MasterChef.sol\":9426:9427  a */\n      dup4\n        /* \"Ghosper-NFT-Staking-MasterChef.sol\":9426:9431  a - b */\n      tag_470\n      swap2\n      swap1\n      tag_202\n      jump\t// in\n    tag_470:\n        /* \"Ghosper-NFT-Staking-MasterChef.sol\":9419:9431  return a - b */\n      swap1\n      pop\n        /* \"Ghosper-NFT-Staking-MasterChef.sol\":9341:9439  function sub(uint256 a, uint256 b) internal pure returns (uint256) {\r... */\n      swap3\n      swap2\n      pop\n      pop\n      jump\t// out\n        /* \"Ghosper-NFT-Staking-MasterChef.sol\":8960:9058  function add(uint256 a, uint256 b) internal pure returns (uint256) {\r... */\n    tag_152:\n        /* \"Ghosper-NFT-Staking-MasterChef.sol\":9018:9025  uint256 */\n      0x00\n        /* \"Ghosper-NFT-Staking-MasterChef.sol\":9049:9050  b */\n      dup2\n        /* \"Ghosper-NFT-Staking-MasterChef.sol\":9045:9046  a */\n      dup4\n        /* \"Ghosper-NFT-Staking-MasterChef.sol\":9045:9050  a + b */\n      tag_472\n      swap2\n      swap1\n      tag_131\n      jump\t// in\n    tag_472:\n        /* \"Ghosper-NFT-Staking-MasterChef.sol\":9038:9050  return a + b */\n      swap1\n      pop\n        /* \"Ghosper-NFT-Staking-MasterChef.sol\":8960:9058  function add(uint256 a, uint256 b) internal pure returns (uint256) {\r... */\n      swap3\n      swap2\n      pop\n      pop\n      jump\t// out\n        /* \"Ghosper-NFT-Staking-MasterChef.sol\":3751:3849  function _msgSender() internal view virtual returns (address) {\r... */\n    tag_172:\n        /* \"Ghosper-NFT-Staking-MasterChef.sol\":3804:3811  address */\n      0x00\n        /* \"Ghosper-NFT-Staking-MasterChef.sol\":3831:3841  msg.sender */\n      caller\n        /* \"Ghosper-NFT-Staking-MasterChef.sol\":3824:3841  return msg.sender */\n      swap1\n      pop\n        /* \"Ghosper-NFT-Staking-MasterChef.sol\":3751:3849  function _msgSender() internal view virtual returns (address) {\r... */\n      swap1\n      jump\t// out\n        /* \"Ghosper-NFT-Staking-MasterChef.sol\":13429:13634  function safeTransferFrom(IBEP20 token, address from, address to, uint256 value) internal {\r... */\n    tag_256:\n        /* \"Ghosper-NFT-Staking-MasterChef.sol\":13530:13626  _callOptionalReturn(token, abi.encodeWithSelector(token.transferFrom.selector, from, to, value)) */\n      tag_475\n        /* \"Ghosper-NFT-Staking-MasterChef.sol\":13550:13555  token */\n      dup5\n        /* \"Ghosper-NFT-Staking-MasterChef.sol\":13580:13607  token.transferFrom.selector */\n      shl(0xe0, 0x23b872dd)\n        /* \"Ghosper-NFT-Staking-MasterChef.sol\":13609:13613  from */\n      dup6\n        /* \"Ghosper-NFT-Staking-MasterChef.sol\":13615:13617  to */\n      dup6\n        /* \"Ghosper-NFT-Staking-MasterChef.sol\":13619:13624  value */\n      dup6\n        /* \"Ghosper-NFT-Staking-MasterChef.sol\":13557:13625  abi.encodeWithSelector(token.transferFrom.selector, from, to, value) */\n      add(0x24, mload(0x40))\n      tag_476\n      swap4\n      swap3\n      swap2\n      swap1\n      tag_163\n      jump\t// in\n    tag_476:\n      mload(0x40)\n      0x20\n      dup2\n      dup4\n      sub\n      sub\n      dup2\n      mstore\n      swap1\n      0x40\n      mstore\n      swap1\n      not(0xffffffffffffffffffffffffffffffffffffffffffffffffffffffff)\n      and\n      0x20\n      dup3\n      add\n      dup1\n      mload\n      0xffffffffffffffffffffffffffffffffffffffffffffffffffffffff\n      dup4\n      dup2\n      dup4\n      and\n      or\n      dup4\n      mstore\n      pop\n      pop\n      pop\n      pop\n        /* \"Ghosper-NFT-Staking-MasterChef.sol\":13530:13549  _callOptionalReturn */\n      tag_477\n        /* \"Ghosper-NFT-Staking-MasterChef.sol\":13530:13626  _callOptionalReturn(token, abi.encodeWithSelector(token.transferFrom.selector, from, to, value)) */\n      jump\t// in\n    tag_475:\n        /* \"Ghosper-NFT-Staking-MasterChef.sol\":13429:13634  function safeTransferFrom(IBEP20 token, address from, address to, uint256 value) internal {\r... */\n      pop\n      pop\n      pop\n      pop\n      jump\t// out\n        /* \"Ghosper-NFT-Staking-MasterChef.sol\":37734:38287  function _getPending(address _user) private view returns (uint256) {\r... */\n    tag_289:\n        /* \"Ghosper-NFT-Staking-MasterChef.sol\":37792:37799  uint256 */\n      0x00\n        /* \"Ghosper-NFT-Staking-MasterChef.sol\":37812:37833  UserInfo storage user */\n      dup1\n        /* \"Ghosper-NFT-Staking-MasterChef.sol\":37836:37844  userInfo */\n      0x0b\n        /* \"Ghosper-NFT-Staking-MasterChef.sol\":37836:37851  userInfo[_user] */\n      0x00\n        /* \"Ghosper-NFT-Staking-MasterChef.sol\":37845:37850  _user */\n      dup5\n        /* \"Ghosper-NFT-Staking-MasterChef.sol\":37836:37851  userInfo[_user] */\n      0xffffffffffffffffffffffffffffffffffffffff\n      and\n      0xffffffffffffffffffffffffffffffffffffffff\n      and\n      dup2\n      mstore\n      0x20\n      add\n      swap1\n      dup2\n      mstore\n      0x20\n      add\n      0x00\n      keccak256\n        /* \"Ghosper-NFT-Staking-MasterChef.sol\":37812:37851  UserInfo storage user = userInfo[_user] */\n      swap1\n      pop\n        /* \"Ghosper-NFT-Staking-MasterChef.sol\":37862:37873  uint256 acc */\n      0x00\n        /* \"Ghosper-NFT-Staking-MasterChef.sol\":37876:37891  accGHSPPerShare */\n      sload(0x03)\n        /* \"Ghosper-NFT-Staking-MasterChef.sol\":37862:37891  uint256 acc = accGHSPPerShare */\n      swap1\n      pop\n        /* \"Ghosper-NFT-Staking-MasterChef.sol\":37921:37936  lastRewardBlock */\n      sload(0x02)\n        /* \"Ghosper-NFT-Staking-MasterChef.sol\":37906:37918  block.number */\n      number\n        /* \"Ghosper-NFT-Staking-MasterChef.sol\":37906:37936  block.number > lastRewardBlock */\n      gt\n        /* \"Ghosper-NFT-Staking-MasterChef.sol\":37906:37962  block.number > lastRewardBlock && totalStakedAmount != 0 */\n      dup1\n      iszero\n      tag_479\n      jumpi\n      pop\n        /* \"Ghosper-NFT-Staking-MasterChef.sol\":37961:37962  0 */\n      0x00\n        /* \"Ghosper-NFT-Staking-MasterChef.sol\":37940:37957  totalStakedAmount */\n      sload(0x07)\n        /* \"Ghosper-NFT-Staking-MasterChef.sol\":37940:37962  totalStakedAmount != 0 */\n      eq\n      iszero\n        /* \"Ghosper-NFT-Staking-MasterChef.sol\":37906:37962  block.number > lastRewardBlock && totalStakedAmount != 0 */\n    tag_479:\n        /* \"Ghosper-NFT-Staking-MasterChef.sol\":37902:38187  if (block.number > lastRewardBlock && totalStakedAmount != 0) {\r... */\n      iszero\n      tag_480\n      jumpi\n        /* \"Ghosper-NFT-Staking-MasterChef.sol\":37979:37997  uint256 multiplier */\n      0x00\n        /* \"Ghosper-NFT-Staking-MasterChef.sol\":38000:38044  getMultiplier(lastRewardBlock, block.number) */\n      tag_481\n        /* \"Ghosper-NFT-Staking-MasterChef.sol\":38014:38029  lastRewardBlock */\n      sload(0x02)\n        /* \"Ghosper-NFT-Staking-MasterChef.sol\":38031:38043  block.number */\n      number\n        /* \"Ghosper-NFT-Staking-MasterChef.sol\":38000:38013  getMultiplier */\n      tag_87\n        /* \"Ghosper-NFT-Staking-MasterChef.sol\":38000:38044  getMultiplier(lastRewardBlock, block.number) */\n      jump\t// in\n    tag_481:\n        /* \"Ghosper-NFT-Staking-MasterChef.sol\":37979:38044  uint256 multiplier = getMultiplier(lastRewardBlock, block.number) */\n      swap1\n      pop\n        /* \"Ghosper-NFT-Staking-MasterChef.sol\":38059:38073  uint256 reward */\n      0x00\n        /* \"Ghosper-NFT-Staking-MasterChef.sol\":38076:38106  multiplier.mul(rewardPerBlock) */\n      tag_482\n        /* \"Ghosper-NFT-Staking-MasterChef.sol\":38091:38105  rewardPerBlock */\n      sload(0x04)\n        /* \"Ghosper-NFT-Staking-MasterChef.sol\":38076:38086  multiplier */\n      dup4\n        /* \"Ghosper-NFT-Staking-MasterChef.sol\":38076:38090  multiplier.mul */\n      tag_148\n      swap1\n        /* \"Ghosper-NFT-Staking-MasterChef.sol\":38076:38106  multiplier.mul(rewardPerBlock) */\n      swap2\n      swap1\n      0xffffffff\n      and\n      jump\t// in\n    tag_482:\n        /* \"Ghosper-NFT-Staking-MasterChef.sol\":38059:38106  uint256 reward = multiplier.mul(rewardPerBlock) */\n      swap1\n      pop\n        /* \"Ghosper-NFT-Staking-MasterChef.sol\":38127:38175  acc.add(reward.mul(1e12).div(totalStakedAmount)) */\n      tag_483\n        /* \"Ghosper-NFT-Staking-MasterChef.sol\":38135:38174  reward.mul(1e12).div(totalStakedAmount) */\n      tag_484\n        /* \"Ghosper-NFT-Staking-MasterChef.sol\":38156:38173  totalStakedAmount */\n      sload(0x07)\n        /* \"Ghosper-NFT-Staking-MasterChef.sol\":38135:38151  reward.mul(1e12) */\n      tag_485\n        /* \"Ghosper-NFT-Staking-MasterChef.sol\":38146:38150  1e12 */\n      0xe8d4a51000\n        /* \"Ghosper-NFT-Staking-MasterChef.sol\":38135:38141  reward */\n      dup6\n        /* \"Ghosper-NFT-Staking-MasterChef.sol\":38135:38145  reward.mul */\n      tag_148\n      swap1\n        /* \"Ghosper-NFT-Staking-MasterChef.sol\":38135:38151  reward.mul(1e12) */\n      swap2\n      swap1\n      0xffffffff\n      and\n      jump\t// in\n    tag_485:\n        /* \"Ghosper-NFT-Staking-MasterChef.sol\":38135:38155  reward.mul(1e12).div */\n      tag_149\n      swap1\n        /* \"Ghosper-NFT-Staking-MasterChef.sol\":38135:38174  reward.mul(1e12).div(totalStakedAmount) */\n      swap2\n      swap1\n      0xffffffff\n      and\n      jump\t// in\n    tag_484:\n        /* \"Ghosper-NFT-Staking-MasterChef.sol\":38127:38130  acc */\n      dup5\n        /* \"Ghosper-NFT-Staking-MasterChef.sol\":38127:38134  acc.add */\n      tag_152\n      swap1\n        /* \"Ghosper-NFT-Staking-MasterChef.sol\":38127:38175  acc.add(reward.mul(1e12).div(totalStakedAmount)) */\n      swap2\n      swap1\n      0xffffffff\n      and\n      jump\t// in\n    tag_483:\n        /* \"Ghosper-NFT-Staking-MasterChef.sol\":38121:38175  acc = acc.add(reward.mul(1e12).div(totalStakedAmount)) */\n      swap3\n      pop\n        /* \"Ghosper-NFT-Staking-MasterChef.sol\":37964:38187  {\r... */\n      pop\n      pop\n        /* \"Ghosper-NFT-Staking-MasterChef.sol\":37902:38187  if (block.number > lastRewardBlock && totalStakedAmount != 0) {\r... */\n    tag_480:\n        /* \"Ghosper-NFT-Staking-MasterChef.sol\":38204:38279  user.amount.mul(acc).div(1e12).sub(user.rewardDebt).add(user.pendingAmount) */\n      tag_486\n        /* \"Ghosper-NFT-Staking-MasterChef.sol\":38260:38264  user */\n      dup3\n        /* \"Ghosper-NFT-Staking-MasterChef.sol\":38260:38278  user.pendingAmount */\n      0x02\n      add\n      sload\n        /* \"Ghosper-NFT-Staking-MasterChef.sol\":38204:38255  user.amount.mul(acc).div(1e12).sub(user.rewardDebt) */\n      tag_487\n        /* \"Ghosper-NFT-Staking-MasterChef.sol\":38239:38243  user */\n      dup5\n        /* \"Ghosper-NFT-Staking-MasterChef.sol\":38239:38254  user.rewardDebt */\n      0x01\n      add\n      sload\n        /* \"Ghosper-NFT-Staking-MasterChef.sol\":38204:38234  user.amount.mul(acc).div(1e12) */\n      tag_488\n        /* \"Ghosper-NFT-Staking-MasterChef.sol\":38229:38233  1e12 */\n      0xe8d4a51000\n        /* \"Ghosper-NFT-Staking-MasterChef.sol\":38204:38224  user.amount.mul(acc) */\n      tag_489\n        /* \"Ghosper-NFT-Staking-MasterChef.sol\":38220:38223  acc */\n      dup8\n        /* \"Ghosper-NFT-Staking-MasterChef.sol\":38204:38208  user */\n      dup10\n        /* \"Ghosper-NFT-Staking-MasterChef.sol\":38204:38215  user.amount */\n      0x00\n      add\n      sload\n        /* \"Ghosper-NFT-Staking-MasterChef.sol\":38204:38219  user.amount.mul */\n      tag_148\n      swap1\n        /* \"Ghosper-NFT-Staking-MasterChef.sol\":38204:38224  user.amount.mul(acc) */\n      swap2\n      swap1\n      0xffffffff\n      and\n      jump\t// in\n    tag_489:\n        /* \"Ghosper-NFT-Staking-MasterChef.sol\":38204:38228  user.amount.mul(acc).div */\n      tag_149\n      swap1\n        /* \"Ghosper-NFT-Staking-MasterChef.sol\":38204:38234  user.amount.mul(acc).div(1e12) */\n      swap2\n      swap1\n      0xffffffff\n      and\n      jump\t// in\n    tag_488:\n        /* \"Ghosper-NFT-Staking-MasterChef.sol\":38204:38238  user.amount.mul(acc).div(1e12).sub */\n      tag_150\n      swap1\n        /* \"Ghosper-NFT-Staking-MasterChef.sol\":38204:38255  user.amount.mul(acc).div(1e12).sub(user.rewardDebt) */\n      swap2\n      swap1\n      0xffffffff\n      and\n      jump\t// in\n    tag_487:\n        /* \"Ghosper-NFT-Staking-MasterChef.sol\":38204:38259  user.amount.mul(acc).div(1e12).sub(user.rewardDebt).add */\n      tag_152\n      swap1\n        /* \"Ghosper-NFT-Staking-MasterChef.sol\":38204:38279  user.amount.mul(acc).div(1e12).sub(user.rewardDebt).add(user.pendingAmount) */\n      swap2\n      swap1\n      0xffffffff\n      and\n      jump\t// in\n    tag_486:\n        /* \"Ghosper-NFT-Staking-MasterChef.sol\":38197:38279  return user.amount.mul(acc).div(1e12).sub(user.rewardDebt).add(user.pendingAmount) */\n      swap3\n      pop\n      pop\n      pop\n        /* \"Ghosper-NFT-Staking-MasterChef.sol\":37734:38287  function _getPending(address _user) private view returns (uint256) {\r... */\n      swap2\n      swap1\n      pop\n      jump\t// out\n        /* \"Ghosper-NFT-Staking-MasterChef.sol\":13244:13421  function safeTransfer(IBEP20 token, address to, uint256 value) internal {\r... */\n    tag_306:\n        /* \"Ghosper-NFT-Staking-MasterChef.sol\":13327:13413  _callOptionalReturn(token, abi.encodeWithSelector(token.transfer.selector, to, value)) */\n      tag_491\n        /* \"Ghosper-NFT-Staking-MasterChef.sol\":13347:13352  token */\n      dup4\n        /* \"Ghosper-NFT-Staking-MasterChef.sol\":13377:13400  token.transfer.selector */\n      shl(0xe0, 0xa9059cbb)\n        /* \"Ghosper-NFT-Staking-MasterChef.sol\":13402:13404  to */\n      dup5\n        /* \"Ghosper-NFT-Staking-MasterChef.sol\":13406:13411  value */\n      dup5\n        /* \"Ghosper-NFT-Staking-MasterChef.sol\":13354:13412  abi.encodeWithSelector(token.transfer.selector, to, value) */\n      add(0x24, mload(0x40))\n      tag_492\n      swap3\n      swap2\n      swap1\n      tag_493\n      jump\t// in\n    tag_492:\n      mload(0x40)\n      0x20\n      dup2\n      dup4\n      sub\n      sub\n      dup2\n      mstore\n      swap1\n      0x40\n      mstore\n      swap1\n      not(0xffffffffffffffffffffffffffffffffffffffffffffffffffffffff)\n      and\n      0x20\n      dup3\n      add\n      dup1\n      mload\n      0xffffffffffffffffffffffffffffffffffffffffffffffffffffffff\n      dup4\n      dup2\n      dup4\n      and\n      or\n      dup4\n      mstore\n      pop\n      pop\n      pop\n      pop\n        /* \"Ghosper-NFT-Staking-MasterChef.sol\":13327:13346  _callOptionalReturn */\n      tag_477\n        /* \"Ghosper-NFT-Staking-MasterChef.sol\":13327:13413  _callOptionalReturn(token, abi.encodeWithSelector(token.transfer.selector, to, value)) */\n      jump\t// in\n    tag_491:\n        /* \"Ghosper-NFT-Staking-MasterChef.sol\":13244:13421  function safeTransfer(IBEP20 token, address to, uint256 value) internal {\r... */\n      pop\n      pop\n      pop\n      jump\t// out\n        /* \"Ghosper-NFT-Staking-MasterChef.sol\":6181:6372  function _transferOwnership(address newOwner) internal virtual {\r... */\n    tag_333:\n        /* \"Ghosper-NFT-Staking-MasterChef.sol\":6255:6271  address oldOwner */\n      0x00\n        /* \"Ghosper-NFT-Staking-MasterChef.sol\":6274:6280  _owner */\n      dup1\n      0x00\n      swap1\n      sload\n      swap1\n      0x0100\n      exp\n      swap1\n      div\n      0xffffffffffffffffffffffffffffffffffffffff\n      and\n        /* \"Ghosper-NFT-Staking-MasterChef.sol\":6255:6280  address oldOwner = _owner */\n      swap1\n      pop\n        /* \"Ghosper-NFT-Staking-MasterChef.sol\":6300:6308  newOwner */\n      dup2\n        /* \"Ghosper-NFT-Staking-MasterChef.sol\":6291:6297  _owner */\n      0x00\n      dup1\n        /* \"Ghosper-NFT-Staking-MasterChef.sol\":6291:6308  _owner = newOwner */\n      0x0100\n      exp\n      dup2\n      sload\n      dup2\n      0xffffffffffffffffffffffffffffffffffffffff\n      mul\n      not\n      and\n      swap1\n      dup4\n      0xffffffffffffffffffffffffffffffffffffffff\n      and\n      mul\n      or\n      swap1\n      sstore\n      pop\n        /* \"Ghosper-NFT-Staking-MasterChef.sol\":6355:6363  newOwner */\n      dup2\n        /* \"Ghosper-NFT-Staking-MasterChef.sol\":6324:6364  OwnershipTransferred(oldOwner, newOwner) */\n      0xffffffffffffffffffffffffffffffffffffffff\n      and\n        /* \"Ghosper-NFT-Staking-MasterChef.sol\":6345:6353  oldOwner */\n      dup2\n        /* \"Ghosper-NFT-Staking-MasterChef.sol\":6324:6364  OwnershipTransferred(oldOwner, newOwner) */\n      0xffffffffffffffffffffffffffffffffffffffff\n      and\n      0x8be0079c531659141344cd1fd0a4f28419497f9722a3daafe3b4186f6b6457e0\n      mload(0x40)\n      mload(0x40)\n      dup1\n      swap2\n      sub\n      swap1\n      log3\n        /* \"Ghosper-NFT-Staking-MasterChef.sol\":6244:6372  {\r... */\n      pop\n        /* \"Ghosper-NFT-Staking-MasterChef.sol\":6181:6372  function _transferOwnership(address newOwner) internal virtual {\r... */\n      pop\n      jump\t// out\n        /* \"Ghosper-NFT-Staking-MasterChef.sol\":15549:16310  function _callOptionalReturn(IBEP20 token, bytes memory data) private {\r... */\n    tag_477:\n        /* \"Ghosper-NFT-Staking-MasterChef.sol\":15973:15996  bytes memory returndata */\n      0x00\n        /* \"Ghosper-NFT-Staking-MasterChef.sol\":15999:16068  address(token).functionCall(data, \"SafeBEP20: low-level call failed\") */\n      tag_496\n        /* \"Ghosper-NFT-Staking-MasterChef.sol\":16027:16031  data */\n      dup3\n        /* \"Ghosper-NFT-Staking-MasterChef.sol\":15999:16068  address(token).functionCall(data, \"SafeBEP20: low-level call failed\") */\n      mload(0x40)\n      dup1\n      0x40\n      add\n      0x40\n      mstore\n      dup1\n      0x20\n      dup2\n      mstore\n      0x20\n      add\n      0x5361666542455032303a206c6f772d6c6576656c2063616c6c206661696c6564\n      dup2\n      mstore\n      pop\n        /* \"Ghosper-NFT-Staking-MasterChef.sol\":16007:16012  token */\n      dup6\n        /* \"Ghosper-NFT-Staking-MasterChef.sol\":15999:16026  address(token).functionCall */\n      0xffffffffffffffffffffffffffffffffffffffff\n      and\n      tag_497\n      swap1\n        /* \"Ghosper-NFT-Staking-MasterChef.sol\":15999:16068  address(token).functionCall(data, \"SafeBEP20: low-level call failed\") */\n      swap3\n      swap2\n      swap1\n      0xffffffff\n      and\n      jump\t// in\n    tag_496:\n        /* \"Ghosper-NFT-Staking-MasterChef.sol\":15973:16068  bytes memory returndata = address(token).functionCall(data, \"SafeBEP20: low-level call failed\") */\n      swap1\n      pop\n        /* \"Ghosper-NFT-Staking-MasterChef.sol\":16103:16104  0 */\n      0x00\n        /* \"Ghosper-NFT-Staking-MasterChef.sol\":16083:16093  returndata */\n      dup2\n        /* \"Ghosper-NFT-Staking-MasterChef.sol\":16083:16100  returndata.length */\n      mload\n        /* \"Ghosper-NFT-Staking-MasterChef.sol\":16083:16104  returndata.length > 0 */\n      gt\n        /* \"Ghosper-NFT-Staking-MasterChef.sol\":16079:16303  if (returndata.length > 0) { // Return data is optional\r... */\n      iszero\n      tag_498\n      jumpi\n        /* \"Ghosper-NFT-Staking-MasterChef.sol\":16225:16235  returndata */\n      dup1\n        /* \"Ghosper-NFT-Staking-MasterChef.sol\":16214:16244  abi.decode(returndata, (bool)) */\n      dup1\n      0x20\n      add\n      swap1\n      mload\n      dup2\n      add\n      swap1\n      tag_499\n      swap2\n      swap1\n      tag_500\n      jump\t// in\n    tag_499:\n        /* \"Ghosper-NFT-Staking-MasterChef.sol\":16206:16291  require(abi.decode(returndata, (bool)), \"SafeBEP20: BEP20 operation did not succeed\") */\n      tag_501\n      jumpi\n      mload(0x40)\n      0x08c379a000000000000000000000000000000000000000000000000000000000\n      dup2\n      mstore\n      0x04\n      add\n      tag_502\n      swap1\n      tag_503\n      jump\t// in\n    tag_502:\n      mload(0x40)\n      dup1\n      swap2\n      sub\n      swap1\n      revert\n    tag_501:\n        /* \"Ghosper-NFT-Staking-MasterChef.sol\":16079:16303  if (returndata.length > 0) { // Return data is optional\r... */\n    tag_498:\n        /* \"Ghosper-NFT-Staking-MasterChef.sol\":15619:16310  {\r... */\n      pop\n        /* \"Ghosper-NFT-Staking-MasterChef.sol\":15549:16310  function _callOptionalReturn(IBEP20 token, bytes memory data) private {\r... */\n      pop\n      pop\n      jump\t// out\n        /* \"Ghosper-NFT-Staking-MasterChef.sol\":20069:20265  function functionCall(address target, bytes memory data, string memory errorMessage) internal returns (bytes memory) {\r... */\n    tag_497:\n        /* \"Ghosper-NFT-Staking-MasterChef.sol\":20172:20184  bytes memory */\n      0x60\n        /* \"Ghosper-NFT-Staking-MasterChef.sol\":20204:20257  _functionCallWithValue(target, data, 0, errorMessage) */\n      tag_505\n        /* \"Ghosper-NFT-Staking-MasterChef.sol\":20227:20233  target */\n      dup5\n        /* \"Ghosper-NFT-Staking-MasterChef.sol\":20235:20239  data */\n      dup5\n        /* \"Ghosper-NFT-Staking-MasterChef.sol\":20241:20242  0 */\n      0x00\n        /* \"Ghosper-NFT-Staking-MasterChef.sol\":20244:20256  errorMessage */\n      dup6\n        /* \"Ghosper-NFT-Staking-MasterChef.sol\":20204:20226  _functionCallWithValue */\n      tag_506\n        /* \"Ghosper-NFT-Staking-MasterChef.sol\":20204:20257  _functionCallWithValue(target, data, 0, errorMessage) */\n      jump\t// in\n    tag_505:\n        /* \"Ghosper-NFT-Staking-MasterChef.sol\":20197:20257  return _functionCallWithValue(target, data, 0, errorMessage) */\n      swap1\n      pop\n        /* \"Ghosper-NFT-Staking-MasterChef.sol\":20069:20265  function functionCall(address target, bytes memory data, string memory errorMessage) internal returns (bytes memory) {\r... */\n      swap4\n      swap3\n      pop\n      pop\n      pop\n      jump\t// out\n        /* \"Ghosper-NFT-Staking-MasterChef.sol\":21446:22425  function _functionCallWithValue(address target, bytes memory data, uint256 weiValue, string memory errorMessage) private returns (bytes memory) {\r... */\n    tag_506:\n        /* \"Ghosper-NFT-Staking-MasterChef.sol\":21576:21588  bytes memory */\n      0x60\n        /* \"Ghosper-NFT-Staking-MasterChef.sol\":21609:21627  isContract(target) */\n      tag_508\n        /* \"Ghosper-NFT-Staking-MasterChef.sol\":21620:21626  target */\n      dup6\n        /* \"Ghosper-NFT-Staking-MasterChef.sol\":21609:21619  isContract */\n      tag_509\n        /* \"Ghosper-NFT-Staking-MasterChef.sol\":21609:21627  isContract(target) */\n      jump\t// in\n    tag_508:\n        /* \"Ghosper-NFT-Staking-MasterChef.sol\":21601:21661  require(isContract(target), \"Address: call to non-contract\") */\n      tag_510\n      jumpi\n      mload(0x40)\n      0x08c379a000000000000000000000000000000000000000000000000000000000\n      dup2\n      mstore\n      0x04\n      add\n      tag_511\n      swap1\n      tag_512\n      jump\t// in\n    tag_511:\n      mload(0x40)\n      dup1\n      swap2\n      sub\n      swap1\n      revert\n    tag_510:\n        /* \"Ghosper-NFT-Staking-MasterChef.sol\":21735:21747  bool success */\n      0x00\n        /* \"Ghosper-NFT-Staking-MasterChef.sol\":21749:21772  bytes memory returndata */\n      dup1\n        /* \"Ghosper-NFT-Staking-MasterChef.sol\":21776:21782  target */\n      dup7\n        /* \"Ghosper-NFT-Staking-MasterChef.sol\":21776:21787  target.call */\n      0xffffffffffffffffffffffffffffffffffffffff\n      and\n        /* \"Ghosper-NFT-Staking-MasterChef.sol\":21796:21804  weiValue */\n      dup6\n        /* \"Ghosper-NFT-Staking-MasterChef.sol\":21807:21811  data */\n      dup8\n        /* \"Ghosper-NFT-Staking-MasterChef.sol\":21776:21812  target.call{ value: weiValue }(data) */\n      mload(0x40)\n      tag_513\n      swap2\n      swap1\n      tag_514\n      jump\t// in\n    tag_513:\n      0x00\n      mload(0x40)\n      dup1\n      dup4\n      sub\n      dup2\n      dup6\n      dup8\n      gas\n      call\n      swap3\n      pop\n      pop\n      pop\n      returndatasize\n      dup1\n      0x00\n      dup2\n      eq\n      tag_517\n      jumpi\n      mload(0x40)\n      swap2\n      pop\n      and(add(returndatasize, 0x3f), not(0x1f))\n      dup3\n      add\n      0x40\n      mstore\n      returndatasize\n      dup3\n      mstore\n      returndatasize\n      0x00\n      0x20\n      dup5\n      add\n      returndatacopy\n      jump(tag_516)\n    tag_517:\n      0x60\n      swap2\n      pop\n    tag_516:\n      pop\n        /* \"Ghosper-NFT-Staking-MasterChef.sol\":21734:21812  (bool success, bytes memory returndata) = target.call{ value: weiValue }(data) */\n      swap2\n      pop\n      swap2\n      pop\n        /* \"Ghosper-NFT-Staking-MasterChef.sol\":21827:21834  success */\n      dup2\n        /* \"Ghosper-NFT-Staking-MasterChef.sol\":21823:22418  if (success) {\r... */\n      iszero\n      tag_518\n      jumpi\n        /* \"Ghosper-NFT-Staking-MasterChef.sol\":21858:21868  returndata */\n      dup1\n        /* \"Ghosper-NFT-Staking-MasterChef.sol\":21851:21868  return returndata */\n      swap3\n      pop\n      pop\n      pop\n      jump(tag_507)\n        /* \"Ghosper-NFT-Staking-MasterChef.sol\":21823:22418  if (success) {\r... */\n    tag_518:\n        /* \"Ghosper-NFT-Staking-MasterChef.sol\":21992:21993  0 */\n      0x00\n        /* \"Ghosper-NFT-Staking-MasterChef.sol\":21972:21982  returndata */\n      dup2\n        /* \"Ghosper-NFT-Staking-MasterChef.sol\":21972:21989  returndata.length */\n      mload\n        /* \"Ghosper-NFT-Staking-MasterChef.sol\":21972:21993  returndata.length > 0 */\n      gt\n        /* \"Ghosper-NFT-Staking-MasterChef.sol\":21968:22407  if (returndata.length > 0) {\r... */\n      iszero\n      tag_520\n      jumpi\n        /* \"Ghosper-NFT-Staking-MasterChef.sol\":22235:22245  returndata */\n      dup1\n        /* \"Ghosper-NFT-Staking-MasterChef.sol\":22229:22246  mload(returndata) */\n      mload\n        /* \"Ghosper-NFT-Staking-MasterChef.sol\":22296:22311  returndata_size */\n      dup1\n        /* \"Ghosper-NFT-Staking-MasterChef.sol\":22283:22293  returndata */\n      dup3\n        /* \"Ghosper-NFT-Staking-MasterChef.sol\":22279:22281  32 */\n      0x20\n        /* \"Ghosper-NFT-Staking-MasterChef.sol\":22275:22294  add(32, returndata) */\n      add\n        /* \"Ghosper-NFT-Staking-MasterChef.sol\":22268:22312  revert(add(32, returndata), returndata_size) */\n      revert\n        /* \"Ghosper-NFT-Staking-MasterChef.sol\":21968:22407  if (returndata.length > 0) {\r... */\n    tag_520:\n        /* \"Ghosper-NFT-Staking-MasterChef.sol\":22378:22390  errorMessage */\n      dup4\n        /* \"Ghosper-NFT-Staking-MasterChef.sol\":22371:22391  revert(errorMessage) */\n      mload(0x40)\n      0x08c379a000000000000000000000000000000000000000000000000000000000\n      dup2\n      mstore\n      0x04\n      add\n      tag_522\n      swap2\n      swap1\n      tag_523\n      jump\t// in\n    tag_522:\n      mload(0x40)\n      dup1\n      swap2\n      sub\n      swap1\n      revert\n        /* \"Ghosper-NFT-Staking-MasterChef.sol\":21446:22425  function _functionCallWithValue(address target, bytes memory data, uint256 weiValue, string memory errorMessage) private returns (bytes memory) {\r... */\n    tag_507:\n      swap5\n      swap4\n      pop\n      pop\n      pop\n      pop\n      jump\t// out\n        /* \"Ghosper-NFT-Staking-MasterChef.sol\":16954:17573  function isContract(address account) internal view returns (bool) {\r... */\n    tag_509:\n        /* \"Ghosper-NFT-Staking-MasterChef.sol\":17014:17018  bool */\n      0x00\n        /* \"Ghosper-NFT-Staking-MasterChef.sol\":17276:17292  bytes32 codehash */\n      dup1\n        /* \"Ghosper-NFT-Staking-MasterChef.sol\":17303:17322  bytes32 accountHash */\n      0x00\n        /* \"Ghosper-NFT-Staking-MasterChef.sol\":17325:17391  0xc5d2460186f7233c927e7db2dcc703c0e500b653ca82273b7bfad8045d85a470 */\n      0xc5d2460186f7233c927e7db2dcc703c0e500b653ca82273b7bfad8045d85a470\n        /* \"Ghosper-NFT-Staking-MasterChef.sol\":17303:17391  bytes32 accountHash = 0xc5d2460186f7233c927e7db2dcc703c0e500b653ca82273b7bfad8045d85a470 */\n      0x00\n      shl\n      swap1\n      pop\n        /* \"Ghosper-NFT-Staking-MasterChef.sol\":17494:17501  account */\n      dup4\n        /* \"Ghosper-NFT-Staking-MasterChef.sol\":17482:17502  extcodehash(account) */\n      extcodehash\n        /* \"Ghosper-NFT-Staking-MasterChef.sol\":17470:17502  codehash := extcodehash(account) */\n      swap2\n      pop\n        /* \"Ghosper-NFT-Staking-MasterChef.sol\":17534:17545  accountHash */\n      dup1\n        /* \"Ghosper-NFT-Staking-MasterChef.sol\":17522:17530  codehash */\n      dup3\n        /* \"Ghosper-NFT-Staking-MasterChef.sol\":17522:17545  codehash != accountHash */\n      eq\n      iszero\n        /* \"Ghosper-NFT-Staking-MasterChef.sol\":17522:17564  codehash != accountHash && codehash != 0x0 */\n      dup1\n      iszero\n      tag_525\n      jumpi\n      pop\n        /* \"Ghosper-NFT-Staking-MasterChef.sol\":17561:17564  0x0 */\n      0x00\n        /* \"Ghosper-NFT-Staking-MasterChef.sol\":17549:17564  codehash != 0x0 */\n      dup1\n      shl\n        /* \"Ghosper-NFT-Staking-MasterChef.sol\":17549:17557  codehash */\n      dup3\n        /* \"Ghosper-NFT-Staking-MasterChef.sol\":17549:17564  codehash != 0x0 */\n      eq\n      iszero\n        /* \"Ghosper-NFT-Staking-MasterChef.sol\":17522:17564  codehash != accountHash && codehash != 0x0 */\n    tag_525:\n        /* \"Ghosper-NFT-Staking-MasterChef.sol\":17514:17565  return (codehash != accountHash && codehash != 0x0) */\n      swap3\n      pop\n      pop\n      pop\n        /* \"Ghosper-NFT-Staking-MasterChef.sol\":16954:17573  function isContract(address account) internal view returns (bool) {\r... */\n      swap2\n      swap1\n      pop\n      jump\t// out\n        /* \"#utility.yul\":7:146   */\n    tag_527:\n        /* \"#utility.yul\":53:58   */\n      0x00\n        /* \"#utility.yul\":91:97   */\n      dup2\n        /* \"#utility.yul\":78:98   */\n      calldataload\n        /* \"#utility.yul\":69:98   */\n      swap1\n      pop\n        /* \"#utility.yul\":107:140   */\n      tag_529\n        /* \"#utility.yul\":134:139   */\n      dup2\n        /* \"#utility.yul\":107:140   */\n      tag_530\n      jump\t// in\n    tag_529:\n        /* \"#utility.yul\":7:146   */\n      swap3\n      swap2\n      pop\n      pop\n      jump\t// out\n        /* \"#utility.yul\":169:737   */\n    tag_531:\n        /* \"#utility.yul\":242:250   */\n      0x00\n        /* \"#utility.yul\":252:258   */\n      dup1\n        /* \"#utility.yul\":302:305   */\n      dup4\n        /* \"#utility.yul\":295:299   */\n      0x1f\n        /* \"#utility.yul\":287:293   */\n      dup5\n        /* \"#utility.yul\":283:300   */\n      add\n        /* \"#utility.yul\":279:306   */\n      slt\n        /* \"#utility.yul\":269:391   */\n      tag_533\n      jumpi\n        /* \"#utility.yul\":310:389   */\n      tag_534\n      tag_535\n      jump\t// in\n    tag_534:\n        /* \"#utility.yul\":269:391   */\n    tag_533:\n        /* \"#utility.yul\":423:429   */\n      dup3\n        /* \"#utility.yul\":410:430   */\n      calldataload\n        /* \"#utility.yul\":400:430   */\n      swap1\n      pop\n        /* \"#utility.yul\":453:471   */\n      0xffffffffffffffff\n        /* \"#utility.yul\":445:451   */\n      dup2\n        /* \"#utility.yul\":442:472   */\n      gt\n        /* \"#utility.yul\":439:556   */\n      iszero\n      tag_536\n      jumpi\n        /* \"#utility.yul\":475:554   */\n      tag_537\n      tag_538\n      jump\t// in\n    tag_537:\n        /* \"#utility.yul\":439:556   */\n    tag_536:\n        /* \"#utility.yul\":589:593   */\n      0x20\n        /* \"#utility.yul\":581:587   */\n      dup4\n        /* \"#utility.yul\":577:594   */\n      add\n        /* \"#utility.yul\":565:594   */\n      swap2\n      pop\n        /* \"#utility.yul\":643:646   */\n      dup4\n        /* \"#utility.yul\":635:639   */\n      0x20\n        /* \"#utility.yul\":627:633   */\n      dup3\n        /* \"#utility.yul\":623:640   */\n      mul\n        /* \"#utility.yul\":613:621   */\n      dup4\n        /* \"#utility.yul\":609:641   */\n      add\n        /* \"#utility.yul\":606:647   */\n      gt\n        /* \"#utility.yul\":603:731   */\n      iszero\n      tag_539\n      jumpi\n        /* \"#utility.yul\":650:729   */\n      tag_540\n      tag_541\n      jump\t// in\n    tag_540:\n        /* \"#utility.yul\":603:731   */\n    tag_539:\n        /* \"#utility.yul\":169:737   */\n      swap3\n      pop\n      swap3\n      swap1\n      pop\n      jump\t// out\n        /* \"#utility.yul\":743:880   */\n    tag_542:\n        /* \"#utility.yul\":797:802   */\n      0x00\n        /* \"#utility.yul\":828:834   */\n      dup2\n        /* \"#utility.yul\":822:835   */\n      mload\n        /* \"#utility.yul\":813:835   */\n      swap1\n      pop\n        /* \"#utility.yul\":844:874   */\n      tag_544\n        /* \"#utility.yul\":868:873   */\n      dup2\n        /* \"#utility.yul\":844:874   */\n      tag_545\n      jump\t// in\n    tag_544:\n        /* \"#utility.yul\":743:880   */\n      swap3\n      swap2\n      pop\n      pop\n      jump\t// out\n        /* \"#utility.yul\":886:1025   */\n    tag_546:\n        /* \"#utility.yul\":932:937   */\n      0x00\n        /* \"#utility.yul\":970:976   */\n      dup2\n        /* \"#utility.yul\":957:977   */\n      calldataload\n        /* \"#utility.yul\":948:977   */\n      swap1\n      pop\n        /* \"#utility.yul\":986:1019   */\n      tag_548\n        /* \"#utility.yul\":1013:1018   */\n      dup2\n        /* \"#utility.yul\":986:1019   */\n      tag_549\n      jump\t// in\n    tag_548:\n        /* \"#utility.yul\":886:1025   */\n      swap3\n      swap2\n      pop\n      pop\n      jump\t// out\n        /* \"#utility.yul\":1031:1174   */\n    tag_550:\n        /* \"#utility.yul\":1088:1093   */\n      0x00\n        /* \"#utility.yul\":1119:1125   */\n      dup2\n        /* \"#utility.yul\":1113:1126   */\n      mload\n        /* \"#utility.yul\":1104:1126   */\n      swap1\n      pop\n        /* \"#utility.yul\":1135:1168   */\n      tag_552\n        /* \"#utility.yul\":1162:1167   */\n      dup2\n        /* \"#utility.yul\":1135:1168   */\n      tag_549\n      jump\t// in\n    tag_552:\n        /* \"#utility.yul\":1031:1174   */\n      swap3\n      swap2\n      pop\n      pop\n      jump\t// out\n        /* \"#utility.yul\":1180:1509   */\n    tag_40:\n        /* \"#utility.yul\":1239:1245   */\n      0x00\n        /* \"#utility.yul\":1288:1290   */\n      0x20\n        /* \"#utility.yul\":1276:1285   */\n      dup3\n        /* \"#utility.yul\":1267:1274   */\n      dup5\n        /* \"#utility.yul\":1263:1286   */\n      sub\n        /* \"#utility.yul\":1259:1291   */\n      slt\n        /* \"#utility.yul\":1256:1375   */\n      iszero\n      tag_554\n      jumpi\n        /* \"#utility.yul\":1294:1373   */\n      tag_555\n      tag_556\n      jump\t// in\n    tag_555:\n        /* \"#utility.yul\":1256:1375   */\n    tag_554:\n        /* \"#utility.yul\":1414:1415   */\n      0x00\n        /* \"#utility.yul\":1439:1492   */\n      tag_557\n        /* \"#utility.yul\":1484:1491   */\n      dup5\n        /* \"#utility.yul\":1475:1481   */\n      dup3\n        /* \"#utility.yul\":1464:1473   */\n      dup6\n        /* \"#utility.yul\":1460:1482   */\n      add\n        /* \"#utility.yul\":1439:1492   */\n      tag_527\n      jump\t// in\n    tag_557:\n        /* \"#utility.yul\":1429:1492   */\n      swap2\n      pop\n        /* \"#utility.yul\":1385:1502   */\n      pop\n        /* \"#utility.yul\":1180:1509   */\n      swap3\n      swap2\n      pop\n      pop\n      jump\t// out\n        /* \"#utility.yul\":1515:2074   */\n    tag_32:\n        /* \"#utility.yul\":1601:1607   */\n      0x00\n        /* \"#utility.yul\":1609:1615   */\n      dup1\n        /* \"#utility.yul\":1658:1660   */\n      0x20\n        /* \"#utility.yul\":1646:1655   */\n      dup4\n        /* \"#utility.yul\":1637:1644   */\n      dup6\n        /* \"#utility.yul\":1633:1656   */\n      sub\n        /* \"#utility.yul\":1629:1661   */\n      slt\n        /* \"#utility.yul\":1626:1745   */\n      iszero\n      tag_559\n      jumpi\n        /* \"#utility.yul\":1664:1743   */\n      tag_560\n      tag_556\n      jump\t// in\n    tag_560:\n        /* \"#utility.yul\":1626:1745   */\n    tag_559:\n        /* \"#utility.yul\":1812:1813   */\n      0x00\n        /* \"#utility.yul\":1801:1810   */\n      dup4\n        /* \"#utility.yul\":1797:1814   */\n      add\n        /* \"#utility.yul\":1784:1815   */\n      calldataload\n        /* \"#utility.yul\":1842:1860   */\n      0xffffffffffffffff\n        /* \"#utility.yul\":1834:1840   */\n      dup2\n        /* \"#utility.yul\":1831:1861   */\n      gt\n        /* \"#utility.yul\":1828:1945   */\n      iszero\n      tag_561\n      jumpi\n        /* \"#utility.yul\":1864:1943   */\n      tag_562\n      tag_563\n      jump\t// in\n    tag_562:\n        /* \"#utility.yul\":1828:1945   */\n    tag_561:\n        /* \"#utility.yul\":1977:2057   */\n      tag_564\n        /* \"#utility.yul\":2049:2056   */\n      dup6\n        /* \"#utility.yul\":2040:2046   */\n      dup3\n        /* \"#utility.yul\":2029:2038   */\n      dup7\n        /* \"#utility.yul\":2025:2047   */\n      add\n        /* \"#utility.yul\":1977:2057   */\n      tag_531\n      jump\t// in\n    tag_564:\n        /* \"#utility.yul\":1959:2057   */\n      swap3\n      pop\n      swap3\n      pop\n        /* \"#utility.yul\":1755:2067   */\n      pop\n        /* \"#utility.yul\":1515:2074   */\n      swap3\n      pop\n      swap3\n      swap1\n      pop\n      jump\t// out\n        /* \"#utility.yul\":2080:2425   */\n    tag_500:\n        /* \"#utility.yul\":2147:2153   */\n      0x00\n        /* \"#utility.yul\":2196:2198   */\n      0x20\n        /* \"#utility.yul\":2184:2193   */\n      dup3\n        /* \"#utility.yul\":2175:2182   */\n      dup5\n        /* \"#utility.yul\":2171:2194   */\n      sub\n        /* \"#utility.yul\":2167:2199   */\n      slt\n        /* \"#utility.yul\":2164:2283   */\n      iszero\n      tag_566\n      jumpi\n        /* \"#utility.yul\":2202:2281   */\n      tag_567\n      tag_556\n      jump\t// in\n    tag_567:\n        /* \"#utility.yul\":2164:2283   */\n    tag_566:\n        /* \"#utility.yul\":2322:2323   */\n      0x00\n        /* \"#utility.yul\":2347:2408   */\n      tag_568\n        /* \"#utility.yul\":2400:2407   */\n      dup5\n        /* \"#utility.yul\":2391:2397   */\n      dup3\n        /* \"#utility.yul\":2380:2389   */\n      dup6\n        /* \"#utility.yul\":2376:2398   */\n      add\n        /* \"#utility.yul\":2347:2408   */\n      tag_542\n      jump\t// in\n    tag_568:\n        /* \"#utility.yul\":2337:2408   */\n      swap2\n      pop\n        /* \"#utility.yul\":2293:2418   */\n      pop\n        /* \"#utility.yul\":2080:2425   */\n      swap3\n      swap2\n      pop\n      pop\n      jump\t// out\n        /* \"#utility.yul\":2431:2760   */\n    tag_50:\n        /* \"#utility.yul\":2490:2496   */\n      0x00\n        /* \"#utility.yul\":2539:2541   */\n      0x20\n        /* \"#utility.yul\":2527:2536   */\n      dup3\n        /* \"#utility.yul\":2518:2525   */\n      dup5\n        /* \"#utility.yul\":2514:2537   */\n      sub\n        /* \"#utility.yul\":2510:2542   */\n      slt\n        /* \"#utility.yul\":2507:2626   */\n      iszero\n      tag_570\n      jumpi\n        /* \"#utility.yul\":2545:2624   */\n      tag_571\n      tag_556\n      jump\t// in\n    tag_571:\n        /* \"#utility.yul\":2507:2626   */\n    tag_570:\n        /* \"#utility.yul\":2665:2666   */\n      0x00\n        /* \"#utility.yul\":2690:2743   */\n      tag_572\n        /* \"#utility.yul\":2735:2742   */\n      dup5\n        /* \"#utility.yul\":2726:2732   */\n      dup3\n        /* \"#utility.yul\":2715:2724   */\n      dup6\n        /* \"#utility.yul\":2711:2733   */\n      add\n        /* \"#utility.yul\":2690:2743   */\n      tag_546\n      jump\t// in\n    tag_572:\n        /* \"#utility.yul\":2680:2743   */\n      swap2\n      pop\n        /* \"#utility.yul\":2636:2753   */\n      pop\n        /* \"#utility.yul\":2431:2760   */\n      swap3\n      swap2\n      pop\n      pop\n      jump\t// out\n        /* \"#utility.yul\":2766:3117   */\n    tag_298:\n        /* \"#utility.yul\":2836:2842   */\n      0x00\n        /* \"#utility.yul\":2885:2887   */\n      0x20\n        /* \"#utility.yul\":2873:2882   */\n      dup3\n        /* \"#utility.yul\":2864:2871   */\n      dup5\n        /* \"#utility.yul\":2860:2883   */\n      sub\n        /* \"#utility.yul\":2856:2888   */\n      slt\n        /* \"#utility.yul\":2853:2972   */\n      iszero\n      tag_574\n      jumpi\n        /* \"#utility.yul\":2891:2970   */\n      tag_575\n      tag_556\n      jump\t// in\n    tag_575:\n        /* \"#utility.yul\":2853:2972   */\n    tag_574:\n        /* \"#utility.yul\":3011:3012   */\n      0x00\n        /* \"#utility.yul\":3036:3100   */\n      tag_576\n        /* \"#utility.yul\":3092:3099   */\n      dup5\n        /* \"#utility.yul\":3083:3089   */\n      dup3\n        /* \"#utility.yul\":3072:3081   */\n      dup6\n        /* \"#utility.yul\":3068:3090   */\n      add\n        /* \"#utility.yul\":3036:3100   */\n      tag_550\n      jump\t// in\n    tag_576:\n        /* \"#utility.yul\":3026:3100   */\n      swap2\n      pop\n        /* \"#utility.yul\":2982:3110   */\n      pop\n        /* \"#utility.yul\":2766:3117   */\n      swap3\n      swap2\n      pop\n      pop\n      jump\t// out\n        /* \"#utility.yul\":3123:3597   */\n    tag_59:\n        /* \"#utility.yul\":3191:3197   */\n      0x00\n        /* \"#utility.yul\":3199:3205   */\n      dup1\n        /* \"#utility.yul\":3248:3250   */\n      0x40\n        /* \"#utility.yul\":3236:3245   */\n      dup4\n        /* \"#utility.yul\":3227:3234   */\n      dup6\n        /* \"#utility.yul\":3223:3246   */\n      sub\n        /* \"#utility.yul\":3219:3251   */\n      slt\n        /* \"#utility.yul\":3216:3335   */\n      iszero\n      tag_578\n      jumpi\n        /* \"#utility.yul\":3254:3333   */\n      tag_579\n      tag_556\n      jump\t// in\n    tag_579:\n        /* \"#utility.yul\":3216:3335   */\n    tag_578:\n        /* \"#utility.yul\":3374:3375   */\n      0x00\n        /* \"#utility.yul\":3399:3452   */\n      tag_580\n        /* \"#utility.yul\":3444:3451   */\n      dup6\n        /* \"#utility.yul\":3435:3441   */\n      dup3\n        /* \"#utility.yul\":3424:3433   */\n      dup7\n        /* \"#utility.yul\":3420:3442   */\n      add\n        /* \"#utility.yul\":3399:3452   */\n      tag_546\n      jump\t// in\n    tag_580:\n        /* \"#utility.yul\":3389:3452   */\n      swap3\n      pop\n        /* \"#utility.yul\":3345:3462   */\n      pop\n        /* \"#utility.yul\":3501:3503   */\n      0x20\n        /* \"#utility.yul\":3527:3580   */\n      tag_581\n        /* \"#utility.yul\":3572:3579   */\n      dup6\n        /* \"#utility.yul\":3563:3569   */\n      dup3\n        /* \"#utility.yul\":3552:3561   */\n      dup7\n        /* \"#utility.yul\":3548:3570   */\n      add\n        /* \"#utility.yul\":3527:3580   */\n      tag_546\n      jump\t// in\n    tag_581:\n        /* \"#utility.yul\":3517:3580   */\n      swap2\n      pop\n        /* \"#utility.yul\":3472:3590   */\n      pop\n        /* \"#utility.yul\":3123:3597   */\n      swap3\n      pop\n      swap3\n      swap1\n      pop\n      jump\t// out\n        /* \"#utility.yul\":3603:4222   */\n    tag_36:\n        /* \"#utility.yul\":3680:3686   */\n      0x00\n        /* \"#utility.yul\":3688:3694   */\n      dup1\n        /* \"#utility.yul\":3696:3702   */\n      0x00\n        /* \"#utility.yul\":3745:3747   */\n      0x60\n        /* \"#utility.yul\":3733:3742   */\n      dup5\n        /* \"#utility.yul\":3724:3731   */\n      dup7\n        /* \"#utility.yul\":3720:3743   */\n      sub\n        /* \"#utility.yul\":3716:3748   */\n      slt\n        /* \"#utility.yul\":3713:3832   */\n      iszero\n      tag_583\n      jumpi\n        /* \"#utility.yul\":3751:3830   */\n      tag_584\n      tag_556\n      jump\t// in\n    tag_584:\n        /* \"#utility.yul\":3713:3832   */\n    tag_583:\n        /* \"#utility.yul\":3871:3872   */\n      0x00\n        /* \"#utility.yul\":3896:3949   */\n      tag_585\n        /* \"#utility.yul\":3941:3948   */\n      dup7\n        /* \"#utility.yul\":3932:3938   */\n      dup3\n        /* \"#utility.yul\":3921:3930   */\n      dup8\n        /* \"#utility.yul\":3917:3939   */\n      add\n        /* \"#utility.yul\":3896:3949   */\n      tag_546\n      jump\t// in\n    tag_585:\n        /* \"#utility.yul\":3886:3949   */\n      swap4\n      pop\n        /* \"#utility.yul\":3842:3959   */\n      pop\n        /* \"#utility.yul\":3998:4000   */\n      0x20\n        /* \"#utility.yul\":4024:4077   */\n      tag_586\n        /* \"#utility.yul\":4069:4076   */\n      dup7\n        /* \"#utility.yul\":4060:4066   */\n      dup3\n        /* \"#utility.yul\":4049:4058   */\n      dup8\n        /* \"#utility.yul\":4045:4067   */\n      add\n        /* \"#utility.yul\":4024:4077   */\n      tag_546\n      jump\t// in\n    tag_586:\n        /* \"#utility.yul\":4014:4077   */\n      swap3\n      pop\n        /* \"#utility.yul\":3969:4087   */\n      pop\n        /* \"#utility.yul\":4126:4128   */\n      0x40\n        /* \"#utility.yul\":4152:4205   */\n      tag_587\n        /* \"#utility.yul\":4197:4204   */\n      dup7\n        /* \"#utility.yul\":4188:4194   */\n      dup3\n        /* \"#utility.yul\":4177:4186   */\n      dup8\n        /* \"#utility.yul\":4173:4195   */\n      add\n        /* \"#utility.yul\":4152:4205   */\n      tag_546\n      jump\t// in\n    tag_587:\n        /* \"#utility.yul\":4142:4205   */\n      swap2\n      pop\n        /* \"#utility.yul\":4097:4215   */\n      pop\n        /* \"#utility.yul\":3603:4222   */\n      swap3\n      pop\n      swap3\n      pop\n      swap3\n      jump\t// out\n        /* \"#utility.yul\":4228:4346   */\n    tag_588:\n        /* \"#utility.yul\":4315:4339   */\n      tag_590\n        /* \"#utility.yul\":4333:4338   */\n      dup2\n        /* \"#utility.yul\":4315:4339   */\n      tag_591\n      jump\t// in\n    tag_590:\n        /* \"#utility.yul\":4310:4313   */\n      dup3\n        /* \"#utility.yul\":4303:4340   */\n      mstore\n        /* \"#utility.yul\":4228:4346   */\n      pop\n      pop\n      jump\t// out\n        /* \"#utility.yul\":4382:4919   */\n    tag_592:\n        /* \"#utility.yul\":4510:4513   */\n      0x00\n        /* \"#utility.yul\":4531:4617   */\n      tag_594\n        /* \"#utility.yul\":4610:4616   */\n      dup4\n        /* \"#utility.yul\":4605:4608   */\n      dup6\n        /* \"#utility.yul\":4531:4617   */\n      tag_595\n      jump\t// in\n    tag_594:\n        /* \"#utility.yul\":4524:4617   */\n      swap4\n      pop\n        /* \"#utility.yul\":4641:4707   */\n      0x07ffffffffffffffffffffffffffffffffffffffffffffffffffffffffffffff\n        /* \"#utility.yul\":4633:4639   */\n      dup4\n        /* \"#utility.yul\":4630:4708   */\n      gt\n        /* \"#utility.yul\":4627:4792   */\n      iszero\n      tag_596\n      jumpi\n        /* \"#utility.yul\":4711:4790   */\n      tag_597\n      tag_598\n      jump\t// in\n    tag_597:\n        /* \"#utility.yul\":4627:4792   */\n    tag_596:\n        /* \"#utility.yul\":4823:4827   */\n      0x20\n        /* \"#utility.yul\":4815:4821   */\n      dup4\n        /* \"#utility.yul\":4811:4828   */\n      mul\n        /* \"#utility.yul\":4801:4828   */\n      swap3\n      pop\n        /* \"#utility.yul\":4838:4881   */\n      tag_599\n        /* \"#utility.yul\":4874:4880   */\n      dup4\n        /* \"#utility.yul\":4869:4872   */\n      dup6\n        /* \"#utility.yul\":4862:4867   */\n      dup5\n        /* \"#utility.yul\":4838:4881   */\n      tag_600\n      jump\t// in\n    tag_599:\n        /* \"#utility.yul\":4906:4912   */\n      dup3\n        /* \"#utility.yul\":4901:4904   */\n      dup5\n        /* \"#utility.yul\":4897:4913   */\n      add\n        /* \"#utility.yul\":4890:4913   */\n      swap1\n      pop\n        /* \"#utility.yul\":4382:4919   */\n      swap4\n      swap3\n      pop\n      pop\n      pop\n      jump\t// out\n        /* \"#utility.yul\":4925:5298   */\n    tag_601:\n        /* \"#utility.yul\":5029:5032   */\n      0x00\n        /* \"#utility.yul\":5057:5095   */\n      tag_603\n        /* \"#utility.yul\":5089:5094   */\n      dup3\n        /* \"#utility.yul\":5057:5095   */\n      tag_604\n      jump\t// in\n    tag_603:\n        /* \"#utility.yul\":5111:5199   */\n      tag_605\n        /* \"#utility.yul\":5192:5198   */\n      dup2\n        /* \"#utility.yul\":5187:5190   */\n      dup6\n        /* \"#utility.yul\":5111:5199   */\n      tag_606\n      jump\t// in\n    tag_605:\n        /* \"#utility.yul\":5104:5199   */\n      swap4\n      pop\n        /* \"#utility.yul\":5208:5260   */\n      tag_607\n        /* \"#utility.yul\":5253:5259   */\n      dup2\n        /* \"#utility.yul\":5248:5251   */\n      dup6\n        /* \"#utility.yul\":5241:5245   */\n      0x20\n        /* \"#utility.yul\":5234:5239   */\n      dup7\n        /* \"#utility.yul\":5230:5246   */\n      add\n        /* \"#utility.yul\":5208:5260   */\n      tag_608\n      jump\t// in\n    tag_607:\n        /* \"#utility.yul\":5285:5291   */\n      dup1\n        /* \"#utility.yul\":5280:5283   */\n      dup5\n        /* \"#utility.yul\":5276:5292   */\n      add\n        /* \"#utility.yul\":5269:5292   */\n      swap2\n      pop\n        /* \"#utility.yul\":5033:5298   */\n      pop\n        /* \"#utility.yul\":4925:5298   */\n      swap3\n      swap2\n      pop\n      pop\n      jump\t// out\n        /* \"#utility.yul\":5304:5463   */\n    tag_609:\n        /* \"#utility.yul\":5405:5456   */\n      tag_611\n        /* \"#utility.yul\":5450:5455   */\n      dup2\n        /* \"#utility.yul\":5405:5456   */\n      tag_612\n      jump\t// in\n    tag_611:\n        /* \"#utility.yul\":5400:5403   */\n      dup3\n        /* \"#utility.yul\":5393:5457   */\n      mstore\n        /* \"#utility.yul\":5304:5463   */\n      pop\n      pop\n      jump\t// out\n        /* \"#utility.yul\":5469:5632   */\n    tag_613:\n        /* \"#utility.yul\":5572:5625   */\n      tag_615\n        /* \"#utility.yul\":5619:5624   */\n      dup2\n        /* \"#utility.yul\":5572:5625   */\n      tag_616\n      jump\t// in\n    tag_615:\n        /* \"#utility.yul\":5567:5570   */\n      dup3\n        /* \"#utility.yul\":5560:5626   */\n      mstore\n        /* \"#utility.yul\":5469:5632   */\n      pop\n      pop\n      jump\t// out\n        /* \"#utility.yul\":5638:6002   */\n    tag_617:\n        /* \"#utility.yul\":5726:5729   */\n      0x00\n        /* \"#utility.yul\":5754:5793   */\n      tag_619\n        /* \"#utility.yul\":5787:5792   */\n      dup3\n        /* \"#utility.yul\":5754:5793   */\n      tag_620\n      jump\t// in\n    tag_619:\n        /* \"#utility.yul\":5809:5880   */\n      tag_621\n        /* \"#utility.yul\":5873:5879   */\n      dup2\n        /* \"#utility.yul\":5868:5871   */\n      dup6\n        /* \"#utility.yul\":5809:5880   */\n      tag_622\n      jump\t// in\n    tag_621:\n        /* \"#utility.yul\":5802:5880   */\n      swap4\n      pop\n        /* \"#utility.yul\":5889:5941   */\n      tag_623\n        /* \"#utility.yul\":5934:5940   */\n      dup2\n        /* \"#utility.yul\":5929:5932   */\n      dup6\n        /* \"#utility.yul\":5922:5926   */\n      0x20\n        /* \"#utility.yul\":5915:5920   */\n      dup7\n        /* \"#utility.yul\":5911:5927   */\n      add\n        /* \"#utility.yul\":5889:5941   */\n      tag_608\n      jump\t// in\n    tag_623:\n        /* \"#utility.yul\":5966:5995   */\n      tag_624\n        /* \"#utility.yul\":5988:5994   */\n      dup2\n        /* \"#utility.yul\":5966:5995   */\n      tag_625\n      jump\t// in\n    tag_624:\n        /* \"#utility.yul\":5961:5964   */\n      dup5\n        /* \"#utility.yul\":5957:5996   */\n      add\n        /* \"#utility.yul\":5950:5996   */\n      swap2\n      pop\n        /* \"#utility.yul\":5730:6002   */\n      pop\n        /* \"#utility.yul\":5638:6002   */\n      swap3\n      swap2\n      pop\n      pop\n      jump\t// out\n        /* \"#utility.yul\":6008:6374   */\n    tag_626:\n        /* \"#utility.yul\":6150:6153   */\n      0x00\n        /* \"#utility.yul\":6171:6238   */\n      tag_628\n        /* \"#utility.yul\":6235:6237   */\n      0x1b\n        /* \"#utility.yul\":6230:6233   */\n      dup4\n        /* \"#utility.yul\":6171:6238   */\n      tag_622\n      jump\t// in\n    tag_628:\n        /* \"#utility.yul\":6164:6238   */\n      swap2\n      pop\n        /* \"#utility.yul\":6247:6340   */\n      tag_629\n        /* \"#utility.yul\":6336:6339   */\n      dup3\n        /* \"#utility.yul\":6247:6340   */\n      tag_630\n      jump\t// in\n    tag_629:\n        /* \"#utility.yul\":6365:6367   */\n      0x20\n        /* \"#utility.yul\":6360:6363   */\n      dup3\n        /* \"#utility.yul\":6356:6368   */\n      add\n        /* \"#utility.yul\":6349:6368   */\n      swap1\n      pop\n        /* \"#utility.yul\":6008:6374   */\n      swap2\n      swap1\n      pop\n      jump\t// out\n        /* \"#utility.yul\":6380:6746   */\n    tag_631:\n        /* \"#utility.yul\":6522:6525   */\n      0x00\n        /* \"#utility.yul\":6543:6610   */\n      tag_633\n        /* \"#utility.yul\":6607:6609   */\n      0x18\n        /* \"#utility.yul\":6602:6605   */\n      dup4\n        /* \"#utility.yul\":6543:6610   */\n      tag_622\n      jump\t// in\n    tag_633:\n        /* \"#utility.yul\":6536:6610   */\n      swap2\n      pop\n        /* \"#utility.yul\":6619:6712   */\n      tag_634\n        /* \"#utility.yul\":6708:6711   */\n      dup3\n        /* \"#utility.yul\":6619:6712   */\n      tag_635\n      jump\t// in\n    tag_634:\n        /* \"#utility.yul\":6737:6739   */\n      0x20\n        /* \"#utility.yul\":6732:6735   */\n      dup3\n        /* \"#utility.yul\":6728:6740   */\n      add\n        /* \"#utility.yul\":6721:6740   */\n      swap1\n      pop\n        /* \"#utility.yul\":6380:6746   */\n      swap2\n      swap1\n      pop\n      jump\t// out\n        /* \"#utility.yul\":6752:7118   */\n    tag_636:\n        /* \"#utility.yul\":6894:6897   */\n      0x00\n        /* \"#utility.yul\":6915:6982   */\n      tag_638\n        /* \"#utility.yul\":6979:6981   */\n      0x1b\n        /* \"#utility.yul\":6974:6977   */\n      dup4\n        /* \"#utility.yul\":6915:6982   */\n      tag_622\n      jump\t// in\n    tag_638:\n        /* \"#utility.yul\":6908:6982   */\n      swap2\n      pop\n        /* \"#utility.yul\":6991:7084   */\n      tag_639\n        /* \"#utility.yul\":7080:7083   */\n      dup3\n        /* \"#utility.yul\":6991:7084   */\n      tag_640\n      jump\t// in\n    tag_639:\n        /* \"#utility.yul\":7109:7111   */\n      0x20\n        /* \"#utility.yul\":7104:7107   */\n      dup3\n        /* \"#utility.yul\":7100:7112   */\n      add\n        /* \"#utility.yul\":7093:7112   */\n      swap1\n      pop\n        /* \"#utility.yul\":6752:7118   */\n      swap2\n      swap1\n      pop\n      jump\t// out\n        /* \"#utility.yul\":7124:7490   */\n    tag_641:\n        /* \"#utility.yul\":7266:7269   */\n      0x00\n        /* \"#utility.yul\":7287:7354   */\n      tag_643\n        /* \"#utility.yul\":7351:7353   */\n      0x1e\n        /* \"#utility.yul\":7346:7349   */\n      dup4\n        /* \"#utility.yul\":7287:7354   */\n      tag_622\n      jump\t// in\n    tag_643:\n        /* \"#utility.yul\":7280:7354   */\n      swap2\n      pop\n        /* \"#utility.yul\":7363:7456   */\n      tag_644\n        /* \"#utility.yul\":7452:7455   */\n      dup3\n        /* \"#utility.yul\":7363:7456   */\n      tag_645\n      jump\t// in\n    tag_644:\n        /* \"#utility.yul\":7481:7483   */\n      0x20\n        /* \"#utility.yul\":7476:7479   */\n      dup3\n        /* \"#utility.yul\":7472:7484   */\n      add\n        /* \"#utility.yul\":7465:7484   */\n      swap1\n      pop\n        /* \"#utility.yul\":7124:7490   */\n      swap2\n      swap1\n      pop\n      jump\t// out\n        /* \"#utility.yul\":7496:7862   */\n    tag_646:\n        /* \"#utility.yul\":7638:7641   */\n      0x00\n        /* \"#utility.yul\":7659:7726   */\n      tag_648\n        /* \"#utility.yul\":7723:7725   */\n      0x2a\n        /* \"#utility.yul\":7718:7721   */\n      dup4\n        /* \"#utility.yul\":7659:7726   */\n      tag_622\n      jump\t// in\n    tag_648:\n        /* \"#utility.yul\":7652:7726   */\n      swap2\n      pop\n        /* \"#utility.yul\":7735:7828   */\n      tag_649\n        /* \"#utility.yul\":7824:7827   */\n      dup3\n        /* \"#utility.yul\":7735:7828   */\n      tag_650\n      jump\t// in\n    tag_649:\n        /* \"#utility.yul\":7853:7855   */\n      0x40\n        /* \"#utility.yul\":7848:7851   */\n      dup3\n        /* \"#utility.yul\":7844:7856   */\n      add\n        /* \"#utility.yul\":7837:7856   */\n      swap1\n      pop\n        /* \"#utility.yul\":7496:7862   */\n      swap2\n      swap1\n      pop\n      jump\t// out\n        /* \"#utility.yul\":7868:8234   */\n    tag_651:\n        /* \"#utility.yul\":8010:8013   */\n      0x00\n        /* \"#utility.yul\":8031:8098   */\n      tag_653\n        /* \"#utility.yul\":8095:8097   */\n      0x26\n        /* \"#utility.yul\":8090:8093   */\n      dup4\n        /* \"#utility.yul\":8031:8098   */\n      tag_622\n      jump\t// in\n    tag_653:\n        /* \"#utility.yul\":8024:8098   */\n      swap2\n      pop\n        /* \"#utility.yul\":8107:8200   */\n      tag_654\n        /* \"#utility.yul\":8196:8199   */\n      dup3\n        /* \"#utility.yul\":8107:8200   */\n      tag_655\n      jump\t// in\n    tag_654:\n        /* \"#utility.yul\":8225:8227   */\n      0x40\n        /* \"#utility.yul\":8220:8223   */\n      dup3\n        /* \"#utility.yul\":8216:8228   */\n      add\n        /* \"#utility.yul\":8209:8228   */\n      swap1\n      pop\n        /* \"#utility.yul\":7868:8234   */\n      swap2\n      swap1\n      pop\n      jump\t// out\n        /* \"#utility.yul\":8240:8606   */\n    tag_656:\n        /* \"#utility.yul\":8382:8385   */\n      0x00\n        /* \"#utility.yul\":8403:8470   */\n      tag_658\n        /* \"#utility.yul\":8467:8469   */\n      0x1e\n        /* \"#utility.yul\":8462:8465   */\n      dup4\n        /* \"#utility.yul\":8403:8470   */\n      tag_622\n      jump\t// in\n    tag_658:\n        /* \"#utility.yul\":8396:8470   */\n      swap2\n      pop\n        /* \"#utility.yul\":8479:8572   */\n      tag_659\n        /* \"#utility.yul\":8568:8571   */\n      dup3\n        /* \"#utility.yul\":8479:8572   */\n      tag_660\n      jump\t// in\n    tag_659:\n        /* \"#utility.yul\":8597:8599   */\n      0x20\n        /* \"#utility.yul\":8592:8595   */\n      dup3\n        /* \"#utility.yul\":8588:8600   */\n      add\n        /* \"#utility.yul\":8581:8600   */\n      swap1\n      pop\n        /* \"#utility.yul\":8240:8606   */\n      swap2\n      swap1\n      pop\n      jump\t// out\n        /* \"#utility.yul\":8612:8978   */\n    tag_661:\n        /* \"#utility.yul\":8754:8757   */\n      0x00\n        /* \"#utility.yul\":8775:8842   */\n      tag_663\n        /* \"#utility.yul\":8839:8841   */\n      0x1b\n        /* \"#utility.yul\":8834:8837   */\n      dup4\n        /* \"#utility.yul\":8775:8842   */\n      tag_622\n      jump\t// in\n    tag_663:\n        /* \"#utility.yul\":8768:8842   */\n      swap2\n      pop\n        /* \"#utility.yul\":8851:8944   */\n      tag_664\n        /* \"#utility.yul\":8940:8943   */\n      dup3\n        /* \"#utility.yul\":8851:8944   */\n      tag_665\n      jump\t// in\n    tag_664:\n        /* \"#utility.yul\":8969:8971   */\n      0x20\n        /* \"#utility.yul\":8964:8967   */\n      dup3\n        /* \"#utility.yul\":8960:8972   */\n      add\n        /* \"#utility.yul\":8953:8972   */\n      swap1\n      pop\n        /* \"#utility.yul\":8612:8978   */\n      swap2\n      swap1\n      pop\n      jump\t// out\n        /* \"#utility.yul\":8984:9350   */\n    tag_666:\n        /* \"#utility.yul\":9126:9129   */\n      0x00\n        /* \"#utility.yul\":9147:9214   */\n      tag_668\n        /* \"#utility.yul\":9211:9213   */\n      0x31\n        /* \"#utility.yul\":9206:9209   */\n      dup4\n        /* \"#utility.yul\":9147:9214   */\n      tag_622\n      jump\t// in\n    tag_668:\n        /* \"#utility.yul\":9140:9214   */\n      swap2\n      pop\n        /* \"#utility.yul\":9223:9316   */\n      tag_669\n        /* \"#utility.yul\":9312:9315   */\n      dup3\n        /* \"#utility.yul\":9223:9316   */\n      tag_670\n      jump\t// in\n    tag_669:\n        /* \"#utility.yul\":9341:9343   */\n      0x40\n        /* \"#utility.yul\":9336:9339   */\n      dup3\n        /* \"#utility.yul\":9332:9344   */\n      add\n        /* \"#utility.yul\":9325:9344   */\n      swap1\n      pop\n        /* \"#utility.yul\":8984:9350   */\n      swap2\n      swap1\n      pop\n      jump\t// out\n        /* \"#utility.yul\":9356:9722   */\n    tag_671:\n        /* \"#utility.yul\":9498:9501   */\n      0x00\n        /* \"#utility.yul\":9519:9586   */\n      tag_673\n        /* \"#utility.yul\":9583:9585   */\n      0x22\n        /* \"#utility.yul\":9578:9581   */\n      dup4\n        /* \"#utility.yul\":9519:9586   */\n      tag_622\n      jump\t// in\n    tag_673:\n        /* \"#utility.yul\":9512:9586   */\n      swap2\n      pop\n        /* \"#utility.yul\":9595:9688   */\n      tag_674\n        /* \"#utility.yul\":9684:9687   */\n      dup3\n        /* \"#utility.yul\":9595:9688   */\n      tag_675\n      jump\t// in\n    tag_674:\n        /* \"#utility.yul\":9713:9715   */\n      0x40\n        /* \"#utility.yul\":9708:9711   */\n      dup3\n        /* \"#utility.yul\":9704:9716   */\n      add\n        /* \"#utility.yul\":9697:9716   */\n      swap1\n      pop\n        /* \"#utility.yul\":9356:9722   */\n      swap2\n      swap1\n      pop\n      jump\t// out\n        /* \"#utility.yul\":9728:10094   */\n    tag_676:\n        /* \"#utility.yul\":9870:9873   */\n      0x00\n        /* \"#utility.yul\":9891:9958   */\n      tag_678\n        /* \"#utility.yul\":9955:9957   */\n      0x1f\n        /* \"#utility.yul\":9950:9953   */\n      dup4\n        /* \"#utility.yul\":9891:9958   */\n      tag_622\n      jump\t// in\n    tag_678:\n        /* \"#utility.yul\":9884:9958   */\n      swap2\n      pop\n        /* \"#utility.yul\":9967:10060   */\n      tag_679\n        /* \"#utility.yul\":10056:10059   */\n      dup3\n        /* \"#utility.yul\":9967:10060   */\n      tag_680\n      jump\t// in\n    tag_679:\n        /* \"#utility.yul\":10085:10087   */\n      0x20\n        /* \"#utility.yul\":10080:10083   */\n      dup3\n        /* \"#utility.yul\":10076:10088   */\n      add\n        /* \"#utility.yul\":10069:10088   */\n      swap1\n      pop\n        /* \"#utility.yul\":9728:10094   */\n      swap2\n      swap1\n      pop\n      jump\t// out\n        /* \"#utility.yul\":10100:10466   */\n    tag_681:\n        /* \"#utility.yul\":10242:10245   */\n      0x00\n        /* \"#utility.yul\":10263:10330   */\n      tag_683\n        /* \"#utility.yul\":10327:10329   */\n      0x18\n        /* \"#utility.yul\":10322:10325   */\n      dup4\n        /* \"#utility.yul\":10263:10330   */\n      tag_622\n      jump\t// in\n    tag_683:\n        /* \"#utility.yul\":10256:10330   */\n      swap2\n      pop\n        /* \"#utility.yul\":10339:10432   */\n      tag_684\n        /* \"#utility.yul\":10428:10431   */\n      dup3\n        /* \"#utility.yul\":10339:10432   */\n      tag_685\n      jump\t// in\n    tag_684:\n        /* \"#utility.yul\":10457:10459   */\n      0x20\n        /* \"#utility.yul\":10452:10455   */\n      dup3\n        /* \"#utility.yul\":10448:10460   */\n      add\n        /* \"#utility.yul\":10441:10460   */\n      swap1\n      pop\n        /* \"#utility.yul\":10100:10466   */\n      swap2\n      swap1\n      pop\n      jump\t// out\n        /* \"#utility.yul\":10472:10838   */\n    tag_686:\n        /* \"#utility.yul\":10614:10617   */\n      0x00\n        /* \"#utility.yul\":10635:10702   */\n      tag_688\n        /* \"#utility.yul\":10699:10701   */\n      0x22\n        /* \"#utility.yul\":10694:10697   */\n      dup4\n        /* \"#utility.yul\":10635:10702   */\n      tag_622\n      jump\t// in\n    tag_688:\n        /* \"#utility.yul\":10628:10702   */\n      swap2\n      pop\n        /* \"#utility.yul\":10711:10804   */\n      tag_689\n        /* \"#utility.yul\":10800:10803   */\n      dup3\n        /* \"#utility.yul\":10711:10804   */\n      tag_690\n      jump\t// in\n    tag_689:\n        /* \"#utility.yul\":10829:10831   */\n      0x40\n        /* \"#utility.yul\":10824:10827   */\n      dup3\n        /* \"#utility.yul\":10820:10832   */\n      add\n        /* \"#utility.yul\":10813:10832   */\n      swap1\n      pop\n        /* \"#utility.yul\":10472:10838   */\n      swap2\n      swap1\n      pop\n      jump\t// out\n        /* \"#utility.yul\":10844:11210   */\n    tag_691:\n        /* \"#utility.yul\":10986:10989   */\n      0x00\n        /* \"#utility.yul\":11007:11074   */\n      tag_693\n        /* \"#utility.yul\":11071:11073   */\n      0x20\n        /* \"#utility.yul\":11066:11069   */\n      dup4\n        /* \"#utility.yul\":11007:11074   */\n      tag_622\n      jump\t// in\n    tag_693:\n        /* \"#utility.yul\":11000:11074   */\n      swap2\n      pop\n        /* \"#utility.yul\":11083:11176   */\n      tag_694\n        /* \"#utility.yul\":11172:11175   */\n      dup3\n        /* \"#utility.yul\":11083:11176   */\n      tag_695\n      jump\t// in\n    tag_694:\n        /* \"#utility.yul\":11201:11203   */\n      0x20\n        /* \"#utility.yul\":11196:11199   */\n      dup3\n        /* \"#utility.yul\":11192:11204   */\n      add\n        /* \"#utility.yul\":11185:11204   */\n      swap1\n      pop\n        /* \"#utility.yul\":10844:11210   */\n      swap2\n      swap1\n      pop\n      jump\t// out\n        /* \"#utility.yul\":11216:11582   */\n    tag_696:\n        /* \"#utility.yul\":11358:11361   */\n      0x00\n        /* \"#utility.yul\":11379:11446   */\n      tag_698\n        /* \"#utility.yul\":11443:11445   */\n      0x1e\n        /* \"#utility.yul\":11438:11441   */\n      dup4\n        /* \"#utility.yul\":11379:11446   */\n      tag_622\n      jump\t// in\n    tag_698:\n        /* \"#utility.yul\":11372:11446   */\n      swap2\n      pop\n        /* \"#utility.yul\":11455:11548   */\n      tag_699\n        /* \"#utility.yul\":11544:11547   */\n      dup3\n        /* \"#utility.yul\":11455:11548   */\n      tag_700\n      jump\t// in\n    tag_699:\n        /* \"#utility.yul\":11573:11575   */\n      0x20\n        /* \"#utility.yul\":11568:11571   */\n      dup3\n        /* \"#utility.yul\":11564:11576   */\n      add\n        /* \"#utility.yul\":11557:11576   */\n      swap1\n      pop\n        /* \"#utility.yul\":11216:11582   */\n      swap2\n      swap1\n      pop\n      jump\t// out\n        /* \"#utility.yul\":11588:11954   */\n    tag_701:\n        /* \"#utility.yul\":11730:11733   */\n      0x00\n        /* \"#utility.yul\":11751:11818   */\n      tag_703\n        /* \"#utility.yul\":11815:11817   */\n      0x1f\n        /* \"#utility.yul\":11810:11813   */\n      dup4\n        /* \"#utility.yul\":11751:11818   */\n      tag_622\n      jump\t// in\n    tag_703:\n        /* \"#utility.yul\":11744:11818   */\n      swap2\n      pop\n        /* \"#utility.yul\":11827:11920   */\n      tag_704\n        /* \"#utility.yul\":11916:11919   */\n      dup3\n        /* \"#utility.yul\":11827:11920   */\n      tag_705\n      jump\t// in\n    tag_704:\n        /* \"#utility.yul\":11945:11947   */\n      0x20\n        /* \"#utility.yul\":11940:11943   */\n      dup3\n        /* \"#utility.yul\":11936:11948   */\n      add\n        /* \"#utility.yul\":11929:11948   */\n      swap1\n      pop\n        /* \"#utility.yul\":11588:11954   */\n      swap2\n      swap1\n      pop\n      jump\t// out\n        /* \"#utility.yul\":11960:12326   */\n    tag_706:\n        /* \"#utility.yul\":12102:12105   */\n      0x00\n        /* \"#utility.yul\":12123:12190   */\n      tag_708\n        /* \"#utility.yul\":12187:12189   */\n      0x22\n        /* \"#utility.yul\":12182:12185   */\n      dup4\n        /* \"#utility.yul\":12123:12190   */\n      tag_622\n      jump\t// in\n    tag_708:\n        /* \"#utility.yul\":12116:12190   */\n      swap2\n      pop\n        /* \"#utility.yul\":12199:12292   */\n      tag_709\n        /* \"#utility.yul\":12288:12291   */\n      dup3\n        /* \"#utility.yul\":12199:12292   */\n      tag_710\n      jump\t// in\n    tag_709:\n        /* \"#utility.yul\":12317:12319   */\n      0x40\n        /* \"#utility.yul\":12312:12315   */\n      dup3\n        /* \"#utility.yul\":12308:12320   */\n      add\n        /* \"#utility.yul\":12301:12320   */\n      swap1\n      pop\n        /* \"#utility.yul\":11960:12326   */\n      swap2\n      swap1\n      pop\n      jump\t// out\n        /* \"#utility.yul\":12332:12698   */\n    tag_711:\n        /* \"#utility.yul\":12474:12477   */\n      0x00\n        /* \"#utility.yul\":12495:12562   */\n      tag_713\n        /* \"#utility.yul\":12559:12561   */\n      0x1d\n        /* \"#utility.yul\":12554:12557   */\n      dup4\n        /* \"#utility.yul\":12495:12562   */\n      tag_622\n      jump\t// in\n    tag_713:\n        /* \"#utility.yul\":12488:12562   */\n      swap2\n      pop\n        /* \"#utility.yul\":12571:12664   */\n      tag_714\n        /* \"#utility.yul\":12660:12663   */\n      dup3\n        /* \"#utility.yul\":12571:12664   */\n      tag_715\n      jump\t// in\n    tag_714:\n        /* \"#utility.yul\":12689:12691   */\n      0x20\n        /* \"#utility.yul\":12684:12687   */\n      dup3\n        /* \"#utility.yul\":12680:12692   */\n      add\n        /* \"#utility.yul\":12673:12692   */\n      swap1\n      pop\n        /* \"#utility.yul\":12332:12698   */\n      swap2\n      swap1\n      pop\n      jump\t// out\n        /* \"#utility.yul\":12704:13070   */\n    tag_716:\n        /* \"#utility.yul\":12846:12849   */\n      0x00\n        /* \"#utility.yul\":12867:12934   */\n      tag_718\n        /* \"#utility.yul\":12931:12933   */\n      0x39\n        /* \"#utility.yul\":12926:12929   */\n      dup4\n        /* \"#utility.yul\":12867:12934   */\n      tag_622\n      jump\t// in\n    tag_718:\n        /* \"#utility.yul\":12860:12934   */\n      swap2\n      pop\n        /* \"#utility.yul\":12943:13036   */\n      tag_719\n        /* \"#utility.yul\":13032:13035   */\n      dup3\n        /* \"#utility.yul\":12943:13036   */\n      tag_720\n      jump\t// in\n    tag_719:\n        /* \"#utility.yul\":13061:13063   */\n      0x40\n        /* \"#utility.yul\":13056:13059   */\n      dup3\n        /* \"#utility.yul\":13052:13064   */\n      add\n        /* \"#utility.yul\":13045:13064   */\n      swap1\n      pop\n        /* \"#utility.yul\":12704:13070   */\n      swap2\n      swap1\n      pop\n      jump\t// out\n        /* \"#utility.yul\":13076:13194   */\n    tag_721:\n        /* \"#utility.yul\":13163:13187   */\n      tag_723\n        /* \"#utility.yul\":13181:13186   */\n      dup2\n        /* \"#utility.yul\":13163:13187   */\n      tag_724\n      jump\t// in\n    tag_723:\n        /* \"#utility.yul\":13158:13161   */\n      dup3\n        /* \"#utility.yul\":13151:13188   */\n      mstore\n        /* \"#utility.yul\":13076:13194   */\n      pop\n      pop\n      jump\t// out\n        /* \"#utility.yul\":13200:13471   */\n    tag_514:\n        /* \"#utility.yul\":13330:13333   */\n      0x00\n        /* \"#utility.yul\":13352:13445   */\n      tag_726\n        /* \"#utility.yul\":13441:13444   */\n      dup3\n        /* \"#utility.yul\":13432:13438   */\n      dup5\n        /* \"#utility.yul\":13352:13445   */\n      tag_601\n      jump\t// in\n    tag_726:\n        /* \"#utility.yul\":13345:13445   */\n      swap2\n      pop\n        /* \"#utility.yul\":13462:13465   */\n      dup2\n        /* \"#utility.yul\":13455:13465   */\n      swap1\n      pop\n        /* \"#utility.yul\":13200:13471   */\n      swap3\n      swap2\n      pop\n      pop\n      jump\t// out\n        /* \"#utility.yul\":13477:13699   */\n    tag_84:\n        /* \"#utility.yul\":13570:13574   */\n      0x00\n        /* \"#utility.yul\":13608:13610   */\n      0x20\n        /* \"#utility.yul\":13597:13606   */\n      dup3\n        /* \"#utility.yul\":13593:13611   */\n      add\n        /* \"#utility.yul\":13585:13611   */\n      swap1\n      pop\n        /* \"#utility.yul\":13621:13692   */\n      tag_728\n        /* \"#utility.yul\":13689:13690   */\n      0x00\n        /* \"#utility.yul\":13678:13687   */\n      dup4\n        /* \"#utility.yul\":13674:13691   */\n      add\n        /* \"#utility.yul\":13665:13671   */\n      dup5\n        /* \"#utility.yul\":13621:13692   */\n      tag_588\n      jump\t// in\n    tag_728:\n        /* \"#utility.yul\":13477:13699   */\n      swap3\n      swap2\n      pop\n      pop\n      jump\t// out\n        /* \"#utility.yul\":13705:14147   */\n    tag_163:\n        /* \"#utility.yul\":13854:13858   */\n      0x00\n        /* \"#utility.yul\":13892:13894   */\n      0x60\n        /* \"#utility.yul\":13881:13890   */\n      dup3\n        /* \"#utility.yul\":13877:13895   */\n      add\n        /* \"#utility.yul\":13869:13895   */\n      swap1\n      pop\n        /* \"#utility.yul\":13905:13976   */\n      tag_730\n        /* \"#utility.yul\":13973:13974   */\n      0x00\n        /* \"#utility.yul\":13962:13971   */\n      dup4\n        /* \"#utility.yul\":13958:13975   */\n      add\n        /* \"#utility.yul\":13949:13955   */\n      dup7\n        /* \"#utility.yul\":13905:13976   */\n      tag_588\n      jump\t// in\n    tag_730:\n        /* \"#utility.yul\":13986:14058   */\n      tag_731\n        /* \"#utility.yul\":14054:14056   */\n      0x20\n        /* \"#utility.yul\":14043:14052   */\n      dup4\n        /* \"#utility.yul\":14039:14057   */\n      add\n        /* \"#utility.yul\":14030:14036   */\n      dup6\n        /* \"#utility.yul\":13986:14058   */\n      tag_588\n      jump\t// in\n    tag_731:\n        /* \"#utility.yul\":14068:14140   */\n      tag_732\n        /* \"#utility.yul\":14136:14138   */\n      0x40\n        /* \"#utility.yul\":14125:14134   */\n      dup4\n        /* \"#utility.yul\":14121:14139   */\n      add\n        /* \"#utility.yul\":14112:14118   */\n      dup5\n        /* \"#utility.yul\":14068:14140   */\n      tag_721\n      jump\t// in\n    tag_732:\n        /* \"#utility.yul\":13705:14147   */\n      swap5\n      swap4\n      pop\n      pop\n      pop\n      pop\n      jump\t// out\n        /* \"#utility.yul\":14153:14656   */\n    tag_169:\n        /* \"#utility.yul\":14334:14338   */\n      0x00\n        /* \"#utility.yul\":14372:14374   */\n      0x40\n        /* \"#utility.yul\":14361:14370   */\n      dup3\n        /* \"#utility.yul\":14357:14375   */\n      add\n        /* \"#utility.yul\":14349:14375   */\n      swap1\n      pop\n        /* \"#utility.yul\":14385:14456   */\n      tag_734\n        /* \"#utility.yul\":14453:14454   */\n      0x00\n        /* \"#utility.yul\":14442:14451   */\n      dup4\n        /* \"#utility.yul\":14438:14455   */\n      add\n        /* \"#utility.yul\":14429:14435   */\n      dup7\n        /* \"#utility.yul\":14385:14456   */\n      tag_588\n      jump\t// in\n    tag_734:\n        /* \"#utility.yul\":14503:14512   */\n      dup2\n        /* \"#utility.yul\":14497:14501   */\n      dup2\n        /* \"#utility.yul\":14493:14513   */\n      sub\n        /* \"#utility.yul\":14488:14490   */\n      0x20\n        /* \"#utility.yul\":14477:14486   */\n      dup4\n        /* \"#utility.yul\":14473:14491   */\n      add\n        /* \"#utility.yul\":14466:14514   */\n      mstore\n        /* \"#utility.yul\":14531:14649   */\n      tag_735\n        /* \"#utility.yul\":14644:14648   */\n      dup2\n        /* \"#utility.yul\":14635:14641   */\n      dup5\n        /* \"#utility.yul\":14627:14633   */\n      dup7\n        /* \"#utility.yul\":14531:14649   */\n      tag_592\n      jump\t// in\n    tag_735:\n        /* \"#utility.yul\":14523:14649   */\n      swap1\n      pop\n        /* \"#utility.yul\":14153:14656   */\n      swap5\n      swap4\n      pop\n      pop\n      pop\n      pop\n      jump\t// out\n        /* \"#utility.yul\":14662:14994   */\n    tag_493:\n        /* \"#utility.yul\":14783:14787   */\n      0x00\n        /* \"#utility.yul\":14821:14823   */\n      0x40\n        /* \"#utility.yul\":14810:14819   */\n      dup3\n        /* \"#utility.yul\":14806:14824   */\n      add\n        /* \"#utility.yul\":14798:14824   */\n      swap1\n      pop\n        /* \"#utility.yul\":14834:14905   */\n      tag_737\n        /* \"#utility.yul\":14902:14903   */\n      0x00\n        /* \"#utility.yul\":14891:14900   */\n      dup4\n        /* \"#utility.yul\":14887:14904   */\n      add\n        /* \"#utility.yul\":14878:14884   */\n      dup6\n        /* \"#utility.yul\":14834:14905   */\n      tag_588\n      jump\t// in\n    tag_737:\n        /* \"#utility.yul\":14915:14987   */\n      tag_738\n        /* \"#utility.yul\":14983:14985   */\n      0x20\n        /* \"#utility.yul\":14972:14981   */\n      dup4\n        /* \"#utility.yul\":14968:14986   */\n      add\n        /* \"#utility.yul\":14959:14965   */\n      dup5\n        /* \"#utility.yul\":14915:14987   */\n      tag_721\n      jump\t// in\n    tag_738:\n        /* \"#utility.yul\":14662:14994   */\n      swap4\n      swap3\n      pop\n      pop\n      pop\n      jump\t// out\n        /* \"#utility.yul\":15000:15250   */\n    tag_47:\n        /* \"#utility.yul\":15107:15111   */\n      0x00\n        /* \"#utility.yul\":15145:15147   */\n      0x20\n        /* \"#utility.yul\":15134:15143   */\n      dup3\n        /* \"#utility.yul\":15130:15148   */\n      add\n        /* \"#utility.yul\":15122:15148   */\n      swap1\n      pop\n        /* \"#utility.yul\":15158:15243   */\n      tag_740\n        /* \"#utility.yul\":15240:15241   */\n      0x00\n        /* \"#utility.yul\":15229:15238   */\n      dup4\n        /* \"#utility.yul\":15225:15242   */\n      add\n        /* \"#utility.yul\":15216:15222   */\n      dup5\n        /* \"#utility.yul\":15158:15243   */\n      tag_609\n      jump\t// in\n    tag_740:\n        /* \"#utility.yul\":15000:15250   */\n      swap3\n      swap2\n      pop\n      pop\n      jump\t// out\n        /* \"#utility.yul\":15256:15510   */\n    tag_104:\n        /* \"#utility.yul\":15365:15369   */\n      0x00\n        /* \"#utility.yul\":15403:15405   */\n      0x20\n        /* \"#utility.yul\":15392:15401   */\n      dup3\n        /* \"#utility.yul\":15388:15406   */\n      add\n        /* \"#utility.yul\":15380:15406   */\n      swap1\n      pop\n        /* \"#utility.yul\":15416:15503   */\n      tag_742\n        /* \"#utility.yul\":15500:15501   */\n      0x00\n        /* \"#utility.yul\":15489:15498   */\n      dup4\n        /* \"#utility.yul\":15485:15502   */\n      add\n        /* \"#utility.yul\":15476:15482   */\n      dup5\n        /* \"#utility.yul\":15416:15503   */\n      tag_613\n      jump\t// in\n    tag_742:\n        /* \"#utility.yul\":15256:15510   */\n      swap3\n      swap2\n      pop\n      pop\n      jump\t// out\n        /* \"#utility.yul\":15516:15829   */\n    tag_523:\n        /* \"#utility.yul\":15629:15633   */\n      0x00\n        /* \"#utility.yul\":15667:15669   */\n      0x20\n        /* \"#utility.yul\":15656:15665   */\n      dup3\n        /* \"#utility.yul\":15652:15670   */\n      add\n        /* \"#utility.yul\":15644:15670   */\n      swap1\n      pop\n        /* \"#utility.yul\":15716:15725   */\n      dup2\n        /* \"#utility.yul\":15710:15714   */\n      dup2\n        /* \"#utility.yul\":15706:15726   */\n      sub\n        /* \"#utility.yul\":15702:15703   */\n      0x00\n        /* \"#utility.yul\":15691:15700   */\n      dup4\n        /* \"#utility.yul\":15687:15704   */\n      add\n        /* \"#utility.yul\":15680:15727   */\n      mstore\n        /* \"#utility.yul\":15744:15822   */\n      tag_744\n        /* \"#utility.yul\":15817:15821   */\n      dup2\n        /* \"#utility.yul\":15808:15814   */\n      dup5\n        /* \"#utility.yul\":15744:15822   */\n      tag_617\n      jump\t// in\n    tag_744:\n        /* \"#utility.yul\":15736:15822   */\n      swap1\n      pop\n        /* \"#utility.yul\":15516:15829   */\n      swap3\n      swap2\n      pop\n      pop\n      jump\t// out\n        /* \"#utility.yul\":15835:16254   */\n    tag_267:\n        /* \"#utility.yul\":16001:16005   */\n      0x00\n        /* \"#utility.yul\":16039:16041   */\n      0x20\n        /* \"#utility.yul\":16028:16037   */\n      dup3\n        /* \"#utility.yul\":16024:16042   */\n      add\n        /* \"#utility.yul\":16016:16042   */\n      swap1\n      pop\n        /* \"#utility.yul\":16088:16097   */\n      dup2\n        /* \"#utility.yul\":16082:16086   */\n      dup2\n        /* \"#utility.yul\":16078:16098   */\n      sub\n        /* \"#utility.yul\":16074:16075   */\n      0x00\n        /* \"#utility.yul\":16063:16072   */\n      dup4\n        /* \"#utility.yul\":16059:16076   */\n      add\n        /* \"#utility.yul\":16052:16099   */\n      mstore\n        /* \"#utility.yul\":16116:16247   */\n      tag_746\n        /* \"#utility.yul\":16242:16246   */\n      dup2\n        /* \"#utility.yul\":16116:16247   */\n      tag_626\n      jump\t// in\n    tag_746:\n        /* \"#utility.yul\":16108:16247   */\n      swap1\n      pop\n        /* \"#utility.yul\":15835:16254   */\n      swap2\n      swap1\n      pop\n      jump\t// out\n        /* \"#utility.yul\":16260:16679   */\n    tag_117:\n        /* \"#utility.yul\":16426:16430   */\n      0x00\n        /* \"#utility.yul\":16464:16466   */\n      0x20\n        /* \"#utility.yul\":16453:16462   */\n      dup3\n        /* \"#utility.yul\":16449:16467   */\n      add\n        /* \"#utility.yul\":16441:16467   */\n      swap1\n      pop\n        /* \"#utility.yul\":16513:16522   */\n      dup2\n        /* \"#utility.yul\":16507:16511   */\n      dup2\n        /* \"#utility.yul\":16503:16523   */\n      sub\n        /* \"#utility.yul\":16499:16500   */\n      0x00\n        /* \"#utility.yul\":16488:16497   */\n      dup4\n        /* \"#utility.yul\":16484:16501   */\n      add\n        /* \"#utility.yul\":16477:16524   */\n      mstore\n        /* \"#utility.yul\":16541:16672   */\n      tag_748\n        /* \"#utility.yul\":16667:16671   */\n      dup2\n        /* \"#utility.yul\":16541:16672   */\n      tag_631\n      jump\t// in\n    tag_748:\n        /* \"#utility.yul\":16533:16672   */\n      swap1\n      pop\n        /* \"#utility.yul\":16260:16679   */\n      swap2\n      swap1\n      pop\n      jump\t// out\n        /* \"#utility.yul\":16685:17104   */\n    tag_183:\n        /* \"#utility.yul\":16851:16855   */\n      0x00\n        /* \"#utility.yul\":16889:16891   */\n      0x20\n        /* \"#utility.yul\":16878:16887   */\n      dup3\n        /* \"#utility.yul\":16874:16892   */\n      add\n        /* \"#utility.yul\":16866:16892   */\n      swap1\n      pop\n        /* \"#utility.yul\":16938:16947   */\n      dup2\n        /* \"#utility.yul\":16932:16936   */\n      dup2\n        /* \"#utility.yul\":16928:16948   */\n      sub\n        /* \"#utility.yul\":16924:16925   */\n      0x00\n        /* \"#utility.yul\":16913:16922   */\n      dup4\n        /* \"#utility.yul\":16909:16926   */\n      add\n        /* \"#utility.yul\":16902:16949   */\n      mstore\n        /* \"#utility.yul\":16966:17097   */\n      tag_750\n        /* \"#utility.yul\":17092:17096   */\n      dup2\n        /* \"#utility.yul\":16966:17097   */\n      tag_636\n      jump\t// in\n    tag_750:\n        /* \"#utility.yul\":16958:17097   */\n      swap1\n      pop\n        /* \"#utility.yul\":16685:17104   */\n      swap2\n      swap1\n      pop\n      jump\t// out\n        /* \"#utility.yul\":17110:17529   */\n    tag_270:\n        /* \"#utility.yul\":17276:17280   */\n      0x00\n        /* \"#utility.yul\":17314:17316   */\n      0x20\n        /* \"#utility.yul\":17303:17312   */\n      dup3\n        /* \"#utility.yul\":17299:17317   */\n      add\n        /* \"#utility.yul\":17291:17317   */\n      swap1\n      pop\n        /* \"#utility.yul\":17363:17372   */\n      dup2\n        /* \"#utility.yul\":17357:17361   */\n      dup2\n        /* \"#utility.yul\":17353:17373   */\n      sub\n        /* \"#utility.yul\":17349:17350   */\n      0x00\n        /* \"#utility.yul\":17338:17347   */\n      dup4\n        /* \"#utility.yul\":17334:17351   */\n      add\n        /* \"#utility.yul\":17327:17374   */\n      mstore\n        /* \"#utility.yul\":17391:17522   */\n      tag_752\n        /* \"#utility.yul\":17517:17521   */\n      dup2\n        /* \"#utility.yul\":17391:17522   */\n      tag_641\n      jump\t// in\n    tag_752:\n        /* \"#utility.yul\":17383:17522   */\n      swap1\n      pop\n        /* \"#utility.yul\":17110:17529   */\n      swap2\n      swap1\n      pop\n      jump\t// out\n        /* \"#utility.yul\":17535:17954   */\n    tag_503:\n        /* \"#utility.yul\":17701:17705   */\n      0x00\n        /* \"#utility.yul\":17739:17741   */\n      0x20\n        /* \"#utility.yul\":17728:17737   */\n      dup3\n        /* \"#utility.yul\":17724:17742   */\n      add\n        /* \"#utility.yul\":17716:17742   */\n      swap1\n      pop\n        /* \"#utility.yul\":17788:17797   */\n      dup2\n        /* \"#utility.yul\":17782:17786   */\n      dup2\n        /* \"#utility.yul\":17778:17798   */\n      sub\n        /* \"#utility.yul\":17774:17775   */\n      0x00\n        /* \"#utility.yul\":17763:17772   */\n      dup4\n        /* \"#utility.yul\":17759:17776   */\n      add\n        /* \"#utility.yul\":17752:17799   */\n      mstore\n        /* \"#utility.yul\":17816:17947   */\n      tag_754\n        /* \"#utility.yul\":17942:17946   */\n      dup2\n        /* \"#utility.yul\":17816:17947   */\n      tag_646\n      jump\t// in\n    tag_754:\n        /* \"#utility.yul\":17808:17947   */\n      swap1\n      pop\n        /* \"#utility.yul\":17535:17954   */\n      swap2\n      swap1\n      pop\n      jump\t// out\n        /* \"#utility.yul\":17960:18379   */\n    tag_446:\n        /* \"#utility.yul\":18126:18130   */\n      0x00\n        /* \"#utility.yul\":18164:18166   */\n      0x20\n        /* \"#utility.yul\":18153:18162   */\n      dup3\n        /* \"#utility.yul\":18149:18167   */\n      add\n        /* \"#utility.yul\":18141:18167   */\n      swap1\n      pop\n        /* \"#utility.yul\":18213:18222   */\n      dup2\n        /* \"#utility.yul\":18207:18211   */\n      dup2\n        /* \"#utility.yul\":18203:18223   */\n      sub\n        /* \"#utility.yul\":18199:18200   */\n      0x00\n        /* \"#utility.yul\":18188:18197   */\n      dup4\n        /* \"#utility.yul\":18184:18201   */\n      add\n        /* \"#utility.yul\":18177:18224   */\n      mstore\n        /* \"#utility.yul\":18241:18372   */\n      tag_756\n        /* \"#utility.yul\":18367:18371   */\n      dup2\n        /* \"#utility.yul\":18241:18372   */\n      tag_651\n      jump\t// in\n    tag_756:\n        /* \"#utility.yul\":18233:18372   */\n      swap1\n      pop\n        /* \"#utility.yul\":17960:18379   */\n      swap2\n      swap1\n      pop\n      jump\t// out\n        /* \"#utility.yul\":18385:18804   */\n    tag_186:\n        /* \"#utility.yul\":18551:18555   */\n      0x00\n        /* \"#utility.yul\":18589:18591   */\n      0x20\n        /* \"#utility.yul\":18578:18587   */\n      dup3\n        /* \"#utility.yul\":18574:18592   */\n      add\n        /* \"#utility.yul\":18566:18592   */\n      swap1\n      pop\n        /* \"#utility.yul\":18638:18647   */\n      dup2\n        /* \"#utility.yul\":18632:18636   */\n      dup2\n        /* \"#utility.yul\":18628:18648   */\n      sub\n        /* \"#utility.yul\":18624:18625   */\n      0x00\n        /* \"#utility.yul\":18613:18622   */\n      dup4\n        /* \"#utility.yul\":18609:18626   */\n      add\n        /* \"#utility.yul\":18602:18649   */\n      mstore\n        /* \"#utility.yul\":18666:18797   */\n      tag_758\n        /* \"#utility.yul\":18792:18796   */\n      dup2\n        /* \"#utility.yul\":18666:18797   */\n      tag_656\n      jump\t// in\n    tag_758:\n        /* \"#utility.yul\":18658:18797   */\n      swap1\n      pop\n        /* \"#utility.yul\":18385:18804   */\n      swap2\n      swap1\n      pop\n      jump\t// out\n        /* \"#utility.yul\":18810:19229   */\n    tag_361:\n        /* \"#utility.yul\":18976:18980   */\n      0x00\n        /* \"#utility.yul\":19014:19016   */\n      0x20\n        /* \"#utility.yul\":19003:19012   */\n      dup3\n        /* \"#utility.yul\":18999:19017   */\n      add\n        /* \"#utility.yul\":18991:19017   */\n      swap1\n      pop\n        /* \"#utility.yul\":19063:19072   */\n      dup2\n        /* \"#utility.yul\":19057:19061   */\n      dup2\n        /* \"#utility.yul\":19053:19073   */\n      sub\n        /* \"#utility.yul\":19049:19050   */\n      0x00\n        /* \"#utility.yul\":19038:19047   */\n      dup4\n        /* \"#utility.yul\":19034:19051   */\n      add\n        /* \"#utility.yul\":19027:19074   */\n      mstore\n        /* \"#utility.yul\":19091:19222   */\n      tag_760\n        /* \"#utility.yul\":19217:19221   */\n      dup2\n        /* \"#utility.yul\":19091:19222   */\n      tag_661\n      jump\t// in\n    tag_760:\n        /* \"#utility.yul\":19083:19222   */\n      swap1\n      pop\n        /* \"#utility.yul\":18810:19229   */\n      swap2\n      swap1\n      pop\n      jump\t// out\n        /* \"#utility.yul\":19235:19654   */\n    tag_138:\n        /* \"#utility.yul\":19401:19405   */\n      0x00\n        /* \"#utility.yul\":19439:19441   */\n      0x20\n        /* \"#utility.yul\":19428:19437   */\n      dup3\n        /* \"#utility.yul\":19424:19442   */\n      add\n        /* \"#utility.yul\":19416:19442   */\n      swap1\n      pop\n        /* \"#utility.yul\":19488:19497   */\n      dup2\n        /* \"#utility.yul\":19482:19486   */\n      dup2\n        /* \"#utility.yul\":19478:19498   */\n      sub\n        /* \"#utility.yul\":19474:19475   */\n      0x00\n        /* \"#utility.yul\":19463:19472   */\n      dup4\n        /* \"#utility.yul\":19459:19476   */\n      add\n        /* \"#utility.yul\":19452:19499   */\n      mstore\n        /* \"#utility.yul\":19516:19647   */\n      tag_762\n        /* \"#utility.yul\":19642:19646   */\n      dup2\n        /* \"#utility.yul\":19516:19647   */\n      tag_666\n      jump\t// in\n    tag_762:\n        /* \"#utility.yul\":19508:19647   */\n      swap1\n      pop\n        /* \"#utility.yul\":19235:19654   */\n      swap2\n      swap1\n      pop\n      jump\t// out\n        /* \"#utility.yul\":19660:20079   */\n    tag_126:\n        /* \"#utility.yul\":19826:19830   */\n      0x00\n        /* \"#utility.yul\":19864:19866   */\n      0x20\n        /* \"#utility.yul\":19853:19862   */\n      dup3\n        /* \"#utility.yul\":19849:19867   */\n      add\n        /* \"#utility.yul\":19841:19867   */\n      swap1\n      pop\n        /* \"#utility.yul\":19913:19922   */\n      dup2\n        /* \"#utility.yul\":19907:19911   */\n      dup2\n        /* \"#utility.yul\":19903:19923   */\n      sub\n        /* \"#utility.yul\":19899:19900   */\n      0x00\n        /* \"#utility.yul\":19888:19897   */\n      dup4\n        /* \"#utility.yul\":19884:19901   */\n      add\n        /* \"#utility.yul\":19877:19924   */\n      mstore\n        /* \"#utility.yul\":19941:20072   */\n      tag_764\n        /* \"#utility.yul\":20067:20071   */\n      dup2\n        /* \"#utility.yul\":19941:20072   */\n      tag_671\n      jump\t// in\n    tag_764:\n        /* \"#utility.yul\":19933:20072   */\n      swap1\n      pop\n        /* \"#utility.yul\":19660:20079   */\n      swap2\n      swap1\n      pop\n      jump\t// out\n        /* \"#utility.yul\":20085:20504   */\n    tag_193:\n        /* \"#utility.yul\":20251:20255   */\n      0x00\n        /* \"#utility.yul\":20289:20291   */\n      0x20\n        /* \"#utility.yul\":20278:20287   */\n      dup3\n        /* \"#utility.yul\":20274:20292   */\n      add\n        /* \"#utility.yul\":20266:20292   */\n      swap1\n      pop\n        /* \"#utility.yul\":20338:20347   */\n      dup2\n        /* \"#utility.yul\":20332:20336   */\n      dup2\n        /* \"#utility.yul\":20328:20348   */\n      sub\n        /* \"#utility.yul\":20324:20325   */\n      0x00\n        /* \"#utility.yul\":20313:20322   */\n      dup4\n        /* \"#utility.yul\":20309:20326   */\n      add\n        /* \"#utility.yul\":20302:20349   */\n      mstore\n        /* \"#utility.yul\":20366:20497   */\n      tag_766\n        /* \"#utility.yul\":20492:20496   */\n      dup2\n        /* \"#utility.yul\":20366:20497   */\n      tag_676\n      jump\t// in\n    tag_766:\n        /* \"#utility.yul\":20358:20497   */\n      swap1\n      pop\n        /* \"#utility.yul\":20085:20504   */\n      swap2\n      swap1\n      pop\n      jump\t// out\n        /* \"#utility.yul\":20510:20929   */\n    tag_180:\n        /* \"#utility.yul\":20676:20680   */\n      0x00\n        /* \"#utility.yul\":20714:20716   */\n      0x20\n        /* \"#utility.yul\":20703:20712   */\n      dup3\n        /* \"#utility.yul\":20699:20717   */\n      add\n        /* \"#utility.yul\":20691:20717   */\n      swap1\n      pop\n        /* \"#utility.yul\":20763:20772   */\n      dup2\n        /* \"#utility.yul\":20757:20761   */\n      dup2\n        /* \"#utility.yul\":20753:20773   */\n      sub\n        /* \"#utility.yul\":20749:20750   */\n      0x00\n        /* \"#utility.yul\":20738:20747   */\n      dup4\n        /* \"#utility.yul\":20734:20751   */\n      add\n        /* \"#utility.yul\":20727:20774   */\n      mstore\n        /* \"#utility.yul\":20791:20922   */\n      tag_768\n        /* \"#utility.yul\":20917:20921   */\n      dup2\n        /* \"#utility.yul\":20791:20922   */\n      tag_681\n      jump\t// in\n    tag_768:\n        /* \"#utility.yul\":20783:20922   */\n      swap1\n      pop\n        /* \"#utility.yul\":20510:20929   */\n      swap2\n      swap1\n      pop\n      jump\t// out\n        /* \"#utility.yul\":20935:21354   */\n    tag_284:\n        /* \"#utility.yul\":21101:21105   */\n      0x00\n        /* \"#utility.yul\":21139:21141   */\n      0x20\n        /* \"#utility.yul\":21128:21137   */\n      dup3\n        /* \"#utility.yul\":21124:21142   */\n      add\n        /* \"#utility.yul\":21116:21142   */\n      swap1\n      pop\n        /* \"#utility.yul\":21188:21197   */\n      dup2\n        /* \"#utility.yul\":21182:21186   */\n      dup2\n        /* \"#utility.yul\":21178:21198   */\n      sub\n        /* \"#utility.yul\":21174:21175   */\n      0x00\n        /* \"#utility.yul\":21163:21172   */\n      dup4\n        /* \"#utility.yul\":21159:21176   */\n      add\n        /* \"#utility.yul\":21152:21199   */\n      mstore\n        /* \"#utility.yul\":21216:21347   */\n      tag_770\n        /* \"#utility.yul\":21342:21346   */\n      dup2\n        /* \"#utility.yul\":21216:21347   */\n      tag_686\n      jump\t// in\n    tag_770:\n        /* \"#utility.yul\":21208:21347   */\n      swap1\n      pop\n        /* \"#utility.yul\":20935:21354   */\n      swap2\n      swap1\n      pop\n      jump\t// out\n        /* \"#utility.yul\":21360:21779   */\n    tag_176:\n        /* \"#utility.yul\":21526:21530   */\n      0x00\n        /* \"#utility.yul\":21564:21566   */\n      0x20\n        /* \"#utility.yul\":21553:21562   */\n      dup3\n        /* \"#utility.yul\":21549:21567   */\n      add\n        /* \"#utility.yul\":21541:21567   */\n      swap1\n      pop\n        /* \"#utility.yul\":21613:21622   */\n      dup2\n        /* \"#utility.yul\":21607:21611   */\n      dup2\n        /* \"#utility.yul\":21603:21623   */\n      sub\n        /* \"#utility.yul\":21599:21600   */\n      0x00\n        /* \"#utility.yul\":21588:21597   */\n      dup4\n        /* \"#utility.yul\":21584:21601   */\n      add\n        /* \"#utility.yul\":21577:21624   */\n      mstore\n        /* \"#utility.yul\":21641:21772   */\n      tag_772\n        /* \"#utility.yul\":21767:21771   */\n      dup2\n        /* \"#utility.yul\":21641:21772   */\n      tag_691\n      jump\t// in\n    tag_772:\n        /* \"#utility.yul\":21633:21772   */\n      swap1\n      pop\n        /* \"#utility.yul\":21360:21779   */\n      swap2\n      swap1\n      pop\n      jump\t// out\n        /* \"#utility.yul\":21785:22204   */\n    tag_342:\n        /* \"#utility.yul\":21951:21955   */\n      0x00\n        /* \"#utility.yul\":21989:21991   */\n      0x20\n        /* \"#utility.yul\":21978:21987   */\n      dup3\n        /* \"#utility.yul\":21974:21992   */\n      add\n        /* \"#utility.yul\":21966:21992   */\n      swap1\n      pop\n        /* \"#utility.yul\":22038:22047   */\n      dup2\n        /* \"#utility.yul\":22032:22036   */\n      dup2\n        /* \"#utility.yul\":22028:22048   */\n      sub\n        /* \"#utility.yul\":22024:22025   */\n      0x00\n        /* \"#utility.yul\":22013:22022   */\n      dup4\n        /* \"#utility.yul\":22009:22026   */\n      add\n        /* \"#utility.yul\":22002:22049   */\n      mstore\n        /* \"#utility.yul\":22066:22197   */\n      tag_774\n        /* \"#utility.yul\":22192:22196   */\n      dup2\n        /* \"#utility.yul\":22066:22197   */\n      tag_696\n      jump\t// in\n    tag_774:\n        /* \"#utility.yul\":22058:22197   */\n      swap1\n      pop\n        /* \"#utility.yul\":21785:22204   */\n      swap2\n      swap1\n      pop\n      jump\t// out\n        /* \"#utility.yul\":22210:22629   */\n    tag_277:\n        /* \"#utility.yul\":22376:22380   */\n      0x00\n        /* \"#utility.yul\":22414:22416   */\n      0x20\n        /* \"#utility.yul\":22403:22412   */\n      dup3\n        /* \"#utility.yul\":22399:22417   */\n      add\n        /* \"#utility.yul\":22391:22417   */\n      swap1\n      pop\n        /* \"#utility.yul\":22463:22472   */\n      dup2\n        /* \"#utility.yul\":22457:22461   */\n      dup2\n        /* \"#utility.yul\":22453:22473   */\n      sub\n        /* \"#utility.yul\":22449:22450   */\n      0x00\n        /* \"#utility.yul\":22438:22447   */\n      dup4\n        /* \"#utility.yul\":22434:22451   */\n      add\n        /* \"#utility.yul\":22427:22474   */\n      mstore\n        /* \"#utility.yul\":22491:22622   */\n      tag_776\n        /* \"#utility.yul\":22617:22621   */\n      dup2\n        /* \"#utility.yul\":22491:22622   */\n      tag_701\n      jump\t// in\n    tag_776:\n        /* \"#utility.yul\":22483:22622   */\n      swap1\n      pop\n        /* \"#utility.yul\":22210:22629   */\n      swap2\n      swap1\n      pop\n      jump\t// out\n        /* \"#utility.yul\":22635:23054   */\n    tag_199:\n        /* \"#utility.yul\":22801:22805   */\n      0x00\n        /* \"#utility.yul\":22839:22841   */\n      0x20\n        /* \"#utility.yul\":22828:22837   */\n      dup3\n        /* \"#utility.yul\":22824:22842   */\n      add\n        /* \"#utility.yul\":22816:22842   */\n      swap1\n      pop\n        /* \"#utility.yul\":22888:22897   */\n      dup2\n        /* \"#utility.yul\":22882:22886   */\n      dup2\n        /* \"#utility.yul\":22878:22898   */\n      sub\n        /* \"#utility.yul\":22874:22875   */\n      0x00\n        /* \"#utility.yul\":22863:22872   */\n      dup4\n        /* \"#utility.yul\":22859:22876   */\n      add\n        /* \"#utility.yul\":22852:22899   */\n      mstore\n        /* \"#utility.yul\":22916:23047   */\n      tag_778\n        /* \"#utility.yul\":23042:23046   */\n      dup2\n        /* \"#utility.yul\":22916:23047   */\n      tag_706\n      jump\t// in\n    tag_778:\n        /* \"#utility.yul\":22908:23047   */\n      swap1\n      pop\n        /* \"#utility.yul\":22635:23054   */\n      swap2\n      swap1\n      pop\n      jump\t// out\n        /* \"#utility.yul\":23060:23479   */\n    tag_512:\n        /* \"#utility.yul\":23226:23230   */\n      0x00\n        /* \"#utility.yul\":23264:23266   */\n      0x20\n        /* \"#utility.yul\":23253:23262   */\n      dup3\n        /* \"#utility.yul\":23249:23267   */\n      add\n        /* \"#utility.yul\":23241:23267   */\n      swap1\n      pop\n        /* \"#utility.yul\":23313:23322   */\n      dup2\n        /* \"#utility.yul\":23307:23311   */\n      dup2\n        /* \"#utility.yul\":23303:23323   */\n      sub\n        /* \"#utility.yul\":23299:23300   */\n      0x00\n        /* \"#utility.yul\":23288:23297   */\n      dup4\n        /* \"#utility.yul\":23284:23301   */\n      add\n        /* \"#utility.yul\":23277:23324   */\n      mstore\n        /* \"#utility.yul\":23341:23472   */\n      tag_780\n        /* \"#utility.yul\":23467:23471   */\n      dup2\n        /* \"#utility.yul\":23341:23472   */\n      tag_711\n      jump\t// in\n    tag_780:\n        /* \"#utility.yul\":23333:23472   */\n      swap1\n      pop\n        /* \"#utility.yul\":23060:23479   */\n      swap2\n      swap1\n      pop\n      jump\t// out\n        /* \"#utility.yul\":23485:23904   */\n    tag_395:\n        /* \"#utility.yul\":23651:23655   */\n      0x00\n        /* \"#utility.yul\":23689:23691   */\n      0x20\n        /* \"#utility.yul\":23678:23687   */\n      dup3\n        /* \"#utility.yul\":23674:23692   */\n      add\n        /* \"#utility.yul\":23666:23692   */\n      swap1\n      pop\n        /* \"#utility.yul\":23738:23747   */\n      dup2\n        /* \"#utility.yul\":23732:23736   */\n      dup2\n        /* \"#utility.yul\":23728:23748   */\n      sub\n        /* \"#utility.yul\":23724:23725   */\n      0x00\n        /* \"#utility.yul\":23713:23722   */\n      dup4\n        /* \"#utility.yul\":23709:23726   */\n      add\n        /* \"#utility.yul\":23702:23749   */\n      mstore\n        /* \"#utility.yul\":23766:23897   */\n      tag_782\n        /* \"#utility.yul\":23892:23896   */\n      dup2\n        /* \"#utility.yul\":23766:23897   */\n      tag_716\n      jump\t// in\n    tag_782:\n        /* \"#utility.yul\":23758:23897   */\n      swap1\n      pop\n        /* \"#utility.yul\":23485:23904   */\n      swap2\n      swap1\n      pop\n      jump\t// out\n        /* \"#utility.yul\":23910:24132   */\n    tag_64:\n        /* \"#utility.yul\":24003:24007   */\n      0x00\n        /* \"#utility.yul\":24041:24043   */\n      0x20\n        /* \"#utility.yul\":24030:24039   */\n      dup3\n        /* \"#utility.yul\":24026:24044   */\n      add\n        /* \"#utility.yul\":24018:24044   */\n      swap1\n      pop\n        /* \"#utility.yul\":24054:24125   */\n      tag_784\n        /* \"#utility.yul\":24122:24123   */\n      0x00\n        /* \"#utility.yul\":24111:24120   */\n      dup4\n        /* \"#utility.yul\":24107:24124   */\n      add\n        /* \"#utility.yul\":24098:24104   */\n      dup5\n        /* \"#utility.yul\":24054:24125   */\n      tag_721\n      jump\t// in\n    tag_784:\n        /* \"#utility.yul\":23910:24132   */\n      swap3\n      swap2\n      pop\n      pop\n      jump\t// out\n        /* \"#utility.yul\":24138:24470   */\n    tag_53:\n        /* \"#utility.yul\":24259:24263   */\n      0x00\n        /* \"#utility.yul\":24297:24299   */\n      0x40\n        /* \"#utility.yul\":24286:24295   */\n      dup3\n        /* \"#utility.yul\":24282:24300   */\n      add\n        /* \"#utility.yul\":24274:24300   */\n      swap1\n      pop\n        /* \"#utility.yul\":24310:24381   */\n      tag_786\n        /* \"#utility.yul\":24378:24379   */\n      0x00\n        /* \"#utility.yul\":24367:24376   */\n      dup4\n        /* \"#utility.yul\":24363:24380   */\n      add\n        /* \"#utility.yul\":24354:24360   */\n      dup6\n        /* \"#utility.yul\":24310:24381   */\n      tag_721\n      jump\t// in\n    tag_786:\n        /* \"#utility.yul\":24391:24463   */\n      tag_787\n        /* \"#utility.yul\":24459:24461   */\n      0x20\n        /* \"#utility.yul\":24448:24457   */\n      dup4\n        /* \"#utility.yul\":24444:24462   */\n      add\n        /* \"#utility.yul\":24435:24441   */\n      dup5\n        /* \"#utility.yul\":24391:24463   */\n      tag_721\n      jump\t// in\n    tag_787:\n        /* \"#utility.yul\":24138:24470   */\n      swap4\n      swap3\n      pop\n      pop\n      pop\n      jump\t// out\n        /* \"#utility.yul\":24476:24918   */\n    tag_246:\n        /* \"#utility.yul\":24625:24629   */\n      0x00\n        /* \"#utility.yul\":24663:24665   */\n      0x60\n        /* \"#utility.yul\":24652:24661   */\n      dup3\n        /* \"#utility.yul\":24648:24666   */\n      add\n        /* \"#utility.yul\":24640:24666   */\n      swap1\n      pop\n        /* \"#utility.yul\":24676:24747   */\n      tag_789\n        /* \"#utility.yul\":24744:24745   */\n      0x00\n        /* \"#utility.yul\":24733:24742   */\n      dup4\n        /* \"#utility.yul\":24729:24746   */\n      add\n        /* \"#utility.yul\":24720:24726   */\n      dup7\n        /* \"#utility.yul\":24676:24747   */\n      tag_721\n      jump\t// in\n    tag_789:\n        /* \"#utility.yul\":24757:24829   */\n      tag_790\n        /* \"#utility.yul\":24825:24827   */\n      0x20\n        /* \"#utility.yul\":24814:24823   */\n      dup4\n        /* \"#utility.yul\":24810:24828   */\n      add\n        /* \"#utility.yul\":24801:24807   */\n      dup6\n        /* \"#utility.yul\":24757:24829   */\n      tag_721\n      jump\t// in\n    tag_790:\n        /* \"#utility.yul\":24839:24911   */\n      tag_791\n        /* \"#utility.yul\":24907:24909   */\n      0x40\n        /* \"#utility.yul\":24896:24905   */\n      dup4\n        /* \"#utility.yul\":24892:24910   */\n      add\n        /* \"#utility.yul\":24883:24889   */\n      dup5\n        /* \"#utility.yul\":24839:24911   */\n      tag_721\n      jump\t// in\n    tag_791:\n        /* \"#utility.yul\":24476:24918   */\n      swap5\n      swap4\n      pop\n      pop\n      pop\n      pop\n      jump\t// out\n        /* \"#utility.yul\":24924:25477   */\n    tag_43:\n        /* \"#utility.yul\":25101:25105   */\n      0x00\n        /* \"#utility.yul\":25139:25142   */\n      0x80\n        /* \"#utility.yul\":25128:25137   */\n      dup3\n        /* \"#utility.yul\":25124:25143   */\n      add\n        /* \"#utility.yul\":25116:25143   */\n      swap1\n      pop\n        /* \"#utility.yul\":25153:25224   */\n      tag_793\n        /* \"#utility.yul\":25221:25222   */\n      0x00\n        /* \"#utility.yul\":25210:25219   */\n      dup4\n        /* \"#utility.yul\":25206:25223   */\n      add\n        /* \"#utility.yul\":25197:25203   */\n      dup8\n        /* \"#utility.yul\":25153:25224   */\n      tag_721\n      jump\t// in\n    tag_793:\n        /* \"#utility.yul\":25234:25306   */\n      tag_794\n        /* \"#utility.yul\":25302:25304   */\n      0x20\n        /* \"#utility.yul\":25291:25300   */\n      dup4\n        /* \"#utility.yul\":25287:25305   */\n      add\n        /* \"#utility.yul\":25278:25284   */\n      dup7\n        /* \"#utility.yul\":25234:25306   */\n      tag_721\n      jump\t// in\n    tag_794:\n        /* \"#utility.yul\":25316:25388   */\n      tag_795\n        /* \"#utility.yul\":25384:25386   */\n      0x40\n        /* \"#utility.yul\":25373:25382   */\n      dup4\n        /* \"#utility.yul\":25369:25387   */\n      add\n        /* \"#utility.yul\":25360:25366   */\n      dup6\n        /* \"#utility.yul\":25316:25388   */\n      tag_721\n      jump\t// in\n    tag_795:\n        /* \"#utility.yul\":25398:25470   */\n      tag_796\n        /* \"#utility.yul\":25466:25468   */\n      0x60\n        /* \"#utility.yul\":25455:25464   */\n      dup4\n        /* \"#utility.yul\":25451:25469   */\n      add\n        /* \"#utility.yul\":25442:25448   */\n      dup5\n        /* \"#utility.yul\":25398:25470   */\n      tag_721\n      jump\t// in\n    tag_796:\n        /* \"#utility.yul\":24924:25477   */\n      swap6\n      swap5\n      pop\n      pop\n      pop\n      pop\n      pop\n      jump\t// out\n        /* \"#utility.yul\":25564:25662   */\n    tag_604:\n        /* \"#utility.yul\":25615:25621   */\n      0x00\n        /* \"#utility.yul\":25649:25654   */\n      dup2\n        /* \"#utility.yul\":25643:25655   */\n      mload\n        /* \"#utility.yul\":25633:25655   */\n      swap1\n      pop\n        /* \"#utility.yul\":25564:25662   */\n      swap2\n      swap1\n      pop\n      jump\t// out\n        /* \"#utility.yul\":25668:25767   */\n    tag_620:\n        /* \"#utility.yul\":25720:25726   */\n      0x00\n        /* \"#utility.yul\":25754:25759   */\n      dup2\n        /* \"#utility.yul\":25748:25760   */\n      mload\n        /* \"#utility.yul\":25738:25760   */\n      swap1\n      pop\n        /* \"#utility.yul\":25668:25767   */\n      swap2\n      swap1\n      pop\n      jump\t// out\n        /* \"#utility.yul\":25773:25957   */\n    tag_595:\n        /* \"#utility.yul\":25872:25883   */\n      0x00\n        /* \"#utility.yul\":25906:25912   */\n      dup3\n        /* \"#utility.yul\":25901:25904   */\n      dup3\n        /* \"#utility.yul\":25894:25913   */\n      mstore\n        /* \"#utility.yul\":25946:25950   */\n      0x20\n        /* \"#utility.yul\":25941:25944   */\n      dup3\n        /* \"#utility.yul\":25937:25951   */\n      add\n        /* \"#utility.yul\":25922:25951   */\n      swap1\n      pop\n        /* \"#utility.yul\":25773:25957   */\n      swap3\n      swap2\n      pop\n      pop\n      jump\t// out\n        /* \"#utility.yul\":25963:26110   */\n    tag_606:\n        /* \"#utility.yul\":26064:26075   */\n      0x00\n        /* \"#utility.yul\":26101:26104   */\n      dup2\n        /* \"#utility.yul\":26086:26104   */\n      swap1\n      pop\n        /* \"#utility.yul\":25963:26110   */\n      swap3\n      swap2\n      pop\n      pop\n      jump\t// out\n        /* \"#utility.yul\":26116:26285   */\n    tag_622:\n        /* \"#utility.yul\":26200:26211   */\n      0x00\n        /* \"#utility.yul\":26234:26240   */\n      dup3\n        /* \"#utility.yul\":26229:26232   */\n      dup3\n        /* \"#utility.yul\":26222:26241   */\n      mstore\n        /* \"#utility.yul\":26274:26278   */\n      0x20\n        /* \"#utility.yul\":26269:26272   */\n      dup3\n        /* \"#utility.yul\":26265:26279   */\n      add\n        /* \"#utility.yul\":26250:26279   */\n      swap1\n      pop\n        /* \"#utility.yul\":26116:26285   */\n      swap3\n      swap2\n      pop\n      pop\n      jump\t// out\n        /* \"#utility.yul\":26291:26596   */\n    tag_131:\n        /* \"#utility.yul\":26331:26334   */\n      0x00\n        /* \"#utility.yul\":26350:26370   */\n      tag_805\n        /* \"#utility.yul\":26368:26369   */\n      dup3\n        /* \"#utility.yul\":26350:26370   */\n      tag_724\n      jump\t// in\n    tag_805:\n        /* \"#utility.yul\":26345:26370   */\n      swap2\n      pop\n        /* \"#utility.yul\":26384:26404   */\n      tag_806\n        /* \"#utility.yul\":26402:26403   */\n      dup4\n        /* \"#utility.yul\":26384:26404   */\n      tag_724\n      jump\t// in\n    tag_806:\n        /* \"#utility.yul\":26379:26404   */\n      swap3\n      pop\n        /* \"#utility.yul\":26538:26539   */\n      dup3\n        /* \"#utility.yul\":26470:26536   */\n      0xffffffffffffffffffffffffffffffffffffffffffffffffffffffffffffffff\n        /* \"#utility.yul\":26466:26540   */\n      sub\n        /* \"#utility.yul\":26463:26464   */\n      dup3\n        /* \"#utility.yul\":26460:26541   */\n      gt\n        /* \"#utility.yul\":26457:26564   */\n      iszero\n      tag_807\n      jumpi\n        /* \"#utility.yul\":26544:26562   */\n      tag_808\n      tag_809\n      jump\t// in\n    tag_808:\n        /* \"#utility.yul\":26457:26564   */\n    tag_807:\n        /* \"#utility.yul\":26588:26589   */\n      dup3\n        /* \"#utility.yul\":26585:26586   */\n      dup3\n        /* \"#utility.yul\":26581:26590   */\n      add\n        /* \"#utility.yul\":26574:26590   */\n      swap1\n      pop\n        /* \"#utility.yul\":26291:26596   */\n      swap3\n      swap2\n      pop\n      pop\n      jump\t// out\n        /* \"#utility.yul\":26602:26787   */\n    tag_468:\n        /* \"#utility.yul\":26642:26643   */\n      0x00\n        /* \"#utility.yul\":26659:26679   */\n      tag_811\n        /* \"#utility.yul\":26677:26678   */\n      dup3\n        /* \"#utility.yul\":26659:26679   */\n      tag_724\n      jump\t// in\n    tag_811:\n        /* \"#utility.yul\":26654:26679   */\n      swap2\n      pop\n        /* \"#utility.yul\":26693:26713   */\n      tag_812\n        /* \"#utility.yul\":26711:26712   */\n      dup4\n        /* \"#utility.yul\":26693:26713   */\n      tag_724\n      jump\t// in\n    tag_812:\n        /* \"#utility.yul\":26688:26713   */\n      swap3\n      pop\n        /* \"#utility.yul\":26732:26733   */\n      dup3\n        /* \"#utility.yul\":26722:26757   */\n      tag_813\n      jumpi\n        /* \"#utility.yul\":26737:26755   */\n      tag_814\n      tag_815\n      jump\t// in\n    tag_814:\n        /* \"#utility.yul\":26722:26757   */\n    tag_813:\n        /* \"#utility.yul\":26779:26780   */\n      dup3\n        /* \"#utility.yul\":26776:26777   */\n      dup3\n        /* \"#utility.yul\":26772:26781   */\n      div\n        /* \"#utility.yul\":26767:26781   */\n      swap1\n      pop\n        /* \"#utility.yul\":26602:26787   */\n      swap3\n      swap2\n      pop\n      pop\n      jump\t// out\n        /* \"#utility.yul\":26793:27141   */\n    tag_465:\n        /* \"#utility.yul\":26833:26840   */\n      0x00\n        /* \"#utility.yul\":26856:26876   */\n      tag_817\n        /* \"#utility.yul\":26874:26875   */\n      dup3\n        /* \"#utility.yul\":26856:26876   */\n      tag_724\n      jump\t// in\n    tag_817:\n        /* \"#utility.yul\":26851:26876   */\n      swap2\n      pop\n        /* \"#utility.yul\":26890:26910   */\n      tag_818\n        /* \"#utility.yul\":26908:26909   */\n      dup4\n        /* \"#utility.yul\":26890:26910   */\n      tag_724\n      jump\t// in\n    tag_818:\n        /* \"#utility.yul\":26885:26910   */\n      swap3\n      pop\n        /* \"#utility.yul\":27078:27079   */\n      dup2\n        /* \"#utility.yul\":27010:27076   */\n      0xffffffffffffffffffffffffffffffffffffffffffffffffffffffffffffffff\n        /* \"#utility.yul\":27006:27080   */\n      div\n        /* \"#utility.yul\":27003:27004   */\n      dup4\n        /* \"#utility.yul\":27000:27081   */\n      gt\n        /* \"#utility.yul\":26995:26996   */\n      dup3\n        /* \"#utility.yul\":26988:26997   */\n      iszero\n        /* \"#utility.yul\":26981:26998   */\n      iszero\n        /* \"#utility.yul\":26977:27082   */\n      and\n        /* \"#utility.yul\":26974:27105   */\n      iszero\n      tag_819\n      jumpi\n        /* \"#utility.yul\":27085:27103   */\n      tag_820\n      tag_809\n      jump\t// in\n    tag_820:\n        /* \"#utility.yul\":26974:27105   */\n    tag_819:\n        /* \"#utility.yul\":27133:27134   */\n      dup3\n        /* \"#utility.yul\":27130:27131   */\n      dup3\n        /* \"#utility.yul\":27126:27135   */\n      mul\n        /* \"#utility.yul\":27115:27135   */\n      swap1\n      pop\n        /* \"#utility.yul\":26793:27141   */\n      swap3\n      swap2\n      pop\n      pop\n      jump\t// out\n        /* \"#utility.yul\":27147:27338   */\n    tag_202:\n        /* \"#utility.yul\":27187:27191   */\n      0x00\n        /* \"#utility.yul\":27207:27227   */\n      tag_822\n        /* \"#utility.yul\":27225:27226   */\n      dup3\n        /* \"#utility.yul\":27207:27227   */\n      tag_724\n      jump\t// in\n    tag_822:\n        /* \"#utility.yul\":27202:27227   */\n      swap2\n      pop\n        /* \"#utility.yul\":27241:27261   */\n      tag_823\n        /* \"#utility.yul\":27259:27260   */\n      dup4\n        /* \"#utility.yul\":27241:27261   */\n      tag_724\n      jump\t// in\n    tag_823:\n        /* \"#utility.yul\":27236:27261   */\n      swap3\n      pop\n        /* \"#utility.yul\":27280:27281   */\n      dup3\n        /* \"#utility.yul\":27277:27278   */\n      dup3\n        /* \"#utility.yul\":27274:27282   */\n      lt\n        /* \"#utility.yul\":27271:27305   */\n      iszero\n      tag_824\n      jumpi\n        /* \"#utility.yul\":27285:27303   */\n      tag_825\n      tag_809\n      jump\t// in\n    tag_825:\n        /* \"#utility.yul\":27271:27305   */\n    tag_824:\n        /* \"#utility.yul\":27330:27331   */\n      dup3\n        /* \"#utility.yul\":27327:27328   */\n      dup3\n        /* \"#utility.yul\":27323:27332   */\n      sub\n        /* \"#utility.yul\":27315:27332   */\n      swap1\n      pop\n        /* \"#utility.yul\":27147:27338   */\n      swap3\n      swap2\n      pop\n      pop\n      jump\t// out\n        /* \"#utility.yul\":27344:27440   */\n    tag_591:\n        /* \"#utility.yul\":27381:27388   */\n      0x00\n        /* \"#utility.yul\":27410:27434   */\n      tag_827\n        /* \"#utility.yul\":27428:27433   */\n      dup3\n        /* \"#utility.yul\":27410:27434   */\n      tag_828\n      jump\t// in\n    tag_827:\n        /* \"#utility.yul\":27399:27434   */\n      swap1\n      pop\n        /* \"#utility.yul\":27344:27440   */\n      swap2\n      swap1\n      pop\n      jump\t// out\n        /* \"#utility.yul\":27446:27536   */\n    tag_829:\n        /* \"#utility.yul\":27480:27487   */\n      0x00\n        /* \"#utility.yul\":27523:27528   */\n      dup2\n        /* \"#utility.yul\":27516:27529   */\n      iszero\n        /* \"#utility.yul\":27509:27530   */\n      iszero\n        /* \"#utility.yul\":27498:27530   */\n      swap1\n      pop\n        /* \"#utility.yul\":27446:27536   */\n      swap2\n      swap1\n      pop\n      jump\t// out\n        /* \"#utility.yul\":27542:27668   */\n    tag_828:\n        /* \"#utility.yul\":27579:27586   */\n      0x00\n        /* \"#utility.yul\":27619:27661   */\n      0xffffffffffffffffffffffffffffffffffffffff\n        /* \"#utility.yul\":27612:27617   */\n      dup3\n        /* \"#utility.yul\":27608:27662   */\n      and\n        /* \"#utility.yul\":27597:27662   */\n      swap1\n      pop\n        /* \"#utility.yul\":27542:27668   */\n      swap2\n      swap1\n      pop\n      jump\t// out\n        /* \"#utility.yul\":27674:27751   */\n    tag_724:\n        /* \"#utility.yul\":27711:27718   */\n      0x00\n        /* \"#utility.yul\":27740:27745   */\n      dup2\n        /* \"#utility.yul\":27729:27745   */\n      swap1\n      pop\n        /* \"#utility.yul\":27674:27751   */\n      swap2\n      swap1\n      pop\n      jump\t// out\n        /* \"#utility.yul\":27757:27897   */\n    tag_612:\n        /* \"#utility.yul\":27821:27830   */\n      0x00\n        /* \"#utility.yul\":27854:27891   */\n      tag_834\n        /* \"#utility.yul\":27885:27890   */\n      dup3\n        /* \"#utility.yul\":27854:27891   */\n      tag_835\n      jump\t// in\n    tag_834:\n        /* \"#utility.yul\":27841:27891   */\n      swap1\n      pop\n        /* \"#utility.yul\":27757:27897   */\n      swap2\n      swap1\n      pop\n      jump\t// out\n        /* \"#utility.yul\":27903:28045   */\n    tag_616:\n        /* \"#utility.yul\":27969:27978   */\n      0x00\n        /* \"#utility.yul\":28002:28039   */\n      tag_837\n        /* \"#utility.yul\":28033:28038   */\n      dup3\n        /* \"#utility.yul\":28002:28039   */\n      tag_835\n      jump\t// in\n    tag_837:\n        /* \"#utility.yul\":27989:28039   */\n      swap1\n      pop\n        /* \"#utility.yul\":27903:28045   */\n      swap2\n      swap1\n      pop\n      jump\t// out\n        /* \"#utility.yul\":28051:28177   */\n    tag_835:\n        /* \"#utility.yul\":28101:28110   */\n      0x00\n        /* \"#utility.yul\":28134:28171   */\n      tag_839\n        /* \"#utility.yul\":28165:28170   */\n      dup3\n        /* \"#utility.yul\":28134:28171   */\n      tag_840\n      jump\t// in\n    tag_839:\n        /* \"#utility.yul\":28121:28171   */\n      swap1\n      pop\n        /* \"#utility.yul\":28051:28177   */\n      swap2\n      swap1\n      pop\n      jump\t// out\n        /* \"#utility.yul\":28183:28296   */\n    tag_840:\n        /* \"#utility.yul\":28233:28242   */\n      0x00\n        /* \"#utility.yul\":28266:28290   */\n      tag_842\n        /* \"#utility.yul\":28284:28289   */\n      dup3\n        /* \"#utility.yul\":28266:28290   */\n      tag_828\n      jump\t// in\n    tag_842:\n        /* \"#utility.yul\":28253:28290   */\n      swap1\n      pop\n        /* \"#utility.yul\":28183:28296   */\n      swap2\n      swap1\n      pop\n      jump\t// out\n        /* \"#utility.yul\":28302:28456   */\n    tag_600:\n        /* \"#utility.yul\":28386:28392   */\n      dup3\n        /* \"#utility.yul\":28381:28384   */\n      dup2\n        /* \"#utility.yul\":28376:28379   */\n      dup4\n        /* \"#utility.yul\":28363:28393   */\n      calldatacopy\n        /* \"#utility.yul\":28448:28449   */\n      0x00\n        /* \"#utility.yul\":28439:28445   */\n      dup4\n        /* \"#utility.yul\":28434:28437   */\n      dup4\n        /* \"#utility.yul\":28430:28446   */\n      add\n        /* \"#utility.yul\":28423:28450   */\n      mstore\n        /* \"#utility.yul\":28302:28456   */\n      pop\n      pop\n      pop\n      jump\t// out\n        /* \"#utility.yul\":28462:28769   */\n    tag_608:\n        /* \"#utility.yul\":28530:28531   */\n      0x00\n        /* \"#utility.yul\":28540:28653   */\n    tag_845:\n        /* \"#utility.yul\":28554:28560   */\n      dup4\n        /* \"#utility.yul\":28551:28552   */\n      dup2\n        /* \"#utility.yul\":28548:28561   */\n      lt\n        /* \"#utility.yul\":28540:28653   */\n      iszero\n      tag_847\n      jumpi\n        /* \"#utility.yul\":28639:28640   */\n      dup1\n        /* \"#utility.yul\":28634:28637   */\n      dup3\n        /* \"#utility.yul\":28630:28641   */\n      add\n        /* \"#utility.yul\":28624:28642   */\n      mload\n        /* \"#utility.yul\":28620:28621   */\n      dup2\n        /* \"#utility.yul\":28615:28618   */\n      dup5\n        /* \"#utility.yul\":28611:28622   */\n      add\n        /* \"#utility.yul\":28604:28643   */\n      mstore\n        /* \"#utility.yul\":28576:28578   */\n      0x20\n        /* \"#utility.yul\":28573:28574   */\n      dup2\n        /* \"#utility.yul\":28569:28579   */\n      add\n        /* \"#utility.yul\":28564:28579   */\n      swap1\n      pop\n        /* \"#utility.yul\":28540:28653   */\n      jump(tag_845)\n    tag_847:\n        /* \"#utility.yul\":28671:28677   */\n      dup4\n        /* \"#utility.yul\":28668:28669   */\n      dup2\n        /* \"#utility.yul\":28665:28678   */\n      gt\n        /* \"#utility.yul\":28662:28763   */\n      iszero\n      tag_848\n      jumpi\n        /* \"#utility.yul\":28751:28752   */\n      0x00\n        /* \"#utility.yul\":28742:28748   */\n      dup5\n        /* \"#utility.yul\":28737:28740   */\n      dup5\n        /* \"#utility.yul\":28733:28749   */\n      add\n        /* \"#utility.yul\":28726:28753   */\n      mstore\n        /* \"#utility.yul\":28662:28763   */\n    tag_848:\n        /* \"#utility.yul\":28511:28769   */\n      pop\n        /* \"#utility.yul\":28462:28769   */\n      pop\n      pop\n      pop\n      jump\t// out\n        /* \"#utility.yul\":28775:29008   */\n    tag_140:\n        /* \"#utility.yul\":28814:28817   */\n      0x00\n        /* \"#utility.yul\":28837:28861   */\n      tag_850\n        /* \"#utility.yul\":28855:28860   */\n      dup3\n        /* \"#utility.yul\":28837:28861   */\n      tag_724\n      jump\t// in\n    tag_850:\n        /* \"#utility.yul\":28828:28861   */\n      swap2\n      pop\n        /* \"#utility.yul\":28883:28949   */\n      0xffffffffffffffffffffffffffffffffffffffffffffffffffffffffffffffff\n        /* \"#utility.yul\":28876:28881   */\n      dup3\n        /* \"#utility.yul\":28873:28950   */\n      eq\n        /* \"#utility.yul\":28870:28973   */\n      iszero\n      tag_851\n      jumpi\n        /* \"#utility.yul\":28953:28971   */\n      tag_852\n      tag_809\n      jump\t// in\n    tag_852:\n        /* \"#utility.yul\":28870:28973   */\n    tag_851:\n        /* \"#utility.yul\":29000:29001   */\n      0x01\n        /* \"#utility.yul\":28993:28998   */\n      dup3\n        /* \"#utility.yul\":28989:29002   */\n      add\n        /* \"#utility.yul\":28982:29002   */\n      swap1\n      pop\n        /* \"#utility.yul\":28775:29008   */\n      swap2\n      swap1\n      pop\n      jump\t// out\n        /* \"#utility.yul\":29014:29194   */\n    tag_809:\n        /* \"#utility.yul\":29062:29139   */\n      0x4e487b7100000000000000000000000000000000000000000000000000000000\n        /* \"#utility.yul\":29059:29060   */\n      0x00\n        /* \"#utility.yul\":29052:29140   */\n      mstore\n        /* \"#utility.yul\":29159:29163   */\n      0x11\n        /* \"#utility.yul\":29156:29157   */\n      0x04\n        /* \"#utility.yul\":29149:29164   */\n      mstore\n        /* \"#utility.yul\":29183:29187   */\n      0x24\n        /* \"#utility.yul\":29180:29181   */\n      0x00\n        /* \"#utility.yul\":29173:29188   */\n      revert\n        /* \"#utility.yul\":29200:29380   */\n    tag_815:\n        /* \"#utility.yul\":29248:29325   */\n      0x4e487b7100000000000000000000000000000000000000000000000000000000\n        /* \"#utility.yul\":29245:29246   */\n      0x00\n        /* \"#utility.yul\":29238:29326   */\n      mstore\n        /* \"#utility.yul\":29345:29349   */\n      0x12\n        /* \"#utility.yul\":29342:29343   */\n      0x04\n        /* \"#utility.yul\":29335:29350   */\n      mstore\n        /* \"#utility.yul\":29369:29373   */\n      0x24\n        /* \"#utility.yul\":29366:29367   */\n      0x00\n        /* \"#utility.yul\":29359:29374   */\n      revert\n        /* \"#utility.yul\":29386:29566   */\n    tag_382:\n        /* \"#utility.yul\":29434:29511   */\n      0x4e487b7100000000000000000000000000000000000000000000000000000000\n        /* \"#utility.yul\":29431:29432   */\n      0x00\n        /* \"#utility.yul\":29424:29512   */\n      mstore\n        /* \"#utility.yul\":29531:29535   */\n      0x31\n        /* \"#utility.yul\":29528:29529   */\n      0x04\n        /* \"#utility.yul\":29521:29536   */\n      mstore\n        /* \"#utility.yul\":29555:29559   */\n      0x24\n        /* \"#utility.yul\":29552:29553   */\n      0x00\n        /* \"#utility.yul\":29545:29560   */\n      revert\n        /* \"#utility.yul\":29572:29752   */\n    tag_123:\n        /* \"#utility.yul\":29620:29697   */\n      0x4e487b7100000000000000000000000000000000000000000000000000000000\n        /* \"#utility.yul\":29617:29618   */\n      0x00\n        /* \"#utility.yul\":29610:29698   */\n      mstore\n        /* \"#utility.yul\":29717:29721   */\n      0x32\n        /* \"#utility.yul\":29714:29715   */\n      0x04\n        /* \"#utility.yul\":29707:29722   */\n      mstore\n        /* \"#utility.yul\":29741:29745   */\n      0x24\n        /* \"#utility.yul\":29738:29739   */\n      0x00\n        /* \"#utility.yul\":29731:29746   */\n      revert\n        /* \"#utility.yul\":29758:29875   */\n    tag_538:\n        /* \"#utility.yul\":29867:29868   */\n      0x00\n        /* \"#utility.yul\":29864:29865   */\n      dup1\n        /* \"#utility.yul\":29857:29869   */\n      revert\n        /* \"#utility.yul\":29881:29998   */\n    tag_535:\n        /* \"#utility.yul\":29990:29991   */\n      0x00\n        /* \"#utility.yul\":29987:29988   */\n      dup1\n        /* \"#utility.yul\":29980:29992   */\n      revert\n        /* \"#utility.yul\":30004:30121   */\n    tag_541:\n        /* \"#utility.yul\":30113:30114   */\n      0x00\n        /* \"#utility.yul\":30110:30111   */\n      dup1\n        /* \"#utility.yul\":30103:30115   */\n      revert\n        /* \"#utility.yul\":30127:30244   */\n    tag_563:\n        /* \"#utility.yul\":30236:30237   */\n      0x00\n        /* \"#utility.yul\":30233:30234   */\n      dup1\n        /* \"#utility.yul\":30226:30238   */\n      revert\n        /* \"#utility.yul\":30250:30367   */\n    tag_598:\n        /* \"#utility.yul\":30359:30360   */\n      0x00\n        /* \"#utility.yul\":30356:30357   */\n      dup1\n        /* \"#utility.yul\":30349:30361   */\n      revert\n        /* \"#utility.yul\":30373:30490   */\n    tag_556:\n        /* \"#utility.yul\":30482:30483   */\n      0x00\n        /* \"#utility.yul\":30479:30480   */\n      dup1\n        /* \"#utility.yul\":30472:30484   */\n      revert\n        /* \"#utility.yul\":30496:30598   */\n    tag_625:\n        /* \"#utility.yul\":30537:30543   */\n      0x00\n        /* \"#utility.yul\":30588:30590   */\n      0x1f\n        /* \"#utility.yul\":30584:30591   */\n      not\n        /* \"#utility.yul\":30579:30581   */\n      0x1f\n        /* \"#utility.yul\":30572:30577   */\n      dup4\n        /* \"#utility.yul\":30568:30582   */\n      add\n        /* \"#utility.yul\":30564:30592   */\n      and\n        /* \"#utility.yul\":30554:30592   */\n      swap1\n      pop\n        /* \"#utility.yul\":30496:30598   */\n      swap2\n      swap1\n      pop\n      jump\t// out\n        /* \"#utility.yul\":30604:30781   */\n    tag_630:\n        /* \"#utility.yul\":30744:30773   */\n      0x616464556e5374616b654665653a206d696e4461797320697320300000000000\n        /* \"#utility.yul\":30740:30741   */\n      0x00\n        /* \"#utility.yul\":30732:30738   */\n      dup3\n        /* \"#utility.yul\":30728:30742   */\n      add\n        /* \"#utility.yul\":30721:30774   */\n      mstore\n        /* \"#utility.yul\":30604:30781   */\n      pop\n      jump\t// out\n        /* \"#utility.yul\":30787:30961   */\n    tag_635:\n        /* \"#utility.yul\":30927:30953   */\n      0x4e4654205374616b696e673a20456d7074792041727261790000000000000000\n        /* \"#utility.yul\":30923:30924   */\n      0x00\n        /* \"#utility.yul\":30915:30921   */\n      dup3\n        /* \"#utility.yul\":30911:30925   */\n      add\n        /* \"#utility.yul\":30904:30954   */\n      mstore\n        /* \"#utility.yul\":30787:30961   */\n      pop\n      jump\t// out\n        /* \"#utility.yul\":30967:31144   */\n    tag_640:\n        /* \"#utility.yul\":31107:31136   */\n      0x736574556e5374616b654665653a206d696e4461797320697320300000000000\n        /* \"#utility.yul\":31103:31104   */\n      0x00\n        /* \"#utility.yul\":31095:31101   */\n      dup3\n        /* \"#utility.yul\":31091:31105   */\n      add\n        /* \"#utility.yul\":31084:31137   */\n      mstore\n        /* \"#utility.yul\":30967:31144   */\n      pop\n      jump\t// out\n        /* \"#utility.yul\":31150:31330   */\n    tag_645:\n        /* \"#utility.yul\":31290:31322   */\n      0x616464556e5374616b654665653a2066656550657263656e74203e2034300000\n        /* \"#utility.yul\":31286:31287   */\n      0x00\n        /* \"#utility.yul\":31278:31284   */\n      dup3\n        /* \"#utility.yul\":31274:31288   */\n      add\n        /* \"#utility.yul\":31267:31323   */\n      mstore\n        /* \"#utility.yul\":31150:31330   */\n      pop\n      jump\t// out\n        /* \"#utility.yul\":31336:31565   */\n    tag_650:\n        /* \"#utility.yul\":31476:31510   */\n      0x5361666542455032303a204245503230206f7065726174696f6e20646964206e\n        /* \"#utility.yul\":31472:31473   */\n      0x00\n        /* \"#utility.yul\":31464:31470   */\n      dup3\n        /* \"#utility.yul\":31460:31474   */\n      add\n        /* \"#utility.yul\":31453:31511   */\n      mstore\n        /* \"#utility.yul\":31545:31557   */\n      0x6f74207375636365656400000000000000000000000000000000000000000000\n        /* \"#utility.yul\":31540:31542   */\n      0x20\n        /* \"#utility.yul\":31532:31538   */\n      dup3\n        /* \"#utility.yul\":31528:31543   */\n      add\n        /* \"#utility.yul\":31521:31558   */\n      mstore\n        /* \"#utility.yul\":31336:31565   */\n      pop\n      jump\t// out\n        /* \"#utility.yul\":31571:31796   */\n    tag_655:\n        /* \"#utility.yul\":31711:31745   */\n      0x4f776e61626c653a206e6577206f776e657220697320746865207a65726f2061\n        /* \"#utility.yul\":31707:31708   */\n      0x00\n        /* \"#utility.yul\":31699:31705   */\n      dup3\n        /* \"#utility.yul\":31695:31709   */\n      add\n        /* \"#utility.yul\":31688:31746   */\n      mstore\n        /* \"#utility.yul\":31780:31788   */\n      0x6464726573730000000000000000000000000000000000000000000000000000\n        /* \"#utility.yul\":31775:31777   */\n      0x20\n        /* \"#utility.yul\":31767:31773   */\n      dup3\n        /* \"#utility.yul\":31763:31778   */\n      add\n        /* \"#utility.yul\":31756:31789   */\n      mstore\n        /* \"#utility.yul\":31571:31796   */\n      pop\n      jump\t// out\n        /* \"#utility.yul\":31802:31982   */\n    tag_660:\n        /* \"#utility.yul\":31942:31974   */\n      0x736574556e5374616b654665653a2066656550657263656e74203e2034300000\n        /* \"#utility.yul\":31938:31939   */\n      0x00\n        /* \"#utility.yul\":31930:31936   */\n      dup3\n        /* \"#utility.yul\":31926:31940   */\n      add\n        /* \"#utility.yul\":31919:31975   */\n      mstore\n        /* \"#utility.yul\":31802:31982   */\n      pop\n      jump\t// out\n        /* \"#utility.yul\":31988:32165   */\n    tag_665:\n        /* \"#utility.yul\":32128:32157   */\n      0x72656d6f7665556e5374616b654665653a2072616e6765206f75740000000000\n        /* \"#utility.yul\":32124:32125   */\n      0x00\n        /* \"#utility.yul\":32116:32122   */\n      dup3\n        /* \"#utility.yul\":32112:32126   */\n      add\n        /* \"#utility.yul\":32105:32158   */\n      mstore\n        /* \"#utility.yul\":31988:32165   */\n      pop\n      jump\t// out\n        /* \"#utility.yul\":32171:32407   */\n    tag_670:\n        /* \"#utility.yul\":32311:32345   */\n      0x4e4654205374616b696e673a206475706c696361746520746f6b656e20696473\n        /* \"#utility.yul\":32307:32308   */\n      0x00\n        /* \"#utility.yul\":32299:32305   */\n      dup3\n        /* \"#utility.yul\":32295:32309   */\n      add\n        /* \"#utility.yul\":32288:32346   */\n      mstore\n        /* \"#utility.yul\":32380:32399   */\n      0x20696e20696e70757420706172616d732e000000000000000000000000000000\n        /* \"#utility.yul\":32375:32377   */\n      0x20\n        /* \"#utility.yul\":32367:32373   */\n      dup3\n        /* \"#utility.yul\":32363:32378   */\n      add\n        /* \"#utility.yul\":32356:32400   */\n      mstore\n        /* \"#utility.yul\":32171:32407   */\n      pop\n      jump\t// out\n        /* \"#utility.yul\":32413:32634   */\n    tag_675:\n        /* \"#utility.yul\":32553:32587   */\n      0x4e4654205374616b696e673a20746f6b656e20616c7265616479207374616b65\n        /* \"#utility.yul\":32549:32550   */\n      0x00\n        /* \"#utility.yul\":32541:32547   */\n      dup3\n        /* \"#utility.yul\":32537:32551   */\n      add\n        /* \"#utility.yul\":32530:32588   */\n      mstore\n        /* \"#utility.yul\":32622:32626   */\n      0x642e000000000000000000000000000000000000000000000000000000000000\n        /* \"#utility.yul\":32617:32619   */\n      0x20\n        /* \"#utility.yul\":32609:32615   */\n      dup3\n        /* \"#utility.yul\":32605:32620   */\n      add\n        /* \"#utility.yul\":32598:32627   */\n      mstore\n        /* \"#utility.yul\":32413:32634   */\n      pop\n      jump\t// out\n        /* \"#utility.yul\":32640:32821   */\n    tag_680:\n        /* \"#utility.yul\":32780:32813   */\n      0x736574556e5374616b654665653a206d696e44617973206973206572726f7200\n        /* \"#utility.yul\":32776:32777   */\n      0x00\n        /* \"#utility.yul\":32768:32774   */\n      dup3\n        /* \"#utility.yul\":32764:32778   */\n      add\n        /* \"#utility.yul\":32757:32814   */\n      mstore\n        /* \"#utility.yul\":32640:32821   */\n      pop\n      jump\t// out\n        /* \"#utility.yul\":32827:33001   */\n    tag_685:\n        /* \"#utility.yul\":32967:32993   */\n      0x736574556e5374616b654665653a2072616e6765206f75740000000000000000\n        /* \"#utility.yul\":32963:32964   */\n      0x00\n        /* \"#utility.yul\":32955:32961   */\n      dup3\n        /* \"#utility.yul\":32951:32965   */\n      add\n        /* \"#utility.yul\":32944:32994   */\n      mstore\n        /* \"#utility.yul\":32827:33001   */\n      pop\n      jump\t// out\n        /* \"#utility.yul\":33007:33228   */\n    tag_690:\n        /* \"#utility.yul\":33147:33181   */\n      0x616464556e5374616b654665653a2066656550657263656e7420697320657272\n        /* \"#utility.yul\":33143:33144   */\n      0x00\n        /* \"#utility.yul\":33135:33141   */\n      dup3\n        /* \"#utility.yul\":33131:33145   */\n      add\n        /* \"#utility.yul\":33124:33182   */\n      mstore\n        /* \"#utility.yul\":33216:33220   */\n      0x6f72000000000000000000000000000000000000000000000000000000000000\n        /* \"#utility.yul\":33211:33213   */\n      0x20\n        /* \"#utility.yul\":33203:33209   */\n      dup3\n        /* \"#utility.yul\":33199:33214   */\n      add\n        /* \"#utility.yul\":33192:33221   */\n      mstore\n        /* \"#utility.yul\":33007:33228   */\n      pop\n      jump\t// out\n        /* \"#utility.yul\":33234:33416   */\n    tag_695:\n        /* \"#utility.yul\":33374:33408   */\n      0x4f776e61626c653a2063616c6c6572206973206e6f7420746865206f776e6572\n        /* \"#utility.yul\":33370:33371   */\n      0x00\n        /* \"#utility.yul\":33362:33368   */\n      dup3\n        /* \"#utility.yul\":33358:33372   */\n      add\n        /* \"#utility.yul\":33351:33409   */\n      mstore\n        /* \"#utility.yul\":33234:33416   */\n      pop\n      jump\t// out\n        /* \"#utility.yul\":33422:33602   */\n    tag_700:\n        /* \"#utility.yul\":33562:33594   */\n      0x736574486172766573744665653a2066656550657263656e74203e2034300000\n        /* \"#utility.yul\":33558:33559   */\n      0x00\n        /* \"#utility.yul\":33550:33556   */\n      dup3\n        /* \"#utility.yul\":33546:33560   */\n      add\n        /* \"#utility.yul\":33539:33595   */\n      mstore\n        /* \"#utility.yul\":33422:33602   */\n      pop\n      jump\t// out\n        /* \"#utility.yul\":33608:33789   */\n    tag_705:\n        /* \"#utility.yul\":33748:33781   */\n      0x616464556e5374616b654665653a206d696e44617973206973206572726f7200\n        /* \"#utility.yul\":33744:33745   */\n      0x00\n        /* \"#utility.yul\":33736:33742   */\n      dup3\n        /* \"#utility.yul\":33732:33746   */\n      add\n        /* \"#utility.yul\":33725:33782   */\n      mstore\n        /* \"#utility.yul\":33608:33789   */\n      pop\n      jump\t// out\n        /* \"#utility.yul\":33795:34016   */\n    tag_710:\n        /* \"#utility.yul\":33935:33969   */\n      0x736574556e5374616b654665653a2066656550657263656e7420697320657272\n        /* \"#utility.yul\":33931:33932   */\n      0x00\n        /* \"#utility.yul\":33923:33929   */\n      dup3\n        /* \"#utility.yul\":33919:33933   */\n      add\n        /* \"#utility.yul\":33912:33970   */\n      mstore\n        /* \"#utility.yul\":34004:34008   */\n      0x6f72000000000000000000000000000000000000000000000000000000000000\n        /* \"#utility.yul\":33999:34001   */\n      0x20\n        /* \"#utility.yul\":33991:33997   */\n      dup3\n        /* \"#utility.yul\":33987:34002   */\n      add\n        /* \"#utility.yul\":33980:34009   */\n      mstore\n        /* \"#utility.yul\":33795:34016   */\n      pop\n      jump\t// out\n        /* \"#utility.yul\":34022:34201   */\n    tag_715:\n        /* \"#utility.yul\":34162:34193   */\n      0x416464726573733a2063616c6c20746f206e6f6e2d636f6e7472616374000000\n        /* \"#utility.yul\":34158:34159   */\n      0x00\n        /* \"#utility.yul\":34150:34156   */\n      dup3\n        /* \"#utility.yul\":34146:34160   */\n      add\n        /* \"#utility.yul\":34139:34194   */\n      mstore\n        /* \"#utility.yul\":34022:34201   */\n      pop\n      jump\t// out\n        /* \"#utility.yul\":34207:34451   */\n    tag_720:\n        /* \"#utility.yul\":34347:34381   */\n      0x4e667420556e7374616b696e673a20746f6b656e206e6f74207374616b656420\n        /* \"#utility.yul\":34343:34344   */\n      0x00\n        /* \"#utility.yul\":34335:34341   */\n      dup3\n        /* \"#utility.yul\":34331:34345   */\n      add\n        /* \"#utility.yul\":34324:34382   */\n      mstore\n        /* \"#utility.yul\":34416:34443   */\n      0x6f7220696e636f727265637420746f6b656e206f776e65722e00000000000000\n        /* \"#utility.yul\":34411:34413   */\n      0x20\n        /* \"#utility.yul\":34403:34409   */\n      dup3\n        /* \"#utility.yul\":34399:34414   */\n      add\n        /* \"#utility.yul\":34392:34444   */\n      mstore\n        /* \"#utility.yul\":34207:34451   */\n      pop\n      jump\t// out\n        /* \"#utility.yul\":34457:34579   */\n    tag_530:\n        /* \"#utility.yul\":34530:34554   */\n      tag_884\n        /* \"#utility.yul\":34548:34553   */\n      dup2\n        /* \"#utility.yul\":34530:34554   */\n      tag_591\n      jump\t// in\n    tag_884:\n        /* \"#utility.yul\":34523:34528   */\n      dup2\n        /* \"#utility.yul\":34520:34555   */\n      eq\n        /* \"#utility.yul\":34510:34573   */\n      tag_885\n      jumpi\n        /* \"#utility.yul\":34569:34570   */\n      0x00\n        /* \"#utility.yul\":34566:34567   */\n      dup1\n        /* \"#utility.yul\":34559:34571   */\n      revert\n        /* \"#utility.yul\":34510:34573   */\n    tag_885:\n        /* \"#utility.yul\":34457:34579   */\n      pop\n      jump\t// out\n        /* \"#utility.yul\":34585:34701   */\n    tag_545:\n        /* \"#utility.yul\":34655:34676   */\n      tag_887\n        /* \"#utility.yul\":34670:34675   */\n      dup2\n        /* \"#utility.yul\":34655:34676   */\n      tag_829\n      jump\t// in\n    tag_887:\n        /* \"#utility.yul\":34648:34653   */\n      dup2\n        /* \"#utility.yul\":34645:34677   */\n      eq\n        /* \"#utility.yul\":34635:34695   */\n      tag_888\n      jumpi\n        /* \"#utility.yul\":34691:34692   */\n      0x00\n        /* \"#utility.yul\":34688:34689   */\n      dup1\n        /* \"#utility.yul\":34681:34693   */\n      revert\n        /* \"#utility.yul\":34635:34695   */\n    tag_888:\n        /* \"#utility.yul\":34585:34701   */\n      pop\n      jump\t// out\n        /* \"#utility.yul\":34707:34829   */\n    tag_549:\n        /* \"#utility.yul\":34780:34804   */\n      tag_890\n        /* \"#utility.yul\":34798:34803   */\n      dup2\n        /* \"#utility.yul\":34780:34804   */\n      tag_724\n      jump\t// in\n    tag_890:\n        /* \"#utility.yul\":34773:34778   */\n      dup2\n        /* \"#utility.yul\":34770:34805   */\n      eq\n        /* \"#utility.yul\":34760:34823   */\n      tag_891\n      jumpi\n        /* \"#utility.yul\":34819:34820   */\n      0x00\n        /* \"#utility.yul\":34816:34817   */\n      dup1\n        /* \"#utility.yul\":34809:34821   */\n      revert\n        /* \"#utility.yul\":34760:34823   */\n    tag_891:\n        /* \"#utility.yul\":34707:34829   */\n      pop\n      jump\t// out\n\n    auxdata: 0xa264697066735822122073842539dde00e564b400332c32b278a5cf010cb0e38929e4a3355e6ab9f4d9364736f6c63430008070033\n}\n",
				"bytecode": {
					"linkReferences": {},
					"object": "60c06040523480156200001157600080fd5b50604051620040ef380380620040ef8339818101604052810190620000379190620003c9565b620000576200004b6200012760201b60201c565b6200012f60201b60201c565b8373ffffffffffffffffffffffffffffffffffffffff1660808173ffffffffffffffffffffffffffffffffffffffff1660601b815250508273ffffffffffffffffffffffffffffffffffffffff1660a08173ffffffffffffffffffffffffffffffffffffffff1660601b815250508160048190555080600560006101000a81548173ffffffffffffffffffffffffffffffffffffffff021916908373ffffffffffffffffffffffffffffffffffffffff1602179055506200011d620001f360201b60201c565b505050506200050e565b600033905090565b60008060009054906101000a900473ffffffffffffffffffffffffffffffffffffffff169050816000806101000a81548173ffffffffffffffffffffffffffffffffffffffff021916908373ffffffffffffffffffffffffffffffffffffffff1602179055508173ffffffffffffffffffffffffffffffffffffffff168173ffffffffffffffffffffffffffffffffffffffff167f8be0079c531659141344cd1fd0a4f28419497f9722a3daafe3b4186f6b6457e060405160405180910390a35050565b60006040518060400160405280600781526020016028815250905060018190806001815401808255809150506001900390600052602060002090600202016000909190919091506000820151816000015560208201518160010155505060006040518060400160405280600e8152602001601e815250905060018190806001815401808255809150506001900390600052602060002090600202016000909190919091506000820151816000015560208201518160010155505060006040518060400160405280601581526020016014815250905060018190806001815401808255809150506001900390600052602060002090600202016000909190919091506000820151816000015560208201518160010155505060006040518060400160405280601e8152602001600a815250905060018190806001815401808255809150506001900390600052602060002090600202016000909190919091506000820151816000015560208201518160010155505050505050565b6000815190506200037e81620004a6565b92915050565b6000815190506200039581620004c0565b92915050565b600081519050620003ac81620004da565b92915050565b600081519050620003c381620004f4565b92915050565b60008060008060808587031215620003e657620003e5620004a1565b5b6000620003f6878288016200039b565b9450506020620004098782880162000384565b93505060406200041c87828801620003b2565b92505060606200042f878288016200036d565b91505092959194509250565b6000620004488262000477565b9050919050565b60006200045c826200043b565b9050919050565b600062000470826200043b565b9050919050565b600073ffffffffffffffffffffffffffffffffffffffff82169050919050565b6000819050919050565b600080fd5b620004b1816200043b565b8114620004bd57600080fd5b50565b620004cb816200044f565b8114620004d757600080fd5b50565b620004e58162000463565b8114620004f157600080fd5b50565b620004ff8162000497565b81146200050b57600080fd5b50565b60805160601c60a05160601c613b686200058760003960008181610de701528181610ec10152818161129601528181611345015281816113f60152818161143d015281816114ec015281816115bf01528181611eb30152611f620152600081816107bc01528181611bac015261207e0152613b686000f3fe608060405234801561001057600080fd5b50600436106101585760003560e01c8063792b55b6116100c3578063a9f8d1811161007c578063a9f8d1811461037d578063b59629171461039b578063d06fcba8146103b9578063e449f341146103d7578063f25f4b56146103f3578063f2fde38b1461041157610158565b8063792b55b6146102bd5780638ae39cac146102d95780638da5cb5b146102f75780638dbb1e3a1461031557806390d49b9d146103455780639ca62a691461036157610158565b8063294d4e4a11610115578063294d4e4a1461023357806343db3c5f1461024f5780634641257d1461026d578063567e98f9146102775780635e42b45514610295578063715018a6146102b357610158565b80630fbf0a931461015d57806310c77237146101795780631959a0021461019557806319fca9f6146101c85780631c3e2e7a146101e65780631e2720ff14610217575b600080fd5b61017760048036038101906101729190612a3c565b61042d565b005b610193600480360381019061018e9190612b50565b61089e565b005b6101af60048036038101906101aa9190612a0f565b610db5565b6040516101bf9493929190613335565b60405180910390f35b6101d0610de5565b6040516101dd9190613002565b60405180910390f35b61020060048036038101906101fb9190612ab6565b610e09565b60405161020e9291906132d5565b60405180910390f35b610231600480360381019061022c9190612ab6565b610e3d565b005b61024d60048036038101906102489190612b10565b610f72565b005b610257611201565b60405161026491906132ba565b60405180910390f35b610275611207565b005b61027f611609565b60405161028c91906132ba565b60405180910390f35b61029d61160f565b6040516102aa91906132ba565b60405180910390f35b6102bb61167a565b005b6102d760048036038101906102d29190612ab6565b611702565b005b6102e1611803565b6040516102ee91906132ba565b60405180910390f35b6102ff611809565b60405161030c9190612f55565b60405180910390f35b61032f600480360381019061032a9190612b10565b611832565b60405161033c91906132ba565b60405180910390f35b61035f600480360381019061035a9190612a0f565b61184f565b005b61037b60048036038101906103769190612ab6565b611974565b005b610385611b9e565b60405161039291906132ba565b60405180910390f35b6103a3611ba4565b6040516103b091906132ba565b60405180910390f35b6103c1611baa565b6040516103ce919061301d565b60405180910390f35b6103f160048036038101906103ec9190612a3c565b611bce565b005b6103fb612161565b6040516104089190612f55565b60405180910390f35b61042b60048036038101906104269190612a0f565b612187565b005b60008282905011610473576040517f08c379a000000000000000000000000000000000000000000000000000000000815260040161046a9061307a565b60405180910390fd5b60005b828290508110156105fb5760008383838181106104965761049561367a565b5b905060200201359050600073ffffffffffffffffffffffffffffffffffffffff166009600083815260200190815260200160002060009054906101000a900473ffffffffffffffffffffffffffffffffffffffff1673ffffffffffffffffffffffffffffffffffffffff1614610541576040517f08c379a00000000000000000000000000000000000000000000000000000000081526004016105389061317a565b60405180910390fd5b600060018361055091906133bd565b90505b848490508110156105e6578484828181106105715761057061367a565b5b9050602002013585858581811061058b5761058a61367a565b5b9050602002013514156105d3576040517f08c379a00000000000000000000000000000000000000000000000000000000081526004016105ca9061315a565b60405180910390fd5b80806105de906135a4565b915050610553565b505080806105f3906135a4565b915050610476565b5061060461227f565b6000600b60003373ffffffffffffffffffffffffffffffffffffffff1673ffffffffffffffffffffffffffffffffffffffff16815260200190815260200160002090506000816000015411156106bf57600061069c826001015461068e64e8d4a5100061068060035487600001546123b390919063ffffffff16565b6123c990919063ffffffff16565b6123df90919063ffffffff16565b90506106b58183600201546123f590919063ffffffff16565b8260020181905550505b60005b8383905081101561085d5760008484838181106106e2576106e161367a565b5b905060200201359050336009600083815260200190815260200160002060006101000a81548173ffffffffffffffffffffffffffffffffffffffff021916908373ffffffffffffffffffffffffffffffffffffffff16021790555061075360016007546123f590919063ffffffff16565b600781905550610771600184600001546123f590919063ffffffff16565b83600001819055506107a964e8d4a5100061079b60035486600001546123b390919063ffffffff16565b6123c990919063ffffffff16565b83600101819055504283600301819055507f000000000000000000000000000000000000000000000000000000000000000073ffffffffffffffffffffffffffffffffffffffff166323b872dd3330846040518463ffffffff1660e01b815260040161081793929190612f70565b600060405180830381600087803b15801561083157600080fd5b505af1158015610845573d6000803e3d6000fd5b50505050508080610855906135a4565b9150506106c2565b507f134b166c6094cc1ccbf1e3353ce5c3cd9fd29869051bdb999895854d77cc5ef633848460405161089193929190612fa7565b60405180910390a1505050565b6108a661240b565b73ffffffffffffffffffffffffffffffffffffffff166108c4611809565b73ffffffffffffffffffffffffffffffffffffffff161461091a576040517f08c379a0000000000000000000000000000000000000000000000000000000008152600401610911906131fa565b60405180910390fd5b6001805490508310610961576040517f08c379a0000000000000000000000000000000000000000000000000000000008152600401610958906131ba565b60405180910390fd5b600082116109a4576040517f08c379a000000000000000000000000000000000000000000000000000000000815260040161099b9061309a565b60405180910390fd5b60288111156109e8576040517f08c379a00000000000000000000000000000000000000000000000000000000081526004016109df9061311a565b60405180910390fd5b6000831415610ac45760018081548110610a0557610a0461367a565b5b9060005260206000209060020201600001548210610a58576040517f08c379a0000000000000000000000000000000000000000000000000000000008152600401610a4f9061319a565b60405180910390fd5b60018081548110610a6c57610a6b61367a565b5b9060005260206000209060020201600101548111610abf576040517f08c379a0000000000000000000000000000000000000000000000000000000008152600401610ab69061325a565b60405180910390fd5b610d21565b60018080549050610ad5919061349e565b831415610bc55760018084610aea919061349e565b81548110610afb57610afa61367a565b5b9060005260206000209060020201600001548211610b4e576040517f08c379a0000000000000000000000000000000000000000000000000000000008152600401610b459061319a565b60405180910390fd5b60018084610b5c919061349e565b81548110610b6d57610b6c61367a565b5b9060005260206000209060020201600101548110610bc0576040517f08c379a0000000000000000000000000000000000000000000000000000000008152600401610bb79061325a565b60405180910390fd5b610d20565b60018084610bd3919061349e565b81548110610be457610be361367a565b5b90600052602060002090600202016000015482118015610c33575060018084610c0d91906133bd565b81548110610c1e57610c1d61367a565b5b90600052602060002090600202016000015482105b610c72576040517f08c379a0000000000000000000000000000000000000000000000000000000008152600401610c699061319a565b60405180910390fd5b60018084610c80919061349e565b81548110610c9157610c9061367a565b5b90600052602060002090600202016001015481108015610ce0575060018084610cba91906133bd565b81548110610ccb57610cca61367a565b5b90600052602060002090600202016001015481115b610d1f576040517f08c379a0000000000000000000000000000000000000000000000000000000008152600401610d169061325a565b60405180910390fd5b5b5b8060018481548110610d3657610d3561367a565b5b9060005260206000209060020201600101819055508160018481548110610d6057610d5f61367a565b5b9060005260206000209060020201600001819055507fc5b7ef59c45162d0f957af811d4ad5f8980e588a729fa3b80ebef5020e4c2725838383604051610da8939291906132fe565b60405180910390a1505050565b600b6020528060005260406000206000915090508060000154908060010154908060020154908060030154905084565b7f000000000000000000000000000000000000000000000000000000000000000081565b60018181548110610e1957600080fd5b90600052602060002090600202016000915090508060000154908060010154905082565b610e4561240b565b73ffffffffffffffffffffffffffffffffffffffff16610e63611809565b73ffffffffffffffffffffffffffffffffffffffff1614610eb9576040517f08c379a0000000000000000000000000000000000000000000000000000000008152600401610eb0906131fa565b60405180910390fd5b610f063330837f000000000000000000000000000000000000000000000000000000000000000073ffffffffffffffffffffffffffffffffffffffff16612413909392919063ffffffff16565b3373ffffffffffffffffffffffffffffffffffffffff167f4f7fd5c9e17300a4800fd572ea53fc291e2ee7470d73346d16b357faee4e721082604051610f4c91906132ba565b60405180910390a2610f69816008546123f590919063ffffffff16565b60088190555050565b610f7a61240b565b73ffffffffffffffffffffffffffffffffffffffff16610f98611809565b73ffffffffffffffffffffffffffffffffffffffff1614610fee576040517f08c379a0000000000000000000000000000000000000000000000000000000008152600401610fe5906131fa565b60405180910390fd5b60008211611031576040517f08c379a00000000000000000000000000000000000000000000000000000000081526004016110289061305a565b60405180910390fd5b6028811115611075576040517f08c379a000000000000000000000000000000000000000000000000000000000815260040161106c906130ba565b60405180910390fd5b6001808080549050611087919061349e565b815481106110985761109761367a565b5b90600052602060002090600202016000015482116110eb576040517f08c379a00000000000000000000000000000000000000000000000000000000081526004016110e29061323a565b60405180910390fd5b60018080805490506110fd919061349e565b8154811061110e5761110d61367a565b5b9060005260206000209060020201600101548110611161576040517f08c379a0000000000000000000000000000000000000000000000000000000008152600401611158906131da565b60405180910390fd5b600060405180604001604052808481526020018381525090506001819080600181540180825580915050600190039060005260206000209060020201600090919091909150600082015181600001556020820151816001015550507f657ca150be22533e612098a9cdc78b9252aa1c21d424fb5011c5ceccc0447b5060018054905084846040516111f4939291906132fe565b60405180910390a1505050565b60035481565b60006112123361249c565b90506000600b60003373ffffffffffffffffffffffffffffffffffffffff1673ffffffffffffffffffffffffffffffffffffffff168152602001908152602001600020905060006112816064611273600654866123b390919063ffffffff16565b6123c990919063ffffffff16565b905060008184611291919061349e565b9050807f000000000000000000000000000000000000000000000000000000000000000073ffffffffffffffffffffffffffffffffffffffff166370a08231306040518263ffffffff1660e01b81526004016112ed9190612f55565b60206040518083038186803b15801561130557600080fd5b505afa158015611319573d6000803e3d6000fd5b505050506040513d601f19601f8201168201806040525081019061133d9190612ae3565b10156113ef577f000000000000000000000000000000000000000000000000000000000000000073ffffffffffffffffffffffffffffffffffffffff166370a08231306040518263ffffffff1660e01b815260040161139c9190612f55565b60206040518083038186803b1580156113b457600080fd5b505afa1580156113c8573d6000803e3d6000fd5b505050506040513d601f19601f820116820180604052508101906113ec9190612ae3565b90505b61143a33827f000000000000000000000000000000000000000000000000000000000000000073ffffffffffffffffffffffffffffffffffffffff166125cf9092919063ffffffff16565b817f000000000000000000000000000000000000000000000000000000000000000073ffffffffffffffffffffffffffffffffffffffff166370a08231306040518263ffffffff1660e01b81526004016114949190612f55565b60206040518083038186803b1580156114ac57600080fd5b505afa1580156114c0573d6000803e3d6000fd5b505050506040513d601f19601f820116820180604052508101906114e49190612ae3565b1015611596577f000000000000000000000000000000000000000000000000000000000000000073ffffffffffffffffffffffffffffffffffffffff166370a08231306040518263ffffffff1660e01b81526004016115439190612f55565b60206040518083038186803b15801561155b57600080fd5b505afa15801561156f573d6000803e3d6000fd5b505050506040513d601f19601f820116820180604052508101906115939190612ae3565b91505b611603600560009054906101000a900473ffffffffffffffffffffffffffffffffffffffff16837f000000000000000000000000000000000000000000000000000000000000000073ffffffffffffffffffffffffffffffffffffffff166125cf9092919063ffffffff16565b50505050565b60075481565b6000600254431180156116255750600060075414155b1561167157600061163860025443611832565b90506000611651600454836123b390919063ffffffff16565b9050611668816008546123df90919063ffffffff16565b92505050611677565b60085490505b90565b61168261240b565b73ffffffffffffffffffffffffffffffffffffffff166116a0611809565b73ffffffffffffffffffffffffffffffffffffffff16146116f6576040517f08c379a00000000000000000000000000000000000000000000000000000000081526004016116ed906131fa565b60405180910390fd5b6117006000612655565b565b61170a61240b565b73ffffffffffffffffffffffffffffffffffffffff16611728611809565b73ffffffffffffffffffffffffffffffffffffffff161461177e576040517f08c379a0000000000000000000000000000000000000000000000000000000008152600401611775906131fa565b60405180910390fd5b60288111156117c2576040517f08c379a00000000000000000000000000000000000000000000000000000000081526004016117b99061321a565b60405180910390fd5b806006819055507ff419800a2d8930c61d5d9cd782aa72c512cf6be2f79da6db0b8855870b7269ed816040516117f891906132ba565b60405180910390a150565b60045481565b60008060009054906101000a900473ffffffffffffffffffffffffffffffffffffffff16905090565b600061184783836123df90919063ffffffff16565b905092915050565b61185761240b565b73ffffffffffffffffffffffffffffffffffffffff16611875611809565b73ffffffffffffffffffffffffffffffffffffffff16146118cb576040517f08c379a00000000000000000000000000000000000000000000000000000000081526004016118c2906131fa565b60405180910390fd5b80600560006101000a81548173ffffffffffffffffffffffffffffffffffffffff021916908373ffffffffffffffffffffffffffffffffffffffff160217905550600560009054906101000a900473ffffffffffffffffffffffffffffffffffffffff1673ffffffffffffffffffffffffffffffffffffffff167f3d21e5a2b633291bd1ff5f9c654e402d063783c95759d2ea521b31fb30e4da4160405160405180910390a250565b61197c61240b565b73ffffffffffffffffffffffffffffffffffffffff1661199a611809565b73ffffffffffffffffffffffffffffffffffffffff16146119f0576040517f08c379a00000000000000000000000000000000000000000000000000000000081526004016119e7906131fa565b60405180910390fd5b6001805490508110611a37576040517f08c379a0000000000000000000000000000000000000000000000000000000008152600401611a2e9061313a565b60405180910390fd5b600060018281548110611a4d57611a4c61367a565b5b9060005260206000209060020201600001549050600060018381548110611a7757611a7661367a565b5b906000526020600020906002020160010154905060008390505b60018080549050611aa2919061349e565b811015611b225760018082611ab791906133bd565b81548110611ac857611ac761367a565b5b906000526020600020906002020160018281548110611aea57611ae961367a565b5b906000526020600020906002020160008201548160000155600182015481600101559050508080611b1a906135a4565b915050611a91565b506001805480611b3557611b3461364b565b5b60019003818190600052602060002090600202016000808201600090556001820160009055505090557f61fd4e7e2422942f3df6e8c8c7744f23212ce0f0a23a80f0ace593ffdf6d96d0838383604051611b91939291906132fe565b60405180910390a1505050565b60025481565b60065481565b7f000000000000000000000000000000000000000000000000000000000000000081565b60008282905011611c14576040517f08c379a0000000000000000000000000000000000000000000000000000000008152600401611c0b9061307a565b60405180910390fd5b60005b82829050811015611d9b576000838383818110611c3757611c3661367a565b5b9050602002013590503373ffffffffffffffffffffffffffffffffffffffff166009600083815260200190815260200160002060009054906101000a900473ffffffffffffffffffffffffffffffffffffffff1673ffffffffffffffffffffffffffffffffffffffff1614611ce1576040517f08c379a0000000000000000000000000000000000000000000000000000000008152600401611cd89061329a565b60405180910390fd5b6000600183611cf091906133bd565b90505b84849050811015611d8657848482818110611d1157611d1061367a565b5b90506020020135858585818110611d2b57611d2a61367a565b5b905060200201351415611d73576040517f08c379a0000000000000000000000000000000000000000000000000000000008152600401611d6a9061315a565b60405180910390fd5b8080611d7e906135a4565b915050611cf3565b50508080611d93906135a4565b915050611c17565b50611da461227f565b6000600b60003373ffffffffffffffffffffffffffffffffffffffff1673ffffffffffffffffffffffffffffffffffffffff168152602001908152602001600020905060005b83839050811015612120576000848483818110611e0a57611e0961367a565b5b90506020020135905060006009600083815260200190815260200160002060006101000a81548173ffffffffffffffffffffffffffffffffffffffff021916908373ffffffffffffffffffffffffffffffffffffffff1602179055506000611eae8460010154611ea064e8d4a51000611e9260035489600001546123b390919063ffffffff16565b6123c990919063ffffffff16565b6123df90919063ffffffff16565b9050807f000000000000000000000000000000000000000000000000000000000000000073ffffffffffffffffffffffffffffffffffffffff166370a08231306040518263ffffffff1660e01b8152600401611f0a9190612f55565b60206040518083038186803b158015611f2257600080fd5b505afa158015611f36573d6000803e3d6000fd5b505050506040513d601f19601f82011682018060405250810190611f5a9190612ae3565b101561200c577f000000000000000000000000000000000000000000000000000000000000000073ffffffffffffffffffffffffffffffffffffffff166370a08231306040518263ffffffff1660e01b8152600401611fb99190612f55565b60206040518083038186803b158015611fd157600080fd5b505afa158015611fe5573d6000803e3d6000fd5b505050506040513d601f19601f820116820180604052508101906120099190612ae3565b90505b6120238185600201546123f590919063ffffffff16565b8460020181905550612043600185600001546123df90919063ffffffff16565b5061207464e8d4a5100061206660035487600001546123b390919063ffffffff16565b6123c990919063ffffffff16565b84600101819055507f000000000000000000000000000000000000000000000000000000000000000073ffffffffffffffffffffffffffffffffffffffff166323b872dd3033856040518463ffffffff1660e01b81526004016120d993929190612f70565b600060405180830381600087803b1580156120f357600080fd5b505af1158015612107573d6000803e3d6000fd5b5050505050508080612118906135a4565b915050611dea565b507f80cc10bf7e52583ae0a17d8dd6ab5005573b17a08091a091af1a81205a675c9133848460405161215493929190612fa7565b60405180910390a1505050565b600560009054906101000a900473ffffffffffffffffffffffffffffffffffffffff1681565b61218f61240b565b73ffffffffffffffffffffffffffffffffffffffff166121ad611809565b73ffffffffffffffffffffffffffffffffffffffff1614612203576040517f08c379a00000000000000000000000000000000000000000000000000000000081526004016121fa906131fa565b60405180910390fd5b600073ffffffffffffffffffffffffffffffffffffffff168173ffffffffffffffffffffffffffffffffffffffff161415612273576040517f08c379a000000000000000000000000000000000000000000000000000000000815260040161226a906130fa565b60405180910390fd5b61227c81612655565b50565b600254431161228d576123b1565b600060075414156122a457436002819055506123b1565b60006122b260025443611832565b905060006122cb600454836123b390919063ffffffff16565b9050600060085414156122e6574360028190555050506123b1565b8060085410156123455761233261232160075461231364e8d4a510006008546123b390919063ffffffff16565b6123c990919063ffffffff16565b6003546123f590919063ffffffff16565b60038190555060006008819055506123a7565b61235a816008546123df90919063ffffffff16565b6008819055506123a061238f60075461238164e8d4a51000856123b390919063ffffffff16565b6123c990919063ffffffff16565b6003546123f590919063ffffffff16565b6003819055505b4360028190555050505b565b600081836123c19190613444565b905092915050565b600081836123d79190613413565b905092915050565b600081836123ed919061349e565b905092915050565b6000818361240391906133bd565b905092915050565b600033905090565b612496846323b872dd60e01b85858560405160240161243493929190612f70565b604051602081830303815290604052907bffffffffffffffffffffffffffffffffffffffffffffffffffffffff19166020820180517bffffffffffffffffffffffffffffffffffffffffffffffffffffffff8381831617835250505050612719565b50505050565b600080600b60008473ffffffffffffffffffffffffffffffffffffffff1673ffffffffffffffffffffffffffffffffffffffff168152602001908152602001600020905060006003549050600254431180156124fb5750600060075414155b1561256c57600061250e60025443611832565b90506000612527600454836123b390919063ffffffff16565b905061256761255860075461254a64e8d4a51000856123b390919063ffffffff16565b6123c990919063ffffffff16565b846123f590919063ffffffff16565b925050505b6125c682600201546125b884600101546125aa64e8d4a5100061259c8789600001546123b390919063ffffffff16565b6123c990919063ffffffff16565b6123df90919063ffffffff16565b6123f590919063ffffffff16565b92505050919050565b6126508363a9059cbb60e01b84846040516024016125ee929190612fd9565b604051602081830303815290604052907bffffffffffffffffffffffffffffffffffffffffffffffffffffffff19166020820180517bffffffffffffffffffffffffffffffffffffffffffffffffffffffff8381831617835250505050612719565b505050565b60008060009054906101000a900473ffffffffffffffffffffffffffffffffffffffff169050816000806101000a81548173ffffffffffffffffffffffffffffffffffffffff021916908373ffffffffffffffffffffffffffffffffffffffff1602179055508173ffffffffffffffffffffffffffffffffffffffff168173ffffffffffffffffffffffffffffffffffffffff167f8be0079c531659141344cd1fd0a4f28419497f9722a3daafe3b4186f6b6457e060405160405180910390a35050565b600061277b826040518060400160405280602081526020017f5361666542455032303a206c6f772d6c6576656c2063616c6c206661696c65648152508573ffffffffffffffffffffffffffffffffffffffff166127e09092919063ffffffff16565b90506000815111156127db578080602001905181019061279b9190612a89565b6127da576040517f08c379a00000000000000000000000000000000000000000000000000000000081526004016127d1906130da565b60405180910390fd5b5b505050565b60606127ef84846000856127f8565b90509392505050565b60606128038561291a565b612842576040517f08c379a00000000000000000000000000000000000000000000000000000000081526004016128399061327a565b60405180910390fd5b6000808673ffffffffffffffffffffffffffffffffffffffff16858760405161286b9190612f3e565b60006040518083038185875af1925050503d80600081146128a8576040519150601f19603f3d011682016040523d82523d6000602084013e6128ad565b606091505b509150915081156128c2578092505050612912565b6000815111156128d55780518082602001fd5b836040517f08c379a00000000000000000000000000000000000000000000000000000000081526004016129099190613038565b60405180910390fd5b949350505050565b60008060007fc5d2460186f7233c927e7db2dcc703c0e500b653ca82273b7bfad8045d85a47060001b9050833f915080821415801561295c57506000801b8214155b92505050919050565b60008135905061297481613aed565b92915050565b60008083601f8401126129905761298f6136ae565b5b8235905067ffffffffffffffff8111156129ad576129ac6136a9565b5b6020830191508360208202830111156129c9576129c86136b3565b5b9250929050565b6000815190506129df81613b04565b92915050565b6000813590506129f481613b1b565b92915050565b600081519050612a0981613b1b565b92915050565b600060208284031215612a2557612a246136c2565b5b6000612a3384828501612965565b91505092915050565b60008060208385031215612a5357612a526136c2565b5b600083013567ffffffffffffffff811115612a7157612a706136b8565b5b612a7d8582860161297a565b92509250509250929050565b600060208284031215612a9f57612a9e6136c2565b5b6000612aad848285016129d0565b91505092915050565b600060208284031215612acc57612acb6136c2565b5b6000612ada848285016129e5565b91505092915050565b600060208284031215612af957612af86136c2565b5b6000612b07848285016129fa565b91505092915050565b60008060408385031215612b2757612b266136c2565b5b6000612b35858286016129e5565b9250506020612b46858286016129e5565b9150509250929050565b600080600060608486031215612b6957612b686136c2565b5b6000612b77868287016129e5565b9350506020612b88868287016129e5565b9250506040612b99868287016129e5565b9150509250925092565b612bac816134d2565b82525050565b6000612bbe8385613390565b93507f07ffffffffffffffffffffffffffffffffffffffffffffffffffffffffffffff831115612bf157612bf06136bd565b5b602083029250612c02838584613562565b82840190509392505050565b6000612c198261337a565b612c2381856133a1565b9350612c33818560208601613571565b80840191505092915050565b612c488161351a565b82525050565b612c578161352c565b82525050565b6000612c6882613385565b612c7281856133ac565b9350612c82818560208601613571565b612c8b816136c7565b840191505092915050565b6000612ca3601b836133ac565b9150612cae826136d8565b602082019050919050565b6000612cc66018836133ac565b9150612cd182613701565b602082019050919050565b6000612ce9601b836133ac565b9150612cf48261372a565b602082019050919050565b6000612d0c601e836133ac565b9150612d1782613753565b602082019050919050565b6000612d2f602a836133ac565b9150612d3a8261377c565b604082019050919050565b6000612d526026836133ac565b9150612d5d826137cb565b604082019050919050565b6000612d75601e836133ac565b9150612d808261381a565b602082019050919050565b6000612d98601b836133ac565b9150612da382613843565b602082019050919050565b6000612dbb6031836133ac565b9150612dc68261386c565b604082019050919050565b6000612dde6022836133ac565b9150612de9826138bb565b604082019050919050565b6000612e01601f836133ac565b9150612e0c8261390a565b602082019050919050565b6000612e246018836133ac565b9150612e2f82613933565b602082019050919050565b6000612e476022836133ac565b9150612e528261395c565b604082019050919050565b6000612e6a6020836133ac565b9150612e75826139ab565b602082019050919050565b6000612e8d601e836133ac565b9150612e98826139d4565b602082019050919050565b6000612eb0601f836133ac565b9150612ebb826139fd565b602082019050919050565b6000612ed36022836133ac565b9150612ede82613a26565b604082019050919050565b6000612ef6601d836133ac565b9150612f0182613a75565b602082019050919050565b6000612f196039836133ac565b9150612f2482613a9e565b604082019050919050565b612f3881613510565b82525050565b6000612f4a8284612c0e565b915081905092915050565b6000602082019050612f6a6000830184612ba3565b92915050565b6000606082019050612f856000830186612ba3565b612f926020830185612ba3565b612f9f6040830184612f2f565b949350505050565b6000604082019050612fbc6000830186612ba3565b8181036020830152612fcf818486612bb2565b9050949350505050565b6000604082019050612fee6000830185612ba3565b612ffb6020830184612f2f565b9392505050565b60006020820190506130176000830184612c3f565b92915050565b60006020820190506130326000830184612c4e565b92915050565b600060208201905081810360008301526130528184612c5d565b905092915050565b6000602082019050818103600083015261307381612c96565b9050919050565b6000602082019050818103600083015261309381612cb9565b9050919050565b600060208201905081810360008301526130b381612cdc565b9050919050565b600060208201905081810360008301526130d381612cff565b9050919050565b600060208201905081810360008301526130f381612d22565b9050919050565b6000602082019050818103600083015261311381612d45565b9050919050565b6000602082019050818103600083015261313381612d68565b9050919050565b6000602082019050818103600083015261315381612d8b565b9050919050565b6000602082019050818103600083015261317381612dae565b9050919050565b6000602082019050818103600083015261319381612dd1565b9050919050565b600060208201905081810360008301526131b381612df4565b9050919050565b600060208201905081810360008301526131d381612e17565b9050919050565b600060208201905081810360008301526131f381612e3a565b9050919050565b6000602082019050818103600083015261321381612e5d565b9050919050565b6000602082019050818103600083015261323381612e80565b9050919050565b6000602082019050818103600083015261325381612ea3565b9050919050565b6000602082019050818103600083015261327381612ec6565b9050919050565b6000602082019050818103600083015261329381612ee9565b9050919050565b600060208201905081810360008301526132b381612f0c565b9050919050565b60006020820190506132cf6000830184612f2f565b92915050565b60006040820190506132ea6000830185612f2f565b6132f76020830184612f2f565b9392505050565b60006060820190506133136000830186612f2f565b6133206020830185612f2f565b61332d6040830184612f2f565b949350505050565b600060808201905061334a6000830187612f2f565b6133576020830186612f2f565b6133646040830185612f2f565b6133716060830184612f2f565b95945050505050565b600081519050919050565b600081519050919050565b600082825260208201905092915050565b600081905092915050565b600082825260208201905092915050565b60006133c882613510565b91506133d383613510565b9250827fffffffffffffffffffffffffffffffffffffffffffffffffffffffffffffffff03821115613408576134076135ed565b5b828201905092915050565b600061341e82613510565b915061342983613510565b9250826134395761343861361c565b5b828204905092915050565b600061344f82613510565b915061345a83613510565b9250817fffffffffffffffffffffffffffffffffffffffffffffffffffffffffffffffff0483118215151615613493576134926135ed565b5b828202905092915050565b60006134a982613510565b91506134b483613510565b9250828210156134c7576134c66135ed565b5b828203905092915050565b60006134dd826134f0565b9050919050565b60008115159050919050565b600073ffffffffffffffffffffffffffffffffffffffff82169050919050565b6000819050919050565b60006135258261353e565b9050919050565b60006135378261353e565b9050919050565b600061354982613550565b9050919050565b600061355b826134f0565b9050919050565b82818337600083830152505050565b60005b8381101561358f578082015181840152602081019050613574565b8381111561359e576000848401525b50505050565b60006135af82613510565b91507fffffffffffffffffffffffffffffffffffffffffffffffffffffffffffffffff8214156135e2576135e16135ed565b5b600182019050919050565b7f4e487b7100000000000000000000000000000000000000000000000000000000600052601160045260246000fd5b7f4e487b7100000000000000000000000000000000000000000000000000000000600052601260045260246000fd5b7f4e487b7100000000000000000000000000000000000000000000000000000000600052603160045260246000fd5b7f4e487b7100000000000000000000000000000000000000000000000000000000600052603260045260246000fd5b600080fd5b600080fd5b600080fd5b600080fd5b600080fd5b600080fd5b6000601f19601f8301169050919050565b7f616464556e5374616b654665653a206d696e4461797320697320300000000000600082015250565b7f4e4654205374616b696e673a20456d7074792041727261790000000000000000600082015250565b7f736574556e5374616b654665653a206d696e4461797320697320300000000000600082015250565b7f616464556e5374616b654665653a2066656550657263656e74203e2034300000600082015250565b7f5361666542455032303a204245503230206f7065726174696f6e20646964206e60008201527f6f74207375636365656400000000000000000000000000000000000000000000602082015250565b7f4f776e61626c653a206e6577206f776e657220697320746865207a65726f206160008201527f6464726573730000000000000000000000000000000000000000000000000000602082015250565b7f736574556e5374616b654665653a2066656550657263656e74203e2034300000600082015250565b7f72656d6f7665556e5374616b654665653a2072616e6765206f75740000000000600082015250565b7f4e4654205374616b696e673a206475706c696361746520746f6b656e2069647360008201527f20696e20696e70757420706172616d732e000000000000000000000000000000602082015250565b7f4e4654205374616b696e673a20746f6b656e20616c7265616479207374616b6560008201527f642e000000000000000000000000000000000000000000000000000000000000602082015250565b7f736574556e5374616b654665653a206d696e44617973206973206572726f7200600082015250565b7f736574556e5374616b654665653a2072616e6765206f75740000000000000000600082015250565b7f616464556e5374616b654665653a2066656550657263656e742069732065727260008201527f6f72000000000000000000000000000000000000000000000000000000000000602082015250565b7f4f776e61626c653a2063616c6c6572206973206e6f7420746865206f776e6572600082015250565b7f736574486172766573744665653a2066656550657263656e74203e2034300000600082015250565b7f616464556e5374616b654665653a206d696e44617973206973206572726f7200600082015250565b7f736574556e5374616b654665653a2066656550657263656e742069732065727260008201527f6f72000000000000000000000000000000000000000000000000000000000000602082015250565b7f416464726573733a2063616c6c20746f206e6f6e2d636f6e7472616374000000600082015250565b7f4e667420556e7374616b696e673a20746f6b656e206e6f74207374616b65642060008201527f6f7220696e636f727265637420746f6b656e206f776e65722e00000000000000602082015250565b613af6816134d2565b8114613b0157600080fd5b50565b613b0d816134e4565b8114613b1857600080fd5b50565b613b2481613510565b8114613b2f57600080fd5b5056fea264697066735822122073842539dde00e564b400332c32b278a5cf010cb0e38929e4a3355e6ab9f4d9364736f6c63430008070033",
					"opcodes": "PUSH1 0xC0 PUSH1 0x40 MSTORE CALLVALUE DUP1 ISZERO PUSH3 0x11 JUMPI PUSH1 0x0 DUP1 REVERT JUMPDEST POP PUSH1 0x40 MLOAD PUSH3 0x40EF CODESIZE SUB DUP1 PUSH3 0x40EF DUP4 CODECOPY DUP2 DUP2 ADD PUSH1 0x40 MSTORE DUP2 ADD SWAP1 PUSH3 0x37 SWAP2 SWAP1 PUSH3 0x3C9 JUMP JUMPDEST PUSH3 0x57 PUSH3 0x4B PUSH3 0x127 PUSH1 0x20 SHL PUSH1 0x20 SHR JUMP JUMPDEST PUSH3 0x12F PUSH1 0x20 SHL PUSH1 0x20 SHR JUMP JUMPDEST DUP4 PUSH20 0xFFFFFFFFFFFFFFFFFFFFFFFFFFFFFFFFFFFFFFFF AND PUSH1 0x80 DUP2 PUSH20 0xFFFFFFFFFFFFFFFFFFFFFFFFFFFFFFFFFFFFFFFF AND PUSH1 0x60 SHL DUP2 MSTORE POP POP DUP3 PUSH20 0xFFFFFFFFFFFFFFFFFFFFFFFFFFFFFFFFFFFFFFFF AND PUSH1 0xA0 DUP2 PUSH20 0xFFFFFFFFFFFFFFFFFFFFFFFFFFFFFFFFFFFFFFFF AND PUSH1 0x60 SHL DUP2 MSTORE POP POP DUP2 PUSH1 0x4 DUP2 SWAP1 SSTORE POP DUP1 PUSH1 0x5 PUSH1 0x0 PUSH2 0x100 EXP DUP2 SLOAD DUP2 PUSH20 0xFFFFFFFFFFFFFFFFFFFFFFFFFFFFFFFFFFFFFFFF MUL NOT AND SWAP1 DUP4 PUSH20 0xFFFFFFFFFFFFFFFFFFFFFFFFFFFFFFFFFFFFFFFF AND MUL OR SWAP1 SSTORE POP PUSH3 0x11D PUSH3 0x1F3 PUSH1 0x20 SHL PUSH1 0x20 SHR JUMP JUMPDEST POP POP POP POP PUSH3 0x50E JUMP JUMPDEST PUSH1 0x0 CALLER SWAP1 POP SWAP1 JUMP JUMPDEST PUSH1 0x0 DUP1 PUSH1 0x0 SWAP1 SLOAD SWAP1 PUSH2 0x100 EXP SWAP1 DIV PUSH20 0xFFFFFFFFFFFFFFFFFFFFFFFFFFFFFFFFFFFFFFFF AND SWAP1 POP DUP2 PUSH1 0x0 DUP1 PUSH2 0x100 EXP DUP2 SLOAD DUP2 PUSH20 0xFFFFFFFFFFFFFFFFFFFFFFFFFFFFFFFFFFFFFFFF MUL NOT AND SWAP1 DUP4 PUSH20 0xFFFFFFFFFFFFFFFFFFFFFFFFFFFFFFFFFFFFFFFF AND MUL OR SWAP1 SSTORE POP DUP2 PUSH20 0xFFFFFFFFFFFFFFFFFFFFFFFFFFFFFFFFFFFFFFFF AND DUP2 PUSH20 0xFFFFFFFFFFFFFFFFFFFFFFFFFFFFFFFFFFFFFFFF AND PUSH32 0x8BE0079C531659141344CD1FD0A4F28419497F9722A3DAAFE3B4186F6B6457E0 PUSH1 0x40 MLOAD PUSH1 0x40 MLOAD DUP1 SWAP2 SUB SWAP1 LOG3 POP POP JUMP JUMPDEST PUSH1 0x0 PUSH1 0x40 MLOAD DUP1 PUSH1 0x40 ADD PUSH1 0x40 MSTORE DUP1 PUSH1 0x7 DUP2 MSTORE PUSH1 0x20 ADD PUSH1 0x28 DUP2 MSTORE POP SWAP1 POP PUSH1 0x1 DUP2 SWAP1 DUP1 PUSH1 0x1 DUP2 SLOAD ADD DUP1 DUP3 SSTORE DUP1 SWAP2 POP POP PUSH1 0x1 SWAP1 SUB SWAP1 PUSH1 0x0 MSTORE PUSH1 0x20 PUSH1 0x0 KECCAK256 SWAP1 PUSH1 0x2 MUL ADD PUSH1 0x0 SWAP1 SWAP2 SWAP1 SWAP2 SWAP1 SWAP2 POP PUSH1 0x0 DUP3 ADD MLOAD DUP2 PUSH1 0x0 ADD SSTORE PUSH1 0x20 DUP3 ADD MLOAD DUP2 PUSH1 0x1 ADD SSTORE POP POP PUSH1 0x0 PUSH1 0x40 MLOAD DUP1 PUSH1 0x40 ADD PUSH1 0x40 MSTORE DUP1 PUSH1 0xE DUP2 MSTORE PUSH1 0x20 ADD PUSH1 0x1E DUP2 MSTORE POP SWAP1 POP PUSH1 0x1 DUP2 SWAP1 DUP1 PUSH1 0x1 DUP2 SLOAD ADD DUP1 DUP3 SSTORE DUP1 SWAP2 POP POP PUSH1 0x1 SWAP1 SUB SWAP1 PUSH1 0x0 MSTORE PUSH1 0x20 PUSH1 0x0 KECCAK256 SWAP1 PUSH1 0x2 MUL ADD PUSH1 0x0 SWAP1 SWAP2 SWAP1 SWAP2 SWAP1 SWAP2 POP PUSH1 0x0 DUP3 ADD MLOAD DUP2 PUSH1 0x0 ADD SSTORE PUSH1 0x20 DUP3 ADD MLOAD DUP2 PUSH1 0x1 ADD SSTORE POP POP PUSH1 0x0 PUSH1 0x40 MLOAD DUP1 PUSH1 0x40 ADD PUSH1 0x40 MSTORE DUP1 PUSH1 0x15 DUP2 MSTORE PUSH1 0x20 ADD PUSH1 0x14 DUP2 MSTORE POP SWAP1 POP PUSH1 0x1 DUP2 SWAP1 DUP1 PUSH1 0x1 DUP2 SLOAD ADD DUP1 DUP3 SSTORE DUP1 SWAP2 POP POP PUSH1 0x1 SWAP1 SUB SWAP1 PUSH1 0x0 MSTORE PUSH1 0x20 PUSH1 0x0 KECCAK256 SWAP1 PUSH1 0x2 MUL ADD PUSH1 0x0 SWAP1 SWAP2 SWAP1 SWAP2 SWAP1 SWAP2 POP PUSH1 0x0 DUP3 ADD MLOAD DUP2 PUSH1 0x0 ADD SSTORE PUSH1 0x20 DUP3 ADD MLOAD DUP2 PUSH1 0x1 ADD SSTORE POP POP PUSH1 0x0 PUSH1 0x40 MLOAD DUP1 PUSH1 0x40 ADD PUSH1 0x40 MSTORE DUP1 PUSH1 0x1E DUP2 MSTORE PUSH1 0x20 ADD PUSH1 0xA DUP2 MSTORE POP SWAP1 POP PUSH1 0x1 DUP2 SWAP1 DUP1 PUSH1 0x1 DUP2 SLOAD ADD DUP1 DUP3 SSTORE DUP1 SWAP2 POP POP PUSH1 0x1 SWAP1 SUB SWAP1 PUSH1 0x0 MSTORE PUSH1 0x20 PUSH1 0x0 KECCAK256 SWAP1 PUSH1 0x2 MUL ADD PUSH1 0x0 SWAP1 SWAP2 SWAP1 SWAP2 SWAP1 SWAP2 POP PUSH1 0x0 DUP3 ADD MLOAD DUP2 PUSH1 0x0 ADD SSTORE PUSH1 0x20 DUP3 ADD MLOAD DUP2 PUSH1 0x1 ADD SSTORE POP POP POP POP POP POP JUMP JUMPDEST PUSH1 0x0 DUP2 MLOAD SWAP1 POP PUSH3 0x37E DUP2 PUSH3 0x4A6 JUMP JUMPDEST SWAP3 SWAP2 POP POP JUMP JUMPDEST PUSH1 0x0 DUP2 MLOAD SWAP1 POP PUSH3 0x395 DUP2 PUSH3 0x4C0 JUMP JUMPDEST SWAP3 SWAP2 POP POP JUMP JUMPDEST PUSH1 0x0 DUP2 MLOAD SWAP1 POP PUSH3 0x3AC DUP2 PUSH3 0x4DA JUMP JUMPDEST SWAP3 SWAP2 POP POP JUMP JUMPDEST PUSH1 0x0 DUP2 MLOAD SWAP1 POP PUSH3 0x3C3 DUP2 PUSH3 0x4F4 JUMP JUMPDEST SWAP3 SWAP2 POP POP JUMP JUMPDEST PUSH1 0x0 DUP1 PUSH1 0x0 DUP1 PUSH1 0x80 DUP6 DUP8 SUB SLT ISZERO PUSH3 0x3E6 JUMPI PUSH3 0x3E5 PUSH3 0x4A1 JUMP JUMPDEST JUMPDEST PUSH1 0x0 PUSH3 0x3F6 DUP8 DUP3 DUP9 ADD PUSH3 0x39B JUMP JUMPDEST SWAP5 POP POP PUSH1 0x20 PUSH3 0x409 DUP8 DUP3 DUP9 ADD PUSH3 0x384 JUMP JUMPDEST SWAP4 POP POP PUSH1 0x40 PUSH3 0x41C DUP8 DUP3 DUP9 ADD PUSH3 0x3B2 JUMP JUMPDEST SWAP3 POP POP PUSH1 0x60 PUSH3 0x42F DUP8 DUP3 DUP9 ADD PUSH3 0x36D JUMP JUMPDEST SWAP2 POP POP SWAP3 SWAP6 SWAP2 SWAP5 POP SWAP3 POP JUMP JUMPDEST PUSH1 0x0 PUSH3 0x448 DUP3 PUSH3 0x477 JUMP JUMPDEST SWAP1 POP SWAP2 SWAP1 POP JUMP JUMPDEST PUSH1 0x0 PUSH3 0x45C DUP3 PUSH3 0x43B JUMP JUMPDEST SWAP1 POP SWAP2 SWAP1 POP JUMP JUMPDEST PUSH1 0x0 PUSH3 0x470 DUP3 PUSH3 0x43B JUMP JUMPDEST SWAP1 POP SWAP2 SWAP1 POP JUMP JUMPDEST PUSH1 0x0 PUSH20 0xFFFFFFFFFFFFFFFFFFFFFFFFFFFFFFFFFFFFFFFF DUP3 AND SWAP1 POP SWAP2 SWAP1 POP JUMP JUMPDEST PUSH1 0x0 DUP2 SWAP1 POP SWAP2 SWAP1 POP JUMP JUMPDEST PUSH1 0x0 DUP1 REVERT JUMPDEST PUSH3 0x4B1 DUP2 PUSH3 0x43B JUMP JUMPDEST DUP2 EQ PUSH3 0x4BD JUMPI PUSH1 0x0 DUP1 REVERT JUMPDEST POP JUMP JUMPDEST PUSH3 0x4CB DUP2 PUSH3 0x44F JUMP JUMPDEST DUP2 EQ PUSH3 0x4D7 JUMPI PUSH1 0x0 DUP1 REVERT JUMPDEST POP JUMP JUMPDEST PUSH3 0x4E5 DUP2 PUSH3 0x463 JUMP JUMPDEST DUP2 EQ PUSH3 0x4F1 JUMPI PUSH1 0x0 DUP1 REVERT JUMPDEST POP JUMP JUMPDEST PUSH3 0x4FF DUP2 PUSH3 0x497 JUMP JUMPDEST DUP2 EQ PUSH3 0x50B JUMPI PUSH1 0x0 DUP1 REVERT JUMPDEST POP JUMP JUMPDEST PUSH1 0x80 MLOAD PUSH1 0x60 SHR PUSH1 0xA0 MLOAD PUSH1 0x60 SHR PUSH2 0x3B68 PUSH3 0x587 PUSH1 0x0 CODECOPY PUSH1 0x0 DUP2 DUP2 PUSH2 0xDE7 ADD MSTORE DUP2 DUP2 PUSH2 0xEC1 ADD MSTORE DUP2 DUP2 PUSH2 0x1296 ADD MSTORE DUP2 DUP2 PUSH2 0x1345 ADD MSTORE DUP2 DUP2 PUSH2 0x13F6 ADD MSTORE DUP2 DUP2 PUSH2 0x143D ADD MSTORE DUP2 DUP2 PUSH2 0x14EC ADD MSTORE DUP2 DUP2 PUSH2 0x15BF ADD MSTORE DUP2 DUP2 PUSH2 0x1EB3 ADD MSTORE PUSH2 0x1F62 ADD MSTORE PUSH1 0x0 DUP2 DUP2 PUSH2 0x7BC ADD MSTORE DUP2 DUP2 PUSH2 0x1BAC ADD MSTORE PUSH2 0x207E ADD MSTORE PUSH2 0x3B68 PUSH1 0x0 RETURN INVALID PUSH1 0x80 PUSH1 0x40 MSTORE CALLVALUE DUP1 ISZERO PUSH2 0x10 JUMPI PUSH1 0x0 DUP1 REVERT JUMPDEST POP PUSH1 0x4 CALLDATASIZE LT PUSH2 0x158 JUMPI PUSH1 0x0 CALLDATALOAD PUSH1 0xE0 SHR DUP1 PUSH4 0x792B55B6 GT PUSH2 0xC3 JUMPI DUP1 PUSH4 0xA9F8D181 GT PUSH2 0x7C JUMPI DUP1 PUSH4 0xA9F8D181 EQ PUSH2 0x37D JUMPI DUP1 PUSH4 0xB5962917 EQ PUSH2 0x39B JUMPI DUP1 PUSH4 0xD06FCBA8 EQ PUSH2 0x3B9 JUMPI DUP1 PUSH4 0xE449F341 EQ PUSH2 0x3D7 JUMPI DUP1 PUSH4 0xF25F4B56 EQ PUSH2 0x3F3 JUMPI DUP1 PUSH4 0xF2FDE38B EQ PUSH2 0x411 JUMPI PUSH2 0x158 JUMP JUMPDEST DUP1 PUSH4 0x792B55B6 EQ PUSH2 0x2BD JUMPI DUP1 PUSH4 0x8AE39CAC EQ PUSH2 0x2D9 JUMPI DUP1 PUSH4 0x8DA5CB5B EQ PUSH2 0x2F7 JUMPI DUP1 PUSH4 0x8DBB1E3A EQ PUSH2 0x315 JUMPI DUP1 PUSH4 0x90D49B9D EQ PUSH2 0x345 JUMPI DUP1 PUSH4 0x9CA62A69 EQ PUSH2 0x361 JUMPI PUSH2 0x158 JUMP JUMPDEST DUP1 PUSH4 0x294D4E4A GT PUSH2 0x115 JUMPI DUP1 PUSH4 0x294D4E4A EQ PUSH2 0x233 JUMPI DUP1 PUSH4 0x43DB3C5F EQ PUSH2 0x24F JUMPI DUP1 PUSH4 0x4641257D EQ PUSH2 0x26D JUMPI DUP1 PUSH4 0x567E98F9 EQ PUSH2 0x277 JUMPI DUP1 PUSH4 0x5E42B455 EQ PUSH2 0x295 JUMPI DUP1 PUSH4 0x715018A6 EQ PUSH2 0x2B3 JUMPI PUSH2 0x158 JUMP JUMPDEST DUP1 PUSH4 0xFBF0A93 EQ PUSH2 0x15D JUMPI DUP1 PUSH4 0x10C77237 EQ PUSH2 0x179 JUMPI DUP1 PUSH4 0x1959A002 EQ PUSH2 0x195 JUMPI DUP1 PUSH4 0x19FCA9F6 EQ PUSH2 0x1C8 JUMPI DUP1 PUSH4 0x1C3E2E7A EQ PUSH2 0x1E6 JUMPI DUP1 PUSH4 0x1E2720FF EQ PUSH2 0x217 JUMPI JUMPDEST PUSH1 0x0 DUP1 REVERT JUMPDEST PUSH2 0x177 PUSH1 0x4 DUP1 CALLDATASIZE SUB DUP2 ADD SWAP1 PUSH2 0x172 SWAP2 SWAP1 PUSH2 0x2A3C JUMP JUMPDEST PUSH2 0x42D JUMP JUMPDEST STOP JUMPDEST PUSH2 0x193 PUSH1 0x4 DUP1 CALLDATASIZE SUB DUP2 ADD SWAP1 PUSH2 0x18E SWAP2 SWAP1 PUSH2 0x2B50 JUMP JUMPDEST PUSH2 0x89E JUMP JUMPDEST STOP JUMPDEST PUSH2 0x1AF PUSH1 0x4 DUP1 CALLDATASIZE SUB DUP2 ADD SWAP1 PUSH2 0x1AA SWAP2 SWAP1 PUSH2 0x2A0F JUMP JUMPDEST PUSH2 0xDB5 JUMP JUMPDEST PUSH1 0x40 MLOAD PUSH2 0x1BF SWAP5 SWAP4 SWAP3 SWAP2 SWAP1 PUSH2 0x3335 JUMP JUMPDEST PUSH1 0x40 MLOAD DUP1 SWAP2 SUB SWAP1 RETURN JUMPDEST PUSH2 0x1D0 PUSH2 0xDE5 JUMP JUMPDEST PUSH1 0x40 MLOAD PUSH2 0x1DD SWAP2 SWAP1 PUSH2 0x3002 JUMP JUMPDEST PUSH1 0x40 MLOAD DUP1 SWAP2 SUB SWAP1 RETURN JUMPDEST PUSH2 0x200 PUSH1 0x4 DUP1 CALLDATASIZE SUB DUP2 ADD SWAP1 PUSH2 0x1FB SWAP2 SWAP1 PUSH2 0x2AB6 JUMP JUMPDEST PUSH2 0xE09 JUMP JUMPDEST PUSH1 0x40 MLOAD PUSH2 0x20E SWAP3 SWAP2 SWAP1 PUSH2 0x32D5 JUMP JUMPDEST PUSH1 0x40 MLOAD DUP1 SWAP2 SUB SWAP1 RETURN JUMPDEST PUSH2 0x231 PUSH1 0x4 DUP1 CALLDATASIZE SUB DUP2 ADD SWAP1 PUSH2 0x22C SWAP2 SWAP1 PUSH2 0x2AB6 JUMP JUMPDEST PUSH2 0xE3D JUMP JUMPDEST STOP JUMPDEST PUSH2 0x24D PUSH1 0x4 DUP1 CALLDATASIZE SUB DUP2 ADD SWAP1 PUSH2 0x248 SWAP2 SWAP1 PUSH2 0x2B10 JUMP JUMPDEST PUSH2 0xF72 JUMP JUMPDEST STOP JUMPDEST PUSH2 0x257 PUSH2 0x1201 JUMP JUMPDEST PUSH1 0x40 MLOAD PUSH2 0x264 SWAP2 SWAP1 PUSH2 0x32BA JUMP JUMPDEST PUSH1 0x40 MLOAD DUP1 SWAP2 SUB SWAP1 RETURN JUMPDEST PUSH2 0x275 PUSH2 0x1207 JUMP JUMPDEST STOP JUMPDEST PUSH2 0x27F PUSH2 0x1609 JUMP JUMPDEST PUSH1 0x40 MLOAD PUSH2 0x28C SWAP2 SWAP1 PUSH2 0x32BA JUMP JUMPDEST PUSH1 0x40 MLOAD DUP1 SWAP2 SUB SWAP1 RETURN JUMPDEST PUSH2 0x29D PUSH2 0x160F JUMP JUMPDEST PUSH1 0x40 MLOAD PUSH2 0x2AA SWAP2 SWAP1 PUSH2 0x32BA JUMP JUMPDEST PUSH1 0x40 MLOAD DUP1 SWAP2 SUB SWAP1 RETURN JUMPDEST PUSH2 0x2BB PUSH2 0x167A JUMP JUMPDEST STOP JUMPDEST PUSH2 0x2D7 PUSH1 0x4 DUP1 CALLDATASIZE SUB DUP2 ADD SWAP1 PUSH2 0x2D2 SWAP2 SWAP1 PUSH2 0x2AB6 JUMP JUMPDEST PUSH2 0x1702 JUMP JUMPDEST STOP JUMPDEST PUSH2 0x2E1 PUSH2 0x1803 JUMP JUMPDEST PUSH1 0x40 MLOAD PUSH2 0x2EE SWAP2 SWAP1 PUSH2 0x32BA JUMP JUMPDEST PUSH1 0x40 MLOAD DUP1 SWAP2 SUB SWAP1 RETURN JUMPDEST PUSH2 0x2FF PUSH2 0x1809 JUMP JUMPDEST PUSH1 0x40 MLOAD PUSH2 0x30C SWAP2 SWAP1 PUSH2 0x2F55 JUMP JUMPDEST PUSH1 0x40 MLOAD DUP1 SWAP2 SUB SWAP1 RETURN JUMPDEST PUSH2 0x32F PUSH1 0x4 DUP1 CALLDATASIZE SUB DUP2 ADD SWAP1 PUSH2 0x32A SWAP2 SWAP1 PUSH2 0x2B10 JUMP JUMPDEST PUSH2 0x1832 JUMP JUMPDEST PUSH1 0x40 MLOAD PUSH2 0x33C SWAP2 SWAP1 PUSH2 0x32BA JUMP JUMPDEST PUSH1 0x40 MLOAD DUP1 SWAP2 SUB SWAP1 RETURN JUMPDEST PUSH2 0x35F PUSH1 0x4 DUP1 CALLDATASIZE SUB DUP2 ADD SWAP1 PUSH2 0x35A SWAP2 SWAP1 PUSH2 0x2A0F JUMP JUMPDEST PUSH2 0x184F JUMP JUMPDEST STOP JUMPDEST PUSH2 0x37B PUSH1 0x4 DUP1 CALLDATASIZE SUB DUP2 ADD SWAP1 PUSH2 0x376 SWAP2 SWAP1 PUSH2 0x2AB6 JUMP JUMPDEST PUSH2 0x1974 JUMP JUMPDEST STOP JUMPDEST PUSH2 0x385 PUSH2 0x1B9E JUMP JUMPDEST PUSH1 0x40 MLOAD PUSH2 0x392 SWAP2 SWAP1 PUSH2 0x32BA JUMP JUMPDEST PUSH1 0x40 MLOAD DUP1 SWAP2 SUB SWAP1 RETURN JUMPDEST PUSH2 0x3A3 PUSH2 0x1BA4 JUMP JUMPDEST PUSH1 0x40 MLOAD PUSH2 0x3B0 SWAP2 SWAP1 PUSH2 0x32BA JUMP JUMPDEST PUSH1 0x40 MLOAD DUP1 SWAP2 SUB SWAP1 RETURN JUMPDEST PUSH2 0x3C1 PUSH2 0x1BAA JUMP JUMPDEST PUSH1 0x40 MLOAD PUSH2 0x3CE SWAP2 SWAP1 PUSH2 0x301D JUMP JUMPDEST PUSH1 0x40 MLOAD DUP1 SWAP2 SUB SWAP1 RETURN JUMPDEST PUSH2 0x3F1 PUSH1 0x4 DUP1 CALLDATASIZE SUB DUP2 ADD SWAP1 PUSH2 0x3EC SWAP2 SWAP1 PUSH2 0x2A3C JUMP JUMPDEST PUSH2 0x1BCE JUMP JUMPDEST STOP JUMPDEST PUSH2 0x3FB PUSH2 0x2161 JUMP JUMPDEST PUSH1 0x40 MLOAD PUSH2 0x408 SWAP2 SWAP1 PUSH2 0x2F55 JUMP JUMPDEST PUSH1 0x40 MLOAD DUP1 SWAP2 SUB SWAP1 RETURN JUMPDEST PUSH2 0x42B PUSH1 0x4 DUP1 CALLDATASIZE SUB DUP2 ADD SWAP1 PUSH2 0x426 SWAP2 SWAP1 PUSH2 0x2A0F JUMP JUMPDEST PUSH2 0x2187 JUMP JUMPDEST STOP JUMPDEST PUSH1 0x0 DUP3 DUP3 SWAP1 POP GT PUSH2 0x473 JUMPI PUSH1 0x40 MLOAD PUSH32 0x8C379A000000000000000000000000000000000000000000000000000000000 DUP2 MSTORE PUSH1 0x4 ADD PUSH2 0x46A SWAP1 PUSH2 0x307A JUMP JUMPDEST PUSH1 0x40 MLOAD DUP1 SWAP2 SUB SWAP1 REVERT JUMPDEST PUSH1 0x0 JUMPDEST DUP3 DUP3 SWAP1 POP DUP2 LT ISZERO PUSH2 0x5FB JUMPI PUSH1 0x0 DUP4 DUP4 DUP4 DUP2 DUP2 LT PUSH2 0x496 JUMPI PUSH2 0x495 PUSH2 0x367A JUMP JUMPDEST JUMPDEST SWAP1 POP PUSH1 0x20 MUL ADD CALLDATALOAD SWAP1 POP PUSH1 0x0 PUSH20 0xFFFFFFFFFFFFFFFFFFFFFFFFFFFFFFFFFFFFFFFF AND PUSH1 0x9 PUSH1 0x0 DUP4 DUP2 MSTORE PUSH1 0x20 ADD SWAP1 DUP2 MSTORE PUSH1 0x20 ADD PUSH1 0x0 KECCAK256 PUSH1 0x0 SWAP1 SLOAD SWAP1 PUSH2 0x100 EXP SWAP1 DIV PUSH20 0xFFFFFFFFFFFFFFFFFFFFFFFFFFFFFFFFFFFFFFFF AND PUSH20 0xFFFFFFFFFFFFFFFFFFFFFFFFFFFFFFFFFFFFFFFF AND EQ PUSH2 0x541 JUMPI PUSH1 0x40 MLOAD PUSH32 0x8C379A000000000000000000000000000000000000000000000000000000000 DUP2 MSTORE PUSH1 0x4 ADD PUSH2 0x538 SWAP1 PUSH2 0x317A JUMP JUMPDEST PUSH1 0x40 MLOAD DUP1 SWAP2 SUB SWAP1 REVERT JUMPDEST PUSH1 0x0 PUSH1 0x1 DUP4 PUSH2 0x550 SWAP2 SWAP1 PUSH2 0x33BD JUMP JUMPDEST SWAP1 POP JUMPDEST DUP5 DUP5 SWAP1 POP DUP2 LT ISZERO PUSH2 0x5E6 JUMPI DUP5 DUP5 DUP3 DUP2 DUP2 LT PUSH2 0x571 JUMPI PUSH2 0x570 PUSH2 0x367A JUMP JUMPDEST JUMPDEST SWAP1 POP PUSH1 0x20 MUL ADD CALLDATALOAD DUP6 DUP6 DUP6 DUP2 DUP2 LT PUSH2 0x58B JUMPI PUSH2 0x58A PUSH2 0x367A JUMP JUMPDEST JUMPDEST SWAP1 POP PUSH1 0x20 MUL ADD CALLDATALOAD EQ ISZERO PUSH2 0x5D3 JUMPI PUSH1 0x40 MLOAD PUSH32 0x8C379A000000000000000000000000000000000000000000000000000000000 DUP2 MSTORE PUSH1 0x4 ADD PUSH2 0x5CA SWAP1 PUSH2 0x315A JUMP JUMPDEST PUSH1 0x40 MLOAD DUP1 SWAP2 SUB SWAP1 REVERT JUMPDEST DUP1 DUP1 PUSH2 0x5DE SWAP1 PUSH2 0x35A4 JUMP JUMPDEST SWAP2 POP POP PUSH2 0x553 JUMP JUMPDEST POP POP DUP1 DUP1 PUSH2 0x5F3 SWAP1 PUSH2 0x35A4 JUMP JUMPDEST SWAP2 POP POP PUSH2 0x476 JUMP JUMPDEST POP PUSH2 0x604 PUSH2 0x227F JUMP JUMPDEST PUSH1 0x0 PUSH1 0xB PUSH1 0x0 CALLER PUSH20 0xFFFFFFFFFFFFFFFFFFFFFFFFFFFFFFFFFFFFFFFF AND PUSH20 0xFFFFFFFFFFFFFFFFFFFFFFFFFFFFFFFFFFFFFFFF AND DUP2 MSTORE PUSH1 0x20 ADD SWAP1 DUP2 MSTORE PUSH1 0x20 ADD PUSH1 0x0 KECCAK256 SWAP1 POP PUSH1 0x0 DUP2 PUSH1 0x0 ADD SLOAD GT ISZERO PUSH2 0x6BF JUMPI PUSH1 0x0 PUSH2 0x69C DUP3 PUSH1 0x1 ADD SLOAD PUSH2 0x68E PUSH5 0xE8D4A51000 PUSH2 0x680 PUSH1 0x3 SLOAD DUP8 PUSH1 0x0 ADD SLOAD PUSH2 0x23B3 SWAP1 SWAP2 SWAP1 PUSH4 0xFFFFFFFF AND JUMP JUMPDEST PUSH2 0x23C9 SWAP1 SWAP2 SWAP1 PUSH4 0xFFFFFFFF AND JUMP JUMPDEST PUSH2 0x23DF SWAP1 SWAP2 SWAP1 PUSH4 0xFFFFFFFF AND JUMP JUMPDEST SWAP1 POP PUSH2 0x6B5 DUP2 DUP4 PUSH1 0x2 ADD SLOAD PUSH2 0x23F5 SWAP1 SWAP2 SWAP1 PUSH4 0xFFFFFFFF AND JUMP JUMPDEST DUP3 PUSH1 0x2 ADD DUP2 SWAP1 SSTORE POP POP JUMPDEST PUSH1 0x0 JUMPDEST DUP4 DUP4 SWAP1 POP DUP2 LT ISZERO PUSH2 0x85D JUMPI PUSH1 0x0 DUP5 DUP5 DUP4 DUP2 DUP2 LT PUSH2 0x6E2 JUMPI PUSH2 0x6E1 PUSH2 0x367A JUMP JUMPDEST JUMPDEST SWAP1 POP PUSH1 0x20 MUL ADD CALLDATALOAD SWAP1 POP CALLER PUSH1 0x9 PUSH1 0x0 DUP4 DUP2 MSTORE PUSH1 0x20 ADD SWAP1 DUP2 MSTORE PUSH1 0x20 ADD PUSH1 0x0 KECCAK256 PUSH1 0x0 PUSH2 0x100 EXP DUP2 SLOAD DUP2 PUSH20 0xFFFFFFFFFFFFFFFFFFFFFFFFFFFFFFFFFFFFFFFF MUL NOT AND SWAP1 DUP4 PUSH20 0xFFFFFFFFFFFFFFFFFFFFFFFFFFFFFFFFFFFFFFFF AND MUL OR SWAP1 SSTORE POP PUSH2 0x753 PUSH1 0x1 PUSH1 0x7 SLOAD PUSH2 0x23F5 SWAP1 SWAP2 SWAP1 PUSH4 0xFFFFFFFF AND JUMP JUMPDEST PUSH1 0x7 DUP2 SWAP1 SSTORE POP PUSH2 0x771 PUSH1 0x1 DUP5 PUSH1 0x0 ADD SLOAD PUSH2 0x23F5 SWAP1 SWAP2 SWAP1 PUSH4 0xFFFFFFFF AND JUMP JUMPDEST DUP4 PUSH1 0x0 ADD DUP2 SWAP1 SSTORE POP PUSH2 0x7A9 PUSH5 0xE8D4A51000 PUSH2 0x79B PUSH1 0x3 SLOAD DUP7 PUSH1 0x0 ADD SLOAD PUSH2 0x23B3 SWAP1 SWAP2 SWAP1 PUSH4 0xFFFFFFFF AND JUMP JUMPDEST PUSH2 0x23C9 SWAP1 SWAP2 SWAP1 PUSH4 0xFFFFFFFF AND JUMP JUMPDEST DUP4 PUSH1 0x1 ADD DUP2 SWAP1 SSTORE POP TIMESTAMP DUP4 PUSH1 0x3 ADD DUP2 SWAP1 SSTORE POP PUSH32 0x0 PUSH20 0xFFFFFFFFFFFFFFFFFFFFFFFFFFFFFFFFFFFFFFFF AND PUSH4 0x23B872DD CALLER ADDRESS DUP5 PUSH1 0x40 MLOAD DUP5 PUSH4 0xFFFFFFFF AND PUSH1 0xE0 SHL DUP2 MSTORE PUSH1 0x4 ADD PUSH2 0x817 SWAP4 SWAP3 SWAP2 SWAP1 PUSH2 0x2F70 JUMP JUMPDEST PUSH1 0x0 PUSH1 0x40 MLOAD DUP1 DUP4 SUB DUP2 PUSH1 0x0 DUP8 DUP1 EXTCODESIZE ISZERO DUP1 ISZERO PUSH2 0x831 JUMPI PUSH1 0x0 DUP1 REVERT JUMPDEST POP GAS CALL ISZERO DUP1 ISZERO PUSH2 0x845 JUMPI RETURNDATASIZE PUSH1 0x0 DUP1 RETURNDATACOPY RETURNDATASIZE PUSH1 0x0 REVERT JUMPDEST POP POP POP POP POP DUP1 DUP1 PUSH2 0x855 SWAP1 PUSH2 0x35A4 JUMP JUMPDEST SWAP2 POP POP PUSH2 0x6C2 JUMP JUMPDEST POP PUSH32 0x134B166C6094CC1CCBF1E3353CE5C3CD9FD29869051BDB999895854D77CC5EF6 CALLER DUP5 DUP5 PUSH1 0x40 MLOAD PUSH2 0x891 SWAP4 SWAP3 SWAP2 SWAP1 PUSH2 0x2FA7 JUMP JUMPDEST PUSH1 0x40 MLOAD DUP1 SWAP2 SUB SWAP1 LOG1 POP POP POP JUMP JUMPDEST PUSH2 0x8A6 PUSH2 0x240B JUMP JUMPDEST PUSH20 0xFFFFFFFFFFFFFFFFFFFFFFFFFFFFFFFFFFFFFFFF AND PUSH2 0x8C4 PUSH2 0x1809 JUMP JUMPDEST PUSH20 0xFFFFFFFFFFFFFFFFFFFFFFFFFFFFFFFFFFFFFFFF AND EQ PUSH2 0x91A JUMPI PUSH1 0x40 MLOAD PUSH32 0x8C379A000000000000000000000000000000000000000000000000000000000 DUP2 MSTORE PUSH1 0x4 ADD PUSH2 0x911 SWAP1 PUSH2 0x31FA JUMP JUMPDEST PUSH1 0x40 MLOAD DUP1 SWAP2 SUB SWAP1 REVERT JUMPDEST PUSH1 0x1 DUP1 SLOAD SWAP1 POP DUP4 LT PUSH2 0x961 JUMPI PUSH1 0x40 MLOAD PUSH32 0x8C379A000000000000000000000000000000000000000000000000000000000 DUP2 MSTORE PUSH1 0x4 ADD PUSH2 0x958 SWAP1 PUSH2 0x31BA JUMP JUMPDEST PUSH1 0x40 MLOAD DUP1 SWAP2 SUB SWAP1 REVERT JUMPDEST PUSH1 0x0 DUP3 GT PUSH2 0x9A4 JUMPI PUSH1 0x40 MLOAD PUSH32 0x8C379A000000000000000000000000000000000000000000000000000000000 DUP2 MSTORE PUSH1 0x4 ADD PUSH2 0x99B SWAP1 PUSH2 0x309A JUMP JUMPDEST PUSH1 0x40 MLOAD DUP1 SWAP2 SUB SWAP1 REVERT JUMPDEST PUSH1 0x28 DUP2 GT ISZERO PUSH2 0x9E8 JUMPI PUSH1 0x40 MLOAD PUSH32 0x8C379A000000000000000000000000000000000000000000000000000000000 DUP2 MSTORE PUSH1 0x4 ADD PUSH2 0x9DF SWAP1 PUSH2 0x311A JUMP JUMPDEST PUSH1 0x40 MLOAD DUP1 SWAP2 SUB SWAP1 REVERT JUMPDEST PUSH1 0x0 DUP4 EQ ISZERO PUSH2 0xAC4 JUMPI PUSH1 0x1 DUP1 DUP2 SLOAD DUP2 LT PUSH2 0xA05 JUMPI PUSH2 0xA04 PUSH2 0x367A JUMP JUMPDEST JUMPDEST SWAP1 PUSH1 0x0 MSTORE PUSH1 0x20 PUSH1 0x0 KECCAK256 SWAP1 PUSH1 0x2 MUL ADD PUSH1 0x0 ADD SLOAD DUP3 LT PUSH2 0xA58 JUMPI PUSH1 0x40 MLOAD PUSH32 0x8C379A000000000000000000000000000000000000000000000000000000000 DUP2 MSTORE PUSH1 0x4 ADD PUSH2 0xA4F SWAP1 PUSH2 0x319A JUMP JUMPDEST PUSH1 0x40 MLOAD DUP1 SWAP2 SUB SWAP1 REVERT JUMPDEST PUSH1 0x1 DUP1 DUP2 SLOAD DUP2 LT PUSH2 0xA6C JUMPI PUSH2 0xA6B PUSH2 0x367A JUMP JUMPDEST JUMPDEST SWAP1 PUSH1 0x0 MSTORE PUSH1 0x20 PUSH1 0x0 KECCAK256 SWAP1 PUSH1 0x2 MUL ADD PUSH1 0x1 ADD SLOAD DUP2 GT PUSH2 0xABF JUMPI PUSH1 0x40 MLOAD PUSH32 0x8C379A000000000000000000000000000000000000000000000000000000000 DUP2 MSTORE PUSH1 0x4 ADD PUSH2 0xAB6 SWAP1 PUSH2 0x325A JUMP JUMPDEST PUSH1 0x40 MLOAD DUP1 SWAP2 SUB SWAP1 REVERT JUMPDEST PUSH2 0xD21 JUMP JUMPDEST PUSH1 0x1 DUP1 DUP1 SLOAD SWAP1 POP PUSH2 0xAD5 SWAP2 SWAP1 PUSH2 0x349E JUMP JUMPDEST DUP4 EQ ISZERO PUSH2 0xBC5 JUMPI PUSH1 0x1 DUP1 DUP5 PUSH2 0xAEA SWAP2 SWAP1 PUSH2 0x349E JUMP JUMPDEST DUP2 SLOAD DUP2 LT PUSH2 0xAFB JUMPI PUSH2 0xAFA PUSH2 0x367A JUMP JUMPDEST JUMPDEST SWAP1 PUSH1 0x0 MSTORE PUSH1 0x20 PUSH1 0x0 KECCAK256 SWAP1 PUSH1 0x2 MUL ADD PUSH1 0x0 ADD SLOAD DUP3 GT PUSH2 0xB4E JUMPI PUSH1 0x40 MLOAD PUSH32 0x8C379A000000000000000000000000000000000000000000000000000000000 DUP2 MSTORE PUSH1 0x4 ADD PUSH2 0xB45 SWAP1 PUSH2 0x319A JUMP JUMPDEST PUSH1 0x40 MLOAD DUP1 SWAP2 SUB SWAP1 REVERT JUMPDEST PUSH1 0x1 DUP1 DUP5 PUSH2 0xB5C SWAP2 SWAP1 PUSH2 0x349E JUMP JUMPDEST DUP2 SLOAD DUP2 LT PUSH2 0xB6D JUMPI PUSH2 0xB6C PUSH2 0x367A JUMP JUMPDEST JUMPDEST SWAP1 PUSH1 0x0 MSTORE PUSH1 0x20 PUSH1 0x0 KECCAK256 SWAP1 PUSH1 0x2 MUL ADD PUSH1 0x1 ADD SLOAD DUP2 LT PUSH2 0xBC0 JUMPI PUSH1 0x40 MLOAD PUSH32 0x8C379A000000000000000000000000000000000000000000000000000000000 DUP2 MSTORE PUSH1 0x4 ADD PUSH2 0xBB7 SWAP1 PUSH2 0x325A JUMP JUMPDEST PUSH1 0x40 MLOAD DUP1 SWAP2 SUB SWAP1 REVERT JUMPDEST PUSH2 0xD20 JUMP JUMPDEST PUSH1 0x1 DUP1 DUP5 PUSH2 0xBD3 SWAP2 SWAP1 PUSH2 0x349E JUMP JUMPDEST DUP2 SLOAD DUP2 LT PUSH2 0xBE4 JUMPI PUSH2 0xBE3 PUSH2 0x367A JUMP JUMPDEST JUMPDEST SWAP1 PUSH1 0x0 MSTORE PUSH1 0x20 PUSH1 0x0 KECCAK256 SWAP1 PUSH1 0x2 MUL ADD PUSH1 0x0 ADD SLOAD DUP3 GT DUP1 ISZERO PUSH2 0xC33 JUMPI POP PUSH1 0x1 DUP1 DUP5 PUSH2 0xC0D SWAP2 SWAP1 PUSH2 0x33BD JUMP JUMPDEST DUP2 SLOAD DUP2 LT PUSH2 0xC1E JUMPI PUSH2 0xC1D PUSH2 0x367A JUMP JUMPDEST JUMPDEST SWAP1 PUSH1 0x0 MSTORE PUSH1 0x20 PUSH1 0x0 KECCAK256 SWAP1 PUSH1 0x2 MUL ADD PUSH1 0x0 ADD SLOAD DUP3 LT JUMPDEST PUSH2 0xC72 JUMPI PUSH1 0x40 MLOAD PUSH32 0x8C379A000000000000000000000000000000000000000000000000000000000 DUP2 MSTORE PUSH1 0x4 ADD PUSH2 0xC69 SWAP1 PUSH2 0x319A JUMP JUMPDEST PUSH1 0x40 MLOAD DUP1 SWAP2 SUB SWAP1 REVERT JUMPDEST PUSH1 0x1 DUP1 DUP5 PUSH2 0xC80 SWAP2 SWAP1 PUSH2 0x349E JUMP JUMPDEST DUP2 SLOAD DUP2 LT PUSH2 0xC91 JUMPI PUSH2 0xC90 PUSH2 0x367A JUMP JUMPDEST JUMPDEST SWAP1 PUSH1 0x0 MSTORE PUSH1 0x20 PUSH1 0x0 KECCAK256 SWAP1 PUSH1 0x2 MUL ADD PUSH1 0x1 ADD SLOAD DUP2 LT DUP1 ISZERO PUSH2 0xCE0 JUMPI POP PUSH1 0x1 DUP1 DUP5 PUSH2 0xCBA SWAP2 SWAP1 PUSH2 0x33BD JUMP JUMPDEST DUP2 SLOAD DUP2 LT PUSH2 0xCCB JUMPI PUSH2 0xCCA PUSH2 0x367A JUMP JUMPDEST JUMPDEST SWAP1 PUSH1 0x0 MSTORE PUSH1 0x20 PUSH1 0x0 KECCAK256 SWAP1 PUSH1 0x2 MUL ADD PUSH1 0x1 ADD SLOAD DUP2 GT JUMPDEST PUSH2 0xD1F JUMPI PUSH1 0x40 MLOAD PUSH32 0x8C379A000000000000000000000000000000000000000000000000000000000 DUP2 MSTORE PUSH1 0x4 ADD PUSH2 0xD16 SWAP1 PUSH2 0x325A JUMP JUMPDEST PUSH1 0x40 MLOAD DUP1 SWAP2 SUB SWAP1 REVERT JUMPDEST JUMPDEST JUMPDEST DUP1 PUSH1 0x1 DUP5 DUP2 SLOAD DUP2 LT PUSH2 0xD36 JUMPI PUSH2 0xD35 PUSH2 0x367A JUMP JUMPDEST JUMPDEST SWAP1 PUSH1 0x0 MSTORE PUSH1 0x20 PUSH1 0x0 KECCAK256 SWAP1 PUSH1 0x2 MUL ADD PUSH1 0x1 ADD DUP2 SWAP1 SSTORE POP DUP2 PUSH1 0x1 DUP5 DUP2 SLOAD DUP2 LT PUSH2 0xD60 JUMPI PUSH2 0xD5F PUSH2 0x367A JUMP JUMPDEST JUMPDEST SWAP1 PUSH1 0x0 MSTORE PUSH1 0x20 PUSH1 0x0 KECCAK256 SWAP1 PUSH1 0x2 MUL ADD PUSH1 0x0 ADD DUP2 SWAP1 SSTORE POP PUSH32 0xC5B7EF59C45162D0F957AF811D4AD5F8980E588A729FA3B80EBEF5020E4C2725 DUP4 DUP4 DUP4 PUSH1 0x40 MLOAD PUSH2 0xDA8 SWAP4 SWAP3 SWAP2 SWAP1 PUSH2 0x32FE JUMP JUMPDEST PUSH1 0x40 MLOAD DUP1 SWAP2 SUB SWAP1 LOG1 POP POP POP JUMP JUMPDEST PUSH1 0xB PUSH1 0x20 MSTORE DUP1 PUSH1 0x0 MSTORE PUSH1 0x40 PUSH1 0x0 KECCAK256 PUSH1 0x0 SWAP2 POP SWAP1 POP DUP1 PUSH1 0x0 ADD SLOAD SWAP1 DUP1 PUSH1 0x1 ADD SLOAD SWAP1 DUP1 PUSH1 0x2 ADD SLOAD SWAP1 DUP1 PUSH1 0x3 ADD SLOAD SWAP1 POP DUP5 JUMP JUMPDEST PUSH32 0x0 DUP2 JUMP JUMPDEST PUSH1 0x1 DUP2 DUP2 SLOAD DUP2 LT PUSH2 0xE19 JUMPI PUSH1 0x0 DUP1 REVERT JUMPDEST SWAP1 PUSH1 0x0 MSTORE PUSH1 0x20 PUSH1 0x0 KECCAK256 SWAP1 PUSH1 0x2 MUL ADD PUSH1 0x0 SWAP2 POP SWAP1 POP DUP1 PUSH1 0x0 ADD SLOAD SWAP1 DUP1 PUSH1 0x1 ADD SLOAD SWAP1 POP DUP3 JUMP JUMPDEST PUSH2 0xE45 PUSH2 0x240B JUMP JUMPDEST PUSH20 0xFFFFFFFFFFFFFFFFFFFFFFFFFFFFFFFFFFFFFFFF AND PUSH2 0xE63 PUSH2 0x1809 JUMP JUMPDEST PUSH20 0xFFFFFFFFFFFFFFFFFFFFFFFFFFFFFFFFFFFFFFFF AND EQ PUSH2 0xEB9 JUMPI PUSH1 0x40 MLOAD PUSH32 0x8C379A000000000000000000000000000000000000000000000000000000000 DUP2 MSTORE PUSH1 0x4 ADD PUSH2 0xEB0 SWAP1 PUSH2 0x31FA JUMP JUMPDEST PUSH1 0x40 MLOAD DUP1 SWAP2 SUB SWAP1 REVERT JUMPDEST PUSH2 0xF06 CALLER ADDRESS DUP4 PUSH32 0x0 PUSH20 0xFFFFFFFFFFFFFFFFFFFFFFFFFFFFFFFFFFFFFFFF AND PUSH2 0x2413 SWAP1 SWAP4 SWAP3 SWAP2 SWAP1 PUSH4 0xFFFFFFFF AND JUMP JUMPDEST CALLER PUSH20 0xFFFFFFFFFFFFFFFFFFFFFFFFFFFFFFFFFFFFFFFF AND PUSH32 0x4F7FD5C9E17300A4800FD572EA53FC291E2EE7470D73346D16B357FAEE4E7210 DUP3 PUSH1 0x40 MLOAD PUSH2 0xF4C SWAP2 SWAP1 PUSH2 0x32BA JUMP JUMPDEST PUSH1 0x40 MLOAD DUP1 SWAP2 SUB SWAP1 LOG2 PUSH2 0xF69 DUP2 PUSH1 0x8 SLOAD PUSH2 0x23F5 SWAP1 SWAP2 SWAP1 PUSH4 0xFFFFFFFF AND JUMP JUMPDEST PUSH1 0x8 DUP2 SWAP1 SSTORE POP POP JUMP JUMPDEST PUSH2 0xF7A PUSH2 0x240B JUMP JUMPDEST PUSH20 0xFFFFFFFFFFFFFFFFFFFFFFFFFFFFFFFFFFFFFFFF AND PUSH2 0xF98 PUSH2 0x1809 JUMP JUMPDEST PUSH20 0xFFFFFFFFFFFFFFFFFFFFFFFFFFFFFFFFFFFFFFFF AND EQ PUSH2 0xFEE JUMPI PUSH1 0x40 MLOAD PUSH32 0x8C379A000000000000000000000000000000000000000000000000000000000 DUP2 MSTORE PUSH1 0x4 ADD PUSH2 0xFE5 SWAP1 PUSH2 0x31FA JUMP JUMPDEST PUSH1 0x40 MLOAD DUP1 SWAP2 SUB SWAP1 REVERT JUMPDEST PUSH1 0x0 DUP3 GT PUSH2 0x1031 JUMPI PUSH1 0x40 MLOAD PUSH32 0x8C379A000000000000000000000000000000000000000000000000000000000 DUP2 MSTORE PUSH1 0x4 ADD PUSH2 0x1028 SWAP1 PUSH2 0x305A JUMP JUMPDEST PUSH1 0x40 MLOAD DUP1 SWAP2 SUB SWAP1 REVERT JUMPDEST PUSH1 0x28 DUP2 GT ISZERO PUSH2 0x1075 JUMPI PUSH1 0x40 MLOAD PUSH32 0x8C379A000000000000000000000000000000000000000000000000000000000 DUP2 MSTORE PUSH1 0x4 ADD PUSH2 0x106C SWAP1 PUSH2 0x30BA JUMP JUMPDEST PUSH1 0x40 MLOAD DUP1 SWAP2 SUB SWAP1 REVERT JUMPDEST PUSH1 0x1 DUP1 DUP1 DUP1 SLOAD SWAP1 POP PUSH2 0x1087 SWAP2 SWAP1 PUSH2 0x349E JUMP JUMPDEST DUP2 SLOAD DUP2 LT PUSH2 0x1098 JUMPI PUSH2 0x1097 PUSH2 0x367A JUMP JUMPDEST JUMPDEST SWAP1 PUSH1 0x0 MSTORE PUSH1 0x20 PUSH1 0x0 KECCAK256 SWAP1 PUSH1 0x2 MUL ADD PUSH1 0x0 ADD SLOAD DUP3 GT PUSH2 0x10EB JUMPI PUSH1 0x40 MLOAD PUSH32 0x8C379A000000000000000000000000000000000000000000000000000000000 DUP2 MSTORE PUSH1 0x4 ADD PUSH2 0x10E2 SWAP1 PUSH2 0x323A JUMP JUMPDEST PUSH1 0x40 MLOAD DUP1 SWAP2 SUB SWAP1 REVERT JUMPDEST PUSH1 0x1 DUP1 DUP1 DUP1 SLOAD SWAP1 POP PUSH2 0x10FD SWAP2 SWAP1 PUSH2 0x349E JUMP JUMPDEST DUP2 SLOAD DUP2 LT PUSH2 0x110E JUMPI PUSH2 0x110D PUSH2 0x367A JUMP JUMPDEST JUMPDEST SWAP1 PUSH1 0x0 MSTORE PUSH1 0x20 PUSH1 0x0 KECCAK256 SWAP1 PUSH1 0x2 MUL ADD PUSH1 0x1 ADD SLOAD DUP2 LT PUSH2 0x1161 JUMPI PUSH1 0x40 MLOAD PUSH32 0x8C379A000000000000000000000000000000000000000000000000000000000 DUP2 MSTORE PUSH1 0x4 ADD PUSH2 0x1158 SWAP1 PUSH2 0x31DA JUMP JUMPDEST PUSH1 0x40 MLOAD DUP1 SWAP2 SUB SWAP1 REVERT JUMPDEST PUSH1 0x0 PUSH1 0x40 MLOAD DUP1 PUSH1 0x40 ADD PUSH1 0x40 MSTORE DUP1 DUP5 DUP2 MSTORE PUSH1 0x20 ADD DUP4 DUP2 MSTORE POP SWAP1 POP PUSH1 0x1 DUP2 SWAP1 DUP1 PUSH1 0x1 DUP2 SLOAD ADD DUP1 DUP3 SSTORE DUP1 SWAP2 POP POP PUSH1 0x1 SWAP1 SUB SWAP1 PUSH1 0x0 MSTORE PUSH1 0x20 PUSH1 0x0 KECCAK256 SWAP1 PUSH1 0x2 MUL ADD PUSH1 0x0 SWAP1 SWAP2 SWAP1 SWAP2 SWAP1 SWAP2 POP PUSH1 0x0 DUP3 ADD MLOAD DUP2 PUSH1 0x0 ADD SSTORE PUSH1 0x20 DUP3 ADD MLOAD DUP2 PUSH1 0x1 ADD SSTORE POP POP PUSH32 0x657CA150BE22533E612098A9CDC78B9252AA1C21D424FB5011C5CECCC0447B50 PUSH1 0x1 DUP1 SLOAD SWAP1 POP DUP5 DUP5 PUSH1 0x40 MLOAD PUSH2 0x11F4 SWAP4 SWAP3 SWAP2 SWAP1 PUSH2 0x32FE JUMP JUMPDEST PUSH1 0x40 MLOAD DUP1 SWAP2 SUB SWAP1 LOG1 POP POP POP JUMP JUMPDEST PUSH1 0x3 SLOAD DUP2 JUMP JUMPDEST PUSH1 0x0 PUSH2 0x1212 CALLER PUSH2 0x249C JUMP JUMPDEST SWAP1 POP PUSH1 0x0 PUSH1 0xB PUSH1 0x0 CALLER PUSH20 0xFFFFFFFFFFFFFFFFFFFFFFFFFFFFFFFFFFFFFFFF AND PUSH20 0xFFFFFFFFFFFFFFFFFFFFFFFFFFFFFFFFFFFFFFFF AND DUP2 MSTORE PUSH1 0x20 ADD SWAP1 DUP2 MSTORE PUSH1 0x20 ADD PUSH1 0x0 KECCAK256 SWAP1 POP PUSH1 0x0 PUSH2 0x1281 PUSH1 0x64 PUSH2 0x1273 PUSH1 0x6 SLOAD DUP7 PUSH2 0x23B3 SWAP1 SWAP2 SWAP1 PUSH4 0xFFFFFFFF AND JUMP JUMPDEST PUSH2 0x23C9 SWAP1 SWAP2 SWAP1 PUSH4 0xFFFFFFFF AND JUMP JUMPDEST SWAP1 POP PUSH1 0x0 DUP2 DUP5 PUSH2 0x1291 SWAP2 SWAP1 PUSH2 0x349E JUMP JUMPDEST SWAP1 POP DUP1 PUSH32 0x0 PUSH20 0xFFFFFFFFFFFFFFFFFFFFFFFFFFFFFFFFFFFFFFFF AND PUSH4 0x70A08231 ADDRESS PUSH1 0x40 MLOAD DUP3 PUSH4 0xFFFFFFFF AND PUSH1 0xE0 SHL DUP2 MSTORE PUSH1 0x4 ADD PUSH2 0x12ED SWAP2 SWAP1 PUSH2 0x2F55 JUMP JUMPDEST PUSH1 0x20 PUSH1 0x40 MLOAD DUP1 DUP4 SUB DUP2 DUP7 DUP1 EXTCODESIZE ISZERO DUP1 ISZERO PUSH2 0x1305 JUMPI PUSH1 0x0 DUP1 REVERT JUMPDEST POP GAS STATICCALL ISZERO DUP1 ISZERO PUSH2 0x1319 JUMPI RETURNDATASIZE PUSH1 0x0 DUP1 RETURNDATACOPY RETURNDATASIZE PUSH1 0x0 REVERT JUMPDEST POP POP POP POP PUSH1 0x40 MLOAD RETURNDATASIZE PUSH1 0x1F NOT PUSH1 0x1F DUP3 ADD AND DUP3 ADD DUP1 PUSH1 0x40 MSTORE POP DUP2 ADD SWAP1 PUSH2 0x133D SWAP2 SWAP1 PUSH2 0x2AE3 JUMP JUMPDEST LT ISZERO PUSH2 0x13EF JUMPI PUSH32 0x0 PUSH20 0xFFFFFFFFFFFFFFFFFFFFFFFFFFFFFFFFFFFFFFFF AND PUSH4 0x70A08231 ADDRESS PUSH1 0x40 MLOAD DUP3 PUSH4 0xFFFFFFFF AND PUSH1 0xE0 SHL DUP2 MSTORE PUSH1 0x4 ADD PUSH2 0x139C SWAP2 SWAP1 PUSH2 0x2F55 JUMP JUMPDEST PUSH1 0x20 PUSH1 0x40 MLOAD DUP1 DUP4 SUB DUP2 DUP7 DUP1 EXTCODESIZE ISZERO DUP1 ISZERO PUSH2 0x13B4 JUMPI PUSH1 0x0 DUP1 REVERT JUMPDEST POP GAS STATICCALL ISZERO DUP1 ISZERO PUSH2 0x13C8 JUMPI RETURNDATASIZE PUSH1 0x0 DUP1 RETURNDATACOPY RETURNDATASIZE PUSH1 0x0 REVERT JUMPDEST POP POP POP POP PUSH1 0x40 MLOAD RETURNDATASIZE PUSH1 0x1F NOT PUSH1 0x1F DUP3 ADD AND DUP3 ADD DUP1 PUSH1 0x40 MSTORE POP DUP2 ADD SWAP1 PUSH2 0x13EC SWAP2 SWAP1 PUSH2 0x2AE3 JUMP JUMPDEST SWAP1 POP JUMPDEST PUSH2 0x143A CALLER DUP3 PUSH32 0x0 PUSH20 0xFFFFFFFFFFFFFFFFFFFFFFFFFFFFFFFFFFFFFFFF AND PUSH2 0x25CF SWAP1 SWAP3 SWAP2 SWAP1 PUSH4 0xFFFFFFFF AND JUMP JUMPDEST DUP2 PUSH32 0x0 PUSH20 0xFFFFFFFFFFFFFFFFFFFFFFFFFFFFFFFFFFFFFFFF AND PUSH4 0x70A08231 ADDRESS PUSH1 0x40 MLOAD DUP3 PUSH4 0xFFFFFFFF AND PUSH1 0xE0 SHL DUP2 MSTORE PUSH1 0x4 ADD PUSH2 0x1494 SWAP2 SWAP1 PUSH2 0x2F55 JUMP JUMPDEST PUSH1 0x20 PUSH1 0x40 MLOAD DUP1 DUP4 SUB DUP2 DUP7 DUP1 EXTCODESIZE ISZERO DUP1 ISZERO PUSH2 0x14AC JUMPI PUSH1 0x0 DUP1 REVERT JUMPDEST POP GAS STATICCALL ISZERO DUP1 ISZERO PUSH2 0x14C0 JUMPI RETURNDATASIZE PUSH1 0x0 DUP1 RETURNDATACOPY RETURNDATASIZE PUSH1 0x0 REVERT JUMPDEST POP POP POP POP PUSH1 0x40 MLOAD RETURNDATASIZE PUSH1 0x1F NOT PUSH1 0x1F DUP3 ADD AND DUP3 ADD DUP1 PUSH1 0x40 MSTORE POP DUP2 ADD SWAP1 PUSH2 0x14E4 SWAP2 SWAP1 PUSH2 0x2AE3 JUMP JUMPDEST LT ISZERO PUSH2 0x1596 JUMPI PUSH32 0x0 PUSH20 0xFFFFFFFFFFFFFFFFFFFFFFFFFFFFFFFFFFFFFFFF AND PUSH4 0x70A08231 ADDRESS PUSH1 0x40 MLOAD DUP3 PUSH4 0xFFFFFFFF AND PUSH1 0xE0 SHL DUP2 MSTORE PUSH1 0x4 ADD PUSH2 0x1543 SWAP2 SWAP1 PUSH2 0x2F55 JUMP JUMPDEST PUSH1 0x20 PUSH1 0x40 MLOAD DUP1 DUP4 SUB DUP2 DUP7 DUP1 EXTCODESIZE ISZERO DUP1 ISZERO PUSH2 0x155B JUMPI PUSH1 0x0 DUP1 REVERT JUMPDEST POP GAS STATICCALL ISZERO DUP1 ISZERO PUSH2 0x156F JUMPI RETURNDATASIZE PUSH1 0x0 DUP1 RETURNDATACOPY RETURNDATASIZE PUSH1 0x0 REVERT JUMPDEST POP POP POP POP PUSH1 0x40 MLOAD RETURNDATASIZE PUSH1 0x1F NOT PUSH1 0x1F DUP3 ADD AND DUP3 ADD DUP1 PUSH1 0x40 MSTORE POP DUP2 ADD SWAP1 PUSH2 0x1593 SWAP2 SWAP1 PUSH2 0x2AE3 JUMP JUMPDEST SWAP2 POP JUMPDEST PUSH2 0x1603 PUSH1 0x5 PUSH1 0x0 SWAP1 SLOAD SWAP1 PUSH2 0x100 EXP SWAP1 DIV PUSH20 0xFFFFFFFFFFFFFFFFFFFFFFFFFFFFFFFFFFFFFFFF AND DUP4 PUSH32 0x0 PUSH20 0xFFFFFFFFFFFFFFFFFFFFFFFFFFFFFFFFFFFFFFFF AND PUSH2 0x25CF SWAP1 SWAP3 SWAP2 SWAP1 PUSH4 0xFFFFFFFF AND JUMP JUMPDEST POP POP POP POP JUMP JUMPDEST PUSH1 0x7 SLOAD DUP2 JUMP JUMPDEST PUSH1 0x0 PUSH1 0x2 SLOAD NUMBER GT DUP1 ISZERO PUSH2 0x1625 JUMPI POP PUSH1 0x0 PUSH1 0x7 SLOAD EQ ISZERO JUMPDEST ISZERO PUSH2 0x1671 JUMPI PUSH1 0x0 PUSH2 0x1638 PUSH1 0x2 SLOAD NUMBER PUSH2 0x1832 JUMP JUMPDEST SWAP1 POP PUSH1 0x0 PUSH2 0x1651 PUSH1 0x4 SLOAD DUP4 PUSH2 0x23B3 SWAP1 SWAP2 SWAP1 PUSH4 0xFFFFFFFF AND JUMP JUMPDEST SWAP1 POP PUSH2 0x1668 DUP2 PUSH1 0x8 SLOAD PUSH2 0x23DF SWAP1 SWAP2 SWAP1 PUSH4 0xFFFFFFFF AND JUMP JUMPDEST SWAP3 POP POP POP PUSH2 0x1677 JUMP JUMPDEST PUSH1 0x8 SLOAD SWAP1 POP JUMPDEST SWAP1 JUMP JUMPDEST PUSH2 0x1682 PUSH2 0x240B JUMP JUMPDEST PUSH20 0xFFFFFFFFFFFFFFFFFFFFFFFFFFFFFFFFFFFFFFFF AND PUSH2 0x16A0 PUSH2 0x1809 JUMP JUMPDEST PUSH20 0xFFFFFFFFFFFFFFFFFFFFFFFFFFFFFFFFFFFFFFFF AND EQ PUSH2 0x16F6 JUMPI PUSH1 0x40 MLOAD PUSH32 0x8C379A000000000000000000000000000000000000000000000000000000000 DUP2 MSTORE PUSH1 0x4 ADD PUSH2 0x16ED SWAP1 PUSH2 0x31FA JUMP JUMPDEST PUSH1 0x40 MLOAD DUP1 SWAP2 SUB SWAP1 REVERT JUMPDEST PUSH2 0x1700 PUSH1 0x0 PUSH2 0x2655 JUMP JUMPDEST JUMP JUMPDEST PUSH2 0x170A PUSH2 0x240B JUMP JUMPDEST PUSH20 0xFFFFFFFFFFFFFFFFFFFFFFFFFFFFFFFFFFFFFFFF AND PUSH2 0x1728 PUSH2 0x1809 JUMP JUMPDEST PUSH20 0xFFFFFFFFFFFFFFFFFFFFFFFFFFFFFFFFFFFFFFFF AND EQ PUSH2 0x177E JUMPI PUSH1 0x40 MLOAD PUSH32 0x8C379A000000000000000000000000000000000000000000000000000000000 DUP2 MSTORE PUSH1 0x4 ADD PUSH2 0x1775 SWAP1 PUSH2 0x31FA JUMP JUMPDEST PUSH1 0x40 MLOAD DUP1 SWAP2 SUB SWAP1 REVERT JUMPDEST PUSH1 0x28 DUP2 GT ISZERO PUSH2 0x17C2 JUMPI PUSH1 0x40 MLOAD PUSH32 0x8C379A000000000000000000000000000000000000000000000000000000000 DUP2 MSTORE PUSH1 0x4 ADD PUSH2 0x17B9 SWAP1 PUSH2 0x321A JUMP JUMPDEST PUSH1 0x40 MLOAD DUP1 SWAP2 SUB SWAP1 REVERT JUMPDEST DUP1 PUSH1 0x6 DUP2 SWAP1 SSTORE POP PUSH32 0xF419800A2D8930C61D5D9CD782AA72C512CF6BE2F79DA6DB0B8855870B7269ED DUP2 PUSH1 0x40 MLOAD PUSH2 0x17F8 SWAP2 SWAP1 PUSH2 0x32BA JUMP JUMPDEST PUSH1 0x40 MLOAD DUP1 SWAP2 SUB SWAP1 LOG1 POP JUMP JUMPDEST PUSH1 0x4 SLOAD DUP2 JUMP JUMPDEST PUSH1 0x0 DUP1 PUSH1 0x0 SWAP1 SLOAD SWAP1 PUSH2 0x100 EXP SWAP1 DIV PUSH20 0xFFFFFFFFFFFFFFFFFFFFFFFFFFFFFFFFFFFFFFFF AND SWAP1 POP SWAP1 JUMP JUMPDEST PUSH1 0x0 PUSH2 0x1847 DUP4 DUP4 PUSH2 0x23DF SWAP1 SWAP2 SWAP1 PUSH4 0xFFFFFFFF AND JUMP JUMPDEST SWAP1 POP SWAP3 SWAP2 POP POP JUMP JUMPDEST PUSH2 0x1857 PUSH2 0x240B JUMP JUMPDEST PUSH20 0xFFFFFFFFFFFFFFFFFFFFFFFFFFFFFFFFFFFFFFFF AND PUSH2 0x1875 PUSH2 0x1809 JUMP JUMPDEST PUSH20 0xFFFFFFFFFFFFFFFFFFFFFFFFFFFFFFFFFFFFFFFF AND EQ PUSH2 0x18CB JUMPI PUSH1 0x40 MLOAD PUSH32 0x8C379A000000000000000000000000000000000000000000000000000000000 DUP2 MSTORE PUSH1 0x4 ADD PUSH2 0x18C2 SWAP1 PUSH2 0x31FA JUMP JUMPDEST PUSH1 0x40 MLOAD DUP1 SWAP2 SUB SWAP1 REVERT JUMPDEST DUP1 PUSH1 0x5 PUSH1 0x0 PUSH2 0x100 EXP DUP2 SLOAD DUP2 PUSH20 0xFFFFFFFFFFFFFFFFFFFFFFFFFFFFFFFFFFFFFFFF MUL NOT AND SWAP1 DUP4 PUSH20 0xFFFFFFFFFFFFFFFFFFFFFFFFFFFFFFFFFFFFFFFF AND MUL OR SWAP1 SSTORE POP PUSH1 0x5 PUSH1 0x0 SWAP1 SLOAD SWAP1 PUSH2 0x100 EXP SWAP1 DIV PUSH20 0xFFFFFFFFFFFFFFFFFFFFFFFFFFFFFFFFFFFFFFFF AND PUSH20 0xFFFFFFFFFFFFFFFFFFFFFFFFFFFFFFFFFFFFFFFF AND PUSH32 0x3D21E5A2B633291BD1FF5F9C654E402D063783C95759D2EA521B31FB30E4DA41 PUSH1 0x40 MLOAD PUSH1 0x40 MLOAD DUP1 SWAP2 SUB SWAP1 LOG2 POP JUMP JUMPDEST PUSH2 0x197C PUSH2 0x240B JUMP JUMPDEST PUSH20 0xFFFFFFFFFFFFFFFFFFFFFFFFFFFFFFFFFFFFFFFF AND PUSH2 0x199A PUSH2 0x1809 JUMP JUMPDEST PUSH20 0xFFFFFFFFFFFFFFFFFFFFFFFFFFFFFFFFFFFFFFFF AND EQ PUSH2 0x19F0 JUMPI PUSH1 0x40 MLOAD PUSH32 0x8C379A000000000000000000000000000000000000000000000000000000000 DUP2 MSTORE PUSH1 0x4 ADD PUSH2 0x19E7 SWAP1 PUSH2 0x31FA JUMP JUMPDEST PUSH1 0x40 MLOAD DUP1 SWAP2 SUB SWAP1 REVERT JUMPDEST PUSH1 0x1 DUP1 SLOAD SWAP1 POP DUP2 LT PUSH2 0x1A37 JUMPI PUSH1 0x40 MLOAD PUSH32 0x8C379A000000000000000000000000000000000000000000000000000000000 DUP2 MSTORE PUSH1 0x4 ADD PUSH2 0x1A2E SWAP1 PUSH2 0x313A JUMP JUMPDEST PUSH1 0x40 MLOAD DUP1 SWAP2 SUB SWAP1 REVERT JUMPDEST PUSH1 0x0 PUSH1 0x1 DUP3 DUP2 SLOAD DUP2 LT PUSH2 0x1A4D JUMPI PUSH2 0x1A4C PUSH2 0x367A JUMP JUMPDEST JUMPDEST SWAP1 PUSH1 0x0 MSTORE PUSH1 0x20 PUSH1 0x0 KECCAK256 SWAP1 PUSH1 0x2 MUL ADD PUSH1 0x0 ADD SLOAD SWAP1 POP PUSH1 0x0 PUSH1 0x1 DUP4 DUP2 SLOAD DUP2 LT PUSH2 0x1A77 JUMPI PUSH2 0x1A76 PUSH2 0x367A JUMP JUMPDEST JUMPDEST SWAP1 PUSH1 0x0 MSTORE PUSH1 0x20 PUSH1 0x0 KECCAK256 SWAP1 PUSH1 0x2 MUL ADD PUSH1 0x1 ADD SLOAD SWAP1 POP PUSH1 0x0 DUP4 SWAP1 POP JUMPDEST PUSH1 0x1 DUP1 DUP1 SLOAD SWAP1 POP PUSH2 0x1AA2 SWAP2 SWAP1 PUSH2 0x349E JUMP JUMPDEST DUP2 LT ISZERO PUSH2 0x1B22 JUMPI PUSH1 0x1 DUP1 DUP3 PUSH2 0x1AB7 SWAP2 SWAP1 PUSH2 0x33BD JUMP JUMPDEST DUP2 SLOAD DUP2 LT PUSH2 0x1AC8 JUMPI PUSH2 0x1AC7 PUSH2 0x367A JUMP JUMPDEST JUMPDEST SWAP1 PUSH1 0x0 MSTORE PUSH1 0x20 PUSH1 0x0 KECCAK256 SWAP1 PUSH1 0x2 MUL ADD PUSH1 0x1 DUP3 DUP2 SLOAD DUP2 LT PUSH2 0x1AEA JUMPI PUSH2 0x1AE9 PUSH2 0x367A JUMP JUMPDEST JUMPDEST SWAP1 PUSH1 0x0 MSTORE PUSH1 0x20 PUSH1 0x0 KECCAK256 SWAP1 PUSH1 0x2 MUL ADD PUSH1 0x0 DUP3 ADD SLOAD DUP2 PUSH1 0x0 ADD SSTORE PUSH1 0x1 DUP3 ADD SLOAD DUP2 PUSH1 0x1 ADD SSTORE SWAP1 POP POP DUP1 DUP1 PUSH2 0x1B1A SWAP1 PUSH2 0x35A4 JUMP JUMPDEST SWAP2 POP POP PUSH2 0x1A91 JUMP JUMPDEST POP PUSH1 0x1 DUP1 SLOAD DUP1 PUSH2 0x1B35 JUMPI PUSH2 0x1B34 PUSH2 0x364B JUMP JUMPDEST JUMPDEST PUSH1 0x1 SWAP1 SUB DUP2 DUP2 SWAP1 PUSH1 0x0 MSTORE PUSH1 0x20 PUSH1 0x0 KECCAK256 SWAP1 PUSH1 0x2 MUL ADD PUSH1 0x0 DUP1 DUP3 ADD PUSH1 0x0 SWAP1 SSTORE PUSH1 0x1 DUP3 ADD PUSH1 0x0 SWAP1 SSTORE POP POP SWAP1 SSTORE PUSH32 0x61FD4E7E2422942F3DF6E8C8C7744F23212CE0F0A23A80F0ACE593FFDF6D96D0 DUP4 DUP4 DUP4 PUSH1 0x40 MLOAD PUSH2 0x1B91 SWAP4 SWAP3 SWAP2 SWAP1 PUSH2 0x32FE JUMP JUMPDEST PUSH1 0x40 MLOAD DUP1 SWAP2 SUB SWAP1 LOG1 POP POP POP JUMP JUMPDEST PUSH1 0x2 SLOAD DUP2 JUMP JUMPDEST PUSH1 0x6 SLOAD DUP2 JUMP JUMPDEST PUSH32 0x0 DUP2 JUMP JUMPDEST PUSH1 0x0 DUP3 DUP3 SWAP1 POP GT PUSH2 0x1C14 JUMPI PUSH1 0x40 MLOAD PUSH32 0x8C379A000000000000000000000000000000000000000000000000000000000 DUP2 MSTORE PUSH1 0x4 ADD PUSH2 0x1C0B SWAP1 PUSH2 0x307A JUMP JUMPDEST PUSH1 0x40 MLOAD DUP1 SWAP2 SUB SWAP1 REVERT JUMPDEST PUSH1 0x0 JUMPDEST DUP3 DUP3 SWAP1 POP DUP2 LT ISZERO PUSH2 0x1D9B JUMPI PUSH1 0x0 DUP4 DUP4 DUP4 DUP2 DUP2 LT PUSH2 0x1C37 JUMPI PUSH2 0x1C36 PUSH2 0x367A JUMP JUMPDEST JUMPDEST SWAP1 POP PUSH1 0x20 MUL ADD CALLDATALOAD SWAP1 POP CALLER PUSH20 0xFFFFFFFFFFFFFFFFFFFFFFFFFFFFFFFFFFFFFFFF AND PUSH1 0x9 PUSH1 0x0 DUP4 DUP2 MSTORE PUSH1 0x20 ADD SWAP1 DUP2 MSTORE PUSH1 0x20 ADD PUSH1 0x0 KECCAK256 PUSH1 0x0 SWAP1 SLOAD SWAP1 PUSH2 0x100 EXP SWAP1 DIV PUSH20 0xFFFFFFFFFFFFFFFFFFFFFFFFFFFFFFFFFFFFFFFF AND PUSH20 0xFFFFFFFFFFFFFFFFFFFFFFFFFFFFFFFFFFFFFFFF AND EQ PUSH2 0x1CE1 JUMPI PUSH1 0x40 MLOAD PUSH32 0x8C379A000000000000000000000000000000000000000000000000000000000 DUP2 MSTORE PUSH1 0x4 ADD PUSH2 0x1CD8 SWAP1 PUSH2 0x329A JUMP JUMPDEST PUSH1 0x40 MLOAD DUP1 SWAP2 SUB SWAP1 REVERT JUMPDEST PUSH1 0x0 PUSH1 0x1 DUP4 PUSH2 0x1CF0 SWAP2 SWAP1 PUSH2 0x33BD JUMP JUMPDEST SWAP1 POP JUMPDEST DUP5 DUP5 SWAP1 POP DUP2 LT ISZERO PUSH2 0x1D86 JUMPI DUP5 DUP5 DUP3 DUP2 DUP2 LT PUSH2 0x1D11 JUMPI PUSH2 0x1D10 PUSH2 0x367A JUMP JUMPDEST JUMPDEST SWAP1 POP PUSH1 0x20 MUL ADD CALLDATALOAD DUP6 DUP6 DUP6 DUP2 DUP2 LT PUSH2 0x1D2B JUMPI PUSH2 0x1D2A PUSH2 0x367A JUMP JUMPDEST JUMPDEST SWAP1 POP PUSH1 0x20 MUL ADD CALLDATALOAD EQ ISZERO PUSH2 0x1D73 JUMPI PUSH1 0x40 MLOAD PUSH32 0x8C379A000000000000000000000000000000000000000000000000000000000 DUP2 MSTORE PUSH1 0x4 ADD PUSH2 0x1D6A SWAP1 PUSH2 0x315A JUMP JUMPDEST PUSH1 0x40 MLOAD DUP1 SWAP2 SUB SWAP1 REVERT JUMPDEST DUP1 DUP1 PUSH2 0x1D7E SWAP1 PUSH2 0x35A4 JUMP JUMPDEST SWAP2 POP POP PUSH2 0x1CF3 JUMP JUMPDEST POP POP DUP1 DUP1 PUSH2 0x1D93 SWAP1 PUSH2 0x35A4 JUMP JUMPDEST SWAP2 POP POP PUSH2 0x1C17 JUMP JUMPDEST POP PUSH2 0x1DA4 PUSH2 0x227F JUMP JUMPDEST PUSH1 0x0 PUSH1 0xB PUSH1 0x0 CALLER PUSH20 0xFFFFFFFFFFFFFFFFFFFFFFFFFFFFFFFFFFFFFFFF AND PUSH20 0xFFFFFFFFFFFFFFFFFFFFFFFFFFFFFFFFFFFFFFFF AND DUP2 MSTORE PUSH1 0x20 ADD SWAP1 DUP2 MSTORE PUSH1 0x20 ADD PUSH1 0x0 KECCAK256 SWAP1 POP PUSH1 0x0 JUMPDEST DUP4 DUP4 SWAP1 POP DUP2 LT ISZERO PUSH2 0x2120 JUMPI PUSH1 0x0 DUP5 DUP5 DUP4 DUP2 DUP2 LT PUSH2 0x1E0A JUMPI PUSH2 0x1E09 PUSH2 0x367A JUMP JUMPDEST JUMPDEST SWAP1 POP PUSH1 0x20 MUL ADD CALLDATALOAD SWAP1 POP PUSH1 0x0 PUSH1 0x9 PUSH1 0x0 DUP4 DUP2 MSTORE PUSH1 0x20 ADD SWAP1 DUP2 MSTORE PUSH1 0x20 ADD PUSH1 0x0 KECCAK256 PUSH1 0x0 PUSH2 0x100 EXP DUP2 SLOAD DUP2 PUSH20 0xFFFFFFFFFFFFFFFFFFFFFFFFFFFFFFFFFFFFFFFF MUL NOT AND SWAP1 DUP4 PUSH20 0xFFFFFFFFFFFFFFFFFFFFFFFFFFFFFFFFFFFFFFFF AND MUL OR SWAP1 SSTORE POP PUSH1 0x0 PUSH2 0x1EAE DUP5 PUSH1 0x1 ADD SLOAD PUSH2 0x1EA0 PUSH5 0xE8D4A51000 PUSH2 0x1E92 PUSH1 0x3 SLOAD DUP10 PUSH1 0x0 ADD SLOAD PUSH2 0x23B3 SWAP1 SWAP2 SWAP1 PUSH4 0xFFFFFFFF AND JUMP JUMPDEST PUSH2 0x23C9 SWAP1 SWAP2 SWAP1 PUSH4 0xFFFFFFFF AND JUMP JUMPDEST PUSH2 0x23DF SWAP1 SWAP2 SWAP1 PUSH4 0xFFFFFFFF AND JUMP JUMPDEST SWAP1 POP DUP1 PUSH32 0x0 PUSH20 0xFFFFFFFFFFFFFFFFFFFFFFFFFFFFFFFFFFFFFFFF AND PUSH4 0x70A08231 ADDRESS PUSH1 0x40 MLOAD DUP3 PUSH4 0xFFFFFFFF AND PUSH1 0xE0 SHL DUP2 MSTORE PUSH1 0x4 ADD PUSH2 0x1F0A SWAP2 SWAP1 PUSH2 0x2F55 JUMP JUMPDEST PUSH1 0x20 PUSH1 0x40 MLOAD DUP1 DUP4 SUB DUP2 DUP7 DUP1 EXTCODESIZE ISZERO DUP1 ISZERO PUSH2 0x1F22 JUMPI PUSH1 0x0 DUP1 REVERT JUMPDEST POP GAS STATICCALL ISZERO DUP1 ISZERO PUSH2 0x1F36 JUMPI RETURNDATASIZE PUSH1 0x0 DUP1 RETURNDATACOPY RETURNDATASIZE PUSH1 0x0 REVERT JUMPDEST POP POP POP POP PUSH1 0x40 MLOAD RETURNDATASIZE PUSH1 0x1F NOT PUSH1 0x1F DUP3 ADD AND DUP3 ADD DUP1 PUSH1 0x40 MSTORE POP DUP2 ADD SWAP1 PUSH2 0x1F5A SWAP2 SWAP1 PUSH2 0x2AE3 JUMP JUMPDEST LT ISZERO PUSH2 0x200C JUMPI PUSH32 0x0 PUSH20 0xFFFFFFFFFFFFFFFFFFFFFFFFFFFFFFFFFFFFFFFF AND PUSH4 0x70A08231 ADDRESS PUSH1 0x40 MLOAD DUP3 PUSH4 0xFFFFFFFF AND PUSH1 0xE0 SHL DUP2 MSTORE PUSH1 0x4 ADD PUSH2 0x1FB9 SWAP2 SWAP1 PUSH2 0x2F55 JUMP JUMPDEST PUSH1 0x20 PUSH1 0x40 MLOAD DUP1 DUP4 SUB DUP2 DUP7 DUP1 EXTCODESIZE ISZERO DUP1 ISZERO PUSH2 0x1FD1 JUMPI PUSH1 0x0 DUP1 REVERT JUMPDEST POP GAS STATICCALL ISZERO DUP1 ISZERO PUSH2 0x1FE5 JUMPI RETURNDATASIZE PUSH1 0x0 DUP1 RETURNDATACOPY RETURNDATASIZE PUSH1 0x0 REVERT JUMPDEST POP POP POP POP PUSH1 0x40 MLOAD RETURNDATASIZE PUSH1 0x1F NOT PUSH1 0x1F DUP3 ADD AND DUP3 ADD DUP1 PUSH1 0x40 MSTORE POP DUP2 ADD SWAP1 PUSH2 0x2009 SWAP2 SWAP1 PUSH2 0x2AE3 JUMP JUMPDEST SWAP1 POP JUMPDEST PUSH2 0x2023 DUP2 DUP6 PUSH1 0x2 ADD SLOAD PUSH2 0x23F5 SWAP1 SWAP2 SWAP1 PUSH4 0xFFFFFFFF AND JUMP JUMPDEST DUP5 PUSH1 0x2 ADD DUP2 SWAP1 SSTORE POP PUSH2 0x2043 PUSH1 0x1 DUP6 PUSH1 0x0 ADD SLOAD PUSH2 0x23DF SWAP1 SWAP2 SWAP1 PUSH4 0xFFFFFFFF AND JUMP JUMPDEST POP PUSH2 0x2074 PUSH5 0xE8D4A51000 PUSH2 0x2066 PUSH1 0x3 SLOAD DUP8 PUSH1 0x0 ADD SLOAD PUSH2 0x23B3 SWAP1 SWAP2 SWAP1 PUSH4 0xFFFFFFFF AND JUMP JUMPDEST PUSH2 0x23C9 SWAP1 SWAP2 SWAP1 PUSH4 0xFFFFFFFF AND JUMP JUMPDEST DUP5 PUSH1 0x1 ADD DUP2 SWAP1 SSTORE POP PUSH32 0x0 PUSH20 0xFFFFFFFFFFFFFFFFFFFFFFFFFFFFFFFFFFFFFFFF AND PUSH4 0x23B872DD ADDRESS CALLER DUP6 PUSH1 0x40 MLOAD DUP5 PUSH4 0xFFFFFFFF AND PUSH1 0xE0 SHL DUP2 MSTORE PUSH1 0x4 ADD PUSH2 0x20D9 SWAP4 SWAP3 SWAP2 SWAP1 PUSH2 0x2F70 JUMP JUMPDEST PUSH1 0x0 PUSH1 0x40 MLOAD DUP1 DUP4 SUB DUP2 PUSH1 0x0 DUP8 DUP1 EXTCODESIZE ISZERO DUP1 ISZERO PUSH2 0x20F3 JUMPI PUSH1 0x0 DUP1 REVERT JUMPDEST POP GAS CALL ISZERO DUP1 ISZERO PUSH2 0x2107 JUMPI RETURNDATASIZE PUSH1 0x0 DUP1 RETURNDATACOPY RETURNDATASIZE PUSH1 0x0 REVERT JUMPDEST POP POP POP POP POP POP DUP1 DUP1 PUSH2 0x2118 SWAP1 PUSH2 0x35A4 JUMP JUMPDEST SWAP2 POP POP PUSH2 0x1DEA JUMP JUMPDEST POP PUSH32 0x80CC10BF7E52583AE0A17D8DD6AB5005573B17A08091A091AF1A81205A675C91 CALLER DUP5 DUP5 PUSH1 0x40 MLOAD PUSH2 0x2154 SWAP4 SWAP3 SWAP2 SWAP1 PUSH2 0x2FA7 JUMP JUMPDEST PUSH1 0x40 MLOAD DUP1 SWAP2 SUB SWAP1 LOG1 POP POP POP JUMP JUMPDEST PUSH1 0x5 PUSH1 0x0 SWAP1 SLOAD SWAP1 PUSH2 0x100 EXP SWAP1 DIV PUSH20 0xFFFFFFFFFFFFFFFFFFFFFFFFFFFFFFFFFFFFFFFF AND DUP2 JUMP JUMPDEST PUSH2 0x218F PUSH2 0x240B JUMP JUMPDEST PUSH20 0xFFFFFFFFFFFFFFFFFFFFFFFFFFFFFFFFFFFFFFFF AND PUSH2 0x21AD PUSH2 0x1809 JUMP JUMPDEST PUSH20 0xFFFFFFFFFFFFFFFFFFFFFFFFFFFFFFFFFFFFFFFF AND EQ PUSH2 0x2203 JUMPI PUSH1 0x40 MLOAD PUSH32 0x8C379A000000000000000000000000000000000000000000000000000000000 DUP2 MSTORE PUSH1 0x4 ADD PUSH2 0x21FA SWAP1 PUSH2 0x31FA JUMP JUMPDEST PUSH1 0x40 MLOAD DUP1 SWAP2 SUB SWAP1 REVERT JUMPDEST PUSH1 0x0 PUSH20 0xFFFFFFFFFFFFFFFFFFFFFFFFFFFFFFFFFFFFFFFF AND DUP2 PUSH20 0xFFFFFFFFFFFFFFFFFFFFFFFFFFFFFFFFFFFFFFFF AND EQ ISZERO PUSH2 0x2273 JUMPI PUSH1 0x40 MLOAD PUSH32 0x8C379A000000000000000000000000000000000000000000000000000000000 DUP2 MSTORE PUSH1 0x4 ADD PUSH2 0x226A SWAP1 PUSH2 0x30FA JUMP JUMPDEST PUSH1 0x40 MLOAD DUP1 SWAP2 SUB SWAP1 REVERT JUMPDEST PUSH2 0x227C DUP2 PUSH2 0x2655 JUMP JUMPDEST POP JUMP JUMPDEST PUSH1 0x2 SLOAD NUMBER GT PUSH2 0x228D JUMPI PUSH2 0x23B1 JUMP JUMPDEST PUSH1 0x0 PUSH1 0x7 SLOAD EQ ISZERO PUSH2 0x22A4 JUMPI NUMBER PUSH1 0x2 DUP2 SWAP1 SSTORE POP PUSH2 0x23B1 JUMP JUMPDEST PUSH1 0x0 PUSH2 0x22B2 PUSH1 0x2 SLOAD NUMBER PUSH2 0x1832 JUMP JUMPDEST SWAP1 POP PUSH1 0x0 PUSH2 0x22CB PUSH1 0x4 SLOAD DUP4 PUSH2 0x23B3 SWAP1 SWAP2 SWAP1 PUSH4 0xFFFFFFFF AND JUMP JUMPDEST SWAP1 POP PUSH1 0x0 PUSH1 0x8 SLOAD EQ ISZERO PUSH2 0x22E6 JUMPI NUMBER PUSH1 0x2 DUP2 SWAP1 SSTORE POP POP POP PUSH2 0x23B1 JUMP JUMPDEST DUP1 PUSH1 0x8 SLOAD LT ISZERO PUSH2 0x2345 JUMPI PUSH2 0x2332 PUSH2 0x2321 PUSH1 0x7 SLOAD PUSH2 0x2313 PUSH5 0xE8D4A51000 PUSH1 0x8 SLOAD PUSH2 0x23B3 SWAP1 SWAP2 SWAP1 PUSH4 0xFFFFFFFF AND JUMP JUMPDEST PUSH2 0x23C9 SWAP1 SWAP2 SWAP1 PUSH4 0xFFFFFFFF AND JUMP JUMPDEST PUSH1 0x3 SLOAD PUSH2 0x23F5 SWAP1 SWAP2 SWAP1 PUSH4 0xFFFFFFFF AND JUMP JUMPDEST PUSH1 0x3 DUP2 SWAP1 SSTORE POP PUSH1 0x0 PUSH1 0x8 DUP2 SWAP1 SSTORE POP PUSH2 0x23A7 JUMP JUMPDEST PUSH2 0x235A DUP2 PUSH1 0x8 SLOAD PUSH2 0x23DF SWAP1 SWAP2 SWAP1 PUSH4 0xFFFFFFFF AND JUMP JUMPDEST PUSH1 0x8 DUP2 SWAP1 SSTORE POP PUSH2 0x23A0 PUSH2 0x238F PUSH1 0x7 SLOAD PUSH2 0x2381 PUSH5 0xE8D4A51000 DUP6 PUSH2 0x23B3 SWAP1 SWAP2 SWAP1 PUSH4 0xFFFFFFFF AND JUMP JUMPDEST PUSH2 0x23C9 SWAP1 SWAP2 SWAP1 PUSH4 0xFFFFFFFF AND JUMP JUMPDEST PUSH1 0x3 SLOAD PUSH2 0x23F5 SWAP1 SWAP2 SWAP1 PUSH4 0xFFFFFFFF AND JUMP JUMPDEST PUSH1 0x3 DUP2 SWAP1 SSTORE POP JUMPDEST NUMBER PUSH1 0x2 DUP2 SWAP1 SSTORE POP POP POP JUMPDEST JUMP JUMPDEST PUSH1 0x0 DUP2 DUP4 PUSH2 0x23C1 SWAP2 SWAP1 PUSH2 0x3444 JUMP JUMPDEST SWAP1 POP SWAP3 SWAP2 POP POP JUMP JUMPDEST PUSH1 0x0 DUP2 DUP4 PUSH2 0x23D7 SWAP2 SWAP1 PUSH2 0x3413 JUMP JUMPDEST SWAP1 POP SWAP3 SWAP2 POP POP JUMP JUMPDEST PUSH1 0x0 DUP2 DUP4 PUSH2 0x23ED SWAP2 SWAP1 PUSH2 0x349E JUMP JUMPDEST SWAP1 POP SWAP3 SWAP2 POP POP JUMP JUMPDEST PUSH1 0x0 DUP2 DUP4 PUSH2 0x2403 SWAP2 SWAP1 PUSH2 0x33BD JUMP JUMPDEST SWAP1 POP SWAP3 SWAP2 POP POP JUMP JUMPDEST PUSH1 0x0 CALLER SWAP1 POP SWAP1 JUMP JUMPDEST PUSH2 0x2496 DUP5 PUSH4 0x23B872DD PUSH1 0xE0 SHL DUP6 DUP6 DUP6 PUSH1 0x40 MLOAD PUSH1 0x24 ADD PUSH2 0x2434 SWAP4 SWAP3 SWAP2 SWAP1 PUSH2 0x2F70 JUMP JUMPDEST PUSH1 0x40 MLOAD PUSH1 0x20 DUP2 DUP4 SUB SUB DUP2 MSTORE SWAP1 PUSH1 0x40 MSTORE SWAP1 PUSH28 0xFFFFFFFFFFFFFFFFFFFFFFFFFFFFFFFFFFFFFFFFFFFFFFFFFFFFFFFF NOT AND PUSH1 0x20 DUP3 ADD DUP1 MLOAD PUSH28 0xFFFFFFFFFFFFFFFFFFFFFFFFFFFFFFFFFFFFFFFFFFFFFFFFFFFFFFFF DUP4 DUP2 DUP4 AND OR DUP4 MSTORE POP POP POP POP PUSH2 0x2719 JUMP JUMPDEST POP POP POP POP JUMP JUMPDEST PUSH1 0x0 DUP1 PUSH1 0xB PUSH1 0x0 DUP5 PUSH20 0xFFFFFFFFFFFFFFFFFFFFFFFFFFFFFFFFFFFFFFFF AND PUSH20 0xFFFFFFFFFFFFFFFFFFFFFFFFFFFFFFFFFFFFFFFF AND DUP2 MSTORE PUSH1 0x20 ADD SWAP1 DUP2 MSTORE PUSH1 0x20 ADD PUSH1 0x0 KECCAK256 SWAP1 POP PUSH1 0x0 PUSH1 0x3 SLOAD SWAP1 POP PUSH1 0x2 SLOAD NUMBER GT DUP1 ISZERO PUSH2 0x24FB JUMPI POP PUSH1 0x0 PUSH1 0x7 SLOAD EQ ISZERO JUMPDEST ISZERO PUSH2 0x256C JUMPI PUSH1 0x0 PUSH2 0x250E PUSH1 0x2 SLOAD NUMBER PUSH2 0x1832 JUMP JUMPDEST SWAP1 POP PUSH1 0x0 PUSH2 0x2527 PUSH1 0x4 SLOAD DUP4 PUSH2 0x23B3 SWAP1 SWAP2 SWAP1 PUSH4 0xFFFFFFFF AND JUMP JUMPDEST SWAP1 POP PUSH2 0x2567 PUSH2 0x2558 PUSH1 0x7 SLOAD PUSH2 0x254A PUSH5 0xE8D4A51000 DUP6 PUSH2 0x23B3 SWAP1 SWAP2 SWAP1 PUSH4 0xFFFFFFFF AND JUMP JUMPDEST PUSH2 0x23C9 SWAP1 SWAP2 SWAP1 PUSH4 0xFFFFFFFF AND JUMP JUMPDEST DUP5 PUSH2 0x23F5 SWAP1 SWAP2 SWAP1 PUSH4 0xFFFFFFFF AND JUMP JUMPDEST SWAP3 POP POP POP JUMPDEST PUSH2 0x25C6 DUP3 PUSH1 0x2 ADD SLOAD PUSH2 0x25B8 DUP5 PUSH1 0x1 ADD SLOAD PUSH2 0x25AA PUSH5 0xE8D4A51000 PUSH2 0x259C DUP8 DUP10 PUSH1 0x0 ADD SLOAD PUSH2 0x23B3 SWAP1 SWAP2 SWAP1 PUSH4 0xFFFFFFFF AND JUMP JUMPDEST PUSH2 0x23C9 SWAP1 SWAP2 SWAP1 PUSH4 0xFFFFFFFF AND JUMP JUMPDEST PUSH2 0x23DF SWAP1 SWAP2 SWAP1 PUSH4 0xFFFFFFFF AND JUMP JUMPDEST PUSH2 0x23F5 SWAP1 SWAP2 SWAP1 PUSH4 0xFFFFFFFF AND JUMP JUMPDEST SWAP3 POP POP POP SWAP2 SWAP1 POP JUMP JUMPDEST PUSH2 0x2650 DUP4 PUSH4 0xA9059CBB PUSH1 0xE0 SHL DUP5 DUP5 PUSH1 0x40 MLOAD PUSH1 0x24 ADD PUSH2 0x25EE SWAP3 SWAP2 SWAP1 PUSH2 0x2FD9 JUMP JUMPDEST PUSH1 0x40 MLOAD PUSH1 0x20 DUP2 DUP4 SUB SUB DUP2 MSTORE SWAP1 PUSH1 0x40 MSTORE SWAP1 PUSH28 0xFFFFFFFFFFFFFFFFFFFFFFFFFFFFFFFFFFFFFFFFFFFFFFFFFFFFFFFF NOT AND PUSH1 0x20 DUP3 ADD DUP1 MLOAD PUSH28 0xFFFFFFFFFFFFFFFFFFFFFFFFFFFFFFFFFFFFFFFFFFFFFFFFFFFFFFFF DUP4 DUP2 DUP4 AND OR DUP4 MSTORE POP POP POP POP PUSH2 0x2719 JUMP JUMPDEST POP POP POP JUMP JUMPDEST PUSH1 0x0 DUP1 PUSH1 0x0 SWAP1 SLOAD SWAP1 PUSH2 0x100 EXP SWAP1 DIV PUSH20 0xFFFFFFFFFFFFFFFFFFFFFFFFFFFFFFFFFFFFFFFF AND SWAP1 POP DUP2 PUSH1 0x0 DUP1 PUSH2 0x100 EXP DUP2 SLOAD DUP2 PUSH20 0xFFFFFFFFFFFFFFFFFFFFFFFFFFFFFFFFFFFFFFFF MUL NOT AND SWAP1 DUP4 PUSH20 0xFFFFFFFFFFFFFFFFFFFFFFFFFFFFFFFFFFFFFFFF AND MUL OR SWAP1 SSTORE POP DUP2 PUSH20 0xFFFFFFFFFFFFFFFFFFFFFFFFFFFFFFFFFFFFFFFF AND DUP2 PUSH20 0xFFFFFFFFFFFFFFFFFFFFFFFFFFFFFFFFFFFFFFFF AND PUSH32 0x8BE0079C531659141344CD1FD0A4F28419497F9722A3DAAFE3B4186F6B6457E0 PUSH1 0x40 MLOAD PUSH1 0x40 MLOAD DUP1 SWAP2 SUB SWAP1 LOG3 POP POP JUMP JUMPDEST PUSH1 0x0 PUSH2 0x277B DUP3 PUSH1 0x40 MLOAD DUP1 PUSH1 0x40 ADD PUSH1 0x40 MSTORE DUP1 PUSH1 0x20 DUP2 MSTORE PUSH1 0x20 ADD PUSH32 0x5361666542455032303A206C6F772D6C6576656C2063616C6C206661696C6564 DUP2 MSTORE POP DUP6 PUSH20 0xFFFFFFFFFFFFFFFFFFFFFFFFFFFFFFFFFFFFFFFF AND PUSH2 0x27E0 SWAP1 SWAP3 SWAP2 SWAP1 PUSH4 0xFFFFFFFF AND JUMP JUMPDEST SWAP1 POP PUSH1 0x0 DUP2 MLOAD GT ISZERO PUSH2 0x27DB JUMPI DUP1 DUP1 PUSH1 0x20 ADD SWAP1 MLOAD DUP2 ADD SWAP1 PUSH2 0x279B SWAP2 SWAP1 PUSH2 0x2A89 JUMP JUMPDEST PUSH2 0x27DA JUMPI PUSH1 0x40 MLOAD PUSH32 0x8C379A000000000000000000000000000000000000000000000000000000000 DUP2 MSTORE PUSH1 0x4 ADD PUSH2 0x27D1 SWAP1 PUSH2 0x30DA JUMP JUMPDEST PUSH1 0x40 MLOAD DUP1 SWAP2 SUB SWAP1 REVERT JUMPDEST JUMPDEST POP POP POP JUMP JUMPDEST PUSH1 0x60 PUSH2 0x27EF DUP5 DUP5 PUSH1 0x0 DUP6 PUSH2 0x27F8 JUMP JUMPDEST SWAP1 POP SWAP4 SWAP3 POP POP POP JUMP JUMPDEST PUSH1 0x60 PUSH2 0x2803 DUP6 PUSH2 0x291A JUMP JUMPDEST PUSH2 0x2842 JUMPI PUSH1 0x40 MLOAD PUSH32 0x8C379A000000000000000000000000000000000000000000000000000000000 DUP2 MSTORE PUSH1 0x4 ADD PUSH2 0x2839 SWAP1 PUSH2 0x327A JUMP JUMPDEST PUSH1 0x40 MLOAD DUP1 SWAP2 SUB SWAP1 REVERT JUMPDEST PUSH1 0x0 DUP1 DUP7 PUSH20 0xFFFFFFFFFFFFFFFFFFFFFFFFFFFFFFFFFFFFFFFF AND DUP6 DUP8 PUSH1 0x40 MLOAD PUSH2 0x286B SWAP2 SWAP1 PUSH2 0x2F3E JUMP JUMPDEST PUSH1 0x0 PUSH1 0x40 MLOAD DUP1 DUP4 SUB DUP2 DUP6 DUP8 GAS CALL SWAP3 POP POP POP RETURNDATASIZE DUP1 PUSH1 0x0 DUP2 EQ PUSH2 0x28A8 JUMPI PUSH1 0x40 MLOAD SWAP2 POP PUSH1 0x1F NOT PUSH1 0x3F RETURNDATASIZE ADD AND DUP3 ADD PUSH1 0x40 MSTORE RETURNDATASIZE DUP3 MSTORE RETURNDATASIZE PUSH1 0x0 PUSH1 0x20 DUP5 ADD RETURNDATACOPY PUSH2 0x28AD JUMP JUMPDEST PUSH1 0x60 SWAP2 POP JUMPDEST POP SWAP2 POP SWAP2 POP DUP2 ISZERO PUSH2 0x28C2 JUMPI DUP1 SWAP3 POP POP POP PUSH2 0x2912 JUMP JUMPDEST PUSH1 0x0 DUP2 MLOAD GT ISZERO PUSH2 0x28D5 JUMPI DUP1 MLOAD DUP1 DUP3 PUSH1 0x20 ADD REVERT JUMPDEST DUP4 PUSH1 0x40 MLOAD PUSH32 0x8C379A000000000000000000000000000000000000000000000000000000000 DUP2 MSTORE PUSH1 0x4 ADD PUSH2 0x2909 SWAP2 SWAP1 PUSH2 0x3038 JUMP JUMPDEST PUSH1 0x40 MLOAD DUP1 SWAP2 SUB SWAP1 REVERT JUMPDEST SWAP5 SWAP4 POP POP POP POP JUMP JUMPDEST PUSH1 0x0 DUP1 PUSH1 0x0 PUSH32 0xC5D2460186F7233C927E7DB2DCC703C0E500B653CA82273B7BFAD8045D85A470 PUSH1 0x0 SHL SWAP1 POP DUP4 EXTCODEHASH SWAP2 POP DUP1 DUP3 EQ ISZERO DUP1 ISZERO PUSH2 0x295C JUMPI POP PUSH1 0x0 DUP1 SHL DUP3 EQ ISZERO JUMPDEST SWAP3 POP POP POP SWAP2 SWAP1 POP JUMP JUMPDEST PUSH1 0x0 DUP2 CALLDATALOAD SWAP1 POP PUSH2 0x2974 DUP2 PUSH2 0x3AED JUMP JUMPDEST SWAP3 SWAP2 POP POP JUMP JUMPDEST PUSH1 0x0 DUP1 DUP4 PUSH1 0x1F DUP5 ADD SLT PUSH2 0x2990 JUMPI PUSH2 0x298F PUSH2 0x36AE JUMP JUMPDEST JUMPDEST DUP3 CALLDATALOAD SWAP1 POP PUSH8 0xFFFFFFFFFFFFFFFF DUP2 GT ISZERO PUSH2 0x29AD JUMPI PUSH2 0x29AC PUSH2 0x36A9 JUMP JUMPDEST JUMPDEST PUSH1 0x20 DUP4 ADD SWAP2 POP DUP4 PUSH1 0x20 DUP3 MUL DUP4 ADD GT ISZERO PUSH2 0x29C9 JUMPI PUSH2 0x29C8 PUSH2 0x36B3 JUMP JUMPDEST JUMPDEST SWAP3 POP SWAP3 SWAP1 POP JUMP JUMPDEST PUSH1 0x0 DUP2 MLOAD SWAP1 POP PUSH2 0x29DF DUP2 PUSH2 0x3B04 JUMP JUMPDEST SWAP3 SWAP2 POP POP JUMP JUMPDEST PUSH1 0x0 DUP2 CALLDATALOAD SWAP1 POP PUSH2 0x29F4 DUP2 PUSH2 0x3B1B JUMP JUMPDEST SWAP3 SWAP2 POP POP JUMP JUMPDEST PUSH1 0x0 DUP2 MLOAD SWAP1 POP PUSH2 0x2A09 DUP2 PUSH2 0x3B1B JUMP JUMPDEST SWAP3 SWAP2 POP POP JUMP JUMPDEST PUSH1 0x0 PUSH1 0x20 DUP3 DUP5 SUB SLT ISZERO PUSH2 0x2A25 JUMPI PUSH2 0x2A24 PUSH2 0x36C2 JUMP JUMPDEST JUMPDEST PUSH1 0x0 PUSH2 0x2A33 DUP5 DUP3 DUP6 ADD PUSH2 0x2965 JUMP JUMPDEST SWAP2 POP POP SWAP3 SWAP2 POP POP JUMP JUMPDEST PUSH1 0x0 DUP1 PUSH1 0x20 DUP4 DUP6 SUB SLT ISZERO PUSH2 0x2A53 JUMPI PUSH2 0x2A52 PUSH2 0x36C2 JUMP JUMPDEST JUMPDEST PUSH1 0x0 DUP4 ADD CALLDATALOAD PUSH8 0xFFFFFFFFFFFFFFFF DUP2 GT ISZERO PUSH2 0x2A71 JUMPI PUSH2 0x2A70 PUSH2 0x36B8 JUMP JUMPDEST JUMPDEST PUSH2 0x2A7D DUP6 DUP3 DUP7 ADD PUSH2 0x297A JUMP JUMPDEST SWAP3 POP SWAP3 POP POP SWAP3 POP SWAP3 SWAP1 POP JUMP JUMPDEST PUSH1 0x0 PUSH1 0x20 DUP3 DUP5 SUB SLT ISZERO PUSH2 0x2A9F JUMPI PUSH2 0x2A9E PUSH2 0x36C2 JUMP JUMPDEST JUMPDEST PUSH1 0x0 PUSH2 0x2AAD DUP5 DUP3 DUP6 ADD PUSH2 0x29D0 JUMP JUMPDEST SWAP2 POP POP SWAP3 SWAP2 POP POP JUMP JUMPDEST PUSH1 0x0 PUSH1 0x20 DUP3 DUP5 SUB SLT ISZERO PUSH2 0x2ACC JUMPI PUSH2 0x2ACB PUSH2 0x36C2 JUMP JUMPDEST JUMPDEST PUSH1 0x0 PUSH2 0x2ADA DUP5 DUP3 DUP6 ADD PUSH2 0x29E5 JUMP JUMPDEST SWAP2 POP POP SWAP3 SWAP2 POP POP JUMP JUMPDEST PUSH1 0x0 PUSH1 0x20 DUP3 DUP5 SUB SLT ISZERO PUSH2 0x2AF9 JUMPI PUSH2 0x2AF8 PUSH2 0x36C2 JUMP JUMPDEST JUMPDEST PUSH1 0x0 PUSH2 0x2B07 DUP5 DUP3 DUP6 ADD PUSH2 0x29FA JUMP JUMPDEST SWAP2 POP POP SWAP3 SWAP2 POP POP JUMP JUMPDEST PUSH1 0x0 DUP1 PUSH1 0x40 DUP4 DUP6 SUB SLT ISZERO PUSH2 0x2B27 JUMPI PUSH2 0x2B26 PUSH2 0x36C2 JUMP JUMPDEST JUMPDEST PUSH1 0x0 PUSH2 0x2B35 DUP6 DUP3 DUP7 ADD PUSH2 0x29E5 JUMP JUMPDEST SWAP3 POP POP PUSH1 0x20 PUSH2 0x2B46 DUP6 DUP3 DUP7 ADD PUSH2 0x29E5 JUMP JUMPDEST SWAP2 POP POP SWAP3 POP SWAP3 SWAP1 POP JUMP JUMPDEST PUSH1 0x0 DUP1 PUSH1 0x0 PUSH1 0x60 DUP5 DUP7 SUB SLT ISZERO PUSH2 0x2B69 JUMPI PUSH2 0x2B68 PUSH2 0x36C2 JUMP JUMPDEST JUMPDEST PUSH1 0x0 PUSH2 0x2B77 DUP7 DUP3 DUP8 ADD PUSH2 0x29E5 JUMP JUMPDEST SWAP4 POP POP PUSH1 0x20 PUSH2 0x2B88 DUP7 DUP3 DUP8 ADD PUSH2 0x29E5 JUMP JUMPDEST SWAP3 POP POP PUSH1 0x40 PUSH2 0x2B99 DUP7 DUP3 DUP8 ADD PUSH2 0x29E5 JUMP JUMPDEST SWAP2 POP POP SWAP3 POP SWAP3 POP SWAP3 JUMP JUMPDEST PUSH2 0x2BAC DUP2 PUSH2 0x34D2 JUMP JUMPDEST DUP3 MSTORE POP POP JUMP JUMPDEST PUSH1 0x0 PUSH2 0x2BBE DUP4 DUP6 PUSH2 0x3390 JUMP JUMPDEST SWAP4 POP PUSH32 0x7FFFFFFFFFFFFFFFFFFFFFFFFFFFFFFFFFFFFFFFFFFFFFFFFFFFFFFFFFFFFFF DUP4 GT ISZERO PUSH2 0x2BF1 JUMPI PUSH2 0x2BF0 PUSH2 0x36BD JUMP JUMPDEST JUMPDEST PUSH1 0x20 DUP4 MUL SWAP3 POP PUSH2 0x2C02 DUP4 DUP6 DUP5 PUSH2 0x3562 JUMP JUMPDEST DUP3 DUP5 ADD SWAP1 POP SWAP4 SWAP3 POP POP POP JUMP JUMPDEST PUSH1 0x0 PUSH2 0x2C19 DUP3 PUSH2 0x337A JUMP JUMPDEST PUSH2 0x2C23 DUP2 DUP6 PUSH2 0x33A1 JUMP JUMPDEST SWAP4 POP PUSH2 0x2C33 DUP2 DUP6 PUSH1 0x20 DUP7 ADD PUSH2 0x3571 JUMP JUMPDEST DUP1 DUP5 ADD SWAP2 POP POP SWAP3 SWAP2 POP POP JUMP JUMPDEST PUSH2 0x2C48 DUP2 PUSH2 0x351A JUMP JUMPDEST DUP3 MSTORE POP POP JUMP JUMPDEST PUSH2 0x2C57 DUP2 PUSH2 0x352C JUMP JUMPDEST DUP3 MSTORE POP POP JUMP JUMPDEST PUSH1 0x0 PUSH2 0x2C68 DUP3 PUSH2 0x3385 JUMP JUMPDEST PUSH2 0x2C72 DUP2 DUP6 PUSH2 0x33AC JUMP JUMPDEST SWAP4 POP PUSH2 0x2C82 DUP2 DUP6 PUSH1 0x20 DUP7 ADD PUSH2 0x3571 JUMP JUMPDEST PUSH2 0x2C8B DUP2 PUSH2 0x36C7 JUMP JUMPDEST DUP5 ADD SWAP2 POP POP SWAP3 SWAP2 POP POP JUMP JUMPDEST PUSH1 0x0 PUSH2 0x2CA3 PUSH1 0x1B DUP4 PUSH2 0x33AC JUMP JUMPDEST SWAP2 POP PUSH2 0x2CAE DUP3 PUSH2 0x36D8 JUMP JUMPDEST PUSH1 0x20 DUP3 ADD SWAP1 POP SWAP2 SWAP1 POP JUMP JUMPDEST PUSH1 0x0 PUSH2 0x2CC6 PUSH1 0x18 DUP4 PUSH2 0x33AC JUMP JUMPDEST SWAP2 POP PUSH2 0x2CD1 DUP3 PUSH2 0x3701 JUMP JUMPDEST PUSH1 0x20 DUP3 ADD SWAP1 POP SWAP2 SWAP1 POP JUMP JUMPDEST PUSH1 0x0 PUSH2 0x2CE9 PUSH1 0x1B DUP4 PUSH2 0x33AC JUMP JUMPDEST SWAP2 POP PUSH2 0x2CF4 DUP3 PUSH2 0x372A JUMP JUMPDEST PUSH1 0x20 DUP3 ADD SWAP1 POP SWAP2 SWAP1 POP JUMP JUMPDEST PUSH1 0x0 PUSH2 0x2D0C PUSH1 0x1E DUP4 PUSH2 0x33AC JUMP JUMPDEST SWAP2 POP PUSH2 0x2D17 DUP3 PUSH2 0x3753 JUMP JUMPDEST PUSH1 0x20 DUP3 ADD SWAP1 POP SWAP2 SWAP1 POP JUMP JUMPDEST PUSH1 0x0 PUSH2 0x2D2F PUSH1 0x2A DUP4 PUSH2 0x33AC JUMP JUMPDEST SWAP2 POP PUSH2 0x2D3A DUP3 PUSH2 0x377C JUMP JUMPDEST PUSH1 0x40 DUP3 ADD SWAP1 POP SWAP2 SWAP1 POP JUMP JUMPDEST PUSH1 0x0 PUSH2 0x2D52 PUSH1 0x26 DUP4 PUSH2 0x33AC JUMP JUMPDEST SWAP2 POP PUSH2 0x2D5D DUP3 PUSH2 0x37CB JUMP JUMPDEST PUSH1 0x40 DUP3 ADD SWAP1 POP SWAP2 SWAP1 POP JUMP JUMPDEST PUSH1 0x0 PUSH2 0x2D75 PUSH1 0x1E DUP4 PUSH2 0x33AC JUMP JUMPDEST SWAP2 POP PUSH2 0x2D80 DUP3 PUSH2 0x381A JUMP JUMPDEST PUSH1 0x20 DUP3 ADD SWAP1 POP SWAP2 SWAP1 POP JUMP JUMPDEST PUSH1 0x0 PUSH2 0x2D98 PUSH1 0x1B DUP4 PUSH2 0x33AC JUMP JUMPDEST SWAP2 POP PUSH2 0x2DA3 DUP3 PUSH2 0x3843 JUMP JUMPDEST PUSH1 0x20 DUP3 ADD SWAP1 POP SWAP2 SWAP1 POP JUMP JUMPDEST PUSH1 0x0 PUSH2 0x2DBB PUSH1 0x31 DUP4 PUSH2 0x33AC JUMP JUMPDEST SWAP2 POP PUSH2 0x2DC6 DUP3 PUSH2 0x386C JUMP JUMPDEST PUSH1 0x40 DUP3 ADD SWAP1 POP SWAP2 SWAP1 POP JUMP JUMPDEST PUSH1 0x0 PUSH2 0x2DDE PUSH1 0x22 DUP4 PUSH2 0x33AC JUMP JUMPDEST SWAP2 POP PUSH2 0x2DE9 DUP3 PUSH2 0x38BB JUMP JUMPDEST PUSH1 0x40 DUP3 ADD SWAP1 POP SWAP2 SWAP1 POP JUMP JUMPDEST PUSH1 0x0 PUSH2 0x2E01 PUSH1 0x1F DUP4 PUSH2 0x33AC JUMP JUMPDEST SWAP2 POP PUSH2 0x2E0C DUP3 PUSH2 0x390A JUMP JUMPDEST PUSH1 0x20 DUP3 ADD SWAP1 POP SWAP2 SWAP1 POP JUMP JUMPDEST PUSH1 0x0 PUSH2 0x2E24 PUSH1 0x18 DUP4 PUSH2 0x33AC JUMP JUMPDEST SWAP2 POP PUSH2 0x2E2F DUP3 PUSH2 0x3933 JUMP JUMPDEST PUSH1 0x20 DUP3 ADD SWAP1 POP SWAP2 SWAP1 POP JUMP JUMPDEST PUSH1 0x0 PUSH2 0x2E47 PUSH1 0x22 DUP4 PUSH2 0x33AC JUMP JUMPDEST SWAP2 POP PUSH2 0x2E52 DUP3 PUSH2 0x395C JUMP JUMPDEST PUSH1 0x40 DUP3 ADD SWAP1 POP SWAP2 SWAP1 POP JUMP JUMPDEST PUSH1 0x0 PUSH2 0x2E6A PUSH1 0x20 DUP4 PUSH2 0x33AC JUMP JUMPDEST SWAP2 POP PUSH2 0x2E75 DUP3 PUSH2 0x39AB JUMP JUMPDEST PUSH1 0x20 DUP3 ADD SWAP1 POP SWAP2 SWAP1 POP JUMP JUMPDEST PUSH1 0x0 PUSH2 0x2E8D PUSH1 0x1E DUP4 PUSH2 0x33AC JUMP JUMPDEST SWAP2 POP PUSH2 0x2E98 DUP3 PUSH2 0x39D4 JUMP JUMPDEST PUSH1 0x20 DUP3 ADD SWAP1 POP SWAP2 SWAP1 POP JUMP JUMPDEST PUSH1 0x0 PUSH2 0x2EB0 PUSH1 0x1F DUP4 PUSH2 0x33AC JUMP JUMPDEST SWAP2 POP PUSH2 0x2EBB DUP3 PUSH2 0x39FD JUMP JUMPDEST PUSH1 0x20 DUP3 ADD SWAP1 POP SWAP2 SWAP1 POP JUMP JUMPDEST PUSH1 0x0 PUSH2 0x2ED3 PUSH1 0x22 DUP4 PUSH2 0x33AC JUMP JUMPDEST SWAP2 POP PUSH2 0x2EDE DUP3 PUSH2 0x3A26 JUMP JUMPDEST PUSH1 0x40 DUP3 ADD SWAP1 POP SWAP2 SWAP1 POP JUMP JUMPDEST PUSH1 0x0 PUSH2 0x2EF6 PUSH1 0x1D DUP4 PUSH2 0x33AC JUMP JUMPDEST SWAP2 POP PUSH2 0x2F01 DUP3 PUSH2 0x3A75 JUMP JUMPDEST PUSH1 0x20 DUP3 ADD SWAP1 POP SWAP2 SWAP1 POP JUMP JUMPDEST PUSH1 0x0 PUSH2 0x2F19 PUSH1 0x39 DUP4 PUSH2 0x33AC JUMP JUMPDEST SWAP2 POP PUSH2 0x2F24 DUP3 PUSH2 0x3A9E JUMP JUMPDEST PUSH1 0x40 DUP3 ADD SWAP1 POP SWAP2 SWAP1 POP JUMP JUMPDEST PUSH2 0x2F38 DUP2 PUSH2 0x3510 JUMP JUMPDEST DUP3 MSTORE POP POP JUMP JUMPDEST PUSH1 0x0 PUSH2 0x2F4A DUP3 DUP5 PUSH2 0x2C0E JUMP JUMPDEST SWAP2 POP DUP2 SWAP1 POP SWAP3 SWAP2 POP POP JUMP JUMPDEST PUSH1 0x0 PUSH1 0x20 DUP3 ADD SWAP1 POP PUSH2 0x2F6A PUSH1 0x0 DUP4 ADD DUP5 PUSH2 0x2BA3 JUMP JUMPDEST SWAP3 SWAP2 POP POP JUMP JUMPDEST PUSH1 0x0 PUSH1 0x60 DUP3 ADD SWAP1 POP PUSH2 0x2F85 PUSH1 0x0 DUP4 ADD DUP7 PUSH2 0x2BA3 JUMP JUMPDEST PUSH2 0x2F92 PUSH1 0x20 DUP4 ADD DUP6 PUSH2 0x2BA3 JUMP JUMPDEST PUSH2 0x2F9F PUSH1 0x40 DUP4 ADD DUP5 PUSH2 0x2F2F JUMP JUMPDEST SWAP5 SWAP4 POP POP POP POP JUMP JUMPDEST PUSH1 0x0 PUSH1 0x40 DUP3 ADD SWAP1 POP PUSH2 0x2FBC PUSH1 0x0 DUP4 ADD DUP7 PUSH2 0x2BA3 JUMP JUMPDEST DUP2 DUP2 SUB PUSH1 0x20 DUP4 ADD MSTORE PUSH2 0x2FCF DUP2 DUP5 DUP7 PUSH2 0x2BB2 JUMP JUMPDEST SWAP1 POP SWAP5 SWAP4 POP POP POP POP JUMP JUMPDEST PUSH1 0x0 PUSH1 0x40 DUP3 ADD SWAP1 POP PUSH2 0x2FEE PUSH1 0x0 DUP4 ADD DUP6 PUSH2 0x2BA3 JUMP JUMPDEST PUSH2 0x2FFB PUSH1 0x20 DUP4 ADD DUP5 PUSH2 0x2F2F JUMP JUMPDEST SWAP4 SWAP3 POP POP POP JUMP JUMPDEST PUSH1 0x0 PUSH1 0x20 DUP3 ADD SWAP1 POP PUSH2 0x3017 PUSH1 0x0 DUP4 ADD DUP5 PUSH2 0x2C3F JUMP JUMPDEST SWAP3 SWAP2 POP POP JUMP JUMPDEST PUSH1 0x0 PUSH1 0x20 DUP3 ADD SWAP1 POP PUSH2 0x3032 PUSH1 0x0 DUP4 ADD DUP5 PUSH2 0x2C4E JUMP JUMPDEST SWAP3 SWAP2 POP POP JUMP JUMPDEST PUSH1 0x0 PUSH1 0x20 DUP3 ADD SWAP1 POP DUP2 DUP2 SUB PUSH1 0x0 DUP4 ADD MSTORE PUSH2 0x3052 DUP2 DUP5 PUSH2 0x2C5D JUMP JUMPDEST SWAP1 POP SWAP3 SWAP2 POP POP JUMP JUMPDEST PUSH1 0x0 PUSH1 0x20 DUP3 ADD SWAP1 POP DUP2 DUP2 SUB PUSH1 0x0 DUP4 ADD MSTORE PUSH2 0x3073 DUP2 PUSH2 0x2C96 JUMP JUMPDEST SWAP1 POP SWAP2 SWAP1 POP JUMP JUMPDEST PUSH1 0x0 PUSH1 0x20 DUP3 ADD SWAP1 POP DUP2 DUP2 SUB PUSH1 0x0 DUP4 ADD MSTORE PUSH2 0x3093 DUP2 PUSH2 0x2CB9 JUMP JUMPDEST SWAP1 POP SWAP2 SWAP1 POP JUMP JUMPDEST PUSH1 0x0 PUSH1 0x20 DUP3 ADD SWAP1 POP DUP2 DUP2 SUB PUSH1 0x0 DUP4 ADD MSTORE PUSH2 0x30B3 DUP2 PUSH2 0x2CDC JUMP JUMPDEST SWAP1 POP SWAP2 SWAP1 POP JUMP JUMPDEST PUSH1 0x0 PUSH1 0x20 DUP3 ADD SWAP1 POP DUP2 DUP2 SUB PUSH1 0x0 DUP4 ADD MSTORE PUSH2 0x30D3 DUP2 PUSH2 0x2CFF JUMP JUMPDEST SWAP1 POP SWAP2 SWAP1 POP JUMP JUMPDEST PUSH1 0x0 PUSH1 0x20 DUP3 ADD SWAP1 POP DUP2 DUP2 SUB PUSH1 0x0 DUP4 ADD MSTORE PUSH2 0x30F3 DUP2 PUSH2 0x2D22 JUMP JUMPDEST SWAP1 POP SWAP2 SWAP1 POP JUMP JUMPDEST PUSH1 0x0 PUSH1 0x20 DUP3 ADD SWAP1 POP DUP2 DUP2 SUB PUSH1 0x0 DUP4 ADD MSTORE PUSH2 0x3113 DUP2 PUSH2 0x2D45 JUMP JUMPDEST SWAP1 POP SWAP2 SWAP1 POP JUMP JUMPDEST PUSH1 0x0 PUSH1 0x20 DUP3 ADD SWAP1 POP DUP2 DUP2 SUB PUSH1 0x0 DUP4 ADD MSTORE PUSH2 0x3133 DUP2 PUSH2 0x2D68 JUMP JUMPDEST SWAP1 POP SWAP2 SWAP1 POP JUMP JUMPDEST PUSH1 0x0 PUSH1 0x20 DUP3 ADD SWAP1 POP DUP2 DUP2 SUB PUSH1 0x0 DUP4 ADD MSTORE PUSH2 0x3153 DUP2 PUSH2 0x2D8B JUMP JUMPDEST SWAP1 POP SWAP2 SWAP1 POP JUMP JUMPDEST PUSH1 0x0 PUSH1 0x20 DUP3 ADD SWAP1 POP DUP2 DUP2 SUB PUSH1 0x0 DUP4 ADD MSTORE PUSH2 0x3173 DUP2 PUSH2 0x2DAE JUMP JUMPDEST SWAP1 POP SWAP2 SWAP1 POP JUMP JUMPDEST PUSH1 0x0 PUSH1 0x20 DUP3 ADD SWAP1 POP DUP2 DUP2 SUB PUSH1 0x0 DUP4 ADD MSTORE PUSH2 0x3193 DUP2 PUSH2 0x2DD1 JUMP JUMPDEST SWAP1 POP SWAP2 SWAP1 POP JUMP JUMPDEST PUSH1 0x0 PUSH1 0x20 DUP3 ADD SWAP1 POP DUP2 DUP2 SUB PUSH1 0x0 DUP4 ADD MSTORE PUSH2 0x31B3 DUP2 PUSH2 0x2DF4 JUMP JUMPDEST SWAP1 POP SWAP2 SWAP1 POP JUMP JUMPDEST PUSH1 0x0 PUSH1 0x20 DUP3 ADD SWAP1 POP DUP2 DUP2 SUB PUSH1 0x0 DUP4 ADD MSTORE PUSH2 0x31D3 DUP2 PUSH2 0x2E17 JUMP JUMPDEST SWAP1 POP SWAP2 SWAP1 POP JUMP JUMPDEST PUSH1 0x0 PUSH1 0x20 DUP3 ADD SWAP1 POP DUP2 DUP2 SUB PUSH1 0x0 DUP4 ADD MSTORE PUSH2 0x31F3 DUP2 PUSH2 0x2E3A JUMP JUMPDEST SWAP1 POP SWAP2 SWAP1 POP JUMP JUMPDEST PUSH1 0x0 PUSH1 0x20 DUP3 ADD SWAP1 POP DUP2 DUP2 SUB PUSH1 0x0 DUP4 ADD MSTORE PUSH2 0x3213 DUP2 PUSH2 0x2E5D JUMP JUMPDEST SWAP1 POP SWAP2 SWAP1 POP JUMP JUMPDEST PUSH1 0x0 PUSH1 0x20 DUP3 ADD SWAP1 POP DUP2 DUP2 SUB PUSH1 0x0 DUP4 ADD MSTORE PUSH2 0x3233 DUP2 PUSH2 0x2E80 JUMP JUMPDEST SWAP1 POP SWAP2 SWAP1 POP JUMP JUMPDEST PUSH1 0x0 PUSH1 0x20 DUP3 ADD SWAP1 POP DUP2 DUP2 SUB PUSH1 0x0 DUP4 ADD MSTORE PUSH2 0x3253 DUP2 PUSH2 0x2EA3 JUMP JUMPDEST SWAP1 POP SWAP2 SWAP1 POP JUMP JUMPDEST PUSH1 0x0 PUSH1 0x20 DUP3 ADD SWAP1 POP DUP2 DUP2 SUB PUSH1 0x0 DUP4 ADD MSTORE PUSH2 0x3273 DUP2 PUSH2 0x2EC6 JUMP JUMPDEST SWAP1 POP SWAP2 SWAP1 POP JUMP JUMPDEST PUSH1 0x0 PUSH1 0x20 DUP3 ADD SWAP1 POP DUP2 DUP2 SUB PUSH1 0x0 DUP4 ADD MSTORE PUSH2 0x3293 DUP2 PUSH2 0x2EE9 JUMP JUMPDEST SWAP1 POP SWAP2 SWAP1 POP JUMP JUMPDEST PUSH1 0x0 PUSH1 0x20 DUP3 ADD SWAP1 POP DUP2 DUP2 SUB PUSH1 0x0 DUP4 ADD MSTORE PUSH2 0x32B3 DUP2 PUSH2 0x2F0C JUMP JUMPDEST SWAP1 POP SWAP2 SWAP1 POP JUMP JUMPDEST PUSH1 0x0 PUSH1 0x20 DUP3 ADD SWAP1 POP PUSH2 0x32CF PUSH1 0x0 DUP4 ADD DUP5 PUSH2 0x2F2F JUMP JUMPDEST SWAP3 SWAP2 POP POP JUMP JUMPDEST PUSH1 0x0 PUSH1 0x40 DUP3 ADD SWAP1 POP PUSH2 0x32EA PUSH1 0x0 DUP4 ADD DUP6 PUSH2 0x2F2F JUMP JUMPDEST PUSH2 0x32F7 PUSH1 0x20 DUP4 ADD DUP5 PUSH2 0x2F2F JUMP JUMPDEST SWAP4 SWAP3 POP POP POP JUMP JUMPDEST PUSH1 0x0 PUSH1 0x60 DUP3 ADD SWAP1 POP PUSH2 0x3313 PUSH1 0x0 DUP4 ADD DUP7 PUSH2 0x2F2F JUMP JUMPDEST PUSH2 0x3320 PUSH1 0x20 DUP4 ADD DUP6 PUSH2 0x2F2F JUMP JUMPDEST PUSH2 0x332D PUSH1 0x40 DUP4 ADD DUP5 PUSH2 0x2F2F JUMP JUMPDEST SWAP5 SWAP4 POP POP POP POP JUMP JUMPDEST PUSH1 0x0 PUSH1 0x80 DUP3 ADD SWAP1 POP PUSH2 0x334A PUSH1 0x0 DUP4 ADD DUP8 PUSH2 0x2F2F JUMP JUMPDEST PUSH2 0x3357 PUSH1 0x20 DUP4 ADD DUP7 PUSH2 0x2F2F JUMP JUMPDEST PUSH2 0x3364 PUSH1 0x40 DUP4 ADD DUP6 PUSH2 0x2F2F JUMP JUMPDEST PUSH2 0x3371 PUSH1 0x60 DUP4 ADD DUP5 PUSH2 0x2F2F JUMP JUMPDEST SWAP6 SWAP5 POP POP POP POP POP JUMP JUMPDEST PUSH1 0x0 DUP2 MLOAD SWAP1 POP SWAP2 SWAP1 POP JUMP JUMPDEST PUSH1 0x0 DUP2 MLOAD SWAP1 POP SWAP2 SWAP1 POP JUMP JUMPDEST PUSH1 0x0 DUP3 DUP3 MSTORE PUSH1 0x20 DUP3 ADD SWAP1 POP SWAP3 SWAP2 POP POP JUMP JUMPDEST PUSH1 0x0 DUP2 SWAP1 POP SWAP3 SWAP2 POP POP JUMP JUMPDEST PUSH1 0x0 DUP3 DUP3 MSTORE PUSH1 0x20 DUP3 ADD SWAP1 POP SWAP3 SWAP2 POP POP JUMP JUMPDEST PUSH1 0x0 PUSH2 0x33C8 DUP3 PUSH2 0x3510 JUMP JUMPDEST SWAP2 POP PUSH2 0x33D3 DUP4 PUSH2 0x3510 JUMP JUMPDEST SWAP3 POP DUP3 PUSH32 0xFFFFFFFFFFFFFFFFFFFFFFFFFFFFFFFFFFFFFFFFFFFFFFFFFFFFFFFFFFFFFFFF SUB DUP3 GT ISZERO PUSH2 0x3408 JUMPI PUSH2 0x3407 PUSH2 0x35ED JUMP JUMPDEST JUMPDEST DUP3 DUP3 ADD SWAP1 POP SWAP3 SWAP2 POP POP JUMP JUMPDEST PUSH1 0x0 PUSH2 0x341E DUP3 PUSH2 0x3510 JUMP JUMPDEST SWAP2 POP PUSH2 0x3429 DUP4 PUSH2 0x3510 JUMP JUMPDEST SWAP3 POP DUP3 PUSH2 0x3439 JUMPI PUSH2 0x3438 PUSH2 0x361C JUMP JUMPDEST JUMPDEST DUP3 DUP3 DIV SWAP1 POP SWAP3 SWAP2 POP POP JUMP JUMPDEST PUSH1 0x0 PUSH2 0x344F DUP3 PUSH2 0x3510 JUMP JUMPDEST SWAP2 POP PUSH2 0x345A DUP4 PUSH2 0x3510 JUMP JUMPDEST SWAP3 POP DUP2 PUSH32 0xFFFFFFFFFFFFFFFFFFFFFFFFFFFFFFFFFFFFFFFFFFFFFFFFFFFFFFFFFFFFFFFF DIV DUP4 GT DUP3 ISZERO ISZERO AND ISZERO PUSH2 0x3493 JUMPI PUSH2 0x3492 PUSH2 0x35ED JUMP JUMPDEST JUMPDEST DUP3 DUP3 MUL SWAP1 POP SWAP3 SWAP2 POP POP JUMP JUMPDEST PUSH1 0x0 PUSH2 0x34A9 DUP3 PUSH2 0x3510 JUMP JUMPDEST SWAP2 POP PUSH2 0x34B4 DUP4 PUSH2 0x3510 JUMP JUMPDEST SWAP3 POP DUP3 DUP3 LT ISZERO PUSH2 0x34C7 JUMPI PUSH2 0x34C6 PUSH2 0x35ED JUMP JUMPDEST JUMPDEST DUP3 DUP3 SUB SWAP1 POP SWAP3 SWAP2 POP POP JUMP JUMPDEST PUSH1 0x0 PUSH2 0x34DD DUP3 PUSH2 0x34F0 JUMP JUMPDEST SWAP1 POP SWAP2 SWAP1 POP JUMP JUMPDEST PUSH1 0x0 DUP2 ISZERO ISZERO SWAP1 POP SWAP2 SWAP1 POP JUMP JUMPDEST PUSH1 0x0 PUSH20 0xFFFFFFFFFFFFFFFFFFFFFFFFFFFFFFFFFFFFFFFF DUP3 AND SWAP1 POP SWAP2 SWAP1 POP JUMP JUMPDEST PUSH1 0x0 DUP2 SWAP1 POP SWAP2 SWAP1 POP JUMP JUMPDEST PUSH1 0x0 PUSH2 0x3525 DUP3 PUSH2 0x353E JUMP JUMPDEST SWAP1 POP SWAP2 SWAP1 POP JUMP JUMPDEST PUSH1 0x0 PUSH2 0x3537 DUP3 PUSH2 0x353E JUMP JUMPDEST SWAP1 POP SWAP2 SWAP1 POP JUMP JUMPDEST PUSH1 0x0 PUSH2 0x3549 DUP3 PUSH2 0x3550 JUMP JUMPDEST SWAP1 POP SWAP2 SWAP1 POP JUMP JUMPDEST PUSH1 0x0 PUSH2 0x355B DUP3 PUSH2 0x34F0 JUMP JUMPDEST SWAP1 POP SWAP2 SWAP1 POP JUMP JUMPDEST DUP3 DUP2 DUP4 CALLDATACOPY PUSH1 0x0 DUP4 DUP4 ADD MSTORE POP POP POP JUMP JUMPDEST PUSH1 0x0 JUMPDEST DUP4 DUP2 LT ISZERO PUSH2 0x358F JUMPI DUP1 DUP3 ADD MLOAD DUP2 DUP5 ADD MSTORE PUSH1 0x20 DUP2 ADD SWAP1 POP PUSH2 0x3574 JUMP JUMPDEST DUP4 DUP2 GT ISZERO PUSH2 0x359E JUMPI PUSH1 0x0 DUP5 DUP5 ADD MSTORE JUMPDEST POP POP POP POP JUMP JUMPDEST PUSH1 0x0 PUSH2 0x35AF DUP3 PUSH2 0x3510 JUMP JUMPDEST SWAP2 POP PUSH32 0xFFFFFFFFFFFFFFFFFFFFFFFFFFFFFFFFFFFFFFFFFFFFFFFFFFFFFFFFFFFFFFFF DUP3 EQ ISZERO PUSH2 0x35E2 JUMPI PUSH2 0x35E1 PUSH2 0x35ED JUMP JUMPDEST JUMPDEST PUSH1 0x1 DUP3 ADD SWAP1 POP SWAP2 SWAP1 POP JUMP JUMPDEST PUSH32 0x4E487B7100000000000000000000000000000000000000000000000000000000 PUSH1 0x0 MSTORE PUSH1 0x11 PUSH1 0x4 MSTORE PUSH1 0x24 PUSH1 0x0 REVERT JUMPDEST PUSH32 0x4E487B7100000000000000000000000000000000000000000000000000000000 PUSH1 0x0 MSTORE PUSH1 0x12 PUSH1 0x4 MSTORE PUSH1 0x24 PUSH1 0x0 REVERT JUMPDEST PUSH32 0x4E487B7100000000000000000000000000000000000000000000000000000000 PUSH1 0x0 MSTORE PUSH1 0x31 PUSH1 0x4 MSTORE PUSH1 0x24 PUSH1 0x0 REVERT JUMPDEST PUSH32 0x4E487B7100000000000000000000000000000000000000000000000000000000 PUSH1 0x0 MSTORE PUSH1 0x32 PUSH1 0x4 MSTORE PUSH1 0x24 PUSH1 0x0 REVERT JUMPDEST PUSH1 0x0 DUP1 REVERT JUMPDEST PUSH1 0x0 DUP1 REVERT JUMPDEST PUSH1 0x0 DUP1 REVERT JUMPDEST PUSH1 0x0 DUP1 REVERT JUMPDEST PUSH1 0x0 DUP1 REVERT JUMPDEST PUSH1 0x0 DUP1 REVERT JUMPDEST PUSH1 0x0 PUSH1 0x1F NOT PUSH1 0x1F DUP4 ADD AND SWAP1 POP SWAP2 SWAP1 POP JUMP JUMPDEST PUSH32 0x616464556E5374616B654665653A206D696E4461797320697320300000000000 PUSH1 0x0 DUP3 ADD MSTORE POP JUMP JUMPDEST PUSH32 0x4E4654205374616B696E673A20456D7074792041727261790000000000000000 PUSH1 0x0 DUP3 ADD MSTORE POP JUMP JUMPDEST PUSH32 0x736574556E5374616B654665653A206D696E4461797320697320300000000000 PUSH1 0x0 DUP3 ADD MSTORE POP JUMP JUMPDEST PUSH32 0x616464556E5374616B654665653A2066656550657263656E74203E2034300000 PUSH1 0x0 DUP3 ADD MSTORE POP JUMP JUMPDEST PUSH32 0x5361666542455032303A204245503230206F7065726174696F6E20646964206E PUSH1 0x0 DUP3 ADD MSTORE PUSH32 0x6F74207375636365656400000000000000000000000000000000000000000000 PUSH1 0x20 DUP3 ADD MSTORE POP JUMP JUMPDEST PUSH32 0x4F776E61626C653A206E6577206F776E657220697320746865207A65726F2061 PUSH1 0x0 DUP3 ADD MSTORE PUSH32 0x6464726573730000000000000000000000000000000000000000000000000000 PUSH1 0x20 DUP3 ADD MSTORE POP JUMP JUMPDEST PUSH32 0x736574556E5374616B654665653A2066656550657263656E74203E2034300000 PUSH1 0x0 DUP3 ADD MSTORE POP JUMP JUMPDEST PUSH32 0x72656D6F7665556E5374616B654665653A2072616E6765206F75740000000000 PUSH1 0x0 DUP3 ADD MSTORE POP JUMP JUMPDEST PUSH32 0x4E4654205374616B696E673A206475706C696361746520746F6B656E20696473 PUSH1 0x0 DUP3 ADD MSTORE PUSH32 0x20696E20696E70757420706172616D732E000000000000000000000000000000 PUSH1 0x20 DUP3 ADD MSTORE POP JUMP JUMPDEST PUSH32 0x4E4654205374616B696E673A20746F6B656E20616C7265616479207374616B65 PUSH1 0x0 DUP3 ADD MSTORE PUSH32 0x642E000000000000000000000000000000000000000000000000000000000000 PUSH1 0x20 DUP3 ADD MSTORE POP JUMP JUMPDEST PUSH32 0x736574556E5374616B654665653A206D696E44617973206973206572726F7200 PUSH1 0x0 DUP3 ADD MSTORE POP JUMP JUMPDEST PUSH32 0x736574556E5374616B654665653A2072616E6765206F75740000000000000000 PUSH1 0x0 DUP3 ADD MSTORE POP JUMP JUMPDEST PUSH32 0x616464556E5374616B654665653A2066656550657263656E7420697320657272 PUSH1 0x0 DUP3 ADD MSTORE PUSH32 0x6F72000000000000000000000000000000000000000000000000000000000000 PUSH1 0x20 DUP3 ADD MSTORE POP JUMP JUMPDEST PUSH32 0x4F776E61626C653A2063616C6C6572206973206E6F7420746865206F776E6572 PUSH1 0x0 DUP3 ADD MSTORE POP JUMP JUMPDEST PUSH32 0x736574486172766573744665653A2066656550657263656E74203E2034300000 PUSH1 0x0 DUP3 ADD MSTORE POP JUMP JUMPDEST PUSH32 0x616464556E5374616B654665653A206D696E44617973206973206572726F7200 PUSH1 0x0 DUP3 ADD MSTORE POP JUMP JUMPDEST PUSH32 0x736574556E5374616B654665653A2066656550657263656E7420697320657272 PUSH1 0x0 DUP3 ADD MSTORE PUSH32 0x6F72000000000000000000000000000000000000000000000000000000000000 PUSH1 0x20 DUP3 ADD MSTORE POP JUMP JUMPDEST PUSH32 0x416464726573733A2063616C6C20746F206E6F6E2D636F6E7472616374000000 PUSH1 0x0 DUP3 ADD MSTORE POP JUMP JUMPDEST PUSH32 0x4E667420556E7374616B696E673A20746F6B656E206E6F74207374616B656420 PUSH1 0x0 DUP3 ADD MSTORE PUSH32 0x6F7220696E636F727265637420746F6B656E206F776E65722E00000000000000 PUSH1 0x20 DUP3 ADD MSTORE POP JUMP JUMPDEST PUSH2 0x3AF6 DUP2 PUSH2 0x34D2 JUMP JUMPDEST DUP2 EQ PUSH2 0x3B01 JUMPI PUSH1 0x0 DUP1 REVERT JUMPDEST POP JUMP JUMPDEST PUSH2 0x3B0D DUP2 PUSH2 0x34E4 JUMP JUMPDEST DUP2 EQ PUSH2 0x3B18 JUMPI PUSH1 0x0 DUP1 REVERT JUMPDEST POP JUMP JUMPDEST PUSH2 0x3B24 DUP2 PUSH2 0x3510 JUMP JUMPDEST DUP2 EQ PUSH2 0x3B2F JUMPI PUSH1 0x0 DUP1 REVERT JUMPDEST POP JUMP INVALID LOG2 PUSH5 0x6970667358 0x22 SLT KECCAK256 PUSH20 0x842539DDE00E564B400332C32B278A5CF010CB0E CODESIZE SWAP3 SWAP15 0x4A CALLER SSTORE 0xE6 0xAB SWAP16 0x4D SWAP4 PUSH5 0x736F6C6343 STOP ADDMOD SMOD STOP CALLER "
				},
				"gasEstimates": {
					"creation": {
						"codeDepositCost": "3041600",
						"executionCost": "infinite",
						"totalCost": "infinite"
					},
					"external": {
						"accGHSPPerShare()": "2474",
						"addUnStakeFee(uint256,uint256)": "infinite",
						"depositReward(uint256)": "infinite",
						"feeWallet()": "2624",
						"getMultiplier(uint256,uint256)": "infinite",
						"getRewardBalance()": "infinite",
						"ghspToken()": "infinite",
						"harvest()": "infinite",
						"harvestFee()": "2473",
						"lastRewardBlock()": "2451",
						"nftToken()": "infinite",
						"owner()": "2589",
						"removeUnStakeFee(uint256)": "infinite",
						"renounceOwnership()": "30507",
						"rewardPerBlock()": "2474",
						"setFeeWallet(address)": "30370",
						"setHarvestFee(uint256)": "infinite",
						"setUnStakeFee(uint256,uint256,uint256)": "infinite",
						"stake(uint256[])": "infinite",
						"totalStakedAmount()": "2518",
						"transferOwnership(address)": "30855",
						"unStakeFees(uint256)": "infinite",
						"unstake(uint256[])": "infinite",
						"userInfo(address)": "infinite"
					},
					"internal": {
						"_getPending(address)": "infinite",
						"init()": "infinite",
						"updateStatus()": "infinite"
					}
				},
				"methodIdentifiers": {
					"accGHSPPerShare()": "43db3c5f",
					"addUnStakeFee(uint256,uint256)": "294d4e4a",
					"depositReward(uint256)": "1e2720ff",
					"feeWallet()": "f25f4b56",
					"getMultiplier(uint256,uint256)": "8dbb1e3a",
					"getRewardBalance()": "5e42b455",
					"ghspToken()": "19fca9f6",
					"harvest()": "4641257d",
					"harvestFee()": "b5962917",
					"lastRewardBlock()": "a9f8d181",
					"nftToken()": "d06fcba8",
					"owner()": "8da5cb5b",
					"removeUnStakeFee(uint256)": "9ca62a69",
					"renounceOwnership()": "715018a6",
					"rewardPerBlock()": "8ae39cac",
					"setFeeWallet(address)": "90d49b9d",
					"setHarvestFee(uint256)": "792b55b6",
					"setUnStakeFee(uint256,uint256,uint256)": "10c77237",
					"stake(uint256[])": "0fbf0a93",
					"totalStakedAmount()": "567e98f9",
					"transferOwnership(address)": "f2fde38b",
					"unStakeFees(uint256)": "1c3e2e7a",
					"unstake(uint256[])": "e449f341",
					"userInfo(address)": "1959a002"
				}
			},
			"userdoc": {
				"kind": "user",
				"methods": {},
				"version": 1
			}
		}
	}
}