{
	"GHSP.sol": {
		"GHOSPTokenWhitelisted": {
			"abi": [
				{
					"inputs": [],
					"stateMutability": "nonpayable",
					"type": "constructor"
				},
				{
					"anonymous": false,
					"inputs": [
						{
							"indexed": true,
							"internalType": "address",
							"name": "owner",
							"type": "address"
						},
						{
							"indexed": true,
							"internalType": "address",
							"name": "spender",
							"type": "address"
						},
						{
							"indexed": false,
							"internalType": "uint256",
							"name": "value",
							"type": "uint256"
						}
					],
					"name": "Approval",
					"type": "event"
				},
				{
					"anonymous": false,
					"inputs": [
						{
							"indexed": true,
							"internalType": "address",
							"name": "previousOwner",
							"type": "address"
						},
						{
							"indexed": true,
							"internalType": "address",
							"name": "newOwner",
							"type": "address"
						}
					],
					"name": "OwnershipTransferred",
					"type": "event"
				},
				{
					"anonymous": false,
					"inputs": [
						{
							"indexed": true,
							"internalType": "address",
							"name": "from",
							"type": "address"
						},
						{
							"indexed": true,
							"internalType": "address",
							"name": "to",
							"type": "address"
						},
						{
							"indexed": false,
							"internalType": "uint256",
							"name": "value",
							"type": "uint256"
						}
					],
					"name": "Transfer",
					"type": "event"
				},
				{
					"anonymous": false,
					"inputs": [
						{
							"indexed": true,
							"internalType": "address",
							"name": "previousWhitelister",
							"type": "address"
						},
						{
							"indexed": true,
							"internalType": "address",
							"name": "newWhitelister",
							"type": "address"
						}
					],
					"name": "WhitelisterTransferred",
					"type": "event"
				},
				{
					"inputs": [],
					"name": "_lgePairAddress",
					"outputs": [
						{
							"internalType": "address",
							"name": "",
							"type": "address"
						}
					],
					"stateMutability": "view",
					"type": "function"
				},
				{
					"inputs": [],
					"name": "_lgeTimestamp",
					"outputs": [
						{
							"internalType": "uint256",
							"name": "",
							"type": "uint256"
						}
					],
					"stateMutability": "view",
					"type": "function"
				},
				{
					"inputs": [
						{
							"internalType": "uint256",
							"name": "",
							"type": "uint256"
						}
					],
					"name": "_lgeWhitelistRounds",
					"outputs": [
						{
							"internalType": "uint256",
							"name": "duration",
							"type": "uint256"
						},
						{
							"internalType": "uint256",
							"name": "amountMax",
							"type": "uint256"
						}
					],
					"stateMutability": "view",
					"type": "function"
				},
				{
					"inputs": [],
					"name": "_whitelister",
					"outputs": [
						{
							"internalType": "address",
							"name": "",
							"type": "address"
						}
					],
					"stateMutability": "view",
					"type": "function"
				},
				{
					"inputs": [
						{
							"internalType": "address",
							"name": "owner",
							"type": "address"
						},
						{
							"internalType": "address",
							"name": "spender",
							"type": "address"
						}
					],
					"name": "allowance",
					"outputs": [
						{
							"internalType": "uint256",
							"name": "",
							"type": "uint256"
						}
					],
					"stateMutability": "view",
					"type": "function"
				},
				{
					"inputs": [
						{
							"internalType": "address",
							"name": "spender",
							"type": "address"
						},
						{
							"internalType": "uint256",
							"name": "amount",
							"type": "uint256"
						}
					],
					"name": "approve",
					"outputs": [
						{
							"internalType": "bool",
							"name": "",
							"type": "bool"
						}
					],
					"stateMutability": "nonpayable",
					"type": "function"
				},
				{
					"inputs": [
						{
							"internalType": "address",
							"name": "account",
							"type": "address"
						}
					],
					"name": "balanceOf",
					"outputs": [
						{
							"internalType": "uint256",
							"name": "",
							"type": "uint256"
						}
					],
					"stateMutability": "view",
					"type": "function"
				},
				{
					"inputs": [
						{
							"internalType": "address",
							"name": "pairAddress",
							"type": "address"
						},
						{
							"internalType": "uint256[]",
							"name": "durations",
							"type": "uint256[]"
						},
						{
							"internalType": "uint256[]",
							"name": "amountsMax",
							"type": "uint256[]"
						}
					],
					"name": "createLGEWhitelist",
					"outputs": [],
					"stateMutability": "nonpayable",
					"type": "function"
				},
				{
					"inputs": [],
					"name": "decimals",
					"outputs": [
						{
							"internalType": "uint8",
							"name": "",
							"type": "uint8"
						}
					],
					"stateMutability": "view",
					"type": "function"
				},
				{
					"inputs": [
						{
							"internalType": "address",
							"name": "spender",
							"type": "address"
						},
						{
							"internalType": "uint256",
							"name": "subtractedValue",
							"type": "uint256"
						}
					],
					"name": "decreaseAllowance",
					"outputs": [
						{
							"internalType": "bool",
							"name": "",
							"type": "bool"
						}
					],
					"stateMutability": "nonpayable",
					"type": "function"
				},
				{
					"inputs": [],
					"name": "getLGEWhitelistRound",
					"outputs": [
						{
							"internalType": "uint256",
							"name": "",
							"type": "uint256"
						},
						{
							"internalType": "uint256",
							"name": "",
							"type": "uint256"
						},
						{
							"internalType": "uint256",
							"name": "",
							"type": "uint256"
						},
						{
							"internalType": "uint256",
							"name": "",
							"type": "uint256"
						},
						{
							"internalType": "bool",
							"name": "",
							"type": "bool"
						},
						{
							"internalType": "uint256",
							"name": "",
							"type": "uint256"
						}
					],
					"stateMutability": "view",
					"type": "function"
				},
				{
					"inputs": [],
					"name": "getOwner",
					"outputs": [
						{
							"internalType": "address",
							"name": "",
							"type": "address"
						}
					],
					"stateMutability": "view",
					"type": "function"
				},
				{
					"inputs": [
						{
							"internalType": "address",
							"name": "spender",
							"type": "address"
						},
						{
							"internalType": "uint256",
							"name": "addedValue",
							"type": "uint256"
						}
					],
					"name": "increaseAllowance",
					"outputs": [
						{
							"internalType": "bool",
							"name": "",
							"type": "bool"
						}
					],
					"stateMutability": "nonpayable",
					"type": "function"
				},
				{
					"inputs": [
						{
							"internalType": "uint256",
							"name": "index",
							"type": "uint256"
						},
						{
							"internalType": "uint256",
							"name": "duration",
							"type": "uint256"
						},
						{
							"internalType": "uint256",
							"name": "amountMax",
							"type": "uint256"
						},
						{
							"internalType": "address[]",
							"name": "addresses",
							"type": "address[]"
						},
						{
							"internalType": "bool",
							"name": "enabled",
							"type": "bool"
						}
					],
					"name": "modifyLGEWhitelist",
					"outputs": [],
					"stateMutability": "nonpayable",
					"type": "function"
				},
				{
					"inputs": [],
					"name": "name",
					"outputs": [
						{
							"internalType": "string",
							"name": "",
							"type": "string"
						}
					],
					"stateMutability": "view",
					"type": "function"
				},
				{
					"inputs": [],
					"name": "owner",
					"outputs": [
						{
							"internalType": "address",
							"name": "",
							"type": "address"
						}
					],
					"stateMutability": "view",
					"type": "function"
				},
				{
					"inputs": [],
					"name": "renounceOwnership",
					"outputs": [],
					"stateMutability": "nonpayable",
					"type": "function"
				},
				{
					"inputs": [],
					"name": "renounceWhitelister",
					"outputs": [],
					"stateMutability": "nonpayable",
					"type": "function"
				},
				{
					"inputs": [],
					"name": "symbol",
					"outputs": [
						{
							"internalType": "string",
							"name": "",
							"type": "string"
						}
					],
					"stateMutability": "view",
					"type": "function"
				},
				{
					"inputs": [],
					"name": "totalSupply",
					"outputs": [
						{
							"internalType": "uint256",
							"name": "",
							"type": "uint256"
						}
					],
					"stateMutability": "view",
					"type": "function"
				},
				{
					"inputs": [
						{
							"internalType": "address",
							"name": "recipient",
							"type": "address"
						},
						{
							"internalType": "uint256",
							"name": "amount",
							"type": "uint256"
						}
					],
					"name": "transfer",
					"outputs": [
						{
							"internalType": "bool",
							"name": "",
							"type": "bool"
						}
					],
					"stateMutability": "nonpayable",
					"type": "function"
				},
				{
					"inputs": [
						{
							"internalType": "address",
							"name": "sender",
							"type": "address"
						},
						{
							"internalType": "address",
							"name": "recipient",
							"type": "address"
						},
						{
							"internalType": "uint256",
							"name": "amount",
							"type": "uint256"
						}
					],
					"name": "transferFrom",
					"outputs": [
						{
							"internalType": "bool",
							"name": "",
							"type": "bool"
						}
					],
					"stateMutability": "nonpayable",
					"type": "function"
				},
				{
					"inputs": [
						{
							"internalType": "address",
							"name": "newOwner",
							"type": "address"
						}
					],
					"name": "transferOwnership",
					"outputs": [],
					"stateMutability": "nonpayable",
					"type": "function"
				},
				{
					"inputs": [
						{
							"internalType": "address",
							"name": "newWhitelister",
							"type": "address"
						}
					],
					"name": "transferWhitelister",
					"outputs": [],
					"stateMutability": "nonpayable",
					"type": "function"
				}
			],
			"devdoc": {
				"kind": "dev",
				"methods": {
					"allowance(address,address)": {
						"details": "See {GHOSP-allowance}."
					},
					"approve(address,uint256)": {
						"details": "See {GHOSP-approve}. Requirements: - `spender` cannot be the zero address."
					},
					"balanceOf(address)": {
						"details": "See {GHOSP-balanceOf}."
					},
					"decimals()": {
						"details": "Returns the token decimals."
					},
					"decreaseAllowance(address,uint256)": {
						"details": "Atomically decreases the allowance granted to `spender` by the caller. This is an alternative to {approve} that can be used as a mitigation for problems described in {GHOSP-approve}. Emits an {Approval} event indicating the updated allowance. Requirements: - `spender` cannot be the zero address. - `spender` must have allowance for the caller of at least `subtractedValue`."
					},
					"getOwner()": {
						"details": "Returns the bep token owner."
					},
					"increaseAllowance(address,uint256)": {
						"details": "Atomically increases the allowance granted to `spender` by the caller. This is an alternative to {approve} that can be used as a mitigation for problems described in {GHOSP-approve}. Emits an {Approval} event indicating the updated allowance. Requirements: - `spender` cannot be the zero address."
					},
					"name()": {
						"details": "Returns the token name."
					},
					"owner()": {
						"details": "Returns the address of the current owner."
					},
					"renounceOwnership()": {
						"details": "Leaves the contract without owner. It will not be possible to call `onlyOwner` functions anymore. Can only be called by the current owner. NOTE: Renouncing ownership will leave the contract without an owner, thereby removing any functionality that is only available to the owner."
					},
					"symbol()": {
						"details": "Returns the token symbol."
					},
					"totalSupply()": {
						"details": "See {GHOSP-totalSupply}."
					},
					"transfer(address,uint256)": {
						"details": "See {GHOSP-transfer}. Requirements: - `recipient` cannot be the zero address. - the caller must have a balance of at least `amount`."
					},
					"transferFrom(address,address,uint256)": {
						"details": "See {GHOSP-transferFrom}. Emits an {Approval} event indicating the updated allowance. This is not required by the EIP. See the note at the beginning of {GHOSP}; Requirements: - `sender` and `recipient` cannot be the zero address. - `sender` must have a balance of at least `amount`. - the caller must have allowance for `sender`'s tokens of at least `amount`."
					},
					"transferOwnership(address)": {
						"details": "Transfers ownership of the contract to a new account (`newOwner`). Can only be called by the current owner."
					}
				},
				"version": 1
			},
			"evm": {
				"assembly": "    /* \"GHSP.sol\":17034:23348  contract GHOSPTokenWhitelisted is Context, IBEP20, Ownable, LGEWhitelisted {... */\n  mstore(0x40, 0x80)\n    /* \"GHSP.sol\":17416:17669  constructor() {... */\n  callvalue\n  dup1\n  iszero\n  tag_1\n  jumpi\n  0x00\n  dup1\n  revert\ntag_1:\n  pop\n    /* \"GHSP.sol\":4804:4821  address msgSender */\n  0x00\n    /* \"GHSP.sol\":4824:4836  _msgSender() */\n  tag_6\n    /* \"GHSP.sol\":4824:4834  _msgSender */\n  shl(0x20, tag_7)\n    /* \"GHSP.sol\":4824:4836  _msgSender() */\n  0x20\n  shr\n  jump\t// in\ntag_6:\n    /* \"GHSP.sol\":4804:4836  address msgSender = _msgSender() */\n  swap1\n  pop\n    /* \"GHSP.sol\":4855:4864  msgSender */\n  dup1\n    /* \"GHSP.sol\":4846:4852  _owner */\n  0x00\n  dup1\n    /* \"GHSP.sol\":4846:4864  _owner = msgSender */\n  0x0100\n  exp\n  dup2\n  sload\n  dup2\n  0xffffffffffffffffffffffffffffffffffffffff\n  mul\n  not\n  and\n  swap1\n  dup4\n  0xffffffffffffffffffffffffffffffffffffffff\n  and\n  mul\n  or\n  swap1\n  sstore\n  pop\n    /* \"GHSP.sol\":4912:4921  msgSender */\n  dup1\n    /* \"GHSP.sol\":4879:4922  OwnershipTransferred(address(0), msgSender) */\n  0xffffffffffffffffffffffffffffffffffffffff\n  and\n    /* \"GHSP.sol\":4908:4909  0 */\n  0x00\n    /* \"GHSP.sol\":4879:4922  OwnershipTransferred(address(0), msgSender) */\n  0xffffffffffffffffffffffffffffffffffffffff\n  and\n  0x8be0079c531659141344cd1fd0a4f28419497f9722a3daafe3b4186f6b6457e0\n  mload(0x40)\n  mload(0x40)\n  dup1\n  swap2\n  sub\n  swap1\n  log3\n    /* \"GHSP.sol\":4794:4929  {... */\n  pop\n    /* \"GHSP.sol\":11554:11566  _msgSender() */\n  tag_9\n    /* \"GHSP.sol\":11554:11564  _msgSender */\n  shl(0x20, tag_7)\n    /* \"GHSP.sol\":11554:11566  _msgSender() */\n  0x20\n  shr\n  jump\t// in\ntag_9:\n    /* \"GHSP.sol\":11539:11551  _whitelister */\n  0x04\n  0x00\n    /* \"GHSP.sol\":11539:11566  _whitelister = _msgSender() */\n  0x0100\n  exp\n  dup2\n  sload\n  dup2\n  0xffffffffffffffffffffffffffffffffffffffff\n  mul\n  not\n  and\n  swap1\n  dup4\n  0xffffffffffffffffffffffffffffffffffffffff\n  and\n  mul\n  or\n  swap1\n  sstore\n  pop\n    /* \"GHSP.sol\":17440:17455  _name = \"GHOSP\" */\n  mload(0x40)\n  dup1\n  0x40\n  add\n  0x40\n  mstore\n  dup1\n  0x05\n  dup2\n  mstore\n  0x20\n  add\n  0x47484f5350000000000000000000000000000000000000000000000000000000\n  dup2\n  mstore\n  pop\n    /* \"GHSP.sol\":17440:17445  _name */\n  0x0a\n    /* \"GHSP.sol\":17440:17455  _name = \"GHOSP\" */\n  swap1\n  dup1\n  mload\n  swap1\n  0x20\n  add\n  swap1\n  tag_11\n  swap3\n  swap2\n  swap1\n  tag_12\n  jump\t// in\ntag_11:\n  pop\n    /* \"GHSP.sol\":17465:17481  _symbol = \"GHSP\" */\n  mload(0x40)\n  dup1\n  0x40\n  add\n  0x40\n  mstore\n  dup1\n  0x04\n  dup2\n  mstore\n  0x20\n  add\n  0x4748535000000000000000000000000000000000000000000000000000000000\n  dup2\n  mstore\n  pop\n    /* \"GHSP.sol\":17465:17472  _symbol */\n  0x09\n    /* \"GHSP.sol\":17465:17481  _symbol = \"GHSP\" */\n  swap1\n  dup1\n  mload\n  swap1\n  0x20\n  add\n  swap1\n  tag_13\n  swap3\n  swap2\n  swap1\n  tag_12\n  jump\t// in\ntag_13:\n  pop\n    /* \"GHSP.sol\":17503:17505  18 */\n  0x12\n    /* \"GHSP.sol\":17491:17500  _decimals */\n  0x08\n  0x00\n    /* \"GHSP.sol\":17491:17505  _decimals = 18 */\n  0x0100\n  exp\n  dup2\n  sload\n  dup2\n  0xff\n  mul\n  not\n  and\n  swap1\n  dup4\n  0xff\n  and\n  mul\n  or\n  swap1\n  sstore\n  pop\n    /* \"GHSP.sol\":17530:17550  100000000 * 10 ** 18 */\n  0x52b7d2dcc80cd2e4000000\n    /* \"GHSP.sol\":17515:17527  _totalSupply */\n  0x07\n    /* \"GHSP.sol\":17515:17550  _totalSupply = 100000000 * 10 ** 18 */\n  dup2\n  swap1\n  sstore\n  pop\n    /* \"GHSP.sol\":17586:17598  _totalSupply */\n  sload(0x07)\n    /* \"GHSP.sol\":17560:17569  _balances */\n  0x05\n    /* \"GHSP.sol\":17560:17583  _balances[_msgSender()] */\n  0x00\n    /* \"GHSP.sol\":17570:17582  _msgSender() */\n  tag_14\n    /* \"GHSP.sol\":17570:17580  _msgSender */\n  shl(0x20, tag_7)\n    /* \"GHSP.sol\":17570:17582  _msgSender() */\n  0x20\n  shr\n  jump\t// in\ntag_14:\n    /* \"GHSP.sol\":17560:17583  _balances[_msgSender()] */\n  0xffffffffffffffffffffffffffffffffffffffff\n  and\n  0xffffffffffffffffffffffffffffffffffffffff\n  and\n  dup2\n  mstore\n  0x20\n  add\n  swap1\n  dup2\n  mstore\n  0x20\n  add\n  0x00\n  keccak256\n    /* \"GHSP.sol\":17560:17598  _balances[_msgSender()] = _totalSupply */\n  dup2\n  swap1\n  sstore\n  pop\n    /* \"GHSP.sol\":17635:17647  _msgSender() */\n  tag_15\n    /* \"GHSP.sol\":17635:17645  _msgSender */\n  shl(0x20, tag_7)\n    /* \"GHSP.sol\":17635:17647  _msgSender() */\n  0x20\n  shr\n  jump\t// in\ntag_15:\n    /* \"GHSP.sol\":17614:17662  Transfer(address(0), _msgSender(), _totalSupply) */\n  0xffffffffffffffffffffffffffffffffffffffff\n  and\n    /* \"GHSP.sol\":17631:17632  0 */\n  0x00\n    /* \"GHSP.sol\":17614:17662  Transfer(address(0), _msgSender(), _totalSupply) */\n  0xffffffffffffffffffffffffffffffffffffffff\n  and\n  0xddf252ad1be2c89b69c2b068fc378daa952ba7f163c4a11628f55a4df523b3ef\n    /* \"GHSP.sol\":17649:17661  _totalSupply */\n  sload(0x07)\n    /* \"GHSP.sol\":17614:17662  Transfer(address(0), _msgSender(), _totalSupply) */\n  mload(0x40)\n  tag_16\n  swap2\n  swap1\n  tag_17\n  jump\t// in\ntag_16:\n  mload(0x40)\n  dup1\n  swap2\n  sub\n  swap1\n  log3\n    /* \"GHSP.sol\":17034:23348  contract GHOSPTokenWhitelisted is Context, IBEP20, Ownable, LGEWhitelisted {... */\n  jump(tag_18)\n    /* \"GHSP.sol\":3635:3731  function _msgSender() internal view virtual returns (address) {... */\ntag_7:\n    /* \"GHSP.sol\":3688:3695  address */\n  0x00\n    /* \"GHSP.sol\":3714:3724  msg.sender */\n  caller\n    /* \"GHSP.sol\":3707:3724  return msg.sender */\n  swap1\n  pop\n    /* \"GHSP.sol\":3635:3731  function _msgSender() internal view virtual returns (address) {... */\n  swap1\n  jump\t// out\n    /* \"GHSP.sol\":17034:23348  contract GHOSPTokenWhitelisted is Context, IBEP20, Ownable, LGEWhitelisted {... */\ntag_12:\n  dup3\n  dup1\n  sload\n  tag_20\n  swap1\n  tag_21\n  jump\t// in\ntag_20:\n  swap1\n  0x00\n  mstore\n  keccak256(0x00, 0x20)\n  swap1\n  0x1f\n  add\n  0x20\n  swap1\n  div\n  dup2\n  add\n  swap3\n  dup3\n  tag_23\n  jumpi\n  0x00\n  dup6\n  sstore\n  jump(tag_22)\ntag_23:\n  dup3\n  0x1f\n  lt\n  tag_24\n  jumpi\n  dup1\n  mload\n  not(0xff)\n  and\n  dup4\n  dup1\n  add\n  or\n  dup6\n  sstore\n  jump(tag_22)\ntag_24:\n  dup3\n  dup1\n  add\n  0x01\n  add\n  dup6\n  sstore\n  dup3\n  iszero\n  tag_22\n  jumpi\n  swap2\n  dup3\n  add\ntag_25:\n  dup3\n  dup2\n  gt\n  iszero\n  tag_26\n  jumpi\n  dup3\n  mload\n  dup3\n  sstore\n  swap2\n  0x20\n  add\n  swap2\n  swap1\n  0x01\n  add\n  swap1\n  jump(tag_25)\ntag_26:\ntag_22:\n  pop\n  swap1\n  pop\n  tag_27\n  swap2\n  swap1\n  tag_28\n  jump\t// in\ntag_27:\n  pop\n  swap1\n  jump\t// out\ntag_28:\ntag_29:\n  dup1\n  dup3\n  gt\n  iszero\n  tag_30\n  jumpi\n  0x00\n  dup2\n  0x00\n  swap1\n  sstore\n  pop\n  0x01\n  add\n  jump(tag_29)\ntag_30:\n  pop\n  swap1\n  jump\t// out\n    /* \"#utility.yul\":7:125   */\ntag_32:\n    /* \"#utility.yul\":94:118   */\n  tag_34\n    /* \"#utility.yul\":112:117   */\n  dup2\n    /* \"#utility.yul\":94:118   */\n  tag_35\n  jump\t// in\ntag_34:\n    /* \"#utility.yul\":89:92   */\n  dup3\n    /* \"#utility.yul\":82:119   */\n  mstore\n    /* \"#utility.yul\":7:125   */\n  pop\n  pop\n  jump\t// out\n    /* \"#utility.yul\":131:353   */\ntag_17:\n    /* \"#utility.yul\":224:228   */\n  0x00\n    /* \"#utility.yul\":262:264   */\n  0x20\n    /* \"#utility.yul\":251:260   */\n  dup3\n    /* \"#utility.yul\":247:265   */\n  add\n    /* \"#utility.yul\":239:265   */\n  swap1\n  pop\n    /* \"#utility.yul\":275:346   */\n  tag_37\n    /* \"#utility.yul\":343:344   */\n  0x00\n    /* \"#utility.yul\":332:341   */\n  dup4\n    /* \"#utility.yul\":328:345   */\n  add\n    /* \"#utility.yul\":319:325   */\n  dup5\n    /* \"#utility.yul\":275:346   */\n  tag_32\n  jump\t// in\ntag_37:\n    /* \"#utility.yul\":131:353   */\n  swap3\n  swap2\n  pop\n  pop\n  jump\t// out\n    /* \"#utility.yul\":359:436   */\ntag_35:\n    /* \"#utility.yul\":396:403   */\n  0x00\n    /* \"#utility.yul\":425:430   */\n  dup2\n    /* \"#utility.yul\":414:430   */\n  swap1\n  pop\n    /* \"#utility.yul\":359:436   */\n  swap2\n  swap1\n  pop\n  jump\t// out\n    /* \"#utility.yul\":442:762   */\ntag_21:\n    /* \"#utility.yul\":486:492   */\n  0x00\n    /* \"#utility.yul\":523:524   */\n  0x02\n    /* \"#utility.yul\":517:521   */\n  dup3\n    /* \"#utility.yul\":513:525   */\n  div\n    /* \"#utility.yul\":503:525   */\n  swap1\n  pop\n    /* \"#utility.yul\":570:571   */\n  0x01\n    /* \"#utility.yul\":564:568   */\n  dup3\n    /* \"#utility.yul\":560:572   */\n  and\n    /* \"#utility.yul\":591:609   */\n  dup1\n    /* \"#utility.yul\":581:662   */\n  tag_40\n  jumpi\n    /* \"#utility.yul\":647:651   */\n  0x7f\n    /* \"#utility.yul\":639:645   */\n  dup3\n    /* \"#utility.yul\":635:652   */\n  and\n    /* \"#utility.yul\":625:652   */\n  swap2\n  pop\n    /* \"#utility.yul\":581:662   */\ntag_40:\n    /* \"#utility.yul\":709:711   */\n  0x20\n    /* \"#utility.yul\":701:707   */\n  dup3\n    /* \"#utility.yul\":698:712   */\n  lt\n    /* \"#utility.yul\":678:696   */\n  dup2\n    /* \"#utility.yul\":675:713   */\n  eq\n    /* \"#utility.yul\":672:756   */\n  iszero\n  tag_41\n  jumpi\n    /* \"#utility.yul\":728:746   */\n  tag_42\n  tag_43\n  jump\t// in\ntag_42:\n    /* \"#utility.yul\":672:756   */\ntag_41:\n    /* \"#utility.yul\":493:762   */\n  pop\n    /* \"#utility.yul\":442:762   */\n  swap2\n  swap1\n  pop\n  jump\t// out\n    /* \"#utility.yul\":768:948   */\ntag_43:\n    /* \"#utility.yul\":816:893   */\n  0x4e487b7100000000000000000000000000000000000000000000000000000000\n    /* \"#utility.yul\":813:814   */\n  0x00\n    /* \"#utility.yul\":806:894   */\n  mstore\n    /* \"#utility.yul\":913:917   */\n  0x22\n    /* \"#utility.yul\":910:911   */\n  0x04\n    /* \"#utility.yul\":903:918   */\n  mstore\n    /* \"#utility.yul\":937:941   */\n  0x24\n    /* \"#utility.yul\":934:935   */\n  0x00\n    /* \"#utility.yul\":927:942   */\n  revert\n    /* \"GHSP.sol\":17034:23348  contract GHOSPTokenWhitelisted is Context, IBEP20, Ownable, LGEWhitelisted {... */\ntag_18:\n  dataSize(sub_0)\n  dup1\n  dataOffset(sub_0)\n  0x00\n  codecopy\n  0x00\n  return\nstop\n\nsub_0: assembly {\n        /* \"GHSP.sol\":17034:23348  contract GHOSPTokenWhitelisted is Context, IBEP20, Ownable, LGEWhitelisted {... */\n      mstore(0x40, 0x80)\n      callvalue\n      dup1\n      iszero\n      tag_1\n      jumpi\n      0x00\n      dup1\n      revert\n    tag_1:\n      pop\n      jumpi(tag_2, lt(calldatasize, 0x04))\n      shr(0xe0, calldataload(0x00))\n      dup1\n      0x715018a6\n      gt\n      tag_27\n      jumpi\n      dup1\n      0xa77cac7a\n      gt\n      tag_28\n      jumpi\n      dup1\n      0xa77cac7a\n      eq\n      tag_21\n      jumpi\n      dup1\n      0xa9059cbb\n      eq\n      tag_22\n      jumpi\n      dup1\n      0xd5215d11\n      eq\n      tag_23\n      jumpi\n      dup1\n      0xda91b76e\n      eq\n      tag_24\n      jumpi\n      dup1\n      0xdd62ed3e\n      eq\n      tag_25\n      jumpi\n      dup1\n      0xf2fde38b\n      eq\n      tag_26\n      jumpi\n      jump(tag_2)\n    tag_28:\n      dup1\n      0x715018a6\n      eq\n      tag_15\n      jumpi\n      dup1\n      0x893d20e8\n      eq\n      tag_16\n      jumpi\n      dup1\n      0x8da5cb5b\n      eq\n      tag_17\n      jumpi\n      dup1\n      0x95d89b41\n      eq\n      tag_18\n      jumpi\n      dup1\n      0x9ad3a7ba\n      eq\n      tag_19\n      jumpi\n      dup1\n      0xa457c2d7\n      eq\n      tag_20\n      jumpi\n      jump(tag_2)\n    tag_27:\n      dup1\n      0x313ce567\n      gt\n      tag_29\n      jumpi\n      dup1\n      0x313ce567\n      eq\n      tag_9\n      jumpi\n      dup1\n      0x39509351\n      eq\n      tag_10\n      jumpi\n      dup1\n      0x44ade3c5\n      eq\n      tag_11\n      jumpi\n      dup1\n      0x49448898\n      eq\n      tag_12\n      jumpi\n      dup1\n      0x532f1fed\n      eq\n      tag_13\n      jumpi\n      dup1\n      0x70a08231\n      eq\n      tag_14\n      jumpi\n      jump(tag_2)\n    tag_29:\n      dup1\n      0x06fdde03\n      eq\n      tag_3\n      jumpi\n      dup1\n      0x095ea7b3\n      eq\n      tag_4\n      jumpi\n      dup1\n      0x18160ddd\n      eq\n      tag_5\n      jumpi\n      dup1\n      0x1b29b0cd\n      eq\n      tag_6\n      jumpi\n      dup1\n      0x23b872dd\n      eq\n      tag_7\n      jumpi\n      dup1\n      0x2e15e5c7\n      eq\n      tag_8\n      jumpi\n    tag_2:\n      0x00\n      dup1\n      revert\n        /* \"GHSP.sol\":18196:18288  function name() external view override returns (string memory) {... */\n    tag_3:\n      tag_30\n      tag_31\n      jump\t// in\n    tag_30:\n      mload(0x40)\n      tag_32\n      swap2\n      swap1\n      tag_33\n      jump\t// in\n    tag_32:\n      mload(0x40)\n      dup1\n      swap2\n      sub\n      swap1\n      return\n        /* \"GHSP.sol\":19329:19489  function approve(address spender, uint256 amount) external override returns (bool) {... */\n    tag_4:\n      tag_34\n      0x04\n      dup1\n      calldatasize\n      sub\n      dup2\n      add\n      swap1\n      tag_35\n      swap2\n      swap1\n      tag_36\n      jump\t// in\n    tag_35:\n      tag_37\n      jump\t// in\n    tag_34:\n      mload(0x40)\n      tag_38\n      swap2\n      swap1\n      tag_39\n      jump\t// in\n    tag_38:\n      mload(0x40)\n      dup1\n      swap2\n      sub\n      swap1\n      return\n        /* \"GHSP.sol\":18349:18449  function totalSupply() external view override returns (uint256) {... */\n    tag_5:\n      tag_40\n      tag_41\n      jump\t// in\n    tag_40:\n      mload(0x40)\n      tag_42\n      swap2\n      swap1\n      tag_43\n      jump\t// in\n    tag_42:\n      mload(0x40)\n      dup1\n      swap2\n      sub\n      swap1\n      return\n        /* \"GHSP.sol\":14762:15752  function getLGEWhitelistRound()... */\n    tag_6:\n      tag_44\n      tag_45\n      jump\t// in\n    tag_44:\n      mload(0x40)\n      tag_46\n      swap7\n      swap6\n      swap5\n      swap4\n      swap3\n      swap2\n      swap1\n      tag_47\n      jump\t// in\n    tag_46:\n      mload(0x40)\n      dup1\n      swap2\n      sub\n      swap1\n      return\n        /* \"GHSP.sol\":19939:20250  function transferFrom(address sender, address recipient, uint256 amount) external override returns (bool) {... */\n    tag_7:\n      tag_48\n      0x04\n      dup1\n      calldatasize\n      sub\n      dup2\n      add\n      swap1\n      tag_49\n      swap2\n      swap1\n      tag_50\n      jump\t// in\n    tag_49:\n      tag_51\n      jump\t// in\n    tag_48:\n      mload(0x40)\n      tag_52\n      swap2\n      swap1\n      tag_39\n      jump\t// in\n    tag_52:\n      mload(0x40)\n      dup1\n      swap2\n      sub\n      swap1\n      return\n        /* \"GHSP.sol\":11877:12008  function transferWhitelister(address newWhitelister) external onlyWhitelister {... */\n    tag_8:\n      tag_53\n      0x04\n      dup1\n      calldatasize\n      sub\n      dup2\n      add\n      swap1\n      tag_54\n      swap2\n      swap1\n      tag_55\n      jump\t// in\n    tag_54:\n      tag_56\n      jump\t// in\n    tag_53:\n      stop\n        /* \"GHSP.sol\":17886:17978  function decimals() external view override returns (uint8) {... */\n    tag_9:\n      tag_57\n      tag_58\n      jump\t// in\n    tag_57:\n      mload(0x40)\n      tag_59\n      swap2\n      swap1\n      tag_60\n      jump\t// in\n    tag_59:\n      mload(0x40)\n      dup1\n      swap2\n      sub\n      swap1\n      return\n        /* \"GHSP.sol\":20637:20846  function increaseAllowance(address spender, uint256 addedValue) external returns (bool) {... */\n    tag_10:\n      tag_61\n      0x04\n      dup1\n      calldatasize\n      sub\n      dup2\n      add\n      swap1\n      tag_62\n      swap2\n      swap1\n      tag_36\n      jump\t// in\n    tag_62:\n      tag_63\n      jump\t// in\n    tag_61:\n      mload(0x40)\n      tag_64\n      swap2\n      swap1\n      tag_39\n      jump\t// in\n    tag_64:\n      mload(0x40)\n      dup1\n      swap2\n      sub\n      swap1\n      return\n        /* \"GHSP.sol\":13624:14317  function modifyLGEWhitelist(... */\n    tag_11:\n      tag_65\n      0x04\n      dup1\n      calldatasize\n      sub\n      dup2\n      add\n      swap1\n      tag_66\n      swap2\n      swap1\n      tag_67\n      jump\t// in\n    tag_66:\n      tag_68\n      jump\t// in\n    tag_65:\n      stop\n        /* \"GHSP.sol\":11340:11370  address public _lgePairAddress */\n    tag_12:\n      tag_69\n      tag_70\n      jump\t// in\n    tag_69:\n      mload(0x40)\n      tag_71\n      swap2\n      swap1\n      tag_72\n      jump\t// in\n    tag_71:\n      mload(0x40)\n      dup1\n      swap2\n      sub\n      swap1\n      return\n        /* \"GHSP.sol\":12620:13275  function createLGEWhitelist(... */\n    tag_13:\n      tag_73\n      0x04\n      dup1\n      calldatasize\n      sub\n      dup2\n      add\n      swap1\n      tag_74\n      swap2\n      swap1\n      tag_75\n      jump\t// in\n    tag_74:\n      tag_76\n      jump\t// in\n    tag_73:\n      stop\n        /* \"GHSP.sol\":18508:18627  function balanceOf(address account) external view override returns (uint256) {... */\n    tag_14:\n      tag_77\n      0x04\n      dup1\n      calldatasize\n      sub\n      dup2\n      add\n      swap1\n      tag_78\n      swap2\n      swap1\n      tag_55\n      jump\t// in\n    tag_78:\n      tag_79\n      jump\t// in\n    tag_77:\n      mload(0x40)\n      tag_80\n      swap2\n      swap1\n      tag_43\n      jump\t// in\n    tag_80:\n      mload(0x40)\n      dup1\n      swap2\n      sub\n      swap1\n      return\n        /* \"GHSP.sol\":5637:5782  function renounceOwnership() public virtual onlyOwner {... */\n    tag_15:\n      tag_81\n      tag_82\n      jump\t// in\n    tag_81:\n      stop\n        /* \"GHSP.sol\":17730:17822  function getOwner() external view override returns (address) {... */\n    tag_16:\n      tag_83\n      tag_84\n      jump\t// in\n    tag_83:\n      mload(0x40)\n      tag_85\n      swap2\n      swap1\n      tag_72\n      jump\t// in\n    tag_85:\n      mload(0x40)\n      dup1\n      swap2\n      sub\n      swap1\n      return\n        /* \"GHSP.sol\":5005:5090  function owner() public view virtual returns (address) {... */\n    tag_17:\n      tag_86\n      tag_87\n      jump\t// in\n    tag_86:\n      mload(0x40)\n      tag_88\n      swap2\n      swap1\n      tag_72\n      jump\t// in\n    tag_88:\n      mload(0x40)\n      dup1\n      swap2\n      sub\n      swap1\n      return\n        /* \"GHSP.sol\":18040:18136  function symbol() external view override returns (string memory) {... */\n    tag_18:\n      tag_89\n      tag_90\n      jump\t// in\n    tag_89:\n      mload(0x40)\n      tag_91\n      swap2\n      swap1\n      tag_33\n      jump\t// in\n    tag_91:\n      mload(0x40)\n      dup1\n      swap2\n      sub\n      swap1\n      return\n        /* \"GHSP.sol\":11710:11871  function renounceWhitelister() external onlyWhitelister {... */\n    tag_19:\n      tag_92\n      tag_93\n      jump\t// in\n    tag_92:\n      stop\n        /* \"GHSP.sol\":21323:21583  function decreaseAllowance(address spender, uint256 subtractedValue) external returns (bool) {... */\n    tag_20:\n      tag_94\n      0x04\n      dup1\n      calldatasize\n      sub\n      dup2\n      add\n      swap1\n      tag_95\n      swap2\n      swap1\n      tag_36\n      jump\t// in\n    tag_95:\n      tag_96\n      jump\t// in\n    tag_94:\n      mload(0x40)\n      tag_97\n      swap2\n      swap1\n      tag_39\n      jump\t// in\n    tag_97:\n      mload(0x40)\n      dup1\n      swap2\n      sub\n      swap1\n      return\n        /* \"GHSP.sol\":11256:11299  WhitelistRound[] public _lgeWhitelistRounds */\n    tag_21:\n      tag_98\n      0x04\n      dup1\n      calldatasize\n      sub\n      dup2\n      add\n      swap1\n      tag_99\n      swap2\n      swap1\n      tag_100\n      jump\t// in\n    tag_99:\n      tag_101\n      jump\t// in\n    tag_98:\n      mload(0x40)\n      tag_102\n      swap3\n      swap2\n      swap1\n      tag_103\n      jump\t// in\n    tag_102:\n      mload(0x40)\n      dup1\n      swap2\n      sub\n      swap1\n      return\n        /* \"GHSP.sol\":18826:18992  function transfer(address recipient, uint256 amount) external override returns (bool) {... */\n    tag_22:\n      tag_104\n      0x04\n      dup1\n      calldatasize\n      sub\n      dup2\n      add\n      swap1\n      tag_105\n      swap2\n      swap1\n      tag_36\n      jump\t// in\n    tag_105:\n      tag_106\n      jump\t// in\n    tag_104:\n      mload(0x40)\n      tag_107\n      swap2\n      swap1\n      tag_39\n      jump\t// in\n    tag_107:\n      mload(0x40)\n      dup1\n      swap2\n      sub\n      swap1\n      return\n        /* \"GHSP.sol\":11377:11404  address public _whitelister */\n    tag_23:\n      tag_108\n      tag_109\n      jump\t// in\n    tag_108:\n      mload(0x40)\n      tag_110\n      swap2\n      swap1\n      tag_72\n      jump\t// in\n    tag_110:\n      mload(0x40)\n      dup1\n      swap2\n      sub\n      swap1\n      return\n        /* \"GHSP.sol\":11306:11334  uint256 public _lgeTimestamp */\n    tag_24:\n      tag_111\n      tag_112\n      jump\t// in\n    tag_111:\n      mload(0x40)\n      tag_113\n      swap2\n      swap1\n      tag_43\n      jump\t// in\n    tag_113:\n      mload(0x40)\n      dup1\n      swap2\n      sub\n      swap1\n      return\n        /* \"GHSP.sol\":19051:19194  function allowance(address owner, address spender) external view override returns (uint256) {... */\n    tag_25:\n      tag_114\n      0x04\n      dup1\n      calldatasize\n      sub\n      dup2\n      add\n      swap1\n      tag_115\n      swap2\n      swap1\n      tag_116\n      jump\t// in\n    tag_115:\n      tag_117\n      jump\t// in\n    tag_114:\n      mload(0x40)\n      tag_118\n      swap2\n      swap1\n      tag_43\n      jump\t// in\n    tag_118:\n      mload(0x40)\n      dup1\n      swap2\n      sub\n      swap1\n      return\n        /* \"GHSP.sol\":5931:6171  function transferOwnership(address newOwner) public virtual onlyOwner {... */\n    tag_26:\n      tag_119\n      0x04\n      dup1\n      calldatasize\n      sub\n      dup2\n      add\n      swap1\n      tag_120\n      swap2\n      swap1\n      tag_55\n      jump\t// in\n    tag_120:\n      tag_121\n      jump\t// in\n    tag_119:\n      stop\n        /* \"GHSP.sol\":18196:18288  function name() external view override returns (string memory) {... */\n    tag_31:\n        /* \"GHSP.sol\":18244:18257  string memory */\n      0x60\n        /* \"GHSP.sol\":18276:18281  _name */\n      0x0a\n        /* \"GHSP.sol\":18269:18281  return _name */\n      dup1\n      sload\n      tag_123\n      swap1\n      tag_124\n      jump\t// in\n    tag_123:\n      dup1\n      0x1f\n      add\n      0x20\n      dup1\n      swap2\n      div\n      mul\n      0x20\n      add\n      mload(0x40)\n      swap1\n      dup2\n      add\n      0x40\n      mstore\n      dup1\n      swap3\n      swap2\n      swap1\n      dup2\n      dup2\n      mstore\n      0x20\n      add\n      dup3\n      dup1\n      sload\n      tag_125\n      swap1\n      tag_124\n      jump\t// in\n    tag_125:\n      dup1\n      iszero\n      tag_126\n      jumpi\n      dup1\n      0x1f\n      lt\n      tag_127\n      jumpi\n      0x0100\n      dup1\n      dup4\n      sload\n      div\n      mul\n      dup4\n      mstore\n      swap2\n      0x20\n      add\n      swap2\n      jump(tag_126)\n    tag_127:\n      dup3\n      add\n      swap2\n      swap1\n      0x00\n      mstore\n      keccak256(0x00, 0x20)\n      swap1\n    tag_128:\n      dup2\n      sload\n      dup2\n      mstore\n      swap1\n      0x01\n      add\n      swap1\n      0x20\n      add\n      dup1\n      dup4\n      gt\n      tag_128\n      jumpi\n      dup3\n      swap1\n      sub\n      0x1f\n      and\n      dup3\n      add\n      swap2\n    tag_126:\n      pop\n      pop\n      pop\n      pop\n      pop\n      swap1\n      pop\n        /* \"GHSP.sol\":18196:18288  function name() external view override returns (string memory) {... */\n      swap1\n      jump\t// out\n        /* \"GHSP.sol\":19329:19489  function approve(address spender, uint256 amount) external override returns (bool) {... */\n    tag_37:\n        /* \"GHSP.sol\":19406:19410  bool */\n      0x00\n        /* \"GHSP.sol\":19422:19461  _approve(_msgSender(), spender, amount) */\n      tag_130\n        /* \"GHSP.sol\":19431:19443  _msgSender() */\n      tag_131\n        /* \"GHSP.sol\":19431:19441  _msgSender */\n      tag_132\n        /* \"GHSP.sol\":19431:19443  _msgSender() */\n      jump\t// in\n    tag_131:\n        /* \"GHSP.sol\":19445:19452  spender */\n      dup5\n        /* \"GHSP.sol\":19454:19460  amount */\n      dup5\n        /* \"GHSP.sol\":19422:19430  _approve */\n      tag_133\n        /* \"GHSP.sol\":19422:19461  _approve(_msgSender(), spender, amount) */\n      jump\t// in\n    tag_130:\n        /* \"GHSP.sol\":19478:19482  true */\n      0x01\n        /* \"GHSP.sol\":19471:19482  return true */\n      swap1\n      pop\n        /* \"GHSP.sol\":19329:19489  function approve(address spender, uint256 amount) external override returns (bool) {... */\n      swap3\n      swap2\n      pop\n      pop\n      jump\t// out\n        /* \"GHSP.sol\":18349:18449  function totalSupply() external view override returns (uint256) {... */\n    tag_41:\n        /* \"GHSP.sol\":18404:18411  uint256 */\n      0x00\n        /* \"GHSP.sol\":18430:18442  _totalSupply */\n      sload(0x07)\n        /* \"GHSP.sol\":18423:18442  return _totalSupply */\n      swap1\n      pop\n        /* \"GHSP.sol\":18349:18449  function totalSupply() external view override returns (uint256) {... */\n      swap1\n      jump\t// out\n        /* \"GHSP.sol\":14762:15752  function getLGEWhitelistRound()... */\n    tag_45:\n        /* \"GHSP.sol\":14852:14859  uint256 */\n      0x00\n        /* \"GHSP.sol\":14873:14880  uint256 */\n      dup1\n        /* \"GHSP.sol\":14894:14901  uint256 */\n      0x00\n        /* \"GHSP.sol\":14915:14922  uint256 */\n      dup1\n        /* \"GHSP.sol\":14936:14940  bool */\n      0x00\n        /* \"GHSP.sol\":14954:14961  uint256 */\n      dup1\n        /* \"GHSP.sol\":15006:15007  0 */\n      0x00\n        /* \"GHSP.sol\":14990:15003  _lgeTimestamp */\n      sload(0x02)\n        /* \"GHSP.sol\":14990:15007  _lgeTimestamp > 0 */\n      gt\n        /* \"GHSP.sol\":14986:15706  if (_lgeTimestamp > 0) {... */\n      iszero\n      tag_136\n      jumpi\n        /* \"GHSP.sol\":15023:15051  uint256 wlCloseTimestampLast */\n      0x00\n        /* \"GHSP.sol\":15054:15067  _lgeTimestamp */\n      sload(0x02)\n        /* \"GHSP.sol\":15023:15067  uint256 wlCloseTimestampLast = _lgeTimestamp */\n      swap1\n      pop\n        /* \"GHSP.sol\":15087:15096  uint256 i */\n      0x00\n        /* \"GHSP.sol\":15082:15696  for (uint256 i = 0; i < _lgeWhitelistRounds.length; i++) {... */\n    tag_137:\n        /* \"GHSP.sol\":15106:15125  _lgeWhitelistRounds */\n      0x01\n        /* \"GHSP.sol\":15106:15132  _lgeWhitelistRounds.length */\n      dup1\n      sload\n      swap1\n      pop\n        /* \"GHSP.sol\":15102:15103  i */\n      dup2\n        /* \"GHSP.sol\":15102:15132  i < _lgeWhitelistRounds.length */\n      lt\n        /* \"GHSP.sol\":15082:15696  for (uint256 i = 0; i < _lgeWhitelistRounds.length; i++) {... */\n      iszero\n      tag_138\n      jumpi\n        /* \"GHSP.sol\":15157:15187  WhitelistRound storage wlRound */\n      0x00\n        /* \"GHSP.sol\":15190:15209  _lgeWhitelistRounds */\n      0x01\n        /* \"GHSP.sol\":15210:15211  i */\n      dup3\n        /* \"GHSP.sol\":15190:15212  _lgeWhitelistRounds[i] */\n      dup2\n      sload\n      dup2\n      lt\n      tag_140\n      jumpi\n      tag_141\n      tag_142\n      jump\t// in\n    tag_141:\n    tag_140:\n      swap1\n      0x00\n      mstore\n      keccak256(0x00, 0x20)\n      swap1\n      0x04\n      mul\n      add\n        /* \"GHSP.sol\":15157:15212  WhitelistRound storage wlRound = _lgeWhitelistRounds[i] */\n      swap1\n      pop\n        /* \"GHSP.sol\":15277:15284  wlRound */\n      dup1\n        /* \"GHSP.sol\":15277:15293  wlRound.duration */\n      0x00\n      add\n      sload\n        /* \"GHSP.sol\":15254:15274  wlCloseTimestampLast */\n      dup4\n        /* \"GHSP.sol\":15254:15293  wlCloseTimestampLast + wlRound.duration */\n      tag_144\n      swap2\n      swap1\n      tag_145\n      jump\t// in\n    tag_144:\n        /* \"GHSP.sol\":15231:15293  wlCloseTimestampLast = wlCloseTimestampLast + wlRound.duration */\n      swap3\n      pop\n        /* \"GHSP.sol\":15334:15354  wlCloseTimestampLast */\n      dup3\n        /* \"GHSP.sol\":15315:15330  block.timestamp */\n      timestamp\n        /* \"GHSP.sol\":15315:15354  block.timestamp <= wlCloseTimestampLast */\n      gt\n        /* \"GHSP.sol\":15311:15681  if (block.timestamp <= wlCloseTimestampLast)... */\n      tag_146\n      jumpi\n        /* \"GHSP.sol\":15413:15414  1 */\n      0x01\n        /* \"GHSP.sol\":15409:15410  i */\n      dup3\n        /* \"GHSP.sol\":15409:15414  i + 1 */\n      tag_147\n      swap2\n      swap1\n      tag_145\n      jump\t// in\n    tag_147:\n        /* \"GHSP.sol\":15440:15447  wlRound */\n      dup2\n        /* \"GHSP.sol\":15440:15456  wlRound.duration */\n      0x00\n      add\n      sload\n        /* \"GHSP.sol\":15482:15502  wlCloseTimestampLast */\n      dup5\n        /* \"GHSP.sol\":15528:15535  wlRound */\n      dup4\n        /* \"GHSP.sol\":15528:15545  wlRound.amountMax */\n      0x01\n      add\n      sload\n        /* \"GHSP.sol\":15571:15578  wlRound */\n      dup5\n        /* \"GHSP.sol\":15571:15588  wlRound.addresses */\n      0x02\n      add\n        /* \"GHSP.sol\":15571:15602  wlRound.addresses[_msgSender()] */\n      0x00\n        /* \"GHSP.sol\":15589:15601  _msgSender() */\n      tag_148\n        /* \"GHSP.sol\":15589:15599  _msgSender */\n      tag_132\n        /* \"GHSP.sol\":15589:15601  _msgSender() */\n      jump\t// in\n    tag_148:\n        /* \"GHSP.sol\":15571:15602  wlRound.addresses[_msgSender()] */\n      0xffffffffffffffffffffffffffffffffffffffff\n      and\n      0xffffffffffffffffffffffffffffffffffffffff\n      and\n      dup2\n      mstore\n      0x20\n      add\n      swap1\n      dup2\n      mstore\n      0x20\n      add\n      0x00\n      keccak256\n      0x00\n      swap1\n      sload\n      swap1\n      0x0100\n      exp\n      swap1\n      div\n      0xff\n      and\n        /* \"GHSP.sol\":15628:15635  wlRound */\n      dup6\n        /* \"GHSP.sol\":15628:15645  wlRound.purchased */\n      0x03\n      add\n        /* \"GHSP.sol\":15628:15659  wlRound.purchased[_msgSender()] */\n      0x00\n        /* \"GHSP.sol\":15646:15658  _msgSender() */\n      tag_149\n        /* \"GHSP.sol\":15646:15656  _msgSender */\n      tag_132\n        /* \"GHSP.sol\":15646:15658  _msgSender() */\n      jump\t// in\n    tag_149:\n        /* \"GHSP.sol\":15628:15659  wlRound.purchased[_msgSender()] */\n      0xffffffffffffffffffffffffffffffffffffffff\n      and\n      0xffffffffffffffffffffffffffffffffffffffff\n      and\n      dup2\n      mstore\n      0x20\n      add\n      swap1\n      dup2\n      mstore\n      0x20\n      add\n      0x00\n      keccak256\n      sload\n        /* \"GHSP.sol\":15376:15681  return (... */\n      swap9\n      pop\n      swap9\n      pop\n      swap9\n      pop\n      swap9\n      pop\n      swap9\n      pop\n      swap9\n      pop\n      pop\n      pop\n      pop\n      jump(tag_135)\n        /* \"GHSP.sol\":15311:15681  if (block.timestamp <= wlCloseTimestampLast)... */\n    tag_146:\n        /* \"GHSP.sol\":15139:15696  {... */\n      pop\n        /* \"GHSP.sol\":15134:15137  i++ */\n      dup1\n      dup1\n      tag_150\n      swap1\n      tag_151\n      jump\t// in\n    tag_150:\n      swap2\n      pop\n      pop\n        /* \"GHSP.sol\":15082:15696  for (uint256 i = 0; i < _lgeWhitelistRounds.length; i++) {... */\n      jump(tag_137)\n    tag_138:\n      pop\n        /* \"GHSP.sol\":15009:15706  {... */\n      pop\n        /* \"GHSP.sol\":14986:15706  if (_lgeTimestamp > 0) {... */\n    tag_136:\n        /* \"GHSP.sol\":15724:15725  0 */\n      0x00\n        /* \"GHSP.sol\":15727:15728  0 */\n      dup1\n        /* \"GHSP.sol\":15730:15731  0 */\n      0x00\n        /* \"GHSP.sol\":15733:15734  0 */\n      dup1\n        /* \"GHSP.sol\":15736:15741  false */\n      0x00\n        /* \"GHSP.sol\":15743:15744  0 */\n      dup1\n        /* \"GHSP.sol\":15716:15745  return (0, 0, 0, 0, false, 0) */\n      swap6\n      pop\n      swap6\n      pop\n      swap6\n      pop\n      swap6\n      pop\n      swap6\n      pop\n      swap6\n      pop\n        /* \"GHSP.sol\":14762:15752  function getLGEWhitelistRound()... */\n    tag_135:\n      swap1\n      swap2\n      swap3\n      swap4\n      swap5\n      swap6\n      jump\t// out\n        /* \"GHSP.sol\":19939:20250  function transferFrom(address sender, address recipient, uint256 amount) external override returns (bool) {... */\n    tag_51:\n        /* \"GHSP.sol\":20039:20043  bool */\n      0x00\n        /* \"GHSP.sol\":20055:20091  _transfer(sender, recipient, amount) */\n      tag_153\n        /* \"GHSP.sol\":20065:20071  sender */\n      dup5\n        /* \"GHSP.sol\":20073:20082  recipient */\n      dup5\n        /* \"GHSP.sol\":20084:20090  amount */\n      dup5\n        /* \"GHSP.sol\":20055:20064  _transfer */\n      tag_154\n        /* \"GHSP.sol\":20055:20091  _transfer(sender, recipient, amount) */\n      jump\t// in\n    tag_153:\n        /* \"GHSP.sol\":20101:20222  _approve(sender, _msgSender(), _allowances[sender][_msgSender()].sub(amount, \"GHOSP: transfer amount exceeds allowance\")) */\n      tag_155\n        /* \"GHSP.sol\":20110:20116  sender */\n      dup5\n        /* \"GHSP.sol\":20118:20130  _msgSender() */\n      tag_156\n        /* \"GHSP.sol\":20118:20128  _msgSender */\n      tag_132\n        /* \"GHSP.sol\":20118:20130  _msgSender() */\n      jump\t// in\n    tag_156:\n        /* \"GHSP.sol\":20132:20221  _allowances[sender][_msgSender()].sub(amount, \"GHOSP: transfer amount exceeds allowance\") */\n      tag_157\n        /* \"GHSP.sol\":20170:20176  amount */\n      dup6\n        /* \"GHSP.sol\":20132:20221  _allowances[sender][_msgSender()].sub(amount, \"GHOSP: transfer amount exceeds allowance\") */\n      mload(0x40)\n      dup1\n      0x60\n      add\n      0x40\n      mstore\n      dup1\n      0x28\n      dup2\n      mstore\n      0x20\n      add\n      data_a264243cbcc7ced02e8d4b13536510f8f4931f9e983eae595dbf79cf2387b95a\n      0x28\n      swap2\n      codecopy\n        /* \"GHSP.sol\":20132:20143  _allowances */\n      0x06\n        /* \"GHSP.sol\":20132:20151  _allowances[sender] */\n      0x00\n        /* \"GHSP.sol\":20144:20150  sender */\n      dup12\n        /* \"GHSP.sol\":20132:20151  _allowances[sender] */\n      0xffffffffffffffffffffffffffffffffffffffff\n      and\n      0xffffffffffffffffffffffffffffffffffffffff\n      and\n      dup2\n      mstore\n      0x20\n      add\n      swap1\n      dup2\n      mstore\n      0x20\n      add\n      0x00\n      keccak256\n        /* \"GHSP.sol\":20132:20165  _allowances[sender][_msgSender()] */\n      0x00\n        /* \"GHSP.sol\":20152:20164  _msgSender() */\n      tag_158\n        /* \"GHSP.sol\":20152:20162  _msgSender */\n      tag_132\n        /* \"GHSP.sol\":20152:20164  _msgSender() */\n      jump\t// in\n    tag_158:\n        /* \"GHSP.sol\":20132:20165  _allowances[sender][_msgSender()] */\n      0xffffffffffffffffffffffffffffffffffffffff\n      and\n      0xffffffffffffffffffffffffffffffffffffffff\n      and\n      dup2\n      mstore\n      0x20\n      add\n      swap1\n      dup2\n      mstore\n      0x20\n      add\n      0x00\n      keccak256\n      sload\n        /* \"GHSP.sol\":20132:20169  _allowances[sender][_msgSender()].sub */\n      tag_159\n      swap1\n        /* \"GHSP.sol\":20132:20221  _allowances[sender][_msgSender()].sub(amount, \"GHOSP: transfer amount exceeds allowance\") */\n      swap3\n      swap2\n      swap1\n      0xffffffff\n      and\n      jump\t// in\n    tag_157:\n        /* \"GHSP.sol\":20101:20109  _approve */\n      tag_133\n        /* \"GHSP.sol\":20101:20222  _approve(sender, _msgSender(), _allowances[sender][_msgSender()].sub(amount, \"GHOSP: transfer amount exceeds allowance\")) */\n      jump\t// in\n    tag_155:\n        /* \"GHSP.sol\":20239:20243  true */\n      0x01\n        /* \"GHSP.sol\":20232:20243  return true */\n      swap1\n      pop\n        /* \"GHSP.sol\":19939:20250  function transferFrom(address sender, address recipient, uint256 amount) external override returns (bool) {... */\n      swap4\n      swap3\n      pop\n      pop\n      pop\n      jump\t// out\n        /* \"GHSP.sol\":11877:12008  function transferWhitelister(address newWhitelister) external onlyWhitelister {... */\n    tag_56:\n        /* \"GHSP.sol\":11640:11652  _msgSender() */\n      tag_161\n        /* \"GHSP.sol\":11640:11650  _msgSender */\n      tag_132\n        /* \"GHSP.sol\":11640:11652  _msgSender() */\n      jump\t// in\n    tag_161:\n        /* \"GHSP.sol\":11624:11652  _whitelister == _msgSender() */\n      0xffffffffffffffffffffffffffffffffffffffff\n      and\n        /* \"GHSP.sol\":11624:11636  _whitelister */\n      0x04\n      0x00\n      swap1\n      sload\n      swap1\n      0x0100\n      exp\n      swap1\n      div\n      0xffffffffffffffffffffffffffffffffffffffff\n      and\n        /* \"GHSP.sol\":11624:11652  _whitelister == _msgSender() */\n      0xffffffffffffffffffffffffffffffffffffffff\n      and\n      eq\n        /* \"GHSP.sol\":11616:11686  require(_whitelister == _msgSender(), \"Caller is not the whitelister\") */\n      tag_162\n      jumpi\n      mload(0x40)\n      0x08c379a000000000000000000000000000000000000000000000000000000000\n      dup2\n      mstore\n      0x04\n      add\n      tag_163\n      swap1\n      tag_164\n      jump\t// in\n    tag_163:\n      mload(0x40)\n      dup1\n      swap2\n      sub\n      swap1\n      revert\n    tag_162:\n        /* \"GHSP.sol\":11965:12001  _transferWhitelister(newWhitelister) */\n      tag_166\n        /* \"GHSP.sol\":11986:12000  newWhitelister */\n      dup2\n        /* \"GHSP.sol\":11965:11985  _transferWhitelister */\n      tag_167\n        /* \"GHSP.sol\":11965:12001  _transferWhitelister(newWhitelister) */\n      jump\t// in\n    tag_166:\n        /* \"GHSP.sol\":11877:12008  function transferWhitelister(address newWhitelister) external onlyWhitelister {... */\n      pop\n      jump\t// out\n        /* \"GHSP.sol\":17886:17978  function decimals() external view override returns (uint8) {... */\n    tag_58:\n        /* \"GHSP.sol\":17938:17943  uint8 */\n      0x00\n        /* \"GHSP.sol\":17962:17971  _decimals */\n      0x08\n      0x00\n      swap1\n      sload\n      swap1\n      0x0100\n      exp\n      swap1\n      div\n      0xff\n      and\n        /* \"GHSP.sol\":17955:17971  return _decimals */\n      swap1\n      pop\n        /* \"GHSP.sol\":17886:17978  function decimals() external view override returns (uint8) {... */\n      swap1\n      jump\t// out\n        /* \"GHSP.sol\":20637:20846  function increaseAllowance(address spender, uint256 addedValue) external returns (bool) {... */\n    tag_63:\n        /* \"GHSP.sol\":20719:20723  bool */\n      0x00\n        /* \"GHSP.sol\":20735:20818  _approve(_msgSender(), spender, _allowances[_msgSender()][spender].add(addedValue)) */\n      tag_170\n        /* \"GHSP.sol\":20744:20756  _msgSender() */\n      tag_171\n        /* \"GHSP.sol\":20744:20754  _msgSender */\n      tag_132\n        /* \"GHSP.sol\":20744:20756  _msgSender() */\n      jump\t// in\n    tag_171:\n        /* \"GHSP.sol\":20758:20765  spender */\n      dup5\n        /* \"GHSP.sol\":20767:20817  _allowances[_msgSender()][spender].add(addedValue) */\n      tag_172\n        /* \"GHSP.sol\":20806:20816  addedValue */\n      dup6\n        /* \"GHSP.sol\":20767:20778  _allowances */\n      0x06\n        /* \"GHSP.sol\":20767:20792  _allowances[_msgSender()] */\n      0x00\n        /* \"GHSP.sol\":20779:20791  _msgSender() */\n      tag_173\n        /* \"GHSP.sol\":20779:20789  _msgSender */\n      tag_132\n        /* \"GHSP.sol\":20779:20791  _msgSender() */\n      jump\t// in\n    tag_173:\n        /* \"GHSP.sol\":20767:20792  _allowances[_msgSender()] */\n      0xffffffffffffffffffffffffffffffffffffffff\n      and\n      0xffffffffffffffffffffffffffffffffffffffff\n      and\n      dup2\n      mstore\n      0x20\n      add\n      swap1\n      dup2\n      mstore\n      0x20\n      add\n      0x00\n      keccak256\n        /* \"GHSP.sol\":20767:20801  _allowances[_msgSender()][spender] */\n      0x00\n        /* \"GHSP.sol\":20793:20800  spender */\n      dup10\n        /* \"GHSP.sol\":20767:20801  _allowances[_msgSender()][spender] */\n      0xffffffffffffffffffffffffffffffffffffffff\n      and\n      0xffffffffffffffffffffffffffffffffffffffff\n      and\n      dup2\n      mstore\n      0x20\n      add\n      swap1\n      dup2\n      mstore\n      0x20\n      add\n      0x00\n      keccak256\n      sload\n        /* \"GHSP.sol\":20767:20805  _allowances[_msgSender()][spender].add */\n      tag_174\n      swap1\n        /* \"GHSP.sol\":20767:20817  _allowances[_msgSender()][spender].add(addedValue) */\n      swap2\n      swap1\n      0xffffffff\n      and\n      jump\t// in\n    tag_172:\n        /* \"GHSP.sol\":20735:20743  _approve */\n      tag_133\n        /* \"GHSP.sol\":20735:20818  _approve(_msgSender(), spender, _allowances[_msgSender()][spender].add(addedValue)) */\n      jump\t// in\n    tag_170:\n        /* \"GHSP.sol\":20835:20839  true */\n      0x01\n        /* \"GHSP.sol\":20828:20839  return true */\n      swap1\n      pop\n        /* \"GHSP.sol\":20637:20846  function increaseAllowance(address spender, uint256 addedValue) external returns (bool) {... */\n      swap3\n      swap2\n      pop\n      pop\n      jump\t// out\n        /* \"GHSP.sol\":13624:14317  function modifyLGEWhitelist(... */\n    tag_68:\n        /* \"GHSP.sol\":11640:11652  _msgSender() */\n      tag_176\n        /* \"GHSP.sol\":11640:11650  _msgSender */\n      tag_132\n        /* \"GHSP.sol\":11640:11652  _msgSender() */\n      jump\t// in\n    tag_176:\n        /* \"GHSP.sol\":11624:11652  _whitelister == _msgSender() */\n      0xffffffffffffffffffffffffffffffffffffffff\n      and\n        /* \"GHSP.sol\":11624:11636  _whitelister */\n      0x04\n      0x00\n      swap1\n      sload\n      swap1\n      0x0100\n      exp\n      swap1\n      div\n      0xffffffffffffffffffffffffffffffffffffffff\n      and\n        /* \"GHSP.sol\":11624:11652  _whitelister == _msgSender() */\n      0xffffffffffffffffffffffffffffffffffffffff\n      and\n      eq\n        /* \"GHSP.sol\":11616:11686  require(_whitelister == _msgSender(), \"Caller is not the whitelister\") */\n      tag_177\n      jumpi\n      mload(0x40)\n      0x08c379a000000000000000000000000000000000000000000000000000000000\n      dup2\n      mstore\n      0x04\n      add\n      tag_178\n      swap1\n      tag_164\n      jump\t// in\n    tag_178:\n      mload(0x40)\n      dup1\n      swap2\n      sub\n      swap1\n      revert\n    tag_177:\n        /* \"GHSP.sol\":13847:13866  _lgeWhitelistRounds */\n      0x01\n        /* \"GHSP.sol\":13847:13873  _lgeWhitelistRounds.length */\n      dup1\n      sload\n      swap1\n      pop\n        /* \"GHSP.sol\":13839:13844  index */\n      dup7\n        /* \"GHSP.sol\":13839:13873  index < _lgeWhitelistRounds.length */\n      lt\n        /* \"GHSP.sol\":13831:13891  require(index < _lgeWhitelistRounds.length, \"Invalid index\") */\n      tag_180\n      jumpi\n      mload(0x40)\n      0x08c379a000000000000000000000000000000000000000000000000000000000\n      dup2\n      mstore\n      0x04\n      add\n      tag_181\n      swap1\n      tag_182\n      jump\t// in\n    tag_181:\n      mload(0x40)\n      dup1\n      swap2\n      sub\n      swap1\n      revert\n    tag_180:\n        /* \"GHSP.sol\":13921:13922  0 */\n      0x00\n        /* \"GHSP.sol\":13909:13918  amountMax */\n      dup5\n        /* \"GHSP.sol\":13909:13922  amountMax > 0 */\n      gt\n        /* \"GHSP.sol\":13901:13944  require(amountMax > 0, \"Invalid amountMax\") */\n      tag_183\n      jumpi\n      mload(0x40)\n      0x08c379a000000000000000000000000000000000000000000000000000000000\n      dup2\n      mstore\n      0x04\n      add\n      tag_184\n      swap1\n      tag_185\n      jump\t// in\n    tag_184:\n      mload(0x40)\n      dup1\n      swap2\n      sub\n      swap1\n      revert\n    tag_183:\n        /* \"GHSP.sol\":13971:13990  _lgeWhitelistRounds */\n      0x01\n        /* \"GHSP.sol\":13991:13996  index */\n      dup7\n        /* \"GHSP.sol\":13971:13997  _lgeWhitelistRounds[index] */\n      dup2\n      sload\n      dup2\n      lt\n      tag_186\n      jumpi\n      tag_187\n      tag_142\n      jump\t// in\n    tag_187:\n    tag_186:\n      swap1\n      0x00\n      mstore\n      keccak256(0x00, 0x20)\n      swap1\n      0x04\n      mul\n      add\n        /* \"GHSP.sol\":13971:14006  _lgeWhitelistRounds[index].duration */\n      0x00\n      add\n      sload\n        /* \"GHSP.sol\":13959:13967  duration */\n      dup6\n        /* \"GHSP.sol\":13959:14006  duration != _lgeWhitelistRounds[index].duration */\n      eq\n        /* \"GHSP.sol\":13955:14054  if (duration != _lgeWhitelistRounds[index].duration) _lgeWhitelistRounds[index].duration = duration */\n      tag_189\n      jumpi\n        /* \"GHSP.sol\":14046:14054  duration */\n      dup5\n        /* \"GHSP.sol\":14008:14027  _lgeWhitelistRounds */\n      0x01\n        /* \"GHSP.sol\":14028:14033  index */\n      dup8\n        /* \"GHSP.sol\":14008:14034  _lgeWhitelistRounds[index] */\n      dup2\n      sload\n      dup2\n      lt\n      tag_190\n      jumpi\n      tag_191\n      tag_142\n      jump\t// in\n    tag_191:\n    tag_190:\n      swap1\n      0x00\n      mstore\n      keccak256(0x00, 0x20)\n      swap1\n      0x04\n      mul\n      add\n        /* \"GHSP.sol\":14008:14043  _lgeWhitelistRounds[index].duration */\n      0x00\n      add\n        /* \"GHSP.sol\":14008:14054  _lgeWhitelistRounds[index].duration = duration */\n      dup2\n      swap1\n      sstore\n      pop\n        /* \"GHSP.sol\":13955:14054  if (duration != _lgeWhitelistRounds[index].duration) _lgeWhitelistRounds[index].duration = duration */\n    tag_189:\n        /* \"GHSP.sol\":14082:14101  _lgeWhitelistRounds */\n      0x01\n        /* \"GHSP.sol\":14102:14107  index */\n      dup7\n        /* \"GHSP.sol\":14082:14108  _lgeWhitelistRounds[index] */\n      dup2\n      sload\n      dup2\n      lt\n      tag_193\n      jumpi\n      tag_194\n      tag_142\n      jump\t// in\n    tag_194:\n    tag_193:\n      swap1\n      0x00\n      mstore\n      keccak256(0x00, 0x20)\n      swap1\n      0x04\n      mul\n      add\n        /* \"GHSP.sol\":14082:14118  _lgeWhitelistRounds[index].amountMax */\n      0x01\n      add\n      sload\n        /* \"GHSP.sol\":14069:14078  amountMax */\n      dup5\n        /* \"GHSP.sol\":14069:14118  amountMax != _lgeWhitelistRounds[index].amountMax */\n      eq\n        /* \"GHSP.sol\":14065:14168  if (amountMax != _lgeWhitelistRounds[index].amountMax) _lgeWhitelistRounds[index].amountMax = amountMax */\n      tag_196\n      jumpi\n        /* \"GHSP.sol\":14159:14168  amountMax */\n      dup4\n        /* \"GHSP.sol\":14120:14139  _lgeWhitelistRounds */\n      0x01\n        /* \"GHSP.sol\":14140:14145  index */\n      dup8\n        /* \"GHSP.sol\":14120:14146  _lgeWhitelistRounds[index] */\n      dup2\n      sload\n      dup2\n      lt\n      tag_197\n      jumpi\n      tag_198\n      tag_142\n      jump\t// in\n    tag_198:\n    tag_197:\n      swap1\n      0x00\n      mstore\n      keccak256(0x00, 0x20)\n      swap1\n      0x04\n      mul\n      add\n        /* \"GHSP.sol\":14120:14156  _lgeWhitelistRounds[index].amountMax */\n      0x01\n      add\n        /* \"GHSP.sol\":14120:14168  _lgeWhitelistRounds[index].amountMax = amountMax */\n      dup2\n      swap1\n      sstore\n      pop\n        /* \"GHSP.sol\":14065:14168  if (amountMax != _lgeWhitelistRounds[index].amountMax) _lgeWhitelistRounds[index].amountMax = amountMax */\n    tag_196:\n        /* \"GHSP.sol\":14184:14193  uint256 i */\n      0x00\n        /* \"GHSP.sol\":14179:14311  for (uint256 i = 0; i < addresses.length; i++) {... */\n    tag_200:\n        /* \"GHSP.sol\":14203:14212  addresses */\n      dup4\n      dup4\n        /* \"GHSP.sol\":14203:14219  addresses.length */\n      swap1\n      pop\n        /* \"GHSP.sol\":14199:14200  i */\n      dup2\n        /* \"GHSP.sol\":14199:14219  i < addresses.length */\n      lt\n        /* \"GHSP.sol\":14179:14311  for (uint256 i = 0; i < addresses.length; i++) {... */\n      iszero\n      tag_201\n      jumpi\n        /* \"GHSP.sol\":14293:14300  enabled */\n      dup2\n        /* \"GHSP.sol\":14240:14259  _lgeWhitelistRounds */\n      0x01\n        /* \"GHSP.sol\":14260:14265  index */\n      dup9\n        /* \"GHSP.sol\":14240:14266  _lgeWhitelistRounds[index] */\n      dup2\n      sload\n      dup2\n      lt\n      tag_203\n      jumpi\n      tag_204\n      tag_142\n      jump\t// in\n    tag_204:\n    tag_203:\n      swap1\n      0x00\n      mstore\n      keccak256(0x00, 0x20)\n      swap1\n      0x04\n      mul\n      add\n        /* \"GHSP.sol\":14240:14276  _lgeWhitelistRounds[index].addresses */\n      0x02\n      add\n        /* \"GHSP.sol\":14240:14290  _lgeWhitelistRounds[index].addresses[addresses[i]] */\n      0x00\n        /* \"GHSP.sol\":14277:14286  addresses */\n      dup7\n      dup7\n        /* \"GHSP.sol\":14287:14288  i */\n      dup6\n        /* \"GHSP.sol\":14277:14289  addresses[i] */\n      dup2\n      dup2\n      lt\n      tag_206\n      jumpi\n      tag_207\n      tag_142\n      jump\t// in\n    tag_207:\n    tag_206:\n      swap1\n      pop\n      0x20\n      mul\n      add\n      0x20\n      dup2\n      add\n      swap1\n      tag_208\n      swap2\n      swap1\n      tag_55\n      jump\t// in\n    tag_208:\n        /* \"GHSP.sol\":14240:14290  _lgeWhitelistRounds[index].addresses[addresses[i]] */\n      0xffffffffffffffffffffffffffffffffffffffff\n      and\n      0xffffffffffffffffffffffffffffffffffffffff\n      and\n      dup2\n      mstore\n      0x20\n      add\n      swap1\n      dup2\n      mstore\n      0x20\n      add\n      0x00\n      keccak256\n      0x00\n        /* \"GHSP.sol\":14240:14300  _lgeWhitelistRounds[index].addresses[addresses[i]] = enabled */\n      0x0100\n      exp\n      dup2\n      sload\n      dup2\n      0xff\n      mul\n      not\n      and\n      swap1\n      dup4\n      iszero\n      iszero\n      mul\n      or\n      swap1\n      sstore\n      pop\n        /* \"GHSP.sol\":14221:14224  i++ */\n      dup1\n      dup1\n      tag_209\n      swap1\n      tag_151\n      jump\t// in\n    tag_209:\n      swap2\n      pop\n      pop\n        /* \"GHSP.sol\":14179:14311  for (uint256 i = 0; i < addresses.length; i++) {... */\n      jump(tag_200)\n    tag_201:\n      pop\n        /* \"GHSP.sol\":13624:14317  function modifyLGEWhitelist(... */\n      pop\n      pop\n      pop\n      pop\n      pop\n      pop\n      jump\t// out\n        /* \"GHSP.sol\":11340:11370  address public _lgePairAddress */\n    tag_70:\n      0x03\n      0x00\n      swap1\n      sload\n      swap1\n      0x0100\n      exp\n      swap1\n      div\n      0xffffffffffffffffffffffffffffffffffffffff\n      and\n      dup2\n      jump\t// out\n        /* \"GHSP.sol\":12620:13275  function createLGEWhitelist(... */\n    tag_76:\n        /* \"GHSP.sol\":11640:11652  _msgSender() */\n      tag_211\n        /* \"GHSP.sol\":11640:11650  _msgSender */\n      tag_132\n        /* \"GHSP.sol\":11640:11652  _msgSender() */\n      jump\t// in\n    tag_211:\n        /* \"GHSP.sol\":11624:11652  _whitelister == _msgSender() */\n      0xffffffffffffffffffffffffffffffffffffffff\n      and\n        /* \"GHSP.sol\":11624:11636  _whitelister */\n      0x04\n      0x00\n      swap1\n      sload\n      swap1\n      0x0100\n      exp\n      swap1\n      div\n      0xffffffffffffffffffffffffffffffffffffffff\n      and\n        /* \"GHSP.sol\":11624:11652  _whitelister == _msgSender() */\n      0xffffffffffffffffffffffffffffffffffffffff\n      and\n      eq\n        /* \"GHSP.sol\":11616:11686  require(_whitelister == _msgSender(), \"Caller is not the whitelister\") */\n      tag_212\n      jumpi\n      mload(0x40)\n      0x08c379a000000000000000000000000000000000000000000000000000000000\n      dup2\n      mstore\n      0x04\n      add\n      tag_213\n      swap1\n      tag_164\n      jump\t// in\n    tag_213:\n      mload(0x40)\n      dup1\n      swap2\n      sub\n      swap1\n      revert\n    tag_212:\n        /* \"GHSP.sol\":12825:12835  amountsMax */\n      dup2\n      dup2\n        /* \"GHSP.sol\":12825:12842  amountsMax.length */\n      swap1\n      pop\n        /* \"GHSP.sol\":12805:12814  durations */\n      dup5\n      dup5\n        /* \"GHSP.sol\":12805:12821  durations.length */\n      swap1\n      pop\n        /* \"GHSP.sol\":12805:12842  durations.length == amountsMax.length */\n      eq\n        /* \"GHSP.sol\":12797:12867  require(durations.length == amountsMax.length, \"Invalid whitelist(s)\") */\n      tag_215\n      jumpi\n      mload(0x40)\n      0x08c379a000000000000000000000000000000000000000000000000000000000\n      dup2\n      mstore\n      0x04\n      add\n      tag_216\n      swap1\n      tag_217\n      jump\t// in\n    tag_216:\n      mload(0x40)\n      dup1\n      swap2\n      sub\n      swap1\n      revert\n    tag_215:\n        /* \"GHSP.sol\":12896:12907  pairAddress */\n      dup5\n        /* \"GHSP.sol\":12878:12893  _lgePairAddress */\n      0x03\n      0x00\n        /* \"GHSP.sol\":12878:12907  _lgePairAddress = pairAddress */\n      0x0100\n      exp\n      dup2\n      sload\n      dup2\n      0xffffffffffffffffffffffffffffffffffffffff\n      mul\n      not\n      and\n      swap1\n      dup4\n      0xffffffffffffffffffffffffffffffffffffffff\n      and\n      mul\n      or\n      swap1\n      sstore\n      pop\n        /* \"GHSP.sol\":12941:12942  0 */\n      0x00\n        /* \"GHSP.sol\":12922:12931  durations */\n      dup5\n      dup5\n        /* \"GHSP.sol\":12922:12938  durations.length */\n      swap1\n      pop\n        /* \"GHSP.sol\":12922:12942  durations.length > 0 */\n      gt\n        /* \"GHSP.sol\":12918:13269  if (durations.length > 0) {... */\n      iszero\n      tag_218\n      jumpi\n        /* \"GHSP.sol\":12965:12984  _lgeWhitelistRounds */\n      0x01\n      0x00\n        /* \"GHSP.sol\":12958:12984  delete _lgeWhitelistRounds */\n      tag_219\n      swap2\n      swap1\n      tag_220\n      jump\t// in\n    tag_219:\n        /* \"GHSP.sol\":13004:13013  uint256 i */\n      0x00\n        /* \"GHSP.sol\":12999:13259  for (uint256 i = 0; i < durations.length; i++) {... */\n    tag_221:\n        /* \"GHSP.sol\":13023:13032  durations */\n      dup5\n      dup5\n        /* \"GHSP.sol\":13023:13039  durations.length */\n      swap1\n      pop\n        /* \"GHSP.sol\":13019:13020  i */\n      dup2\n        /* \"GHSP.sol\":13019:13039  i < durations.length */\n      lt\n        /* \"GHSP.sol\":12999:13259  for (uint256 i = 0; i < durations.length; i++) {... */\n      iszero\n      tag_222\n      jumpi\n        /* \"GHSP.sol\":13064:13101  WhitelistRound storage whitelistRound */\n      0x00\n        /* \"GHSP.sol\":13104:13123  _lgeWhitelistRounds */\n      0x01\n        /* \"GHSP.sol\":13104:13130  _lgeWhitelistRounds.push() */\n      dup1\n      dup2\n      0x01\n      dup2\n      sload\n      add\n      dup1\n      dup3\n      sstore\n      dup1\n      swap2\n      pop\n      pop\n      sub\n      swap1\n      0x00\n      mstore\n      keccak256(0x00, 0x20)\n      swap1\n      0x04\n      mul\n      add\n        /* \"GHSP.sol\":13064:13130  WhitelistRound storage whitelistRound = _lgeWhitelistRounds.push() */\n      swap1\n      pop\n        /* \"GHSP.sol\":13174:13183  durations */\n      dup6\n      dup6\n        /* \"GHSP.sol\":13184:13185  i */\n      dup4\n        /* \"GHSP.sol\":13174:13186  durations[i] */\n      dup2\n      dup2\n      lt\n      tag_225\n      jumpi\n      tag_226\n      tag_142\n      jump\t// in\n    tag_226:\n    tag_225:\n      swap1\n      pop\n      0x20\n      mul\n      add\n      calldataload\n        /* \"GHSP.sol\":13148:13162  whitelistRound */\n      dup2\n        /* \"GHSP.sol\":13148:13171  whitelistRound.duration */\n      0x00\n      add\n        /* \"GHSP.sol\":13148:13186  whitelistRound.duration = durations[i] */\n      dup2\n      swap1\n      sstore\n      pop\n        /* \"GHSP.sol\":13231:13241  amountsMax */\n      dup4\n      dup4\n        /* \"GHSP.sol\":13242:13243  i */\n      dup4\n        /* \"GHSP.sol\":13231:13244  amountsMax[i] */\n      dup2\n      dup2\n      lt\n      tag_227\n      jumpi\n      tag_228\n      tag_142\n      jump\t// in\n    tag_228:\n    tag_227:\n      swap1\n      pop\n      0x20\n      mul\n      add\n      calldataload\n        /* \"GHSP.sol\":13204:13218  whitelistRound */\n      dup2\n        /* \"GHSP.sol\":13204:13228  whitelistRound.amountMax */\n      0x01\n      add\n        /* \"GHSP.sol\":13204:13244  whitelistRound.amountMax = amountsMax[i] */\n      dup2\n      swap1\n      sstore\n      pop\n        /* \"GHSP.sol\":13046:13259  {... */\n      pop\n        /* \"GHSP.sol\":13041:13044  i++ */\n      dup1\n      dup1\n      tag_229\n      swap1\n      tag_151\n      jump\t// in\n    tag_229:\n      swap2\n      pop\n      pop\n        /* \"GHSP.sol\":12999:13259  for (uint256 i = 0; i < durations.length; i++) {... */\n      jump(tag_221)\n    tag_222:\n      pop\n        /* \"GHSP.sol\":12918:13269  if (durations.length > 0) {... */\n    tag_218:\n        /* \"GHSP.sol\":12620:13275  function createLGEWhitelist(... */\n      pop\n      pop\n      pop\n      pop\n      pop\n      jump\t// out\n        /* \"GHSP.sol\":18508:18627  function balanceOf(address account) external view override returns (uint256) {... */\n    tag_79:\n        /* \"GHSP.sol\":18576:18583  uint256 */\n      0x00\n        /* \"GHSP.sol\":18602:18611  _balances */\n      0x05\n        /* \"GHSP.sol\":18602:18620  _balances[account] */\n      0x00\n        /* \"GHSP.sol\":18612:18619  account */\n      dup4\n        /* \"GHSP.sol\":18602:18620  _balances[account] */\n      0xffffffffffffffffffffffffffffffffffffffff\n      and\n      0xffffffffffffffffffffffffffffffffffffffff\n      and\n      dup2\n      mstore\n      0x20\n      add\n      swap1\n      dup2\n      mstore\n      0x20\n      add\n      0x00\n      keccak256\n      sload\n        /* \"GHSP.sol\":18595:18620  return _balances[account] */\n      swap1\n      pop\n        /* \"GHSP.sol\":18508:18627  function balanceOf(address account) external view override returns (uint256) {... */\n      swap2\n      swap1\n      pop\n      jump\t// out\n        /* \"GHSP.sol\":5637:5782  function renounceOwnership() public virtual onlyOwner {... */\n    tag_82:\n        /* \"GHSP.sol\":5228:5240  _msgSender() */\n      tag_232\n        /* \"GHSP.sol\":5228:5238  _msgSender */\n      tag_132\n        /* \"GHSP.sol\":5228:5240  _msgSender() */\n      jump\t// in\n    tag_232:\n        /* \"GHSP.sol\":5217:5240  owner() == _msgSender() */\n      0xffffffffffffffffffffffffffffffffffffffff\n      and\n        /* \"GHSP.sol\":5217:5224  owner() */\n      tag_233\n        /* \"GHSP.sol\":5217:5222  owner */\n      tag_87\n        /* \"GHSP.sol\":5217:5224  owner() */\n      jump\t// in\n    tag_233:\n        /* \"GHSP.sol\":5217:5240  owner() == _msgSender() */\n      0xffffffffffffffffffffffffffffffffffffffff\n      and\n      eq\n        /* \"GHSP.sol\":5209:5277  require(owner() == _msgSender(), \"Ownable: caller is not the owner\") */\n      tag_234\n      jumpi\n      mload(0x40)\n      0x08c379a000000000000000000000000000000000000000000000000000000000\n      dup2\n      mstore\n      0x04\n      add\n      tag_235\n      swap1\n      tag_236\n      jump\t// in\n    tag_235:\n      mload(0x40)\n      dup1\n      swap2\n      sub\n      swap1\n      revert\n    tag_234:\n        /* \"GHSP.sol\":5743:5744  0 */\n      0x00\n        /* \"GHSP.sol\":5706:5746  OwnershipTransferred(_owner, address(0)) */\n      0xffffffffffffffffffffffffffffffffffffffff\n      and\n        /* \"GHSP.sol\":5727:5733  _owner */\n      0x00\n      dup1\n      sload\n      swap1\n      0x0100\n      exp\n      swap1\n      div\n      0xffffffffffffffffffffffffffffffffffffffff\n      and\n        /* \"GHSP.sol\":5706:5746  OwnershipTransferred(_owner, address(0)) */\n      0xffffffffffffffffffffffffffffffffffffffff\n      and\n      0x8be0079c531659141344cd1fd0a4f28419497f9722a3daafe3b4186f6b6457e0\n      mload(0x40)\n      mload(0x40)\n      dup1\n      swap2\n      sub\n      swap1\n      log3\n        /* \"GHSP.sol\":5773:5774  0 */\n      0x00\n        /* \"GHSP.sol\":5756:5762  _owner */\n      dup1\n      0x00\n        /* \"GHSP.sol\":5756:5775  _owner = address(0) */\n      0x0100\n      exp\n      dup2\n      sload\n      dup2\n      0xffffffffffffffffffffffffffffffffffffffff\n      mul\n      not\n      and\n      swap1\n      dup4\n      0xffffffffffffffffffffffffffffffffffffffff\n      and\n      mul\n      or\n      swap1\n      sstore\n      pop\n        /* \"GHSP.sol\":5637:5782  function renounceOwnership() public virtual onlyOwner {... */\n      jump\t// out\n        /* \"GHSP.sol\":17730:17822  function getOwner() external view override returns (address) {... */\n    tag_84:\n        /* \"GHSP.sol\":17782:17789  address */\n      0x00\n        /* \"GHSP.sol\":17808:17815  owner() */\n      tag_239\n        /* \"GHSP.sol\":17808:17813  owner */\n      tag_87\n        /* \"GHSP.sol\":17808:17815  owner() */\n      jump\t// in\n    tag_239:\n        /* \"GHSP.sol\":17801:17815  return owner() */\n      swap1\n      pop\n        /* \"GHSP.sol\":17730:17822  function getOwner() external view override returns (address) {... */\n      swap1\n      jump\t// out\n        /* \"GHSP.sol\":5005:5090  function owner() public view virtual returns (address) {... */\n    tag_87:\n        /* \"GHSP.sol\":5051:5058  address */\n      0x00\n        /* \"GHSP.sol\":5077:5083  _owner */\n      dup1\n      0x00\n      swap1\n      sload\n      swap1\n      0x0100\n      exp\n      swap1\n      div\n      0xffffffffffffffffffffffffffffffffffffffff\n      and\n        /* \"GHSP.sol\":5070:5083  return _owner */\n      swap1\n      pop\n        /* \"GHSP.sol\":5005:5090  function owner() public view virtual returns (address) {... */\n      swap1\n      jump\t// out\n        /* \"GHSP.sol\":18040:18136  function symbol() external view override returns (string memory) {... */\n    tag_90:\n        /* \"GHSP.sol\":18090:18103  string memory */\n      0x60\n        /* \"GHSP.sol\":18122:18129  _symbol */\n      0x09\n        /* \"GHSP.sol\":18115:18129  return _symbol */\n      dup1\n      sload\n      tag_242\n      swap1\n      tag_124\n      jump\t// in\n    tag_242:\n      dup1\n      0x1f\n      add\n      0x20\n      dup1\n      swap2\n      div\n      mul\n      0x20\n      add\n      mload(0x40)\n      swap1\n      dup2\n      add\n      0x40\n      mstore\n      dup1\n      swap3\n      swap2\n      swap1\n      dup2\n      dup2\n      mstore\n      0x20\n      add\n      dup3\n      dup1\n      sload\n      tag_243\n      swap1\n      tag_124\n      jump\t// in\n    tag_243:\n      dup1\n      iszero\n      tag_244\n      jumpi\n      dup1\n      0x1f\n      lt\n      tag_245\n      jumpi\n      0x0100\n      dup1\n      dup4\n      sload\n      div\n      mul\n      dup4\n      mstore\n      swap2\n      0x20\n      add\n      swap2\n      jump(tag_244)\n    tag_245:\n      dup3\n      add\n      swap2\n      swap1\n      0x00\n      mstore\n      keccak256(0x00, 0x20)\n      swap1\n    tag_246:\n      dup2\n      sload\n      dup2\n      mstore\n      swap1\n      0x01\n      add\n      swap1\n      0x20\n      add\n      dup1\n      dup4\n      gt\n      tag_246\n      jumpi\n      dup3\n      swap1\n      sub\n      0x1f\n      and\n      dup3\n      add\n      swap2\n    tag_244:\n      pop\n      pop\n      pop\n      pop\n      pop\n      swap1\n      pop\n        /* \"GHSP.sol\":18040:18136  function symbol() external view override returns (string memory) {... */\n      swap1\n      jump\t// out\n        /* \"GHSP.sol\":11710:11871  function renounceWhitelister() external onlyWhitelister {... */\n    tag_93:\n        /* \"GHSP.sol\":11640:11652  _msgSender() */\n      tag_248\n        /* \"GHSP.sol\":11640:11650  _msgSender */\n      tag_132\n        /* \"GHSP.sol\":11640:11652  _msgSender() */\n      jump\t// in\n    tag_248:\n        /* \"GHSP.sol\":11624:11652  _whitelister == _msgSender() */\n      0xffffffffffffffffffffffffffffffffffffffff\n      and\n        /* \"GHSP.sol\":11624:11636  _whitelister */\n      0x04\n      0x00\n      swap1\n      sload\n      swap1\n      0x0100\n      exp\n      swap1\n      div\n      0xffffffffffffffffffffffffffffffffffffffff\n      and\n        /* \"GHSP.sol\":11624:11652  _whitelister == _msgSender() */\n      0xffffffffffffffffffffffffffffffffffffffff\n      and\n      eq\n        /* \"GHSP.sol\":11616:11686  require(_whitelister == _msgSender(), \"Caller is not the whitelister\") */\n      tag_249\n      jumpi\n      mload(0x40)\n      0x08c379a000000000000000000000000000000000000000000000000000000000\n      dup2\n      mstore\n      0x04\n      add\n      tag_250\n      swap1\n      tag_164\n      jump\t// in\n    tag_250:\n      mload(0x40)\n      dup1\n      swap2\n      sub\n      swap1\n      revert\n    tag_249:\n        /* \"GHSP.sol\":11826:11827  0 */\n      0x00\n        /* \"GHSP.sol\":11781:11829  WhitelisterTransferred(_whitelister, address(0)) */\n      0xffffffffffffffffffffffffffffffffffffffff\n      and\n        /* \"GHSP.sol\":11804:11816  _whitelister */\n      0x04\n      0x00\n      swap1\n      sload\n      swap1\n      0x0100\n      exp\n      swap1\n      div\n      0xffffffffffffffffffffffffffffffffffffffff\n      and\n        /* \"GHSP.sol\":11781:11829  WhitelisterTransferred(_whitelister, address(0)) */\n      0xffffffffffffffffffffffffffffffffffffffff\n      and\n      0x4e78506f3260e366dc9440ee0b4eca2d03aa91536b7605deb90e873d3fc4e5b4\n      mload(0x40)\n      mload(0x40)\n      dup1\n      swap2\n      sub\n      swap1\n      log3\n        /* \"GHSP.sol\":11862:11863  0 */\n      0x00\n        /* \"GHSP.sol\":11839:11851  _whitelister */\n      0x04\n      0x00\n        /* \"GHSP.sol\":11839:11864  _whitelister = address(0) */\n      0x0100\n      exp\n      dup2\n      sload\n      dup2\n      0xffffffffffffffffffffffffffffffffffffffff\n      mul\n      not\n      and\n      swap1\n      dup4\n      0xffffffffffffffffffffffffffffffffffffffff\n      and\n      mul\n      or\n      swap1\n      sstore\n      pop\n        /* \"GHSP.sol\":11710:11871  function renounceWhitelister() external onlyWhitelister {... */\n      jump\t// out\n        /* \"GHSP.sol\":21323:21583  function decreaseAllowance(address spender, uint256 subtractedValue) external returns (bool) {... */\n    tag_96:\n        /* \"GHSP.sol\":21410:21414  bool */\n      0x00\n        /* \"GHSP.sol\":21426:21555  _approve(_msgSender(), spender, _allowances[_msgSender()][spender].sub(subtractedValue, \"GHOSP: decreased allowance below zero\")) */\n      tag_253\n        /* \"GHSP.sol\":21435:21447  _msgSender() */\n      tag_254\n        /* \"GHSP.sol\":21435:21445  _msgSender */\n      tag_132\n        /* \"GHSP.sol\":21435:21447  _msgSender() */\n      jump\t// in\n    tag_254:\n        /* \"GHSP.sol\":21449:21456  spender */\n      dup5\n        /* \"GHSP.sol\":21458:21554  _allowances[_msgSender()][spender].sub(subtractedValue, \"GHOSP: decreased allowance below zero\") */\n      tag_255\n        /* \"GHSP.sol\":21497:21512  subtractedValue */\n      dup6\n        /* \"GHSP.sol\":21458:21554  _allowances[_msgSender()][spender].sub(subtractedValue, \"GHOSP: decreased allowance below zero\") */\n      mload(0x40)\n      dup1\n      0x60\n      add\n      0x40\n      mstore\n      dup1\n      0x25\n      dup2\n      mstore\n      0x20\n      add\n      data_cc591f763fdb06e3b85b0cf43110466d751aa7b792f8c818484f7186cf9bb0bd\n      0x25\n      swap2\n      codecopy\n        /* \"GHSP.sol\":21458:21469  _allowances */\n      0x06\n        /* \"GHSP.sol\":21458:21483  _allowances[_msgSender()] */\n      0x00\n        /* \"GHSP.sol\":21470:21482  _msgSender() */\n      tag_256\n        /* \"GHSP.sol\":21470:21480  _msgSender */\n      tag_132\n        /* \"GHSP.sol\":21470:21482  _msgSender() */\n      jump\t// in\n    tag_256:\n        /* \"GHSP.sol\":21458:21483  _allowances[_msgSender()] */\n      0xffffffffffffffffffffffffffffffffffffffff\n      and\n      0xffffffffffffffffffffffffffffffffffffffff\n      and\n      dup2\n      mstore\n      0x20\n      add\n      swap1\n      dup2\n      mstore\n      0x20\n      add\n      0x00\n      keccak256\n        /* \"GHSP.sol\":21458:21492  _allowances[_msgSender()][spender] */\n      0x00\n        /* \"GHSP.sol\":21484:21491  spender */\n      dup11\n        /* \"GHSP.sol\":21458:21492  _allowances[_msgSender()][spender] */\n      0xffffffffffffffffffffffffffffffffffffffff\n      and\n      0xffffffffffffffffffffffffffffffffffffffff\n      and\n      dup2\n      mstore\n      0x20\n      add\n      swap1\n      dup2\n      mstore\n      0x20\n      add\n      0x00\n      keccak256\n      sload\n        /* \"GHSP.sol\":21458:21496  _allowances[_msgSender()][spender].sub */\n      tag_159\n      swap1\n        /* \"GHSP.sol\":21458:21554  _allowances[_msgSender()][spender].sub(subtractedValue, \"GHOSP: decreased allowance below zero\") */\n      swap3\n      swap2\n      swap1\n      0xffffffff\n      and\n      jump\t// in\n    tag_255:\n        /* \"GHSP.sol\":21426:21434  _approve */\n      tag_133\n        /* \"GHSP.sol\":21426:21555  _approve(_msgSender(), spender, _allowances[_msgSender()][spender].sub(subtractedValue, \"GHOSP: decreased allowance below zero\")) */\n      jump\t// in\n    tag_253:\n        /* \"GHSP.sol\":21572:21576  true */\n      0x01\n        /* \"GHSP.sol\":21565:21576  return true */\n      swap1\n      pop\n        /* \"GHSP.sol\":21323:21583  function decreaseAllowance(address spender, uint256 subtractedValue) external returns (bool) {... */\n      swap3\n      swap2\n      pop\n      pop\n      jump\t// out\n        /* \"GHSP.sol\":11256:11299  WhitelistRound[] public _lgeWhitelistRounds */\n    tag_101:\n      0x01\n      dup2\n      dup2\n      sload\n      dup2\n      lt\n      tag_257\n      jumpi\n      0x00\n      dup1\n      revert\n    tag_257:\n      swap1\n      0x00\n      mstore\n      keccak256(0x00, 0x20)\n      swap1\n      0x04\n      mul\n      add\n      0x00\n      swap2\n      pop\n      swap1\n      pop\n      dup1\n      0x00\n      add\n      sload\n      swap1\n      dup1\n      0x01\n      add\n      sload\n      swap1\n      pop\n      dup3\n      jump\t// out\n        /* \"GHSP.sol\":18826:18992  function transfer(address recipient, uint256 amount) external override returns (bool) {... */\n    tag_106:\n        /* \"GHSP.sol\":18906:18910  bool */\n      0x00\n        /* \"GHSP.sol\":18922:18964  _transfer(_msgSender(), recipient, amount) */\n      tag_260\n        /* \"GHSP.sol\":18932:18944  _msgSender() */\n      tag_261\n        /* \"GHSP.sol\":18932:18942  _msgSender */\n      tag_132\n        /* \"GHSP.sol\":18932:18944  _msgSender() */\n      jump\t// in\n    tag_261:\n        /* \"GHSP.sol\":18946:18955  recipient */\n      dup5\n        /* \"GHSP.sol\":18957:18963  amount */\n      dup5\n        /* \"GHSP.sol\":18922:18931  _transfer */\n      tag_154\n        /* \"GHSP.sol\":18922:18964  _transfer(_msgSender(), recipient, amount) */\n      jump\t// in\n    tag_260:\n        /* \"GHSP.sol\":18981:18985  true */\n      0x01\n        /* \"GHSP.sol\":18974:18985  return true */\n      swap1\n      pop\n        /* \"GHSP.sol\":18826:18992  function transfer(address recipient, uint256 amount) external override returns (bool) {... */\n      swap3\n      swap2\n      pop\n      pop\n      jump\t// out\n        /* \"GHSP.sol\":11377:11404  address public _whitelister */\n    tag_109:\n      0x04\n      0x00\n      swap1\n      sload\n      swap1\n      0x0100\n      exp\n      swap1\n      div\n      0xffffffffffffffffffffffffffffffffffffffff\n      and\n      dup2\n      jump\t// out\n        /* \"GHSP.sol\":11306:11334  uint256 public _lgeTimestamp */\n    tag_112:\n      sload(0x02)\n      dup2\n      jump\t// out\n        /* \"GHSP.sol\":19051:19194  function allowance(address owner, address spender) external view override returns (uint256) {... */\n    tag_117:\n        /* \"GHSP.sol\":19134:19141  uint256 */\n      0x00\n        /* \"GHSP.sol\":19160:19171  _allowances */\n      0x06\n        /* \"GHSP.sol\":19160:19178  _allowances[owner] */\n      0x00\n        /* \"GHSP.sol\":19172:19177  owner */\n      dup5\n        /* \"GHSP.sol\":19160:19178  _allowances[owner] */\n      0xffffffffffffffffffffffffffffffffffffffff\n      and\n      0xffffffffffffffffffffffffffffffffffffffff\n      and\n      dup2\n      mstore\n      0x20\n      add\n      swap1\n      dup2\n      mstore\n      0x20\n      add\n      0x00\n      keccak256\n        /* \"GHSP.sol\":19160:19187  _allowances[owner][spender] */\n      0x00\n        /* \"GHSP.sol\":19179:19186  spender */\n      dup4\n        /* \"GHSP.sol\":19160:19187  _allowances[owner][spender] */\n      0xffffffffffffffffffffffffffffffffffffffff\n      and\n      0xffffffffffffffffffffffffffffffffffffffff\n      and\n      dup2\n      mstore\n      0x20\n      add\n      swap1\n      dup2\n      mstore\n      0x20\n      add\n      0x00\n      keccak256\n      sload\n        /* \"GHSP.sol\":19153:19187  return _allowances[owner][spender] */\n      swap1\n      pop\n        /* \"GHSP.sol\":19051:19194  function allowance(address owner, address spender) external view override returns (uint256) {... */\n      swap3\n      swap2\n      pop\n      pop\n      jump\t// out\n        /* \"GHSP.sol\":5931:6171  function transferOwnership(address newOwner) public virtual onlyOwner {... */\n    tag_121:\n        /* \"GHSP.sol\":5228:5240  _msgSender() */\n      tag_264\n        /* \"GHSP.sol\":5228:5238  _msgSender */\n      tag_132\n        /* \"GHSP.sol\":5228:5240  _msgSender() */\n      jump\t// in\n    tag_264:\n        /* \"GHSP.sol\":5217:5240  owner() == _msgSender() */\n      0xffffffffffffffffffffffffffffffffffffffff\n      and\n        /* \"GHSP.sol\":5217:5224  owner() */\n      tag_265\n        /* \"GHSP.sol\":5217:5222  owner */\n      tag_87\n        /* \"GHSP.sol\":5217:5224  owner() */\n      jump\t// in\n    tag_265:\n        /* \"GHSP.sol\":5217:5240  owner() == _msgSender() */\n      0xffffffffffffffffffffffffffffffffffffffff\n      and\n      eq\n        /* \"GHSP.sol\":5209:5277  require(owner() == _msgSender(), \"Ownable: caller is not the owner\") */\n      tag_266\n      jumpi\n      mload(0x40)\n      0x08c379a000000000000000000000000000000000000000000000000000000000\n      dup2\n      mstore\n      0x04\n      add\n      tag_267\n      swap1\n      tag_236\n      jump\t// in\n    tag_267:\n      mload(0x40)\n      dup1\n      swap2\n      sub\n      swap1\n      revert\n    tag_266:\n        /* \"GHSP.sol\":6039:6040  0 */\n      0x00\n        /* \"GHSP.sol\":6019:6041  newOwner != address(0) */\n      0xffffffffffffffffffffffffffffffffffffffff\n      and\n        /* \"GHSP.sol\":6019:6027  newOwner */\n      dup2\n        /* \"GHSP.sol\":6019:6041  newOwner != address(0) */\n      0xffffffffffffffffffffffffffffffffffffffff\n      and\n      eq\n      iszero\n        /* \"GHSP.sol\":6011:6084  require(newOwner != address(0), \"Ownable: new owner is the zero address\") */\n      tag_269\n      jumpi\n      mload(0x40)\n      0x08c379a000000000000000000000000000000000000000000000000000000000\n      dup2\n      mstore\n      0x04\n      add\n      tag_270\n      swap1\n      tag_271\n      jump\t// in\n    tag_270:\n      mload(0x40)\n      dup1\n      swap2\n      sub\n      swap1\n      revert\n    tag_269:\n        /* \"GHSP.sol\":6128:6136  newOwner */\n      dup1\n        /* \"GHSP.sol\":6099:6137  OwnershipTransferred(_owner, newOwner) */\n      0xffffffffffffffffffffffffffffffffffffffff\n      and\n        /* \"GHSP.sol\":6120:6126  _owner */\n      0x00\n      dup1\n      sload\n      swap1\n      0x0100\n      exp\n      swap1\n      div\n      0xffffffffffffffffffffffffffffffffffffffff\n      and\n        /* \"GHSP.sol\":6099:6137  OwnershipTransferred(_owner, newOwner) */\n      0xffffffffffffffffffffffffffffffffffffffff\n      and\n      0x8be0079c531659141344cd1fd0a4f28419497f9722a3daafe3b4186f6b6457e0\n      mload(0x40)\n      mload(0x40)\n      dup1\n      swap2\n      sub\n      swap1\n      log3\n        /* \"GHSP.sol\":6156:6164  newOwner */\n      dup1\n        /* \"GHSP.sol\":6147:6153  _owner */\n      0x00\n      dup1\n        /* \"GHSP.sol\":6147:6164  _owner = newOwner */\n      0x0100\n      exp\n      dup2\n      sload\n      dup2\n      0xffffffffffffffffffffffffffffffffffffffff\n      mul\n      not\n      and\n      swap1\n      dup4\n      0xffffffffffffffffffffffffffffffffffffffff\n      and\n      mul\n      or\n      swap1\n      sstore\n      pop\n        /* \"GHSP.sol\":5931:6171  function transferOwnership(address newOwner) public virtual onlyOwner {... */\n      pop\n      jump\t// out\n        /* \"GHSP.sol\":3635:3731  function _msgSender() internal view virtual returns (address) {... */\n    tag_132:\n        /* \"GHSP.sol\":3688:3695  address */\n      0x00\n        /* \"GHSP.sol\":3714:3724  msg.sender */\n      caller\n        /* \"GHSP.sol\":3707:3724  return msg.sender */\n      swap1\n      pop\n        /* \"GHSP.sol\":3635:3731  function _msgSender() internal view virtual returns (address) {... */\n      swap1\n      jump\t// out\n        /* \"GHSP.sol\":23001:23341  function _approve(address owner, address spender, uint256 amount) internal {... */\n    tag_133:\n        /* \"GHSP.sol\":23111:23112  0 */\n      0x00\n        /* \"GHSP.sol\":23094:23113  owner != address(0) */\n      0xffffffffffffffffffffffffffffffffffffffff\n      and\n        /* \"GHSP.sol\":23094:23099  owner */\n      dup4\n        /* \"GHSP.sol\":23094:23113  owner != address(0) */\n      0xffffffffffffffffffffffffffffffffffffffff\n      and\n      eq\n      iszero\n        /* \"GHSP.sol\":23086:23154  require(owner != address(0), \"GHOSP: approve from the zero address\") */\n      tag_274\n      jumpi\n      mload(0x40)\n      0x08c379a000000000000000000000000000000000000000000000000000000000\n      dup2\n      mstore\n      0x04\n      add\n      tag_275\n      swap1\n      tag_276\n      jump\t// in\n    tag_275:\n      mload(0x40)\n      dup1\n      swap2\n      sub\n      swap1\n      revert\n    tag_274:\n        /* \"GHSP.sol\":23191:23192  0 */\n      0x00\n        /* \"GHSP.sol\":23172:23193  spender != address(0) */\n      0xffffffffffffffffffffffffffffffffffffffff\n      and\n        /* \"GHSP.sol\":23172:23179  spender */\n      dup3\n        /* \"GHSP.sol\":23172:23193  spender != address(0) */\n      0xffffffffffffffffffffffffffffffffffffffff\n      and\n      eq\n      iszero\n        /* \"GHSP.sol\":23164:23232  require(spender != address(0), \"GHOSP: approve to the zero address\") */\n      tag_277\n      jumpi\n      mload(0x40)\n      0x08c379a000000000000000000000000000000000000000000000000000000000\n      dup2\n      mstore\n      0x04\n      add\n      tag_278\n      swap1\n      tag_279\n      jump\t// in\n    tag_278:\n      mload(0x40)\n      dup1\n      swap2\n      sub\n      swap1\n      revert\n    tag_277:\n        /* \"GHSP.sol\":23281:23287  amount */\n      dup1\n        /* \"GHSP.sol\":23251:23262  _allowances */\n      0x06\n        /* \"GHSP.sol\":23251:23269  _allowances[owner] */\n      0x00\n        /* \"GHSP.sol\":23263:23268  owner */\n      dup6\n        /* \"GHSP.sol\":23251:23269  _allowances[owner] */\n      0xffffffffffffffffffffffffffffffffffffffff\n      and\n      0xffffffffffffffffffffffffffffffffffffffff\n      and\n      dup2\n      mstore\n      0x20\n      add\n      swap1\n      dup2\n      mstore\n      0x20\n      add\n      0x00\n      keccak256\n        /* \"GHSP.sol\":23251:23278  _allowances[owner][spender] */\n      0x00\n        /* \"GHSP.sol\":23270:23277  spender */\n      dup5\n        /* \"GHSP.sol\":23251:23278  _allowances[owner][spender] */\n      0xffffffffffffffffffffffffffffffffffffffff\n      and\n      0xffffffffffffffffffffffffffffffffffffffff\n      and\n      dup2\n      mstore\n      0x20\n      add\n      swap1\n      dup2\n      mstore\n      0x20\n      add\n      0x00\n      keccak256\n        /* \"GHSP.sol\":23251:23287  _allowances[owner][spender] = amount */\n      dup2\n      swap1\n      sstore\n      pop\n        /* \"GHSP.sol\":23318:23325  spender */\n      dup2\n        /* \"GHSP.sol\":23302:23334  Approval(owner, spender, amount) */\n      0xffffffffffffffffffffffffffffffffffffffff\n      and\n        /* \"GHSP.sol\":23311:23316  owner */\n      dup4\n        /* \"GHSP.sol\":23302:23334  Approval(owner, spender, amount) */\n      0xffffffffffffffffffffffffffffffffffffffff\n      and\n      0x8c5be1e5ebec7d5bd14f71427d1e84f3dd0314c0f7b2291e5b200ac8c7c3b925\n        /* \"GHSP.sol\":23327:23333  amount */\n      dup4\n        /* \"GHSP.sol\":23302:23334  Approval(owner, spender, amount) */\n      mload(0x40)\n      tag_280\n      swap2\n      swap1\n      tag_43\n      jump\t// in\n    tag_280:\n      mload(0x40)\n      dup1\n      swap2\n      sub\n      swap1\n      log3\n        /* \"GHSP.sol\":23001:23341  function _approve(address owner, address spender, uint256 amount) internal {... */\n      pop\n      pop\n      pop\n      jump\t// out\n        /* \"GHSP.sol\":22048:22584  function _transfer(address sender, address recipient, uint256 amount) internal {... */\n    tag_154:\n        /* \"GHSP.sol\":22163:22164  0 */\n      0x00\n        /* \"GHSP.sol\":22145:22165  sender != address(0) */\n      0xffffffffffffffffffffffffffffffffffffffff\n      and\n        /* \"GHSP.sol\":22145:22151  sender */\n      dup4\n        /* \"GHSP.sol\":22145:22165  sender != address(0) */\n      0xffffffffffffffffffffffffffffffffffffffff\n      and\n      eq\n      iszero\n        /* \"GHSP.sol\":22137:22207  require(sender != address(0), \"GHOSP: transfer from the zero address\") */\n      tag_282\n      jumpi\n      mload(0x40)\n      0x08c379a000000000000000000000000000000000000000000000000000000000\n      dup2\n      mstore\n      0x04\n      add\n      tag_283\n      swap1\n      tag_284\n      jump\t// in\n    tag_283:\n      mload(0x40)\n      dup1\n      swap2\n      sub\n      swap1\n      revert\n    tag_282:\n        /* \"GHSP.sol\":22246:22247  0 */\n      0x00\n        /* \"GHSP.sol\":22225:22248  recipient != address(0) */\n      0xffffffffffffffffffffffffffffffffffffffff\n      and\n        /* \"GHSP.sol\":22225:22234  recipient */\n      dup3\n        /* \"GHSP.sol\":22225:22248  recipient != address(0) */\n      0xffffffffffffffffffffffffffffffffffffffff\n      and\n      eq\n      iszero\n        /* \"GHSP.sol\":22217:22288  require(recipient != address(0), \"GHOSP: transfer to the zero address\") */\n      tag_285\n      jumpi\n      mload(0x40)\n      0x08c379a000000000000000000000000000000000000000000000000000000000\n      dup2\n      mstore\n      0x04\n      add\n      tag_286\n      swap1\n      tag_287\n      jump\t// in\n    tag_286:\n      mload(0x40)\n      dup1\n      swap2\n      sub\n      swap1\n      revert\n    tag_285:\n        /* \"GHSP.sol\":22307:22352  _applyLGEWhitelist(sender, recipient, amount) */\n      tag_288\n        /* \"GHSP.sol\":22326:22332  sender */\n      dup4\n        /* \"GHSP.sol\":22334:22343  recipient */\n      dup4\n        /* \"GHSP.sol\":22345:22351  amount */\n      dup4\n        /* \"GHSP.sol\":22307:22325  _applyLGEWhitelist */\n      tag_289\n        /* \"GHSP.sol\":22307:22352  _applyLGEWhitelist(sender, recipient, amount) */\n      jump\t// in\n    tag_288:\n        /* \"GHSP.sol\":22391:22462  _balances[sender].sub(amount, \"GHOSP: transfer amount exceeds balance\") */\n      tag_290\n        /* \"GHSP.sol\":22413:22419  amount */\n      dup2\n        /* \"GHSP.sol\":22391:22462  _balances[sender].sub(amount, \"GHOSP: transfer amount exceeds balance\") */\n      mload(0x40)\n      dup1\n      0x60\n      add\n      0x40\n      mstore\n      dup1\n      0x26\n      dup2\n      mstore\n      0x20\n      add\n      data_32bb7eb276b0ce033b051e098a1af5414b708b28c60b53cec3e7de492ad2556f\n      0x26\n      swap2\n      codecopy\n        /* \"GHSP.sol\":22391:22400  _balances */\n      0x05\n        /* \"GHSP.sol\":22391:22408  _balances[sender] */\n      0x00\n        /* \"GHSP.sol\":22401:22407  sender */\n      dup8\n        /* \"GHSP.sol\":22391:22408  _balances[sender] */\n      0xffffffffffffffffffffffffffffffffffffffff\n      and\n      0xffffffffffffffffffffffffffffffffffffffff\n      and\n      dup2\n      mstore\n      0x20\n      add\n      swap1\n      dup2\n      mstore\n      0x20\n      add\n      0x00\n      keccak256\n      sload\n        /* \"GHSP.sol\":22391:22412  _balances[sender].sub */\n      tag_159\n      swap1\n        /* \"GHSP.sol\":22391:22462  _balances[sender].sub(amount, \"GHOSP: transfer amount exceeds balance\") */\n      swap3\n      swap2\n      swap1\n      0xffffffff\n      and\n      jump\t// in\n    tag_290:\n        /* \"GHSP.sol\":22371:22380  _balances */\n      0x05\n        /* \"GHSP.sol\":22371:22388  _balances[sender] */\n      0x00\n        /* \"GHSP.sol\":22381:22387  sender */\n      dup6\n        /* \"GHSP.sol\":22371:22388  _balances[sender] */\n      0xffffffffffffffffffffffffffffffffffffffff\n      and\n      0xffffffffffffffffffffffffffffffffffffffff\n      and\n      dup2\n      mstore\n      0x20\n      add\n      swap1\n      dup2\n      mstore\n      0x20\n      add\n      0x00\n      keccak256\n        /* \"GHSP.sol\":22371:22462  _balances[sender] = _balances[sender].sub(amount, \"GHOSP: transfer amount exceeds balance\") */\n      dup2\n      swap1\n      sstore\n      pop\n        /* \"GHSP.sol\":22495:22527  _balances[recipient].add(amount) */\n      tag_291\n        /* \"GHSP.sol\":22520:22526  amount */\n      dup2\n        /* \"GHSP.sol\":22495:22504  _balances */\n      0x05\n        /* \"GHSP.sol\":22495:22515  _balances[recipient] */\n      0x00\n        /* \"GHSP.sol\":22505:22514  recipient */\n      dup6\n        /* \"GHSP.sol\":22495:22515  _balances[recipient] */\n      0xffffffffffffffffffffffffffffffffffffffff\n      and\n      0xffffffffffffffffffffffffffffffffffffffff\n      and\n      dup2\n      mstore\n      0x20\n      add\n      swap1\n      dup2\n      mstore\n      0x20\n      add\n      0x00\n      keccak256\n      sload\n        /* \"GHSP.sol\":22495:22519  _balances[recipient].add */\n      tag_174\n      swap1\n        /* \"GHSP.sol\":22495:22527  _balances[recipient].add(amount) */\n      swap2\n      swap1\n      0xffffffff\n      and\n      jump\t// in\n    tag_291:\n        /* \"GHSP.sol\":22472:22481  _balances */\n      0x05\n        /* \"GHSP.sol\":22472:22492  _balances[recipient] */\n      0x00\n        /* \"GHSP.sol\":22482:22491  recipient */\n      dup5\n        /* \"GHSP.sol\":22472:22492  _balances[recipient] */\n      0xffffffffffffffffffffffffffffffffffffffff\n      and\n      0xffffffffffffffffffffffffffffffffffffffff\n      and\n      dup2\n      mstore\n      0x20\n      add\n      swap1\n      dup2\n      mstore\n      0x20\n      add\n      0x00\n      keccak256\n        /* \"GHSP.sol\":22472:22527  _balances[recipient] = _balances[recipient].add(amount) */\n      dup2\n      swap1\n      sstore\n      pop\n        /* \"GHSP.sol\":22559:22568  recipient */\n      dup2\n        /* \"GHSP.sol\":22542:22577  Transfer(sender, recipient, amount) */\n      0xffffffffffffffffffffffffffffffffffffffff\n      and\n        /* \"GHSP.sol\":22551:22557  sender */\n      dup4\n        /* \"GHSP.sol\":22542:22577  Transfer(sender, recipient, amount) */\n      0xffffffffffffffffffffffffffffffffffffffff\n      and\n      0xddf252ad1be2c89b69c2b068fc378daa952ba7f163c4a11628f55a4df523b3ef\n        /* \"GHSP.sol\":22570:22576  amount */\n      dup4\n        /* \"GHSP.sol\":22542:22577  Transfer(sender, recipient, amount) */\n      mload(0x40)\n      tag_292\n      swap2\n      swap1\n      tag_43\n      jump\t// in\n    tag_292:\n      mload(0x40)\n      dup1\n      swap2\n      sub\n      swap1\n      log3\n        /* \"GHSP.sol\":22048:22584  function _transfer(address sender, address recipient, uint256 amount) internal {... */\n      pop\n      pop\n      pop\n      jump\t// out\n        /* \"GHSP.sol\":7762:7935  function sub(uint256 a, uint256 b, string memory errorMessage) internal pure returns (uint256) {... */\n    tag_159:\n        /* \"GHSP.sol\":7848:7855  uint256 */\n      0x00\n        /* \"GHSP.sol\":7876:7877  a */\n      dup4\n        /* \"GHSP.sol\":7871:7872  b */\n      dup4\n        /* \"GHSP.sol\":7871:7877  b <= a */\n      gt\n      iszero\n        /* \"GHSP.sol\":7879:7891  errorMessage */\n      dup3\n        /* \"GHSP.sol\":7863:7892  require(b <= a, errorMessage) */\n      swap1\n      tag_294\n      jumpi\n      mload(0x40)\n      0x08c379a000000000000000000000000000000000000000000000000000000000\n      dup2\n      mstore\n      0x04\n      add\n      tag_295\n      swap2\n      swap1\n      tag_33\n      jump\t// in\n    tag_295:\n      mload(0x40)\n      dup1\n      swap2\n      sub\n      swap1\n      revert\n    tag_294:\n      pop\n        /* \"GHSP.sol\":7898:7907  uint256 c */\n      0x00\n        /* \"GHSP.sol\":7914:7915  b */\n      dup4\n        /* \"GHSP.sol\":7910:7911  a */\n      dup6\n        /* \"GHSP.sol\":7910:7915  a - b */\n      tag_296\n      swap2\n      swap1\n      tag_297\n      jump\t// in\n    tag_296:\n        /* \"GHSP.sol\":7898:7915  uint256 c = a - b */\n      swap1\n      pop\n        /* \"GHSP.sol\":7929:7930  c */\n      dup1\n        /* \"GHSP.sol\":7922:7930  return c */\n      swap2\n      pop\n      pop\n        /* \"GHSP.sol\":7762:7935  function sub(uint256 a, uint256 b, string memory errorMessage) internal pure returns (uint256) {... */\n      swap4\n      swap3\n      pop\n      pop\n      pop\n      jump\t// out\n        /* \"GHSP.sol\":12014:12276  function _transferWhitelister(address newWhitelister) internal {... */\n    tag_167:\n        /* \"GHSP.sol\":12121:12122  0 */\n      0x00\n        /* \"GHSP.sol\":12095:12123  newWhitelister != address(0) */\n      0xffffffffffffffffffffffffffffffffffffffff\n      and\n        /* \"GHSP.sol\":12095:12109  newWhitelister */\n      dup2\n        /* \"GHSP.sol\":12095:12123  newWhitelister != address(0) */\n      0xffffffffffffffffffffffffffffffffffffffff\n      and\n      eq\n      iszero\n        /* \"GHSP.sol\":12087:12163  require(newWhitelister != address(0), \"New whitelister is the zero address\") */\n      tag_299\n      jumpi\n      mload(0x40)\n      0x08c379a000000000000000000000000000000000000000000000000000000000\n      dup2\n      mstore\n      0x04\n      add\n      tag_300\n      swap1\n      tag_301\n      jump\t// in\n    tag_300:\n      mload(0x40)\n      dup1\n      swap2\n      sub\n      swap1\n      revert\n    tag_299:\n        /* \"GHSP.sol\":12215:12229  newWhitelister */\n      dup1\n        /* \"GHSP.sol\":12178:12230  WhitelisterTransferred(_whitelister, newWhitelister) */\n      0xffffffffffffffffffffffffffffffffffffffff\n      and\n        /* \"GHSP.sol\":12201:12213  _whitelister */\n      0x04\n      0x00\n      swap1\n      sload\n      swap1\n      0x0100\n      exp\n      swap1\n      div\n      0xffffffffffffffffffffffffffffffffffffffff\n      and\n        /* \"GHSP.sol\":12178:12230  WhitelisterTransferred(_whitelister, newWhitelister) */\n      0xffffffffffffffffffffffffffffffffffffffff\n      and\n      0x4e78506f3260e366dc9440ee0b4eca2d03aa91536b7605deb90e873d3fc4e5b4\n      mload(0x40)\n      mload(0x40)\n      dup1\n      swap2\n      sub\n      swap1\n      log3\n        /* \"GHSP.sol\":12255:12269  newWhitelister */\n      dup1\n        /* \"GHSP.sol\":12240:12252  _whitelister */\n      0x04\n      0x00\n        /* \"GHSP.sol\":12240:12269  _whitelister = newWhitelister */\n      0x0100\n      exp\n      dup2\n      sload\n      dup2\n      0xffffffffffffffffffffffffffffffffffffffff\n      mul\n      not\n      and\n      swap1\n      dup4\n      0xffffffffffffffffffffffffffffffffffffffff\n      and\n      mul\n      or\n      swap1\n      sstore\n      pop\n        /* \"GHSP.sol\":12014:12276  function _transferWhitelister(address newWhitelister) internal {... */\n      pop\n      jump\t// out\n        /* \"GHSP.sol\":6964:7126  function add(uint256 a, uint256 b) internal pure returns (uint256) {... */\n    tag_174:\n        /* \"GHSP.sol\":7022:7029  uint256 */\n      0x00\n        /* \"GHSP.sol\":7037:7046  uint256 c */\n      dup1\n        /* \"GHSP.sol\":7053:7054  b */\n      dup3\n        /* \"GHSP.sol\":7049:7050  a */\n      dup5\n        /* \"GHSP.sol\":7049:7054  a + b */\n      tag_303\n      swap2\n      swap1\n      tag_145\n      jump\t// in\n    tag_303:\n        /* \"GHSP.sol\":7037:7054  uint256 c = a + b */\n      swap1\n      pop\n        /* \"GHSP.sol\":7073:7074  a */\n      dup4\n        /* \"GHSP.sol\":7068:7069  c */\n      dup2\n        /* \"GHSP.sol\":7068:7074  c >= a */\n      lt\n      iszero\n        /* \"GHSP.sol\":7060:7106  require(c >= a, \"SafeMath: addition overflow\") */\n      tag_304\n      jumpi\n      mload(0x40)\n      0x08c379a000000000000000000000000000000000000000000000000000000000\n      dup2\n      mstore\n      0x04\n      add\n      tag_305\n      swap1\n      tag_306\n      jump\t// in\n    tag_305:\n      mload(0x40)\n      dup1\n      swap2\n      sub\n      swap1\n      revert\n    tag_304:\n        /* \"GHSP.sol\":7120:7121  c */\n      dup1\n        /* \"GHSP.sol\":7113:7121  return c */\n      swap2\n      pop\n      pop\n        /* \"GHSP.sol\":6964:7126  function add(uint256 a, uint256 b) internal pure returns (uint256) {... */\n      swap3\n      swap2\n      pop\n      pop\n      jump\t// out\n        /* \"GHSP.sol\":15871:17030  function _applyLGEWhitelist(... */\n    tag_289:\n        /* \"GHSP.sol\":16030:16031  0 */\n      0x00\n        /* \"GHSP.sol\":16003:16032  _lgePairAddress == address(0) */\n      0xffffffffffffffffffffffffffffffffffffffff\n      and\n        /* \"GHSP.sol\":16003:16018  _lgePairAddress */\n      0x03\n      0x00\n      swap1\n      sload\n      swap1\n      0x0100\n      exp\n      swap1\n      div\n      0xffffffffffffffffffffffffffffffffffffffff\n      and\n        /* \"GHSP.sol\":16003:16032  _lgePairAddress == address(0) */\n      0xffffffffffffffffffffffffffffffffffffffff\n      and\n      eq\n        /* \"GHSP.sol\":16003:16067  _lgePairAddress == address(0) || _lgeWhitelistRounds.length == 0 */\n      dup1\n      tag_308\n      jumpi\n      pop\n        /* \"GHSP.sol\":16066:16067  0 */\n      0x00\n        /* \"GHSP.sol\":16036:16055  _lgeWhitelistRounds */\n      0x01\n        /* \"GHSP.sol\":16036:16062  _lgeWhitelistRounds.length */\n      dup1\n      sload\n      swap1\n      pop\n        /* \"GHSP.sol\":16036:16067  _lgeWhitelistRounds.length == 0 */\n      eq\n        /* \"GHSP.sol\":16003:16067  _lgePairAddress == address(0) || _lgeWhitelistRounds.length == 0 */\n    tag_308:\n        /* \"GHSP.sol\":15999:16076  if (_lgePairAddress == address(0) || _lgeWhitelistRounds.length == 0) return; */\n      iszero\n      tag_309\n      jumpi\n        /* \"GHSP.sol\":16069:16076  return; */\n      jump(tag_307)\n        /* \"GHSP.sol\":15999:16076  if (_lgePairAddress == address(0) || _lgeWhitelistRounds.length == 0) return; */\n    tag_309:\n        /* \"GHSP.sol\":16107:16108  0 */\n      0x00\n        /* \"GHSP.sol\":16090:16103  _lgeTimestamp */\n      sload(0x02)\n        /* \"GHSP.sol\":16090:16108  _lgeTimestamp == 0 */\n      eq\n        /* \"GHSP.sol\":16090:16137  _lgeTimestamp == 0 && sender != _lgePairAddress */\n      dup1\n      iszero\n      tag_310\n      jumpi\n      pop\n        /* \"GHSP.sol\":16122:16137  _lgePairAddress */\n      0x03\n      0x00\n      swap1\n      sload\n      swap1\n      0x0100\n      exp\n      swap1\n      div\n      0xffffffffffffffffffffffffffffffffffffffff\n      and\n        /* \"GHSP.sol\":16112:16137  sender != _lgePairAddress */\n      0xffffffffffffffffffffffffffffffffffffffff\n      and\n        /* \"GHSP.sol\":16112:16118  sender */\n      dup4\n        /* \"GHSP.sol\":16112:16137  sender != _lgePairAddress */\n      0xffffffffffffffffffffffffffffffffffffffff\n      and\n      eq\n      iszero\n        /* \"GHSP.sol\":16090:16137  _lgeTimestamp == 0 && sender != _lgePairAddress */\n    tag_310:\n        /* \"GHSP.sol\":16090:16169  _lgeTimestamp == 0 && sender != _lgePairAddress && recipient == _lgePairAddress */\n      dup1\n      iszero\n      tag_311\n      jumpi\n      pop\n        /* \"GHSP.sol\":16154:16169  _lgePairAddress */\n      0x03\n      0x00\n      swap1\n      sload\n      swap1\n      0x0100\n      exp\n      swap1\n      div\n      0xffffffffffffffffffffffffffffffffffffffff\n      and\n        /* \"GHSP.sol\":16141:16169  recipient == _lgePairAddress */\n      0xffffffffffffffffffffffffffffffffffffffff\n      and\n        /* \"GHSP.sol\":16141:16150  recipient */\n      dup3\n        /* \"GHSP.sol\":16141:16169  recipient == _lgePairAddress */\n      0xffffffffffffffffffffffffffffffffffffffff\n      and\n      eq\n        /* \"GHSP.sol\":16090:16169  _lgeTimestamp == 0 && sender != _lgePairAddress && recipient == _lgePairAddress */\n    tag_311:\n        /* \"GHSP.sol\":16090:16183  _lgeTimestamp == 0 && sender != _lgePairAddress && recipient == _lgePairAddress && amount > 0 */\n      dup1\n      iszero\n      tag_312\n      jumpi\n      pop\n        /* \"GHSP.sol\":16182:16183  0 */\n      0x00\n        /* \"GHSP.sol\":16173:16179  amount */\n      dup2\n        /* \"GHSP.sol\":16173:16183  amount > 0 */\n      gt\n        /* \"GHSP.sol\":16090:16183  _lgeTimestamp == 0 && sender != _lgePairAddress && recipient == _lgePairAddress && amount > 0 */\n    tag_312:\n        /* \"GHSP.sol\":16086:16228  if (_lgeTimestamp == 0 && sender != _lgePairAddress && recipient == _lgePairAddress && amount > 0)... */\n      iszero\n      tag_313\n      jumpi\n        /* \"GHSP.sol\":16213:16228  block.timestamp */\n      timestamp\n        /* \"GHSP.sol\":16197:16210  _lgeTimestamp */\n      0x02\n        /* \"GHSP.sol\":16197:16228  _lgeTimestamp = block.timestamp */\n      dup2\n      swap1\n      sstore\n      pop\n        /* \"GHSP.sol\":16086:16228  if (_lgeTimestamp == 0 && sender != _lgePairAddress && recipient == _lgePairAddress && amount > 0)... */\n    tag_313:\n        /* \"GHSP.sol\":16253:16268  _lgePairAddress */\n      0x03\n      0x00\n      swap1\n      sload\n      swap1\n      0x0100\n      exp\n      swap1\n      div\n      0xffffffffffffffffffffffffffffffffffffffff\n      and\n        /* \"GHSP.sol\":16243:16268  sender == _lgePairAddress */\n      0xffffffffffffffffffffffffffffffffffffffff\n      and\n        /* \"GHSP.sol\":16243:16249  sender */\n      dup4\n        /* \"GHSP.sol\":16243:16268  sender == _lgePairAddress */\n      0xffffffffffffffffffffffffffffffffffffffff\n      and\n      eq\n        /* \"GHSP.sol\":16243:16300  sender == _lgePairAddress && recipient != _lgePairAddress */\n      dup1\n      iszero\n      tag_314\n      jumpi\n      pop\n        /* \"GHSP.sol\":16285:16300  _lgePairAddress */\n      0x03\n      0x00\n      swap1\n      sload\n      swap1\n      0x0100\n      exp\n      swap1\n      div\n      0xffffffffffffffffffffffffffffffffffffffff\n      and\n        /* \"GHSP.sol\":16272:16300  recipient != _lgePairAddress */\n      0xffffffffffffffffffffffffffffffffffffffff\n      and\n        /* \"GHSP.sol\":16272:16281  recipient */\n      dup3\n        /* \"GHSP.sol\":16272:16300  recipient != _lgePairAddress */\n      0xffffffffffffffffffffffffffffffffffffffff\n      and\n      eq\n      iszero\n        /* \"GHSP.sol\":16243:16300  sender == _lgePairAddress && recipient != _lgePairAddress */\n    tag_314:\n        /* \"GHSP.sol\":16239:17024  if (sender == _lgePairAddress && recipient != _lgePairAddress) {... */\n      iszero\n      tag_315\n      jumpi\n        /* \"GHSP.sol\":16339:16360  uint256 wlRoundNumber */\n      0x00\n        /* \"GHSP.sol\":16374:16396  getLGEWhitelistRound() */\n      tag_316\n        /* \"GHSP.sol\":16374:16394  getLGEWhitelistRound */\n      tag_45\n        /* \"GHSP.sol\":16374:16396  getLGEWhitelistRound() */\n      jump\t// in\n    tag_316:\n        /* \"GHSP.sol\":16338:16396  (uint256 wlRoundNumber, , , , , ) = getLGEWhitelistRound() */\n      pop\n      pop\n      pop\n      pop\n      pop\n      swap1\n      pop\n        /* \"GHSP.sol\":16431:16432  0 */\n      0x00\n        /* \"GHSP.sol\":16415:16428  wlRoundNumber */\n      dup2\n        /* \"GHSP.sol\":16415:16432  wlRoundNumber > 0 */\n      gt\n        /* \"GHSP.sol\":16411:17014  if (wlRoundNumber > 0) {... */\n      iszero\n      tag_317\n      jumpi\n        /* \"GHSP.sol\":16452:16482  WhitelistRound storage wlRound */\n      0x00\n        /* \"GHSP.sol\":16485:16504  _lgeWhitelistRounds */\n      0x01\n        /* \"GHSP.sol\":16521:16522  1 */\n      dup1\n        /* \"GHSP.sol\":16505:16518  wlRoundNumber */\n      dup4\n        /* \"GHSP.sol\":16505:16522  wlRoundNumber - 1 */\n      tag_318\n      swap2\n      swap1\n      tag_297\n      jump\t// in\n    tag_318:\n        /* \"GHSP.sol\":16485:16523  _lgeWhitelistRounds[wlRoundNumber - 1] */\n      dup2\n      sload\n      dup2\n      lt\n      tag_319\n      jumpi\n      tag_320\n      tag_142\n      jump\t// in\n    tag_320:\n    tag_319:\n      swap1\n      0x00\n      mstore\n      keccak256(0x00, 0x20)\n      swap1\n      0x04\n      mul\n      add\n        /* \"GHSP.sol\":16452:16523  WhitelistRound storage wlRound = _lgeWhitelistRounds[wlRoundNumber - 1] */\n      swap1\n      pop\n        /* \"GHSP.sol\":16550:16557  wlRound */\n      dup1\n        /* \"GHSP.sol\":16550:16567  wlRound.addresses */\n      0x02\n      add\n        /* \"GHSP.sol\":16550:16578  wlRound.addresses[recipient] */\n      0x00\n        /* \"GHSP.sol\":16568:16577  recipient */\n      dup6\n        /* \"GHSP.sol\":16550:16578  wlRound.addresses[recipient] */\n      0xffffffffffffffffffffffffffffffffffffffff\n      and\n      0xffffffffffffffffffffffffffffffffffffffff\n      and\n      dup2\n      mstore\n      0x20\n      add\n      swap1\n      dup2\n      mstore\n      0x20\n      add\n      0x00\n      keccak256\n      0x00\n      swap1\n      sload\n      swap1\n      0x0100\n      exp\n      swap1\n      div\n      0xff\n      and\n        /* \"GHSP.sol\":16542:16613  require(wlRound.addresses[recipient], \"LGE - Buyer is not whitelisted\") */\n      tag_322\n      jumpi\n      mload(0x40)\n      0x08c379a000000000000000000000000000000000000000000000000000000000\n      dup2\n      mstore\n      0x04\n      add\n      tag_323\n      swap1\n      tag_324\n      jump\t// in\n    tag_323:\n      mload(0x40)\n      dup1\n      swap2\n      sub\n      swap1\n      revert\n    tag_322:\n        /* \"GHSP.sol\":16632:16655  uint256 amountRemaining */\n      0x00\n        /* \"GHSP.sol\":16713:16720  wlRound */\n      dup2\n        /* \"GHSP.sol\":16713:16730  wlRound.amountMax */\n      0x01\n      add\n      sload\n        /* \"GHSP.sol\":16682:16689  wlRound */\n      dup3\n        /* \"GHSP.sol\":16682:16699  wlRound.purchased */\n      0x03\n      add\n        /* \"GHSP.sol\":16682:16710  wlRound.purchased[recipient] */\n      0x00\n        /* \"GHSP.sol\":16700:16709  recipient */\n      dup8\n        /* \"GHSP.sol\":16682:16710  wlRound.purchased[recipient] */\n      0xffffffffffffffffffffffffffffffffffffffff\n      and\n      0xffffffffffffffffffffffffffffffffffffffff\n      and\n      dup2\n      mstore\n      0x20\n      add\n      swap1\n      dup2\n      mstore\n      0x20\n      add\n      0x00\n      keccak256\n      sload\n        /* \"GHSP.sol\":16682:16730  wlRound.purchased[recipient] < wlRound.amountMax */\n      lt\n        /* \"GHSP.sol\":16678:16818  if (wlRound.purchased[recipient] < wlRound.amountMax)... */\n      iszero\n      tag_325\n      jumpi\n        /* \"GHSP.sol\":16790:16797  wlRound */\n      dup2\n        /* \"GHSP.sol\":16790:16807  wlRound.purchased */\n      0x03\n      add\n        /* \"GHSP.sol\":16790:16818  wlRound.purchased[recipient] */\n      0x00\n        /* \"GHSP.sol\":16808:16817  recipient */\n      dup7\n        /* \"GHSP.sol\":16790:16818  wlRound.purchased[recipient] */\n      0xffffffffffffffffffffffffffffffffffffffff\n      and\n      0xffffffffffffffffffffffffffffffffffffffff\n      and\n      dup2\n      mstore\n      0x20\n      add\n      swap1\n      dup2\n      mstore\n      0x20\n      add\n      0x00\n      keccak256\n      sload\n        /* \"GHSP.sol\":16770:16777  wlRound */\n      dup3\n        /* \"GHSP.sol\":16770:16787  wlRound.amountMax */\n      0x01\n      add\n      sload\n        /* \"GHSP.sol\":16770:16818  wlRound.amountMax - wlRound.purchased[recipient] */\n      tag_326\n      swap2\n      swap1\n      tag_297\n      jump\t// in\n    tag_326:\n        /* \"GHSP.sol\":16752:16818  amountRemaining = wlRound.amountMax - wlRound.purchased[recipient] */\n      swap1\n      pop\n        /* \"GHSP.sol\":16678:16818  if (wlRound.purchased[recipient] < wlRound.amountMax)... */\n    tag_325:\n        /* \"GHSP.sol\":16855:16870  amountRemaining */\n      dup1\n        /* \"GHSP.sol\":16845:16851  amount */\n      dup5\n        /* \"GHSP.sol\":16845:16870  amount <= amountRemaining */\n      gt\n      iszero\n        /* \"GHSP.sol\":16837:16913  require(amount <= amountRemaining, \"LGE - Amount exceeds whitelist maximum\") */\n      tag_327\n      jumpi\n      mload(0x40)\n      0x08c379a000000000000000000000000000000000000000000000000000000000\n      dup2\n      mstore\n      0x04\n      add\n      tag_328\n      swap1\n      tag_329\n      jump\t// in\n    tag_328:\n      mload(0x40)\n      dup1\n      swap2\n      sub\n      swap1\n      revert\n    tag_327:\n        /* \"GHSP.sol\":16993:16999  amount */\n      dup4\n        /* \"GHSP.sol\":16962:16969  wlRound */\n      dup3\n        /* \"GHSP.sol\":16962:16979  wlRound.purchased */\n      0x03\n      add\n        /* \"GHSP.sol\":16962:16990  wlRound.purchased[recipient] */\n      0x00\n        /* \"GHSP.sol\":16980:16989  recipient */\n      dup8\n        /* \"GHSP.sol\":16962:16990  wlRound.purchased[recipient] */\n      0xffffffffffffffffffffffffffffffffffffffff\n      and\n      0xffffffffffffffffffffffffffffffffffffffff\n      and\n      dup2\n      mstore\n      0x20\n      add\n      swap1\n      dup2\n      mstore\n      0x20\n      add\n      0x00\n      keccak256\n      sload\n        /* \"GHSP.sol\":16962:16999  wlRound.purchased[recipient] + amount */\n      tag_330\n      swap2\n      swap1\n      tag_145\n      jump\t// in\n    tag_330:\n        /* \"GHSP.sol\":16931:16938  wlRound */\n      dup3\n        /* \"GHSP.sol\":16931:16948  wlRound.purchased */\n      0x03\n      add\n        /* \"GHSP.sol\":16931:16959  wlRound.purchased[recipient] */\n      0x00\n        /* \"GHSP.sol\":16949:16958  recipient */\n      dup8\n        /* \"GHSP.sol\":16931:16959  wlRound.purchased[recipient] */\n      0xffffffffffffffffffffffffffffffffffffffff\n      and\n      0xffffffffffffffffffffffffffffffffffffffff\n      and\n      dup2\n      mstore\n      0x20\n      add\n      swap1\n      dup2\n      mstore\n      0x20\n      add\n      0x00\n      keccak256\n        /* \"GHSP.sol\":16931:16999  wlRound.purchased[recipient] = wlRound.purchased[recipient] + amount */\n      dup2\n      swap1\n      sstore\n      pop\n        /* \"GHSP.sol\":16434:17014  {... */\n      pop\n      pop\n        /* \"GHSP.sol\":16411:17014  if (wlRoundNumber > 0) {... */\n    tag_317:\n        /* \"GHSP.sol\":16302:17024  {... */\n      pop\n        /* \"GHSP.sol\":16239:17024  if (sender == _lgePairAddress && recipient != _lgePairAddress) {... */\n    tag_315:\n        /* \"GHSP.sol\":15871:17030  function _applyLGEWhitelist(... */\n    tag_307:\n      pop\n      pop\n      pop\n      jump\t// out\n    tag_220:\n      pop\n      dup1\n      sload\n      0x00\n      dup3\n      sstore\n      0x04\n      mul\n      swap1\n      0x00\n      mstore\n      keccak256(0x00, 0x20)\n      swap1\n      dup2\n      add\n      swap1\n      tag_332\n      swap2\n      swap1\n      tag_333\n      jump\t// in\n    tag_332:\n      pop\n      jump\t// out\n    tag_333:\n    tag_334:\n      dup1\n      dup3\n      gt\n      iszero\n      tag_335\n      jumpi\n      0x00\n      dup1\n      dup3\n      add\n      0x00\n      swap1\n      sstore\n      0x01\n      dup3\n      add\n      0x00\n      swap1\n      sstore\n      pop\n      0x04\n      add\n      jump(tag_334)\n    tag_335:\n      pop\n      swap1\n      jump\t// out\n        /* \"#utility.yul\":7:146   */\n    tag_337:\n        /* \"#utility.yul\":53:58   */\n      0x00\n        /* \"#utility.yul\":91:97   */\n      dup2\n        /* \"#utility.yul\":78:98   */\n      calldataload\n        /* \"#utility.yul\":69:98   */\n      swap1\n      pop\n        /* \"#utility.yul\":107:140   */\n      tag_339\n        /* \"#utility.yul\":134:139   */\n      dup2\n        /* \"#utility.yul\":107:140   */\n      tag_340\n      jump\t// in\n    tag_339:\n        /* \"#utility.yul\":7:146   */\n      swap3\n      swap2\n      pop\n      pop\n      jump\t// out\n        /* \"#utility.yul\":169:737   */\n    tag_341:\n        /* \"#utility.yul\":242:250   */\n      0x00\n        /* \"#utility.yul\":252:258   */\n      dup1\n        /* \"#utility.yul\":302:305   */\n      dup4\n        /* \"#utility.yul\":295:299   */\n      0x1f\n        /* \"#utility.yul\":287:293   */\n      dup5\n        /* \"#utility.yul\":283:300   */\n      add\n        /* \"#utility.yul\":279:306   */\n      slt\n        /* \"#utility.yul\":269:391   */\n      tag_343\n      jumpi\n        /* \"#utility.yul\":310:389   */\n      tag_344\n      tag_345\n      jump\t// in\n    tag_344:\n        /* \"#utility.yul\":269:391   */\n    tag_343:\n        /* \"#utility.yul\":423:429   */\n      dup3\n        /* \"#utility.yul\":410:430   */\n      calldataload\n        /* \"#utility.yul\":400:430   */\n      swap1\n      pop\n        /* \"#utility.yul\":453:471   */\n      0xffffffffffffffff\n        /* \"#utility.yul\":445:451   */\n      dup2\n        /* \"#utility.yul\":442:472   */\n      gt\n        /* \"#utility.yul\":439:556   */\n      iszero\n      tag_346\n      jumpi\n        /* \"#utility.yul\":475:554   */\n      tag_347\n      tag_348\n      jump\t// in\n    tag_347:\n        /* \"#utility.yul\":439:556   */\n    tag_346:\n        /* \"#utility.yul\":589:593   */\n      0x20\n        /* \"#utility.yul\":581:587   */\n      dup4\n        /* \"#utility.yul\":577:594   */\n      add\n        /* \"#utility.yul\":565:594   */\n      swap2\n      pop\n        /* \"#utility.yul\":643:646   */\n      dup4\n        /* \"#utility.yul\":635:639   */\n      0x20\n        /* \"#utility.yul\":627:633   */\n      dup3\n        /* \"#utility.yul\":623:640   */\n      mul\n        /* \"#utility.yul\":613:621   */\n      dup4\n        /* \"#utility.yul\":609:641   */\n      add\n        /* \"#utility.yul\":606:647   */\n      gt\n        /* \"#utility.yul\":603:731   */\n      iszero\n      tag_349\n      jumpi\n        /* \"#utility.yul\":650:729   */\n      tag_350\n      tag_351\n      jump\t// in\n    tag_350:\n        /* \"#utility.yul\":603:731   */\n    tag_349:\n        /* \"#utility.yul\":169:737   */\n      swap3\n      pop\n      swap3\n      swap1\n      pop\n      jump\t// out\n        /* \"#utility.yul\":760:1328   */\n    tag_352:\n        /* \"#utility.yul\":833:841   */\n      0x00\n        /* \"#utility.yul\":843:849   */\n      dup1\n        /* \"#utility.yul\":893:896   */\n      dup4\n        /* \"#utility.yul\":886:890   */\n      0x1f\n        /* \"#utility.yul\":878:884   */\n      dup5\n        /* \"#utility.yul\":874:891   */\n      add\n        /* \"#utility.yul\":870:897   */\n      slt\n        /* \"#utility.yul\":860:982   */\n      tag_354\n      jumpi\n        /* \"#utility.yul\":901:980   */\n      tag_355\n      tag_345\n      jump\t// in\n    tag_355:\n        /* \"#utility.yul\":860:982   */\n    tag_354:\n        /* \"#utility.yul\":1014:1020   */\n      dup3\n        /* \"#utility.yul\":1001:1021   */\n      calldataload\n        /* \"#utility.yul\":991:1021   */\n      swap1\n      pop\n        /* \"#utility.yul\":1044:1062   */\n      0xffffffffffffffff\n        /* \"#utility.yul\":1036:1042   */\n      dup2\n        /* \"#utility.yul\":1033:1063   */\n      gt\n        /* \"#utility.yul\":1030:1147   */\n      iszero\n      tag_356\n      jumpi\n        /* \"#utility.yul\":1066:1145   */\n      tag_357\n      tag_348\n      jump\t// in\n    tag_357:\n        /* \"#utility.yul\":1030:1147   */\n    tag_356:\n        /* \"#utility.yul\":1180:1184   */\n      0x20\n        /* \"#utility.yul\":1172:1178   */\n      dup4\n        /* \"#utility.yul\":1168:1185   */\n      add\n        /* \"#utility.yul\":1156:1185   */\n      swap2\n      pop\n        /* \"#utility.yul\":1234:1237   */\n      dup4\n        /* \"#utility.yul\":1226:1230   */\n      0x20\n        /* \"#utility.yul\":1218:1224   */\n      dup3\n        /* \"#utility.yul\":1214:1231   */\n      mul\n        /* \"#utility.yul\":1204:1212   */\n      dup4\n        /* \"#utility.yul\":1200:1232   */\n      add\n        /* \"#utility.yul\":1197:1238   */\n      gt\n        /* \"#utility.yul\":1194:1322   */\n      iszero\n      tag_358\n      jumpi\n        /* \"#utility.yul\":1241:1320   */\n      tag_359\n      tag_351\n      jump\t// in\n    tag_359:\n        /* \"#utility.yul\":1194:1322   */\n    tag_358:\n        /* \"#utility.yul\":760:1328   */\n      swap3\n      pop\n      swap3\n      swap1\n      pop\n      jump\t// out\n        /* \"#utility.yul\":1334:1467   */\n    tag_360:\n        /* \"#utility.yul\":1377:1382   */\n      0x00\n        /* \"#utility.yul\":1415:1421   */\n      dup2\n        /* \"#utility.yul\":1402:1422   */\n      calldataload\n        /* \"#utility.yul\":1393:1422   */\n      swap1\n      pop\n        /* \"#utility.yul\":1431:1461   */\n      tag_362\n        /* \"#utility.yul\":1455:1460   */\n      dup2\n        /* \"#utility.yul\":1431:1461   */\n      tag_363\n      jump\t// in\n    tag_362:\n        /* \"#utility.yul\":1334:1467   */\n      swap3\n      swap2\n      pop\n      pop\n      jump\t// out\n        /* \"#utility.yul\":1473:1612   */\n    tag_364:\n        /* \"#utility.yul\":1519:1524   */\n      0x00\n        /* \"#utility.yul\":1557:1563   */\n      dup2\n        /* \"#utility.yul\":1544:1564   */\n      calldataload\n        /* \"#utility.yul\":1535:1564   */\n      swap1\n      pop\n        /* \"#utility.yul\":1573:1606   */\n      tag_366\n        /* \"#utility.yul\":1600:1605   */\n      dup2\n        /* \"#utility.yul\":1573:1606   */\n      tag_367\n      jump\t// in\n    tag_366:\n        /* \"#utility.yul\":1473:1612   */\n      swap3\n      swap2\n      pop\n      pop\n      jump\t// out\n        /* \"#utility.yul\":1618:1947   */\n    tag_55:\n        /* \"#utility.yul\":1677:1683   */\n      0x00\n        /* \"#utility.yul\":1726:1728   */\n      0x20\n        /* \"#utility.yul\":1714:1723   */\n      dup3\n        /* \"#utility.yul\":1705:1712   */\n      dup5\n        /* \"#utility.yul\":1701:1724   */\n      sub\n        /* \"#utility.yul\":1697:1729   */\n      slt\n        /* \"#utility.yul\":1694:1813   */\n      iszero\n      tag_369\n      jumpi\n        /* \"#utility.yul\":1732:1811   */\n      tag_370\n      tag_371\n      jump\t// in\n    tag_370:\n        /* \"#utility.yul\":1694:1813   */\n    tag_369:\n        /* \"#utility.yul\":1852:1853   */\n      0x00\n        /* \"#utility.yul\":1877:1930   */\n      tag_372\n        /* \"#utility.yul\":1922:1929   */\n      dup5\n        /* \"#utility.yul\":1913:1919   */\n      dup3\n        /* \"#utility.yul\":1902:1911   */\n      dup6\n        /* \"#utility.yul\":1898:1920   */\n      add\n        /* \"#utility.yul\":1877:1930   */\n      tag_337\n      jump\t// in\n    tag_372:\n        /* \"#utility.yul\":1867:1930   */\n      swap2\n      pop\n        /* \"#utility.yul\":1823:1940   */\n      pop\n        /* \"#utility.yul\":1618:1947   */\n      swap3\n      swap2\n      pop\n      pop\n      jump\t// out\n        /* \"#utility.yul\":1953:2427   */\n    tag_116:\n        /* \"#utility.yul\":2021:2027   */\n      0x00\n        /* \"#utility.yul\":2029:2035   */\n      dup1\n        /* \"#utility.yul\":2078:2080   */\n      0x40\n        /* \"#utility.yul\":2066:2075   */\n      dup4\n        /* \"#utility.yul\":2057:2064   */\n      dup6\n        /* \"#utility.yul\":2053:2076   */\n      sub\n        /* \"#utility.yul\":2049:2081   */\n      slt\n        /* \"#utility.yul\":2046:2165   */\n      iszero\n      tag_374\n      jumpi\n        /* \"#utility.yul\":2084:2163   */\n      tag_375\n      tag_371\n      jump\t// in\n    tag_375:\n        /* \"#utility.yul\":2046:2165   */\n    tag_374:\n        /* \"#utility.yul\":2204:2205   */\n      0x00\n        /* \"#utility.yul\":2229:2282   */\n      tag_376\n        /* \"#utility.yul\":2274:2281   */\n      dup6\n        /* \"#utility.yul\":2265:2271   */\n      dup3\n        /* \"#utility.yul\":2254:2263   */\n      dup7\n        /* \"#utility.yul\":2250:2272   */\n      add\n        /* \"#utility.yul\":2229:2282   */\n      tag_337\n      jump\t// in\n    tag_376:\n        /* \"#utility.yul\":2219:2282   */\n      swap3\n      pop\n        /* \"#utility.yul\":2175:2292   */\n      pop\n        /* \"#utility.yul\":2331:2333   */\n      0x20\n        /* \"#utility.yul\":2357:2410   */\n      tag_377\n        /* \"#utility.yul\":2402:2409   */\n      dup6\n        /* \"#utility.yul\":2393:2399   */\n      dup3\n        /* \"#utility.yul\":2382:2391   */\n      dup7\n        /* \"#utility.yul\":2378:2400   */\n      add\n        /* \"#utility.yul\":2357:2410   */\n      tag_337\n      jump\t// in\n    tag_377:\n        /* \"#utility.yul\":2347:2410   */\n      swap2\n      pop\n        /* \"#utility.yul\":2302:2420   */\n      pop\n        /* \"#utility.yul\":1953:2427   */\n      swap3\n      pop\n      swap3\n      swap1\n      pop\n      jump\t// out\n        /* \"#utility.yul\":2433:3052   */\n    tag_50:\n        /* \"#utility.yul\":2510:2516   */\n      0x00\n        /* \"#utility.yul\":2518:2524   */\n      dup1\n        /* \"#utility.yul\":2526:2532   */\n      0x00\n        /* \"#utility.yul\":2575:2577   */\n      0x60\n        /* \"#utility.yul\":2563:2572   */\n      dup5\n        /* \"#utility.yul\":2554:2561   */\n      dup7\n        /* \"#utility.yul\":2550:2573   */\n      sub\n        /* \"#utility.yul\":2546:2578   */\n      slt\n        /* \"#utility.yul\":2543:2662   */\n      iszero\n      tag_379\n      jumpi\n        /* \"#utility.yul\":2581:2660   */\n      tag_380\n      tag_371\n      jump\t// in\n    tag_380:\n        /* \"#utility.yul\":2543:2662   */\n    tag_379:\n        /* \"#utility.yul\":2701:2702   */\n      0x00\n        /* \"#utility.yul\":2726:2779   */\n      tag_381\n        /* \"#utility.yul\":2771:2778   */\n      dup7\n        /* \"#utility.yul\":2762:2768   */\n      dup3\n        /* \"#utility.yul\":2751:2760   */\n      dup8\n        /* \"#utility.yul\":2747:2769   */\n      add\n        /* \"#utility.yul\":2726:2779   */\n      tag_337\n      jump\t// in\n    tag_381:\n        /* \"#utility.yul\":2716:2779   */\n      swap4\n      pop\n        /* \"#utility.yul\":2672:2789   */\n      pop\n        /* \"#utility.yul\":2828:2830   */\n      0x20\n        /* \"#utility.yul\":2854:2907   */\n      tag_382\n        /* \"#utility.yul\":2899:2906   */\n      dup7\n        /* \"#utility.yul\":2890:2896   */\n      dup3\n        /* \"#utility.yul\":2879:2888   */\n      dup8\n        /* \"#utility.yul\":2875:2897   */\n      add\n        /* \"#utility.yul\":2854:2907   */\n      tag_337\n      jump\t// in\n    tag_382:\n        /* \"#utility.yul\":2844:2907   */\n      swap3\n      pop\n        /* \"#utility.yul\":2799:2917   */\n      pop\n        /* \"#utility.yul\":2956:2958   */\n      0x40\n        /* \"#utility.yul\":2982:3035   */\n      tag_383\n        /* \"#utility.yul\":3027:3034   */\n      dup7\n        /* \"#utility.yul\":3018:3024   */\n      dup3\n        /* \"#utility.yul\":3007:3016   */\n      dup8\n        /* \"#utility.yul\":3003:3025   */\n      add\n        /* \"#utility.yul\":2982:3035   */\n      tag_364\n      jump\t// in\n    tag_383:\n        /* \"#utility.yul\":2972:3035   */\n      swap2\n      pop\n        /* \"#utility.yul\":2927:3045   */\n      pop\n        /* \"#utility.yul\":2433:3052   */\n      swap3\n      pop\n      swap3\n      pop\n      swap3\n      jump\t// out\n        /* \"#utility.yul\":3058:4137   */\n    tag_75:\n        /* \"#utility.yul\":3189:3195   */\n      0x00\n        /* \"#utility.yul\":3197:3203   */\n      dup1\n        /* \"#utility.yul\":3205:3211   */\n      0x00\n        /* \"#utility.yul\":3213:3219   */\n      dup1\n        /* \"#utility.yul\":3221:3227   */\n      0x00\n        /* \"#utility.yul\":3270:3272   */\n      0x60\n        /* \"#utility.yul\":3258:3267   */\n      dup7\n        /* \"#utility.yul\":3249:3256   */\n      dup9\n        /* \"#utility.yul\":3245:3268   */\n      sub\n        /* \"#utility.yul\":3241:3273   */\n      slt\n        /* \"#utility.yul\":3238:3357   */\n      iszero\n      tag_385\n      jumpi\n        /* \"#utility.yul\":3276:3355   */\n      tag_386\n      tag_371\n      jump\t// in\n    tag_386:\n        /* \"#utility.yul\":3238:3357   */\n    tag_385:\n        /* \"#utility.yul\":3396:3397   */\n      0x00\n        /* \"#utility.yul\":3421:3474   */\n      tag_387\n        /* \"#utility.yul\":3466:3473   */\n      dup9\n        /* \"#utility.yul\":3457:3463   */\n      dup3\n        /* \"#utility.yul\":3446:3455   */\n      dup10\n        /* \"#utility.yul\":3442:3464   */\n      add\n        /* \"#utility.yul\":3421:3474   */\n      tag_337\n      jump\t// in\n    tag_387:\n        /* \"#utility.yul\":3411:3474   */\n      swap6\n      pop\n        /* \"#utility.yul\":3367:3484   */\n      pop\n        /* \"#utility.yul\":3551:3553   */\n      0x20\n        /* \"#utility.yul\":3540:3549   */\n      dup7\n        /* \"#utility.yul\":3536:3554   */\n      add\n        /* \"#utility.yul\":3523:3555   */\n      calldataload\n        /* \"#utility.yul\":3582:3600   */\n      0xffffffffffffffff\n        /* \"#utility.yul\":3574:3580   */\n      dup2\n        /* \"#utility.yul\":3571:3601   */\n      gt\n        /* \"#utility.yul\":3568:3685   */\n      iszero\n      tag_388\n      jumpi\n        /* \"#utility.yul\":3604:3683   */\n      tag_389\n      tag_390\n      jump\t// in\n    tag_389:\n        /* \"#utility.yul\":3568:3685   */\n    tag_388:\n        /* \"#utility.yul\":3717:3797   */\n      tag_391\n        /* \"#utility.yul\":3789:3796   */\n      dup9\n        /* \"#utility.yul\":3780:3786   */\n      dup3\n        /* \"#utility.yul\":3769:3778   */\n      dup10\n        /* \"#utility.yul\":3765:3787   */\n      add\n        /* \"#utility.yul\":3717:3797   */\n      tag_352\n      jump\t// in\n    tag_391:\n        /* \"#utility.yul\":3699:3797   */\n      swap5\n      pop\n      swap5\n      pop\n        /* \"#utility.yul\":3494:3807   */\n      pop\n        /* \"#utility.yul\":3874:3876   */\n      0x40\n        /* \"#utility.yul\":3863:3872   */\n      dup7\n        /* \"#utility.yul\":3859:3877   */\n      add\n        /* \"#utility.yul\":3846:3878   */\n      calldataload\n        /* \"#utility.yul\":3905:3923   */\n      0xffffffffffffffff\n        /* \"#utility.yul\":3897:3903   */\n      dup2\n        /* \"#utility.yul\":3894:3924   */\n      gt\n        /* \"#utility.yul\":3891:4008   */\n      iszero\n      tag_392\n      jumpi\n        /* \"#utility.yul\":3927:4006   */\n      tag_393\n      tag_390\n      jump\t// in\n    tag_393:\n        /* \"#utility.yul\":3891:4008   */\n    tag_392:\n        /* \"#utility.yul\":4040:4120   */\n      tag_394\n        /* \"#utility.yul\":4112:4119   */\n      dup9\n        /* \"#utility.yul\":4103:4109   */\n      dup3\n        /* \"#utility.yul\":4092:4101   */\n      dup10\n        /* \"#utility.yul\":4088:4110   */\n      add\n        /* \"#utility.yul\":4040:4120   */\n      tag_352\n      jump\t// in\n    tag_394:\n        /* \"#utility.yul\":4022:4120   */\n      swap3\n      pop\n      swap3\n      pop\n        /* \"#utility.yul\":3817:4130   */\n      pop\n        /* \"#utility.yul\":3058:4137   */\n      swap3\n      swap6\n      pop\n      swap3\n      swap6\n      swap1\n      swap4\n      pop\n      jump\t// out\n        /* \"#utility.yul\":4143:4617   */\n    tag_36:\n        /* \"#utility.yul\":4211:4217   */\n      0x00\n        /* \"#utility.yul\":4219:4225   */\n      dup1\n        /* \"#utility.yul\":4268:4270   */\n      0x40\n        /* \"#utility.yul\":4256:4265   */\n      dup4\n        /* \"#utility.yul\":4247:4254   */\n      dup6\n        /* \"#utility.yul\":4243:4266   */\n      sub\n        /* \"#utility.yul\":4239:4271   */\n      slt\n        /* \"#utility.yul\":4236:4355   */\n      iszero\n      tag_396\n      jumpi\n        /* \"#utility.yul\":4274:4353   */\n      tag_397\n      tag_371\n      jump\t// in\n    tag_397:\n        /* \"#utility.yul\":4236:4355   */\n    tag_396:\n        /* \"#utility.yul\":4394:4395   */\n      0x00\n        /* \"#utility.yul\":4419:4472   */\n      tag_398\n        /* \"#utility.yul\":4464:4471   */\n      dup6\n        /* \"#utility.yul\":4455:4461   */\n      dup3\n        /* \"#utility.yul\":4444:4453   */\n      dup7\n        /* \"#utility.yul\":4440:4462   */\n      add\n        /* \"#utility.yul\":4419:4472   */\n      tag_337\n      jump\t// in\n    tag_398:\n        /* \"#utility.yul\":4409:4472   */\n      swap3\n      pop\n        /* \"#utility.yul\":4365:4482   */\n      pop\n        /* \"#utility.yul\":4521:4523   */\n      0x20\n        /* \"#utility.yul\":4547:4600   */\n      tag_399\n        /* \"#utility.yul\":4592:4599   */\n      dup6\n        /* \"#utility.yul\":4583:4589   */\n      dup3\n        /* \"#utility.yul\":4572:4581   */\n      dup7\n        /* \"#utility.yul\":4568:4590   */\n      add\n        /* \"#utility.yul\":4547:4600   */\n      tag_364\n      jump\t// in\n    tag_399:\n        /* \"#utility.yul\":4537:4600   */\n      swap2\n      pop\n        /* \"#utility.yul\":4492:4610   */\n      pop\n        /* \"#utility.yul\":4143:4617   */\n      swap3\n      pop\n      swap3\n      swap1\n      pop\n      jump\t// out\n        /* \"#utility.yul\":4623:4952   */\n    tag_100:\n        /* \"#utility.yul\":4682:4688   */\n      0x00\n        /* \"#utility.yul\":4731:4733   */\n      0x20\n        /* \"#utility.yul\":4719:4728   */\n      dup3\n        /* \"#utility.yul\":4710:4717   */\n      dup5\n        /* \"#utility.yul\":4706:4729   */\n      sub\n        /* \"#utility.yul\":4702:4734   */\n      slt\n        /* \"#utility.yul\":4699:4818   */\n      iszero\n      tag_401\n      jumpi\n        /* \"#utility.yul\":4737:4816   */\n      tag_402\n      tag_371\n      jump\t// in\n    tag_402:\n        /* \"#utility.yul\":4699:4818   */\n    tag_401:\n        /* \"#utility.yul\":4857:4858   */\n      0x00\n        /* \"#utility.yul\":4882:4935   */\n      tag_403\n        /* \"#utility.yul\":4927:4934   */\n      dup5\n        /* \"#utility.yul\":4918:4924   */\n      dup3\n        /* \"#utility.yul\":4907:4916   */\n      dup6\n        /* \"#utility.yul\":4903:4925   */\n      add\n        /* \"#utility.yul\":4882:4935   */\n      tag_364\n      jump\t// in\n    tag_403:\n        /* \"#utility.yul\":4872:4935   */\n      swap2\n      pop\n        /* \"#utility.yul\":4828:4945   */\n      pop\n        /* \"#utility.yul\":4623:4952   */\n      swap3\n      swap2\n      pop\n      pop\n      jump\t// out\n        /* \"#utility.yul\":4958:6093   */\n    tag_67:\n        /* \"#utility.yul\":5077:5083   */\n      0x00\n        /* \"#utility.yul\":5085:5091   */\n      dup1\n        /* \"#utility.yul\":5093:5099   */\n      0x00\n        /* \"#utility.yul\":5101:5107   */\n      dup1\n        /* \"#utility.yul\":5109:5115   */\n      0x00\n        /* \"#utility.yul\":5117:5123   */\n      dup1\n        /* \"#utility.yul\":5166:5169   */\n      0xa0\n        /* \"#utility.yul\":5154:5163   */\n      dup8\n        /* \"#utility.yul\":5145:5152   */\n      dup10\n        /* \"#utility.yul\":5141:5164   */\n      sub\n        /* \"#utility.yul\":5137:5170   */\n      slt\n        /* \"#utility.yul\":5134:5254   */\n      iszero\n      tag_405\n      jumpi\n        /* \"#utility.yul\":5173:5252   */\n      tag_406\n      tag_371\n      jump\t// in\n    tag_406:\n        /* \"#utility.yul\":5134:5254   */\n    tag_405:\n        /* \"#utility.yul\":5293:5294   */\n      0x00\n        /* \"#utility.yul\":5318:5371   */\n      tag_407\n        /* \"#utility.yul\":5363:5370   */\n      dup10\n        /* \"#utility.yul\":5354:5360   */\n      dup3\n        /* \"#utility.yul\":5343:5352   */\n      dup11\n        /* \"#utility.yul\":5339:5361   */\n      add\n        /* \"#utility.yul\":5318:5371   */\n      tag_364\n      jump\t// in\n    tag_407:\n        /* \"#utility.yul\":5308:5371   */\n      swap7\n      pop\n        /* \"#utility.yul\":5264:5381   */\n      pop\n        /* \"#utility.yul\":5420:5422   */\n      0x20\n        /* \"#utility.yul\":5446:5499   */\n      tag_408\n        /* \"#utility.yul\":5491:5498   */\n      dup10\n        /* \"#utility.yul\":5482:5488   */\n      dup3\n        /* \"#utility.yul\":5471:5480   */\n      dup11\n        /* \"#utility.yul\":5467:5489   */\n      add\n        /* \"#utility.yul\":5446:5499   */\n      tag_364\n      jump\t// in\n    tag_408:\n        /* \"#utility.yul\":5436:5499   */\n      swap6\n      pop\n        /* \"#utility.yul\":5391:5509   */\n      pop\n        /* \"#utility.yul\":5548:5550   */\n      0x40\n        /* \"#utility.yul\":5574:5627   */\n      tag_409\n        /* \"#utility.yul\":5619:5626   */\n      dup10\n        /* \"#utility.yul\":5610:5616   */\n      dup3\n        /* \"#utility.yul\":5599:5608   */\n      dup11\n        /* \"#utility.yul\":5595:5617   */\n      add\n        /* \"#utility.yul\":5574:5627   */\n      tag_364\n      jump\t// in\n    tag_409:\n        /* \"#utility.yul\":5564:5627   */\n      swap5\n      pop\n        /* \"#utility.yul\":5519:5637   */\n      pop\n        /* \"#utility.yul\":5704:5706   */\n      0x60\n        /* \"#utility.yul\":5693:5702   */\n      dup8\n        /* \"#utility.yul\":5689:5707   */\n      add\n        /* \"#utility.yul\":5676:5708   */\n      calldataload\n        /* \"#utility.yul\":5735:5753   */\n      0xffffffffffffffff\n        /* \"#utility.yul\":5727:5733   */\n      dup2\n        /* \"#utility.yul\":5724:5754   */\n      gt\n        /* \"#utility.yul\":5721:5838   */\n      iszero\n      tag_410\n      jumpi\n        /* \"#utility.yul\":5757:5836   */\n      tag_411\n      tag_390\n      jump\t// in\n    tag_411:\n        /* \"#utility.yul\":5721:5838   */\n    tag_410:\n        /* \"#utility.yul\":5870:5950   */\n      tag_412\n        /* \"#utility.yul\":5942:5949   */\n      dup10\n        /* \"#utility.yul\":5933:5939   */\n      dup3\n        /* \"#utility.yul\":5922:5931   */\n      dup11\n        /* \"#utility.yul\":5918:5940   */\n      add\n        /* \"#utility.yul\":5870:5950   */\n      tag_341\n      jump\t// in\n    tag_412:\n        /* \"#utility.yul\":5852:5950   */\n      swap4\n      pop\n      swap4\n      pop\n        /* \"#utility.yul\":5647:5960   */\n      pop\n        /* \"#utility.yul\":5999:6002   */\n      0x80\n        /* \"#utility.yul\":6026:6076   */\n      tag_413\n        /* \"#utility.yul\":6068:6075   */\n      dup10\n        /* \"#utility.yul\":6059:6065   */\n      dup3\n        /* \"#utility.yul\":6048:6057   */\n      dup11\n        /* \"#utility.yul\":6044:6066   */\n      add\n        /* \"#utility.yul\":6026:6076   */\n      tag_360\n      jump\t// in\n    tag_413:\n        /* \"#utility.yul\":6016:6076   */\n      swap2\n      pop\n        /* \"#utility.yul\":5970:6086   */\n      pop\n        /* \"#utility.yul\":4958:6093   */\n      swap3\n      swap6\n      pop\n      swap3\n      swap6\n      pop\n      swap3\n      swap6\n      jump\t// out\n        /* \"#utility.yul\":6099:6217   */\n    tag_414:\n        /* \"#utility.yul\":6186:6210   */\n      tag_416\n        /* \"#utility.yul\":6204:6209   */\n      dup2\n        /* \"#utility.yul\":6186:6210   */\n      tag_417\n      jump\t// in\n    tag_416:\n        /* \"#utility.yul\":6181:6184   */\n      dup3\n        /* \"#utility.yul\":6174:6211   */\n      mstore\n        /* \"#utility.yul\":6099:6217   */\n      pop\n      pop\n      jump\t// out\n        /* \"#utility.yul\":6223:6332   */\n    tag_418:\n        /* \"#utility.yul\":6304:6325   */\n      tag_420\n        /* \"#utility.yul\":6319:6324   */\n      dup2\n        /* \"#utility.yul\":6304:6325   */\n      tag_421\n      jump\t// in\n    tag_420:\n        /* \"#utility.yul\":6299:6302   */\n      dup3\n        /* \"#utility.yul\":6292:6326   */\n      mstore\n        /* \"#utility.yul\":6223:6332   */\n      pop\n      pop\n      jump\t// out\n        /* \"#utility.yul\":6338:6702   */\n    tag_422:\n        /* \"#utility.yul\":6426:6429   */\n      0x00\n        /* \"#utility.yul\":6454:6493   */\n      tag_424\n        /* \"#utility.yul\":6487:6492   */\n      dup3\n        /* \"#utility.yul\":6454:6493   */\n      tag_425\n      jump\t// in\n    tag_424:\n        /* \"#utility.yul\":6509:6580   */\n      tag_426\n        /* \"#utility.yul\":6573:6579   */\n      dup2\n        /* \"#utility.yul\":6568:6571   */\n      dup6\n        /* \"#utility.yul\":6509:6580   */\n      tag_427\n      jump\t// in\n    tag_426:\n        /* \"#utility.yul\":6502:6580   */\n      swap4\n      pop\n        /* \"#utility.yul\":6589:6641   */\n      tag_428\n        /* \"#utility.yul\":6634:6640   */\n      dup2\n        /* \"#utility.yul\":6629:6632   */\n      dup6\n        /* \"#utility.yul\":6622:6626   */\n      0x20\n        /* \"#utility.yul\":6615:6620   */\n      dup7\n        /* \"#utility.yul\":6611:6627   */\n      add\n        /* \"#utility.yul\":6589:6641   */\n      tag_429\n      jump\t// in\n    tag_428:\n        /* \"#utility.yul\":6666:6695   */\n      tag_430\n        /* \"#utility.yul\":6688:6694   */\n      dup2\n        /* \"#utility.yul\":6666:6695   */\n      tag_431\n      jump\t// in\n    tag_430:\n        /* \"#utility.yul\":6661:6664   */\n      dup5\n        /* \"#utility.yul\":6657:6696   */\n      add\n        /* \"#utility.yul\":6650:6696   */\n      swap2\n      pop\n        /* \"#utility.yul\":6430:6702   */\n      pop\n        /* \"#utility.yul\":6338:6702   */\n      swap3\n      swap2\n      pop\n      pop\n      jump\t// out\n        /* \"#utility.yul\":6708:7074   */\n    tag_432:\n        /* \"#utility.yul\":6850:6853   */\n      0x00\n        /* \"#utility.yul\":6871:6938   */\n      tag_434\n        /* \"#utility.yul\":6935:6937   */\n      0x25\n        /* \"#utility.yul\":6930:6933   */\n      dup4\n        /* \"#utility.yul\":6871:6938   */\n      tag_427\n      jump\t// in\n    tag_434:\n        /* \"#utility.yul\":6864:6938   */\n      swap2\n      pop\n        /* \"#utility.yul\":6947:7040   */\n      tag_435\n        /* \"#utility.yul\":7036:7039   */\n      dup3\n        /* \"#utility.yul\":6947:7040   */\n      tag_436\n      jump\t// in\n    tag_435:\n        /* \"#utility.yul\":7065:7067   */\n      0x40\n        /* \"#utility.yul\":7060:7063   */\n      dup3\n        /* \"#utility.yul\":7056:7068   */\n      add\n        /* \"#utility.yul\":7049:7068   */\n      swap1\n      pop\n        /* \"#utility.yul\":6708:7074   */\n      swap2\n      swap1\n      pop\n      jump\t// out\n        /* \"#utility.yul\":7080:7446   */\n    tag_437:\n        /* \"#utility.yul\":7222:7225   */\n      0x00\n        /* \"#utility.yul\":7243:7310   */\n      tag_439\n        /* \"#utility.yul\":7307:7309   */\n      0x24\n        /* \"#utility.yul\":7302:7305   */\n      dup4\n        /* \"#utility.yul\":7243:7310   */\n      tag_427\n      jump\t// in\n    tag_439:\n        /* \"#utility.yul\":7236:7310   */\n      swap2\n      pop\n        /* \"#utility.yul\":7319:7412   */\n      tag_440\n        /* \"#utility.yul\":7408:7411   */\n      dup3\n        /* \"#utility.yul\":7319:7412   */\n      tag_441\n      jump\t// in\n    tag_440:\n        /* \"#utility.yul\":7437:7439   */\n      0x40\n        /* \"#utility.yul\":7432:7435   */\n      dup3\n        /* \"#utility.yul\":7428:7440   */\n      add\n        /* \"#utility.yul\":7421:7440   */\n      swap1\n      pop\n        /* \"#utility.yul\":7080:7446   */\n      swap2\n      swap1\n      pop\n      jump\t// out\n        /* \"#utility.yul\":7452:7818   */\n    tag_442:\n        /* \"#utility.yul\":7594:7597   */\n      0x00\n        /* \"#utility.yul\":7615:7682   */\n      tag_444\n        /* \"#utility.yul\":7679:7681   */\n      0x26\n        /* \"#utility.yul\":7674:7677   */\n      dup4\n        /* \"#utility.yul\":7615:7682   */\n      tag_427\n      jump\t// in\n    tag_444:\n        /* \"#utility.yul\":7608:7682   */\n      swap2\n      pop\n        /* \"#utility.yul\":7691:7784   */\n      tag_445\n        /* \"#utility.yul\":7780:7783   */\n      dup3\n        /* \"#utility.yul\":7691:7784   */\n      tag_446\n      jump\t// in\n    tag_445:\n        /* \"#utility.yul\":7809:7811   */\n      0x40\n        /* \"#utility.yul\":7804:7807   */\n      dup3\n        /* \"#utility.yul\":7800:7812   */\n      add\n        /* \"#utility.yul\":7793:7812   */\n      swap1\n      pop\n        /* \"#utility.yul\":7452:7818   */\n      swap2\n      swap1\n      pop\n      jump\t// out\n        /* \"#utility.yul\":7824:8190   */\n    tag_447:\n        /* \"#utility.yul\":7966:7969   */\n      0x00\n        /* \"#utility.yul\":7987:8054   */\n      tag_449\n        /* \"#utility.yul\":8051:8053   */\n      0x1b\n        /* \"#utility.yul\":8046:8049   */\n      dup4\n        /* \"#utility.yul\":7987:8054   */\n      tag_427\n      jump\t// in\n    tag_449:\n        /* \"#utility.yul\":7980:8054   */\n      swap2\n      pop\n        /* \"#utility.yul\":8063:8156   */\n      tag_450\n        /* \"#utility.yul\":8152:8155   */\n      dup3\n        /* \"#utility.yul\":8063:8156   */\n      tag_451\n      jump\t// in\n    tag_450:\n        /* \"#utility.yul\":8181:8183   */\n      0x20\n        /* \"#utility.yul\":8176:8179   */\n      dup3\n        /* \"#utility.yul\":8172:8184   */\n      add\n        /* \"#utility.yul\":8165:8184   */\n      swap1\n      pop\n        /* \"#utility.yul\":7824:8190   */\n      swap2\n      swap1\n      pop\n      jump\t// out\n        /* \"#utility.yul\":8196:8562   */\n    tag_452:\n        /* \"#utility.yul\":8338:8341   */\n      0x00\n        /* \"#utility.yul\":8359:8426   */\n      tag_454\n        /* \"#utility.yul\":8423:8425   */\n      0x0d\n        /* \"#utility.yul\":8418:8421   */\n      dup4\n        /* \"#utility.yul\":8359:8426   */\n      tag_427\n      jump\t// in\n    tag_454:\n        /* \"#utility.yul\":8352:8426   */\n      swap2\n      pop\n        /* \"#utility.yul\":8435:8528   */\n      tag_455\n        /* \"#utility.yul\":8524:8527   */\n      dup3\n        /* \"#utility.yul\":8435:8528   */\n      tag_456\n      jump\t// in\n    tag_455:\n        /* \"#utility.yul\":8553:8555   */\n      0x20\n        /* \"#utility.yul\":8548:8551   */\n      dup3\n        /* \"#utility.yul\":8544:8556   */\n      add\n        /* \"#utility.yul\":8537:8556   */\n      swap1\n      pop\n        /* \"#utility.yul\":8196:8562   */\n      swap2\n      swap1\n      pop\n      jump\t// out\n        /* \"#utility.yul\":8568:8934   */\n    tag_457:\n        /* \"#utility.yul\":8710:8713   */\n      0x00\n        /* \"#utility.yul\":8731:8798   */\n      tag_459\n        /* \"#utility.yul\":8795:8797   */\n      0x23\n        /* \"#utility.yul\":8790:8793   */\n      dup4\n        /* \"#utility.yul\":8731:8798   */\n      tag_427\n      jump\t// in\n    tag_459:\n        /* \"#utility.yul\":8724:8798   */\n      swap2\n      pop\n        /* \"#utility.yul\":8807:8900   */\n      tag_460\n        /* \"#utility.yul\":8896:8899   */\n      dup3\n        /* \"#utility.yul\":8807:8900   */\n      tag_461\n      jump\t// in\n    tag_460:\n        /* \"#utility.yul\":8925:8927   */\n      0x40\n        /* \"#utility.yul\":8920:8923   */\n      dup3\n        /* \"#utility.yul\":8916:8928   */\n      add\n        /* \"#utility.yul\":8909:8928   */\n      swap1\n      pop\n        /* \"#utility.yul\":8568:8934   */\n      swap2\n      swap1\n      pop\n      jump\t// out\n        /* \"#utility.yul\":8940:9306   */\n    tag_462:\n        /* \"#utility.yul\":9082:9085   */\n      0x00\n        /* \"#utility.yul\":9103:9170   */\n      tag_464\n        /* \"#utility.yul\":9167:9169   */\n      0x26\n        /* \"#utility.yul\":9162:9165   */\n      dup4\n        /* \"#utility.yul\":9103:9170   */\n      tag_427\n      jump\t// in\n    tag_464:\n        /* \"#utility.yul\":9096:9170   */\n      swap2\n      pop\n        /* \"#utility.yul\":9179:9272   */\n      tag_465\n        /* \"#utility.yul\":9268:9271   */\n      dup3\n        /* \"#utility.yul\":9179:9272   */\n      tag_466\n      jump\t// in\n    tag_465:\n        /* \"#utility.yul\":9297:9299   */\n      0x40\n        /* \"#utility.yul\":9292:9295   */\n      dup3\n        /* \"#utility.yul\":9288:9300   */\n      add\n        /* \"#utility.yul\":9281:9300   */\n      swap1\n      pop\n        /* \"#utility.yul\":8940:9306   */\n      swap2\n      swap1\n      pop\n      jump\t// out\n        /* \"#utility.yul\":9312:9678   */\n    tag_467:\n        /* \"#utility.yul\":9454:9457   */\n      0x00\n        /* \"#utility.yul\":9475:9542   */\n      tag_469\n        /* \"#utility.yul\":9539:9541   */\n      0x20\n        /* \"#utility.yul\":9534:9537   */\n      dup4\n        /* \"#utility.yul\":9475:9542   */\n      tag_427\n      jump\t// in\n    tag_469:\n        /* \"#utility.yul\":9468:9542   */\n      swap2\n      pop\n        /* \"#utility.yul\":9551:9644   */\n      tag_470\n        /* \"#utility.yul\":9640:9643   */\n      dup3\n        /* \"#utility.yul\":9551:9644   */\n      tag_471\n      jump\t// in\n    tag_470:\n        /* \"#utility.yul\":9669:9671   */\n      0x20\n        /* \"#utility.yul\":9664:9667   */\n      dup3\n        /* \"#utility.yul\":9660:9672   */\n      add\n        /* \"#utility.yul\":9653:9672   */\n      swap1\n      pop\n        /* \"#utility.yul\":9312:9678   */\n      swap2\n      swap1\n      pop\n      jump\t// out\n        /* \"#utility.yul\":9684:10050   */\n    tag_472:\n        /* \"#utility.yul\":9826:9829   */\n      0x00\n        /* \"#utility.yul\":9847:9914   */\n      tag_474\n        /* \"#utility.yul\":9911:9913   */\n      0x1e\n        /* \"#utility.yul\":9906:9909   */\n      dup4\n        /* \"#utility.yul\":9847:9914   */\n      tag_427\n      jump\t// in\n    tag_474:\n        /* \"#utility.yul\":9840:9914   */\n      swap2\n      pop\n        /* \"#utility.yul\":9923:10016   */\n      tag_475\n        /* \"#utility.yul\":10012:10015   */\n      dup3\n        /* \"#utility.yul\":9923:10016   */\n      tag_476\n      jump\t// in\n    tag_475:\n        /* \"#utility.yul\":10041:10043   */\n      0x20\n        /* \"#utility.yul\":10036:10039   */\n      dup3\n        /* \"#utility.yul\":10032:10044   */\n      add\n        /* \"#utility.yul\":10025:10044   */\n      swap1\n      pop\n        /* \"#utility.yul\":9684:10050   */\n      swap2\n      swap1\n      pop\n      jump\t// out\n        /* \"#utility.yul\":10056:10422   */\n    tag_477:\n        /* \"#utility.yul\":10198:10201   */\n      0x00\n        /* \"#utility.yul\":10219:10286   */\n      tag_479\n        /* \"#utility.yul\":10283:10285   */\n      0x11\n        /* \"#utility.yul\":10278:10281   */\n      dup4\n        /* \"#utility.yul\":10219:10286   */\n      tag_427\n      jump\t// in\n    tag_479:\n        /* \"#utility.yul\":10212:10286   */\n      swap2\n      pop\n        /* \"#utility.yul\":10295:10388   */\n      tag_480\n        /* \"#utility.yul\":10384:10387   */\n      dup3\n        /* \"#utility.yul\":10295:10388   */\n      tag_481\n      jump\t// in\n    tag_480:\n        /* \"#utility.yul\":10413:10415   */\n      0x20\n        /* \"#utility.yul\":10408:10411   */\n      dup3\n        /* \"#utility.yul\":10404:10416   */\n      add\n        /* \"#utility.yul\":10397:10416   */\n      swap1\n      pop\n        /* \"#utility.yul\":10056:10422   */\n      swap2\n      swap1\n      pop\n      jump\t// out\n        /* \"#utility.yul\":10428:10794   */\n    tag_482:\n        /* \"#utility.yul\":10570:10573   */\n      0x00\n        /* \"#utility.yul\":10591:10658   */\n      tag_484\n        /* \"#utility.yul\":10655:10657   */\n      0x22\n        /* \"#utility.yul\":10650:10653   */\n      dup4\n        /* \"#utility.yul\":10591:10658   */\n      tag_427\n      jump\t// in\n    tag_484:\n        /* \"#utility.yul\":10584:10658   */\n      swap2\n      pop\n        /* \"#utility.yul\":10667:10760   */\n      tag_485\n        /* \"#utility.yul\":10756:10759   */\n      dup3\n        /* \"#utility.yul\":10667:10760   */\n      tag_486\n      jump\t// in\n    tag_485:\n        /* \"#utility.yul\":10785:10787   */\n      0x40\n        /* \"#utility.yul\":10780:10783   */\n      dup3\n        /* \"#utility.yul\":10776:10788   */\n      add\n        /* \"#utility.yul\":10769:10788   */\n      swap1\n      pop\n        /* \"#utility.yul\":10428:10794   */\n      swap2\n      swap1\n      pop\n      jump\t// out\n        /* \"#utility.yul\":10800:11166   */\n    tag_487:\n        /* \"#utility.yul\":10942:10945   */\n      0x00\n        /* \"#utility.yul\":10963:11030   */\n      tag_489\n        /* \"#utility.yul\":11027:11029   */\n      0x23\n        /* \"#utility.yul\":11022:11025   */\n      dup4\n        /* \"#utility.yul\":10963:11030   */\n      tag_427\n      jump\t// in\n    tag_489:\n        /* \"#utility.yul\":10956:11030   */\n      swap2\n      pop\n        /* \"#utility.yul\":11039:11132   */\n      tag_490\n        /* \"#utility.yul\":11128:11131   */\n      dup3\n        /* \"#utility.yul\":11039:11132   */\n      tag_491\n      jump\t// in\n    tag_490:\n        /* \"#utility.yul\":11157:11159   */\n      0x40\n        /* \"#utility.yul\":11152:11155   */\n      dup3\n        /* \"#utility.yul\":11148:11160   */\n      add\n        /* \"#utility.yul\":11141:11160   */\n      swap1\n      pop\n        /* \"#utility.yul\":10800:11166   */\n      swap2\n      swap1\n      pop\n      jump\t// out\n        /* \"#utility.yul\":11172:11538   */\n    tag_492:\n        /* \"#utility.yul\":11314:11317   */\n      0x00\n        /* \"#utility.yul\":11335:11402   */\n      tag_494\n        /* \"#utility.yul\":11399:11401   */\n      0x14\n        /* \"#utility.yul\":11394:11397   */\n      dup4\n        /* \"#utility.yul\":11335:11402   */\n      tag_427\n      jump\t// in\n    tag_494:\n        /* \"#utility.yul\":11328:11402   */\n      swap2\n      pop\n        /* \"#utility.yul\":11411:11504   */\n      tag_495\n        /* \"#utility.yul\":11500:11503   */\n      dup3\n        /* \"#utility.yul\":11411:11504   */\n      tag_496\n      jump\t// in\n    tag_495:\n        /* \"#utility.yul\":11529:11531   */\n      0x20\n        /* \"#utility.yul\":11524:11527   */\n      dup3\n        /* \"#utility.yul\":11520:11532   */\n      add\n        /* \"#utility.yul\":11513:11532   */\n      swap1\n      pop\n        /* \"#utility.yul\":11172:11538   */\n      swap2\n      swap1\n      pop\n      jump\t// out\n        /* \"#utility.yul\":11544:11910   */\n    tag_497:\n        /* \"#utility.yul\":11686:11689   */\n      0x00\n        /* \"#utility.yul\":11707:11774   */\n      tag_499\n        /* \"#utility.yul\":11771:11773   */\n      0x1d\n        /* \"#utility.yul\":11766:11769   */\n      dup4\n        /* \"#utility.yul\":11707:11774   */\n      tag_427\n      jump\t// in\n    tag_499:\n        /* \"#utility.yul\":11700:11774   */\n      swap2\n      pop\n        /* \"#utility.yul\":11783:11876   */\n      tag_500\n        /* \"#utility.yul\":11872:11875   */\n      dup3\n        /* \"#utility.yul\":11783:11876   */\n      tag_501\n      jump\t// in\n    tag_500:\n        /* \"#utility.yul\":11901:11903   */\n      0x20\n        /* \"#utility.yul\":11896:11899   */\n      dup3\n        /* \"#utility.yul\":11892:11904   */\n      add\n        /* \"#utility.yul\":11885:11904   */\n      swap1\n      pop\n        /* \"#utility.yul\":11544:11910   */\n      swap2\n      swap1\n      pop\n      jump\t// out\n        /* \"#utility.yul\":11916:12034   */\n    tag_502:\n        /* \"#utility.yul\":12003:12027   */\n      tag_504\n        /* \"#utility.yul\":12021:12026   */\n      dup2\n        /* \"#utility.yul\":12003:12027   */\n      tag_505\n      jump\t// in\n    tag_504:\n        /* \"#utility.yul\":11998:12001   */\n      dup3\n        /* \"#utility.yul\":11991:12028   */\n      mstore\n        /* \"#utility.yul\":11916:12034   */\n      pop\n      pop\n      jump\t// out\n        /* \"#utility.yul\":12040:12152   */\n    tag_506:\n        /* \"#utility.yul\":12123:12145   */\n      tag_508\n        /* \"#utility.yul\":12139:12144   */\n      dup2\n        /* \"#utility.yul\":12123:12145   */\n      tag_509\n      jump\t// in\n    tag_508:\n        /* \"#utility.yul\":12118:12121   */\n      dup3\n        /* \"#utility.yul\":12111:12146   */\n      mstore\n        /* \"#utility.yul\":12040:12152   */\n      pop\n      pop\n      jump\t// out\n        /* \"#utility.yul\":12158:12380   */\n    tag_72:\n        /* \"#utility.yul\":12251:12255   */\n      0x00\n        /* \"#utility.yul\":12289:12291   */\n      0x20\n        /* \"#utility.yul\":12278:12287   */\n      dup3\n        /* \"#utility.yul\":12274:12292   */\n      add\n        /* \"#utility.yul\":12266:12292   */\n      swap1\n      pop\n        /* \"#utility.yul\":12302:12373   */\n      tag_511\n        /* \"#utility.yul\":12370:12371   */\n      0x00\n        /* \"#utility.yul\":12359:12368   */\n      dup4\n        /* \"#utility.yul\":12355:12372   */\n      add\n        /* \"#utility.yul\":12346:12352   */\n      dup5\n        /* \"#utility.yul\":12302:12373   */\n      tag_414\n      jump\t// in\n    tag_511:\n        /* \"#utility.yul\":12158:12380   */\n      swap3\n      swap2\n      pop\n      pop\n      jump\t// out\n        /* \"#utility.yul\":12386:12596   */\n    tag_39:\n        /* \"#utility.yul\":12473:12477   */\n      0x00\n        /* \"#utility.yul\":12511:12513   */\n      0x20\n        /* \"#utility.yul\":12500:12509   */\n      dup3\n        /* \"#utility.yul\":12496:12514   */\n      add\n        /* \"#utility.yul\":12488:12514   */\n      swap1\n      pop\n        /* \"#utility.yul\":12524:12589   */\n      tag_513\n        /* \"#utility.yul\":12586:12587   */\n      0x00\n        /* \"#utility.yul\":12575:12584   */\n      dup4\n        /* \"#utility.yul\":12571:12588   */\n      add\n        /* \"#utility.yul\":12562:12568   */\n      dup5\n        /* \"#utility.yul\":12524:12589   */\n      tag_418\n      jump\t// in\n    tag_513:\n        /* \"#utility.yul\":12386:12596   */\n      swap3\n      swap2\n      pop\n      pop\n      jump\t// out\n        /* \"#utility.yul\":12602:12915   */\n    tag_33:\n        /* \"#utility.yul\":12715:12719   */\n      0x00\n        /* \"#utility.yul\":12753:12755   */\n      0x20\n        /* \"#utility.yul\":12742:12751   */\n      dup3\n        /* \"#utility.yul\":12738:12756   */\n      add\n        /* \"#utility.yul\":12730:12756   */\n      swap1\n      pop\n        /* \"#utility.yul\":12802:12811   */\n      dup2\n        /* \"#utility.yul\":12796:12800   */\n      dup2\n        /* \"#utility.yul\":12792:12812   */\n      sub\n        /* \"#utility.yul\":12788:12789   */\n      0x00\n        /* \"#utility.yul\":12777:12786   */\n      dup4\n        /* \"#utility.yul\":12773:12790   */\n      add\n        /* \"#utility.yul\":12766:12813   */\n      mstore\n        /* \"#utility.yul\":12830:12908   */\n      tag_515\n        /* \"#utility.yul\":12903:12907   */\n      dup2\n        /* \"#utility.yul\":12894:12900   */\n      dup5\n        /* \"#utility.yul\":12830:12908   */\n      tag_422\n      jump\t// in\n    tag_515:\n        /* \"#utility.yul\":12822:12908   */\n      swap1\n      pop\n        /* \"#utility.yul\":12602:12915   */\n      swap3\n      swap2\n      pop\n      pop\n      jump\t// out\n        /* \"#utility.yul\":12921:13340   */\n    tag_284:\n        /* \"#utility.yul\":13087:13091   */\n      0x00\n        /* \"#utility.yul\":13125:13127   */\n      0x20\n        /* \"#utility.yul\":13114:13123   */\n      dup3\n        /* \"#utility.yul\":13110:13128   */\n      add\n        /* \"#utility.yul\":13102:13128   */\n      swap1\n      pop\n        /* \"#utility.yul\":13174:13183   */\n      dup2\n        /* \"#utility.yul\":13168:13172   */\n      dup2\n        /* \"#utility.yul\":13164:13184   */\n      sub\n        /* \"#utility.yul\":13160:13161   */\n      0x00\n        /* \"#utility.yul\":13149:13158   */\n      dup4\n        /* \"#utility.yul\":13145:13162   */\n      add\n        /* \"#utility.yul\":13138:13185   */\n      mstore\n        /* \"#utility.yul\":13202:13333   */\n      tag_517\n        /* \"#utility.yul\":13328:13332   */\n      dup2\n        /* \"#utility.yul\":13202:13333   */\n      tag_432\n      jump\t// in\n    tag_517:\n        /* \"#utility.yul\":13194:13333   */\n      swap1\n      pop\n        /* \"#utility.yul\":12921:13340   */\n      swap2\n      swap1\n      pop\n      jump\t// out\n        /* \"#utility.yul\":13346:13765   */\n    tag_276:\n        /* \"#utility.yul\":13512:13516   */\n      0x00\n        /* \"#utility.yul\":13550:13552   */\n      0x20\n        /* \"#utility.yul\":13539:13548   */\n      dup3\n        /* \"#utility.yul\":13535:13553   */\n      add\n        /* \"#utility.yul\":13527:13553   */\n      swap1\n      pop\n        /* \"#utility.yul\":13599:13608   */\n      dup2\n        /* \"#utility.yul\":13593:13597   */\n      dup2\n        /* \"#utility.yul\":13589:13609   */\n      sub\n        /* \"#utility.yul\":13585:13586   */\n      0x00\n        /* \"#utility.yul\":13574:13583   */\n      dup4\n        /* \"#utility.yul\":13570:13587   */\n      add\n        /* \"#utility.yul\":13563:13610   */\n      mstore\n        /* \"#utility.yul\":13627:13758   */\n      tag_519\n        /* \"#utility.yul\":13753:13757   */\n      dup2\n        /* \"#utility.yul\":13627:13758   */\n      tag_437\n      jump\t// in\n    tag_519:\n        /* \"#utility.yul\":13619:13758   */\n      swap1\n      pop\n        /* \"#utility.yul\":13346:13765   */\n      swap2\n      swap1\n      pop\n      jump\t// out\n        /* \"#utility.yul\":13771:14190   */\n    tag_271:\n        /* \"#utility.yul\":13937:13941   */\n      0x00\n        /* \"#utility.yul\":13975:13977   */\n      0x20\n        /* \"#utility.yul\":13964:13973   */\n      dup3\n        /* \"#utility.yul\":13960:13978   */\n      add\n        /* \"#utility.yul\":13952:13978   */\n      swap1\n      pop\n        /* \"#utility.yul\":14024:14033   */\n      dup2\n        /* \"#utility.yul\":14018:14022   */\n      dup2\n        /* \"#utility.yul\":14014:14034   */\n      sub\n        /* \"#utility.yul\":14010:14011   */\n      0x00\n        /* \"#utility.yul\":13999:14008   */\n      dup4\n        /* \"#utility.yul\":13995:14012   */\n      add\n        /* \"#utility.yul\":13988:14035   */\n      mstore\n        /* \"#utility.yul\":14052:14183   */\n      tag_521\n        /* \"#utility.yul\":14178:14182   */\n      dup2\n        /* \"#utility.yul\":14052:14183   */\n      tag_442\n      jump\t// in\n    tag_521:\n        /* \"#utility.yul\":14044:14183   */\n      swap1\n      pop\n        /* \"#utility.yul\":13771:14190   */\n      swap2\n      swap1\n      pop\n      jump\t// out\n        /* \"#utility.yul\":14196:14615   */\n    tag_306:\n        /* \"#utility.yul\":14362:14366   */\n      0x00\n        /* \"#utility.yul\":14400:14402   */\n      0x20\n        /* \"#utility.yul\":14389:14398   */\n      dup3\n        /* \"#utility.yul\":14385:14403   */\n      add\n        /* \"#utility.yul\":14377:14403   */\n      swap1\n      pop\n        /* \"#utility.yul\":14449:14458   */\n      dup2\n        /* \"#utility.yul\":14443:14447   */\n      dup2\n        /* \"#utility.yul\":14439:14459   */\n      sub\n        /* \"#utility.yul\":14435:14436   */\n      0x00\n        /* \"#utility.yul\":14424:14433   */\n      dup4\n        /* \"#utility.yul\":14420:14437   */\n      add\n        /* \"#utility.yul\":14413:14460   */\n      mstore\n        /* \"#utility.yul\":14477:14608   */\n      tag_523\n        /* \"#utility.yul\":14603:14607   */\n      dup2\n        /* \"#utility.yul\":14477:14608   */\n      tag_447\n      jump\t// in\n    tag_523:\n        /* \"#utility.yul\":14469:14608   */\n      swap1\n      pop\n        /* \"#utility.yul\":14196:14615   */\n      swap2\n      swap1\n      pop\n      jump\t// out\n        /* \"#utility.yul\":14621:15040   */\n    tag_182:\n        /* \"#utility.yul\":14787:14791   */\n      0x00\n        /* \"#utility.yul\":14825:14827   */\n      0x20\n        /* \"#utility.yul\":14814:14823   */\n      dup3\n        /* \"#utility.yul\":14810:14828   */\n      add\n        /* \"#utility.yul\":14802:14828   */\n      swap1\n      pop\n        /* \"#utility.yul\":14874:14883   */\n      dup2\n        /* \"#utility.yul\":14868:14872   */\n      dup2\n        /* \"#utility.yul\":14864:14884   */\n      sub\n        /* \"#utility.yul\":14860:14861   */\n      0x00\n        /* \"#utility.yul\":14849:14858   */\n      dup4\n        /* \"#utility.yul\":14845:14862   */\n      add\n        /* \"#utility.yul\":14838:14885   */\n      mstore\n        /* \"#utility.yul\":14902:15033   */\n      tag_525\n        /* \"#utility.yul\":15028:15032   */\n      dup2\n        /* \"#utility.yul\":14902:15033   */\n      tag_452\n      jump\t// in\n    tag_525:\n        /* \"#utility.yul\":14894:15033   */\n      swap1\n      pop\n        /* \"#utility.yul\":14621:15040   */\n      swap2\n      swap1\n      pop\n      jump\t// out\n        /* \"#utility.yul\":15046:15465   */\n    tag_287:\n        /* \"#utility.yul\":15212:15216   */\n      0x00\n        /* \"#utility.yul\":15250:15252   */\n      0x20\n        /* \"#utility.yul\":15239:15248   */\n      dup3\n        /* \"#utility.yul\":15235:15253   */\n      add\n        /* \"#utility.yul\":15227:15253   */\n      swap1\n      pop\n        /* \"#utility.yul\":15299:15308   */\n      dup2\n        /* \"#utility.yul\":15293:15297   */\n      dup2\n        /* \"#utility.yul\":15289:15309   */\n      sub\n        /* \"#utility.yul\":15285:15286   */\n      0x00\n        /* \"#utility.yul\":15274:15283   */\n      dup4\n        /* \"#utility.yul\":15270:15287   */\n      add\n        /* \"#utility.yul\":15263:15310   */\n      mstore\n        /* \"#utility.yul\":15327:15458   */\n      tag_527\n        /* \"#utility.yul\":15453:15457   */\n      dup2\n        /* \"#utility.yul\":15327:15458   */\n      tag_457\n      jump\t// in\n    tag_527:\n        /* \"#utility.yul\":15319:15458   */\n      swap1\n      pop\n        /* \"#utility.yul\":15046:15465   */\n      swap2\n      swap1\n      pop\n      jump\t// out\n        /* \"#utility.yul\":15471:15890   */\n    tag_329:\n        /* \"#utility.yul\":15637:15641   */\n      0x00\n        /* \"#utility.yul\":15675:15677   */\n      0x20\n        /* \"#utility.yul\":15664:15673   */\n      dup3\n        /* \"#utility.yul\":15660:15678   */\n      add\n        /* \"#utility.yul\":15652:15678   */\n      swap1\n      pop\n        /* \"#utility.yul\":15724:15733   */\n      dup2\n        /* \"#utility.yul\":15718:15722   */\n      dup2\n        /* \"#utility.yul\":15714:15734   */\n      sub\n        /* \"#utility.yul\":15710:15711   */\n      0x00\n        /* \"#utility.yul\":15699:15708   */\n      dup4\n        /* \"#utility.yul\":15695:15712   */\n      add\n        /* \"#utility.yul\":15688:15735   */\n      mstore\n        /* \"#utility.yul\":15752:15883   */\n      tag_529\n        /* \"#utility.yul\":15878:15882   */\n      dup2\n        /* \"#utility.yul\":15752:15883   */\n      tag_462\n      jump\t// in\n    tag_529:\n        /* \"#utility.yul\":15744:15883   */\n      swap1\n      pop\n        /* \"#utility.yul\":15471:15890   */\n      swap2\n      swap1\n      pop\n      jump\t// out\n        /* \"#utility.yul\":15896:16315   */\n    tag_236:\n        /* \"#utility.yul\":16062:16066   */\n      0x00\n        /* \"#utility.yul\":16100:16102   */\n      0x20\n        /* \"#utility.yul\":16089:16098   */\n      dup3\n        /* \"#utility.yul\":16085:16103   */\n      add\n        /* \"#utility.yul\":16077:16103   */\n      swap1\n      pop\n        /* \"#utility.yul\":16149:16158   */\n      dup2\n        /* \"#utility.yul\":16143:16147   */\n      dup2\n        /* \"#utility.yul\":16139:16159   */\n      sub\n        /* \"#utility.yul\":16135:16136   */\n      0x00\n        /* \"#utility.yul\":16124:16133   */\n      dup4\n        /* \"#utility.yul\":16120:16137   */\n      add\n        /* \"#utility.yul\":16113:16160   */\n      mstore\n        /* \"#utility.yul\":16177:16308   */\n      tag_531\n        /* \"#utility.yul\":16303:16307   */\n      dup2\n        /* \"#utility.yul\":16177:16308   */\n      tag_467\n      jump\t// in\n    tag_531:\n        /* \"#utility.yul\":16169:16308   */\n      swap1\n      pop\n        /* \"#utility.yul\":15896:16315   */\n      swap2\n      swap1\n      pop\n      jump\t// out\n        /* \"#utility.yul\":16321:16740   */\n    tag_324:\n        /* \"#utility.yul\":16487:16491   */\n      0x00\n        /* \"#utility.yul\":16525:16527   */\n      0x20\n        /* \"#utility.yul\":16514:16523   */\n      dup3\n        /* \"#utility.yul\":16510:16528   */\n      add\n        /* \"#utility.yul\":16502:16528   */\n      swap1\n      pop\n        /* \"#utility.yul\":16574:16583   */\n      dup2\n        /* \"#utility.yul\":16568:16572   */\n      dup2\n        /* \"#utility.yul\":16564:16584   */\n      sub\n        /* \"#utility.yul\":16560:16561   */\n      0x00\n        /* \"#utility.yul\":16549:16558   */\n      dup4\n        /* \"#utility.yul\":16545:16562   */\n      add\n        /* \"#utility.yul\":16538:16585   */\n      mstore\n        /* \"#utility.yul\":16602:16733   */\n      tag_533\n        /* \"#utility.yul\":16728:16732   */\n      dup2\n        /* \"#utility.yul\":16602:16733   */\n      tag_472\n      jump\t// in\n    tag_533:\n        /* \"#utility.yul\":16594:16733   */\n      swap1\n      pop\n        /* \"#utility.yul\":16321:16740   */\n      swap2\n      swap1\n      pop\n      jump\t// out\n        /* \"#utility.yul\":16746:17165   */\n    tag_185:\n        /* \"#utility.yul\":16912:16916   */\n      0x00\n        /* \"#utility.yul\":16950:16952   */\n      0x20\n        /* \"#utility.yul\":16939:16948   */\n      dup3\n        /* \"#utility.yul\":16935:16953   */\n      add\n        /* \"#utility.yul\":16927:16953   */\n      swap1\n      pop\n        /* \"#utility.yul\":16999:17008   */\n      dup2\n        /* \"#utility.yul\":16993:16997   */\n      dup2\n        /* \"#utility.yul\":16989:17009   */\n      sub\n        /* \"#utility.yul\":16985:16986   */\n      0x00\n        /* \"#utility.yul\":16974:16983   */\n      dup4\n        /* \"#utility.yul\":16970:16987   */\n      add\n        /* \"#utility.yul\":16963:17010   */\n      mstore\n        /* \"#utility.yul\":17027:17158   */\n      tag_535\n        /* \"#utility.yul\":17153:17157   */\n      dup2\n        /* \"#utility.yul\":17027:17158   */\n      tag_477\n      jump\t// in\n    tag_535:\n        /* \"#utility.yul\":17019:17158   */\n      swap1\n      pop\n        /* \"#utility.yul\":16746:17165   */\n      swap2\n      swap1\n      pop\n      jump\t// out\n        /* \"#utility.yul\":17171:17590   */\n    tag_279:\n        /* \"#utility.yul\":17337:17341   */\n      0x00\n        /* \"#utility.yul\":17375:17377   */\n      0x20\n        /* \"#utility.yul\":17364:17373   */\n      dup3\n        /* \"#utility.yul\":17360:17378   */\n      add\n        /* \"#utility.yul\":17352:17378   */\n      swap1\n      pop\n        /* \"#utility.yul\":17424:17433   */\n      dup2\n        /* \"#utility.yul\":17418:17422   */\n      dup2\n        /* \"#utility.yul\":17414:17434   */\n      sub\n        /* \"#utility.yul\":17410:17411   */\n      0x00\n        /* \"#utility.yul\":17399:17408   */\n      dup4\n        /* \"#utility.yul\":17395:17412   */\n      add\n        /* \"#utility.yul\":17388:17435   */\n      mstore\n        /* \"#utility.yul\":17452:17583   */\n      tag_537\n        /* \"#utility.yul\":17578:17582   */\n      dup2\n        /* \"#utility.yul\":17452:17583   */\n      tag_482\n      jump\t// in\n    tag_537:\n        /* \"#utility.yul\":17444:17583   */\n      swap1\n      pop\n        /* \"#utility.yul\":17171:17590   */\n      swap2\n      swap1\n      pop\n      jump\t// out\n        /* \"#utility.yul\":17596:18015   */\n    tag_301:\n        /* \"#utility.yul\":17762:17766   */\n      0x00\n        /* \"#utility.yul\":17800:17802   */\n      0x20\n        /* \"#utility.yul\":17789:17798   */\n      dup3\n        /* \"#utility.yul\":17785:17803   */\n      add\n        /* \"#utility.yul\":17777:17803   */\n      swap1\n      pop\n        /* \"#utility.yul\":17849:17858   */\n      dup2\n        /* \"#utility.yul\":17843:17847   */\n      dup2\n        /* \"#utility.yul\":17839:17859   */\n      sub\n        /* \"#utility.yul\":17835:17836   */\n      0x00\n        /* \"#utility.yul\":17824:17833   */\n      dup4\n        /* \"#utility.yul\":17820:17837   */\n      add\n        /* \"#utility.yul\":17813:17860   */\n      mstore\n        /* \"#utility.yul\":17877:18008   */\n      tag_539\n        /* \"#utility.yul\":18003:18007   */\n      dup2\n        /* \"#utility.yul\":17877:18008   */\n      tag_487\n      jump\t// in\n    tag_539:\n        /* \"#utility.yul\":17869:18008   */\n      swap1\n      pop\n        /* \"#utility.yul\":17596:18015   */\n      swap2\n      swap1\n      pop\n      jump\t// out\n        /* \"#utility.yul\":18021:18440   */\n    tag_217:\n        /* \"#utility.yul\":18187:18191   */\n      0x00\n        /* \"#utility.yul\":18225:18227   */\n      0x20\n        /* \"#utility.yul\":18214:18223   */\n      dup3\n        /* \"#utility.yul\":18210:18228   */\n      add\n        /* \"#utility.yul\":18202:18228   */\n      swap1\n      pop\n        /* \"#utility.yul\":18274:18283   */\n      dup2\n        /* \"#utility.yul\":18268:18272   */\n      dup2\n        /* \"#utility.yul\":18264:18284   */\n      sub\n        /* \"#utility.yul\":18260:18261   */\n      0x00\n        /* \"#utility.yul\":18249:18258   */\n      dup4\n        /* \"#utility.yul\":18245:18262   */\n      add\n        /* \"#utility.yul\":18238:18285   */\n      mstore\n        /* \"#utility.yul\":18302:18433   */\n      tag_541\n        /* \"#utility.yul\":18428:18432   */\n      dup2\n        /* \"#utility.yul\":18302:18433   */\n      tag_492\n      jump\t// in\n    tag_541:\n        /* \"#utility.yul\":18294:18433   */\n      swap1\n      pop\n        /* \"#utility.yul\":18021:18440   */\n      swap2\n      swap1\n      pop\n      jump\t// out\n        /* \"#utility.yul\":18446:18865   */\n    tag_164:\n        /* \"#utility.yul\":18612:18616   */\n      0x00\n        /* \"#utility.yul\":18650:18652   */\n      0x20\n        /* \"#utility.yul\":18639:18648   */\n      dup3\n        /* \"#utility.yul\":18635:18653   */\n      add\n        /* \"#utility.yul\":18627:18653   */\n      swap1\n      pop\n        /* \"#utility.yul\":18699:18708   */\n      dup2\n        /* \"#utility.yul\":18693:18697   */\n      dup2\n        /* \"#utility.yul\":18689:18709   */\n      sub\n        /* \"#utility.yul\":18685:18686   */\n      0x00\n        /* \"#utility.yul\":18674:18683   */\n      dup4\n        /* \"#utility.yul\":18670:18687   */\n      add\n        /* \"#utility.yul\":18663:18710   */\n      mstore\n        /* \"#utility.yul\":18727:18858   */\n      tag_543\n        /* \"#utility.yul\":18853:18857   */\n      dup2\n        /* \"#utility.yul\":18727:18858   */\n      tag_497\n      jump\t// in\n    tag_543:\n        /* \"#utility.yul\":18719:18858   */\n      swap1\n      pop\n        /* \"#utility.yul\":18446:18865   */\n      swap2\n      swap1\n      pop\n      jump\t// out\n        /* \"#utility.yul\":18871:19093   */\n    tag_43:\n        /* \"#utility.yul\":18964:18968   */\n      0x00\n        /* \"#utility.yul\":19002:19004   */\n      0x20\n        /* \"#utility.yul\":18991:19000   */\n      dup3\n        /* \"#utility.yul\":18987:19005   */\n      add\n        /* \"#utility.yul\":18979:19005   */\n      swap1\n      pop\n        /* \"#utility.yul\":19015:19086   */\n      tag_545\n        /* \"#utility.yul\":19083:19084   */\n      0x00\n        /* \"#utility.yul\":19072:19081   */\n      dup4\n        /* \"#utility.yul\":19068:19085   */\n      add\n        /* \"#utility.yul\":19059:19065   */\n      dup5\n        /* \"#utility.yul\":19015:19086   */\n      tag_502\n      jump\t// in\n    tag_545:\n        /* \"#utility.yul\":18871:19093   */\n      swap3\n      swap2\n      pop\n      pop\n      jump\t// out\n        /* \"#utility.yul\":19099:19431   */\n    tag_103:\n        /* \"#utility.yul\":19220:19224   */\n      0x00\n        /* \"#utility.yul\":19258:19260   */\n      0x40\n        /* \"#utility.yul\":19247:19256   */\n      dup3\n        /* \"#utility.yul\":19243:19261   */\n      add\n        /* \"#utility.yul\":19235:19261   */\n      swap1\n      pop\n        /* \"#utility.yul\":19271:19342   */\n      tag_547\n        /* \"#utility.yul\":19339:19340   */\n      0x00\n        /* \"#utility.yul\":19328:19337   */\n      dup4\n        /* \"#utility.yul\":19324:19341   */\n      add\n        /* \"#utility.yul\":19315:19321   */\n      dup6\n        /* \"#utility.yul\":19271:19342   */\n      tag_502\n      jump\t// in\n    tag_547:\n        /* \"#utility.yul\":19352:19424   */\n      tag_548\n        /* \"#utility.yul\":19420:19422   */\n      0x20\n        /* \"#utility.yul\":19409:19418   */\n      dup4\n        /* \"#utility.yul\":19405:19423   */\n      add\n        /* \"#utility.yul\":19396:19402   */\n      dup5\n        /* \"#utility.yul\":19352:19424   */\n      tag_502\n      jump\t// in\n    tag_548:\n        /* \"#utility.yul\":19099:19431   */\n      swap4\n      swap3\n      pop\n      pop\n      pop\n      jump\t// out\n        /* \"#utility.yul\":19437:20200   */\n    tag_47:\n        /* \"#utility.yul\":19664:19668   */\n      0x00\n        /* \"#utility.yul\":19702:19705   */\n      0xc0\n        /* \"#utility.yul\":19691:19700   */\n      dup3\n        /* \"#utility.yul\":19687:19706   */\n      add\n        /* \"#utility.yul\":19679:19706   */\n      swap1\n      pop\n        /* \"#utility.yul\":19716:19787   */\n      tag_550\n        /* \"#utility.yul\":19784:19785   */\n      0x00\n        /* \"#utility.yul\":19773:19782   */\n      dup4\n        /* \"#utility.yul\":19769:19786   */\n      add\n        /* \"#utility.yul\":19760:19766   */\n      dup10\n        /* \"#utility.yul\":19716:19787   */\n      tag_502\n      jump\t// in\n    tag_550:\n        /* \"#utility.yul\":19797:19869   */\n      tag_551\n        /* \"#utility.yul\":19865:19867   */\n      0x20\n        /* \"#utility.yul\":19854:19863   */\n      dup4\n        /* \"#utility.yul\":19850:19868   */\n      add\n        /* \"#utility.yul\":19841:19847   */\n      dup9\n        /* \"#utility.yul\":19797:19869   */\n      tag_502\n      jump\t// in\n    tag_551:\n        /* \"#utility.yul\":19879:19951   */\n      tag_552\n        /* \"#utility.yul\":19947:19949   */\n      0x40\n        /* \"#utility.yul\":19936:19945   */\n      dup4\n        /* \"#utility.yul\":19932:19950   */\n      add\n        /* \"#utility.yul\":19923:19929   */\n      dup8\n        /* \"#utility.yul\":19879:19951   */\n      tag_502\n      jump\t// in\n    tag_552:\n        /* \"#utility.yul\":19961:20033   */\n      tag_553\n        /* \"#utility.yul\":20029:20031   */\n      0x60\n        /* \"#utility.yul\":20018:20027   */\n      dup4\n        /* \"#utility.yul\":20014:20032   */\n      add\n        /* \"#utility.yul\":20005:20011   */\n      dup7\n        /* \"#utility.yul\":19961:20033   */\n      tag_502\n      jump\t// in\n    tag_553:\n        /* \"#utility.yul\":20043:20110   */\n      tag_554\n        /* \"#utility.yul\":20105:20108   */\n      0x80\n        /* \"#utility.yul\":20094:20103   */\n      dup4\n        /* \"#utility.yul\":20090:20109   */\n      add\n        /* \"#utility.yul\":20081:20087   */\n      dup6\n        /* \"#utility.yul\":20043:20110   */\n      tag_418\n      jump\t// in\n    tag_554:\n        /* \"#utility.yul\":20120:20193   */\n      tag_555\n        /* \"#utility.yul\":20188:20191   */\n      0xa0\n        /* \"#utility.yul\":20177:20186   */\n      dup4\n        /* \"#utility.yul\":20173:20192   */\n      add\n        /* \"#utility.yul\":20164:20170   */\n      dup5\n        /* \"#utility.yul\":20120:20193   */\n      tag_502\n      jump\t// in\n    tag_555:\n        /* \"#utility.yul\":19437:20200   */\n      swap8\n      swap7\n      pop\n      pop\n      pop\n      pop\n      pop\n      pop\n      pop\n      jump\t// out\n        /* \"#utility.yul\":20206:20420   */\n    tag_60:\n        /* \"#utility.yul\":20295:20299   */\n      0x00\n        /* \"#utility.yul\":20333:20335   */\n      0x20\n        /* \"#utility.yul\":20322:20331   */\n      dup3\n        /* \"#utility.yul\":20318:20336   */\n      add\n        /* \"#utility.yul\":20310:20336   */\n      swap1\n      pop\n        /* \"#utility.yul\":20346:20413   */\n      tag_557\n        /* \"#utility.yul\":20410:20411   */\n      0x00\n        /* \"#utility.yul\":20399:20408   */\n      dup4\n        /* \"#utility.yul\":20395:20412   */\n      add\n        /* \"#utility.yul\":20386:20392   */\n      dup5\n        /* \"#utility.yul\":20346:20413   */\n      tag_506\n      jump\t// in\n    tag_557:\n        /* \"#utility.yul\":20206:20420   */\n      swap3\n      swap2\n      pop\n      pop\n      jump\t// out\n        /* \"#utility.yul\":20507:20606   */\n    tag_425:\n        /* \"#utility.yul\":20559:20565   */\n      0x00\n        /* \"#utility.yul\":20593:20598   */\n      dup2\n        /* \"#utility.yul\":20587:20599   */\n      mload\n        /* \"#utility.yul\":20577:20599   */\n      swap1\n      pop\n        /* \"#utility.yul\":20507:20606   */\n      swap2\n      swap1\n      pop\n      jump\t// out\n        /* \"#utility.yul\":20612:20781   */\n    tag_427:\n        /* \"#utility.yul\":20696:20707   */\n      0x00\n        /* \"#utility.yul\":20730:20736   */\n      dup3\n        /* \"#utility.yul\":20725:20728   */\n      dup3\n        /* \"#utility.yul\":20718:20737   */\n      mstore\n        /* \"#utility.yul\":20770:20774   */\n      0x20\n        /* \"#utility.yul\":20765:20768   */\n      dup3\n        /* \"#utility.yul\":20761:20775   */\n      add\n        /* \"#utility.yul\":20746:20775   */\n      swap1\n      pop\n        /* \"#utility.yul\":20612:20781   */\n      swap3\n      swap2\n      pop\n      pop\n      jump\t// out\n        /* \"#utility.yul\":20787:21092   */\n    tag_145:\n        /* \"#utility.yul\":20827:20830   */\n      0x00\n        /* \"#utility.yul\":20846:20866   */\n      tag_563\n        /* \"#utility.yul\":20864:20865   */\n      dup3\n        /* \"#utility.yul\":20846:20866   */\n      tag_505\n      jump\t// in\n    tag_563:\n        /* \"#utility.yul\":20841:20866   */\n      swap2\n      pop\n        /* \"#utility.yul\":20880:20900   */\n      tag_564\n        /* \"#utility.yul\":20898:20899   */\n      dup4\n        /* \"#utility.yul\":20880:20900   */\n      tag_505\n      jump\t// in\n    tag_564:\n        /* \"#utility.yul\":20875:20900   */\n      swap3\n      pop\n        /* \"#utility.yul\":21034:21035   */\n      dup3\n        /* \"#utility.yul\":20966:21032   */\n      0xffffffffffffffffffffffffffffffffffffffffffffffffffffffffffffffff\n        /* \"#utility.yul\":20962:21036   */\n      sub\n        /* \"#utility.yul\":20959:20960   */\n      dup3\n        /* \"#utility.yul\":20956:21037   */\n      gt\n        /* \"#utility.yul\":20953:21060   */\n      iszero\n      tag_565\n      jumpi\n        /* \"#utility.yul\":21040:21058   */\n      tag_566\n      tag_567\n      jump\t// in\n    tag_566:\n        /* \"#utility.yul\":20953:21060   */\n    tag_565:\n        /* \"#utility.yul\":21084:21085   */\n      dup3\n        /* \"#utility.yul\":21081:21082   */\n      dup3\n        /* \"#utility.yul\":21077:21086   */\n      add\n        /* \"#utility.yul\":21070:21086   */\n      swap1\n      pop\n        /* \"#utility.yul\":20787:21092   */\n      swap3\n      swap2\n      pop\n      pop\n      jump\t// out\n        /* \"#utility.yul\":21098:21289   */\n    tag_297:\n        /* \"#utility.yul\":21138:21142   */\n      0x00\n        /* \"#utility.yul\":21158:21178   */\n      tag_569\n        /* \"#utility.yul\":21176:21177   */\n      dup3\n        /* \"#utility.yul\":21158:21178   */\n      tag_505\n      jump\t// in\n    tag_569:\n        /* \"#utility.yul\":21153:21178   */\n      swap2\n      pop\n        /* \"#utility.yul\":21192:21212   */\n      tag_570\n        /* \"#utility.yul\":21210:21211   */\n      dup4\n        /* \"#utility.yul\":21192:21212   */\n      tag_505\n      jump\t// in\n    tag_570:\n        /* \"#utility.yul\":21187:21212   */\n      swap3\n      pop\n        /* \"#utility.yul\":21231:21232   */\n      dup3\n        /* \"#utility.yul\":21228:21229   */\n      dup3\n        /* \"#utility.yul\":21225:21233   */\n      lt\n        /* \"#utility.yul\":21222:21256   */\n      iszero\n      tag_571\n      jumpi\n        /* \"#utility.yul\":21236:21254   */\n      tag_572\n      tag_567\n      jump\t// in\n    tag_572:\n        /* \"#utility.yul\":21222:21256   */\n    tag_571:\n        /* \"#utility.yul\":21281:21282   */\n      dup3\n        /* \"#utility.yul\":21278:21279   */\n      dup3\n        /* \"#utility.yul\":21274:21283   */\n      sub\n        /* \"#utility.yul\":21266:21283   */\n      swap1\n      pop\n        /* \"#utility.yul\":21098:21289   */\n      swap3\n      swap2\n      pop\n      pop\n      jump\t// out\n        /* \"#utility.yul\":21295:21391   */\n    tag_417:\n        /* \"#utility.yul\":21332:21339   */\n      0x00\n        /* \"#utility.yul\":21361:21385   */\n      tag_574\n        /* \"#utility.yul\":21379:21384   */\n      dup3\n        /* \"#utility.yul\":21361:21385   */\n      tag_575\n      jump\t// in\n    tag_574:\n        /* \"#utility.yul\":21350:21385   */\n      swap1\n      pop\n        /* \"#utility.yul\":21295:21391   */\n      swap2\n      swap1\n      pop\n      jump\t// out\n        /* \"#utility.yul\":21397:21487   */\n    tag_421:\n        /* \"#utility.yul\":21431:21438   */\n      0x00\n        /* \"#utility.yul\":21474:21479   */\n      dup2\n        /* \"#utility.yul\":21467:21480   */\n      iszero\n        /* \"#utility.yul\":21460:21481   */\n      iszero\n        /* \"#utility.yul\":21449:21481   */\n      swap1\n      pop\n        /* \"#utility.yul\":21397:21487   */\n      swap2\n      swap1\n      pop\n      jump\t// out\n        /* \"#utility.yul\":21493:21619   */\n    tag_575:\n        /* \"#utility.yul\":21530:21537   */\n      0x00\n        /* \"#utility.yul\":21570:21612   */\n      0xffffffffffffffffffffffffffffffffffffffff\n        /* \"#utility.yul\":21563:21568   */\n      dup3\n        /* \"#utility.yul\":21559:21613   */\n      and\n        /* \"#utility.yul\":21548:21613   */\n      swap1\n      pop\n        /* \"#utility.yul\":21493:21619   */\n      swap2\n      swap1\n      pop\n      jump\t// out\n        /* \"#utility.yul\":21625:21702   */\n    tag_505:\n        /* \"#utility.yul\":21662:21669   */\n      0x00\n        /* \"#utility.yul\":21691:21696   */\n      dup2\n        /* \"#utility.yul\":21680:21696   */\n      swap1\n      pop\n        /* \"#utility.yul\":21625:21702   */\n      swap2\n      swap1\n      pop\n      jump\t// out\n        /* \"#utility.yul\":21708:21794   */\n    tag_509:\n        /* \"#utility.yul\":21743:21750   */\n      0x00\n        /* \"#utility.yul\":21783:21787   */\n      0xff\n        /* \"#utility.yul\":21776:21781   */\n      dup3\n        /* \"#utility.yul\":21772:21788   */\n      and\n        /* \"#utility.yul\":21761:21788   */\n      swap1\n      pop\n        /* \"#utility.yul\":21708:21794   */\n      swap2\n      swap1\n      pop\n      jump\t// out\n        /* \"#utility.yul\":21800:22107   */\n    tag_429:\n        /* \"#utility.yul\":21868:21869   */\n      0x00\n        /* \"#utility.yul\":21878:21991   */\n    tag_581:\n        /* \"#utility.yul\":21892:21898   */\n      dup4\n        /* \"#utility.yul\":21889:21890   */\n      dup2\n        /* \"#utility.yul\":21886:21899   */\n      lt\n        /* \"#utility.yul\":21878:21991   */\n      iszero\n      tag_583\n      jumpi\n        /* \"#utility.yul\":21977:21978   */\n      dup1\n        /* \"#utility.yul\":21972:21975   */\n      dup3\n        /* \"#utility.yul\":21968:21979   */\n      add\n        /* \"#utility.yul\":21962:21980   */\n      mload\n        /* \"#utility.yul\":21958:21959   */\n      dup2\n        /* \"#utility.yul\":21953:21956   */\n      dup5\n        /* \"#utility.yul\":21949:21960   */\n      add\n        /* \"#utility.yul\":21942:21981   */\n      mstore\n        /* \"#utility.yul\":21914:21916   */\n      0x20\n        /* \"#utility.yul\":21911:21912   */\n      dup2\n        /* \"#utility.yul\":21907:21917   */\n      add\n        /* \"#utility.yul\":21902:21917   */\n      swap1\n      pop\n        /* \"#utility.yul\":21878:21991   */\n      jump(tag_581)\n    tag_583:\n        /* \"#utility.yul\":22009:22015   */\n      dup4\n        /* \"#utility.yul\":22006:22007   */\n      dup2\n        /* \"#utility.yul\":22003:22016   */\n      gt\n        /* \"#utility.yul\":22000:22101   */\n      iszero\n      tag_584\n      jumpi\n        /* \"#utility.yul\":22089:22090   */\n      0x00\n        /* \"#utility.yul\":22080:22086   */\n      dup5\n        /* \"#utility.yul\":22075:22078   */\n      dup5\n        /* \"#utility.yul\":22071:22087   */\n      add\n        /* \"#utility.yul\":22064:22091   */\n      mstore\n        /* \"#utility.yul\":22000:22101   */\n    tag_584:\n        /* \"#utility.yul\":21849:22107   */\n      pop\n        /* \"#utility.yul\":21800:22107   */\n      pop\n      pop\n      pop\n      jump\t// out\n        /* \"#utility.yul\":22113:22433   */\n    tag_124:\n        /* \"#utility.yul\":22157:22163   */\n      0x00\n        /* \"#utility.yul\":22194:22195   */\n      0x02\n        /* \"#utility.yul\":22188:22192   */\n      dup3\n        /* \"#utility.yul\":22184:22196   */\n      div\n        /* \"#utility.yul\":22174:22196   */\n      swap1\n      pop\n        /* \"#utility.yul\":22241:22242   */\n      0x01\n        /* \"#utility.yul\":22235:22239   */\n      dup3\n        /* \"#utility.yul\":22231:22243   */\n      and\n        /* \"#utility.yul\":22262:22280   */\n      dup1\n        /* \"#utility.yul\":22252:22333   */\n      tag_586\n      jumpi\n        /* \"#utility.yul\":22318:22322   */\n      0x7f\n        /* \"#utility.yul\":22310:22316   */\n      dup3\n        /* \"#utility.yul\":22306:22323   */\n      and\n        /* \"#utility.yul\":22296:22323   */\n      swap2\n      pop\n        /* \"#utility.yul\":22252:22333   */\n    tag_586:\n        /* \"#utility.yul\":22380:22382   */\n      0x20\n        /* \"#utility.yul\":22372:22378   */\n      dup3\n        /* \"#utility.yul\":22369:22383   */\n      lt\n        /* \"#utility.yul\":22349:22367   */\n      dup2\n        /* \"#utility.yul\":22346:22384   */\n      eq\n        /* \"#utility.yul\":22343:22427   */\n      iszero\n      tag_587\n      jumpi\n        /* \"#utility.yul\":22399:22417   */\n      tag_588\n      tag_589\n      jump\t// in\n    tag_588:\n        /* \"#utility.yul\":22343:22427   */\n    tag_587:\n        /* \"#utility.yul\":22164:22433   */\n      pop\n        /* \"#utility.yul\":22113:22433   */\n      swap2\n      swap1\n      pop\n      jump\t// out\n        /* \"#utility.yul\":22439:22672   */\n    tag_151:\n        /* \"#utility.yul\":22478:22481   */\n      0x00\n        /* \"#utility.yul\":22501:22525   */\n      tag_591\n        /* \"#utility.yul\":22519:22524   */\n      dup3\n        /* \"#utility.yul\":22501:22525   */\n      tag_505\n      jump\t// in\n    tag_591:\n        /* \"#utility.yul\":22492:22525   */\n      swap2\n      pop\n        /* \"#utility.yul\":22547:22613   */\n      0xffffffffffffffffffffffffffffffffffffffffffffffffffffffffffffffff\n        /* \"#utility.yul\":22540:22545   */\n      dup3\n        /* \"#utility.yul\":22537:22614   */\n      eq\n        /* \"#utility.yul\":22534:22637   */\n      iszero\n      tag_592\n      jumpi\n        /* \"#utility.yul\":22617:22635   */\n      tag_593\n      tag_567\n      jump\t// in\n    tag_593:\n        /* \"#utility.yul\":22534:22637   */\n    tag_592:\n        /* \"#utility.yul\":22664:22665   */\n      0x01\n        /* \"#utility.yul\":22657:22662   */\n      dup3\n        /* \"#utility.yul\":22653:22666   */\n      add\n        /* \"#utility.yul\":22646:22666   */\n      swap1\n      pop\n        /* \"#utility.yul\":22439:22672   */\n      swap2\n      swap1\n      pop\n      jump\t// out\n        /* \"#utility.yul\":22678:22858   */\n    tag_567:\n        /* \"#utility.yul\":22726:22803   */\n      0x4e487b7100000000000000000000000000000000000000000000000000000000\n        /* \"#utility.yul\":22723:22724   */\n      0x00\n        /* \"#utility.yul\":22716:22804   */\n      mstore\n        /* \"#utility.yul\":22823:22827   */\n      0x11\n        /* \"#utility.yul\":22820:22821   */\n      0x04\n        /* \"#utility.yul\":22813:22828   */\n      mstore\n        /* \"#utility.yul\":22847:22851   */\n      0x24\n        /* \"#utility.yul\":22844:22845   */\n      0x00\n        /* \"#utility.yul\":22837:22852   */\n      revert\n        /* \"#utility.yul\":22864:23044   */\n    tag_589:\n        /* \"#utility.yul\":22912:22989   */\n      0x4e487b7100000000000000000000000000000000000000000000000000000000\n        /* \"#utility.yul\":22909:22910   */\n      0x00\n        /* \"#utility.yul\":22902:22990   */\n      mstore\n        /* \"#utility.yul\":23009:23013   */\n      0x22\n        /* \"#utility.yul\":23006:23007   */\n      0x04\n        /* \"#utility.yul\":22999:23014   */\n      mstore\n        /* \"#utility.yul\":23033:23037   */\n      0x24\n        /* \"#utility.yul\":23030:23031   */\n      0x00\n        /* \"#utility.yul\":23023:23038   */\n      revert\n        /* \"#utility.yul\":23050:23230   */\n    tag_142:\n        /* \"#utility.yul\":23098:23175   */\n      0x4e487b7100000000000000000000000000000000000000000000000000000000\n        /* \"#utility.yul\":23095:23096   */\n      0x00\n        /* \"#utility.yul\":23088:23176   */\n      mstore\n        /* \"#utility.yul\":23195:23199   */\n      0x32\n        /* \"#utility.yul\":23192:23193   */\n      0x04\n        /* \"#utility.yul\":23185:23200   */\n      mstore\n        /* \"#utility.yul\":23219:23223   */\n      0x24\n        /* \"#utility.yul\":23216:23217   */\n      0x00\n        /* \"#utility.yul\":23209:23224   */\n      revert\n        /* \"#utility.yul\":23236:23353   */\n    tag_348:\n        /* \"#utility.yul\":23345:23346   */\n      0x00\n        /* \"#utility.yul\":23342:23343   */\n      dup1\n        /* \"#utility.yul\":23335:23347   */\n      revert\n        /* \"#utility.yul\":23359:23476   */\n    tag_345:\n        /* \"#utility.yul\":23468:23469   */\n      0x00\n        /* \"#utility.yul\":23465:23466   */\n      dup1\n        /* \"#utility.yul\":23458:23470   */\n      revert\n        /* \"#utility.yul\":23482:23599   */\n    tag_351:\n        /* \"#utility.yul\":23591:23592   */\n      0x00\n        /* \"#utility.yul\":23588:23589   */\n      dup1\n        /* \"#utility.yul\":23581:23593   */\n      revert\n        /* \"#utility.yul\":23605:23722   */\n    tag_390:\n        /* \"#utility.yul\":23714:23715   */\n      0x00\n        /* \"#utility.yul\":23711:23712   */\n      dup1\n        /* \"#utility.yul\":23704:23716   */\n      revert\n        /* \"#utility.yul\":23728:23845   */\n    tag_371:\n        /* \"#utility.yul\":23837:23838   */\n      0x00\n        /* \"#utility.yul\":23834:23835   */\n      dup1\n        /* \"#utility.yul\":23827:23839   */\n      revert\n        /* \"#utility.yul\":23851:23953   */\n    tag_431:\n        /* \"#utility.yul\":23892:23898   */\n      0x00\n        /* \"#utility.yul\":23943:23945   */\n      0x1f\n        /* \"#utility.yul\":23939:23946   */\n      not\n        /* \"#utility.yul\":23934:23936   */\n      0x1f\n        /* \"#utility.yul\":23927:23932   */\n      dup4\n        /* \"#utility.yul\":23923:23937   */\n      add\n        /* \"#utility.yul\":23919:23947   */\n      and\n        /* \"#utility.yul\":23909:23947   */\n      swap1\n      pop\n        /* \"#utility.yul\":23851:23953   */\n      swap2\n      swap1\n      pop\n      jump\t// out\n        /* \"#utility.yul\":23959:24183   */\n    tag_436:\n        /* \"#utility.yul\":24099:24133   */\n      0x47484f53503a207472616e736665722066726f6d20746865207a65726f206164\n        /* \"#utility.yul\":24095:24096   */\n      0x00\n        /* \"#utility.yul\":24087:24093   */\n      dup3\n        /* \"#utility.yul\":24083:24097   */\n      add\n        /* \"#utility.yul\":24076:24134   */\n      mstore\n        /* \"#utility.yul\":24168:24175   */\n      0x6472657373000000000000000000000000000000000000000000000000000000\n        /* \"#utility.yul\":24163:24165   */\n      0x20\n        /* \"#utility.yul\":24155:24161   */\n      dup3\n        /* \"#utility.yul\":24151:24166   */\n      add\n        /* \"#utility.yul\":24144:24176   */\n      mstore\n        /* \"#utility.yul\":23959:24183   */\n      pop\n      jump\t// out\n        /* \"#utility.yul\":24189:24412   */\n    tag_441:\n        /* \"#utility.yul\":24329:24363   */\n      0x47484f53503a20617070726f76652066726f6d20746865207a65726f20616464\n        /* \"#utility.yul\":24325:24326   */\n      0x00\n        /* \"#utility.yul\":24317:24323   */\n      dup3\n        /* \"#utility.yul\":24313:24327   */\n      add\n        /* \"#utility.yul\":24306:24364   */\n      mstore\n        /* \"#utility.yul\":24398:24404   */\n      0x7265737300000000000000000000000000000000000000000000000000000000\n        /* \"#utility.yul\":24393:24395   */\n      0x20\n        /* \"#utility.yul\":24385:24391   */\n      dup3\n        /* \"#utility.yul\":24381:24396   */\n      add\n        /* \"#utility.yul\":24374:24405   */\n      mstore\n        /* \"#utility.yul\":24189:24412   */\n      pop\n      jump\t// out\n        /* \"#utility.yul\":24418:24643   */\n    tag_446:\n        /* \"#utility.yul\":24558:24592   */\n      0x4f776e61626c653a206e6577206f776e657220697320746865207a65726f2061\n        /* \"#utility.yul\":24554:24555   */\n      0x00\n        /* \"#utility.yul\":24546:24552   */\n      dup3\n        /* \"#utility.yul\":24542:24556   */\n      add\n        /* \"#utility.yul\":24535:24593   */\n      mstore\n        /* \"#utility.yul\":24627:24635   */\n      0x6464726573730000000000000000000000000000000000000000000000000000\n        /* \"#utility.yul\":24622:24624   */\n      0x20\n        /* \"#utility.yul\":24614:24620   */\n      dup3\n        /* \"#utility.yul\":24610:24625   */\n      add\n        /* \"#utility.yul\":24603:24636   */\n      mstore\n        /* \"#utility.yul\":24418:24643   */\n      pop\n      jump\t// out\n        /* \"#utility.yul\":24649:24826   */\n    tag_451:\n        /* \"#utility.yul\":24789:24818   */\n      0x536166654d6174683a206164646974696f6e206f766572666c6f770000000000\n        /* \"#utility.yul\":24785:24786   */\n      0x00\n        /* \"#utility.yul\":24777:24783   */\n      dup3\n        /* \"#utility.yul\":24773:24787   */\n      add\n        /* \"#utility.yul\":24766:24819   */\n      mstore\n        /* \"#utility.yul\":24649:24826   */\n      pop\n      jump\t// out\n        /* \"#utility.yul\":24832:24995   */\n    tag_456:\n        /* \"#utility.yul\":24972:24987   */\n      0x496e76616c696420696e64657800000000000000000000000000000000000000\n        /* \"#utility.yul\":24968:24969   */\n      0x00\n        /* \"#utility.yul\":24960:24966   */\n      dup3\n        /* \"#utility.yul\":24956:24970   */\n      add\n        /* \"#utility.yul\":24949:24988   */\n      mstore\n        /* \"#utility.yul\":24832:24995   */\n      pop\n      jump\t// out\n        /* \"#utility.yul\":25001:25223   */\n    tag_461:\n        /* \"#utility.yul\":25141:25175   */\n      0x47484f53503a207472616e7366657220746f20746865207a65726f2061646472\n        /* \"#utility.yul\":25137:25138   */\n      0x00\n        /* \"#utility.yul\":25129:25135   */\n      dup3\n        /* \"#utility.yul\":25125:25139   */\n      add\n        /* \"#utility.yul\":25118:25176   */\n      mstore\n        /* \"#utility.yul\":25210:25215   */\n      0x6573730000000000000000000000000000000000000000000000000000000000\n        /* \"#utility.yul\":25205:25207   */\n      0x20\n        /* \"#utility.yul\":25197:25203   */\n      dup3\n        /* \"#utility.yul\":25193:25208   */\n      add\n        /* \"#utility.yul\":25186:25216   */\n      mstore\n        /* \"#utility.yul\":25001:25223   */\n      pop\n      jump\t// out\n        /* \"#utility.yul\":25229:25454   */\n    tag_466:\n        /* \"#utility.yul\":25369:25403   */\n      0x4c4745202d20416d6f756e7420657863656564732077686974656c697374206d\n        /* \"#utility.yul\":25365:25366   */\n      0x00\n        /* \"#utility.yul\":25357:25363   */\n      dup3\n        /* \"#utility.yul\":25353:25367   */\n      add\n        /* \"#utility.yul\":25346:25404   */\n      mstore\n        /* \"#utility.yul\":25438:25446   */\n      0x6178696d756d0000000000000000000000000000000000000000000000000000\n        /* \"#utility.yul\":25433:25435   */\n      0x20\n        /* \"#utility.yul\":25425:25431   */\n      dup3\n        /* \"#utility.yul\":25421:25436   */\n      add\n        /* \"#utility.yul\":25414:25447   */\n      mstore\n        /* \"#utility.yul\":25229:25454   */\n      pop\n      jump\t// out\n        /* \"#utility.yul\":25460:25642   */\n    tag_471:\n        /* \"#utility.yul\":25600:25634   */\n      0x4f776e61626c653a2063616c6c6572206973206e6f7420746865206f776e6572\n        /* \"#utility.yul\":25596:25597   */\n      0x00\n        /* \"#utility.yul\":25588:25594   */\n      dup3\n        /* \"#utility.yul\":25584:25598   */\n      add\n        /* \"#utility.yul\":25577:25635   */\n      mstore\n        /* \"#utility.yul\":25460:25642   */\n      pop\n      jump\t// out\n        /* \"#utility.yul\":25648:25828   */\n    tag_476:\n        /* \"#utility.yul\":25788:25820   */\n      0x4c4745202d204275796572206973206e6f742077686974656c69737465640000\n        /* \"#utility.yul\":25784:25785   */\n      0x00\n        /* \"#utility.yul\":25776:25782   */\n      dup3\n        /* \"#utility.yul\":25772:25786   */\n      add\n        /* \"#utility.yul\":25765:25821   */\n      mstore\n        /* \"#utility.yul\":25648:25828   */\n      pop\n      jump\t// out\n        /* \"#utility.yul\":25834:26001   */\n    tag_481:\n        /* \"#utility.yul\":25974:25993   */\n      0x496e76616c696420616d6f756e744d6178000000000000000000000000000000\n        /* \"#utility.yul\":25970:25971   */\n      0x00\n        /* \"#utility.yul\":25962:25968   */\n      dup3\n        /* \"#utility.yul\":25958:25972   */\n      add\n        /* \"#utility.yul\":25951:25994   */\n      mstore\n        /* \"#utility.yul\":25834:26001   */\n      pop\n      jump\t// out\n        /* \"#utility.yul\":26007:26228   */\n    tag_486:\n        /* \"#utility.yul\":26147:26181   */\n      0x47484f53503a20617070726f766520746f20746865207a65726f206164647265\n        /* \"#utility.yul\":26143:26144   */\n      0x00\n        /* \"#utility.yul\":26135:26141   */\n      dup3\n        /* \"#utility.yul\":26131:26145   */\n      add\n        /* \"#utility.yul\":26124:26182   */\n      mstore\n        /* \"#utility.yul\":26216:26220   */\n      0x7373000000000000000000000000000000000000000000000000000000000000\n        /* \"#utility.yul\":26211:26213   */\n      0x20\n        /* \"#utility.yul\":26203:26209   */\n      dup3\n        /* \"#utility.yul\":26199:26214   */\n      add\n        /* \"#utility.yul\":26192:26221   */\n      mstore\n        /* \"#utility.yul\":26007:26228   */\n      pop\n      jump\t// out\n        /* \"#utility.yul\":26234:26456   */\n    tag_491:\n        /* \"#utility.yul\":26374:26408   */\n      0x4e65772077686974656c697374657220697320746865207a65726f2061646472\n        /* \"#utility.yul\":26370:26371   */\n      0x00\n        /* \"#utility.yul\":26362:26368   */\n      dup3\n        /* \"#utility.yul\":26358:26372   */\n      add\n        /* \"#utility.yul\":26351:26409   */\n      mstore\n        /* \"#utility.yul\":26443:26448   */\n      0x6573730000000000000000000000000000000000000000000000000000000000\n        /* \"#utility.yul\":26438:26440   */\n      0x20\n        /* \"#utility.yul\":26430:26436   */\n      dup3\n        /* \"#utility.yul\":26426:26441   */\n      add\n        /* \"#utility.yul\":26419:26449   */\n      mstore\n        /* \"#utility.yul\":26234:26456   */\n      pop\n      jump\t// out\n        /* \"#utility.yul\":26462:26632   */\n    tag_496:\n        /* \"#utility.yul\":26602:26624   */\n      0x496e76616c69642077686974656c697374287329000000000000000000000000\n        /* \"#utility.yul\":26598:26599   */\n      0x00\n        /* \"#utility.yul\":26590:26596   */\n      dup3\n        /* \"#utility.yul\":26586:26600   */\n      add\n        /* \"#utility.yul\":26579:26625   */\n      mstore\n        /* \"#utility.yul\":26462:26632   */\n      pop\n      jump\t// out\n        /* \"#utility.yul\":26638:26817   */\n    tag_501:\n        /* \"#utility.yul\":26778:26809   */\n      0x43616c6c6572206973206e6f74207468652077686974656c6973746572000000\n        /* \"#utility.yul\":26774:26775   */\n      0x00\n        /* \"#utility.yul\":26766:26772   */\n      dup3\n        /* \"#utility.yul\":26762:26776   */\n      add\n        /* \"#utility.yul\":26755:26810   */\n      mstore\n        /* \"#utility.yul\":26638:26817   */\n      pop\n      jump\t// out\n        /* \"#utility.yul\":26823:26945   */\n    tag_340:\n        /* \"#utility.yul\":26896:26920   */\n      tag_618\n        /* \"#utility.yul\":26914:26919   */\n      dup2\n        /* \"#utility.yul\":26896:26920   */\n      tag_417\n      jump\t// in\n    tag_618:\n        /* \"#utility.yul\":26889:26894   */\n      dup2\n        /* \"#utility.yul\":26886:26921   */\n      eq\n        /* \"#utility.yul\":26876:26939   */\n      tag_619\n      jumpi\n        /* \"#utility.yul\":26935:26936   */\n      0x00\n        /* \"#utility.yul\":26932:26933   */\n      dup1\n        /* \"#utility.yul\":26925:26937   */\n      revert\n        /* \"#utility.yul\":26876:26939   */\n    tag_619:\n        /* \"#utility.yul\":26823:26945   */\n      pop\n      jump\t// out\n        /* \"#utility.yul\":26951:27067   */\n    tag_363:\n        /* \"#utility.yul\":27021:27042   */\n      tag_621\n        /* \"#utility.yul\":27036:27041   */\n      dup2\n        /* \"#utility.yul\":27021:27042   */\n      tag_421\n      jump\t// in\n    tag_621:\n        /* \"#utility.yul\":27014:27019   */\n      dup2\n        /* \"#utility.yul\":27011:27043   */\n      eq\n        /* \"#utility.yul\":27001:27061   */\n      tag_622\n      jumpi\n        /* \"#utility.yul\":27057:27058   */\n      0x00\n        /* \"#utility.yul\":27054:27055   */\n      dup1\n        /* \"#utility.yul\":27047:27059   */\n      revert\n        /* \"#utility.yul\":27001:27061   */\n    tag_622:\n        /* \"#utility.yul\":26951:27067   */\n      pop\n      jump\t// out\n        /* \"#utility.yul\":27073:27195   */\n    tag_367:\n        /* \"#utility.yul\":27146:27170   */\n      tag_624\n        /* \"#utility.yul\":27164:27169   */\n      dup2\n        /* \"#utility.yul\":27146:27170   */\n      tag_505\n      jump\t// in\n    tag_624:\n        /* \"#utility.yul\":27139:27144   */\n      dup2\n        /* \"#utility.yul\":27136:27171   */\n      eq\n        /* \"#utility.yul\":27126:27189   */\n      tag_625\n      jumpi\n        /* \"#utility.yul\":27185:27186   */\n      0x00\n        /* \"#utility.yul\":27182:27183   */\n      dup1\n        /* \"#utility.yul\":27175:27187   */\n      revert\n        /* \"#utility.yul\":27126:27189   */\n    tag_625:\n        /* \"#utility.yul\":27073:27195   */\n      pop\n      jump\t// out\n    stop\n    data_32bb7eb276b0ce033b051e098a1af5414b708b28c60b53cec3e7de492ad2556f 47484f53503a207472616e7366657220616d6f756e7420657863656564732062616c616e6365\n    data_a264243cbcc7ced02e8d4b13536510f8f4931f9e983eae595dbf79cf2387b95a 47484f53503a207472616e7366657220616d6f756e74206578636565647320616c6c6f77616e6365\n    data_cc591f763fdb06e3b85b0cf43110466d751aa7b792f8c818484f7186cf9bb0bd 47484f53503a2064656372656173656420616c6c6f77616e63652062656c6f77207a65726f\n\n    auxdata: 0xa264697066735822122068b1adf2b52329b22c8eb47f765927a78f2f618c0b8a0a8cd3afab6ec56b729064736f6c63430008070033\n}\n",
				"bytecode": {
					"linkReferences": {},
					"object": "60806040523480156200001157600080fd5b50600062000024620002b060201b60201c565b9050806000806101000a81548173ffffffffffffffffffffffffffffffffffffffff021916908373ffffffffffffffffffffffffffffffffffffffff1602179055508073ffffffffffffffffffffffffffffffffffffffff16600073ffffffffffffffffffffffffffffffffffffffff167f8be0079c531659141344cd1fd0a4f28419497f9722a3daafe3b4186f6b6457e060405160405180910390a350620000d2620002b060201b60201c565b600460006101000a81548173ffffffffffffffffffffffffffffffffffffffff021916908373ffffffffffffffffffffffffffffffffffffffff1602179055506040518060400160405280600581526020017f47484f5350000000000000000000000000000000000000000000000000000000815250600a90805190602001906200015f929190620002b8565b506040518060400160405280600481526020017f474853500000000000000000000000000000000000000000000000000000000081525060099080519060200190620001ad929190620002b8565b506012600860006101000a81548160ff021916908360ff1602179055506a52b7d2dcc80cd2e400000060078190555060075460056000620001f3620002b060201b60201c565b73ffffffffffffffffffffffffffffffffffffffff1673ffffffffffffffffffffffffffffffffffffffff1681526020019081526020016000208190555062000241620002b060201b60201c565b73ffffffffffffffffffffffffffffffffffffffff16600073ffffffffffffffffffffffffffffffffffffffff167fddf252ad1be2c89b69c2b068fc378daa952ba7f163c4a11628f55a4df523b3ef600754604051620002a2919062000379565b60405180910390a362000405565b600033905090565b828054620002c690620003a0565b90600052602060002090601f016020900481019282620002ea576000855562000336565b82601f106200030557805160ff191683800117855562000336565b8280016001018555821562000336579182015b828111156200033557825182559160200191906001019062000318565b5b50905062000345919062000349565b5090565b5b80821115620003645760008160009055506001016200034a565b5090565b620003738162000396565b82525050565b600060208201905062000390600083018462000368565b92915050565b6000819050919050565b60006002820490506001821680620003b957607f821691505b60208210811415620003d057620003cf620003d6565b5b50919050565b7f4e487b7100000000000000000000000000000000000000000000000000000000600052602260045260246000fd5b612eb080620004156000396000f3fe608060405234801561001057600080fd5b50600436106101585760003560e01c8063715018a6116100c3578063a77cac7a1161007c578063a77cac7a146103aa578063a9059cbb146103db578063d5215d111461040b578063da91b76e14610429578063dd62ed3e14610447578063f2fde38b1461047757610158565b8063715018a61461030c578063893d20e8146103165780638da5cb5b1461033457806395d89b41146103525780639ad3a7ba14610370578063a457c2d71461037a57610158565b8063313ce56711610115578063313ce56714610238578063395093511461025657806344ade3c51461028657806349448898146102a2578063532f1fed146102c057806370a08231146102dc57610158565b806306fdde031461015d578063095ea7b31461017b57806318160ddd146101ab5780631b29b0cd146101c957806323b872dd146101ec5780632e15e5c71461021c575b600080fd5b610165610493565b6040516101729190612578565b60405180910390f35b610195600480360381019061019091906121dc565b610525565b6040516101a2919061255d565b60405180910390f35b6101b3610543565b6040516101c0919061275a565b60405180910390f35b6101d161054d565b6040516101e39695949392919061279e565b60405180910390f35b610206600480360381019061020191906120f4565b6106b7565b604051610213919061255d565b60405180910390f35b61023660048036038101906102319190612087565b610790565b005b610240610833565b60405161024d91906127ff565b60405180910390f35b610270600480360381019061026b91906121dc565b61084a565b60405161027d919061255d565b60405180910390f35b6102a0600480360381019061029b9190612249565b6108fd565b005b6102aa610b97565b6040516102b79190612542565b60405180910390f35b6102da60048036038101906102d59190612147565b610bbd565b005b6102f660048036038101906102f19190612087565b610d89565b604051610303919061275a565b60405180910390f35b610314610dd2565b005b61031e610f0c565b60405161032b9190612542565b60405180910390f35b61033c610f1b565b6040516103499190612542565b60405180910390f35b61035a610f44565b6040516103679190612578565b60405180910390f35b610378610fd6565b005b610394600480360381019061038f91906121dc565b61112e565b6040516103a1919061255d565b60405180910390f35b6103c460048036038101906103bf919061221c565b6111fb565b6040516103d2929190612775565b60405180910390f35b6103f560048036038101906103f091906121dc565b61122f565b604051610402919061255d565b60405180910390f35b61041361124d565b6040516104209190612542565b60405180910390f35b610431611273565b60405161043e919061275a565b60405180910390f35b610461600480360381019061045c91906120b4565b611279565b60405161046e919061275a565b60405180910390f35b610491600480360381019061048c9190612087565b611300565b005b6060600a80546104a290612948565b80601f01602080910402602001604051908101604052809291908181526020018280546104ce90612948565b801561051b5780601f106104f05761010080835404028352916020019161051b565b820191906000526020600020905b8154815290600101906020018083116104fe57829003601f168201915b5050505050905090565b60006105396105326114a9565b84846114b1565b6001905092915050565b6000600754905090565b60008060008060008060006002541115610699576000600254905060005b6001805490508110156106965760006001828154811061058e5761058d612a21565b5b906000526020600020906004020190508060000154836105ae9190612836565b9250824211610682576001826105c49190612836565b81600001548483600101548460020160006105dd6114a9565b73ffffffffffffffffffffffffffffffffffffffff1673ffffffffffffffffffffffffffffffffffffffff16815260200190815260200160002060009054906101000a900460ff168560030160006106336114a9565b73ffffffffffffffffffffffffffffffffffffffff1673ffffffffffffffffffffffffffffffffffffffff168152602001908152602001600020549850985098509850985098505050506106af565b50808061068e9061297a565b91505061056b565b50505b6000806000806000809550955095509550955095505b909192939495565b60006106c484848461167c565b610785846106d06114a9565b61078085604051806060016040528060288152602001612e2e60289139600660008b73ffffffffffffffffffffffffffffffffffffffff1673ffffffffffffffffffffffffffffffffffffffff16815260200190815260200160002060006107366114a9565b73ffffffffffffffffffffffffffffffffffffffff1673ffffffffffffffffffffffffffffffffffffffff168152602001908152602001600020546119159092919063ffffffff16565b6114b1565b600190509392505050565b6107986114a9565b73ffffffffffffffffffffffffffffffffffffffff16600460009054906101000a900473ffffffffffffffffffffffffffffffffffffffff1673ffffffffffffffffffffffffffffffffffffffff1614610827576040517f08c379a000000000000000000000000000000000000000000000000000000000815260040161081e9061273a565b60405180910390fd5b61083081611979565b50565b6000600860009054906101000a900460ff16905090565b60006108f36108576114a9565b846108ee85600660006108686114a9565b73ffffffffffffffffffffffffffffffffffffffff1673ffffffffffffffffffffffffffffffffffffffff16815260200190815260200160002060008973ffffffffffffffffffffffffffffffffffffffff1673ffffffffffffffffffffffffffffffffffffffff16815260200190815260200160002054611aa990919063ffffffff16565b6114b1565b6001905092915050565b6109056114a9565b73ffffffffffffffffffffffffffffffffffffffff16600460009054906101000a900473ffffffffffffffffffffffffffffffffffffffff1673ffffffffffffffffffffffffffffffffffffffff1614610994576040517f08c379a000000000000000000000000000000000000000000000000000000000815260040161098b9061273a565b60405180910390fd5b60018054905086106109db576040517f08c379a00000000000000000000000000000000000000000000000000000000081526004016109d29061261a565b60405180910390fd5b60008411610a1e576040517f08c379a0000000000000000000000000000000000000000000000000000000008152600401610a15906126ba565b60405180910390fd5b60018681548110610a3257610a31612a21565b5b9060005260206000209060040201600001548514610a75578460018781548110610a5f57610a5e612a21565b5b9060005260206000209060040201600001819055505b60018681548110610a8957610a88612a21565b5b9060005260206000209060040201600101548414610acc578360018781548110610ab657610ab5612a21565b5b9060005260206000209060040201600101819055505b60005b83839050811015610b8e578160018881548110610aef57610aee612a21565b5b90600052602060002090600402016002016000868685818110610b1557610b14612a21565b5b9050602002016020810190610b2a9190612087565b73ffffffffffffffffffffffffffffffffffffffff1673ffffffffffffffffffffffffffffffffffffffff16815260200190815260200160002060006101000a81548160ff0219169083151502179055508080610b869061297a565b915050610acf565b50505050505050565b600360009054906101000a900473ffffffffffffffffffffffffffffffffffffffff1681565b610bc56114a9565b73ffffffffffffffffffffffffffffffffffffffff16600460009054906101000a900473ffffffffffffffffffffffffffffffffffffffff1673ffffffffffffffffffffffffffffffffffffffff1614610c54576040517f08c379a0000000000000000000000000000000000000000000000000000000008152600401610c4b9061273a565b60405180910390fd5b818190508484905014610c9c576040517f08c379a0000000000000000000000000000000000000000000000000000000008152600401610c939061271a565b60405180910390fd5b84600360006101000a81548173ffffffffffffffffffffffffffffffffffffffff021916908373ffffffffffffffffffffffffffffffffffffffff1602179055506000848490501115610d825760016000610cf79190611f51565b60005b84849050811015610d80576000600180816001815401808255809150500390600052602060002090600402019050858583818110610d3b57610d3a612a21565b5b905060200201358160000181905550838383818110610d5d57610d5c612a21565b5b905060200201358160010181905550508080610d789061297a565b915050610cfa565b505b5050505050565b6000600560008373ffffffffffffffffffffffffffffffffffffffff1673ffffffffffffffffffffffffffffffffffffffff168152602001908152602001600020549050919050565b610dda6114a9565b73ffffffffffffffffffffffffffffffffffffffff16610df8610f1b565b73ffffffffffffffffffffffffffffffffffffffff1614610e4e576040517f08c379a0000000000000000000000000000000000000000000000000000000008152600401610e459061267a565b60405180910390fd5b600073ffffffffffffffffffffffffffffffffffffffff1660008054906101000a900473ffffffffffffffffffffffffffffffffffffffff1673ffffffffffffffffffffffffffffffffffffffff167f8be0079c531659141344cd1fd0a4f28419497f9722a3daafe3b4186f6b6457e060405160405180910390a360008060006101000a81548173ffffffffffffffffffffffffffffffffffffffff021916908373ffffffffffffffffffffffffffffffffffffffff160217905550565b6000610f16610f1b565b905090565b60008060009054906101000a900473ffffffffffffffffffffffffffffffffffffffff16905090565b606060098054610f5390612948565b80601f0160208091040260200160405190810160405280929190818152602001828054610f7f90612948565b8015610fcc5780601f10610fa157610100808354040283529160200191610fcc565b820191906000526020600020905b815481529060010190602001808311610faf57829003601f168201915b5050505050905090565b610fde6114a9565b73ffffffffffffffffffffffffffffffffffffffff16600460009054906101000a900473ffffffffffffffffffffffffffffffffffffffff1673ffffffffffffffffffffffffffffffffffffffff161461106d576040517f08c379a00000000000000000000000000000000000000000000000000000000081526004016110649061273a565b60405180910390fd5b600073ffffffffffffffffffffffffffffffffffffffff16600460009054906101000a900473ffffffffffffffffffffffffffffffffffffffff1673ffffffffffffffffffffffffffffffffffffffff167f4e78506f3260e366dc9440ee0b4eca2d03aa91536b7605deb90e873d3fc4e5b460405160405180910390a36000600460006101000a81548173ffffffffffffffffffffffffffffffffffffffff021916908373ffffffffffffffffffffffffffffffffffffffff160217905550565b60006111f161113b6114a9565b846111ec85604051806060016040528060258152602001612e5660259139600660006111656114a9565b73ffffffffffffffffffffffffffffffffffffffff1673ffffffffffffffffffffffffffffffffffffffff16815260200190815260200160002060008a73ffffffffffffffffffffffffffffffffffffffff1673ffffffffffffffffffffffffffffffffffffffff168152602001908152602001600020546119159092919063ffffffff16565b6114b1565b6001905092915050565b6001818154811061120b57600080fd5b90600052602060002090600402016000915090508060000154908060010154905082565b600061124361123c6114a9565b848461167c565b6001905092915050565b600460009054906101000a900473ffffffffffffffffffffffffffffffffffffffff1681565b60025481565b6000600660008473ffffffffffffffffffffffffffffffffffffffff1673ffffffffffffffffffffffffffffffffffffffff16815260200190815260200160002060008373ffffffffffffffffffffffffffffffffffffffff1673ffffffffffffffffffffffffffffffffffffffff16815260200190815260200160002054905092915050565b6113086114a9565b73ffffffffffffffffffffffffffffffffffffffff16611326610f1b565b73ffffffffffffffffffffffffffffffffffffffff161461137c576040517f08c379a00000000000000000000000000000000000000000000000000000000081526004016113739061267a565b60405180910390fd5b600073ffffffffffffffffffffffffffffffffffffffff168173ffffffffffffffffffffffffffffffffffffffff1614156113ec576040517f08c379a00000000000000000000000000000000000000000000000000000000081526004016113e3906125da565b60405180910390fd5b8073ffffffffffffffffffffffffffffffffffffffff1660008054906101000a900473ffffffffffffffffffffffffffffffffffffffff1673ffffffffffffffffffffffffffffffffffffffff167f8be0079c531659141344cd1fd0a4f28419497f9722a3daafe3b4186f6b6457e060405160405180910390a3806000806101000a81548173ffffffffffffffffffffffffffffffffffffffff021916908373ffffffffffffffffffffffffffffffffffffffff16021790555050565b600033905090565b600073ffffffffffffffffffffffffffffffffffffffff168373ffffffffffffffffffffffffffffffffffffffff161415611521576040517f08c379a0000000000000000000000000000000000000000000000000000000008152600401611518906125ba565b60405180910390fd5b600073ffffffffffffffffffffffffffffffffffffffff168273ffffffffffffffffffffffffffffffffffffffff161415611591576040517f08c379a0000000000000000000000000000000000000000000000000000000008152600401611588906126da565b60405180910390fd5b80600660008573ffffffffffffffffffffffffffffffffffffffff1673ffffffffffffffffffffffffffffffffffffffff16815260200190815260200160002060008473ffffffffffffffffffffffffffffffffffffffff1673ffffffffffffffffffffffffffffffffffffffff168152602001908152602001600020819055508173ffffffffffffffffffffffffffffffffffffffff168373ffffffffffffffffffffffffffffffffffffffff167f8c5be1e5ebec7d5bd14f71427d1e84f3dd0314c0f7b2291e5b200ac8c7c3b9258360405161166f919061275a565b60405180910390a3505050565b600073ffffffffffffffffffffffffffffffffffffffff168373ffffffffffffffffffffffffffffffffffffffff1614156116ec576040517f08c379a00000000000000000000000000000000000000000000000000000000081526004016116e39061259a565b60405180910390fd5b600073ffffffffffffffffffffffffffffffffffffffff168273ffffffffffffffffffffffffffffffffffffffff16141561175c576040517f08c379a00000000000000000000000000000000000000000000000000000000081526004016117539061263a565b60405180910390fd5b611767838383611b07565b6117d381604051806060016040528060268152602001612e0860269139600560008773ffffffffffffffffffffffffffffffffffffffff1673ffffffffffffffffffffffffffffffffffffffff168152602001908152602001600020546119159092919063ffffffff16565b600560008573ffffffffffffffffffffffffffffffffffffffff1673ffffffffffffffffffffffffffffffffffffffff1681526020019081526020016000208190555061186881600560008573ffffffffffffffffffffffffffffffffffffffff1673ffffffffffffffffffffffffffffffffffffffff16815260200190815260200160002054611aa990919063ffffffff16565b600560008473ffffffffffffffffffffffffffffffffffffffff1673ffffffffffffffffffffffffffffffffffffffff168152602001908152602001600020819055508173ffffffffffffffffffffffffffffffffffffffff168373ffffffffffffffffffffffffffffffffffffffff167fddf252ad1be2c89b69c2b068fc378daa952ba7f163c4a11628f55a4df523b3ef83604051611908919061275a565b60405180910390a3505050565b600083831115829061195d576040517f08c379a00000000000000000000000000000000000000000000000000000000081526004016119549190612578565b60405180910390fd5b506000838561196c919061288c565b9050809150509392505050565b600073ffffffffffffffffffffffffffffffffffffffff168173ffffffffffffffffffffffffffffffffffffffff1614156119e9576040517f08c379a00000000000000000000000000000000000000000000000000000000081526004016119e0906126fa565b60405180910390fd5b8073ffffffffffffffffffffffffffffffffffffffff16600460009054906101000a900473ffffffffffffffffffffffffffffffffffffffff1673ffffffffffffffffffffffffffffffffffffffff167f4e78506f3260e366dc9440ee0b4eca2d03aa91536b7605deb90e873d3fc4e5b460405160405180910390a380600460006101000a81548173ffffffffffffffffffffffffffffffffffffffff021916908373ffffffffffffffffffffffffffffffffffffffff16021790555050565b6000808284611ab89190612836565b905083811015611afd576040517f08c379a0000000000000000000000000000000000000000000000000000000008152600401611af4906125fa565b60405180910390fd5b8091505092915050565b600073ffffffffffffffffffffffffffffffffffffffff16600360009054906101000a900473ffffffffffffffffffffffffffffffffffffffff1673ffffffffffffffffffffffffffffffffffffffff161480611b6957506000600180549050145b15611b7357611f4c565b6000600254148015611bd35750600360009054906101000a900473ffffffffffffffffffffffffffffffffffffffff1673ffffffffffffffffffffffffffffffffffffffff168373ffffffffffffffffffffffffffffffffffffffff1614155b8015611c2c5750600360009054906101000a900473ffffffffffffffffffffffffffffffffffffffff1673ffffffffffffffffffffffffffffffffffffffff168273ffffffffffffffffffffffffffffffffffffffff16145b8015611c385750600081115b15611c4557426002819055505b600360009054906101000a900473ffffffffffffffffffffffffffffffffffffffff1673ffffffffffffffffffffffffffffffffffffffff168373ffffffffffffffffffffffffffffffffffffffff16148015611cf05750600360009054906101000a900473ffffffffffffffffffffffffffffffffffffffff1673ffffffffffffffffffffffffffffffffffffffff168273ffffffffffffffffffffffffffffffffffffffff1614155b15611f4b576000611cff61054d565b505050505090506000811115611f4957600060018083611d1f919061288c565b81548110611d3057611d2f612a21565b5b906000526020600020906004020190508060020160008573ffffffffffffffffffffffffffffffffffffffff1673ffffffffffffffffffffffffffffffffffffffff16815260200190815260200160002060009054906101000a900460ff16611dce576040517f08c379a0000000000000000000000000000000000000000000000000000000008152600401611dc59061269a565b60405180910390fd5b600081600101548260030160008773ffffffffffffffffffffffffffffffffffffffff1673ffffffffffffffffffffffffffffffffffffffff168152602001908152602001600020541015611e71578160030160008673ffffffffffffffffffffffffffffffffffffffff1673ffffffffffffffffffffffffffffffffffffffff168152602001908152602001600020548260010154611e6e919061288c565b90505b80841115611eb4576040517f08c379a0000000000000000000000000000000000000000000000000000000008152600401611eab9061265a565b60405180910390fd5b838260030160008773ffffffffffffffffffffffffffffffffffffffff1673ffffffffffffffffffffffffffffffffffffffff16815260200190815260200160002054611f019190612836565b8260030160008773ffffffffffffffffffffffffffffffffffffffff1673ffffffffffffffffffffffffffffffffffffffff1681526020019081526020016000208190555050505b505b5b505050565b5080546000825560040290600052602060002090810190611f729190611f75565b50565b5b80821115611f9857600080820160009055600182016000905550600401611f76565b5090565b600081359050611fab81612dc2565b92915050565b60008083601f840112611fc757611fc6612a55565b5b8235905067ffffffffffffffff811115611fe457611fe3612a50565b5b60208301915083602082028301111561200057611fff612a5a565b5b9250929050565b60008083601f84011261201d5761201c612a55565b5b8235905067ffffffffffffffff81111561203a57612039612a50565b5b60208301915083602082028301111561205657612055612a5a565b5b9250929050565b60008135905061206c81612dd9565b92915050565b60008135905061208181612df0565b92915050565b60006020828403121561209d5761209c612a64565b5b60006120ab84828501611f9c565b91505092915050565b600080604083850312156120cb576120ca612a64565b5b60006120d985828601611f9c565b92505060206120ea85828601611f9c565b9150509250929050565b60008060006060848603121561210d5761210c612a64565b5b600061211b86828701611f9c565b935050602061212c86828701611f9c565b925050604061213d86828701612072565b9150509250925092565b60008060008060006060868803121561216357612162612a64565b5b600061217188828901611f9c565b955050602086013567ffffffffffffffff81111561219257612191612a5f565b5b61219e88828901612007565b9450945050604086013567ffffffffffffffff8111156121c1576121c0612a5f565b5b6121cd88828901612007565b92509250509295509295909350565b600080604083850312156121f3576121f2612a64565b5b600061220185828601611f9c565b925050602061221285828601612072565b9150509250929050565b60006020828403121561223257612231612a64565b5b600061224084828501612072565b91505092915050565b60008060008060008060a0878903121561226657612265612a64565b5b600061227489828a01612072565b965050602061228589828a01612072565b955050604061229689828a01612072565b945050606087013567ffffffffffffffff8111156122b7576122b6612a5f565b5b6122c389828a01611fb1565b935093505060806122d689828a0161205d565b9150509295509295509295565b6122ec816128c0565b82525050565b6122fb816128d2565b82525050565b600061230c8261281a565b6123168185612825565b9350612326818560208601612915565b61232f81612a69565b840191505092915050565b6000612347602583612825565b915061235282612a7a565b604082019050919050565b600061236a602483612825565b915061237582612ac9565b604082019050919050565b600061238d602683612825565b915061239882612b18565b604082019050919050565b60006123b0601b83612825565b91506123bb82612b67565b602082019050919050565b60006123d3600d83612825565b91506123de82612b90565b602082019050919050565b60006123f6602383612825565b915061240182612bb9565b604082019050919050565b6000612419602683612825565b915061242482612c08565b604082019050919050565b600061243c602083612825565b915061244782612c57565b602082019050919050565b600061245f601e83612825565b915061246a82612c80565b602082019050919050565b6000612482601183612825565b915061248d82612ca9565b602082019050919050565b60006124a5602283612825565b91506124b082612cd2565b604082019050919050565b60006124c8602383612825565b91506124d382612d21565b604082019050919050565b60006124eb601483612825565b91506124f682612d70565b602082019050919050565b600061250e601d83612825565b915061251982612d99565b602082019050919050565b61252d816128fe565b82525050565b61253c81612908565b82525050565b600060208201905061255760008301846122e3565b92915050565b600060208201905061257260008301846122f2565b92915050565b600060208201905081810360008301526125928184612301565b905092915050565b600060208201905081810360008301526125b38161233a565b9050919050565b600060208201905081810360008301526125d38161235d565b9050919050565b600060208201905081810360008301526125f381612380565b9050919050565b60006020820190508181036000830152612613816123a3565b9050919050565b60006020820190508181036000830152612633816123c6565b9050919050565b60006020820190508181036000830152612653816123e9565b9050919050565b600060208201905081810360008301526126738161240c565b9050919050565b600060208201905081810360008301526126938161242f565b9050919050565b600060208201905081810360008301526126b381612452565b9050919050565b600060208201905081810360008301526126d381612475565b9050919050565b600060208201905081810360008301526126f381612498565b9050919050565b60006020820190508181036000830152612713816124bb565b9050919050565b60006020820190508181036000830152612733816124de565b9050919050565b6000602082019050818103600083015261275381612501565b9050919050565b600060208201905061276f6000830184612524565b92915050565b600060408201905061278a6000830185612524565b6127976020830184612524565b9392505050565b600060c0820190506127b36000830189612524565b6127c06020830188612524565b6127cd6040830187612524565b6127da6060830186612524565b6127e760808301856122f2565b6127f460a0830184612524565b979650505050505050565b60006020820190506128146000830184612533565b92915050565b600081519050919050565b600082825260208201905092915050565b6000612841826128fe565b915061284c836128fe565b9250827fffffffffffffffffffffffffffffffffffffffffffffffffffffffffffffffff03821115612881576128806129c3565b5b828201905092915050565b6000612897826128fe565b91506128a2836128fe565b9250828210156128b5576128b46129c3565b5b828203905092915050565b60006128cb826128de565b9050919050565b60008115159050919050565b600073ffffffffffffffffffffffffffffffffffffffff82169050919050565b6000819050919050565b600060ff82169050919050565b60005b83811015612933578082015181840152602081019050612918565b83811115612942576000848401525b50505050565b6000600282049050600182168061296057607f821691505b60208210811415612974576129736129f2565b5b50919050565b6000612985826128fe565b91507fffffffffffffffffffffffffffffffffffffffffffffffffffffffffffffffff8214156129b8576129b76129c3565b5b600182019050919050565b7f4e487b7100000000000000000000000000000000000000000000000000000000600052601160045260246000fd5b7f4e487b7100000000000000000000000000000000000000000000000000000000600052602260045260246000fd5b7f4e487b7100000000000000000000000000000000000000000000000000000000600052603260045260246000fd5b600080fd5b600080fd5b600080fd5b600080fd5b600080fd5b6000601f19601f8301169050919050565b7f47484f53503a207472616e736665722066726f6d20746865207a65726f20616460008201527f6472657373000000000000000000000000000000000000000000000000000000602082015250565b7f47484f53503a20617070726f76652066726f6d20746865207a65726f2061646460008201527f7265737300000000000000000000000000000000000000000000000000000000602082015250565b7f4f776e61626c653a206e6577206f776e657220697320746865207a65726f206160008201527f6464726573730000000000000000000000000000000000000000000000000000602082015250565b7f536166654d6174683a206164646974696f6e206f766572666c6f770000000000600082015250565b7f496e76616c696420696e64657800000000000000000000000000000000000000600082015250565b7f47484f53503a207472616e7366657220746f20746865207a65726f206164647260008201527f6573730000000000000000000000000000000000000000000000000000000000602082015250565b7f4c4745202d20416d6f756e7420657863656564732077686974656c697374206d60008201527f6178696d756d0000000000000000000000000000000000000000000000000000602082015250565b7f4f776e61626c653a2063616c6c6572206973206e6f7420746865206f776e6572600082015250565b7f4c4745202d204275796572206973206e6f742077686974656c69737465640000600082015250565b7f496e76616c696420616d6f756e744d6178000000000000000000000000000000600082015250565b7f47484f53503a20617070726f766520746f20746865207a65726f20616464726560008201527f7373000000000000000000000000000000000000000000000000000000000000602082015250565b7f4e65772077686974656c697374657220697320746865207a65726f206164647260008201527f6573730000000000000000000000000000000000000000000000000000000000602082015250565b7f496e76616c69642077686974656c697374287329000000000000000000000000600082015250565b7f43616c6c6572206973206e6f74207468652077686974656c6973746572000000600082015250565b612dcb816128c0565b8114612dd657600080fd5b50565b612de2816128d2565b8114612ded57600080fd5b50565b612df9816128fe565b8114612e0457600080fd5b5056fe47484f53503a207472616e7366657220616d6f756e7420657863656564732062616c616e636547484f53503a207472616e7366657220616d6f756e74206578636565647320616c6c6f77616e636547484f53503a2064656372656173656420616c6c6f77616e63652062656c6f77207a65726fa264697066735822122068b1adf2b52329b22c8eb47f765927a78f2f618c0b8a0a8cd3afab6ec56b729064736f6c63430008070033",
					"opcodes": "PUSH1 0x80 PUSH1 0x40 MSTORE CALLVALUE DUP1 ISZERO PUSH3 0x11 JUMPI PUSH1 0x0 DUP1 REVERT JUMPDEST POP PUSH1 0x0 PUSH3 0x24 PUSH3 0x2B0 PUSH1 0x20 SHL PUSH1 0x20 SHR JUMP JUMPDEST SWAP1 POP DUP1 PUSH1 0x0 DUP1 PUSH2 0x100 EXP DUP2 SLOAD DUP2 PUSH20 0xFFFFFFFFFFFFFFFFFFFFFFFFFFFFFFFFFFFFFFFF MUL NOT AND SWAP1 DUP4 PUSH20 0xFFFFFFFFFFFFFFFFFFFFFFFFFFFFFFFFFFFFFFFF AND MUL OR SWAP1 SSTORE POP DUP1 PUSH20 0xFFFFFFFFFFFFFFFFFFFFFFFFFFFFFFFFFFFFFFFF AND PUSH1 0x0 PUSH20 0xFFFFFFFFFFFFFFFFFFFFFFFFFFFFFFFFFFFFFFFF AND PUSH32 0x8BE0079C531659141344CD1FD0A4F28419497F9722A3DAAFE3B4186F6B6457E0 PUSH1 0x40 MLOAD PUSH1 0x40 MLOAD DUP1 SWAP2 SUB SWAP1 LOG3 POP PUSH3 0xD2 PUSH3 0x2B0 PUSH1 0x20 SHL PUSH1 0x20 SHR JUMP JUMPDEST PUSH1 0x4 PUSH1 0x0 PUSH2 0x100 EXP DUP2 SLOAD DUP2 PUSH20 0xFFFFFFFFFFFFFFFFFFFFFFFFFFFFFFFFFFFFFFFF MUL NOT AND SWAP1 DUP4 PUSH20 0xFFFFFFFFFFFFFFFFFFFFFFFFFFFFFFFFFFFFFFFF AND MUL OR SWAP1 SSTORE POP PUSH1 0x40 MLOAD DUP1 PUSH1 0x40 ADD PUSH1 0x40 MSTORE DUP1 PUSH1 0x5 DUP2 MSTORE PUSH1 0x20 ADD PUSH32 0x47484F5350000000000000000000000000000000000000000000000000000000 DUP2 MSTORE POP PUSH1 0xA SWAP1 DUP1 MLOAD SWAP1 PUSH1 0x20 ADD SWAP1 PUSH3 0x15F SWAP3 SWAP2 SWAP1 PUSH3 0x2B8 JUMP JUMPDEST POP PUSH1 0x40 MLOAD DUP1 PUSH1 0x40 ADD PUSH1 0x40 MSTORE DUP1 PUSH1 0x4 DUP2 MSTORE PUSH1 0x20 ADD PUSH32 0x4748535000000000000000000000000000000000000000000000000000000000 DUP2 MSTORE POP PUSH1 0x9 SWAP1 DUP1 MLOAD SWAP1 PUSH1 0x20 ADD SWAP1 PUSH3 0x1AD SWAP3 SWAP2 SWAP1 PUSH3 0x2B8 JUMP JUMPDEST POP PUSH1 0x12 PUSH1 0x8 PUSH1 0x0 PUSH2 0x100 EXP DUP2 SLOAD DUP2 PUSH1 0xFF MUL NOT AND SWAP1 DUP4 PUSH1 0xFF AND MUL OR SWAP1 SSTORE POP PUSH11 0x52B7D2DCC80CD2E4000000 PUSH1 0x7 DUP2 SWAP1 SSTORE POP PUSH1 0x7 SLOAD PUSH1 0x5 PUSH1 0x0 PUSH3 0x1F3 PUSH3 0x2B0 PUSH1 0x20 SHL PUSH1 0x20 SHR JUMP JUMPDEST PUSH20 0xFFFFFFFFFFFFFFFFFFFFFFFFFFFFFFFFFFFFFFFF AND PUSH20 0xFFFFFFFFFFFFFFFFFFFFFFFFFFFFFFFFFFFFFFFF AND DUP2 MSTORE PUSH1 0x20 ADD SWAP1 DUP2 MSTORE PUSH1 0x20 ADD PUSH1 0x0 KECCAK256 DUP2 SWAP1 SSTORE POP PUSH3 0x241 PUSH3 0x2B0 PUSH1 0x20 SHL PUSH1 0x20 SHR JUMP JUMPDEST PUSH20 0xFFFFFFFFFFFFFFFFFFFFFFFFFFFFFFFFFFFFFFFF AND PUSH1 0x0 PUSH20 0xFFFFFFFFFFFFFFFFFFFFFFFFFFFFFFFFFFFFFFFF AND PUSH32 0xDDF252AD1BE2C89B69C2B068FC378DAA952BA7F163C4A11628F55A4DF523B3EF PUSH1 0x7 SLOAD PUSH1 0x40 MLOAD PUSH3 0x2A2 SWAP2 SWAP1 PUSH3 0x379 JUMP JUMPDEST PUSH1 0x40 MLOAD DUP1 SWAP2 SUB SWAP1 LOG3 PUSH3 0x405 JUMP JUMPDEST PUSH1 0x0 CALLER SWAP1 POP SWAP1 JUMP JUMPDEST DUP3 DUP1 SLOAD PUSH3 0x2C6 SWAP1 PUSH3 0x3A0 JUMP JUMPDEST SWAP1 PUSH1 0x0 MSTORE PUSH1 0x20 PUSH1 0x0 KECCAK256 SWAP1 PUSH1 0x1F ADD PUSH1 0x20 SWAP1 DIV DUP2 ADD SWAP3 DUP3 PUSH3 0x2EA JUMPI PUSH1 0x0 DUP6 SSTORE PUSH3 0x336 JUMP JUMPDEST DUP3 PUSH1 0x1F LT PUSH3 0x305 JUMPI DUP1 MLOAD PUSH1 0xFF NOT AND DUP4 DUP1 ADD OR DUP6 SSTORE PUSH3 0x336 JUMP JUMPDEST DUP3 DUP1 ADD PUSH1 0x1 ADD DUP6 SSTORE DUP3 ISZERO PUSH3 0x336 JUMPI SWAP2 DUP3 ADD JUMPDEST DUP3 DUP2 GT ISZERO PUSH3 0x335 JUMPI DUP3 MLOAD DUP3 SSTORE SWAP2 PUSH1 0x20 ADD SWAP2 SWAP1 PUSH1 0x1 ADD SWAP1 PUSH3 0x318 JUMP JUMPDEST JUMPDEST POP SWAP1 POP PUSH3 0x345 SWAP2 SWAP1 PUSH3 0x349 JUMP JUMPDEST POP SWAP1 JUMP JUMPDEST JUMPDEST DUP1 DUP3 GT ISZERO PUSH3 0x364 JUMPI PUSH1 0x0 DUP2 PUSH1 0x0 SWAP1 SSTORE POP PUSH1 0x1 ADD PUSH3 0x34A JUMP JUMPDEST POP SWAP1 JUMP JUMPDEST PUSH3 0x373 DUP2 PUSH3 0x396 JUMP JUMPDEST DUP3 MSTORE POP POP JUMP JUMPDEST PUSH1 0x0 PUSH1 0x20 DUP3 ADD SWAP1 POP PUSH3 0x390 PUSH1 0x0 DUP4 ADD DUP5 PUSH3 0x368 JUMP JUMPDEST SWAP3 SWAP2 POP POP JUMP JUMPDEST PUSH1 0x0 DUP2 SWAP1 POP SWAP2 SWAP1 POP JUMP JUMPDEST PUSH1 0x0 PUSH1 0x2 DUP3 DIV SWAP1 POP PUSH1 0x1 DUP3 AND DUP1 PUSH3 0x3B9 JUMPI PUSH1 0x7F DUP3 AND SWAP2 POP JUMPDEST PUSH1 0x20 DUP3 LT DUP2 EQ ISZERO PUSH3 0x3D0 JUMPI PUSH3 0x3CF PUSH3 0x3D6 JUMP JUMPDEST JUMPDEST POP SWAP2 SWAP1 POP JUMP JUMPDEST PUSH32 0x4E487B7100000000000000000000000000000000000000000000000000000000 PUSH1 0x0 MSTORE PUSH1 0x22 PUSH1 0x4 MSTORE PUSH1 0x24 PUSH1 0x0 REVERT JUMPDEST PUSH2 0x2EB0 DUP1 PUSH3 0x415 PUSH1 0x0 CODECOPY PUSH1 0x0 RETURN INVALID PUSH1 0x80 PUSH1 0x40 MSTORE CALLVALUE DUP1 ISZERO PUSH2 0x10 JUMPI PUSH1 0x0 DUP1 REVERT JUMPDEST POP PUSH1 0x4 CALLDATASIZE LT PUSH2 0x158 JUMPI PUSH1 0x0 CALLDATALOAD PUSH1 0xE0 SHR DUP1 PUSH4 0x715018A6 GT PUSH2 0xC3 JUMPI DUP1 PUSH4 0xA77CAC7A GT PUSH2 0x7C JUMPI DUP1 PUSH4 0xA77CAC7A EQ PUSH2 0x3AA JUMPI DUP1 PUSH4 0xA9059CBB EQ PUSH2 0x3DB JUMPI DUP1 PUSH4 0xD5215D11 EQ PUSH2 0x40B JUMPI DUP1 PUSH4 0xDA91B76E EQ PUSH2 0x429 JUMPI DUP1 PUSH4 0xDD62ED3E EQ PUSH2 0x447 JUMPI DUP1 PUSH4 0xF2FDE38B EQ PUSH2 0x477 JUMPI PUSH2 0x158 JUMP JUMPDEST DUP1 PUSH4 0x715018A6 EQ PUSH2 0x30C JUMPI DUP1 PUSH4 0x893D20E8 EQ PUSH2 0x316 JUMPI DUP1 PUSH4 0x8DA5CB5B EQ PUSH2 0x334 JUMPI DUP1 PUSH4 0x95D89B41 EQ PUSH2 0x352 JUMPI DUP1 PUSH4 0x9AD3A7BA EQ PUSH2 0x370 JUMPI DUP1 PUSH4 0xA457C2D7 EQ PUSH2 0x37A JUMPI PUSH2 0x158 JUMP JUMPDEST DUP1 PUSH4 0x313CE567 GT PUSH2 0x115 JUMPI DUP1 PUSH4 0x313CE567 EQ PUSH2 0x238 JUMPI DUP1 PUSH4 0x39509351 EQ PUSH2 0x256 JUMPI DUP1 PUSH4 0x44ADE3C5 EQ PUSH2 0x286 JUMPI DUP1 PUSH4 0x49448898 EQ PUSH2 0x2A2 JUMPI DUP1 PUSH4 0x532F1FED EQ PUSH2 0x2C0 JUMPI DUP1 PUSH4 0x70A08231 EQ PUSH2 0x2DC JUMPI PUSH2 0x158 JUMP JUMPDEST DUP1 PUSH4 0x6FDDE03 EQ PUSH2 0x15D JUMPI DUP1 PUSH4 0x95EA7B3 EQ PUSH2 0x17B JUMPI DUP1 PUSH4 0x18160DDD EQ PUSH2 0x1AB JUMPI DUP1 PUSH4 0x1B29B0CD EQ PUSH2 0x1C9 JUMPI DUP1 PUSH4 0x23B872DD EQ PUSH2 0x1EC JUMPI DUP1 PUSH4 0x2E15E5C7 EQ PUSH2 0x21C JUMPI JUMPDEST PUSH1 0x0 DUP1 REVERT JUMPDEST PUSH2 0x165 PUSH2 0x493 JUMP JUMPDEST PUSH1 0x40 MLOAD PUSH2 0x172 SWAP2 SWAP1 PUSH2 0x2578 JUMP JUMPDEST PUSH1 0x40 MLOAD DUP1 SWAP2 SUB SWAP1 RETURN JUMPDEST PUSH2 0x195 PUSH1 0x4 DUP1 CALLDATASIZE SUB DUP2 ADD SWAP1 PUSH2 0x190 SWAP2 SWAP1 PUSH2 0x21DC JUMP JUMPDEST PUSH2 0x525 JUMP JUMPDEST PUSH1 0x40 MLOAD PUSH2 0x1A2 SWAP2 SWAP1 PUSH2 0x255D JUMP JUMPDEST PUSH1 0x40 MLOAD DUP1 SWAP2 SUB SWAP1 RETURN JUMPDEST PUSH2 0x1B3 PUSH2 0x543 JUMP JUMPDEST PUSH1 0x40 MLOAD PUSH2 0x1C0 SWAP2 SWAP1 PUSH2 0x275A JUMP JUMPDEST PUSH1 0x40 MLOAD DUP1 SWAP2 SUB SWAP1 RETURN JUMPDEST PUSH2 0x1D1 PUSH2 0x54D JUMP JUMPDEST PUSH1 0x40 MLOAD PUSH2 0x1E3 SWAP7 SWAP6 SWAP5 SWAP4 SWAP3 SWAP2 SWAP1 PUSH2 0x279E JUMP JUMPDEST PUSH1 0x40 MLOAD DUP1 SWAP2 SUB SWAP1 RETURN JUMPDEST PUSH2 0x206 PUSH1 0x4 DUP1 CALLDATASIZE SUB DUP2 ADD SWAP1 PUSH2 0x201 SWAP2 SWAP1 PUSH2 0x20F4 JUMP JUMPDEST PUSH2 0x6B7 JUMP JUMPDEST PUSH1 0x40 MLOAD PUSH2 0x213 SWAP2 SWAP1 PUSH2 0x255D JUMP JUMPDEST PUSH1 0x40 MLOAD DUP1 SWAP2 SUB SWAP1 RETURN JUMPDEST PUSH2 0x236 PUSH1 0x4 DUP1 CALLDATASIZE SUB DUP2 ADD SWAP1 PUSH2 0x231 SWAP2 SWAP1 PUSH2 0x2087 JUMP JUMPDEST PUSH2 0x790 JUMP JUMPDEST STOP JUMPDEST PUSH2 0x240 PUSH2 0x833 JUMP JUMPDEST PUSH1 0x40 MLOAD PUSH2 0x24D SWAP2 SWAP1 PUSH2 0x27FF JUMP JUMPDEST PUSH1 0x40 MLOAD DUP1 SWAP2 SUB SWAP1 RETURN JUMPDEST PUSH2 0x270 PUSH1 0x4 DUP1 CALLDATASIZE SUB DUP2 ADD SWAP1 PUSH2 0x26B SWAP2 SWAP1 PUSH2 0x21DC JUMP JUMPDEST PUSH2 0x84A JUMP JUMPDEST PUSH1 0x40 MLOAD PUSH2 0x27D SWAP2 SWAP1 PUSH2 0x255D JUMP JUMPDEST PUSH1 0x40 MLOAD DUP1 SWAP2 SUB SWAP1 RETURN JUMPDEST PUSH2 0x2A0 PUSH1 0x4 DUP1 CALLDATASIZE SUB DUP2 ADD SWAP1 PUSH2 0x29B SWAP2 SWAP1 PUSH2 0x2249 JUMP JUMPDEST PUSH2 0x8FD JUMP JUMPDEST STOP JUMPDEST PUSH2 0x2AA PUSH2 0xB97 JUMP JUMPDEST PUSH1 0x40 MLOAD PUSH2 0x2B7 SWAP2 SWAP1 PUSH2 0x2542 JUMP JUMPDEST PUSH1 0x40 MLOAD DUP1 SWAP2 SUB SWAP1 RETURN JUMPDEST PUSH2 0x2DA PUSH1 0x4 DUP1 CALLDATASIZE SUB DUP2 ADD SWAP1 PUSH2 0x2D5 SWAP2 SWAP1 PUSH2 0x2147 JUMP JUMPDEST PUSH2 0xBBD JUMP JUMPDEST STOP JUMPDEST PUSH2 0x2F6 PUSH1 0x4 DUP1 CALLDATASIZE SUB DUP2 ADD SWAP1 PUSH2 0x2F1 SWAP2 SWAP1 PUSH2 0x2087 JUMP JUMPDEST PUSH2 0xD89 JUMP JUMPDEST PUSH1 0x40 MLOAD PUSH2 0x303 SWAP2 SWAP1 PUSH2 0x275A JUMP JUMPDEST PUSH1 0x40 MLOAD DUP1 SWAP2 SUB SWAP1 RETURN JUMPDEST PUSH2 0x314 PUSH2 0xDD2 JUMP JUMPDEST STOP JUMPDEST PUSH2 0x31E PUSH2 0xF0C JUMP JUMPDEST PUSH1 0x40 MLOAD PUSH2 0x32B SWAP2 SWAP1 PUSH2 0x2542 JUMP JUMPDEST PUSH1 0x40 MLOAD DUP1 SWAP2 SUB SWAP1 RETURN JUMPDEST PUSH2 0x33C PUSH2 0xF1B JUMP JUMPDEST PUSH1 0x40 MLOAD PUSH2 0x349 SWAP2 SWAP1 PUSH2 0x2542 JUMP JUMPDEST PUSH1 0x40 MLOAD DUP1 SWAP2 SUB SWAP1 RETURN JUMPDEST PUSH2 0x35A PUSH2 0xF44 JUMP JUMPDEST PUSH1 0x40 MLOAD PUSH2 0x367 SWAP2 SWAP1 PUSH2 0x2578 JUMP JUMPDEST PUSH1 0x40 MLOAD DUP1 SWAP2 SUB SWAP1 RETURN JUMPDEST PUSH2 0x378 PUSH2 0xFD6 JUMP JUMPDEST STOP JUMPDEST PUSH2 0x394 PUSH1 0x4 DUP1 CALLDATASIZE SUB DUP2 ADD SWAP1 PUSH2 0x38F SWAP2 SWAP1 PUSH2 0x21DC JUMP JUMPDEST PUSH2 0x112E JUMP JUMPDEST PUSH1 0x40 MLOAD PUSH2 0x3A1 SWAP2 SWAP1 PUSH2 0x255D JUMP JUMPDEST PUSH1 0x40 MLOAD DUP1 SWAP2 SUB SWAP1 RETURN JUMPDEST PUSH2 0x3C4 PUSH1 0x4 DUP1 CALLDATASIZE SUB DUP2 ADD SWAP1 PUSH2 0x3BF SWAP2 SWAP1 PUSH2 0x221C JUMP JUMPDEST PUSH2 0x11FB JUMP JUMPDEST PUSH1 0x40 MLOAD PUSH2 0x3D2 SWAP3 SWAP2 SWAP1 PUSH2 0x2775 JUMP JUMPDEST PUSH1 0x40 MLOAD DUP1 SWAP2 SUB SWAP1 RETURN JUMPDEST PUSH2 0x3F5 PUSH1 0x4 DUP1 CALLDATASIZE SUB DUP2 ADD SWAP1 PUSH2 0x3F0 SWAP2 SWAP1 PUSH2 0x21DC JUMP JUMPDEST PUSH2 0x122F JUMP JUMPDEST PUSH1 0x40 MLOAD PUSH2 0x402 SWAP2 SWAP1 PUSH2 0x255D JUMP JUMPDEST PUSH1 0x40 MLOAD DUP1 SWAP2 SUB SWAP1 RETURN JUMPDEST PUSH2 0x413 PUSH2 0x124D JUMP JUMPDEST PUSH1 0x40 MLOAD PUSH2 0x420 SWAP2 SWAP1 PUSH2 0x2542 JUMP JUMPDEST PUSH1 0x40 MLOAD DUP1 SWAP2 SUB SWAP1 RETURN JUMPDEST PUSH2 0x431 PUSH2 0x1273 JUMP JUMPDEST PUSH1 0x40 MLOAD PUSH2 0x43E SWAP2 SWAP1 PUSH2 0x275A JUMP JUMPDEST PUSH1 0x40 MLOAD DUP1 SWAP2 SUB SWAP1 RETURN JUMPDEST PUSH2 0x461 PUSH1 0x4 DUP1 CALLDATASIZE SUB DUP2 ADD SWAP1 PUSH2 0x45C SWAP2 SWAP1 PUSH2 0x20B4 JUMP JUMPDEST PUSH2 0x1279 JUMP JUMPDEST PUSH1 0x40 MLOAD PUSH2 0x46E SWAP2 SWAP1 PUSH2 0x275A JUMP JUMPDEST PUSH1 0x40 MLOAD DUP1 SWAP2 SUB SWAP1 RETURN JUMPDEST PUSH2 0x491 PUSH1 0x4 DUP1 CALLDATASIZE SUB DUP2 ADD SWAP1 PUSH2 0x48C SWAP2 SWAP1 PUSH2 0x2087 JUMP JUMPDEST PUSH2 0x1300 JUMP JUMPDEST STOP JUMPDEST PUSH1 0x60 PUSH1 0xA DUP1 SLOAD PUSH2 0x4A2 SWAP1 PUSH2 0x2948 JUMP JUMPDEST DUP1 PUSH1 0x1F ADD PUSH1 0x20 DUP1 SWAP2 DIV MUL PUSH1 0x20 ADD PUSH1 0x40 MLOAD SWAP1 DUP2 ADD PUSH1 0x40 MSTORE DUP1 SWAP3 SWAP2 SWAP1 DUP2 DUP2 MSTORE PUSH1 0x20 ADD DUP3 DUP1 SLOAD PUSH2 0x4CE SWAP1 PUSH2 0x2948 JUMP JUMPDEST DUP1 ISZERO PUSH2 0x51B JUMPI DUP1 PUSH1 0x1F LT PUSH2 0x4F0 JUMPI PUSH2 0x100 DUP1 DUP4 SLOAD DIV MUL DUP4 MSTORE SWAP2 PUSH1 0x20 ADD SWAP2 PUSH2 0x51B JUMP JUMPDEST DUP3 ADD SWAP2 SWAP1 PUSH1 0x0 MSTORE PUSH1 0x20 PUSH1 0x0 KECCAK256 SWAP1 JUMPDEST DUP2 SLOAD DUP2 MSTORE SWAP1 PUSH1 0x1 ADD SWAP1 PUSH1 0x20 ADD DUP1 DUP4 GT PUSH2 0x4FE JUMPI DUP3 SWAP1 SUB PUSH1 0x1F AND DUP3 ADD SWAP2 JUMPDEST POP POP POP POP POP SWAP1 POP SWAP1 JUMP JUMPDEST PUSH1 0x0 PUSH2 0x539 PUSH2 0x532 PUSH2 0x14A9 JUMP JUMPDEST DUP5 DUP5 PUSH2 0x14B1 JUMP JUMPDEST PUSH1 0x1 SWAP1 POP SWAP3 SWAP2 POP POP JUMP JUMPDEST PUSH1 0x0 PUSH1 0x7 SLOAD SWAP1 POP SWAP1 JUMP JUMPDEST PUSH1 0x0 DUP1 PUSH1 0x0 DUP1 PUSH1 0x0 DUP1 PUSH1 0x0 PUSH1 0x2 SLOAD GT ISZERO PUSH2 0x699 JUMPI PUSH1 0x0 PUSH1 0x2 SLOAD SWAP1 POP PUSH1 0x0 JUMPDEST PUSH1 0x1 DUP1 SLOAD SWAP1 POP DUP2 LT ISZERO PUSH2 0x696 JUMPI PUSH1 0x0 PUSH1 0x1 DUP3 DUP2 SLOAD DUP2 LT PUSH2 0x58E JUMPI PUSH2 0x58D PUSH2 0x2A21 JUMP JUMPDEST JUMPDEST SWAP1 PUSH1 0x0 MSTORE PUSH1 0x20 PUSH1 0x0 KECCAK256 SWAP1 PUSH1 0x4 MUL ADD SWAP1 POP DUP1 PUSH1 0x0 ADD SLOAD DUP4 PUSH2 0x5AE SWAP2 SWAP1 PUSH2 0x2836 JUMP JUMPDEST SWAP3 POP DUP3 TIMESTAMP GT PUSH2 0x682 JUMPI PUSH1 0x1 DUP3 PUSH2 0x5C4 SWAP2 SWAP1 PUSH2 0x2836 JUMP JUMPDEST DUP2 PUSH1 0x0 ADD SLOAD DUP5 DUP4 PUSH1 0x1 ADD SLOAD DUP5 PUSH1 0x2 ADD PUSH1 0x0 PUSH2 0x5DD PUSH2 0x14A9 JUMP JUMPDEST PUSH20 0xFFFFFFFFFFFFFFFFFFFFFFFFFFFFFFFFFFFFFFFF AND PUSH20 0xFFFFFFFFFFFFFFFFFFFFFFFFFFFFFFFFFFFFFFFF AND DUP2 MSTORE PUSH1 0x20 ADD SWAP1 DUP2 MSTORE PUSH1 0x20 ADD PUSH1 0x0 KECCAK256 PUSH1 0x0 SWAP1 SLOAD SWAP1 PUSH2 0x100 EXP SWAP1 DIV PUSH1 0xFF AND DUP6 PUSH1 0x3 ADD PUSH1 0x0 PUSH2 0x633 PUSH2 0x14A9 JUMP JUMPDEST PUSH20 0xFFFFFFFFFFFFFFFFFFFFFFFFFFFFFFFFFFFFFFFF AND PUSH20 0xFFFFFFFFFFFFFFFFFFFFFFFFFFFFFFFFFFFFFFFF AND DUP2 MSTORE PUSH1 0x20 ADD SWAP1 DUP2 MSTORE PUSH1 0x20 ADD PUSH1 0x0 KECCAK256 SLOAD SWAP9 POP SWAP9 POP SWAP9 POP SWAP9 POP SWAP9 POP SWAP9 POP POP POP POP PUSH2 0x6AF JUMP JUMPDEST POP DUP1 DUP1 PUSH2 0x68E SWAP1 PUSH2 0x297A JUMP JUMPDEST SWAP2 POP POP PUSH2 0x56B JUMP JUMPDEST POP POP JUMPDEST PUSH1 0x0 DUP1 PUSH1 0x0 DUP1 PUSH1 0x0 DUP1 SWAP6 POP SWAP6 POP SWAP6 POP SWAP6 POP SWAP6 POP SWAP6 POP JUMPDEST SWAP1 SWAP2 SWAP3 SWAP4 SWAP5 SWAP6 JUMP JUMPDEST PUSH1 0x0 PUSH2 0x6C4 DUP5 DUP5 DUP5 PUSH2 0x167C JUMP JUMPDEST PUSH2 0x785 DUP5 PUSH2 0x6D0 PUSH2 0x14A9 JUMP JUMPDEST PUSH2 0x780 DUP6 PUSH1 0x40 MLOAD DUP1 PUSH1 0x60 ADD PUSH1 0x40 MSTORE DUP1 PUSH1 0x28 DUP2 MSTORE PUSH1 0x20 ADD PUSH2 0x2E2E PUSH1 0x28 SWAP2 CODECOPY PUSH1 0x6 PUSH1 0x0 DUP12 PUSH20 0xFFFFFFFFFFFFFFFFFFFFFFFFFFFFFFFFFFFFFFFF AND PUSH20 0xFFFFFFFFFFFFFFFFFFFFFFFFFFFFFFFFFFFFFFFF AND DUP2 MSTORE PUSH1 0x20 ADD SWAP1 DUP2 MSTORE PUSH1 0x20 ADD PUSH1 0x0 KECCAK256 PUSH1 0x0 PUSH2 0x736 PUSH2 0x14A9 JUMP JUMPDEST PUSH20 0xFFFFFFFFFFFFFFFFFFFFFFFFFFFFFFFFFFFFFFFF AND PUSH20 0xFFFFFFFFFFFFFFFFFFFFFFFFFFFFFFFFFFFFFFFF AND DUP2 MSTORE PUSH1 0x20 ADD SWAP1 DUP2 MSTORE PUSH1 0x20 ADD PUSH1 0x0 KECCAK256 SLOAD PUSH2 0x1915 SWAP1 SWAP3 SWAP2 SWAP1 PUSH4 0xFFFFFFFF AND JUMP JUMPDEST PUSH2 0x14B1 JUMP JUMPDEST PUSH1 0x1 SWAP1 POP SWAP4 SWAP3 POP POP POP JUMP JUMPDEST PUSH2 0x798 PUSH2 0x14A9 JUMP JUMPDEST PUSH20 0xFFFFFFFFFFFFFFFFFFFFFFFFFFFFFFFFFFFFFFFF AND PUSH1 0x4 PUSH1 0x0 SWAP1 SLOAD SWAP1 PUSH2 0x100 EXP SWAP1 DIV PUSH20 0xFFFFFFFFFFFFFFFFFFFFFFFFFFFFFFFFFFFFFFFF AND PUSH20 0xFFFFFFFFFFFFFFFFFFFFFFFFFFFFFFFFFFFFFFFF AND EQ PUSH2 0x827 JUMPI PUSH1 0x40 MLOAD PUSH32 0x8C379A000000000000000000000000000000000000000000000000000000000 DUP2 MSTORE PUSH1 0x4 ADD PUSH2 0x81E SWAP1 PUSH2 0x273A JUMP JUMPDEST PUSH1 0x40 MLOAD DUP1 SWAP2 SUB SWAP1 REVERT JUMPDEST PUSH2 0x830 DUP2 PUSH2 0x1979 JUMP JUMPDEST POP JUMP JUMPDEST PUSH1 0x0 PUSH1 0x8 PUSH1 0x0 SWAP1 SLOAD SWAP1 PUSH2 0x100 EXP SWAP1 DIV PUSH1 0xFF AND SWAP1 POP SWAP1 JUMP JUMPDEST PUSH1 0x0 PUSH2 0x8F3 PUSH2 0x857 PUSH2 0x14A9 JUMP JUMPDEST DUP5 PUSH2 0x8EE DUP6 PUSH1 0x6 PUSH1 0x0 PUSH2 0x868 PUSH2 0x14A9 JUMP JUMPDEST PUSH20 0xFFFFFFFFFFFFFFFFFFFFFFFFFFFFFFFFFFFFFFFF AND PUSH20 0xFFFFFFFFFFFFFFFFFFFFFFFFFFFFFFFFFFFFFFFF AND DUP2 MSTORE PUSH1 0x20 ADD SWAP1 DUP2 MSTORE PUSH1 0x20 ADD PUSH1 0x0 KECCAK256 PUSH1 0x0 DUP10 PUSH20 0xFFFFFFFFFFFFFFFFFFFFFFFFFFFFFFFFFFFFFFFF AND PUSH20 0xFFFFFFFFFFFFFFFFFFFFFFFFFFFFFFFFFFFFFFFF AND DUP2 MSTORE PUSH1 0x20 ADD SWAP1 DUP2 MSTORE PUSH1 0x20 ADD PUSH1 0x0 KECCAK256 SLOAD PUSH2 0x1AA9 SWAP1 SWAP2 SWAP1 PUSH4 0xFFFFFFFF AND JUMP JUMPDEST PUSH2 0x14B1 JUMP JUMPDEST PUSH1 0x1 SWAP1 POP SWAP3 SWAP2 POP POP JUMP JUMPDEST PUSH2 0x905 PUSH2 0x14A9 JUMP JUMPDEST PUSH20 0xFFFFFFFFFFFFFFFFFFFFFFFFFFFFFFFFFFFFFFFF AND PUSH1 0x4 PUSH1 0x0 SWAP1 SLOAD SWAP1 PUSH2 0x100 EXP SWAP1 DIV PUSH20 0xFFFFFFFFFFFFFFFFFFFFFFFFFFFFFFFFFFFFFFFF AND PUSH20 0xFFFFFFFFFFFFFFFFFFFFFFFFFFFFFFFFFFFFFFFF AND EQ PUSH2 0x994 JUMPI PUSH1 0x40 MLOAD PUSH32 0x8C379A000000000000000000000000000000000000000000000000000000000 DUP2 MSTORE PUSH1 0x4 ADD PUSH2 0x98B SWAP1 PUSH2 0x273A JUMP JUMPDEST PUSH1 0x40 MLOAD DUP1 SWAP2 SUB SWAP1 REVERT JUMPDEST PUSH1 0x1 DUP1 SLOAD SWAP1 POP DUP7 LT PUSH2 0x9DB JUMPI PUSH1 0x40 MLOAD PUSH32 0x8C379A000000000000000000000000000000000000000000000000000000000 DUP2 MSTORE PUSH1 0x4 ADD PUSH2 0x9D2 SWAP1 PUSH2 0x261A JUMP JUMPDEST PUSH1 0x40 MLOAD DUP1 SWAP2 SUB SWAP1 REVERT JUMPDEST PUSH1 0x0 DUP5 GT PUSH2 0xA1E JUMPI PUSH1 0x40 MLOAD PUSH32 0x8C379A000000000000000000000000000000000000000000000000000000000 DUP2 MSTORE PUSH1 0x4 ADD PUSH2 0xA15 SWAP1 PUSH2 0x26BA JUMP JUMPDEST PUSH1 0x40 MLOAD DUP1 SWAP2 SUB SWAP1 REVERT JUMPDEST PUSH1 0x1 DUP7 DUP2 SLOAD DUP2 LT PUSH2 0xA32 JUMPI PUSH2 0xA31 PUSH2 0x2A21 JUMP JUMPDEST JUMPDEST SWAP1 PUSH1 0x0 MSTORE PUSH1 0x20 PUSH1 0x0 KECCAK256 SWAP1 PUSH1 0x4 MUL ADD PUSH1 0x0 ADD SLOAD DUP6 EQ PUSH2 0xA75 JUMPI DUP5 PUSH1 0x1 DUP8 DUP2 SLOAD DUP2 LT PUSH2 0xA5F JUMPI PUSH2 0xA5E PUSH2 0x2A21 JUMP JUMPDEST JUMPDEST SWAP1 PUSH1 0x0 MSTORE PUSH1 0x20 PUSH1 0x0 KECCAK256 SWAP1 PUSH1 0x4 MUL ADD PUSH1 0x0 ADD DUP2 SWAP1 SSTORE POP JUMPDEST PUSH1 0x1 DUP7 DUP2 SLOAD DUP2 LT PUSH2 0xA89 JUMPI PUSH2 0xA88 PUSH2 0x2A21 JUMP JUMPDEST JUMPDEST SWAP1 PUSH1 0x0 MSTORE PUSH1 0x20 PUSH1 0x0 KECCAK256 SWAP1 PUSH1 0x4 MUL ADD PUSH1 0x1 ADD SLOAD DUP5 EQ PUSH2 0xACC JUMPI DUP4 PUSH1 0x1 DUP8 DUP2 SLOAD DUP2 LT PUSH2 0xAB6 JUMPI PUSH2 0xAB5 PUSH2 0x2A21 JUMP JUMPDEST JUMPDEST SWAP1 PUSH1 0x0 MSTORE PUSH1 0x20 PUSH1 0x0 KECCAK256 SWAP1 PUSH1 0x4 MUL ADD PUSH1 0x1 ADD DUP2 SWAP1 SSTORE POP JUMPDEST PUSH1 0x0 JUMPDEST DUP4 DUP4 SWAP1 POP DUP2 LT ISZERO PUSH2 0xB8E JUMPI DUP2 PUSH1 0x1 DUP9 DUP2 SLOAD DUP2 LT PUSH2 0xAEF JUMPI PUSH2 0xAEE PUSH2 0x2A21 JUMP JUMPDEST JUMPDEST SWAP1 PUSH1 0x0 MSTORE PUSH1 0x20 PUSH1 0x0 KECCAK256 SWAP1 PUSH1 0x4 MUL ADD PUSH1 0x2 ADD PUSH1 0x0 DUP7 DUP7 DUP6 DUP2 DUP2 LT PUSH2 0xB15 JUMPI PUSH2 0xB14 PUSH2 0x2A21 JUMP JUMPDEST JUMPDEST SWAP1 POP PUSH1 0x20 MUL ADD PUSH1 0x20 DUP2 ADD SWAP1 PUSH2 0xB2A SWAP2 SWAP1 PUSH2 0x2087 JUMP JUMPDEST PUSH20 0xFFFFFFFFFFFFFFFFFFFFFFFFFFFFFFFFFFFFFFFF AND PUSH20 0xFFFFFFFFFFFFFFFFFFFFFFFFFFFFFFFFFFFFFFFF AND DUP2 MSTORE PUSH1 0x20 ADD SWAP1 DUP2 MSTORE PUSH1 0x20 ADD PUSH1 0x0 KECCAK256 PUSH1 0x0 PUSH2 0x100 EXP DUP2 SLOAD DUP2 PUSH1 0xFF MUL NOT AND SWAP1 DUP4 ISZERO ISZERO MUL OR SWAP1 SSTORE POP DUP1 DUP1 PUSH2 0xB86 SWAP1 PUSH2 0x297A JUMP JUMPDEST SWAP2 POP POP PUSH2 0xACF JUMP JUMPDEST POP POP POP POP POP POP POP JUMP JUMPDEST PUSH1 0x3 PUSH1 0x0 SWAP1 SLOAD SWAP1 PUSH2 0x100 EXP SWAP1 DIV PUSH20 0xFFFFFFFFFFFFFFFFFFFFFFFFFFFFFFFFFFFFFFFF AND DUP2 JUMP JUMPDEST PUSH2 0xBC5 PUSH2 0x14A9 JUMP JUMPDEST PUSH20 0xFFFFFFFFFFFFFFFFFFFFFFFFFFFFFFFFFFFFFFFF AND PUSH1 0x4 PUSH1 0x0 SWAP1 SLOAD SWAP1 PUSH2 0x100 EXP SWAP1 DIV PUSH20 0xFFFFFFFFFFFFFFFFFFFFFFFFFFFFFFFFFFFFFFFF AND PUSH20 0xFFFFFFFFFFFFFFFFFFFFFFFFFFFFFFFFFFFFFFFF AND EQ PUSH2 0xC54 JUMPI PUSH1 0x40 MLOAD PUSH32 0x8C379A000000000000000000000000000000000000000000000000000000000 DUP2 MSTORE PUSH1 0x4 ADD PUSH2 0xC4B SWAP1 PUSH2 0x273A JUMP JUMPDEST PUSH1 0x40 MLOAD DUP1 SWAP2 SUB SWAP1 REVERT JUMPDEST DUP2 DUP2 SWAP1 POP DUP5 DUP5 SWAP1 POP EQ PUSH2 0xC9C JUMPI PUSH1 0x40 MLOAD PUSH32 0x8C379A000000000000000000000000000000000000000000000000000000000 DUP2 MSTORE PUSH1 0x4 ADD PUSH2 0xC93 SWAP1 PUSH2 0x271A JUMP JUMPDEST PUSH1 0x40 MLOAD DUP1 SWAP2 SUB SWAP1 REVERT JUMPDEST DUP5 PUSH1 0x3 PUSH1 0x0 PUSH2 0x100 EXP DUP2 SLOAD DUP2 PUSH20 0xFFFFFFFFFFFFFFFFFFFFFFFFFFFFFFFFFFFFFFFF MUL NOT AND SWAP1 DUP4 PUSH20 0xFFFFFFFFFFFFFFFFFFFFFFFFFFFFFFFFFFFFFFFF AND MUL OR SWAP1 SSTORE POP PUSH1 0x0 DUP5 DUP5 SWAP1 POP GT ISZERO PUSH2 0xD82 JUMPI PUSH1 0x1 PUSH1 0x0 PUSH2 0xCF7 SWAP2 SWAP1 PUSH2 0x1F51 JUMP JUMPDEST PUSH1 0x0 JUMPDEST DUP5 DUP5 SWAP1 POP DUP2 LT ISZERO PUSH2 0xD80 JUMPI PUSH1 0x0 PUSH1 0x1 DUP1 DUP2 PUSH1 0x1 DUP2 SLOAD ADD DUP1 DUP3 SSTORE DUP1 SWAP2 POP POP SUB SWAP1 PUSH1 0x0 MSTORE PUSH1 0x20 PUSH1 0x0 KECCAK256 SWAP1 PUSH1 0x4 MUL ADD SWAP1 POP DUP6 DUP6 DUP4 DUP2 DUP2 LT PUSH2 0xD3B JUMPI PUSH2 0xD3A PUSH2 0x2A21 JUMP JUMPDEST JUMPDEST SWAP1 POP PUSH1 0x20 MUL ADD CALLDATALOAD DUP2 PUSH1 0x0 ADD DUP2 SWAP1 SSTORE POP DUP4 DUP4 DUP4 DUP2 DUP2 LT PUSH2 0xD5D JUMPI PUSH2 0xD5C PUSH2 0x2A21 JUMP JUMPDEST JUMPDEST SWAP1 POP PUSH1 0x20 MUL ADD CALLDATALOAD DUP2 PUSH1 0x1 ADD DUP2 SWAP1 SSTORE POP POP DUP1 DUP1 PUSH2 0xD78 SWAP1 PUSH2 0x297A JUMP JUMPDEST SWAP2 POP POP PUSH2 0xCFA JUMP JUMPDEST POP JUMPDEST POP POP POP POP POP JUMP JUMPDEST PUSH1 0x0 PUSH1 0x5 PUSH1 0x0 DUP4 PUSH20 0xFFFFFFFFFFFFFFFFFFFFFFFFFFFFFFFFFFFFFFFF AND PUSH20 0xFFFFFFFFFFFFFFFFFFFFFFFFFFFFFFFFFFFFFFFF AND DUP2 MSTORE PUSH1 0x20 ADD SWAP1 DUP2 MSTORE PUSH1 0x20 ADD PUSH1 0x0 KECCAK256 SLOAD SWAP1 POP SWAP2 SWAP1 POP JUMP JUMPDEST PUSH2 0xDDA PUSH2 0x14A9 JUMP JUMPDEST PUSH20 0xFFFFFFFFFFFFFFFFFFFFFFFFFFFFFFFFFFFFFFFF AND PUSH2 0xDF8 PUSH2 0xF1B JUMP JUMPDEST PUSH20 0xFFFFFFFFFFFFFFFFFFFFFFFFFFFFFFFFFFFFFFFF AND EQ PUSH2 0xE4E JUMPI PUSH1 0x40 MLOAD PUSH32 0x8C379A000000000000000000000000000000000000000000000000000000000 DUP2 MSTORE PUSH1 0x4 ADD PUSH2 0xE45 SWAP1 PUSH2 0x267A JUMP JUMPDEST PUSH1 0x40 MLOAD DUP1 SWAP2 SUB SWAP1 REVERT JUMPDEST PUSH1 0x0 PUSH20 0xFFFFFFFFFFFFFFFFFFFFFFFFFFFFFFFFFFFFFFFF AND PUSH1 0x0 DUP1 SLOAD SWAP1 PUSH2 0x100 EXP SWAP1 DIV PUSH20 0xFFFFFFFFFFFFFFFFFFFFFFFFFFFFFFFFFFFFFFFF AND PUSH20 0xFFFFFFFFFFFFFFFFFFFFFFFFFFFFFFFFFFFFFFFF AND PUSH32 0x8BE0079C531659141344CD1FD0A4F28419497F9722A3DAAFE3B4186F6B6457E0 PUSH1 0x40 MLOAD PUSH1 0x40 MLOAD DUP1 SWAP2 SUB SWAP1 LOG3 PUSH1 0x0 DUP1 PUSH1 0x0 PUSH2 0x100 EXP DUP2 SLOAD DUP2 PUSH20 0xFFFFFFFFFFFFFFFFFFFFFFFFFFFFFFFFFFFFFFFF MUL NOT AND SWAP1 DUP4 PUSH20 0xFFFFFFFFFFFFFFFFFFFFFFFFFFFFFFFFFFFFFFFF AND MUL OR SWAP1 SSTORE POP JUMP JUMPDEST PUSH1 0x0 PUSH2 0xF16 PUSH2 0xF1B JUMP JUMPDEST SWAP1 POP SWAP1 JUMP JUMPDEST PUSH1 0x0 DUP1 PUSH1 0x0 SWAP1 SLOAD SWAP1 PUSH2 0x100 EXP SWAP1 DIV PUSH20 0xFFFFFFFFFFFFFFFFFFFFFFFFFFFFFFFFFFFFFFFF AND SWAP1 POP SWAP1 JUMP JUMPDEST PUSH1 0x60 PUSH1 0x9 DUP1 SLOAD PUSH2 0xF53 SWAP1 PUSH2 0x2948 JUMP JUMPDEST DUP1 PUSH1 0x1F ADD PUSH1 0x20 DUP1 SWAP2 DIV MUL PUSH1 0x20 ADD PUSH1 0x40 MLOAD SWAP1 DUP2 ADD PUSH1 0x40 MSTORE DUP1 SWAP3 SWAP2 SWAP1 DUP2 DUP2 MSTORE PUSH1 0x20 ADD DUP3 DUP1 SLOAD PUSH2 0xF7F SWAP1 PUSH2 0x2948 JUMP JUMPDEST DUP1 ISZERO PUSH2 0xFCC JUMPI DUP1 PUSH1 0x1F LT PUSH2 0xFA1 JUMPI PUSH2 0x100 DUP1 DUP4 SLOAD DIV MUL DUP4 MSTORE SWAP2 PUSH1 0x20 ADD SWAP2 PUSH2 0xFCC JUMP JUMPDEST DUP3 ADD SWAP2 SWAP1 PUSH1 0x0 MSTORE PUSH1 0x20 PUSH1 0x0 KECCAK256 SWAP1 JUMPDEST DUP2 SLOAD DUP2 MSTORE SWAP1 PUSH1 0x1 ADD SWAP1 PUSH1 0x20 ADD DUP1 DUP4 GT PUSH2 0xFAF JUMPI DUP3 SWAP1 SUB PUSH1 0x1F AND DUP3 ADD SWAP2 JUMPDEST POP POP POP POP POP SWAP1 POP SWAP1 JUMP JUMPDEST PUSH2 0xFDE PUSH2 0x14A9 JUMP JUMPDEST PUSH20 0xFFFFFFFFFFFFFFFFFFFFFFFFFFFFFFFFFFFFFFFF AND PUSH1 0x4 PUSH1 0x0 SWAP1 SLOAD SWAP1 PUSH2 0x100 EXP SWAP1 DIV PUSH20 0xFFFFFFFFFFFFFFFFFFFFFFFFFFFFFFFFFFFFFFFF AND PUSH20 0xFFFFFFFFFFFFFFFFFFFFFFFFFFFFFFFFFFFFFFFF AND EQ PUSH2 0x106D JUMPI PUSH1 0x40 MLOAD PUSH32 0x8C379A000000000000000000000000000000000000000000000000000000000 DUP2 MSTORE PUSH1 0x4 ADD PUSH2 0x1064 SWAP1 PUSH2 0x273A JUMP JUMPDEST PUSH1 0x40 MLOAD DUP1 SWAP2 SUB SWAP1 REVERT JUMPDEST PUSH1 0x0 PUSH20 0xFFFFFFFFFFFFFFFFFFFFFFFFFFFFFFFFFFFFFFFF AND PUSH1 0x4 PUSH1 0x0 SWAP1 SLOAD SWAP1 PUSH2 0x100 EXP SWAP1 DIV PUSH20 0xFFFFFFFFFFFFFFFFFFFFFFFFFFFFFFFFFFFFFFFF AND PUSH20 0xFFFFFFFFFFFFFFFFFFFFFFFFFFFFFFFFFFFFFFFF AND PUSH32 0x4E78506F3260E366DC9440EE0B4ECA2D03AA91536B7605DEB90E873D3FC4E5B4 PUSH1 0x40 MLOAD PUSH1 0x40 MLOAD DUP1 SWAP2 SUB SWAP1 LOG3 PUSH1 0x0 PUSH1 0x4 PUSH1 0x0 PUSH2 0x100 EXP DUP2 SLOAD DUP2 PUSH20 0xFFFFFFFFFFFFFFFFFFFFFFFFFFFFFFFFFFFFFFFF MUL NOT AND SWAP1 DUP4 PUSH20 0xFFFFFFFFFFFFFFFFFFFFFFFFFFFFFFFFFFFFFFFF AND MUL OR SWAP1 SSTORE POP JUMP JUMPDEST PUSH1 0x0 PUSH2 0x11F1 PUSH2 0x113B PUSH2 0x14A9 JUMP JUMPDEST DUP5 PUSH2 0x11EC DUP6 PUSH1 0x40 MLOAD DUP1 PUSH1 0x60 ADD PUSH1 0x40 MSTORE DUP1 PUSH1 0x25 DUP2 MSTORE PUSH1 0x20 ADD PUSH2 0x2E56 PUSH1 0x25 SWAP2 CODECOPY PUSH1 0x6 PUSH1 0x0 PUSH2 0x1165 PUSH2 0x14A9 JUMP JUMPDEST PUSH20 0xFFFFFFFFFFFFFFFFFFFFFFFFFFFFFFFFFFFFFFFF AND PUSH20 0xFFFFFFFFFFFFFFFFFFFFFFFFFFFFFFFFFFFFFFFF AND DUP2 MSTORE PUSH1 0x20 ADD SWAP1 DUP2 MSTORE PUSH1 0x20 ADD PUSH1 0x0 KECCAK256 PUSH1 0x0 DUP11 PUSH20 0xFFFFFFFFFFFFFFFFFFFFFFFFFFFFFFFFFFFFFFFF AND PUSH20 0xFFFFFFFFFFFFFFFFFFFFFFFFFFFFFFFFFFFFFFFF AND DUP2 MSTORE PUSH1 0x20 ADD SWAP1 DUP2 MSTORE PUSH1 0x20 ADD PUSH1 0x0 KECCAK256 SLOAD PUSH2 0x1915 SWAP1 SWAP3 SWAP2 SWAP1 PUSH4 0xFFFFFFFF AND JUMP JUMPDEST PUSH2 0x14B1 JUMP JUMPDEST PUSH1 0x1 SWAP1 POP SWAP3 SWAP2 POP POP JUMP JUMPDEST PUSH1 0x1 DUP2 DUP2 SLOAD DUP2 LT PUSH2 0x120B JUMPI PUSH1 0x0 DUP1 REVERT JUMPDEST SWAP1 PUSH1 0x0 MSTORE PUSH1 0x20 PUSH1 0x0 KECCAK256 SWAP1 PUSH1 0x4 MUL ADD PUSH1 0x0 SWAP2 POP SWAP1 POP DUP1 PUSH1 0x0 ADD SLOAD SWAP1 DUP1 PUSH1 0x1 ADD SLOAD SWAP1 POP DUP3 JUMP JUMPDEST PUSH1 0x0 PUSH2 0x1243 PUSH2 0x123C PUSH2 0x14A9 JUMP JUMPDEST DUP5 DUP5 PUSH2 0x167C JUMP JUMPDEST PUSH1 0x1 SWAP1 POP SWAP3 SWAP2 POP POP JUMP JUMPDEST PUSH1 0x4 PUSH1 0x0 SWAP1 SLOAD SWAP1 PUSH2 0x100 EXP SWAP1 DIV PUSH20 0xFFFFFFFFFFFFFFFFFFFFFFFFFFFFFFFFFFFFFFFF AND DUP2 JUMP JUMPDEST PUSH1 0x2 SLOAD DUP2 JUMP JUMPDEST PUSH1 0x0 PUSH1 0x6 PUSH1 0x0 DUP5 PUSH20 0xFFFFFFFFFFFFFFFFFFFFFFFFFFFFFFFFFFFFFFFF AND PUSH20 0xFFFFFFFFFFFFFFFFFFFFFFFFFFFFFFFFFFFFFFFF AND DUP2 MSTORE PUSH1 0x20 ADD SWAP1 DUP2 MSTORE PUSH1 0x20 ADD PUSH1 0x0 KECCAK256 PUSH1 0x0 DUP4 PUSH20 0xFFFFFFFFFFFFFFFFFFFFFFFFFFFFFFFFFFFFFFFF AND PUSH20 0xFFFFFFFFFFFFFFFFFFFFFFFFFFFFFFFFFFFFFFFF AND DUP2 MSTORE PUSH1 0x20 ADD SWAP1 DUP2 MSTORE PUSH1 0x20 ADD PUSH1 0x0 KECCAK256 SLOAD SWAP1 POP SWAP3 SWAP2 POP POP JUMP JUMPDEST PUSH2 0x1308 PUSH2 0x14A9 JUMP JUMPDEST PUSH20 0xFFFFFFFFFFFFFFFFFFFFFFFFFFFFFFFFFFFFFFFF AND PUSH2 0x1326 PUSH2 0xF1B JUMP JUMPDEST PUSH20 0xFFFFFFFFFFFFFFFFFFFFFFFFFFFFFFFFFFFFFFFF AND EQ PUSH2 0x137C JUMPI PUSH1 0x40 MLOAD PUSH32 0x8C379A000000000000000000000000000000000000000000000000000000000 DUP2 MSTORE PUSH1 0x4 ADD PUSH2 0x1373 SWAP1 PUSH2 0x267A JUMP JUMPDEST PUSH1 0x40 MLOAD DUP1 SWAP2 SUB SWAP1 REVERT JUMPDEST PUSH1 0x0 PUSH20 0xFFFFFFFFFFFFFFFFFFFFFFFFFFFFFFFFFFFFFFFF AND DUP2 PUSH20 0xFFFFFFFFFFFFFFFFFFFFFFFFFFFFFFFFFFFFFFFF AND EQ ISZERO PUSH2 0x13EC JUMPI PUSH1 0x40 MLOAD PUSH32 0x8C379A000000000000000000000000000000000000000000000000000000000 DUP2 MSTORE PUSH1 0x4 ADD PUSH2 0x13E3 SWAP1 PUSH2 0x25DA JUMP JUMPDEST PUSH1 0x40 MLOAD DUP1 SWAP2 SUB SWAP1 REVERT JUMPDEST DUP1 PUSH20 0xFFFFFFFFFFFFFFFFFFFFFFFFFFFFFFFFFFFFFFFF AND PUSH1 0x0 DUP1 SLOAD SWAP1 PUSH2 0x100 EXP SWAP1 DIV PUSH20 0xFFFFFFFFFFFFFFFFFFFFFFFFFFFFFFFFFFFFFFFF AND PUSH20 0xFFFFFFFFFFFFFFFFFFFFFFFFFFFFFFFFFFFFFFFF AND PUSH32 0x8BE0079C531659141344CD1FD0A4F28419497F9722A3DAAFE3B4186F6B6457E0 PUSH1 0x40 MLOAD PUSH1 0x40 MLOAD DUP1 SWAP2 SUB SWAP1 LOG3 DUP1 PUSH1 0x0 DUP1 PUSH2 0x100 EXP DUP2 SLOAD DUP2 PUSH20 0xFFFFFFFFFFFFFFFFFFFFFFFFFFFFFFFFFFFFFFFF MUL NOT AND SWAP1 DUP4 PUSH20 0xFFFFFFFFFFFFFFFFFFFFFFFFFFFFFFFFFFFFFFFF AND MUL OR SWAP1 SSTORE POP POP JUMP JUMPDEST PUSH1 0x0 CALLER SWAP1 POP SWAP1 JUMP JUMPDEST PUSH1 0x0 PUSH20 0xFFFFFFFFFFFFFFFFFFFFFFFFFFFFFFFFFFFFFFFF AND DUP4 PUSH20 0xFFFFFFFFFFFFFFFFFFFFFFFFFFFFFFFFFFFFFFFF AND EQ ISZERO PUSH2 0x1521 JUMPI PUSH1 0x40 MLOAD PUSH32 0x8C379A000000000000000000000000000000000000000000000000000000000 DUP2 MSTORE PUSH1 0x4 ADD PUSH2 0x1518 SWAP1 PUSH2 0x25BA JUMP JUMPDEST PUSH1 0x40 MLOAD DUP1 SWAP2 SUB SWAP1 REVERT JUMPDEST PUSH1 0x0 PUSH20 0xFFFFFFFFFFFFFFFFFFFFFFFFFFFFFFFFFFFFFFFF AND DUP3 PUSH20 0xFFFFFFFFFFFFFFFFFFFFFFFFFFFFFFFFFFFFFFFF AND EQ ISZERO PUSH2 0x1591 JUMPI PUSH1 0x40 MLOAD PUSH32 0x8C379A000000000000000000000000000000000000000000000000000000000 DUP2 MSTORE PUSH1 0x4 ADD PUSH2 0x1588 SWAP1 PUSH2 0x26DA JUMP JUMPDEST PUSH1 0x40 MLOAD DUP1 SWAP2 SUB SWAP1 REVERT JUMPDEST DUP1 PUSH1 0x6 PUSH1 0x0 DUP6 PUSH20 0xFFFFFFFFFFFFFFFFFFFFFFFFFFFFFFFFFFFFFFFF AND PUSH20 0xFFFFFFFFFFFFFFFFFFFFFFFFFFFFFFFFFFFFFFFF AND DUP2 MSTORE PUSH1 0x20 ADD SWAP1 DUP2 MSTORE PUSH1 0x20 ADD PUSH1 0x0 KECCAK256 PUSH1 0x0 DUP5 PUSH20 0xFFFFFFFFFFFFFFFFFFFFFFFFFFFFFFFFFFFFFFFF AND PUSH20 0xFFFFFFFFFFFFFFFFFFFFFFFFFFFFFFFFFFFFFFFF AND DUP2 MSTORE PUSH1 0x20 ADD SWAP1 DUP2 MSTORE PUSH1 0x20 ADD PUSH1 0x0 KECCAK256 DUP2 SWAP1 SSTORE POP DUP2 PUSH20 0xFFFFFFFFFFFFFFFFFFFFFFFFFFFFFFFFFFFFFFFF AND DUP4 PUSH20 0xFFFFFFFFFFFFFFFFFFFFFFFFFFFFFFFFFFFFFFFF AND PUSH32 0x8C5BE1E5EBEC7D5BD14F71427D1E84F3DD0314C0F7B2291E5B200AC8C7C3B925 DUP4 PUSH1 0x40 MLOAD PUSH2 0x166F SWAP2 SWAP1 PUSH2 0x275A JUMP JUMPDEST PUSH1 0x40 MLOAD DUP1 SWAP2 SUB SWAP1 LOG3 POP POP POP JUMP JUMPDEST PUSH1 0x0 PUSH20 0xFFFFFFFFFFFFFFFFFFFFFFFFFFFFFFFFFFFFFFFF AND DUP4 PUSH20 0xFFFFFFFFFFFFFFFFFFFFFFFFFFFFFFFFFFFFFFFF AND EQ ISZERO PUSH2 0x16EC JUMPI PUSH1 0x40 MLOAD PUSH32 0x8C379A000000000000000000000000000000000000000000000000000000000 DUP2 MSTORE PUSH1 0x4 ADD PUSH2 0x16E3 SWAP1 PUSH2 0x259A JUMP JUMPDEST PUSH1 0x40 MLOAD DUP1 SWAP2 SUB SWAP1 REVERT JUMPDEST PUSH1 0x0 PUSH20 0xFFFFFFFFFFFFFFFFFFFFFFFFFFFFFFFFFFFFFFFF AND DUP3 PUSH20 0xFFFFFFFFFFFFFFFFFFFFFFFFFFFFFFFFFFFFFFFF AND EQ ISZERO PUSH2 0x175C JUMPI PUSH1 0x40 MLOAD PUSH32 0x8C379A000000000000000000000000000000000000000000000000000000000 DUP2 MSTORE PUSH1 0x4 ADD PUSH2 0x1753 SWAP1 PUSH2 0x263A JUMP JUMPDEST PUSH1 0x40 MLOAD DUP1 SWAP2 SUB SWAP1 REVERT JUMPDEST PUSH2 0x1767 DUP4 DUP4 DUP4 PUSH2 0x1B07 JUMP JUMPDEST PUSH2 0x17D3 DUP2 PUSH1 0x40 MLOAD DUP1 PUSH1 0x60 ADD PUSH1 0x40 MSTORE DUP1 PUSH1 0x26 DUP2 MSTORE PUSH1 0x20 ADD PUSH2 0x2E08 PUSH1 0x26 SWAP2 CODECOPY PUSH1 0x5 PUSH1 0x0 DUP8 PUSH20 0xFFFFFFFFFFFFFFFFFFFFFFFFFFFFFFFFFFFFFFFF AND PUSH20 0xFFFFFFFFFFFFFFFFFFFFFFFFFFFFFFFFFFFFFFFF AND DUP2 MSTORE PUSH1 0x20 ADD SWAP1 DUP2 MSTORE PUSH1 0x20 ADD PUSH1 0x0 KECCAK256 SLOAD PUSH2 0x1915 SWAP1 SWAP3 SWAP2 SWAP1 PUSH4 0xFFFFFFFF AND JUMP JUMPDEST PUSH1 0x5 PUSH1 0x0 DUP6 PUSH20 0xFFFFFFFFFFFFFFFFFFFFFFFFFFFFFFFFFFFFFFFF AND PUSH20 0xFFFFFFFFFFFFFFFFFFFFFFFFFFFFFFFFFFFFFFFF AND DUP2 MSTORE PUSH1 0x20 ADD SWAP1 DUP2 MSTORE PUSH1 0x20 ADD PUSH1 0x0 KECCAK256 DUP2 SWAP1 SSTORE POP PUSH2 0x1868 DUP2 PUSH1 0x5 PUSH1 0x0 DUP6 PUSH20 0xFFFFFFFFFFFFFFFFFFFFFFFFFFFFFFFFFFFFFFFF AND PUSH20 0xFFFFFFFFFFFFFFFFFFFFFFFFFFFFFFFFFFFFFFFF AND DUP2 MSTORE PUSH1 0x20 ADD SWAP1 DUP2 MSTORE PUSH1 0x20 ADD PUSH1 0x0 KECCAK256 SLOAD PUSH2 0x1AA9 SWAP1 SWAP2 SWAP1 PUSH4 0xFFFFFFFF AND JUMP JUMPDEST PUSH1 0x5 PUSH1 0x0 DUP5 PUSH20 0xFFFFFFFFFFFFFFFFFFFFFFFFFFFFFFFFFFFFFFFF AND PUSH20 0xFFFFFFFFFFFFFFFFFFFFFFFFFFFFFFFFFFFFFFFF AND DUP2 MSTORE PUSH1 0x20 ADD SWAP1 DUP2 MSTORE PUSH1 0x20 ADD PUSH1 0x0 KECCAK256 DUP2 SWAP1 SSTORE POP DUP2 PUSH20 0xFFFFFFFFFFFFFFFFFFFFFFFFFFFFFFFFFFFFFFFF AND DUP4 PUSH20 0xFFFFFFFFFFFFFFFFFFFFFFFFFFFFFFFFFFFFFFFF AND PUSH32 0xDDF252AD1BE2C89B69C2B068FC378DAA952BA7F163C4A11628F55A4DF523B3EF DUP4 PUSH1 0x40 MLOAD PUSH2 0x1908 SWAP2 SWAP1 PUSH2 0x275A JUMP JUMPDEST PUSH1 0x40 MLOAD DUP1 SWAP2 SUB SWAP1 LOG3 POP POP POP JUMP JUMPDEST PUSH1 0x0 DUP4 DUP4 GT ISZERO DUP3 SWAP1 PUSH2 0x195D JUMPI PUSH1 0x40 MLOAD PUSH32 0x8C379A000000000000000000000000000000000000000000000000000000000 DUP2 MSTORE PUSH1 0x4 ADD PUSH2 0x1954 SWAP2 SWAP1 PUSH2 0x2578 JUMP JUMPDEST PUSH1 0x40 MLOAD DUP1 SWAP2 SUB SWAP1 REVERT JUMPDEST POP PUSH1 0x0 DUP4 DUP6 PUSH2 0x196C SWAP2 SWAP1 PUSH2 0x288C JUMP JUMPDEST SWAP1 POP DUP1 SWAP2 POP POP SWAP4 SWAP3 POP POP POP JUMP JUMPDEST PUSH1 0x0 PUSH20 0xFFFFFFFFFFFFFFFFFFFFFFFFFFFFFFFFFFFFFFFF AND DUP2 PUSH20 0xFFFFFFFFFFFFFFFFFFFFFFFFFFFFFFFFFFFFFFFF AND EQ ISZERO PUSH2 0x19E9 JUMPI PUSH1 0x40 MLOAD PUSH32 0x8C379A000000000000000000000000000000000000000000000000000000000 DUP2 MSTORE PUSH1 0x4 ADD PUSH2 0x19E0 SWAP1 PUSH2 0x26FA JUMP JUMPDEST PUSH1 0x40 MLOAD DUP1 SWAP2 SUB SWAP1 REVERT JUMPDEST DUP1 PUSH20 0xFFFFFFFFFFFFFFFFFFFFFFFFFFFFFFFFFFFFFFFF AND PUSH1 0x4 PUSH1 0x0 SWAP1 SLOAD SWAP1 PUSH2 0x100 EXP SWAP1 DIV PUSH20 0xFFFFFFFFFFFFFFFFFFFFFFFFFFFFFFFFFFFFFFFF AND PUSH20 0xFFFFFFFFFFFFFFFFFFFFFFFFFFFFFFFFFFFFFFFF AND PUSH32 0x4E78506F3260E366DC9440EE0B4ECA2D03AA91536B7605DEB90E873D3FC4E5B4 PUSH1 0x40 MLOAD PUSH1 0x40 MLOAD DUP1 SWAP2 SUB SWAP1 LOG3 DUP1 PUSH1 0x4 PUSH1 0x0 PUSH2 0x100 EXP DUP2 SLOAD DUP2 PUSH20 0xFFFFFFFFFFFFFFFFFFFFFFFFFFFFFFFFFFFFFFFF MUL NOT AND SWAP1 DUP4 PUSH20 0xFFFFFFFFFFFFFFFFFFFFFFFFFFFFFFFFFFFFFFFF AND MUL OR SWAP1 SSTORE POP POP JUMP JUMPDEST PUSH1 0x0 DUP1 DUP3 DUP5 PUSH2 0x1AB8 SWAP2 SWAP1 PUSH2 0x2836 JUMP JUMPDEST SWAP1 POP DUP4 DUP2 LT ISZERO PUSH2 0x1AFD JUMPI PUSH1 0x40 MLOAD PUSH32 0x8C379A000000000000000000000000000000000000000000000000000000000 DUP2 MSTORE PUSH1 0x4 ADD PUSH2 0x1AF4 SWAP1 PUSH2 0x25FA JUMP JUMPDEST PUSH1 0x40 MLOAD DUP1 SWAP2 SUB SWAP1 REVERT JUMPDEST DUP1 SWAP2 POP POP SWAP3 SWAP2 POP POP JUMP JUMPDEST PUSH1 0x0 PUSH20 0xFFFFFFFFFFFFFFFFFFFFFFFFFFFFFFFFFFFFFFFF AND PUSH1 0x3 PUSH1 0x0 SWAP1 SLOAD SWAP1 PUSH2 0x100 EXP SWAP1 DIV PUSH20 0xFFFFFFFFFFFFFFFFFFFFFFFFFFFFFFFFFFFFFFFF AND PUSH20 0xFFFFFFFFFFFFFFFFFFFFFFFFFFFFFFFFFFFFFFFF AND EQ DUP1 PUSH2 0x1B69 JUMPI POP PUSH1 0x0 PUSH1 0x1 DUP1 SLOAD SWAP1 POP EQ JUMPDEST ISZERO PUSH2 0x1B73 JUMPI PUSH2 0x1F4C JUMP JUMPDEST PUSH1 0x0 PUSH1 0x2 SLOAD EQ DUP1 ISZERO PUSH2 0x1BD3 JUMPI POP PUSH1 0x3 PUSH1 0x0 SWAP1 SLOAD SWAP1 PUSH2 0x100 EXP SWAP1 DIV PUSH20 0xFFFFFFFFFFFFFFFFFFFFFFFFFFFFFFFFFFFFFFFF AND PUSH20 0xFFFFFFFFFFFFFFFFFFFFFFFFFFFFFFFFFFFFFFFF AND DUP4 PUSH20 0xFFFFFFFFFFFFFFFFFFFFFFFFFFFFFFFFFFFFFFFF AND EQ ISZERO JUMPDEST DUP1 ISZERO PUSH2 0x1C2C JUMPI POP PUSH1 0x3 PUSH1 0x0 SWAP1 SLOAD SWAP1 PUSH2 0x100 EXP SWAP1 DIV PUSH20 0xFFFFFFFFFFFFFFFFFFFFFFFFFFFFFFFFFFFFFFFF AND PUSH20 0xFFFFFFFFFFFFFFFFFFFFFFFFFFFFFFFFFFFFFFFF AND DUP3 PUSH20 0xFFFFFFFFFFFFFFFFFFFFFFFFFFFFFFFFFFFFFFFF AND EQ JUMPDEST DUP1 ISZERO PUSH2 0x1C38 JUMPI POP PUSH1 0x0 DUP2 GT JUMPDEST ISZERO PUSH2 0x1C45 JUMPI TIMESTAMP PUSH1 0x2 DUP2 SWAP1 SSTORE POP JUMPDEST PUSH1 0x3 PUSH1 0x0 SWAP1 SLOAD SWAP1 PUSH2 0x100 EXP SWAP1 DIV PUSH20 0xFFFFFFFFFFFFFFFFFFFFFFFFFFFFFFFFFFFFFFFF AND PUSH20 0xFFFFFFFFFFFFFFFFFFFFFFFFFFFFFFFFFFFFFFFF AND DUP4 PUSH20 0xFFFFFFFFFFFFFFFFFFFFFFFFFFFFFFFFFFFFFFFF AND EQ DUP1 ISZERO PUSH2 0x1CF0 JUMPI POP PUSH1 0x3 PUSH1 0x0 SWAP1 SLOAD SWAP1 PUSH2 0x100 EXP SWAP1 DIV PUSH20 0xFFFFFFFFFFFFFFFFFFFFFFFFFFFFFFFFFFFFFFFF AND PUSH20 0xFFFFFFFFFFFFFFFFFFFFFFFFFFFFFFFFFFFFFFFF AND DUP3 PUSH20 0xFFFFFFFFFFFFFFFFFFFFFFFFFFFFFFFFFFFFFFFF AND EQ ISZERO JUMPDEST ISZERO PUSH2 0x1F4B JUMPI PUSH1 0x0 PUSH2 0x1CFF PUSH2 0x54D JUMP JUMPDEST POP POP POP POP POP SWAP1 POP PUSH1 0x0 DUP2 GT ISZERO PUSH2 0x1F49 JUMPI PUSH1 0x0 PUSH1 0x1 DUP1 DUP4 PUSH2 0x1D1F SWAP2 SWAP1 PUSH2 0x288C JUMP JUMPDEST DUP2 SLOAD DUP2 LT PUSH2 0x1D30 JUMPI PUSH2 0x1D2F PUSH2 0x2A21 JUMP JUMPDEST JUMPDEST SWAP1 PUSH1 0x0 MSTORE PUSH1 0x20 PUSH1 0x0 KECCAK256 SWAP1 PUSH1 0x4 MUL ADD SWAP1 POP DUP1 PUSH1 0x2 ADD PUSH1 0x0 DUP6 PUSH20 0xFFFFFFFFFFFFFFFFFFFFFFFFFFFFFFFFFFFFFFFF AND PUSH20 0xFFFFFFFFFFFFFFFFFFFFFFFFFFFFFFFFFFFFFFFF AND DUP2 MSTORE PUSH1 0x20 ADD SWAP1 DUP2 MSTORE PUSH1 0x20 ADD PUSH1 0x0 KECCAK256 PUSH1 0x0 SWAP1 SLOAD SWAP1 PUSH2 0x100 EXP SWAP1 DIV PUSH1 0xFF AND PUSH2 0x1DCE JUMPI PUSH1 0x40 MLOAD PUSH32 0x8C379A000000000000000000000000000000000000000000000000000000000 DUP2 MSTORE PUSH1 0x4 ADD PUSH2 0x1DC5 SWAP1 PUSH2 0x269A JUMP JUMPDEST PUSH1 0x40 MLOAD DUP1 SWAP2 SUB SWAP1 REVERT JUMPDEST PUSH1 0x0 DUP2 PUSH1 0x1 ADD SLOAD DUP3 PUSH1 0x3 ADD PUSH1 0x0 DUP8 PUSH20 0xFFFFFFFFFFFFFFFFFFFFFFFFFFFFFFFFFFFFFFFF AND PUSH20 0xFFFFFFFFFFFFFFFFFFFFFFFFFFFFFFFFFFFFFFFF AND DUP2 MSTORE PUSH1 0x20 ADD SWAP1 DUP2 MSTORE PUSH1 0x20 ADD PUSH1 0x0 KECCAK256 SLOAD LT ISZERO PUSH2 0x1E71 JUMPI DUP2 PUSH1 0x3 ADD PUSH1 0x0 DUP7 PUSH20 0xFFFFFFFFFFFFFFFFFFFFFFFFFFFFFFFFFFFFFFFF AND PUSH20 0xFFFFFFFFFFFFFFFFFFFFFFFFFFFFFFFFFFFFFFFF AND DUP2 MSTORE PUSH1 0x20 ADD SWAP1 DUP2 MSTORE PUSH1 0x20 ADD PUSH1 0x0 KECCAK256 SLOAD DUP3 PUSH1 0x1 ADD SLOAD PUSH2 0x1E6E SWAP2 SWAP1 PUSH2 0x288C JUMP JUMPDEST SWAP1 POP JUMPDEST DUP1 DUP5 GT ISZERO PUSH2 0x1EB4 JUMPI PUSH1 0x40 MLOAD PUSH32 0x8C379A000000000000000000000000000000000000000000000000000000000 DUP2 MSTORE PUSH1 0x4 ADD PUSH2 0x1EAB SWAP1 PUSH2 0x265A JUMP JUMPDEST PUSH1 0x40 MLOAD DUP1 SWAP2 SUB SWAP1 REVERT JUMPDEST DUP4 DUP3 PUSH1 0x3 ADD PUSH1 0x0 DUP8 PUSH20 0xFFFFFFFFFFFFFFFFFFFFFFFFFFFFFFFFFFFFFFFF AND PUSH20 0xFFFFFFFFFFFFFFFFFFFFFFFFFFFFFFFFFFFFFFFF AND DUP2 MSTORE PUSH1 0x20 ADD SWAP1 DUP2 MSTORE PUSH1 0x20 ADD PUSH1 0x0 KECCAK256 SLOAD PUSH2 0x1F01 SWAP2 SWAP1 PUSH2 0x2836 JUMP JUMPDEST DUP3 PUSH1 0x3 ADD PUSH1 0x0 DUP8 PUSH20 0xFFFFFFFFFFFFFFFFFFFFFFFFFFFFFFFFFFFFFFFF AND PUSH20 0xFFFFFFFFFFFFFFFFFFFFFFFFFFFFFFFFFFFFFFFF AND DUP2 MSTORE PUSH1 0x20 ADD SWAP1 DUP2 MSTORE PUSH1 0x20 ADD PUSH1 0x0 KECCAK256 DUP2 SWAP1 SSTORE POP POP POP JUMPDEST POP JUMPDEST JUMPDEST POP POP POP JUMP JUMPDEST POP DUP1 SLOAD PUSH1 0x0 DUP3 SSTORE PUSH1 0x4 MUL SWAP1 PUSH1 0x0 MSTORE PUSH1 0x20 PUSH1 0x0 KECCAK256 SWAP1 DUP2 ADD SWAP1 PUSH2 0x1F72 SWAP2 SWAP1 PUSH2 0x1F75 JUMP JUMPDEST POP JUMP JUMPDEST JUMPDEST DUP1 DUP3 GT ISZERO PUSH2 0x1F98 JUMPI PUSH1 0x0 DUP1 DUP3 ADD PUSH1 0x0 SWAP1 SSTORE PUSH1 0x1 DUP3 ADD PUSH1 0x0 SWAP1 SSTORE POP PUSH1 0x4 ADD PUSH2 0x1F76 JUMP JUMPDEST POP SWAP1 JUMP JUMPDEST PUSH1 0x0 DUP2 CALLDATALOAD SWAP1 POP PUSH2 0x1FAB DUP2 PUSH2 0x2DC2 JUMP JUMPDEST SWAP3 SWAP2 POP POP JUMP JUMPDEST PUSH1 0x0 DUP1 DUP4 PUSH1 0x1F DUP5 ADD SLT PUSH2 0x1FC7 JUMPI PUSH2 0x1FC6 PUSH2 0x2A55 JUMP JUMPDEST JUMPDEST DUP3 CALLDATALOAD SWAP1 POP PUSH8 0xFFFFFFFFFFFFFFFF DUP2 GT ISZERO PUSH2 0x1FE4 JUMPI PUSH2 0x1FE3 PUSH2 0x2A50 JUMP JUMPDEST JUMPDEST PUSH1 0x20 DUP4 ADD SWAP2 POP DUP4 PUSH1 0x20 DUP3 MUL DUP4 ADD GT ISZERO PUSH2 0x2000 JUMPI PUSH2 0x1FFF PUSH2 0x2A5A JUMP JUMPDEST JUMPDEST SWAP3 POP SWAP3 SWAP1 POP JUMP JUMPDEST PUSH1 0x0 DUP1 DUP4 PUSH1 0x1F DUP5 ADD SLT PUSH2 0x201D JUMPI PUSH2 0x201C PUSH2 0x2A55 JUMP JUMPDEST JUMPDEST DUP3 CALLDATALOAD SWAP1 POP PUSH8 0xFFFFFFFFFFFFFFFF DUP2 GT ISZERO PUSH2 0x203A JUMPI PUSH2 0x2039 PUSH2 0x2A50 JUMP JUMPDEST JUMPDEST PUSH1 0x20 DUP4 ADD SWAP2 POP DUP4 PUSH1 0x20 DUP3 MUL DUP4 ADD GT ISZERO PUSH2 0x2056 JUMPI PUSH2 0x2055 PUSH2 0x2A5A JUMP JUMPDEST JUMPDEST SWAP3 POP SWAP3 SWAP1 POP JUMP JUMPDEST PUSH1 0x0 DUP2 CALLDATALOAD SWAP1 POP PUSH2 0x206C DUP2 PUSH2 0x2DD9 JUMP JUMPDEST SWAP3 SWAP2 POP POP JUMP JUMPDEST PUSH1 0x0 DUP2 CALLDATALOAD SWAP1 POP PUSH2 0x2081 DUP2 PUSH2 0x2DF0 JUMP JUMPDEST SWAP3 SWAP2 POP POP JUMP JUMPDEST PUSH1 0x0 PUSH1 0x20 DUP3 DUP5 SUB SLT ISZERO PUSH2 0x209D JUMPI PUSH2 0x209C PUSH2 0x2A64 JUMP JUMPDEST JUMPDEST PUSH1 0x0 PUSH2 0x20AB DUP5 DUP3 DUP6 ADD PUSH2 0x1F9C JUMP JUMPDEST SWAP2 POP POP SWAP3 SWAP2 POP POP JUMP JUMPDEST PUSH1 0x0 DUP1 PUSH1 0x40 DUP4 DUP6 SUB SLT ISZERO PUSH2 0x20CB JUMPI PUSH2 0x20CA PUSH2 0x2A64 JUMP JUMPDEST JUMPDEST PUSH1 0x0 PUSH2 0x20D9 DUP6 DUP3 DUP7 ADD PUSH2 0x1F9C JUMP JUMPDEST SWAP3 POP POP PUSH1 0x20 PUSH2 0x20EA DUP6 DUP3 DUP7 ADD PUSH2 0x1F9C JUMP JUMPDEST SWAP2 POP POP SWAP3 POP SWAP3 SWAP1 POP JUMP JUMPDEST PUSH1 0x0 DUP1 PUSH1 0x0 PUSH1 0x60 DUP5 DUP7 SUB SLT ISZERO PUSH2 0x210D JUMPI PUSH2 0x210C PUSH2 0x2A64 JUMP JUMPDEST JUMPDEST PUSH1 0x0 PUSH2 0x211B DUP7 DUP3 DUP8 ADD PUSH2 0x1F9C JUMP JUMPDEST SWAP4 POP POP PUSH1 0x20 PUSH2 0x212C DUP7 DUP3 DUP8 ADD PUSH2 0x1F9C JUMP JUMPDEST SWAP3 POP POP PUSH1 0x40 PUSH2 0x213D DUP7 DUP3 DUP8 ADD PUSH2 0x2072 JUMP JUMPDEST SWAP2 POP POP SWAP3 POP SWAP3 POP SWAP3 JUMP JUMPDEST PUSH1 0x0 DUP1 PUSH1 0x0 DUP1 PUSH1 0x0 PUSH1 0x60 DUP7 DUP9 SUB SLT ISZERO PUSH2 0x2163 JUMPI PUSH2 0x2162 PUSH2 0x2A64 JUMP JUMPDEST JUMPDEST PUSH1 0x0 PUSH2 0x2171 DUP9 DUP3 DUP10 ADD PUSH2 0x1F9C JUMP JUMPDEST SWAP6 POP POP PUSH1 0x20 DUP7 ADD CALLDATALOAD PUSH8 0xFFFFFFFFFFFFFFFF DUP2 GT ISZERO PUSH2 0x2192 JUMPI PUSH2 0x2191 PUSH2 0x2A5F JUMP JUMPDEST JUMPDEST PUSH2 0x219E DUP9 DUP3 DUP10 ADD PUSH2 0x2007 JUMP JUMPDEST SWAP5 POP SWAP5 POP POP PUSH1 0x40 DUP7 ADD CALLDATALOAD PUSH8 0xFFFFFFFFFFFFFFFF DUP2 GT ISZERO PUSH2 0x21C1 JUMPI PUSH2 0x21C0 PUSH2 0x2A5F JUMP JUMPDEST JUMPDEST PUSH2 0x21CD DUP9 DUP3 DUP10 ADD PUSH2 0x2007 JUMP JUMPDEST SWAP3 POP SWAP3 POP POP SWAP3 SWAP6 POP SWAP3 SWAP6 SWAP1 SWAP4 POP JUMP JUMPDEST PUSH1 0x0 DUP1 PUSH1 0x40 DUP4 DUP6 SUB SLT ISZERO PUSH2 0x21F3 JUMPI PUSH2 0x21F2 PUSH2 0x2A64 JUMP JUMPDEST JUMPDEST PUSH1 0x0 PUSH2 0x2201 DUP6 DUP3 DUP7 ADD PUSH2 0x1F9C JUMP JUMPDEST SWAP3 POP POP PUSH1 0x20 PUSH2 0x2212 DUP6 DUP3 DUP7 ADD PUSH2 0x2072 JUMP JUMPDEST SWAP2 POP POP SWAP3 POP SWAP3 SWAP1 POP JUMP JUMPDEST PUSH1 0x0 PUSH1 0x20 DUP3 DUP5 SUB SLT ISZERO PUSH2 0x2232 JUMPI PUSH2 0x2231 PUSH2 0x2A64 JUMP JUMPDEST JUMPDEST PUSH1 0x0 PUSH2 0x2240 DUP5 DUP3 DUP6 ADD PUSH2 0x2072 JUMP JUMPDEST SWAP2 POP POP SWAP3 SWAP2 POP POP JUMP JUMPDEST PUSH1 0x0 DUP1 PUSH1 0x0 DUP1 PUSH1 0x0 DUP1 PUSH1 0xA0 DUP8 DUP10 SUB SLT ISZERO PUSH2 0x2266 JUMPI PUSH2 0x2265 PUSH2 0x2A64 JUMP JUMPDEST JUMPDEST PUSH1 0x0 PUSH2 0x2274 DUP10 DUP3 DUP11 ADD PUSH2 0x2072 JUMP JUMPDEST SWAP7 POP POP PUSH1 0x20 PUSH2 0x2285 DUP10 DUP3 DUP11 ADD PUSH2 0x2072 JUMP JUMPDEST SWAP6 POP POP PUSH1 0x40 PUSH2 0x2296 DUP10 DUP3 DUP11 ADD PUSH2 0x2072 JUMP JUMPDEST SWAP5 POP POP PUSH1 0x60 DUP8 ADD CALLDATALOAD PUSH8 0xFFFFFFFFFFFFFFFF DUP2 GT ISZERO PUSH2 0x22B7 JUMPI PUSH2 0x22B6 PUSH2 0x2A5F JUMP JUMPDEST JUMPDEST PUSH2 0x22C3 DUP10 DUP3 DUP11 ADD PUSH2 0x1FB1 JUMP JUMPDEST SWAP4 POP SWAP4 POP POP PUSH1 0x80 PUSH2 0x22D6 DUP10 DUP3 DUP11 ADD PUSH2 0x205D JUMP JUMPDEST SWAP2 POP POP SWAP3 SWAP6 POP SWAP3 SWAP6 POP SWAP3 SWAP6 JUMP JUMPDEST PUSH2 0x22EC DUP2 PUSH2 0x28C0 JUMP JUMPDEST DUP3 MSTORE POP POP JUMP JUMPDEST PUSH2 0x22FB DUP2 PUSH2 0x28D2 JUMP JUMPDEST DUP3 MSTORE POP POP JUMP JUMPDEST PUSH1 0x0 PUSH2 0x230C DUP3 PUSH2 0x281A JUMP JUMPDEST PUSH2 0x2316 DUP2 DUP6 PUSH2 0x2825 JUMP JUMPDEST SWAP4 POP PUSH2 0x2326 DUP2 DUP6 PUSH1 0x20 DUP7 ADD PUSH2 0x2915 JUMP JUMPDEST PUSH2 0x232F DUP2 PUSH2 0x2A69 JUMP JUMPDEST DUP5 ADD SWAP2 POP POP SWAP3 SWAP2 POP POP JUMP JUMPDEST PUSH1 0x0 PUSH2 0x2347 PUSH1 0x25 DUP4 PUSH2 0x2825 JUMP JUMPDEST SWAP2 POP PUSH2 0x2352 DUP3 PUSH2 0x2A7A JUMP JUMPDEST PUSH1 0x40 DUP3 ADD SWAP1 POP SWAP2 SWAP1 POP JUMP JUMPDEST PUSH1 0x0 PUSH2 0x236A PUSH1 0x24 DUP4 PUSH2 0x2825 JUMP JUMPDEST SWAP2 POP PUSH2 0x2375 DUP3 PUSH2 0x2AC9 JUMP JUMPDEST PUSH1 0x40 DUP3 ADD SWAP1 POP SWAP2 SWAP1 POP JUMP JUMPDEST PUSH1 0x0 PUSH2 0x238D PUSH1 0x26 DUP4 PUSH2 0x2825 JUMP JUMPDEST SWAP2 POP PUSH2 0x2398 DUP3 PUSH2 0x2B18 JUMP JUMPDEST PUSH1 0x40 DUP3 ADD SWAP1 POP SWAP2 SWAP1 POP JUMP JUMPDEST PUSH1 0x0 PUSH2 0x23B0 PUSH1 0x1B DUP4 PUSH2 0x2825 JUMP JUMPDEST SWAP2 POP PUSH2 0x23BB DUP3 PUSH2 0x2B67 JUMP JUMPDEST PUSH1 0x20 DUP3 ADD SWAP1 POP SWAP2 SWAP1 POP JUMP JUMPDEST PUSH1 0x0 PUSH2 0x23D3 PUSH1 0xD DUP4 PUSH2 0x2825 JUMP JUMPDEST SWAP2 POP PUSH2 0x23DE DUP3 PUSH2 0x2B90 JUMP JUMPDEST PUSH1 0x20 DUP3 ADD SWAP1 POP SWAP2 SWAP1 POP JUMP JUMPDEST PUSH1 0x0 PUSH2 0x23F6 PUSH1 0x23 DUP4 PUSH2 0x2825 JUMP JUMPDEST SWAP2 POP PUSH2 0x2401 DUP3 PUSH2 0x2BB9 JUMP JUMPDEST PUSH1 0x40 DUP3 ADD SWAP1 POP SWAP2 SWAP1 POP JUMP JUMPDEST PUSH1 0x0 PUSH2 0x2419 PUSH1 0x26 DUP4 PUSH2 0x2825 JUMP JUMPDEST SWAP2 POP PUSH2 0x2424 DUP3 PUSH2 0x2C08 JUMP JUMPDEST PUSH1 0x40 DUP3 ADD SWAP1 POP SWAP2 SWAP1 POP JUMP JUMPDEST PUSH1 0x0 PUSH2 0x243C PUSH1 0x20 DUP4 PUSH2 0x2825 JUMP JUMPDEST SWAP2 POP PUSH2 0x2447 DUP3 PUSH2 0x2C57 JUMP JUMPDEST PUSH1 0x20 DUP3 ADD SWAP1 POP SWAP2 SWAP1 POP JUMP JUMPDEST PUSH1 0x0 PUSH2 0x245F PUSH1 0x1E DUP4 PUSH2 0x2825 JUMP JUMPDEST SWAP2 POP PUSH2 0x246A DUP3 PUSH2 0x2C80 JUMP JUMPDEST PUSH1 0x20 DUP3 ADD SWAP1 POP SWAP2 SWAP1 POP JUMP JUMPDEST PUSH1 0x0 PUSH2 0x2482 PUSH1 0x11 DUP4 PUSH2 0x2825 JUMP JUMPDEST SWAP2 POP PUSH2 0x248D DUP3 PUSH2 0x2CA9 JUMP JUMPDEST PUSH1 0x20 DUP3 ADD SWAP1 POP SWAP2 SWAP1 POP JUMP JUMPDEST PUSH1 0x0 PUSH2 0x24A5 PUSH1 0x22 DUP4 PUSH2 0x2825 JUMP JUMPDEST SWAP2 POP PUSH2 0x24B0 DUP3 PUSH2 0x2CD2 JUMP JUMPDEST PUSH1 0x40 DUP3 ADD SWAP1 POP SWAP2 SWAP1 POP JUMP JUMPDEST PUSH1 0x0 PUSH2 0x24C8 PUSH1 0x23 DUP4 PUSH2 0x2825 JUMP JUMPDEST SWAP2 POP PUSH2 0x24D3 DUP3 PUSH2 0x2D21 JUMP JUMPDEST PUSH1 0x40 DUP3 ADD SWAP1 POP SWAP2 SWAP1 POP JUMP JUMPDEST PUSH1 0x0 PUSH2 0x24EB PUSH1 0x14 DUP4 PUSH2 0x2825 JUMP JUMPDEST SWAP2 POP PUSH2 0x24F6 DUP3 PUSH2 0x2D70 JUMP JUMPDEST PUSH1 0x20 DUP3 ADD SWAP1 POP SWAP2 SWAP1 POP JUMP JUMPDEST PUSH1 0x0 PUSH2 0x250E PUSH1 0x1D DUP4 PUSH2 0x2825 JUMP JUMPDEST SWAP2 POP PUSH2 0x2519 DUP3 PUSH2 0x2D99 JUMP JUMPDEST PUSH1 0x20 DUP3 ADD SWAP1 POP SWAP2 SWAP1 POP JUMP JUMPDEST PUSH2 0x252D DUP2 PUSH2 0x28FE JUMP JUMPDEST DUP3 MSTORE POP POP JUMP JUMPDEST PUSH2 0x253C DUP2 PUSH2 0x2908 JUMP JUMPDEST DUP3 MSTORE POP POP JUMP JUMPDEST PUSH1 0x0 PUSH1 0x20 DUP3 ADD SWAP1 POP PUSH2 0x2557 PUSH1 0x0 DUP4 ADD DUP5 PUSH2 0x22E3 JUMP JUMPDEST SWAP3 SWAP2 POP POP JUMP JUMPDEST PUSH1 0x0 PUSH1 0x20 DUP3 ADD SWAP1 POP PUSH2 0x2572 PUSH1 0x0 DUP4 ADD DUP5 PUSH2 0x22F2 JUMP JUMPDEST SWAP3 SWAP2 POP POP JUMP JUMPDEST PUSH1 0x0 PUSH1 0x20 DUP3 ADD SWAP1 POP DUP2 DUP2 SUB PUSH1 0x0 DUP4 ADD MSTORE PUSH2 0x2592 DUP2 DUP5 PUSH2 0x2301 JUMP JUMPDEST SWAP1 POP SWAP3 SWAP2 POP POP JUMP JUMPDEST PUSH1 0x0 PUSH1 0x20 DUP3 ADD SWAP1 POP DUP2 DUP2 SUB PUSH1 0x0 DUP4 ADD MSTORE PUSH2 0x25B3 DUP2 PUSH2 0x233A JUMP JUMPDEST SWAP1 POP SWAP2 SWAP1 POP JUMP JUMPDEST PUSH1 0x0 PUSH1 0x20 DUP3 ADD SWAP1 POP DUP2 DUP2 SUB PUSH1 0x0 DUP4 ADD MSTORE PUSH2 0x25D3 DUP2 PUSH2 0x235D JUMP JUMPDEST SWAP1 POP SWAP2 SWAP1 POP JUMP JUMPDEST PUSH1 0x0 PUSH1 0x20 DUP3 ADD SWAP1 POP DUP2 DUP2 SUB PUSH1 0x0 DUP4 ADD MSTORE PUSH2 0x25F3 DUP2 PUSH2 0x2380 JUMP JUMPDEST SWAP1 POP SWAP2 SWAP1 POP JUMP JUMPDEST PUSH1 0x0 PUSH1 0x20 DUP3 ADD SWAP1 POP DUP2 DUP2 SUB PUSH1 0x0 DUP4 ADD MSTORE PUSH2 0x2613 DUP2 PUSH2 0x23A3 JUMP JUMPDEST SWAP1 POP SWAP2 SWAP1 POP JUMP JUMPDEST PUSH1 0x0 PUSH1 0x20 DUP3 ADD SWAP1 POP DUP2 DUP2 SUB PUSH1 0x0 DUP4 ADD MSTORE PUSH2 0x2633 DUP2 PUSH2 0x23C6 JUMP JUMPDEST SWAP1 POP SWAP2 SWAP1 POP JUMP JUMPDEST PUSH1 0x0 PUSH1 0x20 DUP3 ADD SWAP1 POP DUP2 DUP2 SUB PUSH1 0x0 DUP4 ADD MSTORE PUSH2 0x2653 DUP2 PUSH2 0x23E9 JUMP JUMPDEST SWAP1 POP SWAP2 SWAP1 POP JUMP JUMPDEST PUSH1 0x0 PUSH1 0x20 DUP3 ADD SWAP1 POP DUP2 DUP2 SUB PUSH1 0x0 DUP4 ADD MSTORE PUSH2 0x2673 DUP2 PUSH2 0x240C JUMP JUMPDEST SWAP1 POP SWAP2 SWAP1 POP JUMP JUMPDEST PUSH1 0x0 PUSH1 0x20 DUP3 ADD SWAP1 POP DUP2 DUP2 SUB PUSH1 0x0 DUP4 ADD MSTORE PUSH2 0x2693 DUP2 PUSH2 0x242F JUMP JUMPDEST SWAP1 POP SWAP2 SWAP1 POP JUMP JUMPDEST PUSH1 0x0 PUSH1 0x20 DUP3 ADD SWAP1 POP DUP2 DUP2 SUB PUSH1 0x0 DUP4 ADD MSTORE PUSH2 0x26B3 DUP2 PUSH2 0x2452 JUMP JUMPDEST SWAP1 POP SWAP2 SWAP1 POP JUMP JUMPDEST PUSH1 0x0 PUSH1 0x20 DUP3 ADD SWAP1 POP DUP2 DUP2 SUB PUSH1 0x0 DUP4 ADD MSTORE PUSH2 0x26D3 DUP2 PUSH2 0x2475 JUMP JUMPDEST SWAP1 POP SWAP2 SWAP1 POP JUMP JUMPDEST PUSH1 0x0 PUSH1 0x20 DUP3 ADD SWAP1 POP DUP2 DUP2 SUB PUSH1 0x0 DUP4 ADD MSTORE PUSH2 0x26F3 DUP2 PUSH2 0x2498 JUMP JUMPDEST SWAP1 POP SWAP2 SWAP1 POP JUMP JUMPDEST PUSH1 0x0 PUSH1 0x20 DUP3 ADD SWAP1 POP DUP2 DUP2 SUB PUSH1 0x0 DUP4 ADD MSTORE PUSH2 0x2713 DUP2 PUSH2 0x24BB JUMP JUMPDEST SWAP1 POP SWAP2 SWAP1 POP JUMP JUMPDEST PUSH1 0x0 PUSH1 0x20 DUP3 ADD SWAP1 POP DUP2 DUP2 SUB PUSH1 0x0 DUP4 ADD MSTORE PUSH2 0x2733 DUP2 PUSH2 0x24DE JUMP JUMPDEST SWAP1 POP SWAP2 SWAP1 POP JUMP JUMPDEST PUSH1 0x0 PUSH1 0x20 DUP3 ADD SWAP1 POP DUP2 DUP2 SUB PUSH1 0x0 DUP4 ADD MSTORE PUSH2 0x2753 DUP2 PUSH2 0x2501 JUMP JUMPDEST SWAP1 POP SWAP2 SWAP1 POP JUMP JUMPDEST PUSH1 0x0 PUSH1 0x20 DUP3 ADD SWAP1 POP PUSH2 0x276F PUSH1 0x0 DUP4 ADD DUP5 PUSH2 0x2524 JUMP JUMPDEST SWAP3 SWAP2 POP POP JUMP JUMPDEST PUSH1 0x0 PUSH1 0x40 DUP3 ADD SWAP1 POP PUSH2 0x278A PUSH1 0x0 DUP4 ADD DUP6 PUSH2 0x2524 JUMP JUMPDEST PUSH2 0x2797 PUSH1 0x20 DUP4 ADD DUP5 PUSH2 0x2524 JUMP JUMPDEST SWAP4 SWAP3 POP POP POP JUMP JUMPDEST PUSH1 0x0 PUSH1 0xC0 DUP3 ADD SWAP1 POP PUSH2 0x27B3 PUSH1 0x0 DUP4 ADD DUP10 PUSH2 0x2524 JUMP JUMPDEST PUSH2 0x27C0 PUSH1 0x20 DUP4 ADD DUP9 PUSH2 0x2524 JUMP JUMPDEST PUSH2 0x27CD PUSH1 0x40 DUP4 ADD DUP8 PUSH2 0x2524 JUMP JUMPDEST PUSH2 0x27DA PUSH1 0x60 DUP4 ADD DUP7 PUSH2 0x2524 JUMP JUMPDEST PUSH2 0x27E7 PUSH1 0x80 DUP4 ADD DUP6 PUSH2 0x22F2 JUMP JUMPDEST PUSH2 0x27F4 PUSH1 0xA0 DUP4 ADD DUP5 PUSH2 0x2524 JUMP JUMPDEST SWAP8 SWAP7 POP POP POP POP POP POP POP JUMP JUMPDEST PUSH1 0x0 PUSH1 0x20 DUP3 ADD SWAP1 POP PUSH2 0x2814 PUSH1 0x0 DUP4 ADD DUP5 PUSH2 0x2533 JUMP JUMPDEST SWAP3 SWAP2 POP POP JUMP JUMPDEST PUSH1 0x0 DUP2 MLOAD SWAP1 POP SWAP2 SWAP1 POP JUMP JUMPDEST PUSH1 0x0 DUP3 DUP3 MSTORE PUSH1 0x20 DUP3 ADD SWAP1 POP SWAP3 SWAP2 POP POP JUMP JUMPDEST PUSH1 0x0 PUSH2 0x2841 DUP3 PUSH2 0x28FE JUMP JUMPDEST SWAP2 POP PUSH2 0x284C DUP4 PUSH2 0x28FE JUMP JUMPDEST SWAP3 POP DUP3 PUSH32 0xFFFFFFFFFFFFFFFFFFFFFFFFFFFFFFFFFFFFFFFFFFFFFFFFFFFFFFFFFFFFFFFF SUB DUP3 GT ISZERO PUSH2 0x2881 JUMPI PUSH2 0x2880 PUSH2 0x29C3 JUMP JUMPDEST JUMPDEST DUP3 DUP3 ADD SWAP1 POP SWAP3 SWAP2 POP POP JUMP JUMPDEST PUSH1 0x0 PUSH2 0x2897 DUP3 PUSH2 0x28FE JUMP JUMPDEST SWAP2 POP PUSH2 0x28A2 DUP4 PUSH2 0x28FE JUMP JUMPDEST SWAP3 POP DUP3 DUP3 LT ISZERO PUSH2 0x28B5 JUMPI PUSH2 0x28B4 PUSH2 0x29C3 JUMP JUMPDEST JUMPDEST DUP3 DUP3 SUB SWAP1 POP SWAP3 SWAP2 POP POP JUMP JUMPDEST PUSH1 0x0 PUSH2 0x28CB DUP3 PUSH2 0x28DE JUMP JUMPDEST SWAP1 POP SWAP2 SWAP1 POP JUMP JUMPDEST PUSH1 0x0 DUP2 ISZERO ISZERO SWAP1 POP SWAP2 SWAP1 POP JUMP JUMPDEST PUSH1 0x0 PUSH20 0xFFFFFFFFFFFFFFFFFFFFFFFFFFFFFFFFFFFFFFFF DUP3 AND SWAP1 POP SWAP2 SWAP1 POP JUMP JUMPDEST PUSH1 0x0 DUP2 SWAP1 POP SWAP2 SWAP1 POP JUMP JUMPDEST PUSH1 0x0 PUSH1 0xFF DUP3 AND SWAP1 POP SWAP2 SWAP1 POP JUMP JUMPDEST PUSH1 0x0 JUMPDEST DUP4 DUP2 LT ISZERO PUSH2 0x2933 JUMPI DUP1 DUP3 ADD MLOAD DUP2 DUP5 ADD MSTORE PUSH1 0x20 DUP2 ADD SWAP1 POP PUSH2 0x2918 JUMP JUMPDEST DUP4 DUP2 GT ISZERO PUSH2 0x2942 JUMPI PUSH1 0x0 DUP5 DUP5 ADD MSTORE JUMPDEST POP POP POP POP JUMP JUMPDEST PUSH1 0x0 PUSH1 0x2 DUP3 DIV SWAP1 POP PUSH1 0x1 DUP3 AND DUP1 PUSH2 0x2960 JUMPI PUSH1 0x7F DUP3 AND SWAP2 POP JUMPDEST PUSH1 0x20 DUP3 LT DUP2 EQ ISZERO PUSH2 0x2974 JUMPI PUSH2 0x2973 PUSH2 0x29F2 JUMP JUMPDEST JUMPDEST POP SWAP2 SWAP1 POP JUMP JUMPDEST PUSH1 0x0 PUSH2 0x2985 DUP3 PUSH2 0x28FE JUMP JUMPDEST SWAP2 POP PUSH32 0xFFFFFFFFFFFFFFFFFFFFFFFFFFFFFFFFFFFFFFFFFFFFFFFFFFFFFFFFFFFFFFFF DUP3 EQ ISZERO PUSH2 0x29B8 JUMPI PUSH2 0x29B7 PUSH2 0x29C3 JUMP JUMPDEST JUMPDEST PUSH1 0x1 DUP3 ADD SWAP1 POP SWAP2 SWAP1 POP JUMP JUMPDEST PUSH32 0x4E487B7100000000000000000000000000000000000000000000000000000000 PUSH1 0x0 MSTORE PUSH1 0x11 PUSH1 0x4 MSTORE PUSH1 0x24 PUSH1 0x0 REVERT JUMPDEST PUSH32 0x4E487B7100000000000000000000000000000000000000000000000000000000 PUSH1 0x0 MSTORE PUSH1 0x22 PUSH1 0x4 MSTORE PUSH1 0x24 PUSH1 0x0 REVERT JUMPDEST PUSH32 0x4E487B7100000000000000000000000000000000000000000000000000000000 PUSH1 0x0 MSTORE PUSH1 0x32 PUSH1 0x4 MSTORE PUSH1 0x24 PUSH1 0x0 REVERT JUMPDEST PUSH1 0x0 DUP1 REVERT JUMPDEST PUSH1 0x0 DUP1 REVERT JUMPDEST PUSH1 0x0 DUP1 REVERT JUMPDEST PUSH1 0x0 DUP1 REVERT JUMPDEST PUSH1 0x0 DUP1 REVERT JUMPDEST PUSH1 0x0 PUSH1 0x1F NOT PUSH1 0x1F DUP4 ADD AND SWAP1 POP SWAP2 SWAP1 POP JUMP JUMPDEST PUSH32 0x47484F53503A207472616E736665722066726F6D20746865207A65726F206164 PUSH1 0x0 DUP3 ADD MSTORE PUSH32 0x6472657373000000000000000000000000000000000000000000000000000000 PUSH1 0x20 DUP3 ADD MSTORE POP JUMP JUMPDEST PUSH32 0x47484F53503A20617070726F76652066726F6D20746865207A65726F20616464 PUSH1 0x0 DUP3 ADD MSTORE PUSH32 0x7265737300000000000000000000000000000000000000000000000000000000 PUSH1 0x20 DUP3 ADD MSTORE POP JUMP JUMPDEST PUSH32 0x4F776E61626C653A206E6577206F776E657220697320746865207A65726F2061 PUSH1 0x0 DUP3 ADD MSTORE PUSH32 0x6464726573730000000000000000000000000000000000000000000000000000 PUSH1 0x20 DUP3 ADD MSTORE POP JUMP JUMPDEST PUSH32 0x536166654D6174683A206164646974696F6E206F766572666C6F770000000000 PUSH1 0x0 DUP3 ADD MSTORE POP JUMP JUMPDEST PUSH32 0x496E76616C696420696E64657800000000000000000000000000000000000000 PUSH1 0x0 DUP3 ADD MSTORE POP JUMP JUMPDEST PUSH32 0x47484F53503A207472616E7366657220746F20746865207A65726F2061646472 PUSH1 0x0 DUP3 ADD MSTORE PUSH32 0x6573730000000000000000000000000000000000000000000000000000000000 PUSH1 0x20 DUP3 ADD MSTORE POP JUMP JUMPDEST PUSH32 0x4C4745202D20416D6F756E7420657863656564732077686974656C697374206D PUSH1 0x0 DUP3 ADD MSTORE PUSH32 0x6178696D756D0000000000000000000000000000000000000000000000000000 PUSH1 0x20 DUP3 ADD MSTORE POP JUMP JUMPDEST PUSH32 0x4F776E61626C653A2063616C6C6572206973206E6F7420746865206F776E6572 PUSH1 0x0 DUP3 ADD MSTORE POP JUMP JUMPDEST PUSH32 0x4C4745202D204275796572206973206E6F742077686974656C69737465640000 PUSH1 0x0 DUP3 ADD MSTORE POP JUMP JUMPDEST PUSH32 0x496E76616C696420616D6F756E744D6178000000000000000000000000000000 PUSH1 0x0 DUP3 ADD MSTORE POP JUMP JUMPDEST PUSH32 0x47484F53503A20617070726F766520746F20746865207A65726F206164647265 PUSH1 0x0 DUP3 ADD MSTORE PUSH32 0x7373000000000000000000000000000000000000000000000000000000000000 PUSH1 0x20 DUP3 ADD MSTORE POP JUMP JUMPDEST PUSH32 0x4E65772077686974656C697374657220697320746865207A65726F2061646472 PUSH1 0x0 DUP3 ADD MSTORE PUSH32 0x6573730000000000000000000000000000000000000000000000000000000000 PUSH1 0x20 DUP3 ADD MSTORE POP JUMP JUMPDEST PUSH32 0x496E76616C69642077686974656C697374287329000000000000000000000000 PUSH1 0x0 DUP3 ADD MSTORE POP JUMP JUMPDEST PUSH32 0x43616C6C6572206973206E6F74207468652077686974656C6973746572000000 PUSH1 0x0 DUP3 ADD MSTORE POP JUMP JUMPDEST PUSH2 0x2DCB DUP2 PUSH2 0x28C0 JUMP JUMPDEST DUP2 EQ PUSH2 0x2DD6 JUMPI PUSH1 0x0 DUP1 REVERT JUMPDEST POP JUMP JUMPDEST PUSH2 0x2DE2 DUP2 PUSH2 0x28D2 JUMP JUMPDEST DUP2 EQ PUSH2 0x2DED JUMPI PUSH1 0x0 DUP1 REVERT JUMPDEST POP JUMP JUMPDEST PUSH2 0x2DF9 DUP2 PUSH2 0x28FE JUMP JUMPDEST DUP2 EQ PUSH2 0x2E04 JUMPI PUSH1 0x0 DUP1 REVERT JUMPDEST POP JUMP INVALID SELFBALANCE BASEFEE 0x4F MSTORE8 POP GASPRICE KECCAK256 PUSH21 0x72616E7366657220616D6F756E7420657863656564 PUSH20 0x2062616C616E636547484F53503A207472616E73 PUSH7 0x657220616D6F75 PUSH15 0x74206578636565647320616C6C6F77 PUSH2 0x6E63 PUSH6 0x47484F53503A KECCAK256 PUSH5 0x6563726561 PUSH20 0x656420616C6C6F77616E63652062656C6F77207A PUSH6 0x726FA2646970 PUSH7 0x735822122068B1 0xAD CALLCODE 0xB5 0x23 0x29 0xB2 0x2C DUP15 0xB4 PUSH32 0x765927A78F2F618C0B8A0A8CD3AFAB6EC56B729064736F6C6343000807003300 "
				},
				"gasEstimates": {
					"creation": {
						"codeDepositCost": "2390400",
						"executionCost": "infinite",
						"totalCost": "infinite"
					},
					"external": {
						"_lgePairAddress()": "2603",
						"_lgeTimestamp()": "2517",
						"_lgeWhitelistRounds(uint256)": "infinite",
						"_whitelister()": "2580",
						"allowance(address,address)": "infinite",
						"approve(address,uint256)": "infinite",
						"balanceOf(address)": "2974",
						"createLGEWhitelist(address,uint256[],uint256[])": "infinite",
						"decimals()": "2502",
						"decreaseAllowance(address,uint256)": "infinite",
						"getLGEWhitelistRound()": "infinite",
						"getOwner()": "2602",
						"increaseAllowance(address,uint256)": "infinite",
						"modifyLGEWhitelist(uint256,uint256,uint256,address[],bool)": "infinite",
						"name()": "infinite",
						"owner()": "2589",
						"renounceOwnership()": "30352",
						"renounceWhitelister()": "30408",
						"symbol()": "infinite",
						"totalSupply()": "2505",
						"transfer(address,uint256)": "infinite",
						"transferFrom(address,address,uint256)": "infinite",
						"transferOwnership(address)": "30810",
						"transferWhitelister(address)": "30809"
					},
					"internal": {
						"_approve(address,address,uint256)": "infinite",
						"_transfer(address,address,uint256)": "infinite"
					}
				},
				"methodIdentifiers": {
					"_lgePairAddress()": "49448898",
					"_lgeTimestamp()": "da91b76e",
					"_lgeWhitelistRounds(uint256)": "a77cac7a",
					"_whitelister()": "d5215d11",
					"allowance(address,address)": "dd62ed3e",
					"approve(address,uint256)": "095ea7b3",
					"balanceOf(address)": "70a08231",
					"createLGEWhitelist(address,uint256[],uint256[])": "532f1fed",
					"decimals()": "313ce567",
					"decreaseAllowance(address,uint256)": "a457c2d7",
					"getLGEWhitelistRound()": "1b29b0cd",
					"getOwner()": "893d20e8",
					"increaseAllowance(address,uint256)": "39509351",
					"modifyLGEWhitelist(uint256,uint256,uint256,address[],bool)": "44ade3c5",
					"name()": "06fdde03",
					"owner()": "8da5cb5b",
					"renounceOwnership()": "715018a6",
					"renounceWhitelister()": "9ad3a7ba",
					"symbol()": "95d89b41",
					"totalSupply()": "18160ddd",
					"transfer(address,uint256)": "a9059cbb",
					"transferFrom(address,address,uint256)": "23b872dd",
					"transferOwnership(address)": "f2fde38b",
					"transferWhitelister(address)": "2e15e5c7"
				}
			},
			"userdoc": {
				"kind": "user",
				"methods": {},
				"version": 1
			}
		}
	}
}